{
	"contracts/HRSLocalArbitrator.sol": {
		"HouseRentalAgreement": {
			"abi": [
				{
					"inputs": [
						{
							"internalType": "address",
							"name": "_renter",
							"type": "address"
						},
						{
							"internalType": "address",
							"name": "_arbitratorAddress",
							"type": "address"
						}
					],
					"stateMutability": "nonpayable",
					"type": "constructor"
				},
				{
					"anonymous": false,
					"inputs": [
						{
							"indexed": false,
							"internalType": "uint256",
							"name": "securityDeposit",
							"type": "uint256"
						},
						{
							"indexed": false,
							"internalType": "uint256",
							"name": "baseRent",
							"type": "uint256"
						},
						{
							"indexed": false,
							"internalType": "uint256",
							"name": "rentPeriodInMonths",
							"type": "uint256"
						}
					],
					"name": "AgreementTermsSet",
					"type": "event"
				},
				{
					"anonymous": false,
					"inputs": [],
					"name": "ContractActivated",
					"type": "event"
				},
				{
					"anonymous": false,
					"inputs": [
						{
							"indexed": false,
							"internalType": "uint256",
							"name": "securityDepositReturned",
							"type": "uint256"
						},
						{
							"indexed": false,
							"internalType": "uint256",
							"name": "dueAmountPaid",
							"type": "uint256"
						}
					],
					"name": "ContractEnded",
					"type": "event"
				},
				{
					"anonymous": false,
					"inputs": [],
					"name": "CounterEstimateAccepted",
					"type": "event"
				},
				{
					"anonymous": false,
					"inputs": [],
					"name": "CounterEstimateRejected",
					"type": "event"
				},
				{
					"anonymous": false,
					"inputs": [
						{
							"indexed": false,
							"internalType": "uint256",
							"name": "counterEstimate",
							"type": "uint256"
						}
					],
					"name": "CounterEstimateSet",
					"type": "event"
				},
				{
					"anonymous": false,
					"inputs": [
						{
							"indexed": false,
							"internalType": "uint256",
							"name": "estimate",
							"type": "uint256"
						}
					],
					"name": "DamageEstimateSet",
					"type": "event"
				},
				{
					"anonymous": false,
					"inputs": [
						{
							"indexed": false,
							"internalType": "uint256",
							"name": "disputeID",
							"type": "uint256"
						}
					],
					"name": "DisputeRaised",
					"type": "event"
				},
				{
					"anonymous": false,
					"inputs": [
						{
							"indexed": false,
							"internalType": "uint256",
							"name": "disputeID",
							"type": "uint256"
						},
						{
							"indexed": false,
							"internalType": "uint256",
							"name": "ruling",
							"type": "uint256"
						}
					],
					"name": "DisputeResolved",
					"type": "event"
				},
				{
					"anonymous": false,
					"inputs": [],
					"name": "EstimateRejected",
					"type": "event"
				},
				{
					"anonymous": false,
					"inputs": [
						{
							"indexed": true,
							"internalType": "address",
							"name": "to",
							"type": "address"
						},
						{
							"indexed": false,
							"internalType": "uint256",
							"name": "amount",
							"type": "uint256"
						}
					],
					"name": "FundsTransferred",
					"type": "event"
				},
				{
					"anonymous": false,
					"inputs": [
						{
							"indexed": false,
							"internalType": "uint256",
							"name": "month",
							"type": "uint256"
						},
						{
							"indexed": false,
							"internalType": "uint256",
							"name": "amount",
							"type": "uint256"
						}
					],
					"name": "RentPaid",
					"type": "event"
				},
				{
					"anonymous": false,
					"inputs": [
						{
							"indexed": false,
							"internalType": "uint256",
							"name": "month",
							"type": "uint256"
						},
						{
							"indexed": false,
							"internalType": "uint256",
							"name": "amount",
							"type": "uint256"
						}
					],
					"name": "RentSkipped",
					"type": "event"
				},
				{
					"anonymous": false,
					"inputs": [
						{
							"indexed": false,
							"internalType": "uint256",
							"name": "month",
							"type": "uint256"
						},
						{
							"indexed": false,
							"internalType": "uint256",
							"name": "amount",
							"type": "uint256"
						}
					],
					"name": "RentTransferred",
					"type": "event"
				},
				{
					"anonymous": false,
					"inputs": [
						{
							"indexed": false,
							"internalType": "uint256",
							"name": "amount",
							"type": "uint256"
						}
					],
					"name": "SecurityDepositPaid",
					"type": "event"
				},
				{
					"anonymous": false,
					"inputs": [
						{
							"indexed": false,
							"internalType": "uint256",
							"name": "month",
							"type": "uint256"
						},
						{
							"indexed": false,
							"internalType": "uint256",
							"name": "amount",
							"type": "uint256"
						}
					],
					"name": "UtilitiesRecorded",
					"type": "event"
				},
				{
					"anonymous": false,
					"inputs": [
						{
							"indexed": true,
							"internalType": "address",
							"name": "by",
							"type": "address"
						},
						{
							"indexed": false,
							"internalType": "uint256",
							"name": "amount",
							"type": "uint256"
						}
					],
					"name": "WithdrawalRequested",
					"type": "event"
				},
				{
					"inputs": [],
					"name": "acceptLandlordEstimate",
					"outputs": [],
					"stateMutability": "nonpayable",
					"type": "function"
				},
				{
					"inputs": [],
					"name": "acceptRenterCounterEstimate",
					"outputs": [],
					"stateMutability": "nonpayable",
					"type": "function"
				},
				{
					"inputs": [],
					"name": "arbitrationCost",
					"outputs": [
						{
							"internalType": "uint256",
							"name": "",
							"type": "uint256"
						}
					],
					"stateMutability": "view",
					"type": "function"
				},
				{
					"inputs": [],
					"name": "arbitrator",
					"outputs": [
						{
							"internalType": "contract ILocalArbitrator",
							"name": "",
							"type": "address"
						}
					],
					"stateMutability": "view",
					"type": "function"
				},
				{
					"inputs": [],
					"name": "baseRent",
					"outputs": [
						{
							"internalType": "uint256",
							"name": "",
							"type": "uint256"
						}
					],
					"stateMutability": "view",
					"type": "function"
				},
				{
					"inputs": [],
					"name": "currentMonth",
					"outputs": [
						{
							"internalType": "uint256",
							"name": "",
							"type": "uint256"
						}
					],
					"stateMutability": "view",
					"type": "function"
				},
				{
					"inputs": [],
					"name": "currentSecurityDeposit",
					"outputs": [
						{
							"internalType": "uint256",
							"name": "",
							"type": "uint256"
						}
					],
					"stateMutability": "view",
					"type": "function"
				},
				{
					"inputs": [],
					"name": "damageEstimate",
					"outputs": [
						{
							"internalType": "uint256",
							"name": "",
							"type": "uint256"
						}
					],
					"stateMutability": "view",
					"type": "function"
				},
				{
					"inputs": [],
					"name": "disputeID",
					"outputs": [
						{
							"internalType": "uint256",
							"name": "",
							"type": "uint256"
						}
					],
					"stateMutability": "view",
					"type": "function"
				},
				{
					"inputs": [],
					"name": "disputeRaised",
					"outputs": [
						{
							"internalType": "bool",
							"name": "",
							"type": "bool"
						}
					],
					"stateMutability": "view",
					"type": "function"
				},
				{
					"inputs": [],
					"name": "dueRent",
					"outputs": [
						{
							"internalType": "uint256",
							"name": "",
							"type": "uint256"
						}
					],
					"stateMutability": "view",
					"type": "function"
				},
				{
					"inputs": [
						{
							"internalType": "uint256",
							"name": "_disputeID",
							"type": "uint256"
						},
						{
							"internalType": "uint256",
							"name": "_ruling",
							"type": "uint256"
						}
					],
					"name": "executeRuling",
					"outputs": [],
					"stateMutability": "nonpayable",
					"type": "function"
				},
				{
					"inputs": [],
					"name": "getArbitrationCost",
					"outputs": [
						{
							"internalType": "uint256",
							"name": "",
							"type": "uint256"
						}
					],
					"stateMutability": "view",
					"type": "function"
				},
				{
					"inputs": [],
					"name": "getContractBalance",
					"outputs": [
						{
							"internalType": "uint256",
							"name": "",
							"type": "uint256"
						}
					],
					"stateMutability": "view",
					"type": "function"
				},
				{
					"inputs": [],
					"name": "getCurrentSecurityDeposit",
					"outputs": [
						{
							"internalType": "uint256",
							"name": "",
							"type": "uint256"
						}
					],
					"stateMutability": "view",
					"type": "function"
				},
				{
					"inputs": [],
					"name": "getLandlordBalance",
					"outputs": [
						{
							"internalType": "uint256",
							"name": "",
							"type": "uint256"
						}
					],
					"stateMutability": "view",
					"type": "function"
				},
				{
					"inputs": [],
					"name": "getRenterBalance",
					"outputs": [
						{
							"internalType": "uint256",
							"name": "",
							"type": "uint256"
						}
					],
					"stateMutability": "view",
					"type": "function"
				},
				{
					"inputs": [],
					"name": "initializeCurrentSecurityDeposit",
					"outputs": [],
					"stateMutability": "nonpayable",
					"type": "function"
				},
				{
					"inputs": [],
					"name": "isActive",
					"outputs": [
						{
							"internalType": "bool",
							"name": "",
							"type": "bool"
						}
					],
					"stateMutability": "view",
					"type": "function"
				},
				{
					"inputs": [],
					"name": "isRentalPeriodEnded",
					"outputs": [
						{
							"internalType": "bool",
							"name": "",
							"type": "bool"
						}
					],
					"stateMutability": "view",
					"type": "function"
				},
				{
					"inputs": [],
					"name": "isSecurityDepositPaid",
					"outputs": [
						{
							"internalType": "bool",
							"name": "",
							"type": "bool"
						}
					],
					"stateMutability": "view",
					"type": "function"
				},
				{
					"inputs": [],
					"name": "landlord",
					"outputs": [
						{
							"internalType": "address",
							"name": "",
							"type": "address"
						}
					],
					"stateMutability": "view",
					"type": "function"
				},
				{
					"inputs": [],
					"name": "landlordEstimateSet",
					"outputs": [
						{
							"internalType": "bool",
							"name": "",
							"type": "bool"
						}
					],
					"stateMutability": "view",
					"type": "function"
				},
				{
					"inputs": [
						{
							"internalType": "uint256",
							"name": "",
							"type": "uint256"
						}
					],
					"name": "monthlyRents",
					"outputs": [
						{
							"internalType": "uint256",
							"name": "baseRent",
							"type": "uint256"
						},
						{
							"internalType": "uint256",
							"name": "utilities",
							"type": "uint256"
						},
						{
							"internalType": "uint256",
							"name": "due",
							"type": "uint256"
						},
						{
							"internalType": "bool",
							"name": "paid",
							"type": "bool"
						}
					],
					"stateMutability": "view",
					"type": "function"
				},
				{
					"inputs": [],
					"name": "payRent",
					"outputs": [],
					"stateMutability": "payable",
					"type": "function"
				},
				{
					"inputs": [],
					"name": "paySecurityDeposit",
					"outputs": [],
					"stateMutability": "payable",
					"type": "function"
				},
				{
					"inputs": [
						{
							"internalType": "address",
							"name": "",
							"type": "address"
						}
					],
					"name": "pendingWithdrawals",
					"outputs": [
						{
							"internalType": "uint256",
							"name": "",
							"type": "uint256"
						}
					],
					"stateMutability": "view",
					"type": "function"
				},
				{
					"inputs": [
						{
							"internalType": "uint256",
							"name": "_utilities",
							"type": "uint256"
						}
					],
					"name": "recordUtilities",
					"outputs": [],
					"stateMutability": "nonpayable",
					"type": "function"
				},
				{
					"inputs": [],
					"name": "rejectLandlordEstimate",
					"outputs": [],
					"stateMutability": "nonpayable",
					"type": "function"
				},
				{
					"inputs": [],
					"name": "rejectRenterCounterEstimate",
					"outputs": [],
					"stateMutability": "nonpayable",
					"type": "function"
				},
				{
					"inputs": [],
					"name": "rentPeriodInMonths",
					"outputs": [
						{
							"internalType": "uint256",
							"name": "",
							"type": "uint256"
						}
					],
					"stateMutability": "view",
					"type": "function"
				},
				{
					"inputs": [],
					"name": "rentStartDate",
					"outputs": [
						{
							"internalType": "uint256",
							"name": "",
							"type": "uint256"
						}
					],
					"stateMutability": "view",
					"type": "function"
				},
				{
					"inputs": [],
					"name": "rentalPeriodEnded",
					"outputs": [
						{
							"internalType": "bool",
							"name": "",
							"type": "bool"
						}
					],
					"stateMutability": "view",
					"type": "function"
				},
				{
					"inputs": [],
					"name": "renter",
					"outputs": [
						{
							"internalType": "address",
							"name": "",
							"type": "address"
						}
					],
					"stateMutability": "view",
					"type": "function"
				},
				{
					"inputs": [],
					"name": "renterCounterEstimate",
					"outputs": [
						{
							"internalType": "uint256",
							"name": "",
							"type": "uint256"
						}
					],
					"stateMutability": "view",
					"type": "function"
				},
				{
					"inputs": [],
					"name": "renterCounterEstimateSet",
					"outputs": [
						{
							"internalType": "bool",
							"name": "",
							"type": "bool"
						}
					],
					"stateMutability": "view",
					"type": "function"
				},
				{
					"inputs": [],
					"name": "securityDeposit",
					"outputs": [
						{
							"internalType": "uint256",
							"name": "",
							"type": "uint256"
						}
					],
					"stateMutability": "view",
					"type": "function"
				},
				{
					"inputs": [
						{
							"internalType": "uint256",
							"name": "_securityDeposit",
							"type": "uint256"
						},
						{
							"internalType": "uint256",
							"name": "_baseRent",
							"type": "uint256"
						},
						{
							"internalType": "uint256",
							"name": "_rentPeriodInMonths",
							"type": "uint256"
						}
					],
					"name": "setAgreementTerms",
					"outputs": [],
					"stateMutability": "nonpayable",
					"type": "function"
				},
				{
					"inputs": [
						{
							"internalType": "uint256",
							"name": "_damageEstimate",
							"type": "uint256"
						}
					],
					"name": "setDamageEstimate",
					"outputs": [],
					"stateMutability": "nonpayable",
					"type": "function"
				},
				{
					"inputs": [
						{
							"internalType": "uint256",
							"name": "_renterCounterEstimate",
							"type": "uint256"
						}
					],
					"name": "setRenterCounterEstimate",
					"outputs": [],
					"stateMutability": "nonpayable",
					"type": "function"
				},
				{
					"inputs": [],
					"name": "skipRentPayment",
					"outputs": [],
					"stateMutability": "nonpayable",
					"type": "function"
				},
				{
					"inputs": [],
					"name": "withdraw",
					"outputs": [],
					"stateMutability": "nonpayable",
					"type": "function"
				},
				{
					"stateMutability": "payable",
					"type": "receive"
				}
			],
			"devdoc": {
				"kind": "dev",
				"methods": {},
				"version": 1
			},
			"evm": {
				"assembly": "    /* \"contracts/HRSLocalArbitrator.sol\":279:13885  contract HouseRentalAgreement {... */\n  mstore(0x40, 0x80)\n    /* \"contracts/HRSLocalArbitrator.sol\":2227:2510  constructor(address _renter, address _arbitratorAddress) {... */\n  callvalue\n  dup1\n  iszero\n  tag_1\n  jumpi\n  0x00\n  dup1\n  revert\ntag_1:\n  pop\n  mload(0x40)\n  sub(codesize, bytecodeSize)\n  dup1\n  bytecodeSize\n  dup4\n  codecopy\n  dup2\n  dup2\n  add\n  0x40\n  mstore\n  dup2\n  add\n  swap1\n  tag_2\n  swap2\n  swap1\n  tag_3\n  jump\t// in\ntag_2:\n    /* \"contracts/HRSLocalArbitrator.sol\":2306:2316  msg.sender */\n  caller\n    /* \"contracts/HRSLocalArbitrator.sol\":2295:2303  landlord */\n  0x00\n  dup1\n    /* \"contracts/HRSLocalArbitrator.sol\":2295:2316  landlord = msg.sender */\n  0x0100\n  exp\n  dup2\n  sload\n  dup2\n  0xffffffffffffffffffffffffffffffffffffffff\n  mul\n  not\n  and\n  swap1\n  dup4\n  0xffffffffffffffffffffffffffffffffffffffff\n  and\n  mul\n  or\n  swap1\n  sstore\n  pop\n    /* \"contracts/HRSLocalArbitrator.sol\":2336:2343  _renter */\n  dup2\n    /* \"contracts/HRSLocalArbitrator.sol\":2327:2333  renter */\n  0x01\n  0x00\n    /* \"contracts/HRSLocalArbitrator.sol\":2327:2343  renter = _renter */\n  0x0100\n  exp\n  dup2\n  sload\n  dup2\n  0xffffffffffffffffffffffffffffffffffffffff\n  mul\n  not\n  and\n  swap1\n  dup4\n  0xffffffffffffffffffffffffffffffffffffffff\n  and\n  mul\n  or\n  swap1\n  sstore\n  pop\n    /* \"contracts/HRSLocalArbitrator.sol\":2384:2402  _arbitratorAddress */\n  dup1\n    /* \"contracts/HRSLocalArbitrator.sol\":2354:2364  arbitrator */\n  0x0d\n  0x06\n    /* \"contracts/HRSLocalArbitrator.sol\":2354:2403  arbitrator = ILocalArbitrator(_arbitratorAddress) */\n  0x0100\n  exp\n  dup2\n  sload\n  dup2\n  0xffffffffffffffffffffffffffffffffffffffff\n  mul\n  not\n  and\n  swap1\n  dup4\n  0xffffffffffffffffffffffffffffffffffffffff\n  and\n  mul\n  or\n  swap1\n  sstore\n  pop\n    /* \"contracts/HRSLocalArbitrator.sol\":2425:2430  false */\n  0x00\n    /* \"contracts/HRSLocalArbitrator.sol\":2414:2422  isActive */\n  0x0d\n  0x00\n    /* \"contracts/HRSLocalArbitrator.sol\":2414:2430  isActive = false */\n  0x0100\n  exp\n  dup2\n  sload\n  dup2\n  0xff\n  mul\n  not\n  and\n  swap1\n  dup4\n  iszero\n  iszero\n  mul\n  or\n  swap1\n  sstore\n  pop\n    /* \"contracts/HRSLocalArbitrator.sol\":2465:2470  false */\n  0x00\n    /* \"contracts/HRSLocalArbitrator.sol\":2441:2462  isSecurityDepositPaid */\n  0x0d\n  0x01\n    /* \"contracts/HRSLocalArbitrator.sol\":2441:2470  isSecurityDepositPaid = false */\n  0x0100\n  exp\n  dup2\n  sload\n  dup2\n  0xff\n  mul\n  not\n  and\n  swap1\n  dup4\n  iszero\n  iszero\n  mul\n  or\n  swap1\n  sstore\n  pop\n    /* \"contracts/HRSLocalArbitrator.sol\":2497:2502  false */\n  0x00\n    /* \"contracts/HRSLocalArbitrator.sol\":2481:2494  disputeRaised */\n  0x0d\n  0x02\n    /* \"contracts/HRSLocalArbitrator.sol\":2481:2502  disputeRaised = false */\n  0x0100\n  exp\n  dup2\n  sload\n  dup2\n  0xff\n  mul\n  not\n  and\n  swap1\n  dup4\n  iszero\n  iszero\n  mul\n  or\n  swap1\n  sstore\n  pop\n    /* \"contracts/HRSLocalArbitrator.sol\":2227:2510  constructor(address _renter, address _arbitratorAddress) {... */\n  pop\n  pop\n    /* \"contracts/HRSLocalArbitrator.sol\":279:13885  contract HouseRentalAgreement {... */\n  jump(tag_6)\n    /* \"#utility.yul\":88:205   */\ntag_8:\n    /* \"#utility.yul\":197:198   */\n  0x00\n    /* \"#utility.yul\":194:195   */\n  dup1\n    /* \"#utility.yul\":187:199   */\n  revert\n    /* \"#utility.yul\":334:460   */\ntag_10:\n    /* \"#utility.yul\":371:378   */\n  0x00\n    /* \"#utility.yul\":411:453   */\n  0xffffffffffffffffffffffffffffffffffffffff\n    /* \"#utility.yul\":404:409   */\n  dup3\n    /* \"#utility.yul\":400:454   */\n  and\n    /* \"#utility.yul\":389:454   */\n  swap1\n  pop\n    /* \"#utility.yul\":334:460   */\n  swap2\n  swap1\n  pop\n  jump\t// out\n    /* \"#utility.yul\":466:562   */\ntag_11:\n    /* \"#utility.yul\":503:510   */\n  0x00\n    /* \"#utility.yul\":532:556   */\n  tag_20\n    /* \"#utility.yul\":550:555   */\n  dup3\n    /* \"#utility.yul\":532:556   */\n  tag_10\n  jump\t// in\ntag_20:\n    /* \"#utility.yul\":521:556   */\n  swap1\n  pop\n    /* \"#utility.yul\":466:562   */\n  swap2\n  swap1\n  pop\n  jump\t// out\n    /* \"#utility.yul\":568:690   */\ntag_12:\n    /* \"#utility.yul\":641:665   */\n  tag_22\n    /* \"#utility.yul\":659:664   */\n  dup2\n    /* \"#utility.yul\":641:665   */\n  tag_11\n  jump\t// in\ntag_22:\n    /* \"#utility.yul\":634:639   */\n  dup2\n    /* \"#utility.yul\":631:666   */\n  eq\n    /* \"#utility.yul\":621:684   */\n  tag_23\n  jumpi\n    /* \"#utility.yul\":680:681   */\n  0x00\n    /* \"#utility.yul\":677:678   */\n  dup1\n    /* \"#utility.yul\":670:682   */\n  revert\n    /* \"#utility.yul\":621:684   */\ntag_23:\n    /* \"#utility.yul\":568:690   */\n  pop\n  jump\t// out\n    /* \"#utility.yul\":696:839   */\ntag_13:\n    /* \"#utility.yul\":753:758   */\n  0x00\n    /* \"#utility.yul\":784:790   */\n  dup2\n    /* \"#utility.yul\":778:791   */\n  mload\n    /* \"#utility.yul\":769:791   */\n  swap1\n  pop\n    /* \"#utility.yul\":800:833   */\n  tag_25\n    /* \"#utility.yul\":827:832   */\n  dup2\n    /* \"#utility.yul\":800:833   */\n  tag_12\n  jump\t// in\ntag_25:\n    /* \"#utility.yul\":696:839   */\n  swap3\n  swap2\n  pop\n  pop\n  jump\t// out\n    /* \"#utility.yul\":845:1352   */\ntag_3:\n    /* \"#utility.yul\":924:930   */\n  0x00\n    /* \"#utility.yul\":932:938   */\n  dup1\n    /* \"#utility.yul\":981:983   */\n  0x40\n    /* \"#utility.yul\":969:978   */\n  dup4\n    /* \"#utility.yul\":960:967   */\n  dup6\n    /* \"#utility.yul\":956:979   */\n  sub\n    /* \"#utility.yul\":952:984   */\n  slt\n    /* \"#utility.yul\":949:1068   */\n  iszero\n  tag_27\n  jumpi\n    /* \"#utility.yul\":987:1066   */\n  tag_28\n  tag_8\n  jump\t// in\ntag_28:\n    /* \"#utility.yul\":949:1068   */\ntag_27:\n    /* \"#utility.yul\":1107:1108   */\n  0x00\n    /* \"#utility.yul\":1132:1196   */\n  tag_29\n    /* \"#utility.yul\":1188:1195   */\n  dup6\n    /* \"#utility.yul\":1179:1185   */\n  dup3\n    /* \"#utility.yul\":1168:1177   */\n  dup7\n    /* \"#utility.yul\":1164:1186   */\n  add\n    /* \"#utility.yul\":1132:1196   */\n  tag_13\n  jump\t// in\ntag_29:\n    /* \"#utility.yul\":1122:1196   */\n  swap3\n  pop\n    /* \"#utility.yul\":1078:1206   */\n  pop\n    /* \"#utility.yul\":1245:1247   */\n  0x20\n    /* \"#utility.yul\":1271:1335   */\n  tag_30\n    /* \"#utility.yul\":1327:1334   */\n  dup6\n    /* \"#utility.yul\":1318:1324   */\n  dup3\n    /* \"#utility.yul\":1307:1316   */\n  dup7\n    /* \"#utility.yul\":1303:1325   */\n  add\n    /* \"#utility.yul\":1271:1335   */\n  tag_13\n  jump\t// in\ntag_30:\n    /* \"#utility.yul\":1261:1335   */\n  swap2\n  pop\n    /* \"#utility.yul\":1216:1345   */\n  pop\n    /* \"#utility.yul\":845:1352   */\n  swap3\n  pop\n  swap3\n  swap1\n  pop\n  jump\t// out\n    /* \"contracts/HRSLocalArbitrator.sol\":279:13885  contract HouseRentalAgreement {... */\ntag_6:\n  dataSize(sub_0)\n  dup1\n  dataOffset(sub_0)\n  0x00\n  codecopy\n  0x00\n  return\nstop\n\nsub_0: assembly {\n        /* \"contracts/HRSLocalArbitrator.sol\":279:13885  contract HouseRentalAgreement {... */\n      mstore(0x40, 0x80)\n      jumpi(tag_1, lt(calldatasize, 0x04))\n      shr(0xe0, calldataload(0x00))\n      dup1\n      0x7ef98740\n      gt\n      tag_45\n      jumpi\n      dup1\n      0xd261c91f\n      gt\n      tag_46\n      jumpi\n      dup1\n      0xdd6bcb16\n      gt\n      tag_47\n      jumpi\n      dup1\n      0xdd6bcb16\n      eq\n      tag_39\n      jumpi\n      dup1\n      0xe1505e4e\n      eq\n      tag_40\n      jumpi\n      dup1\n      0xeaa0a302\n      eq\n      tag_41\n      jumpi\n      dup1\n      0xf13702f4\n      eq\n      tag_42\n      jumpi\n      dup1\n      0xf3f43703\n      eq\n      tag_43\n      jumpi\n      dup1\n      0xfeeaea4e\n      eq\n      tag_44\n      jumpi\n      jump(tag_2)\n    tag_47:\n      dup1\n      0xd261c91f\n      eq\n      tag_34\n      jumpi\n      dup1\n      0xd738307c\n      eq\n      tag_35\n      jumpi\n      dup1\n      0xd96152c3\n      eq\n      tag_36\n      jumpi\n      dup1\n      0xdc1997ea\n      eq\n      tag_37\n      jumpi\n      dup1\n      0xdcf2559e\n      eq\n      tag_38\n      jumpi\n      jump(tag_2)\n    tag_46:\n      dup1\n      0xa972500f\n      gt\n      tag_48\n      jumpi\n      dup1\n      0xa972500f\n      eq\n      tag_29\n      jumpi\n      dup1\n      0xb0a1e2b4\n      eq\n      tag_30\n      jumpi\n      dup1\n      0xc2d6d462\n      eq\n      tag_31\n      jumpi\n      dup1\n      0xca088031\n      eq\n      tag_32\n      jumpi\n      dup1\n      0xcbe615b1\n      eq\n      tag_33\n      jumpi\n      jump(tag_2)\n    tag_48:\n      dup1\n      0x7ef98740\n      eq\n      tag_24\n      jumpi\n      dup1\n      0x81d388ba\n      eq\n      tag_25\n      jumpi\n      dup1\n      0x862a4d47\n      eq\n      tag_26\n      jumpi\n      dup1\n      0x87eaa342\n      eq\n      tag_27\n      jumpi\n      dup1\n      0xa709c4fe\n      eq\n      tag_28\n      jumpi\n      jump(tag_2)\n    tag_45:\n      dup1\n      0x47ed9c65\n      gt\n      tag_49\n      jumpi\n      dup1\n      0x6cc6cde1\n      gt\n      tag_50\n      jumpi\n      dup1\n      0x6cc6cde1\n      eq\n      tag_18\n      jumpi\n      dup1\n      0x6f3c590c\n      eq\n      tag_19\n      jumpi\n      dup1\n      0x6f9fb98a\n      eq\n      tag_20\n      jumpi\n      dup1\n      0x71357a46\n      eq\n      tag_21\n      jumpi\n      dup1\n      0x740906c0\n      eq\n      tag_22\n      jumpi\n      dup1\n      0x779318e5\n      eq\n      tag_23\n      jumpi\n      jump(tag_2)\n    tag_50:\n      dup1\n      0x47ed9c65\n      eq\n      tag_13\n      jumpi\n      dup1\n      0x561eefd8\n      eq\n      tag_14\n      jumpi\n      dup1\n      0x5a0e9bcc\n      eq\n      tag_15\n      jumpi\n      dup1\n      0x63022560\n      eq\n      tag_16\n      jumpi\n      dup1\n      0x697b05a2\n      eq\n      tag_17\n      jumpi\n      jump(tag_2)\n    tag_49:\n      dup1\n      0x220e5ab3\n      gt\n      tag_51\n      jumpi\n      dup1\n      0x220e5ab3\n      eq\n      tag_8\n      jumpi\n      dup1\n      0x22f3e2d4\n      eq\n      tag_9\n      jumpi\n      dup1\n      0x2e88ab0b\n      eq\n      tag_10\n      jumpi\n      dup1\n      0x3ccfd60b\n      eq\n      tag_11\n      jumpi\n      dup1\n      0x42c63dae\n      eq\n      tag_12\n      jumpi\n      jump(tag_2)\n    tag_51:\n      dup1\n      0x4422eb\n      eq\n      tag_3\n      jumpi\n      dup1\n      0x04a2286a\n      eq\n      tag_4\n      jumpi\n      dup1\n      0x08c59798\n      eq\n      tag_5\n      jumpi\n      dup1\n      0x1890fc37\n      eq\n      tag_6\n      jumpi\n      dup1\n      0x1a576049\n      eq\n      tag_7\n      jumpi\n      jump(tag_2)\n    tag_1:\n      jumpi(tag_2, calldatasize)\n      stop\n    tag_2:\n      0x00\n      dup1\n      revert\n        /* \"contracts/HRSLocalArbitrator.sol\":837:862  bool public disputeRaised */\n    tag_3:\n      callvalue\n      dup1\n      iszero\n      tag_54\n      jumpi\n      0x00\n      dup1\n      revert\n    tag_54:\n      pop\n      tag_55\n      tag_56\n      jump\t// in\n    tag_55:\n      mload(0x40)\n      tag_57\n      swap2\n      swap1\n      tag_58\n      jump\t// in\n    tag_57:\n      mload(0x40)\n      dup1\n      swap2\n      sub\n      swap1\n      return\n        /* \"contracts/HRSLocalArbitrator.sol\":411:434  uint256 public baseRent */\n    tag_4:\n      callvalue\n      dup1\n      iszero\n      tag_59\n      jumpi\n      0x00\n      dup1\n      revert\n    tag_59:\n      pop\n      tag_60\n      tag_61\n      jump\t// in\n    tag_60:\n      mload(0x40)\n      tag_62\n      swap2\n      swap1\n      tag_63\n      jump\t// in\n    tag_62:\n      mload(0x40)\n      dup1\n      swap2\n      sub\n      swap1\n      return\n        /* \"contracts/HRSLocalArbitrator.sol\":6402:6883  function setDamageEstimate(uint256 _damageEstimate) external {... */\n    tag_5:\n      callvalue\n      dup1\n      iszero\n      tag_64\n      jumpi\n      0x00\n      dup1\n      revert\n    tag_64:\n      pop\n      tag_65\n      0x04\n      dup1\n      calldatasize\n      sub\n      dup2\n      add\n      swap1\n      tag_66\n      swap2\n      swap1\n      tag_67\n      jump\t// in\n    tag_66:\n      tag_68\n      jump\t// in\n    tag_65:\n      stop\n        /* \"contracts/HRSLocalArbitrator.sol\":8864:9572  function rejectRenterCounterEstimate() external {... */\n    tag_6:\n      callvalue\n      dup1\n      iszero\n      tag_69\n      jumpi\n      0x00\n      dup1\n      revert\n    tag_69:\n      pop\n      tag_70\n      tag_71\n      jump\t// in\n    tag_70:\n      stop\n        /* \"contracts/HRSLocalArbitrator.sol\":579:608  uint256 public damageEstimate */\n    tag_7:\n      callvalue\n      dup1\n      iszero\n      tag_72\n      jumpi\n      0x00\n      dup1\n      revert\n    tag_72:\n      pop\n      tag_73\n      tag_74\n      jump\t// in\n    tag_73:\n      mload(0x40)\n      tag_75\n      swap2\n      swap1\n      tag_63\n      jump\t// in\n    tag_75:\n      mload(0x40)\n      dup1\n      swap2\n      sub\n      swap1\n      return\n        /* \"contracts/HRSLocalArbitrator.sol\":374:404  uint256 public securityDeposit */\n    tag_8:\n      callvalue\n      dup1\n      iszero\n      tag_76\n      jumpi\n      0x00\n      dup1\n      revert\n    tag_76:\n      pop\n      tag_77\n      tag_78\n      jump\t// in\n    tag_77:\n      mload(0x40)\n      tag_79\n      swap2\n      swap1\n      tag_63\n      jump\t// in\n    tag_79:\n      mload(0x40)\n      dup1\n      swap2\n      sub\n      swap1\n      return\n        /* \"contracts/HRSLocalArbitrator.sol\":770:790  bool public isActive */\n    tag_9:\n      callvalue\n      dup1\n      iszero\n      tag_80\n      jumpi\n      0x00\n      dup1\n      revert\n    tag_80:\n      pop\n      tag_81\n      tag_82\n      jump\t// in\n    tag_81:\n      mload(0x40)\n      tag_83\n      swap2\n      swap1\n      tag_58\n      jump\t// in\n    tag_83:\n      mload(0x40)\n      dup1\n      swap2\n      sub\n      swap1\n      return\n        /* \"contracts/HRSLocalArbitrator.sol\":346:367  address public renter */\n    tag_10:\n      callvalue\n      dup1\n      iszero\n      tag_84\n      jumpi\n      0x00\n      dup1\n      revert\n    tag_84:\n      pop\n      tag_85\n      tag_86\n      jump\t// in\n    tag_85:\n      mload(0x40)\n      tag_87\n      swap2\n      swap1\n      tag_88\n      jump\t// in\n    tag_87:\n      mload(0x40)\n      dup1\n      swap2\n      sub\n      swap1\n      return\n        /* \"contracts/HRSLocalArbitrator.sol\":11606:11971  function withdraw() external {... */\n    tag_11:\n      callvalue\n      dup1\n      iszero\n      tag_89\n      jumpi\n      0x00\n      dup1\n      revert\n    tag_89:\n      pop\n      tag_90\n      tag_91\n      jump\t// in\n    tag_90:\n      stop\n        /* \"contracts/HRSLocalArbitrator.sol\":2996:3599  function paySecurityDeposit() external payable {... */\n    tag_12:\n      tag_92\n      tag_93\n      jump\t// in\n    tag_92:\n      stop\n        /* \"contracts/HRSLocalArbitrator.sol\":943:979  bool public renterCounterEstimateSet */\n    tag_13:\n      callvalue\n      dup1\n      iszero\n      tag_94\n      jumpi\n      0x00\n      dup1\n      revert\n    tag_94:\n      pop\n      tag_95\n      tag_96\n      jump\t// in\n    tag_95:\n      mload(0x40)\n      tag_97\n      swap2\n      swap1\n      tag_58\n      jump\t// in\n    tag_97:\n      mload(0x40)\n      dup1\n      swap2\n      sub\n      swap1\n      return\n        /* \"contracts/HRSLocalArbitrator.sol\":481:509  uint256 public rentStartDate */\n    tag_14:\n      callvalue\n      dup1\n      iszero\n      tag_98\n      jumpi\n      0x00\n      dup1\n      revert\n    tag_98:\n      pop\n      tag_99\n      tag_100\n      jump\t// in\n    tag_99:\n      mload(0x40)\n      tag_101\n      swap2\n      swap1\n      tag_63\n      jump\t// in\n    tag_101:\n      mload(0x40)\n      dup1\n      swap2\n      sub\n      swap1\n      return\n        /* \"contracts/HRSLocalArbitrator.sol\":869:898  bool public rentalPeriodEnded */\n    tag_15:\n      callvalue\n      dup1\n      iszero\n      tag_102\n      jumpi\n      0x00\n      dup1\n      revert\n    tag_102:\n      pop\n      tag_103\n      tag_104\n      jump\t// in\n    tag_103:\n      mload(0x40)\n      tag_105\n      swap2\n      swap1\n      tag_58\n      jump\t// in\n    tag_105:\n      mload(0x40)\n      dup1\n      swap2\n      sub\n      swap1\n      return\n        /* \"contracts/HRSLocalArbitrator.sol\":13728:13845  function getArbitrationCost() public view returns (uint256) {... */\n    tag_16:\n      callvalue\n      dup1\n      iszero\n      tag_106\n      jumpi\n      0x00\n      dup1\n      revert\n    tag_106:\n      pop\n      tag_107\n      tag_108\n      jump\t// in\n    tag_107:\n      mload(0x40)\n      tag_109\n      swap2\n      swap1\n      tag_63\n      jump\t// in\n    tag_109:\n      mload(0x40)\n      dup1\n      swap2\n      sub\n      swap1\n      return\n        /* \"contracts/HRSLocalArbitrator.sol\":733:763  uint256 public arbitrationCost */\n    tag_17:\n      callvalue\n      dup1\n      iszero\n      tag_110\n      jumpi\n      0x00\n      dup1\n      revert\n    tag_110:\n      pop\n      tag_111\n      tag_112\n      jump\t// in\n    tag_111:\n      mload(0x40)\n      tag_113\n      swap2\n      swap1\n      tag_63\n      jump\t// in\n    tag_113:\n      mload(0x40)\n      dup1\n      swap2\n      sub\n      swap1\n      return\n        /* \"contracts/HRSLocalArbitrator.sol\":988:1022  ILocalArbitrator public arbitrator */\n    tag_18:\n      callvalue\n      dup1\n      iszero\n      tag_114\n      jumpi\n      0x00\n      dup1\n      revert\n    tag_114:\n      pop\n      tag_115\n      tag_116\n      jump\t// in\n    tag_115:\n      mload(0x40)\n      tag_117\n      swap2\n      swap1\n      tag_118\n      jump\t// in\n    tag_117:\n      mload(0x40)\n      dup1\n      swap2\n      sub\n      swap1\n      return\n        /* \"contracts/HRSLocalArbitrator.sol\":550:572  uint256 public dueRent */\n    tag_19:\n      callvalue\n      dup1\n      iszero\n      tag_119\n      jumpi\n      0x00\n      dup1\n      revert\n    tag_119:\n      pop\n      tag_120\n      tag_121\n      jump\t// in\n    tag_120:\n      mload(0x40)\n      tag_122\n      swap2\n      swap1\n      tag_63\n      jump\t// in\n    tag_122:\n      mload(0x40)\n      dup1\n      swap2\n      sub\n      swap1\n      return\n        /* \"contracts/HRSLocalArbitrator.sol\":13377:13486  function getContractBalance() external view returns (uint256) {... */\n    tag_20:\n      callvalue\n      dup1\n      iszero\n      tag_123\n      jumpi\n      0x00\n      dup1\n      revert\n    tag_123:\n      pop\n      tag_124\n      tag_125\n      jump\t// in\n    tag_124:\n      mload(0x40)\n      tag_126\n      swap2\n      swap1\n      tag_63\n      jump\t// in\n    tag_126:\n      mload(0x40)\n      dup1\n      swap2\n      sub\n      swap1\n      return\n        /* \"contracts/HRSLocalArbitrator.sol\":905:936  bool public landlordEstimateSet */\n    tag_21:\n      callvalue\n      dup1\n      iszero\n      tag_127\n      jumpi\n      0x00\n      dup1\n      revert\n    tag_127:\n      pop\n      tag_128\n      tag_129\n      jump\t// in\n    tag_128:\n      mload(0x40)\n      tag_130\n      swap2\n      swap1\n      tag_58\n      jump\t// in\n    tag_130:\n      mload(0x40)\n      dup1\n      swap2\n      sub\n      swap1\n      return\n        /* \"contracts/HRSLocalArbitrator.sol\":12103:12215  function getRenterBalance() external view returns (uint256) {... */\n    tag_22:\n      callvalue\n      dup1\n      iszero\n      tag_131\n      jumpi\n      0x00\n      dup1\n      revert\n    tag_131:\n      pop\n      tag_132\n      tag_133\n      jump\t// in\n    tag_132:\n      mload(0x40)\n      tag_134\n      swap2\n      swap1\n      tag_63\n      jump\t// in\n    tag_134:\n      mload(0x40)\n      dup1\n      swap2\n      sub\n      swap1\n      return\n        /* \"contracts/HRSLocalArbitrator.sol\":13605:13720  function getCurrentSecurityDeposit() public view returns (uint256) {... */\n    tag_23:\n      callvalue\n      dup1\n      iszero\n      tag_135\n      jumpi\n      0x00\n      dup1\n      revert\n    tag_135:\n      pop\n      tag_136\n      tag_137\n      jump\t// in\n    tag_136:\n      mload(0x40)\n      tag_138\n      swap2\n      swap1\n      tag_63\n      jump\t// in\n    tag_138:\n      mload(0x40)\n      dup1\n      swap2\n      sub\n      swap1\n      return\n        /* \"contracts/HRSLocalArbitrator.sol\":3976:4427  function recordUtilities(uint256 _utilities) external {... */\n    tag_24:\n      callvalue\n      dup1\n      iszero\n      tag_139\n      jumpi\n      0x00\n      dup1\n      revert\n    tag_139:\n      pop\n      tag_140\n      0x04\n      dup1\n      calldatasize\n      sub\n      dup2\n      add\n      swap1\n      tag_141\n      swap2\n      swap1\n      tag_67\n      jump\t// in\n    tag_141:\n      tag_142\n      jump\t// in\n    tag_140:\n      stop\n        /* \"contracts/HRSLocalArbitrator.sol\":615:651  uint256 public renterCounterEstimate */\n    tag_25:\n      callvalue\n      dup1\n      iszero\n      tag_143\n      jumpi\n      0x00\n      dup1\n      revert\n    tag_143:\n      pop\n      tag_144\n      tag_145\n      jump\t// in\n    tag_144:\n      mload(0x40)\n      tag_146\n      swap2\n      swap1\n      tag_63\n      jump\t// in\n    tag_146:\n      mload(0x40)\n      dup1\n      swap2\n      sub\n      swap1\n      return\n        /* \"contracts/HRSLocalArbitrator.sol\":516:543  uint256 public currentMonth */\n    tag_26:\n      callvalue\n      dup1\n      iszero\n      tag_147\n      jumpi\n      0x00\n      dup1\n      revert\n    tag_147:\n      pop\n      tag_148\n      tag_149\n      jump\t// in\n    tag_148:\n      mload(0x40)\n      tag_150\n      swap2\n      swap1\n      tag_63\n      jump\t// in\n    tag_150:\n      mload(0x40)\n      dup1\n      swap2\n      sub\n      swap1\n      return\n        /* \"contracts/HRSLocalArbitrator.sol\":441:474  uint256 public rentPeriodInMonths */\n    tag_27:\n      callvalue\n      dup1\n      iszero\n      tag_151\n      jumpi\n      0x00\n      dup1\n      revert\n    tag_151:\n      pop\n      tag_152\n      tag_153\n      jump\t// in\n    tag_152:\n      mload(0x40)\n      tag_154\n      swap2\n      swap1\n      tag_63\n      jump\t// in\n    tag_154:\n      mload(0x40)\n      dup1\n      swap2\n      sub\n      swap1\n      return\n        /* \"contracts/HRSLocalArbitrator.sol\":4435:5566  function payRent() external payable {... */\n    tag_28:\n      tag_155\n      tag_156\n      jump\t// in\n    tag_155:\n      stop\n        /* \"contracts/HRSLocalArbitrator.sol\":3607:3968  function initializeCurrentSecurityDeposit() external {... */\n    tag_29:\n      callvalue\n      dup1\n      iszero\n      tag_157\n      jumpi\n      0x00\n      dup1\n      revert\n    tag_157:\n      pop\n      tag_158\n      tag_159\n      jump\t// in\n    tag_158:\n      stop\n        /* \"contracts/HRSLocalArbitrator.sol\":658:682  uint256 public disputeID */\n    tag_30:\n      callvalue\n      dup1\n      iszero\n      tag_160\n      jumpi\n      0x00\n      dup1\n      revert\n    tag_160:\n      pop\n      tag_161\n      tag_162\n      jump\t// in\n    tag_161:\n      mload(0x40)\n      tag_163\n      swap2\n      swap1\n      tag_63\n      jump\t// in\n    tag_163:\n      mload(0x40)\n      dup1\n      swap2\n      sub\n      swap1\n      return\n        /* \"contracts/HRSLocalArbitrator.sol\":7780:8186  function setRenterCounterEstimate(uint256 _renterCounterEstimate) external {... */\n    tag_31:\n      callvalue\n      dup1\n      iszero\n      tag_164\n      jumpi\n      0x00\n      dup1\n      revert\n    tag_164:\n      pop\n      tag_165\n      0x04\n      dup1\n      calldatasize\n      sub\n      dup2\n      add\n      swap1\n      tag_166\n      swap2\n      swap1\n      tag_67\n      jump\t// in\n    tag_166:\n      tag_167\n      jump\t// in\n    tag_165:\n      stop\n        /* \"contracts/HRSLocalArbitrator.sol\":5574:6394  function skipRentPayment() external {... */\n    tag_32:\n      callvalue\n      dup1\n      iszero\n      tag_168\n      jumpi\n      0x00\n      dup1\n      revert\n    tag_168:\n      pop\n      tag_169\n      tag_170\n      jump\t// in\n    tag_169:\n      stop\n        /* \"contracts/HRSLocalArbitrator.sol\":13494:13597  function isRentalPeriodEnded() external view returns (bool) {... */\n    tag_33:\n      callvalue\n      dup1\n      iszero\n      tag_171\n      jumpi\n      0x00\n      dup1\n      revert\n    tag_171:\n      pop\n      tag_172\n      tag_173\n      jump\t// in\n    tag_172:\n      mload(0x40)\n      tag_174\n      swap2\n      swap1\n      tag_58\n      jump\t// in\n    tag_174:\n      mload(0x40)\n      dup1\n      swap2\n      sub\n      swap1\n      return\n        /* \"contracts/HRSLocalArbitrator.sol\":689:726  uint256 public currentSecurityDeposit */\n    tag_34:\n      callvalue\n      dup1\n      iszero\n      tag_175\n      jumpi\n      0x00\n      dup1\n      revert\n    tag_175:\n      pop\n      tag_176\n      tag_177\n      jump\t// in\n    tag_176:\n      mload(0x40)\n      tag_178\n      swap2\n      swap1\n      tag_63\n      jump\t// in\n    tag_178:\n      mload(0x40)\n      dup1\n      swap2\n      sub\n      swap1\n      return\n        /* \"contracts/HRSLocalArbitrator.sol\":2518:2988  function setAgreementTerms(uint256 _securityDeposit, uint256 _baseRent, uint256 _rentPeriodInMonths) external {... */\n    tag_35:\n      callvalue\n      dup1\n      iszero\n      tag_179\n      jumpi\n      0x00\n      dup1\n      revert\n    tag_179:\n      pop\n      tag_180\n      0x04\n      dup1\n      calldatasize\n      sub\n      dup2\n      add\n      swap1\n      tag_181\n      swap2\n      swap1\n      tag_182\n      jump\t// in\n    tag_181:\n      tag_183\n      jump\t// in\n    tag_180:\n      stop\n        /* \"contracts/HRSLocalArbitrator.sol\":9580:11597  function executeRuling(uint256 _disputeID, uint256 _ruling) external {... */\n    tag_36:\n      callvalue\n      dup1\n      iszero\n      tag_184\n      jumpi\n      0x00\n      dup1\n      revert\n    tag_184:\n      pop\n      tag_185\n      0x04\n      dup1\n      calldatasize\n      sub\n      dup2\n      add\n      swap1\n      tag_186\n      swap2\n      swap1\n      tag_187\n      jump\t// in\n    tag_186:\n      tag_188\n      jump\t// in\n    tag_185:\n      stop\n        /* \"contracts/HRSLocalArbitrator.sol\":316:339  address public landlord */\n    tag_37:\n      callvalue\n      dup1\n      iszero\n      tag_189\n      jumpi\n      0x00\n      dup1\n      revert\n    tag_189:\n      pop\n      tag_190\n      tag_191\n      jump\t// in\n    tag_190:\n      mload(0x40)\n      tag_192\n      swap2\n      swap1\n      tag_88\n      jump\t// in\n    tag_192:\n      mload(0x40)\n      dup1\n      swap2\n      sub\n      swap1\n      return\n        /* \"contracts/HRSLocalArbitrator.sol\":7526:7772  function rejectLandlordEstimate() external {... */\n    tag_38:\n      callvalue\n      dup1\n      iszero\n      tag_193\n      jumpi\n      0x00\n      dup1\n      revert\n    tag_193:\n      pop\n      tag_194\n      tag_195\n      jump\t// in\n    tag_194:\n      stop\n        /* \"contracts/HRSLocalArbitrator.sol\":6891:7518  function acceptLandlordEstimate() external {... */\n    tag_39:\n      callvalue\n      dup1\n      iszero\n      tag_196\n      jumpi\n      0x00\n      dup1\n      revert\n    tag_196:\n      pop\n      tag_197\n      tag_198\n      jump\t// in\n    tag_197:\n      stop\n        /* \"contracts/HRSLocalArbitrator.sol\":1163:1214  mapping(uint256 => MonthlyRent) public monthlyRents */\n    tag_40:\n      callvalue\n      dup1\n      iszero\n      tag_199\n      jumpi\n      0x00\n      dup1\n      revert\n    tag_199:\n      pop\n      tag_200\n      0x04\n      dup1\n      calldatasize\n      sub\n      dup2\n      add\n      swap1\n      tag_201\n      swap2\n      swap1\n      tag_67\n      jump\t// in\n    tag_201:\n      tag_202\n      jump\t// in\n    tag_200:\n      mload(0x40)\n      tag_203\n      swap5\n      swap4\n      swap3\n      swap2\n      swap1\n      tag_204\n      jump\t// in\n    tag_203:\n      mload(0x40)\n      dup1\n      swap2\n      sub\n      swap1\n      return\n        /* \"contracts/HRSLocalArbitrator.sol\":8194:8856  function acceptRenterCounterEstimate() external {... */\n    tag_41:\n      callvalue\n      dup1\n      iszero\n      tag_205\n      jumpi\n      0x00\n      dup1\n      revert\n    tag_205:\n      pop\n      tag_206\n      tag_207\n      jump\t// in\n    tag_206:\n      stop\n        /* \"contracts/HRSLocalArbitrator.sol\":797:830  bool public isSecurityDepositPaid */\n    tag_42:\n      callvalue\n      dup1\n      iszero\n      tag_208\n      jumpi\n      0x00\n      dup1\n      revert\n    tag_208:\n      pop\n      tag_209\n      tag_210\n      jump\t// in\n    tag_209:\n      mload(0x40)\n      tag_211\n      swap2\n      swap1\n      tag_58\n      jump\t// in\n    tag_211:\n      mload(0x40)\n      dup1\n      swap2\n      sub\n      swap1\n      return\n        /* \"contracts/HRSLocalArbitrator.sol\":1221:1274  mapping(address => uint256) public pendingWithdrawals */\n    tag_43:\n      callvalue\n      dup1\n      iszero\n      tag_212\n      jumpi\n      0x00\n      dup1\n      revert\n    tag_212:\n      pop\n      tag_213\n      0x04\n      dup1\n      calldatasize\n      sub\n      dup2\n      add\n      swap1\n      tag_214\n      swap2\n      swap1\n      tag_215\n      jump\t// in\n    tag_214:\n      tag_216\n      jump\t// in\n    tag_213:\n      mload(0x40)\n      tag_217\n      swap2\n      swap1\n      tag_63\n      jump\t// in\n    tag_217:\n      mload(0x40)\n      dup1\n      swap2\n      sub\n      swap1\n      return\n        /* \"contracts/HRSLocalArbitrator.sol\":11979:12095  function getLandlordBalance() external view returns (uint256) {... */\n    tag_44:\n      callvalue\n      dup1\n      iszero\n      tag_218\n      jumpi\n      0x00\n      dup1\n      revert\n    tag_218:\n      pop\n      tag_219\n      tag_220\n      jump\t// in\n    tag_219:\n      mload(0x40)\n      tag_221\n      swap2\n      swap1\n      tag_63\n      jump\t// in\n    tag_221:\n      mload(0x40)\n      dup1\n      swap2\n      sub\n      swap1\n      return\n        /* \"contracts/HRSLocalArbitrator.sol\":837:862  bool public disputeRaised */\n    tag_56:\n      0x0d\n      0x02\n      swap1\n      sload\n      swap1\n      0x0100\n      exp\n      swap1\n      div\n      0xff\n      and\n      dup2\n      jump\t// out\n        /* \"contracts/HRSLocalArbitrator.sol\":411:434  uint256 public baseRent */\n    tag_61:\n      sload(0x03)\n      dup2\n      jump\t// out\n        /* \"contracts/HRSLocalArbitrator.sol\":6402:6883  function setDamageEstimate(uint256 _damageEstimate) external {... */\n    tag_68:\n        /* \"contracts/HRSLocalArbitrator.sol\":6496:6504  landlord */\n      0x00\n      dup1\n      sload\n      swap1\n      0x0100\n      exp\n      swap1\n      div\n      0xffffffffffffffffffffffffffffffffffffffff\n      and\n        /* \"contracts/HRSLocalArbitrator.sol\":6482:6504  msg.sender == landlord */\n      0xffffffffffffffffffffffffffffffffffffffff\n      and\n        /* \"contracts/HRSLocalArbitrator.sol\":6482:6492  msg.sender */\n      caller\n        /* \"contracts/HRSLocalArbitrator.sol\":6482:6504  msg.sender == landlord */\n      0xffffffffffffffffffffffffffffffffffffffff\n      and\n      eq\n        /* \"contracts/HRSLocalArbitrator.sol\":6474:6550  require(msg.sender == landlord, \"Only landlord can set the damage estimate\") */\n      tag_223\n      jumpi\n      mload(0x40)\n      0x08c379a000000000000000000000000000000000000000000000000000000000\n      dup2\n      mstore\n      0x04\n      add\n      tag_224\n      swap1\n      tag_225\n      jump\t// in\n    tag_224:\n      mload(0x40)\n      dup1\n      swap2\n      sub\n      swap1\n      revert\n    tag_223:\n        /* \"contracts/HRSLocalArbitrator.sol\":6569:6586  rentalPeriodEnded */\n      0x0d\n      0x03\n      swap1\n      sload\n      swap1\n      0x0100\n      exp\n      swap1\n      div\n      0xff\n      and\n        /* \"contracts/HRSLocalArbitrator.sol\":6561:6620  require(rentalPeriodEnded, \"Rent period has not ended yet\") */\n      tag_226\n      jumpi\n      mload(0x40)\n      0x08c379a000000000000000000000000000000000000000000000000000000000\n      dup2\n      mstore\n      0x04\n      add\n      tag_227\n      swap1\n      tag_228\n      jump\t// in\n    tag_227:\n      mload(0x40)\n      dup1\n      swap2\n      sub\n      swap1\n      revert\n    tag_226:\n        /* \"contracts/HRSLocalArbitrator.sol\":6640:6659  landlordEstimateSet */\n      0x0d\n      0x04\n      swap1\n      sload\n      swap1\n      0x0100\n      exp\n      swap1\n      div\n      0xff\n      and\n        /* \"contracts/HRSLocalArbitrator.sol\":6639:6659  !landlordEstimateSet */\n      iszero\n        /* \"contracts/HRSLocalArbitrator.sol\":6631:6691  require(!landlordEstimateSet, \"Damage estimate already set\") */\n      tag_229\n      jumpi\n      mload(0x40)\n      0x08c379a000000000000000000000000000000000000000000000000000000000\n      dup2\n      mstore\n      0x04\n      add\n      tag_230\n      swap1\n      tag_231\n      jump\t// in\n    tag_230:\n      mload(0x40)\n      dup1\n      swap2\n      sub\n      swap1\n      revert\n    tag_229:\n        /* \"contracts/HRSLocalArbitrator.sol\":6710:6718  isActive */\n      0x0d\n      0x00\n      swap1\n      sload\n      swap1\n      0x0100\n      exp\n      swap1\n      div\n      0xff\n      and\n        /* \"contracts/HRSLocalArbitrator.sol\":6702:6745  require(isActive, \"Contract is not active\") */\n      tag_232\n      jumpi\n      mload(0x40)\n      0x08c379a000000000000000000000000000000000000000000000000000000000\n      dup2\n      mstore\n      0x04\n      add\n      tag_233\n      swap1\n      tag_234\n      jump\t// in\n    tag_233:\n      mload(0x40)\n      dup1\n      swap2\n      sub\n      swap1\n      revert\n    tag_232:\n        /* \"contracts/HRSLocalArbitrator.sol\":6773:6788  _damageEstimate */\n      dup1\n        /* \"contracts/HRSLocalArbitrator.sol\":6756:6770  damageEstimate */\n      0x08\n        /* \"contracts/HRSLocalArbitrator.sol\":6756:6788  damageEstimate = _damageEstimate */\n      dup2\n      swap1\n      sstore\n      pop\n        /* \"contracts/HRSLocalArbitrator.sol\":6821:6825  true */\n      0x01\n        /* \"contracts/HRSLocalArbitrator.sol\":6799:6818  landlordEstimateSet */\n      0x0d\n      0x04\n        /* \"contracts/HRSLocalArbitrator.sol\":6799:6825  landlordEstimateSet = true */\n      0x0100\n      exp\n      dup2\n      sload\n      dup2\n      0xff\n      mul\n      not\n      and\n      swap1\n      dup4\n      iszero\n      iszero\n      mul\n      or\n      swap1\n      sstore\n      pop\n        /* \"contracts/HRSLocalArbitrator.sol\":6841:6875  DamageEstimateSet(_damageEstimate) */\n      0x192101de3933394fedeb636ffadd15c20b3e23e4913ab4051c171a26c90a3459\n        /* \"contracts/HRSLocalArbitrator.sol\":6859:6874  _damageEstimate */\n      dup2\n        /* \"contracts/HRSLocalArbitrator.sol\":6841:6875  DamageEstimateSet(_damageEstimate) */\n      mload(0x40)\n      tag_235\n      swap2\n      swap1\n      tag_63\n      jump\t// in\n    tag_235:\n      mload(0x40)\n      dup1\n      swap2\n      sub\n      swap1\n      log1\n        /* \"contracts/HRSLocalArbitrator.sol\":6402:6883  function setDamageEstimate(uint256 _damageEstimate) external {... */\n      pop\n      jump\t// out\n        /* \"contracts/HRSLocalArbitrator.sol\":8864:9572  function rejectRenterCounterEstimate() external {... */\n    tag_71:\n        /* \"contracts/HRSLocalArbitrator.sol\":8945:8953  landlord */\n      0x00\n      dup1\n      sload\n      swap1\n      0x0100\n      exp\n      swap1\n      div\n      0xffffffffffffffffffffffffffffffffffffffff\n      and\n        /* \"contracts/HRSLocalArbitrator.sol\":8931:8953  msg.sender == landlord */\n      0xffffffffffffffffffffffffffffffffffffffff\n      and\n        /* \"contracts/HRSLocalArbitrator.sol\":8931:8941  msg.sender */\n      caller\n        /* \"contracts/HRSLocalArbitrator.sol\":8931:8953  msg.sender == landlord */\n      0xffffffffffffffffffffffffffffffffffffffff\n      and\n      eq\n        /* \"contracts/HRSLocalArbitrator.sol\":8923:9003  require(msg.sender == landlord, \"Only landlord can reject the counter estimate\") */\n      tag_237\n      jumpi\n      mload(0x40)\n      0x08c379a000000000000000000000000000000000000000000000000000000000\n      dup2\n      mstore\n      0x04\n      add\n      tag_238\n      swap1\n      tag_239\n      jump\t// in\n    tag_238:\n      mload(0x40)\n      dup1\n      swap2\n      sub\n      swap1\n      revert\n    tag_237:\n        /* \"contracts/HRSLocalArbitrator.sol\":9022:9046  renterCounterEstimateSet */\n      0x0d\n      0x05\n      swap1\n      sload\n      swap1\n      0x0100\n      exp\n      swap1\n      div\n      0xff\n      and\n        /* \"contracts/HRSLocalArbitrator.sol\":9014:9089  require(renterCounterEstimateSet, \"Renter must set counter estimate first\") */\n      tag_240\n      jumpi\n      mload(0x40)\n      0x08c379a000000000000000000000000000000000000000000000000000000000\n      dup2\n      mstore\n      0x04\n      add\n      tag_241\n      swap1\n      tag_242\n      jump\t// in\n    tag_241:\n      mload(0x40)\n      dup1\n      swap2\n      sub\n      swap1\n      revert\n    tag_240:\n        /* \"contracts/HRSLocalArbitrator.sol\":9128:9138  arbitrator */\n      0x0d\n      0x06\n      swap1\n      sload\n      swap1\n      0x0100\n      exp\n      swap1\n      div\n      0xffffffffffffffffffffffffffffffffffffffff\n      and\n        /* \"contracts/HRSLocalArbitrator.sol\":9128:9157  arbitrator.getArbitrationCost */\n      0xffffffffffffffffffffffffffffffffffffffff\n      and\n      0x63022560\n        /* \"contracts/HRSLocalArbitrator.sol\":9128:9159  arbitrator.getArbitrationCost() */\n      mload(0x40)\n      dup2\n      0xffffffff\n      and\n      0xe0\n      shl\n      dup2\n      mstore\n      0x04\n      add\n      0x20\n      mload(0x40)\n      dup1\n      dup4\n      sub\n      dup2\n      dup7\n      gas\n      staticcall\n      iszero\n      dup1\n      iszero\n      tag_244\n      jumpi\n      returndatasize\n      0x00\n      dup1\n      returndatacopy\n      revert(0x00, returndatasize)\n    tag_244:\n      pop\n      pop\n      pop\n      pop\n      mload(0x40)\n      returndatasize\n      not(0x1f)\n      0x1f\n      dup3\n      add\n      and\n      dup3\n      add\n      dup1\n      0x40\n      mstore\n      pop\n      dup2\n      add\n      swap1\n      tag_245\n      swap2\n      swap1\n      tag_246\n      jump\t// in\n    tag_245:\n        /* \"contracts/HRSLocalArbitrator.sol\":9110:9125  arbitrationCost */\n      0x0c\n        /* \"contracts/HRSLocalArbitrator.sol\":9110:9159  arbitrationCost = arbitrator.getArbitrationCost() */\n      dup2\n      swap1\n      sstore\n      pop\n        /* \"contracts/HRSLocalArbitrator.sol\":9204:9219  arbitrationCost */\n      sload(0x0c)\n        /* \"contracts/HRSLocalArbitrator.sol\":9178:9200  currentSecurityDeposit */\n      sload(0x0b)\n        /* \"contracts/HRSLocalArbitrator.sol\":9178:9219  currentSecurityDeposit >= arbitrationCost */\n      lt\n      iszero\n        /* \"contracts/HRSLocalArbitrator.sol\":9170:9280  require(currentSecurityDeposit >= arbitrationCost, \"Security deposit insufficient to cover arbitration costs\") */\n      tag_247\n      jumpi\n      mload(0x40)\n      0x08c379a000000000000000000000000000000000000000000000000000000000\n      dup2\n      mstore\n      0x04\n      add\n      tag_248\n      swap1\n      tag_249\n      jump\t// in\n    tag_248:\n      mload(0x40)\n      dup1\n      swap2\n      sub\n      swap1\n      revert\n    tag_247:\n        /* \"contracts/HRSLocalArbitrator.sol\":9327:9342  arbitrationCost */\n      sload(0x0c)\n        /* \"contracts/HRSLocalArbitrator.sol\":9301:9323  currentSecurityDeposit */\n      0x0b\n      0x00\n        /* \"contracts/HRSLocalArbitrator.sol\":9301:9342  currentSecurityDeposit -= arbitrationCost */\n      dup3\n      dup3\n      sload\n      tag_250\n      swap2\n      swap1\n      tag_251\n      jump\t// in\n    tag_250:\n      swap3\n      pop\n      pop\n      dup2\n      swap1\n      sstore\n      pop\n        /* \"contracts/HRSLocalArbitrator.sol\":9365:9375  arbitrator */\n      0x0d\n      0x06\n      swap1\n      sload\n      swap1\n      0x0100\n      exp\n      swap1\n      div\n      0xffffffffffffffffffffffffffffffffffffffff\n      and\n        /* \"contracts/HRSLocalArbitrator.sol\":9365:9389  arbitrator.createDispute */\n      0xffffffffffffffffffffffffffffffffffffffff\n      and\n      0xf26999cd\n        /* \"contracts/HRSLocalArbitrator.sol\":9397:9412  arbitrationCost */\n      sload(0x0c)\n        /* \"contracts/HRSLocalArbitrator.sol\":9414:9428  damageEstimate */\n      sload(0x08)\n        /* \"contracts/HRSLocalArbitrator.sol\":9430:9451  renterCounterEstimate */\n      sload(0x09)\n        /* \"contracts/HRSLocalArbitrator.sol\":9365:9452  arbitrator.createDispute{value: arbitrationCost}(damageEstimate, renterCounterEstimate) */\n      mload(0x40)\n      dup5\n      0xffffffff\n      and\n      0xe0\n      shl\n      dup2\n      mstore\n      0x04\n      add\n      tag_252\n      swap3\n      swap2\n      swap1\n      tag_253\n      jump\t// in\n    tag_252:\n      0x20\n      mload(0x40)\n      dup1\n      dup4\n      sub\n      dup2\n      dup6\n      dup9\n      gas\n      call\n      iszero\n      dup1\n      iszero\n      tag_255\n      jumpi\n      returndatasize\n      0x00\n      dup1\n      returndatacopy\n      revert(0x00, returndatasize)\n    tag_255:\n      pop\n      pop\n      pop\n      pop\n      pop\n      mload(0x40)\n      returndatasize\n      not(0x1f)\n      0x1f\n      dup3\n      add\n      and\n      dup3\n      add\n      dup1\n      0x40\n      mstore\n      pop\n      dup2\n      add\n      swap1\n      tag_256\n      swap2\n      swap1\n      tag_246\n      jump\t// in\n    tag_256:\n        /* \"contracts/HRSLocalArbitrator.sol\":9353:9362  disputeID */\n      0x0a\n        /* \"contracts/HRSLocalArbitrator.sol\":9353:9452  disputeID = arbitrator.createDispute{value: arbitrationCost}(damageEstimate, renterCounterEstimate) */\n      dup2\n      swap1\n      sstore\n      pop\n        /* \"contracts/HRSLocalArbitrator.sol\":9479:9483  true */\n      0x01\n        /* \"contracts/HRSLocalArbitrator.sol\":9463:9476  disputeRaised */\n      0x0d\n      0x02\n        /* \"contracts/HRSLocalArbitrator.sol\":9463:9483  disputeRaised = true */\n      0x0100\n      exp\n      dup2\n      sload\n      dup2\n      0xff\n      mul\n      not\n      and\n      swap1\n      dup4\n      iszero\n      iszero\n      mul\n      or\n      swap1\n      sstore\n      pop\n        /* \"contracts/HRSLocalArbitrator.sol\":9499:9523  DisputeRaised(disputeID) */\n      0x04901f83201c8724eadf084436db8aa391820bae6d11f9f78a17edb6f2eef3cf\n        /* \"contracts/HRSLocalArbitrator.sol\":9513:9522  disputeID */\n      sload(0x0a)\n        /* \"contracts/HRSLocalArbitrator.sol\":9499:9523  DisputeRaised(disputeID) */\n      mload(0x40)\n      tag_257\n      swap2\n      swap1\n      tag_63\n      jump\t// in\n    tag_257:\n      mload(0x40)\n      dup1\n      swap2\n      sub\n      swap1\n      log1\n        /* \"contracts/HRSLocalArbitrator.sol\":9539:9564  CounterEstimateRejected() */\n      0xa7d8a4744bc13e083818434dde26551ea9b29c6425677ebc90cd5dd09ce6b5c7\n      mload(0x40)\n      mload(0x40)\n      dup1\n      swap2\n      sub\n      swap1\n      log1\n        /* \"contracts/HRSLocalArbitrator.sol\":8864:9572  function rejectRenterCounterEstimate() external {... */\n      jump\t// out\n        /* \"contracts/HRSLocalArbitrator.sol\":579:608  uint256 public damageEstimate */\n    tag_74:\n      sload(0x08)\n      dup2\n      jump\t// out\n        /* \"contracts/HRSLocalArbitrator.sol\":374:404  uint256 public securityDeposit */\n    tag_78:\n      sload(0x02)\n      dup2\n      jump\t// out\n        /* \"contracts/HRSLocalArbitrator.sol\":770:790  bool public isActive */\n    tag_82:\n      0x0d\n      0x00\n      swap1\n      sload\n      swap1\n      0x0100\n      exp\n      swap1\n      div\n      0xff\n      and\n      dup2\n      jump\t// out\n        /* \"contracts/HRSLocalArbitrator.sol\":346:367  address public renter */\n    tag_86:\n      0x01\n      0x00\n      swap1\n      sload\n      swap1\n      0x0100\n      exp\n      swap1\n      div\n      0xffffffffffffffffffffffffffffffffffffffff\n      and\n      dup2\n      jump\t// out\n        /* \"contracts/HRSLocalArbitrator.sol\":11606:11971  function withdraw() external {... */\n    tag_91:\n        /* \"contracts/HRSLocalArbitrator.sol\":11646:11660  uint256 amount */\n      0x00\n        /* \"contracts/HRSLocalArbitrator.sol\":11663:11681  pendingWithdrawals */\n      0x0f\n        /* \"contracts/HRSLocalArbitrator.sol\":11663:11693  pendingWithdrawals[msg.sender] */\n      0x00\n        /* \"contracts/HRSLocalArbitrator.sol\":11682:11692  msg.sender */\n      caller\n        /* \"contracts/HRSLocalArbitrator.sol\":11663:11693  pendingWithdrawals[msg.sender] */\n      0xffffffffffffffffffffffffffffffffffffffff\n      and\n      0xffffffffffffffffffffffffffffffffffffffff\n      and\n      dup2\n      mstore\n      0x20\n      add\n      swap1\n      dup2\n      mstore\n      0x20\n      add\n      0x00\n      keccak256\n      sload\n        /* \"contracts/HRSLocalArbitrator.sol\":11646:11693  uint256 amount = pendingWithdrawals[msg.sender] */\n      swap1\n      pop\n        /* \"contracts/HRSLocalArbitrator.sol\":11721:11722  0 */\n      0x00\n        /* \"contracts/HRSLocalArbitrator.sol\":11712:11718  amount */\n      dup2\n        /* \"contracts/HRSLocalArbitrator.sol\":11712:11722  amount > 0 */\n      gt\n        /* \"contracts/HRSLocalArbitrator.sol\":11704:11747  require(amount > 0, \"No funds to withdraw\") */\n      tag_259\n      jumpi\n      mload(0x40)\n      0x08c379a000000000000000000000000000000000000000000000000000000000\n      dup2\n      mstore\n      0x04\n      add\n      tag_260\n      swap1\n      tag_261\n      jump\t// in\n    tag_260:\n      mload(0x40)\n      dup1\n      swap2\n      sub\n      swap1\n      revert\n    tag_259:\n        /* \"contracts/HRSLocalArbitrator.sol\":11791:11792  0 */\n      0x00\n        /* \"contracts/HRSLocalArbitrator.sol\":11758:11776  pendingWithdrawals */\n      0x0f\n        /* \"contracts/HRSLocalArbitrator.sol\":11758:11788  pendingWithdrawals[msg.sender] */\n      0x00\n        /* \"contracts/HRSLocalArbitrator.sol\":11777:11787  msg.sender */\n      caller\n        /* \"contracts/HRSLocalArbitrator.sol\":11758:11788  pendingWithdrawals[msg.sender] */\n      0xffffffffffffffffffffffffffffffffffffffff\n      and\n      0xffffffffffffffffffffffffffffffffffffffff\n      and\n      dup2\n      mstore\n      0x20\n      add\n      swap1\n      dup2\n      mstore\n      0x20\n      add\n      0x00\n      keccak256\n        /* \"contracts/HRSLocalArbitrator.sol\":11758:11792  pendingWithdrawals[msg.sender] = 0 */\n      dup2\n      swap1\n      sstore\n      pop\n        /* \"contracts/HRSLocalArbitrator.sol\":11804:11816  bool success */\n      0x00\n        /* \"contracts/HRSLocalArbitrator.sol\":11830:11840  msg.sender */\n      caller\n        /* \"contracts/HRSLocalArbitrator.sol\":11822:11846  payable(msg.sender).call */\n      0xffffffffffffffffffffffffffffffffffffffff\n      and\n        /* \"contracts/HRSLocalArbitrator.sol\":11854:11860  amount */\n      dup3\n        /* \"contracts/HRSLocalArbitrator.sol\":11822:11865  payable(msg.sender).call{value: amount}(\"\") */\n      mload(0x40)\n      tag_262\n      swap1\n      tag_263\n      jump\t// in\n    tag_262:\n      0x00\n      mload(0x40)\n      dup1\n      dup4\n      sub\n      dup2\n      dup6\n      dup8\n      gas\n      call\n      swap3\n      pop\n      pop\n      pop\n      returndatasize\n      dup1\n      0x00\n      dup2\n      eq\n      tag_266\n      jumpi\n      mload(0x40)\n      swap2\n      pop\n      and(add(returndatasize, 0x3f), not(0x1f))\n      dup3\n      add\n      0x40\n      mstore\n      returndatasize\n      dup3\n      mstore\n      returndatasize\n      0x00\n      0x20\n      dup5\n      add\n      returndatacopy\n      jump(tag_265)\n    tag_266:\n      0x60\n      swap2\n      pop\n    tag_265:\n      pop\n        /* \"contracts/HRSLocalArbitrator.sol\":11803:11865  (bool success, ) = payable(msg.sender).call{value: amount}(\"\") */\n      pop\n      swap1\n      pop\n        /* \"contracts/HRSLocalArbitrator.sol\":11884:11891  success */\n      dup1\n        /* \"contracts/HRSLocalArbitrator.sol\":11876:11911  require(success, \"Transfer failed\") */\n      tag_267\n      jumpi\n      mload(0x40)\n      0x08c379a000000000000000000000000000000000000000000000000000000000\n      dup2\n      mstore\n      0x04\n      add\n      tag_268\n      swap1\n      tag_269\n      jump\t// in\n    tag_268:\n      mload(0x40)\n      dup1\n      swap2\n      sub\n      swap1\n      revert\n    tag_267:\n        /* \"contracts/HRSLocalArbitrator.sol\":11944:11954  msg.sender */\n      caller\n        /* \"contracts/HRSLocalArbitrator.sol\":11927:11963  FundsTransferred(msg.sender, amount) */\n      0xffffffffffffffffffffffffffffffffffffffff\n      and\n      0x8c9a4f13b67cb64d7c6aa1ae0c9bf07694af521a28b93e7060020810ab4bc59f\n        /* \"contracts/HRSLocalArbitrator.sol\":11956:11962  amount */\n      dup4\n        /* \"contracts/HRSLocalArbitrator.sol\":11927:11963  FundsTransferred(msg.sender, amount) */\n      mload(0x40)\n      tag_270\n      swap2\n      swap1\n      tag_63\n      jump\t// in\n    tag_270:\n      mload(0x40)\n      dup1\n      swap2\n      sub\n      swap1\n      log2\n        /* \"contracts/HRSLocalArbitrator.sol\":11635:11971  {... */\n      pop\n      pop\n        /* \"contracts/HRSLocalArbitrator.sol\":11606:11971  function withdraw() external {... */\n      jump\t// out\n        /* \"contracts/HRSLocalArbitrator.sol\":2996:3599  function paySecurityDeposit() external payable {... */\n    tag_93:\n        /* \"contracts/HRSLocalArbitrator.sol\":3076:3082  renter */\n      0x01\n      0x00\n      swap1\n      sload\n      swap1\n      0x0100\n      exp\n      swap1\n      div\n      0xffffffffffffffffffffffffffffffffffffffff\n      and\n        /* \"contracts/HRSLocalArbitrator.sol\":3062:3082  msg.sender == renter */\n      0xffffffffffffffffffffffffffffffffffffffff\n      and\n        /* \"contracts/HRSLocalArbitrator.sol\":3062:3072  msg.sender */\n      caller\n        /* \"contracts/HRSLocalArbitrator.sol\":3062:3082  msg.sender == renter */\n      0xffffffffffffffffffffffffffffffffffffffff\n      and\n      eq\n        /* \"contracts/HRSLocalArbitrator.sol\":3054:3123  require(msg.sender == renter, \"Only renter can pay security deposit\") */\n      tag_272\n      jumpi\n      mload(0x40)\n      0x08c379a000000000000000000000000000000000000000000000000000000000\n      dup2\n      mstore\n      0x04\n      add\n      tag_273\n      swap1\n      tag_274\n      jump\t// in\n    tag_273:\n      mload(0x40)\n      dup1\n      swap2\n      sub\n      swap1\n      revert\n    tag_272:\n        /* \"contracts/HRSLocalArbitrator.sol\":3143:3151  isActive */\n      0x0d\n      0x00\n      swap1\n      sload\n      swap1\n      0x0100\n      exp\n      swap1\n      div\n      0xff\n      and\n        /* \"contracts/HRSLocalArbitrator.sol\":3142:3151  !isActive */\n      iszero\n        /* \"contracts/HRSLocalArbitrator.sol\":3134:3182  require(!isActive, \"Contract is already active\") */\n      tag_275\n      jumpi\n      mload(0x40)\n      0x08c379a000000000000000000000000000000000000000000000000000000000\n      dup2\n      mstore\n      0x04\n      add\n      tag_276\n      swap1\n      tag_277\n      jump\t// in\n    tag_276:\n      mload(0x40)\n      dup1\n      swap2\n      sub\n      swap1\n      revert\n    tag_275:\n        /* \"contracts/HRSLocalArbitrator.sol\":3214:3229  securityDeposit */\n      sload(0x02)\n        /* \"contracts/HRSLocalArbitrator.sol\":3201:3210  msg.value */\n      callvalue\n        /* \"contracts/HRSLocalArbitrator.sol\":3201:3229  msg.value == securityDeposit */\n      eq\n        /* \"contracts/HRSLocalArbitrator.sol\":3193:3267  require(msg.value == securityDeposit, \"Incorrect security deposit amount\") */\n      tag_278\n      jumpi\n      mload(0x40)\n      0x08c379a000000000000000000000000000000000000000000000000000000000\n      dup2\n      mstore\n      0x04\n      add\n      tag_279\n      swap1\n      tag_280\n      jump\t// in\n    tag_279:\n      mload(0x40)\n      dup1\n      swap2\n      sub\n      swap1\n      revert\n    tag_278:\n        /* \"contracts/HRSLocalArbitrator.sol\":3302:3306  true */\n      0x01\n        /* \"contracts/HRSLocalArbitrator.sol\":3278:3299  isSecurityDepositPaid */\n      0x0d\n      0x01\n        /* \"contracts/HRSLocalArbitrator.sol\":3278:3306  isSecurityDepositPaid = true */\n      0x0100\n      exp\n      dup2\n      sload\n      dup2\n      0xff\n      mul\n      not\n      and\n      swap1\n      dup4\n      iszero\n      iszero\n      mul\n      or\n      swap1\n      sstore\n      pop\n        /* \"contracts/HRSLocalArbitrator.sol\":3342:3357  securityDeposit */\n      sload(0x02)\n        /* \"contracts/HRSLocalArbitrator.sol\":3317:3339  currentSecurityDeposit */\n      0x0b\n        /* \"contracts/HRSLocalArbitrator.sol\":3317:3357  currentSecurityDeposit = securityDeposit */\n      dup2\n      swap1\n      sstore\n      pop\n        /* \"contracts/HRSLocalArbitrator.sol\":3373:3403  SecurityDepositPaid(msg.value) */\n      0x486ac935cf1ea9effd9e0a261bc42917b45f2fd45cc98def2bc34d47f216937c\n        /* \"contracts/HRSLocalArbitrator.sol\":3393:3402  msg.value */\n      callvalue\n        /* \"contracts/HRSLocalArbitrator.sol\":3373:3403  SecurityDepositPaid(msg.value) */\n      mload(0x40)\n      tag_281\n      swap2\n      swap1\n      tag_63\n      jump\t// in\n    tag_281:\n      mload(0x40)\n      dup1\n      swap2\n      sub\n      swap1\n      log1\n        /* \"contracts/HRSLocalArbitrator.sol\":3483:3487  true */\n      0x01\n        /* \"contracts/HRSLocalArbitrator.sol\":3472:3480  isActive */\n      0x0d\n      0x00\n        /* \"contracts/HRSLocalArbitrator.sol\":3472:3487  isActive = true */\n      0x0100\n      exp\n      dup2\n      sload\n      dup2\n      0xff\n      mul\n      not\n      and\n      swap1\n      dup4\n      iszero\n      iszero\n      mul\n      or\n      swap1\n      sstore\n      pop\n        /* \"contracts/HRSLocalArbitrator.sol\":3514:3529  block.timestamp */\n      timestamp\n        /* \"contracts/HRSLocalArbitrator.sol\":3498:3511  rentStartDate */\n      0x05\n        /* \"contracts/HRSLocalArbitrator.sol\":3498:3529  rentStartDate = block.timestamp */\n      dup2\n      swap1\n      sstore\n      pop\n        /* \"contracts/HRSLocalArbitrator.sol\":3555:3556  1 */\n      0x01\n        /* \"contracts/HRSLocalArbitrator.sol\":3540:3552  currentMonth */\n      0x06\n        /* \"contracts/HRSLocalArbitrator.sol\":3540:3556  currentMonth = 1 */\n      dup2\n      swap1\n      sstore\n      pop\n        /* \"contracts/HRSLocalArbitrator.sol\":3572:3591  ContractActivated() */\n      0xe09eb0ac9bad92f05e0b489e6fc1d3e349861ffd8a2548182ef06278968a9bd0\n      mload(0x40)\n      mload(0x40)\n      dup1\n      swap2\n      sub\n      swap1\n      log1\n        /* \"contracts/HRSLocalArbitrator.sol\":2996:3599  function paySecurityDeposit() external payable {... */\n      jump\t// out\n        /* \"contracts/HRSLocalArbitrator.sol\":943:979  bool public renterCounterEstimateSet */\n    tag_96:\n      0x0d\n      0x05\n      swap1\n      sload\n      swap1\n      0x0100\n      exp\n      swap1\n      div\n      0xff\n      and\n      dup2\n      jump\t// out\n        /* \"contracts/HRSLocalArbitrator.sol\":481:509  uint256 public rentStartDate */\n    tag_100:\n      sload(0x05)\n      dup2\n      jump\t// out\n        /* \"contracts/HRSLocalArbitrator.sol\":869:898  bool public rentalPeriodEnded */\n    tag_104:\n      0x0d\n      0x03\n      swap1\n      sload\n      swap1\n      0x0100\n      exp\n      swap1\n      div\n      0xff\n      and\n      dup2\n      jump\t// out\n        /* \"contracts/HRSLocalArbitrator.sol\":13728:13845  function getArbitrationCost() public view returns (uint256) {... */\n    tag_108:\n        /* \"contracts/HRSLocalArbitrator.sol\":13779:13786  uint256 */\n      0x00\n        /* \"contracts/HRSLocalArbitrator.sol\":13806:13816  arbitrator */\n      0x0d\n      0x06\n      swap1\n      sload\n      swap1\n      0x0100\n      exp\n      swap1\n      div\n      0xffffffffffffffffffffffffffffffffffffffff\n      and\n        /* \"contracts/HRSLocalArbitrator.sol\":13806:13835  arbitrator.getArbitrationCost */\n      0xffffffffffffffffffffffffffffffffffffffff\n      and\n      0x63022560\n        /* \"contracts/HRSLocalArbitrator.sol\":13806:13837  arbitrator.getArbitrationCost() */\n      mload(0x40)\n      dup2\n      0xffffffff\n      and\n      0xe0\n      shl\n      dup2\n      mstore\n      0x04\n      add\n      0x20\n      mload(0x40)\n      dup1\n      dup4\n      sub\n      dup2\n      dup7\n      gas\n      staticcall\n      iszero\n      dup1\n      iszero\n      tag_284\n      jumpi\n      returndatasize\n      0x00\n      dup1\n      returndatacopy\n      revert(0x00, returndatasize)\n    tag_284:\n      pop\n      pop\n      pop\n      pop\n      mload(0x40)\n      returndatasize\n      not(0x1f)\n      0x1f\n      dup3\n      add\n      and\n      dup3\n      add\n      dup1\n      0x40\n      mstore\n      pop\n      dup2\n      add\n      swap1\n      tag_285\n      swap2\n      swap1\n      tag_246\n      jump\t// in\n    tag_285:\n        /* \"contracts/HRSLocalArbitrator.sol\":13799:13837  return arbitrator.getArbitrationCost() */\n      swap1\n      pop\n        /* \"contracts/HRSLocalArbitrator.sol\":13728:13845  function getArbitrationCost() public view returns (uint256) {... */\n      swap1\n      jump\t// out\n        /* \"contracts/HRSLocalArbitrator.sol\":733:763  uint256 public arbitrationCost */\n    tag_112:\n      sload(0x0c)\n      dup2\n      jump\t// out\n        /* \"contracts/HRSLocalArbitrator.sol\":988:1022  ILocalArbitrator public arbitrator */\n    tag_116:\n      0x0d\n      0x06\n      swap1\n      sload\n      swap1\n      0x0100\n      exp\n      swap1\n      div\n      0xffffffffffffffffffffffffffffffffffffffff\n      and\n      dup2\n      jump\t// out\n        /* \"contracts/HRSLocalArbitrator.sol\":550:572  uint256 public dueRent */\n    tag_121:\n      sload(0x07)\n      dup2\n      jump\t// out\n        /* \"contracts/HRSLocalArbitrator.sol\":13377:13486  function getContractBalance() external view returns (uint256) {... */\n    tag_125:\n        /* \"contracts/HRSLocalArbitrator.sol\":13430:13437  uint256 */\n      0x00\n        /* \"contracts/HRSLocalArbitrator.sol\":13457:13478  address(this).balance */\n      selfbalance\n        /* \"contracts/HRSLocalArbitrator.sol\":13450:13478  return address(this).balance */\n      swap1\n      pop\n        /* \"contracts/HRSLocalArbitrator.sol\":13377:13486  function getContractBalance() external view returns (uint256) {... */\n      swap1\n      jump\t// out\n        /* \"contracts/HRSLocalArbitrator.sol\":905:936  bool public landlordEstimateSet */\n    tag_129:\n      0x0d\n      0x04\n      swap1\n      sload\n      swap1\n      0x0100\n      exp\n      swap1\n      div\n      0xff\n      and\n      dup2\n      jump\t// out\n        /* \"contracts/HRSLocalArbitrator.sol\":12103:12215  function getRenterBalance() external view returns (uint256) {... */\n    tag_133:\n        /* \"contracts/HRSLocalArbitrator.sol\":12154:12161  uint256 */\n      0x00\n        /* \"contracts/HRSLocalArbitrator.sol\":12181:12199  pendingWithdrawals */\n      0x0f\n        /* \"contracts/HRSLocalArbitrator.sol\":12181:12207  pendingWithdrawals[renter] */\n      0x00\n        /* \"contracts/HRSLocalArbitrator.sol\":12200:12206  renter */\n      0x01\n      0x00\n      swap1\n      sload\n      swap1\n      0x0100\n      exp\n      swap1\n      div\n      0xffffffffffffffffffffffffffffffffffffffff\n      and\n        /* \"contracts/HRSLocalArbitrator.sol\":12181:12207  pendingWithdrawals[renter] */\n      0xffffffffffffffffffffffffffffffffffffffff\n      and\n      0xffffffffffffffffffffffffffffffffffffffff\n      and\n      dup2\n      mstore\n      0x20\n      add\n      swap1\n      dup2\n      mstore\n      0x20\n      add\n      0x00\n      keccak256\n      sload\n        /* \"contracts/HRSLocalArbitrator.sol\":12174:12207  return pendingWithdrawals[renter] */\n      swap1\n      pop\n        /* \"contracts/HRSLocalArbitrator.sol\":12103:12215  function getRenterBalance() external view returns (uint256) {... */\n      swap1\n      jump\t// out\n        /* \"contracts/HRSLocalArbitrator.sol\":13605:13720  function getCurrentSecurityDeposit() public view returns (uint256) {... */\n    tag_137:\n        /* \"contracts/HRSLocalArbitrator.sol\":13663:13670  uint256 */\n      0x00\n        /* \"contracts/HRSLocalArbitrator.sol\":13690:13712  currentSecurityDeposit */\n      sload(0x0b)\n        /* \"contracts/HRSLocalArbitrator.sol\":13683:13712  return currentSecurityDeposit */\n      swap1\n      pop\n        /* \"contracts/HRSLocalArbitrator.sol\":13605:13720  function getCurrentSecurityDeposit() public view returns (uint256) {... */\n      swap1\n      jump\t// out\n        /* \"contracts/HRSLocalArbitrator.sol\":3976:4427  function recordUtilities(uint256 _utilities) external {... */\n    tag_142:\n        /* \"contracts/HRSLocalArbitrator.sol\":4063:4071  landlord */\n      0x00\n      dup1\n      sload\n      swap1\n      0x0100\n      exp\n      swap1\n      div\n      0xffffffffffffffffffffffffffffffffffffffff\n      and\n        /* \"contracts/HRSLocalArbitrator.sol\":4049:4071  msg.sender == landlord */\n      0xffffffffffffffffffffffffffffffffffffffff\n      and\n        /* \"contracts/HRSLocalArbitrator.sol\":4049:4059  msg.sender */\n      caller\n        /* \"contracts/HRSLocalArbitrator.sol\":4049:4071  msg.sender == landlord */\n      0xffffffffffffffffffffffffffffffffffffffff\n      and\n      eq\n        /* \"contracts/HRSLocalArbitrator.sol\":4041:4110  require(msg.sender == landlord, \"Only landlord can record utilities\") */\n      tag_290\n      jumpi\n      mload(0x40)\n      0x08c379a000000000000000000000000000000000000000000000000000000000\n      dup2\n      mstore\n      0x04\n      add\n      tag_291\n      swap1\n      tag_292\n      jump\t// in\n    tag_291:\n      mload(0x40)\n      dup1\n      swap2\n      sub\n      swap1\n      revert\n    tag_290:\n        /* \"contracts/HRSLocalArbitrator.sol\":4129:4137  isActive */\n      0x0d\n      0x00\n      swap1\n      sload\n      swap1\n      0x0100\n      exp\n      swap1\n      div\n      0xff\n      and\n        /* \"contracts/HRSLocalArbitrator.sol\":4121:4164  require(isActive, \"Contract is not active\") */\n      tag_293\n      jumpi\n      mload(0x40)\n      0x08c379a000000000000000000000000000000000000000000000000000000000\n      dup2\n      mstore\n      0x04\n      add\n      tag_294\n      swap1\n      tag_234\n      jump\t// in\n    tag_294:\n      mload(0x40)\n      dup1\n      swap2\n      sub\n      swap1\n      revert\n    tag_293:\n        /* \"contracts/HRSLocalArbitrator.sol\":4199:4217  rentPeriodInMonths */\n      sload(0x04)\n        /* \"contracts/HRSLocalArbitrator.sol\":4183:4195  currentMonth */\n      sload(0x06)\n        /* \"contracts/HRSLocalArbitrator.sol\":4183:4217  currentMonth <= rentPeriodInMonths */\n      gt\n      iszero\n        /* \"contracts/HRSLocalArbitrator.sol\":4175:4243  require(currentMonth <= rentPeriodInMonths, \"Rent period has ended\") */\n      tag_295\n      jumpi\n      mload(0x40)\n      0x08c379a000000000000000000000000000000000000000000000000000000000\n      dup2\n      mstore\n      0x04\n      add\n      tag_296\n      swap1\n      tag_297\n      jump\t// in\n    tag_296:\n      mload(0x40)\n      dup1\n      swap2\n      sub\n      swap1\n      revert\n    tag_295:\n        /* \"contracts/HRSLocalArbitrator.sol\":4293:4303  _utilities */\n      dup1\n        /* \"contracts/HRSLocalArbitrator.sol\":4254:4266  monthlyRents */\n      0x0e\n        /* \"contracts/HRSLocalArbitrator.sol\":4254:4280  monthlyRents[currentMonth] */\n      0x00\n        /* \"contracts/HRSLocalArbitrator.sol\":4267:4279  currentMonth */\n      sload(0x06)\n        /* \"contracts/HRSLocalArbitrator.sol\":4254:4280  monthlyRents[currentMonth] */\n      dup2\n      mstore\n      0x20\n      add\n      swap1\n      dup2\n      mstore\n      0x20\n      add\n      0x00\n      keccak256\n        /* \"contracts/HRSLocalArbitrator.sol\":4254:4290  monthlyRents[currentMonth].utilities */\n      0x01\n      add\n        /* \"contracts/HRSLocalArbitrator.sol\":4254:4303  monthlyRents[currentMonth].utilities = _utilities */\n      dup2\n      swap1\n      sstore\n      pop\n        /* \"contracts/HRSLocalArbitrator.sol\":4352:4360  baseRent */\n      sload(0x03)\n        /* \"contracts/HRSLocalArbitrator.sol\":4314:4326  monthlyRents */\n      0x0e\n        /* \"contracts/HRSLocalArbitrator.sol\":4314:4340  monthlyRents[currentMonth] */\n      0x00\n        /* \"contracts/HRSLocalArbitrator.sol\":4327:4339  currentMonth */\n      sload(0x06)\n        /* \"contracts/HRSLocalArbitrator.sol\":4314:4340  monthlyRents[currentMonth] */\n      dup2\n      mstore\n      0x20\n      add\n      swap1\n      dup2\n      mstore\n      0x20\n      add\n      0x00\n      keccak256\n        /* \"contracts/HRSLocalArbitrator.sol\":4314:4349  monthlyRents[currentMonth].baseRent */\n      0x00\n      add\n        /* \"contracts/HRSLocalArbitrator.sol\":4314:4360  monthlyRents[currentMonth].baseRent = baseRent */\n      dup2\n      swap1\n      sstore\n      pop\n        /* \"contracts/HRSLocalArbitrator.sol\":4376:4419  UtilitiesRecorded(currentMonth, _utilities) */\n      0xf75d23e75691b7209bf24071476b3702a8412a369b26fd3ad012d19630f65a2b\n        /* \"contracts/HRSLocalArbitrator.sol\":4394:4406  currentMonth */\n      sload(0x06)\n        /* \"contracts/HRSLocalArbitrator.sol\":4408:4418  _utilities */\n      dup3\n        /* \"contracts/HRSLocalArbitrator.sol\":4376:4419  UtilitiesRecorded(currentMonth, _utilities) */\n      mload(0x40)\n      tag_298\n      swap3\n      swap2\n      swap1\n      tag_253\n      jump\t// in\n    tag_298:\n      mload(0x40)\n      dup1\n      swap2\n      sub\n      swap1\n      log1\n        /* \"contracts/HRSLocalArbitrator.sol\":3976:4427  function recordUtilities(uint256 _utilities) external {... */\n      pop\n      jump\t// out\n        /* \"contracts/HRSLocalArbitrator.sol\":615:651  uint256 public renterCounterEstimate */\n    tag_145:\n      sload(0x09)\n      dup2\n      jump\t// out\n        /* \"contracts/HRSLocalArbitrator.sol\":516:543  uint256 public currentMonth */\n    tag_149:\n      sload(0x06)\n      dup2\n      jump\t// out\n        /* \"contracts/HRSLocalArbitrator.sol\":441:474  uint256 public rentPeriodInMonths */\n    tag_153:\n      sload(0x04)\n      dup2\n      jump\t// out\n        /* \"contracts/HRSLocalArbitrator.sol\":4435:5566  function payRent() external payable {... */\n    tag_156:\n        /* \"contracts/HRSLocalArbitrator.sol\":4504:4510  renter */\n      0x01\n      0x00\n      swap1\n      sload\n      swap1\n      0x0100\n      exp\n      swap1\n      div\n      0xffffffffffffffffffffffffffffffffffffffff\n      and\n        /* \"contracts/HRSLocalArbitrator.sol\":4490:4510  msg.sender == renter */\n      0xffffffffffffffffffffffffffffffffffffffff\n      and\n        /* \"contracts/HRSLocalArbitrator.sol\":4490:4500  msg.sender */\n      caller\n        /* \"contracts/HRSLocalArbitrator.sol\":4490:4510  msg.sender == renter */\n      0xffffffffffffffffffffffffffffffffffffffff\n      and\n      eq\n        /* \"contracts/HRSLocalArbitrator.sol\":4482:4539  require(msg.sender == renter, \"Only renter can pay rent\") */\n      tag_300\n      jumpi\n      mload(0x40)\n      0x08c379a000000000000000000000000000000000000000000000000000000000\n      dup2\n      mstore\n      0x04\n      add\n      tag_301\n      swap1\n      tag_302\n      jump\t// in\n    tag_301:\n      mload(0x40)\n      dup1\n      swap2\n      sub\n      swap1\n      revert\n    tag_300:\n        /* \"contracts/HRSLocalArbitrator.sol\":4558:4566  isActive */\n      0x0d\n      0x00\n      swap1\n      sload\n      swap1\n      0x0100\n      exp\n      swap1\n      div\n      0xff\n      and\n        /* \"contracts/HRSLocalArbitrator.sol\":4550:4593  require(isActive, \"Contract is not active\") */\n      tag_303\n      jumpi\n      mload(0x40)\n      0x08c379a000000000000000000000000000000000000000000000000000000000\n      dup2\n      mstore\n      0x04\n      add\n      tag_304\n      swap1\n      tag_234\n      jump\t// in\n    tag_304:\n      mload(0x40)\n      dup1\n      swap2\n      sub\n      swap1\n      revert\n    tag_303:\n        /* \"contracts/HRSLocalArbitrator.sol\":4628:4646  rentPeriodInMonths */\n      sload(0x04)\n        /* \"contracts/HRSLocalArbitrator.sol\":4612:4624  currentMonth */\n      sload(0x06)\n        /* \"contracts/HRSLocalArbitrator.sol\":4612:4646  currentMonth <= rentPeriodInMonths */\n      gt\n      iszero\n        /* \"contracts/HRSLocalArbitrator.sol\":4604:4672  require(currentMonth <= rentPeriodInMonths, \"Rent period has ended\") */\n      tag_305\n      jumpi\n      mload(0x40)\n      0x08c379a000000000000000000000000000000000000000000000000000000000\n      dup2\n      mstore\n      0x04\n      add\n      tag_306\n      swap1\n      tag_297\n      jump\t// in\n    tag_306:\n      mload(0x40)\n      dup1\n      swap2\n      sub\n      swap1\n      revert\n    tag_305:\n        /* \"contracts/HRSLocalArbitrator.sol\":4685:4716  MonthlyRent storage currentRent */\n      0x00\n        /* \"contracts/HRSLocalArbitrator.sol\":4719:4731  monthlyRents */\n      0x0e\n        /* \"contracts/HRSLocalArbitrator.sol\":4719:4745  monthlyRents[currentMonth] */\n      0x00\n        /* \"contracts/HRSLocalArbitrator.sol\":4732:4744  currentMonth */\n      sload(0x06)\n        /* \"contracts/HRSLocalArbitrator.sol\":4719:4745  monthlyRents[currentMonth] */\n      dup2\n      mstore\n      0x20\n      add\n      swap1\n      dup2\n      mstore\n      0x20\n      add\n      0x00\n      keccak256\n        /* \"contracts/HRSLocalArbitrator.sol\":4685:4745  MonthlyRent storage currentRent = monthlyRents[currentMonth] */\n      swap1\n      pop\n        /* \"contracts/HRSLocalArbitrator.sol\":4765:4776  currentRent */\n      dup1\n        /* \"contracts/HRSLocalArbitrator.sol\":4765:4781  currentRent.paid */\n      0x03\n      add\n      0x00\n      swap1\n      sload\n      swap1\n      0x0100\n      exp\n      swap1\n      div\n      0xff\n      and\n        /* \"contracts/HRSLocalArbitrator.sol\":4764:4781  !currentRent.paid */\n      iszero\n        /* \"contracts/HRSLocalArbitrator.sol\":4756:4827  require(!currentRent.paid, \"Rent for this month has already been paid\") */\n      tag_307\n      jumpi\n      mload(0x40)\n      0x08c379a000000000000000000000000000000000000000000000000000000000\n      dup2\n      mstore\n      0x04\n      add\n      tag_308\n      swap1\n      tag_309\n      jump\t// in\n    tag_308:\n      mload(0x40)\n      dup1\n      swap2\n      sub\n      swap1\n      revert\n    tag_307:\n        /* \"contracts/HRSLocalArbitrator.sol\":4870:4871  0 */\n      0x00\n        /* \"contracts/HRSLocalArbitrator.sol\":4846:4857  currentRent */\n      dup2\n        /* \"contracts/HRSLocalArbitrator.sol\":4846:4867  currentRent.utilities */\n      0x01\n      add\n      sload\n        /* \"contracts/HRSLocalArbitrator.sol\":4846:4871  currentRent.utilities > 0 */\n      gt\n        /* \"contracts/HRSLocalArbitrator.sol\":4838:4923  require(currentRent.utilities > 0, \"Utilities for this month have not been recorded\") */\n      tag_310\n      jumpi\n      mload(0x40)\n      0x08c379a000000000000000000000000000000000000000000000000000000000\n      dup2\n      mstore\n      0x04\n      add\n      tag_311\n      swap1\n      tag_312\n      jump\t// in\n    tag_311:\n      mload(0x40)\n      dup1\n      swap2\n      sub\n      swap1\n      revert\n    tag_310:\n        /* \"contracts/HRSLocalArbitrator.sol\":4936:4953  uint256 totalRent */\n      0x00\n        /* \"contracts/HRSLocalArbitrator.sol\":5003:5010  dueRent */\n      sload(0x07)\n        /* \"contracts/HRSLocalArbitrator.sol\":4979:4990  currentRent */\n      dup3\n        /* \"contracts/HRSLocalArbitrator.sol\":4979:5000  currentRent.utilities */\n      0x01\n      add\n      sload\n        /* \"contracts/HRSLocalArbitrator.sol\":4956:4967  currentRent */\n      dup4\n        /* \"contracts/HRSLocalArbitrator.sol\":4956:4976  currentRent.baseRent */\n      0x00\n      add\n      sload\n        /* \"contracts/HRSLocalArbitrator.sol\":4956:5000  currentRent.baseRent + currentRent.utilities */\n      tag_313\n      swap2\n      swap1\n      tag_314\n      jump\t// in\n    tag_313:\n        /* \"contracts/HRSLocalArbitrator.sol\":4956:5010  currentRent.baseRent + currentRent.utilities + dueRent */\n      tag_315\n      swap2\n      swap1\n      tag_314\n      jump\t// in\n    tag_315:\n        /* \"contracts/HRSLocalArbitrator.sol\":4936:5010  uint256 totalRent = currentRent.baseRent + currentRent.utilities + dueRent */\n      swap1\n      pop\n        /* \"contracts/HRSLocalArbitrator.sol\":5042:5051  totalRent */\n      dup1\n        /* \"contracts/HRSLocalArbitrator.sol\":5029:5038  msg.value */\n      callvalue\n        /* \"contracts/HRSLocalArbitrator.sol\":5029:5051  msg.value == totalRent */\n      eq\n        /* \"contracts/HRSLocalArbitrator.sol\":5021:5077  require(msg.value == totalRent, \"Incorrect rent amount\") */\n      tag_316\n      jumpi\n      mload(0x40)\n      0x08c379a000000000000000000000000000000000000000000000000000000000\n      dup2\n      mstore\n      0x04\n      add\n      tag_317\n      swap1\n      tag_318\n      jump\t// in\n    tag_317:\n      mload(0x40)\n      dup1\n      swap2\n      sub\n      swap1\n      revert\n    tag_316:\n        /* \"contracts/HRSLocalArbitrator.sol\":5109:5113  true */\n      0x01\n        /* \"contracts/HRSLocalArbitrator.sol\":5090:5101  currentRent */\n      dup3\n        /* \"contracts/HRSLocalArbitrator.sol\":5090:5106  currentRent.paid */\n      0x03\n      add\n      0x00\n        /* \"contracts/HRSLocalArbitrator.sol\":5090:5113  currentRent.paid = true */\n      0x0100\n      exp\n      dup2\n      sload\n      dup2\n      0xff\n      mul\n      not\n      and\n      swap1\n      dup4\n      iszero\n      iszero\n      mul\n      or\n      swap1\n      sstore\n      pop\n        /* \"contracts/HRSLocalArbitrator.sol\":5134:5135  0 */\n      0x00\n        /* \"contracts/HRSLocalArbitrator.sol\":5124:5131  dueRent */\n      0x07\n        /* \"contracts/HRSLocalArbitrator.sol\":5124:5135  dueRent = 0 */\n      dup2\n      swap1\n      sstore\n      pop\n        /* \"contracts/HRSLocalArbitrator.sol\":5153:5186  RentPaid(currentMonth, totalRent) */\n      0xa0d112ed080c1b1a94b838ad981a23746be2a4670fd4bf157224e72cdd5dfdde\n        /* \"contracts/HRSLocalArbitrator.sol\":5162:5174  currentMonth */\n      sload(0x06)\n        /* \"contracts/HRSLocalArbitrator.sol\":5176:5185  totalRent */\n      dup3\n        /* \"contracts/HRSLocalArbitrator.sol\":5153:5186  RentPaid(currentMonth, totalRent) */\n      mload(0x40)\n      tag_319\n      swap3\n      swap2\n      swap1\n      tag_253\n      jump\t// in\n    tag_319:\n      mload(0x40)\n      dup1\n      swap2\n      sub\n      swap1\n      log1\n        /* \"contracts/HRSLocalArbitrator.sol\":5295:5304  totalRent */\n      dup1\n        /* \"contracts/HRSLocalArbitrator.sol\":5263:5281  pendingWithdrawals */\n      0x0f\n        /* \"contracts/HRSLocalArbitrator.sol\":5263:5291  pendingWithdrawals[landlord] */\n      0x00\n        /* \"contracts/HRSLocalArbitrator.sol\":5282:5290  landlord */\n      dup1\n      0x00\n      swap1\n      sload\n      swap1\n      0x0100\n      exp\n      swap1\n      div\n      0xffffffffffffffffffffffffffffffffffffffff\n      and\n        /* \"contracts/HRSLocalArbitrator.sol\":5263:5291  pendingWithdrawals[landlord] */\n      0xffffffffffffffffffffffffffffffffffffffff\n      and\n      0xffffffffffffffffffffffffffffffffffffffff\n      and\n      dup2\n      mstore\n      0x20\n      add\n      swap1\n      dup2\n      mstore\n      0x20\n      add\n      0x00\n      keccak256\n      0x00\n        /* \"contracts/HRSLocalArbitrator.sol\":5263:5304  pendingWithdrawals[landlord] += totalRent */\n      dup3\n      dup3\n      sload\n      tag_320\n      swap2\n      swap1\n      tag_314\n      jump\t// in\n    tag_320:\n      swap3\n      pop\n      pop\n      dup2\n      swap1\n      sstore\n      pop\n        /* \"contracts/HRSLocalArbitrator.sol\":5340:5348  landlord */\n      0x00\n      dup1\n      sload\n      swap1\n      0x0100\n      exp\n      swap1\n      div\n      0xffffffffffffffffffffffffffffffffffffffff\n      and\n        /* \"contracts/HRSLocalArbitrator.sol\":5320:5360  WithdrawalRequested(landlord, totalRent) */\n      0xffffffffffffffffffffffffffffffffffffffff\n      and\n      0xe670e4e82118d22a1f9ee18920455ebc958bae26a90a05d31d3378788b1b0e44\n        /* \"contracts/HRSLocalArbitrator.sol\":5350:5359  totalRent */\n      dup3\n        /* \"contracts/HRSLocalArbitrator.sol\":5320:5360  WithdrawalRequested(landlord, totalRent) */\n      mload(0x40)\n      tag_321\n      swap2\n      swap1\n      tag_63\n      jump\t// in\n    tag_321:\n      mload(0x40)\n      dup1\n      swap2\n      sub\n      swap1\n      log2\n        /* \"contracts/HRSLocalArbitrator.sol\":5393:5411  rentPeriodInMonths */\n      sload(0x04)\n        /* \"contracts/HRSLocalArbitrator.sol\":5377:5389  currentMonth */\n      sload(0x06)\n        /* \"contracts/HRSLocalArbitrator.sol\":5377:5411  currentMonth == rentPeriodInMonths */\n      sub\n        /* \"contracts/HRSLocalArbitrator.sol\":5373:5559  if (currentMonth == rentPeriodInMonths) {... */\n      tag_322\n      jumpi\n        /* \"contracts/HRSLocalArbitrator.sol\":5448:5452  true */\n      0x01\n        /* \"contracts/HRSLocalArbitrator.sol\":5428:5445  rentalPeriodEnded */\n      0x0d\n      0x03\n        /* \"contracts/HRSLocalArbitrator.sol\":5428:5452  rentalPeriodEnded = true */\n      0x0100\n      exp\n      dup2\n      sload\n      dup2\n      0xff\n      mul\n      not\n      and\n      swap1\n      dup4\n      iszero\n      iszero\n      mul\n      or\n      swap1\n      sstore\n      pop\n        /* \"contracts/HRSLocalArbitrator.sol\":5373:5559  if (currentMonth == rentPeriodInMonths) {... */\n      jump(tag_323)\n    tag_322:\n        /* \"contracts/HRSLocalArbitrator.sol\":5533:5545  currentMonth */\n      0x06\n      0x00\n        /* \"contracts/HRSLocalArbitrator.sol\":5533:5547  currentMonth++ */\n      dup2\n      sload\n      dup1\n      swap3\n      swap2\n      swap1\n      tag_324\n      swap1\n      tag_325\n      jump\t// in\n    tag_324:\n      swap2\n      swap1\n      pop\n      sstore\n      pop\n        /* \"contracts/HRSLocalArbitrator.sol\":5373:5559  if (currentMonth == rentPeriodInMonths) {... */\n    tag_323:\n        /* \"contracts/HRSLocalArbitrator.sol\":4471:5566  {... */\n      pop\n      pop\n        /* \"contracts/HRSLocalArbitrator.sol\":4435:5566  function payRent() external payable {... */\n      jump\t// out\n        /* \"contracts/HRSLocalArbitrator.sol\":3607:3968  function initializeCurrentSecurityDeposit() external {... */\n    tag_159:\n        /* \"contracts/HRSLocalArbitrator.sol\":3693:3701  landlord */\n      0x00\n      dup1\n      sload\n      swap1\n      0x0100\n      exp\n      swap1\n      div\n      0xffffffffffffffffffffffffffffffffffffffff\n      and\n        /* \"contracts/HRSLocalArbitrator.sol\":3679:3701  msg.sender == landlord */\n      0xffffffffffffffffffffffffffffffffffffffff\n      and\n        /* \"contracts/HRSLocalArbitrator.sol\":3679:3689  msg.sender */\n      caller\n        /* \"contracts/HRSLocalArbitrator.sol\":3679:3701  msg.sender == landlord */\n      0xffffffffffffffffffffffffffffffffffffffff\n      and\n      eq\n        /* \"contracts/HRSLocalArbitrator.sol\":3671:3759  require(msg.sender == landlord, \"Only landlord can initialize current security deposit\") */\n      tag_327\n      jumpi\n      mload(0x40)\n      0x08c379a000000000000000000000000000000000000000000000000000000000\n      dup2\n      mstore\n      0x04\n      add\n      tag_328\n      swap1\n      tag_329\n      jump\t// in\n    tag_328:\n      mload(0x40)\n      dup1\n      swap2\n      sub\n      swap1\n      revert\n    tag_327:\n        /* \"contracts/HRSLocalArbitrator.sol\":3778:3786  isActive */\n      0x0d\n      0x00\n      swap1\n      sload\n      swap1\n      0x0100\n      exp\n      swap1\n      div\n      0xff\n      and\n        /* \"contracts/HRSLocalArbitrator.sol\":3770:3814  require(isActive, \"Contract must be active\") */\n      tag_330\n      jumpi\n      mload(0x40)\n      0x08c379a000000000000000000000000000000000000000000000000000000000\n      dup2\n      mstore\n      0x04\n      add\n      tag_331\n      swap1\n      tag_332\n      jump\t// in\n    tag_331:\n      mload(0x40)\n      dup1\n      swap2\n      sub\n      swap1\n      revert\n    tag_330:\n        /* \"contracts/HRSLocalArbitrator.sol\":3859:3860  0 */\n      0x00\n        /* \"contracts/HRSLocalArbitrator.sol\":3833:3855  currentSecurityDeposit */\n      sload(0x0b)\n        /* \"contracts/HRSLocalArbitrator.sol\":3833:3860  currentSecurityDeposit == 0 */\n      eq\n        /* \"contracts/HRSLocalArbitrator.sol\":3825:3909  require(currentSecurityDeposit == 0, \"Current security deposit already initialized\") */\n      tag_333\n      jumpi\n      mload(0x40)\n      0x08c379a000000000000000000000000000000000000000000000000000000000\n      dup2\n      mstore\n      0x04\n      add\n      tag_334\n      swap1\n      tag_335\n      jump\t// in\n    tag_334:\n      mload(0x40)\n      dup1\n      swap2\n      sub\n      swap1\n      revert\n    tag_333:\n        /* \"contracts/HRSLocalArbitrator.sol\":3945:3960  securityDeposit */\n      sload(0x02)\n        /* \"contracts/HRSLocalArbitrator.sol\":3920:3942  currentSecurityDeposit */\n      0x0b\n        /* \"contracts/HRSLocalArbitrator.sol\":3920:3960  currentSecurityDeposit = securityDeposit */\n      dup2\n      swap1\n      sstore\n      pop\n        /* \"contracts/HRSLocalArbitrator.sol\":3607:3968  function initializeCurrentSecurityDeposit() external {... */\n      jump\t// out\n        /* \"contracts/HRSLocalArbitrator.sol\":658:682  uint256 public disputeID */\n    tag_162:\n      sload(0x0a)\n      dup2\n      jump\t// out\n        /* \"contracts/HRSLocalArbitrator.sol\":7780:8186  function setRenterCounterEstimate(uint256 _renterCounterEstimate) external {... */\n    tag_167:\n        /* \"contracts/HRSLocalArbitrator.sol\":7888:7894  renter */\n      0x01\n      0x00\n      swap1\n      sload\n      swap1\n      0x0100\n      exp\n      swap1\n      div\n      0xffffffffffffffffffffffffffffffffffffffff\n      and\n        /* \"contracts/HRSLocalArbitrator.sol\":7874:7894  msg.sender == renter */\n      0xffffffffffffffffffffffffffffffffffffffff\n      and\n        /* \"contracts/HRSLocalArbitrator.sol\":7874:7884  msg.sender */\n      caller\n        /* \"contracts/HRSLocalArbitrator.sol\":7874:7894  msg.sender == renter */\n      0xffffffffffffffffffffffffffffffffffffffff\n      and\n      eq\n        /* \"contracts/HRSLocalArbitrator.sol\":7866:7939  require(msg.sender == renter, \"Only renter can set the counter estimate\") */\n      tag_337\n      jumpi\n      mload(0x40)\n      0x08c379a000000000000000000000000000000000000000000000000000000000\n      dup2\n      mstore\n      0x04\n      add\n      tag_338\n      swap1\n      tag_339\n      jump\t// in\n    tag_338:\n      mload(0x40)\n      dup1\n      swap2\n      sub\n      swap1\n      revert\n    tag_337:\n        /* \"contracts/HRSLocalArbitrator.sol\":7958:7977  landlordEstimateSet */\n      0x0d\n      0x04\n      swap1\n      sload\n      swap1\n      0x0100\n      exp\n      swap1\n      div\n      0xff\n      and\n        /* \"contracts/HRSLocalArbitrator.sol\":7950:8021  require(landlordEstimateSet, \"Landlord must set damage estimate first\") */\n      tag_340\n      jumpi\n      mload(0x40)\n      0x08c379a000000000000000000000000000000000000000000000000000000000\n      dup2\n      mstore\n      0x04\n      add\n      tag_341\n      swap1\n      tag_342\n      jump\t// in\n    tag_341:\n      mload(0x40)\n      dup1\n      swap2\n      sub\n      swap1\n      revert\n    tag_340:\n        /* \"contracts/HRSLocalArbitrator.sol\":8056:8078  _renterCounterEstimate */\n      dup1\n        /* \"contracts/HRSLocalArbitrator.sol\":8032:8053  renterCounterEstimate */\n      0x09\n        /* \"contracts/HRSLocalArbitrator.sol\":8032:8078  renterCounterEstimate = _renterCounterEstimate */\n      dup2\n      swap1\n      sstore\n      pop\n        /* \"contracts/HRSLocalArbitrator.sol\":8116:8120  true */\n      0x01\n        /* \"contracts/HRSLocalArbitrator.sol\":8089:8113  renterCounterEstimateSet */\n      0x0d\n      0x05\n        /* \"contracts/HRSLocalArbitrator.sol\":8089:8120  renterCounterEstimateSet = true */\n      0x0100\n      exp\n      dup2\n      sload\n      dup2\n      0xff\n      mul\n      not\n      and\n      swap1\n      dup4\n      iszero\n      iszero\n      mul\n      or\n      swap1\n      sstore\n      pop\n        /* \"contracts/HRSLocalArbitrator.sol\":8136:8178  CounterEstimateSet(_renterCounterEstimate) */\n      0x0f2792b28c50f2f7eece39e74a2b4f0f1ce15a79acb72dd811686e827aed030b\n        /* \"contracts/HRSLocalArbitrator.sol\":8155:8177  _renterCounterEstimate */\n      dup2\n        /* \"contracts/HRSLocalArbitrator.sol\":8136:8178  CounterEstimateSet(_renterCounterEstimate) */\n      mload(0x40)\n      tag_343\n      swap2\n      swap1\n      tag_63\n      jump\t// in\n    tag_343:\n      mload(0x40)\n      dup1\n      swap2\n      sub\n      swap1\n      log1\n        /* \"contracts/HRSLocalArbitrator.sol\":7780:8186  function setRenterCounterEstimate(uint256 _renterCounterEstimate) external {... */\n      pop\n      jump\t// out\n        /* \"contracts/HRSLocalArbitrator.sol\":5574:6394  function skipRentPayment() external {... */\n    tag_170:\n        /* \"contracts/HRSLocalArbitrator.sol\":5643:5649  renter */\n      0x01\n      0x00\n      swap1\n      sload\n      swap1\n      0x0100\n      exp\n      swap1\n      div\n      0xffffffffffffffffffffffffffffffffffffffff\n      and\n        /* \"contracts/HRSLocalArbitrator.sol\":5629:5649  msg.sender == renter */\n      0xffffffffffffffffffffffffffffffffffffffff\n      and\n        /* \"contracts/HRSLocalArbitrator.sol\":5629:5639  msg.sender */\n      caller\n        /* \"contracts/HRSLocalArbitrator.sol\":5629:5649  msg.sender == renter */\n      0xffffffffffffffffffffffffffffffffffffffff\n      and\n      eq\n        /* \"contracts/HRSLocalArbitrator.sol\":5621:5687  require(msg.sender == renter, \"Only renter can skip rent payment\") */\n      tag_345\n      jumpi\n      mload(0x40)\n      0x08c379a000000000000000000000000000000000000000000000000000000000\n      dup2\n      mstore\n      0x04\n      add\n      tag_346\n      swap1\n      tag_347\n      jump\t// in\n    tag_346:\n      mload(0x40)\n      dup1\n      swap2\n      sub\n      swap1\n      revert\n    tag_345:\n        /* \"contracts/HRSLocalArbitrator.sol\":5706:5714  isActive */\n      0x0d\n      0x00\n      swap1\n      sload\n      swap1\n      0x0100\n      exp\n      swap1\n      div\n      0xff\n      and\n        /* \"contracts/HRSLocalArbitrator.sol\":5698:5741  require(isActive, \"Contract is not active\") */\n      tag_348\n      jumpi\n      mload(0x40)\n      0x08c379a000000000000000000000000000000000000000000000000000000000\n      dup2\n      mstore\n      0x04\n      add\n      tag_349\n      swap1\n      tag_234\n      jump\t// in\n    tag_349:\n      mload(0x40)\n      dup1\n      swap2\n      sub\n      swap1\n      revert\n    tag_348:\n        /* \"contracts/HRSLocalArbitrator.sol\":5775:5793  rentPeriodInMonths */\n      sload(0x04)\n        /* \"contracts/HRSLocalArbitrator.sol\":5760:5772  currentMonth */\n      sload(0x06)\n        /* \"contracts/HRSLocalArbitrator.sol\":5760:5793  currentMonth < rentPeriodInMonths */\n      lt\n        /* \"contracts/HRSLocalArbitrator.sol\":5752:5833  require(currentMonth < rentPeriodInMonths, \"Cannot skip rent for the last month\") */\n      tag_350\n      jumpi\n      mload(0x40)\n      0x08c379a000000000000000000000000000000000000000000000000000000000\n      dup2\n      mstore\n      0x04\n      add\n      tag_351\n      swap1\n      tag_352\n      jump\t// in\n    tag_351:\n      mload(0x40)\n      dup1\n      swap2\n      sub\n      swap1\n      revert\n    tag_350:\n        /* \"contracts/HRSLocalArbitrator.sol\":5846:5877  MonthlyRent storage currentRent */\n      0x00\n        /* \"contracts/HRSLocalArbitrator.sol\":5880:5892  monthlyRents */\n      0x0e\n        /* \"contracts/HRSLocalArbitrator.sol\":5880:5906  monthlyRents[currentMonth] */\n      0x00\n        /* \"contracts/HRSLocalArbitrator.sol\":5893:5905  currentMonth */\n      sload(0x06)\n        /* \"contracts/HRSLocalArbitrator.sol\":5880:5906  monthlyRents[currentMonth] */\n      dup2\n      mstore\n      0x20\n      add\n      swap1\n      dup2\n      mstore\n      0x20\n      add\n      0x00\n      keccak256\n        /* \"contracts/HRSLocalArbitrator.sol\":5846:5906  MonthlyRent storage currentRent = monthlyRents[currentMonth] */\n      swap1\n      pop\n        /* \"contracts/HRSLocalArbitrator.sol\":5926:5937  currentRent */\n      dup1\n        /* \"contracts/HRSLocalArbitrator.sol\":5926:5942  currentRent.paid */\n      0x03\n      add\n      0x00\n      swap1\n      sload\n      swap1\n      0x0100\n      exp\n      swap1\n      div\n      0xff\n      and\n        /* \"contracts/HRSLocalArbitrator.sol\":5925:5942  !currentRent.paid */\n      iszero\n        /* \"contracts/HRSLocalArbitrator.sol\":5917:5988  require(!currentRent.paid, \"Rent for this month has already been paid\") */\n      tag_353\n      jumpi\n      mload(0x40)\n      0x08c379a000000000000000000000000000000000000000000000000000000000\n      dup2\n      mstore\n      0x04\n      add\n      tag_354\n      swap1\n      tag_309\n      jump\t// in\n    tag_354:\n      mload(0x40)\n      dup1\n      swap2\n      sub\n      swap1\n      revert\n    tag_353:\n        /* \"contracts/HRSLocalArbitrator.sol\":6031:6032  0 */\n      0x00\n        /* \"contracts/HRSLocalArbitrator.sol\":6007:6018  currentRent */\n      dup2\n        /* \"contracts/HRSLocalArbitrator.sol\":6007:6028  currentRent.utilities */\n      0x01\n      add\n      sload\n        /* \"contracts/HRSLocalArbitrator.sol\":6007:6032  currentRent.utilities > 0 */\n      gt\n        /* \"contracts/HRSLocalArbitrator.sol\":5999:6084  require(currentRent.utilities > 0, \"Utilities for this month have not been recorded\") */\n      tag_355\n      jumpi\n      mload(0x40)\n      0x08c379a000000000000000000000000000000000000000000000000000000000\n      dup2\n      mstore\n      0x04\n      add\n      tag_356\n      swap1\n      tag_312\n      jump\t// in\n    tag_356:\n      mload(0x40)\n      dup1\n      swap2\n      sub\n      swap1\n      revert\n    tag_355:\n        /* \"contracts/HRSLocalArbitrator.sol\":6097:6118  uint256 skippedAmount */\n      0x00\n        /* \"contracts/HRSLocalArbitrator.sol\":6144:6155  currentRent */\n      dup2\n        /* \"contracts/HRSLocalArbitrator.sol\":6144:6165  currentRent.utilities */\n      0x01\n      add\n      sload\n        /* \"contracts/HRSLocalArbitrator.sol\":6121:6132  currentRent */\n      dup3\n        /* \"contracts/HRSLocalArbitrator.sol\":6121:6141  currentRent.baseRent */\n      0x00\n      add\n      sload\n        /* \"contracts/HRSLocalArbitrator.sol\":6121:6165  currentRent.baseRent + currentRent.utilities */\n      tag_357\n      swap2\n      swap1\n      tag_314\n      jump\t// in\n    tag_357:\n        /* \"contracts/HRSLocalArbitrator.sol\":6097:6165  uint256 skippedAmount = currentRent.baseRent + currentRent.utilities */\n      swap1\n      pop\n        /* \"contracts/HRSLocalArbitrator.sol\":6187:6200  skippedAmount */\n      dup1\n        /* \"contracts/HRSLocalArbitrator.sol\":6176:6183  dueRent */\n      0x07\n      0x00\n        /* \"contracts/HRSLocalArbitrator.sol\":6176:6200  dueRent += skippedAmount */\n      dup3\n      dup3\n      sload\n      tag_358\n      swap2\n      swap1\n      tag_314\n      jump\t// in\n    tag_358:\n      swap3\n      pop\n      pop\n      dup2\n      swap1\n      sstore\n      pop\n        /* \"contracts/HRSLocalArbitrator.sol\":6218:6258  RentSkipped(currentMonth, skippedAmount) */\n      0x9ea3a4b65940d7b9dbf8bb1c459ba8e81222d1a596e93fbc364365a6d78e27d6\n        /* \"contracts/HRSLocalArbitrator.sol\":6230:6242  currentMonth */\n      sload(0x06)\n        /* \"contracts/HRSLocalArbitrator.sol\":6244:6257  skippedAmount */\n      dup3\n        /* \"contracts/HRSLocalArbitrator.sol\":6218:6258  RentSkipped(currentMonth, skippedAmount) */\n      mload(0x40)\n      tag_359\n      swap3\n      swap2\n      swap1\n      tag_253\n      jump\t// in\n    tag_359:\n      mload(0x40)\n      dup1\n      swap2\n      sub\n      swap1\n      log1\n        /* \"contracts/HRSLocalArbitrator.sol\":6271:6283  currentMonth */\n      0x06\n      0x00\n        /* \"contracts/HRSLocalArbitrator.sol\":6271:6285  currentMonth++ */\n      dup2\n      sload\n      dup1\n      swap3\n      swap2\n      swap1\n      tag_360\n      swap1\n      tag_325\n      jump\t// in\n    tag_360:\n      swap2\n      swap1\n      pop\n      sstore\n      pop\n        /* \"contracts/HRSLocalArbitrator.sol\":6316:6334  rentPeriodInMonths */\n      sload(0x04)\n        /* \"contracts/HRSLocalArbitrator.sol\":6300:6312  currentMonth */\n      sload(0x06)\n        /* \"contracts/HRSLocalArbitrator.sol\":6300:6334  currentMonth == rentPeriodInMonths */\n      sub\n        /* \"contracts/HRSLocalArbitrator.sol\":6296:6387  if (currentMonth == rentPeriodInMonths) {... */\n      tag_361\n      jumpi\n        /* \"contracts/HRSLocalArbitrator.sol\":6371:6375  true */\n      0x01\n        /* \"contracts/HRSLocalArbitrator.sol\":6351:6368  rentalPeriodEnded */\n      0x0d\n      0x03\n        /* \"contracts/HRSLocalArbitrator.sol\":6351:6375  rentalPeriodEnded = true */\n      0x0100\n      exp\n      dup2\n      sload\n      dup2\n      0xff\n      mul\n      not\n      and\n      swap1\n      dup4\n      iszero\n      iszero\n      mul\n      or\n      swap1\n      sstore\n      pop\n        /* \"contracts/HRSLocalArbitrator.sol\":6296:6387  if (currentMonth == rentPeriodInMonths) {... */\n    tag_361:\n        /* \"contracts/HRSLocalArbitrator.sol\":5610:6394  {... */\n      pop\n      pop\n        /* \"contracts/HRSLocalArbitrator.sol\":5574:6394  function skipRentPayment() external {... */\n      jump\t// out\n        /* \"contracts/HRSLocalArbitrator.sol\":13494:13597  function isRentalPeriodEnded() external view returns (bool) {... */\n    tag_173:\n        /* \"contracts/HRSLocalArbitrator.sol\":13548:13552  bool */\n      0x00\n        /* \"contracts/HRSLocalArbitrator.sol\":13572:13589  rentalPeriodEnded */\n      0x0d\n      0x03\n      swap1\n      sload\n      swap1\n      0x0100\n      exp\n      swap1\n      div\n      0xff\n      and\n        /* \"contracts/HRSLocalArbitrator.sol\":13565:13589  return rentalPeriodEnded */\n      swap1\n      pop\n        /* \"contracts/HRSLocalArbitrator.sol\":13494:13597  function isRentalPeriodEnded() external view returns (bool) {... */\n      swap1\n      jump\t// out\n        /* \"contracts/HRSLocalArbitrator.sol\":689:726  uint256 public currentSecurityDeposit */\n    tag_177:\n      sload(0x0b)\n      dup2\n      jump\t// out\n        /* \"contracts/HRSLocalArbitrator.sol\":2518:2988  function setAgreementTerms(uint256 _securityDeposit, uint256 _baseRent, uint256 _rentPeriodInMonths) external {... */\n    tag_183:\n        /* \"contracts/HRSLocalArbitrator.sol\":2661:2669  landlord */\n      0x00\n      dup1\n      sload\n      swap1\n      0x0100\n      exp\n      swap1\n      div\n      0xffffffffffffffffffffffffffffffffffffffff\n      and\n        /* \"contracts/HRSLocalArbitrator.sol\":2647:2669  msg.sender == landlord */\n      0xffffffffffffffffffffffffffffffffffffffff\n      and\n        /* \"contracts/HRSLocalArbitrator.sol\":2647:2657  msg.sender */\n      caller\n        /* \"contracts/HRSLocalArbitrator.sol\":2647:2669  msg.sender == landlord */\n      0xffffffffffffffffffffffffffffffffffffffff\n      and\n      eq\n        /* \"contracts/HRSLocalArbitrator.sol\":2639:2711  require(msg.sender == landlord, \"Only landlord can set agreement terms\") */\n      tag_364\n      jumpi\n      mload(0x40)\n      0x08c379a000000000000000000000000000000000000000000000000000000000\n      dup2\n      mstore\n      0x04\n      add\n      tag_365\n      swap1\n      tag_366\n      jump\t// in\n    tag_365:\n      mload(0x40)\n      dup1\n      swap2\n      sub\n      swap1\n      revert\n    tag_364:\n        /* \"contracts/HRSLocalArbitrator.sol\":2731:2739  isActive */\n      0x0d\n      0x00\n      swap1\n      sload\n      swap1\n      0x0100\n      exp\n      swap1\n      div\n      0xff\n      and\n        /* \"contracts/HRSLocalArbitrator.sol\":2730:2739  !isActive */\n      iszero\n        /* \"contracts/HRSLocalArbitrator.sol\":2722:2770  require(!isActive, \"Contract is already active\") */\n      tag_367\n      jumpi\n      mload(0x40)\n      0x08c379a000000000000000000000000000000000000000000000000000000000\n      dup2\n      mstore\n      0x04\n      add\n      tag_368\n      swap1\n      tag_277\n      jump\t// in\n    tag_368:\n      mload(0x40)\n      dup1\n      swap2\n      sub\n      swap1\n      revert\n    tag_367:\n        /* \"contracts/HRSLocalArbitrator.sol\":2799:2815  _securityDeposit */\n      dup3\n        /* \"contracts/HRSLocalArbitrator.sol\":2781:2796  securityDeposit */\n      0x02\n        /* \"contracts/HRSLocalArbitrator.sol\":2781:2815  securityDeposit = _securityDeposit */\n      dup2\n      swap1\n      sstore\n      pop\n        /* \"contracts/HRSLocalArbitrator.sol\":2837:2846  _baseRent */\n      dup2\n        /* \"contracts/HRSLocalArbitrator.sol\":2826:2834  baseRent */\n      0x03\n        /* \"contracts/HRSLocalArbitrator.sol\":2826:2846  baseRent = _baseRent */\n      dup2\n      swap1\n      sstore\n      pop\n        /* \"contracts/HRSLocalArbitrator.sol\":2878:2897  _rentPeriodInMonths */\n      dup1\n        /* \"contracts/HRSLocalArbitrator.sol\":2857:2875  rentPeriodInMonths */\n      0x04\n        /* \"contracts/HRSLocalArbitrator.sol\":2857:2897  rentPeriodInMonths = _rentPeriodInMonths */\n      dup2\n      swap1\n      sstore\n      pop\n        /* \"contracts/HRSLocalArbitrator.sol\":2913:2980  AgreementTermsSet(_securityDeposit, _baseRent, _rentPeriodInMonths) */\n      0x2f47566d4872826a9750e05ae448ad21f2a677c332d36d6437b697a7f8dd1e14\n        /* \"contracts/HRSLocalArbitrator.sol\":2931:2947  _securityDeposit */\n      dup4\n        /* \"contracts/HRSLocalArbitrator.sol\":2949:2958  _baseRent */\n      dup4\n        /* \"contracts/HRSLocalArbitrator.sol\":2960:2979  _rentPeriodInMonths */\n      dup4\n        /* \"contracts/HRSLocalArbitrator.sol\":2913:2980  AgreementTermsSet(_securityDeposit, _baseRent, _rentPeriodInMonths) */\n      mload(0x40)\n      tag_369\n      swap4\n      swap3\n      swap2\n      swap1\n      tag_370\n      jump\t// in\n    tag_369:\n      mload(0x40)\n      dup1\n      swap2\n      sub\n      swap1\n      log1\n        /* \"contracts/HRSLocalArbitrator.sol\":2518:2988  function setAgreementTerms(uint256 _securityDeposit, uint256 _baseRent, uint256 _rentPeriodInMonths) external {... */\n      pop\n      pop\n      pop\n      jump\t// out\n        /* \"contracts/HRSLocalArbitrator.sol\":9580:11597  function executeRuling(uint256 _disputeID, uint256 _ruling) external {... */\n    tag_188:\n        /* \"contracts/HRSLocalArbitrator.sol\":9690:9700  arbitrator */\n      0x0d\n      0x06\n      swap1\n      sload\n      swap1\n      0x0100\n      exp\n      swap1\n      div\n      0xffffffffffffffffffffffffffffffffffffffff\n      and\n        /* \"contracts/HRSLocalArbitrator.sol\":9668:9701  msg.sender == address(arbitrator) */\n      0xffffffffffffffffffffffffffffffffffffffff\n      and\n        /* \"contracts/HRSLocalArbitrator.sol\":9668:9678  msg.sender */\n      caller\n        /* \"contracts/HRSLocalArbitrator.sol\":9668:9701  msg.sender == address(arbitrator) */\n      0xffffffffffffffffffffffffffffffffffffffff\n      and\n      eq\n        /* \"contracts/HRSLocalArbitrator.sol\":9660:9744  require(msg.sender == address(arbitrator), \"Only the arbitrator can execute ruling\") */\n      tag_372\n      jumpi\n      mload(0x40)\n      0x08c379a000000000000000000000000000000000000000000000000000000000\n      dup2\n      mstore\n      0x04\n      add\n      tag_373\n      swap1\n      tag_374\n      jump\t// in\n    tag_373:\n      mload(0x40)\n      dup1\n      swap2\n      sub\n      swap1\n      revert\n    tag_372:\n        /* \"contracts/HRSLocalArbitrator.sol\":9763:9776  disputeRaised */\n      0x0d\n      0x02\n      swap1\n      sload\n      swap1\n      0x0100\n      exp\n      swap1\n      div\n      0xff\n      and\n        /* \"contracts/HRSLocalArbitrator.sol\":9755:9802  require(disputeRaised, \"No dispute to rule on\") */\n      tag_375\n      jumpi\n      mload(0x40)\n      0x08c379a000000000000000000000000000000000000000000000000000000000\n      dup2\n      mstore\n      0x04\n      add\n      tag_376\n      swap1\n      tag_377\n      jump\t// in\n    tag_376:\n      mload(0x40)\n      dup1\n      swap2\n      sub\n      swap1\n      revert\n    tag_375:\n        /* \"contracts/HRSLocalArbitrator.sol\":9835:9844  disputeID */\n      sload(0x0a)\n        /* \"contracts/HRSLocalArbitrator.sol\":9821:9831  _disputeID */\n      dup3\n        /* \"contracts/HRSLocalArbitrator.sol\":9821:9844  _disputeID == disputeID */\n      eq\n        /* \"contracts/HRSLocalArbitrator.sol\":9813:9865  require(_disputeID == disputeID, \"Wrong dispute ID\") */\n      tag_378\n      jumpi\n      mload(0x40)\n      0x08c379a000000000000000000000000000000000000000000000000000000000\n      dup2\n      mstore\n      0x04\n      add\n      tag_379\n      swap1\n      tag_380\n      jump\t// in\n    tag_379:\n      mload(0x40)\n      dup1\n      swap2\n      sub\n      swap1\n      revert\n    tag_378:\n        /* \"contracts/HRSLocalArbitrator.sol\":9878:9898  uint256 damageAmount */\n      0x00\n        /* \"contracts/HRSLocalArbitrator.sol\":9909:9923  address winner */\n      dup1\n        /* \"contracts/HRSLocalArbitrator.sol\":9949:9950  1 */\n      0x01\n        /* \"contracts/HRSLocalArbitrator.sol\":9938:9945  _ruling */\n      dup4\n        /* \"contracts/HRSLocalArbitrator.sol\":9938:9950  _ruling == 1 */\n      sub\n        /* \"contracts/HRSLocalArbitrator.sol\":9934:10585  if (_ruling == 1) {... */\n      tag_381\n      jumpi\n        /* \"contracts/HRSLocalArbitrator.sol\":10047:10069  currentSecurityDeposit */\n      sload(0x0b)\n        /* \"contracts/HRSLocalArbitrator.sol\":10030:10044  damageEstimate */\n      sload(0x08)\n        /* \"contracts/HRSLocalArbitrator.sol\":10030:10069  damageEstimate < currentSecurityDeposit */\n      lt\n        /* \"contracts/HRSLocalArbitrator.sol\":10030:10111  damageEstimate < currentSecurityDeposit ? damageEstimate : currentSecurityDeposit */\n      tag_382\n      jumpi\n        /* \"contracts/HRSLocalArbitrator.sol\":10089:10111  currentSecurityDeposit */\n      sload(0x0b)\n        /* \"contracts/HRSLocalArbitrator.sol\":10030:10111  damageEstimate < currentSecurityDeposit ? damageEstimate : currentSecurityDeposit */\n      jump(tag_383)\n    tag_382:\n        /* \"contracts/HRSLocalArbitrator.sol\":10072:10086  damageEstimate */\n      sload(0x08)\n        /* \"contracts/HRSLocalArbitrator.sol\":10030:10111  damageEstimate < currentSecurityDeposit ? damageEstimate : currentSecurityDeposit */\n    tag_383:\n        /* \"contracts/HRSLocalArbitrator.sol\":10015:10111  damageAmount = damageEstimate < currentSecurityDeposit ? damageEstimate : currentSecurityDeposit */\n      swap2\n      pop\n        /* \"contracts/HRSLocalArbitrator.sol\":10135:10143  landlord */\n      0x00\n      dup1\n      sload\n      swap1\n      0x0100\n      exp\n      swap1\n      div\n      0xffffffffffffffffffffffffffffffffffffffff\n      and\n        /* \"contracts/HRSLocalArbitrator.sol\":10126:10143  winner = landlord */\n      swap1\n      pop\n        /* \"contracts/HRSLocalArbitrator.sol\":9934:10585  if (_ruling == 1) {... */\n      jump(tag_384)\n    tag_381:\n        /* \"contracts/HRSLocalArbitrator.sol\":10176:10177  2 */\n      0x02\n        /* \"contracts/HRSLocalArbitrator.sol\":10165:10172  _ruling */\n      dup4\n        /* \"contracts/HRSLocalArbitrator.sol\":10165:10177  _ruling == 2 */\n      sub\n        /* \"contracts/HRSLocalArbitrator.sol\":10161:10585  if (_ruling == 2) {... */\n      tag_385\n      jumpi\n        /* \"contracts/HRSLocalArbitrator.sol\":10279:10301  currentSecurityDeposit */\n      sload(0x0b)\n        /* \"contracts/HRSLocalArbitrator.sol\":10255:10276  renterCounterEstimate */\n      sload(0x09)\n        /* \"contracts/HRSLocalArbitrator.sol\":10255:10301  renterCounterEstimate < currentSecurityDeposit */\n      lt\n        /* \"contracts/HRSLocalArbitrator.sol\":10255:10350  renterCounterEstimate < currentSecurityDeposit ? renterCounterEstimate : currentSecurityDeposit */\n      tag_386\n      jumpi\n        /* \"contracts/HRSLocalArbitrator.sol\":10328:10350  currentSecurityDeposit */\n      sload(0x0b)\n        /* \"contracts/HRSLocalArbitrator.sol\":10255:10350  renterCounterEstimate < currentSecurityDeposit ? renterCounterEstimate : currentSecurityDeposit */\n      jump(tag_387)\n    tag_386:\n        /* \"contracts/HRSLocalArbitrator.sol\":10304:10325  renterCounterEstimate */\n      sload(0x09)\n        /* \"contracts/HRSLocalArbitrator.sol\":10255:10350  renterCounterEstimate < currentSecurityDeposit ? renterCounterEstimate : currentSecurityDeposit */\n    tag_387:\n        /* \"contracts/HRSLocalArbitrator.sol\":10240:10350  damageAmount = renterCounterEstimate < currentSecurityDeposit ? renterCounterEstimate : currentSecurityDeposit */\n      swap2\n      pop\n        /* \"contracts/HRSLocalArbitrator.sol\":10374:10380  renter */\n      0x01\n      0x00\n      swap1\n      sload\n      swap1\n      0x0100\n      exp\n      swap1\n      div\n      0xffffffffffffffffffffffffffffffffffffffff\n      and\n        /* \"contracts/HRSLocalArbitrator.sol\":10365:10380  winner = renter */\n      swap1\n      pop\n        /* \"contracts/HRSLocalArbitrator.sol\":10161:10585  if (_ruling == 2) {... */\n      jump(tag_388)\n    tag_385:\n        /* \"contracts/HRSLocalArbitrator.sol\":10512:10513  2 */\n      0x02\n        /* \"contracts/HRSLocalArbitrator.sol\":10487:10509  currentSecurityDeposit */\n      sload(0x0b)\n        /* \"contracts/HRSLocalArbitrator.sol\":10487:10513  currentSecurityDeposit / 2 */\n      tag_389\n      swap2\n      swap1\n      tag_390\n      jump\t// in\n    tag_389:\n        /* \"contracts/HRSLocalArbitrator.sol\":10472:10513  damageAmount = currentSecurityDeposit / 2 */\n      swap2\n      pop\n        /* \"contracts/HRSLocalArbitrator.sol\":10545:10546  0 */\n      0x00\n        /* \"contracts/HRSLocalArbitrator.sol\":10528:10547  winner = address(0) */\n      swap1\n      pop\n        /* \"contracts/HRSLocalArbitrator.sol\":10161:10585  if (_ruling == 2) {... */\n    tag_388:\n        /* \"contracts/HRSLocalArbitrator.sol\":9934:10585  if (_ruling == 1) {... */\n    tag_384:\n        /* \"contracts/HRSLocalArbitrator.sol\":10673:10685  damageAmount */\n      dup2\n        /* \"contracts/HRSLocalArbitrator.sol\":10641:10659  pendingWithdrawals */\n      0x0f\n        /* \"contracts/HRSLocalArbitrator.sol\":10641:10669  pendingWithdrawals[landlord] */\n      0x00\n        /* \"contracts/HRSLocalArbitrator.sol\":10660:10668  landlord */\n      dup1\n      0x00\n      swap1\n      sload\n      swap1\n      0x0100\n      exp\n      swap1\n      div\n      0xffffffffffffffffffffffffffffffffffffffff\n      and\n        /* \"contracts/HRSLocalArbitrator.sol\":10641:10669  pendingWithdrawals[landlord] */\n      0xffffffffffffffffffffffffffffffffffffffff\n      and\n      0xffffffffffffffffffffffffffffffffffffffff\n      and\n      dup2\n      mstore\n      0x20\n      add\n      swap1\n      dup2\n      mstore\n      0x20\n      add\n      0x00\n      keccak256\n      0x00\n        /* \"contracts/HRSLocalArbitrator.sol\":10641:10685  pendingWithdrawals[landlord] += damageAmount */\n      dup3\n      dup3\n      sload\n      tag_391\n      swap2\n      swap1\n      tag_314\n      jump\t// in\n    tag_391:\n      swap3\n      pop\n      pop\n      dup2\n      swap1\n      sstore\n      pop\n        /* \"contracts/HRSLocalArbitrator.sol\":10752:10764  damageAmount */\n      dup2\n        /* \"contracts/HRSLocalArbitrator.sol\":10727:10749  currentSecurityDeposit */\n      sload(0x0b)\n        /* \"contracts/HRSLocalArbitrator.sol\":10727:10764  currentSecurityDeposit - damageAmount */\n      tag_392\n      swap2\n      swap1\n      tag_251\n      jump\t// in\n    tag_392:\n        /* \"contracts/HRSLocalArbitrator.sol\":10696:10714  pendingWithdrawals */\n      0x0f\n        /* \"contracts/HRSLocalArbitrator.sol\":10696:10722  pendingWithdrawals[renter] */\n      0x00\n        /* \"contracts/HRSLocalArbitrator.sol\":10715:10721  renter */\n      0x01\n      0x00\n      swap1\n      sload\n      swap1\n      0x0100\n      exp\n      swap1\n      div\n      0xffffffffffffffffffffffffffffffffffffffff\n      and\n        /* \"contracts/HRSLocalArbitrator.sol\":10696:10722  pendingWithdrawals[renter] */\n      0xffffffffffffffffffffffffffffffffffffffff\n      and\n      0xffffffffffffffffffffffffffffffffffffffff\n      and\n      dup2\n      mstore\n      0x20\n      add\n      swap1\n      dup2\n      mstore\n      0x20\n      add\n      0x00\n      keccak256\n      0x00\n        /* \"contracts/HRSLocalArbitrator.sol\":10696:10765  pendingWithdrawals[renter] += (currentSecurityDeposit - damageAmount) */\n      dup3\n      dup3\n      sload\n      tag_393\n      swap2\n      swap1\n      tag_314\n      jump\t// in\n    tag_393:\n      swap3\n      pop\n      pop\n      dup2\n      swap1\n      sstore\n      pop\n        /* \"contracts/HRSLocalArbitrator.sol\":10840:10869  uint256 arbitrationCostRefund */\n      0x00\n        /* \"contracts/HRSLocalArbitrator.sol\":10890:10891  2 */\n      0x02\n        /* \"contracts/HRSLocalArbitrator.sol\":10872:10887  arbitrationCost */\n      sload(0x0c)\n        /* \"contracts/HRSLocalArbitrator.sol\":10872:10891  arbitrationCost / 2 */\n      tag_394\n      swap2\n      swap1\n      tag_390\n      jump\t// in\n    tag_394:\n        /* \"contracts/HRSLocalArbitrator.sol\":10840:10891  uint256 arbitrationCostRefund = arbitrationCost / 2 */\n      swap1\n      pop\n        /* \"contracts/HRSLocalArbitrator.sol\":10924:10925  0 */\n      0x00\n        /* \"contracts/HRSLocalArbitrator.sol\":10906:10926  winner != address(0) */\n      0xffffffffffffffffffffffffffffffffffffffff\n      and\n        /* \"contracts/HRSLocalArbitrator.sol\":10906:10912  winner */\n      dup3\n        /* \"contracts/HRSLocalArbitrator.sol\":10906:10926  winner != address(0) */\n      0xffffffffffffffffffffffffffffffffffffffff\n      and\n      eq\n        /* \"contracts/HRSLocalArbitrator.sol\":10902:11219  if (winner != address(0)) {... */\n      tag_395\n      jumpi\n        /* \"contracts/HRSLocalArbitrator.sol\":10973:10994  arbitrationCostRefund */\n      dup1\n        /* \"contracts/HRSLocalArbitrator.sol\":10943:10961  pendingWithdrawals */\n      0x0f\n        /* \"contracts/HRSLocalArbitrator.sol\":10943:10969  pendingWithdrawals[winner] */\n      0x00\n        /* \"contracts/HRSLocalArbitrator.sol\":10962:10968  winner */\n      dup5\n        /* \"contracts/HRSLocalArbitrator.sol\":10943:10969  pendingWithdrawals[winner] */\n      0xffffffffffffffffffffffffffffffffffffffff\n      and\n      0xffffffffffffffffffffffffffffffffffffffff\n      and\n      dup2\n      mstore\n      0x20\n      add\n      swap1\n      dup2\n      mstore\n      0x20\n      add\n      0x00\n      keccak256\n      0x00\n        /* \"contracts/HRSLocalArbitrator.sol\":10943:10994  pendingWithdrawals[winner] += arbitrationCostRefund */\n      dup3\n      dup3\n      sload\n      tag_396\n      swap2\n      swap1\n      tag_314\n      jump\t// in\n    tag_396:\n      swap3\n      pop\n      pop\n      dup2\n      swap1\n      sstore\n      pop\n        /* \"contracts/HRSLocalArbitrator.sol\":10902:11219  if (winner != address(0)) {... */\n      jump(tag_397)\n    tag_395:\n        /* \"contracts/HRSLocalArbitrator.sol\":11136:11137  2 */\n      0x02\n        /* \"contracts/HRSLocalArbitrator.sol\":11112:11133  arbitrationCostRefund */\n      dup2\n        /* \"contracts/HRSLocalArbitrator.sol\":11112:11137  arbitrationCostRefund / 2 */\n      tag_398\n      swap2\n      swap1\n      tag_390\n      jump\t// in\n    tag_398:\n        /* \"contracts/HRSLocalArbitrator.sol\":11080:11098  pendingWithdrawals */\n      0x0f\n        /* \"contracts/HRSLocalArbitrator.sol\":11080:11108  pendingWithdrawals[landlord] */\n      0x00\n        /* \"contracts/HRSLocalArbitrator.sol\":11099:11107  landlord */\n      dup1\n      0x00\n      swap1\n      sload\n      swap1\n      0x0100\n      exp\n      swap1\n      div\n      0xffffffffffffffffffffffffffffffffffffffff\n      and\n        /* \"contracts/HRSLocalArbitrator.sol\":11080:11108  pendingWithdrawals[landlord] */\n      0xffffffffffffffffffffffffffffffffffffffff\n      and\n      0xffffffffffffffffffffffffffffffffffffffff\n      and\n      dup2\n      mstore\n      0x20\n      add\n      swap1\n      dup2\n      mstore\n      0x20\n      add\n      0x00\n      keccak256\n      0x00\n        /* \"contracts/HRSLocalArbitrator.sol\":11080:11137  pendingWithdrawals[landlord] += arbitrationCostRefund / 2 */\n      dup3\n      dup3\n      sload\n      tag_399\n      swap2\n      swap1\n      tag_314\n      jump\t// in\n    tag_399:\n      swap3\n      pop\n      pop\n      dup2\n      swap1\n      sstore\n      pop\n        /* \"contracts/HRSLocalArbitrator.sol\":11206:11207  2 */\n      0x02\n        /* \"contracts/HRSLocalArbitrator.sol\":11182:11203  arbitrationCostRefund */\n      dup2\n        /* \"contracts/HRSLocalArbitrator.sol\":11182:11207  arbitrationCostRefund / 2 */\n      tag_400\n      swap2\n      swap1\n      tag_390\n      jump\t// in\n    tag_400:\n        /* \"contracts/HRSLocalArbitrator.sol\":11152:11170  pendingWithdrawals */\n      0x0f\n        /* \"contracts/HRSLocalArbitrator.sol\":11152:11178  pendingWithdrawals[renter] */\n      0x00\n        /* \"contracts/HRSLocalArbitrator.sol\":11171:11177  renter */\n      0x01\n      0x00\n      swap1\n      sload\n      swap1\n      0x0100\n      exp\n      swap1\n      div\n      0xffffffffffffffffffffffffffffffffffffffff\n      and\n        /* \"contracts/HRSLocalArbitrator.sol\":11152:11178  pendingWithdrawals[renter] */\n      0xffffffffffffffffffffffffffffffffffffffff\n      and\n      0xffffffffffffffffffffffffffffffffffffffff\n      and\n      dup2\n      mstore\n      0x20\n      add\n      swap1\n      dup2\n      mstore\n      0x20\n      add\n      0x00\n      keccak256\n      0x00\n        /* \"contracts/HRSLocalArbitrator.sol\":11152:11207  pendingWithdrawals[renter] += arbitrationCostRefund / 2 */\n      dup3\n      dup3\n      sload\n      tag_401\n      swap2\n      swap1\n      tag_314\n      jump\t// in\n    tag_401:\n      swap3\n      pop\n      pop\n      dup2\n      swap1\n      sstore\n      pop\n        /* \"contracts/HRSLocalArbitrator.sol\":10902:11219  if (winner != address(0)) {... */\n    tag_397:\n        /* \"contracts/HRSLocalArbitrator.sol\":11324:11336  bool success */\n      0x00\n        /* \"contracts/HRSLocalArbitrator.sol\":11350:11360  arbitrator */\n      0x0d\n      0x06\n      swap1\n      sload\n      swap1\n      0x0100\n      exp\n      swap1\n      div\n      0xffffffffffffffffffffffffffffffffffffffff\n      and\n        /* \"contracts/HRSLocalArbitrator.sol\":11342:11366  address(arbitrator).call */\n      0xffffffffffffffffffffffffffffffffffffffff\n      and\n        /* \"contracts/HRSLocalArbitrator.sol\":11374:11395  arbitrationCostRefund */\n      dup3\n        /* \"contracts/HRSLocalArbitrator.sol\":11342:11400  address(arbitrator).call{value: arbitrationCostRefund}(\"\") */\n      mload(0x40)\n      tag_402\n      swap1\n      tag_263\n      jump\t// in\n    tag_402:\n      0x00\n      mload(0x40)\n      dup1\n      dup4\n      sub\n      dup2\n      dup6\n      dup8\n      gas\n      call\n      swap3\n      pop\n      pop\n      pop\n      returndatasize\n      dup1\n      0x00\n      dup2\n      eq\n      tag_405\n      jumpi\n      mload(0x40)\n      swap2\n      pop\n      and(add(returndatasize, 0x3f), not(0x1f))\n      dup3\n      add\n      0x40\n      mstore\n      returndatasize\n      dup3\n      mstore\n      returndatasize\n      0x00\n      0x20\n      dup5\n      add\n      returndatacopy\n      jump(tag_404)\n    tag_405:\n      0x60\n      swap2\n      pop\n    tag_404:\n      pop\n        /* \"contracts/HRSLocalArbitrator.sol\":11323:11400  (bool success, ) = address(arbitrator).call{value: arbitrationCostRefund}(\"\") */\n      pop\n      swap1\n      pop\n        /* \"contracts/HRSLocalArbitrator.sol\":11419:11426  success */\n      dup1\n        /* \"contracts/HRSLocalArbitrator.sol\":11411:11479  require(success, \"Failed to transfer arbitration fee to arbitrator\") */\n      tag_406\n      jumpi\n      mload(0x40)\n      0x08c379a000000000000000000000000000000000000000000000000000000000\n      dup2\n      mstore\n      0x04\n      add\n      tag_407\n      swap1\n      tag_408\n      jump\t// in\n    tag_407:\n      mload(0x40)\n      dup1\n      swap2\n      sub\n      swap1\n      revert\n    tag_406:\n        /* \"contracts/HRSLocalArbitrator.sol\":11508:11513  false */\n      0x00\n        /* \"contracts/HRSLocalArbitrator.sol\":11492:11505  disputeRaised */\n      0x0d\n      0x02\n        /* \"contracts/HRSLocalArbitrator.sol\":11492:11513  disputeRaised = false */\n      0x0100\n      exp\n      dup2\n      sload\n      dup2\n      0xff\n      mul\n      not\n      and\n      swap1\n      dup4\n      iszero\n      iszero\n      mul\n      or\n      swap1\n      sstore\n      pop\n        /* \"contracts/HRSLocalArbitrator.sol\":11529:11565  DisputeResolved(_disputeID, _ruling) */\n      0xb4121f1f91a696a3fc75f6d151f3c9865abffa0738bda595e71c381c02af2faa\n        /* \"contracts/HRSLocalArbitrator.sol\":11545:11555  _disputeID */\n      dup7\n        /* \"contracts/HRSLocalArbitrator.sol\":11557:11564  _ruling */\n      dup7\n        /* \"contracts/HRSLocalArbitrator.sol\":11529:11565  DisputeResolved(_disputeID, _ruling) */\n      mload(0x40)\n      tag_409\n      swap3\n      swap2\n      swap1\n      tag_253\n      jump\t// in\n    tag_409:\n      mload(0x40)\n      dup1\n      swap2\n      sub\n      swap1\n      log1\n        /* \"contracts/HRSLocalArbitrator.sol\":11576:11589  endContract() */\n      tag_410\n        /* \"contracts/HRSLocalArbitrator.sol\":11576:11587  endContract */\n      tag_411\n        /* \"contracts/HRSLocalArbitrator.sol\":11576:11589  endContract() */\n      jump\t// in\n    tag_410:\n        /* \"contracts/HRSLocalArbitrator.sol\":9649:11597  {... */\n      pop\n      pop\n      pop\n      pop\n        /* \"contracts/HRSLocalArbitrator.sol\":9580:11597  function executeRuling(uint256 _disputeID, uint256 _ruling) external {... */\n      pop\n      pop\n      jump\t// out\n        /* \"contracts/HRSLocalArbitrator.sol\":316:339  address public landlord */\n    tag_191:\n      0x00\n      dup1\n      sload\n      swap1\n      0x0100\n      exp\n      swap1\n      div\n      0xffffffffffffffffffffffffffffffffffffffff\n      and\n      dup2\n      jump\t// out\n        /* \"contracts/HRSLocalArbitrator.sol\":7526:7772  function rejectLandlordEstimate() external {... */\n    tag_195:\n        /* \"contracts/HRSLocalArbitrator.sol\":7602:7608  renter */\n      0x01\n      0x00\n      swap1\n      sload\n      swap1\n      0x0100\n      exp\n      swap1\n      div\n      0xffffffffffffffffffffffffffffffffffffffff\n      and\n        /* \"contracts/HRSLocalArbitrator.sol\":7588:7608  msg.sender == renter */\n      0xffffffffffffffffffffffffffffffffffffffff\n      and\n        /* \"contracts/HRSLocalArbitrator.sol\":7588:7598  msg.sender */\n      caller\n        /* \"contracts/HRSLocalArbitrator.sol\":7588:7608  msg.sender == renter */\n      0xffffffffffffffffffffffffffffffffffffffff\n      and\n      eq\n        /* \"contracts/HRSLocalArbitrator.sol\":7580:7648  require(msg.sender == renter, \"Only renter can reject the estimate\") */\n      tag_413\n      jumpi\n      mload(0x40)\n      0x08c379a000000000000000000000000000000000000000000000000000000000\n      dup2\n      mstore\n      0x04\n      add\n      tag_414\n      swap1\n      tag_415\n      jump\t// in\n    tag_414:\n      mload(0x40)\n      dup1\n      swap2\n      sub\n      swap1\n      revert\n    tag_413:\n        /* \"contracts/HRSLocalArbitrator.sol\":7667:7686  landlordEstimateSet */\n      0x0d\n      0x04\n      swap1\n      sload\n      swap1\n      0x0100\n      exp\n      swap1\n      div\n      0xff\n      and\n        /* \"contracts/HRSLocalArbitrator.sol\":7659:7730  require(landlordEstimateSet, \"Landlord must set damage estimate first\") */\n      tag_416\n      jumpi\n      mload(0x40)\n      0x08c379a000000000000000000000000000000000000000000000000000000000\n      dup2\n      mstore\n      0x04\n      add\n      tag_417\n      swap1\n      tag_342\n      jump\t// in\n    tag_417:\n      mload(0x40)\n      dup1\n      swap2\n      sub\n      swap1\n      revert\n    tag_416:\n        /* \"contracts/HRSLocalArbitrator.sol\":7746:7764  EstimateRejected() */\n      0x214f96452fc3fdfd5eeafda7f5df5b6066f4f8ac1295fb53cd051491b9b56da3\n      mload(0x40)\n      mload(0x40)\n      dup1\n      swap2\n      sub\n      swap1\n      log1\n        /* \"contracts/HRSLocalArbitrator.sol\":7526:7772  function rejectLandlordEstimate() external {... */\n      jump\t// out\n        /* \"contracts/HRSLocalArbitrator.sol\":6891:7518  function acceptLandlordEstimate() external {... */\n    tag_198:\n        /* \"contracts/HRSLocalArbitrator.sol\":6967:6973  renter */\n      0x01\n      0x00\n      swap1\n      sload\n      swap1\n      0x0100\n      exp\n      swap1\n      div\n      0xffffffffffffffffffffffffffffffffffffffff\n      and\n        /* \"contracts/HRSLocalArbitrator.sol\":6953:6973  msg.sender == renter */\n      0xffffffffffffffffffffffffffffffffffffffff\n      and\n        /* \"contracts/HRSLocalArbitrator.sol\":6953:6963  msg.sender */\n      caller\n        /* \"contracts/HRSLocalArbitrator.sol\":6953:6973  msg.sender == renter */\n      0xffffffffffffffffffffffffffffffffffffffff\n      and\n      eq\n        /* \"contracts/HRSLocalArbitrator.sol\":6945:7013  require(msg.sender == renter, \"Only renter can accept the estimate\") */\n      tag_419\n      jumpi\n      mload(0x40)\n      0x08c379a000000000000000000000000000000000000000000000000000000000\n      dup2\n      mstore\n      0x04\n      add\n      tag_420\n      swap1\n      tag_421\n      jump\t// in\n    tag_420:\n      mload(0x40)\n      dup1\n      swap2\n      sub\n      swap1\n      revert\n    tag_419:\n        /* \"contracts/HRSLocalArbitrator.sol\":7032:7051  landlordEstimateSet */\n      0x0d\n      0x04\n      swap1\n      sload\n      swap1\n      0x0100\n      exp\n      swap1\n      div\n      0xff\n      and\n        /* \"contracts/HRSLocalArbitrator.sol\":7024:7095  require(landlordEstimateSet, \"Landlord must set damage estimate first\") */\n      tag_422\n      jumpi\n      mload(0x40)\n      0x08c379a000000000000000000000000000000000000000000000000000000000\n      dup2\n      mstore\n      0x04\n      add\n      tag_423\n      swap1\n      tag_342\n      jump\t// in\n    tag_423:\n      mload(0x40)\n      dup1\n      swap2\n      sub\n      swap1\n      revert\n    tag_422:\n        /* \"contracts/HRSLocalArbitrator.sol\":7106:7126  uint256 damageAmount */\n      0x00\n        /* \"contracts/HRSLocalArbitrator.sol\":7146:7168  currentSecurityDeposit */\n      sload(0x0b)\n        /* \"contracts/HRSLocalArbitrator.sol\":7129:7143  damageEstimate */\n      sload(0x08)\n        /* \"contracts/HRSLocalArbitrator.sol\":7129:7168  damageEstimate < currentSecurityDeposit */\n      lt\n        /* \"contracts/HRSLocalArbitrator.sol\":7129:7210  damageEstimate < currentSecurityDeposit ? damageEstimate : currentSecurityDeposit */\n      tag_424\n      jumpi\n        /* \"contracts/HRSLocalArbitrator.sol\":7188:7210  currentSecurityDeposit */\n      sload(0x0b)\n        /* \"contracts/HRSLocalArbitrator.sol\":7129:7210  damageEstimate < currentSecurityDeposit ? damageEstimate : currentSecurityDeposit */\n      jump(tag_425)\n    tag_424:\n        /* \"contracts/HRSLocalArbitrator.sol\":7171:7185  damageEstimate */\n      sload(0x08)\n        /* \"contracts/HRSLocalArbitrator.sol\":7129:7210  damageEstimate < currentSecurityDeposit ? damageEstimate : currentSecurityDeposit */\n    tag_425:\n        /* \"contracts/HRSLocalArbitrator.sol\":7106:7210  uint256 damageAmount = damageEstimate < currentSecurityDeposit ? damageEstimate : currentSecurityDeposit */\n      swap1\n      pop\n        /* \"contracts/HRSLocalArbitrator.sol\":7253:7265  damageAmount */\n      dup1\n        /* \"contracts/HRSLocalArbitrator.sol\":7221:7239  pendingWithdrawals */\n      0x0f\n        /* \"contracts/HRSLocalArbitrator.sol\":7221:7249  pendingWithdrawals[landlord] */\n      0x00\n        /* \"contracts/HRSLocalArbitrator.sol\":7240:7248  landlord */\n      dup1\n      0x00\n      swap1\n      sload\n      swap1\n      0x0100\n      exp\n      swap1\n      div\n      0xffffffffffffffffffffffffffffffffffffffff\n      and\n        /* \"contracts/HRSLocalArbitrator.sol\":7221:7249  pendingWithdrawals[landlord] */\n      0xffffffffffffffffffffffffffffffffffffffff\n      and\n      0xffffffffffffffffffffffffffffffffffffffff\n      and\n      dup2\n      mstore\n      0x20\n      add\n      swap1\n      dup2\n      mstore\n      0x20\n      add\n      0x00\n      keccak256\n      0x00\n        /* \"contracts/HRSLocalArbitrator.sol\":7221:7265  pendingWithdrawals[landlord] += damageAmount */\n      dup3\n      dup3\n      sload\n      tag_426\n      swap2\n      swap1\n      tag_314\n      jump\t// in\n    tag_426:\n      swap3\n      pop\n      pop\n      dup2\n      swap1\n      sstore\n      pop\n        /* \"contracts/HRSLocalArbitrator.sol\":7332:7344  damageAmount */\n      dup1\n        /* \"contracts/HRSLocalArbitrator.sol\":7307:7329  currentSecurityDeposit */\n      sload(0x0b)\n        /* \"contracts/HRSLocalArbitrator.sol\":7307:7344  currentSecurityDeposit - damageAmount */\n      tag_427\n      swap2\n      swap1\n      tag_251\n      jump\t// in\n    tag_427:\n        /* \"contracts/HRSLocalArbitrator.sol\":7276:7294  pendingWithdrawals */\n      0x0f\n        /* \"contracts/HRSLocalArbitrator.sol\":7276:7302  pendingWithdrawals[renter] */\n      0x00\n        /* \"contracts/HRSLocalArbitrator.sol\":7295:7301  renter */\n      0x01\n      0x00\n      swap1\n      sload\n      swap1\n      0x0100\n      exp\n      swap1\n      div\n      0xffffffffffffffffffffffffffffffffffffffff\n      and\n        /* \"contracts/HRSLocalArbitrator.sol\":7276:7302  pendingWithdrawals[renter] */\n      0xffffffffffffffffffffffffffffffffffffffff\n      and\n      0xffffffffffffffffffffffffffffffffffffffff\n      and\n      dup2\n      mstore\n      0x20\n      add\n      swap1\n      dup2\n      mstore\n      0x20\n      add\n      0x00\n      keccak256\n      0x00\n        /* \"contracts/HRSLocalArbitrator.sol\":7276:7345  pendingWithdrawals[renter] += (currentSecurityDeposit - damageAmount) */\n      dup3\n      dup3\n      sload\n      tag_428\n      swap2\n      swap1\n      tag_314\n      jump\t// in\n    tag_428:\n      swap3\n      pop\n      pop\n      dup2\n      swap1\n      sstore\n      pop\n        /* \"contracts/HRSLocalArbitrator.sol\":7381:7389  landlord */\n      0x00\n      dup1\n      sload\n      swap1\n      0x0100\n      exp\n      swap1\n      div\n      0xffffffffffffffffffffffffffffffffffffffff\n      and\n        /* \"contracts/HRSLocalArbitrator.sol\":7361:7404  WithdrawalRequested(landlord, damageAmount) */\n      0xffffffffffffffffffffffffffffffffffffffff\n      and\n      0xe670e4e82118d22a1f9ee18920455ebc958bae26a90a05d31d3378788b1b0e44\n        /* \"contracts/HRSLocalArbitrator.sol\":7391:7403  damageAmount */\n      dup3\n        /* \"contracts/HRSLocalArbitrator.sol\":7361:7404  WithdrawalRequested(landlord, damageAmount) */\n      mload(0x40)\n      tag_429\n      swap2\n      swap1\n      tag_63\n      jump\t// in\n    tag_429:\n      mload(0x40)\n      dup1\n      swap2\n      sub\n      swap1\n      log2\n        /* \"contracts/HRSLocalArbitrator.sol\":7440:7446  renter */\n      0x01\n      0x00\n      swap1\n      sload\n      swap1\n      0x0100\n      exp\n      swap1\n      div\n      0xffffffffffffffffffffffffffffffffffffffff\n      and\n        /* \"contracts/HRSLocalArbitrator.sol\":7420:7486  WithdrawalRequested(renter, currentSecurityDeposit - damageAmount) */\n      0xffffffffffffffffffffffffffffffffffffffff\n      and\n      0xe670e4e82118d22a1f9ee18920455ebc958bae26a90a05d31d3378788b1b0e44\n        /* \"contracts/HRSLocalArbitrator.sol\":7473:7485  damageAmount */\n      dup3\n        /* \"contracts/HRSLocalArbitrator.sol\":7448:7470  currentSecurityDeposit */\n      sload(0x0b)\n        /* \"contracts/HRSLocalArbitrator.sol\":7448:7485  currentSecurityDeposit - damageAmount */\n      tag_430\n      swap2\n      swap1\n      tag_251\n      jump\t// in\n    tag_430:\n        /* \"contracts/HRSLocalArbitrator.sol\":7420:7486  WithdrawalRequested(renter, currentSecurityDeposit - damageAmount) */\n      mload(0x40)\n      tag_431\n      swap2\n      swap1\n      tag_63\n      jump\t// in\n    tag_431:\n      mload(0x40)\n      dup1\n      swap2\n      sub\n      swap1\n      log2\n        /* \"contracts/HRSLocalArbitrator.sol\":7497:7510  endContract() */\n      tag_432\n        /* \"contracts/HRSLocalArbitrator.sol\":7497:7508  endContract */\n      tag_411\n        /* \"contracts/HRSLocalArbitrator.sol\":7497:7510  endContract() */\n      jump\t// in\n    tag_432:\n        /* \"contracts/HRSLocalArbitrator.sol\":6934:7518  {... */\n      pop\n        /* \"contracts/HRSLocalArbitrator.sol\":6891:7518  function acceptLandlordEstimate() external {... */\n      jump\t// out\n        /* \"contracts/HRSLocalArbitrator.sol\":1163:1214  mapping(uint256 => MonthlyRent) public monthlyRents */\n    tag_202:\n      mstore(0x20, 0x0e)\n      dup1\n      0x00\n      mstore\n      keccak256(0x00, 0x40)\n      0x00\n      swap2\n      pop\n      swap1\n      pop\n      dup1\n      0x00\n      add\n      sload\n      swap1\n      dup1\n      0x01\n      add\n      sload\n      swap1\n      dup1\n      0x02\n      add\n      sload\n      swap1\n      dup1\n      0x03\n      add\n      0x00\n      swap1\n      sload\n      swap1\n      0x0100\n      exp\n      swap1\n      div\n      0xff\n      and\n      swap1\n      pop\n      dup5\n      jump\t// out\n        /* \"contracts/HRSLocalArbitrator.sol\":8194:8856  function acceptRenterCounterEstimate() external {... */\n    tag_207:\n        /* \"contracts/HRSLocalArbitrator.sol\":8275:8283  landlord */\n      0x00\n      dup1\n      sload\n      swap1\n      0x0100\n      exp\n      swap1\n      div\n      0xffffffffffffffffffffffffffffffffffffffff\n      and\n        /* \"contracts/HRSLocalArbitrator.sol\":8261:8283  msg.sender == landlord */\n      0xffffffffffffffffffffffffffffffffffffffff\n      and\n        /* \"contracts/HRSLocalArbitrator.sol\":8261:8271  msg.sender */\n      caller\n        /* \"contracts/HRSLocalArbitrator.sol\":8261:8283  msg.sender == landlord */\n      0xffffffffffffffffffffffffffffffffffffffff\n      and\n      eq\n        /* \"contracts/HRSLocalArbitrator.sol\":8253:8333  require(msg.sender == landlord, \"Only landlord can accept the counter estimate\") */\n      tag_434\n      jumpi\n      mload(0x40)\n      0x08c379a000000000000000000000000000000000000000000000000000000000\n      dup2\n      mstore\n      0x04\n      add\n      tag_435\n      swap1\n      tag_436\n      jump\t// in\n    tag_435:\n      mload(0x40)\n      dup1\n      swap2\n      sub\n      swap1\n      revert\n    tag_434:\n        /* \"contracts/HRSLocalArbitrator.sol\":8352:8376  renterCounterEstimateSet */\n      0x0d\n      0x05\n      swap1\n      sload\n      swap1\n      0x0100\n      exp\n      swap1\n      div\n      0xff\n      and\n        /* \"contracts/HRSLocalArbitrator.sol\":8344:8419  require(renterCounterEstimateSet, \"Renter must set counter estimate first\") */\n      tag_437\n      jumpi\n      mload(0x40)\n      0x08c379a000000000000000000000000000000000000000000000000000000000\n      dup2\n      mstore\n      0x04\n      add\n      tag_438\n      swap1\n      tag_242\n      jump\t// in\n    tag_438:\n      mload(0x40)\n      dup1\n      swap2\n      sub\n      swap1\n      revert\n    tag_437:\n        /* \"contracts/HRSLocalArbitrator.sol\":8430:8450  uint256 damageAmount */\n      0x00\n        /* \"contracts/HRSLocalArbitrator.sol\":8477:8499  currentSecurityDeposit */\n      sload(0x0b)\n        /* \"contracts/HRSLocalArbitrator.sol\":8453:8474  renterCounterEstimate */\n      sload(0x09)\n        /* \"contracts/HRSLocalArbitrator.sol\":8453:8499  renterCounterEstimate < currentSecurityDeposit */\n      lt\n        /* \"contracts/HRSLocalArbitrator.sol\":8453:8548  renterCounterEstimate < currentSecurityDeposit ? renterCounterEstimate : currentSecurityDeposit */\n      tag_439\n      jumpi\n        /* \"contracts/HRSLocalArbitrator.sol\":8526:8548  currentSecurityDeposit */\n      sload(0x0b)\n        /* \"contracts/HRSLocalArbitrator.sol\":8453:8548  renterCounterEstimate < currentSecurityDeposit ? renterCounterEstimate : currentSecurityDeposit */\n      jump(tag_440)\n    tag_439:\n        /* \"contracts/HRSLocalArbitrator.sol\":8502:8523  renterCounterEstimate */\n      sload(0x09)\n        /* \"contracts/HRSLocalArbitrator.sol\":8453:8548  renterCounterEstimate < currentSecurityDeposit ? renterCounterEstimate : currentSecurityDeposit */\n    tag_440:\n        /* \"contracts/HRSLocalArbitrator.sol\":8430:8548  uint256 damageAmount = renterCounterEstimate < currentSecurityDeposit ? renterCounterEstimate : currentSecurityDeposit */\n      swap1\n      pop\n        /* \"contracts/HRSLocalArbitrator.sol\":8591:8603  damageAmount */\n      dup1\n        /* \"contracts/HRSLocalArbitrator.sol\":8559:8577  pendingWithdrawals */\n      0x0f\n        /* \"contracts/HRSLocalArbitrator.sol\":8559:8587  pendingWithdrawals[landlord] */\n      0x00\n        /* \"contracts/HRSLocalArbitrator.sol\":8578:8586  landlord */\n      dup1\n      0x00\n      swap1\n      sload\n      swap1\n      0x0100\n      exp\n      swap1\n      div\n      0xffffffffffffffffffffffffffffffffffffffff\n      and\n        /* \"contracts/HRSLocalArbitrator.sol\":8559:8587  pendingWithdrawals[landlord] */\n      0xffffffffffffffffffffffffffffffffffffffff\n      and\n      0xffffffffffffffffffffffffffffffffffffffff\n      and\n      dup2\n      mstore\n      0x20\n      add\n      swap1\n      dup2\n      mstore\n      0x20\n      add\n      0x00\n      keccak256\n      0x00\n        /* \"contracts/HRSLocalArbitrator.sol\":8559:8603  pendingWithdrawals[landlord] += damageAmount */\n      dup3\n      dup3\n      sload\n      tag_441\n      swap2\n      swap1\n      tag_314\n      jump\t// in\n    tag_441:\n      swap3\n      pop\n      pop\n      dup2\n      swap1\n      sstore\n      pop\n        /* \"contracts/HRSLocalArbitrator.sol\":8670:8682  damageAmount */\n      dup1\n        /* \"contracts/HRSLocalArbitrator.sol\":8645:8667  currentSecurityDeposit */\n      sload(0x0b)\n        /* \"contracts/HRSLocalArbitrator.sol\":8645:8682  currentSecurityDeposit - damageAmount */\n      tag_442\n      swap2\n      swap1\n      tag_251\n      jump\t// in\n    tag_442:\n        /* \"contracts/HRSLocalArbitrator.sol\":8614:8632  pendingWithdrawals */\n      0x0f\n        /* \"contracts/HRSLocalArbitrator.sol\":8614:8640  pendingWithdrawals[renter] */\n      0x00\n        /* \"contracts/HRSLocalArbitrator.sol\":8633:8639  renter */\n      0x01\n      0x00\n      swap1\n      sload\n      swap1\n      0x0100\n      exp\n      swap1\n      div\n      0xffffffffffffffffffffffffffffffffffffffff\n      and\n        /* \"contracts/HRSLocalArbitrator.sol\":8614:8640  pendingWithdrawals[renter] */\n      0xffffffffffffffffffffffffffffffffffffffff\n      and\n      0xffffffffffffffffffffffffffffffffffffffff\n      and\n      dup2\n      mstore\n      0x20\n      add\n      swap1\n      dup2\n      mstore\n      0x20\n      add\n      0x00\n      keccak256\n      0x00\n        /* \"contracts/HRSLocalArbitrator.sol\":8614:8683  pendingWithdrawals[renter] += (currentSecurityDeposit - damageAmount) */\n      dup3\n      dup3\n      sload\n      tag_443\n      swap2\n      swap1\n      tag_314\n      jump\t// in\n    tag_443:\n      swap3\n      pop\n      pop\n      dup2\n      swap1\n      sstore\n      pop\n        /* \"contracts/HRSLocalArbitrator.sol\":8719:8727  landlord */\n      0x00\n      dup1\n      sload\n      swap1\n      0x0100\n      exp\n      swap1\n      div\n      0xffffffffffffffffffffffffffffffffffffffff\n      and\n        /* \"contracts/HRSLocalArbitrator.sol\":8699:8742  WithdrawalRequested(landlord, damageAmount) */\n      0xffffffffffffffffffffffffffffffffffffffff\n      and\n      0xe670e4e82118d22a1f9ee18920455ebc958bae26a90a05d31d3378788b1b0e44\n        /* \"contracts/HRSLocalArbitrator.sol\":8729:8741  damageAmount */\n      dup3\n        /* \"contracts/HRSLocalArbitrator.sol\":8699:8742  WithdrawalRequested(landlord, damageAmount) */\n      mload(0x40)\n      tag_444\n      swap2\n      swap1\n      tag_63\n      jump\t// in\n    tag_444:\n      mload(0x40)\n      dup1\n      swap2\n      sub\n      swap1\n      log2\n        /* \"contracts/HRSLocalArbitrator.sol\":8778:8784  renter */\n      0x01\n      0x00\n      swap1\n      sload\n      swap1\n      0x0100\n      exp\n      swap1\n      div\n      0xffffffffffffffffffffffffffffffffffffffff\n      and\n        /* \"contracts/HRSLocalArbitrator.sol\":8758:8824  WithdrawalRequested(renter, currentSecurityDeposit - damageAmount) */\n      0xffffffffffffffffffffffffffffffffffffffff\n      and\n      0xe670e4e82118d22a1f9ee18920455ebc958bae26a90a05d31d3378788b1b0e44\n        /* \"contracts/HRSLocalArbitrator.sol\":8811:8823  damageAmount */\n      dup3\n        /* \"contracts/HRSLocalArbitrator.sol\":8786:8808  currentSecurityDeposit */\n      sload(0x0b)\n        /* \"contracts/HRSLocalArbitrator.sol\":8786:8823  currentSecurityDeposit - damageAmount */\n      tag_445\n      swap2\n      swap1\n      tag_251\n      jump\t// in\n    tag_445:\n        /* \"contracts/HRSLocalArbitrator.sol\":8758:8824  WithdrawalRequested(renter, currentSecurityDeposit - damageAmount) */\n      mload(0x40)\n      tag_446\n      swap2\n      swap1\n      tag_63\n      jump\t// in\n    tag_446:\n      mload(0x40)\n      dup1\n      swap2\n      sub\n      swap1\n      log2\n        /* \"contracts/HRSLocalArbitrator.sol\":8835:8848  endContract() */\n      tag_447\n        /* \"contracts/HRSLocalArbitrator.sol\":8835:8846  endContract */\n      tag_411\n        /* \"contracts/HRSLocalArbitrator.sol\":8835:8848  endContract() */\n      jump\t// in\n    tag_447:\n        /* \"contracts/HRSLocalArbitrator.sol\":8242:8856  {... */\n      pop\n        /* \"contracts/HRSLocalArbitrator.sol\":8194:8856  function acceptRenterCounterEstimate() external {... */\n      jump\t// out\n        /* \"contracts/HRSLocalArbitrator.sol\":797:830  bool public isSecurityDepositPaid */\n    tag_210:\n      0x0d\n      0x01\n      swap1\n      sload\n      swap1\n      0x0100\n      exp\n      swap1\n      div\n      0xff\n      and\n      dup2\n      jump\t// out\n        /* \"contracts/HRSLocalArbitrator.sol\":1221:1274  mapping(address => uint256) public pendingWithdrawals */\n    tag_216:\n      mstore(0x20, 0x0f)\n      dup1\n      0x00\n      mstore\n      keccak256(0x00, 0x40)\n      0x00\n      swap2\n      pop\n      swap1\n      pop\n      sload\n      dup2\n      jump\t// out\n        /* \"contracts/HRSLocalArbitrator.sol\":11979:12095  function getLandlordBalance() external view returns (uint256) {... */\n    tag_220:\n        /* \"contracts/HRSLocalArbitrator.sol\":12032:12039  uint256 */\n      0x00\n        /* \"contracts/HRSLocalArbitrator.sol\":12059:12077  pendingWithdrawals */\n      0x0f\n        /* \"contracts/HRSLocalArbitrator.sol\":12059:12087  pendingWithdrawals[landlord] */\n      0x00\n        /* \"contracts/HRSLocalArbitrator.sol\":12078:12086  landlord */\n      dup1\n      0x00\n      swap1\n      sload\n      swap1\n      0x0100\n      exp\n      swap1\n      div\n      0xffffffffffffffffffffffffffffffffffffffff\n      and\n        /* \"contracts/HRSLocalArbitrator.sol\":12059:12087  pendingWithdrawals[landlord] */\n      0xffffffffffffffffffffffffffffffffffffffff\n      and\n      0xffffffffffffffffffffffffffffffffffffffff\n      and\n      dup2\n      mstore\n      0x20\n      add\n      swap1\n      dup2\n      mstore\n      0x20\n      add\n      0x00\n      keccak256\n      sload\n        /* \"contracts/HRSLocalArbitrator.sol\":12052:12087  return pendingWithdrawals[landlord] */\n      swap1\n      pop\n        /* \"contracts/HRSLocalArbitrator.sol\":11979:12095  function getLandlordBalance() external view returns (uint256) {... */\n      swap1\n      jump\t// out\n        /* \"contracts/HRSLocalArbitrator.sol\":12223:13369  function endContract() private {... */\n    tag_411:\n        /* \"contracts/HRSLocalArbitrator.sol\":12273:12281  isActive */\n      0x0d\n      0x00\n      swap1\n      sload\n      swap1\n      0x0100\n      exp\n      swap1\n      div\n      0xff\n      and\n        /* \"contracts/HRSLocalArbitrator.sol\":12265:12308  require(isActive, \"Contract is not active\") */\n      tag_450\n      jumpi\n      mload(0x40)\n      0x08c379a000000000000000000000000000000000000000000000000000000000\n      dup2\n      mstore\n      0x04\n      add\n      tag_451\n      swap1\n      tag_234\n      jump\t// in\n    tag_451:\n      mload(0x40)\n      dup1\n      swap2\n      sub\n      swap1\n      revert\n    tag_450:\n        /* \"contracts/HRSLocalArbitrator.sol\":12327:12344  rentalPeriodEnded */\n      0x0d\n      0x03\n      swap1\n      sload\n      swap1\n      0x0100\n      exp\n      swap1\n      div\n      0xff\n      and\n        /* \"contracts/HRSLocalArbitrator.sol\":12319:12380  require(rentalPeriodEnded, \"Rental period has not ended yet\") */\n      tag_452\n      jumpi\n      mload(0x40)\n      0x08c379a000000000000000000000000000000000000000000000000000000000\n      dup2\n      mstore\n      0x04\n      add\n      tag_453\n      swap1\n      tag_454\n      jump\t// in\n    tag_453:\n      mload(0x40)\n      dup1\n      swap2\n      sub\n      swap1\n      revert\n    tag_452:\n        /* \"contracts/HRSLocalArbitrator.sol\":12400:12413  disputeRaised */\n      0x0d\n      0x02\n      swap1\n      sload\n      swap1\n      0x0100\n      exp\n      swap1\n      div\n      0xff\n      and\n        /* \"contracts/HRSLocalArbitrator.sol\":12399:12413  !disputeRaised */\n      iszero\n        /* \"contracts/HRSLocalArbitrator.sol\":12391:12462  require(!disputeRaised, \"Cannot end contract while dispute is ongoing\") */\n      tag_455\n      jumpi\n      mload(0x40)\n      0x08c379a000000000000000000000000000000000000000000000000000000000\n      dup2\n      mstore\n      0x04\n      add\n      tag_456\n      swap1\n      tag_457\n      jump\t// in\n    tag_456:\n      mload(0x40)\n      dup1\n      swap2\n      sub\n      swap1\n      revert\n    tag_455:\n        /* \"contracts/HRSLocalArbitrator.sol\":12486:12491  false */\n      0x00\n        /* \"contracts/HRSLocalArbitrator.sol\":12475:12483  isActive */\n      0x0d\n      0x00\n        /* \"contracts/HRSLocalArbitrator.sol\":12475:12491  isActive = false */\n      0x0100\n      exp\n      dup2\n      sload\n      dup2\n      0xff\n      mul\n      not\n      and\n      swap1\n      dup4\n      iszero\n      iszero\n      mul\n      or\n      swap1\n      sstore\n      pop\n        /* \"contracts/HRSLocalArbitrator.sol\":12502:12519  uint256 dueAmount */\n      0x00\n        /* \"contracts/HRSLocalArbitrator.sol\":12522:12529  dueRent */\n      sload(0x07)\n        /* \"contracts/HRSLocalArbitrator.sol\":12502:12529  uint256 dueAmount = dueRent */\n      swap1\n      pop\n        /* \"contracts/HRSLocalArbitrator.sol\":12540:12554  uint256 refund */\n      0x00\n        /* \"contracts/HRSLocalArbitrator.sol\":12587:12588  0 */\n      dup1\n        /* \"contracts/HRSLocalArbitrator.sol\":12575:12584  dueAmount */\n      dup3\n        /* \"contracts/HRSLocalArbitrator.sol\":12575:12588  dueAmount > 0 */\n      gt\n        /* \"contracts/HRSLocalArbitrator.sol\":12571:12903  if (dueAmount > 0) {... */\n      iszero\n      tag_458\n      jumpi\n        /* \"contracts/HRSLocalArbitrator.sol\":12621:12643  currentSecurityDeposit */\n      sload(0x0b)\n        /* \"contracts/HRSLocalArbitrator.sol\":12609:12618  dueAmount */\n      dup3\n        /* \"contracts/HRSLocalArbitrator.sol\":12609:12643  dueAmount > currentSecurityDeposit */\n      gt\n        /* \"contracts/HRSLocalArbitrator.sol\":12605:12714  if (dueAmount > currentSecurityDeposit) {... */\n      iszero\n      tag_459\n      jumpi\n        /* \"contracts/HRSLocalArbitrator.sol\":12676:12698  currentSecurityDeposit */\n      sload(0x0b)\n        /* \"contracts/HRSLocalArbitrator.sol\":12664:12698  dueAmount = currentSecurityDeposit */\n      swap2\n      pop\n        /* \"contracts/HRSLocalArbitrator.sol\":12605:12714  if (dueAmount > currentSecurityDeposit) {... */\n    tag_459:\n        /* \"contracts/HRSLocalArbitrator.sol\":12760:12769  dueAmount */\n      dup2\n        /* \"contracts/HRSLocalArbitrator.sol\":12728:12746  pendingWithdrawals */\n      0x0f\n        /* \"contracts/HRSLocalArbitrator.sol\":12728:12756  pendingWithdrawals[landlord] */\n      0x00\n        /* \"contracts/HRSLocalArbitrator.sol\":12747:12755  landlord */\n      dup1\n      0x00\n      swap1\n      sload\n      swap1\n      0x0100\n      exp\n      swap1\n      div\n      0xffffffffffffffffffffffffffffffffffffffff\n      and\n        /* \"contracts/HRSLocalArbitrator.sol\":12728:12756  pendingWithdrawals[landlord] */\n      0xffffffffffffffffffffffffffffffffffffffff\n      and\n      0xffffffffffffffffffffffffffffffffffffffff\n      and\n      dup2\n      mstore\n      0x20\n      add\n      swap1\n      dup2\n      mstore\n      0x20\n      add\n      0x00\n      keccak256\n      0x00\n        /* \"contracts/HRSLocalArbitrator.sol\":12728:12769  pendingWithdrawals[landlord] += dueAmount */\n      dup3\n      dup3\n      sload\n      tag_460\n      swap2\n      swap1\n      tag_314\n      jump\t// in\n    tag_460:\n      swap3\n      pop\n      pop\n      dup2\n      swap1\n      sstore\n      pop\n        /* \"contracts/HRSLocalArbitrator.sol\":12818:12827  dueAmount */\n      dup2\n        /* \"contracts/HRSLocalArbitrator.sol\":12793:12815  currentSecurityDeposit */\n      sload(0x0b)\n        /* \"contracts/HRSLocalArbitrator.sol\":12793:12827  currentSecurityDeposit - dueAmount */\n      tag_461\n      swap2\n      swap1\n      tag_251\n      jump\t// in\n    tag_461:\n        /* \"contracts/HRSLocalArbitrator.sol\":12784:12827  refund = currentSecurityDeposit - dueAmount */\n      swap1\n      pop\n        /* \"contracts/HRSLocalArbitrator.sol\":12571:12903  if (dueAmount > 0) {... */\n      jump(tag_462)\n    tag_458:\n        /* \"contracts/HRSLocalArbitrator.sol\":12869:12891  currentSecurityDeposit */\n      sload(0x0b)\n        /* \"contracts/HRSLocalArbitrator.sol\":12860:12891  refund = currentSecurityDeposit */\n      swap1\n      pop\n        /* \"contracts/HRSLocalArbitrator.sol\":12571:12903  if (dueAmount > 0) {... */\n    tag_462:\n        /* \"contracts/HRSLocalArbitrator.sol\":12928:12929  0 */\n      0x00\n        /* \"contracts/HRSLocalArbitrator.sol\":12919:12925  refund */\n      dup2\n        /* \"contracts/HRSLocalArbitrator.sol\":12919:12929  refund > 0 */\n      gt\n        /* \"contracts/HRSLocalArbitrator.sol\":12915:12994  if (refund > 0) {... */\n      iszero\n      tag_463\n      jumpi\n        /* \"contracts/HRSLocalArbitrator.sol\":12976:12982  refund */\n      dup1\n        /* \"contracts/HRSLocalArbitrator.sol\":12946:12964  pendingWithdrawals */\n      0x0f\n        /* \"contracts/HRSLocalArbitrator.sol\":12946:12972  pendingWithdrawals[renter] */\n      0x00\n        /* \"contracts/HRSLocalArbitrator.sol\":12965:12971  renter */\n      0x01\n      0x00\n      swap1\n      sload\n      swap1\n      0x0100\n      exp\n      swap1\n      div\n      0xffffffffffffffffffffffffffffffffffffffff\n      and\n        /* \"contracts/HRSLocalArbitrator.sol\":12946:12972  pendingWithdrawals[renter] */\n      0xffffffffffffffffffffffffffffffffffffffff\n      and\n      0xffffffffffffffffffffffffffffffffffffffff\n      and\n      dup2\n      mstore\n      0x20\n      add\n      swap1\n      dup2\n      mstore\n      0x20\n      add\n      0x00\n      keccak256\n      0x00\n        /* \"contracts/HRSLocalArbitrator.sol\":12946:12982  pendingWithdrawals[renter] += refund */\n      dup3\n      dup3\n      sload\n      tag_464\n      swap2\n      swap1\n      tag_314\n      jump\t// in\n    tag_464:\n      swap3\n      pop\n      pop\n      dup2\n      swap1\n      sstore\n      pop\n        /* \"contracts/HRSLocalArbitrator.sol\":12915:12994  if (refund > 0) {... */\n    tag_463:\n        /* \"contracts/HRSLocalArbitrator.sol\":13011:13043  ContractEnded(refund, dueAmount) */\n      0xc0590c5a8ce79dffbdde17480a06203778f954965615e1d9577dbc90da2ff109\n        /* \"contracts/HRSLocalArbitrator.sol\":13025:13031  refund */\n      dup2\n        /* \"contracts/HRSLocalArbitrator.sol\":13033:13042  dueAmount */\n      dup4\n        /* \"contracts/HRSLocalArbitrator.sol\":13011:13043  ContractEnded(refund, dueAmount) */\n      mload(0x40)\n      tag_465\n      swap3\n      swap2\n      swap1\n      tag_253\n      jump\t// in\n    tag_465:\n      mload(0x40)\n      dup1\n      swap2\n      sub\n      swap1\n      log1\n        /* \"contracts/HRSLocalArbitrator.sol\":13079:13087  landlord */\n      0x00\n      dup1\n      sload\n      swap1\n      0x0100\n      exp\n      swap1\n      div\n      0xffffffffffffffffffffffffffffffffffffffff\n      and\n        /* \"contracts/HRSLocalArbitrator.sol\":13059:13099  WithdrawalRequested(landlord, dueAmount) */\n      0xffffffffffffffffffffffffffffffffffffffff\n      and\n      0xe670e4e82118d22a1f9ee18920455ebc958bae26a90a05d31d3378788b1b0e44\n        /* \"contracts/HRSLocalArbitrator.sol\":13089:13098  dueAmount */\n      dup4\n        /* \"contracts/HRSLocalArbitrator.sol\":13059:13099  WithdrawalRequested(landlord, dueAmount) */\n      mload(0x40)\n      tag_466\n      swap2\n      swap1\n      tag_63\n      jump\t// in\n    tag_466:\n      mload(0x40)\n      dup1\n      swap2\n      sub\n      swap1\n      log2\n        /* \"contracts/HRSLocalArbitrator.sol\":13135:13141  renter */\n      0x01\n      0x00\n      swap1\n      sload\n      swap1\n      0x0100\n      exp\n      swap1\n      div\n      0xffffffffffffffffffffffffffffffffffffffff\n      and\n        /* \"contracts/HRSLocalArbitrator.sol\":13115:13150  WithdrawalRequested(renter, refund) */\n      0xffffffffffffffffffffffffffffffffffffffff\n      and\n      0xe670e4e82118d22a1f9ee18920455ebc958bae26a90a05d31d3378788b1b0e44\n        /* \"contracts/HRSLocalArbitrator.sol\":13143:13149  refund */\n      dup3\n        /* \"contracts/HRSLocalArbitrator.sol\":13115:13150  WithdrawalRequested(renter, refund) */\n      mload(0x40)\n      tag_467\n      swap2\n      swap1\n      tag_63\n      jump\t// in\n    tag_467:\n      mload(0x40)\n      dup1\n      swap2\n      sub\n      swap1\n      log2\n        /* \"contracts/HRSLocalArbitrator.sol\":13221:13222  0 */\n      0x00\n        /* \"contracts/HRSLocalArbitrator.sol\":13196:13218  currentSecurityDeposit */\n      0x0b\n        /* \"contracts/HRSLocalArbitrator.sol\":13196:13222  currentSecurityDeposit = 0 */\n      dup2\n      swap1\n      sstore\n      pop\n        /* \"contracts/HRSLocalArbitrator.sol\":13243:13244  0 */\n      0x00\n        /* \"contracts/HRSLocalArbitrator.sol\":13233:13240  dueRent */\n      0x07\n        /* \"contracts/HRSLocalArbitrator.sol\":13233:13244  dueRent = 0 */\n      dup2\n      swap1\n      sstore\n      pop\n        /* \"contracts/HRSLocalArbitrator.sol\":13275:13280  false */\n      0x00\n        /* \"contracts/HRSLocalArbitrator.sol\":13255:13272  rentalPeriodEnded */\n      0x0d\n      0x03\n        /* \"contracts/HRSLocalArbitrator.sol\":13255:13280  rentalPeriodEnded = false */\n      0x0100\n      exp\n      dup2\n      sload\n      dup2\n      0xff\n      mul\n      not\n      and\n      swap1\n      dup4\n      iszero\n      iszero\n      mul\n      or\n      swap1\n      sstore\n      pop\n        /* \"contracts/HRSLocalArbitrator.sol\":13313:13318  false */\n      0x00\n        /* \"contracts/HRSLocalArbitrator.sol\":13291:13310  landlordEstimateSet */\n      0x0d\n      0x04\n        /* \"contracts/HRSLocalArbitrator.sol\":13291:13318  landlordEstimateSet = false */\n      0x0100\n      exp\n      dup2\n      sload\n      dup2\n      0xff\n      mul\n      not\n      and\n      swap1\n      dup4\n      iszero\n      iszero\n      mul\n      or\n      swap1\n      sstore\n      pop\n        /* \"contracts/HRSLocalArbitrator.sol\":13356:13361  false */\n      0x00\n        /* \"contracts/HRSLocalArbitrator.sol\":13329:13353  renterCounterEstimateSet */\n      0x0d\n      0x05\n        /* \"contracts/HRSLocalArbitrator.sol\":13329:13361  renterCounterEstimateSet = false */\n      0x0100\n      exp\n      dup2\n      sload\n      dup2\n      0xff\n      mul\n      not\n      and\n      swap1\n      dup4\n      iszero\n      iszero\n      mul\n      or\n      swap1\n      sstore\n      pop\n        /* \"contracts/HRSLocalArbitrator.sol\":12254:13369  {... */\n      pop\n      pop\n        /* \"contracts/HRSLocalArbitrator.sol\":12223:13369  function endContract() private {... */\n      jump\t// out\n        /* \"#utility.yul\":7:97   */\n    tag_468:\n        /* \"#utility.yul\":41:48   */\n      0x00\n        /* \"#utility.yul\":84:89   */\n      dup2\n        /* \"#utility.yul\":77:90   */\n      iszero\n        /* \"#utility.yul\":70:91   */\n      iszero\n        /* \"#utility.yul\":59:91   */\n      swap1\n      pop\n        /* \"#utility.yul\":7:97   */\n      swap2\n      swap1\n      pop\n      jump\t// out\n        /* \"#utility.yul\":103:212   */\n    tag_469:\n        /* \"#utility.yul\":184:205   */\n      tag_567\n        /* \"#utility.yul\":199:204   */\n      dup2\n        /* \"#utility.yul\":184:205   */\n      tag_468\n      jump\t// in\n    tag_567:\n        /* \"#utility.yul\":179:182   */\n      dup3\n        /* \"#utility.yul\":172:206   */\n      mstore\n        /* \"#utility.yul\":103:212   */\n      pop\n      pop\n      jump\t// out\n        /* \"#utility.yul\":218:428   */\n    tag_58:\n        /* \"#utility.yul\":305:309   */\n      0x00\n        /* \"#utility.yul\":343:345   */\n      0x20\n        /* \"#utility.yul\":332:341   */\n      dup3\n        /* \"#utility.yul\":328:346   */\n      add\n        /* \"#utility.yul\":320:346   */\n      swap1\n      pop\n        /* \"#utility.yul\":356:421   */\n      tag_569\n        /* \"#utility.yul\":418:419   */\n      0x00\n        /* \"#utility.yul\":407:416   */\n      dup4\n        /* \"#utility.yul\":403:420   */\n      add\n        /* \"#utility.yul\":394:400   */\n      dup5\n        /* \"#utility.yul\":356:421   */\n      tag_469\n      jump\t// in\n    tag_569:\n        /* \"#utility.yul\":218:428   */\n      swap3\n      swap2\n      pop\n      pop\n      jump\t// out\n        /* \"#utility.yul\":434:511   */\n    tag_470:\n        /* \"#utility.yul\":471:478   */\n      0x00\n        /* \"#utility.yul\":500:505   */\n      dup2\n        /* \"#utility.yul\":489:505   */\n      swap1\n      pop\n        /* \"#utility.yul\":434:511   */\n      swap2\n      swap1\n      pop\n      jump\t// out\n        /* \"#utility.yul\":517:635   */\n    tag_471:\n        /* \"#utility.yul\":604:628   */\n      tag_572\n        /* \"#utility.yul\":622:627   */\n      dup2\n        /* \"#utility.yul\":604:628   */\n      tag_470\n      jump\t// in\n    tag_572:\n        /* \"#utility.yul\":599:602   */\n      dup3\n        /* \"#utility.yul\":592:629   */\n      mstore\n        /* \"#utility.yul\":517:635   */\n      pop\n      pop\n      jump\t// out\n        /* \"#utility.yul\":641:863   */\n    tag_63:\n        /* \"#utility.yul\":734:738   */\n      0x00\n        /* \"#utility.yul\":772:774   */\n      0x20\n        /* \"#utility.yul\":761:770   */\n      dup3\n        /* \"#utility.yul\":757:775   */\n      add\n        /* \"#utility.yul\":749:775   */\n      swap1\n      pop\n        /* \"#utility.yul\":785:856   */\n      tag_574\n        /* \"#utility.yul\":853:854   */\n      0x00\n        /* \"#utility.yul\":842:851   */\n      dup4\n        /* \"#utility.yul\":838:855   */\n      add\n        /* \"#utility.yul\":829:835   */\n      dup5\n        /* \"#utility.yul\":785:856   */\n      tag_471\n      jump\t// in\n    tag_574:\n        /* \"#utility.yul\":641:863   */\n      swap3\n      swap2\n      pop\n      pop\n      jump\t// out\n        /* \"#utility.yul\":950:1067   */\n    tag_473:\n        /* \"#utility.yul\":1059:1060   */\n      0x00\n        /* \"#utility.yul\":1056:1057   */\n      dup1\n        /* \"#utility.yul\":1049:1061   */\n      revert\n        /* \"#utility.yul\":1196:1318   */\n    tag_475:\n        /* \"#utility.yul\":1269:1293   */\n      tag_579\n        /* \"#utility.yul\":1287:1292   */\n      dup2\n        /* \"#utility.yul\":1269:1293   */\n      tag_470\n      jump\t// in\n    tag_579:\n        /* \"#utility.yul\":1262:1267   */\n      dup2\n        /* \"#utility.yul\":1259:1294   */\n      eq\n        /* \"#utility.yul\":1249:1312   */\n      tag_580\n      jumpi\n        /* \"#utility.yul\":1308:1309   */\n      0x00\n        /* \"#utility.yul\":1305:1306   */\n      dup1\n        /* \"#utility.yul\":1298:1310   */\n      revert\n        /* \"#utility.yul\":1249:1312   */\n    tag_580:\n        /* \"#utility.yul\":1196:1318   */\n      pop\n      jump\t// out\n        /* \"#utility.yul\":1324:1463   */\n    tag_476:\n        /* \"#utility.yul\":1370:1375   */\n      0x00\n        /* \"#utility.yul\":1408:1414   */\n      dup2\n        /* \"#utility.yul\":1395:1415   */\n      calldataload\n        /* \"#utility.yul\":1386:1415   */\n      swap1\n      pop\n        /* \"#utility.yul\":1424:1457   */\n      tag_582\n        /* \"#utility.yul\":1451:1456   */\n      dup2\n        /* \"#utility.yul\":1424:1457   */\n      tag_475\n      jump\t// in\n    tag_582:\n        /* \"#utility.yul\":1324:1463   */\n      swap3\n      swap2\n      pop\n      pop\n      jump\t// out\n        /* \"#utility.yul\":1469:1798   */\n    tag_67:\n        /* \"#utility.yul\":1528:1534   */\n      0x00\n        /* \"#utility.yul\":1577:1579   */\n      0x20\n        /* \"#utility.yul\":1565:1574   */\n      dup3\n        /* \"#utility.yul\":1556:1563   */\n      dup5\n        /* \"#utility.yul\":1552:1575   */\n      sub\n        /* \"#utility.yul\":1548:1580   */\n      slt\n        /* \"#utility.yul\":1545:1664   */\n      iszero\n      tag_584\n      jumpi\n        /* \"#utility.yul\":1583:1662   */\n      tag_585\n      tag_473\n      jump\t// in\n    tag_585:\n        /* \"#utility.yul\":1545:1664   */\n    tag_584:\n        /* \"#utility.yul\":1703:1704   */\n      0x00\n        /* \"#utility.yul\":1728:1781   */\n      tag_586\n        /* \"#utility.yul\":1773:1780   */\n      dup5\n        /* \"#utility.yul\":1764:1770   */\n      dup3\n        /* \"#utility.yul\":1753:1762   */\n      dup6\n        /* \"#utility.yul\":1749:1771   */\n      add\n        /* \"#utility.yul\":1728:1781   */\n      tag_476\n      jump\t// in\n    tag_586:\n        /* \"#utility.yul\":1718:1781   */\n      swap2\n      pop\n        /* \"#utility.yul\":1674:1791   */\n      pop\n        /* \"#utility.yul\":1469:1798   */\n      swap3\n      swap2\n      pop\n      pop\n      jump\t// out\n        /* \"#utility.yul\":1804:1930   */\n    tag_477:\n        /* \"#utility.yul\":1841:1848   */\n      0x00\n        /* \"#utility.yul\":1881:1923   */\n      0xffffffffffffffffffffffffffffffffffffffff\n        /* \"#utility.yul\":1874:1879   */\n      dup3\n        /* \"#utility.yul\":1870:1924   */\n      and\n        /* \"#utility.yul\":1859:1924   */\n      swap1\n      pop\n        /* \"#utility.yul\":1804:1930   */\n      swap2\n      swap1\n      pop\n      jump\t// out\n        /* \"#utility.yul\":1936:2032   */\n    tag_478:\n        /* \"#utility.yul\":1973:1980   */\n      0x00\n        /* \"#utility.yul\":2002:2026   */\n      tag_589\n        /* \"#utility.yul\":2020:2025   */\n      dup3\n        /* \"#utility.yul\":2002:2026   */\n      tag_477\n      jump\t// in\n    tag_589:\n        /* \"#utility.yul\":1991:2026   */\n      swap1\n      pop\n        /* \"#utility.yul\":1936:2032   */\n      swap2\n      swap1\n      pop\n      jump\t// out\n        /* \"#utility.yul\":2038:2156   */\n    tag_479:\n        /* \"#utility.yul\":2125:2149   */\n      tag_591\n        /* \"#utility.yul\":2143:2148   */\n      dup2\n        /* \"#utility.yul\":2125:2149   */\n      tag_478\n      jump\t// in\n    tag_591:\n        /* \"#utility.yul\":2120:2123   */\n      dup3\n        /* \"#utility.yul\":2113:2150   */\n      mstore\n        /* \"#utility.yul\":2038:2156   */\n      pop\n      pop\n      jump\t// out\n        /* \"#utility.yul\":2162:2384   */\n    tag_88:\n        /* \"#utility.yul\":2255:2259   */\n      0x00\n        /* \"#utility.yul\":2293:2295   */\n      0x20\n        /* \"#utility.yul\":2282:2291   */\n      dup3\n        /* \"#utility.yul\":2278:2296   */\n      add\n        /* \"#utility.yul\":2270:2296   */\n      swap1\n      pop\n        /* \"#utility.yul\":2306:2377   */\n      tag_593\n        /* \"#utility.yul\":2374:2375   */\n      0x00\n        /* \"#utility.yul\":2363:2372   */\n      dup4\n        /* \"#utility.yul\":2359:2376   */\n      add\n        /* \"#utility.yul\":2350:2356   */\n      dup5\n        /* \"#utility.yul\":2306:2377   */\n      tag_479\n      jump\t// in\n    tag_593:\n        /* \"#utility.yul\":2162:2384   */\n      swap3\n      swap2\n      pop\n      pop\n      jump\t// out\n        /* \"#utility.yul\":2390:2450   */\n    tag_480:\n        /* \"#utility.yul\":2418:2421   */\n      0x00\n        /* \"#utility.yul\":2439:2444   */\n      dup2\n        /* \"#utility.yul\":2432:2444   */\n      swap1\n      pop\n        /* \"#utility.yul\":2390:2450   */\n      swap2\n      swap1\n      pop\n      jump\t// out\n        /* \"#utility.yul\":2456:2598   */\n    tag_481:\n        /* \"#utility.yul\":2506:2515   */\n      0x00\n        /* \"#utility.yul\":2539:2592   */\n      tag_596\n        /* \"#utility.yul\":2557:2591   */\n      tag_597\n        /* \"#utility.yul\":2566:2590   */\n      tag_598\n        /* \"#utility.yul\":2584:2589   */\n      dup5\n        /* \"#utility.yul\":2566:2590   */\n      tag_477\n      jump\t// in\n    tag_598:\n        /* \"#utility.yul\":2557:2591   */\n      tag_480\n      jump\t// in\n    tag_597:\n        /* \"#utility.yul\":2539:2592   */\n      tag_477\n      jump\t// in\n    tag_596:\n        /* \"#utility.yul\":2526:2592   */\n      swap1\n      pop\n        /* \"#utility.yul\":2456:2598   */\n      swap2\n      swap1\n      pop\n      jump\t// out\n        /* \"#utility.yul\":2604:2730   */\n    tag_482:\n        /* \"#utility.yul\":2654:2663   */\n      0x00\n        /* \"#utility.yul\":2687:2724   */\n      tag_600\n        /* \"#utility.yul\":2718:2723   */\n      dup3\n        /* \"#utility.yul\":2687:2724   */\n      tag_481\n      jump\t// in\n    tag_600:\n        /* \"#utility.yul\":2674:2724   */\n      swap1\n      pop\n        /* \"#utility.yul\":2604:2730   */\n      swap2\n      swap1\n      pop\n      jump\t// out\n        /* \"#utility.yul\":2736:2885   */\n    tag_483:\n        /* \"#utility.yul\":2809:2818   */\n      0x00\n        /* \"#utility.yul\":2842:2879   */\n      tag_602\n        /* \"#utility.yul\":2873:2878   */\n      dup3\n        /* \"#utility.yul\":2842:2879   */\n      tag_482\n      jump\t// in\n    tag_602:\n        /* \"#utility.yul\":2829:2879   */\n      swap1\n      pop\n        /* \"#utility.yul\":2736:2885   */\n      swap2\n      swap1\n      pop\n      jump\t// out\n        /* \"#utility.yul\":2891:3068   */\n    tag_484:\n        /* \"#utility.yul\":3001:3061   */\n      tag_604\n        /* \"#utility.yul\":3055:3060   */\n      dup2\n        /* \"#utility.yul\":3001:3061   */\n      tag_483\n      jump\t// in\n    tag_604:\n        /* \"#utility.yul\":2996:2999   */\n      dup3\n        /* \"#utility.yul\":2989:3062   */\n      mstore\n        /* \"#utility.yul\":2891:3068   */\n      pop\n      pop\n      jump\t// out\n        /* \"#utility.yul\":3074:3342   */\n    tag_118:\n        /* \"#utility.yul\":3190:3194   */\n      0x00\n        /* \"#utility.yul\":3228:3230   */\n      0x20\n        /* \"#utility.yul\":3217:3226   */\n      dup3\n        /* \"#utility.yul\":3213:3231   */\n      add\n        /* \"#utility.yul\":3205:3231   */\n      swap1\n      pop\n        /* \"#utility.yul\":3241:3335   */\n      tag_606\n        /* \"#utility.yul\":3332:3333   */\n      0x00\n        /* \"#utility.yul\":3321:3330   */\n      dup4\n        /* \"#utility.yul\":3317:3334   */\n      add\n        /* \"#utility.yul\":3308:3314   */\n      dup5\n        /* \"#utility.yul\":3241:3335   */\n      tag_484\n      jump\t// in\n    tag_606:\n        /* \"#utility.yul\":3074:3342   */\n      swap3\n      swap2\n      pop\n      pop\n      jump\t// out\n        /* \"#utility.yul\":3348:3967   */\n    tag_182:\n        /* \"#utility.yul\":3425:3431   */\n      0x00\n        /* \"#utility.yul\":3433:3439   */\n      dup1\n        /* \"#utility.yul\":3441:3447   */\n      0x00\n        /* \"#utility.yul\":3490:3492   */\n      0x60\n        /* \"#utility.yul\":3478:3487   */\n      dup5\n        /* \"#utility.yul\":3469:3476   */\n      dup7\n        /* \"#utility.yul\":3465:3488   */\n      sub\n        /* \"#utility.yul\":3461:3493   */\n      slt\n        /* \"#utility.yul\":3458:3577   */\n      iszero\n      tag_608\n      jumpi\n        /* \"#utility.yul\":3496:3575   */\n      tag_609\n      tag_473\n      jump\t// in\n    tag_609:\n        /* \"#utility.yul\":3458:3577   */\n    tag_608:\n        /* \"#utility.yul\":3616:3617   */\n      0x00\n        /* \"#utility.yul\":3641:3694   */\n      tag_610\n        /* \"#utility.yul\":3686:3693   */\n      dup7\n        /* \"#utility.yul\":3677:3683   */\n      dup3\n        /* \"#utility.yul\":3666:3675   */\n      dup8\n        /* \"#utility.yul\":3662:3684   */\n      add\n        /* \"#utility.yul\":3641:3694   */\n      tag_476\n      jump\t// in\n    tag_610:\n        /* \"#utility.yul\":3631:3694   */\n      swap4\n      pop\n        /* \"#utility.yul\":3587:3704   */\n      pop\n        /* \"#utility.yul\":3743:3745   */\n      0x20\n        /* \"#utility.yul\":3769:3822   */\n      tag_611\n        /* \"#utility.yul\":3814:3821   */\n      dup7\n        /* \"#utility.yul\":3805:3811   */\n      dup3\n        /* \"#utility.yul\":3794:3803   */\n      dup8\n        /* \"#utility.yul\":3790:3812   */\n      add\n        /* \"#utility.yul\":3769:3822   */\n      tag_476\n      jump\t// in\n    tag_611:\n        /* \"#utility.yul\":3759:3822   */\n      swap3\n      pop\n        /* \"#utility.yul\":3714:3832   */\n      pop\n        /* \"#utility.yul\":3871:3873   */\n      0x40\n        /* \"#utility.yul\":3897:3950   */\n      tag_612\n        /* \"#utility.yul\":3942:3949   */\n      dup7\n        /* \"#utility.yul\":3933:3939   */\n      dup3\n        /* \"#utility.yul\":3922:3931   */\n      dup8\n        /* \"#utility.yul\":3918:3940   */\n      add\n        /* \"#utility.yul\":3897:3950   */\n      tag_476\n      jump\t// in\n    tag_612:\n        /* \"#utility.yul\":3887:3950   */\n      swap2\n      pop\n        /* \"#utility.yul\":3842:3960   */\n      pop\n        /* \"#utility.yul\":3348:3967   */\n      swap3\n      pop\n      swap3\n      pop\n      swap3\n      jump\t// out\n        /* \"#utility.yul\":3973:4447   */\n    tag_187:\n        /* \"#utility.yul\":4041:4047   */\n      0x00\n        /* \"#utility.yul\":4049:4055   */\n      dup1\n        /* \"#utility.yul\":4098:4100   */\n      0x40\n        /* \"#utility.yul\":4086:4095   */\n      dup4\n        /* \"#utility.yul\":4077:4084   */\n      dup6\n        /* \"#utility.yul\":4073:4096   */\n      sub\n        /* \"#utility.yul\":4069:4101   */\n      slt\n        /* \"#utility.yul\":4066:4185   */\n      iszero\n      tag_614\n      jumpi\n        /* \"#utility.yul\":4104:4183   */\n      tag_615\n      tag_473\n      jump\t// in\n    tag_615:\n        /* \"#utility.yul\":4066:4185   */\n    tag_614:\n        /* \"#utility.yul\":4224:4225   */\n      0x00\n        /* \"#utility.yul\":4249:4302   */\n      tag_616\n        /* \"#utility.yul\":4294:4301   */\n      dup6\n        /* \"#utility.yul\":4285:4291   */\n      dup3\n        /* \"#utility.yul\":4274:4283   */\n      dup7\n        /* \"#utility.yul\":4270:4292   */\n      add\n        /* \"#utility.yul\":4249:4302   */\n      tag_476\n      jump\t// in\n    tag_616:\n        /* \"#utility.yul\":4239:4302   */\n      swap3\n      pop\n        /* \"#utility.yul\":4195:4312   */\n      pop\n        /* \"#utility.yul\":4351:4353   */\n      0x20\n        /* \"#utility.yul\":4377:4430   */\n      tag_617\n        /* \"#utility.yul\":4422:4429   */\n      dup6\n        /* \"#utility.yul\":4413:4419   */\n      dup3\n        /* \"#utility.yul\":4402:4411   */\n      dup7\n        /* \"#utility.yul\":4398:4420   */\n      add\n        /* \"#utility.yul\":4377:4430   */\n      tag_476\n      jump\t// in\n    tag_617:\n        /* \"#utility.yul\":4367:4430   */\n      swap2\n      pop\n        /* \"#utility.yul\":4322:4440   */\n      pop\n        /* \"#utility.yul\":3973:4447   */\n      swap3\n      pop\n      swap3\n      swap1\n      pop\n      jump\t// out\n        /* \"#utility.yul\":4453:4994   */\n    tag_204:\n        /* \"#utility.yul\":4624:4628   */\n      0x00\n        /* \"#utility.yul\":4662:4665   */\n      0x80\n        /* \"#utility.yul\":4651:4660   */\n      dup3\n        /* \"#utility.yul\":4647:4666   */\n      add\n        /* \"#utility.yul\":4639:4666   */\n      swap1\n      pop\n        /* \"#utility.yul\":4676:4747   */\n      tag_619\n        /* \"#utility.yul\":4744:4745   */\n      0x00\n        /* \"#utility.yul\":4733:4742   */\n      dup4\n        /* \"#utility.yul\":4729:4746   */\n      add\n        /* \"#utility.yul\":4720:4726   */\n      dup8\n        /* \"#utility.yul\":4676:4747   */\n      tag_471\n      jump\t// in\n    tag_619:\n        /* \"#utility.yul\":4757:4829   */\n      tag_620\n        /* \"#utility.yul\":4825:4827   */\n      0x20\n        /* \"#utility.yul\":4814:4823   */\n      dup4\n        /* \"#utility.yul\":4810:4828   */\n      add\n        /* \"#utility.yul\":4801:4807   */\n      dup7\n        /* \"#utility.yul\":4757:4829   */\n      tag_471\n      jump\t// in\n    tag_620:\n        /* \"#utility.yul\":4839:4911   */\n      tag_621\n        /* \"#utility.yul\":4907:4909   */\n      0x40\n        /* \"#utility.yul\":4896:4905   */\n      dup4\n        /* \"#utility.yul\":4892:4910   */\n      add\n        /* \"#utility.yul\":4883:4889   */\n      dup6\n        /* \"#utility.yul\":4839:4911   */\n      tag_471\n      jump\t// in\n    tag_621:\n        /* \"#utility.yul\":4921:4987   */\n      tag_622\n        /* \"#utility.yul\":4983:4985   */\n      0x60\n        /* \"#utility.yul\":4972:4981   */\n      dup4\n        /* \"#utility.yul\":4968:4986   */\n      add\n        /* \"#utility.yul\":4959:4965   */\n      dup5\n        /* \"#utility.yul\":4921:4987   */\n      tag_469\n      jump\t// in\n    tag_622:\n        /* \"#utility.yul\":4453:4994   */\n      swap6\n      swap5\n      pop\n      pop\n      pop\n      pop\n      pop\n      jump\t// out\n        /* \"#utility.yul\":5000:5122   */\n    tag_485:\n        /* \"#utility.yul\":5073:5097   */\n      tag_624\n        /* \"#utility.yul\":5091:5096   */\n      dup2\n        /* \"#utility.yul\":5073:5097   */\n      tag_478\n      jump\t// in\n    tag_624:\n        /* \"#utility.yul\":5066:5071   */\n      dup2\n        /* \"#utility.yul\":5063:5098   */\n      eq\n        /* \"#utility.yul\":5053:5116   */\n      tag_625\n      jumpi\n        /* \"#utility.yul\":5112:5113   */\n      0x00\n        /* \"#utility.yul\":5109:5110   */\n      dup1\n        /* \"#utility.yul\":5102:5114   */\n      revert\n        /* \"#utility.yul\":5053:5116   */\n    tag_625:\n        /* \"#utility.yul\":5000:5122   */\n      pop\n      jump\t// out\n        /* \"#utility.yul\":5128:5267   */\n    tag_486:\n        /* \"#utility.yul\":5174:5179   */\n      0x00\n        /* \"#utility.yul\":5212:5218   */\n      dup2\n        /* \"#utility.yul\":5199:5219   */\n      calldataload\n        /* \"#utility.yul\":5190:5219   */\n      swap1\n      pop\n        /* \"#utility.yul\":5228:5261   */\n      tag_627\n        /* \"#utility.yul\":5255:5260   */\n      dup2\n        /* \"#utility.yul\":5228:5261   */\n      tag_485\n      jump\t// in\n    tag_627:\n        /* \"#utility.yul\":5128:5267   */\n      swap3\n      swap2\n      pop\n      pop\n      jump\t// out\n        /* \"#utility.yul\":5273:5602   */\n    tag_215:\n        /* \"#utility.yul\":5332:5338   */\n      0x00\n        /* \"#utility.yul\":5381:5383   */\n      0x20\n        /* \"#utility.yul\":5369:5378   */\n      dup3\n        /* \"#utility.yul\":5360:5367   */\n      dup5\n        /* \"#utility.yul\":5356:5379   */\n      sub\n        /* \"#utility.yul\":5352:5384   */\n      slt\n        /* \"#utility.yul\":5349:5468   */\n      iszero\n      tag_629\n      jumpi\n        /* \"#utility.yul\":5387:5466   */\n      tag_630\n      tag_473\n      jump\t// in\n    tag_630:\n        /* \"#utility.yul\":5349:5468   */\n    tag_629:\n        /* \"#utility.yul\":5507:5508   */\n      0x00\n        /* \"#utility.yul\":5532:5585   */\n      tag_631\n        /* \"#utility.yul\":5577:5584   */\n      dup5\n        /* \"#utility.yul\":5568:5574   */\n      dup3\n        /* \"#utility.yul\":5557:5566   */\n      dup6\n        /* \"#utility.yul\":5553:5575   */\n      add\n        /* \"#utility.yul\":5532:5585   */\n      tag_486\n      jump\t// in\n    tag_631:\n        /* \"#utility.yul\":5522:5585   */\n      swap2\n      pop\n        /* \"#utility.yul\":5478:5595   */\n      pop\n        /* \"#utility.yul\":5273:5602   */\n      swap3\n      swap2\n      pop\n      pop\n      jump\t// out\n        /* \"#utility.yul\":5608:5777   */\n    tag_487:\n        /* \"#utility.yul\":5692:5703   */\n      0x00\n        /* \"#utility.yul\":5726:5732   */\n      dup3\n        /* \"#utility.yul\":5721:5724   */\n      dup3\n        /* \"#utility.yul\":5714:5733   */\n      mstore\n        /* \"#utility.yul\":5766:5770   */\n      0x20\n        /* \"#utility.yul\":5761:5764   */\n      dup3\n        /* \"#utility.yul\":5757:5771   */\n      add\n        /* \"#utility.yul\":5742:5771   */\n      swap1\n      pop\n        /* \"#utility.yul\":5608:5777   */\n      swap3\n      swap2\n      pop\n      pop\n      jump\t// out\n        /* \"#utility.yul\":5783:6011   */\n    tag_488:\n        /* \"#utility.yul\":5923:5957   */\n      0x4f6e6c79206c616e646c6f72642063616e20736574207468652064616d616765\n        /* \"#utility.yul\":5919:5920   */\n      0x00\n        /* \"#utility.yul\":5911:5917   */\n      dup3\n        /* \"#utility.yul\":5907:5921   */\n      add\n        /* \"#utility.yul\":5900:5958   */\n      mstore\n        /* \"#utility.yul\":5992:6003   */\n      0x20657374696d6174650000000000000000000000000000000000000000000000\n        /* \"#utility.yul\":5987:5989   */\n      0x20\n        /* \"#utility.yul\":5979:5985   */\n      dup3\n        /* \"#utility.yul\":5975:5990   */\n      add\n        /* \"#utility.yul\":5968:6004   */\n      mstore\n        /* \"#utility.yul\":5783:6011   */\n      pop\n      jump\t// out\n        /* \"#utility.yul\":6017:6383   */\n    tag_489:\n        /* \"#utility.yul\":6159:6162   */\n      0x00\n        /* \"#utility.yul\":6180:6247   */\n      tag_635\n        /* \"#utility.yul\":6244:6246   */\n      0x29\n        /* \"#utility.yul\":6239:6242   */\n      dup4\n        /* \"#utility.yul\":6180:6247   */\n      tag_487\n      jump\t// in\n    tag_635:\n        /* \"#utility.yul\":6173:6247   */\n      swap2\n      pop\n        /* \"#utility.yul\":6256:6349   */\n      tag_636\n        /* \"#utility.yul\":6345:6348   */\n      dup3\n        /* \"#utility.yul\":6256:6349   */\n      tag_488\n      jump\t// in\n    tag_636:\n        /* \"#utility.yul\":6374:6376   */\n      0x40\n        /* \"#utility.yul\":6369:6372   */\n      dup3\n        /* \"#utility.yul\":6365:6377   */\n      add\n        /* \"#utility.yul\":6358:6377   */\n      swap1\n      pop\n        /* \"#utility.yul\":6017:6383   */\n      swap2\n      swap1\n      pop\n      jump\t// out\n        /* \"#utility.yul\":6389:6808   */\n    tag_225:\n        /* \"#utility.yul\":6555:6559   */\n      0x00\n        /* \"#utility.yul\":6593:6595   */\n      0x20\n        /* \"#utility.yul\":6582:6591   */\n      dup3\n        /* \"#utility.yul\":6578:6596   */\n      add\n        /* \"#utility.yul\":6570:6596   */\n      swap1\n      pop\n        /* \"#utility.yul\":6642:6651   */\n      dup2\n        /* \"#utility.yul\":6636:6640   */\n      dup2\n        /* \"#utility.yul\":6632:6652   */\n      sub\n        /* \"#utility.yul\":6628:6629   */\n      0x00\n        /* \"#utility.yul\":6617:6626   */\n      dup4\n        /* \"#utility.yul\":6613:6630   */\n      add\n        /* \"#utility.yul\":6606:6653   */\n      mstore\n        /* \"#utility.yul\":6670:6801   */\n      tag_638\n        /* \"#utility.yul\":6796:6800   */\n      dup2\n        /* \"#utility.yul\":6670:6801   */\n      tag_489\n      jump\t// in\n    tag_638:\n        /* \"#utility.yul\":6662:6801   */\n      swap1\n      pop\n        /* \"#utility.yul\":6389:6808   */\n      swap2\n      swap1\n      pop\n      jump\t// out\n        /* \"#utility.yul\":6814:6993   */\n    tag_490:\n        /* \"#utility.yul\":6954:6985   */\n      0x52656e7420706572696f6420686173206e6f7420656e64656420796574000000\n        /* \"#utility.yul\":6950:6951   */\n      0x00\n        /* \"#utility.yul\":6942:6948   */\n      dup3\n        /* \"#utility.yul\":6938:6952   */\n      add\n        /* \"#utility.yul\":6931:6986   */\n      mstore\n        /* \"#utility.yul\":6814:6993   */\n      pop\n      jump\t// out\n        /* \"#utility.yul\":6999:7365   */\n    tag_491:\n        /* \"#utility.yul\":7141:7144   */\n      0x00\n        /* \"#utility.yul\":7162:7229   */\n      tag_641\n        /* \"#utility.yul\":7226:7228   */\n      0x1d\n        /* \"#utility.yul\":7221:7224   */\n      dup4\n        /* \"#utility.yul\":7162:7229   */\n      tag_487\n      jump\t// in\n    tag_641:\n        /* \"#utility.yul\":7155:7229   */\n      swap2\n      pop\n        /* \"#utility.yul\":7238:7331   */\n      tag_642\n        /* \"#utility.yul\":7327:7330   */\n      dup3\n        /* \"#utility.yul\":7238:7331   */\n      tag_490\n      jump\t// in\n    tag_642:\n        /* \"#utility.yul\":7356:7358   */\n      0x20\n        /* \"#utility.yul\":7351:7354   */\n      dup3\n        /* \"#utility.yul\":7347:7359   */\n      add\n        /* \"#utility.yul\":7340:7359   */\n      swap1\n      pop\n        /* \"#utility.yul\":6999:7365   */\n      swap2\n      swap1\n      pop\n      jump\t// out\n        /* \"#utility.yul\":7371:7790   */\n    tag_228:\n        /* \"#utility.yul\":7537:7541   */\n      0x00\n        /* \"#utility.yul\":7575:7577   */\n      0x20\n        /* \"#utility.yul\":7564:7573   */\n      dup3\n        /* \"#utility.yul\":7560:7578   */\n      add\n        /* \"#utility.yul\":7552:7578   */\n      swap1\n      pop\n        /* \"#utility.yul\":7624:7633   */\n      dup2\n        /* \"#utility.yul\":7618:7622   */\n      dup2\n        /* \"#utility.yul\":7614:7634   */\n      sub\n        /* \"#utility.yul\":7610:7611   */\n      0x00\n        /* \"#utility.yul\":7599:7608   */\n      dup4\n        /* \"#utility.yul\":7595:7612   */\n      add\n        /* \"#utility.yul\":7588:7635   */\n      mstore\n        /* \"#utility.yul\":7652:7783   */\n      tag_644\n        /* \"#utility.yul\":7778:7782   */\n      dup2\n        /* \"#utility.yul\":7652:7783   */\n      tag_491\n      jump\t// in\n    tag_644:\n        /* \"#utility.yul\":7644:7783   */\n      swap1\n      pop\n        /* \"#utility.yul\":7371:7790   */\n      swap2\n      swap1\n      pop\n      jump\t// out\n        /* \"#utility.yul\":7796:7973   */\n    tag_492:\n        /* \"#utility.yul\":7936:7965   */\n      0x44616d61676520657374696d61746520616c7265616479207365740000000000\n        /* \"#utility.yul\":7932:7933   */\n      0x00\n        /* \"#utility.yul\":7924:7930   */\n      dup3\n        /* \"#utility.yul\":7920:7934   */\n      add\n        /* \"#utility.yul\":7913:7966   */\n      mstore\n        /* \"#utility.yul\":7796:7973   */\n      pop\n      jump\t// out\n        /* \"#utility.yul\":7979:8345   */\n    tag_493:\n        /* \"#utility.yul\":8121:8124   */\n      0x00\n        /* \"#utility.yul\":8142:8209   */\n      tag_647\n        /* \"#utility.yul\":8206:8208   */\n      0x1b\n        /* \"#utility.yul\":8201:8204   */\n      dup4\n        /* \"#utility.yul\":8142:8209   */\n      tag_487\n      jump\t// in\n    tag_647:\n        /* \"#utility.yul\":8135:8209   */\n      swap2\n      pop\n        /* \"#utility.yul\":8218:8311   */\n      tag_648\n        /* \"#utility.yul\":8307:8310   */\n      dup3\n        /* \"#utility.yul\":8218:8311   */\n      tag_492\n      jump\t// in\n    tag_648:\n        /* \"#utility.yul\":8336:8338   */\n      0x20\n        /* \"#utility.yul\":8331:8334   */\n      dup3\n        /* \"#utility.yul\":8327:8339   */\n      add\n        /* \"#utility.yul\":8320:8339   */\n      swap1\n      pop\n        /* \"#utility.yul\":7979:8345   */\n      swap2\n      swap1\n      pop\n      jump\t// out\n        /* \"#utility.yul\":8351:8770   */\n    tag_231:\n        /* \"#utility.yul\":8517:8521   */\n      0x00\n        /* \"#utility.yul\":8555:8557   */\n      0x20\n        /* \"#utility.yul\":8544:8553   */\n      dup3\n        /* \"#utility.yul\":8540:8558   */\n      add\n        /* \"#utility.yul\":8532:8558   */\n      swap1\n      pop\n        /* \"#utility.yul\":8604:8613   */\n      dup2\n        /* \"#utility.yul\":8598:8602   */\n      dup2\n        /* \"#utility.yul\":8594:8614   */\n      sub\n        /* \"#utility.yul\":8590:8591   */\n      0x00\n        /* \"#utility.yul\":8579:8588   */\n      dup4\n        /* \"#utility.yul\":8575:8592   */\n      add\n        /* \"#utility.yul\":8568:8615   */\n      mstore\n        /* \"#utility.yul\":8632:8763   */\n      tag_650\n        /* \"#utility.yul\":8758:8762   */\n      dup2\n        /* \"#utility.yul\":8632:8763   */\n      tag_493\n      jump\t// in\n    tag_650:\n        /* \"#utility.yul\":8624:8763   */\n      swap1\n      pop\n        /* \"#utility.yul\":8351:8770   */\n      swap2\n      swap1\n      pop\n      jump\t// out\n        /* \"#utility.yul\":8776:8948   */\n    tag_494:\n        /* \"#utility.yul\":8916:8940   */\n      0x436f6e7472616374206973206e6f742061637469766500000000000000000000\n        /* \"#utility.yul\":8912:8913   */\n      0x00\n        /* \"#utility.yul\":8904:8910   */\n      dup3\n        /* \"#utility.yul\":8900:8914   */\n      add\n        /* \"#utility.yul\":8893:8941   */\n      mstore\n        /* \"#utility.yul\":8776:8948   */\n      pop\n      jump\t// out\n        /* \"#utility.yul\":8954:9320   */\n    tag_495:\n        /* \"#utility.yul\":9096:9099   */\n      0x00\n        /* \"#utility.yul\":9117:9184   */\n      tag_653\n        /* \"#utility.yul\":9181:9183   */\n      0x16\n        /* \"#utility.yul\":9176:9179   */\n      dup4\n        /* \"#utility.yul\":9117:9184   */\n      tag_487\n      jump\t// in\n    tag_653:\n        /* \"#utility.yul\":9110:9184   */\n      swap2\n      pop\n        /* \"#utility.yul\":9193:9286   */\n      tag_654\n        /* \"#utility.yul\":9282:9285   */\n      dup3\n        /* \"#utility.yul\":9193:9286   */\n      tag_494\n      jump\t// in\n    tag_654:\n        /* \"#utility.yul\":9311:9313   */\n      0x20\n        /* \"#utility.yul\":9306:9309   */\n      dup3\n        /* \"#utility.yul\":9302:9314   */\n      add\n        /* \"#utility.yul\":9295:9314   */\n      swap1\n      pop\n        /* \"#utility.yul\":8954:9320   */\n      swap2\n      swap1\n      pop\n      jump\t// out\n        /* \"#utility.yul\":9326:9745   */\n    tag_234:\n        /* \"#utility.yul\":9492:9496   */\n      0x00\n        /* \"#utility.yul\":9530:9532   */\n      0x20\n        /* \"#utility.yul\":9519:9528   */\n      dup3\n        /* \"#utility.yul\":9515:9533   */\n      add\n        /* \"#utility.yul\":9507:9533   */\n      swap1\n      pop\n        /* \"#utility.yul\":9579:9588   */\n      dup2\n        /* \"#utility.yul\":9573:9577   */\n      dup2\n        /* \"#utility.yul\":9569:9589   */\n      sub\n        /* \"#utility.yul\":9565:9566   */\n      0x00\n        /* \"#utility.yul\":9554:9563   */\n      dup4\n        /* \"#utility.yul\":9550:9567   */\n      add\n        /* \"#utility.yul\":9543:9590   */\n      mstore\n        /* \"#utility.yul\":9607:9738   */\n      tag_656\n        /* \"#utility.yul\":9733:9737   */\n      dup2\n        /* \"#utility.yul\":9607:9738   */\n      tag_495\n      jump\t// in\n    tag_656:\n        /* \"#utility.yul\":9599:9738   */\n      swap1\n      pop\n        /* \"#utility.yul\":9326:9745   */\n      swap2\n      swap1\n      pop\n      jump\t// out\n        /* \"#utility.yul\":9751:9983   */\n    tag_496:\n        /* \"#utility.yul\":9891:9925   */\n      0x4f6e6c79206c616e646c6f72642063616e2072656a6563742074686520636f75\n        /* \"#utility.yul\":9887:9888   */\n      0x00\n        /* \"#utility.yul\":9879:9885   */\n      dup3\n        /* \"#utility.yul\":9875:9889   */\n      add\n        /* \"#utility.yul\":9868:9926   */\n      mstore\n        /* \"#utility.yul\":9960:9975   */\n      0x6e74657220657374696d61746500000000000000000000000000000000000000\n        /* \"#utility.yul\":9955:9957   */\n      0x20\n        /* \"#utility.yul\":9947:9953   */\n      dup3\n        /* \"#utility.yul\":9943:9958   */\n      add\n        /* \"#utility.yul\":9936:9976   */\n      mstore\n        /* \"#utility.yul\":9751:9983   */\n      pop\n      jump\t// out\n        /* \"#utility.yul\":9989:10355   */\n    tag_497:\n        /* \"#utility.yul\":10131:10134   */\n      0x00\n        /* \"#utility.yul\":10152:10219   */\n      tag_659\n        /* \"#utility.yul\":10216:10218   */\n      0x2d\n        /* \"#utility.yul\":10211:10214   */\n      dup4\n        /* \"#utility.yul\":10152:10219   */\n      tag_487\n      jump\t// in\n    tag_659:\n        /* \"#utility.yul\":10145:10219   */\n      swap2\n      pop\n        /* \"#utility.yul\":10228:10321   */\n      tag_660\n        /* \"#utility.yul\":10317:10320   */\n      dup3\n        /* \"#utility.yul\":10228:10321   */\n      tag_496\n      jump\t// in\n    tag_660:\n        /* \"#utility.yul\":10346:10348   */\n      0x40\n        /* \"#utility.yul\":10341:10344   */\n      dup3\n        /* \"#utility.yul\":10337:10349   */\n      add\n        /* \"#utility.yul\":10330:10349   */\n      swap1\n      pop\n        /* \"#utility.yul\":9989:10355   */\n      swap2\n      swap1\n      pop\n      jump\t// out\n        /* \"#utility.yul\":10361:10780   */\n    tag_239:\n        /* \"#utility.yul\":10527:10531   */\n      0x00\n        /* \"#utility.yul\":10565:10567   */\n      0x20\n        /* \"#utility.yul\":10554:10563   */\n      dup3\n        /* \"#utility.yul\":10550:10568   */\n      add\n        /* \"#utility.yul\":10542:10568   */\n      swap1\n      pop\n        /* \"#utility.yul\":10614:10623   */\n      dup2\n        /* \"#utility.yul\":10608:10612   */\n      dup2\n        /* \"#utility.yul\":10604:10624   */\n      sub\n        /* \"#utility.yul\":10600:10601   */\n      0x00\n        /* \"#utility.yul\":10589:10598   */\n      dup4\n        /* \"#utility.yul\":10585:10602   */\n      add\n        /* \"#utility.yul\":10578:10625   */\n      mstore\n        /* \"#utility.yul\":10642:10773   */\n      tag_662\n        /* \"#utility.yul\":10768:10772   */\n      dup2\n        /* \"#utility.yul\":10642:10773   */\n      tag_497\n      jump\t// in\n    tag_662:\n        /* \"#utility.yul\":10634:10773   */\n      swap1\n      pop\n        /* \"#utility.yul\":10361:10780   */\n      swap2\n      swap1\n      pop\n      jump\t// out\n        /* \"#utility.yul\":10786:11011   */\n    tag_498:\n        /* \"#utility.yul\":10926:10960   */\n      0x52656e746572206d7573742073657420636f756e74657220657374696d617465\n        /* \"#utility.yul\":10922:10923   */\n      0x00\n        /* \"#utility.yul\":10914:10920   */\n      dup3\n        /* \"#utility.yul\":10910:10924   */\n      add\n        /* \"#utility.yul\":10903:10961   */\n      mstore\n        /* \"#utility.yul\":10995:11003   */\n      0x2066697273740000000000000000000000000000000000000000000000000000\n        /* \"#utility.yul\":10990:10992   */\n      0x20\n        /* \"#utility.yul\":10982:10988   */\n      dup3\n        /* \"#utility.yul\":10978:10993   */\n      add\n        /* \"#utility.yul\":10971:11004   */\n      mstore\n        /* \"#utility.yul\":10786:11011   */\n      pop\n      jump\t// out\n        /* \"#utility.yul\":11017:11383   */\n    tag_499:\n        /* \"#utility.yul\":11159:11162   */\n      0x00\n        /* \"#utility.yul\":11180:11247   */\n      tag_665\n        /* \"#utility.yul\":11244:11246   */\n      0x26\n        /* \"#utility.yul\":11239:11242   */\n      dup4\n        /* \"#utility.yul\":11180:11247   */\n      tag_487\n      jump\t// in\n    tag_665:\n        /* \"#utility.yul\":11173:11247   */\n      swap2\n      pop\n        /* \"#utility.yul\":11256:11349   */\n      tag_666\n        /* \"#utility.yul\":11345:11348   */\n      dup3\n        /* \"#utility.yul\":11256:11349   */\n      tag_498\n      jump\t// in\n    tag_666:\n        /* \"#utility.yul\":11374:11376   */\n      0x40\n        /* \"#utility.yul\":11369:11372   */\n      dup3\n        /* \"#utility.yul\":11365:11377   */\n      add\n        /* \"#utility.yul\":11358:11377   */\n      swap1\n      pop\n        /* \"#utility.yul\":11017:11383   */\n      swap2\n      swap1\n      pop\n      jump\t// out\n        /* \"#utility.yul\":11389:11808   */\n    tag_242:\n        /* \"#utility.yul\":11555:11559   */\n      0x00\n        /* \"#utility.yul\":11593:11595   */\n      0x20\n        /* \"#utility.yul\":11582:11591   */\n      dup3\n        /* \"#utility.yul\":11578:11596   */\n      add\n        /* \"#utility.yul\":11570:11596   */\n      swap1\n      pop\n        /* \"#utility.yul\":11642:11651   */\n      dup2\n        /* \"#utility.yul\":11636:11640   */\n      dup2\n        /* \"#utility.yul\":11632:11652   */\n      sub\n        /* \"#utility.yul\":11628:11629   */\n      0x00\n        /* \"#utility.yul\":11617:11626   */\n      dup4\n        /* \"#utility.yul\":11613:11630   */\n      add\n        /* \"#utility.yul\":11606:11653   */\n      mstore\n        /* \"#utility.yul\":11670:11801   */\n      tag_668\n        /* \"#utility.yul\":11796:11800   */\n      dup2\n        /* \"#utility.yul\":11670:11801   */\n      tag_499\n      jump\t// in\n    tag_668:\n        /* \"#utility.yul\":11662:11801   */\n      swap1\n      pop\n        /* \"#utility.yul\":11389:11808   */\n      swap2\n      swap1\n      pop\n      jump\t// out\n        /* \"#utility.yul\":11814:11957   */\n    tag_500:\n        /* \"#utility.yul\":11871:11876   */\n      0x00\n        /* \"#utility.yul\":11902:11908   */\n      dup2\n        /* \"#utility.yul\":11896:11909   */\n      mload\n        /* \"#utility.yul\":11887:11909   */\n      swap1\n      pop\n        /* \"#utility.yul\":11918:11951   */\n      tag_670\n        /* \"#utility.yul\":11945:11950   */\n      dup2\n        /* \"#utility.yul\":11918:11951   */\n      tag_475\n      jump\t// in\n    tag_670:\n        /* \"#utility.yul\":11814:11957   */\n      swap3\n      swap2\n      pop\n      pop\n      jump\t// out\n        /* \"#utility.yul\":11963:12314   */\n    tag_246:\n        /* \"#utility.yul\":12033:12039   */\n      0x00\n        /* \"#utility.yul\":12082:12084   */\n      0x20\n        /* \"#utility.yul\":12070:12079   */\n      dup3\n        /* \"#utility.yul\":12061:12068   */\n      dup5\n        /* \"#utility.yul\":12057:12080   */\n      sub\n        /* \"#utility.yul\":12053:12085   */\n      slt\n        /* \"#utility.yul\":12050:12169   */\n      iszero\n      tag_672\n      jumpi\n        /* \"#utility.yul\":12088:12167   */\n      tag_673\n      tag_473\n      jump\t// in\n    tag_673:\n        /* \"#utility.yul\":12050:12169   */\n    tag_672:\n        /* \"#utility.yul\":12208:12209   */\n      0x00\n        /* \"#utility.yul\":12233:12297   */\n      tag_674\n        /* \"#utility.yul\":12289:12296   */\n      dup5\n        /* \"#utility.yul\":12280:12286   */\n      dup3\n        /* \"#utility.yul\":12269:12278   */\n      dup6\n        /* \"#utility.yul\":12265:12287   */\n      add\n        /* \"#utility.yul\":12233:12297   */\n      tag_500\n      jump\t// in\n    tag_674:\n        /* \"#utility.yul\":12223:12297   */\n      swap2\n      pop\n        /* \"#utility.yul\":12179:12307   */\n      pop\n        /* \"#utility.yul\":11963:12314   */\n      swap3\n      swap2\n      pop\n      pop\n      jump\t// out\n        /* \"#utility.yul\":12320:12563   */\n    tag_501:\n        /* \"#utility.yul\":12460:12494   */\n      0x5365637572697479206465706f73697420696e73756666696369656e7420746f\n        /* \"#utility.yul\":12456:12457   */\n      0x00\n        /* \"#utility.yul\":12448:12454   */\n      dup3\n        /* \"#utility.yul\":12444:12458   */\n      add\n        /* \"#utility.yul\":12437:12495   */\n      mstore\n        /* \"#utility.yul\":12529:12555   */\n      0x20636f766572206172626974726174696f6e20636f7374730000000000000000\n        /* \"#utility.yul\":12524:12526   */\n      0x20\n        /* \"#utility.yul\":12516:12522   */\n      dup3\n        /* \"#utility.yul\":12512:12527   */\n      add\n        /* \"#utility.yul\":12505:12556   */\n      mstore\n        /* \"#utility.yul\":12320:12563   */\n      pop\n      jump\t// out\n        /* \"#utility.yul\":12569:12935   */\n    tag_502:\n        /* \"#utility.yul\":12711:12714   */\n      0x00\n        /* \"#utility.yul\":12732:12799   */\n      tag_677\n        /* \"#utility.yul\":12796:12798   */\n      0x38\n        /* \"#utility.yul\":12791:12794   */\n      dup4\n        /* \"#utility.yul\":12732:12799   */\n      tag_487\n      jump\t// in\n    tag_677:\n        /* \"#utility.yul\":12725:12799   */\n      swap2\n      pop\n        /* \"#utility.yul\":12808:12901   */\n      tag_678\n        /* \"#utility.yul\":12897:12900   */\n      dup3\n        /* \"#utility.yul\":12808:12901   */\n      tag_501\n      jump\t// in\n    tag_678:\n        /* \"#utility.yul\":12926:12928   */\n      0x40\n        /* \"#utility.yul\":12921:12924   */\n      dup3\n        /* \"#utility.yul\":12917:12929   */\n      add\n        /* \"#utility.yul\":12910:12929   */\n      swap1\n      pop\n        /* \"#utility.yul\":12569:12935   */\n      swap2\n      swap1\n      pop\n      jump\t// out\n        /* \"#utility.yul\":12941:13360   */\n    tag_249:\n        /* \"#utility.yul\":13107:13111   */\n      0x00\n        /* \"#utility.yul\":13145:13147   */\n      0x20\n        /* \"#utility.yul\":13134:13143   */\n      dup3\n        /* \"#utility.yul\":13130:13148   */\n      add\n        /* \"#utility.yul\":13122:13148   */\n      swap1\n      pop\n        /* \"#utility.yul\":13194:13203   */\n      dup2\n        /* \"#utility.yul\":13188:13192   */\n      dup2\n        /* \"#utility.yul\":13184:13204   */\n      sub\n        /* \"#utility.yul\":13180:13181   */\n      0x00\n        /* \"#utility.yul\":13169:13178   */\n      dup4\n        /* \"#utility.yul\":13165:13182   */\n      add\n        /* \"#utility.yul\":13158:13205   */\n      mstore\n        /* \"#utility.yul\":13222:13353   */\n      tag_680\n        /* \"#utility.yul\":13348:13352   */\n      dup2\n        /* \"#utility.yul\":13222:13353   */\n      tag_502\n      jump\t// in\n    tag_680:\n        /* \"#utility.yul\":13214:13353   */\n      swap1\n      pop\n        /* \"#utility.yul\":12941:13360   */\n      swap2\n      swap1\n      pop\n      jump\t// out\n        /* \"#utility.yul\":13366:13546   */\n    tag_503:\n        /* \"#utility.yul\":13414:13491   */\n      0x4e487b7100000000000000000000000000000000000000000000000000000000\n        /* \"#utility.yul\":13411:13412   */\n      0x00\n        /* \"#utility.yul\":13404:13492   */\n      mstore\n        /* \"#utility.yul\":13511:13515   */\n      0x11\n        /* \"#utility.yul\":13508:13509   */\n      0x04\n        /* \"#utility.yul\":13501:13516   */\n      mstore\n        /* \"#utility.yul\":13535:13539   */\n      0x24\n        /* \"#utility.yul\":13532:13533   */\n      0x00\n        /* \"#utility.yul\":13525:13540   */\n      revert\n        /* \"#utility.yul\":13552:13746   */\n    tag_251:\n        /* \"#utility.yul\":13592:13596   */\n      0x00\n        /* \"#utility.yul\":13612:13632   */\n      tag_683\n        /* \"#utility.yul\":13630:13631   */\n      dup3\n        /* \"#utility.yul\":13612:13632   */\n      tag_470\n      jump\t// in\n    tag_683:\n        /* \"#utility.yul\":13607:13632   */\n      swap2\n      pop\n        /* \"#utility.yul\":13646:13666   */\n      tag_684\n        /* \"#utility.yul\":13664:13665   */\n      dup4\n        /* \"#utility.yul\":13646:13666   */\n      tag_470\n      jump\t// in\n    tag_684:\n        /* \"#utility.yul\":13641:13666   */\n      swap3\n      pop\n        /* \"#utility.yul\":13690:13691   */\n      dup3\n        /* \"#utility.yul\":13687:13688   */\n      dup3\n        /* \"#utility.yul\":13683:13692   */\n      sub\n        /* \"#utility.yul\":13675:13692   */\n      swap1\n      pop\n        /* \"#utility.yul\":13714:13715   */\n      dup2\n        /* \"#utility.yul\":13708:13712   */\n      dup2\n        /* \"#utility.yul\":13705:13716   */\n      gt\n        /* \"#utility.yul\":13702:13739   */\n      iszero\n      tag_685\n      jumpi\n        /* \"#utility.yul\":13719:13737   */\n      tag_686\n      tag_503\n      jump\t// in\n    tag_686:\n        /* \"#utility.yul\":13702:13739   */\n    tag_685:\n        /* \"#utility.yul\":13552:13746   */\n      swap3\n      swap2\n      pop\n      pop\n      jump\t// out\n        /* \"#utility.yul\":13752:14084   */\n    tag_253:\n        /* \"#utility.yul\":13873:13877   */\n      0x00\n        /* \"#utility.yul\":13911:13913   */\n      0x40\n        /* \"#utility.yul\":13900:13909   */\n      dup3\n        /* \"#utility.yul\":13896:13914   */\n      add\n        /* \"#utility.yul\":13888:13914   */\n      swap1\n      pop\n        /* \"#utility.yul\":13924:13995   */\n      tag_688\n        /* \"#utility.yul\":13992:13993   */\n      0x00\n        /* \"#utility.yul\":13981:13990   */\n      dup4\n        /* \"#utility.yul\":13977:13994   */\n      add\n        /* \"#utility.yul\":13968:13974   */\n      dup6\n        /* \"#utility.yul\":13924:13995   */\n      tag_471\n      jump\t// in\n    tag_688:\n        /* \"#utility.yul\":14005:14077   */\n      tag_689\n        /* \"#utility.yul\":14073:14075   */\n      0x20\n        /* \"#utility.yul\":14062:14071   */\n      dup4\n        /* \"#utility.yul\":14058:14076   */\n      add\n        /* \"#utility.yul\":14049:14055   */\n      dup5\n        /* \"#utility.yul\":14005:14077   */\n      tag_471\n      jump\t// in\n    tag_689:\n        /* \"#utility.yul\":13752:14084   */\n      swap4\n      swap3\n      pop\n      pop\n      pop\n      jump\t// out\n        /* \"#utility.yul\":14090:14260   */\n    tag_504:\n        /* \"#utility.yul\":14230:14252   */\n      0x4e6f2066756e647320746f207769746864726177000000000000000000000000\n        /* \"#utility.yul\":14226:14227   */\n      0x00\n        /* \"#utility.yul\":14218:14224   */\n      dup3\n        /* \"#utility.yul\":14214:14228   */\n      add\n        /* \"#utility.yul\":14207:14253   */\n      mstore\n        /* \"#utility.yul\":14090:14260   */\n      pop\n      jump\t// out\n        /* \"#utility.yul\":14266:14632   */\n    tag_505:\n        /* \"#utility.yul\":14408:14411   */\n      0x00\n        /* \"#utility.yul\":14429:14496   */\n      tag_692\n        /* \"#utility.yul\":14493:14495   */\n      0x14\n        /* \"#utility.yul\":14488:14491   */\n      dup4\n        /* \"#utility.yul\":14429:14496   */\n      tag_487\n      jump\t// in\n    tag_692:\n        /* \"#utility.yul\":14422:14496   */\n      swap2\n      pop\n        /* \"#utility.yul\":14505:14598   */\n      tag_693\n        /* \"#utility.yul\":14594:14597   */\n      dup3\n        /* \"#utility.yul\":14505:14598   */\n      tag_504\n      jump\t// in\n    tag_693:\n        /* \"#utility.yul\":14623:14625   */\n      0x20\n        /* \"#utility.yul\":14618:14621   */\n      dup3\n        /* \"#utility.yul\":14614:14626   */\n      add\n        /* \"#utility.yul\":14607:14626   */\n      swap1\n      pop\n        /* \"#utility.yul\":14266:14632   */\n      swap2\n      swap1\n      pop\n      jump\t// out\n        /* \"#utility.yul\":14638:15057   */\n    tag_261:\n        /* \"#utility.yul\":14804:14808   */\n      0x00\n        /* \"#utility.yul\":14842:14844   */\n      0x20\n        /* \"#utility.yul\":14831:14840   */\n      dup3\n        /* \"#utility.yul\":14827:14845   */\n      add\n        /* \"#utility.yul\":14819:14845   */\n      swap1\n      pop\n        /* \"#utility.yul\":14891:14900   */\n      dup2\n        /* \"#utility.yul\":14885:14889   */\n      dup2\n        /* \"#utility.yul\":14881:14901   */\n      sub\n        /* \"#utility.yul\":14877:14878   */\n      0x00\n        /* \"#utility.yul\":14866:14875   */\n      dup4\n        /* \"#utility.yul\":14862:14879   */\n      add\n        /* \"#utility.yul\":14855:14902   */\n      mstore\n        /* \"#utility.yul\":14919:15050   */\n      tag_695\n        /* \"#utility.yul\":15045:15049   */\n      dup2\n        /* \"#utility.yul\":14919:15050   */\n      tag_505\n      jump\t// in\n    tag_695:\n        /* \"#utility.yul\":14911:15050   */\n      swap1\n      pop\n        /* \"#utility.yul\":14638:15057   */\n      swap2\n      swap1\n      pop\n      jump\t// out\n        /* \"#utility.yul\":15063:15210   */\n    tag_506:\n        /* \"#utility.yul\":15164:15175   */\n      0x00\n        /* \"#utility.yul\":15201:15204   */\n      dup2\n        /* \"#utility.yul\":15186:15204   */\n      swap1\n      pop\n        /* \"#utility.yul\":15063:15210   */\n      swap3\n      swap2\n      pop\n      pop\n      jump\t// out\n        /* \"#utility.yul\":15216:15330   */\n    tag_507:\n      pop\n      jump\t// out\n        /* \"#utility.yul\":15336:15734   */\n    tag_508:\n        /* \"#utility.yul\":15495:15498   */\n      0x00\n        /* \"#utility.yul\":15516:15599   */\n      tag_699\n        /* \"#utility.yul\":15597:15598   */\n      0x00\n        /* \"#utility.yul\":15592:15595   */\n      dup4\n        /* \"#utility.yul\":15516:15599   */\n      tag_506\n      jump\t// in\n    tag_699:\n        /* \"#utility.yul\":15509:15599   */\n      swap2\n      pop\n        /* \"#utility.yul\":15608:15701   */\n      tag_700\n        /* \"#utility.yul\":15697:15700   */\n      dup3\n        /* \"#utility.yul\":15608:15701   */\n      tag_507\n      jump\t// in\n    tag_700:\n        /* \"#utility.yul\":15726:15727   */\n      0x00\n        /* \"#utility.yul\":15721:15724   */\n      dup3\n        /* \"#utility.yul\":15717:15728   */\n      add\n        /* \"#utility.yul\":15710:15728   */\n      swap1\n      pop\n        /* \"#utility.yul\":15336:15734   */\n      swap2\n      swap1\n      pop\n      jump\t// out\n        /* \"#utility.yul\":15740:16119   */\n    tag_263:\n        /* \"#utility.yul\":15924:15927   */\n      0x00\n        /* \"#utility.yul\":15946:16093   */\n      tag_702\n        /* \"#utility.yul\":16089:16092   */\n      dup3\n        /* \"#utility.yul\":15946:16093   */\n      tag_508\n      jump\t// in\n    tag_702:\n        /* \"#utility.yul\":15939:16093   */\n      swap2\n      pop\n        /* \"#utility.yul\":16110:16113   */\n      dup2\n        /* \"#utility.yul\":16103:16113   */\n      swap1\n      pop\n        /* \"#utility.yul\":15740:16119   */\n      swap2\n      swap1\n      pop\n      jump\t// out\n        /* \"#utility.yul\":16125:16290   */\n    tag_509:\n        /* \"#utility.yul\":16265:16282   */\n      0x5472616e73666572206661696c65640000000000000000000000000000000000\n        /* \"#utility.yul\":16261:16262   */\n      0x00\n        /* \"#utility.yul\":16253:16259   */\n      dup3\n        /* \"#utility.yul\":16249:16263   */\n      add\n        /* \"#utility.yul\":16242:16283   */\n      mstore\n        /* \"#utility.yul\":16125:16290   */\n      pop\n      jump\t// out\n        /* \"#utility.yul\":16296:16662   */\n    tag_510:\n        /* \"#utility.yul\":16438:16441   */\n      0x00\n        /* \"#utility.yul\":16459:16526   */\n      tag_705\n        /* \"#utility.yul\":16523:16525   */\n      0x0f\n        /* \"#utility.yul\":16518:16521   */\n      dup4\n        /* \"#utility.yul\":16459:16526   */\n      tag_487\n      jump\t// in\n    tag_705:\n        /* \"#utility.yul\":16452:16526   */\n      swap2\n      pop\n        /* \"#utility.yul\":16535:16628   */\n      tag_706\n        /* \"#utility.yul\":16624:16627   */\n      dup3\n        /* \"#utility.yul\":16535:16628   */\n      tag_509\n      jump\t// in\n    tag_706:\n        /* \"#utility.yul\":16653:16655   */\n      0x20\n        /* \"#utility.yul\":16648:16651   */\n      dup3\n        /* \"#utility.yul\":16644:16656   */\n      add\n        /* \"#utility.yul\":16637:16656   */\n      swap1\n      pop\n        /* \"#utility.yul\":16296:16662   */\n      swap2\n      swap1\n      pop\n      jump\t// out\n        /* \"#utility.yul\":16668:17087   */\n    tag_269:\n        /* \"#utility.yul\":16834:16838   */\n      0x00\n        /* \"#utility.yul\":16872:16874   */\n      0x20\n        /* \"#utility.yul\":16861:16870   */\n      dup3\n        /* \"#utility.yul\":16857:16875   */\n      add\n        /* \"#utility.yul\":16849:16875   */\n      swap1\n      pop\n        /* \"#utility.yul\":16921:16930   */\n      dup2\n        /* \"#utility.yul\":16915:16919   */\n      dup2\n        /* \"#utility.yul\":16911:16931   */\n      sub\n        /* \"#utility.yul\":16907:16908   */\n      0x00\n        /* \"#utility.yul\":16896:16905   */\n      dup4\n        /* \"#utility.yul\":16892:16909   */\n      add\n        /* \"#utility.yul\":16885:16932   */\n      mstore\n        /* \"#utility.yul\":16949:17080   */\n      tag_708\n        /* \"#utility.yul\":17075:17079   */\n      dup2\n        /* \"#utility.yul\":16949:17080   */\n      tag_510\n      jump\t// in\n    tag_708:\n        /* \"#utility.yul\":16941:17080   */\n      swap1\n      pop\n        /* \"#utility.yul\":16668:17087   */\n      swap2\n      swap1\n      pop\n      jump\t// out\n        /* \"#utility.yul\":17093:17316   */\n    tag_511:\n        /* \"#utility.yul\":17233:17267   */\n      0x4f6e6c792072656e7465722063616e2070617920736563757269747920646570\n        /* \"#utility.yul\":17229:17230   */\n      0x00\n        /* \"#utility.yul\":17221:17227   */\n      dup3\n        /* \"#utility.yul\":17217:17231   */\n      add\n        /* \"#utility.yul\":17210:17268   */\n      mstore\n        /* \"#utility.yul\":17302:17308   */\n      0x6f73697400000000000000000000000000000000000000000000000000000000\n        /* \"#utility.yul\":17297:17299   */\n      0x20\n        /* \"#utility.yul\":17289:17295   */\n      dup3\n        /* \"#utility.yul\":17285:17300   */\n      add\n        /* \"#utility.yul\":17278:17309   */\n      mstore\n        /* \"#utility.yul\":17093:17316   */\n      pop\n      jump\t// out\n        /* \"#utility.yul\":17322:17688   */\n    tag_512:\n        /* \"#utility.yul\":17464:17467   */\n      0x00\n        /* \"#utility.yul\":17485:17552   */\n      tag_711\n        /* \"#utility.yul\":17549:17551   */\n      0x24\n        /* \"#utility.yul\":17544:17547   */\n      dup4\n        /* \"#utility.yul\":17485:17552   */\n      tag_487\n      jump\t// in\n    tag_711:\n        /* \"#utility.yul\":17478:17552   */\n      swap2\n      pop\n        /* \"#utility.yul\":17561:17654   */\n      tag_712\n        /* \"#utility.yul\":17650:17653   */\n      dup3\n        /* \"#utility.yul\":17561:17654   */\n      tag_511\n      jump\t// in\n    tag_712:\n        /* \"#utility.yul\":17679:17681   */\n      0x40\n        /* \"#utility.yul\":17674:17677   */\n      dup3\n        /* \"#utility.yul\":17670:17682   */\n      add\n        /* \"#utility.yul\":17663:17682   */\n      swap1\n      pop\n        /* \"#utility.yul\":17322:17688   */\n      swap2\n      swap1\n      pop\n      jump\t// out\n        /* \"#utility.yul\":17694:18113   */\n    tag_274:\n        /* \"#utility.yul\":17860:17864   */\n      0x00\n        /* \"#utility.yul\":17898:17900   */\n      0x20\n        /* \"#utility.yul\":17887:17896   */\n      dup3\n        /* \"#utility.yul\":17883:17901   */\n      add\n        /* \"#utility.yul\":17875:17901   */\n      swap1\n      pop\n        /* \"#utility.yul\":17947:17956   */\n      dup2\n        /* \"#utility.yul\":17941:17945   */\n      dup2\n        /* \"#utility.yul\":17937:17957   */\n      sub\n        /* \"#utility.yul\":17933:17934   */\n      0x00\n        /* \"#utility.yul\":17922:17931   */\n      dup4\n        /* \"#utility.yul\":17918:17935   */\n      add\n        /* \"#utility.yul\":17911:17958   */\n      mstore\n        /* \"#utility.yul\":17975:18106   */\n      tag_714\n        /* \"#utility.yul\":18101:18105   */\n      dup2\n        /* \"#utility.yul\":17975:18106   */\n      tag_512\n      jump\t// in\n    tag_714:\n        /* \"#utility.yul\":17967:18106   */\n      swap1\n      pop\n        /* \"#utility.yul\":17694:18113   */\n      swap2\n      swap1\n      pop\n      jump\t// out\n        /* \"#utility.yul\":18119:18295   */\n    tag_513:\n        /* \"#utility.yul\":18259:18287   */\n      0x436f6e747261637420697320616c726561647920616374697665000000000000\n        /* \"#utility.yul\":18255:18256   */\n      0x00\n        /* \"#utility.yul\":18247:18253   */\n      dup3\n        /* \"#utility.yul\":18243:18257   */\n      add\n        /* \"#utility.yul\":18236:18288   */\n      mstore\n        /* \"#utility.yul\":18119:18295   */\n      pop\n      jump\t// out\n        /* \"#utility.yul\":18301:18667   */\n    tag_514:\n        /* \"#utility.yul\":18443:18446   */\n      0x00\n        /* \"#utility.yul\":18464:18531   */\n      tag_717\n        /* \"#utility.yul\":18528:18530   */\n      0x1a\n        /* \"#utility.yul\":18523:18526   */\n      dup4\n        /* \"#utility.yul\":18464:18531   */\n      tag_487\n      jump\t// in\n    tag_717:\n        /* \"#utility.yul\":18457:18531   */\n      swap2\n      pop\n        /* \"#utility.yul\":18540:18633   */\n      tag_718\n        /* \"#utility.yul\":18629:18632   */\n      dup3\n        /* \"#utility.yul\":18540:18633   */\n      tag_513\n      jump\t// in\n    tag_718:\n        /* \"#utility.yul\":18658:18660   */\n      0x20\n        /* \"#utility.yul\":18653:18656   */\n      dup3\n        /* \"#utility.yul\":18649:18661   */\n      add\n        /* \"#utility.yul\":18642:18661   */\n      swap1\n      pop\n        /* \"#utility.yul\":18301:18667   */\n      swap2\n      swap1\n      pop\n      jump\t// out\n        /* \"#utility.yul\":18673:19092   */\n    tag_277:\n        /* \"#utility.yul\":18839:18843   */\n      0x00\n        /* \"#utility.yul\":18877:18879   */\n      0x20\n        /* \"#utility.yul\":18866:18875   */\n      dup3\n        /* \"#utility.yul\":18862:18880   */\n      add\n        /* \"#utility.yul\":18854:18880   */\n      swap1\n      pop\n        /* \"#utility.yul\":18926:18935   */\n      dup2\n        /* \"#utility.yul\":18920:18924   */\n      dup2\n        /* \"#utility.yul\":18916:18936   */\n      sub\n        /* \"#utility.yul\":18912:18913   */\n      0x00\n        /* \"#utility.yul\":18901:18910   */\n      dup4\n        /* \"#utility.yul\":18897:18914   */\n      add\n        /* \"#utility.yul\":18890:18937   */\n      mstore\n        /* \"#utility.yul\":18954:19085   */\n      tag_720\n        /* \"#utility.yul\":19080:19084   */\n      dup2\n        /* \"#utility.yul\":18954:19085   */\n      tag_514\n      jump\t// in\n    tag_720:\n        /* \"#utility.yul\":18946:19085   */\n      swap1\n      pop\n        /* \"#utility.yul\":18673:19092   */\n      swap2\n      swap1\n      pop\n      jump\t// out\n        /* \"#utility.yul\":19098:19318   */\n    tag_515:\n        /* \"#utility.yul\":19238:19272   */\n      0x496e636f7272656374207365637572697479206465706f73697420616d6f756e\n        /* \"#utility.yul\":19234:19235   */\n      0x00\n        /* \"#utility.yul\":19226:19232   */\n      dup3\n        /* \"#utility.yul\":19222:19236   */\n      add\n        /* \"#utility.yul\":19215:19273   */\n      mstore\n        /* \"#utility.yul\":19307:19310   */\n      0x7400000000000000000000000000000000000000000000000000000000000000\n        /* \"#utility.yul\":19302:19304   */\n      0x20\n        /* \"#utility.yul\":19294:19300   */\n      dup3\n        /* \"#utility.yul\":19290:19305   */\n      add\n        /* \"#utility.yul\":19283:19311   */\n      mstore\n        /* \"#utility.yul\":19098:19318   */\n      pop\n      jump\t// out\n        /* \"#utility.yul\":19324:19690   */\n    tag_516:\n        /* \"#utility.yul\":19466:19469   */\n      0x00\n        /* \"#utility.yul\":19487:19554   */\n      tag_723\n        /* \"#utility.yul\":19551:19553   */\n      0x21\n        /* \"#utility.yul\":19546:19549   */\n      dup4\n        /* \"#utility.yul\":19487:19554   */\n      tag_487\n      jump\t// in\n    tag_723:\n        /* \"#utility.yul\":19480:19554   */\n      swap2\n      pop\n        /* \"#utility.yul\":19563:19656   */\n      tag_724\n        /* \"#utility.yul\":19652:19655   */\n      dup3\n        /* \"#utility.yul\":19563:19656   */\n      tag_515\n      jump\t// in\n    tag_724:\n        /* \"#utility.yul\":19681:19683   */\n      0x40\n        /* \"#utility.yul\":19676:19679   */\n      dup3\n        /* \"#utility.yul\":19672:19684   */\n      add\n        /* \"#utility.yul\":19665:19684   */\n      swap1\n      pop\n        /* \"#utility.yul\":19324:19690   */\n      swap2\n      swap1\n      pop\n      jump\t// out\n        /* \"#utility.yul\":19696:20115   */\n    tag_280:\n        /* \"#utility.yul\":19862:19866   */\n      0x00\n        /* \"#utility.yul\":19900:19902   */\n      0x20\n        /* \"#utility.yul\":19889:19898   */\n      dup3\n        /* \"#utility.yul\":19885:19903   */\n      add\n        /* \"#utility.yul\":19877:19903   */\n      swap1\n      pop\n        /* \"#utility.yul\":19949:19958   */\n      dup2\n        /* \"#utility.yul\":19943:19947   */\n      dup2\n        /* \"#utility.yul\":19939:19959   */\n      sub\n        /* \"#utility.yul\":19935:19936   */\n      0x00\n        /* \"#utility.yul\":19924:19933   */\n      dup4\n        /* \"#utility.yul\":19920:19937   */\n      add\n        /* \"#utility.yul\":19913:19960   */\n      mstore\n        /* \"#utility.yul\":19977:20108   */\n      tag_726\n        /* \"#utility.yul\":20103:20107   */\n      dup2\n        /* \"#utility.yul\":19977:20108   */\n      tag_516\n      jump\t// in\n    tag_726:\n        /* \"#utility.yul\":19969:20108   */\n      swap1\n      pop\n        /* \"#utility.yul\":19696:20115   */\n      swap2\n      swap1\n      pop\n      jump\t// out\n        /* \"#utility.yul\":20121:20342   */\n    tag_517:\n        /* \"#utility.yul\":20261:20295   */\n      0x4f6e6c79206c616e646c6f72642063616e207265636f7264207574696c697469\n        /* \"#utility.yul\":20257:20258   */\n      0x00\n        /* \"#utility.yul\":20249:20255   */\n      dup3\n        /* \"#utility.yul\":20245:20259   */\n      add\n        /* \"#utility.yul\":20238:20296   */\n      mstore\n        /* \"#utility.yul\":20330:20334   */\n      0x6573000000000000000000000000000000000000000000000000000000000000\n        /* \"#utility.yul\":20325:20327   */\n      0x20\n        /* \"#utility.yul\":20317:20323   */\n      dup3\n        /* \"#utility.yul\":20313:20328   */\n      add\n        /* \"#utility.yul\":20306:20335   */\n      mstore\n        /* \"#utility.yul\":20121:20342   */\n      pop\n      jump\t// out\n        /* \"#utility.yul\":20348:20714   */\n    tag_518:\n        /* \"#utility.yul\":20490:20493   */\n      0x00\n        /* \"#utility.yul\":20511:20578   */\n      tag_729\n        /* \"#utility.yul\":20575:20577   */\n      0x22\n        /* \"#utility.yul\":20570:20573   */\n      dup4\n        /* \"#utility.yul\":20511:20578   */\n      tag_487\n      jump\t// in\n    tag_729:\n        /* \"#utility.yul\":20504:20578   */\n      swap2\n      pop\n        /* \"#utility.yul\":20587:20680   */\n      tag_730\n        /* \"#utility.yul\":20676:20679   */\n      dup3\n        /* \"#utility.yul\":20587:20680   */\n      tag_517\n      jump\t// in\n    tag_730:\n        /* \"#utility.yul\":20705:20707   */\n      0x40\n        /* \"#utility.yul\":20700:20703   */\n      dup3\n        /* \"#utility.yul\":20696:20708   */\n      add\n        /* \"#utility.yul\":20689:20708   */\n      swap1\n      pop\n        /* \"#utility.yul\":20348:20714   */\n      swap2\n      swap1\n      pop\n      jump\t// out\n        /* \"#utility.yul\":20720:21139   */\n    tag_292:\n        /* \"#utility.yul\":20886:20890   */\n      0x00\n        /* \"#utility.yul\":20924:20926   */\n      0x20\n        /* \"#utility.yul\":20913:20922   */\n      dup3\n        /* \"#utility.yul\":20909:20927   */\n      add\n        /* \"#utility.yul\":20901:20927   */\n      swap1\n      pop\n        /* \"#utility.yul\":20973:20982   */\n      dup2\n        /* \"#utility.yul\":20967:20971   */\n      dup2\n        /* \"#utility.yul\":20963:20983   */\n      sub\n        /* \"#utility.yul\":20959:20960   */\n      0x00\n        /* \"#utility.yul\":20948:20957   */\n      dup4\n        /* \"#utility.yul\":20944:20961   */\n      add\n        /* \"#utility.yul\":20937:20984   */\n      mstore\n        /* \"#utility.yul\":21001:21132   */\n      tag_732\n        /* \"#utility.yul\":21127:21131   */\n      dup2\n        /* \"#utility.yul\":21001:21132   */\n      tag_518\n      jump\t// in\n    tag_732:\n        /* \"#utility.yul\":20993:21132   */\n      swap1\n      pop\n        /* \"#utility.yul\":20720:21139   */\n      swap2\n      swap1\n      pop\n      jump\t// out\n        /* \"#utility.yul\":21145:21316   */\n    tag_519:\n        /* \"#utility.yul\":21285:21308   */\n      0x52656e7420706572696f642068617320656e6465640000000000000000000000\n        /* \"#utility.yul\":21281:21282   */\n      0x00\n        /* \"#utility.yul\":21273:21279   */\n      dup3\n        /* \"#utility.yul\":21269:21283   */\n      add\n        /* \"#utility.yul\":21262:21309   */\n      mstore\n        /* \"#utility.yul\":21145:21316   */\n      pop\n      jump\t// out\n        /* \"#utility.yul\":21322:21688   */\n    tag_520:\n        /* \"#utility.yul\":21464:21467   */\n      0x00\n        /* \"#utility.yul\":21485:21552   */\n      tag_735\n        /* \"#utility.yul\":21549:21551   */\n      0x15\n        /* \"#utility.yul\":21544:21547   */\n      dup4\n        /* \"#utility.yul\":21485:21552   */\n      tag_487\n      jump\t// in\n    tag_735:\n        /* \"#utility.yul\":21478:21552   */\n      swap2\n      pop\n        /* \"#utility.yul\":21561:21654   */\n      tag_736\n        /* \"#utility.yul\":21650:21653   */\n      dup3\n        /* \"#utility.yul\":21561:21654   */\n      tag_519\n      jump\t// in\n    tag_736:\n        /* \"#utility.yul\":21679:21681   */\n      0x20\n        /* \"#utility.yul\":21674:21677   */\n      dup3\n        /* \"#utility.yul\":21670:21682   */\n      add\n        /* \"#utility.yul\":21663:21682   */\n      swap1\n      pop\n        /* \"#utility.yul\":21322:21688   */\n      swap2\n      swap1\n      pop\n      jump\t// out\n        /* \"#utility.yul\":21694:22113   */\n    tag_297:\n        /* \"#utility.yul\":21860:21864   */\n      0x00\n        /* \"#utility.yul\":21898:21900   */\n      0x20\n        /* \"#utility.yul\":21887:21896   */\n      dup3\n        /* \"#utility.yul\":21883:21901   */\n      add\n        /* \"#utility.yul\":21875:21901   */\n      swap1\n      pop\n        /* \"#utility.yul\":21947:21956   */\n      dup2\n        /* \"#utility.yul\":21941:21945   */\n      dup2\n        /* \"#utility.yul\":21937:21957   */\n      sub\n        /* \"#utility.yul\":21933:21934   */\n      0x00\n        /* \"#utility.yul\":21922:21931   */\n      dup4\n        /* \"#utility.yul\":21918:21935   */\n      add\n        /* \"#utility.yul\":21911:21958   */\n      mstore\n        /* \"#utility.yul\":21975:22106   */\n      tag_738\n        /* \"#utility.yul\":22101:22105   */\n      dup2\n        /* \"#utility.yul\":21975:22106   */\n      tag_520\n      jump\t// in\n    tag_738:\n        /* \"#utility.yul\":21967:22106   */\n      swap1\n      pop\n        /* \"#utility.yul\":21694:22113   */\n      swap2\n      swap1\n      pop\n      jump\t// out\n        /* \"#utility.yul\":22119:22293   */\n    tag_521:\n        /* \"#utility.yul\":22259:22285   */\n      0x4f6e6c792072656e7465722063616e207061792072656e740000000000000000\n        /* \"#utility.yul\":22255:22256   */\n      0x00\n        /* \"#utility.yul\":22247:22253   */\n      dup3\n        /* \"#utility.yul\":22243:22257   */\n      add\n        /* \"#utility.yul\":22236:22286   */\n      mstore\n        /* \"#utility.yul\":22119:22293   */\n      pop\n      jump\t// out\n        /* \"#utility.yul\":22299:22665   */\n    tag_522:\n        /* \"#utility.yul\":22441:22444   */\n      0x00\n        /* \"#utility.yul\":22462:22529   */\n      tag_741\n        /* \"#utility.yul\":22526:22528   */\n      0x18\n        /* \"#utility.yul\":22521:22524   */\n      dup4\n        /* \"#utility.yul\":22462:22529   */\n      tag_487\n      jump\t// in\n    tag_741:\n        /* \"#utility.yul\":22455:22529   */\n      swap2\n      pop\n        /* \"#utility.yul\":22538:22631   */\n      tag_742\n        /* \"#utility.yul\":22627:22630   */\n      dup3\n        /* \"#utility.yul\":22538:22631   */\n      tag_521\n      jump\t// in\n    tag_742:\n        /* \"#utility.yul\":22656:22658   */\n      0x20\n        /* \"#utility.yul\":22651:22654   */\n      dup3\n        /* \"#utility.yul\":22647:22659   */\n      add\n        /* \"#utility.yul\":22640:22659   */\n      swap1\n      pop\n        /* \"#utility.yul\":22299:22665   */\n      swap2\n      swap1\n      pop\n      jump\t// out\n        /* \"#utility.yul\":22671:23090   */\n    tag_302:\n        /* \"#utility.yul\":22837:22841   */\n      0x00\n        /* \"#utility.yul\":22875:22877   */\n      0x20\n        /* \"#utility.yul\":22864:22873   */\n      dup3\n        /* \"#utility.yul\":22860:22878   */\n      add\n        /* \"#utility.yul\":22852:22878   */\n      swap1\n      pop\n        /* \"#utility.yul\":22924:22933   */\n      dup2\n        /* \"#utility.yul\":22918:22922   */\n      dup2\n        /* \"#utility.yul\":22914:22934   */\n      sub\n        /* \"#utility.yul\":22910:22911   */\n      0x00\n        /* \"#utility.yul\":22899:22908   */\n      dup4\n        /* \"#utility.yul\":22895:22912   */\n      add\n        /* \"#utility.yul\":22888:22935   */\n      mstore\n        /* \"#utility.yul\":22952:23083   */\n      tag_744\n        /* \"#utility.yul\":23078:23082   */\n      dup2\n        /* \"#utility.yul\":22952:23083   */\n      tag_522\n      jump\t// in\n    tag_744:\n        /* \"#utility.yul\":22944:23083   */\n      swap1\n      pop\n        /* \"#utility.yul\":22671:23090   */\n      swap2\n      swap1\n      pop\n      jump\t// out\n        /* \"#utility.yul\":23096:23324   */\n    tag_523:\n        /* \"#utility.yul\":23236:23270   */\n      0x52656e7420666f722074686973206d6f6e74682068617320616c726561647920\n        /* \"#utility.yul\":23232:23233   */\n      0x00\n        /* \"#utility.yul\":23224:23230   */\n      dup3\n        /* \"#utility.yul\":23220:23234   */\n      add\n        /* \"#utility.yul\":23213:23271   */\n      mstore\n        /* \"#utility.yul\":23305:23316   */\n      0x6265656e20706169640000000000000000000000000000000000000000000000\n        /* \"#utility.yul\":23300:23302   */\n      0x20\n        /* \"#utility.yul\":23292:23298   */\n      dup3\n        /* \"#utility.yul\":23288:23303   */\n      add\n        /* \"#utility.yul\":23281:23317   */\n      mstore\n        /* \"#utility.yul\":23096:23324   */\n      pop\n      jump\t// out\n        /* \"#utility.yul\":23330:23696   */\n    tag_524:\n        /* \"#utility.yul\":23472:23475   */\n      0x00\n        /* \"#utility.yul\":23493:23560   */\n      tag_747\n        /* \"#utility.yul\":23557:23559   */\n      0x29\n        /* \"#utility.yul\":23552:23555   */\n      dup4\n        /* \"#utility.yul\":23493:23560   */\n      tag_487\n      jump\t// in\n    tag_747:\n        /* \"#utility.yul\":23486:23560   */\n      swap2\n      pop\n        /* \"#utility.yul\":23569:23662   */\n      tag_748\n        /* \"#utility.yul\":23658:23661   */\n      dup3\n        /* \"#utility.yul\":23569:23662   */\n      tag_523\n      jump\t// in\n    tag_748:\n        /* \"#utility.yul\":23687:23689   */\n      0x40\n        /* \"#utility.yul\":23682:23685   */\n      dup3\n        /* \"#utility.yul\":23678:23690   */\n      add\n        /* \"#utility.yul\":23671:23690   */\n      swap1\n      pop\n        /* \"#utility.yul\":23330:23696   */\n      swap2\n      swap1\n      pop\n      jump\t// out\n        /* \"#utility.yul\":23702:24121   */\n    tag_309:\n        /* \"#utility.yul\":23868:23872   */\n      0x00\n        /* \"#utility.yul\":23906:23908   */\n      0x20\n        /* \"#utility.yul\":23895:23904   */\n      dup3\n        /* \"#utility.yul\":23891:23909   */\n      add\n        /* \"#utility.yul\":23883:23909   */\n      swap1\n      pop\n        /* \"#utility.yul\":23955:23964   */\n      dup2\n        /* \"#utility.yul\":23949:23953   */\n      dup2\n        /* \"#utility.yul\":23945:23965   */\n      sub\n        /* \"#utility.yul\":23941:23942   */\n      0x00\n        /* \"#utility.yul\":23930:23939   */\n      dup4\n        /* \"#utility.yul\":23926:23943   */\n      add\n        /* \"#utility.yul\":23919:23966   */\n      mstore\n        /* \"#utility.yul\":23983:24114   */\n      tag_750\n        /* \"#utility.yul\":24109:24113   */\n      dup2\n        /* \"#utility.yul\":23983:24114   */\n      tag_524\n      jump\t// in\n    tag_750:\n        /* \"#utility.yul\":23975:24114   */\n      swap1\n      pop\n        /* \"#utility.yul\":23702:24121   */\n      swap2\n      swap1\n      pop\n      jump\t// out\n        /* \"#utility.yul\":24127:24361   */\n    tag_525:\n        /* \"#utility.yul\":24267:24301   */\n      0x5574696c697469657320666f722074686973206d6f6e74682068617665206e6f\n        /* \"#utility.yul\":24263:24264   */\n      0x00\n        /* \"#utility.yul\":24255:24261   */\n      dup3\n        /* \"#utility.yul\":24251:24265   */\n      add\n        /* \"#utility.yul\":24244:24302   */\n      mstore\n        /* \"#utility.yul\":24336:24353   */\n      0x74206265656e207265636f726465640000000000000000000000000000000000\n        /* \"#utility.yul\":24331:24333   */\n      0x20\n        /* \"#utility.yul\":24323:24329   */\n      dup3\n        /* \"#utility.yul\":24319:24334   */\n      add\n        /* \"#utility.yul\":24312:24354   */\n      mstore\n        /* \"#utility.yul\":24127:24361   */\n      pop\n      jump\t// out\n        /* \"#utility.yul\":24367:24733   */\n    tag_526:\n        /* \"#utility.yul\":24509:24512   */\n      0x00\n        /* \"#utility.yul\":24530:24597   */\n      tag_753\n        /* \"#utility.yul\":24594:24596   */\n      0x2f\n        /* \"#utility.yul\":24589:24592   */\n      dup4\n        /* \"#utility.yul\":24530:24597   */\n      tag_487\n      jump\t// in\n    tag_753:\n        /* \"#utility.yul\":24523:24597   */\n      swap2\n      pop\n        /* \"#utility.yul\":24606:24699   */\n      tag_754\n        /* \"#utility.yul\":24695:24698   */\n      dup3\n        /* \"#utility.yul\":24606:24699   */\n      tag_525\n      jump\t// in\n    tag_754:\n        /* \"#utility.yul\":24724:24726   */\n      0x40\n        /* \"#utility.yul\":24719:24722   */\n      dup3\n        /* \"#utility.yul\":24715:24727   */\n      add\n        /* \"#utility.yul\":24708:24727   */\n      swap1\n      pop\n        /* \"#utility.yul\":24367:24733   */\n      swap2\n      swap1\n      pop\n      jump\t// out\n        /* \"#utility.yul\":24739:25158   */\n    tag_312:\n        /* \"#utility.yul\":24905:24909   */\n      0x00\n        /* \"#utility.yul\":24943:24945   */\n      0x20\n        /* \"#utility.yul\":24932:24941   */\n      dup3\n        /* \"#utility.yul\":24928:24946   */\n      add\n        /* \"#utility.yul\":24920:24946   */\n      swap1\n      pop\n        /* \"#utility.yul\":24992:25001   */\n      dup2\n        /* \"#utility.yul\":24986:24990   */\n      dup2\n        /* \"#utility.yul\":24982:25002   */\n      sub\n        /* \"#utility.yul\":24978:24979   */\n      0x00\n        /* \"#utility.yul\":24967:24976   */\n      dup4\n        /* \"#utility.yul\":24963:24980   */\n      add\n        /* \"#utility.yul\":24956:25003   */\n      mstore\n        /* \"#utility.yul\":25020:25151   */\n      tag_756\n        /* \"#utility.yul\":25146:25150   */\n      dup2\n        /* \"#utility.yul\":25020:25151   */\n      tag_526\n      jump\t// in\n    tag_756:\n        /* \"#utility.yul\":25012:25151   */\n      swap1\n      pop\n        /* \"#utility.yul\":24739:25158   */\n      swap2\n      swap1\n      pop\n      jump\t// out\n        /* \"#utility.yul\":25164:25355   */\n    tag_314:\n        /* \"#utility.yul\":25204:25207   */\n      0x00\n        /* \"#utility.yul\":25223:25243   */\n      tag_758\n        /* \"#utility.yul\":25241:25242   */\n      dup3\n        /* \"#utility.yul\":25223:25243   */\n      tag_470\n      jump\t// in\n    tag_758:\n        /* \"#utility.yul\":25218:25243   */\n      swap2\n      pop\n        /* \"#utility.yul\":25257:25277   */\n      tag_759\n        /* \"#utility.yul\":25275:25276   */\n      dup4\n        /* \"#utility.yul\":25257:25277   */\n      tag_470\n      jump\t// in\n    tag_759:\n        /* \"#utility.yul\":25252:25277   */\n      swap3\n      pop\n        /* \"#utility.yul\":25300:25301   */\n      dup3\n        /* \"#utility.yul\":25297:25298   */\n      dup3\n        /* \"#utility.yul\":25293:25302   */\n      add\n        /* \"#utility.yul\":25286:25302   */\n      swap1\n      pop\n        /* \"#utility.yul\":25321:25324   */\n      dup1\n        /* \"#utility.yul\":25318:25319   */\n      dup3\n        /* \"#utility.yul\":25315:25325   */\n      gt\n        /* \"#utility.yul\":25312:25348   */\n      iszero\n      tag_760\n      jumpi\n        /* \"#utility.yul\":25328:25346   */\n      tag_761\n      tag_503\n      jump\t// in\n    tag_761:\n        /* \"#utility.yul\":25312:25348   */\n    tag_760:\n        /* \"#utility.yul\":25164:25355   */\n      swap3\n      swap2\n      pop\n      pop\n      jump\t// out\n        /* \"#utility.yul\":25361:25532   */\n    tag_527:\n        /* \"#utility.yul\":25501:25524   */\n      0x496e636f72726563742072656e7420616d6f756e740000000000000000000000\n        /* \"#utility.yul\":25497:25498   */\n      0x00\n        /* \"#utility.yul\":25489:25495   */\n      dup3\n        /* \"#utility.yul\":25485:25499   */\n      add\n        /* \"#utility.yul\":25478:25525   */\n      mstore\n        /* \"#utility.yul\":25361:25532   */\n      pop\n      jump\t// out\n        /* \"#utility.yul\":25538:25904   */\n    tag_528:\n        /* \"#utility.yul\":25680:25683   */\n      0x00\n        /* \"#utility.yul\":25701:25768   */\n      tag_764\n        /* \"#utility.yul\":25765:25767   */\n      0x15\n        /* \"#utility.yul\":25760:25763   */\n      dup4\n        /* \"#utility.yul\":25701:25768   */\n      tag_487\n      jump\t// in\n    tag_764:\n        /* \"#utility.yul\":25694:25768   */\n      swap2\n      pop\n        /* \"#utility.yul\":25777:25870   */\n      tag_765\n        /* \"#utility.yul\":25866:25869   */\n      dup3\n        /* \"#utility.yul\":25777:25870   */\n      tag_527\n      jump\t// in\n    tag_765:\n        /* \"#utility.yul\":25895:25897   */\n      0x20\n        /* \"#utility.yul\":25890:25893   */\n      dup3\n        /* \"#utility.yul\":25886:25898   */\n      add\n        /* \"#utility.yul\":25879:25898   */\n      swap1\n      pop\n        /* \"#utility.yul\":25538:25904   */\n      swap2\n      swap1\n      pop\n      jump\t// out\n        /* \"#utility.yul\":25910:26329   */\n    tag_318:\n        /* \"#utility.yul\":26076:26080   */\n      0x00\n        /* \"#utility.yul\":26114:26116   */\n      0x20\n        /* \"#utility.yul\":26103:26112   */\n      dup3\n        /* \"#utility.yul\":26099:26117   */\n      add\n        /* \"#utility.yul\":26091:26117   */\n      swap1\n      pop\n        /* \"#utility.yul\":26163:26172   */\n      dup2\n        /* \"#utility.yul\":26157:26161   */\n      dup2\n        /* \"#utility.yul\":26153:26173   */\n      sub\n        /* \"#utility.yul\":26149:26150   */\n      0x00\n        /* \"#utility.yul\":26138:26147   */\n      dup4\n        /* \"#utility.yul\":26134:26151   */\n      add\n        /* \"#utility.yul\":26127:26174   */\n      mstore\n        /* \"#utility.yul\":26191:26322   */\n      tag_767\n        /* \"#utility.yul\":26317:26321   */\n      dup2\n        /* \"#utility.yul\":26191:26322   */\n      tag_528\n      jump\t// in\n    tag_767:\n        /* \"#utility.yul\":26183:26322   */\n      swap1\n      pop\n        /* \"#utility.yul\":25910:26329   */\n      swap2\n      swap1\n      pop\n      jump\t// out\n        /* \"#utility.yul\":26335:26568   */\n    tag_325:\n        /* \"#utility.yul\":26374:26377   */\n      0x00\n        /* \"#utility.yul\":26397:26421   */\n      tag_769\n        /* \"#utility.yul\":26415:26420   */\n      dup3\n        /* \"#utility.yul\":26397:26421   */\n      tag_470\n      jump\t// in\n    tag_769:\n        /* \"#utility.yul\":26388:26421   */\n      swap2\n      pop\n        /* \"#utility.yul\":26443:26509   */\n      0xffffffffffffffffffffffffffffffffffffffffffffffffffffffffffffffff\n        /* \"#utility.yul\":26436:26441   */\n      dup3\n        /* \"#utility.yul\":26433:26510   */\n      sub\n        /* \"#utility.yul\":26430:26533   */\n      tag_770\n      jumpi\n        /* \"#utility.yul\":26513:26531   */\n      tag_771\n      tag_503\n      jump\t// in\n    tag_771:\n        /* \"#utility.yul\":26430:26533   */\n    tag_770:\n        /* \"#utility.yul\":26560:26561   */\n      0x01\n        /* \"#utility.yul\":26553:26558   */\n      dup3\n        /* \"#utility.yul\":26549:26562   */\n      add\n        /* \"#utility.yul\":26542:26562   */\n      swap1\n      pop\n        /* \"#utility.yul\":26335:26568   */\n      swap2\n      swap1\n      pop\n      jump\t// out\n        /* \"#utility.yul\":26574:26814   */\n    tag_529:\n        /* \"#utility.yul\":26714:26748   */\n      0x4f6e6c79206c616e646c6f72642063616e20696e697469616c697a6520637572\n        /* \"#utility.yul\":26710:26711   */\n      0x00\n        /* \"#utility.yul\":26702:26708   */\n      dup3\n        /* \"#utility.yul\":26698:26712   */\n      add\n        /* \"#utility.yul\":26691:26749   */\n      mstore\n        /* \"#utility.yul\":26783:26806   */\n      0x72656e74207365637572697479206465706f7369740000000000000000000000\n        /* \"#utility.yul\":26778:26780   */\n      0x20\n        /* \"#utility.yul\":26770:26776   */\n      dup3\n        /* \"#utility.yul\":26766:26781   */\n      add\n        /* \"#utility.yul\":26759:26807   */\n      mstore\n        /* \"#utility.yul\":26574:26814   */\n      pop\n      jump\t// out\n        /* \"#utility.yul\":26820:27186   */\n    tag_530:\n        /* \"#utility.yul\":26962:26965   */\n      0x00\n        /* \"#utility.yul\":26983:27050   */\n      tag_774\n        /* \"#utility.yul\":27047:27049   */\n      0x35\n        /* \"#utility.yul\":27042:27045   */\n      dup4\n        /* \"#utility.yul\":26983:27050   */\n      tag_487\n      jump\t// in\n    tag_774:\n        /* \"#utility.yul\":26976:27050   */\n      swap2\n      pop\n        /* \"#utility.yul\":27059:27152   */\n      tag_775\n        /* \"#utility.yul\":27148:27151   */\n      dup3\n        /* \"#utility.yul\":27059:27152   */\n      tag_529\n      jump\t// in\n    tag_775:\n        /* \"#utility.yul\":27177:27179   */\n      0x40\n        /* \"#utility.yul\":27172:27175   */\n      dup3\n        /* \"#utility.yul\":27168:27180   */\n      add\n        /* \"#utility.yul\":27161:27180   */\n      swap1\n      pop\n        /* \"#utility.yul\":26820:27186   */\n      swap2\n      swap1\n      pop\n      jump\t// out\n        /* \"#utility.yul\":27192:27611   */\n    tag_329:\n        /* \"#utility.yul\":27358:27362   */\n      0x00\n        /* \"#utility.yul\":27396:27398   */\n      0x20\n        /* \"#utility.yul\":27385:27394   */\n      dup3\n        /* \"#utility.yul\":27381:27399   */\n      add\n        /* \"#utility.yul\":27373:27399   */\n      swap1\n      pop\n        /* \"#utility.yul\":27445:27454   */\n      dup2\n        /* \"#utility.yul\":27439:27443   */\n      dup2\n        /* \"#utility.yul\":27435:27455   */\n      sub\n        /* \"#utility.yul\":27431:27432   */\n      0x00\n        /* \"#utility.yul\":27420:27429   */\n      dup4\n        /* \"#utility.yul\":27416:27433   */\n      add\n        /* \"#utility.yul\":27409:27456   */\n      mstore\n        /* \"#utility.yul\":27473:27604   */\n      tag_777\n        /* \"#utility.yul\":27599:27603   */\n      dup2\n        /* \"#utility.yul\":27473:27604   */\n      tag_530\n      jump\t// in\n    tag_777:\n        /* \"#utility.yul\":27465:27604   */\n      swap1\n      pop\n        /* \"#utility.yul\":27192:27611   */\n      swap2\n      swap1\n      pop\n      jump\t// out\n        /* \"#utility.yul\":27617:27790   */\n    tag_531:\n        /* \"#utility.yul\":27757:27782   */\n      0x436f6e7472616374206d75737420626520616374697665000000000000000000\n        /* \"#utility.yul\":27753:27754   */\n      0x00\n        /* \"#utility.yul\":27745:27751   */\n      dup3\n        /* \"#utility.yul\":27741:27755   */\n      add\n        /* \"#utility.yul\":27734:27783   */\n      mstore\n        /* \"#utility.yul\":27617:27790   */\n      pop\n      jump\t// out\n        /* \"#utility.yul\":27796:28162   */\n    tag_532:\n        /* \"#utility.yul\":27938:27941   */\n      0x00\n        /* \"#utility.yul\":27959:28026   */\n      tag_780\n        /* \"#utility.yul\":28023:28025   */\n      0x17\n        /* \"#utility.yul\":28018:28021   */\n      dup4\n        /* \"#utility.yul\":27959:28026   */\n      tag_487\n      jump\t// in\n    tag_780:\n        /* \"#utility.yul\":27952:28026   */\n      swap2\n      pop\n        /* \"#utility.yul\":28035:28128   */\n      tag_781\n        /* \"#utility.yul\":28124:28127   */\n      dup3\n        /* \"#utility.yul\":28035:28128   */\n      tag_531\n      jump\t// in\n    tag_781:\n        /* \"#utility.yul\":28153:28155   */\n      0x20\n        /* \"#utility.yul\":28148:28151   */\n      dup3\n        /* \"#utility.yul\":28144:28156   */\n      add\n        /* \"#utility.yul\":28137:28156   */\n      swap1\n      pop\n        /* \"#utility.yul\":27796:28162   */\n      swap2\n      swap1\n      pop\n      jump\t// out\n        /* \"#utility.yul\":28168:28587   */\n    tag_332:\n        /* \"#utility.yul\":28334:28338   */\n      0x00\n        /* \"#utility.yul\":28372:28374   */\n      0x20\n        /* \"#utility.yul\":28361:28370   */\n      dup3\n        /* \"#utility.yul\":28357:28375   */\n      add\n        /* \"#utility.yul\":28349:28375   */\n      swap1\n      pop\n        /* \"#utility.yul\":28421:28430   */\n      dup2\n        /* \"#utility.yul\":28415:28419   */\n      dup2\n        /* \"#utility.yul\":28411:28431   */\n      sub\n        /* \"#utility.yul\":28407:28408   */\n      0x00\n        /* \"#utility.yul\":28396:28405   */\n      dup4\n        /* \"#utility.yul\":28392:28409   */\n      add\n        /* \"#utility.yul\":28385:28432   */\n      mstore\n        /* \"#utility.yul\":28449:28580   */\n      tag_783\n        /* \"#utility.yul\":28575:28579   */\n      dup2\n        /* \"#utility.yul\":28449:28580   */\n      tag_532\n      jump\t// in\n    tag_783:\n        /* \"#utility.yul\":28441:28580   */\n      swap1\n      pop\n        /* \"#utility.yul\":28168:28587   */\n      swap2\n      swap1\n      pop\n      jump\t// out\n        /* \"#utility.yul\":28593:28824   */\n    tag_533:\n        /* \"#utility.yul\":28733:28767   */\n      0x43757272656e74207365637572697479206465706f73697420616c7265616479\n        /* \"#utility.yul\":28729:28730   */\n      0x00\n        /* \"#utility.yul\":28721:28727   */\n      dup3\n        /* \"#utility.yul\":28717:28731   */\n      add\n        /* \"#utility.yul\":28710:28768   */\n      mstore\n        /* \"#utility.yul\":28802:28816   */\n      0x20696e697469616c697a65640000000000000000000000000000000000000000\n        /* \"#utility.yul\":28797:28799   */\n      0x20\n        /* \"#utility.yul\":28789:28795   */\n      dup3\n        /* \"#utility.yul\":28785:28800   */\n      add\n        /* \"#utility.yul\":28778:28817   */\n      mstore\n        /* \"#utility.yul\":28593:28824   */\n      pop\n      jump\t// out\n        /* \"#utility.yul\":28830:29196   */\n    tag_534:\n        /* \"#utility.yul\":28972:28975   */\n      0x00\n        /* \"#utility.yul\":28993:29060   */\n      tag_786\n        /* \"#utility.yul\":29057:29059   */\n      0x2c\n        /* \"#utility.yul\":29052:29055   */\n      dup4\n        /* \"#utility.yul\":28993:29060   */\n      tag_487\n      jump\t// in\n    tag_786:\n        /* \"#utility.yul\":28986:29060   */\n      swap2\n      pop\n        /* \"#utility.yul\":29069:29162   */\n      tag_787\n        /* \"#utility.yul\":29158:29161   */\n      dup3\n        /* \"#utility.yul\":29069:29162   */\n      tag_533\n      jump\t// in\n    tag_787:\n        /* \"#utility.yul\":29187:29189   */\n      0x40\n        /* \"#utility.yul\":29182:29185   */\n      dup3\n        /* \"#utility.yul\":29178:29190   */\n      add\n        /* \"#utility.yul\":29171:29190   */\n      swap1\n      pop\n        /* \"#utility.yul\":28830:29196   */\n      swap2\n      swap1\n      pop\n      jump\t// out\n        /* \"#utility.yul\":29202:29621   */\n    tag_335:\n        /* \"#utility.yul\":29368:29372   */\n      0x00\n        /* \"#utility.yul\":29406:29408   */\n      0x20\n        /* \"#utility.yul\":29395:29404   */\n      dup3\n        /* \"#utility.yul\":29391:29409   */\n      add\n        /* \"#utility.yul\":29383:29409   */\n      swap1\n      pop\n        /* \"#utility.yul\":29455:29464   */\n      dup2\n        /* \"#utility.yul\":29449:29453   */\n      dup2\n        /* \"#utility.yul\":29445:29465   */\n      sub\n        /* \"#utility.yul\":29441:29442   */\n      0x00\n        /* \"#utility.yul\":29430:29439   */\n      dup4\n        /* \"#utility.yul\":29426:29443   */\n      add\n        /* \"#utility.yul\":29419:29466   */\n      mstore\n        /* \"#utility.yul\":29483:29614   */\n      tag_789\n        /* \"#utility.yul\":29609:29613   */\n      dup2\n        /* \"#utility.yul\":29483:29614   */\n      tag_534\n      jump\t// in\n    tag_789:\n        /* \"#utility.yul\":29475:29614   */\n      swap1\n      pop\n        /* \"#utility.yul\":29202:29621   */\n      swap2\n      swap1\n      pop\n      jump\t// out\n        /* \"#utility.yul\":29627:29854   */\n    tag_535:\n        /* \"#utility.yul\":29767:29801   */\n      0x4f6e6c792072656e7465722063616e207365742074686520636f756e74657220\n        /* \"#utility.yul\":29763:29764   */\n      0x00\n        /* \"#utility.yul\":29755:29761   */\n      dup3\n        /* \"#utility.yul\":29751:29765   */\n      add\n        /* \"#utility.yul\":29744:29802   */\n      mstore\n        /* \"#utility.yul\":29836:29846   */\n      0x657374696d617465000000000000000000000000000000000000000000000000\n        /* \"#utility.yul\":29831:29833   */\n      0x20\n        /* \"#utility.yul\":29823:29829   */\n      dup3\n        /* \"#utility.yul\":29819:29834   */\n      add\n        /* \"#utility.yul\":29812:29847   */\n      mstore\n        /* \"#utility.yul\":29627:29854   */\n      pop\n      jump\t// out\n        /* \"#utility.yul\":29860:30226   */\n    tag_536:\n        /* \"#utility.yul\":30002:30005   */\n      0x00\n        /* \"#utility.yul\":30023:30090   */\n      tag_792\n        /* \"#utility.yul\":30087:30089   */\n      0x28\n        /* \"#utility.yul\":30082:30085   */\n      dup4\n        /* \"#utility.yul\":30023:30090   */\n      tag_487\n      jump\t// in\n    tag_792:\n        /* \"#utility.yul\":30016:30090   */\n      swap2\n      pop\n        /* \"#utility.yul\":30099:30192   */\n      tag_793\n        /* \"#utility.yul\":30188:30191   */\n      dup3\n        /* \"#utility.yul\":30099:30192   */\n      tag_535\n      jump\t// in\n    tag_793:\n        /* \"#utility.yul\":30217:30219   */\n      0x40\n        /* \"#utility.yul\":30212:30215   */\n      dup3\n        /* \"#utility.yul\":30208:30220   */\n      add\n        /* \"#utility.yul\":30201:30220   */\n      swap1\n      pop\n        /* \"#utility.yul\":29860:30226   */\n      swap2\n      swap1\n      pop\n      jump\t// out\n        /* \"#utility.yul\":30232:30651   */\n    tag_339:\n        /* \"#utility.yul\":30398:30402   */\n      0x00\n        /* \"#utility.yul\":30436:30438   */\n      0x20\n        /* \"#utility.yul\":30425:30434   */\n      dup3\n        /* \"#utility.yul\":30421:30439   */\n      add\n        /* \"#utility.yul\":30413:30439   */\n      swap1\n      pop\n        /* \"#utility.yul\":30485:30494   */\n      dup2\n        /* \"#utility.yul\":30479:30483   */\n      dup2\n        /* \"#utility.yul\":30475:30495   */\n      sub\n        /* \"#utility.yul\":30471:30472   */\n      0x00\n        /* \"#utility.yul\":30460:30469   */\n      dup4\n        /* \"#utility.yul\":30456:30473   */\n      add\n        /* \"#utility.yul\":30449:30496   */\n      mstore\n        /* \"#utility.yul\":30513:30644   */\n      tag_795\n        /* \"#utility.yul\":30639:30643   */\n      dup2\n        /* \"#utility.yul\":30513:30644   */\n      tag_536\n      jump\t// in\n    tag_795:\n        /* \"#utility.yul\":30505:30644   */\n      swap1\n      pop\n        /* \"#utility.yul\":30232:30651   */\n      swap2\n      swap1\n      pop\n      jump\t// out\n        /* \"#utility.yul\":30657:30883   */\n    tag_537:\n        /* \"#utility.yul\":30797:30831   */\n      0x4c616e646c6f7264206d757374207365742064616d61676520657374696d6174\n        /* \"#utility.yul\":30793:30794   */\n      0x00\n        /* \"#utility.yul\":30785:30791   */\n      dup3\n        /* \"#utility.yul\":30781:30795   */\n      add\n        /* \"#utility.yul\":30774:30832   */\n      mstore\n        /* \"#utility.yul\":30866:30875   */\n      0x6520666972737400000000000000000000000000000000000000000000000000\n        /* \"#utility.yul\":30861:30863   */\n      0x20\n        /* \"#utility.yul\":30853:30859   */\n      dup3\n        /* \"#utility.yul\":30849:30864   */\n      add\n        /* \"#utility.yul\":30842:30876   */\n      mstore\n        /* \"#utility.yul\":30657:30883   */\n      pop\n      jump\t// out\n        /* \"#utility.yul\":30889:31255   */\n    tag_538:\n        /* \"#utility.yul\":31031:31034   */\n      0x00\n        /* \"#utility.yul\":31052:31119   */\n      tag_798\n        /* \"#utility.yul\":31116:31118   */\n      0x27\n        /* \"#utility.yul\":31111:31114   */\n      dup4\n        /* \"#utility.yul\":31052:31119   */\n      tag_487\n      jump\t// in\n    tag_798:\n        /* \"#utility.yul\":31045:31119   */\n      swap2\n      pop\n        /* \"#utility.yul\":31128:31221   */\n      tag_799\n        /* \"#utility.yul\":31217:31220   */\n      dup3\n        /* \"#utility.yul\":31128:31221   */\n      tag_537\n      jump\t// in\n    tag_799:\n        /* \"#utility.yul\":31246:31248   */\n      0x40\n        /* \"#utility.yul\":31241:31244   */\n      dup3\n        /* \"#utility.yul\":31237:31249   */\n      add\n        /* \"#utility.yul\":31230:31249   */\n      swap1\n      pop\n        /* \"#utility.yul\":30889:31255   */\n      swap2\n      swap1\n      pop\n      jump\t// out\n        /* \"#utility.yul\":31261:31680   */\n    tag_342:\n        /* \"#utility.yul\":31427:31431   */\n      0x00\n        /* \"#utility.yul\":31465:31467   */\n      0x20\n        /* \"#utility.yul\":31454:31463   */\n      dup3\n        /* \"#utility.yul\":31450:31468   */\n      add\n        /* \"#utility.yul\":31442:31468   */\n      swap1\n      pop\n        /* \"#utility.yul\":31514:31523   */\n      dup2\n        /* \"#utility.yul\":31508:31512   */\n      dup2\n        /* \"#utility.yul\":31504:31524   */\n      sub\n        /* \"#utility.yul\":31500:31501   */\n      0x00\n        /* \"#utility.yul\":31489:31498   */\n      dup4\n        /* \"#utility.yul\":31485:31502   */\n      add\n        /* \"#utility.yul\":31478:31525   */\n      mstore\n        /* \"#utility.yul\":31542:31673   */\n      tag_801\n        /* \"#utility.yul\":31668:31672   */\n      dup2\n        /* \"#utility.yul\":31542:31673   */\n      tag_538\n      jump\t// in\n    tag_801:\n        /* \"#utility.yul\":31534:31673   */\n      swap1\n      pop\n        /* \"#utility.yul\":31261:31680   */\n      swap2\n      swap1\n      pop\n      jump\t// out\n        /* \"#utility.yul\":31686:31906   */\n    tag_539:\n        /* \"#utility.yul\":31826:31860   */\n      0x4f6e6c792072656e7465722063616e20736b69702072656e74207061796d656e\n        /* \"#utility.yul\":31822:31823   */\n      0x00\n        /* \"#utility.yul\":31814:31820   */\n      dup3\n        /* \"#utility.yul\":31810:31824   */\n      add\n        /* \"#utility.yul\":31803:31861   */\n      mstore\n        /* \"#utility.yul\":31895:31898   */\n      0x7400000000000000000000000000000000000000000000000000000000000000\n        /* \"#utility.yul\":31890:31892   */\n      0x20\n        /* \"#utility.yul\":31882:31888   */\n      dup3\n        /* \"#utility.yul\":31878:31893   */\n      add\n        /* \"#utility.yul\":31871:31899   */\n      mstore\n        /* \"#utility.yul\":31686:31906   */\n      pop\n      jump\t// out\n        /* \"#utility.yul\":31912:32278   */\n    tag_540:\n        /* \"#utility.yul\":32054:32057   */\n      0x00\n        /* \"#utility.yul\":32075:32142   */\n      tag_804\n        /* \"#utility.yul\":32139:32141   */\n      0x21\n        /* \"#utility.yul\":32134:32137   */\n      dup4\n        /* \"#utility.yul\":32075:32142   */\n      tag_487\n      jump\t// in\n    tag_804:\n        /* \"#utility.yul\":32068:32142   */\n      swap2\n      pop\n        /* \"#utility.yul\":32151:32244   */\n      tag_805\n        /* \"#utility.yul\":32240:32243   */\n      dup3\n        /* \"#utility.yul\":32151:32244   */\n      tag_539\n      jump\t// in\n    tag_805:\n        /* \"#utility.yul\":32269:32271   */\n      0x40\n        /* \"#utility.yul\":32264:32267   */\n      dup3\n        /* \"#utility.yul\":32260:32272   */\n      add\n        /* \"#utility.yul\":32253:32272   */\n      swap1\n      pop\n        /* \"#utility.yul\":31912:32278   */\n      swap2\n      swap1\n      pop\n      jump\t// out\n        /* \"#utility.yul\":32284:32703   */\n    tag_347:\n        /* \"#utility.yul\":32450:32454   */\n      0x00\n        /* \"#utility.yul\":32488:32490   */\n      0x20\n        /* \"#utility.yul\":32477:32486   */\n      dup3\n        /* \"#utility.yul\":32473:32491   */\n      add\n        /* \"#utility.yul\":32465:32491   */\n      swap1\n      pop\n        /* \"#utility.yul\":32537:32546   */\n      dup2\n        /* \"#utility.yul\":32531:32535   */\n      dup2\n        /* \"#utility.yul\":32527:32547   */\n      sub\n        /* \"#utility.yul\":32523:32524   */\n      0x00\n        /* \"#utility.yul\":32512:32521   */\n      dup4\n        /* \"#utility.yul\":32508:32525   */\n      add\n        /* \"#utility.yul\":32501:32548   */\n      mstore\n        /* \"#utility.yul\":32565:32696   */\n      tag_807\n        /* \"#utility.yul\":32691:32695   */\n      dup2\n        /* \"#utility.yul\":32565:32696   */\n      tag_540\n      jump\t// in\n    tag_807:\n        /* \"#utility.yul\":32557:32696   */\n      swap1\n      pop\n        /* \"#utility.yul\":32284:32703   */\n      swap2\n      swap1\n      pop\n      jump\t// out\n        /* \"#utility.yul\":32709:32931   */\n    tag_541:\n        /* \"#utility.yul\":32849:32883   */\n      0x43616e6e6f7420736b69702072656e7420666f7220746865206c617374206d6f\n        /* \"#utility.yul\":32845:32846   */\n      0x00\n        /* \"#utility.yul\":32837:32843   */\n      dup3\n        /* \"#utility.yul\":32833:32847   */\n      add\n        /* \"#utility.yul\":32826:32884   */\n      mstore\n        /* \"#utility.yul\":32918:32923   */\n      0x6e74680000000000000000000000000000000000000000000000000000000000\n        /* \"#utility.yul\":32913:32915   */\n      0x20\n        /* \"#utility.yul\":32905:32911   */\n      dup3\n        /* \"#utility.yul\":32901:32916   */\n      add\n        /* \"#utility.yul\":32894:32924   */\n      mstore\n        /* \"#utility.yul\":32709:32931   */\n      pop\n      jump\t// out\n        /* \"#utility.yul\":32937:33303   */\n    tag_542:\n        /* \"#utility.yul\":33079:33082   */\n      0x00\n        /* \"#utility.yul\":33100:33167   */\n      tag_810\n        /* \"#utility.yul\":33164:33166   */\n      0x23\n        /* \"#utility.yul\":33159:33162   */\n      dup4\n        /* \"#utility.yul\":33100:33167   */\n      tag_487\n      jump\t// in\n    tag_810:\n        /* \"#utility.yul\":33093:33167   */\n      swap2\n      pop\n        /* \"#utility.yul\":33176:33269   */\n      tag_811\n        /* \"#utility.yul\":33265:33268   */\n      dup3\n        /* \"#utility.yul\":33176:33269   */\n      tag_541\n      jump\t// in\n    tag_811:\n        /* \"#utility.yul\":33294:33296   */\n      0x40\n        /* \"#utility.yul\":33289:33292   */\n      dup3\n        /* \"#utility.yul\":33285:33297   */\n      add\n        /* \"#utility.yul\":33278:33297   */\n      swap1\n      pop\n        /* \"#utility.yul\":32937:33303   */\n      swap2\n      swap1\n      pop\n      jump\t// out\n        /* \"#utility.yul\":33309:33728   */\n    tag_352:\n        /* \"#utility.yul\":33475:33479   */\n      0x00\n        /* \"#utility.yul\":33513:33515   */\n      0x20\n        /* \"#utility.yul\":33502:33511   */\n      dup3\n        /* \"#utility.yul\":33498:33516   */\n      add\n        /* \"#utility.yul\":33490:33516   */\n      swap1\n      pop\n        /* \"#utility.yul\":33562:33571   */\n      dup2\n        /* \"#utility.yul\":33556:33560   */\n      dup2\n        /* \"#utility.yul\":33552:33572   */\n      sub\n        /* \"#utility.yul\":33548:33549   */\n      0x00\n        /* \"#utility.yul\":33537:33546   */\n      dup4\n        /* \"#utility.yul\":33533:33550   */\n      add\n        /* \"#utility.yul\":33526:33573   */\n      mstore\n        /* \"#utility.yul\":33590:33721   */\n      tag_813\n        /* \"#utility.yul\":33716:33720   */\n      dup2\n        /* \"#utility.yul\":33590:33721   */\n      tag_542\n      jump\t// in\n    tag_813:\n        /* \"#utility.yul\":33582:33721   */\n      swap1\n      pop\n        /* \"#utility.yul\":33309:33728   */\n      swap2\n      swap1\n      pop\n      jump\t// out\n        /* \"#utility.yul\":33734:33958   */\n    tag_543:\n        /* \"#utility.yul\":33874:33908   */\n      0x4f6e6c79206c616e646c6f72642063616e207365742061677265656d656e7420\n        /* \"#utility.yul\":33870:33871   */\n      0x00\n        /* \"#utility.yul\":33862:33868   */\n      dup3\n        /* \"#utility.yul\":33858:33872   */\n      add\n        /* \"#utility.yul\":33851:33909   */\n      mstore\n        /* \"#utility.yul\":33943:33950   */\n      0x7465726d73000000000000000000000000000000000000000000000000000000\n        /* \"#utility.yul\":33938:33940   */\n      0x20\n        /* \"#utility.yul\":33930:33936   */\n      dup3\n        /* \"#utility.yul\":33926:33941   */\n      add\n        /* \"#utility.yul\":33919:33951   */\n      mstore\n        /* \"#utility.yul\":33734:33958   */\n      pop\n      jump\t// out\n        /* \"#utility.yul\":33964:34330   */\n    tag_544:\n        /* \"#utility.yul\":34106:34109   */\n      0x00\n        /* \"#utility.yul\":34127:34194   */\n      tag_816\n        /* \"#utility.yul\":34191:34193   */\n      0x25\n        /* \"#utility.yul\":34186:34189   */\n      dup4\n        /* \"#utility.yul\":34127:34194   */\n      tag_487\n      jump\t// in\n    tag_816:\n        /* \"#utility.yul\":34120:34194   */\n      swap2\n      pop\n        /* \"#utility.yul\":34203:34296   */\n      tag_817\n        /* \"#utility.yul\":34292:34295   */\n      dup3\n        /* \"#utility.yul\":34203:34296   */\n      tag_543\n      jump\t// in\n    tag_817:\n        /* \"#utility.yul\":34321:34323   */\n      0x40\n        /* \"#utility.yul\":34316:34319   */\n      dup3\n        /* \"#utility.yul\":34312:34324   */\n      add\n        /* \"#utility.yul\":34305:34324   */\n      swap1\n      pop\n        /* \"#utility.yul\":33964:34330   */\n      swap2\n      swap1\n      pop\n      jump\t// out\n        /* \"#utility.yul\":34336:34755   */\n    tag_366:\n        /* \"#utility.yul\":34502:34506   */\n      0x00\n        /* \"#utility.yul\":34540:34542   */\n      0x20\n        /* \"#utility.yul\":34529:34538   */\n      dup3\n        /* \"#utility.yul\":34525:34543   */\n      add\n        /* \"#utility.yul\":34517:34543   */\n      swap1\n      pop\n        /* \"#utility.yul\":34589:34598   */\n      dup2\n        /* \"#utility.yul\":34583:34587   */\n      dup2\n        /* \"#utility.yul\":34579:34599   */\n      sub\n        /* \"#utility.yul\":34575:34576   */\n      0x00\n        /* \"#utility.yul\":34564:34573   */\n      dup4\n        /* \"#utility.yul\":34560:34577   */\n      add\n        /* \"#utility.yul\":34553:34600   */\n      mstore\n        /* \"#utility.yul\":34617:34748   */\n      tag_819\n        /* \"#utility.yul\":34743:34747   */\n      dup2\n        /* \"#utility.yul\":34617:34748   */\n      tag_544\n      jump\t// in\n    tag_819:\n        /* \"#utility.yul\":34609:34748   */\n      swap1\n      pop\n        /* \"#utility.yul\":34336:34755   */\n      swap2\n      swap1\n      pop\n      jump\t// out\n        /* \"#utility.yul\":34761:35203   */\n    tag_370:\n        /* \"#utility.yul\":34910:34914   */\n      0x00\n        /* \"#utility.yul\":34948:34950   */\n      0x60\n        /* \"#utility.yul\":34937:34946   */\n      dup3\n        /* \"#utility.yul\":34933:34951   */\n      add\n        /* \"#utility.yul\":34925:34951   */\n      swap1\n      pop\n        /* \"#utility.yul\":34961:35032   */\n      tag_821\n        /* \"#utility.yul\":35029:35030   */\n      0x00\n        /* \"#utility.yul\":35018:35027   */\n      dup4\n        /* \"#utility.yul\":35014:35031   */\n      add\n        /* \"#utility.yul\":35005:35011   */\n      dup7\n        /* \"#utility.yul\":34961:35032   */\n      tag_471\n      jump\t// in\n    tag_821:\n        /* \"#utility.yul\":35042:35114   */\n      tag_822\n        /* \"#utility.yul\":35110:35112   */\n      0x20\n        /* \"#utility.yul\":35099:35108   */\n      dup4\n        /* \"#utility.yul\":35095:35113   */\n      add\n        /* \"#utility.yul\":35086:35092   */\n      dup6\n        /* \"#utility.yul\":35042:35114   */\n      tag_471\n      jump\t// in\n    tag_822:\n        /* \"#utility.yul\":35124:35196   */\n      tag_823\n        /* \"#utility.yul\":35192:35194   */\n      0x40\n        /* \"#utility.yul\":35181:35190   */\n      dup4\n        /* \"#utility.yul\":35177:35195   */\n      add\n        /* \"#utility.yul\":35168:35174   */\n      dup5\n        /* \"#utility.yul\":35124:35196   */\n      tag_471\n      jump\t// in\n    tag_823:\n        /* \"#utility.yul\":34761:35203   */\n      swap5\n      swap4\n      pop\n      pop\n      pop\n      pop\n      jump\t// out\n        /* \"#utility.yul\":35209:35434   */\n    tag_545:\n        /* \"#utility.yul\":35349:35383   */\n      0x4f6e6c79207468652061726269747261746f722063616e206578656375746520\n        /* \"#utility.yul\":35345:35346   */\n      0x00\n        /* \"#utility.yul\":35337:35343   */\n      dup3\n        /* \"#utility.yul\":35333:35347   */\n      add\n        /* \"#utility.yul\":35326:35384   */\n      mstore\n        /* \"#utility.yul\":35418:35426   */\n      0x72756c696e670000000000000000000000000000000000000000000000000000\n        /* \"#utility.yul\":35413:35415   */\n      0x20\n        /* \"#utility.yul\":35405:35411   */\n      dup3\n        /* \"#utility.yul\":35401:35416   */\n      add\n        /* \"#utility.yul\":35394:35427   */\n      mstore\n        /* \"#utility.yul\":35209:35434   */\n      pop\n      jump\t// out\n        /* \"#utility.yul\":35440:35806   */\n    tag_546:\n        /* \"#utility.yul\":35582:35585   */\n      0x00\n        /* \"#utility.yul\":35603:35670   */\n      tag_826\n        /* \"#utility.yul\":35667:35669   */\n      0x26\n        /* \"#utility.yul\":35662:35665   */\n      dup4\n        /* \"#utility.yul\":35603:35670   */\n      tag_487\n      jump\t// in\n    tag_826:\n        /* \"#utility.yul\":35596:35670   */\n      swap2\n      pop\n        /* \"#utility.yul\":35679:35772   */\n      tag_827\n        /* \"#utility.yul\":35768:35771   */\n      dup3\n        /* \"#utility.yul\":35679:35772   */\n      tag_545\n      jump\t// in\n    tag_827:\n        /* \"#utility.yul\":35797:35799   */\n      0x40\n        /* \"#utility.yul\":35792:35795   */\n      dup3\n        /* \"#utility.yul\":35788:35800   */\n      add\n        /* \"#utility.yul\":35781:35800   */\n      swap1\n      pop\n        /* \"#utility.yul\":35440:35806   */\n      swap2\n      swap1\n      pop\n      jump\t// out\n        /* \"#utility.yul\":35812:36231   */\n    tag_374:\n        /* \"#utility.yul\":35978:35982   */\n      0x00\n        /* \"#utility.yul\":36016:36018   */\n      0x20\n        /* \"#utility.yul\":36005:36014   */\n      dup3\n        /* \"#utility.yul\":36001:36019   */\n      add\n        /* \"#utility.yul\":35993:36019   */\n      swap1\n      pop\n        /* \"#utility.yul\":36065:36074   */\n      dup2\n        /* \"#utility.yul\":36059:36063   */\n      dup2\n        /* \"#utility.yul\":36055:36075   */\n      sub\n        /* \"#utility.yul\":36051:36052   */\n      0x00\n        /* \"#utility.yul\":36040:36049   */\n      dup4\n        /* \"#utility.yul\":36036:36053   */\n      add\n        /* \"#utility.yul\":36029:36076   */\n      mstore\n        /* \"#utility.yul\":36093:36224   */\n      tag_829\n        /* \"#utility.yul\":36219:36223   */\n      dup2\n        /* \"#utility.yul\":36093:36224   */\n      tag_546\n      jump\t// in\n    tag_829:\n        /* \"#utility.yul\":36085:36224   */\n      swap1\n      pop\n        /* \"#utility.yul\":35812:36231   */\n      swap2\n      swap1\n      pop\n      jump\t// out\n        /* \"#utility.yul\":36237:36408   */\n    tag_547:\n        /* \"#utility.yul\":36377:36400   */\n      0x4e6f206469737075746520746f2072756c65206f6e0000000000000000000000\n        /* \"#utility.yul\":36373:36374   */\n      0x00\n        /* \"#utility.yul\":36365:36371   */\n      dup3\n        /* \"#utility.yul\":36361:36375   */\n      add\n        /* \"#utility.yul\":36354:36401   */\n      mstore\n        /* \"#utility.yul\":36237:36408   */\n      pop\n      jump\t// out\n        /* \"#utility.yul\":36414:36780   */\n    tag_548:\n        /* \"#utility.yul\":36556:36559   */\n      0x00\n        /* \"#utility.yul\":36577:36644   */\n      tag_832\n        /* \"#utility.yul\":36641:36643   */\n      0x15\n        /* \"#utility.yul\":36636:36639   */\n      dup4\n        /* \"#utility.yul\":36577:36644   */\n      tag_487\n      jump\t// in\n    tag_832:\n        /* \"#utility.yul\":36570:36644   */\n      swap2\n      pop\n        /* \"#utility.yul\":36653:36746   */\n      tag_833\n        /* \"#utility.yul\":36742:36745   */\n      dup3\n        /* \"#utility.yul\":36653:36746   */\n      tag_547\n      jump\t// in\n    tag_833:\n        /* \"#utility.yul\":36771:36773   */\n      0x20\n        /* \"#utility.yul\":36766:36769   */\n      dup3\n        /* \"#utility.yul\":36762:36774   */\n      add\n        /* \"#utility.yul\":36755:36774   */\n      swap1\n      pop\n        /* \"#utility.yul\":36414:36780   */\n      swap2\n      swap1\n      pop\n      jump\t// out\n        /* \"#utility.yul\":36786:37205   */\n    tag_377:\n        /* \"#utility.yul\":36952:36956   */\n      0x00\n        /* \"#utility.yul\":36990:36992   */\n      0x20\n        /* \"#utility.yul\":36979:36988   */\n      dup3\n        /* \"#utility.yul\":36975:36993   */\n      add\n        /* \"#utility.yul\":36967:36993   */\n      swap1\n      pop\n        /* \"#utility.yul\":37039:37048   */\n      dup2\n        /* \"#utility.yul\":37033:37037   */\n      dup2\n        /* \"#utility.yul\":37029:37049   */\n      sub\n        /* \"#utility.yul\":37025:37026   */\n      0x00\n        /* \"#utility.yul\":37014:37023   */\n      dup4\n        /* \"#utility.yul\":37010:37027   */\n      add\n        /* \"#utility.yul\":37003:37050   */\n      mstore\n        /* \"#utility.yul\":37067:37198   */\n      tag_835\n        /* \"#utility.yul\":37193:37197   */\n      dup2\n        /* \"#utility.yul\":37067:37198   */\n      tag_548\n      jump\t// in\n    tag_835:\n        /* \"#utility.yul\":37059:37198   */\n      swap1\n      pop\n        /* \"#utility.yul\":36786:37205   */\n      swap2\n      swap1\n      pop\n      jump\t// out\n        /* \"#utility.yul\":37211:37377   */\n    tag_549:\n        /* \"#utility.yul\":37351:37369   */\n      0x57726f6e67206469737075746520494400000000000000000000000000000000\n        /* \"#utility.yul\":37347:37348   */\n      0x00\n        /* \"#utility.yul\":37339:37345   */\n      dup3\n        /* \"#utility.yul\":37335:37349   */\n      add\n        /* \"#utility.yul\":37328:37370   */\n      mstore\n        /* \"#utility.yul\":37211:37377   */\n      pop\n      jump\t// out\n        /* \"#utility.yul\":37383:37749   */\n    tag_550:\n        /* \"#utility.yul\":37525:37528   */\n      0x00\n        /* \"#utility.yul\":37546:37613   */\n      tag_838\n        /* \"#utility.yul\":37610:37612   */\n      0x10\n        /* \"#utility.yul\":37605:37608   */\n      dup4\n        /* \"#utility.yul\":37546:37613   */\n      tag_487\n      jump\t// in\n    tag_838:\n        /* \"#utility.yul\":37539:37613   */\n      swap2\n      pop\n        /* \"#utility.yul\":37622:37715   */\n      tag_839\n        /* \"#utility.yul\":37711:37714   */\n      dup3\n        /* \"#utility.yul\":37622:37715   */\n      tag_549\n      jump\t// in\n    tag_839:\n        /* \"#utility.yul\":37740:37742   */\n      0x20\n        /* \"#utility.yul\":37735:37738   */\n      dup3\n        /* \"#utility.yul\":37731:37743   */\n      add\n        /* \"#utility.yul\":37724:37743   */\n      swap1\n      pop\n        /* \"#utility.yul\":37383:37749   */\n      swap2\n      swap1\n      pop\n      jump\t// out\n        /* \"#utility.yul\":37755:38174   */\n    tag_380:\n        /* \"#utility.yul\":37921:37925   */\n      0x00\n        /* \"#utility.yul\":37959:37961   */\n      0x20\n        /* \"#utility.yul\":37948:37957   */\n      dup3\n        /* \"#utility.yul\":37944:37962   */\n      add\n        /* \"#utility.yul\":37936:37962   */\n      swap1\n      pop\n        /* \"#utility.yul\":38008:38017   */\n      dup2\n        /* \"#utility.yul\":38002:38006   */\n      dup2\n        /* \"#utility.yul\":37998:38018   */\n      sub\n        /* \"#utility.yul\":37994:37995   */\n      0x00\n        /* \"#utility.yul\":37983:37992   */\n      dup4\n        /* \"#utility.yul\":37979:37996   */\n      add\n        /* \"#utility.yul\":37972:38019   */\n      mstore\n        /* \"#utility.yul\":38036:38167   */\n      tag_841\n        /* \"#utility.yul\":38162:38166   */\n      dup2\n        /* \"#utility.yul\":38036:38167   */\n      tag_550\n      jump\t// in\n    tag_841:\n        /* \"#utility.yul\":38028:38167   */\n      swap1\n      pop\n        /* \"#utility.yul\":37755:38174   */\n      swap2\n      swap1\n      pop\n      jump\t// out\n        /* \"#utility.yul\":38180:38360   */\n    tag_551:\n        /* \"#utility.yul\":38228:38305   */\n      0x4e487b7100000000000000000000000000000000000000000000000000000000\n        /* \"#utility.yul\":38225:38226   */\n      0x00\n        /* \"#utility.yul\":38218:38306   */\n      mstore\n        /* \"#utility.yul\":38325:38329   */\n      0x12\n        /* \"#utility.yul\":38322:38323   */\n      0x04\n        /* \"#utility.yul\":38315:38330   */\n      mstore\n        /* \"#utility.yul\":38349:38353   */\n      0x24\n        /* \"#utility.yul\":38346:38347   */\n      0x00\n        /* \"#utility.yul\":38339:38354   */\n      revert\n        /* \"#utility.yul\":38366:38551   */\n    tag_390:\n        /* \"#utility.yul\":38406:38407   */\n      0x00\n        /* \"#utility.yul\":38423:38443   */\n      tag_844\n        /* \"#utility.yul\":38441:38442   */\n      dup3\n        /* \"#utility.yul\":38423:38443   */\n      tag_470\n      jump\t// in\n    tag_844:\n        /* \"#utility.yul\":38418:38443   */\n      swap2\n      pop\n        /* \"#utility.yul\":38457:38477   */\n      tag_845\n        /* \"#utility.yul\":38475:38476   */\n      dup4\n        /* \"#utility.yul\":38457:38477   */\n      tag_470\n      jump\t// in\n    tag_845:\n        /* \"#utility.yul\":38452:38477   */\n      swap3\n      pop\n        /* \"#utility.yul\":38496:38497   */\n      dup3\n        /* \"#utility.yul\":38486:38521   */\n      tag_846\n      jumpi\n        /* \"#utility.yul\":38501:38519   */\n      tag_847\n      tag_551\n      jump\t// in\n    tag_847:\n        /* \"#utility.yul\":38486:38521   */\n    tag_846:\n        /* \"#utility.yul\":38543:38544   */\n      dup3\n        /* \"#utility.yul\":38540:38541   */\n      dup3\n        /* \"#utility.yul\":38536:38545   */\n      div\n        /* \"#utility.yul\":38531:38545   */\n      swap1\n      pop\n        /* \"#utility.yul\":38366:38551   */\n      swap3\n      swap2\n      pop\n      pop\n      jump\t// out\n        /* \"#utility.yul\":38557:38792   */\n    tag_552:\n        /* \"#utility.yul\":38697:38731   */\n      0x4661696c656420746f207472616e73666572206172626974726174696f6e2066\n        /* \"#utility.yul\":38693:38694   */\n      0x00\n        /* \"#utility.yul\":38685:38691   */\n      dup3\n        /* \"#utility.yul\":38681:38695   */\n      add\n        /* \"#utility.yul\":38674:38732   */\n      mstore\n        /* \"#utility.yul\":38766:38784   */\n      0x656520746f2061726269747261746f7200000000000000000000000000000000\n        /* \"#utility.yul\":38761:38763   */\n      0x20\n        /* \"#utility.yul\":38753:38759   */\n      dup3\n        /* \"#utility.yul\":38749:38764   */\n      add\n        /* \"#utility.yul\":38742:38785   */\n      mstore\n        /* \"#utility.yul\":38557:38792   */\n      pop\n      jump\t// out\n        /* \"#utility.yul\":38798:39164   */\n    tag_553:\n        /* \"#utility.yul\":38940:38943   */\n      0x00\n        /* \"#utility.yul\":38961:39028   */\n      tag_850\n        /* \"#utility.yul\":39025:39027   */\n      0x30\n        /* \"#utility.yul\":39020:39023   */\n      dup4\n        /* \"#utility.yul\":38961:39028   */\n      tag_487\n      jump\t// in\n    tag_850:\n        /* \"#utility.yul\":38954:39028   */\n      swap2\n      pop\n        /* \"#utility.yul\":39037:39130   */\n      tag_851\n        /* \"#utility.yul\":39126:39129   */\n      dup3\n        /* \"#utility.yul\":39037:39130   */\n      tag_552\n      jump\t// in\n    tag_851:\n        /* \"#utility.yul\":39155:39157   */\n      0x40\n        /* \"#utility.yul\":39150:39153   */\n      dup3\n        /* \"#utility.yul\":39146:39158   */\n      add\n        /* \"#utility.yul\":39139:39158   */\n      swap1\n      pop\n        /* \"#utility.yul\":38798:39164   */\n      swap2\n      swap1\n      pop\n      jump\t// out\n        /* \"#utility.yul\":39170:39589   */\n    tag_408:\n        /* \"#utility.yul\":39336:39340   */\n      0x00\n        /* \"#utility.yul\":39374:39376   */\n      0x20\n        /* \"#utility.yul\":39363:39372   */\n      dup3\n        /* \"#utility.yul\":39359:39377   */\n      add\n        /* \"#utility.yul\":39351:39377   */\n      swap1\n      pop\n        /* \"#utility.yul\":39423:39432   */\n      dup2\n        /* \"#utility.yul\":39417:39421   */\n      dup2\n        /* \"#utility.yul\":39413:39433   */\n      sub\n        /* \"#utility.yul\":39409:39410   */\n      0x00\n        /* \"#utility.yul\":39398:39407   */\n      dup4\n        /* \"#utility.yul\":39394:39411   */\n      add\n        /* \"#utility.yul\":39387:39434   */\n      mstore\n        /* \"#utility.yul\":39451:39582   */\n      tag_853\n        /* \"#utility.yul\":39577:39581   */\n      dup2\n        /* \"#utility.yul\":39451:39582   */\n      tag_553\n      jump\t// in\n    tag_853:\n        /* \"#utility.yul\":39443:39582   */\n      swap1\n      pop\n        /* \"#utility.yul\":39170:39589   */\n      swap2\n      swap1\n      pop\n      jump\t// out\n        /* \"#utility.yul\":39595:39817   */\n    tag_554:\n        /* \"#utility.yul\":39735:39769   */\n      0x4f6e6c792072656e7465722063616e2072656a6563742074686520657374696d\n        /* \"#utility.yul\":39731:39732   */\n      0x00\n        /* \"#utility.yul\":39723:39729   */\n      dup3\n        /* \"#utility.yul\":39719:39733   */\n      add\n        /* \"#utility.yul\":39712:39770   */\n      mstore\n        /* \"#utility.yul\":39804:39809   */\n      0x6174650000000000000000000000000000000000000000000000000000000000\n        /* \"#utility.yul\":39799:39801   */\n      0x20\n        /* \"#utility.yul\":39791:39797   */\n      dup3\n        /* \"#utility.yul\":39787:39802   */\n      add\n        /* \"#utility.yul\":39780:39810   */\n      mstore\n        /* \"#utility.yul\":39595:39817   */\n      pop\n      jump\t// out\n        /* \"#utility.yul\":39823:40189   */\n    tag_555:\n        /* \"#utility.yul\":39965:39968   */\n      0x00\n        /* \"#utility.yul\":39986:40053   */\n      tag_856\n        /* \"#utility.yul\":40050:40052   */\n      0x23\n        /* \"#utility.yul\":40045:40048   */\n      dup4\n        /* \"#utility.yul\":39986:40053   */\n      tag_487\n      jump\t// in\n    tag_856:\n        /* \"#utility.yul\":39979:40053   */\n      swap2\n      pop\n        /* \"#utility.yul\":40062:40155   */\n      tag_857\n        /* \"#utility.yul\":40151:40154   */\n      dup3\n        /* \"#utility.yul\":40062:40155   */\n      tag_554\n      jump\t// in\n    tag_857:\n        /* \"#utility.yul\":40180:40182   */\n      0x40\n        /* \"#utility.yul\":40175:40178   */\n      dup3\n        /* \"#utility.yul\":40171:40183   */\n      add\n        /* \"#utility.yul\":40164:40183   */\n      swap1\n      pop\n        /* \"#utility.yul\":39823:40189   */\n      swap2\n      swap1\n      pop\n      jump\t// out\n        /* \"#utility.yul\":40195:40614   */\n    tag_415:\n        /* \"#utility.yul\":40361:40365   */\n      0x00\n        /* \"#utility.yul\":40399:40401   */\n      0x20\n        /* \"#utility.yul\":40388:40397   */\n      dup3\n        /* \"#utility.yul\":40384:40402   */\n      add\n        /* \"#utility.yul\":40376:40402   */\n      swap1\n      pop\n        /* \"#utility.yul\":40448:40457   */\n      dup2\n        /* \"#utility.yul\":40442:40446   */\n      dup2\n        /* \"#utility.yul\":40438:40458   */\n      sub\n        /* \"#utility.yul\":40434:40435   */\n      0x00\n        /* \"#utility.yul\":40423:40432   */\n      dup4\n        /* \"#utility.yul\":40419:40436   */\n      add\n        /* \"#utility.yul\":40412:40459   */\n      mstore\n        /* \"#utility.yul\":40476:40607   */\n      tag_859\n        /* \"#utility.yul\":40602:40606   */\n      dup2\n        /* \"#utility.yul\":40476:40607   */\n      tag_555\n      jump\t// in\n    tag_859:\n        /* \"#utility.yul\":40468:40607   */\n      swap1\n      pop\n        /* \"#utility.yul\":40195:40614   */\n      swap2\n      swap1\n      pop\n      jump\t// out\n        /* \"#utility.yul\":40620:40842   */\n    tag_556:\n        /* \"#utility.yul\":40760:40794   */\n      0x4f6e6c792072656e7465722063616e206163636570742074686520657374696d\n        /* \"#utility.yul\":40756:40757   */\n      0x00\n        /* \"#utility.yul\":40748:40754   */\n      dup3\n        /* \"#utility.yul\":40744:40758   */\n      add\n        /* \"#utility.yul\":40737:40795   */\n      mstore\n        /* \"#utility.yul\":40829:40834   */\n      0x6174650000000000000000000000000000000000000000000000000000000000\n        /* \"#utility.yul\":40824:40826   */\n      0x20\n        /* \"#utility.yul\":40816:40822   */\n      dup3\n        /* \"#utility.yul\":40812:40827   */\n      add\n        /* \"#utility.yul\":40805:40835   */\n      mstore\n        /* \"#utility.yul\":40620:40842   */\n      pop\n      jump\t// out\n        /* \"#utility.yul\":40848:41214   */\n    tag_557:\n        /* \"#utility.yul\":40990:40993   */\n      0x00\n        /* \"#utility.yul\":41011:41078   */\n      tag_862\n        /* \"#utility.yul\":41075:41077   */\n      0x23\n        /* \"#utility.yul\":41070:41073   */\n      dup4\n        /* \"#utility.yul\":41011:41078   */\n      tag_487\n      jump\t// in\n    tag_862:\n        /* \"#utility.yul\":41004:41078   */\n      swap2\n      pop\n        /* \"#utility.yul\":41087:41180   */\n      tag_863\n        /* \"#utility.yul\":41176:41179   */\n      dup3\n        /* \"#utility.yul\":41087:41180   */\n      tag_556\n      jump\t// in\n    tag_863:\n        /* \"#utility.yul\":41205:41207   */\n      0x40\n        /* \"#utility.yul\":41200:41203   */\n      dup3\n        /* \"#utility.yul\":41196:41208   */\n      add\n        /* \"#utility.yul\":41189:41208   */\n      swap1\n      pop\n        /* \"#utility.yul\":40848:41214   */\n      swap2\n      swap1\n      pop\n      jump\t// out\n        /* \"#utility.yul\":41220:41639   */\n    tag_421:\n        /* \"#utility.yul\":41386:41390   */\n      0x00\n        /* \"#utility.yul\":41424:41426   */\n      0x20\n        /* \"#utility.yul\":41413:41422   */\n      dup3\n        /* \"#utility.yul\":41409:41427   */\n      add\n        /* \"#utility.yul\":41401:41427   */\n      swap1\n      pop\n        /* \"#utility.yul\":41473:41482   */\n      dup2\n        /* \"#utility.yul\":41467:41471   */\n      dup2\n        /* \"#utility.yul\":41463:41483   */\n      sub\n        /* \"#utility.yul\":41459:41460   */\n      0x00\n        /* \"#utility.yul\":41448:41457   */\n      dup4\n        /* \"#utility.yul\":41444:41461   */\n      add\n        /* \"#utility.yul\":41437:41484   */\n      mstore\n        /* \"#utility.yul\":41501:41632   */\n      tag_865\n        /* \"#utility.yul\":41627:41631   */\n      dup2\n        /* \"#utility.yul\":41501:41632   */\n      tag_557\n      jump\t// in\n    tag_865:\n        /* \"#utility.yul\":41493:41632   */\n      swap1\n      pop\n        /* \"#utility.yul\":41220:41639   */\n      swap2\n      swap1\n      pop\n      jump\t// out\n        /* \"#utility.yul\":41645:41877   */\n    tag_558:\n        /* \"#utility.yul\":41785:41819   */\n      0x4f6e6c79206c616e646c6f72642063616e206163636570742074686520636f75\n        /* \"#utility.yul\":41781:41782   */\n      0x00\n        /* \"#utility.yul\":41773:41779   */\n      dup3\n        /* \"#utility.yul\":41769:41783   */\n      add\n        /* \"#utility.yul\":41762:41820   */\n      mstore\n        /* \"#utility.yul\":41854:41869   */\n      0x6e74657220657374696d61746500000000000000000000000000000000000000\n        /* \"#utility.yul\":41849:41851   */\n      0x20\n        /* \"#utility.yul\":41841:41847   */\n      dup3\n        /* \"#utility.yul\":41837:41852   */\n      add\n        /* \"#utility.yul\":41830:41870   */\n      mstore\n        /* \"#utility.yul\":41645:41877   */\n      pop\n      jump\t// out\n        /* \"#utility.yul\":41883:42249   */\n    tag_559:\n        /* \"#utility.yul\":42025:42028   */\n      0x00\n        /* \"#utility.yul\":42046:42113   */\n      tag_868\n        /* \"#utility.yul\":42110:42112   */\n      0x2d\n        /* \"#utility.yul\":42105:42108   */\n      dup4\n        /* \"#utility.yul\":42046:42113   */\n      tag_487\n      jump\t// in\n    tag_868:\n        /* \"#utility.yul\":42039:42113   */\n      swap2\n      pop\n        /* \"#utility.yul\":42122:42215   */\n      tag_869\n        /* \"#utility.yul\":42211:42214   */\n      dup3\n        /* \"#utility.yul\":42122:42215   */\n      tag_558\n      jump\t// in\n    tag_869:\n        /* \"#utility.yul\":42240:42242   */\n      0x40\n        /* \"#utility.yul\":42235:42238   */\n      dup3\n        /* \"#utility.yul\":42231:42243   */\n      add\n        /* \"#utility.yul\":42224:42243   */\n      swap1\n      pop\n        /* \"#utility.yul\":41883:42249   */\n      swap2\n      swap1\n      pop\n      jump\t// out\n        /* \"#utility.yul\":42255:42674   */\n    tag_436:\n        /* \"#utility.yul\":42421:42425   */\n      0x00\n        /* \"#utility.yul\":42459:42461   */\n      0x20\n        /* \"#utility.yul\":42448:42457   */\n      dup3\n        /* \"#utility.yul\":42444:42462   */\n      add\n        /* \"#utility.yul\":42436:42462   */\n      swap1\n      pop\n        /* \"#utility.yul\":42508:42517   */\n      dup2\n        /* \"#utility.yul\":42502:42506   */\n      dup2\n        /* \"#utility.yul\":42498:42518   */\n      sub\n        /* \"#utility.yul\":42494:42495   */\n      0x00\n        /* \"#utility.yul\":42483:42492   */\n      dup4\n        /* \"#utility.yul\":42479:42496   */\n      add\n        /* \"#utility.yul\":42472:42519   */\n      mstore\n        /* \"#utility.yul\":42536:42667   */\n      tag_871\n        /* \"#utility.yul\":42662:42666   */\n      dup2\n        /* \"#utility.yul\":42536:42667   */\n      tag_559\n      jump\t// in\n    tag_871:\n        /* \"#utility.yul\":42528:42667   */\n      swap1\n      pop\n        /* \"#utility.yul\":42255:42674   */\n      swap2\n      swap1\n      pop\n      jump\t// out\n        /* \"#utility.yul\":42680:42861   */\n    tag_560:\n        /* \"#utility.yul\":42820:42853   */\n      0x52656e74616c20706572696f6420686173206e6f7420656e6465642079657400\n        /* \"#utility.yul\":42816:42817   */\n      0x00\n        /* \"#utility.yul\":42808:42814   */\n      dup3\n        /* \"#utility.yul\":42804:42818   */\n      add\n        /* \"#utility.yul\":42797:42854   */\n      mstore\n        /* \"#utility.yul\":42680:42861   */\n      pop\n      jump\t// out\n        /* \"#utility.yul\":42867:43233   */\n    tag_561:\n        /* \"#utility.yul\":43009:43012   */\n      0x00\n        /* \"#utility.yul\":43030:43097   */\n      tag_874\n        /* \"#utility.yul\":43094:43096   */\n      0x1f\n        /* \"#utility.yul\":43089:43092   */\n      dup4\n        /* \"#utility.yul\":43030:43097   */\n      tag_487\n      jump\t// in\n    tag_874:\n        /* \"#utility.yul\":43023:43097   */\n      swap2\n      pop\n        /* \"#utility.yul\":43106:43199   */\n      tag_875\n        /* \"#utility.yul\":43195:43198   */\n      dup3\n        /* \"#utility.yul\":43106:43199   */\n      tag_560\n      jump\t// in\n    tag_875:\n        /* \"#utility.yul\":43224:43226   */\n      0x20\n        /* \"#utility.yul\":43219:43222   */\n      dup3\n        /* \"#utility.yul\":43215:43227   */\n      add\n        /* \"#utility.yul\":43208:43227   */\n      swap1\n      pop\n        /* \"#utility.yul\":42867:43233   */\n      swap2\n      swap1\n      pop\n      jump\t// out\n        /* \"#utility.yul\":43239:43658   */\n    tag_454:\n        /* \"#utility.yul\":43405:43409   */\n      0x00\n        /* \"#utility.yul\":43443:43445   */\n      0x20\n        /* \"#utility.yul\":43432:43441   */\n      dup3\n        /* \"#utility.yul\":43428:43446   */\n      add\n        /* \"#utility.yul\":43420:43446   */\n      swap1\n      pop\n        /* \"#utility.yul\":43492:43501   */\n      dup2\n        /* \"#utility.yul\":43486:43490   */\n      dup2\n        /* \"#utility.yul\":43482:43502   */\n      sub\n        /* \"#utility.yul\":43478:43479   */\n      0x00\n        /* \"#utility.yul\":43467:43476   */\n      dup4\n        /* \"#utility.yul\":43463:43480   */\n      add\n        /* \"#utility.yul\":43456:43503   */\n      mstore\n        /* \"#utility.yul\":43520:43651   */\n      tag_877\n        /* \"#utility.yul\":43646:43650   */\n      dup2\n        /* \"#utility.yul\":43520:43651   */\n      tag_561\n      jump\t// in\n    tag_877:\n        /* \"#utility.yul\":43512:43651   */\n      swap1\n      pop\n        /* \"#utility.yul\":43239:43658   */\n      swap2\n      swap1\n      pop\n      jump\t// out\n        /* \"#utility.yul\":43664:43895   */\n    tag_562:\n        /* \"#utility.yul\":43804:43838   */\n      0x43616e6e6f7420656e6420636f6e7472616374207768696c6520646973707574\n        /* \"#utility.yul\":43800:43801   */\n      0x00\n        /* \"#utility.yul\":43792:43798   */\n      dup3\n        /* \"#utility.yul\":43788:43802   */\n      add\n        /* \"#utility.yul\":43781:43839   */\n      mstore\n        /* \"#utility.yul\":43873:43887   */\n      0x65206973206f6e676f696e670000000000000000000000000000000000000000\n        /* \"#utility.yul\":43868:43870   */\n      0x20\n        /* \"#utility.yul\":43860:43866   */\n      dup3\n        /* \"#utility.yul\":43856:43871   */\n      add\n        /* \"#utility.yul\":43849:43888   */\n      mstore\n        /* \"#utility.yul\":43664:43895   */\n      pop\n      jump\t// out\n        /* \"#utility.yul\":43901:44267   */\n    tag_563:\n        /* \"#utility.yul\":44043:44046   */\n      0x00\n        /* \"#utility.yul\":44064:44131   */\n      tag_880\n        /* \"#utility.yul\":44128:44130   */\n      0x2c\n        /* \"#utility.yul\":44123:44126   */\n      dup4\n        /* \"#utility.yul\":44064:44131   */\n      tag_487\n      jump\t// in\n    tag_880:\n        /* \"#utility.yul\":44057:44131   */\n      swap2\n      pop\n        /* \"#utility.yul\":44140:44233   */\n      tag_881\n        /* \"#utility.yul\":44229:44232   */\n      dup3\n        /* \"#utility.yul\":44140:44233   */\n      tag_562\n      jump\t// in\n    tag_881:\n        /* \"#utility.yul\":44258:44260   */\n      0x40\n        /* \"#utility.yul\":44253:44256   */\n      dup3\n        /* \"#utility.yul\":44249:44261   */\n      add\n        /* \"#utility.yul\":44242:44261   */\n      swap1\n      pop\n        /* \"#utility.yul\":43901:44267   */\n      swap2\n      swap1\n      pop\n      jump\t// out\n        /* \"#utility.yul\":44273:44692   */\n    tag_457:\n        /* \"#utility.yul\":44439:44443   */\n      0x00\n        /* \"#utility.yul\":44477:44479   */\n      0x20\n        /* \"#utility.yul\":44466:44475   */\n      dup3\n        /* \"#utility.yul\":44462:44480   */\n      add\n        /* \"#utility.yul\":44454:44480   */\n      swap1\n      pop\n        /* \"#utility.yul\":44526:44535   */\n      dup2\n        /* \"#utility.yul\":44520:44524   */\n      dup2\n        /* \"#utility.yul\":44516:44536   */\n      sub\n        /* \"#utility.yul\":44512:44513   */\n      0x00\n        /* \"#utility.yul\":44501:44510   */\n      dup4\n        /* \"#utility.yul\":44497:44514   */\n      add\n        /* \"#utility.yul\":44490:44537   */\n      mstore\n        /* \"#utility.yul\":44554:44685   */\n      tag_883\n        /* \"#utility.yul\":44680:44684   */\n      dup2\n        /* \"#utility.yul\":44554:44685   */\n      tag_563\n      jump\t// in\n    tag_883:\n        /* \"#utility.yul\":44546:44685   */\n      swap1\n      pop\n        /* \"#utility.yul\":44273:44692   */\n      swap2\n      swap1\n      pop\n      jump\t// out\n\n    auxdata: 0xa2646970667358221220e06b287479bbea080e7b4a8c784cd63cfbd9232e5e67f983e433bdb826effa2864736f6c63430008120033\n}\n",
				"bytecode": {
					"linkReferences": {},
					"object": "60806040523480156200001157600080fd5b506040516200496f3803806200496f8339818101604052810190620000379190620001bc565b336000806101000a81548173ffffffffffffffffffffffffffffffffffffffff021916908373ffffffffffffffffffffffffffffffffffffffff16021790555081600160006101000a81548173ffffffffffffffffffffffffffffffffffffffff021916908373ffffffffffffffffffffffffffffffffffffffff16021790555080600d60066101000a81548173ffffffffffffffffffffffffffffffffffffffff021916908373ffffffffffffffffffffffffffffffffffffffff1602179055506000600d60006101000a81548160ff0219169083151502179055506000600d60016101000a81548160ff0219169083151502179055506000600d60026101000a81548160ff021916908315150217905550505062000203565b600080fd5b600073ffffffffffffffffffffffffffffffffffffffff82169050919050565b6000620001848262000157565b9050919050565b620001968162000177565b8114620001a257600080fd5b50565b600081519050620001b6816200018b565b92915050565b60008060408385031215620001d657620001d562000152565b5b6000620001e685828601620001a5565b9250506020620001f985828601620001a5565b9150509250929050565b61475c80620002136000396000f3fe6080604052600436106102545760003560e01c80637ef9874011610139578063d261c91f116100b6578063dd6bcb161161007a578063dd6bcb16146107bc578063e1505e4e146107d3578063eaa0a30214610813578063f13702f41461082a578063f3f4370314610855578063feeaea4e146108925761025b565b8063d261c91f146106fd578063d738307c14610728578063d96152c314610751578063dc1997ea1461077a578063dcf2559e146107a55761025b565b8063a972500f116100fd578063a972500f14610650578063b0a1e2b414610667578063c2d6d46214610692578063ca088031146106bb578063cbe615b1146106d25761025b565b80637ef987401461059c57806381d388ba146105c5578063862a4d47146105f057806387eaa3421461061b578063a709c4fe146106465761025b565b806347ed9c65116101d25780636cc6cde1116101965780636cc6cde11461049a5780636f3c590c146104c55780636f9fb98a146104f057806371357a461461051b578063740906c014610546578063779318e5146105715761025b565b806347ed9c65146103c3578063561eefd8146103ee5780635a0e9bcc146104195780636302256014610444578063697b05a21461046f5761025b565b8063220e5ab311610219578063220e5ab31461032157806322f3e2d41461034c5780632e88ab0b146103775780633ccfd60b146103a257806342c63dae146103b95761025b565b80624422eb1461026057806304a2286a1461028b57806308c59798146102b65780631890fc37146102df5780631a576049146102f65761025b565b3661025b57005b600080fd5b34801561026c57600080fd5b506102756108bd565b6040516102829190613032565b60405180910390f35b34801561029757600080fd5b506102a06108d0565b6040516102ad9190613066565b60405180910390f35b3480156102c257600080fd5b506102dd60048036038101906102d891906130b2565b6108d6565b005b3480156102eb57600080fd5b506102f4610aae565b005b34801561030257600080fd5b5061030b610db3565b6040516103189190613066565b60405180910390f35b34801561032d57600080fd5b50610336610db9565b6040516103439190613066565b60405180910390f35b34801561035857600080fd5b50610361610dbf565b60405161036e9190613032565b60405180910390f35b34801561038357600080fd5b5061038c610dd2565b6040516103999190613120565b60405180910390f35b3480156103ae57600080fd5b506103b7610df8565b005b6103c1610fc2565b005b3480156103cf57600080fd5b506103d8611199565b6040516103e59190613032565b60405180910390f35b3480156103fa57600080fd5b506104036111ac565b6040516104109190613066565b60405180910390f35b34801561042557600080fd5b5061042e6111b2565b60405161043b9190613032565b60405180910390f35b34801561045057600080fd5b506104596111c5565b6040516104669190613066565b60405180910390f35b34801561047b57600080fd5b5061048461125d565b6040516104919190613066565b60405180910390f35b3480156104a657600080fd5b506104af611263565b6040516104bc919061319a565b60405180910390f35b3480156104d157600080fd5b506104da611289565b6040516104e79190613066565b60405180910390f35b3480156104fc57600080fd5b5061050561128f565b6040516105129190613066565b60405180910390f35b34801561052757600080fd5b50610530611297565b60405161053d9190613032565b60405180910390f35b34801561055257600080fd5b5061055b6112aa565b6040516105689190613066565b60405180910390f35b34801561057d57600080fd5b50610586611313565b6040516105939190613066565b60405180910390f35b3480156105a857600080fd5b506105c360048036038101906105be91906130b2565b61131d565b005b3480156105d157600080fd5b506105da6114bb565b6040516105e79190613066565b60405180910390f35b3480156105fc57600080fd5b506106056114c1565b6040516106129190613066565b60405180910390f35b34801561062757600080fd5b506106306114c7565b60405161063d9190613066565b60405180910390f35b61064e6114cd565b005b34801561065c57600080fd5b50610665611899565b005b34801561067357600080fd5b5061067c6119c6565b6040516106899190613066565b60405180910390f35b34801561069e57600080fd5b506106b960048036038101906106b491906130b2565b6119cc565b005b3480156106c757600080fd5b506106d0611b07565b005b3480156106de57600080fd5b506106e7611d8d565b6040516106f49190613032565b60405180910390f35b34801561070957600080fd5b50610712611da4565b60405161071f9190613066565b60405180910390f35b34801561073457600080fd5b5061074f600480360381019061074a91906131b5565b611daa565b005b34801561075d57600080fd5b5061077860048036038101906107739190613208565b611edd565b005b34801561078657600080fd5b5061078f612486565b60405161079c9190613120565b60405180910390f35b3480156107b157600080fd5b506107ba6124aa565b005b3480156107c857600080fd5b506107d16125b7565b005b3480156107df57600080fd5b506107fa60048036038101906107f591906130b2565b6128a3565b60405161080a9493929190613248565b60405180910390f35b34801561081f57600080fd5b506108286128e0565b005b34801561083657600080fd5b5061083f612bca565b60405161084c9190613032565b60405180910390f35b34801561086157600080fd5b5061087c600480360381019061087791906132b9565b612bdd565b6040516108899190613066565b60405180910390f35b34801561089e57600080fd5b506108a7612bf5565b6040516108b49190613066565b60405180910390f35b600d60029054906101000a900460ff1681565b60035481565b60008054906101000a900473ffffffffffffffffffffffffffffffffffffffff1673ffffffffffffffffffffffffffffffffffffffff163373ffffffffffffffffffffffffffffffffffffffff1614610964576040517f08c379a000000000000000000000000000000000000000000000000000000000815260040161095b90613369565b60405180910390fd5b600d60039054906101000a900460ff166109b3576040517f08c379a00000000000000000000000000000000000000000000000000000000081526004016109aa906133d5565b60405180910390fd5b600d60049054906101000a900460ff1615610a03576040517f08c379a00000000000000000000000000000000000000000000000000000000081526004016109fa90613441565b60405180910390fd5b600d60009054906101000a900460ff16610a52576040517f08c379a0000000000000000000000000000000000000000000000000000000008152600401610a49906134ad565b60405180910390fd5b806008819055506001600d60046101000a81548160ff0219169083151502179055507f192101de3933394fedeb636ffadd15c20b3e23e4913ab4051c171a26c90a345981604051610aa39190613066565b60405180910390a150565b60008054906101000a900473ffffffffffffffffffffffffffffffffffffffff1673ffffffffffffffffffffffffffffffffffffffff163373ffffffffffffffffffffffffffffffffffffffff1614610b3c576040517f08c379a0000000000000000000000000000000000000000000000000000000008152600401610b339061353f565b60405180910390fd5b600d60059054906101000a900460ff16610b8b576040517f08c379a0000000000000000000000000000000000000000000000000000000008152600401610b82906135d1565b60405180910390fd5b600d60069054906101000a900473ffffffffffffffffffffffffffffffffffffffff1673ffffffffffffffffffffffffffffffffffffffff1663630225606040518163ffffffff1660e01b8152600401602060405180830381865afa158015610bf8573d6000803e3d6000fd5b505050506040513d601f19601f82011682018060405250810190610c1c9190613606565b600c81905550600c54600b541015610c69576040517f08c379a0000000000000000000000000000000000000000000000000000000008152600401610c60906136a5565b60405180910390fd5b600c54600b6000828254610c7d91906136f4565b92505081905550600d60069054906101000a900473ffffffffffffffffffffffffffffffffffffffff1673ffffffffffffffffffffffffffffffffffffffff1663f26999cd600c546008546009546040518463ffffffff1660e01b8152600401610ce8929190613728565b60206040518083038185885af1158015610d06573d6000803e3d6000fd5b50505050506040513d601f19601f82011682018060405250810190610d2b9190613606565b600a819055506001600d60026101000a81548160ff0219169083151502179055507f04901f83201c8724eadf084436db8aa391820bae6d11f9f78a17edb6f2eef3cf600a54604051610d7d9190613066565b60405180910390a17fa7d8a4744bc13e083818434dde26551ea9b29c6425677ebc90cd5dd09ce6b5c760405160405180910390a1565b60085481565b60025481565b600d60009054906101000a900460ff1681565b600160009054906101000a900473ffffffffffffffffffffffffffffffffffffffff1681565b6000600f60003373ffffffffffffffffffffffffffffffffffffffff1673ffffffffffffffffffffffffffffffffffffffff16815260200190815260200160002054905060008111610e7f576040517f08c379a0000000000000000000000000000000000000000000000000000000008152600401610e769061379d565b60405180910390fd5b6000600f60003373ffffffffffffffffffffffffffffffffffffffff1673ffffffffffffffffffffffffffffffffffffffff1681526020019081526020016000208190555060003373ffffffffffffffffffffffffffffffffffffffff1682604051610eea906137ee565b60006040518083038185875af1925050503d8060008114610f27576040519150601f19603f3d011682016040523d82523d6000602084013e610f2c565b606091505b5050905080610f70576040517f08c379a0000000000000000000000000000000000000000000000000000000008152600401610f679061384f565b60405180910390fd5b3373ffffffffffffffffffffffffffffffffffffffff167f8c9a4f13b67cb64d7c6aa1ae0c9bf07694af521a28b93e7060020810ab4bc59f83604051610fb69190613066565b60405180910390a25050565b600160009054906101000a900473ffffffffffffffffffffffffffffffffffffffff1673ffffffffffffffffffffffffffffffffffffffff163373ffffffffffffffffffffffffffffffffffffffff1614611052576040517f08c379a0000000000000000000000000000000000000000000000000000000008152600401611049906138e1565b60405180910390fd5b600d60009054906101000a900460ff16156110a2576040517f08c379a00000000000000000000000000000000000000000000000000000000081526004016110999061394d565b60405180910390fd5b60025434146110e6576040517f08c379a00000000000000000000000000000000000000000000000000000000081526004016110dd906139df565b60405180910390fd5b6001600d60016101000a81548160ff021916908315150217905550600254600b819055507f486ac935cf1ea9effd9e0a261bc42917b45f2fd45cc98def2bc34d47f216937c346040516111399190613066565b60405180910390a16001600d60006101000a81548160ff0219169083151502179055504260058190555060016006819055507fe09eb0ac9bad92f05e0b489e6fc1d3e349861ffd8a2548182ef06278968a9bd060405160405180910390a1565b600d60059054906101000a900460ff1681565b60055481565b600d60039054906101000a900460ff1681565b6000600d60069054906101000a900473ffffffffffffffffffffffffffffffffffffffff1673ffffffffffffffffffffffffffffffffffffffff1663630225606040518163ffffffff1660e01b8152600401602060405180830381865afa158015611234573d6000803e3d6000fd5b505050506040513d601f19601f820116820180604052508101906112589190613606565b905090565b600c5481565b600d60069054906101000a900473ffffffffffffffffffffffffffffffffffffffff1681565b60075481565b600047905090565b600d60049054906101000a900460ff1681565b6000600f6000600160009054906101000a900473ffffffffffffffffffffffffffffffffffffffff1673ffffffffffffffffffffffffffffffffffffffff1673ffffffffffffffffffffffffffffffffffffffff16815260200190815260200160002054905090565b6000600b54905090565b60008054906101000a900473ffffffffffffffffffffffffffffffffffffffff1673ffffffffffffffffffffffffffffffffffffffff163373ffffffffffffffffffffffffffffffffffffffff16146113ab576040517f08c379a00000000000000000000000000000000000000000000000000000000081526004016113a290613a71565b60405180910390fd5b600d60009054906101000a900460ff166113fa576040517f08c379a00000000000000000000000000000000000000000000000000000000081526004016113f1906134ad565b60405180910390fd5b6004546006541115611441576040517f08c379a000000000000000000000000000000000000000000000000000000000815260040161143890613add565b60405180910390fd5b80600e6000600654815260200190815260200160002060010181905550600354600e60006006548152602001908152602001600020600001819055507ff75d23e75691b7209bf24071476b3702a8412a369b26fd3ad012d19630f65a2b600654826040516114b0929190613728565b60405180910390a150565b60095481565b60065481565b60045481565b600160009054906101000a900473ffffffffffffffffffffffffffffffffffffffff1673ffffffffffffffffffffffffffffffffffffffff163373ffffffffffffffffffffffffffffffffffffffff161461155d576040517f08c379a000000000000000000000000000000000000000000000000000000000815260040161155490613b49565b60405180910390fd5b600d60009054906101000a900460ff166115ac576040517f08c379a00000000000000000000000000000000000000000000000000000000081526004016115a3906134ad565b60405180910390fd5b60045460065411156115f3576040517f08c379a00000000000000000000000000000000000000000000000000000000081526004016115ea90613add565b60405180910390fd5b6000600e6000600654815260200190815260200160002090508060030160009054906101000a900460ff161561165e576040517f08c379a000000000000000000000000000000000000000000000000000000000815260040161165590613bdb565b60405180910390fd5b60008160010154116116a5576040517f08c379a000000000000000000000000000000000000000000000000000000000815260040161169c90613c6d565b60405180910390fd5b6000600754826001015483600001546116be9190613c8d565b6116c89190613c8d565b905080341461170c576040517f08c379a000000000000000000000000000000000000000000000000000000000815260040161170390613d0d565b60405180910390fd5b60018260030160006101000a81548160ff02191690831515021790555060006007819055507fa0d112ed080c1b1a94b838ad981a23746be2a4670fd4bf157224e72cdd5dfdde60065482604051611764929190613728565b60405180910390a180600f60008060009054906101000a900473ffffffffffffffffffffffffffffffffffffffff1673ffffffffffffffffffffffffffffffffffffffff1673ffffffffffffffffffffffffffffffffffffffff16815260200190815260200160002060008282546117dc9190613c8d565b9250508190555060008054906101000a900473ffffffffffffffffffffffffffffffffffffffff1673ffffffffffffffffffffffffffffffffffffffff167fe670e4e82118d22a1f9ee18920455ebc958bae26a90a05d31d3378788b1b0e44826040516118499190613066565b60405180910390a26004546006540361187c576001600d60036101000a81548160ff021916908315150217905550611895565b6006600081548092919061188f90613d2d565b91905055505b5050565b60008054906101000a900473ffffffffffffffffffffffffffffffffffffffff1673ffffffffffffffffffffffffffffffffffffffff163373ffffffffffffffffffffffffffffffffffffffff1614611927576040517f08c379a000000000000000000000000000000000000000000000000000000000815260040161191e90613de7565b60405180910390fd5b600d60009054906101000a900460ff16611976576040517f08c379a000000000000000000000000000000000000000000000000000000000815260040161196d90613e53565b60405180910390fd5b6000600b54146119bb576040517f08c379a00000000000000000000000000000000000000000000000000000000081526004016119b290613ee5565b60405180910390fd5b600254600b81905550565b600a5481565b600160009054906101000a900473ffffffffffffffffffffffffffffffffffffffff1673ffffffffffffffffffffffffffffffffffffffff163373ffffffffffffffffffffffffffffffffffffffff1614611a5c576040517f08c379a0000000000000000000000000000000000000000000000000000000008152600401611a5390613f77565b60405180910390fd5b600d60049054906101000a900460ff16611aab576040517f08c379a0000000000000000000000000000000000000000000000000000000008152600401611aa290614009565b60405180910390fd5b806009819055506001600d60056101000a81548160ff0219169083151502179055507f0f2792b28c50f2f7eece39e74a2b4f0f1ce15a79acb72dd811686e827aed030b81604051611afc9190613066565b60405180910390a150565b600160009054906101000a900473ffffffffffffffffffffffffffffffffffffffff1673ffffffffffffffffffffffffffffffffffffffff163373ffffffffffffffffffffffffffffffffffffffff1614611b97576040517f08c379a0000000000000000000000000000000000000000000000000000000008152600401611b8e9061409b565b60405180910390fd5b600d60009054906101000a900460ff16611be6576040517f08c379a0000000000000000000000000000000000000000000000000000000008152600401611bdd906134ad565b60405180910390fd5b60045460065410611c2c576040517f08c379a0000000000000000000000000000000000000000000000000000000008152600401611c239061412d565b60405180910390fd5b6000600e6000600654815260200190815260200160002090508060030160009054906101000a900460ff1615611c97576040517f08c379a0000000000000000000000000000000000000000000000000000000008152600401611c8e90613bdb565b60405180910390fd5b6000816001015411611cde576040517f08c379a0000000000000000000000000000000000000000000000000000000008152600401611cd590613c6d565b60405180910390fd5b600081600101548260000154611cf49190613c8d565b90508060076000828254611d089190613c8d565b925050819055507f9ea3a4b65940d7b9dbf8bb1c459ba8e81222d1a596e93fbc364365a6d78e27d660065482604051611d42929190613728565b60405180910390a160066000815480929190611d5d90613d2d565b919050555060045460065403611d89576001600d60036101000a81548160ff0219169083151502179055505b5050565b6000600d60039054906101000a900460ff16905090565b600b5481565b60008054906101000a900473ffffffffffffffffffffffffffffffffffffffff1673ffffffffffffffffffffffffffffffffffffffff163373ffffffffffffffffffffffffffffffffffffffff1614611e38576040517f08c379a0000000000000000000000000000000000000000000000000000000008152600401611e2f906141bf565b60405180910390fd5b600d60009054906101000a900460ff1615611e88576040517f08c379a0000000000000000000000000000000000000000000000000000000008152600401611e7f9061394d565b60405180910390fd5b8260028190555081600381905550806004819055507f2f47566d4872826a9750e05ae448ad21f2a677c332d36d6437b697a7f8dd1e14838383604051611ed0939291906141df565b60405180910390a1505050565b600d60069054906101000a900473ffffffffffffffffffffffffffffffffffffffff1673ffffffffffffffffffffffffffffffffffffffff163373ffffffffffffffffffffffffffffffffffffffff1614611f6d576040517f08c379a0000000000000000000000000000000000000000000000000000000008152600401611f6490614288565b60405180910390fd5b600d60029054906101000a900460ff16611fbc576040517f08c379a0000000000000000000000000000000000000000000000000000000008152600401611fb3906142f4565b60405180910390fd5b600a548214612000576040517f08c379a0000000000000000000000000000000000000000000000000000000008152600401611ff790614360565b60405180910390fd5b6000806001830361204c57600b546008541061201e57600b54612022565b6008545b915060008054906101000a900473ffffffffffffffffffffffffffffffffffffffff1690506120ae565b6002830361209757600b546009541061206757600b5461206b565b6009545b9150600160009054906101000a900473ffffffffffffffffffffffffffffffffffffffff1690506120ad565b6002600b546120a691906143af565b9150600090505b5b81600f60008060009054906101000a900473ffffffffffffffffffffffffffffffffffffffff1673ffffffffffffffffffffffffffffffffffffffff1673ffffffffffffffffffffffffffffffffffffffff168152602001908152602001600020600082825461211e9190613c8d565b9250508190555081600b5461213391906136f4565b600f6000600160009054906101000a900473ffffffffffffffffffffffffffffffffffffffff1673ffffffffffffffffffffffffffffffffffffffff1673ffffffffffffffffffffffffffffffffffffffff16815260200190815260200160002060008282546121a39190613c8d565b9250508190555060006002600c546121bb91906143af565b9050600073ffffffffffffffffffffffffffffffffffffffff168273ffffffffffffffffffffffffffffffffffffffff161461224c5780600f60008473ffffffffffffffffffffffffffffffffffffffff1673ffffffffffffffffffffffffffffffffffffffff16815260200190815260200160002060008282546122409190613c8d565b92505081905550612354565b60028161225991906143af565b600f60008060009054906101000a900473ffffffffffffffffffffffffffffffffffffffff1673ffffffffffffffffffffffffffffffffffffffff1673ffffffffffffffffffffffffffffffffffffffff16815260200190815260200160002060008282546122c89190613c8d565b925050819055506002816122dc91906143af565b600f6000600160009054906101000a900473ffffffffffffffffffffffffffffffffffffffff1673ffffffffffffffffffffffffffffffffffffffff1673ffffffffffffffffffffffffffffffffffffffff168152602001908152602001600020600082825461234c9190613c8d565b925050819055505b6000600d60069054906101000a900473ffffffffffffffffffffffffffffffffffffffff1673ffffffffffffffffffffffffffffffffffffffff168260405161239c906137ee565b60006040518083038185875af1925050503d80600081146123d9576040519150601f19603f3d011682016040523d82523d6000602084013e6123de565b606091505b5050905080612422576040517f08c379a000000000000000000000000000000000000000000000000000000000815260040161241990614452565b60405180910390fd5b6000600d60026101000a81548160ff0219169083151502179055507fb4121f1f91a696a3fc75f6d151f3c9865abffa0738bda595e71c381c02af2faa868660405161246e929190613728565b60405180910390a161247e612c5d565b505050505050565b60008054906101000a900473ffffffffffffffffffffffffffffffffffffffff1681565b600160009054906101000a900473ffffffffffffffffffffffffffffffffffffffff1673ffffffffffffffffffffffffffffffffffffffff163373ffffffffffffffffffffffffffffffffffffffff161461253a576040517f08c379a0000000000000000000000000000000000000000000000000000000008152600401612531906144e4565b60405180910390fd5b600d60049054906101000a900460ff16612589576040517f08c379a000000000000000000000000000000000000000000000000000000000815260040161258090614009565b60405180910390fd5b7f214f96452fc3fdfd5eeafda7f5df5b6066f4f8ac1295fb53cd051491b9b56da360405160405180910390a1565b600160009054906101000a900473ffffffffffffffffffffffffffffffffffffffff1673ffffffffffffffffffffffffffffffffffffffff163373ffffffffffffffffffffffffffffffffffffffff1614612647576040517f08c379a000000000000000000000000000000000000000000000000000000000815260040161263e90614576565b60405180910390fd5b600d60049054906101000a900460ff16612696576040517f08c379a000000000000000000000000000000000000000000000000000000000815260040161268d90614009565b60405180910390fd5b6000600b54600854106126ab57600b546126af565b6008545b905080600f60008060009054906101000a900473ffffffffffffffffffffffffffffffffffffffff1673ffffffffffffffffffffffffffffffffffffffff1673ffffffffffffffffffffffffffffffffffffffff16815260200190815260200160002060008282546127219190613c8d565b9250508190555080600b5461273691906136f4565b600f6000600160009054906101000a900473ffffffffffffffffffffffffffffffffffffffff1673ffffffffffffffffffffffffffffffffffffffff1673ffffffffffffffffffffffffffffffffffffffff16815260200190815260200160002060008282546127a69190613c8d565b9250508190555060008054906101000a900473ffffffffffffffffffffffffffffffffffffffff1673ffffffffffffffffffffffffffffffffffffffff167fe670e4e82118d22a1f9ee18920455ebc958bae26a90a05d31d3378788b1b0e44826040516128139190613066565b60405180910390a2600160009054906101000a900473ffffffffffffffffffffffffffffffffffffffff1673ffffffffffffffffffffffffffffffffffffffff167fe670e4e82118d22a1f9ee18920455ebc958bae26a90a05d31d3378788b1b0e4482600b5461288391906136f4565b6040516128909190613066565b60405180910390a26128a0612c5d565b50565b600e6020528060005260406000206000915090508060000154908060010154908060020154908060030160009054906101000a900460ff16905084565b60008054906101000a900473ffffffffffffffffffffffffffffffffffffffff1673ffffffffffffffffffffffffffffffffffffffff163373ffffffffffffffffffffffffffffffffffffffff161461296e576040517f08c379a000000000000000000000000000000000000000000000000000000000815260040161296590614608565b60405180910390fd5b600d60059054906101000a900460ff166129bd576040517f08c379a00000000000000000000000000000000000000000000000000000000081526004016129b4906135d1565b60405180910390fd5b6000600b54600954106129d257600b546129d6565b6009545b905080600f60008060009054906101000a900473ffffffffffffffffffffffffffffffffffffffff1673ffffffffffffffffffffffffffffffffffffffff1673ffffffffffffffffffffffffffffffffffffffff1681526020019081526020016000206000828254612a489190613c8d565b9250508190555080600b54612a5d91906136f4565b600f6000600160009054906101000a900473ffffffffffffffffffffffffffffffffffffffff1673ffffffffffffffffffffffffffffffffffffffff1673ffffffffffffffffffffffffffffffffffffffff1681526020019081526020016000206000828254612acd9190613c8d565b9250508190555060008054906101000a900473ffffffffffffffffffffffffffffffffffffffff1673ffffffffffffffffffffffffffffffffffffffff167fe670e4e82118d22a1f9ee18920455ebc958bae26a90a05d31d3378788b1b0e4482604051612b3a9190613066565b60405180910390a2600160009054906101000a900473ffffffffffffffffffffffffffffffffffffffff1673ffffffffffffffffffffffffffffffffffffffff167fe670e4e82118d22a1f9ee18920455ebc958bae26a90a05d31d3378788b1b0e4482600b54612baa91906136f4565b604051612bb79190613066565b60405180910390a2612bc7612c5d565b50565b600d60019054906101000a900460ff1681565b600f6020528060005260406000206000915090505481565b6000600f60008060009054906101000a900473ffffffffffffffffffffffffffffffffffffffff1673ffffffffffffffffffffffffffffffffffffffff1673ffffffffffffffffffffffffffffffffffffffff16815260200190815260200160002054905090565b600d60009054906101000a900460ff16612cac576040517f08c379a0000000000000000000000000000000000000000000000000000000008152600401612ca3906134ad565b60405180910390fd5b600d60039054906101000a900460ff16612cfb576040517f08c379a0000000000000000000000000000000000000000000000000000000008152600401612cf290614674565b60405180910390fd5b600d60029054906101000a900460ff1615612d4b576040517f08c379a0000000000000000000000000000000000000000000000000000000008152600401612d4290614706565b60405180910390fd5b6000600d60006101000a81548160ff02191690831515021790555060006007549050600080821115612e1357600b54821115612d8757600b5491505b81600f60008060009054906101000a900473ffffffffffffffffffffffffffffffffffffffff1673ffffffffffffffffffffffffffffffffffffffff1673ffffffffffffffffffffffffffffffffffffffff1681526020019081526020016000206000828254612df79190613c8d565b9250508190555081600b54612e0c91906136f4565b9050612e19565b600b5490505b6000811115612e9b5780600f6000600160009054906101000a900473ffffffffffffffffffffffffffffffffffffffff1673ffffffffffffffffffffffffffffffffffffffff1673ffffffffffffffffffffffffffffffffffffffff1681526020019081526020016000206000828254612e939190613c8d565b925050819055505b7fc0590c5a8ce79dffbdde17480a06203778f954965615e1d9577dbc90da2ff1098183604051612ecc929190613728565b60405180910390a160008054906101000a900473ffffffffffffffffffffffffffffffffffffffff1673ffffffffffffffffffffffffffffffffffffffff167fe670e4e82118d22a1f9ee18920455ebc958bae26a90a05d31d3378788b1b0e4483604051612f3a9190613066565b60405180910390a2600160009054906101000a900473ffffffffffffffffffffffffffffffffffffffff1673ffffffffffffffffffffffffffffffffffffffff167fe670e4e82118d22a1f9ee18920455ebc958bae26a90a05d31d3378788b1b0e4482604051612faa9190613066565b60405180910390a26000600b8190555060006007819055506000600d60036101000a81548160ff0219169083151502179055506000600d60046101000a81548160ff0219169083151502179055506000600d60056101000a81548160ff0219169083151502179055505050565b60008115159050919050565b61302c81613017565b82525050565b60006020820190506130476000830184613023565b92915050565b6000819050919050565b6130608161304d565b82525050565b600060208201905061307b6000830184613057565b92915050565b600080fd5b61308f8161304d565b811461309a57600080fd5b50565b6000813590506130ac81613086565b92915050565b6000602082840312156130c8576130c7613081565b5b60006130d68482850161309d565b91505092915050565b600073ffffffffffffffffffffffffffffffffffffffff82169050919050565b600061310a826130df565b9050919050565b61311a816130ff565b82525050565b60006020820190506131356000830184613111565b92915050565b6000819050919050565b600061316061315b613156846130df565b61313b565b6130df565b9050919050565b600061317282613145565b9050919050565b600061318482613167565b9050919050565b61319481613179565b82525050565b60006020820190506131af600083018461318b565b92915050565b6000806000606084860312156131ce576131cd613081565b5b60006131dc8682870161309d565b93505060206131ed8682870161309d565b92505060406131fe8682870161309d565b9150509250925092565b6000806040838503121561321f5761321e613081565b5b600061322d8582860161309d565b925050602061323e8582860161309d565b9150509250929050565b600060808201905061325d6000830187613057565b61326a6020830186613057565b6132776040830185613057565b6132846060830184613023565b95945050505050565b613296816130ff565b81146132a157600080fd5b50565b6000813590506132b38161328d565b92915050565b6000602082840312156132cf576132ce613081565b5b60006132dd848285016132a4565b91505092915050565b600082825260208201905092915050565b7f4f6e6c79206c616e646c6f72642063616e20736574207468652064616d61676560008201527f20657374696d6174650000000000000000000000000000000000000000000000602082015250565b60006133536029836132e6565b915061335e826132f7565b604082019050919050565b6000602082019050818103600083015261338281613346565b9050919050565b7f52656e7420706572696f6420686173206e6f7420656e64656420796574000000600082015250565b60006133bf601d836132e6565b91506133ca82613389565b602082019050919050565b600060208201905081810360008301526133ee816133b2565b9050919050565b7f44616d61676520657374696d61746520616c7265616479207365740000000000600082015250565b600061342b601b836132e6565b9150613436826133f5565b602082019050919050565b6000602082019050818103600083015261345a8161341e565b9050919050565b7f436f6e7472616374206973206e6f742061637469766500000000000000000000600082015250565b60006134976016836132e6565b91506134a282613461565b602082019050919050565b600060208201905081810360008301526134c68161348a565b9050919050565b7f4f6e6c79206c616e646c6f72642063616e2072656a6563742074686520636f7560008201527f6e74657220657374696d61746500000000000000000000000000000000000000602082015250565b6000613529602d836132e6565b9150613534826134cd565b604082019050919050565b600060208201905081810360008301526135588161351c565b9050919050565b7f52656e746572206d7573742073657420636f756e74657220657374696d61746560008201527f2066697273740000000000000000000000000000000000000000000000000000602082015250565b60006135bb6026836132e6565b91506135c68261355f565b604082019050919050565b600060208201905081810360008301526135ea816135ae565b9050919050565b60008151905061360081613086565b92915050565b60006020828403121561361c5761361b613081565b5b600061362a848285016135f1565b91505092915050565b7f5365637572697479206465706f73697420696e73756666696369656e7420746f60008201527f20636f766572206172626974726174696f6e20636f7374730000000000000000602082015250565b600061368f6038836132e6565b915061369a82613633565b604082019050919050565b600060208201905081810360008301526136be81613682565b9050919050565b7f4e487b7100000000000000000000000000000000000000000000000000000000600052601160045260246000fd5b60006136ff8261304d565b915061370a8361304d565b9250828203905081811115613722576137216136c5565b5b92915050565b600060408201905061373d6000830185613057565b61374a6020830184613057565b9392505050565b7f4e6f2066756e647320746f207769746864726177000000000000000000000000600082015250565b60006137876014836132e6565b915061379282613751565b602082019050919050565b600060208201905081810360008301526137b68161377a565b9050919050565b600081905092915050565b50565b60006137d86000836137bd565b91506137e3826137c8565b600082019050919050565b60006137f9826137cb565b9150819050919050565b7f5472616e73666572206661696c65640000000000000000000000000000000000600082015250565b6000613839600f836132e6565b915061384482613803565b602082019050919050565b600060208201905081810360008301526138688161382c565b9050919050565b7f4f6e6c792072656e7465722063616e207061792073656375726974792064657060008201527f6f73697400000000000000000000000000000000000000000000000000000000602082015250565b60006138cb6024836132e6565b91506138d68261386f565b604082019050919050565b600060208201905081810360008301526138fa816138be565b9050919050565b7f436f6e747261637420697320616c726561647920616374697665000000000000600082015250565b6000613937601a836132e6565b915061394282613901565b602082019050919050565b600060208201905081810360008301526139668161392a565b9050919050565b7f496e636f7272656374207365637572697479206465706f73697420616d6f756e60008201527f7400000000000000000000000000000000000000000000000000000000000000602082015250565b60006139c96021836132e6565b91506139d48261396d565b604082019050919050565b600060208201905081810360008301526139f8816139bc565b9050919050565b7f4f6e6c79206c616e646c6f72642063616e207265636f7264207574696c69746960008201527f6573000000000000000000000000000000000000000000000000000000000000602082015250565b6000613a5b6022836132e6565b9150613a66826139ff565b604082019050919050565b60006020820190508181036000830152613a8a81613a4e565b9050919050565b7f52656e7420706572696f642068617320656e6465640000000000000000000000600082015250565b6000613ac76015836132e6565b9150613ad282613a91565b602082019050919050565b60006020820190508181036000830152613af681613aba565b9050919050565b7f4f6e6c792072656e7465722063616e207061792072656e740000000000000000600082015250565b6000613b336018836132e6565b9150613b3e82613afd565b602082019050919050565b60006020820190508181036000830152613b6281613b26565b9050919050565b7f52656e7420666f722074686973206d6f6e74682068617320616c72656164792060008201527f6265656e20706169640000000000000000000000000000000000000000000000602082015250565b6000613bc56029836132e6565b9150613bd082613b69565b604082019050919050565b60006020820190508181036000830152613bf481613bb8565b9050919050565b7f5574696c697469657320666f722074686973206d6f6e74682068617665206e6f60008201527f74206265656e207265636f726465640000000000000000000000000000000000602082015250565b6000613c57602f836132e6565b9150613c6282613bfb565b604082019050919050565b60006020820190508181036000830152613c8681613c4a565b9050919050565b6000613c988261304d565b9150613ca38361304d565b9250828201905080821115613cbb57613cba6136c5565b5b92915050565b7f496e636f72726563742072656e7420616d6f756e740000000000000000000000600082015250565b6000613cf76015836132e6565b9150613d0282613cc1565b602082019050919050565b60006020820190508181036000830152613d2681613cea565b9050919050565b6000613d388261304d565b91507fffffffffffffffffffffffffffffffffffffffffffffffffffffffffffffffff8203613d6a57613d696136c5565b5b600182019050919050565b7f4f6e6c79206c616e646c6f72642063616e20696e697469616c697a652063757260008201527f72656e74207365637572697479206465706f7369740000000000000000000000602082015250565b6000613dd16035836132e6565b9150613ddc82613d75565b604082019050919050565b60006020820190508181036000830152613e0081613dc4565b9050919050565b7f436f6e7472616374206d75737420626520616374697665000000000000000000600082015250565b6000613e3d6017836132e6565b9150613e4882613e07565b602082019050919050565b60006020820190508181036000830152613e6c81613e30565b9050919050565b7f43757272656e74207365637572697479206465706f73697420616c726561647960008201527f20696e697469616c697a65640000000000000000000000000000000000000000602082015250565b6000613ecf602c836132e6565b9150613eda82613e73565b604082019050919050565b60006020820190508181036000830152613efe81613ec2565b9050919050565b7f4f6e6c792072656e7465722063616e207365742074686520636f756e7465722060008201527f657374696d617465000000000000000000000000000000000000000000000000602082015250565b6000613f616028836132e6565b9150613f6c82613f05565b604082019050919050565b60006020820190508181036000830152613f9081613f54565b9050919050565b7f4c616e646c6f7264206d757374207365742064616d61676520657374696d617460008201527f6520666972737400000000000000000000000000000000000000000000000000602082015250565b6000613ff36027836132e6565b9150613ffe82613f97565b604082019050919050565b6000602082019050818103600083015261402281613fe6565b9050919050565b7f4f6e6c792072656e7465722063616e20736b69702072656e74207061796d656e60008201527f7400000000000000000000000000000000000000000000000000000000000000602082015250565b60006140856021836132e6565b915061409082614029565b604082019050919050565b600060208201905081810360008301526140b481614078565b9050919050565b7f43616e6e6f7420736b69702072656e7420666f7220746865206c617374206d6f60008201527f6e74680000000000000000000000000000000000000000000000000000000000602082015250565b60006141176023836132e6565b9150614122826140bb565b604082019050919050565b600060208201905081810360008301526141468161410a565b9050919050565b7f4f6e6c79206c616e646c6f72642063616e207365742061677265656d656e742060008201527f7465726d73000000000000000000000000000000000000000000000000000000602082015250565b60006141a96025836132e6565b91506141b48261414d565b604082019050919050565b600060208201905081810360008301526141d88161419c565b9050919050565b60006060820190506141f46000830186613057565b6142016020830185613057565b61420e6040830184613057565b949350505050565b7f4f6e6c79207468652061726269747261746f722063616e20657865637574652060008201527f72756c696e670000000000000000000000000000000000000000000000000000602082015250565b60006142726026836132e6565b915061427d82614216565b604082019050919050565b600060208201905081810360008301526142a181614265565b9050919050565b7f4e6f206469737075746520746f2072756c65206f6e0000000000000000000000600082015250565b60006142de6015836132e6565b91506142e9826142a8565b602082019050919050565b6000602082019050818103600083015261430d816142d1565b9050919050565b7f57726f6e67206469737075746520494400000000000000000000000000000000600082015250565b600061434a6010836132e6565b915061435582614314565b602082019050919050565b600060208201905081810360008301526143798161433d565b9050919050565b7f4e487b7100000000000000000000000000000000000000000000000000000000600052601260045260246000fd5b60006143ba8261304d565b91506143c58361304d565b9250826143d5576143d4614380565b5b828204905092915050565b7f4661696c656420746f207472616e73666572206172626974726174696f6e206660008201527f656520746f2061726269747261746f7200000000000000000000000000000000602082015250565b600061443c6030836132e6565b9150614447826143e0565b604082019050919050565b6000602082019050818103600083015261446b8161442f565b9050919050565b7f4f6e6c792072656e7465722063616e2072656a6563742074686520657374696d60008201527f6174650000000000000000000000000000000000000000000000000000000000602082015250565b60006144ce6023836132e6565b91506144d982614472565b604082019050919050565b600060208201905081810360008301526144fd816144c1565b9050919050565b7f4f6e6c792072656e7465722063616e206163636570742074686520657374696d60008201527f6174650000000000000000000000000000000000000000000000000000000000602082015250565b60006145606023836132e6565b915061456b82614504565b604082019050919050565b6000602082019050818103600083015261458f81614553565b9050919050565b7f4f6e6c79206c616e646c6f72642063616e206163636570742074686520636f7560008201527f6e74657220657374696d61746500000000000000000000000000000000000000602082015250565b60006145f2602d836132e6565b91506145fd82614596565b604082019050919050565b60006020820190508181036000830152614621816145e5565b9050919050565b7f52656e74616c20706572696f6420686173206e6f7420656e6465642079657400600082015250565b600061465e601f836132e6565b915061466982614628565b602082019050919050565b6000602082019050818103600083015261468d81614651565b9050919050565b7f43616e6e6f7420656e6420636f6e7472616374207768696c652064697370757460008201527f65206973206f6e676f696e670000000000000000000000000000000000000000602082015250565b60006146f0602c836132e6565b91506146fb82614694565b604082019050919050565b6000602082019050818103600083015261471f816146e3565b905091905056fea2646970667358221220e06b287479bbea080e7b4a8c784cd63cfbd9232e5e67f983e433bdb826effa2864736f6c63430008120033",
					"opcodes": "PUSH1 0x80 PUSH1 0x40 MSTORE CALLVALUE DUP1 ISZERO PUSH3 0x11 JUMPI PUSH1 0x0 DUP1 REVERT JUMPDEST POP PUSH1 0x40 MLOAD PUSH3 0x496F CODESIZE SUB DUP1 PUSH3 0x496F DUP4 CODECOPY DUP2 DUP2 ADD PUSH1 0x40 MSTORE DUP2 ADD SWAP1 PUSH3 0x37 SWAP2 SWAP1 PUSH3 0x1BC JUMP JUMPDEST CALLER PUSH1 0x0 DUP1 PUSH2 0x100 EXP DUP2 SLOAD DUP2 PUSH20 0xFFFFFFFFFFFFFFFFFFFFFFFFFFFFFFFFFFFFFFFF MUL NOT AND SWAP1 DUP4 PUSH20 0xFFFFFFFFFFFFFFFFFFFFFFFFFFFFFFFFFFFFFFFF AND MUL OR SWAP1 SSTORE POP DUP2 PUSH1 0x1 PUSH1 0x0 PUSH2 0x100 EXP DUP2 SLOAD DUP2 PUSH20 0xFFFFFFFFFFFFFFFFFFFFFFFFFFFFFFFFFFFFFFFF MUL NOT AND SWAP1 DUP4 PUSH20 0xFFFFFFFFFFFFFFFFFFFFFFFFFFFFFFFFFFFFFFFF AND MUL OR SWAP1 SSTORE POP DUP1 PUSH1 0xD PUSH1 0x6 PUSH2 0x100 EXP DUP2 SLOAD DUP2 PUSH20 0xFFFFFFFFFFFFFFFFFFFFFFFFFFFFFFFFFFFFFFFF MUL NOT AND SWAP1 DUP4 PUSH20 0xFFFFFFFFFFFFFFFFFFFFFFFFFFFFFFFFFFFFFFFF AND MUL OR SWAP1 SSTORE POP PUSH1 0x0 PUSH1 0xD PUSH1 0x0 PUSH2 0x100 EXP DUP2 SLOAD DUP2 PUSH1 0xFF MUL NOT AND SWAP1 DUP4 ISZERO ISZERO MUL OR SWAP1 SSTORE POP PUSH1 0x0 PUSH1 0xD PUSH1 0x1 PUSH2 0x100 EXP DUP2 SLOAD DUP2 PUSH1 0xFF MUL NOT AND SWAP1 DUP4 ISZERO ISZERO MUL OR SWAP1 SSTORE POP PUSH1 0x0 PUSH1 0xD PUSH1 0x2 PUSH2 0x100 EXP DUP2 SLOAD DUP2 PUSH1 0xFF MUL NOT AND SWAP1 DUP4 ISZERO ISZERO MUL OR SWAP1 SSTORE POP POP POP PUSH3 0x203 JUMP JUMPDEST PUSH1 0x0 DUP1 REVERT JUMPDEST PUSH1 0x0 PUSH20 0xFFFFFFFFFFFFFFFFFFFFFFFFFFFFFFFFFFFFFFFF DUP3 AND SWAP1 POP SWAP2 SWAP1 POP JUMP JUMPDEST PUSH1 0x0 PUSH3 0x184 DUP3 PUSH3 0x157 JUMP JUMPDEST SWAP1 POP SWAP2 SWAP1 POP JUMP JUMPDEST PUSH3 0x196 DUP2 PUSH3 0x177 JUMP JUMPDEST DUP2 EQ PUSH3 0x1A2 JUMPI PUSH1 0x0 DUP1 REVERT JUMPDEST POP JUMP JUMPDEST PUSH1 0x0 DUP2 MLOAD SWAP1 POP PUSH3 0x1B6 DUP2 PUSH3 0x18B JUMP JUMPDEST SWAP3 SWAP2 POP POP JUMP JUMPDEST PUSH1 0x0 DUP1 PUSH1 0x40 DUP4 DUP6 SUB SLT ISZERO PUSH3 0x1D6 JUMPI PUSH3 0x1D5 PUSH3 0x152 JUMP JUMPDEST JUMPDEST PUSH1 0x0 PUSH3 0x1E6 DUP6 DUP3 DUP7 ADD PUSH3 0x1A5 JUMP JUMPDEST SWAP3 POP POP PUSH1 0x20 PUSH3 0x1F9 DUP6 DUP3 DUP7 ADD PUSH3 0x1A5 JUMP JUMPDEST SWAP2 POP POP SWAP3 POP SWAP3 SWAP1 POP JUMP JUMPDEST PUSH2 0x475C DUP1 PUSH3 0x213 PUSH1 0x0 CODECOPY PUSH1 0x0 RETURN INVALID PUSH1 0x80 PUSH1 0x40 MSTORE PUSH1 0x4 CALLDATASIZE LT PUSH2 0x254 JUMPI PUSH1 0x0 CALLDATALOAD PUSH1 0xE0 SHR DUP1 PUSH4 0x7EF98740 GT PUSH2 0x139 JUMPI DUP1 PUSH4 0xD261C91F GT PUSH2 0xB6 JUMPI DUP1 PUSH4 0xDD6BCB16 GT PUSH2 0x7A JUMPI DUP1 PUSH4 0xDD6BCB16 EQ PUSH2 0x7BC JUMPI DUP1 PUSH4 0xE1505E4E EQ PUSH2 0x7D3 JUMPI DUP1 PUSH4 0xEAA0A302 EQ PUSH2 0x813 JUMPI DUP1 PUSH4 0xF13702F4 EQ PUSH2 0x82A JUMPI DUP1 PUSH4 0xF3F43703 EQ PUSH2 0x855 JUMPI DUP1 PUSH4 0xFEEAEA4E EQ PUSH2 0x892 JUMPI PUSH2 0x25B JUMP JUMPDEST DUP1 PUSH4 0xD261C91F EQ PUSH2 0x6FD JUMPI DUP1 PUSH4 0xD738307C EQ PUSH2 0x728 JUMPI DUP1 PUSH4 0xD96152C3 EQ PUSH2 0x751 JUMPI DUP1 PUSH4 0xDC1997EA EQ PUSH2 0x77A JUMPI DUP1 PUSH4 0xDCF2559E EQ PUSH2 0x7A5 JUMPI PUSH2 0x25B JUMP JUMPDEST DUP1 PUSH4 0xA972500F GT PUSH2 0xFD JUMPI DUP1 PUSH4 0xA972500F EQ PUSH2 0x650 JUMPI DUP1 PUSH4 0xB0A1E2B4 EQ PUSH2 0x667 JUMPI DUP1 PUSH4 0xC2D6D462 EQ PUSH2 0x692 JUMPI DUP1 PUSH4 0xCA088031 EQ PUSH2 0x6BB JUMPI DUP1 PUSH4 0xCBE615B1 EQ PUSH2 0x6D2 JUMPI PUSH2 0x25B JUMP JUMPDEST DUP1 PUSH4 0x7EF98740 EQ PUSH2 0x59C JUMPI DUP1 PUSH4 0x81D388BA EQ PUSH2 0x5C5 JUMPI DUP1 PUSH4 0x862A4D47 EQ PUSH2 0x5F0 JUMPI DUP1 PUSH4 0x87EAA342 EQ PUSH2 0x61B JUMPI DUP1 PUSH4 0xA709C4FE EQ PUSH2 0x646 JUMPI PUSH2 0x25B JUMP JUMPDEST DUP1 PUSH4 0x47ED9C65 GT PUSH2 0x1D2 JUMPI DUP1 PUSH4 0x6CC6CDE1 GT PUSH2 0x196 JUMPI DUP1 PUSH4 0x6CC6CDE1 EQ PUSH2 0x49A JUMPI DUP1 PUSH4 0x6F3C590C EQ PUSH2 0x4C5 JUMPI DUP1 PUSH4 0x6F9FB98A EQ PUSH2 0x4F0 JUMPI DUP1 PUSH4 0x71357A46 EQ PUSH2 0x51B JUMPI DUP1 PUSH4 0x740906C0 EQ PUSH2 0x546 JUMPI DUP1 PUSH4 0x779318E5 EQ PUSH2 0x571 JUMPI PUSH2 0x25B JUMP JUMPDEST DUP1 PUSH4 0x47ED9C65 EQ PUSH2 0x3C3 JUMPI DUP1 PUSH4 0x561EEFD8 EQ PUSH2 0x3EE JUMPI DUP1 PUSH4 0x5A0E9BCC EQ PUSH2 0x419 JUMPI DUP1 PUSH4 0x63022560 EQ PUSH2 0x444 JUMPI DUP1 PUSH4 0x697B05A2 EQ PUSH2 0x46F JUMPI PUSH2 0x25B JUMP JUMPDEST DUP1 PUSH4 0x220E5AB3 GT PUSH2 0x219 JUMPI DUP1 PUSH4 0x220E5AB3 EQ PUSH2 0x321 JUMPI DUP1 PUSH4 0x22F3E2D4 EQ PUSH2 0x34C JUMPI DUP1 PUSH4 0x2E88AB0B EQ PUSH2 0x377 JUMPI DUP1 PUSH4 0x3CCFD60B EQ PUSH2 0x3A2 JUMPI DUP1 PUSH4 0x42C63DAE EQ PUSH2 0x3B9 JUMPI PUSH2 0x25B JUMP JUMPDEST DUP1 PUSH3 0x4422EB EQ PUSH2 0x260 JUMPI DUP1 PUSH4 0x4A2286A EQ PUSH2 0x28B JUMPI DUP1 PUSH4 0x8C59798 EQ PUSH2 0x2B6 JUMPI DUP1 PUSH4 0x1890FC37 EQ PUSH2 0x2DF JUMPI DUP1 PUSH4 0x1A576049 EQ PUSH2 0x2F6 JUMPI PUSH2 0x25B JUMP JUMPDEST CALLDATASIZE PUSH2 0x25B JUMPI STOP JUMPDEST PUSH1 0x0 DUP1 REVERT JUMPDEST CALLVALUE DUP1 ISZERO PUSH2 0x26C JUMPI PUSH1 0x0 DUP1 REVERT JUMPDEST POP PUSH2 0x275 PUSH2 0x8BD JUMP JUMPDEST PUSH1 0x40 MLOAD PUSH2 0x282 SWAP2 SWAP1 PUSH2 0x3032 JUMP JUMPDEST PUSH1 0x40 MLOAD DUP1 SWAP2 SUB SWAP1 RETURN JUMPDEST CALLVALUE DUP1 ISZERO PUSH2 0x297 JUMPI PUSH1 0x0 DUP1 REVERT JUMPDEST POP PUSH2 0x2A0 PUSH2 0x8D0 JUMP JUMPDEST PUSH1 0x40 MLOAD PUSH2 0x2AD SWAP2 SWAP1 PUSH2 0x3066 JUMP JUMPDEST PUSH1 0x40 MLOAD DUP1 SWAP2 SUB SWAP1 RETURN JUMPDEST CALLVALUE DUP1 ISZERO PUSH2 0x2C2 JUMPI PUSH1 0x0 DUP1 REVERT JUMPDEST POP PUSH2 0x2DD PUSH1 0x4 DUP1 CALLDATASIZE SUB DUP2 ADD SWAP1 PUSH2 0x2D8 SWAP2 SWAP1 PUSH2 0x30B2 JUMP JUMPDEST PUSH2 0x8D6 JUMP JUMPDEST STOP JUMPDEST CALLVALUE DUP1 ISZERO PUSH2 0x2EB JUMPI PUSH1 0x0 DUP1 REVERT JUMPDEST POP PUSH2 0x2F4 PUSH2 0xAAE JUMP JUMPDEST STOP JUMPDEST CALLVALUE DUP1 ISZERO PUSH2 0x302 JUMPI PUSH1 0x0 DUP1 REVERT JUMPDEST POP PUSH2 0x30B PUSH2 0xDB3 JUMP JUMPDEST PUSH1 0x40 MLOAD PUSH2 0x318 SWAP2 SWAP1 PUSH2 0x3066 JUMP JUMPDEST PUSH1 0x40 MLOAD DUP1 SWAP2 SUB SWAP1 RETURN JUMPDEST CALLVALUE DUP1 ISZERO PUSH2 0x32D JUMPI PUSH1 0x0 DUP1 REVERT JUMPDEST POP PUSH2 0x336 PUSH2 0xDB9 JUMP JUMPDEST PUSH1 0x40 MLOAD PUSH2 0x343 SWAP2 SWAP1 PUSH2 0x3066 JUMP JUMPDEST PUSH1 0x40 MLOAD DUP1 SWAP2 SUB SWAP1 RETURN JUMPDEST CALLVALUE DUP1 ISZERO PUSH2 0x358 JUMPI PUSH1 0x0 DUP1 REVERT JUMPDEST POP PUSH2 0x361 PUSH2 0xDBF JUMP JUMPDEST PUSH1 0x40 MLOAD PUSH2 0x36E SWAP2 SWAP1 PUSH2 0x3032 JUMP JUMPDEST PUSH1 0x40 MLOAD DUP1 SWAP2 SUB SWAP1 RETURN JUMPDEST CALLVALUE DUP1 ISZERO PUSH2 0x383 JUMPI PUSH1 0x0 DUP1 REVERT JUMPDEST POP PUSH2 0x38C PUSH2 0xDD2 JUMP JUMPDEST PUSH1 0x40 MLOAD PUSH2 0x399 SWAP2 SWAP1 PUSH2 0x3120 JUMP JUMPDEST PUSH1 0x40 MLOAD DUP1 SWAP2 SUB SWAP1 RETURN JUMPDEST CALLVALUE DUP1 ISZERO PUSH2 0x3AE JUMPI PUSH1 0x0 DUP1 REVERT JUMPDEST POP PUSH2 0x3B7 PUSH2 0xDF8 JUMP JUMPDEST STOP JUMPDEST PUSH2 0x3C1 PUSH2 0xFC2 JUMP JUMPDEST STOP JUMPDEST CALLVALUE DUP1 ISZERO PUSH2 0x3CF JUMPI PUSH1 0x0 DUP1 REVERT JUMPDEST POP PUSH2 0x3D8 PUSH2 0x1199 JUMP JUMPDEST PUSH1 0x40 MLOAD PUSH2 0x3E5 SWAP2 SWAP1 PUSH2 0x3032 JUMP JUMPDEST PUSH1 0x40 MLOAD DUP1 SWAP2 SUB SWAP1 RETURN JUMPDEST CALLVALUE DUP1 ISZERO PUSH2 0x3FA JUMPI PUSH1 0x0 DUP1 REVERT JUMPDEST POP PUSH2 0x403 PUSH2 0x11AC JUMP JUMPDEST PUSH1 0x40 MLOAD PUSH2 0x410 SWAP2 SWAP1 PUSH2 0x3066 JUMP JUMPDEST PUSH1 0x40 MLOAD DUP1 SWAP2 SUB SWAP1 RETURN JUMPDEST CALLVALUE DUP1 ISZERO PUSH2 0x425 JUMPI PUSH1 0x0 DUP1 REVERT JUMPDEST POP PUSH2 0x42E PUSH2 0x11B2 JUMP JUMPDEST PUSH1 0x40 MLOAD PUSH2 0x43B SWAP2 SWAP1 PUSH2 0x3032 JUMP JUMPDEST PUSH1 0x40 MLOAD DUP1 SWAP2 SUB SWAP1 RETURN JUMPDEST CALLVALUE DUP1 ISZERO PUSH2 0x450 JUMPI PUSH1 0x0 DUP1 REVERT JUMPDEST POP PUSH2 0x459 PUSH2 0x11C5 JUMP JUMPDEST PUSH1 0x40 MLOAD PUSH2 0x466 SWAP2 SWAP1 PUSH2 0x3066 JUMP JUMPDEST PUSH1 0x40 MLOAD DUP1 SWAP2 SUB SWAP1 RETURN JUMPDEST CALLVALUE DUP1 ISZERO PUSH2 0x47B JUMPI PUSH1 0x0 DUP1 REVERT JUMPDEST POP PUSH2 0x484 PUSH2 0x125D JUMP JUMPDEST PUSH1 0x40 MLOAD PUSH2 0x491 SWAP2 SWAP1 PUSH2 0x3066 JUMP JUMPDEST PUSH1 0x40 MLOAD DUP1 SWAP2 SUB SWAP1 RETURN JUMPDEST CALLVALUE DUP1 ISZERO PUSH2 0x4A6 JUMPI PUSH1 0x0 DUP1 REVERT JUMPDEST POP PUSH2 0x4AF PUSH2 0x1263 JUMP JUMPDEST PUSH1 0x40 MLOAD PUSH2 0x4BC SWAP2 SWAP1 PUSH2 0x319A JUMP JUMPDEST PUSH1 0x40 MLOAD DUP1 SWAP2 SUB SWAP1 RETURN JUMPDEST CALLVALUE DUP1 ISZERO PUSH2 0x4D1 JUMPI PUSH1 0x0 DUP1 REVERT JUMPDEST POP PUSH2 0x4DA PUSH2 0x1289 JUMP JUMPDEST PUSH1 0x40 MLOAD PUSH2 0x4E7 SWAP2 SWAP1 PUSH2 0x3066 JUMP JUMPDEST PUSH1 0x40 MLOAD DUP1 SWAP2 SUB SWAP1 RETURN JUMPDEST CALLVALUE DUP1 ISZERO PUSH2 0x4FC JUMPI PUSH1 0x0 DUP1 REVERT JUMPDEST POP PUSH2 0x505 PUSH2 0x128F JUMP JUMPDEST PUSH1 0x40 MLOAD PUSH2 0x512 SWAP2 SWAP1 PUSH2 0x3066 JUMP JUMPDEST PUSH1 0x40 MLOAD DUP1 SWAP2 SUB SWAP1 RETURN JUMPDEST CALLVALUE DUP1 ISZERO PUSH2 0x527 JUMPI PUSH1 0x0 DUP1 REVERT JUMPDEST POP PUSH2 0x530 PUSH2 0x1297 JUMP JUMPDEST PUSH1 0x40 MLOAD PUSH2 0x53D SWAP2 SWAP1 PUSH2 0x3032 JUMP JUMPDEST PUSH1 0x40 MLOAD DUP1 SWAP2 SUB SWAP1 RETURN JUMPDEST CALLVALUE DUP1 ISZERO PUSH2 0x552 JUMPI PUSH1 0x0 DUP1 REVERT JUMPDEST POP PUSH2 0x55B PUSH2 0x12AA JUMP JUMPDEST PUSH1 0x40 MLOAD PUSH2 0x568 SWAP2 SWAP1 PUSH2 0x3066 JUMP JUMPDEST PUSH1 0x40 MLOAD DUP1 SWAP2 SUB SWAP1 RETURN JUMPDEST CALLVALUE DUP1 ISZERO PUSH2 0x57D JUMPI PUSH1 0x0 DUP1 REVERT JUMPDEST POP PUSH2 0x586 PUSH2 0x1313 JUMP JUMPDEST PUSH1 0x40 MLOAD PUSH2 0x593 SWAP2 SWAP1 PUSH2 0x3066 JUMP JUMPDEST PUSH1 0x40 MLOAD DUP1 SWAP2 SUB SWAP1 RETURN JUMPDEST CALLVALUE DUP1 ISZERO PUSH2 0x5A8 JUMPI PUSH1 0x0 DUP1 REVERT JUMPDEST POP PUSH2 0x5C3 PUSH1 0x4 DUP1 CALLDATASIZE SUB DUP2 ADD SWAP1 PUSH2 0x5BE SWAP2 SWAP1 PUSH2 0x30B2 JUMP JUMPDEST PUSH2 0x131D JUMP JUMPDEST STOP JUMPDEST CALLVALUE DUP1 ISZERO PUSH2 0x5D1 JUMPI PUSH1 0x0 DUP1 REVERT JUMPDEST POP PUSH2 0x5DA PUSH2 0x14BB JUMP JUMPDEST PUSH1 0x40 MLOAD PUSH2 0x5E7 SWAP2 SWAP1 PUSH2 0x3066 JUMP JUMPDEST PUSH1 0x40 MLOAD DUP1 SWAP2 SUB SWAP1 RETURN JUMPDEST CALLVALUE DUP1 ISZERO PUSH2 0x5FC JUMPI PUSH1 0x0 DUP1 REVERT JUMPDEST POP PUSH2 0x605 PUSH2 0x14C1 JUMP JUMPDEST PUSH1 0x40 MLOAD PUSH2 0x612 SWAP2 SWAP1 PUSH2 0x3066 JUMP JUMPDEST PUSH1 0x40 MLOAD DUP1 SWAP2 SUB SWAP1 RETURN JUMPDEST CALLVALUE DUP1 ISZERO PUSH2 0x627 JUMPI PUSH1 0x0 DUP1 REVERT JUMPDEST POP PUSH2 0x630 PUSH2 0x14C7 JUMP JUMPDEST PUSH1 0x40 MLOAD PUSH2 0x63D SWAP2 SWAP1 PUSH2 0x3066 JUMP JUMPDEST PUSH1 0x40 MLOAD DUP1 SWAP2 SUB SWAP1 RETURN JUMPDEST PUSH2 0x64E PUSH2 0x14CD JUMP JUMPDEST STOP JUMPDEST CALLVALUE DUP1 ISZERO PUSH2 0x65C JUMPI PUSH1 0x0 DUP1 REVERT JUMPDEST POP PUSH2 0x665 PUSH2 0x1899 JUMP JUMPDEST STOP JUMPDEST CALLVALUE DUP1 ISZERO PUSH2 0x673 JUMPI PUSH1 0x0 DUP1 REVERT JUMPDEST POP PUSH2 0x67C PUSH2 0x19C6 JUMP JUMPDEST PUSH1 0x40 MLOAD PUSH2 0x689 SWAP2 SWAP1 PUSH2 0x3066 JUMP JUMPDEST PUSH1 0x40 MLOAD DUP1 SWAP2 SUB SWAP1 RETURN JUMPDEST CALLVALUE DUP1 ISZERO PUSH2 0x69E JUMPI PUSH1 0x0 DUP1 REVERT JUMPDEST POP PUSH2 0x6B9 PUSH1 0x4 DUP1 CALLDATASIZE SUB DUP2 ADD SWAP1 PUSH2 0x6B4 SWAP2 SWAP1 PUSH2 0x30B2 JUMP JUMPDEST PUSH2 0x19CC JUMP JUMPDEST STOP JUMPDEST CALLVALUE DUP1 ISZERO PUSH2 0x6C7 JUMPI PUSH1 0x0 DUP1 REVERT JUMPDEST POP PUSH2 0x6D0 PUSH2 0x1B07 JUMP JUMPDEST STOP JUMPDEST CALLVALUE DUP1 ISZERO PUSH2 0x6DE JUMPI PUSH1 0x0 DUP1 REVERT JUMPDEST POP PUSH2 0x6E7 PUSH2 0x1D8D JUMP JUMPDEST PUSH1 0x40 MLOAD PUSH2 0x6F4 SWAP2 SWAP1 PUSH2 0x3032 JUMP JUMPDEST PUSH1 0x40 MLOAD DUP1 SWAP2 SUB SWAP1 RETURN JUMPDEST CALLVALUE DUP1 ISZERO PUSH2 0x709 JUMPI PUSH1 0x0 DUP1 REVERT JUMPDEST POP PUSH2 0x712 PUSH2 0x1DA4 JUMP JUMPDEST PUSH1 0x40 MLOAD PUSH2 0x71F SWAP2 SWAP1 PUSH2 0x3066 JUMP JUMPDEST PUSH1 0x40 MLOAD DUP1 SWAP2 SUB SWAP1 RETURN JUMPDEST CALLVALUE DUP1 ISZERO PUSH2 0x734 JUMPI PUSH1 0x0 DUP1 REVERT JUMPDEST POP PUSH2 0x74F PUSH1 0x4 DUP1 CALLDATASIZE SUB DUP2 ADD SWAP1 PUSH2 0x74A SWAP2 SWAP1 PUSH2 0x31B5 JUMP JUMPDEST PUSH2 0x1DAA JUMP JUMPDEST STOP JUMPDEST CALLVALUE DUP1 ISZERO PUSH2 0x75D JUMPI PUSH1 0x0 DUP1 REVERT JUMPDEST POP PUSH2 0x778 PUSH1 0x4 DUP1 CALLDATASIZE SUB DUP2 ADD SWAP1 PUSH2 0x773 SWAP2 SWAP1 PUSH2 0x3208 JUMP JUMPDEST PUSH2 0x1EDD JUMP JUMPDEST STOP JUMPDEST CALLVALUE DUP1 ISZERO PUSH2 0x786 JUMPI PUSH1 0x0 DUP1 REVERT JUMPDEST POP PUSH2 0x78F PUSH2 0x2486 JUMP JUMPDEST PUSH1 0x40 MLOAD PUSH2 0x79C SWAP2 SWAP1 PUSH2 0x3120 JUMP JUMPDEST PUSH1 0x40 MLOAD DUP1 SWAP2 SUB SWAP1 RETURN JUMPDEST CALLVALUE DUP1 ISZERO PUSH2 0x7B1 JUMPI PUSH1 0x0 DUP1 REVERT JUMPDEST POP PUSH2 0x7BA PUSH2 0x24AA JUMP JUMPDEST STOP JUMPDEST CALLVALUE DUP1 ISZERO PUSH2 0x7C8 JUMPI PUSH1 0x0 DUP1 REVERT JUMPDEST POP PUSH2 0x7D1 PUSH2 0x25B7 JUMP JUMPDEST STOP JUMPDEST CALLVALUE DUP1 ISZERO PUSH2 0x7DF JUMPI PUSH1 0x0 DUP1 REVERT JUMPDEST POP PUSH2 0x7FA PUSH1 0x4 DUP1 CALLDATASIZE SUB DUP2 ADD SWAP1 PUSH2 0x7F5 SWAP2 SWAP1 PUSH2 0x30B2 JUMP JUMPDEST PUSH2 0x28A3 JUMP JUMPDEST PUSH1 0x40 MLOAD PUSH2 0x80A SWAP5 SWAP4 SWAP3 SWAP2 SWAP1 PUSH2 0x3248 JUMP JUMPDEST PUSH1 0x40 MLOAD DUP1 SWAP2 SUB SWAP1 RETURN JUMPDEST CALLVALUE DUP1 ISZERO PUSH2 0x81F JUMPI PUSH1 0x0 DUP1 REVERT JUMPDEST POP PUSH2 0x828 PUSH2 0x28E0 JUMP JUMPDEST STOP JUMPDEST CALLVALUE DUP1 ISZERO PUSH2 0x836 JUMPI PUSH1 0x0 DUP1 REVERT JUMPDEST POP PUSH2 0x83F PUSH2 0x2BCA JUMP JUMPDEST PUSH1 0x40 MLOAD PUSH2 0x84C SWAP2 SWAP1 PUSH2 0x3032 JUMP JUMPDEST PUSH1 0x40 MLOAD DUP1 SWAP2 SUB SWAP1 RETURN JUMPDEST CALLVALUE DUP1 ISZERO PUSH2 0x861 JUMPI PUSH1 0x0 DUP1 REVERT JUMPDEST POP PUSH2 0x87C PUSH1 0x4 DUP1 CALLDATASIZE SUB DUP2 ADD SWAP1 PUSH2 0x877 SWAP2 SWAP1 PUSH2 0x32B9 JUMP JUMPDEST PUSH2 0x2BDD JUMP JUMPDEST PUSH1 0x40 MLOAD PUSH2 0x889 SWAP2 SWAP1 PUSH2 0x3066 JUMP JUMPDEST PUSH1 0x40 MLOAD DUP1 SWAP2 SUB SWAP1 RETURN JUMPDEST CALLVALUE DUP1 ISZERO PUSH2 0x89E JUMPI PUSH1 0x0 DUP1 REVERT JUMPDEST POP PUSH2 0x8A7 PUSH2 0x2BF5 JUMP JUMPDEST PUSH1 0x40 MLOAD PUSH2 0x8B4 SWAP2 SWAP1 PUSH2 0x3066 JUMP JUMPDEST PUSH1 0x40 MLOAD DUP1 SWAP2 SUB SWAP1 RETURN JUMPDEST PUSH1 0xD PUSH1 0x2 SWAP1 SLOAD SWAP1 PUSH2 0x100 EXP SWAP1 DIV PUSH1 0xFF AND DUP2 JUMP JUMPDEST PUSH1 0x3 SLOAD DUP2 JUMP JUMPDEST PUSH1 0x0 DUP1 SLOAD SWAP1 PUSH2 0x100 EXP SWAP1 DIV PUSH20 0xFFFFFFFFFFFFFFFFFFFFFFFFFFFFFFFFFFFFFFFF AND PUSH20 0xFFFFFFFFFFFFFFFFFFFFFFFFFFFFFFFFFFFFFFFF AND CALLER PUSH20 0xFFFFFFFFFFFFFFFFFFFFFFFFFFFFFFFFFFFFFFFF AND EQ PUSH2 0x964 JUMPI PUSH1 0x40 MLOAD PUSH32 0x8C379A000000000000000000000000000000000000000000000000000000000 DUP2 MSTORE PUSH1 0x4 ADD PUSH2 0x95B SWAP1 PUSH2 0x3369 JUMP JUMPDEST PUSH1 0x40 MLOAD DUP1 SWAP2 SUB SWAP1 REVERT JUMPDEST PUSH1 0xD PUSH1 0x3 SWAP1 SLOAD SWAP1 PUSH2 0x100 EXP SWAP1 DIV PUSH1 0xFF AND PUSH2 0x9B3 JUMPI PUSH1 0x40 MLOAD PUSH32 0x8C379A000000000000000000000000000000000000000000000000000000000 DUP2 MSTORE PUSH1 0x4 ADD PUSH2 0x9AA SWAP1 PUSH2 0x33D5 JUMP JUMPDEST PUSH1 0x40 MLOAD DUP1 SWAP2 SUB SWAP1 REVERT JUMPDEST PUSH1 0xD PUSH1 0x4 SWAP1 SLOAD SWAP1 PUSH2 0x100 EXP SWAP1 DIV PUSH1 0xFF AND ISZERO PUSH2 0xA03 JUMPI PUSH1 0x40 MLOAD PUSH32 0x8C379A000000000000000000000000000000000000000000000000000000000 DUP2 MSTORE PUSH1 0x4 ADD PUSH2 0x9FA SWAP1 PUSH2 0x3441 JUMP JUMPDEST PUSH1 0x40 MLOAD DUP1 SWAP2 SUB SWAP1 REVERT JUMPDEST PUSH1 0xD PUSH1 0x0 SWAP1 SLOAD SWAP1 PUSH2 0x100 EXP SWAP1 DIV PUSH1 0xFF AND PUSH2 0xA52 JUMPI PUSH1 0x40 MLOAD PUSH32 0x8C379A000000000000000000000000000000000000000000000000000000000 DUP2 MSTORE PUSH1 0x4 ADD PUSH2 0xA49 SWAP1 PUSH2 0x34AD JUMP JUMPDEST PUSH1 0x40 MLOAD DUP1 SWAP2 SUB SWAP1 REVERT JUMPDEST DUP1 PUSH1 0x8 DUP2 SWAP1 SSTORE POP PUSH1 0x1 PUSH1 0xD PUSH1 0x4 PUSH2 0x100 EXP DUP2 SLOAD DUP2 PUSH1 0xFF MUL NOT AND SWAP1 DUP4 ISZERO ISZERO MUL OR SWAP1 SSTORE POP PUSH32 0x192101DE3933394FEDEB636FFADD15C20B3E23E4913AB4051C171A26C90A3459 DUP2 PUSH1 0x40 MLOAD PUSH2 0xAA3 SWAP2 SWAP1 PUSH2 0x3066 JUMP JUMPDEST PUSH1 0x40 MLOAD DUP1 SWAP2 SUB SWAP1 LOG1 POP JUMP JUMPDEST PUSH1 0x0 DUP1 SLOAD SWAP1 PUSH2 0x100 EXP SWAP1 DIV PUSH20 0xFFFFFFFFFFFFFFFFFFFFFFFFFFFFFFFFFFFFFFFF AND PUSH20 0xFFFFFFFFFFFFFFFFFFFFFFFFFFFFFFFFFFFFFFFF AND CALLER PUSH20 0xFFFFFFFFFFFFFFFFFFFFFFFFFFFFFFFFFFFFFFFF AND EQ PUSH2 0xB3C JUMPI PUSH1 0x40 MLOAD PUSH32 0x8C379A000000000000000000000000000000000000000000000000000000000 DUP2 MSTORE PUSH1 0x4 ADD PUSH2 0xB33 SWAP1 PUSH2 0x353F JUMP JUMPDEST PUSH1 0x40 MLOAD DUP1 SWAP2 SUB SWAP1 REVERT JUMPDEST PUSH1 0xD PUSH1 0x5 SWAP1 SLOAD SWAP1 PUSH2 0x100 EXP SWAP1 DIV PUSH1 0xFF AND PUSH2 0xB8B JUMPI PUSH1 0x40 MLOAD PUSH32 0x8C379A000000000000000000000000000000000000000000000000000000000 DUP2 MSTORE PUSH1 0x4 ADD PUSH2 0xB82 SWAP1 PUSH2 0x35D1 JUMP JUMPDEST PUSH1 0x40 MLOAD DUP1 SWAP2 SUB SWAP1 REVERT JUMPDEST PUSH1 0xD PUSH1 0x6 SWAP1 SLOAD SWAP1 PUSH2 0x100 EXP SWAP1 DIV PUSH20 0xFFFFFFFFFFFFFFFFFFFFFFFFFFFFFFFFFFFFFFFF AND PUSH20 0xFFFFFFFFFFFFFFFFFFFFFFFFFFFFFFFFFFFFFFFF AND PUSH4 0x63022560 PUSH1 0x40 MLOAD DUP2 PUSH4 0xFFFFFFFF AND PUSH1 0xE0 SHL DUP2 MSTORE PUSH1 0x4 ADD PUSH1 0x20 PUSH1 0x40 MLOAD DUP1 DUP4 SUB DUP2 DUP7 GAS STATICCALL ISZERO DUP1 ISZERO PUSH2 0xBF8 JUMPI RETURNDATASIZE PUSH1 0x0 DUP1 RETURNDATACOPY RETURNDATASIZE PUSH1 0x0 REVERT JUMPDEST POP POP POP POP PUSH1 0x40 MLOAD RETURNDATASIZE PUSH1 0x1F NOT PUSH1 0x1F DUP3 ADD AND DUP3 ADD DUP1 PUSH1 0x40 MSTORE POP DUP2 ADD SWAP1 PUSH2 0xC1C SWAP2 SWAP1 PUSH2 0x3606 JUMP JUMPDEST PUSH1 0xC DUP2 SWAP1 SSTORE POP PUSH1 0xC SLOAD PUSH1 0xB SLOAD LT ISZERO PUSH2 0xC69 JUMPI PUSH1 0x40 MLOAD PUSH32 0x8C379A000000000000000000000000000000000000000000000000000000000 DUP2 MSTORE PUSH1 0x4 ADD PUSH2 0xC60 SWAP1 PUSH2 0x36A5 JUMP JUMPDEST PUSH1 0x40 MLOAD DUP1 SWAP2 SUB SWAP1 REVERT JUMPDEST PUSH1 0xC SLOAD PUSH1 0xB PUSH1 0x0 DUP3 DUP3 SLOAD PUSH2 0xC7D SWAP2 SWAP1 PUSH2 0x36F4 JUMP JUMPDEST SWAP3 POP POP DUP2 SWAP1 SSTORE POP PUSH1 0xD PUSH1 0x6 SWAP1 SLOAD SWAP1 PUSH2 0x100 EXP SWAP1 DIV PUSH20 0xFFFFFFFFFFFFFFFFFFFFFFFFFFFFFFFFFFFFFFFF AND PUSH20 0xFFFFFFFFFFFFFFFFFFFFFFFFFFFFFFFFFFFFFFFF AND PUSH4 0xF26999CD PUSH1 0xC SLOAD PUSH1 0x8 SLOAD PUSH1 0x9 SLOAD PUSH1 0x40 MLOAD DUP5 PUSH4 0xFFFFFFFF AND PUSH1 0xE0 SHL DUP2 MSTORE PUSH1 0x4 ADD PUSH2 0xCE8 SWAP3 SWAP2 SWAP1 PUSH2 0x3728 JUMP JUMPDEST PUSH1 0x20 PUSH1 0x40 MLOAD DUP1 DUP4 SUB DUP2 DUP6 DUP9 GAS CALL ISZERO DUP1 ISZERO PUSH2 0xD06 JUMPI RETURNDATASIZE PUSH1 0x0 DUP1 RETURNDATACOPY RETURNDATASIZE PUSH1 0x0 REVERT JUMPDEST POP POP POP POP POP PUSH1 0x40 MLOAD RETURNDATASIZE PUSH1 0x1F NOT PUSH1 0x1F DUP3 ADD AND DUP3 ADD DUP1 PUSH1 0x40 MSTORE POP DUP2 ADD SWAP1 PUSH2 0xD2B SWAP2 SWAP1 PUSH2 0x3606 JUMP JUMPDEST PUSH1 0xA DUP2 SWAP1 SSTORE POP PUSH1 0x1 PUSH1 0xD PUSH1 0x2 PUSH2 0x100 EXP DUP2 SLOAD DUP2 PUSH1 0xFF MUL NOT AND SWAP1 DUP4 ISZERO ISZERO MUL OR SWAP1 SSTORE POP PUSH32 0x4901F83201C8724EADF084436DB8AA391820BAE6D11F9F78A17EDB6F2EEF3CF PUSH1 0xA SLOAD PUSH1 0x40 MLOAD PUSH2 0xD7D SWAP2 SWAP1 PUSH2 0x3066 JUMP JUMPDEST PUSH1 0x40 MLOAD DUP1 SWAP2 SUB SWAP1 LOG1 PUSH32 0xA7D8A4744BC13E083818434DDE26551EA9B29C6425677EBC90CD5DD09CE6B5C7 PUSH1 0x40 MLOAD PUSH1 0x40 MLOAD DUP1 SWAP2 SUB SWAP1 LOG1 JUMP JUMPDEST PUSH1 0x8 SLOAD DUP2 JUMP JUMPDEST PUSH1 0x2 SLOAD DUP2 JUMP JUMPDEST PUSH1 0xD PUSH1 0x0 SWAP1 SLOAD SWAP1 PUSH2 0x100 EXP SWAP1 DIV PUSH1 0xFF AND DUP2 JUMP JUMPDEST PUSH1 0x1 PUSH1 0x0 SWAP1 SLOAD SWAP1 PUSH2 0x100 EXP SWAP1 DIV PUSH20 0xFFFFFFFFFFFFFFFFFFFFFFFFFFFFFFFFFFFFFFFF AND DUP2 JUMP JUMPDEST PUSH1 0x0 PUSH1 0xF PUSH1 0x0 CALLER PUSH20 0xFFFFFFFFFFFFFFFFFFFFFFFFFFFFFFFFFFFFFFFF AND PUSH20 0xFFFFFFFFFFFFFFFFFFFFFFFFFFFFFFFFFFFFFFFF AND DUP2 MSTORE PUSH1 0x20 ADD SWAP1 DUP2 MSTORE PUSH1 0x20 ADD PUSH1 0x0 KECCAK256 SLOAD SWAP1 POP PUSH1 0x0 DUP2 GT PUSH2 0xE7F JUMPI PUSH1 0x40 MLOAD PUSH32 0x8C379A000000000000000000000000000000000000000000000000000000000 DUP2 MSTORE PUSH1 0x4 ADD PUSH2 0xE76 SWAP1 PUSH2 0x379D JUMP JUMPDEST PUSH1 0x40 MLOAD DUP1 SWAP2 SUB SWAP1 REVERT JUMPDEST PUSH1 0x0 PUSH1 0xF PUSH1 0x0 CALLER PUSH20 0xFFFFFFFFFFFFFFFFFFFFFFFFFFFFFFFFFFFFFFFF AND PUSH20 0xFFFFFFFFFFFFFFFFFFFFFFFFFFFFFFFFFFFFFFFF AND DUP2 MSTORE PUSH1 0x20 ADD SWAP1 DUP2 MSTORE PUSH1 0x20 ADD PUSH1 0x0 KECCAK256 DUP2 SWAP1 SSTORE POP PUSH1 0x0 CALLER PUSH20 0xFFFFFFFFFFFFFFFFFFFFFFFFFFFFFFFFFFFFFFFF AND DUP3 PUSH1 0x40 MLOAD PUSH2 0xEEA SWAP1 PUSH2 0x37EE JUMP JUMPDEST PUSH1 0x0 PUSH1 0x40 MLOAD DUP1 DUP4 SUB DUP2 DUP6 DUP8 GAS CALL SWAP3 POP POP POP RETURNDATASIZE DUP1 PUSH1 0x0 DUP2 EQ PUSH2 0xF27 JUMPI PUSH1 0x40 MLOAD SWAP2 POP PUSH1 0x1F NOT PUSH1 0x3F RETURNDATASIZE ADD AND DUP3 ADD PUSH1 0x40 MSTORE RETURNDATASIZE DUP3 MSTORE RETURNDATASIZE PUSH1 0x0 PUSH1 0x20 DUP5 ADD RETURNDATACOPY PUSH2 0xF2C JUMP JUMPDEST PUSH1 0x60 SWAP2 POP JUMPDEST POP POP SWAP1 POP DUP1 PUSH2 0xF70 JUMPI PUSH1 0x40 MLOAD PUSH32 0x8C379A000000000000000000000000000000000000000000000000000000000 DUP2 MSTORE PUSH1 0x4 ADD PUSH2 0xF67 SWAP1 PUSH2 0x384F JUMP JUMPDEST PUSH1 0x40 MLOAD DUP1 SWAP2 SUB SWAP1 REVERT JUMPDEST CALLER PUSH20 0xFFFFFFFFFFFFFFFFFFFFFFFFFFFFFFFFFFFFFFFF AND PUSH32 0x8C9A4F13B67CB64D7C6AA1AE0C9BF07694AF521A28B93E7060020810AB4BC59F DUP4 PUSH1 0x40 MLOAD PUSH2 0xFB6 SWAP2 SWAP1 PUSH2 0x3066 JUMP JUMPDEST PUSH1 0x40 MLOAD DUP1 SWAP2 SUB SWAP1 LOG2 POP POP JUMP JUMPDEST PUSH1 0x1 PUSH1 0x0 SWAP1 SLOAD SWAP1 PUSH2 0x100 EXP SWAP1 DIV PUSH20 0xFFFFFFFFFFFFFFFFFFFFFFFFFFFFFFFFFFFFFFFF AND PUSH20 0xFFFFFFFFFFFFFFFFFFFFFFFFFFFFFFFFFFFFFFFF AND CALLER PUSH20 0xFFFFFFFFFFFFFFFFFFFFFFFFFFFFFFFFFFFFFFFF AND EQ PUSH2 0x1052 JUMPI PUSH1 0x40 MLOAD PUSH32 0x8C379A000000000000000000000000000000000000000000000000000000000 DUP2 MSTORE PUSH1 0x4 ADD PUSH2 0x1049 SWAP1 PUSH2 0x38E1 JUMP JUMPDEST PUSH1 0x40 MLOAD DUP1 SWAP2 SUB SWAP1 REVERT JUMPDEST PUSH1 0xD PUSH1 0x0 SWAP1 SLOAD SWAP1 PUSH2 0x100 EXP SWAP1 DIV PUSH1 0xFF AND ISZERO PUSH2 0x10A2 JUMPI PUSH1 0x40 MLOAD PUSH32 0x8C379A000000000000000000000000000000000000000000000000000000000 DUP2 MSTORE PUSH1 0x4 ADD PUSH2 0x1099 SWAP1 PUSH2 0x394D JUMP JUMPDEST PUSH1 0x40 MLOAD DUP1 SWAP2 SUB SWAP1 REVERT JUMPDEST PUSH1 0x2 SLOAD CALLVALUE EQ PUSH2 0x10E6 JUMPI PUSH1 0x40 MLOAD PUSH32 0x8C379A000000000000000000000000000000000000000000000000000000000 DUP2 MSTORE PUSH1 0x4 ADD PUSH2 0x10DD SWAP1 PUSH2 0x39DF JUMP JUMPDEST PUSH1 0x40 MLOAD DUP1 SWAP2 SUB SWAP1 REVERT JUMPDEST PUSH1 0x1 PUSH1 0xD PUSH1 0x1 PUSH2 0x100 EXP DUP2 SLOAD DUP2 PUSH1 0xFF MUL NOT AND SWAP1 DUP4 ISZERO ISZERO MUL OR SWAP1 SSTORE POP PUSH1 0x2 SLOAD PUSH1 0xB DUP2 SWAP1 SSTORE POP PUSH32 0x486AC935CF1EA9EFFD9E0A261BC42917B45F2FD45CC98DEF2BC34D47F216937C CALLVALUE PUSH1 0x40 MLOAD PUSH2 0x1139 SWAP2 SWAP1 PUSH2 0x3066 JUMP JUMPDEST PUSH1 0x40 MLOAD DUP1 SWAP2 SUB SWAP1 LOG1 PUSH1 0x1 PUSH1 0xD PUSH1 0x0 PUSH2 0x100 EXP DUP2 SLOAD DUP2 PUSH1 0xFF MUL NOT AND SWAP1 DUP4 ISZERO ISZERO MUL OR SWAP1 SSTORE POP TIMESTAMP PUSH1 0x5 DUP2 SWAP1 SSTORE POP PUSH1 0x1 PUSH1 0x6 DUP2 SWAP1 SSTORE POP PUSH32 0xE09EB0AC9BAD92F05E0B489E6FC1D3E349861FFD8A2548182EF06278968A9BD0 PUSH1 0x40 MLOAD PUSH1 0x40 MLOAD DUP1 SWAP2 SUB SWAP1 LOG1 JUMP JUMPDEST PUSH1 0xD PUSH1 0x5 SWAP1 SLOAD SWAP1 PUSH2 0x100 EXP SWAP1 DIV PUSH1 0xFF AND DUP2 JUMP JUMPDEST PUSH1 0x5 SLOAD DUP2 JUMP JUMPDEST PUSH1 0xD PUSH1 0x3 SWAP1 SLOAD SWAP1 PUSH2 0x100 EXP SWAP1 DIV PUSH1 0xFF AND DUP2 JUMP JUMPDEST PUSH1 0x0 PUSH1 0xD PUSH1 0x6 SWAP1 SLOAD SWAP1 PUSH2 0x100 EXP SWAP1 DIV PUSH20 0xFFFFFFFFFFFFFFFFFFFFFFFFFFFFFFFFFFFFFFFF AND PUSH20 0xFFFFFFFFFFFFFFFFFFFFFFFFFFFFFFFFFFFFFFFF AND PUSH4 0x63022560 PUSH1 0x40 MLOAD DUP2 PUSH4 0xFFFFFFFF AND PUSH1 0xE0 SHL DUP2 MSTORE PUSH1 0x4 ADD PUSH1 0x20 PUSH1 0x40 MLOAD DUP1 DUP4 SUB DUP2 DUP7 GAS STATICCALL ISZERO DUP1 ISZERO PUSH2 0x1234 JUMPI RETURNDATASIZE PUSH1 0x0 DUP1 RETURNDATACOPY RETURNDATASIZE PUSH1 0x0 REVERT JUMPDEST POP POP POP POP PUSH1 0x40 MLOAD RETURNDATASIZE PUSH1 0x1F NOT PUSH1 0x1F DUP3 ADD AND DUP3 ADD DUP1 PUSH1 0x40 MSTORE POP DUP2 ADD SWAP1 PUSH2 0x1258 SWAP2 SWAP1 PUSH2 0x3606 JUMP JUMPDEST SWAP1 POP SWAP1 JUMP JUMPDEST PUSH1 0xC SLOAD DUP2 JUMP JUMPDEST PUSH1 0xD PUSH1 0x6 SWAP1 SLOAD SWAP1 PUSH2 0x100 EXP SWAP1 DIV PUSH20 0xFFFFFFFFFFFFFFFFFFFFFFFFFFFFFFFFFFFFFFFF AND DUP2 JUMP JUMPDEST PUSH1 0x7 SLOAD DUP2 JUMP JUMPDEST PUSH1 0x0 SELFBALANCE SWAP1 POP SWAP1 JUMP JUMPDEST PUSH1 0xD PUSH1 0x4 SWAP1 SLOAD SWAP1 PUSH2 0x100 EXP SWAP1 DIV PUSH1 0xFF AND DUP2 JUMP JUMPDEST PUSH1 0x0 PUSH1 0xF PUSH1 0x0 PUSH1 0x1 PUSH1 0x0 SWAP1 SLOAD SWAP1 PUSH2 0x100 EXP SWAP1 DIV PUSH20 0xFFFFFFFFFFFFFFFFFFFFFFFFFFFFFFFFFFFFFFFF AND PUSH20 0xFFFFFFFFFFFFFFFFFFFFFFFFFFFFFFFFFFFFFFFF AND PUSH20 0xFFFFFFFFFFFFFFFFFFFFFFFFFFFFFFFFFFFFFFFF AND DUP2 MSTORE PUSH1 0x20 ADD SWAP1 DUP2 MSTORE PUSH1 0x20 ADD PUSH1 0x0 KECCAK256 SLOAD SWAP1 POP SWAP1 JUMP JUMPDEST PUSH1 0x0 PUSH1 0xB SLOAD SWAP1 POP SWAP1 JUMP JUMPDEST PUSH1 0x0 DUP1 SLOAD SWAP1 PUSH2 0x100 EXP SWAP1 DIV PUSH20 0xFFFFFFFFFFFFFFFFFFFFFFFFFFFFFFFFFFFFFFFF AND PUSH20 0xFFFFFFFFFFFFFFFFFFFFFFFFFFFFFFFFFFFFFFFF AND CALLER PUSH20 0xFFFFFFFFFFFFFFFFFFFFFFFFFFFFFFFFFFFFFFFF AND EQ PUSH2 0x13AB JUMPI PUSH1 0x40 MLOAD PUSH32 0x8C379A000000000000000000000000000000000000000000000000000000000 DUP2 MSTORE PUSH1 0x4 ADD PUSH2 0x13A2 SWAP1 PUSH2 0x3A71 JUMP JUMPDEST PUSH1 0x40 MLOAD DUP1 SWAP2 SUB SWAP1 REVERT JUMPDEST PUSH1 0xD PUSH1 0x0 SWAP1 SLOAD SWAP1 PUSH2 0x100 EXP SWAP1 DIV PUSH1 0xFF AND PUSH2 0x13FA JUMPI PUSH1 0x40 MLOAD PUSH32 0x8C379A000000000000000000000000000000000000000000000000000000000 DUP2 MSTORE PUSH1 0x4 ADD PUSH2 0x13F1 SWAP1 PUSH2 0x34AD JUMP JUMPDEST PUSH1 0x40 MLOAD DUP1 SWAP2 SUB SWAP1 REVERT JUMPDEST PUSH1 0x4 SLOAD PUSH1 0x6 SLOAD GT ISZERO PUSH2 0x1441 JUMPI PUSH1 0x40 MLOAD PUSH32 0x8C379A000000000000000000000000000000000000000000000000000000000 DUP2 MSTORE PUSH1 0x4 ADD PUSH2 0x1438 SWAP1 PUSH2 0x3ADD JUMP JUMPDEST PUSH1 0x40 MLOAD DUP1 SWAP2 SUB SWAP1 REVERT JUMPDEST DUP1 PUSH1 0xE PUSH1 0x0 PUSH1 0x6 SLOAD DUP2 MSTORE PUSH1 0x20 ADD SWAP1 DUP2 MSTORE PUSH1 0x20 ADD PUSH1 0x0 KECCAK256 PUSH1 0x1 ADD DUP2 SWAP1 SSTORE POP PUSH1 0x3 SLOAD PUSH1 0xE PUSH1 0x0 PUSH1 0x6 SLOAD DUP2 MSTORE PUSH1 0x20 ADD SWAP1 DUP2 MSTORE PUSH1 0x20 ADD PUSH1 0x0 KECCAK256 PUSH1 0x0 ADD DUP2 SWAP1 SSTORE POP PUSH32 0xF75D23E75691B7209BF24071476B3702A8412A369B26FD3AD012D19630F65A2B PUSH1 0x6 SLOAD DUP3 PUSH1 0x40 MLOAD PUSH2 0x14B0 SWAP3 SWAP2 SWAP1 PUSH2 0x3728 JUMP JUMPDEST PUSH1 0x40 MLOAD DUP1 SWAP2 SUB SWAP1 LOG1 POP JUMP JUMPDEST PUSH1 0x9 SLOAD DUP2 JUMP JUMPDEST PUSH1 0x6 SLOAD DUP2 JUMP JUMPDEST PUSH1 0x4 SLOAD DUP2 JUMP JUMPDEST PUSH1 0x1 PUSH1 0x0 SWAP1 SLOAD SWAP1 PUSH2 0x100 EXP SWAP1 DIV PUSH20 0xFFFFFFFFFFFFFFFFFFFFFFFFFFFFFFFFFFFFFFFF AND PUSH20 0xFFFFFFFFFFFFFFFFFFFFFFFFFFFFFFFFFFFFFFFF AND CALLER PUSH20 0xFFFFFFFFFFFFFFFFFFFFFFFFFFFFFFFFFFFFFFFF AND EQ PUSH2 0x155D JUMPI PUSH1 0x40 MLOAD PUSH32 0x8C379A000000000000000000000000000000000000000000000000000000000 DUP2 MSTORE PUSH1 0x4 ADD PUSH2 0x1554 SWAP1 PUSH2 0x3B49 JUMP JUMPDEST PUSH1 0x40 MLOAD DUP1 SWAP2 SUB SWAP1 REVERT JUMPDEST PUSH1 0xD PUSH1 0x0 SWAP1 SLOAD SWAP1 PUSH2 0x100 EXP SWAP1 DIV PUSH1 0xFF AND PUSH2 0x15AC JUMPI PUSH1 0x40 MLOAD PUSH32 0x8C379A000000000000000000000000000000000000000000000000000000000 DUP2 MSTORE PUSH1 0x4 ADD PUSH2 0x15A3 SWAP1 PUSH2 0x34AD JUMP JUMPDEST PUSH1 0x40 MLOAD DUP1 SWAP2 SUB SWAP1 REVERT JUMPDEST PUSH1 0x4 SLOAD PUSH1 0x6 SLOAD GT ISZERO PUSH2 0x15F3 JUMPI PUSH1 0x40 MLOAD PUSH32 0x8C379A000000000000000000000000000000000000000000000000000000000 DUP2 MSTORE PUSH1 0x4 ADD PUSH2 0x15EA SWAP1 PUSH2 0x3ADD JUMP JUMPDEST PUSH1 0x40 MLOAD DUP1 SWAP2 SUB SWAP1 REVERT JUMPDEST PUSH1 0x0 PUSH1 0xE PUSH1 0x0 PUSH1 0x6 SLOAD DUP2 MSTORE PUSH1 0x20 ADD SWAP1 DUP2 MSTORE PUSH1 0x20 ADD PUSH1 0x0 KECCAK256 SWAP1 POP DUP1 PUSH1 0x3 ADD PUSH1 0x0 SWAP1 SLOAD SWAP1 PUSH2 0x100 EXP SWAP1 DIV PUSH1 0xFF AND ISZERO PUSH2 0x165E JUMPI PUSH1 0x40 MLOAD PUSH32 0x8C379A000000000000000000000000000000000000000000000000000000000 DUP2 MSTORE PUSH1 0x4 ADD PUSH2 0x1655 SWAP1 PUSH2 0x3BDB JUMP JUMPDEST PUSH1 0x40 MLOAD DUP1 SWAP2 SUB SWAP1 REVERT JUMPDEST PUSH1 0x0 DUP2 PUSH1 0x1 ADD SLOAD GT PUSH2 0x16A5 JUMPI PUSH1 0x40 MLOAD PUSH32 0x8C379A000000000000000000000000000000000000000000000000000000000 DUP2 MSTORE PUSH1 0x4 ADD PUSH2 0x169C SWAP1 PUSH2 0x3C6D JUMP JUMPDEST PUSH1 0x40 MLOAD DUP1 SWAP2 SUB SWAP1 REVERT JUMPDEST PUSH1 0x0 PUSH1 0x7 SLOAD DUP3 PUSH1 0x1 ADD SLOAD DUP4 PUSH1 0x0 ADD SLOAD PUSH2 0x16BE SWAP2 SWAP1 PUSH2 0x3C8D JUMP JUMPDEST PUSH2 0x16C8 SWAP2 SWAP1 PUSH2 0x3C8D JUMP JUMPDEST SWAP1 POP DUP1 CALLVALUE EQ PUSH2 0x170C JUMPI PUSH1 0x40 MLOAD PUSH32 0x8C379A000000000000000000000000000000000000000000000000000000000 DUP2 MSTORE PUSH1 0x4 ADD PUSH2 0x1703 SWAP1 PUSH2 0x3D0D JUMP JUMPDEST PUSH1 0x40 MLOAD DUP1 SWAP2 SUB SWAP1 REVERT JUMPDEST PUSH1 0x1 DUP3 PUSH1 0x3 ADD PUSH1 0x0 PUSH2 0x100 EXP DUP2 SLOAD DUP2 PUSH1 0xFF MUL NOT AND SWAP1 DUP4 ISZERO ISZERO MUL OR SWAP1 SSTORE POP PUSH1 0x0 PUSH1 0x7 DUP2 SWAP1 SSTORE POP PUSH32 0xA0D112ED080C1B1A94B838AD981A23746BE2A4670FD4BF157224E72CDD5DFDDE PUSH1 0x6 SLOAD DUP3 PUSH1 0x40 MLOAD PUSH2 0x1764 SWAP3 SWAP2 SWAP1 PUSH2 0x3728 JUMP JUMPDEST PUSH1 0x40 MLOAD DUP1 SWAP2 SUB SWAP1 LOG1 DUP1 PUSH1 0xF PUSH1 0x0 DUP1 PUSH1 0x0 SWAP1 SLOAD SWAP1 PUSH2 0x100 EXP SWAP1 DIV PUSH20 0xFFFFFFFFFFFFFFFFFFFFFFFFFFFFFFFFFFFFFFFF AND PUSH20 0xFFFFFFFFFFFFFFFFFFFFFFFFFFFFFFFFFFFFFFFF AND PUSH20 0xFFFFFFFFFFFFFFFFFFFFFFFFFFFFFFFFFFFFFFFF AND DUP2 MSTORE PUSH1 0x20 ADD SWAP1 DUP2 MSTORE PUSH1 0x20 ADD PUSH1 0x0 KECCAK256 PUSH1 0x0 DUP3 DUP3 SLOAD PUSH2 0x17DC SWAP2 SWAP1 PUSH2 0x3C8D JUMP JUMPDEST SWAP3 POP POP DUP2 SWAP1 SSTORE POP PUSH1 0x0 DUP1 SLOAD SWAP1 PUSH2 0x100 EXP SWAP1 DIV PUSH20 0xFFFFFFFFFFFFFFFFFFFFFFFFFFFFFFFFFFFFFFFF AND PUSH20 0xFFFFFFFFFFFFFFFFFFFFFFFFFFFFFFFFFFFFFFFF AND PUSH32 0xE670E4E82118D22A1F9EE18920455EBC958BAE26A90A05D31D3378788B1B0E44 DUP3 PUSH1 0x40 MLOAD PUSH2 0x1849 SWAP2 SWAP1 PUSH2 0x3066 JUMP JUMPDEST PUSH1 0x40 MLOAD DUP1 SWAP2 SUB SWAP1 LOG2 PUSH1 0x4 SLOAD PUSH1 0x6 SLOAD SUB PUSH2 0x187C JUMPI PUSH1 0x1 PUSH1 0xD PUSH1 0x3 PUSH2 0x100 EXP DUP2 SLOAD DUP2 PUSH1 0xFF MUL NOT AND SWAP1 DUP4 ISZERO ISZERO MUL OR SWAP1 SSTORE POP PUSH2 0x1895 JUMP JUMPDEST PUSH1 0x6 PUSH1 0x0 DUP2 SLOAD DUP1 SWAP3 SWAP2 SWAP1 PUSH2 0x188F SWAP1 PUSH2 0x3D2D JUMP JUMPDEST SWAP2 SWAP1 POP SSTORE POP JUMPDEST POP POP JUMP JUMPDEST PUSH1 0x0 DUP1 SLOAD SWAP1 PUSH2 0x100 EXP SWAP1 DIV PUSH20 0xFFFFFFFFFFFFFFFFFFFFFFFFFFFFFFFFFFFFFFFF AND PUSH20 0xFFFFFFFFFFFFFFFFFFFFFFFFFFFFFFFFFFFFFFFF AND CALLER PUSH20 0xFFFFFFFFFFFFFFFFFFFFFFFFFFFFFFFFFFFFFFFF AND EQ PUSH2 0x1927 JUMPI PUSH1 0x40 MLOAD PUSH32 0x8C379A000000000000000000000000000000000000000000000000000000000 DUP2 MSTORE PUSH1 0x4 ADD PUSH2 0x191E SWAP1 PUSH2 0x3DE7 JUMP JUMPDEST PUSH1 0x40 MLOAD DUP1 SWAP2 SUB SWAP1 REVERT JUMPDEST PUSH1 0xD PUSH1 0x0 SWAP1 SLOAD SWAP1 PUSH2 0x100 EXP SWAP1 DIV PUSH1 0xFF AND PUSH2 0x1976 JUMPI PUSH1 0x40 MLOAD PUSH32 0x8C379A000000000000000000000000000000000000000000000000000000000 DUP2 MSTORE PUSH1 0x4 ADD PUSH2 0x196D SWAP1 PUSH2 0x3E53 JUMP JUMPDEST PUSH1 0x40 MLOAD DUP1 SWAP2 SUB SWAP1 REVERT JUMPDEST PUSH1 0x0 PUSH1 0xB SLOAD EQ PUSH2 0x19BB JUMPI PUSH1 0x40 MLOAD PUSH32 0x8C379A000000000000000000000000000000000000000000000000000000000 DUP2 MSTORE PUSH1 0x4 ADD PUSH2 0x19B2 SWAP1 PUSH2 0x3EE5 JUMP JUMPDEST PUSH1 0x40 MLOAD DUP1 SWAP2 SUB SWAP1 REVERT JUMPDEST PUSH1 0x2 SLOAD PUSH1 0xB DUP2 SWAP1 SSTORE POP JUMP JUMPDEST PUSH1 0xA SLOAD DUP2 JUMP JUMPDEST PUSH1 0x1 PUSH1 0x0 SWAP1 SLOAD SWAP1 PUSH2 0x100 EXP SWAP1 DIV PUSH20 0xFFFFFFFFFFFFFFFFFFFFFFFFFFFFFFFFFFFFFFFF AND PUSH20 0xFFFFFFFFFFFFFFFFFFFFFFFFFFFFFFFFFFFFFFFF AND CALLER PUSH20 0xFFFFFFFFFFFFFFFFFFFFFFFFFFFFFFFFFFFFFFFF AND EQ PUSH2 0x1A5C JUMPI PUSH1 0x40 MLOAD PUSH32 0x8C379A000000000000000000000000000000000000000000000000000000000 DUP2 MSTORE PUSH1 0x4 ADD PUSH2 0x1A53 SWAP1 PUSH2 0x3F77 JUMP JUMPDEST PUSH1 0x40 MLOAD DUP1 SWAP2 SUB SWAP1 REVERT JUMPDEST PUSH1 0xD PUSH1 0x4 SWAP1 SLOAD SWAP1 PUSH2 0x100 EXP SWAP1 DIV PUSH1 0xFF AND PUSH2 0x1AAB JUMPI PUSH1 0x40 MLOAD PUSH32 0x8C379A000000000000000000000000000000000000000000000000000000000 DUP2 MSTORE PUSH1 0x4 ADD PUSH2 0x1AA2 SWAP1 PUSH2 0x4009 JUMP JUMPDEST PUSH1 0x40 MLOAD DUP1 SWAP2 SUB SWAP1 REVERT JUMPDEST DUP1 PUSH1 0x9 DUP2 SWAP1 SSTORE POP PUSH1 0x1 PUSH1 0xD PUSH1 0x5 PUSH2 0x100 EXP DUP2 SLOAD DUP2 PUSH1 0xFF MUL NOT AND SWAP1 DUP4 ISZERO ISZERO MUL OR SWAP1 SSTORE POP PUSH32 0xF2792B28C50F2F7EECE39E74A2B4F0F1CE15A79ACB72DD811686E827AED030B DUP2 PUSH1 0x40 MLOAD PUSH2 0x1AFC SWAP2 SWAP1 PUSH2 0x3066 JUMP JUMPDEST PUSH1 0x40 MLOAD DUP1 SWAP2 SUB SWAP1 LOG1 POP JUMP JUMPDEST PUSH1 0x1 PUSH1 0x0 SWAP1 SLOAD SWAP1 PUSH2 0x100 EXP SWAP1 DIV PUSH20 0xFFFFFFFFFFFFFFFFFFFFFFFFFFFFFFFFFFFFFFFF AND PUSH20 0xFFFFFFFFFFFFFFFFFFFFFFFFFFFFFFFFFFFFFFFF AND CALLER PUSH20 0xFFFFFFFFFFFFFFFFFFFFFFFFFFFFFFFFFFFFFFFF AND EQ PUSH2 0x1B97 JUMPI PUSH1 0x40 MLOAD PUSH32 0x8C379A000000000000000000000000000000000000000000000000000000000 DUP2 MSTORE PUSH1 0x4 ADD PUSH2 0x1B8E SWAP1 PUSH2 0x409B JUMP JUMPDEST PUSH1 0x40 MLOAD DUP1 SWAP2 SUB SWAP1 REVERT JUMPDEST PUSH1 0xD PUSH1 0x0 SWAP1 SLOAD SWAP1 PUSH2 0x100 EXP SWAP1 DIV PUSH1 0xFF AND PUSH2 0x1BE6 JUMPI PUSH1 0x40 MLOAD PUSH32 0x8C379A000000000000000000000000000000000000000000000000000000000 DUP2 MSTORE PUSH1 0x4 ADD PUSH2 0x1BDD SWAP1 PUSH2 0x34AD JUMP JUMPDEST PUSH1 0x40 MLOAD DUP1 SWAP2 SUB SWAP1 REVERT JUMPDEST PUSH1 0x4 SLOAD PUSH1 0x6 SLOAD LT PUSH2 0x1C2C JUMPI PUSH1 0x40 MLOAD PUSH32 0x8C379A000000000000000000000000000000000000000000000000000000000 DUP2 MSTORE PUSH1 0x4 ADD PUSH2 0x1C23 SWAP1 PUSH2 0x412D JUMP JUMPDEST PUSH1 0x40 MLOAD DUP1 SWAP2 SUB SWAP1 REVERT JUMPDEST PUSH1 0x0 PUSH1 0xE PUSH1 0x0 PUSH1 0x6 SLOAD DUP2 MSTORE PUSH1 0x20 ADD SWAP1 DUP2 MSTORE PUSH1 0x20 ADD PUSH1 0x0 KECCAK256 SWAP1 POP DUP1 PUSH1 0x3 ADD PUSH1 0x0 SWAP1 SLOAD SWAP1 PUSH2 0x100 EXP SWAP1 DIV PUSH1 0xFF AND ISZERO PUSH2 0x1C97 JUMPI PUSH1 0x40 MLOAD PUSH32 0x8C379A000000000000000000000000000000000000000000000000000000000 DUP2 MSTORE PUSH1 0x4 ADD PUSH2 0x1C8E SWAP1 PUSH2 0x3BDB JUMP JUMPDEST PUSH1 0x40 MLOAD DUP1 SWAP2 SUB SWAP1 REVERT JUMPDEST PUSH1 0x0 DUP2 PUSH1 0x1 ADD SLOAD GT PUSH2 0x1CDE JUMPI PUSH1 0x40 MLOAD PUSH32 0x8C379A000000000000000000000000000000000000000000000000000000000 DUP2 MSTORE PUSH1 0x4 ADD PUSH2 0x1CD5 SWAP1 PUSH2 0x3C6D JUMP JUMPDEST PUSH1 0x40 MLOAD DUP1 SWAP2 SUB SWAP1 REVERT JUMPDEST PUSH1 0x0 DUP2 PUSH1 0x1 ADD SLOAD DUP3 PUSH1 0x0 ADD SLOAD PUSH2 0x1CF4 SWAP2 SWAP1 PUSH2 0x3C8D JUMP JUMPDEST SWAP1 POP DUP1 PUSH1 0x7 PUSH1 0x0 DUP3 DUP3 SLOAD PUSH2 0x1D08 SWAP2 SWAP1 PUSH2 0x3C8D JUMP JUMPDEST SWAP3 POP POP DUP2 SWAP1 SSTORE POP PUSH32 0x9EA3A4B65940D7B9DBF8BB1C459BA8E81222D1A596E93FBC364365A6D78E27D6 PUSH1 0x6 SLOAD DUP3 PUSH1 0x40 MLOAD PUSH2 0x1D42 SWAP3 SWAP2 SWAP1 PUSH2 0x3728 JUMP JUMPDEST PUSH1 0x40 MLOAD DUP1 SWAP2 SUB SWAP1 LOG1 PUSH1 0x6 PUSH1 0x0 DUP2 SLOAD DUP1 SWAP3 SWAP2 SWAP1 PUSH2 0x1D5D SWAP1 PUSH2 0x3D2D JUMP JUMPDEST SWAP2 SWAP1 POP SSTORE POP PUSH1 0x4 SLOAD PUSH1 0x6 SLOAD SUB PUSH2 0x1D89 JUMPI PUSH1 0x1 PUSH1 0xD PUSH1 0x3 PUSH2 0x100 EXP DUP2 SLOAD DUP2 PUSH1 0xFF MUL NOT AND SWAP1 DUP4 ISZERO ISZERO MUL OR SWAP1 SSTORE POP JUMPDEST POP POP JUMP JUMPDEST PUSH1 0x0 PUSH1 0xD PUSH1 0x3 SWAP1 SLOAD SWAP1 PUSH2 0x100 EXP SWAP1 DIV PUSH1 0xFF AND SWAP1 POP SWAP1 JUMP JUMPDEST PUSH1 0xB SLOAD DUP2 JUMP JUMPDEST PUSH1 0x0 DUP1 SLOAD SWAP1 PUSH2 0x100 EXP SWAP1 DIV PUSH20 0xFFFFFFFFFFFFFFFFFFFFFFFFFFFFFFFFFFFFFFFF AND PUSH20 0xFFFFFFFFFFFFFFFFFFFFFFFFFFFFFFFFFFFFFFFF AND CALLER PUSH20 0xFFFFFFFFFFFFFFFFFFFFFFFFFFFFFFFFFFFFFFFF AND EQ PUSH2 0x1E38 JUMPI PUSH1 0x40 MLOAD PUSH32 0x8C379A000000000000000000000000000000000000000000000000000000000 DUP2 MSTORE PUSH1 0x4 ADD PUSH2 0x1E2F SWAP1 PUSH2 0x41BF JUMP JUMPDEST PUSH1 0x40 MLOAD DUP1 SWAP2 SUB SWAP1 REVERT JUMPDEST PUSH1 0xD PUSH1 0x0 SWAP1 SLOAD SWAP1 PUSH2 0x100 EXP SWAP1 DIV PUSH1 0xFF AND ISZERO PUSH2 0x1E88 JUMPI PUSH1 0x40 MLOAD PUSH32 0x8C379A000000000000000000000000000000000000000000000000000000000 DUP2 MSTORE PUSH1 0x4 ADD PUSH2 0x1E7F SWAP1 PUSH2 0x394D JUMP JUMPDEST PUSH1 0x40 MLOAD DUP1 SWAP2 SUB SWAP1 REVERT JUMPDEST DUP3 PUSH1 0x2 DUP2 SWAP1 SSTORE POP DUP2 PUSH1 0x3 DUP2 SWAP1 SSTORE POP DUP1 PUSH1 0x4 DUP2 SWAP1 SSTORE POP PUSH32 0x2F47566D4872826A9750E05AE448AD21F2A677C332D36D6437B697A7F8DD1E14 DUP4 DUP4 DUP4 PUSH1 0x40 MLOAD PUSH2 0x1ED0 SWAP4 SWAP3 SWAP2 SWAP1 PUSH2 0x41DF JUMP JUMPDEST PUSH1 0x40 MLOAD DUP1 SWAP2 SUB SWAP1 LOG1 POP POP POP JUMP JUMPDEST PUSH1 0xD PUSH1 0x6 SWAP1 SLOAD SWAP1 PUSH2 0x100 EXP SWAP1 DIV PUSH20 0xFFFFFFFFFFFFFFFFFFFFFFFFFFFFFFFFFFFFFFFF AND PUSH20 0xFFFFFFFFFFFFFFFFFFFFFFFFFFFFFFFFFFFFFFFF AND CALLER PUSH20 0xFFFFFFFFFFFFFFFFFFFFFFFFFFFFFFFFFFFFFFFF AND EQ PUSH2 0x1F6D JUMPI PUSH1 0x40 MLOAD PUSH32 0x8C379A000000000000000000000000000000000000000000000000000000000 DUP2 MSTORE PUSH1 0x4 ADD PUSH2 0x1F64 SWAP1 PUSH2 0x4288 JUMP JUMPDEST PUSH1 0x40 MLOAD DUP1 SWAP2 SUB SWAP1 REVERT JUMPDEST PUSH1 0xD PUSH1 0x2 SWAP1 SLOAD SWAP1 PUSH2 0x100 EXP SWAP1 DIV PUSH1 0xFF AND PUSH2 0x1FBC JUMPI PUSH1 0x40 MLOAD PUSH32 0x8C379A000000000000000000000000000000000000000000000000000000000 DUP2 MSTORE PUSH1 0x4 ADD PUSH2 0x1FB3 SWAP1 PUSH2 0x42F4 JUMP JUMPDEST PUSH1 0x40 MLOAD DUP1 SWAP2 SUB SWAP1 REVERT JUMPDEST PUSH1 0xA SLOAD DUP3 EQ PUSH2 0x2000 JUMPI PUSH1 0x40 MLOAD PUSH32 0x8C379A000000000000000000000000000000000000000000000000000000000 DUP2 MSTORE PUSH1 0x4 ADD PUSH2 0x1FF7 SWAP1 PUSH2 0x4360 JUMP JUMPDEST PUSH1 0x40 MLOAD DUP1 SWAP2 SUB SWAP1 REVERT JUMPDEST PUSH1 0x0 DUP1 PUSH1 0x1 DUP4 SUB PUSH2 0x204C JUMPI PUSH1 0xB SLOAD PUSH1 0x8 SLOAD LT PUSH2 0x201E JUMPI PUSH1 0xB SLOAD PUSH2 0x2022 JUMP JUMPDEST PUSH1 0x8 SLOAD JUMPDEST SWAP2 POP PUSH1 0x0 DUP1 SLOAD SWAP1 PUSH2 0x100 EXP SWAP1 DIV PUSH20 0xFFFFFFFFFFFFFFFFFFFFFFFFFFFFFFFFFFFFFFFF AND SWAP1 POP PUSH2 0x20AE JUMP JUMPDEST PUSH1 0x2 DUP4 SUB PUSH2 0x2097 JUMPI PUSH1 0xB SLOAD PUSH1 0x9 SLOAD LT PUSH2 0x2067 JUMPI PUSH1 0xB SLOAD PUSH2 0x206B JUMP JUMPDEST PUSH1 0x9 SLOAD JUMPDEST SWAP2 POP PUSH1 0x1 PUSH1 0x0 SWAP1 SLOAD SWAP1 PUSH2 0x100 EXP SWAP1 DIV PUSH20 0xFFFFFFFFFFFFFFFFFFFFFFFFFFFFFFFFFFFFFFFF AND SWAP1 POP PUSH2 0x20AD JUMP JUMPDEST PUSH1 0x2 PUSH1 0xB SLOAD PUSH2 0x20A6 SWAP2 SWAP1 PUSH2 0x43AF JUMP JUMPDEST SWAP2 POP PUSH1 0x0 SWAP1 POP JUMPDEST JUMPDEST DUP2 PUSH1 0xF PUSH1 0x0 DUP1 PUSH1 0x0 SWAP1 SLOAD SWAP1 PUSH2 0x100 EXP SWAP1 DIV PUSH20 0xFFFFFFFFFFFFFFFFFFFFFFFFFFFFFFFFFFFFFFFF AND PUSH20 0xFFFFFFFFFFFFFFFFFFFFFFFFFFFFFFFFFFFFFFFF AND PUSH20 0xFFFFFFFFFFFFFFFFFFFFFFFFFFFFFFFFFFFFFFFF AND DUP2 MSTORE PUSH1 0x20 ADD SWAP1 DUP2 MSTORE PUSH1 0x20 ADD PUSH1 0x0 KECCAK256 PUSH1 0x0 DUP3 DUP3 SLOAD PUSH2 0x211E SWAP2 SWAP1 PUSH2 0x3C8D JUMP JUMPDEST SWAP3 POP POP DUP2 SWAP1 SSTORE POP DUP2 PUSH1 0xB SLOAD PUSH2 0x2133 SWAP2 SWAP1 PUSH2 0x36F4 JUMP JUMPDEST PUSH1 0xF PUSH1 0x0 PUSH1 0x1 PUSH1 0x0 SWAP1 SLOAD SWAP1 PUSH2 0x100 EXP SWAP1 DIV PUSH20 0xFFFFFFFFFFFFFFFFFFFFFFFFFFFFFFFFFFFFFFFF AND PUSH20 0xFFFFFFFFFFFFFFFFFFFFFFFFFFFFFFFFFFFFFFFF AND PUSH20 0xFFFFFFFFFFFFFFFFFFFFFFFFFFFFFFFFFFFFFFFF AND DUP2 MSTORE PUSH1 0x20 ADD SWAP1 DUP2 MSTORE PUSH1 0x20 ADD PUSH1 0x0 KECCAK256 PUSH1 0x0 DUP3 DUP3 SLOAD PUSH2 0x21A3 SWAP2 SWAP1 PUSH2 0x3C8D JUMP JUMPDEST SWAP3 POP POP DUP2 SWAP1 SSTORE POP PUSH1 0x0 PUSH1 0x2 PUSH1 0xC SLOAD PUSH2 0x21BB SWAP2 SWAP1 PUSH2 0x43AF JUMP JUMPDEST SWAP1 POP PUSH1 0x0 PUSH20 0xFFFFFFFFFFFFFFFFFFFFFFFFFFFFFFFFFFFFFFFF AND DUP3 PUSH20 0xFFFFFFFFFFFFFFFFFFFFFFFFFFFFFFFFFFFFFFFF AND EQ PUSH2 0x224C JUMPI DUP1 PUSH1 0xF PUSH1 0x0 DUP5 PUSH20 0xFFFFFFFFFFFFFFFFFFFFFFFFFFFFFFFFFFFFFFFF AND PUSH20 0xFFFFFFFFFFFFFFFFFFFFFFFFFFFFFFFFFFFFFFFF AND DUP2 MSTORE PUSH1 0x20 ADD SWAP1 DUP2 MSTORE PUSH1 0x20 ADD PUSH1 0x0 KECCAK256 PUSH1 0x0 DUP3 DUP3 SLOAD PUSH2 0x2240 SWAP2 SWAP1 PUSH2 0x3C8D JUMP JUMPDEST SWAP3 POP POP DUP2 SWAP1 SSTORE POP PUSH2 0x2354 JUMP JUMPDEST PUSH1 0x2 DUP2 PUSH2 0x2259 SWAP2 SWAP1 PUSH2 0x43AF JUMP JUMPDEST PUSH1 0xF PUSH1 0x0 DUP1 PUSH1 0x0 SWAP1 SLOAD SWAP1 PUSH2 0x100 EXP SWAP1 DIV PUSH20 0xFFFFFFFFFFFFFFFFFFFFFFFFFFFFFFFFFFFFFFFF AND PUSH20 0xFFFFFFFFFFFFFFFFFFFFFFFFFFFFFFFFFFFFFFFF AND PUSH20 0xFFFFFFFFFFFFFFFFFFFFFFFFFFFFFFFFFFFFFFFF AND DUP2 MSTORE PUSH1 0x20 ADD SWAP1 DUP2 MSTORE PUSH1 0x20 ADD PUSH1 0x0 KECCAK256 PUSH1 0x0 DUP3 DUP3 SLOAD PUSH2 0x22C8 SWAP2 SWAP1 PUSH2 0x3C8D JUMP JUMPDEST SWAP3 POP POP DUP2 SWAP1 SSTORE POP PUSH1 0x2 DUP2 PUSH2 0x22DC SWAP2 SWAP1 PUSH2 0x43AF JUMP JUMPDEST PUSH1 0xF PUSH1 0x0 PUSH1 0x1 PUSH1 0x0 SWAP1 SLOAD SWAP1 PUSH2 0x100 EXP SWAP1 DIV PUSH20 0xFFFFFFFFFFFFFFFFFFFFFFFFFFFFFFFFFFFFFFFF AND PUSH20 0xFFFFFFFFFFFFFFFFFFFFFFFFFFFFFFFFFFFFFFFF AND PUSH20 0xFFFFFFFFFFFFFFFFFFFFFFFFFFFFFFFFFFFFFFFF AND DUP2 MSTORE PUSH1 0x20 ADD SWAP1 DUP2 MSTORE PUSH1 0x20 ADD PUSH1 0x0 KECCAK256 PUSH1 0x0 DUP3 DUP3 SLOAD PUSH2 0x234C SWAP2 SWAP1 PUSH2 0x3C8D JUMP JUMPDEST SWAP3 POP POP DUP2 SWAP1 SSTORE POP JUMPDEST PUSH1 0x0 PUSH1 0xD PUSH1 0x6 SWAP1 SLOAD SWAP1 PUSH2 0x100 EXP SWAP1 DIV PUSH20 0xFFFFFFFFFFFFFFFFFFFFFFFFFFFFFFFFFFFFFFFF AND PUSH20 0xFFFFFFFFFFFFFFFFFFFFFFFFFFFFFFFFFFFFFFFF AND DUP3 PUSH1 0x40 MLOAD PUSH2 0x239C SWAP1 PUSH2 0x37EE JUMP JUMPDEST PUSH1 0x0 PUSH1 0x40 MLOAD DUP1 DUP4 SUB DUP2 DUP6 DUP8 GAS CALL SWAP3 POP POP POP RETURNDATASIZE DUP1 PUSH1 0x0 DUP2 EQ PUSH2 0x23D9 JUMPI PUSH1 0x40 MLOAD SWAP2 POP PUSH1 0x1F NOT PUSH1 0x3F RETURNDATASIZE ADD AND DUP3 ADD PUSH1 0x40 MSTORE RETURNDATASIZE DUP3 MSTORE RETURNDATASIZE PUSH1 0x0 PUSH1 0x20 DUP5 ADD RETURNDATACOPY PUSH2 0x23DE JUMP JUMPDEST PUSH1 0x60 SWAP2 POP JUMPDEST POP POP SWAP1 POP DUP1 PUSH2 0x2422 JUMPI PUSH1 0x40 MLOAD PUSH32 0x8C379A000000000000000000000000000000000000000000000000000000000 DUP2 MSTORE PUSH1 0x4 ADD PUSH2 0x2419 SWAP1 PUSH2 0x4452 JUMP JUMPDEST PUSH1 0x40 MLOAD DUP1 SWAP2 SUB SWAP1 REVERT JUMPDEST PUSH1 0x0 PUSH1 0xD PUSH1 0x2 PUSH2 0x100 EXP DUP2 SLOAD DUP2 PUSH1 0xFF MUL NOT AND SWAP1 DUP4 ISZERO ISZERO MUL OR SWAP1 SSTORE POP PUSH32 0xB4121F1F91A696A3FC75F6D151F3C9865ABFFA0738BDA595E71C381C02AF2FAA DUP7 DUP7 PUSH1 0x40 MLOAD PUSH2 0x246E SWAP3 SWAP2 SWAP1 PUSH2 0x3728 JUMP JUMPDEST PUSH1 0x40 MLOAD DUP1 SWAP2 SUB SWAP1 LOG1 PUSH2 0x247E PUSH2 0x2C5D JUMP JUMPDEST POP POP POP POP POP POP JUMP JUMPDEST PUSH1 0x0 DUP1 SLOAD SWAP1 PUSH2 0x100 EXP SWAP1 DIV PUSH20 0xFFFFFFFFFFFFFFFFFFFFFFFFFFFFFFFFFFFFFFFF AND DUP2 JUMP JUMPDEST PUSH1 0x1 PUSH1 0x0 SWAP1 SLOAD SWAP1 PUSH2 0x100 EXP SWAP1 DIV PUSH20 0xFFFFFFFFFFFFFFFFFFFFFFFFFFFFFFFFFFFFFFFF AND PUSH20 0xFFFFFFFFFFFFFFFFFFFFFFFFFFFFFFFFFFFFFFFF AND CALLER PUSH20 0xFFFFFFFFFFFFFFFFFFFFFFFFFFFFFFFFFFFFFFFF AND EQ PUSH2 0x253A JUMPI PUSH1 0x40 MLOAD PUSH32 0x8C379A000000000000000000000000000000000000000000000000000000000 DUP2 MSTORE PUSH1 0x4 ADD PUSH2 0x2531 SWAP1 PUSH2 0x44E4 JUMP JUMPDEST PUSH1 0x40 MLOAD DUP1 SWAP2 SUB SWAP1 REVERT JUMPDEST PUSH1 0xD PUSH1 0x4 SWAP1 SLOAD SWAP1 PUSH2 0x100 EXP SWAP1 DIV PUSH1 0xFF AND PUSH2 0x2589 JUMPI PUSH1 0x40 MLOAD PUSH32 0x8C379A000000000000000000000000000000000000000000000000000000000 DUP2 MSTORE PUSH1 0x4 ADD PUSH2 0x2580 SWAP1 PUSH2 0x4009 JUMP JUMPDEST PUSH1 0x40 MLOAD DUP1 SWAP2 SUB SWAP1 REVERT JUMPDEST PUSH32 0x214F96452FC3FDFD5EEAFDA7F5DF5B6066F4F8AC1295FB53CD051491B9B56DA3 PUSH1 0x40 MLOAD PUSH1 0x40 MLOAD DUP1 SWAP2 SUB SWAP1 LOG1 JUMP JUMPDEST PUSH1 0x1 PUSH1 0x0 SWAP1 SLOAD SWAP1 PUSH2 0x100 EXP SWAP1 DIV PUSH20 0xFFFFFFFFFFFFFFFFFFFFFFFFFFFFFFFFFFFFFFFF AND PUSH20 0xFFFFFFFFFFFFFFFFFFFFFFFFFFFFFFFFFFFFFFFF AND CALLER PUSH20 0xFFFFFFFFFFFFFFFFFFFFFFFFFFFFFFFFFFFFFFFF AND EQ PUSH2 0x2647 JUMPI PUSH1 0x40 MLOAD PUSH32 0x8C379A000000000000000000000000000000000000000000000000000000000 DUP2 MSTORE PUSH1 0x4 ADD PUSH2 0x263E SWAP1 PUSH2 0x4576 JUMP JUMPDEST PUSH1 0x40 MLOAD DUP1 SWAP2 SUB SWAP1 REVERT JUMPDEST PUSH1 0xD PUSH1 0x4 SWAP1 SLOAD SWAP1 PUSH2 0x100 EXP SWAP1 DIV PUSH1 0xFF AND PUSH2 0x2696 JUMPI PUSH1 0x40 MLOAD PUSH32 0x8C379A000000000000000000000000000000000000000000000000000000000 DUP2 MSTORE PUSH1 0x4 ADD PUSH2 0x268D SWAP1 PUSH2 0x4009 JUMP JUMPDEST PUSH1 0x40 MLOAD DUP1 SWAP2 SUB SWAP1 REVERT JUMPDEST PUSH1 0x0 PUSH1 0xB SLOAD PUSH1 0x8 SLOAD LT PUSH2 0x26AB JUMPI PUSH1 0xB SLOAD PUSH2 0x26AF JUMP JUMPDEST PUSH1 0x8 SLOAD JUMPDEST SWAP1 POP DUP1 PUSH1 0xF PUSH1 0x0 DUP1 PUSH1 0x0 SWAP1 SLOAD SWAP1 PUSH2 0x100 EXP SWAP1 DIV PUSH20 0xFFFFFFFFFFFFFFFFFFFFFFFFFFFFFFFFFFFFFFFF AND PUSH20 0xFFFFFFFFFFFFFFFFFFFFFFFFFFFFFFFFFFFFFFFF AND PUSH20 0xFFFFFFFFFFFFFFFFFFFFFFFFFFFFFFFFFFFFFFFF AND DUP2 MSTORE PUSH1 0x20 ADD SWAP1 DUP2 MSTORE PUSH1 0x20 ADD PUSH1 0x0 KECCAK256 PUSH1 0x0 DUP3 DUP3 SLOAD PUSH2 0x2721 SWAP2 SWAP1 PUSH2 0x3C8D JUMP JUMPDEST SWAP3 POP POP DUP2 SWAP1 SSTORE POP DUP1 PUSH1 0xB SLOAD PUSH2 0x2736 SWAP2 SWAP1 PUSH2 0x36F4 JUMP JUMPDEST PUSH1 0xF PUSH1 0x0 PUSH1 0x1 PUSH1 0x0 SWAP1 SLOAD SWAP1 PUSH2 0x100 EXP SWAP1 DIV PUSH20 0xFFFFFFFFFFFFFFFFFFFFFFFFFFFFFFFFFFFFFFFF AND PUSH20 0xFFFFFFFFFFFFFFFFFFFFFFFFFFFFFFFFFFFFFFFF AND PUSH20 0xFFFFFFFFFFFFFFFFFFFFFFFFFFFFFFFFFFFFFFFF AND DUP2 MSTORE PUSH1 0x20 ADD SWAP1 DUP2 MSTORE PUSH1 0x20 ADD PUSH1 0x0 KECCAK256 PUSH1 0x0 DUP3 DUP3 SLOAD PUSH2 0x27A6 SWAP2 SWAP1 PUSH2 0x3C8D JUMP JUMPDEST SWAP3 POP POP DUP2 SWAP1 SSTORE POP PUSH1 0x0 DUP1 SLOAD SWAP1 PUSH2 0x100 EXP SWAP1 DIV PUSH20 0xFFFFFFFFFFFFFFFFFFFFFFFFFFFFFFFFFFFFFFFF AND PUSH20 0xFFFFFFFFFFFFFFFFFFFFFFFFFFFFFFFFFFFFFFFF AND PUSH32 0xE670E4E82118D22A1F9EE18920455EBC958BAE26A90A05D31D3378788B1B0E44 DUP3 PUSH1 0x40 MLOAD PUSH2 0x2813 SWAP2 SWAP1 PUSH2 0x3066 JUMP JUMPDEST PUSH1 0x40 MLOAD DUP1 SWAP2 SUB SWAP1 LOG2 PUSH1 0x1 PUSH1 0x0 SWAP1 SLOAD SWAP1 PUSH2 0x100 EXP SWAP1 DIV PUSH20 0xFFFFFFFFFFFFFFFFFFFFFFFFFFFFFFFFFFFFFFFF AND PUSH20 0xFFFFFFFFFFFFFFFFFFFFFFFFFFFFFFFFFFFFFFFF AND PUSH32 0xE670E4E82118D22A1F9EE18920455EBC958BAE26A90A05D31D3378788B1B0E44 DUP3 PUSH1 0xB SLOAD PUSH2 0x2883 SWAP2 SWAP1 PUSH2 0x36F4 JUMP JUMPDEST PUSH1 0x40 MLOAD PUSH2 0x2890 SWAP2 SWAP1 PUSH2 0x3066 JUMP JUMPDEST PUSH1 0x40 MLOAD DUP1 SWAP2 SUB SWAP1 LOG2 PUSH2 0x28A0 PUSH2 0x2C5D JUMP JUMPDEST POP JUMP JUMPDEST PUSH1 0xE PUSH1 0x20 MSTORE DUP1 PUSH1 0x0 MSTORE PUSH1 0x40 PUSH1 0x0 KECCAK256 PUSH1 0x0 SWAP2 POP SWAP1 POP DUP1 PUSH1 0x0 ADD SLOAD SWAP1 DUP1 PUSH1 0x1 ADD SLOAD SWAP1 DUP1 PUSH1 0x2 ADD SLOAD SWAP1 DUP1 PUSH1 0x3 ADD PUSH1 0x0 SWAP1 SLOAD SWAP1 PUSH2 0x100 EXP SWAP1 DIV PUSH1 0xFF AND SWAP1 POP DUP5 JUMP JUMPDEST PUSH1 0x0 DUP1 SLOAD SWAP1 PUSH2 0x100 EXP SWAP1 DIV PUSH20 0xFFFFFFFFFFFFFFFFFFFFFFFFFFFFFFFFFFFFFFFF AND PUSH20 0xFFFFFFFFFFFFFFFFFFFFFFFFFFFFFFFFFFFFFFFF AND CALLER PUSH20 0xFFFFFFFFFFFFFFFFFFFFFFFFFFFFFFFFFFFFFFFF AND EQ PUSH2 0x296E JUMPI PUSH1 0x40 MLOAD PUSH32 0x8C379A000000000000000000000000000000000000000000000000000000000 DUP2 MSTORE PUSH1 0x4 ADD PUSH2 0x2965 SWAP1 PUSH2 0x4608 JUMP JUMPDEST PUSH1 0x40 MLOAD DUP1 SWAP2 SUB SWAP1 REVERT JUMPDEST PUSH1 0xD PUSH1 0x5 SWAP1 SLOAD SWAP1 PUSH2 0x100 EXP SWAP1 DIV PUSH1 0xFF AND PUSH2 0x29BD JUMPI PUSH1 0x40 MLOAD PUSH32 0x8C379A000000000000000000000000000000000000000000000000000000000 DUP2 MSTORE PUSH1 0x4 ADD PUSH2 0x29B4 SWAP1 PUSH2 0x35D1 JUMP JUMPDEST PUSH1 0x40 MLOAD DUP1 SWAP2 SUB SWAP1 REVERT JUMPDEST PUSH1 0x0 PUSH1 0xB SLOAD PUSH1 0x9 SLOAD LT PUSH2 0x29D2 JUMPI PUSH1 0xB SLOAD PUSH2 0x29D6 JUMP JUMPDEST PUSH1 0x9 SLOAD JUMPDEST SWAP1 POP DUP1 PUSH1 0xF PUSH1 0x0 DUP1 PUSH1 0x0 SWAP1 SLOAD SWAP1 PUSH2 0x100 EXP SWAP1 DIV PUSH20 0xFFFFFFFFFFFFFFFFFFFFFFFFFFFFFFFFFFFFFFFF AND PUSH20 0xFFFFFFFFFFFFFFFFFFFFFFFFFFFFFFFFFFFFFFFF AND PUSH20 0xFFFFFFFFFFFFFFFFFFFFFFFFFFFFFFFFFFFFFFFF AND DUP2 MSTORE PUSH1 0x20 ADD SWAP1 DUP2 MSTORE PUSH1 0x20 ADD PUSH1 0x0 KECCAK256 PUSH1 0x0 DUP3 DUP3 SLOAD PUSH2 0x2A48 SWAP2 SWAP1 PUSH2 0x3C8D JUMP JUMPDEST SWAP3 POP POP DUP2 SWAP1 SSTORE POP DUP1 PUSH1 0xB SLOAD PUSH2 0x2A5D SWAP2 SWAP1 PUSH2 0x36F4 JUMP JUMPDEST PUSH1 0xF PUSH1 0x0 PUSH1 0x1 PUSH1 0x0 SWAP1 SLOAD SWAP1 PUSH2 0x100 EXP SWAP1 DIV PUSH20 0xFFFFFFFFFFFFFFFFFFFFFFFFFFFFFFFFFFFFFFFF AND PUSH20 0xFFFFFFFFFFFFFFFFFFFFFFFFFFFFFFFFFFFFFFFF AND PUSH20 0xFFFFFFFFFFFFFFFFFFFFFFFFFFFFFFFFFFFFFFFF AND DUP2 MSTORE PUSH1 0x20 ADD SWAP1 DUP2 MSTORE PUSH1 0x20 ADD PUSH1 0x0 KECCAK256 PUSH1 0x0 DUP3 DUP3 SLOAD PUSH2 0x2ACD SWAP2 SWAP1 PUSH2 0x3C8D JUMP JUMPDEST SWAP3 POP POP DUP2 SWAP1 SSTORE POP PUSH1 0x0 DUP1 SLOAD SWAP1 PUSH2 0x100 EXP SWAP1 DIV PUSH20 0xFFFFFFFFFFFFFFFFFFFFFFFFFFFFFFFFFFFFFFFF AND PUSH20 0xFFFFFFFFFFFFFFFFFFFFFFFFFFFFFFFFFFFFFFFF AND PUSH32 0xE670E4E82118D22A1F9EE18920455EBC958BAE26A90A05D31D3378788B1B0E44 DUP3 PUSH1 0x40 MLOAD PUSH2 0x2B3A SWAP2 SWAP1 PUSH2 0x3066 JUMP JUMPDEST PUSH1 0x40 MLOAD DUP1 SWAP2 SUB SWAP1 LOG2 PUSH1 0x1 PUSH1 0x0 SWAP1 SLOAD SWAP1 PUSH2 0x100 EXP SWAP1 DIV PUSH20 0xFFFFFFFFFFFFFFFFFFFFFFFFFFFFFFFFFFFFFFFF AND PUSH20 0xFFFFFFFFFFFFFFFFFFFFFFFFFFFFFFFFFFFFFFFF AND PUSH32 0xE670E4E82118D22A1F9EE18920455EBC958BAE26A90A05D31D3378788B1B0E44 DUP3 PUSH1 0xB SLOAD PUSH2 0x2BAA SWAP2 SWAP1 PUSH2 0x36F4 JUMP JUMPDEST PUSH1 0x40 MLOAD PUSH2 0x2BB7 SWAP2 SWAP1 PUSH2 0x3066 JUMP JUMPDEST PUSH1 0x40 MLOAD DUP1 SWAP2 SUB SWAP1 LOG2 PUSH2 0x2BC7 PUSH2 0x2C5D JUMP JUMPDEST POP JUMP JUMPDEST PUSH1 0xD PUSH1 0x1 SWAP1 SLOAD SWAP1 PUSH2 0x100 EXP SWAP1 DIV PUSH1 0xFF AND DUP2 JUMP JUMPDEST PUSH1 0xF PUSH1 0x20 MSTORE DUP1 PUSH1 0x0 MSTORE PUSH1 0x40 PUSH1 0x0 KECCAK256 PUSH1 0x0 SWAP2 POP SWAP1 POP SLOAD DUP2 JUMP JUMPDEST PUSH1 0x0 PUSH1 0xF PUSH1 0x0 DUP1 PUSH1 0x0 SWAP1 SLOAD SWAP1 PUSH2 0x100 EXP SWAP1 DIV PUSH20 0xFFFFFFFFFFFFFFFFFFFFFFFFFFFFFFFFFFFFFFFF AND PUSH20 0xFFFFFFFFFFFFFFFFFFFFFFFFFFFFFFFFFFFFFFFF AND PUSH20 0xFFFFFFFFFFFFFFFFFFFFFFFFFFFFFFFFFFFFFFFF AND DUP2 MSTORE PUSH1 0x20 ADD SWAP1 DUP2 MSTORE PUSH1 0x20 ADD PUSH1 0x0 KECCAK256 SLOAD SWAP1 POP SWAP1 JUMP JUMPDEST PUSH1 0xD PUSH1 0x0 SWAP1 SLOAD SWAP1 PUSH2 0x100 EXP SWAP1 DIV PUSH1 0xFF AND PUSH2 0x2CAC JUMPI PUSH1 0x40 MLOAD PUSH32 0x8C379A000000000000000000000000000000000000000000000000000000000 DUP2 MSTORE PUSH1 0x4 ADD PUSH2 0x2CA3 SWAP1 PUSH2 0x34AD JUMP JUMPDEST PUSH1 0x40 MLOAD DUP1 SWAP2 SUB SWAP1 REVERT JUMPDEST PUSH1 0xD PUSH1 0x3 SWAP1 SLOAD SWAP1 PUSH2 0x100 EXP SWAP1 DIV PUSH1 0xFF AND PUSH2 0x2CFB JUMPI PUSH1 0x40 MLOAD PUSH32 0x8C379A000000000000000000000000000000000000000000000000000000000 DUP2 MSTORE PUSH1 0x4 ADD PUSH2 0x2CF2 SWAP1 PUSH2 0x4674 JUMP JUMPDEST PUSH1 0x40 MLOAD DUP1 SWAP2 SUB SWAP1 REVERT JUMPDEST PUSH1 0xD PUSH1 0x2 SWAP1 SLOAD SWAP1 PUSH2 0x100 EXP SWAP1 DIV PUSH1 0xFF AND ISZERO PUSH2 0x2D4B JUMPI PUSH1 0x40 MLOAD PUSH32 0x8C379A000000000000000000000000000000000000000000000000000000000 DUP2 MSTORE PUSH1 0x4 ADD PUSH2 0x2D42 SWAP1 PUSH2 0x4706 JUMP JUMPDEST PUSH1 0x40 MLOAD DUP1 SWAP2 SUB SWAP1 REVERT JUMPDEST PUSH1 0x0 PUSH1 0xD PUSH1 0x0 PUSH2 0x100 EXP DUP2 SLOAD DUP2 PUSH1 0xFF MUL NOT AND SWAP1 DUP4 ISZERO ISZERO MUL OR SWAP1 SSTORE POP PUSH1 0x0 PUSH1 0x7 SLOAD SWAP1 POP PUSH1 0x0 DUP1 DUP3 GT ISZERO PUSH2 0x2E13 JUMPI PUSH1 0xB SLOAD DUP3 GT ISZERO PUSH2 0x2D87 JUMPI PUSH1 0xB SLOAD SWAP2 POP JUMPDEST DUP2 PUSH1 0xF PUSH1 0x0 DUP1 PUSH1 0x0 SWAP1 SLOAD SWAP1 PUSH2 0x100 EXP SWAP1 DIV PUSH20 0xFFFFFFFFFFFFFFFFFFFFFFFFFFFFFFFFFFFFFFFF AND PUSH20 0xFFFFFFFFFFFFFFFFFFFFFFFFFFFFFFFFFFFFFFFF AND PUSH20 0xFFFFFFFFFFFFFFFFFFFFFFFFFFFFFFFFFFFFFFFF AND DUP2 MSTORE PUSH1 0x20 ADD SWAP1 DUP2 MSTORE PUSH1 0x20 ADD PUSH1 0x0 KECCAK256 PUSH1 0x0 DUP3 DUP3 SLOAD PUSH2 0x2DF7 SWAP2 SWAP1 PUSH2 0x3C8D JUMP JUMPDEST SWAP3 POP POP DUP2 SWAP1 SSTORE POP DUP2 PUSH1 0xB SLOAD PUSH2 0x2E0C SWAP2 SWAP1 PUSH2 0x36F4 JUMP JUMPDEST SWAP1 POP PUSH2 0x2E19 JUMP JUMPDEST PUSH1 0xB SLOAD SWAP1 POP JUMPDEST PUSH1 0x0 DUP2 GT ISZERO PUSH2 0x2E9B JUMPI DUP1 PUSH1 0xF PUSH1 0x0 PUSH1 0x1 PUSH1 0x0 SWAP1 SLOAD SWAP1 PUSH2 0x100 EXP SWAP1 DIV PUSH20 0xFFFFFFFFFFFFFFFFFFFFFFFFFFFFFFFFFFFFFFFF AND PUSH20 0xFFFFFFFFFFFFFFFFFFFFFFFFFFFFFFFFFFFFFFFF AND PUSH20 0xFFFFFFFFFFFFFFFFFFFFFFFFFFFFFFFFFFFFFFFF AND DUP2 MSTORE PUSH1 0x20 ADD SWAP1 DUP2 MSTORE PUSH1 0x20 ADD PUSH1 0x0 KECCAK256 PUSH1 0x0 DUP3 DUP3 SLOAD PUSH2 0x2E93 SWAP2 SWAP1 PUSH2 0x3C8D JUMP JUMPDEST SWAP3 POP POP DUP2 SWAP1 SSTORE POP JUMPDEST PUSH32 0xC0590C5A8CE79DFFBDDE17480A06203778F954965615E1D9577DBC90DA2FF109 DUP2 DUP4 PUSH1 0x40 MLOAD PUSH2 0x2ECC SWAP3 SWAP2 SWAP1 PUSH2 0x3728 JUMP JUMPDEST PUSH1 0x40 MLOAD DUP1 SWAP2 SUB SWAP1 LOG1 PUSH1 0x0 DUP1 SLOAD SWAP1 PUSH2 0x100 EXP SWAP1 DIV PUSH20 0xFFFFFFFFFFFFFFFFFFFFFFFFFFFFFFFFFFFFFFFF AND PUSH20 0xFFFFFFFFFFFFFFFFFFFFFFFFFFFFFFFFFFFFFFFF AND PUSH32 0xE670E4E82118D22A1F9EE18920455EBC958BAE26A90A05D31D3378788B1B0E44 DUP4 PUSH1 0x40 MLOAD PUSH2 0x2F3A SWAP2 SWAP1 PUSH2 0x3066 JUMP JUMPDEST PUSH1 0x40 MLOAD DUP1 SWAP2 SUB SWAP1 LOG2 PUSH1 0x1 PUSH1 0x0 SWAP1 SLOAD SWAP1 PUSH2 0x100 EXP SWAP1 DIV PUSH20 0xFFFFFFFFFFFFFFFFFFFFFFFFFFFFFFFFFFFFFFFF AND PUSH20 0xFFFFFFFFFFFFFFFFFFFFFFFFFFFFFFFFFFFFFFFF AND PUSH32 0xE670E4E82118D22A1F9EE18920455EBC958BAE26A90A05D31D3378788B1B0E44 DUP3 PUSH1 0x40 MLOAD PUSH2 0x2FAA SWAP2 SWAP1 PUSH2 0x3066 JUMP JUMPDEST PUSH1 0x40 MLOAD DUP1 SWAP2 SUB SWAP1 LOG2 PUSH1 0x0 PUSH1 0xB DUP2 SWAP1 SSTORE POP PUSH1 0x0 PUSH1 0x7 DUP2 SWAP1 SSTORE POP PUSH1 0x0 PUSH1 0xD PUSH1 0x3 PUSH2 0x100 EXP DUP2 SLOAD DUP2 PUSH1 0xFF MUL NOT AND SWAP1 DUP4 ISZERO ISZERO MUL OR SWAP1 SSTORE POP PUSH1 0x0 PUSH1 0xD PUSH1 0x4 PUSH2 0x100 EXP DUP2 SLOAD DUP2 PUSH1 0xFF MUL NOT AND SWAP1 DUP4 ISZERO ISZERO MUL OR SWAP1 SSTORE POP PUSH1 0x0 PUSH1 0xD PUSH1 0x5 PUSH2 0x100 EXP DUP2 SLOAD DUP2 PUSH1 0xFF MUL NOT AND SWAP1 DUP4 ISZERO ISZERO MUL OR SWAP1 SSTORE POP POP POP JUMP JUMPDEST PUSH1 0x0 DUP2 ISZERO ISZERO SWAP1 POP SWAP2 SWAP1 POP JUMP JUMPDEST PUSH2 0x302C DUP2 PUSH2 0x3017 JUMP JUMPDEST DUP3 MSTORE POP POP JUMP JUMPDEST PUSH1 0x0 PUSH1 0x20 DUP3 ADD SWAP1 POP PUSH2 0x3047 PUSH1 0x0 DUP4 ADD DUP5 PUSH2 0x3023 JUMP JUMPDEST SWAP3 SWAP2 POP POP JUMP JUMPDEST PUSH1 0x0 DUP2 SWAP1 POP SWAP2 SWAP1 POP JUMP JUMPDEST PUSH2 0x3060 DUP2 PUSH2 0x304D JUMP JUMPDEST DUP3 MSTORE POP POP JUMP JUMPDEST PUSH1 0x0 PUSH1 0x20 DUP3 ADD SWAP1 POP PUSH2 0x307B PUSH1 0x0 DUP4 ADD DUP5 PUSH2 0x3057 JUMP JUMPDEST SWAP3 SWAP2 POP POP JUMP JUMPDEST PUSH1 0x0 DUP1 REVERT JUMPDEST PUSH2 0x308F DUP2 PUSH2 0x304D JUMP JUMPDEST DUP2 EQ PUSH2 0x309A JUMPI PUSH1 0x0 DUP1 REVERT JUMPDEST POP JUMP JUMPDEST PUSH1 0x0 DUP2 CALLDATALOAD SWAP1 POP PUSH2 0x30AC DUP2 PUSH2 0x3086 JUMP JUMPDEST SWAP3 SWAP2 POP POP JUMP JUMPDEST PUSH1 0x0 PUSH1 0x20 DUP3 DUP5 SUB SLT ISZERO PUSH2 0x30C8 JUMPI PUSH2 0x30C7 PUSH2 0x3081 JUMP JUMPDEST JUMPDEST PUSH1 0x0 PUSH2 0x30D6 DUP5 DUP3 DUP6 ADD PUSH2 0x309D JUMP JUMPDEST SWAP2 POP POP SWAP3 SWAP2 POP POP JUMP JUMPDEST PUSH1 0x0 PUSH20 0xFFFFFFFFFFFFFFFFFFFFFFFFFFFFFFFFFFFFFFFF DUP3 AND SWAP1 POP SWAP2 SWAP1 POP JUMP JUMPDEST PUSH1 0x0 PUSH2 0x310A DUP3 PUSH2 0x30DF JUMP JUMPDEST SWAP1 POP SWAP2 SWAP1 POP JUMP JUMPDEST PUSH2 0x311A DUP2 PUSH2 0x30FF JUMP JUMPDEST DUP3 MSTORE POP POP JUMP JUMPDEST PUSH1 0x0 PUSH1 0x20 DUP3 ADD SWAP1 POP PUSH2 0x3135 PUSH1 0x0 DUP4 ADD DUP5 PUSH2 0x3111 JUMP JUMPDEST SWAP3 SWAP2 POP POP JUMP JUMPDEST PUSH1 0x0 DUP2 SWAP1 POP SWAP2 SWAP1 POP JUMP JUMPDEST PUSH1 0x0 PUSH2 0x3160 PUSH2 0x315B PUSH2 0x3156 DUP5 PUSH2 0x30DF JUMP JUMPDEST PUSH2 0x313B JUMP JUMPDEST PUSH2 0x30DF JUMP JUMPDEST SWAP1 POP SWAP2 SWAP1 POP JUMP JUMPDEST PUSH1 0x0 PUSH2 0x3172 DUP3 PUSH2 0x3145 JUMP JUMPDEST SWAP1 POP SWAP2 SWAP1 POP JUMP JUMPDEST PUSH1 0x0 PUSH2 0x3184 DUP3 PUSH2 0x3167 JUMP JUMPDEST SWAP1 POP SWAP2 SWAP1 POP JUMP JUMPDEST PUSH2 0x3194 DUP2 PUSH2 0x3179 JUMP JUMPDEST DUP3 MSTORE POP POP JUMP JUMPDEST PUSH1 0x0 PUSH1 0x20 DUP3 ADD SWAP1 POP PUSH2 0x31AF PUSH1 0x0 DUP4 ADD DUP5 PUSH2 0x318B JUMP JUMPDEST SWAP3 SWAP2 POP POP JUMP JUMPDEST PUSH1 0x0 DUP1 PUSH1 0x0 PUSH1 0x60 DUP5 DUP7 SUB SLT ISZERO PUSH2 0x31CE JUMPI PUSH2 0x31CD PUSH2 0x3081 JUMP JUMPDEST JUMPDEST PUSH1 0x0 PUSH2 0x31DC DUP7 DUP3 DUP8 ADD PUSH2 0x309D JUMP JUMPDEST SWAP4 POP POP PUSH1 0x20 PUSH2 0x31ED DUP7 DUP3 DUP8 ADD PUSH2 0x309D JUMP JUMPDEST SWAP3 POP POP PUSH1 0x40 PUSH2 0x31FE DUP7 DUP3 DUP8 ADD PUSH2 0x309D JUMP JUMPDEST SWAP2 POP POP SWAP3 POP SWAP3 POP SWAP3 JUMP JUMPDEST PUSH1 0x0 DUP1 PUSH1 0x40 DUP4 DUP6 SUB SLT ISZERO PUSH2 0x321F JUMPI PUSH2 0x321E PUSH2 0x3081 JUMP JUMPDEST JUMPDEST PUSH1 0x0 PUSH2 0x322D DUP6 DUP3 DUP7 ADD PUSH2 0x309D JUMP JUMPDEST SWAP3 POP POP PUSH1 0x20 PUSH2 0x323E DUP6 DUP3 DUP7 ADD PUSH2 0x309D JUMP JUMPDEST SWAP2 POP POP SWAP3 POP SWAP3 SWAP1 POP JUMP JUMPDEST PUSH1 0x0 PUSH1 0x80 DUP3 ADD SWAP1 POP PUSH2 0x325D PUSH1 0x0 DUP4 ADD DUP8 PUSH2 0x3057 JUMP JUMPDEST PUSH2 0x326A PUSH1 0x20 DUP4 ADD DUP7 PUSH2 0x3057 JUMP JUMPDEST PUSH2 0x3277 PUSH1 0x40 DUP4 ADD DUP6 PUSH2 0x3057 JUMP JUMPDEST PUSH2 0x3284 PUSH1 0x60 DUP4 ADD DUP5 PUSH2 0x3023 JUMP JUMPDEST SWAP6 SWAP5 POP POP POP POP POP JUMP JUMPDEST PUSH2 0x3296 DUP2 PUSH2 0x30FF JUMP JUMPDEST DUP2 EQ PUSH2 0x32A1 JUMPI PUSH1 0x0 DUP1 REVERT JUMPDEST POP JUMP JUMPDEST PUSH1 0x0 DUP2 CALLDATALOAD SWAP1 POP PUSH2 0x32B3 DUP2 PUSH2 0x328D JUMP JUMPDEST SWAP3 SWAP2 POP POP JUMP JUMPDEST PUSH1 0x0 PUSH1 0x20 DUP3 DUP5 SUB SLT ISZERO PUSH2 0x32CF JUMPI PUSH2 0x32CE PUSH2 0x3081 JUMP JUMPDEST JUMPDEST PUSH1 0x0 PUSH2 0x32DD DUP5 DUP3 DUP6 ADD PUSH2 0x32A4 JUMP JUMPDEST SWAP2 POP POP SWAP3 SWAP2 POP POP JUMP JUMPDEST PUSH1 0x0 DUP3 DUP3 MSTORE PUSH1 0x20 DUP3 ADD SWAP1 POP SWAP3 SWAP2 POP POP JUMP JUMPDEST PUSH32 0x4F6E6C79206C616E646C6F72642063616E20736574207468652064616D616765 PUSH1 0x0 DUP3 ADD MSTORE PUSH32 0x20657374696D6174650000000000000000000000000000000000000000000000 PUSH1 0x20 DUP3 ADD MSTORE POP JUMP JUMPDEST PUSH1 0x0 PUSH2 0x3353 PUSH1 0x29 DUP4 PUSH2 0x32E6 JUMP JUMPDEST SWAP2 POP PUSH2 0x335E DUP3 PUSH2 0x32F7 JUMP JUMPDEST PUSH1 0x40 DUP3 ADD SWAP1 POP SWAP2 SWAP1 POP JUMP JUMPDEST PUSH1 0x0 PUSH1 0x20 DUP3 ADD SWAP1 POP DUP2 DUP2 SUB PUSH1 0x0 DUP4 ADD MSTORE PUSH2 0x3382 DUP2 PUSH2 0x3346 JUMP JUMPDEST SWAP1 POP SWAP2 SWAP1 POP JUMP JUMPDEST PUSH32 0x52656E7420706572696F6420686173206E6F7420656E64656420796574000000 PUSH1 0x0 DUP3 ADD MSTORE POP JUMP JUMPDEST PUSH1 0x0 PUSH2 0x33BF PUSH1 0x1D DUP4 PUSH2 0x32E6 JUMP JUMPDEST SWAP2 POP PUSH2 0x33CA DUP3 PUSH2 0x3389 JUMP JUMPDEST PUSH1 0x20 DUP3 ADD SWAP1 POP SWAP2 SWAP1 POP JUMP JUMPDEST PUSH1 0x0 PUSH1 0x20 DUP3 ADD SWAP1 POP DUP2 DUP2 SUB PUSH1 0x0 DUP4 ADD MSTORE PUSH2 0x33EE DUP2 PUSH2 0x33B2 JUMP JUMPDEST SWAP1 POP SWAP2 SWAP1 POP JUMP JUMPDEST PUSH32 0x44616D61676520657374696D61746520616C7265616479207365740000000000 PUSH1 0x0 DUP3 ADD MSTORE POP JUMP JUMPDEST PUSH1 0x0 PUSH2 0x342B PUSH1 0x1B DUP4 PUSH2 0x32E6 JUMP JUMPDEST SWAP2 POP PUSH2 0x3436 DUP3 PUSH2 0x33F5 JUMP JUMPDEST PUSH1 0x20 DUP3 ADD SWAP1 POP SWAP2 SWAP1 POP JUMP JUMPDEST PUSH1 0x0 PUSH1 0x20 DUP3 ADD SWAP1 POP DUP2 DUP2 SUB PUSH1 0x0 DUP4 ADD MSTORE PUSH2 0x345A DUP2 PUSH2 0x341E JUMP JUMPDEST SWAP1 POP SWAP2 SWAP1 POP JUMP JUMPDEST PUSH32 0x436F6E7472616374206973206E6F742061637469766500000000000000000000 PUSH1 0x0 DUP3 ADD MSTORE POP JUMP JUMPDEST PUSH1 0x0 PUSH2 0x3497 PUSH1 0x16 DUP4 PUSH2 0x32E6 JUMP JUMPDEST SWAP2 POP PUSH2 0x34A2 DUP3 PUSH2 0x3461 JUMP JUMPDEST PUSH1 0x20 DUP3 ADD SWAP1 POP SWAP2 SWAP1 POP JUMP JUMPDEST PUSH1 0x0 PUSH1 0x20 DUP3 ADD SWAP1 POP DUP2 DUP2 SUB PUSH1 0x0 DUP4 ADD MSTORE PUSH2 0x34C6 DUP2 PUSH2 0x348A JUMP JUMPDEST SWAP1 POP SWAP2 SWAP1 POP JUMP JUMPDEST PUSH32 0x4F6E6C79206C616E646C6F72642063616E2072656A6563742074686520636F75 PUSH1 0x0 DUP3 ADD MSTORE PUSH32 0x6E74657220657374696D61746500000000000000000000000000000000000000 PUSH1 0x20 DUP3 ADD MSTORE POP JUMP JUMPDEST PUSH1 0x0 PUSH2 0x3529 PUSH1 0x2D DUP4 PUSH2 0x32E6 JUMP JUMPDEST SWAP2 POP PUSH2 0x3534 DUP3 PUSH2 0x34CD JUMP JUMPDEST PUSH1 0x40 DUP3 ADD SWAP1 POP SWAP2 SWAP1 POP JUMP JUMPDEST PUSH1 0x0 PUSH1 0x20 DUP3 ADD SWAP1 POP DUP2 DUP2 SUB PUSH1 0x0 DUP4 ADD MSTORE PUSH2 0x3558 DUP2 PUSH2 0x351C JUMP JUMPDEST SWAP1 POP SWAP2 SWAP1 POP JUMP JUMPDEST PUSH32 0x52656E746572206D7573742073657420636F756E74657220657374696D617465 PUSH1 0x0 DUP3 ADD MSTORE PUSH32 0x2066697273740000000000000000000000000000000000000000000000000000 PUSH1 0x20 DUP3 ADD MSTORE POP JUMP JUMPDEST PUSH1 0x0 PUSH2 0x35BB PUSH1 0x26 DUP4 PUSH2 0x32E6 JUMP JUMPDEST SWAP2 POP PUSH2 0x35C6 DUP3 PUSH2 0x355F JUMP JUMPDEST PUSH1 0x40 DUP3 ADD SWAP1 POP SWAP2 SWAP1 POP JUMP JUMPDEST PUSH1 0x0 PUSH1 0x20 DUP3 ADD SWAP1 POP DUP2 DUP2 SUB PUSH1 0x0 DUP4 ADD MSTORE PUSH2 0x35EA DUP2 PUSH2 0x35AE JUMP JUMPDEST SWAP1 POP SWAP2 SWAP1 POP JUMP JUMPDEST PUSH1 0x0 DUP2 MLOAD SWAP1 POP PUSH2 0x3600 DUP2 PUSH2 0x3086 JUMP JUMPDEST SWAP3 SWAP2 POP POP JUMP JUMPDEST PUSH1 0x0 PUSH1 0x20 DUP3 DUP5 SUB SLT ISZERO PUSH2 0x361C JUMPI PUSH2 0x361B PUSH2 0x3081 JUMP JUMPDEST JUMPDEST PUSH1 0x0 PUSH2 0x362A DUP5 DUP3 DUP6 ADD PUSH2 0x35F1 JUMP JUMPDEST SWAP2 POP POP SWAP3 SWAP2 POP POP JUMP JUMPDEST PUSH32 0x5365637572697479206465706F73697420696E73756666696369656E7420746F PUSH1 0x0 DUP3 ADD MSTORE PUSH32 0x20636F766572206172626974726174696F6E20636F7374730000000000000000 PUSH1 0x20 DUP3 ADD MSTORE POP JUMP JUMPDEST PUSH1 0x0 PUSH2 0x368F PUSH1 0x38 DUP4 PUSH2 0x32E6 JUMP JUMPDEST SWAP2 POP PUSH2 0x369A DUP3 PUSH2 0x3633 JUMP JUMPDEST PUSH1 0x40 DUP3 ADD SWAP1 POP SWAP2 SWAP1 POP JUMP JUMPDEST PUSH1 0x0 PUSH1 0x20 DUP3 ADD SWAP1 POP DUP2 DUP2 SUB PUSH1 0x0 DUP4 ADD MSTORE PUSH2 0x36BE DUP2 PUSH2 0x3682 JUMP JUMPDEST SWAP1 POP SWAP2 SWAP1 POP JUMP JUMPDEST PUSH32 0x4E487B7100000000000000000000000000000000000000000000000000000000 PUSH1 0x0 MSTORE PUSH1 0x11 PUSH1 0x4 MSTORE PUSH1 0x24 PUSH1 0x0 REVERT JUMPDEST PUSH1 0x0 PUSH2 0x36FF DUP3 PUSH2 0x304D JUMP JUMPDEST SWAP2 POP PUSH2 0x370A DUP4 PUSH2 0x304D JUMP JUMPDEST SWAP3 POP DUP3 DUP3 SUB SWAP1 POP DUP2 DUP2 GT ISZERO PUSH2 0x3722 JUMPI PUSH2 0x3721 PUSH2 0x36C5 JUMP JUMPDEST JUMPDEST SWAP3 SWAP2 POP POP JUMP JUMPDEST PUSH1 0x0 PUSH1 0x40 DUP3 ADD SWAP1 POP PUSH2 0x373D PUSH1 0x0 DUP4 ADD DUP6 PUSH2 0x3057 JUMP JUMPDEST PUSH2 0x374A PUSH1 0x20 DUP4 ADD DUP5 PUSH2 0x3057 JUMP JUMPDEST SWAP4 SWAP3 POP POP POP JUMP JUMPDEST PUSH32 0x4E6F2066756E647320746F207769746864726177000000000000000000000000 PUSH1 0x0 DUP3 ADD MSTORE POP JUMP JUMPDEST PUSH1 0x0 PUSH2 0x3787 PUSH1 0x14 DUP4 PUSH2 0x32E6 JUMP JUMPDEST SWAP2 POP PUSH2 0x3792 DUP3 PUSH2 0x3751 JUMP JUMPDEST PUSH1 0x20 DUP3 ADD SWAP1 POP SWAP2 SWAP1 POP JUMP JUMPDEST PUSH1 0x0 PUSH1 0x20 DUP3 ADD SWAP1 POP DUP2 DUP2 SUB PUSH1 0x0 DUP4 ADD MSTORE PUSH2 0x37B6 DUP2 PUSH2 0x377A JUMP JUMPDEST SWAP1 POP SWAP2 SWAP1 POP JUMP JUMPDEST PUSH1 0x0 DUP2 SWAP1 POP SWAP3 SWAP2 POP POP JUMP JUMPDEST POP JUMP JUMPDEST PUSH1 0x0 PUSH2 0x37D8 PUSH1 0x0 DUP4 PUSH2 0x37BD JUMP JUMPDEST SWAP2 POP PUSH2 0x37E3 DUP3 PUSH2 0x37C8 JUMP JUMPDEST PUSH1 0x0 DUP3 ADD SWAP1 POP SWAP2 SWAP1 POP JUMP JUMPDEST PUSH1 0x0 PUSH2 0x37F9 DUP3 PUSH2 0x37CB JUMP JUMPDEST SWAP2 POP DUP2 SWAP1 POP SWAP2 SWAP1 POP JUMP JUMPDEST PUSH32 0x5472616E73666572206661696C65640000000000000000000000000000000000 PUSH1 0x0 DUP3 ADD MSTORE POP JUMP JUMPDEST PUSH1 0x0 PUSH2 0x3839 PUSH1 0xF DUP4 PUSH2 0x32E6 JUMP JUMPDEST SWAP2 POP PUSH2 0x3844 DUP3 PUSH2 0x3803 JUMP JUMPDEST PUSH1 0x20 DUP3 ADD SWAP1 POP SWAP2 SWAP1 POP JUMP JUMPDEST PUSH1 0x0 PUSH1 0x20 DUP3 ADD SWAP1 POP DUP2 DUP2 SUB PUSH1 0x0 DUP4 ADD MSTORE PUSH2 0x3868 DUP2 PUSH2 0x382C JUMP JUMPDEST SWAP1 POP SWAP2 SWAP1 POP JUMP JUMPDEST PUSH32 0x4F6E6C792072656E7465722063616E2070617920736563757269747920646570 PUSH1 0x0 DUP3 ADD MSTORE PUSH32 0x6F73697400000000000000000000000000000000000000000000000000000000 PUSH1 0x20 DUP3 ADD MSTORE POP JUMP JUMPDEST PUSH1 0x0 PUSH2 0x38CB PUSH1 0x24 DUP4 PUSH2 0x32E6 JUMP JUMPDEST SWAP2 POP PUSH2 0x38D6 DUP3 PUSH2 0x386F JUMP JUMPDEST PUSH1 0x40 DUP3 ADD SWAP1 POP SWAP2 SWAP1 POP JUMP JUMPDEST PUSH1 0x0 PUSH1 0x20 DUP3 ADD SWAP1 POP DUP2 DUP2 SUB PUSH1 0x0 DUP4 ADD MSTORE PUSH2 0x38FA DUP2 PUSH2 0x38BE JUMP JUMPDEST SWAP1 POP SWAP2 SWAP1 POP JUMP JUMPDEST PUSH32 0x436F6E747261637420697320616C726561647920616374697665000000000000 PUSH1 0x0 DUP3 ADD MSTORE POP JUMP JUMPDEST PUSH1 0x0 PUSH2 0x3937 PUSH1 0x1A DUP4 PUSH2 0x32E6 JUMP JUMPDEST SWAP2 POP PUSH2 0x3942 DUP3 PUSH2 0x3901 JUMP JUMPDEST PUSH1 0x20 DUP3 ADD SWAP1 POP SWAP2 SWAP1 POP JUMP JUMPDEST PUSH1 0x0 PUSH1 0x20 DUP3 ADD SWAP1 POP DUP2 DUP2 SUB PUSH1 0x0 DUP4 ADD MSTORE PUSH2 0x3966 DUP2 PUSH2 0x392A JUMP JUMPDEST SWAP1 POP SWAP2 SWAP1 POP JUMP JUMPDEST PUSH32 0x496E636F7272656374207365637572697479206465706F73697420616D6F756E PUSH1 0x0 DUP3 ADD MSTORE PUSH32 0x7400000000000000000000000000000000000000000000000000000000000000 PUSH1 0x20 DUP3 ADD MSTORE POP JUMP JUMPDEST PUSH1 0x0 PUSH2 0x39C9 PUSH1 0x21 DUP4 PUSH2 0x32E6 JUMP JUMPDEST SWAP2 POP PUSH2 0x39D4 DUP3 PUSH2 0x396D JUMP JUMPDEST PUSH1 0x40 DUP3 ADD SWAP1 POP SWAP2 SWAP1 POP JUMP JUMPDEST PUSH1 0x0 PUSH1 0x20 DUP3 ADD SWAP1 POP DUP2 DUP2 SUB PUSH1 0x0 DUP4 ADD MSTORE PUSH2 0x39F8 DUP2 PUSH2 0x39BC JUMP JUMPDEST SWAP1 POP SWAP2 SWAP1 POP JUMP JUMPDEST PUSH32 0x4F6E6C79206C616E646C6F72642063616E207265636F7264207574696C697469 PUSH1 0x0 DUP3 ADD MSTORE PUSH32 0x6573000000000000000000000000000000000000000000000000000000000000 PUSH1 0x20 DUP3 ADD MSTORE POP JUMP JUMPDEST PUSH1 0x0 PUSH2 0x3A5B PUSH1 0x22 DUP4 PUSH2 0x32E6 JUMP JUMPDEST SWAP2 POP PUSH2 0x3A66 DUP3 PUSH2 0x39FF JUMP JUMPDEST PUSH1 0x40 DUP3 ADD SWAP1 POP SWAP2 SWAP1 POP JUMP JUMPDEST PUSH1 0x0 PUSH1 0x20 DUP3 ADD SWAP1 POP DUP2 DUP2 SUB PUSH1 0x0 DUP4 ADD MSTORE PUSH2 0x3A8A DUP2 PUSH2 0x3A4E JUMP JUMPDEST SWAP1 POP SWAP2 SWAP1 POP JUMP JUMPDEST PUSH32 0x52656E7420706572696F642068617320656E6465640000000000000000000000 PUSH1 0x0 DUP3 ADD MSTORE POP JUMP JUMPDEST PUSH1 0x0 PUSH2 0x3AC7 PUSH1 0x15 DUP4 PUSH2 0x32E6 JUMP JUMPDEST SWAP2 POP PUSH2 0x3AD2 DUP3 PUSH2 0x3A91 JUMP JUMPDEST PUSH1 0x20 DUP3 ADD SWAP1 POP SWAP2 SWAP1 POP JUMP JUMPDEST PUSH1 0x0 PUSH1 0x20 DUP3 ADD SWAP1 POP DUP2 DUP2 SUB PUSH1 0x0 DUP4 ADD MSTORE PUSH2 0x3AF6 DUP2 PUSH2 0x3ABA JUMP JUMPDEST SWAP1 POP SWAP2 SWAP1 POP JUMP JUMPDEST PUSH32 0x4F6E6C792072656E7465722063616E207061792072656E740000000000000000 PUSH1 0x0 DUP3 ADD MSTORE POP JUMP JUMPDEST PUSH1 0x0 PUSH2 0x3B33 PUSH1 0x18 DUP4 PUSH2 0x32E6 JUMP JUMPDEST SWAP2 POP PUSH2 0x3B3E DUP3 PUSH2 0x3AFD JUMP JUMPDEST PUSH1 0x20 DUP3 ADD SWAP1 POP SWAP2 SWAP1 POP JUMP JUMPDEST PUSH1 0x0 PUSH1 0x20 DUP3 ADD SWAP1 POP DUP2 DUP2 SUB PUSH1 0x0 DUP4 ADD MSTORE PUSH2 0x3B62 DUP2 PUSH2 0x3B26 JUMP JUMPDEST SWAP1 POP SWAP2 SWAP1 POP JUMP JUMPDEST PUSH32 0x52656E7420666F722074686973206D6F6E74682068617320616C726561647920 PUSH1 0x0 DUP3 ADD MSTORE PUSH32 0x6265656E20706169640000000000000000000000000000000000000000000000 PUSH1 0x20 DUP3 ADD MSTORE POP JUMP JUMPDEST PUSH1 0x0 PUSH2 0x3BC5 PUSH1 0x29 DUP4 PUSH2 0x32E6 JUMP JUMPDEST SWAP2 POP PUSH2 0x3BD0 DUP3 PUSH2 0x3B69 JUMP JUMPDEST PUSH1 0x40 DUP3 ADD SWAP1 POP SWAP2 SWAP1 POP JUMP JUMPDEST PUSH1 0x0 PUSH1 0x20 DUP3 ADD SWAP1 POP DUP2 DUP2 SUB PUSH1 0x0 DUP4 ADD MSTORE PUSH2 0x3BF4 DUP2 PUSH2 0x3BB8 JUMP JUMPDEST SWAP1 POP SWAP2 SWAP1 POP JUMP JUMPDEST PUSH32 0x5574696C697469657320666F722074686973206D6F6E74682068617665206E6F PUSH1 0x0 DUP3 ADD MSTORE PUSH32 0x74206265656E207265636F726465640000000000000000000000000000000000 PUSH1 0x20 DUP3 ADD MSTORE POP JUMP JUMPDEST PUSH1 0x0 PUSH2 0x3C57 PUSH1 0x2F DUP4 PUSH2 0x32E6 JUMP JUMPDEST SWAP2 POP PUSH2 0x3C62 DUP3 PUSH2 0x3BFB JUMP JUMPDEST PUSH1 0x40 DUP3 ADD SWAP1 POP SWAP2 SWAP1 POP JUMP JUMPDEST PUSH1 0x0 PUSH1 0x20 DUP3 ADD SWAP1 POP DUP2 DUP2 SUB PUSH1 0x0 DUP4 ADD MSTORE PUSH2 0x3C86 DUP2 PUSH2 0x3C4A JUMP JUMPDEST SWAP1 POP SWAP2 SWAP1 POP JUMP JUMPDEST PUSH1 0x0 PUSH2 0x3C98 DUP3 PUSH2 0x304D JUMP JUMPDEST SWAP2 POP PUSH2 0x3CA3 DUP4 PUSH2 0x304D JUMP JUMPDEST SWAP3 POP DUP3 DUP3 ADD SWAP1 POP DUP1 DUP3 GT ISZERO PUSH2 0x3CBB JUMPI PUSH2 0x3CBA PUSH2 0x36C5 JUMP JUMPDEST JUMPDEST SWAP3 SWAP2 POP POP JUMP JUMPDEST PUSH32 0x496E636F72726563742072656E7420616D6F756E740000000000000000000000 PUSH1 0x0 DUP3 ADD MSTORE POP JUMP JUMPDEST PUSH1 0x0 PUSH2 0x3CF7 PUSH1 0x15 DUP4 PUSH2 0x32E6 JUMP JUMPDEST SWAP2 POP PUSH2 0x3D02 DUP3 PUSH2 0x3CC1 JUMP JUMPDEST PUSH1 0x20 DUP3 ADD SWAP1 POP SWAP2 SWAP1 POP JUMP JUMPDEST PUSH1 0x0 PUSH1 0x20 DUP3 ADD SWAP1 POP DUP2 DUP2 SUB PUSH1 0x0 DUP4 ADD MSTORE PUSH2 0x3D26 DUP2 PUSH2 0x3CEA JUMP JUMPDEST SWAP1 POP SWAP2 SWAP1 POP JUMP JUMPDEST PUSH1 0x0 PUSH2 0x3D38 DUP3 PUSH2 0x304D JUMP JUMPDEST SWAP2 POP PUSH32 0xFFFFFFFFFFFFFFFFFFFFFFFFFFFFFFFFFFFFFFFFFFFFFFFFFFFFFFFFFFFFFFFF DUP3 SUB PUSH2 0x3D6A JUMPI PUSH2 0x3D69 PUSH2 0x36C5 JUMP JUMPDEST JUMPDEST PUSH1 0x1 DUP3 ADD SWAP1 POP SWAP2 SWAP1 POP JUMP JUMPDEST PUSH32 0x4F6E6C79206C616E646C6F72642063616E20696E697469616C697A6520637572 PUSH1 0x0 DUP3 ADD MSTORE PUSH32 0x72656E74207365637572697479206465706F7369740000000000000000000000 PUSH1 0x20 DUP3 ADD MSTORE POP JUMP JUMPDEST PUSH1 0x0 PUSH2 0x3DD1 PUSH1 0x35 DUP4 PUSH2 0x32E6 JUMP JUMPDEST SWAP2 POP PUSH2 0x3DDC DUP3 PUSH2 0x3D75 JUMP JUMPDEST PUSH1 0x40 DUP3 ADD SWAP1 POP SWAP2 SWAP1 POP JUMP JUMPDEST PUSH1 0x0 PUSH1 0x20 DUP3 ADD SWAP1 POP DUP2 DUP2 SUB PUSH1 0x0 DUP4 ADD MSTORE PUSH2 0x3E00 DUP2 PUSH2 0x3DC4 JUMP JUMPDEST SWAP1 POP SWAP2 SWAP1 POP JUMP JUMPDEST PUSH32 0x436F6E7472616374206D75737420626520616374697665000000000000000000 PUSH1 0x0 DUP3 ADD MSTORE POP JUMP JUMPDEST PUSH1 0x0 PUSH2 0x3E3D PUSH1 0x17 DUP4 PUSH2 0x32E6 JUMP JUMPDEST SWAP2 POP PUSH2 0x3E48 DUP3 PUSH2 0x3E07 JUMP JUMPDEST PUSH1 0x20 DUP3 ADD SWAP1 POP SWAP2 SWAP1 POP JUMP JUMPDEST PUSH1 0x0 PUSH1 0x20 DUP3 ADD SWAP1 POP DUP2 DUP2 SUB PUSH1 0x0 DUP4 ADD MSTORE PUSH2 0x3E6C DUP2 PUSH2 0x3E30 JUMP JUMPDEST SWAP1 POP SWAP2 SWAP1 POP JUMP JUMPDEST PUSH32 0x43757272656E74207365637572697479206465706F73697420616C7265616479 PUSH1 0x0 DUP3 ADD MSTORE PUSH32 0x20696E697469616C697A65640000000000000000000000000000000000000000 PUSH1 0x20 DUP3 ADD MSTORE POP JUMP JUMPDEST PUSH1 0x0 PUSH2 0x3ECF PUSH1 0x2C DUP4 PUSH2 0x32E6 JUMP JUMPDEST SWAP2 POP PUSH2 0x3EDA DUP3 PUSH2 0x3E73 JUMP JUMPDEST PUSH1 0x40 DUP3 ADD SWAP1 POP SWAP2 SWAP1 POP JUMP JUMPDEST PUSH1 0x0 PUSH1 0x20 DUP3 ADD SWAP1 POP DUP2 DUP2 SUB PUSH1 0x0 DUP4 ADD MSTORE PUSH2 0x3EFE DUP2 PUSH2 0x3EC2 JUMP JUMPDEST SWAP1 POP SWAP2 SWAP1 POP JUMP JUMPDEST PUSH32 0x4F6E6C792072656E7465722063616E207365742074686520636F756E74657220 PUSH1 0x0 DUP3 ADD MSTORE PUSH32 0x657374696D617465000000000000000000000000000000000000000000000000 PUSH1 0x20 DUP3 ADD MSTORE POP JUMP JUMPDEST PUSH1 0x0 PUSH2 0x3F61 PUSH1 0x28 DUP4 PUSH2 0x32E6 JUMP JUMPDEST SWAP2 POP PUSH2 0x3F6C DUP3 PUSH2 0x3F05 JUMP JUMPDEST PUSH1 0x40 DUP3 ADD SWAP1 POP SWAP2 SWAP1 POP JUMP JUMPDEST PUSH1 0x0 PUSH1 0x20 DUP3 ADD SWAP1 POP DUP2 DUP2 SUB PUSH1 0x0 DUP4 ADD MSTORE PUSH2 0x3F90 DUP2 PUSH2 0x3F54 JUMP JUMPDEST SWAP1 POP SWAP2 SWAP1 POP JUMP JUMPDEST PUSH32 0x4C616E646C6F7264206D757374207365742064616D61676520657374696D6174 PUSH1 0x0 DUP3 ADD MSTORE PUSH32 0x6520666972737400000000000000000000000000000000000000000000000000 PUSH1 0x20 DUP3 ADD MSTORE POP JUMP JUMPDEST PUSH1 0x0 PUSH2 0x3FF3 PUSH1 0x27 DUP4 PUSH2 0x32E6 JUMP JUMPDEST SWAP2 POP PUSH2 0x3FFE DUP3 PUSH2 0x3F97 JUMP JUMPDEST PUSH1 0x40 DUP3 ADD SWAP1 POP SWAP2 SWAP1 POP JUMP JUMPDEST PUSH1 0x0 PUSH1 0x20 DUP3 ADD SWAP1 POP DUP2 DUP2 SUB PUSH1 0x0 DUP4 ADD MSTORE PUSH2 0x4022 DUP2 PUSH2 0x3FE6 JUMP JUMPDEST SWAP1 POP SWAP2 SWAP1 POP JUMP JUMPDEST PUSH32 0x4F6E6C792072656E7465722063616E20736B69702072656E74207061796D656E PUSH1 0x0 DUP3 ADD MSTORE PUSH32 0x7400000000000000000000000000000000000000000000000000000000000000 PUSH1 0x20 DUP3 ADD MSTORE POP JUMP JUMPDEST PUSH1 0x0 PUSH2 0x4085 PUSH1 0x21 DUP4 PUSH2 0x32E6 JUMP JUMPDEST SWAP2 POP PUSH2 0x4090 DUP3 PUSH2 0x4029 JUMP JUMPDEST PUSH1 0x40 DUP3 ADD SWAP1 POP SWAP2 SWAP1 POP JUMP JUMPDEST PUSH1 0x0 PUSH1 0x20 DUP3 ADD SWAP1 POP DUP2 DUP2 SUB PUSH1 0x0 DUP4 ADD MSTORE PUSH2 0x40B4 DUP2 PUSH2 0x4078 JUMP JUMPDEST SWAP1 POP SWAP2 SWAP1 POP JUMP JUMPDEST PUSH32 0x43616E6E6F7420736B69702072656E7420666F7220746865206C617374206D6F PUSH1 0x0 DUP3 ADD MSTORE PUSH32 0x6E74680000000000000000000000000000000000000000000000000000000000 PUSH1 0x20 DUP3 ADD MSTORE POP JUMP JUMPDEST PUSH1 0x0 PUSH2 0x4117 PUSH1 0x23 DUP4 PUSH2 0x32E6 JUMP JUMPDEST SWAP2 POP PUSH2 0x4122 DUP3 PUSH2 0x40BB JUMP JUMPDEST PUSH1 0x40 DUP3 ADD SWAP1 POP SWAP2 SWAP1 POP JUMP JUMPDEST PUSH1 0x0 PUSH1 0x20 DUP3 ADD SWAP1 POP DUP2 DUP2 SUB PUSH1 0x0 DUP4 ADD MSTORE PUSH2 0x4146 DUP2 PUSH2 0x410A JUMP JUMPDEST SWAP1 POP SWAP2 SWAP1 POP JUMP JUMPDEST PUSH32 0x4F6E6C79206C616E646C6F72642063616E207365742061677265656D656E7420 PUSH1 0x0 DUP3 ADD MSTORE PUSH32 0x7465726D73000000000000000000000000000000000000000000000000000000 PUSH1 0x20 DUP3 ADD MSTORE POP JUMP JUMPDEST PUSH1 0x0 PUSH2 0x41A9 PUSH1 0x25 DUP4 PUSH2 0x32E6 JUMP JUMPDEST SWAP2 POP PUSH2 0x41B4 DUP3 PUSH2 0x414D JUMP JUMPDEST PUSH1 0x40 DUP3 ADD SWAP1 POP SWAP2 SWAP1 POP JUMP JUMPDEST PUSH1 0x0 PUSH1 0x20 DUP3 ADD SWAP1 POP DUP2 DUP2 SUB PUSH1 0x0 DUP4 ADD MSTORE PUSH2 0x41D8 DUP2 PUSH2 0x419C JUMP JUMPDEST SWAP1 POP SWAP2 SWAP1 POP JUMP JUMPDEST PUSH1 0x0 PUSH1 0x60 DUP3 ADD SWAP1 POP PUSH2 0x41F4 PUSH1 0x0 DUP4 ADD DUP7 PUSH2 0x3057 JUMP JUMPDEST PUSH2 0x4201 PUSH1 0x20 DUP4 ADD DUP6 PUSH2 0x3057 JUMP JUMPDEST PUSH2 0x420E PUSH1 0x40 DUP4 ADD DUP5 PUSH2 0x3057 JUMP JUMPDEST SWAP5 SWAP4 POP POP POP POP JUMP JUMPDEST PUSH32 0x4F6E6C79207468652061726269747261746F722063616E206578656375746520 PUSH1 0x0 DUP3 ADD MSTORE PUSH32 0x72756C696E670000000000000000000000000000000000000000000000000000 PUSH1 0x20 DUP3 ADD MSTORE POP JUMP JUMPDEST PUSH1 0x0 PUSH2 0x4272 PUSH1 0x26 DUP4 PUSH2 0x32E6 JUMP JUMPDEST SWAP2 POP PUSH2 0x427D DUP3 PUSH2 0x4216 JUMP JUMPDEST PUSH1 0x40 DUP3 ADD SWAP1 POP SWAP2 SWAP1 POP JUMP JUMPDEST PUSH1 0x0 PUSH1 0x20 DUP3 ADD SWAP1 POP DUP2 DUP2 SUB PUSH1 0x0 DUP4 ADD MSTORE PUSH2 0x42A1 DUP2 PUSH2 0x4265 JUMP JUMPDEST SWAP1 POP SWAP2 SWAP1 POP JUMP JUMPDEST PUSH32 0x4E6F206469737075746520746F2072756C65206F6E0000000000000000000000 PUSH1 0x0 DUP3 ADD MSTORE POP JUMP JUMPDEST PUSH1 0x0 PUSH2 0x42DE PUSH1 0x15 DUP4 PUSH2 0x32E6 JUMP JUMPDEST SWAP2 POP PUSH2 0x42E9 DUP3 PUSH2 0x42A8 JUMP JUMPDEST PUSH1 0x20 DUP3 ADD SWAP1 POP SWAP2 SWAP1 POP JUMP JUMPDEST PUSH1 0x0 PUSH1 0x20 DUP3 ADD SWAP1 POP DUP2 DUP2 SUB PUSH1 0x0 DUP4 ADD MSTORE PUSH2 0x430D DUP2 PUSH2 0x42D1 JUMP JUMPDEST SWAP1 POP SWAP2 SWAP1 POP JUMP JUMPDEST PUSH32 0x57726F6E67206469737075746520494400000000000000000000000000000000 PUSH1 0x0 DUP3 ADD MSTORE POP JUMP JUMPDEST PUSH1 0x0 PUSH2 0x434A PUSH1 0x10 DUP4 PUSH2 0x32E6 JUMP JUMPDEST SWAP2 POP PUSH2 0x4355 DUP3 PUSH2 0x4314 JUMP JUMPDEST PUSH1 0x20 DUP3 ADD SWAP1 POP SWAP2 SWAP1 POP JUMP JUMPDEST PUSH1 0x0 PUSH1 0x20 DUP3 ADD SWAP1 POP DUP2 DUP2 SUB PUSH1 0x0 DUP4 ADD MSTORE PUSH2 0x4379 DUP2 PUSH2 0x433D JUMP JUMPDEST SWAP1 POP SWAP2 SWAP1 POP JUMP JUMPDEST PUSH32 0x4E487B7100000000000000000000000000000000000000000000000000000000 PUSH1 0x0 MSTORE PUSH1 0x12 PUSH1 0x4 MSTORE PUSH1 0x24 PUSH1 0x0 REVERT JUMPDEST PUSH1 0x0 PUSH2 0x43BA DUP3 PUSH2 0x304D JUMP JUMPDEST SWAP2 POP PUSH2 0x43C5 DUP4 PUSH2 0x304D JUMP JUMPDEST SWAP3 POP DUP3 PUSH2 0x43D5 JUMPI PUSH2 0x43D4 PUSH2 0x4380 JUMP JUMPDEST JUMPDEST DUP3 DUP3 DIV SWAP1 POP SWAP3 SWAP2 POP POP JUMP JUMPDEST PUSH32 0x4661696C656420746F207472616E73666572206172626974726174696F6E2066 PUSH1 0x0 DUP3 ADD MSTORE PUSH32 0x656520746F2061726269747261746F7200000000000000000000000000000000 PUSH1 0x20 DUP3 ADD MSTORE POP JUMP JUMPDEST PUSH1 0x0 PUSH2 0x443C PUSH1 0x30 DUP4 PUSH2 0x32E6 JUMP JUMPDEST SWAP2 POP PUSH2 0x4447 DUP3 PUSH2 0x43E0 JUMP JUMPDEST PUSH1 0x40 DUP3 ADD SWAP1 POP SWAP2 SWAP1 POP JUMP JUMPDEST PUSH1 0x0 PUSH1 0x20 DUP3 ADD SWAP1 POP DUP2 DUP2 SUB PUSH1 0x0 DUP4 ADD MSTORE PUSH2 0x446B DUP2 PUSH2 0x442F JUMP JUMPDEST SWAP1 POP SWAP2 SWAP1 POP JUMP JUMPDEST PUSH32 0x4F6E6C792072656E7465722063616E2072656A6563742074686520657374696D PUSH1 0x0 DUP3 ADD MSTORE PUSH32 0x6174650000000000000000000000000000000000000000000000000000000000 PUSH1 0x20 DUP3 ADD MSTORE POP JUMP JUMPDEST PUSH1 0x0 PUSH2 0x44CE PUSH1 0x23 DUP4 PUSH2 0x32E6 JUMP JUMPDEST SWAP2 POP PUSH2 0x44D9 DUP3 PUSH2 0x4472 JUMP JUMPDEST PUSH1 0x40 DUP3 ADD SWAP1 POP SWAP2 SWAP1 POP JUMP JUMPDEST PUSH1 0x0 PUSH1 0x20 DUP3 ADD SWAP1 POP DUP2 DUP2 SUB PUSH1 0x0 DUP4 ADD MSTORE PUSH2 0x44FD DUP2 PUSH2 0x44C1 JUMP JUMPDEST SWAP1 POP SWAP2 SWAP1 POP JUMP JUMPDEST PUSH32 0x4F6E6C792072656E7465722063616E206163636570742074686520657374696D PUSH1 0x0 DUP3 ADD MSTORE PUSH32 0x6174650000000000000000000000000000000000000000000000000000000000 PUSH1 0x20 DUP3 ADD MSTORE POP JUMP JUMPDEST PUSH1 0x0 PUSH2 0x4560 PUSH1 0x23 DUP4 PUSH2 0x32E6 JUMP JUMPDEST SWAP2 POP PUSH2 0x456B DUP3 PUSH2 0x4504 JUMP JUMPDEST PUSH1 0x40 DUP3 ADD SWAP1 POP SWAP2 SWAP1 POP JUMP JUMPDEST PUSH1 0x0 PUSH1 0x20 DUP3 ADD SWAP1 POP DUP2 DUP2 SUB PUSH1 0x0 DUP4 ADD MSTORE PUSH2 0x458F DUP2 PUSH2 0x4553 JUMP JUMPDEST SWAP1 POP SWAP2 SWAP1 POP JUMP JUMPDEST PUSH32 0x4F6E6C79206C616E646C6F72642063616E206163636570742074686520636F75 PUSH1 0x0 DUP3 ADD MSTORE PUSH32 0x6E74657220657374696D61746500000000000000000000000000000000000000 PUSH1 0x20 DUP3 ADD MSTORE POP JUMP JUMPDEST PUSH1 0x0 PUSH2 0x45F2 PUSH1 0x2D DUP4 PUSH2 0x32E6 JUMP JUMPDEST SWAP2 POP PUSH2 0x45FD DUP3 PUSH2 0x4596 JUMP JUMPDEST PUSH1 0x40 DUP3 ADD SWAP1 POP SWAP2 SWAP1 POP JUMP JUMPDEST PUSH1 0x0 PUSH1 0x20 DUP3 ADD SWAP1 POP DUP2 DUP2 SUB PUSH1 0x0 DUP4 ADD MSTORE PUSH2 0x4621 DUP2 PUSH2 0x45E5 JUMP JUMPDEST SWAP1 POP SWAP2 SWAP1 POP JUMP JUMPDEST PUSH32 0x52656E74616C20706572696F6420686173206E6F7420656E6465642079657400 PUSH1 0x0 DUP3 ADD MSTORE POP JUMP JUMPDEST PUSH1 0x0 PUSH2 0x465E PUSH1 0x1F DUP4 PUSH2 0x32E6 JUMP JUMPDEST SWAP2 POP PUSH2 0x4669 DUP3 PUSH2 0x4628 JUMP JUMPDEST PUSH1 0x20 DUP3 ADD SWAP1 POP SWAP2 SWAP1 POP JUMP JUMPDEST PUSH1 0x0 PUSH1 0x20 DUP3 ADD SWAP1 POP DUP2 DUP2 SUB PUSH1 0x0 DUP4 ADD MSTORE PUSH2 0x468D DUP2 PUSH2 0x4651 JUMP JUMPDEST SWAP1 POP SWAP2 SWAP1 POP JUMP JUMPDEST PUSH32 0x43616E6E6F7420656E6420636F6E7472616374207768696C6520646973707574 PUSH1 0x0 DUP3 ADD MSTORE PUSH32 0x65206973206F6E676F696E670000000000000000000000000000000000000000 PUSH1 0x20 DUP3 ADD MSTORE POP JUMP JUMPDEST PUSH1 0x0 PUSH2 0x46F0 PUSH1 0x2C DUP4 PUSH2 0x32E6 JUMP JUMPDEST SWAP2 POP PUSH2 0x46FB DUP3 PUSH2 0x4694 JUMP JUMPDEST PUSH1 0x40 DUP3 ADD SWAP1 POP SWAP2 SWAP1 POP JUMP JUMPDEST PUSH1 0x0 PUSH1 0x20 DUP3 ADD SWAP1 POP DUP2 DUP2 SUB PUSH1 0x0 DUP4 ADD MSTORE PUSH2 0x471F DUP2 PUSH2 0x46E3 JUMP JUMPDEST SWAP1 POP SWAP2 SWAP1 POP JUMP INVALID LOG2 PUSH5 0x6970667358 0x22 SLT KECCAK256 0xE0 PUSH12 0x287479BBEA080E7B4A8C784C 0xD6 EXTCODECOPY 0xFB 0xD9 0x23 0x2E 0x5E PUSH8 0xF983E433BDB826EF STATICCALL 0x28 PUSH5 0x736F6C6343 STOP ADDMOD SLT STOP CALLER "
				},
				"gasEstimates": {
					"creation": {
						"codeDepositCost": "3653600",
						"executionCost": "infinite",
						"totalCost": "infinite"
					},
					"external": {
						"acceptLandlordEstimate()": "infinite",
						"acceptRenterCounterEstimate()": "infinite",
						"arbitrationCost()": "2563",
						"arbitrator()": "infinite",
						"baseRent()": "2498",
						"currentMonth()": "2519",
						"currentSecurityDeposit()": "2474",
						"damageEstimate()": "2564",
						"disputeID()": "2496",
						"disputeRaised()": "2568",
						"dueRent()": "2496",
						"executeRuling(uint256,uint256)": "infinite",
						"getArbitrationCost()": "infinite",
						"getContractBalance()": "428",
						"getCurrentSecurityDeposit()": "2592",
						"getLandlordBalance()": "4817",
						"getRenterBalance()": "4796",
						"initializeCurrentSecurityDeposit()": "30846",
						"isActive()": "2539",
						"isRentalPeriodEnded()": "2662",
						"isSecurityDepositPaid()": "2631",
						"landlord()": "2622",
						"landlordEstimateSet()": "2632",
						"monthlyRents(uint256)": "infinite",
						"payRent()": "infinite",
						"paySecurityDeposit()": "125694",
						"pendingWithdrawals(address)": "2946",
						"recordUtilities(uint256)": "infinite",
						"rejectLandlordEstimate()": "5427",
						"rejectRenterCounterEstimate()": "infinite",
						"rentPeriodInMonths()": "2541",
						"rentStartDate()": "2497",
						"rentalPeriodEnded()": "2611",
						"renter()": "2604",
						"renterCounterEstimate()": "2497",
						"renterCounterEstimateSet()": "2567",
						"securityDeposit()": "2475",
						"setAgreementTerms(uint256,uint256,uint256)": "infinite",
						"setDamageEstimate(uint256)": "infinite",
						"setRenterCounterEstimate(uint256)": "infinite",
						"skipRentPayment()": "infinite",
						"withdraw()": "infinite"
					},
					"internal": {
						"endContract()": "infinite"
					}
				},
				"methodIdentifiers": {
					"acceptLandlordEstimate()": "dd6bcb16",
					"acceptRenterCounterEstimate()": "eaa0a302",
					"arbitrationCost()": "697b05a2",
					"arbitrator()": "6cc6cde1",
					"baseRent()": "04a2286a",
					"currentMonth()": "862a4d47",
					"currentSecurityDeposit()": "d261c91f",
					"damageEstimate()": "1a576049",
					"disputeID()": "b0a1e2b4",
					"disputeRaised()": "004422eb",
					"dueRent()": "6f3c590c",
					"executeRuling(uint256,uint256)": "d96152c3",
					"getArbitrationCost()": "63022560",
					"getContractBalance()": "6f9fb98a",
					"getCurrentSecurityDeposit()": "779318e5",
					"getLandlordBalance()": "feeaea4e",
					"getRenterBalance()": "740906c0",
					"initializeCurrentSecurityDeposit()": "a972500f",
					"isActive()": "22f3e2d4",
					"isRentalPeriodEnded()": "cbe615b1",
					"isSecurityDepositPaid()": "f13702f4",
					"landlord()": "dc1997ea",
					"landlordEstimateSet()": "71357a46",
					"monthlyRents(uint256)": "e1505e4e",
					"payRent()": "a709c4fe",
					"paySecurityDeposit()": "42c63dae",
					"pendingWithdrawals(address)": "f3f43703",
					"recordUtilities(uint256)": "7ef98740",
					"rejectLandlordEstimate()": "dcf2559e",
					"rejectRenterCounterEstimate()": "1890fc37",
					"rentPeriodInMonths()": "87eaa342",
					"rentStartDate()": "561eefd8",
					"rentalPeriodEnded()": "5a0e9bcc",
					"renter()": "2e88ab0b",
					"renterCounterEstimate()": "81d388ba",
					"renterCounterEstimateSet()": "47ed9c65",
					"securityDeposit()": "220e5ab3",
					"setAgreementTerms(uint256,uint256,uint256)": "d738307c",
					"setDamageEstimate(uint256)": "08c59798",
					"setRenterCounterEstimate(uint256)": "c2d6d462",
					"skipRentPayment()": "ca088031",
					"withdraw()": "3ccfd60b"
				}
			},
			"storageLayout": {
				"storage": [
					{
						"astId": 18,
						"contract": "contracts/HRSLocalArbitrator.sol:HouseRentalAgreement",
						"label": "landlord",
						"offset": 0,
						"slot": "0",
						"type": "t_address"
					},
					{
						"astId": 20,
						"contract": "contracts/HRSLocalArbitrator.sol:HouseRentalAgreement",
						"label": "renter",
						"offset": 0,
						"slot": "1",
						"type": "t_address"
					},
					{
						"astId": 22,
						"contract": "contracts/HRSLocalArbitrator.sol:HouseRentalAgreement",
						"label": "securityDeposit",
						"offset": 0,
						"slot": "2",
						"type": "t_uint256"
					},
					{
						"astId": 24,
						"contract": "contracts/HRSLocalArbitrator.sol:HouseRentalAgreement",
						"label": "baseRent",
						"offset": 0,
						"slot": "3",
						"type": "t_uint256"
					},
					{
						"astId": 26,
						"contract": "contracts/HRSLocalArbitrator.sol:HouseRentalAgreement",
						"label": "rentPeriodInMonths",
						"offset": 0,
						"slot": "4",
						"type": "t_uint256"
					},
					{
						"astId": 28,
						"contract": "contracts/HRSLocalArbitrator.sol:HouseRentalAgreement",
						"label": "rentStartDate",
						"offset": 0,
						"slot": "5",
						"type": "t_uint256"
					},
					{
						"astId": 30,
						"contract": "contracts/HRSLocalArbitrator.sol:HouseRentalAgreement",
						"label": "currentMonth",
						"offset": 0,
						"slot": "6",
						"type": "t_uint256"
					},
					{
						"astId": 32,
						"contract": "contracts/HRSLocalArbitrator.sol:HouseRentalAgreement",
						"label": "dueRent",
						"offset": 0,
						"slot": "7",
						"type": "t_uint256"
					},
					{
						"astId": 34,
						"contract": "contracts/HRSLocalArbitrator.sol:HouseRentalAgreement",
						"label": "damageEstimate",
						"offset": 0,
						"slot": "8",
						"type": "t_uint256"
					},
					{
						"astId": 36,
						"contract": "contracts/HRSLocalArbitrator.sol:HouseRentalAgreement",
						"label": "renterCounterEstimate",
						"offset": 0,
						"slot": "9",
						"type": "t_uint256"
					},
					{
						"astId": 38,
						"contract": "contracts/HRSLocalArbitrator.sol:HouseRentalAgreement",
						"label": "disputeID",
						"offset": 0,
						"slot": "10",
						"type": "t_uint256"
					},
					{
						"astId": 40,
						"contract": "contracts/HRSLocalArbitrator.sol:HouseRentalAgreement",
						"label": "currentSecurityDeposit",
						"offset": 0,
						"slot": "11",
						"type": "t_uint256"
					},
					{
						"astId": 42,
						"contract": "contracts/HRSLocalArbitrator.sol:HouseRentalAgreement",
						"label": "arbitrationCost",
						"offset": 0,
						"slot": "12",
						"type": "t_uint256"
					},
					{
						"astId": 44,
						"contract": "contracts/HRSLocalArbitrator.sol:HouseRentalAgreement",
						"label": "isActive",
						"offset": 0,
						"slot": "13",
						"type": "t_bool"
					},
					{
						"astId": 46,
						"contract": "contracts/HRSLocalArbitrator.sol:HouseRentalAgreement",
						"label": "isSecurityDepositPaid",
						"offset": 1,
						"slot": "13",
						"type": "t_bool"
					},
					{
						"astId": 48,
						"contract": "contracts/HRSLocalArbitrator.sol:HouseRentalAgreement",
						"label": "disputeRaised",
						"offset": 2,
						"slot": "13",
						"type": "t_bool"
					},
					{
						"astId": 50,
						"contract": "contracts/HRSLocalArbitrator.sol:HouseRentalAgreement",
						"label": "rentalPeriodEnded",
						"offset": 3,
						"slot": "13",
						"type": "t_bool"
					},
					{
						"astId": 52,
						"contract": "contracts/HRSLocalArbitrator.sol:HouseRentalAgreement",
						"label": "landlordEstimateSet",
						"offset": 4,
						"slot": "13",
						"type": "t_bool"
					},
					{
						"astId": 54,
						"contract": "contracts/HRSLocalArbitrator.sol:HouseRentalAgreement",
						"label": "renterCounterEstimateSet",
						"offset": 5,
						"slot": "13",
						"type": "t_bool"
					},
					{
						"astId": 57,
						"contract": "contracts/HRSLocalArbitrator.sol:HouseRentalAgreement",
						"label": "arbitrator",
						"offset": 6,
						"slot": "13",
						"type": "t_contract(ILocalArbitrator)16"
					},
					{
						"astId": 71,
						"contract": "contracts/HRSLocalArbitrator.sol:HouseRentalAgreement",
						"label": "monthlyRents",
						"offset": 0,
						"slot": "14",
						"type": "t_mapping(t_uint256,t_struct(MonthlyRent)66_storage)"
					},
					{
						"astId": 75,
						"contract": "contracts/HRSLocalArbitrator.sol:HouseRentalAgreement",
						"label": "pendingWithdrawals",
						"offset": 0,
						"slot": "15",
						"type": "t_mapping(t_address,t_uint256)"
					}
				],
				"types": {
					"t_address": {
						"encoding": "inplace",
						"label": "address",
						"numberOfBytes": "20"
					},
					"t_bool": {
						"encoding": "inplace",
						"label": "bool",
						"numberOfBytes": "1"
					},
					"t_contract(ILocalArbitrator)16": {
						"encoding": "inplace",
						"label": "contract ILocalArbitrator",
						"numberOfBytes": "20"
					},
					"t_mapping(t_address,t_uint256)": {
						"encoding": "mapping",
						"key": "t_address",
						"label": "mapping(address => uint256)",
						"numberOfBytes": "32",
						"value": "t_uint256"
					},
					"t_mapping(t_uint256,t_struct(MonthlyRent)66_storage)": {
						"encoding": "mapping",
						"key": "t_uint256",
						"label": "mapping(uint256 => struct HouseRentalAgreement.MonthlyRent)",
						"numberOfBytes": "32",
						"value": "t_struct(MonthlyRent)66_storage"
					},
					"t_struct(MonthlyRent)66_storage": {
						"encoding": "inplace",
						"label": "struct HouseRentalAgreement.MonthlyRent",
						"members": [
							{
								"astId": 59,
								"contract": "contracts/HRSLocalArbitrator.sol:HouseRentalAgreement",
								"label": "baseRent",
								"offset": 0,
								"slot": "0",
								"type": "t_uint256"
							},
							{
								"astId": 61,
								"contract": "contracts/HRSLocalArbitrator.sol:HouseRentalAgreement",
								"label": "utilities",
								"offset": 0,
								"slot": "1",
								"type": "t_uint256"
							},
							{
								"astId": 63,
								"contract": "contracts/HRSLocalArbitrator.sol:HouseRentalAgreement",
								"label": "due",
								"offset": 0,
								"slot": "2",
								"type": "t_uint256"
							},
							{
								"astId": 65,
								"contract": "contracts/HRSLocalArbitrator.sol:HouseRentalAgreement",
								"label": "paid",
								"offset": 0,
								"slot": "3",
								"type": "t_bool"
							}
						],
						"numberOfBytes": "128"
					},
					"t_uint256": {
						"encoding": "inplace",
						"label": "uint256",
						"numberOfBytes": "32"
					}
				}
			},
			"userdoc": {
				"kind": "user",
				"methods": {},
				"version": 1
			}
		}
	}
}