{
	"contracts/HRSLocalArbitrator.sol": {
		"HouseRentalAgreement": {
			"abi": [
				{
					"inputs": [
						{
							"internalType": "address",
							"name": "_renter",
							"type": "address"
						},
						{
							"internalType": "address",
							"name": "_arbitratorAddress",
							"type": "address"
						}
					],
					"stateMutability": "nonpayable",
					"type": "constructor"
				},
				{
					"anonymous": false,
					"inputs": [
						{
							"indexed": false,
							"internalType": "uint256",
							"name": "securityDeposit",
							"type": "uint256"
						},
						{
							"indexed": false,
							"internalType": "uint256",
							"name": "baseRent",
							"type": "uint256"
						},
						{
							"indexed": false,
							"internalType": "uint256",
							"name": "rentPeriodInMonths",
							"type": "uint256"
						}
					],
					"name": "AgreementTermsSet",
					"type": "event"
				},
				{
					"anonymous": false,
					"inputs": [],
					"name": "ContractActivated",
					"type": "event"
				},
				{
					"anonymous": false,
					"inputs": [
						{
							"indexed": false,
							"internalType": "uint256",
							"name": "securityDepositReturned",
							"type": "uint256"
						},
						{
							"indexed": false,
							"internalType": "uint256",
							"name": "dueAmountPaid",
							"type": "uint256"
						}
					],
					"name": "ContractEnded",
					"type": "event"
				},
				{
					"anonymous": false,
					"inputs": [],
					"name": "CounterEstimateAccepted",
					"type": "event"
				},
				{
					"anonymous": false,
					"inputs": [],
					"name": "CounterEstimateRejected",
					"type": "event"
				},
				{
					"anonymous": false,
					"inputs": [
						{
							"indexed": false,
							"internalType": "uint256",
							"name": "counterEstimate",
							"type": "uint256"
						}
					],
					"name": "CounterEstimateSet",
					"type": "event"
				},
				{
					"anonymous": false,
					"inputs": [
						{
							"indexed": false,
							"internalType": "uint256",
							"name": "estimate",
							"type": "uint256"
						}
					],
					"name": "DamageEstimateSet",
					"type": "event"
				},
				{
					"anonymous": false,
					"inputs": [
						{
							"indexed": false,
							"internalType": "uint256",
							"name": "disputeID",
							"type": "uint256"
						}
					],
					"name": "DisputeRaised",
					"type": "event"
				},
				{
					"anonymous": false,
					"inputs": [
						{
							"indexed": false,
							"internalType": "uint256",
							"name": "disputeID",
							"type": "uint256"
						},
						{
							"indexed": false,
							"internalType": "uint256",
							"name": "ruling",
							"type": "uint256"
						}
					],
					"name": "DisputeResolved",
					"type": "event"
				},
				{
					"anonymous": false,
					"inputs": [],
					"name": "EstimateRejected",
					"type": "event"
				},
				{
					"anonymous": false,
					"inputs": [
						{
							"indexed": true,
							"internalType": "address",
							"name": "landlord",
							"type": "address"
						},
						{
							"indexed": false,
							"internalType": "uint256",
							"name": "landlordAmount",
							"type": "uint256"
						},
						{
							"indexed": true,
							"internalType": "address",
							"name": "renter",
							"type": "address"
						},
						{
							"indexed": false,
							"internalType": "uint256",
							"name": "renterAmount",
							"type": "uint256"
						}
					],
					"name": "FundsDistributed",
					"type": "event"
				},
				{
					"anonymous": false,
					"inputs": [
						{
							"indexed": true,
							"internalType": "address",
							"name": "to",
							"type": "address"
						},
						{
							"indexed": false,
							"internalType": "uint256",
							"name": "amount",
							"type": "uint256"
						}
					],
					"name": "FundsTransferred",
					"type": "event"
				},
				{
					"anonymous": false,
					"inputs": [
						{
							"indexed": false,
							"internalType": "uint256",
							"name": "month",
							"type": "uint256"
						},
						{
							"indexed": false,
							"internalType": "uint256",
							"name": "amount",
							"type": "uint256"
						}
					],
					"name": "RentPaid",
					"type": "event"
				},
				{
					"anonymous": false,
					"inputs": [
						{
							"indexed": false,
							"internalType": "uint256",
							"name": "month",
							"type": "uint256"
						},
						{
							"indexed": false,
							"internalType": "uint256",
							"name": "amount",
							"type": "uint256"
						}
					],
					"name": "RentSkipped",
					"type": "event"
				},
				{
					"anonymous": false,
					"inputs": [
						{
							"indexed": false,
							"internalType": "uint256",
							"name": "month",
							"type": "uint256"
						},
						{
							"indexed": false,
							"internalType": "uint256",
							"name": "amount",
							"type": "uint256"
						}
					],
					"name": "RentTransferred",
					"type": "event"
				},
				{
					"anonymous": false,
					"inputs": [
						{
							"indexed": false,
							"internalType": "uint256",
							"name": "amount",
							"type": "uint256"
						}
					],
					"name": "SecurityDepositPaid",
					"type": "event"
				},
				{
					"anonymous": false,
					"inputs": [
						{
							"indexed": false,
							"internalType": "uint256",
							"name": "month",
							"type": "uint256"
						},
						{
							"indexed": false,
							"internalType": "uint256",
							"name": "amount",
							"type": "uint256"
						}
					],
					"name": "UtilitiesRecorded",
					"type": "event"
				},
				{
					"anonymous": false,
					"inputs": [
						{
							"indexed": true,
							"internalType": "address",
							"name": "by",
							"type": "address"
						},
						{
							"indexed": false,
							"internalType": "uint256",
							"name": "amount",
							"type": "uint256"
						}
					],
					"name": "WithdrawalRequested",
					"type": "event"
				},
				{
					"inputs": [],
					"name": "acceptLandlordEstimate",
					"outputs": [],
					"stateMutability": "nonpayable",
					"type": "function"
				},
				{
					"inputs": [],
					"name": "acceptRenterCounterEstimate",
					"outputs": [],
					"stateMutability": "nonpayable",
					"type": "function"
				},
				{
					"inputs": [],
					"name": "arbitrationCost",
					"outputs": [
						{
							"internalType": "uint256",
							"name": "",
							"type": "uint256"
						}
					],
					"stateMutability": "view",
					"type": "function"
				},
				{
					"inputs": [],
					"name": "arbitrator",
					"outputs": [
						{
							"internalType": "contract ILocalArbitrator",
							"name": "",
							"type": "address"
						}
					],
					"stateMutability": "view",
					"type": "function"
				},
				{
					"inputs": [],
					"name": "baseRent",
					"outputs": [
						{
							"internalType": "uint256",
							"name": "",
							"type": "uint256"
						}
					],
					"stateMutability": "view",
					"type": "function"
				},
				{
					"inputs": [],
					"name": "currentMonth",
					"outputs": [
						{
							"internalType": "uint256",
							"name": "",
							"type": "uint256"
						}
					],
					"stateMutability": "view",
					"type": "function"
				},
				{
					"inputs": [],
					"name": "currentSecurityDeposit",
					"outputs": [
						{
							"internalType": "uint256",
							"name": "",
							"type": "uint256"
						}
					],
					"stateMutability": "view",
					"type": "function"
				},
				{
					"inputs": [],
					"name": "damageEstimate",
					"outputs": [
						{
							"internalType": "uint256",
							"name": "",
							"type": "uint256"
						}
					],
					"stateMutability": "view",
					"type": "function"
				},
				{
					"inputs": [],
					"name": "disputeID",
					"outputs": [
						{
							"internalType": "uint256",
							"name": "",
							"type": "uint256"
						}
					],
					"stateMutability": "view",
					"type": "function"
				},
				{
					"inputs": [],
					"name": "disputeRaised",
					"outputs": [
						{
							"internalType": "bool",
							"name": "",
							"type": "bool"
						}
					],
					"stateMutability": "view",
					"type": "function"
				},
				{
					"inputs": [],
					"name": "dueRent",
					"outputs": [
						{
							"internalType": "uint256",
							"name": "",
							"type": "uint256"
						}
					],
					"stateMutability": "view",
					"type": "function"
				},
				{
					"inputs": [
						{
							"internalType": "uint256",
							"name": "_disputeID",
							"type": "uint256"
						},
						{
							"internalType": "uint256",
							"name": "_ruling",
							"type": "uint256"
						}
					],
					"name": "executeRuling",
					"outputs": [],
					"stateMutability": "nonpayable",
					"type": "function"
				},
				{
					"inputs": [],
					"name": "getArbitrationCost",
					"outputs": [
						{
							"internalType": "uint256",
							"name": "",
							"type": "uint256"
						}
					],
					"stateMutability": "view",
					"type": "function"
				},
				{
					"inputs": [],
					"name": "getContractBalance",
					"outputs": [
						{
							"internalType": "uint256",
							"name": "",
							"type": "uint256"
						}
					],
					"stateMutability": "view",
					"type": "function"
				},
				{
					"inputs": [],
					"name": "getCurrentSecurityDeposit",
					"outputs": [
						{
							"internalType": "uint256",
							"name": "",
							"type": "uint256"
						}
					],
					"stateMutability": "view",
					"type": "function"
				},
				{
					"inputs": [],
					"name": "getLandlordBalance",
					"outputs": [
						{
							"internalType": "uint256",
							"name": "",
							"type": "uint256"
						}
					],
					"stateMutability": "view",
					"type": "function"
				},
				{
					"inputs": [],
					"name": "getRenterBalance",
					"outputs": [
						{
							"internalType": "uint256",
							"name": "",
							"type": "uint256"
						}
					],
					"stateMutability": "view",
					"type": "function"
				},
				{
					"inputs": [],
					"name": "initializeCurrentSecurityDeposit",
					"outputs": [],
					"stateMutability": "nonpayable",
					"type": "function"
				},
				{
					"inputs": [],
					"name": "isActive",
					"outputs": [
						{
							"internalType": "bool",
							"name": "",
							"type": "bool"
						}
					],
					"stateMutability": "view",
					"type": "function"
				},
				{
					"inputs": [],
					"name": "isRentalPeriodEnded",
					"outputs": [
						{
							"internalType": "bool",
							"name": "",
							"type": "bool"
						}
					],
					"stateMutability": "view",
					"type": "function"
				},
				{
					"inputs": [],
					"name": "isSecurityDepositPaid",
					"outputs": [
						{
							"internalType": "bool",
							"name": "",
							"type": "bool"
						}
					],
					"stateMutability": "view",
					"type": "function"
				},
				{
					"inputs": [],
					"name": "landlord",
					"outputs": [
						{
							"internalType": "address",
							"name": "",
							"type": "address"
						}
					],
					"stateMutability": "view",
					"type": "function"
				},
				{
					"inputs": [],
					"name": "landlordEstimateSet",
					"outputs": [
						{
							"internalType": "bool",
							"name": "",
							"type": "bool"
						}
					],
					"stateMutability": "view",
					"type": "function"
				},
				{
					"inputs": [
						{
							"internalType": "uint256",
							"name": "",
							"type": "uint256"
						}
					],
					"name": "monthlyRents",
					"outputs": [
						{
							"internalType": "uint256",
							"name": "baseRent",
							"type": "uint256"
						},
						{
							"internalType": "uint256",
							"name": "utilities",
							"type": "uint256"
						},
						{
							"internalType": "uint256",
							"name": "due",
							"type": "uint256"
						},
						{
							"internalType": "bool",
							"name": "paid",
							"type": "bool"
						}
					],
					"stateMutability": "view",
					"type": "function"
				},
				{
					"inputs": [],
					"name": "payRent",
					"outputs": [],
					"stateMutability": "payable",
					"type": "function"
				},
				{
					"inputs": [],
					"name": "paySecurityDeposit",
					"outputs": [],
					"stateMutability": "payable",
					"type": "function"
				},
				{
					"inputs": [
						{
							"internalType": "address",
							"name": "",
							"type": "address"
						}
					],
					"name": "pendingWithdrawals",
					"outputs": [
						{
							"internalType": "uint256",
							"name": "",
							"type": "uint256"
						}
					],
					"stateMutability": "view",
					"type": "function"
				},
				{
					"inputs": [
						{
							"internalType": "uint256",
							"name": "_utilities",
							"type": "uint256"
						}
					],
					"name": "recordUtilities",
					"outputs": [],
					"stateMutability": "nonpayable",
					"type": "function"
				},
				{
					"inputs": [],
					"name": "rejectLandlordEstimate",
					"outputs": [],
					"stateMutability": "nonpayable",
					"type": "function"
				},
				{
					"inputs": [],
					"name": "rejectRenterCounterEstimate",
					"outputs": [],
					"stateMutability": "nonpayable",
					"type": "function"
				},
				{
					"inputs": [],
					"name": "rentPeriodInMonths",
					"outputs": [
						{
							"internalType": "uint256",
							"name": "",
							"type": "uint256"
						}
					],
					"stateMutability": "view",
					"type": "function"
				},
				{
					"inputs": [],
					"name": "rentStartDate",
					"outputs": [
						{
							"internalType": "uint256",
							"name": "",
							"type": "uint256"
						}
					],
					"stateMutability": "view",
					"type": "function"
				},
				{
					"inputs": [],
					"name": "rentalPeriodEnded",
					"outputs": [
						{
							"internalType": "bool",
							"name": "",
							"type": "bool"
						}
					],
					"stateMutability": "view",
					"type": "function"
				},
				{
					"inputs": [],
					"name": "renter",
					"outputs": [
						{
							"internalType": "address",
							"name": "",
							"type": "address"
						}
					],
					"stateMutability": "view",
					"type": "function"
				},
				{
					"inputs": [],
					"name": "renterCounterEstimate",
					"outputs": [
						{
							"internalType": "uint256",
							"name": "",
							"type": "uint256"
						}
					],
					"stateMutability": "view",
					"type": "function"
				},
				{
					"inputs": [],
					"name": "renterCounterEstimateSet",
					"outputs": [
						{
							"internalType": "bool",
							"name": "",
							"type": "bool"
						}
					],
					"stateMutability": "view",
					"type": "function"
				},
				{
					"inputs": [],
					"name": "securityDeposit",
					"outputs": [
						{
							"internalType": "uint256",
							"name": "",
							"type": "uint256"
						}
					],
					"stateMutability": "view",
					"type": "function"
				},
				{
					"inputs": [
						{
							"internalType": "uint256",
							"name": "_securityDeposit",
							"type": "uint256"
						},
						{
							"internalType": "uint256",
							"name": "_baseRent",
							"type": "uint256"
						},
						{
							"internalType": "uint256",
							"name": "_rentPeriodInMonths",
							"type": "uint256"
						}
					],
					"name": "setAgreementTerms",
					"outputs": [],
					"stateMutability": "nonpayable",
					"type": "function"
				},
				{
					"inputs": [
						{
							"internalType": "uint256",
							"name": "_damageEstimate",
							"type": "uint256"
						}
					],
					"name": "setDamageEstimate",
					"outputs": [],
					"stateMutability": "nonpayable",
					"type": "function"
				},
				{
					"inputs": [
						{
							"internalType": "uint256",
							"name": "_renterCounterEstimate",
							"type": "uint256"
						}
					],
					"name": "setRenterCounterEstimate",
					"outputs": [],
					"stateMutability": "nonpayable",
					"type": "function"
				},
				{
					"inputs": [],
					"name": "skipRentPayment",
					"outputs": [],
					"stateMutability": "nonpayable",
					"type": "function"
				},
				{
					"inputs": [],
					"name": "withdraw",
					"outputs": [],
					"stateMutability": "nonpayable",
					"type": "function"
				},
				{
					"stateMutability": "payable",
					"type": "receive"
				}
			],
			"devdoc": {
				"kind": "dev",
				"methods": {},
				"version": 1
			},
			"evm": {
				"assembly": "    /* \"contracts/HRSLocalArbitrator.sol\":279:13316  contract HouseRentalAgreement {... */\n  mstore(0x40, 0x80)\n    /* \"contracts/HRSLocalArbitrator.sol\":2352:2635  constructor(address _renter, address _arbitratorAddress) {... */\n  callvalue\n  dup1\n  iszero\n  tag_1\n  jumpi\n  0x00\n  dup1\n  revert\ntag_1:\n  pop\n  mload(0x40)\n  sub(codesize, bytecodeSize)\n  dup1\n  bytecodeSize\n  dup4\n  codecopy\n  dup2\n  dup2\n  add\n  0x40\n  mstore\n  dup2\n  add\n  swap1\n  tag_2\n  swap2\n  swap1\n  tag_3\n  jump\t// in\ntag_2:\n    /* \"contracts/HRSLocalArbitrator.sol\":2431:2441  msg.sender */\n  caller\n    /* \"contracts/HRSLocalArbitrator.sol\":2420:2428  landlord */\n  0x00\n  dup1\n    /* \"contracts/HRSLocalArbitrator.sol\":2420:2441  landlord = msg.sender */\n  0x0100\n  exp\n  dup2\n  sload\n  dup2\n  0xffffffffffffffffffffffffffffffffffffffff\n  mul\n  not\n  and\n  swap1\n  dup4\n  0xffffffffffffffffffffffffffffffffffffffff\n  and\n  mul\n  or\n  swap1\n  sstore\n  pop\n    /* \"contracts/HRSLocalArbitrator.sol\":2461:2468  _renter */\n  dup2\n    /* \"contracts/HRSLocalArbitrator.sol\":2452:2458  renter */\n  0x01\n  0x00\n    /* \"contracts/HRSLocalArbitrator.sol\":2452:2468  renter = _renter */\n  0x0100\n  exp\n  dup2\n  sload\n  dup2\n  0xffffffffffffffffffffffffffffffffffffffff\n  mul\n  not\n  and\n  swap1\n  dup4\n  0xffffffffffffffffffffffffffffffffffffffff\n  and\n  mul\n  or\n  swap1\n  sstore\n  pop\n    /* \"contracts/HRSLocalArbitrator.sol\":2509:2527  _arbitratorAddress */\n  dup1\n    /* \"contracts/HRSLocalArbitrator.sol\":2479:2489  arbitrator */\n  0x0d\n  0x06\n    /* \"contracts/HRSLocalArbitrator.sol\":2479:2528  arbitrator = ILocalArbitrator(_arbitratorAddress) */\n  0x0100\n  exp\n  dup2\n  sload\n  dup2\n  0xffffffffffffffffffffffffffffffffffffffff\n  mul\n  not\n  and\n  swap1\n  dup4\n  0xffffffffffffffffffffffffffffffffffffffff\n  and\n  mul\n  or\n  swap1\n  sstore\n  pop\n    /* \"contracts/HRSLocalArbitrator.sol\":2550:2555  false */\n  0x00\n    /* \"contracts/HRSLocalArbitrator.sol\":2539:2547  isActive */\n  0x0d\n  0x00\n    /* \"contracts/HRSLocalArbitrator.sol\":2539:2555  isActive = false */\n  0x0100\n  exp\n  dup2\n  sload\n  dup2\n  0xff\n  mul\n  not\n  and\n  swap1\n  dup4\n  iszero\n  iszero\n  mul\n  or\n  swap1\n  sstore\n  pop\n    /* \"contracts/HRSLocalArbitrator.sol\":2590:2595  false */\n  0x00\n    /* \"contracts/HRSLocalArbitrator.sol\":2566:2587  isSecurityDepositPaid */\n  0x0d\n  0x01\n    /* \"contracts/HRSLocalArbitrator.sol\":2566:2595  isSecurityDepositPaid = false */\n  0x0100\n  exp\n  dup2\n  sload\n  dup2\n  0xff\n  mul\n  not\n  and\n  swap1\n  dup4\n  iszero\n  iszero\n  mul\n  or\n  swap1\n  sstore\n  pop\n    /* \"contracts/HRSLocalArbitrator.sol\":2622:2627  false */\n  0x00\n    /* \"contracts/HRSLocalArbitrator.sol\":2606:2619  disputeRaised */\n  0x0d\n  0x02\n    /* \"contracts/HRSLocalArbitrator.sol\":2606:2627  disputeRaised = false */\n  0x0100\n  exp\n  dup2\n  sload\n  dup2\n  0xff\n  mul\n  not\n  and\n  swap1\n  dup4\n  iszero\n  iszero\n  mul\n  or\n  swap1\n  sstore\n  pop\n    /* \"contracts/HRSLocalArbitrator.sol\":2352:2635  constructor(address _renter, address _arbitratorAddress) {... */\n  pop\n  pop\n    /* \"contracts/HRSLocalArbitrator.sol\":279:13316  contract HouseRentalAgreement {... */\n  jump(tag_6)\n    /* \"#utility.yul\":88:205   */\ntag_8:\n    /* \"#utility.yul\":197:198   */\n  0x00\n    /* \"#utility.yul\":194:195   */\n  dup1\n    /* \"#utility.yul\":187:199   */\n  revert\n    /* \"#utility.yul\":334:460   */\ntag_10:\n    /* \"#utility.yul\":371:378   */\n  0x00\n    /* \"#utility.yul\":411:453   */\n  0xffffffffffffffffffffffffffffffffffffffff\n    /* \"#utility.yul\":404:409   */\n  dup3\n    /* \"#utility.yul\":400:454   */\n  and\n    /* \"#utility.yul\":389:454   */\n  swap1\n  pop\n    /* \"#utility.yul\":334:460   */\n  swap2\n  swap1\n  pop\n  jump\t// out\n    /* \"#utility.yul\":466:562   */\ntag_11:\n    /* \"#utility.yul\":503:510   */\n  0x00\n    /* \"#utility.yul\":532:556   */\n  tag_20\n    /* \"#utility.yul\":550:555   */\n  dup3\n    /* \"#utility.yul\":532:556   */\n  tag_10\n  jump\t// in\ntag_20:\n    /* \"#utility.yul\":521:556   */\n  swap1\n  pop\n    /* \"#utility.yul\":466:562   */\n  swap2\n  swap1\n  pop\n  jump\t// out\n    /* \"#utility.yul\":568:690   */\ntag_12:\n    /* \"#utility.yul\":641:665   */\n  tag_22\n    /* \"#utility.yul\":659:664   */\n  dup2\n    /* \"#utility.yul\":641:665   */\n  tag_11\n  jump\t// in\ntag_22:\n    /* \"#utility.yul\":634:639   */\n  dup2\n    /* \"#utility.yul\":631:666   */\n  eq\n    /* \"#utility.yul\":621:684   */\n  tag_23\n  jumpi\n    /* \"#utility.yul\":680:681   */\n  0x00\n    /* \"#utility.yul\":677:678   */\n  dup1\n    /* \"#utility.yul\":670:682   */\n  revert\n    /* \"#utility.yul\":621:684   */\ntag_23:\n    /* \"#utility.yul\":568:690   */\n  pop\n  jump\t// out\n    /* \"#utility.yul\":696:839   */\ntag_13:\n    /* \"#utility.yul\":753:758   */\n  0x00\n    /* \"#utility.yul\":784:790   */\n  dup2\n    /* \"#utility.yul\":778:791   */\n  mload\n    /* \"#utility.yul\":769:791   */\n  swap1\n  pop\n    /* \"#utility.yul\":800:833   */\n  tag_25\n    /* \"#utility.yul\":827:832   */\n  dup2\n    /* \"#utility.yul\":800:833   */\n  tag_12\n  jump\t// in\ntag_25:\n    /* \"#utility.yul\":696:839   */\n  swap3\n  swap2\n  pop\n  pop\n  jump\t// out\n    /* \"#utility.yul\":845:1352   */\ntag_3:\n    /* \"#utility.yul\":924:930   */\n  0x00\n    /* \"#utility.yul\":932:938   */\n  dup1\n    /* \"#utility.yul\":981:983   */\n  0x40\n    /* \"#utility.yul\":969:978   */\n  dup4\n    /* \"#utility.yul\":960:967   */\n  dup6\n    /* \"#utility.yul\":956:979   */\n  sub\n    /* \"#utility.yul\":952:984   */\n  slt\n    /* \"#utility.yul\":949:1068   */\n  iszero\n  tag_27\n  jumpi\n    /* \"#utility.yul\":987:1066   */\n  tag_28\n  tag_8\n  jump\t// in\ntag_28:\n    /* \"#utility.yul\":949:1068   */\ntag_27:\n    /* \"#utility.yul\":1107:1108   */\n  0x00\n    /* \"#utility.yul\":1132:1196   */\n  tag_29\n    /* \"#utility.yul\":1188:1195   */\n  dup6\n    /* \"#utility.yul\":1179:1185   */\n  dup3\n    /* \"#utility.yul\":1168:1177   */\n  dup7\n    /* \"#utility.yul\":1164:1186   */\n  add\n    /* \"#utility.yul\":1132:1196   */\n  tag_13\n  jump\t// in\ntag_29:\n    /* \"#utility.yul\":1122:1196   */\n  swap3\n  pop\n    /* \"#utility.yul\":1078:1206   */\n  pop\n    /* \"#utility.yul\":1245:1247   */\n  0x20\n    /* \"#utility.yul\":1271:1335   */\n  tag_30\n    /* \"#utility.yul\":1327:1334   */\n  dup6\n    /* \"#utility.yul\":1318:1324   */\n  dup3\n    /* \"#utility.yul\":1307:1316   */\n  dup7\n    /* \"#utility.yul\":1303:1325   */\n  add\n    /* \"#utility.yul\":1271:1335   */\n  tag_13\n  jump\t// in\ntag_30:\n    /* \"#utility.yul\":1261:1335   */\n  swap2\n  pop\n    /* \"#utility.yul\":1216:1345   */\n  pop\n    /* \"#utility.yul\":845:1352   */\n  swap3\n  pop\n  swap3\n  swap1\n  pop\n  jump\t// out\n    /* \"contracts/HRSLocalArbitrator.sol\":279:13316  contract HouseRentalAgreement {... */\ntag_6:\n  dataSize(sub_0)\n  dup1\n  dataOffset(sub_0)\n  0x00\n  codecopy\n  0x00\n  return\nstop\n\nsub_0: assembly {\n        /* \"contracts/HRSLocalArbitrator.sol\":279:13316  contract HouseRentalAgreement {... */\n      mstore(0x40, 0x80)\n      jumpi(tag_1, lt(calldatasize, 0x04))\n      shr(0xe0, calldataload(0x00))\n      dup1\n      0x7ef98740\n      gt\n      tag_45\n      jumpi\n      dup1\n      0xd261c91f\n      gt\n      tag_46\n      jumpi\n      dup1\n      0xdd6bcb16\n      gt\n      tag_47\n      jumpi\n      dup1\n      0xdd6bcb16\n      eq\n      tag_39\n      jumpi\n      dup1\n      0xe1505e4e\n      eq\n      tag_40\n      jumpi\n      dup1\n      0xeaa0a302\n      eq\n      tag_41\n      jumpi\n      dup1\n      0xf13702f4\n      eq\n      tag_42\n      jumpi\n      dup1\n      0xf3f43703\n      eq\n      tag_43\n      jumpi\n      dup1\n      0xfeeaea4e\n      eq\n      tag_44\n      jumpi\n      jump(tag_2)\n    tag_47:\n      dup1\n      0xd261c91f\n      eq\n      tag_34\n      jumpi\n      dup1\n      0xd738307c\n      eq\n      tag_35\n      jumpi\n      dup1\n      0xd96152c3\n      eq\n      tag_36\n      jumpi\n      dup1\n      0xdc1997ea\n      eq\n      tag_37\n      jumpi\n      dup1\n      0xdcf2559e\n      eq\n      tag_38\n      jumpi\n      jump(tag_2)\n    tag_46:\n      dup1\n      0xa972500f\n      gt\n      tag_48\n      jumpi\n      dup1\n      0xa972500f\n      eq\n      tag_29\n      jumpi\n      dup1\n      0xb0a1e2b4\n      eq\n      tag_30\n      jumpi\n      dup1\n      0xc2d6d462\n      eq\n      tag_31\n      jumpi\n      dup1\n      0xca088031\n      eq\n      tag_32\n      jumpi\n      dup1\n      0xcbe615b1\n      eq\n      tag_33\n      jumpi\n      jump(tag_2)\n    tag_48:\n      dup1\n      0x7ef98740\n      eq\n      tag_24\n      jumpi\n      dup1\n      0x81d388ba\n      eq\n      tag_25\n      jumpi\n      dup1\n      0x862a4d47\n      eq\n      tag_26\n      jumpi\n      dup1\n      0x87eaa342\n      eq\n      tag_27\n      jumpi\n      dup1\n      0xa709c4fe\n      eq\n      tag_28\n      jumpi\n      jump(tag_2)\n    tag_45:\n      dup1\n      0x47ed9c65\n      gt\n      tag_49\n      jumpi\n      dup1\n      0x6cc6cde1\n      gt\n      tag_50\n      jumpi\n      dup1\n      0x6cc6cde1\n      eq\n      tag_18\n      jumpi\n      dup1\n      0x6f3c590c\n      eq\n      tag_19\n      jumpi\n      dup1\n      0x6f9fb98a\n      eq\n      tag_20\n      jumpi\n      dup1\n      0x71357a46\n      eq\n      tag_21\n      jumpi\n      dup1\n      0x740906c0\n      eq\n      tag_22\n      jumpi\n      dup1\n      0x779318e5\n      eq\n      tag_23\n      jumpi\n      jump(tag_2)\n    tag_50:\n      dup1\n      0x47ed9c65\n      eq\n      tag_13\n      jumpi\n      dup1\n      0x561eefd8\n      eq\n      tag_14\n      jumpi\n      dup1\n      0x5a0e9bcc\n      eq\n      tag_15\n      jumpi\n      dup1\n      0x63022560\n      eq\n      tag_16\n      jumpi\n      dup1\n      0x697b05a2\n      eq\n      tag_17\n      jumpi\n      jump(tag_2)\n    tag_49:\n      dup1\n      0x220e5ab3\n      gt\n      tag_51\n      jumpi\n      dup1\n      0x220e5ab3\n      eq\n      tag_8\n      jumpi\n      dup1\n      0x22f3e2d4\n      eq\n      tag_9\n      jumpi\n      dup1\n      0x2e88ab0b\n      eq\n      tag_10\n      jumpi\n      dup1\n      0x3ccfd60b\n      eq\n      tag_11\n      jumpi\n      dup1\n      0x42c63dae\n      eq\n      tag_12\n      jumpi\n      jump(tag_2)\n    tag_51:\n      dup1\n      0x4422eb\n      eq\n      tag_3\n      jumpi\n      dup1\n      0x04a2286a\n      eq\n      tag_4\n      jumpi\n      dup1\n      0x08c59798\n      eq\n      tag_5\n      jumpi\n      dup1\n      0x1890fc37\n      eq\n      tag_6\n      jumpi\n      dup1\n      0x1a576049\n      eq\n      tag_7\n      jumpi\n      jump(tag_2)\n    tag_1:\n      jumpi(tag_2, calldatasize)\n      stop\n    tag_2:\n      0x00\n      dup1\n      revert\n        /* \"contracts/HRSLocalArbitrator.sol\":837:862  bool public disputeRaised */\n    tag_3:\n      callvalue\n      dup1\n      iszero\n      tag_54\n      jumpi\n      0x00\n      dup1\n      revert\n    tag_54:\n      pop\n      tag_55\n      tag_56\n      jump\t// in\n    tag_55:\n      mload(0x40)\n      tag_57\n      swap2\n      swap1\n      tag_58\n      jump\t// in\n    tag_57:\n      mload(0x40)\n      dup1\n      swap2\n      sub\n      swap1\n      return\n        /* \"contracts/HRSLocalArbitrator.sol\":411:434  uint256 public baseRent */\n    tag_4:\n      callvalue\n      dup1\n      iszero\n      tag_59\n      jumpi\n      0x00\n      dup1\n      revert\n    tag_59:\n      pop\n      tag_60\n      tag_61\n      jump\t// in\n    tag_60:\n      mload(0x40)\n      tag_62\n      swap2\n      swap1\n      tag_63\n      jump\t// in\n    tag_62:\n      mload(0x40)\n      dup1\n      swap2\n      sub\n      swap1\n      return\n        /* \"contracts/HRSLocalArbitrator.sol\":6527:7008  function setDamageEstimate(uint256 _damageEstimate) external {... */\n    tag_5:\n      callvalue\n      dup1\n      iszero\n      tag_64\n      jumpi\n      0x00\n      dup1\n      revert\n    tag_64:\n      pop\n      tag_65\n      0x04\n      dup1\n      calldatasize\n      sub\n      dup2\n      add\n      swap1\n      tag_66\n      swap2\n      swap1\n      tag_67\n      jump\t// in\n    tag_66:\n      tag_68\n      jump\t// in\n    tag_65:\n      stop\n        /* \"contracts/HRSLocalArbitrator.sol\":8989:9697  function rejectRenterCounterEstimate() external {... */\n    tag_6:\n      callvalue\n      dup1\n      iszero\n      tag_69\n      jumpi\n      0x00\n      dup1\n      revert\n    tag_69:\n      pop\n      tag_70\n      tag_71\n      jump\t// in\n    tag_70:\n      stop\n        /* \"contracts/HRSLocalArbitrator.sol\":579:608  uint256 public damageEstimate */\n    tag_7:\n      callvalue\n      dup1\n      iszero\n      tag_72\n      jumpi\n      0x00\n      dup1\n      revert\n    tag_72:\n      pop\n      tag_73\n      tag_74\n      jump\t// in\n    tag_73:\n      mload(0x40)\n      tag_75\n      swap2\n      swap1\n      tag_63\n      jump\t// in\n    tag_75:\n      mload(0x40)\n      dup1\n      swap2\n      sub\n      swap1\n      return\n        /* \"contracts/HRSLocalArbitrator.sol\":374:404  uint256 public securityDeposit */\n    tag_8:\n      callvalue\n      dup1\n      iszero\n      tag_76\n      jumpi\n      0x00\n      dup1\n      revert\n    tag_76:\n      pop\n      tag_77\n      tag_78\n      jump\t// in\n    tag_77:\n      mload(0x40)\n      tag_79\n      swap2\n      swap1\n      tag_63\n      jump\t// in\n    tag_79:\n      mload(0x40)\n      dup1\n      swap2\n      sub\n      swap1\n      return\n        /* \"contracts/HRSLocalArbitrator.sol\":770:790  bool public isActive */\n    tag_9:\n      callvalue\n      dup1\n      iszero\n      tag_80\n      jumpi\n      0x00\n      dup1\n      revert\n    tag_80:\n      pop\n      tag_81\n      tag_82\n      jump\t// in\n    tag_81:\n      mload(0x40)\n      tag_83\n      swap2\n      swap1\n      tag_58\n      jump\t// in\n    tag_83:\n      mload(0x40)\n      dup1\n      swap2\n      sub\n      swap1\n      return\n        /* \"contracts/HRSLocalArbitrator.sol\":346:367  address public renter */\n    tag_10:\n      callvalue\n      dup1\n      iszero\n      tag_84\n      jumpi\n      0x00\n      dup1\n      revert\n    tag_84:\n      pop\n      tag_85\n      tag_86\n      jump\t// in\n    tag_85:\n      mload(0x40)\n      tag_87\n      swap2\n      swap1\n      tag_88\n      jump\t// in\n    tag_87:\n      mload(0x40)\n      dup1\n      swap2\n      sub\n      swap1\n      return\n        /* \"contracts/HRSLocalArbitrator.sol\":11592:11957  function withdraw() external {... */\n    tag_11:\n      callvalue\n      dup1\n      iszero\n      tag_89\n      jumpi\n      0x00\n      dup1\n      revert\n    tag_89:\n      pop\n      tag_90\n      tag_91\n      jump\t// in\n    tag_90:\n      stop\n        /* \"contracts/HRSLocalArbitrator.sol\":3121:3724  function paySecurityDeposit() external payable {... */\n    tag_12:\n      tag_92\n      tag_93\n      jump\t// in\n    tag_92:\n      stop\n        /* \"contracts/HRSLocalArbitrator.sol\":943:979  bool public renterCounterEstimateSet */\n    tag_13:\n      callvalue\n      dup1\n      iszero\n      tag_94\n      jumpi\n      0x00\n      dup1\n      revert\n    tag_94:\n      pop\n      tag_95\n      tag_96\n      jump\t// in\n    tag_95:\n      mload(0x40)\n      tag_97\n      swap2\n      swap1\n      tag_58\n      jump\t// in\n    tag_97:\n      mload(0x40)\n      dup1\n      swap2\n      sub\n      swap1\n      return\n        /* \"contracts/HRSLocalArbitrator.sol\":481:509  uint256 public rentStartDate */\n    tag_14:\n      callvalue\n      dup1\n      iszero\n      tag_98\n      jumpi\n      0x00\n      dup1\n      revert\n    tag_98:\n      pop\n      tag_99\n      tag_100\n      jump\t// in\n    tag_99:\n      mload(0x40)\n      tag_101\n      swap2\n      swap1\n      tag_63\n      jump\t// in\n    tag_101:\n      mload(0x40)\n      dup1\n      swap2\n      sub\n      swap1\n      return\n        /* \"contracts/HRSLocalArbitrator.sol\":869:898  bool public rentalPeriodEnded */\n    tag_15:\n      callvalue\n      dup1\n      iszero\n      tag_102\n      jumpi\n      0x00\n      dup1\n      revert\n    tag_102:\n      pop\n      tag_103\n      tag_104\n      jump\t// in\n    tag_103:\n      mload(0x40)\n      tag_105\n      swap2\n      swap1\n      tag_58\n      jump\t// in\n    tag_105:\n      mload(0x40)\n      dup1\n      swap2\n      sub\n      swap1\n      return\n        /* \"contracts/HRSLocalArbitrator.sol\":13159:13276  function getArbitrationCost() public view returns (uint256) {... */\n    tag_16:\n      callvalue\n      dup1\n      iszero\n      tag_106\n      jumpi\n      0x00\n      dup1\n      revert\n    tag_106:\n      pop\n      tag_107\n      tag_108\n      jump\t// in\n    tag_107:\n      mload(0x40)\n      tag_109\n      swap2\n      swap1\n      tag_63\n      jump\t// in\n    tag_109:\n      mload(0x40)\n      dup1\n      swap2\n      sub\n      swap1\n      return\n        /* \"contracts/HRSLocalArbitrator.sol\":733:763  uint256 public arbitrationCost */\n    tag_17:\n      callvalue\n      dup1\n      iszero\n      tag_110\n      jumpi\n      0x00\n      dup1\n      revert\n    tag_110:\n      pop\n      tag_111\n      tag_112\n      jump\t// in\n    tag_111:\n      mload(0x40)\n      tag_113\n      swap2\n      swap1\n      tag_63\n      jump\t// in\n    tag_113:\n      mload(0x40)\n      dup1\n      swap2\n      sub\n      swap1\n      return\n        /* \"contracts/HRSLocalArbitrator.sol\":988:1022  ILocalArbitrator public arbitrator */\n    tag_18:\n      callvalue\n      dup1\n      iszero\n      tag_114\n      jumpi\n      0x00\n      dup1\n      revert\n    tag_114:\n      pop\n      tag_115\n      tag_116\n      jump\t// in\n    tag_115:\n      mload(0x40)\n      tag_117\n      swap2\n      swap1\n      tag_118\n      jump\t// in\n    tag_117:\n      mload(0x40)\n      dup1\n      swap2\n      sub\n      swap1\n      return\n        /* \"contracts/HRSLocalArbitrator.sol\":550:572  uint256 public dueRent */\n    tag_19:\n      callvalue\n      dup1\n      iszero\n      tag_119\n      jumpi\n      0x00\n      dup1\n      revert\n    tag_119:\n      pop\n      tag_120\n      tag_121\n      jump\t// in\n    tag_120:\n      mload(0x40)\n      tag_122\n      swap2\n      swap1\n      tag_63\n      jump\t// in\n    tag_122:\n      mload(0x40)\n      dup1\n      swap2\n      sub\n      swap1\n      return\n        /* \"contracts/HRSLocalArbitrator.sol\":12808:12917  function getContractBalance() external view returns (uint256) {... */\n    tag_20:\n      callvalue\n      dup1\n      iszero\n      tag_123\n      jumpi\n      0x00\n      dup1\n      revert\n    tag_123:\n      pop\n      tag_124\n      tag_125\n      jump\t// in\n    tag_124:\n      mload(0x40)\n      tag_126\n      swap2\n      swap1\n      tag_63\n      jump\t// in\n    tag_126:\n      mload(0x40)\n      dup1\n      swap2\n      sub\n      swap1\n      return\n        /* \"contracts/HRSLocalArbitrator.sol\":905:936  bool public landlordEstimateSet */\n    tag_21:\n      callvalue\n      dup1\n      iszero\n      tag_127\n      jumpi\n      0x00\n      dup1\n      revert\n    tag_127:\n      pop\n      tag_128\n      tag_129\n      jump\t// in\n    tag_128:\n      mload(0x40)\n      tag_130\n      swap2\n      swap1\n      tag_58\n      jump\t// in\n    tag_130:\n      mload(0x40)\n      dup1\n      swap2\n      sub\n      swap1\n      return\n        /* \"contracts/HRSLocalArbitrator.sol\":12089:12201  function getRenterBalance() external view returns (uint256) {... */\n    tag_22:\n      callvalue\n      dup1\n      iszero\n      tag_131\n      jumpi\n      0x00\n      dup1\n      revert\n    tag_131:\n      pop\n      tag_132\n      tag_133\n      jump\t// in\n    tag_132:\n      mload(0x40)\n      tag_134\n      swap2\n      swap1\n      tag_63\n      jump\t// in\n    tag_134:\n      mload(0x40)\n      dup1\n      swap2\n      sub\n      swap1\n      return\n        /* \"contracts/HRSLocalArbitrator.sol\":13036:13151  function getCurrentSecurityDeposit() public view returns (uint256) {... */\n    tag_23:\n      callvalue\n      dup1\n      iszero\n      tag_135\n      jumpi\n      0x00\n      dup1\n      revert\n    tag_135:\n      pop\n      tag_136\n      tag_137\n      jump\t// in\n    tag_136:\n      mload(0x40)\n      tag_138\n      swap2\n      swap1\n      tag_63\n      jump\t// in\n    tag_138:\n      mload(0x40)\n      dup1\n      swap2\n      sub\n      swap1\n      return\n        /* \"contracts/HRSLocalArbitrator.sol\":4101:4552  function recordUtilities(uint256 _utilities) external {... */\n    tag_24:\n      callvalue\n      dup1\n      iszero\n      tag_139\n      jumpi\n      0x00\n      dup1\n      revert\n    tag_139:\n      pop\n      tag_140\n      0x04\n      dup1\n      calldatasize\n      sub\n      dup2\n      add\n      swap1\n      tag_141\n      swap2\n      swap1\n      tag_67\n      jump\t// in\n    tag_141:\n      tag_142\n      jump\t// in\n    tag_140:\n      stop\n        /* \"contracts/HRSLocalArbitrator.sol\":615:651  uint256 public renterCounterEstimate */\n    tag_25:\n      callvalue\n      dup1\n      iszero\n      tag_143\n      jumpi\n      0x00\n      dup1\n      revert\n    tag_143:\n      pop\n      tag_144\n      tag_145\n      jump\t// in\n    tag_144:\n      mload(0x40)\n      tag_146\n      swap2\n      swap1\n      tag_63\n      jump\t// in\n    tag_146:\n      mload(0x40)\n      dup1\n      swap2\n      sub\n      swap1\n      return\n        /* \"contracts/HRSLocalArbitrator.sol\":516:543  uint256 public currentMonth */\n    tag_26:\n      callvalue\n      dup1\n      iszero\n      tag_147\n      jumpi\n      0x00\n      dup1\n      revert\n    tag_147:\n      pop\n      tag_148\n      tag_149\n      jump\t// in\n    tag_148:\n      mload(0x40)\n      tag_150\n      swap2\n      swap1\n      tag_63\n      jump\t// in\n    tag_150:\n      mload(0x40)\n      dup1\n      swap2\n      sub\n      swap1\n      return\n        /* \"contracts/HRSLocalArbitrator.sol\":441:474  uint256 public rentPeriodInMonths */\n    tag_27:\n      callvalue\n      dup1\n      iszero\n      tag_151\n      jumpi\n      0x00\n      dup1\n      revert\n    tag_151:\n      pop\n      tag_152\n      tag_153\n      jump\t// in\n    tag_152:\n      mload(0x40)\n      tag_154\n      swap2\n      swap1\n      tag_63\n      jump\t// in\n    tag_154:\n      mload(0x40)\n      dup1\n      swap2\n      sub\n      swap1\n      return\n        /* \"contracts/HRSLocalArbitrator.sol\":4560:5691  function payRent() external payable {... */\n    tag_28:\n      tag_155\n      tag_156\n      jump\t// in\n    tag_155:\n      stop\n        /* \"contracts/HRSLocalArbitrator.sol\":3732:4093  function initializeCurrentSecurityDeposit() external {... */\n    tag_29:\n      callvalue\n      dup1\n      iszero\n      tag_157\n      jumpi\n      0x00\n      dup1\n      revert\n    tag_157:\n      pop\n      tag_158\n      tag_159\n      jump\t// in\n    tag_158:\n      stop\n        /* \"contracts/HRSLocalArbitrator.sol\":658:682  uint256 public disputeID */\n    tag_30:\n      callvalue\n      dup1\n      iszero\n      tag_160\n      jumpi\n      0x00\n      dup1\n      revert\n    tag_160:\n      pop\n      tag_161\n      tag_162\n      jump\t// in\n    tag_161:\n      mload(0x40)\n      tag_163\n      swap2\n      swap1\n      tag_63\n      jump\t// in\n    tag_163:\n      mload(0x40)\n      dup1\n      swap2\n      sub\n      swap1\n      return\n        /* \"contracts/HRSLocalArbitrator.sol\":7905:8311  function setRenterCounterEstimate(uint256 _renterCounterEstimate) external {... */\n    tag_31:\n      callvalue\n      dup1\n      iszero\n      tag_164\n      jumpi\n      0x00\n      dup1\n      revert\n    tag_164:\n      pop\n      tag_165\n      0x04\n      dup1\n      calldatasize\n      sub\n      dup2\n      add\n      swap1\n      tag_166\n      swap2\n      swap1\n      tag_67\n      jump\t// in\n    tag_166:\n      tag_167\n      jump\t// in\n    tag_165:\n      stop\n        /* \"contracts/HRSLocalArbitrator.sol\":5699:6519  function skipRentPayment() external {... */\n    tag_32:\n      callvalue\n      dup1\n      iszero\n      tag_168\n      jumpi\n      0x00\n      dup1\n      revert\n    tag_168:\n      pop\n      tag_169\n      tag_170\n      jump\t// in\n    tag_169:\n      stop\n        /* \"contracts/HRSLocalArbitrator.sol\":12925:13028  function isRentalPeriodEnded() external view returns (bool) {... */\n    tag_33:\n      callvalue\n      dup1\n      iszero\n      tag_171\n      jumpi\n      0x00\n      dup1\n      revert\n    tag_171:\n      pop\n      tag_172\n      tag_173\n      jump\t// in\n    tag_172:\n      mload(0x40)\n      tag_174\n      swap2\n      swap1\n      tag_58\n      jump\t// in\n    tag_174:\n      mload(0x40)\n      dup1\n      swap2\n      sub\n      swap1\n      return\n        /* \"contracts/HRSLocalArbitrator.sol\":689:726  uint256 public currentSecurityDeposit */\n    tag_34:\n      callvalue\n      dup1\n      iszero\n      tag_175\n      jumpi\n      0x00\n      dup1\n      revert\n    tag_175:\n      pop\n      tag_176\n      tag_177\n      jump\t// in\n    tag_176:\n      mload(0x40)\n      tag_178\n      swap2\n      swap1\n      tag_63\n      jump\t// in\n    tag_178:\n      mload(0x40)\n      dup1\n      swap2\n      sub\n      swap1\n      return\n        /* \"contracts/HRSLocalArbitrator.sol\":2643:3113  function setAgreementTerms(uint256 _securityDeposit, uint256 _baseRent, uint256 _rentPeriodInMonths) external {... */\n    tag_35:\n      callvalue\n      dup1\n      iszero\n      tag_179\n      jumpi\n      0x00\n      dup1\n      revert\n    tag_179:\n      pop\n      tag_180\n      0x04\n      dup1\n      calldatasize\n      sub\n      dup2\n      add\n      swap1\n      tag_181\n      swap2\n      swap1\n      tag_182\n      jump\t// in\n    tag_181:\n      tag_183\n      jump\t// in\n    tag_180:\n      stop\n        /* \"contracts/HRSLocalArbitrator.sol\":9705:11583  function executeRuling(uint256 _disputeID, uint256 _ruling) external {... */\n    tag_36:\n      callvalue\n      dup1\n      iszero\n      tag_184\n      jumpi\n      0x00\n      dup1\n      revert\n    tag_184:\n      pop\n      tag_185\n      0x04\n      dup1\n      calldatasize\n      sub\n      dup2\n      add\n      swap1\n      tag_186\n      swap2\n      swap1\n      tag_187\n      jump\t// in\n    tag_186:\n      tag_188\n      jump\t// in\n    tag_185:\n      stop\n        /* \"contracts/HRSLocalArbitrator.sol\":316:339  address public landlord */\n    tag_37:\n      callvalue\n      dup1\n      iszero\n      tag_189\n      jumpi\n      0x00\n      dup1\n      revert\n    tag_189:\n      pop\n      tag_190\n      tag_191\n      jump\t// in\n    tag_190:\n      mload(0x40)\n      tag_192\n      swap2\n      swap1\n      tag_88\n      jump\t// in\n    tag_192:\n      mload(0x40)\n      dup1\n      swap2\n      sub\n      swap1\n      return\n        /* \"contracts/HRSLocalArbitrator.sol\":7651:7897  function rejectLandlordEstimate() external {... */\n    tag_38:\n      callvalue\n      dup1\n      iszero\n      tag_193\n      jumpi\n      0x00\n      dup1\n      revert\n    tag_193:\n      pop\n      tag_194\n      tag_195\n      jump\t// in\n    tag_194:\n      stop\n        /* \"contracts/HRSLocalArbitrator.sol\":7016:7643  function acceptLandlordEstimate() external {... */\n    tag_39:\n      callvalue\n      dup1\n      iszero\n      tag_196\n      jumpi\n      0x00\n      dup1\n      revert\n    tag_196:\n      pop\n      tag_197\n      tag_198\n      jump\t// in\n    tag_197:\n      stop\n        /* \"contracts/HRSLocalArbitrator.sol\":1163:1214  mapping(uint256 => MonthlyRent) public monthlyRents */\n    tag_40:\n      callvalue\n      dup1\n      iszero\n      tag_199\n      jumpi\n      0x00\n      dup1\n      revert\n    tag_199:\n      pop\n      tag_200\n      0x04\n      dup1\n      calldatasize\n      sub\n      dup2\n      add\n      swap1\n      tag_201\n      swap2\n      swap1\n      tag_67\n      jump\t// in\n    tag_201:\n      tag_202\n      jump\t// in\n    tag_200:\n      mload(0x40)\n      tag_203\n      swap5\n      swap4\n      swap3\n      swap2\n      swap1\n      tag_204\n      jump\t// in\n    tag_203:\n      mload(0x40)\n      dup1\n      swap2\n      sub\n      swap1\n      return\n        /* \"contracts/HRSLocalArbitrator.sol\":8319:8981  function acceptRenterCounterEstimate() external {... */\n    tag_41:\n      callvalue\n      dup1\n      iszero\n      tag_205\n      jumpi\n      0x00\n      dup1\n      revert\n    tag_205:\n      pop\n      tag_206\n      tag_207\n      jump\t// in\n    tag_206:\n      stop\n        /* \"contracts/HRSLocalArbitrator.sol\":797:830  bool public isSecurityDepositPaid */\n    tag_42:\n      callvalue\n      dup1\n      iszero\n      tag_208\n      jumpi\n      0x00\n      dup1\n      revert\n    tag_208:\n      pop\n      tag_209\n      tag_210\n      jump\t// in\n    tag_209:\n      mload(0x40)\n      tag_211\n      swap2\n      swap1\n      tag_58\n      jump\t// in\n    tag_211:\n      mload(0x40)\n      dup1\n      swap2\n      sub\n      swap1\n      return\n        /* \"contracts/HRSLocalArbitrator.sol\":1221:1274  mapping(address => uint256) public pendingWithdrawals */\n    tag_43:\n      callvalue\n      dup1\n      iszero\n      tag_212\n      jumpi\n      0x00\n      dup1\n      revert\n    tag_212:\n      pop\n      tag_213\n      0x04\n      dup1\n      calldatasize\n      sub\n      dup2\n      add\n      swap1\n      tag_214\n      swap2\n      swap1\n      tag_215\n      jump\t// in\n    tag_214:\n      tag_216\n      jump\t// in\n    tag_213:\n      mload(0x40)\n      tag_217\n      swap2\n      swap1\n      tag_63\n      jump\t// in\n    tag_217:\n      mload(0x40)\n      dup1\n      swap2\n      sub\n      swap1\n      return\n        /* \"contracts/HRSLocalArbitrator.sol\":11965:12081  function getLandlordBalance() external view returns (uint256) {... */\n    tag_44:\n      callvalue\n      dup1\n      iszero\n      tag_218\n      jumpi\n      0x00\n      dup1\n      revert\n    tag_218:\n      pop\n      tag_219\n      tag_220\n      jump\t// in\n    tag_219:\n      mload(0x40)\n      tag_221\n      swap2\n      swap1\n      tag_63\n      jump\t// in\n    tag_221:\n      mload(0x40)\n      dup1\n      swap2\n      sub\n      swap1\n      return\n        /* \"contracts/HRSLocalArbitrator.sol\":837:862  bool public disputeRaised */\n    tag_56:\n      0x0d\n      0x02\n      swap1\n      sload\n      swap1\n      0x0100\n      exp\n      swap1\n      div\n      0xff\n      and\n      dup2\n      jump\t// out\n        /* \"contracts/HRSLocalArbitrator.sol\":411:434  uint256 public baseRent */\n    tag_61:\n      sload(0x03)\n      dup2\n      jump\t// out\n        /* \"contracts/HRSLocalArbitrator.sol\":6527:7008  function setDamageEstimate(uint256 _damageEstimate) external {... */\n    tag_68:\n        /* \"contracts/HRSLocalArbitrator.sol\":6621:6629  landlord */\n      0x00\n      dup1\n      sload\n      swap1\n      0x0100\n      exp\n      swap1\n      div\n      0xffffffffffffffffffffffffffffffffffffffff\n      and\n        /* \"contracts/HRSLocalArbitrator.sol\":6607:6629  msg.sender == landlord */\n      0xffffffffffffffffffffffffffffffffffffffff\n      and\n        /* \"contracts/HRSLocalArbitrator.sol\":6607:6617  msg.sender */\n      caller\n        /* \"contracts/HRSLocalArbitrator.sol\":6607:6629  msg.sender == landlord */\n      0xffffffffffffffffffffffffffffffffffffffff\n      and\n      eq\n        /* \"contracts/HRSLocalArbitrator.sol\":6599:6675  require(msg.sender == landlord, \"Only landlord can set the damage estimate\") */\n      tag_223\n      jumpi\n      mload(0x40)\n      0x08c379a000000000000000000000000000000000000000000000000000000000\n      dup2\n      mstore\n      0x04\n      add\n      tag_224\n      swap1\n      tag_225\n      jump\t// in\n    tag_224:\n      mload(0x40)\n      dup1\n      swap2\n      sub\n      swap1\n      revert\n    tag_223:\n        /* \"contracts/HRSLocalArbitrator.sol\":6694:6711  rentalPeriodEnded */\n      0x0d\n      0x03\n      swap1\n      sload\n      swap1\n      0x0100\n      exp\n      swap1\n      div\n      0xff\n      and\n        /* \"contracts/HRSLocalArbitrator.sol\":6686:6745  require(rentalPeriodEnded, \"Rent period has not ended yet\") */\n      tag_226\n      jumpi\n      mload(0x40)\n      0x08c379a000000000000000000000000000000000000000000000000000000000\n      dup2\n      mstore\n      0x04\n      add\n      tag_227\n      swap1\n      tag_228\n      jump\t// in\n    tag_227:\n      mload(0x40)\n      dup1\n      swap2\n      sub\n      swap1\n      revert\n    tag_226:\n        /* \"contracts/HRSLocalArbitrator.sol\":6765:6784  landlordEstimateSet */\n      0x0d\n      0x04\n      swap1\n      sload\n      swap1\n      0x0100\n      exp\n      swap1\n      div\n      0xff\n      and\n        /* \"contracts/HRSLocalArbitrator.sol\":6764:6784  !landlordEstimateSet */\n      iszero\n        /* \"contracts/HRSLocalArbitrator.sol\":6756:6816  require(!landlordEstimateSet, \"Damage estimate already set\") */\n      tag_229\n      jumpi\n      mload(0x40)\n      0x08c379a000000000000000000000000000000000000000000000000000000000\n      dup2\n      mstore\n      0x04\n      add\n      tag_230\n      swap1\n      tag_231\n      jump\t// in\n    tag_230:\n      mload(0x40)\n      dup1\n      swap2\n      sub\n      swap1\n      revert\n    tag_229:\n        /* \"contracts/HRSLocalArbitrator.sol\":6835:6843  isActive */\n      0x0d\n      0x00\n      swap1\n      sload\n      swap1\n      0x0100\n      exp\n      swap1\n      div\n      0xff\n      and\n        /* \"contracts/HRSLocalArbitrator.sol\":6827:6870  require(isActive, \"Contract is not active\") */\n      tag_232\n      jumpi\n      mload(0x40)\n      0x08c379a000000000000000000000000000000000000000000000000000000000\n      dup2\n      mstore\n      0x04\n      add\n      tag_233\n      swap1\n      tag_234\n      jump\t// in\n    tag_233:\n      mload(0x40)\n      dup1\n      swap2\n      sub\n      swap1\n      revert\n    tag_232:\n        /* \"contracts/HRSLocalArbitrator.sol\":6898:6913  _damageEstimate */\n      dup1\n        /* \"contracts/HRSLocalArbitrator.sol\":6881:6895  damageEstimate */\n      0x08\n        /* \"contracts/HRSLocalArbitrator.sol\":6881:6913  damageEstimate = _damageEstimate */\n      dup2\n      swap1\n      sstore\n      pop\n        /* \"contracts/HRSLocalArbitrator.sol\":6946:6950  true */\n      0x01\n        /* \"contracts/HRSLocalArbitrator.sol\":6924:6943  landlordEstimateSet */\n      0x0d\n      0x04\n        /* \"contracts/HRSLocalArbitrator.sol\":6924:6950  landlordEstimateSet = true */\n      0x0100\n      exp\n      dup2\n      sload\n      dup2\n      0xff\n      mul\n      not\n      and\n      swap1\n      dup4\n      iszero\n      iszero\n      mul\n      or\n      swap1\n      sstore\n      pop\n        /* \"contracts/HRSLocalArbitrator.sol\":6966:7000  DamageEstimateSet(_damageEstimate) */\n      0x192101de3933394fedeb636ffadd15c20b3e23e4913ab4051c171a26c90a3459\n        /* \"contracts/HRSLocalArbitrator.sol\":6984:6999  _damageEstimate */\n      dup2\n        /* \"contracts/HRSLocalArbitrator.sol\":6966:7000  DamageEstimateSet(_damageEstimate) */\n      mload(0x40)\n      tag_235\n      swap2\n      swap1\n      tag_63\n      jump\t// in\n    tag_235:\n      mload(0x40)\n      dup1\n      swap2\n      sub\n      swap1\n      log1\n        /* \"contracts/HRSLocalArbitrator.sol\":6527:7008  function setDamageEstimate(uint256 _damageEstimate) external {... */\n      pop\n      jump\t// out\n        /* \"contracts/HRSLocalArbitrator.sol\":8989:9697  function rejectRenterCounterEstimate() external {... */\n    tag_71:\n        /* \"contracts/HRSLocalArbitrator.sol\":9070:9078  landlord */\n      0x00\n      dup1\n      sload\n      swap1\n      0x0100\n      exp\n      swap1\n      div\n      0xffffffffffffffffffffffffffffffffffffffff\n      and\n        /* \"contracts/HRSLocalArbitrator.sol\":9056:9078  msg.sender == landlord */\n      0xffffffffffffffffffffffffffffffffffffffff\n      and\n        /* \"contracts/HRSLocalArbitrator.sol\":9056:9066  msg.sender */\n      caller\n        /* \"contracts/HRSLocalArbitrator.sol\":9056:9078  msg.sender == landlord */\n      0xffffffffffffffffffffffffffffffffffffffff\n      and\n      eq\n        /* \"contracts/HRSLocalArbitrator.sol\":9048:9128  require(msg.sender == landlord, \"Only landlord can reject the counter estimate\") */\n      tag_237\n      jumpi\n      mload(0x40)\n      0x08c379a000000000000000000000000000000000000000000000000000000000\n      dup2\n      mstore\n      0x04\n      add\n      tag_238\n      swap1\n      tag_239\n      jump\t// in\n    tag_238:\n      mload(0x40)\n      dup1\n      swap2\n      sub\n      swap1\n      revert\n    tag_237:\n        /* \"contracts/HRSLocalArbitrator.sol\":9147:9171  renterCounterEstimateSet */\n      0x0d\n      0x05\n      swap1\n      sload\n      swap1\n      0x0100\n      exp\n      swap1\n      div\n      0xff\n      and\n        /* \"contracts/HRSLocalArbitrator.sol\":9139:9214  require(renterCounterEstimateSet, \"Renter must set counter estimate first\") */\n      tag_240\n      jumpi\n      mload(0x40)\n      0x08c379a000000000000000000000000000000000000000000000000000000000\n      dup2\n      mstore\n      0x04\n      add\n      tag_241\n      swap1\n      tag_242\n      jump\t// in\n    tag_241:\n      mload(0x40)\n      dup1\n      swap2\n      sub\n      swap1\n      revert\n    tag_240:\n        /* \"contracts/HRSLocalArbitrator.sol\":9253:9263  arbitrator */\n      0x0d\n      0x06\n      swap1\n      sload\n      swap1\n      0x0100\n      exp\n      swap1\n      div\n      0xffffffffffffffffffffffffffffffffffffffff\n      and\n        /* \"contracts/HRSLocalArbitrator.sol\":9253:9282  arbitrator.getArbitrationCost */\n      0xffffffffffffffffffffffffffffffffffffffff\n      and\n      0x63022560\n        /* \"contracts/HRSLocalArbitrator.sol\":9253:9284  arbitrator.getArbitrationCost() */\n      mload(0x40)\n      dup2\n      0xffffffff\n      and\n      0xe0\n      shl\n      dup2\n      mstore\n      0x04\n      add\n      0x20\n      mload(0x40)\n      dup1\n      dup4\n      sub\n      dup2\n      dup7\n      gas\n      staticcall\n      iszero\n      dup1\n      iszero\n      tag_244\n      jumpi\n      returndatasize\n      0x00\n      dup1\n      returndatacopy\n      revert(0x00, returndatasize)\n    tag_244:\n      pop\n      pop\n      pop\n      pop\n      mload(0x40)\n      returndatasize\n      not(0x1f)\n      0x1f\n      dup3\n      add\n      and\n      dup3\n      add\n      dup1\n      0x40\n      mstore\n      pop\n      dup2\n      add\n      swap1\n      tag_245\n      swap2\n      swap1\n      tag_246\n      jump\t// in\n    tag_245:\n        /* \"contracts/HRSLocalArbitrator.sol\":9235:9250  arbitrationCost */\n      0x0c\n        /* \"contracts/HRSLocalArbitrator.sol\":9235:9284  arbitrationCost = arbitrator.getArbitrationCost() */\n      dup2\n      swap1\n      sstore\n      pop\n        /* \"contracts/HRSLocalArbitrator.sol\":9329:9344  arbitrationCost */\n      sload(0x0c)\n        /* \"contracts/HRSLocalArbitrator.sol\":9303:9325  currentSecurityDeposit */\n      sload(0x0b)\n        /* \"contracts/HRSLocalArbitrator.sol\":9303:9344  currentSecurityDeposit >= arbitrationCost */\n      lt\n      iszero\n        /* \"contracts/HRSLocalArbitrator.sol\":9295:9405  require(currentSecurityDeposit >= arbitrationCost, \"Security deposit insufficient to cover arbitration costs\") */\n      tag_247\n      jumpi\n      mload(0x40)\n      0x08c379a000000000000000000000000000000000000000000000000000000000\n      dup2\n      mstore\n      0x04\n      add\n      tag_248\n      swap1\n      tag_249\n      jump\t// in\n    tag_248:\n      mload(0x40)\n      dup1\n      swap2\n      sub\n      swap1\n      revert\n    tag_247:\n        /* \"contracts/HRSLocalArbitrator.sol\":9452:9467  arbitrationCost */\n      sload(0x0c)\n        /* \"contracts/HRSLocalArbitrator.sol\":9426:9448  currentSecurityDeposit */\n      0x0b\n      0x00\n        /* \"contracts/HRSLocalArbitrator.sol\":9426:9467  currentSecurityDeposit -= arbitrationCost */\n      dup3\n      dup3\n      sload\n      tag_250\n      swap2\n      swap1\n      tag_251\n      jump\t// in\n    tag_250:\n      swap3\n      pop\n      pop\n      dup2\n      swap1\n      sstore\n      pop\n        /* \"contracts/HRSLocalArbitrator.sol\":9490:9500  arbitrator */\n      0x0d\n      0x06\n      swap1\n      sload\n      swap1\n      0x0100\n      exp\n      swap1\n      div\n      0xffffffffffffffffffffffffffffffffffffffff\n      and\n        /* \"contracts/HRSLocalArbitrator.sol\":9490:9514  arbitrator.createDispute */\n      0xffffffffffffffffffffffffffffffffffffffff\n      and\n      0xf26999cd\n        /* \"contracts/HRSLocalArbitrator.sol\":9522:9537  arbitrationCost */\n      sload(0x0c)\n        /* \"contracts/HRSLocalArbitrator.sol\":9539:9553  damageEstimate */\n      sload(0x08)\n        /* \"contracts/HRSLocalArbitrator.sol\":9555:9576  renterCounterEstimate */\n      sload(0x09)\n        /* \"contracts/HRSLocalArbitrator.sol\":9490:9577  arbitrator.createDispute{value: arbitrationCost}(damageEstimate, renterCounterEstimate) */\n      mload(0x40)\n      dup5\n      0xffffffff\n      and\n      0xe0\n      shl\n      dup2\n      mstore\n      0x04\n      add\n      tag_252\n      swap3\n      swap2\n      swap1\n      tag_253\n      jump\t// in\n    tag_252:\n      0x20\n      mload(0x40)\n      dup1\n      dup4\n      sub\n      dup2\n      dup6\n      dup9\n      gas\n      call\n      iszero\n      dup1\n      iszero\n      tag_255\n      jumpi\n      returndatasize\n      0x00\n      dup1\n      returndatacopy\n      revert(0x00, returndatasize)\n    tag_255:\n      pop\n      pop\n      pop\n      pop\n      pop\n      mload(0x40)\n      returndatasize\n      not(0x1f)\n      0x1f\n      dup3\n      add\n      and\n      dup3\n      add\n      dup1\n      0x40\n      mstore\n      pop\n      dup2\n      add\n      swap1\n      tag_256\n      swap2\n      swap1\n      tag_246\n      jump\t// in\n    tag_256:\n        /* \"contracts/HRSLocalArbitrator.sol\":9478:9487  disputeID */\n      0x0a\n        /* \"contracts/HRSLocalArbitrator.sol\":9478:9577  disputeID = arbitrator.createDispute{value: arbitrationCost}(damageEstimate, renterCounterEstimate) */\n      dup2\n      swap1\n      sstore\n      pop\n        /* \"contracts/HRSLocalArbitrator.sol\":9604:9608  true */\n      0x01\n        /* \"contracts/HRSLocalArbitrator.sol\":9588:9601  disputeRaised */\n      0x0d\n      0x02\n        /* \"contracts/HRSLocalArbitrator.sol\":9588:9608  disputeRaised = true */\n      0x0100\n      exp\n      dup2\n      sload\n      dup2\n      0xff\n      mul\n      not\n      and\n      swap1\n      dup4\n      iszero\n      iszero\n      mul\n      or\n      swap1\n      sstore\n      pop\n        /* \"contracts/HRSLocalArbitrator.sol\":9624:9648  DisputeRaised(disputeID) */\n      0x04901f83201c8724eadf084436db8aa391820bae6d11f9f78a17edb6f2eef3cf\n        /* \"contracts/HRSLocalArbitrator.sol\":9638:9647  disputeID */\n      sload(0x0a)\n        /* \"contracts/HRSLocalArbitrator.sol\":9624:9648  DisputeRaised(disputeID) */\n      mload(0x40)\n      tag_257\n      swap2\n      swap1\n      tag_63\n      jump\t// in\n    tag_257:\n      mload(0x40)\n      dup1\n      swap2\n      sub\n      swap1\n      log1\n        /* \"contracts/HRSLocalArbitrator.sol\":9664:9689  CounterEstimateRejected() */\n      0xa7d8a4744bc13e083818434dde26551ea9b29c6425677ebc90cd5dd09ce6b5c7\n      mload(0x40)\n      mload(0x40)\n      dup1\n      swap2\n      sub\n      swap1\n      log1\n        /* \"contracts/HRSLocalArbitrator.sol\":8989:9697  function rejectRenterCounterEstimate() external {... */\n      jump\t// out\n        /* \"contracts/HRSLocalArbitrator.sol\":579:608  uint256 public damageEstimate */\n    tag_74:\n      sload(0x08)\n      dup2\n      jump\t// out\n        /* \"contracts/HRSLocalArbitrator.sol\":374:404  uint256 public securityDeposit */\n    tag_78:\n      sload(0x02)\n      dup2\n      jump\t// out\n        /* \"contracts/HRSLocalArbitrator.sol\":770:790  bool public isActive */\n    tag_82:\n      0x0d\n      0x00\n      swap1\n      sload\n      swap1\n      0x0100\n      exp\n      swap1\n      div\n      0xff\n      and\n      dup2\n      jump\t// out\n        /* \"contracts/HRSLocalArbitrator.sol\":346:367  address public renter */\n    tag_86:\n      0x01\n      0x00\n      swap1\n      sload\n      swap1\n      0x0100\n      exp\n      swap1\n      div\n      0xffffffffffffffffffffffffffffffffffffffff\n      and\n      dup2\n      jump\t// out\n        /* \"contracts/HRSLocalArbitrator.sol\":11592:11957  function withdraw() external {... */\n    tag_91:\n        /* \"contracts/HRSLocalArbitrator.sol\":11632:11646  uint256 amount */\n      0x00\n        /* \"contracts/HRSLocalArbitrator.sol\":11649:11667  pendingWithdrawals */\n      0x0f\n        /* \"contracts/HRSLocalArbitrator.sol\":11649:11679  pendingWithdrawals[msg.sender] */\n      0x00\n        /* \"contracts/HRSLocalArbitrator.sol\":11668:11678  msg.sender */\n      caller\n        /* \"contracts/HRSLocalArbitrator.sol\":11649:11679  pendingWithdrawals[msg.sender] */\n      0xffffffffffffffffffffffffffffffffffffffff\n      and\n      0xffffffffffffffffffffffffffffffffffffffff\n      and\n      dup2\n      mstore\n      0x20\n      add\n      swap1\n      dup2\n      mstore\n      0x20\n      add\n      0x00\n      keccak256\n      sload\n        /* \"contracts/HRSLocalArbitrator.sol\":11632:11679  uint256 amount = pendingWithdrawals[msg.sender] */\n      swap1\n      pop\n        /* \"contracts/HRSLocalArbitrator.sol\":11707:11708  0 */\n      0x00\n        /* \"contracts/HRSLocalArbitrator.sol\":11698:11704  amount */\n      dup2\n        /* \"contracts/HRSLocalArbitrator.sol\":11698:11708  amount > 0 */\n      gt\n        /* \"contracts/HRSLocalArbitrator.sol\":11690:11733  require(amount > 0, \"No funds to withdraw\") */\n      tag_259\n      jumpi\n      mload(0x40)\n      0x08c379a000000000000000000000000000000000000000000000000000000000\n      dup2\n      mstore\n      0x04\n      add\n      tag_260\n      swap1\n      tag_261\n      jump\t// in\n    tag_260:\n      mload(0x40)\n      dup1\n      swap2\n      sub\n      swap1\n      revert\n    tag_259:\n        /* \"contracts/HRSLocalArbitrator.sol\":11777:11778  0 */\n      0x00\n        /* \"contracts/HRSLocalArbitrator.sol\":11744:11762  pendingWithdrawals */\n      0x0f\n        /* \"contracts/HRSLocalArbitrator.sol\":11744:11774  pendingWithdrawals[msg.sender] */\n      0x00\n        /* \"contracts/HRSLocalArbitrator.sol\":11763:11773  msg.sender */\n      caller\n        /* \"contracts/HRSLocalArbitrator.sol\":11744:11774  pendingWithdrawals[msg.sender] */\n      0xffffffffffffffffffffffffffffffffffffffff\n      and\n      0xffffffffffffffffffffffffffffffffffffffff\n      and\n      dup2\n      mstore\n      0x20\n      add\n      swap1\n      dup2\n      mstore\n      0x20\n      add\n      0x00\n      keccak256\n        /* \"contracts/HRSLocalArbitrator.sol\":11744:11778  pendingWithdrawals[msg.sender] = 0 */\n      dup2\n      swap1\n      sstore\n      pop\n        /* \"contracts/HRSLocalArbitrator.sol\":11790:11802  bool success */\n      0x00\n        /* \"contracts/HRSLocalArbitrator.sol\":11816:11826  msg.sender */\n      caller\n        /* \"contracts/HRSLocalArbitrator.sol\":11808:11832  payable(msg.sender).call */\n      0xffffffffffffffffffffffffffffffffffffffff\n      and\n        /* \"contracts/HRSLocalArbitrator.sol\":11840:11846  amount */\n      dup3\n        /* \"contracts/HRSLocalArbitrator.sol\":11808:11851  payable(msg.sender).call{value: amount}(\"\") */\n      mload(0x40)\n      tag_262\n      swap1\n      tag_263\n      jump\t// in\n    tag_262:\n      0x00\n      mload(0x40)\n      dup1\n      dup4\n      sub\n      dup2\n      dup6\n      dup8\n      gas\n      call\n      swap3\n      pop\n      pop\n      pop\n      returndatasize\n      dup1\n      0x00\n      dup2\n      eq\n      tag_266\n      jumpi\n      mload(0x40)\n      swap2\n      pop\n      and(add(returndatasize, 0x3f), not(0x1f))\n      dup3\n      add\n      0x40\n      mstore\n      returndatasize\n      dup3\n      mstore\n      returndatasize\n      0x00\n      0x20\n      dup5\n      add\n      returndatacopy\n      jump(tag_265)\n    tag_266:\n      0x60\n      swap2\n      pop\n    tag_265:\n      pop\n        /* \"contracts/HRSLocalArbitrator.sol\":11789:11851  (bool success, ) = payable(msg.sender).call{value: amount}(\"\") */\n      pop\n      swap1\n      pop\n        /* \"contracts/HRSLocalArbitrator.sol\":11870:11877  success */\n      dup1\n        /* \"contracts/HRSLocalArbitrator.sol\":11862:11897  require(success, \"Transfer failed\") */\n      tag_267\n      jumpi\n      mload(0x40)\n      0x08c379a000000000000000000000000000000000000000000000000000000000\n      dup2\n      mstore\n      0x04\n      add\n      tag_268\n      swap1\n      tag_269\n      jump\t// in\n    tag_268:\n      mload(0x40)\n      dup1\n      swap2\n      sub\n      swap1\n      revert\n    tag_267:\n        /* \"contracts/HRSLocalArbitrator.sol\":11930:11940  msg.sender */\n      caller\n        /* \"contracts/HRSLocalArbitrator.sol\":11913:11949  FundsTransferred(msg.sender, amount) */\n      0xffffffffffffffffffffffffffffffffffffffff\n      and\n      0x8c9a4f13b67cb64d7c6aa1ae0c9bf07694af521a28b93e7060020810ab4bc59f\n        /* \"contracts/HRSLocalArbitrator.sol\":11942:11948  amount */\n      dup4\n        /* \"contracts/HRSLocalArbitrator.sol\":11913:11949  FundsTransferred(msg.sender, amount) */\n      mload(0x40)\n      tag_270\n      swap2\n      swap1\n      tag_63\n      jump\t// in\n    tag_270:\n      mload(0x40)\n      dup1\n      swap2\n      sub\n      swap1\n      log2\n        /* \"contracts/HRSLocalArbitrator.sol\":11621:11957  {... */\n      pop\n      pop\n        /* \"contracts/HRSLocalArbitrator.sol\":11592:11957  function withdraw() external {... */\n      jump\t// out\n        /* \"contracts/HRSLocalArbitrator.sol\":3121:3724  function paySecurityDeposit() external payable {... */\n    tag_93:\n        /* \"contracts/HRSLocalArbitrator.sol\":3201:3207  renter */\n      0x01\n      0x00\n      swap1\n      sload\n      swap1\n      0x0100\n      exp\n      swap1\n      div\n      0xffffffffffffffffffffffffffffffffffffffff\n      and\n        /* \"contracts/HRSLocalArbitrator.sol\":3187:3207  msg.sender == renter */\n      0xffffffffffffffffffffffffffffffffffffffff\n      and\n        /* \"contracts/HRSLocalArbitrator.sol\":3187:3197  msg.sender */\n      caller\n        /* \"contracts/HRSLocalArbitrator.sol\":3187:3207  msg.sender == renter */\n      0xffffffffffffffffffffffffffffffffffffffff\n      and\n      eq\n        /* \"contracts/HRSLocalArbitrator.sol\":3179:3248  require(msg.sender == renter, \"Only renter can pay security deposit\") */\n      tag_272\n      jumpi\n      mload(0x40)\n      0x08c379a000000000000000000000000000000000000000000000000000000000\n      dup2\n      mstore\n      0x04\n      add\n      tag_273\n      swap1\n      tag_274\n      jump\t// in\n    tag_273:\n      mload(0x40)\n      dup1\n      swap2\n      sub\n      swap1\n      revert\n    tag_272:\n        /* \"contracts/HRSLocalArbitrator.sol\":3268:3276  isActive */\n      0x0d\n      0x00\n      swap1\n      sload\n      swap1\n      0x0100\n      exp\n      swap1\n      div\n      0xff\n      and\n        /* \"contracts/HRSLocalArbitrator.sol\":3267:3276  !isActive */\n      iszero\n        /* \"contracts/HRSLocalArbitrator.sol\":3259:3307  require(!isActive, \"Contract is already active\") */\n      tag_275\n      jumpi\n      mload(0x40)\n      0x08c379a000000000000000000000000000000000000000000000000000000000\n      dup2\n      mstore\n      0x04\n      add\n      tag_276\n      swap1\n      tag_277\n      jump\t// in\n    tag_276:\n      mload(0x40)\n      dup1\n      swap2\n      sub\n      swap1\n      revert\n    tag_275:\n        /* \"contracts/HRSLocalArbitrator.sol\":3339:3354  securityDeposit */\n      sload(0x02)\n        /* \"contracts/HRSLocalArbitrator.sol\":3326:3335  msg.value */\n      callvalue\n        /* \"contracts/HRSLocalArbitrator.sol\":3326:3354  msg.value == securityDeposit */\n      eq\n        /* \"contracts/HRSLocalArbitrator.sol\":3318:3392  require(msg.value == securityDeposit, \"Incorrect security deposit amount\") */\n      tag_278\n      jumpi\n      mload(0x40)\n      0x08c379a000000000000000000000000000000000000000000000000000000000\n      dup2\n      mstore\n      0x04\n      add\n      tag_279\n      swap1\n      tag_280\n      jump\t// in\n    tag_279:\n      mload(0x40)\n      dup1\n      swap2\n      sub\n      swap1\n      revert\n    tag_278:\n        /* \"contracts/HRSLocalArbitrator.sol\":3427:3431  true */\n      0x01\n        /* \"contracts/HRSLocalArbitrator.sol\":3403:3424  isSecurityDepositPaid */\n      0x0d\n      0x01\n        /* \"contracts/HRSLocalArbitrator.sol\":3403:3431  isSecurityDepositPaid = true */\n      0x0100\n      exp\n      dup2\n      sload\n      dup2\n      0xff\n      mul\n      not\n      and\n      swap1\n      dup4\n      iszero\n      iszero\n      mul\n      or\n      swap1\n      sstore\n      pop\n        /* \"contracts/HRSLocalArbitrator.sol\":3467:3482  securityDeposit */\n      sload(0x02)\n        /* \"contracts/HRSLocalArbitrator.sol\":3442:3464  currentSecurityDeposit */\n      0x0b\n        /* \"contracts/HRSLocalArbitrator.sol\":3442:3482  currentSecurityDeposit = securityDeposit */\n      dup2\n      swap1\n      sstore\n      pop\n        /* \"contracts/HRSLocalArbitrator.sol\":3498:3528  SecurityDepositPaid(msg.value) */\n      0x486ac935cf1ea9effd9e0a261bc42917b45f2fd45cc98def2bc34d47f216937c\n        /* \"contracts/HRSLocalArbitrator.sol\":3518:3527  msg.value */\n      callvalue\n        /* \"contracts/HRSLocalArbitrator.sol\":3498:3528  SecurityDepositPaid(msg.value) */\n      mload(0x40)\n      tag_281\n      swap2\n      swap1\n      tag_63\n      jump\t// in\n    tag_281:\n      mload(0x40)\n      dup1\n      swap2\n      sub\n      swap1\n      log1\n        /* \"contracts/HRSLocalArbitrator.sol\":3608:3612  true */\n      0x01\n        /* \"contracts/HRSLocalArbitrator.sol\":3597:3605  isActive */\n      0x0d\n      0x00\n        /* \"contracts/HRSLocalArbitrator.sol\":3597:3612  isActive = true */\n      0x0100\n      exp\n      dup2\n      sload\n      dup2\n      0xff\n      mul\n      not\n      and\n      swap1\n      dup4\n      iszero\n      iszero\n      mul\n      or\n      swap1\n      sstore\n      pop\n        /* \"contracts/HRSLocalArbitrator.sol\":3639:3654  block.timestamp */\n      timestamp\n        /* \"contracts/HRSLocalArbitrator.sol\":3623:3636  rentStartDate */\n      0x05\n        /* \"contracts/HRSLocalArbitrator.sol\":3623:3654  rentStartDate = block.timestamp */\n      dup2\n      swap1\n      sstore\n      pop\n        /* \"contracts/HRSLocalArbitrator.sol\":3680:3681  1 */\n      0x01\n        /* \"contracts/HRSLocalArbitrator.sol\":3665:3677  currentMonth */\n      0x06\n        /* \"contracts/HRSLocalArbitrator.sol\":3665:3681  currentMonth = 1 */\n      dup2\n      swap1\n      sstore\n      pop\n        /* \"contracts/HRSLocalArbitrator.sol\":3697:3716  ContractActivated() */\n      0xe09eb0ac9bad92f05e0b489e6fc1d3e349861ffd8a2548182ef06278968a9bd0\n      mload(0x40)\n      mload(0x40)\n      dup1\n      swap2\n      sub\n      swap1\n      log1\n        /* \"contracts/HRSLocalArbitrator.sol\":3121:3724  function paySecurityDeposit() external payable {... */\n      jump\t// out\n        /* \"contracts/HRSLocalArbitrator.sol\":943:979  bool public renterCounterEstimateSet */\n    tag_96:\n      0x0d\n      0x05\n      swap1\n      sload\n      swap1\n      0x0100\n      exp\n      swap1\n      div\n      0xff\n      and\n      dup2\n      jump\t// out\n        /* \"contracts/HRSLocalArbitrator.sol\":481:509  uint256 public rentStartDate */\n    tag_100:\n      sload(0x05)\n      dup2\n      jump\t// out\n        /* \"contracts/HRSLocalArbitrator.sol\":869:898  bool public rentalPeriodEnded */\n    tag_104:\n      0x0d\n      0x03\n      swap1\n      sload\n      swap1\n      0x0100\n      exp\n      swap1\n      div\n      0xff\n      and\n      dup2\n      jump\t// out\n        /* \"contracts/HRSLocalArbitrator.sol\":13159:13276  function getArbitrationCost() public view returns (uint256) {... */\n    tag_108:\n        /* \"contracts/HRSLocalArbitrator.sol\":13210:13217  uint256 */\n      0x00\n        /* \"contracts/HRSLocalArbitrator.sol\":13237:13247  arbitrator */\n      0x0d\n      0x06\n      swap1\n      sload\n      swap1\n      0x0100\n      exp\n      swap1\n      div\n      0xffffffffffffffffffffffffffffffffffffffff\n      and\n        /* \"contracts/HRSLocalArbitrator.sol\":13237:13266  arbitrator.getArbitrationCost */\n      0xffffffffffffffffffffffffffffffffffffffff\n      and\n      0x63022560\n        /* \"contracts/HRSLocalArbitrator.sol\":13237:13268  arbitrator.getArbitrationCost() */\n      mload(0x40)\n      dup2\n      0xffffffff\n      and\n      0xe0\n      shl\n      dup2\n      mstore\n      0x04\n      add\n      0x20\n      mload(0x40)\n      dup1\n      dup4\n      sub\n      dup2\n      dup7\n      gas\n      staticcall\n      iszero\n      dup1\n      iszero\n      tag_284\n      jumpi\n      returndatasize\n      0x00\n      dup1\n      returndatacopy\n      revert(0x00, returndatasize)\n    tag_284:\n      pop\n      pop\n      pop\n      pop\n      mload(0x40)\n      returndatasize\n      not(0x1f)\n      0x1f\n      dup3\n      add\n      and\n      dup3\n      add\n      dup1\n      0x40\n      mstore\n      pop\n      dup2\n      add\n      swap1\n      tag_285\n      swap2\n      swap1\n      tag_246\n      jump\t// in\n    tag_285:\n        /* \"contracts/HRSLocalArbitrator.sol\":13230:13268  return arbitrator.getArbitrationCost() */\n      swap1\n      pop\n        /* \"contracts/HRSLocalArbitrator.sol\":13159:13276  function getArbitrationCost() public view returns (uint256) {... */\n      swap1\n      jump\t// out\n        /* \"contracts/HRSLocalArbitrator.sol\":733:763  uint256 public arbitrationCost */\n    tag_112:\n      sload(0x0c)\n      dup2\n      jump\t// out\n        /* \"contracts/HRSLocalArbitrator.sol\":988:1022  ILocalArbitrator public arbitrator */\n    tag_116:\n      0x0d\n      0x06\n      swap1\n      sload\n      swap1\n      0x0100\n      exp\n      swap1\n      div\n      0xffffffffffffffffffffffffffffffffffffffff\n      and\n      dup2\n      jump\t// out\n        /* \"contracts/HRSLocalArbitrator.sol\":550:572  uint256 public dueRent */\n    tag_121:\n      sload(0x07)\n      dup2\n      jump\t// out\n        /* \"contracts/HRSLocalArbitrator.sol\":12808:12917  function getContractBalance() external view returns (uint256) {... */\n    tag_125:\n        /* \"contracts/HRSLocalArbitrator.sol\":12861:12868  uint256 */\n      0x00\n        /* \"contracts/HRSLocalArbitrator.sol\":12888:12909  address(this).balance */\n      selfbalance\n        /* \"contracts/HRSLocalArbitrator.sol\":12881:12909  return address(this).balance */\n      swap1\n      pop\n        /* \"contracts/HRSLocalArbitrator.sol\":12808:12917  function getContractBalance() external view returns (uint256) {... */\n      swap1\n      jump\t// out\n        /* \"contracts/HRSLocalArbitrator.sol\":905:936  bool public landlordEstimateSet */\n    tag_129:\n      0x0d\n      0x04\n      swap1\n      sload\n      swap1\n      0x0100\n      exp\n      swap1\n      div\n      0xff\n      and\n      dup2\n      jump\t// out\n        /* \"contracts/HRSLocalArbitrator.sol\":12089:12201  function getRenterBalance() external view returns (uint256) {... */\n    tag_133:\n        /* \"contracts/HRSLocalArbitrator.sol\":12140:12147  uint256 */\n      0x00\n        /* \"contracts/HRSLocalArbitrator.sol\":12167:12185  pendingWithdrawals */\n      0x0f\n        /* \"contracts/HRSLocalArbitrator.sol\":12167:12193  pendingWithdrawals[renter] */\n      0x00\n        /* \"contracts/HRSLocalArbitrator.sol\":12186:12192  renter */\n      0x01\n      0x00\n      swap1\n      sload\n      swap1\n      0x0100\n      exp\n      swap1\n      div\n      0xffffffffffffffffffffffffffffffffffffffff\n      and\n        /* \"contracts/HRSLocalArbitrator.sol\":12167:12193  pendingWithdrawals[renter] */\n      0xffffffffffffffffffffffffffffffffffffffff\n      and\n      0xffffffffffffffffffffffffffffffffffffffff\n      and\n      dup2\n      mstore\n      0x20\n      add\n      swap1\n      dup2\n      mstore\n      0x20\n      add\n      0x00\n      keccak256\n      sload\n        /* \"contracts/HRSLocalArbitrator.sol\":12160:12193  return pendingWithdrawals[renter] */\n      swap1\n      pop\n        /* \"contracts/HRSLocalArbitrator.sol\":12089:12201  function getRenterBalance() external view returns (uint256) {... */\n      swap1\n      jump\t// out\n        /* \"contracts/HRSLocalArbitrator.sol\":13036:13151  function getCurrentSecurityDeposit() public view returns (uint256) {... */\n    tag_137:\n        /* \"contracts/HRSLocalArbitrator.sol\":13094:13101  uint256 */\n      0x00\n        /* \"contracts/HRSLocalArbitrator.sol\":13121:13143  currentSecurityDeposit */\n      sload(0x0b)\n        /* \"contracts/HRSLocalArbitrator.sol\":13114:13143  return currentSecurityDeposit */\n      swap1\n      pop\n        /* \"contracts/HRSLocalArbitrator.sol\":13036:13151  function getCurrentSecurityDeposit() public view returns (uint256) {... */\n      swap1\n      jump\t// out\n        /* \"contracts/HRSLocalArbitrator.sol\":4101:4552  function recordUtilities(uint256 _utilities) external {... */\n    tag_142:\n        /* \"contracts/HRSLocalArbitrator.sol\":4188:4196  landlord */\n      0x00\n      dup1\n      sload\n      swap1\n      0x0100\n      exp\n      swap1\n      div\n      0xffffffffffffffffffffffffffffffffffffffff\n      and\n        /* \"contracts/HRSLocalArbitrator.sol\":4174:4196  msg.sender == landlord */\n      0xffffffffffffffffffffffffffffffffffffffff\n      and\n        /* \"contracts/HRSLocalArbitrator.sol\":4174:4184  msg.sender */\n      caller\n        /* \"contracts/HRSLocalArbitrator.sol\":4174:4196  msg.sender == landlord */\n      0xffffffffffffffffffffffffffffffffffffffff\n      and\n      eq\n        /* \"contracts/HRSLocalArbitrator.sol\":4166:4235  require(msg.sender == landlord, \"Only landlord can record utilities\") */\n      tag_290\n      jumpi\n      mload(0x40)\n      0x08c379a000000000000000000000000000000000000000000000000000000000\n      dup2\n      mstore\n      0x04\n      add\n      tag_291\n      swap1\n      tag_292\n      jump\t// in\n    tag_291:\n      mload(0x40)\n      dup1\n      swap2\n      sub\n      swap1\n      revert\n    tag_290:\n        /* \"contracts/HRSLocalArbitrator.sol\":4254:4262  isActive */\n      0x0d\n      0x00\n      swap1\n      sload\n      swap1\n      0x0100\n      exp\n      swap1\n      div\n      0xff\n      and\n        /* \"contracts/HRSLocalArbitrator.sol\":4246:4289  require(isActive, \"Contract is not active\") */\n      tag_293\n      jumpi\n      mload(0x40)\n      0x08c379a000000000000000000000000000000000000000000000000000000000\n      dup2\n      mstore\n      0x04\n      add\n      tag_294\n      swap1\n      tag_234\n      jump\t// in\n    tag_294:\n      mload(0x40)\n      dup1\n      swap2\n      sub\n      swap1\n      revert\n    tag_293:\n        /* \"contracts/HRSLocalArbitrator.sol\":4324:4342  rentPeriodInMonths */\n      sload(0x04)\n        /* \"contracts/HRSLocalArbitrator.sol\":4308:4320  currentMonth */\n      sload(0x06)\n        /* \"contracts/HRSLocalArbitrator.sol\":4308:4342  currentMonth <= rentPeriodInMonths */\n      gt\n      iszero\n        /* \"contracts/HRSLocalArbitrator.sol\":4300:4368  require(currentMonth <= rentPeriodInMonths, \"Rent period has ended\") */\n      tag_295\n      jumpi\n      mload(0x40)\n      0x08c379a000000000000000000000000000000000000000000000000000000000\n      dup2\n      mstore\n      0x04\n      add\n      tag_296\n      swap1\n      tag_297\n      jump\t// in\n    tag_296:\n      mload(0x40)\n      dup1\n      swap2\n      sub\n      swap1\n      revert\n    tag_295:\n        /* \"contracts/HRSLocalArbitrator.sol\":4418:4428  _utilities */\n      dup1\n        /* \"contracts/HRSLocalArbitrator.sol\":4379:4391  monthlyRents */\n      0x0e\n        /* \"contracts/HRSLocalArbitrator.sol\":4379:4405  monthlyRents[currentMonth] */\n      0x00\n        /* \"contracts/HRSLocalArbitrator.sol\":4392:4404  currentMonth */\n      sload(0x06)\n        /* \"contracts/HRSLocalArbitrator.sol\":4379:4405  monthlyRents[currentMonth] */\n      dup2\n      mstore\n      0x20\n      add\n      swap1\n      dup2\n      mstore\n      0x20\n      add\n      0x00\n      keccak256\n        /* \"contracts/HRSLocalArbitrator.sol\":4379:4415  monthlyRents[currentMonth].utilities */\n      0x01\n      add\n        /* \"contracts/HRSLocalArbitrator.sol\":4379:4428  monthlyRents[currentMonth].utilities = _utilities */\n      dup2\n      swap1\n      sstore\n      pop\n        /* \"contracts/HRSLocalArbitrator.sol\":4477:4485  baseRent */\n      sload(0x03)\n        /* \"contracts/HRSLocalArbitrator.sol\":4439:4451  monthlyRents */\n      0x0e\n        /* \"contracts/HRSLocalArbitrator.sol\":4439:4465  monthlyRents[currentMonth] */\n      0x00\n        /* \"contracts/HRSLocalArbitrator.sol\":4452:4464  currentMonth */\n      sload(0x06)\n        /* \"contracts/HRSLocalArbitrator.sol\":4439:4465  monthlyRents[currentMonth] */\n      dup2\n      mstore\n      0x20\n      add\n      swap1\n      dup2\n      mstore\n      0x20\n      add\n      0x00\n      keccak256\n        /* \"contracts/HRSLocalArbitrator.sol\":4439:4474  monthlyRents[currentMonth].baseRent */\n      0x00\n      add\n        /* \"contracts/HRSLocalArbitrator.sol\":4439:4485  monthlyRents[currentMonth].baseRent = baseRent */\n      dup2\n      swap1\n      sstore\n      pop\n        /* \"contracts/HRSLocalArbitrator.sol\":4501:4544  UtilitiesRecorded(currentMonth, _utilities) */\n      0xf75d23e75691b7209bf24071476b3702a8412a369b26fd3ad012d19630f65a2b\n        /* \"contracts/HRSLocalArbitrator.sol\":4519:4531  currentMonth */\n      sload(0x06)\n        /* \"contracts/HRSLocalArbitrator.sol\":4533:4543  _utilities */\n      dup3\n        /* \"contracts/HRSLocalArbitrator.sol\":4501:4544  UtilitiesRecorded(currentMonth, _utilities) */\n      mload(0x40)\n      tag_298\n      swap3\n      swap2\n      swap1\n      tag_253\n      jump\t// in\n    tag_298:\n      mload(0x40)\n      dup1\n      swap2\n      sub\n      swap1\n      log1\n        /* \"contracts/HRSLocalArbitrator.sol\":4101:4552  function recordUtilities(uint256 _utilities) external {... */\n      pop\n      jump\t// out\n        /* \"contracts/HRSLocalArbitrator.sol\":615:651  uint256 public renterCounterEstimate */\n    tag_145:\n      sload(0x09)\n      dup2\n      jump\t// out\n        /* \"contracts/HRSLocalArbitrator.sol\":516:543  uint256 public currentMonth */\n    tag_149:\n      sload(0x06)\n      dup2\n      jump\t// out\n        /* \"contracts/HRSLocalArbitrator.sol\":441:474  uint256 public rentPeriodInMonths */\n    tag_153:\n      sload(0x04)\n      dup2\n      jump\t// out\n        /* \"contracts/HRSLocalArbitrator.sol\":4560:5691  function payRent() external payable {... */\n    tag_156:\n        /* \"contracts/HRSLocalArbitrator.sol\":4629:4635  renter */\n      0x01\n      0x00\n      swap1\n      sload\n      swap1\n      0x0100\n      exp\n      swap1\n      div\n      0xffffffffffffffffffffffffffffffffffffffff\n      and\n        /* \"contracts/HRSLocalArbitrator.sol\":4615:4635  msg.sender == renter */\n      0xffffffffffffffffffffffffffffffffffffffff\n      and\n        /* \"contracts/HRSLocalArbitrator.sol\":4615:4625  msg.sender */\n      caller\n        /* \"contracts/HRSLocalArbitrator.sol\":4615:4635  msg.sender == renter */\n      0xffffffffffffffffffffffffffffffffffffffff\n      and\n      eq\n        /* \"contracts/HRSLocalArbitrator.sol\":4607:4664  require(msg.sender == renter, \"Only renter can pay rent\") */\n      tag_300\n      jumpi\n      mload(0x40)\n      0x08c379a000000000000000000000000000000000000000000000000000000000\n      dup2\n      mstore\n      0x04\n      add\n      tag_301\n      swap1\n      tag_302\n      jump\t// in\n    tag_301:\n      mload(0x40)\n      dup1\n      swap2\n      sub\n      swap1\n      revert\n    tag_300:\n        /* \"contracts/HRSLocalArbitrator.sol\":4683:4691  isActive */\n      0x0d\n      0x00\n      swap1\n      sload\n      swap1\n      0x0100\n      exp\n      swap1\n      div\n      0xff\n      and\n        /* \"contracts/HRSLocalArbitrator.sol\":4675:4718  require(isActive, \"Contract is not active\") */\n      tag_303\n      jumpi\n      mload(0x40)\n      0x08c379a000000000000000000000000000000000000000000000000000000000\n      dup2\n      mstore\n      0x04\n      add\n      tag_304\n      swap1\n      tag_234\n      jump\t// in\n    tag_304:\n      mload(0x40)\n      dup1\n      swap2\n      sub\n      swap1\n      revert\n    tag_303:\n        /* \"contracts/HRSLocalArbitrator.sol\":4753:4771  rentPeriodInMonths */\n      sload(0x04)\n        /* \"contracts/HRSLocalArbitrator.sol\":4737:4749  currentMonth */\n      sload(0x06)\n        /* \"contracts/HRSLocalArbitrator.sol\":4737:4771  currentMonth <= rentPeriodInMonths */\n      gt\n      iszero\n        /* \"contracts/HRSLocalArbitrator.sol\":4729:4797  require(currentMonth <= rentPeriodInMonths, \"Rent period has ended\") */\n      tag_305\n      jumpi\n      mload(0x40)\n      0x08c379a000000000000000000000000000000000000000000000000000000000\n      dup2\n      mstore\n      0x04\n      add\n      tag_306\n      swap1\n      tag_297\n      jump\t// in\n    tag_306:\n      mload(0x40)\n      dup1\n      swap2\n      sub\n      swap1\n      revert\n    tag_305:\n        /* \"contracts/HRSLocalArbitrator.sol\":4810:4841  MonthlyRent storage currentRent */\n      0x00\n        /* \"contracts/HRSLocalArbitrator.sol\":4844:4856  monthlyRents */\n      0x0e\n        /* \"contracts/HRSLocalArbitrator.sol\":4844:4870  monthlyRents[currentMonth] */\n      0x00\n        /* \"contracts/HRSLocalArbitrator.sol\":4857:4869  currentMonth */\n      sload(0x06)\n        /* \"contracts/HRSLocalArbitrator.sol\":4844:4870  monthlyRents[currentMonth] */\n      dup2\n      mstore\n      0x20\n      add\n      swap1\n      dup2\n      mstore\n      0x20\n      add\n      0x00\n      keccak256\n        /* \"contracts/HRSLocalArbitrator.sol\":4810:4870  MonthlyRent storage currentRent = monthlyRents[currentMonth] */\n      swap1\n      pop\n        /* \"contracts/HRSLocalArbitrator.sol\":4890:4901  currentRent */\n      dup1\n        /* \"contracts/HRSLocalArbitrator.sol\":4890:4906  currentRent.paid */\n      0x03\n      add\n      0x00\n      swap1\n      sload\n      swap1\n      0x0100\n      exp\n      swap1\n      div\n      0xff\n      and\n        /* \"contracts/HRSLocalArbitrator.sol\":4889:4906  !currentRent.paid */\n      iszero\n        /* \"contracts/HRSLocalArbitrator.sol\":4881:4952  require(!currentRent.paid, \"Rent for this month has already been paid\") */\n      tag_307\n      jumpi\n      mload(0x40)\n      0x08c379a000000000000000000000000000000000000000000000000000000000\n      dup2\n      mstore\n      0x04\n      add\n      tag_308\n      swap1\n      tag_309\n      jump\t// in\n    tag_308:\n      mload(0x40)\n      dup1\n      swap2\n      sub\n      swap1\n      revert\n    tag_307:\n        /* \"contracts/HRSLocalArbitrator.sol\":4995:4996  0 */\n      0x00\n        /* \"contracts/HRSLocalArbitrator.sol\":4971:4982  currentRent */\n      dup2\n        /* \"contracts/HRSLocalArbitrator.sol\":4971:4992  currentRent.utilities */\n      0x01\n      add\n      sload\n        /* \"contracts/HRSLocalArbitrator.sol\":4971:4996  currentRent.utilities > 0 */\n      gt\n        /* \"contracts/HRSLocalArbitrator.sol\":4963:5048  require(currentRent.utilities > 0, \"Utilities for this month have not been recorded\") */\n      tag_310\n      jumpi\n      mload(0x40)\n      0x08c379a000000000000000000000000000000000000000000000000000000000\n      dup2\n      mstore\n      0x04\n      add\n      tag_311\n      swap1\n      tag_312\n      jump\t// in\n    tag_311:\n      mload(0x40)\n      dup1\n      swap2\n      sub\n      swap1\n      revert\n    tag_310:\n        /* \"contracts/HRSLocalArbitrator.sol\":5061:5078  uint256 totalRent */\n      0x00\n        /* \"contracts/HRSLocalArbitrator.sol\":5128:5135  dueRent */\n      sload(0x07)\n        /* \"contracts/HRSLocalArbitrator.sol\":5104:5115  currentRent */\n      dup3\n        /* \"contracts/HRSLocalArbitrator.sol\":5104:5125  currentRent.utilities */\n      0x01\n      add\n      sload\n        /* \"contracts/HRSLocalArbitrator.sol\":5081:5092  currentRent */\n      dup4\n        /* \"contracts/HRSLocalArbitrator.sol\":5081:5101  currentRent.baseRent */\n      0x00\n      add\n      sload\n        /* \"contracts/HRSLocalArbitrator.sol\":5081:5125  currentRent.baseRent + currentRent.utilities */\n      tag_313\n      swap2\n      swap1\n      tag_314\n      jump\t// in\n    tag_313:\n        /* \"contracts/HRSLocalArbitrator.sol\":5081:5135  currentRent.baseRent + currentRent.utilities + dueRent */\n      tag_315\n      swap2\n      swap1\n      tag_314\n      jump\t// in\n    tag_315:\n        /* \"contracts/HRSLocalArbitrator.sol\":5061:5135  uint256 totalRent = currentRent.baseRent + currentRent.utilities + dueRent */\n      swap1\n      pop\n        /* \"contracts/HRSLocalArbitrator.sol\":5167:5176  totalRent */\n      dup1\n        /* \"contracts/HRSLocalArbitrator.sol\":5154:5163  msg.value */\n      callvalue\n        /* \"contracts/HRSLocalArbitrator.sol\":5154:5176  msg.value == totalRent */\n      eq\n        /* \"contracts/HRSLocalArbitrator.sol\":5146:5202  require(msg.value == totalRent, \"Incorrect rent amount\") */\n      tag_316\n      jumpi\n      mload(0x40)\n      0x08c379a000000000000000000000000000000000000000000000000000000000\n      dup2\n      mstore\n      0x04\n      add\n      tag_317\n      swap1\n      tag_318\n      jump\t// in\n    tag_317:\n      mload(0x40)\n      dup1\n      swap2\n      sub\n      swap1\n      revert\n    tag_316:\n        /* \"contracts/HRSLocalArbitrator.sol\":5234:5238  true */\n      0x01\n        /* \"contracts/HRSLocalArbitrator.sol\":5215:5226  currentRent */\n      dup3\n        /* \"contracts/HRSLocalArbitrator.sol\":5215:5231  currentRent.paid */\n      0x03\n      add\n      0x00\n        /* \"contracts/HRSLocalArbitrator.sol\":5215:5238  currentRent.paid = true */\n      0x0100\n      exp\n      dup2\n      sload\n      dup2\n      0xff\n      mul\n      not\n      and\n      swap1\n      dup4\n      iszero\n      iszero\n      mul\n      or\n      swap1\n      sstore\n      pop\n        /* \"contracts/HRSLocalArbitrator.sol\":5259:5260  0 */\n      0x00\n        /* \"contracts/HRSLocalArbitrator.sol\":5249:5256  dueRent */\n      0x07\n        /* \"contracts/HRSLocalArbitrator.sol\":5249:5260  dueRent = 0 */\n      dup2\n      swap1\n      sstore\n      pop\n        /* \"contracts/HRSLocalArbitrator.sol\":5278:5311  RentPaid(currentMonth, totalRent) */\n      0xa0d112ed080c1b1a94b838ad981a23746be2a4670fd4bf157224e72cdd5dfdde\n        /* \"contracts/HRSLocalArbitrator.sol\":5287:5299  currentMonth */\n      sload(0x06)\n        /* \"contracts/HRSLocalArbitrator.sol\":5301:5310  totalRent */\n      dup3\n        /* \"contracts/HRSLocalArbitrator.sol\":5278:5311  RentPaid(currentMonth, totalRent) */\n      mload(0x40)\n      tag_319\n      swap3\n      swap2\n      swap1\n      tag_253\n      jump\t// in\n    tag_319:\n      mload(0x40)\n      dup1\n      swap2\n      sub\n      swap1\n      log1\n        /* \"contracts/HRSLocalArbitrator.sol\":5420:5429  totalRent */\n      dup1\n        /* \"contracts/HRSLocalArbitrator.sol\":5388:5406  pendingWithdrawals */\n      0x0f\n        /* \"contracts/HRSLocalArbitrator.sol\":5388:5416  pendingWithdrawals[landlord] */\n      0x00\n        /* \"contracts/HRSLocalArbitrator.sol\":5407:5415  landlord */\n      dup1\n      0x00\n      swap1\n      sload\n      swap1\n      0x0100\n      exp\n      swap1\n      div\n      0xffffffffffffffffffffffffffffffffffffffff\n      and\n        /* \"contracts/HRSLocalArbitrator.sol\":5388:5416  pendingWithdrawals[landlord] */\n      0xffffffffffffffffffffffffffffffffffffffff\n      and\n      0xffffffffffffffffffffffffffffffffffffffff\n      and\n      dup2\n      mstore\n      0x20\n      add\n      swap1\n      dup2\n      mstore\n      0x20\n      add\n      0x00\n      keccak256\n      0x00\n        /* \"contracts/HRSLocalArbitrator.sol\":5388:5429  pendingWithdrawals[landlord] += totalRent */\n      dup3\n      dup3\n      sload\n      tag_320\n      swap2\n      swap1\n      tag_314\n      jump\t// in\n    tag_320:\n      swap3\n      pop\n      pop\n      dup2\n      swap1\n      sstore\n      pop\n        /* \"contracts/HRSLocalArbitrator.sol\":5465:5473  landlord */\n      0x00\n      dup1\n      sload\n      swap1\n      0x0100\n      exp\n      swap1\n      div\n      0xffffffffffffffffffffffffffffffffffffffff\n      and\n        /* \"contracts/HRSLocalArbitrator.sol\":5445:5485  WithdrawalRequested(landlord, totalRent) */\n      0xffffffffffffffffffffffffffffffffffffffff\n      and\n      0xe670e4e82118d22a1f9ee18920455ebc958bae26a90a05d31d3378788b1b0e44\n        /* \"contracts/HRSLocalArbitrator.sol\":5475:5484  totalRent */\n      dup3\n        /* \"contracts/HRSLocalArbitrator.sol\":5445:5485  WithdrawalRequested(landlord, totalRent) */\n      mload(0x40)\n      tag_321\n      swap2\n      swap1\n      tag_63\n      jump\t// in\n    tag_321:\n      mload(0x40)\n      dup1\n      swap2\n      sub\n      swap1\n      log2\n        /* \"contracts/HRSLocalArbitrator.sol\":5518:5536  rentPeriodInMonths */\n      sload(0x04)\n        /* \"contracts/HRSLocalArbitrator.sol\":5502:5514  currentMonth */\n      sload(0x06)\n        /* \"contracts/HRSLocalArbitrator.sol\":5502:5536  currentMonth == rentPeriodInMonths */\n      sub\n        /* \"contracts/HRSLocalArbitrator.sol\":5498:5684  if (currentMonth == rentPeriodInMonths) {... */\n      tag_322\n      jumpi\n        /* \"contracts/HRSLocalArbitrator.sol\":5573:5577  true */\n      0x01\n        /* \"contracts/HRSLocalArbitrator.sol\":5553:5570  rentalPeriodEnded */\n      0x0d\n      0x03\n        /* \"contracts/HRSLocalArbitrator.sol\":5553:5577  rentalPeriodEnded = true */\n      0x0100\n      exp\n      dup2\n      sload\n      dup2\n      0xff\n      mul\n      not\n      and\n      swap1\n      dup4\n      iszero\n      iszero\n      mul\n      or\n      swap1\n      sstore\n      pop\n        /* \"contracts/HRSLocalArbitrator.sol\":5498:5684  if (currentMonth == rentPeriodInMonths) {... */\n      jump(tag_323)\n    tag_322:\n        /* \"contracts/HRSLocalArbitrator.sol\":5658:5670  currentMonth */\n      0x06\n      0x00\n        /* \"contracts/HRSLocalArbitrator.sol\":5658:5672  currentMonth++ */\n      dup2\n      sload\n      dup1\n      swap3\n      swap2\n      swap1\n      tag_324\n      swap1\n      tag_325\n      jump\t// in\n    tag_324:\n      swap2\n      swap1\n      pop\n      sstore\n      pop\n        /* \"contracts/HRSLocalArbitrator.sol\":5498:5684  if (currentMonth == rentPeriodInMonths) {... */\n    tag_323:\n        /* \"contracts/HRSLocalArbitrator.sol\":4596:5691  {... */\n      pop\n      pop\n        /* \"contracts/HRSLocalArbitrator.sol\":4560:5691  function payRent() external payable {... */\n      jump\t// out\n        /* \"contracts/HRSLocalArbitrator.sol\":3732:4093  function initializeCurrentSecurityDeposit() external {... */\n    tag_159:\n        /* \"contracts/HRSLocalArbitrator.sol\":3818:3826  landlord */\n      0x00\n      dup1\n      sload\n      swap1\n      0x0100\n      exp\n      swap1\n      div\n      0xffffffffffffffffffffffffffffffffffffffff\n      and\n        /* \"contracts/HRSLocalArbitrator.sol\":3804:3826  msg.sender == landlord */\n      0xffffffffffffffffffffffffffffffffffffffff\n      and\n        /* \"contracts/HRSLocalArbitrator.sol\":3804:3814  msg.sender */\n      caller\n        /* \"contracts/HRSLocalArbitrator.sol\":3804:3826  msg.sender == landlord */\n      0xffffffffffffffffffffffffffffffffffffffff\n      and\n      eq\n        /* \"contracts/HRSLocalArbitrator.sol\":3796:3884  require(msg.sender == landlord, \"Only landlord can initialize current security deposit\") */\n      tag_327\n      jumpi\n      mload(0x40)\n      0x08c379a000000000000000000000000000000000000000000000000000000000\n      dup2\n      mstore\n      0x04\n      add\n      tag_328\n      swap1\n      tag_329\n      jump\t// in\n    tag_328:\n      mload(0x40)\n      dup1\n      swap2\n      sub\n      swap1\n      revert\n    tag_327:\n        /* \"contracts/HRSLocalArbitrator.sol\":3903:3911  isActive */\n      0x0d\n      0x00\n      swap1\n      sload\n      swap1\n      0x0100\n      exp\n      swap1\n      div\n      0xff\n      and\n        /* \"contracts/HRSLocalArbitrator.sol\":3895:3939  require(isActive, \"Contract must be active\") */\n      tag_330\n      jumpi\n      mload(0x40)\n      0x08c379a000000000000000000000000000000000000000000000000000000000\n      dup2\n      mstore\n      0x04\n      add\n      tag_331\n      swap1\n      tag_332\n      jump\t// in\n    tag_331:\n      mload(0x40)\n      dup1\n      swap2\n      sub\n      swap1\n      revert\n    tag_330:\n        /* \"contracts/HRSLocalArbitrator.sol\":3984:3985  0 */\n      0x00\n        /* \"contracts/HRSLocalArbitrator.sol\":3958:3980  currentSecurityDeposit */\n      sload(0x0b)\n        /* \"contracts/HRSLocalArbitrator.sol\":3958:3985  currentSecurityDeposit == 0 */\n      eq\n        /* \"contracts/HRSLocalArbitrator.sol\":3950:4034  require(currentSecurityDeposit == 0, \"Current security deposit already initialized\") */\n      tag_333\n      jumpi\n      mload(0x40)\n      0x08c379a000000000000000000000000000000000000000000000000000000000\n      dup2\n      mstore\n      0x04\n      add\n      tag_334\n      swap1\n      tag_335\n      jump\t// in\n    tag_334:\n      mload(0x40)\n      dup1\n      swap2\n      sub\n      swap1\n      revert\n    tag_333:\n        /* \"contracts/HRSLocalArbitrator.sol\":4070:4085  securityDeposit */\n      sload(0x02)\n        /* \"contracts/HRSLocalArbitrator.sol\":4045:4067  currentSecurityDeposit */\n      0x0b\n        /* \"contracts/HRSLocalArbitrator.sol\":4045:4085  currentSecurityDeposit = securityDeposit */\n      dup2\n      swap1\n      sstore\n      pop\n        /* \"contracts/HRSLocalArbitrator.sol\":3732:4093  function initializeCurrentSecurityDeposit() external {... */\n      jump\t// out\n        /* \"contracts/HRSLocalArbitrator.sol\":658:682  uint256 public disputeID */\n    tag_162:\n      sload(0x0a)\n      dup2\n      jump\t// out\n        /* \"contracts/HRSLocalArbitrator.sol\":7905:8311  function setRenterCounterEstimate(uint256 _renterCounterEstimate) external {... */\n    tag_167:\n        /* \"contracts/HRSLocalArbitrator.sol\":8013:8019  renter */\n      0x01\n      0x00\n      swap1\n      sload\n      swap1\n      0x0100\n      exp\n      swap1\n      div\n      0xffffffffffffffffffffffffffffffffffffffff\n      and\n        /* \"contracts/HRSLocalArbitrator.sol\":7999:8019  msg.sender == renter */\n      0xffffffffffffffffffffffffffffffffffffffff\n      and\n        /* \"contracts/HRSLocalArbitrator.sol\":7999:8009  msg.sender */\n      caller\n        /* \"contracts/HRSLocalArbitrator.sol\":7999:8019  msg.sender == renter */\n      0xffffffffffffffffffffffffffffffffffffffff\n      and\n      eq\n        /* \"contracts/HRSLocalArbitrator.sol\":7991:8064  require(msg.sender == renter, \"Only renter can set the counter estimate\") */\n      tag_337\n      jumpi\n      mload(0x40)\n      0x08c379a000000000000000000000000000000000000000000000000000000000\n      dup2\n      mstore\n      0x04\n      add\n      tag_338\n      swap1\n      tag_339\n      jump\t// in\n    tag_338:\n      mload(0x40)\n      dup1\n      swap2\n      sub\n      swap1\n      revert\n    tag_337:\n        /* \"contracts/HRSLocalArbitrator.sol\":8083:8102  landlordEstimateSet */\n      0x0d\n      0x04\n      swap1\n      sload\n      swap1\n      0x0100\n      exp\n      swap1\n      div\n      0xff\n      and\n        /* \"contracts/HRSLocalArbitrator.sol\":8075:8146  require(landlordEstimateSet, \"Landlord must set damage estimate first\") */\n      tag_340\n      jumpi\n      mload(0x40)\n      0x08c379a000000000000000000000000000000000000000000000000000000000\n      dup2\n      mstore\n      0x04\n      add\n      tag_341\n      swap1\n      tag_342\n      jump\t// in\n    tag_341:\n      mload(0x40)\n      dup1\n      swap2\n      sub\n      swap1\n      revert\n    tag_340:\n        /* \"contracts/HRSLocalArbitrator.sol\":8181:8203  _renterCounterEstimate */\n      dup1\n        /* \"contracts/HRSLocalArbitrator.sol\":8157:8178  renterCounterEstimate */\n      0x09\n        /* \"contracts/HRSLocalArbitrator.sol\":8157:8203  renterCounterEstimate = _renterCounterEstimate */\n      dup2\n      swap1\n      sstore\n      pop\n        /* \"contracts/HRSLocalArbitrator.sol\":8241:8245  true */\n      0x01\n        /* \"contracts/HRSLocalArbitrator.sol\":8214:8238  renterCounterEstimateSet */\n      0x0d\n      0x05\n        /* \"contracts/HRSLocalArbitrator.sol\":8214:8245  renterCounterEstimateSet = true */\n      0x0100\n      exp\n      dup2\n      sload\n      dup2\n      0xff\n      mul\n      not\n      and\n      swap1\n      dup4\n      iszero\n      iszero\n      mul\n      or\n      swap1\n      sstore\n      pop\n        /* \"contracts/HRSLocalArbitrator.sol\":8261:8303  CounterEstimateSet(_renterCounterEstimate) */\n      0x0f2792b28c50f2f7eece39e74a2b4f0f1ce15a79acb72dd811686e827aed030b\n        /* \"contracts/HRSLocalArbitrator.sol\":8280:8302  _renterCounterEstimate */\n      dup2\n        /* \"contracts/HRSLocalArbitrator.sol\":8261:8303  CounterEstimateSet(_renterCounterEstimate) */\n      mload(0x40)\n      tag_343\n      swap2\n      swap1\n      tag_63\n      jump\t// in\n    tag_343:\n      mload(0x40)\n      dup1\n      swap2\n      sub\n      swap1\n      log1\n        /* \"contracts/HRSLocalArbitrator.sol\":7905:8311  function setRenterCounterEstimate(uint256 _renterCounterEstimate) external {... */\n      pop\n      jump\t// out\n        /* \"contracts/HRSLocalArbitrator.sol\":5699:6519  function skipRentPayment() external {... */\n    tag_170:\n        /* \"contracts/HRSLocalArbitrator.sol\":5768:5774  renter */\n      0x01\n      0x00\n      swap1\n      sload\n      swap1\n      0x0100\n      exp\n      swap1\n      div\n      0xffffffffffffffffffffffffffffffffffffffff\n      and\n        /* \"contracts/HRSLocalArbitrator.sol\":5754:5774  msg.sender == renter */\n      0xffffffffffffffffffffffffffffffffffffffff\n      and\n        /* \"contracts/HRSLocalArbitrator.sol\":5754:5764  msg.sender */\n      caller\n        /* \"contracts/HRSLocalArbitrator.sol\":5754:5774  msg.sender == renter */\n      0xffffffffffffffffffffffffffffffffffffffff\n      and\n      eq\n        /* \"contracts/HRSLocalArbitrator.sol\":5746:5812  require(msg.sender == renter, \"Only renter can skip rent payment\") */\n      tag_345\n      jumpi\n      mload(0x40)\n      0x08c379a000000000000000000000000000000000000000000000000000000000\n      dup2\n      mstore\n      0x04\n      add\n      tag_346\n      swap1\n      tag_347\n      jump\t// in\n    tag_346:\n      mload(0x40)\n      dup1\n      swap2\n      sub\n      swap1\n      revert\n    tag_345:\n        /* \"contracts/HRSLocalArbitrator.sol\":5831:5839  isActive */\n      0x0d\n      0x00\n      swap1\n      sload\n      swap1\n      0x0100\n      exp\n      swap1\n      div\n      0xff\n      and\n        /* \"contracts/HRSLocalArbitrator.sol\":5823:5866  require(isActive, \"Contract is not active\") */\n      tag_348\n      jumpi\n      mload(0x40)\n      0x08c379a000000000000000000000000000000000000000000000000000000000\n      dup2\n      mstore\n      0x04\n      add\n      tag_349\n      swap1\n      tag_234\n      jump\t// in\n    tag_349:\n      mload(0x40)\n      dup1\n      swap2\n      sub\n      swap1\n      revert\n    tag_348:\n        /* \"contracts/HRSLocalArbitrator.sol\":5900:5918  rentPeriodInMonths */\n      sload(0x04)\n        /* \"contracts/HRSLocalArbitrator.sol\":5885:5897  currentMonth */\n      sload(0x06)\n        /* \"contracts/HRSLocalArbitrator.sol\":5885:5918  currentMonth < rentPeriodInMonths */\n      lt\n        /* \"contracts/HRSLocalArbitrator.sol\":5877:5958  require(currentMonth < rentPeriodInMonths, \"Cannot skip rent for the last month\") */\n      tag_350\n      jumpi\n      mload(0x40)\n      0x08c379a000000000000000000000000000000000000000000000000000000000\n      dup2\n      mstore\n      0x04\n      add\n      tag_351\n      swap1\n      tag_352\n      jump\t// in\n    tag_351:\n      mload(0x40)\n      dup1\n      swap2\n      sub\n      swap1\n      revert\n    tag_350:\n        /* \"contracts/HRSLocalArbitrator.sol\":5971:6002  MonthlyRent storage currentRent */\n      0x00\n        /* \"contracts/HRSLocalArbitrator.sol\":6005:6017  monthlyRents */\n      0x0e\n        /* \"contracts/HRSLocalArbitrator.sol\":6005:6031  monthlyRents[currentMonth] */\n      0x00\n        /* \"contracts/HRSLocalArbitrator.sol\":6018:6030  currentMonth */\n      sload(0x06)\n        /* \"contracts/HRSLocalArbitrator.sol\":6005:6031  monthlyRents[currentMonth] */\n      dup2\n      mstore\n      0x20\n      add\n      swap1\n      dup2\n      mstore\n      0x20\n      add\n      0x00\n      keccak256\n        /* \"contracts/HRSLocalArbitrator.sol\":5971:6031  MonthlyRent storage currentRent = monthlyRents[currentMonth] */\n      swap1\n      pop\n        /* \"contracts/HRSLocalArbitrator.sol\":6051:6062  currentRent */\n      dup1\n        /* \"contracts/HRSLocalArbitrator.sol\":6051:6067  currentRent.paid */\n      0x03\n      add\n      0x00\n      swap1\n      sload\n      swap1\n      0x0100\n      exp\n      swap1\n      div\n      0xff\n      and\n        /* \"contracts/HRSLocalArbitrator.sol\":6050:6067  !currentRent.paid */\n      iszero\n        /* \"contracts/HRSLocalArbitrator.sol\":6042:6113  require(!currentRent.paid, \"Rent for this month has already been paid\") */\n      tag_353\n      jumpi\n      mload(0x40)\n      0x08c379a000000000000000000000000000000000000000000000000000000000\n      dup2\n      mstore\n      0x04\n      add\n      tag_354\n      swap1\n      tag_309\n      jump\t// in\n    tag_354:\n      mload(0x40)\n      dup1\n      swap2\n      sub\n      swap1\n      revert\n    tag_353:\n        /* \"contracts/HRSLocalArbitrator.sol\":6156:6157  0 */\n      0x00\n        /* \"contracts/HRSLocalArbitrator.sol\":6132:6143  currentRent */\n      dup2\n        /* \"contracts/HRSLocalArbitrator.sol\":6132:6153  currentRent.utilities */\n      0x01\n      add\n      sload\n        /* \"contracts/HRSLocalArbitrator.sol\":6132:6157  currentRent.utilities > 0 */\n      gt\n        /* \"contracts/HRSLocalArbitrator.sol\":6124:6209  require(currentRent.utilities > 0, \"Utilities for this month have not been recorded\") */\n      tag_355\n      jumpi\n      mload(0x40)\n      0x08c379a000000000000000000000000000000000000000000000000000000000\n      dup2\n      mstore\n      0x04\n      add\n      tag_356\n      swap1\n      tag_312\n      jump\t// in\n    tag_356:\n      mload(0x40)\n      dup1\n      swap2\n      sub\n      swap1\n      revert\n    tag_355:\n        /* \"contracts/HRSLocalArbitrator.sol\":6222:6243  uint256 skippedAmount */\n      0x00\n        /* \"contracts/HRSLocalArbitrator.sol\":6269:6280  currentRent */\n      dup2\n        /* \"contracts/HRSLocalArbitrator.sol\":6269:6290  currentRent.utilities */\n      0x01\n      add\n      sload\n        /* \"contracts/HRSLocalArbitrator.sol\":6246:6257  currentRent */\n      dup3\n        /* \"contracts/HRSLocalArbitrator.sol\":6246:6266  currentRent.baseRent */\n      0x00\n      add\n      sload\n        /* \"contracts/HRSLocalArbitrator.sol\":6246:6290  currentRent.baseRent + currentRent.utilities */\n      tag_357\n      swap2\n      swap1\n      tag_314\n      jump\t// in\n    tag_357:\n        /* \"contracts/HRSLocalArbitrator.sol\":6222:6290  uint256 skippedAmount = currentRent.baseRent + currentRent.utilities */\n      swap1\n      pop\n        /* \"contracts/HRSLocalArbitrator.sol\":6312:6325  skippedAmount */\n      dup1\n        /* \"contracts/HRSLocalArbitrator.sol\":6301:6308  dueRent */\n      0x07\n      0x00\n        /* \"contracts/HRSLocalArbitrator.sol\":6301:6325  dueRent += skippedAmount */\n      dup3\n      dup3\n      sload\n      tag_358\n      swap2\n      swap1\n      tag_314\n      jump\t// in\n    tag_358:\n      swap3\n      pop\n      pop\n      dup2\n      swap1\n      sstore\n      pop\n        /* \"contracts/HRSLocalArbitrator.sol\":6343:6383  RentSkipped(currentMonth, skippedAmount) */\n      0x9ea3a4b65940d7b9dbf8bb1c459ba8e81222d1a596e93fbc364365a6d78e27d6\n        /* \"contracts/HRSLocalArbitrator.sol\":6355:6367  currentMonth */\n      sload(0x06)\n        /* \"contracts/HRSLocalArbitrator.sol\":6369:6382  skippedAmount */\n      dup3\n        /* \"contracts/HRSLocalArbitrator.sol\":6343:6383  RentSkipped(currentMonth, skippedAmount) */\n      mload(0x40)\n      tag_359\n      swap3\n      swap2\n      swap1\n      tag_253\n      jump\t// in\n    tag_359:\n      mload(0x40)\n      dup1\n      swap2\n      sub\n      swap1\n      log1\n        /* \"contracts/HRSLocalArbitrator.sol\":6396:6408  currentMonth */\n      0x06\n      0x00\n        /* \"contracts/HRSLocalArbitrator.sol\":6396:6410  currentMonth++ */\n      dup2\n      sload\n      dup1\n      swap3\n      swap2\n      swap1\n      tag_360\n      swap1\n      tag_325\n      jump\t// in\n    tag_360:\n      swap2\n      swap1\n      pop\n      sstore\n      pop\n        /* \"contracts/HRSLocalArbitrator.sol\":6441:6459  rentPeriodInMonths */\n      sload(0x04)\n        /* \"contracts/HRSLocalArbitrator.sol\":6425:6437  currentMonth */\n      sload(0x06)\n        /* \"contracts/HRSLocalArbitrator.sol\":6425:6459  currentMonth == rentPeriodInMonths */\n      sub\n        /* \"contracts/HRSLocalArbitrator.sol\":6421:6512  if (currentMonth == rentPeriodInMonths) {... */\n      tag_361\n      jumpi\n        /* \"contracts/HRSLocalArbitrator.sol\":6496:6500  true */\n      0x01\n        /* \"contracts/HRSLocalArbitrator.sol\":6476:6493  rentalPeriodEnded */\n      0x0d\n      0x03\n        /* \"contracts/HRSLocalArbitrator.sol\":6476:6500  rentalPeriodEnded = true */\n      0x0100\n      exp\n      dup2\n      sload\n      dup2\n      0xff\n      mul\n      not\n      and\n      swap1\n      dup4\n      iszero\n      iszero\n      mul\n      or\n      swap1\n      sstore\n      pop\n        /* \"contracts/HRSLocalArbitrator.sol\":6421:6512  if (currentMonth == rentPeriodInMonths) {... */\n    tag_361:\n        /* \"contracts/HRSLocalArbitrator.sol\":5735:6519  {... */\n      pop\n      pop\n        /* \"contracts/HRSLocalArbitrator.sol\":5699:6519  function skipRentPayment() external {... */\n      jump\t// out\n        /* \"contracts/HRSLocalArbitrator.sol\":12925:13028  function isRentalPeriodEnded() external view returns (bool) {... */\n    tag_173:\n        /* \"contracts/HRSLocalArbitrator.sol\":12979:12983  bool */\n      0x00\n        /* \"contracts/HRSLocalArbitrator.sol\":13003:13020  rentalPeriodEnded */\n      0x0d\n      0x03\n      swap1\n      sload\n      swap1\n      0x0100\n      exp\n      swap1\n      div\n      0xff\n      and\n        /* \"contracts/HRSLocalArbitrator.sol\":12996:13020  return rentalPeriodEnded */\n      swap1\n      pop\n        /* \"contracts/HRSLocalArbitrator.sol\":12925:13028  function isRentalPeriodEnded() external view returns (bool) {... */\n      swap1\n      jump\t// out\n        /* \"contracts/HRSLocalArbitrator.sol\":689:726  uint256 public currentSecurityDeposit */\n    tag_177:\n      sload(0x0b)\n      dup2\n      jump\t// out\n        /* \"contracts/HRSLocalArbitrator.sol\":2643:3113  function setAgreementTerms(uint256 _securityDeposit, uint256 _baseRent, uint256 _rentPeriodInMonths) external {... */\n    tag_183:\n        /* \"contracts/HRSLocalArbitrator.sol\":2786:2794  landlord */\n      0x00\n      dup1\n      sload\n      swap1\n      0x0100\n      exp\n      swap1\n      div\n      0xffffffffffffffffffffffffffffffffffffffff\n      and\n        /* \"contracts/HRSLocalArbitrator.sol\":2772:2794  msg.sender == landlord */\n      0xffffffffffffffffffffffffffffffffffffffff\n      and\n        /* \"contracts/HRSLocalArbitrator.sol\":2772:2782  msg.sender */\n      caller\n        /* \"contracts/HRSLocalArbitrator.sol\":2772:2794  msg.sender == landlord */\n      0xffffffffffffffffffffffffffffffffffffffff\n      and\n      eq\n        /* \"contracts/HRSLocalArbitrator.sol\":2764:2836  require(msg.sender == landlord, \"Only landlord can set agreement terms\") */\n      tag_364\n      jumpi\n      mload(0x40)\n      0x08c379a000000000000000000000000000000000000000000000000000000000\n      dup2\n      mstore\n      0x04\n      add\n      tag_365\n      swap1\n      tag_366\n      jump\t// in\n    tag_365:\n      mload(0x40)\n      dup1\n      swap2\n      sub\n      swap1\n      revert\n    tag_364:\n        /* \"contracts/HRSLocalArbitrator.sol\":2856:2864  isActive */\n      0x0d\n      0x00\n      swap1\n      sload\n      swap1\n      0x0100\n      exp\n      swap1\n      div\n      0xff\n      and\n        /* \"contracts/HRSLocalArbitrator.sol\":2855:2864  !isActive */\n      iszero\n        /* \"contracts/HRSLocalArbitrator.sol\":2847:2895  require(!isActive, \"Contract is already active\") */\n      tag_367\n      jumpi\n      mload(0x40)\n      0x08c379a000000000000000000000000000000000000000000000000000000000\n      dup2\n      mstore\n      0x04\n      add\n      tag_368\n      swap1\n      tag_277\n      jump\t// in\n    tag_368:\n      mload(0x40)\n      dup1\n      swap2\n      sub\n      swap1\n      revert\n    tag_367:\n        /* \"contracts/HRSLocalArbitrator.sol\":2924:2940  _securityDeposit */\n      dup3\n        /* \"contracts/HRSLocalArbitrator.sol\":2906:2921  securityDeposit */\n      0x02\n        /* \"contracts/HRSLocalArbitrator.sol\":2906:2940  securityDeposit = _securityDeposit */\n      dup2\n      swap1\n      sstore\n      pop\n        /* \"contracts/HRSLocalArbitrator.sol\":2962:2971  _baseRent */\n      dup2\n        /* \"contracts/HRSLocalArbitrator.sol\":2951:2959  baseRent */\n      0x03\n        /* \"contracts/HRSLocalArbitrator.sol\":2951:2971  baseRent = _baseRent */\n      dup2\n      swap1\n      sstore\n      pop\n        /* \"contracts/HRSLocalArbitrator.sol\":3003:3022  _rentPeriodInMonths */\n      dup1\n        /* \"contracts/HRSLocalArbitrator.sol\":2982:3000  rentPeriodInMonths */\n      0x04\n        /* \"contracts/HRSLocalArbitrator.sol\":2982:3022  rentPeriodInMonths = _rentPeriodInMonths */\n      dup2\n      swap1\n      sstore\n      pop\n        /* \"contracts/HRSLocalArbitrator.sol\":3038:3105  AgreementTermsSet(_securityDeposit, _baseRent, _rentPeriodInMonths) */\n      0x2f47566d4872826a9750e05ae448ad21f2a677c332d36d6437b697a7f8dd1e14\n        /* \"contracts/HRSLocalArbitrator.sol\":3056:3072  _securityDeposit */\n      dup4\n        /* \"contracts/HRSLocalArbitrator.sol\":3074:3083  _baseRent */\n      dup4\n        /* \"contracts/HRSLocalArbitrator.sol\":3085:3104  _rentPeriodInMonths */\n      dup4\n        /* \"contracts/HRSLocalArbitrator.sol\":3038:3105  AgreementTermsSet(_securityDeposit, _baseRent, _rentPeriodInMonths) */\n      mload(0x40)\n      tag_369\n      swap4\n      swap3\n      swap2\n      swap1\n      tag_370\n      jump\t// in\n    tag_369:\n      mload(0x40)\n      dup1\n      swap2\n      sub\n      swap1\n      log1\n        /* \"contracts/HRSLocalArbitrator.sol\":2643:3113  function setAgreementTerms(uint256 _securityDeposit, uint256 _baseRent, uint256 _rentPeriodInMonths) external {... */\n      pop\n      pop\n      pop\n      jump\t// out\n        /* \"contracts/HRSLocalArbitrator.sol\":9705:11583  function executeRuling(uint256 _disputeID, uint256 _ruling) external {... */\n    tag_188:\n        /* \"contracts/HRSLocalArbitrator.sol\":9815:9825  arbitrator */\n      0x0d\n      0x06\n      swap1\n      sload\n      swap1\n      0x0100\n      exp\n      swap1\n      div\n      0xffffffffffffffffffffffffffffffffffffffff\n      and\n        /* \"contracts/HRSLocalArbitrator.sol\":9793:9826  msg.sender == address(arbitrator) */\n      0xffffffffffffffffffffffffffffffffffffffff\n      and\n        /* \"contracts/HRSLocalArbitrator.sol\":9793:9803  msg.sender */\n      caller\n        /* \"contracts/HRSLocalArbitrator.sol\":9793:9826  msg.sender == address(arbitrator) */\n      0xffffffffffffffffffffffffffffffffffffffff\n      and\n      eq\n        /* \"contracts/HRSLocalArbitrator.sol\":9785:9869  require(msg.sender == address(arbitrator), \"Only the arbitrator can execute ruling\") */\n      tag_372\n      jumpi\n      mload(0x40)\n      0x08c379a000000000000000000000000000000000000000000000000000000000\n      dup2\n      mstore\n      0x04\n      add\n      tag_373\n      swap1\n      tag_374\n      jump\t// in\n    tag_373:\n      mload(0x40)\n      dup1\n      swap2\n      sub\n      swap1\n      revert\n    tag_372:\n        /* \"contracts/HRSLocalArbitrator.sol\":9888:9901  disputeRaised */\n      0x0d\n      0x02\n      swap1\n      sload\n      swap1\n      0x0100\n      exp\n      swap1\n      div\n      0xff\n      and\n        /* \"contracts/HRSLocalArbitrator.sol\":9880:9927  require(disputeRaised, \"No dispute to rule on\") */\n      tag_375\n      jumpi\n      mload(0x40)\n      0x08c379a000000000000000000000000000000000000000000000000000000000\n      dup2\n      mstore\n      0x04\n      add\n      tag_376\n      swap1\n      tag_377\n      jump\t// in\n    tag_376:\n      mload(0x40)\n      dup1\n      swap2\n      sub\n      swap1\n      revert\n    tag_375:\n        /* \"contracts/HRSLocalArbitrator.sol\":9960:9969  disputeID */\n      sload(0x0a)\n        /* \"contracts/HRSLocalArbitrator.sol\":9946:9956  _disputeID */\n      dup3\n        /* \"contracts/HRSLocalArbitrator.sol\":9946:9969  _disputeID == disputeID */\n      eq\n        /* \"contracts/HRSLocalArbitrator.sol\":9938:9990  require(_disputeID == disputeID, \"Wrong dispute ID\") */\n      tag_378\n      jumpi\n      mload(0x40)\n      0x08c379a000000000000000000000000000000000000000000000000000000000\n      dup2\n      mstore\n      0x04\n      add\n      tag_379\n      swap1\n      tag_380\n      jump\t// in\n    tag_379:\n      mload(0x40)\n      dup1\n      swap2\n      sub\n      swap1\n      revert\n    tag_378:\n        /* \"contracts/HRSLocalArbitrator.sol\":10003:10023  uint256 damageAmount */\n      0x00\n        /* \"contracts/HRSLocalArbitrator.sol\":10049:10050  1 */\n      0x01\n        /* \"contracts/HRSLocalArbitrator.sol\":10038:10045  _ruling */\n      dup3\n        /* \"contracts/HRSLocalArbitrator.sol\":10038:10050  _ruling == 1 */\n      sub\n        /* \"contracts/HRSLocalArbitrator.sol\":10034:10563  if (_ruling == 1) {... */\n      tag_381\n      jumpi\n        /* \"contracts/HRSLocalArbitrator.sol\":10147:10169  currentSecurityDeposit */\n      sload(0x0b)\n        /* \"contracts/HRSLocalArbitrator.sol\":10130:10144  damageEstimate */\n      sload(0x08)\n        /* \"contracts/HRSLocalArbitrator.sol\":10130:10169  damageEstimate < currentSecurityDeposit */\n      lt\n        /* \"contracts/HRSLocalArbitrator.sol\":10130:10211  damageEstimate < currentSecurityDeposit ? damageEstimate : currentSecurityDeposit */\n      tag_382\n      jumpi\n        /* \"contracts/HRSLocalArbitrator.sol\":10189:10211  currentSecurityDeposit */\n      sload(0x0b)\n        /* \"contracts/HRSLocalArbitrator.sol\":10130:10211  damageEstimate < currentSecurityDeposit ? damageEstimate : currentSecurityDeposit */\n      jump(tag_383)\n    tag_382:\n        /* \"contracts/HRSLocalArbitrator.sol\":10172:10186  damageEstimate */\n      sload(0x08)\n        /* \"contracts/HRSLocalArbitrator.sol\":10130:10211  damageEstimate < currentSecurityDeposit ? damageEstimate : currentSecurityDeposit */\n    tag_383:\n        /* \"contracts/HRSLocalArbitrator.sol\":10115:10211  damageAmount = damageEstimate < currentSecurityDeposit ? damageEstimate : currentSecurityDeposit */\n      swap1\n      pop\n        /* \"contracts/HRSLocalArbitrator.sol\":10034:10563  if (_ruling == 1) {... */\n      jump(tag_384)\n    tag_381:\n        /* \"contracts/HRSLocalArbitrator.sol\":10244:10245  2 */\n      0x02\n        /* \"contracts/HRSLocalArbitrator.sol\":10233:10240  _ruling */\n      dup3\n        /* \"contracts/HRSLocalArbitrator.sol\":10233:10245  _ruling == 2 */\n      sub\n        /* \"contracts/HRSLocalArbitrator.sol\":10229:10563  if (_ruling == 2) {... */\n      tag_385\n      jumpi\n        /* \"contracts/HRSLocalArbitrator.sol\":10347:10369  currentSecurityDeposit */\n      sload(0x0b)\n        /* \"contracts/HRSLocalArbitrator.sol\":10323:10344  renterCounterEstimate */\n      sload(0x09)\n        /* \"contracts/HRSLocalArbitrator.sol\":10323:10369  renterCounterEstimate < currentSecurityDeposit */\n      lt\n        /* \"contracts/HRSLocalArbitrator.sol\":10323:10418  renterCounterEstimate < currentSecurityDeposit ? renterCounterEstimate : currentSecurityDeposit */\n      tag_386\n      jumpi\n        /* \"contracts/HRSLocalArbitrator.sol\":10396:10418  currentSecurityDeposit */\n      sload(0x0b)\n        /* \"contracts/HRSLocalArbitrator.sol\":10323:10418  renterCounterEstimate < currentSecurityDeposit ? renterCounterEstimate : currentSecurityDeposit */\n      jump(tag_387)\n    tag_386:\n        /* \"contracts/HRSLocalArbitrator.sol\":10372:10393  renterCounterEstimate */\n      sload(0x09)\n        /* \"contracts/HRSLocalArbitrator.sol\":10323:10418  renterCounterEstimate < currentSecurityDeposit ? renterCounterEstimate : currentSecurityDeposit */\n    tag_387:\n        /* \"contracts/HRSLocalArbitrator.sol\":10308:10418  damageAmount = renterCounterEstimate < currentSecurityDeposit ? renterCounterEstimate : currentSecurityDeposit */\n      swap1\n      pop\n        /* \"contracts/HRSLocalArbitrator.sol\":10229:10563  if (_ruling == 2) {... */\n      jump(tag_388)\n    tag_385:\n        /* \"contracts/HRSLocalArbitrator.sol\":10550:10551  2 */\n      0x02\n        /* \"contracts/HRSLocalArbitrator.sol\":10525:10547  currentSecurityDeposit */\n      sload(0x0b)\n        /* \"contracts/HRSLocalArbitrator.sol\":10525:10551  currentSecurityDeposit / 2 */\n      tag_389\n      swap2\n      swap1\n      tag_390\n      jump\t// in\n    tag_389:\n        /* \"contracts/HRSLocalArbitrator.sol\":10510:10551  damageAmount = currentSecurityDeposit / 2 */\n      swap1\n      pop\n        /* \"contracts/HRSLocalArbitrator.sol\":10229:10563  if (_ruling == 2) {... */\n    tag_388:\n        /* \"contracts/HRSLocalArbitrator.sol\":10034:10563  if (_ruling == 1) {... */\n    tag_384:\n        /* \"contracts/HRSLocalArbitrator.sol\":10659:10671  damageAmount */\n      dup1\n        /* \"contracts/HRSLocalArbitrator.sol\":10627:10645  pendingWithdrawals */\n      0x0f\n        /* \"contracts/HRSLocalArbitrator.sol\":10627:10655  pendingWithdrawals[landlord] */\n      0x00\n        /* \"contracts/HRSLocalArbitrator.sol\":10646:10654  landlord */\n      dup1\n      0x00\n      swap1\n      sload\n      swap1\n      0x0100\n      exp\n      swap1\n      div\n      0xffffffffffffffffffffffffffffffffffffffff\n      and\n        /* \"contracts/HRSLocalArbitrator.sol\":10627:10655  pendingWithdrawals[landlord] */\n      0xffffffffffffffffffffffffffffffffffffffff\n      and\n      0xffffffffffffffffffffffffffffffffffffffff\n      and\n      dup2\n      mstore\n      0x20\n      add\n      swap1\n      dup2\n      mstore\n      0x20\n      add\n      0x00\n      keccak256\n      0x00\n        /* \"contracts/HRSLocalArbitrator.sol\":10627:10671  pendingWithdrawals[landlord] += damageAmount */\n      dup3\n      dup3\n      sload\n      tag_391\n      swap2\n      swap1\n      tag_314\n      jump\t// in\n    tag_391:\n      swap3\n      pop\n      pop\n      dup2\n      swap1\n      sstore\n      pop\n        /* \"contracts/HRSLocalArbitrator.sol\":10738:10750  damageAmount */\n      dup1\n        /* \"contracts/HRSLocalArbitrator.sol\":10713:10735  currentSecurityDeposit */\n      sload(0x0b)\n        /* \"contracts/HRSLocalArbitrator.sol\":10713:10750  currentSecurityDeposit - damageAmount */\n      tag_392\n      swap2\n      swap1\n      tag_251\n      jump\t// in\n    tag_392:\n        /* \"contracts/HRSLocalArbitrator.sol\":10682:10700  pendingWithdrawals */\n      0x0f\n        /* \"contracts/HRSLocalArbitrator.sol\":10682:10708  pendingWithdrawals[renter] */\n      0x00\n        /* \"contracts/HRSLocalArbitrator.sol\":10701:10707  renter */\n      0x01\n      0x00\n      swap1\n      sload\n      swap1\n      0x0100\n      exp\n      swap1\n      div\n      0xffffffffffffffffffffffffffffffffffffffff\n      and\n        /* \"contracts/HRSLocalArbitrator.sol\":10682:10708  pendingWithdrawals[renter] */\n      0xffffffffffffffffffffffffffffffffffffffff\n      and\n      0xffffffffffffffffffffffffffffffffffffffff\n      and\n      dup2\n      mstore\n      0x20\n      add\n      swap1\n      dup2\n      mstore\n      0x20\n      add\n      0x00\n      keccak256\n      0x00\n        /* \"contracts/HRSLocalArbitrator.sol\":10682:10751  pendingWithdrawals[renter] += (currentSecurityDeposit - damageAmount) */\n      dup3\n      dup3\n      sload\n      tag_393\n      swap2\n      swap1\n      tag_314\n      jump\t// in\n    tag_393:\n      swap3\n      pop\n      pop\n      dup2\n      swap1\n      sstore\n      pop\n        /* \"contracts/HRSLocalArbitrator.sol\":10833:10862  uint256 arbitrationCostRefund */\n      0x00\n        /* \"contracts/HRSLocalArbitrator.sol\":10883:10884  2 */\n      0x02\n        /* \"contracts/HRSLocalArbitrator.sol\":10865:10880  arbitrationCost */\n      sload(0x0c)\n        /* \"contracts/HRSLocalArbitrator.sol\":10865:10884  arbitrationCost / 2 */\n      tag_394\n      swap2\n      swap1\n      tag_390\n      jump\t// in\n    tag_394:\n        /* \"contracts/HRSLocalArbitrator.sol\":10833:10884  uint256 arbitrationCostRefund = arbitrationCost / 2 */\n      swap1\n      pop\n        /* \"contracts/HRSLocalArbitrator.sol\":10910:10911  1 */\n      0x01\n        /* \"contracts/HRSLocalArbitrator.sol\":10899:10906  _ruling */\n      dup4\n        /* \"contracts/HRSLocalArbitrator.sol\":10899:10911  _ruling == 1 */\n      sub\n        /* \"contracts/HRSLocalArbitrator.sol\":10895:11308  if (_ruling == 1) {... */\n      tag_395\n      jumpi\n        /* \"contracts/HRSLocalArbitrator.sol\":10960:10981  arbitrationCostRefund */\n      dup1\n        /* \"contracts/HRSLocalArbitrator.sol\":10928:10946  pendingWithdrawals */\n      0x0f\n        /* \"contracts/HRSLocalArbitrator.sol\":10928:10956  pendingWithdrawals[landlord] */\n      0x00\n        /* \"contracts/HRSLocalArbitrator.sol\":10947:10955  landlord */\n      dup1\n      0x00\n      swap1\n      sload\n      swap1\n      0x0100\n      exp\n      swap1\n      div\n      0xffffffffffffffffffffffffffffffffffffffff\n      and\n        /* \"contracts/HRSLocalArbitrator.sol\":10928:10956  pendingWithdrawals[landlord] */\n      0xffffffffffffffffffffffffffffffffffffffff\n      and\n      0xffffffffffffffffffffffffffffffffffffffff\n      and\n      dup2\n      mstore\n      0x20\n      add\n      swap1\n      dup2\n      mstore\n      0x20\n      add\n      0x00\n      keccak256\n      0x00\n        /* \"contracts/HRSLocalArbitrator.sol\":10928:10981  pendingWithdrawals[landlord] += arbitrationCostRefund */\n      dup3\n      dup3\n      sload\n      tag_396\n      swap2\n      swap1\n      tag_314\n      jump\t// in\n    tag_396:\n      swap3\n      pop\n      pop\n      dup2\n      swap1\n      sstore\n      pop\n        /* \"contracts/HRSLocalArbitrator.sol\":10895:11308  if (_ruling == 1) {... */\n      jump(tag_397)\n    tag_395:\n        /* \"contracts/HRSLocalArbitrator.sol\":11014:11015  2 */\n      0x02\n        /* \"contracts/HRSLocalArbitrator.sol\":11003:11010  _ruling */\n      dup4\n        /* \"contracts/HRSLocalArbitrator.sol\":11003:11015  _ruling == 2 */\n      sub\n        /* \"contracts/HRSLocalArbitrator.sol\":10999:11308  if (_ruling == 2) {... */\n      tag_398\n      jumpi\n        /* \"contracts/HRSLocalArbitrator.sol\":11062:11083  arbitrationCostRefund */\n      dup1\n        /* \"contracts/HRSLocalArbitrator.sol\":11032:11050  pendingWithdrawals */\n      0x0f\n        /* \"contracts/HRSLocalArbitrator.sol\":11032:11058  pendingWithdrawals[renter] */\n      0x00\n        /* \"contracts/HRSLocalArbitrator.sol\":11051:11057  renter */\n      0x01\n      0x00\n      swap1\n      sload\n      swap1\n      0x0100\n      exp\n      swap1\n      div\n      0xffffffffffffffffffffffffffffffffffffffff\n      and\n        /* \"contracts/HRSLocalArbitrator.sol\":11032:11058  pendingWithdrawals[renter] */\n      0xffffffffffffffffffffffffffffffffffffffff\n      and\n      0xffffffffffffffffffffffffffffffffffffffff\n      and\n      dup2\n      mstore\n      0x20\n      add\n      swap1\n      dup2\n      mstore\n      0x20\n      add\n      0x00\n      keccak256\n      0x00\n        /* \"contracts/HRSLocalArbitrator.sol\":11032:11083  pendingWithdrawals[renter] += arbitrationCostRefund */\n      dup3\n      dup3\n      sload\n      tag_399\n      swap2\n      swap1\n      tag_314\n      jump\t// in\n    tag_399:\n      swap3\n      pop\n      pop\n      dup2\n      swap1\n      sstore\n      pop\n        /* \"contracts/HRSLocalArbitrator.sol\":10999:11308  if (_ruling == 2) {... */\n      jump(tag_400)\n    tag_398:\n        /* \"contracts/HRSLocalArbitrator.sol\":11225:11226  2 */\n      0x02\n        /* \"contracts/HRSLocalArbitrator.sol\":11201:11222  arbitrationCostRefund */\n      dup2\n        /* \"contracts/HRSLocalArbitrator.sol\":11201:11226  arbitrationCostRefund / 2 */\n      tag_401\n      swap2\n      swap1\n      tag_390\n      jump\t// in\n    tag_401:\n        /* \"contracts/HRSLocalArbitrator.sol\":11169:11187  pendingWithdrawals */\n      0x0f\n        /* \"contracts/HRSLocalArbitrator.sol\":11169:11197  pendingWithdrawals[landlord] */\n      0x00\n        /* \"contracts/HRSLocalArbitrator.sol\":11188:11196  landlord */\n      dup1\n      0x00\n      swap1\n      sload\n      swap1\n      0x0100\n      exp\n      swap1\n      div\n      0xffffffffffffffffffffffffffffffffffffffff\n      and\n        /* \"contracts/HRSLocalArbitrator.sol\":11169:11197  pendingWithdrawals[landlord] */\n      0xffffffffffffffffffffffffffffffffffffffff\n      and\n      0xffffffffffffffffffffffffffffffffffffffff\n      and\n      dup2\n      mstore\n      0x20\n      add\n      swap1\n      dup2\n      mstore\n      0x20\n      add\n      0x00\n      keccak256\n      0x00\n        /* \"contracts/HRSLocalArbitrator.sol\":11169:11226  pendingWithdrawals[landlord] += arbitrationCostRefund / 2 */\n      dup3\n      dup3\n      sload\n      tag_402\n      swap2\n      swap1\n      tag_314\n      jump\t// in\n    tag_402:\n      swap3\n      pop\n      pop\n      dup2\n      swap1\n      sstore\n      pop\n        /* \"contracts/HRSLocalArbitrator.sol\":11295:11296  2 */\n      0x02\n        /* \"contracts/HRSLocalArbitrator.sol\":11271:11292  arbitrationCostRefund */\n      dup2\n        /* \"contracts/HRSLocalArbitrator.sol\":11271:11296  arbitrationCostRefund / 2 */\n      tag_403\n      swap2\n      swap1\n      tag_390\n      jump\t// in\n    tag_403:\n        /* \"contracts/HRSLocalArbitrator.sol\":11241:11259  pendingWithdrawals */\n      0x0f\n        /* \"contracts/HRSLocalArbitrator.sol\":11241:11267  pendingWithdrawals[renter] */\n      0x00\n        /* \"contracts/HRSLocalArbitrator.sol\":11260:11266  renter */\n      0x01\n      0x00\n      swap1\n      sload\n      swap1\n      0x0100\n      exp\n      swap1\n      div\n      0xffffffffffffffffffffffffffffffffffffffff\n      and\n        /* \"contracts/HRSLocalArbitrator.sol\":11241:11267  pendingWithdrawals[renter] */\n      0xffffffffffffffffffffffffffffffffffffffff\n      and\n      0xffffffffffffffffffffffffffffffffffffffff\n      and\n      dup2\n      mstore\n      0x20\n      add\n      swap1\n      dup2\n      mstore\n      0x20\n      add\n      0x00\n      keccak256\n      0x00\n        /* \"contracts/HRSLocalArbitrator.sol\":11241:11296  pendingWithdrawals[renter] += arbitrationCostRefund / 2 */\n      dup3\n      dup3\n      sload\n      tag_404\n      swap2\n      swap1\n      tag_314\n      jump\t// in\n    tag_404:\n      swap3\n      pop\n      pop\n      dup2\n      swap1\n      sstore\n      pop\n        /* \"contracts/HRSLocalArbitrator.sol\":10999:11308  if (_ruling == 2) {... */\n    tag_400:\n        /* \"contracts/HRSLocalArbitrator.sol\":10895:11308  if (_ruling == 1) {... */\n    tag_397:\n        /* \"contracts/HRSLocalArbitrator.sol\":11430:11436  renter */\n      0x01\n      0x00\n      swap1\n      sload\n      swap1\n      0x0100\n      exp\n      swap1\n      div\n      0xffffffffffffffffffffffffffffffffffffffff\n      and\n        /* \"contracts/HRSLocalArbitrator.sol\":11373:11465  FundsDistributed(landlord, pendingWithdrawals[landlord], renter, pendingWithdrawals[renter]) */\n      0xffffffffffffffffffffffffffffffffffffffff\n      and\n        /* \"contracts/HRSLocalArbitrator.sol\":11390:11398  landlord */\n      0x00\n      dup1\n      sload\n      swap1\n      0x0100\n      exp\n      swap1\n      div\n      0xffffffffffffffffffffffffffffffffffffffff\n      and\n        /* \"contracts/HRSLocalArbitrator.sol\":11373:11465  FundsDistributed(landlord, pendingWithdrawals[landlord], renter, pendingWithdrawals[renter]) */\n      0xffffffffffffffffffffffffffffffffffffffff\n      and\n      0xcc2c3f002c6146160e9eb8ade8202f88f3d01aa0fbbc98e7582f7280af10651f\n        /* \"contracts/HRSLocalArbitrator.sol\":11400:11418  pendingWithdrawals */\n      0x0f\n        /* \"contracts/HRSLocalArbitrator.sol\":11400:11428  pendingWithdrawals[landlord] */\n      0x00\n        /* \"contracts/HRSLocalArbitrator.sol\":11419:11427  landlord */\n      dup1\n      0x00\n      swap1\n      sload\n      swap1\n      0x0100\n      exp\n      swap1\n      div\n      0xffffffffffffffffffffffffffffffffffffffff\n      and\n        /* \"contracts/HRSLocalArbitrator.sol\":11400:11428  pendingWithdrawals[landlord] */\n      0xffffffffffffffffffffffffffffffffffffffff\n      and\n      0xffffffffffffffffffffffffffffffffffffffff\n      and\n      dup2\n      mstore\n      0x20\n      add\n      swap1\n      dup2\n      mstore\n      0x20\n      add\n      0x00\n      keccak256\n      sload\n        /* \"contracts/HRSLocalArbitrator.sol\":11438:11456  pendingWithdrawals */\n      0x0f\n        /* \"contracts/HRSLocalArbitrator.sol\":11438:11464  pendingWithdrawals[renter] */\n      0x00\n        /* \"contracts/HRSLocalArbitrator.sol\":11457:11463  renter */\n      0x01\n      0x00\n      swap1\n      sload\n      swap1\n      0x0100\n      exp\n      swap1\n      div\n      0xffffffffffffffffffffffffffffffffffffffff\n      and\n        /* \"contracts/HRSLocalArbitrator.sol\":11438:11464  pendingWithdrawals[renter] */\n      0xffffffffffffffffffffffffffffffffffffffff\n      and\n      0xffffffffffffffffffffffffffffffffffffffff\n      and\n      dup2\n      mstore\n      0x20\n      add\n      swap1\n      dup2\n      mstore\n      0x20\n      add\n      0x00\n      keccak256\n      sload\n        /* \"contracts/HRSLocalArbitrator.sol\":11373:11465  FundsDistributed(landlord, pendingWithdrawals[landlord], renter, pendingWithdrawals[renter]) */\n      mload(0x40)\n      tag_405\n      swap3\n      swap2\n      swap1\n      tag_253\n      jump\t// in\n    tag_405:\n      mload(0x40)\n      dup1\n      swap2\n      sub\n      swap1\n      log3\n        /* \"contracts/HRSLocalArbitrator.sol\":11494:11499  false */\n      0x00\n        /* \"contracts/HRSLocalArbitrator.sol\":11478:11491  disputeRaised */\n      0x0d\n      0x02\n        /* \"contracts/HRSLocalArbitrator.sol\":11478:11499  disputeRaised = false */\n      0x0100\n      exp\n      dup2\n      sload\n      dup2\n      0xff\n      mul\n      not\n      and\n      swap1\n      dup4\n      iszero\n      iszero\n      mul\n      or\n      swap1\n      sstore\n      pop\n        /* \"contracts/HRSLocalArbitrator.sol\":11515:11551  DisputeResolved(_disputeID, _ruling) */\n      0xb4121f1f91a696a3fc75f6d151f3c9865abffa0738bda595e71c381c02af2faa\n        /* \"contracts/HRSLocalArbitrator.sol\":11531:11541  _disputeID */\n      dup5\n        /* \"contracts/HRSLocalArbitrator.sol\":11543:11550  _ruling */\n      dup5\n        /* \"contracts/HRSLocalArbitrator.sol\":11515:11551  DisputeResolved(_disputeID, _ruling) */\n      mload(0x40)\n      tag_406\n      swap3\n      swap2\n      swap1\n      tag_253\n      jump\t// in\n    tag_406:\n      mload(0x40)\n      dup1\n      swap2\n      sub\n      swap1\n      log1\n        /* \"contracts/HRSLocalArbitrator.sol\":11562:11575  endContract() */\n      tag_407\n        /* \"contracts/HRSLocalArbitrator.sol\":11562:11573  endContract */\n      tag_408\n        /* \"contracts/HRSLocalArbitrator.sol\":11562:11575  endContract() */\n      jump\t// in\n    tag_407:\n        /* \"contracts/HRSLocalArbitrator.sol\":9774:11583  {... */\n      pop\n      pop\n        /* \"contracts/HRSLocalArbitrator.sol\":9705:11583  function executeRuling(uint256 _disputeID, uint256 _ruling) external {... */\n      pop\n      pop\n      jump\t// out\n        /* \"contracts/HRSLocalArbitrator.sol\":316:339  address public landlord */\n    tag_191:\n      0x00\n      dup1\n      sload\n      swap1\n      0x0100\n      exp\n      swap1\n      div\n      0xffffffffffffffffffffffffffffffffffffffff\n      and\n      dup2\n      jump\t// out\n        /* \"contracts/HRSLocalArbitrator.sol\":7651:7897  function rejectLandlordEstimate() external {... */\n    tag_195:\n        /* \"contracts/HRSLocalArbitrator.sol\":7727:7733  renter */\n      0x01\n      0x00\n      swap1\n      sload\n      swap1\n      0x0100\n      exp\n      swap1\n      div\n      0xffffffffffffffffffffffffffffffffffffffff\n      and\n        /* \"contracts/HRSLocalArbitrator.sol\":7713:7733  msg.sender == renter */\n      0xffffffffffffffffffffffffffffffffffffffff\n      and\n        /* \"contracts/HRSLocalArbitrator.sol\":7713:7723  msg.sender */\n      caller\n        /* \"contracts/HRSLocalArbitrator.sol\":7713:7733  msg.sender == renter */\n      0xffffffffffffffffffffffffffffffffffffffff\n      and\n      eq\n        /* \"contracts/HRSLocalArbitrator.sol\":7705:7773  require(msg.sender == renter, \"Only renter can reject the estimate\") */\n      tag_410\n      jumpi\n      mload(0x40)\n      0x08c379a000000000000000000000000000000000000000000000000000000000\n      dup2\n      mstore\n      0x04\n      add\n      tag_411\n      swap1\n      tag_412\n      jump\t// in\n    tag_411:\n      mload(0x40)\n      dup1\n      swap2\n      sub\n      swap1\n      revert\n    tag_410:\n        /* \"contracts/HRSLocalArbitrator.sol\":7792:7811  landlordEstimateSet */\n      0x0d\n      0x04\n      swap1\n      sload\n      swap1\n      0x0100\n      exp\n      swap1\n      div\n      0xff\n      and\n        /* \"contracts/HRSLocalArbitrator.sol\":7784:7855  require(landlordEstimateSet, \"Landlord must set damage estimate first\") */\n      tag_413\n      jumpi\n      mload(0x40)\n      0x08c379a000000000000000000000000000000000000000000000000000000000\n      dup2\n      mstore\n      0x04\n      add\n      tag_414\n      swap1\n      tag_342\n      jump\t// in\n    tag_414:\n      mload(0x40)\n      dup1\n      swap2\n      sub\n      swap1\n      revert\n    tag_413:\n        /* \"contracts/HRSLocalArbitrator.sol\":7871:7889  EstimateRejected() */\n      0x214f96452fc3fdfd5eeafda7f5df5b6066f4f8ac1295fb53cd051491b9b56da3\n      mload(0x40)\n      mload(0x40)\n      dup1\n      swap2\n      sub\n      swap1\n      log1\n        /* \"contracts/HRSLocalArbitrator.sol\":7651:7897  function rejectLandlordEstimate() external {... */\n      jump\t// out\n        /* \"contracts/HRSLocalArbitrator.sol\":7016:7643  function acceptLandlordEstimate() external {... */\n    tag_198:\n        /* \"contracts/HRSLocalArbitrator.sol\":7092:7098  renter */\n      0x01\n      0x00\n      swap1\n      sload\n      swap1\n      0x0100\n      exp\n      swap1\n      div\n      0xffffffffffffffffffffffffffffffffffffffff\n      and\n        /* \"contracts/HRSLocalArbitrator.sol\":7078:7098  msg.sender == renter */\n      0xffffffffffffffffffffffffffffffffffffffff\n      and\n        /* \"contracts/HRSLocalArbitrator.sol\":7078:7088  msg.sender */\n      caller\n        /* \"contracts/HRSLocalArbitrator.sol\":7078:7098  msg.sender == renter */\n      0xffffffffffffffffffffffffffffffffffffffff\n      and\n      eq\n        /* \"contracts/HRSLocalArbitrator.sol\":7070:7138  require(msg.sender == renter, \"Only renter can accept the estimate\") */\n      tag_416\n      jumpi\n      mload(0x40)\n      0x08c379a000000000000000000000000000000000000000000000000000000000\n      dup2\n      mstore\n      0x04\n      add\n      tag_417\n      swap1\n      tag_418\n      jump\t// in\n    tag_417:\n      mload(0x40)\n      dup1\n      swap2\n      sub\n      swap1\n      revert\n    tag_416:\n        /* \"contracts/HRSLocalArbitrator.sol\":7157:7176  landlordEstimateSet */\n      0x0d\n      0x04\n      swap1\n      sload\n      swap1\n      0x0100\n      exp\n      swap1\n      div\n      0xff\n      and\n        /* \"contracts/HRSLocalArbitrator.sol\":7149:7220  require(landlordEstimateSet, \"Landlord must set damage estimate first\") */\n      tag_419\n      jumpi\n      mload(0x40)\n      0x08c379a000000000000000000000000000000000000000000000000000000000\n      dup2\n      mstore\n      0x04\n      add\n      tag_420\n      swap1\n      tag_342\n      jump\t// in\n    tag_420:\n      mload(0x40)\n      dup1\n      swap2\n      sub\n      swap1\n      revert\n    tag_419:\n        /* \"contracts/HRSLocalArbitrator.sol\":7231:7251  uint256 damageAmount */\n      0x00\n        /* \"contracts/HRSLocalArbitrator.sol\":7271:7293  currentSecurityDeposit */\n      sload(0x0b)\n        /* \"contracts/HRSLocalArbitrator.sol\":7254:7268  damageEstimate */\n      sload(0x08)\n        /* \"contracts/HRSLocalArbitrator.sol\":7254:7293  damageEstimate < currentSecurityDeposit */\n      lt\n        /* \"contracts/HRSLocalArbitrator.sol\":7254:7335  damageEstimate < currentSecurityDeposit ? damageEstimate : currentSecurityDeposit */\n      tag_421\n      jumpi\n        /* \"contracts/HRSLocalArbitrator.sol\":7313:7335  currentSecurityDeposit */\n      sload(0x0b)\n        /* \"contracts/HRSLocalArbitrator.sol\":7254:7335  damageEstimate < currentSecurityDeposit ? damageEstimate : currentSecurityDeposit */\n      jump(tag_422)\n    tag_421:\n        /* \"contracts/HRSLocalArbitrator.sol\":7296:7310  damageEstimate */\n      sload(0x08)\n        /* \"contracts/HRSLocalArbitrator.sol\":7254:7335  damageEstimate < currentSecurityDeposit ? damageEstimate : currentSecurityDeposit */\n    tag_422:\n        /* \"contracts/HRSLocalArbitrator.sol\":7231:7335  uint256 damageAmount = damageEstimate < currentSecurityDeposit ? damageEstimate : currentSecurityDeposit */\n      swap1\n      pop\n        /* \"contracts/HRSLocalArbitrator.sol\":7378:7390  damageAmount */\n      dup1\n        /* \"contracts/HRSLocalArbitrator.sol\":7346:7364  pendingWithdrawals */\n      0x0f\n        /* \"contracts/HRSLocalArbitrator.sol\":7346:7374  pendingWithdrawals[landlord] */\n      0x00\n        /* \"contracts/HRSLocalArbitrator.sol\":7365:7373  landlord */\n      dup1\n      0x00\n      swap1\n      sload\n      swap1\n      0x0100\n      exp\n      swap1\n      div\n      0xffffffffffffffffffffffffffffffffffffffff\n      and\n        /* \"contracts/HRSLocalArbitrator.sol\":7346:7374  pendingWithdrawals[landlord] */\n      0xffffffffffffffffffffffffffffffffffffffff\n      and\n      0xffffffffffffffffffffffffffffffffffffffff\n      and\n      dup2\n      mstore\n      0x20\n      add\n      swap1\n      dup2\n      mstore\n      0x20\n      add\n      0x00\n      keccak256\n      0x00\n        /* \"contracts/HRSLocalArbitrator.sol\":7346:7390  pendingWithdrawals[landlord] += damageAmount */\n      dup3\n      dup3\n      sload\n      tag_423\n      swap2\n      swap1\n      tag_314\n      jump\t// in\n    tag_423:\n      swap3\n      pop\n      pop\n      dup2\n      swap1\n      sstore\n      pop\n        /* \"contracts/HRSLocalArbitrator.sol\":7457:7469  damageAmount */\n      dup1\n        /* \"contracts/HRSLocalArbitrator.sol\":7432:7454  currentSecurityDeposit */\n      sload(0x0b)\n        /* \"contracts/HRSLocalArbitrator.sol\":7432:7469  currentSecurityDeposit - damageAmount */\n      tag_424\n      swap2\n      swap1\n      tag_251\n      jump\t// in\n    tag_424:\n        /* \"contracts/HRSLocalArbitrator.sol\":7401:7419  pendingWithdrawals */\n      0x0f\n        /* \"contracts/HRSLocalArbitrator.sol\":7401:7427  pendingWithdrawals[renter] */\n      0x00\n        /* \"contracts/HRSLocalArbitrator.sol\":7420:7426  renter */\n      0x01\n      0x00\n      swap1\n      sload\n      swap1\n      0x0100\n      exp\n      swap1\n      div\n      0xffffffffffffffffffffffffffffffffffffffff\n      and\n        /* \"contracts/HRSLocalArbitrator.sol\":7401:7427  pendingWithdrawals[renter] */\n      0xffffffffffffffffffffffffffffffffffffffff\n      and\n      0xffffffffffffffffffffffffffffffffffffffff\n      and\n      dup2\n      mstore\n      0x20\n      add\n      swap1\n      dup2\n      mstore\n      0x20\n      add\n      0x00\n      keccak256\n      0x00\n        /* \"contracts/HRSLocalArbitrator.sol\":7401:7470  pendingWithdrawals[renter] += (currentSecurityDeposit - damageAmount) */\n      dup3\n      dup3\n      sload\n      tag_425\n      swap2\n      swap1\n      tag_314\n      jump\t// in\n    tag_425:\n      swap3\n      pop\n      pop\n      dup2\n      swap1\n      sstore\n      pop\n        /* \"contracts/HRSLocalArbitrator.sol\":7506:7514  landlord */\n      0x00\n      dup1\n      sload\n      swap1\n      0x0100\n      exp\n      swap1\n      div\n      0xffffffffffffffffffffffffffffffffffffffff\n      and\n        /* \"contracts/HRSLocalArbitrator.sol\":7486:7529  WithdrawalRequested(landlord, damageAmount) */\n      0xffffffffffffffffffffffffffffffffffffffff\n      and\n      0xe670e4e82118d22a1f9ee18920455ebc958bae26a90a05d31d3378788b1b0e44\n        /* \"contracts/HRSLocalArbitrator.sol\":7516:7528  damageAmount */\n      dup3\n        /* \"contracts/HRSLocalArbitrator.sol\":7486:7529  WithdrawalRequested(landlord, damageAmount) */\n      mload(0x40)\n      tag_426\n      swap2\n      swap1\n      tag_63\n      jump\t// in\n    tag_426:\n      mload(0x40)\n      dup1\n      swap2\n      sub\n      swap1\n      log2\n        /* \"contracts/HRSLocalArbitrator.sol\":7565:7571  renter */\n      0x01\n      0x00\n      swap1\n      sload\n      swap1\n      0x0100\n      exp\n      swap1\n      div\n      0xffffffffffffffffffffffffffffffffffffffff\n      and\n        /* \"contracts/HRSLocalArbitrator.sol\":7545:7611  WithdrawalRequested(renter, currentSecurityDeposit - damageAmount) */\n      0xffffffffffffffffffffffffffffffffffffffff\n      and\n      0xe670e4e82118d22a1f9ee18920455ebc958bae26a90a05d31d3378788b1b0e44\n        /* \"contracts/HRSLocalArbitrator.sol\":7598:7610  damageAmount */\n      dup3\n        /* \"contracts/HRSLocalArbitrator.sol\":7573:7595  currentSecurityDeposit */\n      sload(0x0b)\n        /* \"contracts/HRSLocalArbitrator.sol\":7573:7610  currentSecurityDeposit - damageAmount */\n      tag_427\n      swap2\n      swap1\n      tag_251\n      jump\t// in\n    tag_427:\n        /* \"contracts/HRSLocalArbitrator.sol\":7545:7611  WithdrawalRequested(renter, currentSecurityDeposit - damageAmount) */\n      mload(0x40)\n      tag_428\n      swap2\n      swap1\n      tag_63\n      jump\t// in\n    tag_428:\n      mload(0x40)\n      dup1\n      swap2\n      sub\n      swap1\n      log2\n        /* \"contracts/HRSLocalArbitrator.sol\":7622:7635  endContract() */\n      tag_429\n        /* \"contracts/HRSLocalArbitrator.sol\":7622:7633  endContract */\n      tag_408\n        /* \"contracts/HRSLocalArbitrator.sol\":7622:7635  endContract() */\n      jump\t// in\n    tag_429:\n        /* \"contracts/HRSLocalArbitrator.sol\":7059:7643  {... */\n      pop\n        /* \"contracts/HRSLocalArbitrator.sol\":7016:7643  function acceptLandlordEstimate() external {... */\n      jump\t// out\n        /* \"contracts/HRSLocalArbitrator.sol\":1163:1214  mapping(uint256 => MonthlyRent) public monthlyRents */\n    tag_202:\n      mstore(0x20, 0x0e)\n      dup1\n      0x00\n      mstore\n      keccak256(0x00, 0x40)\n      0x00\n      swap2\n      pop\n      swap1\n      pop\n      dup1\n      0x00\n      add\n      sload\n      swap1\n      dup1\n      0x01\n      add\n      sload\n      swap1\n      dup1\n      0x02\n      add\n      sload\n      swap1\n      dup1\n      0x03\n      add\n      0x00\n      swap1\n      sload\n      swap1\n      0x0100\n      exp\n      swap1\n      div\n      0xff\n      and\n      swap1\n      pop\n      dup5\n      jump\t// out\n        /* \"contracts/HRSLocalArbitrator.sol\":8319:8981  function acceptRenterCounterEstimate() external {... */\n    tag_207:\n        /* \"contracts/HRSLocalArbitrator.sol\":8400:8408  landlord */\n      0x00\n      dup1\n      sload\n      swap1\n      0x0100\n      exp\n      swap1\n      div\n      0xffffffffffffffffffffffffffffffffffffffff\n      and\n        /* \"contracts/HRSLocalArbitrator.sol\":8386:8408  msg.sender == landlord */\n      0xffffffffffffffffffffffffffffffffffffffff\n      and\n        /* \"contracts/HRSLocalArbitrator.sol\":8386:8396  msg.sender */\n      caller\n        /* \"contracts/HRSLocalArbitrator.sol\":8386:8408  msg.sender == landlord */\n      0xffffffffffffffffffffffffffffffffffffffff\n      and\n      eq\n        /* \"contracts/HRSLocalArbitrator.sol\":8378:8458  require(msg.sender == landlord, \"Only landlord can accept the counter estimate\") */\n      tag_431\n      jumpi\n      mload(0x40)\n      0x08c379a000000000000000000000000000000000000000000000000000000000\n      dup2\n      mstore\n      0x04\n      add\n      tag_432\n      swap1\n      tag_433\n      jump\t// in\n    tag_432:\n      mload(0x40)\n      dup1\n      swap2\n      sub\n      swap1\n      revert\n    tag_431:\n        /* \"contracts/HRSLocalArbitrator.sol\":8477:8501  renterCounterEstimateSet */\n      0x0d\n      0x05\n      swap1\n      sload\n      swap1\n      0x0100\n      exp\n      swap1\n      div\n      0xff\n      and\n        /* \"contracts/HRSLocalArbitrator.sol\":8469:8544  require(renterCounterEstimateSet, \"Renter must set counter estimate first\") */\n      tag_434\n      jumpi\n      mload(0x40)\n      0x08c379a000000000000000000000000000000000000000000000000000000000\n      dup2\n      mstore\n      0x04\n      add\n      tag_435\n      swap1\n      tag_242\n      jump\t// in\n    tag_435:\n      mload(0x40)\n      dup1\n      swap2\n      sub\n      swap1\n      revert\n    tag_434:\n        /* \"contracts/HRSLocalArbitrator.sol\":8555:8575  uint256 damageAmount */\n      0x00\n        /* \"contracts/HRSLocalArbitrator.sol\":8602:8624  currentSecurityDeposit */\n      sload(0x0b)\n        /* \"contracts/HRSLocalArbitrator.sol\":8578:8599  renterCounterEstimate */\n      sload(0x09)\n        /* \"contracts/HRSLocalArbitrator.sol\":8578:8624  renterCounterEstimate < currentSecurityDeposit */\n      lt\n        /* \"contracts/HRSLocalArbitrator.sol\":8578:8673  renterCounterEstimate < currentSecurityDeposit ? renterCounterEstimate : currentSecurityDeposit */\n      tag_436\n      jumpi\n        /* \"contracts/HRSLocalArbitrator.sol\":8651:8673  currentSecurityDeposit */\n      sload(0x0b)\n        /* \"contracts/HRSLocalArbitrator.sol\":8578:8673  renterCounterEstimate < currentSecurityDeposit ? renterCounterEstimate : currentSecurityDeposit */\n      jump(tag_437)\n    tag_436:\n        /* \"contracts/HRSLocalArbitrator.sol\":8627:8648  renterCounterEstimate */\n      sload(0x09)\n        /* \"contracts/HRSLocalArbitrator.sol\":8578:8673  renterCounterEstimate < currentSecurityDeposit ? renterCounterEstimate : currentSecurityDeposit */\n    tag_437:\n        /* \"contracts/HRSLocalArbitrator.sol\":8555:8673  uint256 damageAmount = renterCounterEstimate < currentSecurityDeposit ? renterCounterEstimate : currentSecurityDeposit */\n      swap1\n      pop\n        /* \"contracts/HRSLocalArbitrator.sol\":8716:8728  damageAmount */\n      dup1\n        /* \"contracts/HRSLocalArbitrator.sol\":8684:8702  pendingWithdrawals */\n      0x0f\n        /* \"contracts/HRSLocalArbitrator.sol\":8684:8712  pendingWithdrawals[landlord] */\n      0x00\n        /* \"contracts/HRSLocalArbitrator.sol\":8703:8711  landlord */\n      dup1\n      0x00\n      swap1\n      sload\n      swap1\n      0x0100\n      exp\n      swap1\n      div\n      0xffffffffffffffffffffffffffffffffffffffff\n      and\n        /* \"contracts/HRSLocalArbitrator.sol\":8684:8712  pendingWithdrawals[landlord] */\n      0xffffffffffffffffffffffffffffffffffffffff\n      and\n      0xffffffffffffffffffffffffffffffffffffffff\n      and\n      dup2\n      mstore\n      0x20\n      add\n      swap1\n      dup2\n      mstore\n      0x20\n      add\n      0x00\n      keccak256\n      0x00\n        /* \"contracts/HRSLocalArbitrator.sol\":8684:8728  pendingWithdrawals[landlord] += damageAmount */\n      dup3\n      dup3\n      sload\n      tag_438\n      swap2\n      swap1\n      tag_314\n      jump\t// in\n    tag_438:\n      swap3\n      pop\n      pop\n      dup2\n      swap1\n      sstore\n      pop\n        /* \"contracts/HRSLocalArbitrator.sol\":8795:8807  damageAmount */\n      dup1\n        /* \"contracts/HRSLocalArbitrator.sol\":8770:8792  currentSecurityDeposit */\n      sload(0x0b)\n        /* \"contracts/HRSLocalArbitrator.sol\":8770:8807  currentSecurityDeposit - damageAmount */\n      tag_439\n      swap2\n      swap1\n      tag_251\n      jump\t// in\n    tag_439:\n        /* \"contracts/HRSLocalArbitrator.sol\":8739:8757  pendingWithdrawals */\n      0x0f\n        /* \"contracts/HRSLocalArbitrator.sol\":8739:8765  pendingWithdrawals[renter] */\n      0x00\n        /* \"contracts/HRSLocalArbitrator.sol\":8758:8764  renter */\n      0x01\n      0x00\n      swap1\n      sload\n      swap1\n      0x0100\n      exp\n      swap1\n      div\n      0xffffffffffffffffffffffffffffffffffffffff\n      and\n        /* \"contracts/HRSLocalArbitrator.sol\":8739:8765  pendingWithdrawals[renter] */\n      0xffffffffffffffffffffffffffffffffffffffff\n      and\n      0xffffffffffffffffffffffffffffffffffffffff\n      and\n      dup2\n      mstore\n      0x20\n      add\n      swap1\n      dup2\n      mstore\n      0x20\n      add\n      0x00\n      keccak256\n      0x00\n        /* \"contracts/HRSLocalArbitrator.sol\":8739:8808  pendingWithdrawals[renter] += (currentSecurityDeposit - damageAmount) */\n      dup3\n      dup3\n      sload\n      tag_440\n      swap2\n      swap1\n      tag_314\n      jump\t// in\n    tag_440:\n      swap3\n      pop\n      pop\n      dup2\n      swap1\n      sstore\n      pop\n        /* \"contracts/HRSLocalArbitrator.sol\":8844:8852  landlord */\n      0x00\n      dup1\n      sload\n      swap1\n      0x0100\n      exp\n      swap1\n      div\n      0xffffffffffffffffffffffffffffffffffffffff\n      and\n        /* \"contracts/HRSLocalArbitrator.sol\":8824:8867  WithdrawalRequested(landlord, damageAmount) */\n      0xffffffffffffffffffffffffffffffffffffffff\n      and\n      0xe670e4e82118d22a1f9ee18920455ebc958bae26a90a05d31d3378788b1b0e44\n        /* \"contracts/HRSLocalArbitrator.sol\":8854:8866  damageAmount */\n      dup3\n        /* \"contracts/HRSLocalArbitrator.sol\":8824:8867  WithdrawalRequested(landlord, damageAmount) */\n      mload(0x40)\n      tag_441\n      swap2\n      swap1\n      tag_63\n      jump\t// in\n    tag_441:\n      mload(0x40)\n      dup1\n      swap2\n      sub\n      swap1\n      log2\n        /* \"contracts/HRSLocalArbitrator.sol\":8903:8909  renter */\n      0x01\n      0x00\n      swap1\n      sload\n      swap1\n      0x0100\n      exp\n      swap1\n      div\n      0xffffffffffffffffffffffffffffffffffffffff\n      and\n        /* \"contracts/HRSLocalArbitrator.sol\":8883:8949  WithdrawalRequested(renter, currentSecurityDeposit - damageAmount) */\n      0xffffffffffffffffffffffffffffffffffffffff\n      and\n      0xe670e4e82118d22a1f9ee18920455ebc958bae26a90a05d31d3378788b1b0e44\n        /* \"contracts/HRSLocalArbitrator.sol\":8936:8948  damageAmount */\n      dup3\n        /* \"contracts/HRSLocalArbitrator.sol\":8911:8933  currentSecurityDeposit */\n      sload(0x0b)\n        /* \"contracts/HRSLocalArbitrator.sol\":8911:8948  currentSecurityDeposit - damageAmount */\n      tag_442\n      swap2\n      swap1\n      tag_251\n      jump\t// in\n    tag_442:\n        /* \"contracts/HRSLocalArbitrator.sol\":8883:8949  WithdrawalRequested(renter, currentSecurityDeposit - damageAmount) */\n      mload(0x40)\n      tag_443\n      swap2\n      swap1\n      tag_63\n      jump\t// in\n    tag_443:\n      mload(0x40)\n      dup1\n      swap2\n      sub\n      swap1\n      log2\n        /* \"contracts/HRSLocalArbitrator.sol\":8960:8973  endContract() */\n      tag_444\n        /* \"contracts/HRSLocalArbitrator.sol\":8960:8971  endContract */\n      tag_408\n        /* \"contracts/HRSLocalArbitrator.sol\":8960:8973  endContract() */\n      jump\t// in\n    tag_444:\n        /* \"contracts/HRSLocalArbitrator.sol\":8367:8981  {... */\n      pop\n        /* \"contracts/HRSLocalArbitrator.sol\":8319:8981  function acceptRenterCounterEstimate() external {... */\n      jump\t// out\n        /* \"contracts/HRSLocalArbitrator.sol\":797:830  bool public isSecurityDepositPaid */\n    tag_210:\n      0x0d\n      0x01\n      swap1\n      sload\n      swap1\n      0x0100\n      exp\n      swap1\n      div\n      0xff\n      and\n      dup2\n      jump\t// out\n        /* \"contracts/HRSLocalArbitrator.sol\":1221:1274  mapping(address => uint256) public pendingWithdrawals */\n    tag_216:\n      mstore(0x20, 0x0f)\n      dup1\n      0x00\n      mstore\n      keccak256(0x00, 0x40)\n      0x00\n      swap2\n      pop\n      swap1\n      pop\n      sload\n      dup2\n      jump\t// out\n        /* \"contracts/HRSLocalArbitrator.sol\":11965:12081  function getLandlordBalance() external view returns (uint256) {... */\n    tag_220:\n        /* \"contracts/HRSLocalArbitrator.sol\":12018:12025  uint256 */\n      0x00\n        /* \"contracts/HRSLocalArbitrator.sol\":12045:12063  pendingWithdrawals */\n      0x0f\n        /* \"contracts/HRSLocalArbitrator.sol\":12045:12073  pendingWithdrawals[landlord] */\n      0x00\n        /* \"contracts/HRSLocalArbitrator.sol\":12064:12072  landlord */\n      dup1\n      0x00\n      swap1\n      sload\n      swap1\n      0x0100\n      exp\n      swap1\n      div\n      0xffffffffffffffffffffffffffffffffffffffff\n      and\n        /* \"contracts/HRSLocalArbitrator.sol\":12045:12073  pendingWithdrawals[landlord] */\n      0xffffffffffffffffffffffffffffffffffffffff\n      and\n      0xffffffffffffffffffffffffffffffffffffffff\n      and\n      dup2\n      mstore\n      0x20\n      add\n      swap1\n      dup2\n      mstore\n      0x20\n      add\n      0x00\n      keccak256\n      sload\n        /* \"contracts/HRSLocalArbitrator.sol\":12038:12073  return pendingWithdrawals[landlord] */\n      swap1\n      pop\n        /* \"contracts/HRSLocalArbitrator.sol\":11965:12081  function getLandlordBalance() external view returns (uint256) {... */\n      swap1\n      jump\t// out\n        /* \"contracts/HRSLocalArbitrator.sol\":12209:12800  function endContract() private {... */\n    tag_408:\n        /* \"contracts/HRSLocalArbitrator.sol\":12259:12267  isActive */\n      0x0d\n      0x00\n      swap1\n      sload\n      swap1\n      0x0100\n      exp\n      swap1\n      div\n      0xff\n      and\n        /* \"contracts/HRSLocalArbitrator.sol\":12251:12294  require(isActive, \"Contract is not active\") */\n      tag_447\n      jumpi\n      mload(0x40)\n      0x08c379a000000000000000000000000000000000000000000000000000000000\n      dup2\n      mstore\n      0x04\n      add\n      tag_448\n      swap1\n      tag_234\n      jump\t// in\n    tag_448:\n      mload(0x40)\n      dup1\n      swap2\n      sub\n      swap1\n      revert\n    tag_447:\n        /* \"contracts/HRSLocalArbitrator.sol\":12313:12330  rentalPeriodEnded */\n      0x0d\n      0x03\n      swap1\n      sload\n      swap1\n      0x0100\n      exp\n      swap1\n      div\n      0xff\n      and\n        /* \"contracts/HRSLocalArbitrator.sol\":12305:12366  require(rentalPeriodEnded, \"Rental period has not ended yet\") */\n      tag_449\n      jumpi\n      mload(0x40)\n      0x08c379a000000000000000000000000000000000000000000000000000000000\n      dup2\n      mstore\n      0x04\n      add\n      tag_450\n      swap1\n      tag_451\n      jump\t// in\n    tag_450:\n      mload(0x40)\n      dup1\n      swap2\n      sub\n      swap1\n      revert\n    tag_449:\n        /* \"contracts/HRSLocalArbitrator.sol\":12386:12399  disputeRaised */\n      0x0d\n      0x02\n      swap1\n      sload\n      swap1\n      0x0100\n      exp\n      swap1\n      div\n      0xff\n      and\n        /* \"contracts/HRSLocalArbitrator.sol\":12385:12399  !disputeRaised */\n      iszero\n        /* \"contracts/HRSLocalArbitrator.sol\":12377:12448  require(!disputeRaised, \"Cannot end contract while dispute is ongoing\") */\n      tag_452\n      jumpi\n      mload(0x40)\n      0x08c379a000000000000000000000000000000000000000000000000000000000\n      dup2\n      mstore\n      0x04\n      add\n      tag_453\n      swap1\n      tag_454\n      jump\t// in\n    tag_453:\n      mload(0x40)\n      dup1\n      swap2\n      sub\n      swap1\n      revert\n    tag_452:\n        /* \"contracts/HRSLocalArbitrator.sol\":12472:12477  false */\n      0x00\n        /* \"contracts/HRSLocalArbitrator.sol\":12461:12469  isActive */\n      0x0d\n      0x00\n        /* \"contracts/HRSLocalArbitrator.sol\":12461:12477  isActive = false */\n      0x0100\n      exp\n      dup2\n      sload\n      dup2\n      0xff\n      mul\n      not\n      and\n      swap1\n      dup4\n      iszero\n      iszero\n      mul\n      or\n      swap1\n      sstore\n      pop\n        /* \"contracts/HRSLocalArbitrator.sol\":12488:12505  uint256 dueAmount */\n      0x00\n        /* \"contracts/HRSLocalArbitrator.sol\":12508:12515  dueRent */\n      sload(0x07)\n        /* \"contracts/HRSLocalArbitrator.sol\":12488:12515  uint256 dueAmount = dueRent */\n      swap1\n      pop\n        /* \"contracts/HRSLocalArbitrator.sol\":12533:12581  ContractEnded(currentSecurityDeposit, dueAmount) */\n      0xc0590c5a8ce79dffbdde17480a06203778f954965615e1d9577dbc90da2ff109\n        /* \"contracts/HRSLocalArbitrator.sol\":12547:12569  currentSecurityDeposit */\n      sload(0x0b)\n        /* \"contracts/HRSLocalArbitrator.sol\":12571:12580  dueAmount */\n      dup3\n        /* \"contracts/HRSLocalArbitrator.sol\":12533:12581  ContractEnded(currentSecurityDeposit, dueAmount) */\n      mload(0x40)\n      tag_455\n      swap3\n      swap2\n      swap1\n      tag_253\n      jump\t// in\n    tag_455:\n      mload(0x40)\n      dup1\n      swap2\n      sub\n      swap1\n      log1\n        /* \"contracts/HRSLocalArbitrator.sol\":12652:12653  0 */\n      0x00\n        /* \"contracts/HRSLocalArbitrator.sol\":12627:12649  currentSecurityDeposit */\n      0x0b\n        /* \"contracts/HRSLocalArbitrator.sol\":12627:12653  currentSecurityDeposit = 0 */\n      dup2\n      swap1\n      sstore\n      pop\n        /* \"contracts/HRSLocalArbitrator.sol\":12674:12675  0 */\n      0x00\n        /* \"contracts/HRSLocalArbitrator.sol\":12664:12671  dueRent */\n      0x07\n        /* \"contracts/HRSLocalArbitrator.sol\":12664:12675  dueRent = 0 */\n      dup2\n      swap1\n      sstore\n      pop\n        /* \"contracts/HRSLocalArbitrator.sol\":12706:12711  false */\n      0x00\n        /* \"contracts/HRSLocalArbitrator.sol\":12686:12703  rentalPeriodEnded */\n      0x0d\n      0x03\n        /* \"contracts/HRSLocalArbitrator.sol\":12686:12711  rentalPeriodEnded = false */\n      0x0100\n      exp\n      dup2\n      sload\n      dup2\n      0xff\n      mul\n      not\n      and\n      swap1\n      dup4\n      iszero\n      iszero\n      mul\n      or\n      swap1\n      sstore\n      pop\n        /* \"contracts/HRSLocalArbitrator.sol\":12744:12749  false */\n      0x00\n        /* \"contracts/HRSLocalArbitrator.sol\":12722:12741  landlordEstimateSet */\n      0x0d\n      0x04\n        /* \"contracts/HRSLocalArbitrator.sol\":12722:12749  landlordEstimateSet = false */\n      0x0100\n      exp\n      dup2\n      sload\n      dup2\n      0xff\n      mul\n      not\n      and\n      swap1\n      dup4\n      iszero\n      iszero\n      mul\n      or\n      swap1\n      sstore\n      pop\n        /* \"contracts/HRSLocalArbitrator.sol\":12787:12792  false */\n      0x00\n        /* \"contracts/HRSLocalArbitrator.sol\":12760:12784  renterCounterEstimateSet */\n      0x0d\n      0x05\n        /* \"contracts/HRSLocalArbitrator.sol\":12760:12792  renterCounterEstimateSet = false */\n      0x0100\n      exp\n      dup2\n      sload\n      dup2\n      0xff\n      mul\n      not\n      and\n      swap1\n      dup4\n      iszero\n      iszero\n      mul\n      or\n      swap1\n      sstore\n      pop\n        /* \"contracts/HRSLocalArbitrator.sol\":12240:12800  {... */\n      pop\n        /* \"contracts/HRSLocalArbitrator.sol\":12209:12800  function endContract() private {... */\n      jump\t// out\n        /* \"#utility.yul\":7:97   */\n    tag_456:\n        /* \"#utility.yul\":41:48   */\n      0x00\n        /* \"#utility.yul\":84:89   */\n      dup2\n        /* \"#utility.yul\":77:90   */\n      iszero\n        /* \"#utility.yul\":70:91   */\n      iszero\n        /* \"#utility.yul\":59:91   */\n      swap1\n      pop\n        /* \"#utility.yul\":7:97   */\n      swap2\n      swap1\n      pop\n      jump\t// out\n        /* \"#utility.yul\":103:212   */\n    tag_457:\n        /* \"#utility.yul\":184:205   */\n      tag_553\n        /* \"#utility.yul\":199:204   */\n      dup2\n        /* \"#utility.yul\":184:205   */\n      tag_456\n      jump\t// in\n    tag_553:\n        /* \"#utility.yul\":179:182   */\n      dup3\n        /* \"#utility.yul\":172:206   */\n      mstore\n        /* \"#utility.yul\":103:212   */\n      pop\n      pop\n      jump\t// out\n        /* \"#utility.yul\":218:428   */\n    tag_58:\n        /* \"#utility.yul\":305:309   */\n      0x00\n        /* \"#utility.yul\":343:345   */\n      0x20\n        /* \"#utility.yul\":332:341   */\n      dup3\n        /* \"#utility.yul\":328:346   */\n      add\n        /* \"#utility.yul\":320:346   */\n      swap1\n      pop\n        /* \"#utility.yul\":356:421   */\n      tag_555\n        /* \"#utility.yul\":418:419   */\n      0x00\n        /* \"#utility.yul\":407:416   */\n      dup4\n        /* \"#utility.yul\":403:420   */\n      add\n        /* \"#utility.yul\":394:400   */\n      dup5\n        /* \"#utility.yul\":356:421   */\n      tag_457\n      jump\t// in\n    tag_555:\n        /* \"#utility.yul\":218:428   */\n      swap3\n      swap2\n      pop\n      pop\n      jump\t// out\n        /* \"#utility.yul\":434:511   */\n    tag_458:\n        /* \"#utility.yul\":471:478   */\n      0x00\n        /* \"#utility.yul\":500:505   */\n      dup2\n        /* \"#utility.yul\":489:505   */\n      swap1\n      pop\n        /* \"#utility.yul\":434:511   */\n      swap2\n      swap1\n      pop\n      jump\t// out\n        /* \"#utility.yul\":517:635   */\n    tag_459:\n        /* \"#utility.yul\":604:628   */\n      tag_558\n        /* \"#utility.yul\":622:627   */\n      dup2\n        /* \"#utility.yul\":604:628   */\n      tag_458\n      jump\t// in\n    tag_558:\n        /* \"#utility.yul\":599:602   */\n      dup3\n        /* \"#utility.yul\":592:629   */\n      mstore\n        /* \"#utility.yul\":517:635   */\n      pop\n      pop\n      jump\t// out\n        /* \"#utility.yul\":641:863   */\n    tag_63:\n        /* \"#utility.yul\":734:738   */\n      0x00\n        /* \"#utility.yul\":772:774   */\n      0x20\n        /* \"#utility.yul\":761:770   */\n      dup3\n        /* \"#utility.yul\":757:775   */\n      add\n        /* \"#utility.yul\":749:775   */\n      swap1\n      pop\n        /* \"#utility.yul\":785:856   */\n      tag_560\n        /* \"#utility.yul\":853:854   */\n      0x00\n        /* \"#utility.yul\":842:851   */\n      dup4\n        /* \"#utility.yul\":838:855   */\n      add\n        /* \"#utility.yul\":829:835   */\n      dup5\n        /* \"#utility.yul\":785:856   */\n      tag_459\n      jump\t// in\n    tag_560:\n        /* \"#utility.yul\":641:863   */\n      swap3\n      swap2\n      pop\n      pop\n      jump\t// out\n        /* \"#utility.yul\":950:1067   */\n    tag_461:\n        /* \"#utility.yul\":1059:1060   */\n      0x00\n        /* \"#utility.yul\":1056:1057   */\n      dup1\n        /* \"#utility.yul\":1049:1061   */\n      revert\n        /* \"#utility.yul\":1196:1318   */\n    tag_463:\n        /* \"#utility.yul\":1269:1293   */\n      tag_565\n        /* \"#utility.yul\":1287:1292   */\n      dup2\n        /* \"#utility.yul\":1269:1293   */\n      tag_458\n      jump\t// in\n    tag_565:\n        /* \"#utility.yul\":1262:1267   */\n      dup2\n        /* \"#utility.yul\":1259:1294   */\n      eq\n        /* \"#utility.yul\":1249:1312   */\n      tag_566\n      jumpi\n        /* \"#utility.yul\":1308:1309   */\n      0x00\n        /* \"#utility.yul\":1305:1306   */\n      dup1\n        /* \"#utility.yul\":1298:1310   */\n      revert\n        /* \"#utility.yul\":1249:1312   */\n    tag_566:\n        /* \"#utility.yul\":1196:1318   */\n      pop\n      jump\t// out\n        /* \"#utility.yul\":1324:1463   */\n    tag_464:\n        /* \"#utility.yul\":1370:1375   */\n      0x00\n        /* \"#utility.yul\":1408:1414   */\n      dup2\n        /* \"#utility.yul\":1395:1415   */\n      calldataload\n        /* \"#utility.yul\":1386:1415   */\n      swap1\n      pop\n        /* \"#utility.yul\":1424:1457   */\n      tag_568\n        /* \"#utility.yul\":1451:1456   */\n      dup2\n        /* \"#utility.yul\":1424:1457   */\n      tag_463\n      jump\t// in\n    tag_568:\n        /* \"#utility.yul\":1324:1463   */\n      swap3\n      swap2\n      pop\n      pop\n      jump\t// out\n        /* \"#utility.yul\":1469:1798   */\n    tag_67:\n        /* \"#utility.yul\":1528:1534   */\n      0x00\n        /* \"#utility.yul\":1577:1579   */\n      0x20\n        /* \"#utility.yul\":1565:1574   */\n      dup3\n        /* \"#utility.yul\":1556:1563   */\n      dup5\n        /* \"#utility.yul\":1552:1575   */\n      sub\n        /* \"#utility.yul\":1548:1580   */\n      slt\n        /* \"#utility.yul\":1545:1664   */\n      iszero\n      tag_570\n      jumpi\n        /* \"#utility.yul\":1583:1662   */\n      tag_571\n      tag_461\n      jump\t// in\n    tag_571:\n        /* \"#utility.yul\":1545:1664   */\n    tag_570:\n        /* \"#utility.yul\":1703:1704   */\n      0x00\n        /* \"#utility.yul\":1728:1781   */\n      tag_572\n        /* \"#utility.yul\":1773:1780   */\n      dup5\n        /* \"#utility.yul\":1764:1770   */\n      dup3\n        /* \"#utility.yul\":1753:1762   */\n      dup6\n        /* \"#utility.yul\":1749:1771   */\n      add\n        /* \"#utility.yul\":1728:1781   */\n      tag_464\n      jump\t// in\n    tag_572:\n        /* \"#utility.yul\":1718:1781   */\n      swap2\n      pop\n        /* \"#utility.yul\":1674:1791   */\n      pop\n        /* \"#utility.yul\":1469:1798   */\n      swap3\n      swap2\n      pop\n      pop\n      jump\t// out\n        /* \"#utility.yul\":1804:1930   */\n    tag_465:\n        /* \"#utility.yul\":1841:1848   */\n      0x00\n        /* \"#utility.yul\":1881:1923   */\n      0xffffffffffffffffffffffffffffffffffffffff\n        /* \"#utility.yul\":1874:1879   */\n      dup3\n        /* \"#utility.yul\":1870:1924   */\n      and\n        /* \"#utility.yul\":1859:1924   */\n      swap1\n      pop\n        /* \"#utility.yul\":1804:1930   */\n      swap2\n      swap1\n      pop\n      jump\t// out\n        /* \"#utility.yul\":1936:2032   */\n    tag_466:\n        /* \"#utility.yul\":1973:1980   */\n      0x00\n        /* \"#utility.yul\":2002:2026   */\n      tag_575\n        /* \"#utility.yul\":2020:2025   */\n      dup3\n        /* \"#utility.yul\":2002:2026   */\n      tag_465\n      jump\t// in\n    tag_575:\n        /* \"#utility.yul\":1991:2026   */\n      swap1\n      pop\n        /* \"#utility.yul\":1936:2032   */\n      swap2\n      swap1\n      pop\n      jump\t// out\n        /* \"#utility.yul\":2038:2156   */\n    tag_467:\n        /* \"#utility.yul\":2125:2149   */\n      tag_577\n        /* \"#utility.yul\":2143:2148   */\n      dup2\n        /* \"#utility.yul\":2125:2149   */\n      tag_466\n      jump\t// in\n    tag_577:\n        /* \"#utility.yul\":2120:2123   */\n      dup3\n        /* \"#utility.yul\":2113:2150   */\n      mstore\n        /* \"#utility.yul\":2038:2156   */\n      pop\n      pop\n      jump\t// out\n        /* \"#utility.yul\":2162:2384   */\n    tag_88:\n        /* \"#utility.yul\":2255:2259   */\n      0x00\n        /* \"#utility.yul\":2293:2295   */\n      0x20\n        /* \"#utility.yul\":2282:2291   */\n      dup3\n        /* \"#utility.yul\":2278:2296   */\n      add\n        /* \"#utility.yul\":2270:2296   */\n      swap1\n      pop\n        /* \"#utility.yul\":2306:2377   */\n      tag_579\n        /* \"#utility.yul\":2374:2375   */\n      0x00\n        /* \"#utility.yul\":2363:2372   */\n      dup4\n        /* \"#utility.yul\":2359:2376   */\n      add\n        /* \"#utility.yul\":2350:2356   */\n      dup5\n        /* \"#utility.yul\":2306:2377   */\n      tag_467\n      jump\t// in\n    tag_579:\n        /* \"#utility.yul\":2162:2384   */\n      swap3\n      swap2\n      pop\n      pop\n      jump\t// out\n        /* \"#utility.yul\":2390:2450   */\n    tag_468:\n        /* \"#utility.yul\":2418:2421   */\n      0x00\n        /* \"#utility.yul\":2439:2444   */\n      dup2\n        /* \"#utility.yul\":2432:2444   */\n      swap1\n      pop\n        /* \"#utility.yul\":2390:2450   */\n      swap2\n      swap1\n      pop\n      jump\t// out\n        /* \"#utility.yul\":2456:2598   */\n    tag_469:\n        /* \"#utility.yul\":2506:2515   */\n      0x00\n        /* \"#utility.yul\":2539:2592   */\n      tag_582\n        /* \"#utility.yul\":2557:2591   */\n      tag_583\n        /* \"#utility.yul\":2566:2590   */\n      tag_584\n        /* \"#utility.yul\":2584:2589   */\n      dup5\n        /* \"#utility.yul\":2566:2590   */\n      tag_465\n      jump\t// in\n    tag_584:\n        /* \"#utility.yul\":2557:2591   */\n      tag_468\n      jump\t// in\n    tag_583:\n        /* \"#utility.yul\":2539:2592   */\n      tag_465\n      jump\t// in\n    tag_582:\n        /* \"#utility.yul\":2526:2592   */\n      swap1\n      pop\n        /* \"#utility.yul\":2456:2598   */\n      swap2\n      swap1\n      pop\n      jump\t// out\n        /* \"#utility.yul\":2604:2730   */\n    tag_470:\n        /* \"#utility.yul\":2654:2663   */\n      0x00\n        /* \"#utility.yul\":2687:2724   */\n      tag_586\n        /* \"#utility.yul\":2718:2723   */\n      dup3\n        /* \"#utility.yul\":2687:2724   */\n      tag_469\n      jump\t// in\n    tag_586:\n        /* \"#utility.yul\":2674:2724   */\n      swap1\n      pop\n        /* \"#utility.yul\":2604:2730   */\n      swap2\n      swap1\n      pop\n      jump\t// out\n        /* \"#utility.yul\":2736:2885   */\n    tag_471:\n        /* \"#utility.yul\":2809:2818   */\n      0x00\n        /* \"#utility.yul\":2842:2879   */\n      tag_588\n        /* \"#utility.yul\":2873:2878   */\n      dup3\n        /* \"#utility.yul\":2842:2879   */\n      tag_470\n      jump\t// in\n    tag_588:\n        /* \"#utility.yul\":2829:2879   */\n      swap1\n      pop\n        /* \"#utility.yul\":2736:2885   */\n      swap2\n      swap1\n      pop\n      jump\t// out\n        /* \"#utility.yul\":2891:3068   */\n    tag_472:\n        /* \"#utility.yul\":3001:3061   */\n      tag_590\n        /* \"#utility.yul\":3055:3060   */\n      dup2\n        /* \"#utility.yul\":3001:3061   */\n      tag_471\n      jump\t// in\n    tag_590:\n        /* \"#utility.yul\":2996:2999   */\n      dup3\n        /* \"#utility.yul\":2989:3062   */\n      mstore\n        /* \"#utility.yul\":2891:3068   */\n      pop\n      pop\n      jump\t// out\n        /* \"#utility.yul\":3074:3342   */\n    tag_118:\n        /* \"#utility.yul\":3190:3194   */\n      0x00\n        /* \"#utility.yul\":3228:3230   */\n      0x20\n        /* \"#utility.yul\":3217:3226   */\n      dup3\n        /* \"#utility.yul\":3213:3231   */\n      add\n        /* \"#utility.yul\":3205:3231   */\n      swap1\n      pop\n        /* \"#utility.yul\":3241:3335   */\n      tag_592\n        /* \"#utility.yul\":3332:3333   */\n      0x00\n        /* \"#utility.yul\":3321:3330   */\n      dup4\n        /* \"#utility.yul\":3317:3334   */\n      add\n        /* \"#utility.yul\":3308:3314   */\n      dup5\n        /* \"#utility.yul\":3241:3335   */\n      tag_472\n      jump\t// in\n    tag_592:\n        /* \"#utility.yul\":3074:3342   */\n      swap3\n      swap2\n      pop\n      pop\n      jump\t// out\n        /* \"#utility.yul\":3348:3967   */\n    tag_182:\n        /* \"#utility.yul\":3425:3431   */\n      0x00\n        /* \"#utility.yul\":3433:3439   */\n      dup1\n        /* \"#utility.yul\":3441:3447   */\n      0x00\n        /* \"#utility.yul\":3490:3492   */\n      0x60\n        /* \"#utility.yul\":3478:3487   */\n      dup5\n        /* \"#utility.yul\":3469:3476   */\n      dup7\n        /* \"#utility.yul\":3465:3488   */\n      sub\n        /* \"#utility.yul\":3461:3493   */\n      slt\n        /* \"#utility.yul\":3458:3577   */\n      iszero\n      tag_594\n      jumpi\n        /* \"#utility.yul\":3496:3575   */\n      tag_595\n      tag_461\n      jump\t// in\n    tag_595:\n        /* \"#utility.yul\":3458:3577   */\n    tag_594:\n        /* \"#utility.yul\":3616:3617   */\n      0x00\n        /* \"#utility.yul\":3641:3694   */\n      tag_596\n        /* \"#utility.yul\":3686:3693   */\n      dup7\n        /* \"#utility.yul\":3677:3683   */\n      dup3\n        /* \"#utility.yul\":3666:3675   */\n      dup8\n        /* \"#utility.yul\":3662:3684   */\n      add\n        /* \"#utility.yul\":3641:3694   */\n      tag_464\n      jump\t// in\n    tag_596:\n        /* \"#utility.yul\":3631:3694   */\n      swap4\n      pop\n        /* \"#utility.yul\":3587:3704   */\n      pop\n        /* \"#utility.yul\":3743:3745   */\n      0x20\n        /* \"#utility.yul\":3769:3822   */\n      tag_597\n        /* \"#utility.yul\":3814:3821   */\n      dup7\n        /* \"#utility.yul\":3805:3811   */\n      dup3\n        /* \"#utility.yul\":3794:3803   */\n      dup8\n        /* \"#utility.yul\":3790:3812   */\n      add\n        /* \"#utility.yul\":3769:3822   */\n      tag_464\n      jump\t// in\n    tag_597:\n        /* \"#utility.yul\":3759:3822   */\n      swap3\n      pop\n        /* \"#utility.yul\":3714:3832   */\n      pop\n        /* \"#utility.yul\":3871:3873   */\n      0x40\n        /* \"#utility.yul\":3897:3950   */\n      tag_598\n        /* \"#utility.yul\":3942:3949   */\n      dup7\n        /* \"#utility.yul\":3933:3939   */\n      dup3\n        /* \"#utility.yul\":3922:3931   */\n      dup8\n        /* \"#utility.yul\":3918:3940   */\n      add\n        /* \"#utility.yul\":3897:3950   */\n      tag_464\n      jump\t// in\n    tag_598:\n        /* \"#utility.yul\":3887:3950   */\n      swap2\n      pop\n        /* \"#utility.yul\":3842:3960   */\n      pop\n        /* \"#utility.yul\":3348:3967   */\n      swap3\n      pop\n      swap3\n      pop\n      swap3\n      jump\t// out\n        /* \"#utility.yul\":3973:4447   */\n    tag_187:\n        /* \"#utility.yul\":4041:4047   */\n      0x00\n        /* \"#utility.yul\":4049:4055   */\n      dup1\n        /* \"#utility.yul\":4098:4100   */\n      0x40\n        /* \"#utility.yul\":4086:4095   */\n      dup4\n        /* \"#utility.yul\":4077:4084   */\n      dup6\n        /* \"#utility.yul\":4073:4096   */\n      sub\n        /* \"#utility.yul\":4069:4101   */\n      slt\n        /* \"#utility.yul\":4066:4185   */\n      iszero\n      tag_600\n      jumpi\n        /* \"#utility.yul\":4104:4183   */\n      tag_601\n      tag_461\n      jump\t// in\n    tag_601:\n        /* \"#utility.yul\":4066:4185   */\n    tag_600:\n        /* \"#utility.yul\":4224:4225   */\n      0x00\n        /* \"#utility.yul\":4249:4302   */\n      tag_602\n        /* \"#utility.yul\":4294:4301   */\n      dup6\n        /* \"#utility.yul\":4285:4291   */\n      dup3\n        /* \"#utility.yul\":4274:4283   */\n      dup7\n        /* \"#utility.yul\":4270:4292   */\n      add\n        /* \"#utility.yul\":4249:4302   */\n      tag_464\n      jump\t// in\n    tag_602:\n        /* \"#utility.yul\":4239:4302   */\n      swap3\n      pop\n        /* \"#utility.yul\":4195:4312   */\n      pop\n        /* \"#utility.yul\":4351:4353   */\n      0x20\n        /* \"#utility.yul\":4377:4430   */\n      tag_603\n        /* \"#utility.yul\":4422:4429   */\n      dup6\n        /* \"#utility.yul\":4413:4419   */\n      dup3\n        /* \"#utility.yul\":4402:4411   */\n      dup7\n        /* \"#utility.yul\":4398:4420   */\n      add\n        /* \"#utility.yul\":4377:4430   */\n      tag_464\n      jump\t// in\n    tag_603:\n        /* \"#utility.yul\":4367:4430   */\n      swap2\n      pop\n        /* \"#utility.yul\":4322:4440   */\n      pop\n        /* \"#utility.yul\":3973:4447   */\n      swap3\n      pop\n      swap3\n      swap1\n      pop\n      jump\t// out\n        /* \"#utility.yul\":4453:4994   */\n    tag_204:\n        /* \"#utility.yul\":4624:4628   */\n      0x00\n        /* \"#utility.yul\":4662:4665   */\n      0x80\n        /* \"#utility.yul\":4651:4660   */\n      dup3\n        /* \"#utility.yul\":4647:4666   */\n      add\n        /* \"#utility.yul\":4639:4666   */\n      swap1\n      pop\n        /* \"#utility.yul\":4676:4747   */\n      tag_605\n        /* \"#utility.yul\":4744:4745   */\n      0x00\n        /* \"#utility.yul\":4733:4742   */\n      dup4\n        /* \"#utility.yul\":4729:4746   */\n      add\n        /* \"#utility.yul\":4720:4726   */\n      dup8\n        /* \"#utility.yul\":4676:4747   */\n      tag_459\n      jump\t// in\n    tag_605:\n        /* \"#utility.yul\":4757:4829   */\n      tag_606\n        /* \"#utility.yul\":4825:4827   */\n      0x20\n        /* \"#utility.yul\":4814:4823   */\n      dup4\n        /* \"#utility.yul\":4810:4828   */\n      add\n        /* \"#utility.yul\":4801:4807   */\n      dup7\n        /* \"#utility.yul\":4757:4829   */\n      tag_459\n      jump\t// in\n    tag_606:\n        /* \"#utility.yul\":4839:4911   */\n      tag_607\n        /* \"#utility.yul\":4907:4909   */\n      0x40\n        /* \"#utility.yul\":4896:4905   */\n      dup4\n        /* \"#utility.yul\":4892:4910   */\n      add\n        /* \"#utility.yul\":4883:4889   */\n      dup6\n        /* \"#utility.yul\":4839:4911   */\n      tag_459\n      jump\t// in\n    tag_607:\n        /* \"#utility.yul\":4921:4987   */\n      tag_608\n        /* \"#utility.yul\":4983:4985   */\n      0x60\n        /* \"#utility.yul\":4972:4981   */\n      dup4\n        /* \"#utility.yul\":4968:4986   */\n      add\n        /* \"#utility.yul\":4959:4965   */\n      dup5\n        /* \"#utility.yul\":4921:4987   */\n      tag_457\n      jump\t// in\n    tag_608:\n        /* \"#utility.yul\":4453:4994   */\n      swap6\n      swap5\n      pop\n      pop\n      pop\n      pop\n      pop\n      jump\t// out\n        /* \"#utility.yul\":5000:5122   */\n    tag_473:\n        /* \"#utility.yul\":5073:5097   */\n      tag_610\n        /* \"#utility.yul\":5091:5096   */\n      dup2\n        /* \"#utility.yul\":5073:5097   */\n      tag_466\n      jump\t// in\n    tag_610:\n        /* \"#utility.yul\":5066:5071   */\n      dup2\n        /* \"#utility.yul\":5063:5098   */\n      eq\n        /* \"#utility.yul\":5053:5116   */\n      tag_611\n      jumpi\n        /* \"#utility.yul\":5112:5113   */\n      0x00\n        /* \"#utility.yul\":5109:5110   */\n      dup1\n        /* \"#utility.yul\":5102:5114   */\n      revert\n        /* \"#utility.yul\":5053:5116   */\n    tag_611:\n        /* \"#utility.yul\":5000:5122   */\n      pop\n      jump\t// out\n        /* \"#utility.yul\":5128:5267   */\n    tag_474:\n        /* \"#utility.yul\":5174:5179   */\n      0x00\n        /* \"#utility.yul\":5212:5218   */\n      dup2\n        /* \"#utility.yul\":5199:5219   */\n      calldataload\n        /* \"#utility.yul\":5190:5219   */\n      swap1\n      pop\n        /* \"#utility.yul\":5228:5261   */\n      tag_613\n        /* \"#utility.yul\":5255:5260   */\n      dup2\n        /* \"#utility.yul\":5228:5261   */\n      tag_473\n      jump\t// in\n    tag_613:\n        /* \"#utility.yul\":5128:5267   */\n      swap3\n      swap2\n      pop\n      pop\n      jump\t// out\n        /* \"#utility.yul\":5273:5602   */\n    tag_215:\n        /* \"#utility.yul\":5332:5338   */\n      0x00\n        /* \"#utility.yul\":5381:5383   */\n      0x20\n        /* \"#utility.yul\":5369:5378   */\n      dup3\n        /* \"#utility.yul\":5360:5367   */\n      dup5\n        /* \"#utility.yul\":5356:5379   */\n      sub\n        /* \"#utility.yul\":5352:5384   */\n      slt\n        /* \"#utility.yul\":5349:5468   */\n      iszero\n      tag_615\n      jumpi\n        /* \"#utility.yul\":5387:5466   */\n      tag_616\n      tag_461\n      jump\t// in\n    tag_616:\n        /* \"#utility.yul\":5349:5468   */\n    tag_615:\n        /* \"#utility.yul\":5507:5508   */\n      0x00\n        /* \"#utility.yul\":5532:5585   */\n      tag_617\n        /* \"#utility.yul\":5577:5584   */\n      dup5\n        /* \"#utility.yul\":5568:5574   */\n      dup3\n        /* \"#utility.yul\":5557:5566   */\n      dup6\n        /* \"#utility.yul\":5553:5575   */\n      add\n        /* \"#utility.yul\":5532:5585   */\n      tag_474\n      jump\t// in\n    tag_617:\n        /* \"#utility.yul\":5522:5585   */\n      swap2\n      pop\n        /* \"#utility.yul\":5478:5595   */\n      pop\n        /* \"#utility.yul\":5273:5602   */\n      swap3\n      swap2\n      pop\n      pop\n      jump\t// out\n        /* \"#utility.yul\":5608:5777   */\n    tag_475:\n        /* \"#utility.yul\":5692:5703   */\n      0x00\n        /* \"#utility.yul\":5726:5732   */\n      dup3\n        /* \"#utility.yul\":5721:5724   */\n      dup3\n        /* \"#utility.yul\":5714:5733   */\n      mstore\n        /* \"#utility.yul\":5766:5770   */\n      0x20\n        /* \"#utility.yul\":5761:5764   */\n      dup3\n        /* \"#utility.yul\":5757:5771   */\n      add\n        /* \"#utility.yul\":5742:5771   */\n      swap1\n      pop\n        /* \"#utility.yul\":5608:5777   */\n      swap3\n      swap2\n      pop\n      pop\n      jump\t// out\n        /* \"#utility.yul\":5783:6011   */\n    tag_476:\n        /* \"#utility.yul\":5923:5957   */\n      0x4f6e6c79206c616e646c6f72642063616e20736574207468652064616d616765\n        /* \"#utility.yul\":5919:5920   */\n      0x00\n        /* \"#utility.yul\":5911:5917   */\n      dup3\n        /* \"#utility.yul\":5907:5921   */\n      add\n        /* \"#utility.yul\":5900:5958   */\n      mstore\n        /* \"#utility.yul\":5992:6003   */\n      0x20657374696d6174650000000000000000000000000000000000000000000000\n        /* \"#utility.yul\":5987:5989   */\n      0x20\n        /* \"#utility.yul\":5979:5985   */\n      dup3\n        /* \"#utility.yul\":5975:5990   */\n      add\n        /* \"#utility.yul\":5968:6004   */\n      mstore\n        /* \"#utility.yul\":5783:6011   */\n      pop\n      jump\t// out\n        /* \"#utility.yul\":6017:6383   */\n    tag_477:\n        /* \"#utility.yul\":6159:6162   */\n      0x00\n        /* \"#utility.yul\":6180:6247   */\n      tag_621\n        /* \"#utility.yul\":6244:6246   */\n      0x29\n        /* \"#utility.yul\":6239:6242   */\n      dup4\n        /* \"#utility.yul\":6180:6247   */\n      tag_475\n      jump\t// in\n    tag_621:\n        /* \"#utility.yul\":6173:6247   */\n      swap2\n      pop\n        /* \"#utility.yul\":6256:6349   */\n      tag_622\n        /* \"#utility.yul\":6345:6348   */\n      dup3\n        /* \"#utility.yul\":6256:6349   */\n      tag_476\n      jump\t// in\n    tag_622:\n        /* \"#utility.yul\":6374:6376   */\n      0x40\n        /* \"#utility.yul\":6369:6372   */\n      dup3\n        /* \"#utility.yul\":6365:6377   */\n      add\n        /* \"#utility.yul\":6358:6377   */\n      swap1\n      pop\n        /* \"#utility.yul\":6017:6383   */\n      swap2\n      swap1\n      pop\n      jump\t// out\n        /* \"#utility.yul\":6389:6808   */\n    tag_225:\n        /* \"#utility.yul\":6555:6559   */\n      0x00\n        /* \"#utility.yul\":6593:6595   */\n      0x20\n        /* \"#utility.yul\":6582:6591   */\n      dup3\n        /* \"#utility.yul\":6578:6596   */\n      add\n        /* \"#utility.yul\":6570:6596   */\n      swap1\n      pop\n        /* \"#utility.yul\":6642:6651   */\n      dup2\n        /* \"#utility.yul\":6636:6640   */\n      dup2\n        /* \"#utility.yul\":6632:6652   */\n      sub\n        /* \"#utility.yul\":6628:6629   */\n      0x00\n        /* \"#utility.yul\":6617:6626   */\n      dup4\n        /* \"#utility.yul\":6613:6630   */\n      add\n        /* \"#utility.yul\":6606:6653   */\n      mstore\n        /* \"#utility.yul\":6670:6801   */\n      tag_624\n        /* \"#utility.yul\":6796:6800   */\n      dup2\n        /* \"#utility.yul\":6670:6801   */\n      tag_477\n      jump\t// in\n    tag_624:\n        /* \"#utility.yul\":6662:6801   */\n      swap1\n      pop\n        /* \"#utility.yul\":6389:6808   */\n      swap2\n      swap1\n      pop\n      jump\t// out\n        /* \"#utility.yul\":6814:6993   */\n    tag_478:\n        /* \"#utility.yul\":6954:6985   */\n      0x52656e7420706572696f6420686173206e6f7420656e64656420796574000000\n        /* \"#utility.yul\":6950:6951   */\n      0x00\n        /* \"#utility.yul\":6942:6948   */\n      dup3\n        /* \"#utility.yul\":6938:6952   */\n      add\n        /* \"#utility.yul\":6931:6986   */\n      mstore\n        /* \"#utility.yul\":6814:6993   */\n      pop\n      jump\t// out\n        /* \"#utility.yul\":6999:7365   */\n    tag_479:\n        /* \"#utility.yul\":7141:7144   */\n      0x00\n        /* \"#utility.yul\":7162:7229   */\n      tag_627\n        /* \"#utility.yul\":7226:7228   */\n      0x1d\n        /* \"#utility.yul\":7221:7224   */\n      dup4\n        /* \"#utility.yul\":7162:7229   */\n      tag_475\n      jump\t// in\n    tag_627:\n        /* \"#utility.yul\":7155:7229   */\n      swap2\n      pop\n        /* \"#utility.yul\":7238:7331   */\n      tag_628\n        /* \"#utility.yul\":7327:7330   */\n      dup3\n        /* \"#utility.yul\":7238:7331   */\n      tag_478\n      jump\t// in\n    tag_628:\n        /* \"#utility.yul\":7356:7358   */\n      0x20\n        /* \"#utility.yul\":7351:7354   */\n      dup3\n        /* \"#utility.yul\":7347:7359   */\n      add\n        /* \"#utility.yul\":7340:7359   */\n      swap1\n      pop\n        /* \"#utility.yul\":6999:7365   */\n      swap2\n      swap1\n      pop\n      jump\t// out\n        /* \"#utility.yul\":7371:7790   */\n    tag_228:\n        /* \"#utility.yul\":7537:7541   */\n      0x00\n        /* \"#utility.yul\":7575:7577   */\n      0x20\n        /* \"#utility.yul\":7564:7573   */\n      dup3\n        /* \"#utility.yul\":7560:7578   */\n      add\n        /* \"#utility.yul\":7552:7578   */\n      swap1\n      pop\n        /* \"#utility.yul\":7624:7633   */\n      dup2\n        /* \"#utility.yul\":7618:7622   */\n      dup2\n        /* \"#utility.yul\":7614:7634   */\n      sub\n        /* \"#utility.yul\":7610:7611   */\n      0x00\n        /* \"#utility.yul\":7599:7608   */\n      dup4\n        /* \"#utility.yul\":7595:7612   */\n      add\n        /* \"#utility.yul\":7588:7635   */\n      mstore\n        /* \"#utility.yul\":7652:7783   */\n      tag_630\n        /* \"#utility.yul\":7778:7782   */\n      dup2\n        /* \"#utility.yul\":7652:7783   */\n      tag_479\n      jump\t// in\n    tag_630:\n        /* \"#utility.yul\":7644:7783   */\n      swap1\n      pop\n        /* \"#utility.yul\":7371:7790   */\n      swap2\n      swap1\n      pop\n      jump\t// out\n        /* \"#utility.yul\":7796:7973   */\n    tag_480:\n        /* \"#utility.yul\":7936:7965   */\n      0x44616d61676520657374696d61746520616c7265616479207365740000000000\n        /* \"#utility.yul\":7932:7933   */\n      0x00\n        /* \"#utility.yul\":7924:7930   */\n      dup3\n        /* \"#utility.yul\":7920:7934   */\n      add\n        /* \"#utility.yul\":7913:7966   */\n      mstore\n        /* \"#utility.yul\":7796:7973   */\n      pop\n      jump\t// out\n        /* \"#utility.yul\":7979:8345   */\n    tag_481:\n        /* \"#utility.yul\":8121:8124   */\n      0x00\n        /* \"#utility.yul\":8142:8209   */\n      tag_633\n        /* \"#utility.yul\":8206:8208   */\n      0x1b\n        /* \"#utility.yul\":8201:8204   */\n      dup4\n        /* \"#utility.yul\":8142:8209   */\n      tag_475\n      jump\t// in\n    tag_633:\n        /* \"#utility.yul\":8135:8209   */\n      swap2\n      pop\n        /* \"#utility.yul\":8218:8311   */\n      tag_634\n        /* \"#utility.yul\":8307:8310   */\n      dup3\n        /* \"#utility.yul\":8218:8311   */\n      tag_480\n      jump\t// in\n    tag_634:\n        /* \"#utility.yul\":8336:8338   */\n      0x20\n        /* \"#utility.yul\":8331:8334   */\n      dup3\n        /* \"#utility.yul\":8327:8339   */\n      add\n        /* \"#utility.yul\":8320:8339   */\n      swap1\n      pop\n        /* \"#utility.yul\":7979:8345   */\n      swap2\n      swap1\n      pop\n      jump\t// out\n        /* \"#utility.yul\":8351:8770   */\n    tag_231:\n        /* \"#utility.yul\":8517:8521   */\n      0x00\n        /* \"#utility.yul\":8555:8557   */\n      0x20\n        /* \"#utility.yul\":8544:8553   */\n      dup3\n        /* \"#utility.yul\":8540:8558   */\n      add\n        /* \"#utility.yul\":8532:8558   */\n      swap1\n      pop\n        /* \"#utility.yul\":8604:8613   */\n      dup2\n        /* \"#utility.yul\":8598:8602   */\n      dup2\n        /* \"#utility.yul\":8594:8614   */\n      sub\n        /* \"#utility.yul\":8590:8591   */\n      0x00\n        /* \"#utility.yul\":8579:8588   */\n      dup4\n        /* \"#utility.yul\":8575:8592   */\n      add\n        /* \"#utility.yul\":8568:8615   */\n      mstore\n        /* \"#utility.yul\":8632:8763   */\n      tag_636\n        /* \"#utility.yul\":8758:8762   */\n      dup2\n        /* \"#utility.yul\":8632:8763   */\n      tag_481\n      jump\t// in\n    tag_636:\n        /* \"#utility.yul\":8624:8763   */\n      swap1\n      pop\n        /* \"#utility.yul\":8351:8770   */\n      swap2\n      swap1\n      pop\n      jump\t// out\n        /* \"#utility.yul\":8776:8948   */\n    tag_482:\n        /* \"#utility.yul\":8916:8940   */\n      0x436f6e7472616374206973206e6f742061637469766500000000000000000000\n        /* \"#utility.yul\":8912:8913   */\n      0x00\n        /* \"#utility.yul\":8904:8910   */\n      dup3\n        /* \"#utility.yul\":8900:8914   */\n      add\n        /* \"#utility.yul\":8893:8941   */\n      mstore\n        /* \"#utility.yul\":8776:8948   */\n      pop\n      jump\t// out\n        /* \"#utility.yul\":8954:9320   */\n    tag_483:\n        /* \"#utility.yul\":9096:9099   */\n      0x00\n        /* \"#utility.yul\":9117:9184   */\n      tag_639\n        /* \"#utility.yul\":9181:9183   */\n      0x16\n        /* \"#utility.yul\":9176:9179   */\n      dup4\n        /* \"#utility.yul\":9117:9184   */\n      tag_475\n      jump\t// in\n    tag_639:\n        /* \"#utility.yul\":9110:9184   */\n      swap2\n      pop\n        /* \"#utility.yul\":9193:9286   */\n      tag_640\n        /* \"#utility.yul\":9282:9285   */\n      dup3\n        /* \"#utility.yul\":9193:9286   */\n      tag_482\n      jump\t// in\n    tag_640:\n        /* \"#utility.yul\":9311:9313   */\n      0x20\n        /* \"#utility.yul\":9306:9309   */\n      dup3\n        /* \"#utility.yul\":9302:9314   */\n      add\n        /* \"#utility.yul\":9295:9314   */\n      swap1\n      pop\n        /* \"#utility.yul\":8954:9320   */\n      swap2\n      swap1\n      pop\n      jump\t// out\n        /* \"#utility.yul\":9326:9745   */\n    tag_234:\n        /* \"#utility.yul\":9492:9496   */\n      0x00\n        /* \"#utility.yul\":9530:9532   */\n      0x20\n        /* \"#utility.yul\":9519:9528   */\n      dup3\n        /* \"#utility.yul\":9515:9533   */\n      add\n        /* \"#utility.yul\":9507:9533   */\n      swap1\n      pop\n        /* \"#utility.yul\":9579:9588   */\n      dup2\n        /* \"#utility.yul\":9573:9577   */\n      dup2\n        /* \"#utility.yul\":9569:9589   */\n      sub\n        /* \"#utility.yul\":9565:9566   */\n      0x00\n        /* \"#utility.yul\":9554:9563   */\n      dup4\n        /* \"#utility.yul\":9550:9567   */\n      add\n        /* \"#utility.yul\":9543:9590   */\n      mstore\n        /* \"#utility.yul\":9607:9738   */\n      tag_642\n        /* \"#utility.yul\":9733:9737   */\n      dup2\n        /* \"#utility.yul\":9607:9738   */\n      tag_483\n      jump\t// in\n    tag_642:\n        /* \"#utility.yul\":9599:9738   */\n      swap1\n      pop\n        /* \"#utility.yul\":9326:9745   */\n      swap2\n      swap1\n      pop\n      jump\t// out\n        /* \"#utility.yul\":9751:9983   */\n    tag_484:\n        /* \"#utility.yul\":9891:9925   */\n      0x4f6e6c79206c616e646c6f72642063616e2072656a6563742074686520636f75\n        /* \"#utility.yul\":9887:9888   */\n      0x00\n        /* \"#utility.yul\":9879:9885   */\n      dup3\n        /* \"#utility.yul\":9875:9889   */\n      add\n        /* \"#utility.yul\":9868:9926   */\n      mstore\n        /* \"#utility.yul\":9960:9975   */\n      0x6e74657220657374696d61746500000000000000000000000000000000000000\n        /* \"#utility.yul\":9955:9957   */\n      0x20\n        /* \"#utility.yul\":9947:9953   */\n      dup3\n        /* \"#utility.yul\":9943:9958   */\n      add\n        /* \"#utility.yul\":9936:9976   */\n      mstore\n        /* \"#utility.yul\":9751:9983   */\n      pop\n      jump\t// out\n        /* \"#utility.yul\":9989:10355   */\n    tag_485:\n        /* \"#utility.yul\":10131:10134   */\n      0x00\n        /* \"#utility.yul\":10152:10219   */\n      tag_645\n        /* \"#utility.yul\":10216:10218   */\n      0x2d\n        /* \"#utility.yul\":10211:10214   */\n      dup4\n        /* \"#utility.yul\":10152:10219   */\n      tag_475\n      jump\t// in\n    tag_645:\n        /* \"#utility.yul\":10145:10219   */\n      swap2\n      pop\n        /* \"#utility.yul\":10228:10321   */\n      tag_646\n        /* \"#utility.yul\":10317:10320   */\n      dup3\n        /* \"#utility.yul\":10228:10321   */\n      tag_484\n      jump\t// in\n    tag_646:\n        /* \"#utility.yul\":10346:10348   */\n      0x40\n        /* \"#utility.yul\":10341:10344   */\n      dup3\n        /* \"#utility.yul\":10337:10349   */\n      add\n        /* \"#utility.yul\":10330:10349   */\n      swap1\n      pop\n        /* \"#utility.yul\":9989:10355   */\n      swap2\n      swap1\n      pop\n      jump\t// out\n        /* \"#utility.yul\":10361:10780   */\n    tag_239:\n        /* \"#utility.yul\":10527:10531   */\n      0x00\n        /* \"#utility.yul\":10565:10567   */\n      0x20\n        /* \"#utility.yul\":10554:10563   */\n      dup3\n        /* \"#utility.yul\":10550:10568   */\n      add\n        /* \"#utility.yul\":10542:10568   */\n      swap1\n      pop\n        /* \"#utility.yul\":10614:10623   */\n      dup2\n        /* \"#utility.yul\":10608:10612   */\n      dup2\n        /* \"#utility.yul\":10604:10624   */\n      sub\n        /* \"#utility.yul\":10600:10601   */\n      0x00\n        /* \"#utility.yul\":10589:10598   */\n      dup4\n        /* \"#utility.yul\":10585:10602   */\n      add\n        /* \"#utility.yul\":10578:10625   */\n      mstore\n        /* \"#utility.yul\":10642:10773   */\n      tag_648\n        /* \"#utility.yul\":10768:10772   */\n      dup2\n        /* \"#utility.yul\":10642:10773   */\n      tag_485\n      jump\t// in\n    tag_648:\n        /* \"#utility.yul\":10634:10773   */\n      swap1\n      pop\n        /* \"#utility.yul\":10361:10780   */\n      swap2\n      swap1\n      pop\n      jump\t// out\n        /* \"#utility.yul\":10786:11011   */\n    tag_486:\n        /* \"#utility.yul\":10926:10960   */\n      0x52656e746572206d7573742073657420636f756e74657220657374696d617465\n        /* \"#utility.yul\":10922:10923   */\n      0x00\n        /* \"#utility.yul\":10914:10920   */\n      dup3\n        /* \"#utility.yul\":10910:10924   */\n      add\n        /* \"#utility.yul\":10903:10961   */\n      mstore\n        /* \"#utility.yul\":10995:11003   */\n      0x2066697273740000000000000000000000000000000000000000000000000000\n        /* \"#utility.yul\":10990:10992   */\n      0x20\n        /* \"#utility.yul\":10982:10988   */\n      dup3\n        /* \"#utility.yul\":10978:10993   */\n      add\n        /* \"#utility.yul\":10971:11004   */\n      mstore\n        /* \"#utility.yul\":10786:11011   */\n      pop\n      jump\t// out\n        /* \"#utility.yul\":11017:11383   */\n    tag_487:\n        /* \"#utility.yul\":11159:11162   */\n      0x00\n        /* \"#utility.yul\":11180:11247   */\n      tag_651\n        /* \"#utility.yul\":11244:11246   */\n      0x26\n        /* \"#utility.yul\":11239:11242   */\n      dup4\n        /* \"#utility.yul\":11180:11247   */\n      tag_475\n      jump\t// in\n    tag_651:\n        /* \"#utility.yul\":11173:11247   */\n      swap2\n      pop\n        /* \"#utility.yul\":11256:11349   */\n      tag_652\n        /* \"#utility.yul\":11345:11348   */\n      dup3\n        /* \"#utility.yul\":11256:11349   */\n      tag_486\n      jump\t// in\n    tag_652:\n        /* \"#utility.yul\":11374:11376   */\n      0x40\n        /* \"#utility.yul\":11369:11372   */\n      dup3\n        /* \"#utility.yul\":11365:11377   */\n      add\n        /* \"#utility.yul\":11358:11377   */\n      swap1\n      pop\n        /* \"#utility.yul\":11017:11383   */\n      swap2\n      swap1\n      pop\n      jump\t// out\n        /* \"#utility.yul\":11389:11808   */\n    tag_242:\n        /* \"#utility.yul\":11555:11559   */\n      0x00\n        /* \"#utility.yul\":11593:11595   */\n      0x20\n        /* \"#utility.yul\":11582:11591   */\n      dup3\n        /* \"#utility.yul\":11578:11596   */\n      add\n        /* \"#utility.yul\":11570:11596   */\n      swap1\n      pop\n        /* \"#utility.yul\":11642:11651   */\n      dup2\n        /* \"#utility.yul\":11636:11640   */\n      dup2\n        /* \"#utility.yul\":11632:11652   */\n      sub\n        /* \"#utility.yul\":11628:11629   */\n      0x00\n        /* \"#utility.yul\":11617:11626   */\n      dup4\n        /* \"#utility.yul\":11613:11630   */\n      add\n        /* \"#utility.yul\":11606:11653   */\n      mstore\n        /* \"#utility.yul\":11670:11801   */\n      tag_654\n        /* \"#utility.yul\":11796:11800   */\n      dup2\n        /* \"#utility.yul\":11670:11801   */\n      tag_487\n      jump\t// in\n    tag_654:\n        /* \"#utility.yul\":11662:11801   */\n      swap1\n      pop\n        /* \"#utility.yul\":11389:11808   */\n      swap2\n      swap1\n      pop\n      jump\t// out\n        /* \"#utility.yul\":11814:11957   */\n    tag_488:\n        /* \"#utility.yul\":11871:11876   */\n      0x00\n        /* \"#utility.yul\":11902:11908   */\n      dup2\n        /* \"#utility.yul\":11896:11909   */\n      mload\n        /* \"#utility.yul\":11887:11909   */\n      swap1\n      pop\n        /* \"#utility.yul\":11918:11951   */\n      tag_656\n        /* \"#utility.yul\":11945:11950   */\n      dup2\n        /* \"#utility.yul\":11918:11951   */\n      tag_463\n      jump\t// in\n    tag_656:\n        /* \"#utility.yul\":11814:11957   */\n      swap3\n      swap2\n      pop\n      pop\n      jump\t// out\n        /* \"#utility.yul\":11963:12314   */\n    tag_246:\n        /* \"#utility.yul\":12033:12039   */\n      0x00\n        /* \"#utility.yul\":12082:12084   */\n      0x20\n        /* \"#utility.yul\":12070:12079   */\n      dup3\n        /* \"#utility.yul\":12061:12068   */\n      dup5\n        /* \"#utility.yul\":12057:12080   */\n      sub\n        /* \"#utility.yul\":12053:12085   */\n      slt\n        /* \"#utility.yul\":12050:12169   */\n      iszero\n      tag_658\n      jumpi\n        /* \"#utility.yul\":12088:12167   */\n      tag_659\n      tag_461\n      jump\t// in\n    tag_659:\n        /* \"#utility.yul\":12050:12169   */\n    tag_658:\n        /* \"#utility.yul\":12208:12209   */\n      0x00\n        /* \"#utility.yul\":12233:12297   */\n      tag_660\n        /* \"#utility.yul\":12289:12296   */\n      dup5\n        /* \"#utility.yul\":12280:12286   */\n      dup3\n        /* \"#utility.yul\":12269:12278   */\n      dup6\n        /* \"#utility.yul\":12265:12287   */\n      add\n        /* \"#utility.yul\":12233:12297   */\n      tag_488\n      jump\t// in\n    tag_660:\n        /* \"#utility.yul\":12223:12297   */\n      swap2\n      pop\n        /* \"#utility.yul\":12179:12307   */\n      pop\n        /* \"#utility.yul\":11963:12314   */\n      swap3\n      swap2\n      pop\n      pop\n      jump\t// out\n        /* \"#utility.yul\":12320:12563   */\n    tag_489:\n        /* \"#utility.yul\":12460:12494   */\n      0x5365637572697479206465706f73697420696e73756666696369656e7420746f\n        /* \"#utility.yul\":12456:12457   */\n      0x00\n        /* \"#utility.yul\":12448:12454   */\n      dup3\n        /* \"#utility.yul\":12444:12458   */\n      add\n        /* \"#utility.yul\":12437:12495   */\n      mstore\n        /* \"#utility.yul\":12529:12555   */\n      0x20636f766572206172626974726174696f6e20636f7374730000000000000000\n        /* \"#utility.yul\":12524:12526   */\n      0x20\n        /* \"#utility.yul\":12516:12522   */\n      dup3\n        /* \"#utility.yul\":12512:12527   */\n      add\n        /* \"#utility.yul\":12505:12556   */\n      mstore\n        /* \"#utility.yul\":12320:12563   */\n      pop\n      jump\t// out\n        /* \"#utility.yul\":12569:12935   */\n    tag_490:\n        /* \"#utility.yul\":12711:12714   */\n      0x00\n        /* \"#utility.yul\":12732:12799   */\n      tag_663\n        /* \"#utility.yul\":12796:12798   */\n      0x38\n        /* \"#utility.yul\":12791:12794   */\n      dup4\n        /* \"#utility.yul\":12732:12799   */\n      tag_475\n      jump\t// in\n    tag_663:\n        /* \"#utility.yul\":12725:12799   */\n      swap2\n      pop\n        /* \"#utility.yul\":12808:12901   */\n      tag_664\n        /* \"#utility.yul\":12897:12900   */\n      dup3\n        /* \"#utility.yul\":12808:12901   */\n      tag_489\n      jump\t// in\n    tag_664:\n        /* \"#utility.yul\":12926:12928   */\n      0x40\n        /* \"#utility.yul\":12921:12924   */\n      dup3\n        /* \"#utility.yul\":12917:12929   */\n      add\n        /* \"#utility.yul\":12910:12929   */\n      swap1\n      pop\n        /* \"#utility.yul\":12569:12935   */\n      swap2\n      swap1\n      pop\n      jump\t// out\n        /* \"#utility.yul\":12941:13360   */\n    tag_249:\n        /* \"#utility.yul\":13107:13111   */\n      0x00\n        /* \"#utility.yul\":13145:13147   */\n      0x20\n        /* \"#utility.yul\":13134:13143   */\n      dup3\n        /* \"#utility.yul\":13130:13148   */\n      add\n        /* \"#utility.yul\":13122:13148   */\n      swap1\n      pop\n        /* \"#utility.yul\":13194:13203   */\n      dup2\n        /* \"#utility.yul\":13188:13192   */\n      dup2\n        /* \"#utility.yul\":13184:13204   */\n      sub\n        /* \"#utility.yul\":13180:13181   */\n      0x00\n        /* \"#utility.yul\":13169:13178   */\n      dup4\n        /* \"#utility.yul\":13165:13182   */\n      add\n        /* \"#utility.yul\":13158:13205   */\n      mstore\n        /* \"#utility.yul\":13222:13353   */\n      tag_666\n        /* \"#utility.yul\":13348:13352   */\n      dup2\n        /* \"#utility.yul\":13222:13353   */\n      tag_490\n      jump\t// in\n    tag_666:\n        /* \"#utility.yul\":13214:13353   */\n      swap1\n      pop\n        /* \"#utility.yul\":12941:13360   */\n      swap2\n      swap1\n      pop\n      jump\t// out\n        /* \"#utility.yul\":13366:13546   */\n    tag_491:\n        /* \"#utility.yul\":13414:13491   */\n      0x4e487b7100000000000000000000000000000000000000000000000000000000\n        /* \"#utility.yul\":13411:13412   */\n      0x00\n        /* \"#utility.yul\":13404:13492   */\n      mstore\n        /* \"#utility.yul\":13511:13515   */\n      0x11\n        /* \"#utility.yul\":13508:13509   */\n      0x04\n        /* \"#utility.yul\":13501:13516   */\n      mstore\n        /* \"#utility.yul\":13535:13539   */\n      0x24\n        /* \"#utility.yul\":13532:13533   */\n      0x00\n        /* \"#utility.yul\":13525:13540   */\n      revert\n        /* \"#utility.yul\":13552:13746   */\n    tag_251:\n        /* \"#utility.yul\":13592:13596   */\n      0x00\n        /* \"#utility.yul\":13612:13632   */\n      tag_669\n        /* \"#utility.yul\":13630:13631   */\n      dup3\n        /* \"#utility.yul\":13612:13632   */\n      tag_458\n      jump\t// in\n    tag_669:\n        /* \"#utility.yul\":13607:13632   */\n      swap2\n      pop\n        /* \"#utility.yul\":13646:13666   */\n      tag_670\n        /* \"#utility.yul\":13664:13665   */\n      dup4\n        /* \"#utility.yul\":13646:13666   */\n      tag_458\n      jump\t// in\n    tag_670:\n        /* \"#utility.yul\":13641:13666   */\n      swap3\n      pop\n        /* \"#utility.yul\":13690:13691   */\n      dup3\n        /* \"#utility.yul\":13687:13688   */\n      dup3\n        /* \"#utility.yul\":13683:13692   */\n      sub\n        /* \"#utility.yul\":13675:13692   */\n      swap1\n      pop\n        /* \"#utility.yul\":13714:13715   */\n      dup2\n        /* \"#utility.yul\":13708:13712   */\n      dup2\n        /* \"#utility.yul\":13705:13716   */\n      gt\n        /* \"#utility.yul\":13702:13739   */\n      iszero\n      tag_671\n      jumpi\n        /* \"#utility.yul\":13719:13737   */\n      tag_672\n      tag_491\n      jump\t// in\n    tag_672:\n        /* \"#utility.yul\":13702:13739   */\n    tag_671:\n        /* \"#utility.yul\":13552:13746   */\n      swap3\n      swap2\n      pop\n      pop\n      jump\t// out\n        /* \"#utility.yul\":13752:14084   */\n    tag_253:\n        /* \"#utility.yul\":13873:13877   */\n      0x00\n        /* \"#utility.yul\":13911:13913   */\n      0x40\n        /* \"#utility.yul\":13900:13909   */\n      dup3\n        /* \"#utility.yul\":13896:13914   */\n      add\n        /* \"#utility.yul\":13888:13914   */\n      swap1\n      pop\n        /* \"#utility.yul\":13924:13995   */\n      tag_674\n        /* \"#utility.yul\":13992:13993   */\n      0x00\n        /* \"#utility.yul\":13981:13990   */\n      dup4\n        /* \"#utility.yul\":13977:13994   */\n      add\n        /* \"#utility.yul\":13968:13974   */\n      dup6\n        /* \"#utility.yul\":13924:13995   */\n      tag_459\n      jump\t// in\n    tag_674:\n        /* \"#utility.yul\":14005:14077   */\n      tag_675\n        /* \"#utility.yul\":14073:14075   */\n      0x20\n        /* \"#utility.yul\":14062:14071   */\n      dup4\n        /* \"#utility.yul\":14058:14076   */\n      add\n        /* \"#utility.yul\":14049:14055   */\n      dup5\n        /* \"#utility.yul\":14005:14077   */\n      tag_459\n      jump\t// in\n    tag_675:\n        /* \"#utility.yul\":13752:14084   */\n      swap4\n      swap3\n      pop\n      pop\n      pop\n      jump\t// out\n        /* \"#utility.yul\":14090:14260   */\n    tag_492:\n        /* \"#utility.yul\":14230:14252   */\n      0x4e6f2066756e647320746f207769746864726177000000000000000000000000\n        /* \"#utility.yul\":14226:14227   */\n      0x00\n        /* \"#utility.yul\":14218:14224   */\n      dup3\n        /* \"#utility.yul\":14214:14228   */\n      add\n        /* \"#utility.yul\":14207:14253   */\n      mstore\n        /* \"#utility.yul\":14090:14260   */\n      pop\n      jump\t// out\n        /* \"#utility.yul\":14266:14632   */\n    tag_493:\n        /* \"#utility.yul\":14408:14411   */\n      0x00\n        /* \"#utility.yul\":14429:14496   */\n      tag_678\n        /* \"#utility.yul\":14493:14495   */\n      0x14\n        /* \"#utility.yul\":14488:14491   */\n      dup4\n        /* \"#utility.yul\":14429:14496   */\n      tag_475\n      jump\t// in\n    tag_678:\n        /* \"#utility.yul\":14422:14496   */\n      swap2\n      pop\n        /* \"#utility.yul\":14505:14598   */\n      tag_679\n        /* \"#utility.yul\":14594:14597   */\n      dup3\n        /* \"#utility.yul\":14505:14598   */\n      tag_492\n      jump\t// in\n    tag_679:\n        /* \"#utility.yul\":14623:14625   */\n      0x20\n        /* \"#utility.yul\":14618:14621   */\n      dup3\n        /* \"#utility.yul\":14614:14626   */\n      add\n        /* \"#utility.yul\":14607:14626   */\n      swap1\n      pop\n        /* \"#utility.yul\":14266:14632   */\n      swap2\n      swap1\n      pop\n      jump\t// out\n        /* \"#utility.yul\":14638:15057   */\n    tag_261:\n        /* \"#utility.yul\":14804:14808   */\n      0x00\n        /* \"#utility.yul\":14842:14844   */\n      0x20\n        /* \"#utility.yul\":14831:14840   */\n      dup3\n        /* \"#utility.yul\":14827:14845   */\n      add\n        /* \"#utility.yul\":14819:14845   */\n      swap1\n      pop\n        /* \"#utility.yul\":14891:14900   */\n      dup2\n        /* \"#utility.yul\":14885:14889   */\n      dup2\n        /* \"#utility.yul\":14881:14901   */\n      sub\n        /* \"#utility.yul\":14877:14878   */\n      0x00\n        /* \"#utility.yul\":14866:14875   */\n      dup4\n        /* \"#utility.yul\":14862:14879   */\n      add\n        /* \"#utility.yul\":14855:14902   */\n      mstore\n        /* \"#utility.yul\":14919:15050   */\n      tag_681\n        /* \"#utility.yul\":15045:15049   */\n      dup2\n        /* \"#utility.yul\":14919:15050   */\n      tag_493\n      jump\t// in\n    tag_681:\n        /* \"#utility.yul\":14911:15050   */\n      swap1\n      pop\n        /* \"#utility.yul\":14638:15057   */\n      swap2\n      swap1\n      pop\n      jump\t// out\n        /* \"#utility.yul\":15063:15210   */\n    tag_494:\n        /* \"#utility.yul\":15164:15175   */\n      0x00\n        /* \"#utility.yul\":15201:15204   */\n      dup2\n        /* \"#utility.yul\":15186:15204   */\n      swap1\n      pop\n        /* \"#utility.yul\":15063:15210   */\n      swap3\n      swap2\n      pop\n      pop\n      jump\t// out\n        /* \"#utility.yul\":15216:15330   */\n    tag_495:\n      pop\n      jump\t// out\n        /* \"#utility.yul\":15336:15734   */\n    tag_496:\n        /* \"#utility.yul\":15495:15498   */\n      0x00\n        /* \"#utility.yul\":15516:15599   */\n      tag_685\n        /* \"#utility.yul\":15597:15598   */\n      0x00\n        /* \"#utility.yul\":15592:15595   */\n      dup4\n        /* \"#utility.yul\":15516:15599   */\n      tag_494\n      jump\t// in\n    tag_685:\n        /* \"#utility.yul\":15509:15599   */\n      swap2\n      pop\n        /* \"#utility.yul\":15608:15701   */\n      tag_686\n        /* \"#utility.yul\":15697:15700   */\n      dup3\n        /* \"#utility.yul\":15608:15701   */\n      tag_495\n      jump\t// in\n    tag_686:\n        /* \"#utility.yul\":15726:15727   */\n      0x00\n        /* \"#utility.yul\":15721:15724   */\n      dup3\n        /* \"#utility.yul\":15717:15728   */\n      add\n        /* \"#utility.yul\":15710:15728   */\n      swap1\n      pop\n        /* \"#utility.yul\":15336:15734   */\n      swap2\n      swap1\n      pop\n      jump\t// out\n        /* \"#utility.yul\":15740:16119   */\n    tag_263:\n        /* \"#utility.yul\":15924:15927   */\n      0x00\n        /* \"#utility.yul\":15946:16093   */\n      tag_688\n        /* \"#utility.yul\":16089:16092   */\n      dup3\n        /* \"#utility.yul\":15946:16093   */\n      tag_496\n      jump\t// in\n    tag_688:\n        /* \"#utility.yul\":15939:16093   */\n      swap2\n      pop\n        /* \"#utility.yul\":16110:16113   */\n      dup2\n        /* \"#utility.yul\":16103:16113   */\n      swap1\n      pop\n        /* \"#utility.yul\":15740:16119   */\n      swap2\n      swap1\n      pop\n      jump\t// out\n        /* \"#utility.yul\":16125:16290   */\n    tag_497:\n        /* \"#utility.yul\":16265:16282   */\n      0x5472616e73666572206661696c65640000000000000000000000000000000000\n        /* \"#utility.yul\":16261:16262   */\n      0x00\n        /* \"#utility.yul\":16253:16259   */\n      dup3\n        /* \"#utility.yul\":16249:16263   */\n      add\n        /* \"#utility.yul\":16242:16283   */\n      mstore\n        /* \"#utility.yul\":16125:16290   */\n      pop\n      jump\t// out\n        /* \"#utility.yul\":16296:16662   */\n    tag_498:\n        /* \"#utility.yul\":16438:16441   */\n      0x00\n        /* \"#utility.yul\":16459:16526   */\n      tag_691\n        /* \"#utility.yul\":16523:16525   */\n      0x0f\n        /* \"#utility.yul\":16518:16521   */\n      dup4\n        /* \"#utility.yul\":16459:16526   */\n      tag_475\n      jump\t// in\n    tag_691:\n        /* \"#utility.yul\":16452:16526   */\n      swap2\n      pop\n        /* \"#utility.yul\":16535:16628   */\n      tag_692\n        /* \"#utility.yul\":16624:16627   */\n      dup3\n        /* \"#utility.yul\":16535:16628   */\n      tag_497\n      jump\t// in\n    tag_692:\n        /* \"#utility.yul\":16653:16655   */\n      0x20\n        /* \"#utility.yul\":16648:16651   */\n      dup3\n        /* \"#utility.yul\":16644:16656   */\n      add\n        /* \"#utility.yul\":16637:16656   */\n      swap1\n      pop\n        /* \"#utility.yul\":16296:16662   */\n      swap2\n      swap1\n      pop\n      jump\t// out\n        /* \"#utility.yul\":16668:17087   */\n    tag_269:\n        /* \"#utility.yul\":16834:16838   */\n      0x00\n        /* \"#utility.yul\":16872:16874   */\n      0x20\n        /* \"#utility.yul\":16861:16870   */\n      dup3\n        /* \"#utility.yul\":16857:16875   */\n      add\n        /* \"#utility.yul\":16849:16875   */\n      swap1\n      pop\n        /* \"#utility.yul\":16921:16930   */\n      dup2\n        /* \"#utility.yul\":16915:16919   */\n      dup2\n        /* \"#utility.yul\":16911:16931   */\n      sub\n        /* \"#utility.yul\":16907:16908   */\n      0x00\n        /* \"#utility.yul\":16896:16905   */\n      dup4\n        /* \"#utility.yul\":16892:16909   */\n      add\n        /* \"#utility.yul\":16885:16932   */\n      mstore\n        /* \"#utility.yul\":16949:17080   */\n      tag_694\n        /* \"#utility.yul\":17075:17079   */\n      dup2\n        /* \"#utility.yul\":16949:17080   */\n      tag_498\n      jump\t// in\n    tag_694:\n        /* \"#utility.yul\":16941:17080   */\n      swap1\n      pop\n        /* \"#utility.yul\":16668:17087   */\n      swap2\n      swap1\n      pop\n      jump\t// out\n        /* \"#utility.yul\":17093:17316   */\n    tag_499:\n        /* \"#utility.yul\":17233:17267   */\n      0x4f6e6c792072656e7465722063616e2070617920736563757269747920646570\n        /* \"#utility.yul\":17229:17230   */\n      0x00\n        /* \"#utility.yul\":17221:17227   */\n      dup3\n        /* \"#utility.yul\":17217:17231   */\n      add\n        /* \"#utility.yul\":17210:17268   */\n      mstore\n        /* \"#utility.yul\":17302:17308   */\n      0x6f73697400000000000000000000000000000000000000000000000000000000\n        /* \"#utility.yul\":17297:17299   */\n      0x20\n        /* \"#utility.yul\":17289:17295   */\n      dup3\n        /* \"#utility.yul\":17285:17300   */\n      add\n        /* \"#utility.yul\":17278:17309   */\n      mstore\n        /* \"#utility.yul\":17093:17316   */\n      pop\n      jump\t// out\n        /* \"#utility.yul\":17322:17688   */\n    tag_500:\n        /* \"#utility.yul\":17464:17467   */\n      0x00\n        /* \"#utility.yul\":17485:17552   */\n      tag_697\n        /* \"#utility.yul\":17549:17551   */\n      0x24\n        /* \"#utility.yul\":17544:17547   */\n      dup4\n        /* \"#utility.yul\":17485:17552   */\n      tag_475\n      jump\t// in\n    tag_697:\n        /* \"#utility.yul\":17478:17552   */\n      swap2\n      pop\n        /* \"#utility.yul\":17561:17654   */\n      tag_698\n        /* \"#utility.yul\":17650:17653   */\n      dup3\n        /* \"#utility.yul\":17561:17654   */\n      tag_499\n      jump\t// in\n    tag_698:\n        /* \"#utility.yul\":17679:17681   */\n      0x40\n        /* \"#utility.yul\":17674:17677   */\n      dup3\n        /* \"#utility.yul\":17670:17682   */\n      add\n        /* \"#utility.yul\":17663:17682   */\n      swap1\n      pop\n        /* \"#utility.yul\":17322:17688   */\n      swap2\n      swap1\n      pop\n      jump\t// out\n        /* \"#utility.yul\":17694:18113   */\n    tag_274:\n        /* \"#utility.yul\":17860:17864   */\n      0x00\n        /* \"#utility.yul\":17898:17900   */\n      0x20\n        /* \"#utility.yul\":17887:17896   */\n      dup3\n        /* \"#utility.yul\":17883:17901   */\n      add\n        /* \"#utility.yul\":17875:17901   */\n      swap1\n      pop\n        /* \"#utility.yul\":17947:17956   */\n      dup2\n        /* \"#utility.yul\":17941:17945   */\n      dup2\n        /* \"#utility.yul\":17937:17957   */\n      sub\n        /* \"#utility.yul\":17933:17934   */\n      0x00\n        /* \"#utility.yul\":17922:17931   */\n      dup4\n        /* \"#utility.yul\":17918:17935   */\n      add\n        /* \"#utility.yul\":17911:17958   */\n      mstore\n        /* \"#utility.yul\":17975:18106   */\n      tag_700\n        /* \"#utility.yul\":18101:18105   */\n      dup2\n        /* \"#utility.yul\":17975:18106   */\n      tag_500\n      jump\t// in\n    tag_700:\n        /* \"#utility.yul\":17967:18106   */\n      swap1\n      pop\n        /* \"#utility.yul\":17694:18113   */\n      swap2\n      swap1\n      pop\n      jump\t// out\n        /* \"#utility.yul\":18119:18295   */\n    tag_501:\n        /* \"#utility.yul\":18259:18287   */\n      0x436f6e747261637420697320616c726561647920616374697665000000000000\n        /* \"#utility.yul\":18255:18256   */\n      0x00\n        /* \"#utility.yul\":18247:18253   */\n      dup3\n        /* \"#utility.yul\":18243:18257   */\n      add\n        /* \"#utility.yul\":18236:18288   */\n      mstore\n        /* \"#utility.yul\":18119:18295   */\n      pop\n      jump\t// out\n        /* \"#utility.yul\":18301:18667   */\n    tag_502:\n        /* \"#utility.yul\":18443:18446   */\n      0x00\n        /* \"#utility.yul\":18464:18531   */\n      tag_703\n        /* \"#utility.yul\":18528:18530   */\n      0x1a\n        /* \"#utility.yul\":18523:18526   */\n      dup4\n        /* \"#utility.yul\":18464:18531   */\n      tag_475\n      jump\t// in\n    tag_703:\n        /* \"#utility.yul\":18457:18531   */\n      swap2\n      pop\n        /* \"#utility.yul\":18540:18633   */\n      tag_704\n        /* \"#utility.yul\":18629:18632   */\n      dup3\n        /* \"#utility.yul\":18540:18633   */\n      tag_501\n      jump\t// in\n    tag_704:\n        /* \"#utility.yul\":18658:18660   */\n      0x20\n        /* \"#utility.yul\":18653:18656   */\n      dup3\n        /* \"#utility.yul\":18649:18661   */\n      add\n        /* \"#utility.yul\":18642:18661   */\n      swap1\n      pop\n        /* \"#utility.yul\":18301:18667   */\n      swap2\n      swap1\n      pop\n      jump\t// out\n        /* \"#utility.yul\":18673:19092   */\n    tag_277:\n        /* \"#utility.yul\":18839:18843   */\n      0x00\n        /* \"#utility.yul\":18877:18879   */\n      0x20\n        /* \"#utility.yul\":18866:18875   */\n      dup3\n        /* \"#utility.yul\":18862:18880   */\n      add\n        /* \"#utility.yul\":18854:18880   */\n      swap1\n      pop\n        /* \"#utility.yul\":18926:18935   */\n      dup2\n        /* \"#utility.yul\":18920:18924   */\n      dup2\n        /* \"#utility.yul\":18916:18936   */\n      sub\n        /* \"#utility.yul\":18912:18913   */\n      0x00\n        /* \"#utility.yul\":18901:18910   */\n      dup4\n        /* \"#utility.yul\":18897:18914   */\n      add\n        /* \"#utility.yul\":18890:18937   */\n      mstore\n        /* \"#utility.yul\":18954:19085   */\n      tag_706\n        /* \"#utility.yul\":19080:19084   */\n      dup2\n        /* \"#utility.yul\":18954:19085   */\n      tag_502\n      jump\t// in\n    tag_706:\n        /* \"#utility.yul\":18946:19085   */\n      swap1\n      pop\n        /* \"#utility.yul\":18673:19092   */\n      swap2\n      swap1\n      pop\n      jump\t// out\n        /* \"#utility.yul\":19098:19318   */\n    tag_503:\n        /* \"#utility.yul\":19238:19272   */\n      0x496e636f7272656374207365637572697479206465706f73697420616d6f756e\n        /* \"#utility.yul\":19234:19235   */\n      0x00\n        /* \"#utility.yul\":19226:19232   */\n      dup3\n        /* \"#utility.yul\":19222:19236   */\n      add\n        /* \"#utility.yul\":19215:19273   */\n      mstore\n        /* \"#utility.yul\":19307:19310   */\n      0x7400000000000000000000000000000000000000000000000000000000000000\n        /* \"#utility.yul\":19302:19304   */\n      0x20\n        /* \"#utility.yul\":19294:19300   */\n      dup3\n        /* \"#utility.yul\":19290:19305   */\n      add\n        /* \"#utility.yul\":19283:19311   */\n      mstore\n        /* \"#utility.yul\":19098:19318   */\n      pop\n      jump\t// out\n        /* \"#utility.yul\":19324:19690   */\n    tag_504:\n        /* \"#utility.yul\":19466:19469   */\n      0x00\n        /* \"#utility.yul\":19487:19554   */\n      tag_709\n        /* \"#utility.yul\":19551:19553   */\n      0x21\n        /* \"#utility.yul\":19546:19549   */\n      dup4\n        /* \"#utility.yul\":19487:19554   */\n      tag_475\n      jump\t// in\n    tag_709:\n        /* \"#utility.yul\":19480:19554   */\n      swap2\n      pop\n        /* \"#utility.yul\":19563:19656   */\n      tag_710\n        /* \"#utility.yul\":19652:19655   */\n      dup3\n        /* \"#utility.yul\":19563:19656   */\n      tag_503\n      jump\t// in\n    tag_710:\n        /* \"#utility.yul\":19681:19683   */\n      0x40\n        /* \"#utility.yul\":19676:19679   */\n      dup3\n        /* \"#utility.yul\":19672:19684   */\n      add\n        /* \"#utility.yul\":19665:19684   */\n      swap1\n      pop\n        /* \"#utility.yul\":19324:19690   */\n      swap2\n      swap1\n      pop\n      jump\t// out\n        /* \"#utility.yul\":19696:20115   */\n    tag_280:\n        /* \"#utility.yul\":19862:19866   */\n      0x00\n        /* \"#utility.yul\":19900:19902   */\n      0x20\n        /* \"#utility.yul\":19889:19898   */\n      dup3\n        /* \"#utility.yul\":19885:19903   */\n      add\n        /* \"#utility.yul\":19877:19903   */\n      swap1\n      pop\n        /* \"#utility.yul\":19949:19958   */\n      dup2\n        /* \"#utility.yul\":19943:19947   */\n      dup2\n        /* \"#utility.yul\":19939:19959   */\n      sub\n        /* \"#utility.yul\":19935:19936   */\n      0x00\n        /* \"#utility.yul\":19924:19933   */\n      dup4\n        /* \"#utility.yul\":19920:19937   */\n      add\n        /* \"#utility.yul\":19913:19960   */\n      mstore\n        /* \"#utility.yul\":19977:20108   */\n      tag_712\n        /* \"#utility.yul\":20103:20107   */\n      dup2\n        /* \"#utility.yul\":19977:20108   */\n      tag_504\n      jump\t// in\n    tag_712:\n        /* \"#utility.yul\":19969:20108   */\n      swap1\n      pop\n        /* \"#utility.yul\":19696:20115   */\n      swap2\n      swap1\n      pop\n      jump\t// out\n        /* \"#utility.yul\":20121:20342   */\n    tag_505:\n        /* \"#utility.yul\":20261:20295   */\n      0x4f6e6c79206c616e646c6f72642063616e207265636f7264207574696c697469\n        /* \"#utility.yul\":20257:20258   */\n      0x00\n        /* \"#utility.yul\":20249:20255   */\n      dup3\n        /* \"#utility.yul\":20245:20259   */\n      add\n        /* \"#utility.yul\":20238:20296   */\n      mstore\n        /* \"#utility.yul\":20330:20334   */\n      0x6573000000000000000000000000000000000000000000000000000000000000\n        /* \"#utility.yul\":20325:20327   */\n      0x20\n        /* \"#utility.yul\":20317:20323   */\n      dup3\n        /* \"#utility.yul\":20313:20328   */\n      add\n        /* \"#utility.yul\":20306:20335   */\n      mstore\n        /* \"#utility.yul\":20121:20342   */\n      pop\n      jump\t// out\n        /* \"#utility.yul\":20348:20714   */\n    tag_506:\n        /* \"#utility.yul\":20490:20493   */\n      0x00\n        /* \"#utility.yul\":20511:20578   */\n      tag_715\n        /* \"#utility.yul\":20575:20577   */\n      0x22\n        /* \"#utility.yul\":20570:20573   */\n      dup4\n        /* \"#utility.yul\":20511:20578   */\n      tag_475\n      jump\t// in\n    tag_715:\n        /* \"#utility.yul\":20504:20578   */\n      swap2\n      pop\n        /* \"#utility.yul\":20587:20680   */\n      tag_716\n        /* \"#utility.yul\":20676:20679   */\n      dup3\n        /* \"#utility.yul\":20587:20680   */\n      tag_505\n      jump\t// in\n    tag_716:\n        /* \"#utility.yul\":20705:20707   */\n      0x40\n        /* \"#utility.yul\":20700:20703   */\n      dup3\n        /* \"#utility.yul\":20696:20708   */\n      add\n        /* \"#utility.yul\":20689:20708   */\n      swap1\n      pop\n        /* \"#utility.yul\":20348:20714   */\n      swap2\n      swap1\n      pop\n      jump\t// out\n        /* \"#utility.yul\":20720:21139   */\n    tag_292:\n        /* \"#utility.yul\":20886:20890   */\n      0x00\n        /* \"#utility.yul\":20924:20926   */\n      0x20\n        /* \"#utility.yul\":20913:20922   */\n      dup3\n        /* \"#utility.yul\":20909:20927   */\n      add\n        /* \"#utility.yul\":20901:20927   */\n      swap1\n      pop\n        /* \"#utility.yul\":20973:20982   */\n      dup2\n        /* \"#utility.yul\":20967:20971   */\n      dup2\n        /* \"#utility.yul\":20963:20983   */\n      sub\n        /* \"#utility.yul\":20959:20960   */\n      0x00\n        /* \"#utility.yul\":20948:20957   */\n      dup4\n        /* \"#utility.yul\":20944:20961   */\n      add\n        /* \"#utility.yul\":20937:20984   */\n      mstore\n        /* \"#utility.yul\":21001:21132   */\n      tag_718\n        /* \"#utility.yul\":21127:21131   */\n      dup2\n        /* \"#utility.yul\":21001:21132   */\n      tag_506\n      jump\t// in\n    tag_718:\n        /* \"#utility.yul\":20993:21132   */\n      swap1\n      pop\n        /* \"#utility.yul\":20720:21139   */\n      swap2\n      swap1\n      pop\n      jump\t// out\n        /* \"#utility.yul\":21145:21316   */\n    tag_507:\n        /* \"#utility.yul\":21285:21308   */\n      0x52656e7420706572696f642068617320656e6465640000000000000000000000\n        /* \"#utility.yul\":21281:21282   */\n      0x00\n        /* \"#utility.yul\":21273:21279   */\n      dup3\n        /* \"#utility.yul\":21269:21283   */\n      add\n        /* \"#utility.yul\":21262:21309   */\n      mstore\n        /* \"#utility.yul\":21145:21316   */\n      pop\n      jump\t// out\n        /* \"#utility.yul\":21322:21688   */\n    tag_508:\n        /* \"#utility.yul\":21464:21467   */\n      0x00\n        /* \"#utility.yul\":21485:21552   */\n      tag_721\n        /* \"#utility.yul\":21549:21551   */\n      0x15\n        /* \"#utility.yul\":21544:21547   */\n      dup4\n        /* \"#utility.yul\":21485:21552   */\n      tag_475\n      jump\t// in\n    tag_721:\n        /* \"#utility.yul\":21478:21552   */\n      swap2\n      pop\n        /* \"#utility.yul\":21561:21654   */\n      tag_722\n        /* \"#utility.yul\":21650:21653   */\n      dup3\n        /* \"#utility.yul\":21561:21654   */\n      tag_507\n      jump\t// in\n    tag_722:\n        /* \"#utility.yul\":21679:21681   */\n      0x20\n        /* \"#utility.yul\":21674:21677   */\n      dup3\n        /* \"#utility.yul\":21670:21682   */\n      add\n        /* \"#utility.yul\":21663:21682   */\n      swap1\n      pop\n        /* \"#utility.yul\":21322:21688   */\n      swap2\n      swap1\n      pop\n      jump\t// out\n        /* \"#utility.yul\":21694:22113   */\n    tag_297:\n        /* \"#utility.yul\":21860:21864   */\n      0x00\n        /* \"#utility.yul\":21898:21900   */\n      0x20\n        /* \"#utility.yul\":21887:21896   */\n      dup3\n        /* \"#utility.yul\":21883:21901   */\n      add\n        /* \"#utility.yul\":21875:21901   */\n      swap1\n      pop\n        /* \"#utility.yul\":21947:21956   */\n      dup2\n        /* \"#utility.yul\":21941:21945   */\n      dup2\n        /* \"#utility.yul\":21937:21957   */\n      sub\n        /* \"#utility.yul\":21933:21934   */\n      0x00\n        /* \"#utility.yul\":21922:21931   */\n      dup4\n        /* \"#utility.yul\":21918:21935   */\n      add\n        /* \"#utility.yul\":21911:21958   */\n      mstore\n        /* \"#utility.yul\":21975:22106   */\n      tag_724\n        /* \"#utility.yul\":22101:22105   */\n      dup2\n        /* \"#utility.yul\":21975:22106   */\n      tag_508\n      jump\t// in\n    tag_724:\n        /* \"#utility.yul\":21967:22106   */\n      swap1\n      pop\n        /* \"#utility.yul\":21694:22113   */\n      swap2\n      swap1\n      pop\n      jump\t// out\n        /* \"#utility.yul\":22119:22293   */\n    tag_509:\n        /* \"#utility.yul\":22259:22285   */\n      0x4f6e6c792072656e7465722063616e207061792072656e740000000000000000\n        /* \"#utility.yul\":22255:22256   */\n      0x00\n        /* \"#utility.yul\":22247:22253   */\n      dup3\n        /* \"#utility.yul\":22243:22257   */\n      add\n        /* \"#utility.yul\":22236:22286   */\n      mstore\n        /* \"#utility.yul\":22119:22293   */\n      pop\n      jump\t// out\n        /* \"#utility.yul\":22299:22665   */\n    tag_510:\n        /* \"#utility.yul\":22441:22444   */\n      0x00\n        /* \"#utility.yul\":22462:22529   */\n      tag_727\n        /* \"#utility.yul\":22526:22528   */\n      0x18\n        /* \"#utility.yul\":22521:22524   */\n      dup4\n        /* \"#utility.yul\":22462:22529   */\n      tag_475\n      jump\t// in\n    tag_727:\n        /* \"#utility.yul\":22455:22529   */\n      swap2\n      pop\n        /* \"#utility.yul\":22538:22631   */\n      tag_728\n        /* \"#utility.yul\":22627:22630   */\n      dup3\n        /* \"#utility.yul\":22538:22631   */\n      tag_509\n      jump\t// in\n    tag_728:\n        /* \"#utility.yul\":22656:22658   */\n      0x20\n        /* \"#utility.yul\":22651:22654   */\n      dup3\n        /* \"#utility.yul\":22647:22659   */\n      add\n        /* \"#utility.yul\":22640:22659   */\n      swap1\n      pop\n        /* \"#utility.yul\":22299:22665   */\n      swap2\n      swap1\n      pop\n      jump\t// out\n        /* \"#utility.yul\":22671:23090   */\n    tag_302:\n        /* \"#utility.yul\":22837:22841   */\n      0x00\n        /* \"#utility.yul\":22875:22877   */\n      0x20\n        /* \"#utility.yul\":22864:22873   */\n      dup3\n        /* \"#utility.yul\":22860:22878   */\n      add\n        /* \"#utility.yul\":22852:22878   */\n      swap1\n      pop\n        /* \"#utility.yul\":22924:22933   */\n      dup2\n        /* \"#utility.yul\":22918:22922   */\n      dup2\n        /* \"#utility.yul\":22914:22934   */\n      sub\n        /* \"#utility.yul\":22910:22911   */\n      0x00\n        /* \"#utility.yul\":22899:22908   */\n      dup4\n        /* \"#utility.yul\":22895:22912   */\n      add\n        /* \"#utility.yul\":22888:22935   */\n      mstore\n        /* \"#utility.yul\":22952:23083   */\n      tag_730\n        /* \"#utility.yul\":23078:23082   */\n      dup2\n        /* \"#utility.yul\":22952:23083   */\n      tag_510\n      jump\t// in\n    tag_730:\n        /* \"#utility.yul\":22944:23083   */\n      swap1\n      pop\n        /* \"#utility.yul\":22671:23090   */\n      swap2\n      swap1\n      pop\n      jump\t// out\n        /* \"#utility.yul\":23096:23324   */\n    tag_511:\n        /* \"#utility.yul\":23236:23270   */\n      0x52656e7420666f722074686973206d6f6e74682068617320616c726561647920\n        /* \"#utility.yul\":23232:23233   */\n      0x00\n        /* \"#utility.yul\":23224:23230   */\n      dup3\n        /* \"#utility.yul\":23220:23234   */\n      add\n        /* \"#utility.yul\":23213:23271   */\n      mstore\n        /* \"#utility.yul\":23305:23316   */\n      0x6265656e20706169640000000000000000000000000000000000000000000000\n        /* \"#utility.yul\":23300:23302   */\n      0x20\n        /* \"#utility.yul\":23292:23298   */\n      dup3\n        /* \"#utility.yul\":23288:23303   */\n      add\n        /* \"#utility.yul\":23281:23317   */\n      mstore\n        /* \"#utility.yul\":23096:23324   */\n      pop\n      jump\t// out\n        /* \"#utility.yul\":23330:23696   */\n    tag_512:\n        /* \"#utility.yul\":23472:23475   */\n      0x00\n        /* \"#utility.yul\":23493:23560   */\n      tag_733\n        /* \"#utility.yul\":23557:23559   */\n      0x29\n        /* \"#utility.yul\":23552:23555   */\n      dup4\n        /* \"#utility.yul\":23493:23560   */\n      tag_475\n      jump\t// in\n    tag_733:\n        /* \"#utility.yul\":23486:23560   */\n      swap2\n      pop\n        /* \"#utility.yul\":23569:23662   */\n      tag_734\n        /* \"#utility.yul\":23658:23661   */\n      dup3\n        /* \"#utility.yul\":23569:23662   */\n      tag_511\n      jump\t// in\n    tag_734:\n        /* \"#utility.yul\":23687:23689   */\n      0x40\n        /* \"#utility.yul\":23682:23685   */\n      dup3\n        /* \"#utility.yul\":23678:23690   */\n      add\n        /* \"#utility.yul\":23671:23690   */\n      swap1\n      pop\n        /* \"#utility.yul\":23330:23696   */\n      swap2\n      swap1\n      pop\n      jump\t// out\n        /* \"#utility.yul\":23702:24121   */\n    tag_309:\n        /* \"#utility.yul\":23868:23872   */\n      0x00\n        /* \"#utility.yul\":23906:23908   */\n      0x20\n        /* \"#utility.yul\":23895:23904   */\n      dup3\n        /* \"#utility.yul\":23891:23909   */\n      add\n        /* \"#utility.yul\":23883:23909   */\n      swap1\n      pop\n        /* \"#utility.yul\":23955:23964   */\n      dup2\n        /* \"#utility.yul\":23949:23953   */\n      dup2\n        /* \"#utility.yul\":23945:23965   */\n      sub\n        /* \"#utility.yul\":23941:23942   */\n      0x00\n        /* \"#utility.yul\":23930:23939   */\n      dup4\n        /* \"#utility.yul\":23926:23943   */\n      add\n        /* \"#utility.yul\":23919:23966   */\n      mstore\n        /* \"#utility.yul\":23983:24114   */\n      tag_736\n        /* \"#utility.yul\":24109:24113   */\n      dup2\n        /* \"#utility.yul\":23983:24114   */\n      tag_512\n      jump\t// in\n    tag_736:\n        /* \"#utility.yul\":23975:24114   */\n      swap1\n      pop\n        /* \"#utility.yul\":23702:24121   */\n      swap2\n      swap1\n      pop\n      jump\t// out\n        /* \"#utility.yul\":24127:24361   */\n    tag_513:\n        /* \"#utility.yul\":24267:24301   */\n      0x5574696c697469657320666f722074686973206d6f6e74682068617665206e6f\n        /* \"#utility.yul\":24263:24264   */\n      0x00\n        /* \"#utility.yul\":24255:24261   */\n      dup3\n        /* \"#utility.yul\":24251:24265   */\n      add\n        /* \"#utility.yul\":24244:24302   */\n      mstore\n        /* \"#utility.yul\":24336:24353   */\n      0x74206265656e207265636f726465640000000000000000000000000000000000\n        /* \"#utility.yul\":24331:24333   */\n      0x20\n        /* \"#utility.yul\":24323:24329   */\n      dup3\n        /* \"#utility.yul\":24319:24334   */\n      add\n        /* \"#utility.yul\":24312:24354   */\n      mstore\n        /* \"#utility.yul\":24127:24361   */\n      pop\n      jump\t// out\n        /* \"#utility.yul\":24367:24733   */\n    tag_514:\n        /* \"#utility.yul\":24509:24512   */\n      0x00\n        /* \"#utility.yul\":24530:24597   */\n      tag_739\n        /* \"#utility.yul\":24594:24596   */\n      0x2f\n        /* \"#utility.yul\":24589:24592   */\n      dup4\n        /* \"#utility.yul\":24530:24597   */\n      tag_475\n      jump\t// in\n    tag_739:\n        /* \"#utility.yul\":24523:24597   */\n      swap2\n      pop\n        /* \"#utility.yul\":24606:24699   */\n      tag_740\n        /* \"#utility.yul\":24695:24698   */\n      dup3\n        /* \"#utility.yul\":24606:24699   */\n      tag_513\n      jump\t// in\n    tag_740:\n        /* \"#utility.yul\":24724:24726   */\n      0x40\n        /* \"#utility.yul\":24719:24722   */\n      dup3\n        /* \"#utility.yul\":24715:24727   */\n      add\n        /* \"#utility.yul\":24708:24727   */\n      swap1\n      pop\n        /* \"#utility.yul\":24367:24733   */\n      swap2\n      swap1\n      pop\n      jump\t// out\n        /* \"#utility.yul\":24739:25158   */\n    tag_312:\n        /* \"#utility.yul\":24905:24909   */\n      0x00\n        /* \"#utility.yul\":24943:24945   */\n      0x20\n        /* \"#utility.yul\":24932:24941   */\n      dup3\n        /* \"#utility.yul\":24928:24946   */\n      add\n        /* \"#utility.yul\":24920:24946   */\n      swap1\n      pop\n        /* \"#utility.yul\":24992:25001   */\n      dup2\n        /* \"#utility.yul\":24986:24990   */\n      dup2\n        /* \"#utility.yul\":24982:25002   */\n      sub\n        /* \"#utility.yul\":24978:24979   */\n      0x00\n        /* \"#utility.yul\":24967:24976   */\n      dup4\n        /* \"#utility.yul\":24963:24980   */\n      add\n        /* \"#utility.yul\":24956:25003   */\n      mstore\n        /* \"#utility.yul\":25020:25151   */\n      tag_742\n        /* \"#utility.yul\":25146:25150   */\n      dup2\n        /* \"#utility.yul\":25020:25151   */\n      tag_514\n      jump\t// in\n    tag_742:\n        /* \"#utility.yul\":25012:25151   */\n      swap1\n      pop\n        /* \"#utility.yul\":24739:25158   */\n      swap2\n      swap1\n      pop\n      jump\t// out\n        /* \"#utility.yul\":25164:25355   */\n    tag_314:\n        /* \"#utility.yul\":25204:25207   */\n      0x00\n        /* \"#utility.yul\":25223:25243   */\n      tag_744\n        /* \"#utility.yul\":25241:25242   */\n      dup3\n        /* \"#utility.yul\":25223:25243   */\n      tag_458\n      jump\t// in\n    tag_744:\n        /* \"#utility.yul\":25218:25243   */\n      swap2\n      pop\n        /* \"#utility.yul\":25257:25277   */\n      tag_745\n        /* \"#utility.yul\":25275:25276   */\n      dup4\n        /* \"#utility.yul\":25257:25277   */\n      tag_458\n      jump\t// in\n    tag_745:\n        /* \"#utility.yul\":25252:25277   */\n      swap3\n      pop\n        /* \"#utility.yul\":25300:25301   */\n      dup3\n        /* \"#utility.yul\":25297:25298   */\n      dup3\n        /* \"#utility.yul\":25293:25302   */\n      add\n        /* \"#utility.yul\":25286:25302   */\n      swap1\n      pop\n        /* \"#utility.yul\":25321:25324   */\n      dup1\n        /* \"#utility.yul\":25318:25319   */\n      dup3\n        /* \"#utility.yul\":25315:25325   */\n      gt\n        /* \"#utility.yul\":25312:25348   */\n      iszero\n      tag_746\n      jumpi\n        /* \"#utility.yul\":25328:25346   */\n      tag_747\n      tag_491\n      jump\t// in\n    tag_747:\n        /* \"#utility.yul\":25312:25348   */\n    tag_746:\n        /* \"#utility.yul\":25164:25355   */\n      swap3\n      swap2\n      pop\n      pop\n      jump\t// out\n        /* \"#utility.yul\":25361:25532   */\n    tag_515:\n        /* \"#utility.yul\":25501:25524   */\n      0x496e636f72726563742072656e7420616d6f756e740000000000000000000000\n        /* \"#utility.yul\":25497:25498   */\n      0x00\n        /* \"#utility.yul\":25489:25495   */\n      dup3\n        /* \"#utility.yul\":25485:25499   */\n      add\n        /* \"#utility.yul\":25478:25525   */\n      mstore\n        /* \"#utility.yul\":25361:25532   */\n      pop\n      jump\t// out\n        /* \"#utility.yul\":25538:25904   */\n    tag_516:\n        /* \"#utility.yul\":25680:25683   */\n      0x00\n        /* \"#utility.yul\":25701:25768   */\n      tag_750\n        /* \"#utility.yul\":25765:25767   */\n      0x15\n        /* \"#utility.yul\":25760:25763   */\n      dup4\n        /* \"#utility.yul\":25701:25768   */\n      tag_475\n      jump\t// in\n    tag_750:\n        /* \"#utility.yul\":25694:25768   */\n      swap2\n      pop\n        /* \"#utility.yul\":25777:25870   */\n      tag_751\n        /* \"#utility.yul\":25866:25869   */\n      dup3\n        /* \"#utility.yul\":25777:25870   */\n      tag_515\n      jump\t// in\n    tag_751:\n        /* \"#utility.yul\":25895:25897   */\n      0x20\n        /* \"#utility.yul\":25890:25893   */\n      dup3\n        /* \"#utility.yul\":25886:25898   */\n      add\n        /* \"#utility.yul\":25879:25898   */\n      swap1\n      pop\n        /* \"#utility.yul\":25538:25904   */\n      swap2\n      swap1\n      pop\n      jump\t// out\n        /* \"#utility.yul\":25910:26329   */\n    tag_318:\n        /* \"#utility.yul\":26076:26080   */\n      0x00\n        /* \"#utility.yul\":26114:26116   */\n      0x20\n        /* \"#utility.yul\":26103:26112   */\n      dup3\n        /* \"#utility.yul\":26099:26117   */\n      add\n        /* \"#utility.yul\":26091:26117   */\n      swap1\n      pop\n        /* \"#utility.yul\":26163:26172   */\n      dup2\n        /* \"#utility.yul\":26157:26161   */\n      dup2\n        /* \"#utility.yul\":26153:26173   */\n      sub\n        /* \"#utility.yul\":26149:26150   */\n      0x00\n        /* \"#utility.yul\":26138:26147   */\n      dup4\n        /* \"#utility.yul\":26134:26151   */\n      add\n        /* \"#utility.yul\":26127:26174   */\n      mstore\n        /* \"#utility.yul\":26191:26322   */\n      tag_753\n        /* \"#utility.yul\":26317:26321   */\n      dup2\n        /* \"#utility.yul\":26191:26322   */\n      tag_516\n      jump\t// in\n    tag_753:\n        /* \"#utility.yul\":26183:26322   */\n      swap1\n      pop\n        /* \"#utility.yul\":25910:26329   */\n      swap2\n      swap1\n      pop\n      jump\t// out\n        /* \"#utility.yul\":26335:26568   */\n    tag_325:\n        /* \"#utility.yul\":26374:26377   */\n      0x00\n        /* \"#utility.yul\":26397:26421   */\n      tag_755\n        /* \"#utility.yul\":26415:26420   */\n      dup3\n        /* \"#utility.yul\":26397:26421   */\n      tag_458\n      jump\t// in\n    tag_755:\n        /* \"#utility.yul\":26388:26421   */\n      swap2\n      pop\n        /* \"#utility.yul\":26443:26509   */\n      0xffffffffffffffffffffffffffffffffffffffffffffffffffffffffffffffff\n        /* \"#utility.yul\":26436:26441   */\n      dup3\n        /* \"#utility.yul\":26433:26510   */\n      sub\n        /* \"#utility.yul\":26430:26533   */\n      tag_756\n      jumpi\n        /* \"#utility.yul\":26513:26531   */\n      tag_757\n      tag_491\n      jump\t// in\n    tag_757:\n        /* \"#utility.yul\":26430:26533   */\n    tag_756:\n        /* \"#utility.yul\":26560:26561   */\n      0x01\n        /* \"#utility.yul\":26553:26558   */\n      dup3\n        /* \"#utility.yul\":26549:26562   */\n      add\n        /* \"#utility.yul\":26542:26562   */\n      swap1\n      pop\n        /* \"#utility.yul\":26335:26568   */\n      swap2\n      swap1\n      pop\n      jump\t// out\n        /* \"#utility.yul\":26574:26814   */\n    tag_517:\n        /* \"#utility.yul\":26714:26748   */\n      0x4f6e6c79206c616e646c6f72642063616e20696e697469616c697a6520637572\n        /* \"#utility.yul\":26710:26711   */\n      0x00\n        /* \"#utility.yul\":26702:26708   */\n      dup3\n        /* \"#utility.yul\":26698:26712   */\n      add\n        /* \"#utility.yul\":26691:26749   */\n      mstore\n        /* \"#utility.yul\":26783:26806   */\n      0x72656e74207365637572697479206465706f7369740000000000000000000000\n        /* \"#utility.yul\":26778:26780   */\n      0x20\n        /* \"#utility.yul\":26770:26776   */\n      dup3\n        /* \"#utility.yul\":26766:26781   */\n      add\n        /* \"#utility.yul\":26759:26807   */\n      mstore\n        /* \"#utility.yul\":26574:26814   */\n      pop\n      jump\t// out\n        /* \"#utility.yul\":26820:27186   */\n    tag_518:\n        /* \"#utility.yul\":26962:26965   */\n      0x00\n        /* \"#utility.yul\":26983:27050   */\n      tag_760\n        /* \"#utility.yul\":27047:27049   */\n      0x35\n        /* \"#utility.yul\":27042:27045   */\n      dup4\n        /* \"#utility.yul\":26983:27050   */\n      tag_475\n      jump\t// in\n    tag_760:\n        /* \"#utility.yul\":26976:27050   */\n      swap2\n      pop\n        /* \"#utility.yul\":27059:27152   */\n      tag_761\n        /* \"#utility.yul\":27148:27151   */\n      dup3\n        /* \"#utility.yul\":27059:27152   */\n      tag_517\n      jump\t// in\n    tag_761:\n        /* \"#utility.yul\":27177:27179   */\n      0x40\n        /* \"#utility.yul\":27172:27175   */\n      dup3\n        /* \"#utility.yul\":27168:27180   */\n      add\n        /* \"#utility.yul\":27161:27180   */\n      swap1\n      pop\n        /* \"#utility.yul\":26820:27186   */\n      swap2\n      swap1\n      pop\n      jump\t// out\n        /* \"#utility.yul\":27192:27611   */\n    tag_329:\n        /* \"#utility.yul\":27358:27362   */\n      0x00\n        /* \"#utility.yul\":27396:27398   */\n      0x20\n        /* \"#utility.yul\":27385:27394   */\n      dup3\n        /* \"#utility.yul\":27381:27399   */\n      add\n        /* \"#utility.yul\":27373:27399   */\n      swap1\n      pop\n        /* \"#utility.yul\":27445:27454   */\n      dup2\n        /* \"#utility.yul\":27439:27443   */\n      dup2\n        /* \"#utility.yul\":27435:27455   */\n      sub\n        /* \"#utility.yul\":27431:27432   */\n      0x00\n        /* \"#utility.yul\":27420:27429   */\n      dup4\n        /* \"#utility.yul\":27416:27433   */\n      add\n        /* \"#utility.yul\":27409:27456   */\n      mstore\n        /* \"#utility.yul\":27473:27604   */\n      tag_763\n        /* \"#utility.yul\":27599:27603   */\n      dup2\n        /* \"#utility.yul\":27473:27604   */\n      tag_518\n      jump\t// in\n    tag_763:\n        /* \"#utility.yul\":27465:27604   */\n      swap1\n      pop\n        /* \"#utility.yul\":27192:27611   */\n      swap2\n      swap1\n      pop\n      jump\t// out\n        /* \"#utility.yul\":27617:27790   */\n    tag_519:\n        /* \"#utility.yul\":27757:27782   */\n      0x436f6e7472616374206d75737420626520616374697665000000000000000000\n        /* \"#utility.yul\":27753:27754   */\n      0x00\n        /* \"#utility.yul\":27745:27751   */\n      dup3\n        /* \"#utility.yul\":27741:27755   */\n      add\n        /* \"#utility.yul\":27734:27783   */\n      mstore\n        /* \"#utility.yul\":27617:27790   */\n      pop\n      jump\t// out\n        /* \"#utility.yul\":27796:28162   */\n    tag_520:\n        /* \"#utility.yul\":27938:27941   */\n      0x00\n        /* \"#utility.yul\":27959:28026   */\n      tag_766\n        /* \"#utility.yul\":28023:28025   */\n      0x17\n        /* \"#utility.yul\":28018:28021   */\n      dup4\n        /* \"#utility.yul\":27959:28026   */\n      tag_475\n      jump\t// in\n    tag_766:\n        /* \"#utility.yul\":27952:28026   */\n      swap2\n      pop\n        /* \"#utility.yul\":28035:28128   */\n      tag_767\n        /* \"#utility.yul\":28124:28127   */\n      dup3\n        /* \"#utility.yul\":28035:28128   */\n      tag_519\n      jump\t// in\n    tag_767:\n        /* \"#utility.yul\":28153:28155   */\n      0x20\n        /* \"#utility.yul\":28148:28151   */\n      dup3\n        /* \"#utility.yul\":28144:28156   */\n      add\n        /* \"#utility.yul\":28137:28156   */\n      swap1\n      pop\n        /* \"#utility.yul\":27796:28162   */\n      swap2\n      swap1\n      pop\n      jump\t// out\n        /* \"#utility.yul\":28168:28587   */\n    tag_332:\n        /* \"#utility.yul\":28334:28338   */\n      0x00\n        /* \"#utility.yul\":28372:28374   */\n      0x20\n        /* \"#utility.yul\":28361:28370   */\n      dup3\n        /* \"#utility.yul\":28357:28375   */\n      add\n        /* \"#utility.yul\":28349:28375   */\n      swap1\n      pop\n        /* \"#utility.yul\":28421:28430   */\n      dup2\n        /* \"#utility.yul\":28415:28419   */\n      dup2\n        /* \"#utility.yul\":28411:28431   */\n      sub\n        /* \"#utility.yul\":28407:28408   */\n      0x00\n        /* \"#utility.yul\":28396:28405   */\n      dup4\n        /* \"#utility.yul\":28392:28409   */\n      add\n        /* \"#utility.yul\":28385:28432   */\n      mstore\n        /* \"#utility.yul\":28449:28580   */\n      tag_769\n        /* \"#utility.yul\":28575:28579   */\n      dup2\n        /* \"#utility.yul\":28449:28580   */\n      tag_520\n      jump\t// in\n    tag_769:\n        /* \"#utility.yul\":28441:28580   */\n      swap1\n      pop\n        /* \"#utility.yul\":28168:28587   */\n      swap2\n      swap1\n      pop\n      jump\t// out\n        /* \"#utility.yul\":28593:28824   */\n    tag_521:\n        /* \"#utility.yul\":28733:28767   */\n      0x43757272656e74207365637572697479206465706f73697420616c7265616479\n        /* \"#utility.yul\":28729:28730   */\n      0x00\n        /* \"#utility.yul\":28721:28727   */\n      dup3\n        /* \"#utility.yul\":28717:28731   */\n      add\n        /* \"#utility.yul\":28710:28768   */\n      mstore\n        /* \"#utility.yul\":28802:28816   */\n      0x20696e697469616c697a65640000000000000000000000000000000000000000\n        /* \"#utility.yul\":28797:28799   */\n      0x20\n        /* \"#utility.yul\":28789:28795   */\n      dup3\n        /* \"#utility.yul\":28785:28800   */\n      add\n        /* \"#utility.yul\":28778:28817   */\n      mstore\n        /* \"#utility.yul\":28593:28824   */\n      pop\n      jump\t// out\n        /* \"#utility.yul\":28830:29196   */\n    tag_522:\n        /* \"#utility.yul\":28972:28975   */\n      0x00\n        /* \"#utility.yul\":28993:29060   */\n      tag_772\n        /* \"#utility.yul\":29057:29059   */\n      0x2c\n        /* \"#utility.yul\":29052:29055   */\n      dup4\n        /* \"#utility.yul\":28993:29060   */\n      tag_475\n      jump\t// in\n    tag_772:\n        /* \"#utility.yul\":28986:29060   */\n      swap2\n      pop\n        /* \"#utility.yul\":29069:29162   */\n      tag_773\n        /* \"#utility.yul\":29158:29161   */\n      dup3\n        /* \"#utility.yul\":29069:29162   */\n      tag_521\n      jump\t// in\n    tag_773:\n        /* \"#utility.yul\":29187:29189   */\n      0x40\n        /* \"#utility.yul\":29182:29185   */\n      dup3\n        /* \"#utility.yul\":29178:29190   */\n      add\n        /* \"#utility.yul\":29171:29190   */\n      swap1\n      pop\n        /* \"#utility.yul\":28830:29196   */\n      swap2\n      swap1\n      pop\n      jump\t// out\n        /* \"#utility.yul\":29202:29621   */\n    tag_335:\n        /* \"#utility.yul\":29368:29372   */\n      0x00\n        /* \"#utility.yul\":29406:29408   */\n      0x20\n        /* \"#utility.yul\":29395:29404   */\n      dup3\n        /* \"#utility.yul\":29391:29409   */\n      add\n        /* \"#utility.yul\":29383:29409   */\n      swap1\n      pop\n        /* \"#utility.yul\":29455:29464   */\n      dup2\n        /* \"#utility.yul\":29449:29453   */\n      dup2\n        /* \"#utility.yul\":29445:29465   */\n      sub\n        /* \"#utility.yul\":29441:29442   */\n      0x00\n        /* \"#utility.yul\":29430:29439   */\n      dup4\n        /* \"#utility.yul\":29426:29443   */\n      add\n        /* \"#utility.yul\":29419:29466   */\n      mstore\n        /* \"#utility.yul\":29483:29614   */\n      tag_775\n        /* \"#utility.yul\":29609:29613   */\n      dup2\n        /* \"#utility.yul\":29483:29614   */\n      tag_522\n      jump\t// in\n    tag_775:\n        /* \"#utility.yul\":29475:29614   */\n      swap1\n      pop\n        /* \"#utility.yul\":29202:29621   */\n      swap2\n      swap1\n      pop\n      jump\t// out\n        /* \"#utility.yul\":29627:29854   */\n    tag_523:\n        /* \"#utility.yul\":29767:29801   */\n      0x4f6e6c792072656e7465722063616e207365742074686520636f756e74657220\n        /* \"#utility.yul\":29763:29764   */\n      0x00\n        /* \"#utility.yul\":29755:29761   */\n      dup3\n        /* \"#utility.yul\":29751:29765   */\n      add\n        /* \"#utility.yul\":29744:29802   */\n      mstore\n        /* \"#utility.yul\":29836:29846   */\n      0x657374696d617465000000000000000000000000000000000000000000000000\n        /* \"#utility.yul\":29831:29833   */\n      0x20\n        /* \"#utility.yul\":29823:29829   */\n      dup3\n        /* \"#utility.yul\":29819:29834   */\n      add\n        /* \"#utility.yul\":29812:29847   */\n      mstore\n        /* \"#utility.yul\":29627:29854   */\n      pop\n      jump\t// out\n        /* \"#utility.yul\":29860:30226   */\n    tag_524:\n        /* \"#utility.yul\":30002:30005   */\n      0x00\n        /* \"#utility.yul\":30023:30090   */\n      tag_778\n        /* \"#utility.yul\":30087:30089   */\n      0x28\n        /* \"#utility.yul\":30082:30085   */\n      dup4\n        /* \"#utility.yul\":30023:30090   */\n      tag_475\n      jump\t// in\n    tag_778:\n        /* \"#utility.yul\":30016:30090   */\n      swap2\n      pop\n        /* \"#utility.yul\":30099:30192   */\n      tag_779\n        /* \"#utility.yul\":30188:30191   */\n      dup3\n        /* \"#utility.yul\":30099:30192   */\n      tag_523\n      jump\t// in\n    tag_779:\n        /* \"#utility.yul\":30217:30219   */\n      0x40\n        /* \"#utility.yul\":30212:30215   */\n      dup3\n        /* \"#utility.yul\":30208:30220   */\n      add\n        /* \"#utility.yul\":30201:30220   */\n      swap1\n      pop\n        /* \"#utility.yul\":29860:30226   */\n      swap2\n      swap1\n      pop\n      jump\t// out\n        /* \"#utility.yul\":30232:30651   */\n    tag_339:\n        /* \"#utility.yul\":30398:30402   */\n      0x00\n        /* \"#utility.yul\":30436:30438   */\n      0x20\n        /* \"#utility.yul\":30425:30434   */\n      dup3\n        /* \"#utility.yul\":30421:30439   */\n      add\n        /* \"#utility.yul\":30413:30439   */\n      swap1\n      pop\n        /* \"#utility.yul\":30485:30494   */\n      dup2\n        /* \"#utility.yul\":30479:30483   */\n      dup2\n        /* \"#utility.yul\":30475:30495   */\n      sub\n        /* \"#utility.yul\":30471:30472   */\n      0x00\n        /* \"#utility.yul\":30460:30469   */\n      dup4\n        /* \"#utility.yul\":30456:30473   */\n      add\n        /* \"#utility.yul\":30449:30496   */\n      mstore\n        /* \"#utility.yul\":30513:30644   */\n      tag_781\n        /* \"#utility.yul\":30639:30643   */\n      dup2\n        /* \"#utility.yul\":30513:30644   */\n      tag_524\n      jump\t// in\n    tag_781:\n        /* \"#utility.yul\":30505:30644   */\n      swap1\n      pop\n        /* \"#utility.yul\":30232:30651   */\n      swap2\n      swap1\n      pop\n      jump\t// out\n        /* \"#utility.yul\":30657:30883   */\n    tag_525:\n        /* \"#utility.yul\":30797:30831   */\n      0x4c616e646c6f7264206d757374207365742064616d61676520657374696d6174\n        /* \"#utility.yul\":30793:30794   */\n      0x00\n        /* \"#utility.yul\":30785:30791   */\n      dup3\n        /* \"#utility.yul\":30781:30795   */\n      add\n        /* \"#utility.yul\":30774:30832   */\n      mstore\n        /* \"#utility.yul\":30866:30875   */\n      0x6520666972737400000000000000000000000000000000000000000000000000\n        /* \"#utility.yul\":30861:30863   */\n      0x20\n        /* \"#utility.yul\":30853:30859   */\n      dup3\n        /* \"#utility.yul\":30849:30864   */\n      add\n        /* \"#utility.yul\":30842:30876   */\n      mstore\n        /* \"#utility.yul\":30657:30883   */\n      pop\n      jump\t// out\n        /* \"#utility.yul\":30889:31255   */\n    tag_526:\n        /* \"#utility.yul\":31031:31034   */\n      0x00\n        /* \"#utility.yul\":31052:31119   */\n      tag_784\n        /* \"#utility.yul\":31116:31118   */\n      0x27\n        /* \"#utility.yul\":31111:31114   */\n      dup4\n        /* \"#utility.yul\":31052:31119   */\n      tag_475\n      jump\t// in\n    tag_784:\n        /* \"#utility.yul\":31045:31119   */\n      swap2\n      pop\n        /* \"#utility.yul\":31128:31221   */\n      tag_785\n        /* \"#utility.yul\":31217:31220   */\n      dup3\n        /* \"#utility.yul\":31128:31221   */\n      tag_525\n      jump\t// in\n    tag_785:\n        /* \"#utility.yul\":31246:31248   */\n      0x40\n        /* \"#utility.yul\":31241:31244   */\n      dup3\n        /* \"#utility.yul\":31237:31249   */\n      add\n        /* \"#utility.yul\":31230:31249   */\n      swap1\n      pop\n        /* \"#utility.yul\":30889:31255   */\n      swap2\n      swap1\n      pop\n      jump\t// out\n        /* \"#utility.yul\":31261:31680   */\n    tag_342:\n        /* \"#utility.yul\":31427:31431   */\n      0x00\n        /* \"#utility.yul\":31465:31467   */\n      0x20\n        /* \"#utility.yul\":31454:31463   */\n      dup3\n        /* \"#utility.yul\":31450:31468   */\n      add\n        /* \"#utility.yul\":31442:31468   */\n      swap1\n      pop\n        /* \"#utility.yul\":31514:31523   */\n      dup2\n        /* \"#utility.yul\":31508:31512   */\n      dup2\n        /* \"#utility.yul\":31504:31524   */\n      sub\n        /* \"#utility.yul\":31500:31501   */\n      0x00\n        /* \"#utility.yul\":31489:31498   */\n      dup4\n        /* \"#utility.yul\":31485:31502   */\n      add\n        /* \"#utility.yul\":31478:31525   */\n      mstore\n        /* \"#utility.yul\":31542:31673   */\n      tag_787\n        /* \"#utility.yul\":31668:31672   */\n      dup2\n        /* \"#utility.yul\":31542:31673   */\n      tag_526\n      jump\t// in\n    tag_787:\n        /* \"#utility.yul\":31534:31673   */\n      swap1\n      pop\n        /* \"#utility.yul\":31261:31680   */\n      swap2\n      swap1\n      pop\n      jump\t// out\n        /* \"#utility.yul\":31686:31906   */\n    tag_527:\n        /* \"#utility.yul\":31826:31860   */\n      0x4f6e6c792072656e7465722063616e20736b69702072656e74207061796d656e\n        /* \"#utility.yul\":31822:31823   */\n      0x00\n        /* \"#utility.yul\":31814:31820   */\n      dup3\n        /* \"#utility.yul\":31810:31824   */\n      add\n        /* \"#utility.yul\":31803:31861   */\n      mstore\n        /* \"#utility.yul\":31895:31898   */\n      0x7400000000000000000000000000000000000000000000000000000000000000\n        /* \"#utility.yul\":31890:31892   */\n      0x20\n        /* \"#utility.yul\":31882:31888   */\n      dup3\n        /* \"#utility.yul\":31878:31893   */\n      add\n        /* \"#utility.yul\":31871:31899   */\n      mstore\n        /* \"#utility.yul\":31686:31906   */\n      pop\n      jump\t// out\n        /* \"#utility.yul\":31912:32278   */\n    tag_528:\n        /* \"#utility.yul\":32054:32057   */\n      0x00\n        /* \"#utility.yul\":32075:32142   */\n      tag_790\n        /* \"#utility.yul\":32139:32141   */\n      0x21\n        /* \"#utility.yul\":32134:32137   */\n      dup4\n        /* \"#utility.yul\":32075:32142   */\n      tag_475\n      jump\t// in\n    tag_790:\n        /* \"#utility.yul\":32068:32142   */\n      swap2\n      pop\n        /* \"#utility.yul\":32151:32244   */\n      tag_791\n        /* \"#utility.yul\":32240:32243   */\n      dup3\n        /* \"#utility.yul\":32151:32244   */\n      tag_527\n      jump\t// in\n    tag_791:\n        /* \"#utility.yul\":32269:32271   */\n      0x40\n        /* \"#utility.yul\":32264:32267   */\n      dup3\n        /* \"#utility.yul\":32260:32272   */\n      add\n        /* \"#utility.yul\":32253:32272   */\n      swap1\n      pop\n        /* \"#utility.yul\":31912:32278   */\n      swap2\n      swap1\n      pop\n      jump\t// out\n        /* \"#utility.yul\":32284:32703   */\n    tag_347:\n        /* \"#utility.yul\":32450:32454   */\n      0x00\n        /* \"#utility.yul\":32488:32490   */\n      0x20\n        /* \"#utility.yul\":32477:32486   */\n      dup3\n        /* \"#utility.yul\":32473:32491   */\n      add\n        /* \"#utility.yul\":32465:32491   */\n      swap1\n      pop\n        /* \"#utility.yul\":32537:32546   */\n      dup2\n        /* \"#utility.yul\":32531:32535   */\n      dup2\n        /* \"#utility.yul\":32527:32547   */\n      sub\n        /* \"#utility.yul\":32523:32524   */\n      0x00\n        /* \"#utility.yul\":32512:32521   */\n      dup4\n        /* \"#utility.yul\":32508:32525   */\n      add\n        /* \"#utility.yul\":32501:32548   */\n      mstore\n        /* \"#utility.yul\":32565:32696   */\n      tag_793\n        /* \"#utility.yul\":32691:32695   */\n      dup2\n        /* \"#utility.yul\":32565:32696   */\n      tag_528\n      jump\t// in\n    tag_793:\n        /* \"#utility.yul\":32557:32696   */\n      swap1\n      pop\n        /* \"#utility.yul\":32284:32703   */\n      swap2\n      swap1\n      pop\n      jump\t// out\n        /* \"#utility.yul\":32709:32931   */\n    tag_529:\n        /* \"#utility.yul\":32849:32883   */\n      0x43616e6e6f7420736b69702072656e7420666f7220746865206c617374206d6f\n        /* \"#utility.yul\":32845:32846   */\n      0x00\n        /* \"#utility.yul\":32837:32843   */\n      dup3\n        /* \"#utility.yul\":32833:32847   */\n      add\n        /* \"#utility.yul\":32826:32884   */\n      mstore\n        /* \"#utility.yul\":32918:32923   */\n      0x6e74680000000000000000000000000000000000000000000000000000000000\n        /* \"#utility.yul\":32913:32915   */\n      0x20\n        /* \"#utility.yul\":32905:32911   */\n      dup3\n        /* \"#utility.yul\":32901:32916   */\n      add\n        /* \"#utility.yul\":32894:32924   */\n      mstore\n        /* \"#utility.yul\":32709:32931   */\n      pop\n      jump\t// out\n        /* \"#utility.yul\":32937:33303   */\n    tag_530:\n        /* \"#utility.yul\":33079:33082   */\n      0x00\n        /* \"#utility.yul\":33100:33167   */\n      tag_796\n        /* \"#utility.yul\":33164:33166   */\n      0x23\n        /* \"#utility.yul\":33159:33162   */\n      dup4\n        /* \"#utility.yul\":33100:33167   */\n      tag_475\n      jump\t// in\n    tag_796:\n        /* \"#utility.yul\":33093:33167   */\n      swap2\n      pop\n        /* \"#utility.yul\":33176:33269   */\n      tag_797\n        /* \"#utility.yul\":33265:33268   */\n      dup3\n        /* \"#utility.yul\":33176:33269   */\n      tag_529\n      jump\t// in\n    tag_797:\n        /* \"#utility.yul\":33294:33296   */\n      0x40\n        /* \"#utility.yul\":33289:33292   */\n      dup3\n        /* \"#utility.yul\":33285:33297   */\n      add\n        /* \"#utility.yul\":33278:33297   */\n      swap1\n      pop\n        /* \"#utility.yul\":32937:33303   */\n      swap2\n      swap1\n      pop\n      jump\t// out\n        /* \"#utility.yul\":33309:33728   */\n    tag_352:\n        /* \"#utility.yul\":33475:33479   */\n      0x00\n        /* \"#utility.yul\":33513:33515   */\n      0x20\n        /* \"#utility.yul\":33502:33511   */\n      dup3\n        /* \"#utility.yul\":33498:33516   */\n      add\n        /* \"#utility.yul\":33490:33516   */\n      swap1\n      pop\n        /* \"#utility.yul\":33562:33571   */\n      dup2\n        /* \"#utility.yul\":33556:33560   */\n      dup2\n        /* \"#utility.yul\":33552:33572   */\n      sub\n        /* \"#utility.yul\":33548:33549   */\n      0x00\n        /* \"#utility.yul\":33537:33546   */\n      dup4\n        /* \"#utility.yul\":33533:33550   */\n      add\n        /* \"#utility.yul\":33526:33573   */\n      mstore\n        /* \"#utility.yul\":33590:33721   */\n      tag_799\n        /* \"#utility.yul\":33716:33720   */\n      dup2\n        /* \"#utility.yul\":33590:33721   */\n      tag_530\n      jump\t// in\n    tag_799:\n        /* \"#utility.yul\":33582:33721   */\n      swap1\n      pop\n        /* \"#utility.yul\":33309:33728   */\n      swap2\n      swap1\n      pop\n      jump\t// out\n        /* \"#utility.yul\":33734:33958   */\n    tag_531:\n        /* \"#utility.yul\":33874:33908   */\n      0x4f6e6c79206c616e646c6f72642063616e207365742061677265656d656e7420\n        /* \"#utility.yul\":33870:33871   */\n      0x00\n        /* \"#utility.yul\":33862:33868   */\n      dup3\n        /* \"#utility.yul\":33858:33872   */\n      add\n        /* \"#utility.yul\":33851:33909   */\n      mstore\n        /* \"#utility.yul\":33943:33950   */\n      0x7465726d73000000000000000000000000000000000000000000000000000000\n        /* \"#utility.yul\":33938:33940   */\n      0x20\n        /* \"#utility.yul\":33930:33936   */\n      dup3\n        /* \"#utility.yul\":33926:33941   */\n      add\n        /* \"#utility.yul\":33919:33951   */\n      mstore\n        /* \"#utility.yul\":33734:33958   */\n      pop\n      jump\t// out\n        /* \"#utility.yul\":33964:34330   */\n    tag_532:\n        /* \"#utility.yul\":34106:34109   */\n      0x00\n        /* \"#utility.yul\":34127:34194   */\n      tag_802\n        /* \"#utility.yul\":34191:34193   */\n      0x25\n        /* \"#utility.yul\":34186:34189   */\n      dup4\n        /* \"#utility.yul\":34127:34194   */\n      tag_475\n      jump\t// in\n    tag_802:\n        /* \"#utility.yul\":34120:34194   */\n      swap2\n      pop\n        /* \"#utility.yul\":34203:34296   */\n      tag_803\n        /* \"#utility.yul\":34292:34295   */\n      dup3\n        /* \"#utility.yul\":34203:34296   */\n      tag_531\n      jump\t// in\n    tag_803:\n        /* \"#utility.yul\":34321:34323   */\n      0x40\n        /* \"#utility.yul\":34316:34319   */\n      dup3\n        /* \"#utility.yul\":34312:34324   */\n      add\n        /* \"#utility.yul\":34305:34324   */\n      swap1\n      pop\n        /* \"#utility.yul\":33964:34330   */\n      swap2\n      swap1\n      pop\n      jump\t// out\n        /* \"#utility.yul\":34336:34755   */\n    tag_366:\n        /* \"#utility.yul\":34502:34506   */\n      0x00\n        /* \"#utility.yul\":34540:34542   */\n      0x20\n        /* \"#utility.yul\":34529:34538   */\n      dup3\n        /* \"#utility.yul\":34525:34543   */\n      add\n        /* \"#utility.yul\":34517:34543   */\n      swap1\n      pop\n        /* \"#utility.yul\":34589:34598   */\n      dup2\n        /* \"#utility.yul\":34583:34587   */\n      dup2\n        /* \"#utility.yul\":34579:34599   */\n      sub\n        /* \"#utility.yul\":34575:34576   */\n      0x00\n        /* \"#utility.yul\":34564:34573   */\n      dup4\n        /* \"#utility.yul\":34560:34577   */\n      add\n        /* \"#utility.yul\":34553:34600   */\n      mstore\n        /* \"#utility.yul\":34617:34748   */\n      tag_805\n        /* \"#utility.yul\":34743:34747   */\n      dup2\n        /* \"#utility.yul\":34617:34748   */\n      tag_532\n      jump\t// in\n    tag_805:\n        /* \"#utility.yul\":34609:34748   */\n      swap1\n      pop\n        /* \"#utility.yul\":34336:34755   */\n      swap2\n      swap1\n      pop\n      jump\t// out\n        /* \"#utility.yul\":34761:35203   */\n    tag_370:\n        /* \"#utility.yul\":34910:34914   */\n      0x00\n        /* \"#utility.yul\":34948:34950   */\n      0x60\n        /* \"#utility.yul\":34937:34946   */\n      dup3\n        /* \"#utility.yul\":34933:34951   */\n      add\n        /* \"#utility.yul\":34925:34951   */\n      swap1\n      pop\n        /* \"#utility.yul\":34961:35032   */\n      tag_807\n        /* \"#utility.yul\":35029:35030   */\n      0x00\n        /* \"#utility.yul\":35018:35027   */\n      dup4\n        /* \"#utility.yul\":35014:35031   */\n      add\n        /* \"#utility.yul\":35005:35011   */\n      dup7\n        /* \"#utility.yul\":34961:35032   */\n      tag_459\n      jump\t// in\n    tag_807:\n        /* \"#utility.yul\":35042:35114   */\n      tag_808\n        /* \"#utility.yul\":35110:35112   */\n      0x20\n        /* \"#utility.yul\":35099:35108   */\n      dup4\n        /* \"#utility.yul\":35095:35113   */\n      add\n        /* \"#utility.yul\":35086:35092   */\n      dup6\n        /* \"#utility.yul\":35042:35114   */\n      tag_459\n      jump\t// in\n    tag_808:\n        /* \"#utility.yul\":35124:35196   */\n      tag_809\n        /* \"#utility.yul\":35192:35194   */\n      0x40\n        /* \"#utility.yul\":35181:35190   */\n      dup4\n        /* \"#utility.yul\":35177:35195   */\n      add\n        /* \"#utility.yul\":35168:35174   */\n      dup5\n        /* \"#utility.yul\":35124:35196   */\n      tag_459\n      jump\t// in\n    tag_809:\n        /* \"#utility.yul\":34761:35203   */\n      swap5\n      swap4\n      pop\n      pop\n      pop\n      pop\n      jump\t// out\n        /* \"#utility.yul\":35209:35434   */\n    tag_533:\n        /* \"#utility.yul\":35349:35383   */\n      0x4f6e6c79207468652061726269747261746f722063616e206578656375746520\n        /* \"#utility.yul\":35345:35346   */\n      0x00\n        /* \"#utility.yul\":35337:35343   */\n      dup3\n        /* \"#utility.yul\":35333:35347   */\n      add\n        /* \"#utility.yul\":35326:35384   */\n      mstore\n        /* \"#utility.yul\":35418:35426   */\n      0x72756c696e670000000000000000000000000000000000000000000000000000\n        /* \"#utility.yul\":35413:35415   */\n      0x20\n        /* \"#utility.yul\":35405:35411   */\n      dup3\n        /* \"#utility.yul\":35401:35416   */\n      add\n        /* \"#utility.yul\":35394:35427   */\n      mstore\n        /* \"#utility.yul\":35209:35434   */\n      pop\n      jump\t// out\n        /* \"#utility.yul\":35440:35806   */\n    tag_534:\n        /* \"#utility.yul\":35582:35585   */\n      0x00\n        /* \"#utility.yul\":35603:35670   */\n      tag_812\n        /* \"#utility.yul\":35667:35669   */\n      0x26\n        /* \"#utility.yul\":35662:35665   */\n      dup4\n        /* \"#utility.yul\":35603:35670   */\n      tag_475\n      jump\t// in\n    tag_812:\n        /* \"#utility.yul\":35596:35670   */\n      swap2\n      pop\n        /* \"#utility.yul\":35679:35772   */\n      tag_813\n        /* \"#utility.yul\":35768:35771   */\n      dup3\n        /* \"#utility.yul\":35679:35772   */\n      tag_533\n      jump\t// in\n    tag_813:\n        /* \"#utility.yul\":35797:35799   */\n      0x40\n        /* \"#utility.yul\":35792:35795   */\n      dup3\n        /* \"#utility.yul\":35788:35800   */\n      add\n        /* \"#utility.yul\":35781:35800   */\n      swap1\n      pop\n        /* \"#utility.yul\":35440:35806   */\n      swap2\n      swap1\n      pop\n      jump\t// out\n        /* \"#utility.yul\":35812:36231   */\n    tag_374:\n        /* \"#utility.yul\":35978:35982   */\n      0x00\n        /* \"#utility.yul\":36016:36018   */\n      0x20\n        /* \"#utility.yul\":36005:36014   */\n      dup3\n        /* \"#utility.yul\":36001:36019   */\n      add\n        /* \"#utility.yul\":35993:36019   */\n      swap1\n      pop\n        /* \"#utility.yul\":36065:36074   */\n      dup2\n        /* \"#utility.yul\":36059:36063   */\n      dup2\n        /* \"#utility.yul\":36055:36075   */\n      sub\n        /* \"#utility.yul\":36051:36052   */\n      0x00\n        /* \"#utility.yul\":36040:36049   */\n      dup4\n        /* \"#utility.yul\":36036:36053   */\n      add\n        /* \"#utility.yul\":36029:36076   */\n      mstore\n        /* \"#utility.yul\":36093:36224   */\n      tag_815\n        /* \"#utility.yul\":36219:36223   */\n      dup2\n        /* \"#utility.yul\":36093:36224   */\n      tag_534\n      jump\t// in\n    tag_815:\n        /* \"#utility.yul\":36085:36224   */\n      swap1\n      pop\n        /* \"#utility.yul\":35812:36231   */\n      swap2\n      swap1\n      pop\n      jump\t// out\n        /* \"#utility.yul\":36237:36408   */\n    tag_535:\n        /* \"#utility.yul\":36377:36400   */\n      0x4e6f206469737075746520746f2072756c65206f6e0000000000000000000000\n        /* \"#utility.yul\":36373:36374   */\n      0x00\n        /* \"#utility.yul\":36365:36371   */\n      dup3\n        /* \"#utility.yul\":36361:36375   */\n      add\n        /* \"#utility.yul\":36354:36401   */\n      mstore\n        /* \"#utility.yul\":36237:36408   */\n      pop\n      jump\t// out\n        /* \"#utility.yul\":36414:36780   */\n    tag_536:\n        /* \"#utility.yul\":36556:36559   */\n      0x00\n        /* \"#utility.yul\":36577:36644   */\n      tag_818\n        /* \"#utility.yul\":36641:36643   */\n      0x15\n        /* \"#utility.yul\":36636:36639   */\n      dup4\n        /* \"#utility.yul\":36577:36644   */\n      tag_475\n      jump\t// in\n    tag_818:\n        /* \"#utility.yul\":36570:36644   */\n      swap2\n      pop\n        /* \"#utility.yul\":36653:36746   */\n      tag_819\n        /* \"#utility.yul\":36742:36745   */\n      dup3\n        /* \"#utility.yul\":36653:36746   */\n      tag_535\n      jump\t// in\n    tag_819:\n        /* \"#utility.yul\":36771:36773   */\n      0x20\n        /* \"#utility.yul\":36766:36769   */\n      dup3\n        /* \"#utility.yul\":36762:36774   */\n      add\n        /* \"#utility.yul\":36755:36774   */\n      swap1\n      pop\n        /* \"#utility.yul\":36414:36780   */\n      swap2\n      swap1\n      pop\n      jump\t// out\n        /* \"#utility.yul\":36786:37205   */\n    tag_377:\n        /* \"#utility.yul\":36952:36956   */\n      0x00\n        /* \"#utility.yul\":36990:36992   */\n      0x20\n        /* \"#utility.yul\":36979:36988   */\n      dup3\n        /* \"#utility.yul\":36975:36993   */\n      add\n        /* \"#utility.yul\":36967:36993   */\n      swap1\n      pop\n        /* \"#utility.yul\":37039:37048   */\n      dup2\n        /* \"#utility.yul\":37033:37037   */\n      dup2\n        /* \"#utility.yul\":37029:37049   */\n      sub\n        /* \"#utility.yul\":37025:37026   */\n      0x00\n        /* \"#utility.yul\":37014:37023   */\n      dup4\n        /* \"#utility.yul\":37010:37027   */\n      add\n        /* \"#utility.yul\":37003:37050   */\n      mstore\n        /* \"#utility.yul\":37067:37198   */\n      tag_821\n        /* \"#utility.yul\":37193:37197   */\n      dup2\n        /* \"#utility.yul\":37067:37198   */\n      tag_536\n      jump\t// in\n    tag_821:\n        /* \"#utility.yul\":37059:37198   */\n      swap1\n      pop\n        /* \"#utility.yul\":36786:37205   */\n      swap2\n      swap1\n      pop\n      jump\t// out\n        /* \"#utility.yul\":37211:37377   */\n    tag_537:\n        /* \"#utility.yul\":37351:37369   */\n      0x57726f6e67206469737075746520494400000000000000000000000000000000\n        /* \"#utility.yul\":37347:37348   */\n      0x00\n        /* \"#utility.yul\":37339:37345   */\n      dup3\n        /* \"#utility.yul\":37335:37349   */\n      add\n        /* \"#utility.yul\":37328:37370   */\n      mstore\n        /* \"#utility.yul\":37211:37377   */\n      pop\n      jump\t// out\n        /* \"#utility.yul\":37383:37749   */\n    tag_538:\n        /* \"#utility.yul\":37525:37528   */\n      0x00\n        /* \"#utility.yul\":37546:37613   */\n      tag_824\n        /* \"#utility.yul\":37610:37612   */\n      0x10\n        /* \"#utility.yul\":37605:37608   */\n      dup4\n        /* \"#utility.yul\":37546:37613   */\n      tag_475\n      jump\t// in\n    tag_824:\n        /* \"#utility.yul\":37539:37613   */\n      swap2\n      pop\n        /* \"#utility.yul\":37622:37715   */\n      tag_825\n        /* \"#utility.yul\":37711:37714   */\n      dup3\n        /* \"#utility.yul\":37622:37715   */\n      tag_537\n      jump\t// in\n    tag_825:\n        /* \"#utility.yul\":37740:37742   */\n      0x20\n        /* \"#utility.yul\":37735:37738   */\n      dup3\n        /* \"#utility.yul\":37731:37743   */\n      add\n        /* \"#utility.yul\":37724:37743   */\n      swap1\n      pop\n        /* \"#utility.yul\":37383:37749   */\n      swap2\n      swap1\n      pop\n      jump\t// out\n        /* \"#utility.yul\":37755:38174   */\n    tag_380:\n        /* \"#utility.yul\":37921:37925   */\n      0x00\n        /* \"#utility.yul\":37959:37961   */\n      0x20\n        /* \"#utility.yul\":37948:37957   */\n      dup3\n        /* \"#utility.yul\":37944:37962   */\n      add\n        /* \"#utility.yul\":37936:37962   */\n      swap1\n      pop\n        /* \"#utility.yul\":38008:38017   */\n      dup2\n        /* \"#utility.yul\":38002:38006   */\n      dup2\n        /* \"#utility.yul\":37998:38018   */\n      sub\n        /* \"#utility.yul\":37994:37995   */\n      0x00\n        /* \"#utility.yul\":37983:37992   */\n      dup4\n        /* \"#utility.yul\":37979:37996   */\n      add\n        /* \"#utility.yul\":37972:38019   */\n      mstore\n        /* \"#utility.yul\":38036:38167   */\n      tag_827\n        /* \"#utility.yul\":38162:38166   */\n      dup2\n        /* \"#utility.yul\":38036:38167   */\n      tag_538\n      jump\t// in\n    tag_827:\n        /* \"#utility.yul\":38028:38167   */\n      swap1\n      pop\n        /* \"#utility.yul\":37755:38174   */\n      swap2\n      swap1\n      pop\n      jump\t// out\n        /* \"#utility.yul\":38180:38360   */\n    tag_539:\n        /* \"#utility.yul\":38228:38305   */\n      0x4e487b7100000000000000000000000000000000000000000000000000000000\n        /* \"#utility.yul\":38225:38226   */\n      0x00\n        /* \"#utility.yul\":38218:38306   */\n      mstore\n        /* \"#utility.yul\":38325:38329   */\n      0x12\n        /* \"#utility.yul\":38322:38323   */\n      0x04\n        /* \"#utility.yul\":38315:38330   */\n      mstore\n        /* \"#utility.yul\":38349:38353   */\n      0x24\n        /* \"#utility.yul\":38346:38347   */\n      0x00\n        /* \"#utility.yul\":38339:38354   */\n      revert\n        /* \"#utility.yul\":38366:38551   */\n    tag_390:\n        /* \"#utility.yul\":38406:38407   */\n      0x00\n        /* \"#utility.yul\":38423:38443   */\n      tag_830\n        /* \"#utility.yul\":38441:38442   */\n      dup3\n        /* \"#utility.yul\":38423:38443   */\n      tag_458\n      jump\t// in\n    tag_830:\n        /* \"#utility.yul\":38418:38443   */\n      swap2\n      pop\n        /* \"#utility.yul\":38457:38477   */\n      tag_831\n        /* \"#utility.yul\":38475:38476   */\n      dup4\n        /* \"#utility.yul\":38457:38477   */\n      tag_458\n      jump\t// in\n    tag_831:\n        /* \"#utility.yul\":38452:38477   */\n      swap3\n      pop\n        /* \"#utility.yul\":38496:38497   */\n      dup3\n        /* \"#utility.yul\":38486:38521   */\n      tag_832\n      jumpi\n        /* \"#utility.yul\":38501:38519   */\n      tag_833\n      tag_539\n      jump\t// in\n    tag_833:\n        /* \"#utility.yul\":38486:38521   */\n    tag_832:\n        /* \"#utility.yul\":38543:38544   */\n      dup3\n        /* \"#utility.yul\":38540:38541   */\n      dup3\n        /* \"#utility.yul\":38536:38545   */\n      div\n        /* \"#utility.yul\":38531:38545   */\n      swap1\n      pop\n        /* \"#utility.yul\":38366:38551   */\n      swap3\n      swap2\n      pop\n      pop\n      jump\t// out\n        /* \"#utility.yul\":38557:38779   */\n    tag_540:\n        /* \"#utility.yul\":38697:38731   */\n      0x4f6e6c792072656e7465722063616e2072656a6563742074686520657374696d\n        /* \"#utility.yul\":38693:38694   */\n      0x00\n        /* \"#utility.yul\":38685:38691   */\n      dup3\n        /* \"#utility.yul\":38681:38695   */\n      add\n        /* \"#utility.yul\":38674:38732   */\n      mstore\n        /* \"#utility.yul\":38766:38771   */\n      0x6174650000000000000000000000000000000000000000000000000000000000\n        /* \"#utility.yul\":38761:38763   */\n      0x20\n        /* \"#utility.yul\":38753:38759   */\n      dup3\n        /* \"#utility.yul\":38749:38764   */\n      add\n        /* \"#utility.yul\":38742:38772   */\n      mstore\n        /* \"#utility.yul\":38557:38779   */\n      pop\n      jump\t// out\n        /* \"#utility.yul\":38785:39151   */\n    tag_541:\n        /* \"#utility.yul\":38927:38930   */\n      0x00\n        /* \"#utility.yul\":38948:39015   */\n      tag_836\n        /* \"#utility.yul\":39012:39014   */\n      0x23\n        /* \"#utility.yul\":39007:39010   */\n      dup4\n        /* \"#utility.yul\":38948:39015   */\n      tag_475\n      jump\t// in\n    tag_836:\n        /* \"#utility.yul\":38941:39015   */\n      swap2\n      pop\n        /* \"#utility.yul\":39024:39117   */\n      tag_837\n        /* \"#utility.yul\":39113:39116   */\n      dup3\n        /* \"#utility.yul\":39024:39117   */\n      tag_540\n      jump\t// in\n    tag_837:\n        /* \"#utility.yul\":39142:39144   */\n      0x40\n        /* \"#utility.yul\":39137:39140   */\n      dup3\n        /* \"#utility.yul\":39133:39145   */\n      add\n        /* \"#utility.yul\":39126:39145   */\n      swap1\n      pop\n        /* \"#utility.yul\":38785:39151   */\n      swap2\n      swap1\n      pop\n      jump\t// out\n        /* \"#utility.yul\":39157:39576   */\n    tag_412:\n        /* \"#utility.yul\":39323:39327   */\n      0x00\n        /* \"#utility.yul\":39361:39363   */\n      0x20\n        /* \"#utility.yul\":39350:39359   */\n      dup3\n        /* \"#utility.yul\":39346:39364   */\n      add\n        /* \"#utility.yul\":39338:39364   */\n      swap1\n      pop\n        /* \"#utility.yul\":39410:39419   */\n      dup2\n        /* \"#utility.yul\":39404:39408   */\n      dup2\n        /* \"#utility.yul\":39400:39420   */\n      sub\n        /* \"#utility.yul\":39396:39397   */\n      0x00\n        /* \"#utility.yul\":39385:39394   */\n      dup4\n        /* \"#utility.yul\":39381:39398   */\n      add\n        /* \"#utility.yul\":39374:39421   */\n      mstore\n        /* \"#utility.yul\":39438:39569   */\n      tag_839\n        /* \"#utility.yul\":39564:39568   */\n      dup2\n        /* \"#utility.yul\":39438:39569   */\n      tag_541\n      jump\t// in\n    tag_839:\n        /* \"#utility.yul\":39430:39569   */\n      swap1\n      pop\n        /* \"#utility.yul\":39157:39576   */\n      swap2\n      swap1\n      pop\n      jump\t// out\n        /* \"#utility.yul\":39582:39804   */\n    tag_542:\n        /* \"#utility.yul\":39722:39756   */\n      0x4f6e6c792072656e7465722063616e206163636570742074686520657374696d\n        /* \"#utility.yul\":39718:39719   */\n      0x00\n        /* \"#utility.yul\":39710:39716   */\n      dup3\n        /* \"#utility.yul\":39706:39720   */\n      add\n        /* \"#utility.yul\":39699:39757   */\n      mstore\n        /* \"#utility.yul\":39791:39796   */\n      0x6174650000000000000000000000000000000000000000000000000000000000\n        /* \"#utility.yul\":39786:39788   */\n      0x20\n        /* \"#utility.yul\":39778:39784   */\n      dup3\n        /* \"#utility.yul\":39774:39789   */\n      add\n        /* \"#utility.yul\":39767:39797   */\n      mstore\n        /* \"#utility.yul\":39582:39804   */\n      pop\n      jump\t// out\n        /* \"#utility.yul\":39810:40176   */\n    tag_543:\n        /* \"#utility.yul\":39952:39955   */\n      0x00\n        /* \"#utility.yul\":39973:40040   */\n      tag_842\n        /* \"#utility.yul\":40037:40039   */\n      0x23\n        /* \"#utility.yul\":40032:40035   */\n      dup4\n        /* \"#utility.yul\":39973:40040   */\n      tag_475\n      jump\t// in\n    tag_842:\n        /* \"#utility.yul\":39966:40040   */\n      swap2\n      pop\n        /* \"#utility.yul\":40049:40142   */\n      tag_843\n        /* \"#utility.yul\":40138:40141   */\n      dup3\n        /* \"#utility.yul\":40049:40142   */\n      tag_542\n      jump\t// in\n    tag_843:\n        /* \"#utility.yul\":40167:40169   */\n      0x40\n        /* \"#utility.yul\":40162:40165   */\n      dup3\n        /* \"#utility.yul\":40158:40170   */\n      add\n        /* \"#utility.yul\":40151:40170   */\n      swap1\n      pop\n        /* \"#utility.yul\":39810:40176   */\n      swap2\n      swap1\n      pop\n      jump\t// out\n        /* \"#utility.yul\":40182:40601   */\n    tag_418:\n        /* \"#utility.yul\":40348:40352   */\n      0x00\n        /* \"#utility.yul\":40386:40388   */\n      0x20\n        /* \"#utility.yul\":40375:40384   */\n      dup3\n        /* \"#utility.yul\":40371:40389   */\n      add\n        /* \"#utility.yul\":40363:40389   */\n      swap1\n      pop\n        /* \"#utility.yul\":40435:40444   */\n      dup2\n        /* \"#utility.yul\":40429:40433   */\n      dup2\n        /* \"#utility.yul\":40425:40445   */\n      sub\n        /* \"#utility.yul\":40421:40422   */\n      0x00\n        /* \"#utility.yul\":40410:40419   */\n      dup4\n        /* \"#utility.yul\":40406:40423   */\n      add\n        /* \"#utility.yul\":40399:40446   */\n      mstore\n        /* \"#utility.yul\":40463:40594   */\n      tag_845\n        /* \"#utility.yul\":40589:40593   */\n      dup2\n        /* \"#utility.yul\":40463:40594   */\n      tag_543\n      jump\t// in\n    tag_845:\n        /* \"#utility.yul\":40455:40594   */\n      swap1\n      pop\n        /* \"#utility.yul\":40182:40601   */\n      swap2\n      swap1\n      pop\n      jump\t// out\n        /* \"#utility.yul\":40607:40839   */\n    tag_544:\n        /* \"#utility.yul\":40747:40781   */\n      0x4f6e6c79206c616e646c6f72642063616e206163636570742074686520636f75\n        /* \"#utility.yul\":40743:40744   */\n      0x00\n        /* \"#utility.yul\":40735:40741   */\n      dup3\n        /* \"#utility.yul\":40731:40745   */\n      add\n        /* \"#utility.yul\":40724:40782   */\n      mstore\n        /* \"#utility.yul\":40816:40831   */\n      0x6e74657220657374696d61746500000000000000000000000000000000000000\n        /* \"#utility.yul\":40811:40813   */\n      0x20\n        /* \"#utility.yul\":40803:40809   */\n      dup3\n        /* \"#utility.yul\":40799:40814   */\n      add\n        /* \"#utility.yul\":40792:40832   */\n      mstore\n        /* \"#utility.yul\":40607:40839   */\n      pop\n      jump\t// out\n        /* \"#utility.yul\":40845:41211   */\n    tag_545:\n        /* \"#utility.yul\":40987:40990   */\n      0x00\n        /* \"#utility.yul\":41008:41075   */\n      tag_848\n        /* \"#utility.yul\":41072:41074   */\n      0x2d\n        /* \"#utility.yul\":41067:41070   */\n      dup4\n        /* \"#utility.yul\":41008:41075   */\n      tag_475\n      jump\t// in\n    tag_848:\n        /* \"#utility.yul\":41001:41075   */\n      swap2\n      pop\n        /* \"#utility.yul\":41084:41177   */\n      tag_849\n        /* \"#utility.yul\":41173:41176   */\n      dup3\n        /* \"#utility.yul\":41084:41177   */\n      tag_544\n      jump\t// in\n    tag_849:\n        /* \"#utility.yul\":41202:41204   */\n      0x40\n        /* \"#utility.yul\":41197:41200   */\n      dup3\n        /* \"#utility.yul\":41193:41205   */\n      add\n        /* \"#utility.yul\":41186:41205   */\n      swap1\n      pop\n        /* \"#utility.yul\":40845:41211   */\n      swap2\n      swap1\n      pop\n      jump\t// out\n        /* \"#utility.yul\":41217:41636   */\n    tag_433:\n        /* \"#utility.yul\":41383:41387   */\n      0x00\n        /* \"#utility.yul\":41421:41423   */\n      0x20\n        /* \"#utility.yul\":41410:41419   */\n      dup3\n        /* \"#utility.yul\":41406:41424   */\n      add\n        /* \"#utility.yul\":41398:41424   */\n      swap1\n      pop\n        /* \"#utility.yul\":41470:41479   */\n      dup2\n        /* \"#utility.yul\":41464:41468   */\n      dup2\n        /* \"#utility.yul\":41460:41480   */\n      sub\n        /* \"#utility.yul\":41456:41457   */\n      0x00\n        /* \"#utility.yul\":41445:41454   */\n      dup4\n        /* \"#utility.yul\":41441:41458   */\n      add\n        /* \"#utility.yul\":41434:41481   */\n      mstore\n        /* \"#utility.yul\":41498:41629   */\n      tag_851\n        /* \"#utility.yul\":41624:41628   */\n      dup2\n        /* \"#utility.yul\":41498:41629   */\n      tag_545\n      jump\t// in\n    tag_851:\n        /* \"#utility.yul\":41490:41629   */\n      swap1\n      pop\n        /* \"#utility.yul\":41217:41636   */\n      swap2\n      swap1\n      pop\n      jump\t// out\n        /* \"#utility.yul\":41642:41823   */\n    tag_546:\n        /* \"#utility.yul\":41782:41815   */\n      0x52656e74616c20706572696f6420686173206e6f7420656e6465642079657400\n        /* \"#utility.yul\":41778:41779   */\n      0x00\n        /* \"#utility.yul\":41770:41776   */\n      dup3\n        /* \"#utility.yul\":41766:41780   */\n      add\n        /* \"#utility.yul\":41759:41816   */\n      mstore\n        /* \"#utility.yul\":41642:41823   */\n      pop\n      jump\t// out\n        /* \"#utility.yul\":41829:42195   */\n    tag_547:\n        /* \"#utility.yul\":41971:41974   */\n      0x00\n        /* \"#utility.yul\":41992:42059   */\n      tag_854\n        /* \"#utility.yul\":42056:42058   */\n      0x1f\n        /* \"#utility.yul\":42051:42054   */\n      dup4\n        /* \"#utility.yul\":41992:42059   */\n      tag_475\n      jump\t// in\n    tag_854:\n        /* \"#utility.yul\":41985:42059   */\n      swap2\n      pop\n        /* \"#utility.yul\":42068:42161   */\n      tag_855\n        /* \"#utility.yul\":42157:42160   */\n      dup3\n        /* \"#utility.yul\":42068:42161   */\n      tag_546\n      jump\t// in\n    tag_855:\n        /* \"#utility.yul\":42186:42188   */\n      0x20\n        /* \"#utility.yul\":42181:42184   */\n      dup3\n        /* \"#utility.yul\":42177:42189   */\n      add\n        /* \"#utility.yul\":42170:42189   */\n      swap1\n      pop\n        /* \"#utility.yul\":41829:42195   */\n      swap2\n      swap1\n      pop\n      jump\t// out\n        /* \"#utility.yul\":42201:42620   */\n    tag_451:\n        /* \"#utility.yul\":42367:42371   */\n      0x00\n        /* \"#utility.yul\":42405:42407   */\n      0x20\n        /* \"#utility.yul\":42394:42403   */\n      dup3\n        /* \"#utility.yul\":42390:42408   */\n      add\n        /* \"#utility.yul\":42382:42408   */\n      swap1\n      pop\n        /* \"#utility.yul\":42454:42463   */\n      dup2\n        /* \"#utility.yul\":42448:42452   */\n      dup2\n        /* \"#utility.yul\":42444:42464   */\n      sub\n        /* \"#utility.yul\":42440:42441   */\n      0x00\n        /* \"#utility.yul\":42429:42438   */\n      dup4\n        /* \"#utility.yul\":42425:42442   */\n      add\n        /* \"#utility.yul\":42418:42465   */\n      mstore\n        /* \"#utility.yul\":42482:42613   */\n      tag_857\n        /* \"#utility.yul\":42608:42612   */\n      dup2\n        /* \"#utility.yul\":42482:42613   */\n      tag_547\n      jump\t// in\n    tag_857:\n        /* \"#utility.yul\":42474:42613   */\n      swap1\n      pop\n        /* \"#utility.yul\":42201:42620   */\n      swap2\n      swap1\n      pop\n      jump\t// out\n        /* \"#utility.yul\":42626:42857   */\n    tag_548:\n        /* \"#utility.yul\":42766:42800   */\n      0x43616e6e6f7420656e6420636f6e7472616374207768696c6520646973707574\n        /* \"#utility.yul\":42762:42763   */\n      0x00\n        /* \"#utility.yul\":42754:42760   */\n      dup3\n        /* \"#utility.yul\":42750:42764   */\n      add\n        /* \"#utility.yul\":42743:42801   */\n      mstore\n        /* \"#utility.yul\":42835:42849   */\n      0x65206973206f6e676f696e670000000000000000000000000000000000000000\n        /* \"#utility.yul\":42830:42832   */\n      0x20\n        /* \"#utility.yul\":42822:42828   */\n      dup3\n        /* \"#utility.yul\":42818:42833   */\n      add\n        /* \"#utility.yul\":42811:42850   */\n      mstore\n        /* \"#utility.yul\":42626:42857   */\n      pop\n      jump\t// out\n        /* \"#utility.yul\":42863:43229   */\n    tag_549:\n        /* \"#utility.yul\":43005:43008   */\n      0x00\n        /* \"#utility.yul\":43026:43093   */\n      tag_860\n        /* \"#utility.yul\":43090:43092   */\n      0x2c\n        /* \"#utility.yul\":43085:43088   */\n      dup4\n        /* \"#utility.yul\":43026:43093   */\n      tag_475\n      jump\t// in\n    tag_860:\n        /* \"#utility.yul\":43019:43093   */\n      swap2\n      pop\n        /* \"#utility.yul\":43102:43195   */\n      tag_861\n        /* \"#utility.yul\":43191:43194   */\n      dup3\n        /* \"#utility.yul\":43102:43195   */\n      tag_548\n      jump\t// in\n    tag_861:\n        /* \"#utility.yul\":43220:43222   */\n      0x40\n        /* \"#utility.yul\":43215:43218   */\n      dup3\n        /* \"#utility.yul\":43211:43223   */\n      add\n        /* \"#utility.yul\":43204:43223   */\n      swap1\n      pop\n        /* \"#utility.yul\":42863:43229   */\n      swap2\n      swap1\n      pop\n      jump\t// out\n        /* \"#utility.yul\":43235:43654   */\n    tag_454:\n        /* \"#utility.yul\":43401:43405   */\n      0x00\n        /* \"#utility.yul\":43439:43441   */\n      0x20\n        /* \"#utility.yul\":43428:43437   */\n      dup3\n        /* \"#utility.yul\":43424:43442   */\n      add\n        /* \"#utility.yul\":43416:43442   */\n      swap1\n      pop\n        /* \"#utility.yul\":43488:43497   */\n      dup2\n        /* \"#utility.yul\":43482:43486   */\n      dup2\n        /* \"#utility.yul\":43478:43498   */\n      sub\n        /* \"#utility.yul\":43474:43475   */\n      0x00\n        /* \"#utility.yul\":43463:43472   */\n      dup4\n        /* \"#utility.yul\":43459:43476   */\n      add\n        /* \"#utility.yul\":43452:43499   */\n      mstore\n        /* \"#utility.yul\":43516:43647   */\n      tag_863\n        /* \"#utility.yul\":43642:43646   */\n      dup2\n        /* \"#utility.yul\":43516:43647   */\n      tag_549\n      jump\t// in\n    tag_863:\n        /* \"#utility.yul\":43508:43647   */\n      swap1\n      pop\n        /* \"#utility.yul\":43235:43654   */\n      swap2\n      swap1\n      pop\n      jump\t// out\n\n    auxdata: 0xa26469706673582212200ccfed208d2e51a3a3fb11e89e199537f33e0dcac9d001a27a670727d3afa33864736f6c63430008120033\n}\n",
				"bytecode": {
					"linkReferences": {},
					"object": "60806040523480156200001157600080fd5b506040516200479a3803806200479a8339818101604052810190620000379190620001bc565b336000806101000a81548173ffffffffffffffffffffffffffffffffffffffff021916908373ffffffffffffffffffffffffffffffffffffffff16021790555081600160006101000a81548173ffffffffffffffffffffffffffffffffffffffff021916908373ffffffffffffffffffffffffffffffffffffffff16021790555080600d60066101000a81548173ffffffffffffffffffffffffffffffffffffffff021916908373ffffffffffffffffffffffffffffffffffffffff1602179055506000600d60006101000a81548160ff0219169083151502179055506000600d60016101000a81548160ff0219169083151502179055506000600d60026101000a81548160ff021916908315150217905550505062000203565b600080fd5b600073ffffffffffffffffffffffffffffffffffffffff82169050919050565b6000620001848262000157565b9050919050565b620001968162000177565b8114620001a257600080fd5b50565b600081519050620001b6816200018b565b92915050565b60008060408385031215620001d657620001d562000152565b5b6000620001e685828601620001a5565b9250506020620001f985828601620001a5565b9150509250929050565b61458780620002136000396000f3fe6080604052600436106102545760003560e01c80637ef9874011610139578063d261c91f116100b6578063dd6bcb161161007a578063dd6bcb16146107bc578063e1505e4e146107d3578063eaa0a30214610813578063f13702f41461082a578063f3f4370314610855578063feeaea4e146108925761025b565b8063d261c91f146106fd578063d738307c14610728578063d96152c314610751578063dc1997ea1461077a578063dcf2559e146107a55761025b565b8063a972500f116100fd578063a972500f14610650578063b0a1e2b414610667578063c2d6d46214610692578063ca088031146106bb578063cbe615b1146106d25761025b565b80637ef987401461059c57806381d388ba146105c5578063862a4d47146105f057806387eaa3421461061b578063a709c4fe146106465761025b565b806347ed9c65116101d25780636cc6cde1116101965780636cc6cde11461049a5780636f3c590c146104c55780636f9fb98a146104f057806371357a461461051b578063740906c014610546578063779318e5146105715761025b565b806347ed9c65146103c3578063561eefd8146103ee5780635a0e9bcc146104195780636302256014610444578063697b05a21461046f5761025b565b8063220e5ab311610219578063220e5ab31461032157806322f3e2d41461034c5780632e88ab0b146103775780633ccfd60b146103a257806342c63dae146103b95761025b565b80624422eb1461026057806304a2286a1461028b57806308c59798146102b65780631890fc37146102df5780631a576049146102f65761025b565b3661025b57005b600080fd5b34801561026c57600080fd5b506102756108bd565b6040516102829190612eef565b60405180910390f35b34801561029757600080fd5b506102a06108d0565b6040516102ad9190612f23565b60405180910390f35b3480156102c257600080fd5b506102dd60048036038101906102d89190612f6f565b6108d6565b005b3480156102eb57600080fd5b506102f4610aae565b005b34801561030257600080fd5b5061030b610db3565b6040516103189190612f23565b60405180910390f35b34801561032d57600080fd5b50610336610db9565b6040516103439190612f23565b60405180910390f35b34801561035857600080fd5b50610361610dbf565b60405161036e9190612eef565b60405180910390f35b34801561038357600080fd5b5061038c610dd2565b6040516103999190612fdd565b60405180910390f35b3480156103ae57600080fd5b506103b7610df8565b005b6103c1610fc2565b005b3480156103cf57600080fd5b506103d8611199565b6040516103e59190612eef565b60405180910390f35b3480156103fa57600080fd5b506104036111ac565b6040516104109190612f23565b60405180910390f35b34801561042557600080fd5b5061042e6111b2565b60405161043b9190612eef565b60405180910390f35b34801561045057600080fd5b506104596111c5565b6040516104669190612f23565b60405180910390f35b34801561047b57600080fd5b5061048461125d565b6040516104919190612f23565b60405180910390f35b3480156104a657600080fd5b506104af611263565b6040516104bc9190613057565b60405180910390f35b3480156104d157600080fd5b506104da611289565b6040516104e79190612f23565b60405180910390f35b3480156104fc57600080fd5b5061050561128f565b6040516105129190612f23565b60405180910390f35b34801561052757600080fd5b50610530611297565b60405161053d9190612eef565b60405180910390f35b34801561055257600080fd5b5061055b6112aa565b6040516105689190612f23565b60405180910390f35b34801561057d57600080fd5b50610586611313565b6040516105939190612f23565b60405180910390f35b3480156105a857600080fd5b506105c360048036038101906105be9190612f6f565b61131d565b005b3480156105d157600080fd5b506105da6114bb565b6040516105e79190612f23565b60405180910390f35b3480156105fc57600080fd5b506106056114c1565b6040516106129190612f23565b60405180910390f35b34801561062757600080fd5b506106306114c7565b60405161063d9190612f23565b60405180910390f35b61064e6114cd565b005b34801561065c57600080fd5b50610665611899565b005b34801561067357600080fd5b5061067c6119c6565b6040516106899190612f23565b60405180910390f35b34801561069e57600080fd5b506106b960048036038101906106b49190612f6f565b6119cc565b005b3480156106c757600080fd5b506106d0611b07565b005b3480156106de57600080fd5b506106e7611d8d565b6040516106f49190612eef565b60405180910390f35b34801561070957600080fd5b50610712611da4565b60405161071f9190612f23565b60405180910390f35b34801561073457600080fd5b5061074f600480360381019061074a9190613072565b611daa565b005b34801561075d57600080fd5b50610778600480360381019061077391906130c5565b611edd565b005b34801561078657600080fd5b5061078f61254e565b60405161079c9190612fdd565b60405180910390f35b3480156107b157600080fd5b506107ba612572565b005b3480156107c857600080fd5b506107d161267f565b005b3480156107df57600080fd5b506107fa60048036038101906107f59190612f6f565b61296b565b60405161080a9493929190613105565b60405180910390f35b34801561081f57600080fd5b506108286129a8565b005b34801561083657600080fd5b5061083f612c92565b60405161084c9190612eef565b60405180910390f35b34801561086157600080fd5b5061087c60048036038101906108779190613176565b612ca5565b6040516108899190612f23565b60405180910390f35b34801561089e57600080fd5b506108a7612cbd565b6040516108b49190612f23565b60405180910390f35b600d60029054906101000a900460ff1681565b60035481565b60008054906101000a900473ffffffffffffffffffffffffffffffffffffffff1673ffffffffffffffffffffffffffffffffffffffff163373ffffffffffffffffffffffffffffffffffffffff1614610964576040517f08c379a000000000000000000000000000000000000000000000000000000000815260040161095b90613226565b60405180910390fd5b600d60039054906101000a900460ff166109b3576040517f08c379a00000000000000000000000000000000000000000000000000000000081526004016109aa90613292565b60405180910390fd5b600d60049054906101000a900460ff1615610a03576040517f08c379a00000000000000000000000000000000000000000000000000000000081526004016109fa906132fe565b60405180910390fd5b600d60009054906101000a900460ff16610a52576040517f08c379a0000000000000000000000000000000000000000000000000000000008152600401610a499061336a565b60405180910390fd5b806008819055506001600d60046101000a81548160ff0219169083151502179055507f192101de3933394fedeb636ffadd15c20b3e23e4913ab4051c171a26c90a345981604051610aa39190612f23565b60405180910390a150565b60008054906101000a900473ffffffffffffffffffffffffffffffffffffffff1673ffffffffffffffffffffffffffffffffffffffff163373ffffffffffffffffffffffffffffffffffffffff1614610b3c576040517f08c379a0000000000000000000000000000000000000000000000000000000008152600401610b33906133fc565b60405180910390fd5b600d60059054906101000a900460ff16610b8b576040517f08c379a0000000000000000000000000000000000000000000000000000000008152600401610b829061348e565b60405180910390fd5b600d60069054906101000a900473ffffffffffffffffffffffffffffffffffffffff1673ffffffffffffffffffffffffffffffffffffffff1663630225606040518163ffffffff1660e01b8152600401602060405180830381865afa158015610bf8573d6000803e3d6000fd5b505050506040513d601f19601f82011682018060405250810190610c1c91906134c3565b600c81905550600c54600b541015610c69576040517f08c379a0000000000000000000000000000000000000000000000000000000008152600401610c6090613562565b60405180910390fd5b600c54600b6000828254610c7d91906135b1565b92505081905550600d60069054906101000a900473ffffffffffffffffffffffffffffffffffffffff1673ffffffffffffffffffffffffffffffffffffffff1663f26999cd600c546008546009546040518463ffffffff1660e01b8152600401610ce89291906135e5565b60206040518083038185885af1158015610d06573d6000803e3d6000fd5b50505050506040513d601f19601f82011682018060405250810190610d2b91906134c3565b600a819055506001600d60026101000a81548160ff0219169083151502179055507f04901f83201c8724eadf084436db8aa391820bae6d11f9f78a17edb6f2eef3cf600a54604051610d7d9190612f23565b60405180910390a17fa7d8a4744bc13e083818434dde26551ea9b29c6425677ebc90cd5dd09ce6b5c760405160405180910390a1565b60085481565b60025481565b600d60009054906101000a900460ff1681565b600160009054906101000a900473ffffffffffffffffffffffffffffffffffffffff1681565b6000600f60003373ffffffffffffffffffffffffffffffffffffffff1673ffffffffffffffffffffffffffffffffffffffff16815260200190815260200160002054905060008111610e7f576040517f08c379a0000000000000000000000000000000000000000000000000000000008152600401610e769061365a565b60405180910390fd5b6000600f60003373ffffffffffffffffffffffffffffffffffffffff1673ffffffffffffffffffffffffffffffffffffffff1681526020019081526020016000208190555060003373ffffffffffffffffffffffffffffffffffffffff1682604051610eea906136ab565b60006040518083038185875af1925050503d8060008114610f27576040519150601f19603f3d011682016040523d82523d6000602084013e610f2c565b606091505b5050905080610f70576040517f08c379a0000000000000000000000000000000000000000000000000000000008152600401610f679061370c565b60405180910390fd5b3373ffffffffffffffffffffffffffffffffffffffff167f8c9a4f13b67cb64d7c6aa1ae0c9bf07694af521a28b93e7060020810ab4bc59f83604051610fb69190612f23565b60405180910390a25050565b600160009054906101000a900473ffffffffffffffffffffffffffffffffffffffff1673ffffffffffffffffffffffffffffffffffffffff163373ffffffffffffffffffffffffffffffffffffffff1614611052576040517f08c379a00000000000000000000000000000000000000000000000000000000081526004016110499061379e565b60405180910390fd5b600d60009054906101000a900460ff16156110a2576040517f08c379a00000000000000000000000000000000000000000000000000000000081526004016110999061380a565b60405180910390fd5b60025434146110e6576040517f08c379a00000000000000000000000000000000000000000000000000000000081526004016110dd9061389c565b60405180910390fd5b6001600d60016101000a81548160ff021916908315150217905550600254600b819055507f486ac935cf1ea9effd9e0a261bc42917b45f2fd45cc98def2bc34d47f216937c346040516111399190612f23565b60405180910390a16001600d60006101000a81548160ff0219169083151502179055504260058190555060016006819055507fe09eb0ac9bad92f05e0b489e6fc1d3e349861ffd8a2548182ef06278968a9bd060405160405180910390a1565b600d60059054906101000a900460ff1681565b60055481565b600d60039054906101000a900460ff1681565b6000600d60069054906101000a900473ffffffffffffffffffffffffffffffffffffffff1673ffffffffffffffffffffffffffffffffffffffff1663630225606040518163ffffffff1660e01b8152600401602060405180830381865afa158015611234573d6000803e3d6000fd5b505050506040513d601f19601f8201168201806040525081019061125891906134c3565b905090565b600c5481565b600d60069054906101000a900473ffffffffffffffffffffffffffffffffffffffff1681565b60075481565b600047905090565b600d60049054906101000a900460ff1681565b6000600f6000600160009054906101000a900473ffffffffffffffffffffffffffffffffffffffff1673ffffffffffffffffffffffffffffffffffffffff1673ffffffffffffffffffffffffffffffffffffffff16815260200190815260200160002054905090565b6000600b54905090565b60008054906101000a900473ffffffffffffffffffffffffffffffffffffffff1673ffffffffffffffffffffffffffffffffffffffff163373ffffffffffffffffffffffffffffffffffffffff16146113ab576040517f08c379a00000000000000000000000000000000000000000000000000000000081526004016113a29061392e565b60405180910390fd5b600d60009054906101000a900460ff166113fa576040517f08c379a00000000000000000000000000000000000000000000000000000000081526004016113f19061336a565b60405180910390fd5b6004546006541115611441576040517f08c379a00000000000000000000000000000000000000000000000000000000081526004016114389061399a565b60405180910390fd5b80600e6000600654815260200190815260200160002060010181905550600354600e60006006548152602001908152602001600020600001819055507ff75d23e75691b7209bf24071476b3702a8412a369b26fd3ad012d19630f65a2b600654826040516114b09291906135e5565b60405180910390a150565b60095481565b60065481565b60045481565b600160009054906101000a900473ffffffffffffffffffffffffffffffffffffffff1673ffffffffffffffffffffffffffffffffffffffff163373ffffffffffffffffffffffffffffffffffffffff161461155d576040517f08c379a000000000000000000000000000000000000000000000000000000000815260040161155490613a06565b60405180910390fd5b600d60009054906101000a900460ff166115ac576040517f08c379a00000000000000000000000000000000000000000000000000000000081526004016115a39061336a565b60405180910390fd5b60045460065411156115f3576040517f08c379a00000000000000000000000000000000000000000000000000000000081526004016115ea9061399a565b60405180910390fd5b6000600e6000600654815260200190815260200160002090508060030160009054906101000a900460ff161561165e576040517f08c379a000000000000000000000000000000000000000000000000000000000815260040161165590613a98565b60405180910390fd5b60008160010154116116a5576040517f08c379a000000000000000000000000000000000000000000000000000000000815260040161169c90613b2a565b60405180910390fd5b6000600754826001015483600001546116be9190613b4a565b6116c89190613b4a565b905080341461170c576040517f08c379a000000000000000000000000000000000000000000000000000000000815260040161170390613bca565b60405180910390fd5b60018260030160006101000a81548160ff02191690831515021790555060006007819055507fa0d112ed080c1b1a94b838ad981a23746be2a4670fd4bf157224e72cdd5dfdde600654826040516117649291906135e5565b60405180910390a180600f60008060009054906101000a900473ffffffffffffffffffffffffffffffffffffffff1673ffffffffffffffffffffffffffffffffffffffff1673ffffffffffffffffffffffffffffffffffffffff16815260200190815260200160002060008282546117dc9190613b4a565b9250508190555060008054906101000a900473ffffffffffffffffffffffffffffffffffffffff1673ffffffffffffffffffffffffffffffffffffffff167fe670e4e82118d22a1f9ee18920455ebc958bae26a90a05d31d3378788b1b0e44826040516118499190612f23565b60405180910390a26004546006540361187c576001600d60036101000a81548160ff021916908315150217905550611895565b6006600081548092919061188f90613bea565b91905055505b5050565b60008054906101000a900473ffffffffffffffffffffffffffffffffffffffff1673ffffffffffffffffffffffffffffffffffffffff163373ffffffffffffffffffffffffffffffffffffffff1614611927576040517f08c379a000000000000000000000000000000000000000000000000000000000815260040161191e90613ca4565b60405180910390fd5b600d60009054906101000a900460ff16611976576040517f08c379a000000000000000000000000000000000000000000000000000000000815260040161196d90613d10565b60405180910390fd5b6000600b54146119bb576040517f08c379a00000000000000000000000000000000000000000000000000000000081526004016119b290613da2565b60405180910390fd5b600254600b81905550565b600a5481565b600160009054906101000a900473ffffffffffffffffffffffffffffffffffffffff1673ffffffffffffffffffffffffffffffffffffffff163373ffffffffffffffffffffffffffffffffffffffff1614611a5c576040517f08c379a0000000000000000000000000000000000000000000000000000000008152600401611a5390613e34565b60405180910390fd5b600d60049054906101000a900460ff16611aab576040517f08c379a0000000000000000000000000000000000000000000000000000000008152600401611aa290613ec6565b60405180910390fd5b806009819055506001600d60056101000a81548160ff0219169083151502179055507f0f2792b28c50f2f7eece39e74a2b4f0f1ce15a79acb72dd811686e827aed030b81604051611afc9190612f23565b60405180910390a150565b600160009054906101000a900473ffffffffffffffffffffffffffffffffffffffff1673ffffffffffffffffffffffffffffffffffffffff163373ffffffffffffffffffffffffffffffffffffffff1614611b97576040517f08c379a0000000000000000000000000000000000000000000000000000000008152600401611b8e90613f58565b60405180910390fd5b600d60009054906101000a900460ff16611be6576040517f08c379a0000000000000000000000000000000000000000000000000000000008152600401611bdd9061336a565b60405180910390fd5b60045460065410611c2c576040517f08c379a0000000000000000000000000000000000000000000000000000000008152600401611c2390613fea565b60405180910390fd5b6000600e6000600654815260200190815260200160002090508060030160009054906101000a900460ff1615611c97576040517f08c379a0000000000000000000000000000000000000000000000000000000008152600401611c8e90613a98565b60405180910390fd5b6000816001015411611cde576040517f08c379a0000000000000000000000000000000000000000000000000000000008152600401611cd590613b2a565b60405180910390fd5b600081600101548260000154611cf49190613b4a565b90508060076000828254611d089190613b4a565b925050819055507f9ea3a4b65940d7b9dbf8bb1c459ba8e81222d1a596e93fbc364365a6d78e27d660065482604051611d429291906135e5565b60405180910390a160066000815480929190611d5d90613bea565b919050555060045460065403611d89576001600d60036101000a81548160ff0219169083151502179055505b5050565b6000600d60039054906101000a900460ff16905090565b600b5481565b60008054906101000a900473ffffffffffffffffffffffffffffffffffffffff1673ffffffffffffffffffffffffffffffffffffffff163373ffffffffffffffffffffffffffffffffffffffff1614611e38576040517f08c379a0000000000000000000000000000000000000000000000000000000008152600401611e2f9061407c565b60405180910390fd5b600d60009054906101000a900460ff1615611e88576040517f08c379a0000000000000000000000000000000000000000000000000000000008152600401611e7f9061380a565b60405180910390fd5b8260028190555081600381905550806004819055507f2f47566d4872826a9750e05ae448ad21f2a677c332d36d6437b697a7f8dd1e14838383604051611ed09392919061409c565b60405180910390a1505050565b600d60069054906101000a900473ffffffffffffffffffffffffffffffffffffffff1673ffffffffffffffffffffffffffffffffffffffff163373ffffffffffffffffffffffffffffffffffffffff1614611f6d576040517f08c379a0000000000000000000000000000000000000000000000000000000008152600401611f6490614145565b60405180910390fd5b600d60029054906101000a900460ff16611fbc576040517f08c379a0000000000000000000000000000000000000000000000000000000008152600401611fb3906141b1565b60405180910390fd5b600a548214612000576040517f08c379a0000000000000000000000000000000000000000000000000000000008152600401611ff79061421d565b60405180910390fd5b60006001820361202857600b546008541061201d57600b54612021565b6008545b9050612061565b6002820361204e57600b546009541061204357600b54612047565b6009545b9050612060565b6002600b5461205d919061426c565b90505b5b80600f60008060009054906101000a900473ffffffffffffffffffffffffffffffffffffffff1673ffffffffffffffffffffffffffffffffffffffff1673ffffffffffffffffffffffffffffffffffffffff16815260200190815260200160002060008282546120d19190613b4a565b9250508190555080600b546120e691906135b1565b600f6000600160009054906101000a900473ffffffffffffffffffffffffffffffffffffffff1673ffffffffffffffffffffffffffffffffffffffff1673ffffffffffffffffffffffffffffffffffffffff16815260200190815260200160002060008282546121569190613b4a565b9250508190555060006002600c5461216e919061426c565b9050600183036121f45780600f60008060009054906101000a900473ffffffffffffffffffffffffffffffffffffffff1673ffffffffffffffffffffffffffffffffffffffff1673ffffffffffffffffffffffffffffffffffffffff16815260200190815260200160002060008282546121e89190613b4a565b92505081905550612382565b600283036122795780600f6000600160009054906101000a900473ffffffffffffffffffffffffffffffffffffffff1673ffffffffffffffffffffffffffffffffffffffff1673ffffffffffffffffffffffffffffffffffffffff168152602001908152602001600020600082825461226d9190613b4a565b92505081905550612381565b600281612286919061426c565b600f60008060009054906101000a900473ffffffffffffffffffffffffffffffffffffffff1673ffffffffffffffffffffffffffffffffffffffff1673ffffffffffffffffffffffffffffffffffffffff16815260200190815260200160002060008282546122f59190613b4a565b92505081905550600281612309919061426c565b600f6000600160009054906101000a900473ffffffffffffffffffffffffffffffffffffffff1673ffffffffffffffffffffffffffffffffffffffff1673ffffffffffffffffffffffffffffffffffffffff16815260200190815260200160002060008282546123799190613b4a565b925050819055505b5b600160009054906101000a900473ffffffffffffffffffffffffffffffffffffffff1673ffffffffffffffffffffffffffffffffffffffff1660008054906101000a900473ffffffffffffffffffffffffffffffffffffffff1673ffffffffffffffffffffffffffffffffffffffff167fcc2c3f002c6146160e9eb8ade8202f88f3d01aa0fbbc98e7582f7280af10651f600f60008060009054906101000a900473ffffffffffffffffffffffffffffffffffffffff1673ffffffffffffffffffffffffffffffffffffffff1673ffffffffffffffffffffffffffffffffffffffff16815260200190815260200160002054600f6000600160009054906101000a900473ffffffffffffffffffffffffffffffffffffffff1673ffffffffffffffffffffffffffffffffffffffff1673ffffffffffffffffffffffffffffffffffffffff168152602001908152602001600020546040516124e49291906135e5565b60405180910390a36000600d60026101000a81548160ff0219169083151502179055507fb4121f1f91a696a3fc75f6d151f3c9865abffa0738bda595e71c381c02af2faa84846040516125389291906135e5565b60405180910390a1612548612d25565b50505050565b60008054906101000a900473ffffffffffffffffffffffffffffffffffffffff1681565b600160009054906101000a900473ffffffffffffffffffffffffffffffffffffffff1673ffffffffffffffffffffffffffffffffffffffff163373ffffffffffffffffffffffffffffffffffffffff1614612602576040517f08c379a00000000000000000000000000000000000000000000000000000000081526004016125f99061430f565b60405180910390fd5b600d60049054906101000a900460ff16612651576040517f08c379a000000000000000000000000000000000000000000000000000000000815260040161264890613ec6565b60405180910390fd5b7f214f96452fc3fdfd5eeafda7f5df5b6066f4f8ac1295fb53cd051491b9b56da360405160405180910390a1565b600160009054906101000a900473ffffffffffffffffffffffffffffffffffffffff1673ffffffffffffffffffffffffffffffffffffffff163373ffffffffffffffffffffffffffffffffffffffff161461270f576040517f08c379a0000000000000000000000000000000000000000000000000000000008152600401612706906143a1565b60405180910390fd5b600d60049054906101000a900460ff1661275e576040517f08c379a000000000000000000000000000000000000000000000000000000000815260040161275590613ec6565b60405180910390fd5b6000600b546008541061277357600b54612777565b6008545b905080600f60008060009054906101000a900473ffffffffffffffffffffffffffffffffffffffff1673ffffffffffffffffffffffffffffffffffffffff1673ffffffffffffffffffffffffffffffffffffffff16815260200190815260200160002060008282546127e99190613b4a565b9250508190555080600b546127fe91906135b1565b600f6000600160009054906101000a900473ffffffffffffffffffffffffffffffffffffffff1673ffffffffffffffffffffffffffffffffffffffff1673ffffffffffffffffffffffffffffffffffffffff168152602001908152602001600020600082825461286e9190613b4a565b9250508190555060008054906101000a900473ffffffffffffffffffffffffffffffffffffffff1673ffffffffffffffffffffffffffffffffffffffff167fe670e4e82118d22a1f9ee18920455ebc958bae26a90a05d31d3378788b1b0e44826040516128db9190612f23565b60405180910390a2600160009054906101000a900473ffffffffffffffffffffffffffffffffffffffff1673ffffffffffffffffffffffffffffffffffffffff167fe670e4e82118d22a1f9ee18920455ebc958bae26a90a05d31d3378788b1b0e4482600b5461294b91906135b1565b6040516129589190612f23565b60405180910390a2612968612d25565b50565b600e6020528060005260406000206000915090508060000154908060010154908060020154908060030160009054906101000a900460ff16905084565b60008054906101000a900473ffffffffffffffffffffffffffffffffffffffff1673ffffffffffffffffffffffffffffffffffffffff163373ffffffffffffffffffffffffffffffffffffffff1614612a36576040517f08c379a0000000000000000000000000000000000000000000000000000000008152600401612a2d90614433565b60405180910390fd5b600d60059054906101000a900460ff16612a85576040517f08c379a0000000000000000000000000000000000000000000000000000000008152600401612a7c9061348e565b60405180910390fd5b6000600b5460095410612a9a57600b54612a9e565b6009545b905080600f60008060009054906101000a900473ffffffffffffffffffffffffffffffffffffffff1673ffffffffffffffffffffffffffffffffffffffff1673ffffffffffffffffffffffffffffffffffffffff1681526020019081526020016000206000828254612b109190613b4a565b9250508190555080600b54612b2591906135b1565b600f6000600160009054906101000a900473ffffffffffffffffffffffffffffffffffffffff1673ffffffffffffffffffffffffffffffffffffffff1673ffffffffffffffffffffffffffffffffffffffff1681526020019081526020016000206000828254612b959190613b4a565b9250508190555060008054906101000a900473ffffffffffffffffffffffffffffffffffffffff1673ffffffffffffffffffffffffffffffffffffffff167fe670e4e82118d22a1f9ee18920455ebc958bae26a90a05d31d3378788b1b0e4482604051612c029190612f23565b60405180910390a2600160009054906101000a900473ffffffffffffffffffffffffffffffffffffffff1673ffffffffffffffffffffffffffffffffffffffff167fe670e4e82118d22a1f9ee18920455ebc958bae26a90a05d31d3378788b1b0e4482600b54612c7291906135b1565b604051612c7f9190612f23565b60405180910390a2612c8f612d25565b50565b600d60019054906101000a900460ff1681565b600f6020528060005260406000206000915090505481565b6000600f60008060009054906101000a900473ffffffffffffffffffffffffffffffffffffffff1673ffffffffffffffffffffffffffffffffffffffff1673ffffffffffffffffffffffffffffffffffffffff16815260200190815260200160002054905090565b600d60009054906101000a900460ff16612d74576040517f08c379a0000000000000000000000000000000000000000000000000000000008152600401612d6b9061336a565b60405180910390fd5b600d60039054906101000a900460ff16612dc3576040517f08c379a0000000000000000000000000000000000000000000000000000000008152600401612dba9061449f565b60405180910390fd5b600d60029054906101000a900460ff1615612e13576040517f08c379a0000000000000000000000000000000000000000000000000000000008152600401612e0a90614531565b60405180910390fd5b6000600d60006101000a81548160ff021916908315150217905550600060075490507fc0590c5a8ce79dffbdde17480a06203778f954965615e1d9577dbc90da2ff109600b5482604051612e689291906135e5565b60405180910390a16000600b8190555060006007819055506000600d60036101000a81548160ff0219169083151502179055506000600d60046101000a81548160ff0219169083151502179055506000600d60056101000a81548160ff02191690831515021790555050565b60008115159050919050565b612ee981612ed4565b82525050565b6000602082019050612f046000830184612ee0565b92915050565b6000819050919050565b612f1d81612f0a565b82525050565b6000602082019050612f386000830184612f14565b92915050565b600080fd5b612f4c81612f0a565b8114612f5757600080fd5b50565b600081359050612f6981612f43565b92915050565b600060208284031215612f8557612f84612f3e565b5b6000612f9384828501612f5a565b91505092915050565b600073ffffffffffffffffffffffffffffffffffffffff82169050919050565b6000612fc782612f9c565b9050919050565b612fd781612fbc565b82525050565b6000602082019050612ff26000830184612fce565b92915050565b6000819050919050565b600061301d61301861301384612f9c565b612ff8565b612f9c565b9050919050565b600061302f82613002565b9050919050565b600061304182613024565b9050919050565b61305181613036565b82525050565b600060208201905061306c6000830184613048565b92915050565b60008060006060848603121561308b5761308a612f3e565b5b600061309986828701612f5a565b93505060206130aa86828701612f5a565b92505060406130bb86828701612f5a565b9150509250925092565b600080604083850312156130dc576130db612f3e565b5b60006130ea85828601612f5a565b92505060206130fb85828601612f5a565b9150509250929050565b600060808201905061311a6000830187612f14565b6131276020830186612f14565b6131346040830185612f14565b6131416060830184612ee0565b95945050505050565b61315381612fbc565b811461315e57600080fd5b50565b6000813590506131708161314a565b92915050565b60006020828403121561318c5761318b612f3e565b5b600061319a84828501613161565b91505092915050565b600082825260208201905092915050565b7f4f6e6c79206c616e646c6f72642063616e20736574207468652064616d61676560008201527f20657374696d6174650000000000000000000000000000000000000000000000602082015250565b60006132106029836131a3565b915061321b826131b4565b604082019050919050565b6000602082019050818103600083015261323f81613203565b9050919050565b7f52656e7420706572696f6420686173206e6f7420656e64656420796574000000600082015250565b600061327c601d836131a3565b915061328782613246565b602082019050919050565b600060208201905081810360008301526132ab8161326f565b9050919050565b7f44616d61676520657374696d61746520616c7265616479207365740000000000600082015250565b60006132e8601b836131a3565b91506132f3826132b2565b602082019050919050565b60006020820190508181036000830152613317816132db565b9050919050565b7f436f6e7472616374206973206e6f742061637469766500000000000000000000600082015250565b60006133546016836131a3565b915061335f8261331e565b602082019050919050565b6000602082019050818103600083015261338381613347565b9050919050565b7f4f6e6c79206c616e646c6f72642063616e2072656a6563742074686520636f7560008201527f6e74657220657374696d61746500000000000000000000000000000000000000602082015250565b60006133e6602d836131a3565b91506133f18261338a565b604082019050919050565b60006020820190508181036000830152613415816133d9565b9050919050565b7f52656e746572206d7573742073657420636f756e74657220657374696d61746560008201527f2066697273740000000000000000000000000000000000000000000000000000602082015250565b60006134786026836131a3565b91506134838261341c565b604082019050919050565b600060208201905081810360008301526134a78161346b565b9050919050565b6000815190506134bd81612f43565b92915050565b6000602082840312156134d9576134d8612f3e565b5b60006134e7848285016134ae565b91505092915050565b7f5365637572697479206465706f73697420696e73756666696369656e7420746f60008201527f20636f766572206172626974726174696f6e20636f7374730000000000000000602082015250565b600061354c6038836131a3565b9150613557826134f0565b604082019050919050565b6000602082019050818103600083015261357b8161353f565b9050919050565b7f4e487b7100000000000000000000000000000000000000000000000000000000600052601160045260246000fd5b60006135bc82612f0a565b91506135c783612f0a565b92508282039050818111156135df576135de613582565b5b92915050565b60006040820190506135fa6000830185612f14565b6136076020830184612f14565b9392505050565b7f4e6f2066756e647320746f207769746864726177000000000000000000000000600082015250565b60006136446014836131a3565b915061364f8261360e565b602082019050919050565b6000602082019050818103600083015261367381613637565b9050919050565b600081905092915050565b50565b600061369560008361367a565b91506136a082613685565b600082019050919050565b60006136b682613688565b9150819050919050565b7f5472616e73666572206661696c65640000000000000000000000000000000000600082015250565b60006136f6600f836131a3565b9150613701826136c0565b602082019050919050565b60006020820190508181036000830152613725816136e9565b9050919050565b7f4f6e6c792072656e7465722063616e207061792073656375726974792064657060008201527f6f73697400000000000000000000000000000000000000000000000000000000602082015250565b60006137886024836131a3565b91506137938261372c565b604082019050919050565b600060208201905081810360008301526137b78161377b565b9050919050565b7f436f6e747261637420697320616c726561647920616374697665000000000000600082015250565b60006137f4601a836131a3565b91506137ff826137be565b602082019050919050565b60006020820190508181036000830152613823816137e7565b9050919050565b7f496e636f7272656374207365637572697479206465706f73697420616d6f756e60008201527f7400000000000000000000000000000000000000000000000000000000000000602082015250565b60006138866021836131a3565b91506138918261382a565b604082019050919050565b600060208201905081810360008301526138b581613879565b9050919050565b7f4f6e6c79206c616e646c6f72642063616e207265636f7264207574696c69746960008201527f6573000000000000000000000000000000000000000000000000000000000000602082015250565b60006139186022836131a3565b9150613923826138bc565b604082019050919050565b600060208201905081810360008301526139478161390b565b9050919050565b7f52656e7420706572696f642068617320656e6465640000000000000000000000600082015250565b60006139846015836131a3565b915061398f8261394e565b602082019050919050565b600060208201905081810360008301526139b381613977565b9050919050565b7f4f6e6c792072656e7465722063616e207061792072656e740000000000000000600082015250565b60006139f06018836131a3565b91506139fb826139ba565b602082019050919050565b60006020820190508181036000830152613a1f816139e3565b9050919050565b7f52656e7420666f722074686973206d6f6e74682068617320616c72656164792060008201527f6265656e20706169640000000000000000000000000000000000000000000000602082015250565b6000613a826029836131a3565b9150613a8d82613a26565b604082019050919050565b60006020820190508181036000830152613ab181613a75565b9050919050565b7f5574696c697469657320666f722074686973206d6f6e74682068617665206e6f60008201527f74206265656e207265636f726465640000000000000000000000000000000000602082015250565b6000613b14602f836131a3565b9150613b1f82613ab8565b604082019050919050565b60006020820190508181036000830152613b4381613b07565b9050919050565b6000613b5582612f0a565b9150613b6083612f0a565b9250828201905080821115613b7857613b77613582565b5b92915050565b7f496e636f72726563742072656e7420616d6f756e740000000000000000000000600082015250565b6000613bb46015836131a3565b9150613bbf82613b7e565b602082019050919050565b60006020820190508181036000830152613be381613ba7565b9050919050565b6000613bf582612f0a565b91507fffffffffffffffffffffffffffffffffffffffffffffffffffffffffffffffff8203613c2757613c26613582565b5b600182019050919050565b7f4f6e6c79206c616e646c6f72642063616e20696e697469616c697a652063757260008201527f72656e74207365637572697479206465706f7369740000000000000000000000602082015250565b6000613c8e6035836131a3565b9150613c9982613c32565b604082019050919050565b60006020820190508181036000830152613cbd81613c81565b9050919050565b7f436f6e7472616374206d75737420626520616374697665000000000000000000600082015250565b6000613cfa6017836131a3565b9150613d0582613cc4565b602082019050919050565b60006020820190508181036000830152613d2981613ced565b9050919050565b7f43757272656e74207365637572697479206465706f73697420616c726561647960008201527f20696e697469616c697a65640000000000000000000000000000000000000000602082015250565b6000613d8c602c836131a3565b9150613d9782613d30565b604082019050919050565b60006020820190508181036000830152613dbb81613d7f565b9050919050565b7f4f6e6c792072656e7465722063616e207365742074686520636f756e7465722060008201527f657374696d617465000000000000000000000000000000000000000000000000602082015250565b6000613e1e6028836131a3565b9150613e2982613dc2565b604082019050919050565b60006020820190508181036000830152613e4d81613e11565b9050919050565b7f4c616e646c6f7264206d757374207365742064616d61676520657374696d617460008201527f6520666972737400000000000000000000000000000000000000000000000000602082015250565b6000613eb06027836131a3565b9150613ebb82613e54565b604082019050919050565b60006020820190508181036000830152613edf81613ea3565b9050919050565b7f4f6e6c792072656e7465722063616e20736b69702072656e74207061796d656e60008201527f7400000000000000000000000000000000000000000000000000000000000000602082015250565b6000613f426021836131a3565b9150613f4d82613ee6565b604082019050919050565b60006020820190508181036000830152613f7181613f35565b9050919050565b7f43616e6e6f7420736b69702072656e7420666f7220746865206c617374206d6f60008201527f6e74680000000000000000000000000000000000000000000000000000000000602082015250565b6000613fd46023836131a3565b9150613fdf82613f78565b604082019050919050565b6000602082019050818103600083015261400381613fc7565b9050919050565b7f4f6e6c79206c616e646c6f72642063616e207365742061677265656d656e742060008201527f7465726d73000000000000000000000000000000000000000000000000000000602082015250565b60006140666025836131a3565b91506140718261400a565b604082019050919050565b6000602082019050818103600083015261409581614059565b9050919050565b60006060820190506140b16000830186612f14565b6140be6020830185612f14565b6140cb6040830184612f14565b949350505050565b7f4f6e6c79207468652061726269747261746f722063616e20657865637574652060008201527f72756c696e670000000000000000000000000000000000000000000000000000602082015250565b600061412f6026836131a3565b915061413a826140d3565b604082019050919050565b6000602082019050818103600083015261415e81614122565b9050919050565b7f4e6f206469737075746520746f2072756c65206f6e0000000000000000000000600082015250565b600061419b6015836131a3565b91506141a682614165565b602082019050919050565b600060208201905081810360008301526141ca8161418e565b9050919050565b7f57726f6e67206469737075746520494400000000000000000000000000000000600082015250565b60006142076010836131a3565b9150614212826141d1565b602082019050919050565b60006020820190508181036000830152614236816141fa565b9050919050565b7f4e487b7100000000000000000000000000000000000000000000000000000000600052601260045260246000fd5b600061427782612f0a565b915061428283612f0a565b9250826142925761429161423d565b5b828204905092915050565b7f4f6e6c792072656e7465722063616e2072656a6563742074686520657374696d60008201527f6174650000000000000000000000000000000000000000000000000000000000602082015250565b60006142f96023836131a3565b91506143048261429d565b604082019050919050565b60006020820190508181036000830152614328816142ec565b9050919050565b7f4f6e6c792072656e7465722063616e206163636570742074686520657374696d60008201527f6174650000000000000000000000000000000000000000000000000000000000602082015250565b600061438b6023836131a3565b91506143968261432f565b604082019050919050565b600060208201905081810360008301526143ba8161437e565b9050919050565b7f4f6e6c79206c616e646c6f72642063616e206163636570742074686520636f7560008201527f6e74657220657374696d61746500000000000000000000000000000000000000602082015250565b600061441d602d836131a3565b9150614428826143c1565b604082019050919050565b6000602082019050818103600083015261444c81614410565b9050919050565b7f52656e74616c20706572696f6420686173206e6f7420656e6465642079657400600082015250565b6000614489601f836131a3565b915061449482614453565b602082019050919050565b600060208201905081810360008301526144b88161447c565b9050919050565b7f43616e6e6f7420656e6420636f6e7472616374207768696c652064697370757460008201527f65206973206f6e676f696e670000000000000000000000000000000000000000602082015250565b600061451b602c836131a3565b9150614526826144bf565b604082019050919050565b6000602082019050818103600083015261454a8161450e565b905091905056fea26469706673582212200ccfed208d2e51a3a3fb11e89e199537f33e0dcac9d001a27a670727d3afa33864736f6c63430008120033",
					"opcodes": "PUSH1 0x80 PUSH1 0x40 MSTORE CALLVALUE DUP1 ISZERO PUSH3 0x11 JUMPI PUSH1 0x0 DUP1 REVERT JUMPDEST POP PUSH1 0x40 MLOAD PUSH3 0x479A CODESIZE SUB DUP1 PUSH3 0x479A DUP4 CODECOPY DUP2 DUP2 ADD PUSH1 0x40 MSTORE DUP2 ADD SWAP1 PUSH3 0x37 SWAP2 SWAP1 PUSH3 0x1BC JUMP JUMPDEST CALLER PUSH1 0x0 DUP1 PUSH2 0x100 EXP DUP2 SLOAD DUP2 PUSH20 0xFFFFFFFFFFFFFFFFFFFFFFFFFFFFFFFFFFFFFFFF MUL NOT AND SWAP1 DUP4 PUSH20 0xFFFFFFFFFFFFFFFFFFFFFFFFFFFFFFFFFFFFFFFF AND MUL OR SWAP1 SSTORE POP DUP2 PUSH1 0x1 PUSH1 0x0 PUSH2 0x100 EXP DUP2 SLOAD DUP2 PUSH20 0xFFFFFFFFFFFFFFFFFFFFFFFFFFFFFFFFFFFFFFFF MUL NOT AND SWAP1 DUP4 PUSH20 0xFFFFFFFFFFFFFFFFFFFFFFFFFFFFFFFFFFFFFFFF AND MUL OR SWAP1 SSTORE POP DUP1 PUSH1 0xD PUSH1 0x6 PUSH2 0x100 EXP DUP2 SLOAD DUP2 PUSH20 0xFFFFFFFFFFFFFFFFFFFFFFFFFFFFFFFFFFFFFFFF MUL NOT AND SWAP1 DUP4 PUSH20 0xFFFFFFFFFFFFFFFFFFFFFFFFFFFFFFFFFFFFFFFF AND MUL OR SWAP1 SSTORE POP PUSH1 0x0 PUSH1 0xD PUSH1 0x0 PUSH2 0x100 EXP DUP2 SLOAD DUP2 PUSH1 0xFF MUL NOT AND SWAP1 DUP4 ISZERO ISZERO MUL OR SWAP1 SSTORE POP PUSH1 0x0 PUSH1 0xD PUSH1 0x1 PUSH2 0x100 EXP DUP2 SLOAD DUP2 PUSH1 0xFF MUL NOT AND SWAP1 DUP4 ISZERO ISZERO MUL OR SWAP1 SSTORE POP PUSH1 0x0 PUSH1 0xD PUSH1 0x2 PUSH2 0x100 EXP DUP2 SLOAD DUP2 PUSH1 0xFF MUL NOT AND SWAP1 DUP4 ISZERO ISZERO MUL OR SWAP1 SSTORE POP POP POP PUSH3 0x203 JUMP JUMPDEST PUSH1 0x0 DUP1 REVERT JUMPDEST PUSH1 0x0 PUSH20 0xFFFFFFFFFFFFFFFFFFFFFFFFFFFFFFFFFFFFFFFF DUP3 AND SWAP1 POP SWAP2 SWAP1 POP JUMP JUMPDEST PUSH1 0x0 PUSH3 0x184 DUP3 PUSH3 0x157 JUMP JUMPDEST SWAP1 POP SWAP2 SWAP1 POP JUMP JUMPDEST PUSH3 0x196 DUP2 PUSH3 0x177 JUMP JUMPDEST DUP2 EQ PUSH3 0x1A2 JUMPI PUSH1 0x0 DUP1 REVERT JUMPDEST POP JUMP JUMPDEST PUSH1 0x0 DUP2 MLOAD SWAP1 POP PUSH3 0x1B6 DUP2 PUSH3 0x18B JUMP JUMPDEST SWAP3 SWAP2 POP POP JUMP JUMPDEST PUSH1 0x0 DUP1 PUSH1 0x40 DUP4 DUP6 SUB SLT ISZERO PUSH3 0x1D6 JUMPI PUSH3 0x1D5 PUSH3 0x152 JUMP JUMPDEST JUMPDEST PUSH1 0x0 PUSH3 0x1E6 DUP6 DUP3 DUP7 ADD PUSH3 0x1A5 JUMP JUMPDEST SWAP3 POP POP PUSH1 0x20 PUSH3 0x1F9 DUP6 DUP3 DUP7 ADD PUSH3 0x1A5 JUMP JUMPDEST SWAP2 POP POP SWAP3 POP SWAP3 SWAP1 POP JUMP JUMPDEST PUSH2 0x4587 DUP1 PUSH3 0x213 PUSH1 0x0 CODECOPY PUSH1 0x0 RETURN INVALID PUSH1 0x80 PUSH1 0x40 MSTORE PUSH1 0x4 CALLDATASIZE LT PUSH2 0x254 JUMPI PUSH1 0x0 CALLDATALOAD PUSH1 0xE0 SHR DUP1 PUSH4 0x7EF98740 GT PUSH2 0x139 JUMPI DUP1 PUSH4 0xD261C91F GT PUSH2 0xB6 JUMPI DUP1 PUSH4 0xDD6BCB16 GT PUSH2 0x7A JUMPI DUP1 PUSH4 0xDD6BCB16 EQ PUSH2 0x7BC JUMPI DUP1 PUSH4 0xE1505E4E EQ PUSH2 0x7D3 JUMPI DUP1 PUSH4 0xEAA0A302 EQ PUSH2 0x813 JUMPI DUP1 PUSH4 0xF13702F4 EQ PUSH2 0x82A JUMPI DUP1 PUSH4 0xF3F43703 EQ PUSH2 0x855 JUMPI DUP1 PUSH4 0xFEEAEA4E EQ PUSH2 0x892 JUMPI PUSH2 0x25B JUMP JUMPDEST DUP1 PUSH4 0xD261C91F EQ PUSH2 0x6FD JUMPI DUP1 PUSH4 0xD738307C EQ PUSH2 0x728 JUMPI DUP1 PUSH4 0xD96152C3 EQ PUSH2 0x751 JUMPI DUP1 PUSH4 0xDC1997EA EQ PUSH2 0x77A JUMPI DUP1 PUSH4 0xDCF2559E EQ PUSH2 0x7A5 JUMPI PUSH2 0x25B JUMP JUMPDEST DUP1 PUSH4 0xA972500F GT PUSH2 0xFD JUMPI DUP1 PUSH4 0xA972500F EQ PUSH2 0x650 JUMPI DUP1 PUSH4 0xB0A1E2B4 EQ PUSH2 0x667 JUMPI DUP1 PUSH4 0xC2D6D462 EQ PUSH2 0x692 JUMPI DUP1 PUSH4 0xCA088031 EQ PUSH2 0x6BB JUMPI DUP1 PUSH4 0xCBE615B1 EQ PUSH2 0x6D2 JUMPI PUSH2 0x25B JUMP JUMPDEST DUP1 PUSH4 0x7EF98740 EQ PUSH2 0x59C JUMPI DUP1 PUSH4 0x81D388BA EQ PUSH2 0x5C5 JUMPI DUP1 PUSH4 0x862A4D47 EQ PUSH2 0x5F0 JUMPI DUP1 PUSH4 0x87EAA342 EQ PUSH2 0x61B JUMPI DUP1 PUSH4 0xA709C4FE EQ PUSH2 0x646 JUMPI PUSH2 0x25B JUMP JUMPDEST DUP1 PUSH4 0x47ED9C65 GT PUSH2 0x1D2 JUMPI DUP1 PUSH4 0x6CC6CDE1 GT PUSH2 0x196 JUMPI DUP1 PUSH4 0x6CC6CDE1 EQ PUSH2 0x49A JUMPI DUP1 PUSH4 0x6F3C590C EQ PUSH2 0x4C5 JUMPI DUP1 PUSH4 0x6F9FB98A EQ PUSH2 0x4F0 JUMPI DUP1 PUSH4 0x71357A46 EQ PUSH2 0x51B JUMPI DUP1 PUSH4 0x740906C0 EQ PUSH2 0x546 JUMPI DUP1 PUSH4 0x779318E5 EQ PUSH2 0x571 JUMPI PUSH2 0x25B JUMP JUMPDEST DUP1 PUSH4 0x47ED9C65 EQ PUSH2 0x3C3 JUMPI DUP1 PUSH4 0x561EEFD8 EQ PUSH2 0x3EE JUMPI DUP1 PUSH4 0x5A0E9BCC EQ PUSH2 0x419 JUMPI DUP1 PUSH4 0x63022560 EQ PUSH2 0x444 JUMPI DUP1 PUSH4 0x697B05A2 EQ PUSH2 0x46F JUMPI PUSH2 0x25B JUMP JUMPDEST DUP1 PUSH4 0x220E5AB3 GT PUSH2 0x219 JUMPI DUP1 PUSH4 0x220E5AB3 EQ PUSH2 0x321 JUMPI DUP1 PUSH4 0x22F3E2D4 EQ PUSH2 0x34C JUMPI DUP1 PUSH4 0x2E88AB0B EQ PUSH2 0x377 JUMPI DUP1 PUSH4 0x3CCFD60B EQ PUSH2 0x3A2 JUMPI DUP1 PUSH4 0x42C63DAE EQ PUSH2 0x3B9 JUMPI PUSH2 0x25B JUMP JUMPDEST DUP1 PUSH3 0x4422EB EQ PUSH2 0x260 JUMPI DUP1 PUSH4 0x4A2286A EQ PUSH2 0x28B JUMPI DUP1 PUSH4 0x8C59798 EQ PUSH2 0x2B6 JUMPI DUP1 PUSH4 0x1890FC37 EQ PUSH2 0x2DF JUMPI DUP1 PUSH4 0x1A576049 EQ PUSH2 0x2F6 JUMPI PUSH2 0x25B JUMP JUMPDEST CALLDATASIZE PUSH2 0x25B JUMPI STOP JUMPDEST PUSH1 0x0 DUP1 REVERT JUMPDEST CALLVALUE DUP1 ISZERO PUSH2 0x26C JUMPI PUSH1 0x0 DUP1 REVERT JUMPDEST POP PUSH2 0x275 PUSH2 0x8BD JUMP JUMPDEST PUSH1 0x40 MLOAD PUSH2 0x282 SWAP2 SWAP1 PUSH2 0x2EEF JUMP JUMPDEST PUSH1 0x40 MLOAD DUP1 SWAP2 SUB SWAP1 RETURN JUMPDEST CALLVALUE DUP1 ISZERO PUSH2 0x297 JUMPI PUSH1 0x0 DUP1 REVERT JUMPDEST POP PUSH2 0x2A0 PUSH2 0x8D0 JUMP JUMPDEST PUSH1 0x40 MLOAD PUSH2 0x2AD SWAP2 SWAP1 PUSH2 0x2F23 JUMP JUMPDEST PUSH1 0x40 MLOAD DUP1 SWAP2 SUB SWAP1 RETURN JUMPDEST CALLVALUE DUP1 ISZERO PUSH2 0x2C2 JUMPI PUSH1 0x0 DUP1 REVERT JUMPDEST POP PUSH2 0x2DD PUSH1 0x4 DUP1 CALLDATASIZE SUB DUP2 ADD SWAP1 PUSH2 0x2D8 SWAP2 SWAP1 PUSH2 0x2F6F JUMP JUMPDEST PUSH2 0x8D6 JUMP JUMPDEST STOP JUMPDEST CALLVALUE DUP1 ISZERO PUSH2 0x2EB JUMPI PUSH1 0x0 DUP1 REVERT JUMPDEST POP PUSH2 0x2F4 PUSH2 0xAAE JUMP JUMPDEST STOP JUMPDEST CALLVALUE DUP1 ISZERO PUSH2 0x302 JUMPI PUSH1 0x0 DUP1 REVERT JUMPDEST POP PUSH2 0x30B PUSH2 0xDB3 JUMP JUMPDEST PUSH1 0x40 MLOAD PUSH2 0x318 SWAP2 SWAP1 PUSH2 0x2F23 JUMP JUMPDEST PUSH1 0x40 MLOAD DUP1 SWAP2 SUB SWAP1 RETURN JUMPDEST CALLVALUE DUP1 ISZERO PUSH2 0x32D JUMPI PUSH1 0x0 DUP1 REVERT JUMPDEST POP PUSH2 0x336 PUSH2 0xDB9 JUMP JUMPDEST PUSH1 0x40 MLOAD PUSH2 0x343 SWAP2 SWAP1 PUSH2 0x2F23 JUMP JUMPDEST PUSH1 0x40 MLOAD DUP1 SWAP2 SUB SWAP1 RETURN JUMPDEST CALLVALUE DUP1 ISZERO PUSH2 0x358 JUMPI PUSH1 0x0 DUP1 REVERT JUMPDEST POP PUSH2 0x361 PUSH2 0xDBF JUMP JUMPDEST PUSH1 0x40 MLOAD PUSH2 0x36E SWAP2 SWAP1 PUSH2 0x2EEF JUMP JUMPDEST PUSH1 0x40 MLOAD DUP1 SWAP2 SUB SWAP1 RETURN JUMPDEST CALLVALUE DUP1 ISZERO PUSH2 0x383 JUMPI PUSH1 0x0 DUP1 REVERT JUMPDEST POP PUSH2 0x38C PUSH2 0xDD2 JUMP JUMPDEST PUSH1 0x40 MLOAD PUSH2 0x399 SWAP2 SWAP1 PUSH2 0x2FDD JUMP JUMPDEST PUSH1 0x40 MLOAD DUP1 SWAP2 SUB SWAP1 RETURN JUMPDEST CALLVALUE DUP1 ISZERO PUSH2 0x3AE JUMPI PUSH1 0x0 DUP1 REVERT JUMPDEST POP PUSH2 0x3B7 PUSH2 0xDF8 JUMP JUMPDEST STOP JUMPDEST PUSH2 0x3C1 PUSH2 0xFC2 JUMP JUMPDEST STOP JUMPDEST CALLVALUE DUP1 ISZERO PUSH2 0x3CF JUMPI PUSH1 0x0 DUP1 REVERT JUMPDEST POP PUSH2 0x3D8 PUSH2 0x1199 JUMP JUMPDEST PUSH1 0x40 MLOAD PUSH2 0x3E5 SWAP2 SWAP1 PUSH2 0x2EEF JUMP JUMPDEST PUSH1 0x40 MLOAD DUP1 SWAP2 SUB SWAP1 RETURN JUMPDEST CALLVALUE DUP1 ISZERO PUSH2 0x3FA JUMPI PUSH1 0x0 DUP1 REVERT JUMPDEST POP PUSH2 0x403 PUSH2 0x11AC JUMP JUMPDEST PUSH1 0x40 MLOAD PUSH2 0x410 SWAP2 SWAP1 PUSH2 0x2F23 JUMP JUMPDEST PUSH1 0x40 MLOAD DUP1 SWAP2 SUB SWAP1 RETURN JUMPDEST CALLVALUE DUP1 ISZERO PUSH2 0x425 JUMPI PUSH1 0x0 DUP1 REVERT JUMPDEST POP PUSH2 0x42E PUSH2 0x11B2 JUMP JUMPDEST PUSH1 0x40 MLOAD PUSH2 0x43B SWAP2 SWAP1 PUSH2 0x2EEF JUMP JUMPDEST PUSH1 0x40 MLOAD DUP1 SWAP2 SUB SWAP1 RETURN JUMPDEST CALLVALUE DUP1 ISZERO PUSH2 0x450 JUMPI PUSH1 0x0 DUP1 REVERT JUMPDEST POP PUSH2 0x459 PUSH2 0x11C5 JUMP JUMPDEST PUSH1 0x40 MLOAD PUSH2 0x466 SWAP2 SWAP1 PUSH2 0x2F23 JUMP JUMPDEST PUSH1 0x40 MLOAD DUP1 SWAP2 SUB SWAP1 RETURN JUMPDEST CALLVALUE DUP1 ISZERO PUSH2 0x47B JUMPI PUSH1 0x0 DUP1 REVERT JUMPDEST POP PUSH2 0x484 PUSH2 0x125D JUMP JUMPDEST PUSH1 0x40 MLOAD PUSH2 0x491 SWAP2 SWAP1 PUSH2 0x2F23 JUMP JUMPDEST PUSH1 0x40 MLOAD DUP1 SWAP2 SUB SWAP1 RETURN JUMPDEST CALLVALUE DUP1 ISZERO PUSH2 0x4A6 JUMPI PUSH1 0x0 DUP1 REVERT JUMPDEST POP PUSH2 0x4AF PUSH2 0x1263 JUMP JUMPDEST PUSH1 0x40 MLOAD PUSH2 0x4BC SWAP2 SWAP1 PUSH2 0x3057 JUMP JUMPDEST PUSH1 0x40 MLOAD DUP1 SWAP2 SUB SWAP1 RETURN JUMPDEST CALLVALUE DUP1 ISZERO PUSH2 0x4D1 JUMPI PUSH1 0x0 DUP1 REVERT JUMPDEST POP PUSH2 0x4DA PUSH2 0x1289 JUMP JUMPDEST PUSH1 0x40 MLOAD PUSH2 0x4E7 SWAP2 SWAP1 PUSH2 0x2F23 JUMP JUMPDEST PUSH1 0x40 MLOAD DUP1 SWAP2 SUB SWAP1 RETURN JUMPDEST CALLVALUE DUP1 ISZERO PUSH2 0x4FC JUMPI PUSH1 0x0 DUP1 REVERT JUMPDEST POP PUSH2 0x505 PUSH2 0x128F JUMP JUMPDEST PUSH1 0x40 MLOAD PUSH2 0x512 SWAP2 SWAP1 PUSH2 0x2F23 JUMP JUMPDEST PUSH1 0x40 MLOAD DUP1 SWAP2 SUB SWAP1 RETURN JUMPDEST CALLVALUE DUP1 ISZERO PUSH2 0x527 JUMPI PUSH1 0x0 DUP1 REVERT JUMPDEST POP PUSH2 0x530 PUSH2 0x1297 JUMP JUMPDEST PUSH1 0x40 MLOAD PUSH2 0x53D SWAP2 SWAP1 PUSH2 0x2EEF JUMP JUMPDEST PUSH1 0x40 MLOAD DUP1 SWAP2 SUB SWAP1 RETURN JUMPDEST CALLVALUE DUP1 ISZERO PUSH2 0x552 JUMPI PUSH1 0x0 DUP1 REVERT JUMPDEST POP PUSH2 0x55B PUSH2 0x12AA JUMP JUMPDEST PUSH1 0x40 MLOAD PUSH2 0x568 SWAP2 SWAP1 PUSH2 0x2F23 JUMP JUMPDEST PUSH1 0x40 MLOAD DUP1 SWAP2 SUB SWAP1 RETURN JUMPDEST CALLVALUE DUP1 ISZERO PUSH2 0x57D JUMPI PUSH1 0x0 DUP1 REVERT JUMPDEST POP PUSH2 0x586 PUSH2 0x1313 JUMP JUMPDEST PUSH1 0x40 MLOAD PUSH2 0x593 SWAP2 SWAP1 PUSH2 0x2F23 JUMP JUMPDEST PUSH1 0x40 MLOAD DUP1 SWAP2 SUB SWAP1 RETURN JUMPDEST CALLVALUE DUP1 ISZERO PUSH2 0x5A8 JUMPI PUSH1 0x0 DUP1 REVERT JUMPDEST POP PUSH2 0x5C3 PUSH1 0x4 DUP1 CALLDATASIZE SUB DUP2 ADD SWAP1 PUSH2 0x5BE SWAP2 SWAP1 PUSH2 0x2F6F JUMP JUMPDEST PUSH2 0x131D JUMP JUMPDEST STOP JUMPDEST CALLVALUE DUP1 ISZERO PUSH2 0x5D1 JUMPI PUSH1 0x0 DUP1 REVERT JUMPDEST POP PUSH2 0x5DA PUSH2 0x14BB JUMP JUMPDEST PUSH1 0x40 MLOAD PUSH2 0x5E7 SWAP2 SWAP1 PUSH2 0x2F23 JUMP JUMPDEST PUSH1 0x40 MLOAD DUP1 SWAP2 SUB SWAP1 RETURN JUMPDEST CALLVALUE DUP1 ISZERO PUSH2 0x5FC JUMPI PUSH1 0x0 DUP1 REVERT JUMPDEST POP PUSH2 0x605 PUSH2 0x14C1 JUMP JUMPDEST PUSH1 0x40 MLOAD PUSH2 0x612 SWAP2 SWAP1 PUSH2 0x2F23 JUMP JUMPDEST PUSH1 0x40 MLOAD DUP1 SWAP2 SUB SWAP1 RETURN JUMPDEST CALLVALUE DUP1 ISZERO PUSH2 0x627 JUMPI PUSH1 0x0 DUP1 REVERT JUMPDEST POP PUSH2 0x630 PUSH2 0x14C7 JUMP JUMPDEST PUSH1 0x40 MLOAD PUSH2 0x63D SWAP2 SWAP1 PUSH2 0x2F23 JUMP JUMPDEST PUSH1 0x40 MLOAD DUP1 SWAP2 SUB SWAP1 RETURN JUMPDEST PUSH2 0x64E PUSH2 0x14CD JUMP JUMPDEST STOP JUMPDEST CALLVALUE DUP1 ISZERO PUSH2 0x65C JUMPI PUSH1 0x0 DUP1 REVERT JUMPDEST POP PUSH2 0x665 PUSH2 0x1899 JUMP JUMPDEST STOP JUMPDEST CALLVALUE DUP1 ISZERO PUSH2 0x673 JUMPI PUSH1 0x0 DUP1 REVERT JUMPDEST POP PUSH2 0x67C PUSH2 0x19C6 JUMP JUMPDEST PUSH1 0x40 MLOAD PUSH2 0x689 SWAP2 SWAP1 PUSH2 0x2F23 JUMP JUMPDEST PUSH1 0x40 MLOAD DUP1 SWAP2 SUB SWAP1 RETURN JUMPDEST CALLVALUE DUP1 ISZERO PUSH2 0x69E JUMPI PUSH1 0x0 DUP1 REVERT JUMPDEST POP PUSH2 0x6B9 PUSH1 0x4 DUP1 CALLDATASIZE SUB DUP2 ADD SWAP1 PUSH2 0x6B4 SWAP2 SWAP1 PUSH2 0x2F6F JUMP JUMPDEST PUSH2 0x19CC JUMP JUMPDEST STOP JUMPDEST CALLVALUE DUP1 ISZERO PUSH2 0x6C7 JUMPI PUSH1 0x0 DUP1 REVERT JUMPDEST POP PUSH2 0x6D0 PUSH2 0x1B07 JUMP JUMPDEST STOP JUMPDEST CALLVALUE DUP1 ISZERO PUSH2 0x6DE JUMPI PUSH1 0x0 DUP1 REVERT JUMPDEST POP PUSH2 0x6E7 PUSH2 0x1D8D JUMP JUMPDEST PUSH1 0x40 MLOAD PUSH2 0x6F4 SWAP2 SWAP1 PUSH2 0x2EEF JUMP JUMPDEST PUSH1 0x40 MLOAD DUP1 SWAP2 SUB SWAP1 RETURN JUMPDEST CALLVALUE DUP1 ISZERO PUSH2 0x709 JUMPI PUSH1 0x0 DUP1 REVERT JUMPDEST POP PUSH2 0x712 PUSH2 0x1DA4 JUMP JUMPDEST PUSH1 0x40 MLOAD PUSH2 0x71F SWAP2 SWAP1 PUSH2 0x2F23 JUMP JUMPDEST PUSH1 0x40 MLOAD DUP1 SWAP2 SUB SWAP1 RETURN JUMPDEST CALLVALUE DUP1 ISZERO PUSH2 0x734 JUMPI PUSH1 0x0 DUP1 REVERT JUMPDEST POP PUSH2 0x74F PUSH1 0x4 DUP1 CALLDATASIZE SUB DUP2 ADD SWAP1 PUSH2 0x74A SWAP2 SWAP1 PUSH2 0x3072 JUMP JUMPDEST PUSH2 0x1DAA JUMP JUMPDEST STOP JUMPDEST CALLVALUE DUP1 ISZERO PUSH2 0x75D JUMPI PUSH1 0x0 DUP1 REVERT JUMPDEST POP PUSH2 0x778 PUSH1 0x4 DUP1 CALLDATASIZE SUB DUP2 ADD SWAP1 PUSH2 0x773 SWAP2 SWAP1 PUSH2 0x30C5 JUMP JUMPDEST PUSH2 0x1EDD JUMP JUMPDEST STOP JUMPDEST CALLVALUE DUP1 ISZERO PUSH2 0x786 JUMPI PUSH1 0x0 DUP1 REVERT JUMPDEST POP PUSH2 0x78F PUSH2 0x254E JUMP JUMPDEST PUSH1 0x40 MLOAD PUSH2 0x79C SWAP2 SWAP1 PUSH2 0x2FDD JUMP JUMPDEST PUSH1 0x40 MLOAD DUP1 SWAP2 SUB SWAP1 RETURN JUMPDEST CALLVALUE DUP1 ISZERO PUSH2 0x7B1 JUMPI PUSH1 0x0 DUP1 REVERT JUMPDEST POP PUSH2 0x7BA PUSH2 0x2572 JUMP JUMPDEST STOP JUMPDEST CALLVALUE DUP1 ISZERO PUSH2 0x7C8 JUMPI PUSH1 0x0 DUP1 REVERT JUMPDEST POP PUSH2 0x7D1 PUSH2 0x267F JUMP JUMPDEST STOP JUMPDEST CALLVALUE DUP1 ISZERO PUSH2 0x7DF JUMPI PUSH1 0x0 DUP1 REVERT JUMPDEST POP PUSH2 0x7FA PUSH1 0x4 DUP1 CALLDATASIZE SUB DUP2 ADD SWAP1 PUSH2 0x7F5 SWAP2 SWAP1 PUSH2 0x2F6F JUMP JUMPDEST PUSH2 0x296B JUMP JUMPDEST PUSH1 0x40 MLOAD PUSH2 0x80A SWAP5 SWAP4 SWAP3 SWAP2 SWAP1 PUSH2 0x3105 JUMP JUMPDEST PUSH1 0x40 MLOAD DUP1 SWAP2 SUB SWAP1 RETURN JUMPDEST CALLVALUE DUP1 ISZERO PUSH2 0x81F JUMPI PUSH1 0x0 DUP1 REVERT JUMPDEST POP PUSH2 0x828 PUSH2 0x29A8 JUMP JUMPDEST STOP JUMPDEST CALLVALUE DUP1 ISZERO PUSH2 0x836 JUMPI PUSH1 0x0 DUP1 REVERT JUMPDEST POP PUSH2 0x83F PUSH2 0x2C92 JUMP JUMPDEST PUSH1 0x40 MLOAD PUSH2 0x84C SWAP2 SWAP1 PUSH2 0x2EEF JUMP JUMPDEST PUSH1 0x40 MLOAD DUP1 SWAP2 SUB SWAP1 RETURN JUMPDEST CALLVALUE DUP1 ISZERO PUSH2 0x861 JUMPI PUSH1 0x0 DUP1 REVERT JUMPDEST POP PUSH2 0x87C PUSH1 0x4 DUP1 CALLDATASIZE SUB DUP2 ADD SWAP1 PUSH2 0x877 SWAP2 SWAP1 PUSH2 0x3176 JUMP JUMPDEST PUSH2 0x2CA5 JUMP JUMPDEST PUSH1 0x40 MLOAD PUSH2 0x889 SWAP2 SWAP1 PUSH2 0x2F23 JUMP JUMPDEST PUSH1 0x40 MLOAD DUP1 SWAP2 SUB SWAP1 RETURN JUMPDEST CALLVALUE DUP1 ISZERO PUSH2 0x89E JUMPI PUSH1 0x0 DUP1 REVERT JUMPDEST POP PUSH2 0x8A7 PUSH2 0x2CBD JUMP JUMPDEST PUSH1 0x40 MLOAD PUSH2 0x8B4 SWAP2 SWAP1 PUSH2 0x2F23 JUMP JUMPDEST PUSH1 0x40 MLOAD DUP1 SWAP2 SUB SWAP1 RETURN JUMPDEST PUSH1 0xD PUSH1 0x2 SWAP1 SLOAD SWAP1 PUSH2 0x100 EXP SWAP1 DIV PUSH1 0xFF AND DUP2 JUMP JUMPDEST PUSH1 0x3 SLOAD DUP2 JUMP JUMPDEST PUSH1 0x0 DUP1 SLOAD SWAP1 PUSH2 0x100 EXP SWAP1 DIV PUSH20 0xFFFFFFFFFFFFFFFFFFFFFFFFFFFFFFFFFFFFFFFF AND PUSH20 0xFFFFFFFFFFFFFFFFFFFFFFFFFFFFFFFFFFFFFFFF AND CALLER PUSH20 0xFFFFFFFFFFFFFFFFFFFFFFFFFFFFFFFFFFFFFFFF AND EQ PUSH2 0x964 JUMPI PUSH1 0x40 MLOAD PUSH32 0x8C379A000000000000000000000000000000000000000000000000000000000 DUP2 MSTORE PUSH1 0x4 ADD PUSH2 0x95B SWAP1 PUSH2 0x3226 JUMP JUMPDEST PUSH1 0x40 MLOAD DUP1 SWAP2 SUB SWAP1 REVERT JUMPDEST PUSH1 0xD PUSH1 0x3 SWAP1 SLOAD SWAP1 PUSH2 0x100 EXP SWAP1 DIV PUSH1 0xFF AND PUSH2 0x9B3 JUMPI PUSH1 0x40 MLOAD PUSH32 0x8C379A000000000000000000000000000000000000000000000000000000000 DUP2 MSTORE PUSH1 0x4 ADD PUSH2 0x9AA SWAP1 PUSH2 0x3292 JUMP JUMPDEST PUSH1 0x40 MLOAD DUP1 SWAP2 SUB SWAP1 REVERT JUMPDEST PUSH1 0xD PUSH1 0x4 SWAP1 SLOAD SWAP1 PUSH2 0x100 EXP SWAP1 DIV PUSH1 0xFF AND ISZERO PUSH2 0xA03 JUMPI PUSH1 0x40 MLOAD PUSH32 0x8C379A000000000000000000000000000000000000000000000000000000000 DUP2 MSTORE PUSH1 0x4 ADD PUSH2 0x9FA SWAP1 PUSH2 0x32FE JUMP JUMPDEST PUSH1 0x40 MLOAD DUP1 SWAP2 SUB SWAP1 REVERT JUMPDEST PUSH1 0xD PUSH1 0x0 SWAP1 SLOAD SWAP1 PUSH2 0x100 EXP SWAP1 DIV PUSH1 0xFF AND PUSH2 0xA52 JUMPI PUSH1 0x40 MLOAD PUSH32 0x8C379A000000000000000000000000000000000000000000000000000000000 DUP2 MSTORE PUSH1 0x4 ADD PUSH2 0xA49 SWAP1 PUSH2 0x336A JUMP JUMPDEST PUSH1 0x40 MLOAD DUP1 SWAP2 SUB SWAP1 REVERT JUMPDEST DUP1 PUSH1 0x8 DUP2 SWAP1 SSTORE POP PUSH1 0x1 PUSH1 0xD PUSH1 0x4 PUSH2 0x100 EXP DUP2 SLOAD DUP2 PUSH1 0xFF MUL NOT AND SWAP1 DUP4 ISZERO ISZERO MUL OR SWAP1 SSTORE POP PUSH32 0x192101DE3933394FEDEB636FFADD15C20B3E23E4913AB4051C171A26C90A3459 DUP2 PUSH1 0x40 MLOAD PUSH2 0xAA3 SWAP2 SWAP1 PUSH2 0x2F23 JUMP JUMPDEST PUSH1 0x40 MLOAD DUP1 SWAP2 SUB SWAP1 LOG1 POP JUMP JUMPDEST PUSH1 0x0 DUP1 SLOAD SWAP1 PUSH2 0x100 EXP SWAP1 DIV PUSH20 0xFFFFFFFFFFFFFFFFFFFFFFFFFFFFFFFFFFFFFFFF AND PUSH20 0xFFFFFFFFFFFFFFFFFFFFFFFFFFFFFFFFFFFFFFFF AND CALLER PUSH20 0xFFFFFFFFFFFFFFFFFFFFFFFFFFFFFFFFFFFFFFFF AND EQ PUSH2 0xB3C JUMPI PUSH1 0x40 MLOAD PUSH32 0x8C379A000000000000000000000000000000000000000000000000000000000 DUP2 MSTORE PUSH1 0x4 ADD PUSH2 0xB33 SWAP1 PUSH2 0x33FC JUMP JUMPDEST PUSH1 0x40 MLOAD DUP1 SWAP2 SUB SWAP1 REVERT JUMPDEST PUSH1 0xD PUSH1 0x5 SWAP1 SLOAD SWAP1 PUSH2 0x100 EXP SWAP1 DIV PUSH1 0xFF AND PUSH2 0xB8B JUMPI PUSH1 0x40 MLOAD PUSH32 0x8C379A000000000000000000000000000000000000000000000000000000000 DUP2 MSTORE PUSH1 0x4 ADD PUSH2 0xB82 SWAP1 PUSH2 0x348E JUMP JUMPDEST PUSH1 0x40 MLOAD DUP1 SWAP2 SUB SWAP1 REVERT JUMPDEST PUSH1 0xD PUSH1 0x6 SWAP1 SLOAD SWAP1 PUSH2 0x100 EXP SWAP1 DIV PUSH20 0xFFFFFFFFFFFFFFFFFFFFFFFFFFFFFFFFFFFFFFFF AND PUSH20 0xFFFFFFFFFFFFFFFFFFFFFFFFFFFFFFFFFFFFFFFF AND PUSH4 0x63022560 PUSH1 0x40 MLOAD DUP2 PUSH4 0xFFFFFFFF AND PUSH1 0xE0 SHL DUP2 MSTORE PUSH1 0x4 ADD PUSH1 0x20 PUSH1 0x40 MLOAD DUP1 DUP4 SUB DUP2 DUP7 GAS STATICCALL ISZERO DUP1 ISZERO PUSH2 0xBF8 JUMPI RETURNDATASIZE PUSH1 0x0 DUP1 RETURNDATACOPY RETURNDATASIZE PUSH1 0x0 REVERT JUMPDEST POP POP POP POP PUSH1 0x40 MLOAD RETURNDATASIZE PUSH1 0x1F NOT PUSH1 0x1F DUP3 ADD AND DUP3 ADD DUP1 PUSH1 0x40 MSTORE POP DUP2 ADD SWAP1 PUSH2 0xC1C SWAP2 SWAP1 PUSH2 0x34C3 JUMP JUMPDEST PUSH1 0xC DUP2 SWAP1 SSTORE POP PUSH1 0xC SLOAD PUSH1 0xB SLOAD LT ISZERO PUSH2 0xC69 JUMPI PUSH1 0x40 MLOAD PUSH32 0x8C379A000000000000000000000000000000000000000000000000000000000 DUP2 MSTORE PUSH1 0x4 ADD PUSH2 0xC60 SWAP1 PUSH2 0x3562 JUMP JUMPDEST PUSH1 0x40 MLOAD DUP1 SWAP2 SUB SWAP1 REVERT JUMPDEST PUSH1 0xC SLOAD PUSH1 0xB PUSH1 0x0 DUP3 DUP3 SLOAD PUSH2 0xC7D SWAP2 SWAP1 PUSH2 0x35B1 JUMP JUMPDEST SWAP3 POP POP DUP2 SWAP1 SSTORE POP PUSH1 0xD PUSH1 0x6 SWAP1 SLOAD SWAP1 PUSH2 0x100 EXP SWAP1 DIV PUSH20 0xFFFFFFFFFFFFFFFFFFFFFFFFFFFFFFFFFFFFFFFF AND PUSH20 0xFFFFFFFFFFFFFFFFFFFFFFFFFFFFFFFFFFFFFFFF AND PUSH4 0xF26999CD PUSH1 0xC SLOAD PUSH1 0x8 SLOAD PUSH1 0x9 SLOAD PUSH1 0x40 MLOAD DUP5 PUSH4 0xFFFFFFFF AND PUSH1 0xE0 SHL DUP2 MSTORE PUSH1 0x4 ADD PUSH2 0xCE8 SWAP3 SWAP2 SWAP1 PUSH2 0x35E5 JUMP JUMPDEST PUSH1 0x20 PUSH1 0x40 MLOAD DUP1 DUP4 SUB DUP2 DUP6 DUP9 GAS CALL ISZERO DUP1 ISZERO PUSH2 0xD06 JUMPI RETURNDATASIZE PUSH1 0x0 DUP1 RETURNDATACOPY RETURNDATASIZE PUSH1 0x0 REVERT JUMPDEST POP POP POP POP POP PUSH1 0x40 MLOAD RETURNDATASIZE PUSH1 0x1F NOT PUSH1 0x1F DUP3 ADD AND DUP3 ADD DUP1 PUSH1 0x40 MSTORE POP DUP2 ADD SWAP1 PUSH2 0xD2B SWAP2 SWAP1 PUSH2 0x34C3 JUMP JUMPDEST PUSH1 0xA DUP2 SWAP1 SSTORE POP PUSH1 0x1 PUSH1 0xD PUSH1 0x2 PUSH2 0x100 EXP DUP2 SLOAD DUP2 PUSH1 0xFF MUL NOT AND SWAP1 DUP4 ISZERO ISZERO MUL OR SWAP1 SSTORE POP PUSH32 0x4901F83201C8724EADF084436DB8AA391820BAE6D11F9F78A17EDB6F2EEF3CF PUSH1 0xA SLOAD PUSH1 0x40 MLOAD PUSH2 0xD7D SWAP2 SWAP1 PUSH2 0x2F23 JUMP JUMPDEST PUSH1 0x40 MLOAD DUP1 SWAP2 SUB SWAP1 LOG1 PUSH32 0xA7D8A4744BC13E083818434DDE26551EA9B29C6425677EBC90CD5DD09CE6B5C7 PUSH1 0x40 MLOAD PUSH1 0x40 MLOAD DUP1 SWAP2 SUB SWAP1 LOG1 JUMP JUMPDEST PUSH1 0x8 SLOAD DUP2 JUMP JUMPDEST PUSH1 0x2 SLOAD DUP2 JUMP JUMPDEST PUSH1 0xD PUSH1 0x0 SWAP1 SLOAD SWAP1 PUSH2 0x100 EXP SWAP1 DIV PUSH1 0xFF AND DUP2 JUMP JUMPDEST PUSH1 0x1 PUSH1 0x0 SWAP1 SLOAD SWAP1 PUSH2 0x100 EXP SWAP1 DIV PUSH20 0xFFFFFFFFFFFFFFFFFFFFFFFFFFFFFFFFFFFFFFFF AND DUP2 JUMP JUMPDEST PUSH1 0x0 PUSH1 0xF PUSH1 0x0 CALLER PUSH20 0xFFFFFFFFFFFFFFFFFFFFFFFFFFFFFFFFFFFFFFFF AND PUSH20 0xFFFFFFFFFFFFFFFFFFFFFFFFFFFFFFFFFFFFFFFF AND DUP2 MSTORE PUSH1 0x20 ADD SWAP1 DUP2 MSTORE PUSH1 0x20 ADD PUSH1 0x0 KECCAK256 SLOAD SWAP1 POP PUSH1 0x0 DUP2 GT PUSH2 0xE7F JUMPI PUSH1 0x40 MLOAD PUSH32 0x8C379A000000000000000000000000000000000000000000000000000000000 DUP2 MSTORE PUSH1 0x4 ADD PUSH2 0xE76 SWAP1 PUSH2 0x365A JUMP JUMPDEST PUSH1 0x40 MLOAD DUP1 SWAP2 SUB SWAP1 REVERT JUMPDEST PUSH1 0x0 PUSH1 0xF PUSH1 0x0 CALLER PUSH20 0xFFFFFFFFFFFFFFFFFFFFFFFFFFFFFFFFFFFFFFFF AND PUSH20 0xFFFFFFFFFFFFFFFFFFFFFFFFFFFFFFFFFFFFFFFF AND DUP2 MSTORE PUSH1 0x20 ADD SWAP1 DUP2 MSTORE PUSH1 0x20 ADD PUSH1 0x0 KECCAK256 DUP2 SWAP1 SSTORE POP PUSH1 0x0 CALLER PUSH20 0xFFFFFFFFFFFFFFFFFFFFFFFFFFFFFFFFFFFFFFFF AND DUP3 PUSH1 0x40 MLOAD PUSH2 0xEEA SWAP1 PUSH2 0x36AB JUMP JUMPDEST PUSH1 0x0 PUSH1 0x40 MLOAD DUP1 DUP4 SUB DUP2 DUP6 DUP8 GAS CALL SWAP3 POP POP POP RETURNDATASIZE DUP1 PUSH1 0x0 DUP2 EQ PUSH2 0xF27 JUMPI PUSH1 0x40 MLOAD SWAP2 POP PUSH1 0x1F NOT PUSH1 0x3F RETURNDATASIZE ADD AND DUP3 ADD PUSH1 0x40 MSTORE RETURNDATASIZE DUP3 MSTORE RETURNDATASIZE PUSH1 0x0 PUSH1 0x20 DUP5 ADD RETURNDATACOPY PUSH2 0xF2C JUMP JUMPDEST PUSH1 0x60 SWAP2 POP JUMPDEST POP POP SWAP1 POP DUP1 PUSH2 0xF70 JUMPI PUSH1 0x40 MLOAD PUSH32 0x8C379A000000000000000000000000000000000000000000000000000000000 DUP2 MSTORE PUSH1 0x4 ADD PUSH2 0xF67 SWAP1 PUSH2 0x370C JUMP JUMPDEST PUSH1 0x40 MLOAD DUP1 SWAP2 SUB SWAP1 REVERT JUMPDEST CALLER PUSH20 0xFFFFFFFFFFFFFFFFFFFFFFFFFFFFFFFFFFFFFFFF AND PUSH32 0x8C9A4F13B67CB64D7C6AA1AE0C9BF07694AF521A28B93E7060020810AB4BC59F DUP4 PUSH1 0x40 MLOAD PUSH2 0xFB6 SWAP2 SWAP1 PUSH2 0x2F23 JUMP JUMPDEST PUSH1 0x40 MLOAD DUP1 SWAP2 SUB SWAP1 LOG2 POP POP JUMP JUMPDEST PUSH1 0x1 PUSH1 0x0 SWAP1 SLOAD SWAP1 PUSH2 0x100 EXP SWAP1 DIV PUSH20 0xFFFFFFFFFFFFFFFFFFFFFFFFFFFFFFFFFFFFFFFF AND PUSH20 0xFFFFFFFFFFFFFFFFFFFFFFFFFFFFFFFFFFFFFFFF AND CALLER PUSH20 0xFFFFFFFFFFFFFFFFFFFFFFFFFFFFFFFFFFFFFFFF AND EQ PUSH2 0x1052 JUMPI PUSH1 0x40 MLOAD PUSH32 0x8C379A000000000000000000000000000000000000000000000000000000000 DUP2 MSTORE PUSH1 0x4 ADD PUSH2 0x1049 SWAP1 PUSH2 0x379E JUMP JUMPDEST PUSH1 0x40 MLOAD DUP1 SWAP2 SUB SWAP1 REVERT JUMPDEST PUSH1 0xD PUSH1 0x0 SWAP1 SLOAD SWAP1 PUSH2 0x100 EXP SWAP1 DIV PUSH1 0xFF AND ISZERO PUSH2 0x10A2 JUMPI PUSH1 0x40 MLOAD PUSH32 0x8C379A000000000000000000000000000000000000000000000000000000000 DUP2 MSTORE PUSH1 0x4 ADD PUSH2 0x1099 SWAP1 PUSH2 0x380A JUMP JUMPDEST PUSH1 0x40 MLOAD DUP1 SWAP2 SUB SWAP1 REVERT JUMPDEST PUSH1 0x2 SLOAD CALLVALUE EQ PUSH2 0x10E6 JUMPI PUSH1 0x40 MLOAD PUSH32 0x8C379A000000000000000000000000000000000000000000000000000000000 DUP2 MSTORE PUSH1 0x4 ADD PUSH2 0x10DD SWAP1 PUSH2 0x389C JUMP JUMPDEST PUSH1 0x40 MLOAD DUP1 SWAP2 SUB SWAP1 REVERT JUMPDEST PUSH1 0x1 PUSH1 0xD PUSH1 0x1 PUSH2 0x100 EXP DUP2 SLOAD DUP2 PUSH1 0xFF MUL NOT AND SWAP1 DUP4 ISZERO ISZERO MUL OR SWAP1 SSTORE POP PUSH1 0x2 SLOAD PUSH1 0xB DUP2 SWAP1 SSTORE POP PUSH32 0x486AC935CF1EA9EFFD9E0A261BC42917B45F2FD45CC98DEF2BC34D47F216937C CALLVALUE PUSH1 0x40 MLOAD PUSH2 0x1139 SWAP2 SWAP1 PUSH2 0x2F23 JUMP JUMPDEST PUSH1 0x40 MLOAD DUP1 SWAP2 SUB SWAP1 LOG1 PUSH1 0x1 PUSH1 0xD PUSH1 0x0 PUSH2 0x100 EXP DUP2 SLOAD DUP2 PUSH1 0xFF MUL NOT AND SWAP1 DUP4 ISZERO ISZERO MUL OR SWAP1 SSTORE POP TIMESTAMP PUSH1 0x5 DUP2 SWAP1 SSTORE POP PUSH1 0x1 PUSH1 0x6 DUP2 SWAP1 SSTORE POP PUSH32 0xE09EB0AC9BAD92F05E0B489E6FC1D3E349861FFD8A2548182EF06278968A9BD0 PUSH1 0x40 MLOAD PUSH1 0x40 MLOAD DUP1 SWAP2 SUB SWAP1 LOG1 JUMP JUMPDEST PUSH1 0xD PUSH1 0x5 SWAP1 SLOAD SWAP1 PUSH2 0x100 EXP SWAP1 DIV PUSH1 0xFF AND DUP2 JUMP JUMPDEST PUSH1 0x5 SLOAD DUP2 JUMP JUMPDEST PUSH1 0xD PUSH1 0x3 SWAP1 SLOAD SWAP1 PUSH2 0x100 EXP SWAP1 DIV PUSH1 0xFF AND DUP2 JUMP JUMPDEST PUSH1 0x0 PUSH1 0xD PUSH1 0x6 SWAP1 SLOAD SWAP1 PUSH2 0x100 EXP SWAP1 DIV PUSH20 0xFFFFFFFFFFFFFFFFFFFFFFFFFFFFFFFFFFFFFFFF AND PUSH20 0xFFFFFFFFFFFFFFFFFFFFFFFFFFFFFFFFFFFFFFFF AND PUSH4 0x63022560 PUSH1 0x40 MLOAD DUP2 PUSH4 0xFFFFFFFF AND PUSH1 0xE0 SHL DUP2 MSTORE PUSH1 0x4 ADD PUSH1 0x20 PUSH1 0x40 MLOAD DUP1 DUP4 SUB DUP2 DUP7 GAS STATICCALL ISZERO DUP1 ISZERO PUSH2 0x1234 JUMPI RETURNDATASIZE PUSH1 0x0 DUP1 RETURNDATACOPY RETURNDATASIZE PUSH1 0x0 REVERT JUMPDEST POP POP POP POP PUSH1 0x40 MLOAD RETURNDATASIZE PUSH1 0x1F NOT PUSH1 0x1F DUP3 ADD AND DUP3 ADD DUP1 PUSH1 0x40 MSTORE POP DUP2 ADD SWAP1 PUSH2 0x1258 SWAP2 SWAP1 PUSH2 0x34C3 JUMP JUMPDEST SWAP1 POP SWAP1 JUMP JUMPDEST PUSH1 0xC SLOAD DUP2 JUMP JUMPDEST PUSH1 0xD PUSH1 0x6 SWAP1 SLOAD SWAP1 PUSH2 0x100 EXP SWAP1 DIV PUSH20 0xFFFFFFFFFFFFFFFFFFFFFFFFFFFFFFFFFFFFFFFF AND DUP2 JUMP JUMPDEST PUSH1 0x7 SLOAD DUP2 JUMP JUMPDEST PUSH1 0x0 SELFBALANCE SWAP1 POP SWAP1 JUMP JUMPDEST PUSH1 0xD PUSH1 0x4 SWAP1 SLOAD SWAP1 PUSH2 0x100 EXP SWAP1 DIV PUSH1 0xFF AND DUP2 JUMP JUMPDEST PUSH1 0x0 PUSH1 0xF PUSH1 0x0 PUSH1 0x1 PUSH1 0x0 SWAP1 SLOAD SWAP1 PUSH2 0x100 EXP SWAP1 DIV PUSH20 0xFFFFFFFFFFFFFFFFFFFFFFFFFFFFFFFFFFFFFFFF AND PUSH20 0xFFFFFFFFFFFFFFFFFFFFFFFFFFFFFFFFFFFFFFFF AND PUSH20 0xFFFFFFFFFFFFFFFFFFFFFFFFFFFFFFFFFFFFFFFF AND DUP2 MSTORE PUSH1 0x20 ADD SWAP1 DUP2 MSTORE PUSH1 0x20 ADD PUSH1 0x0 KECCAK256 SLOAD SWAP1 POP SWAP1 JUMP JUMPDEST PUSH1 0x0 PUSH1 0xB SLOAD SWAP1 POP SWAP1 JUMP JUMPDEST PUSH1 0x0 DUP1 SLOAD SWAP1 PUSH2 0x100 EXP SWAP1 DIV PUSH20 0xFFFFFFFFFFFFFFFFFFFFFFFFFFFFFFFFFFFFFFFF AND PUSH20 0xFFFFFFFFFFFFFFFFFFFFFFFFFFFFFFFFFFFFFFFF AND CALLER PUSH20 0xFFFFFFFFFFFFFFFFFFFFFFFFFFFFFFFFFFFFFFFF AND EQ PUSH2 0x13AB JUMPI PUSH1 0x40 MLOAD PUSH32 0x8C379A000000000000000000000000000000000000000000000000000000000 DUP2 MSTORE PUSH1 0x4 ADD PUSH2 0x13A2 SWAP1 PUSH2 0x392E JUMP JUMPDEST PUSH1 0x40 MLOAD DUP1 SWAP2 SUB SWAP1 REVERT JUMPDEST PUSH1 0xD PUSH1 0x0 SWAP1 SLOAD SWAP1 PUSH2 0x100 EXP SWAP1 DIV PUSH1 0xFF AND PUSH2 0x13FA JUMPI PUSH1 0x40 MLOAD PUSH32 0x8C379A000000000000000000000000000000000000000000000000000000000 DUP2 MSTORE PUSH1 0x4 ADD PUSH2 0x13F1 SWAP1 PUSH2 0x336A JUMP JUMPDEST PUSH1 0x40 MLOAD DUP1 SWAP2 SUB SWAP1 REVERT JUMPDEST PUSH1 0x4 SLOAD PUSH1 0x6 SLOAD GT ISZERO PUSH2 0x1441 JUMPI PUSH1 0x40 MLOAD PUSH32 0x8C379A000000000000000000000000000000000000000000000000000000000 DUP2 MSTORE PUSH1 0x4 ADD PUSH2 0x1438 SWAP1 PUSH2 0x399A JUMP JUMPDEST PUSH1 0x40 MLOAD DUP1 SWAP2 SUB SWAP1 REVERT JUMPDEST DUP1 PUSH1 0xE PUSH1 0x0 PUSH1 0x6 SLOAD DUP2 MSTORE PUSH1 0x20 ADD SWAP1 DUP2 MSTORE PUSH1 0x20 ADD PUSH1 0x0 KECCAK256 PUSH1 0x1 ADD DUP2 SWAP1 SSTORE POP PUSH1 0x3 SLOAD PUSH1 0xE PUSH1 0x0 PUSH1 0x6 SLOAD DUP2 MSTORE PUSH1 0x20 ADD SWAP1 DUP2 MSTORE PUSH1 0x20 ADD PUSH1 0x0 KECCAK256 PUSH1 0x0 ADD DUP2 SWAP1 SSTORE POP PUSH32 0xF75D23E75691B7209BF24071476B3702A8412A369B26FD3AD012D19630F65A2B PUSH1 0x6 SLOAD DUP3 PUSH1 0x40 MLOAD PUSH2 0x14B0 SWAP3 SWAP2 SWAP1 PUSH2 0x35E5 JUMP JUMPDEST PUSH1 0x40 MLOAD DUP1 SWAP2 SUB SWAP1 LOG1 POP JUMP JUMPDEST PUSH1 0x9 SLOAD DUP2 JUMP JUMPDEST PUSH1 0x6 SLOAD DUP2 JUMP JUMPDEST PUSH1 0x4 SLOAD DUP2 JUMP JUMPDEST PUSH1 0x1 PUSH1 0x0 SWAP1 SLOAD SWAP1 PUSH2 0x100 EXP SWAP1 DIV PUSH20 0xFFFFFFFFFFFFFFFFFFFFFFFFFFFFFFFFFFFFFFFF AND PUSH20 0xFFFFFFFFFFFFFFFFFFFFFFFFFFFFFFFFFFFFFFFF AND CALLER PUSH20 0xFFFFFFFFFFFFFFFFFFFFFFFFFFFFFFFFFFFFFFFF AND EQ PUSH2 0x155D JUMPI PUSH1 0x40 MLOAD PUSH32 0x8C379A000000000000000000000000000000000000000000000000000000000 DUP2 MSTORE PUSH1 0x4 ADD PUSH2 0x1554 SWAP1 PUSH2 0x3A06 JUMP JUMPDEST PUSH1 0x40 MLOAD DUP1 SWAP2 SUB SWAP1 REVERT JUMPDEST PUSH1 0xD PUSH1 0x0 SWAP1 SLOAD SWAP1 PUSH2 0x100 EXP SWAP1 DIV PUSH1 0xFF AND PUSH2 0x15AC JUMPI PUSH1 0x40 MLOAD PUSH32 0x8C379A000000000000000000000000000000000000000000000000000000000 DUP2 MSTORE PUSH1 0x4 ADD PUSH2 0x15A3 SWAP1 PUSH2 0x336A JUMP JUMPDEST PUSH1 0x40 MLOAD DUP1 SWAP2 SUB SWAP1 REVERT JUMPDEST PUSH1 0x4 SLOAD PUSH1 0x6 SLOAD GT ISZERO PUSH2 0x15F3 JUMPI PUSH1 0x40 MLOAD PUSH32 0x8C379A000000000000000000000000000000000000000000000000000000000 DUP2 MSTORE PUSH1 0x4 ADD PUSH2 0x15EA SWAP1 PUSH2 0x399A JUMP JUMPDEST PUSH1 0x40 MLOAD DUP1 SWAP2 SUB SWAP1 REVERT JUMPDEST PUSH1 0x0 PUSH1 0xE PUSH1 0x0 PUSH1 0x6 SLOAD DUP2 MSTORE PUSH1 0x20 ADD SWAP1 DUP2 MSTORE PUSH1 0x20 ADD PUSH1 0x0 KECCAK256 SWAP1 POP DUP1 PUSH1 0x3 ADD PUSH1 0x0 SWAP1 SLOAD SWAP1 PUSH2 0x100 EXP SWAP1 DIV PUSH1 0xFF AND ISZERO PUSH2 0x165E JUMPI PUSH1 0x40 MLOAD PUSH32 0x8C379A000000000000000000000000000000000000000000000000000000000 DUP2 MSTORE PUSH1 0x4 ADD PUSH2 0x1655 SWAP1 PUSH2 0x3A98 JUMP JUMPDEST PUSH1 0x40 MLOAD DUP1 SWAP2 SUB SWAP1 REVERT JUMPDEST PUSH1 0x0 DUP2 PUSH1 0x1 ADD SLOAD GT PUSH2 0x16A5 JUMPI PUSH1 0x40 MLOAD PUSH32 0x8C379A000000000000000000000000000000000000000000000000000000000 DUP2 MSTORE PUSH1 0x4 ADD PUSH2 0x169C SWAP1 PUSH2 0x3B2A JUMP JUMPDEST PUSH1 0x40 MLOAD DUP1 SWAP2 SUB SWAP1 REVERT JUMPDEST PUSH1 0x0 PUSH1 0x7 SLOAD DUP3 PUSH1 0x1 ADD SLOAD DUP4 PUSH1 0x0 ADD SLOAD PUSH2 0x16BE SWAP2 SWAP1 PUSH2 0x3B4A JUMP JUMPDEST PUSH2 0x16C8 SWAP2 SWAP1 PUSH2 0x3B4A JUMP JUMPDEST SWAP1 POP DUP1 CALLVALUE EQ PUSH2 0x170C JUMPI PUSH1 0x40 MLOAD PUSH32 0x8C379A000000000000000000000000000000000000000000000000000000000 DUP2 MSTORE PUSH1 0x4 ADD PUSH2 0x1703 SWAP1 PUSH2 0x3BCA JUMP JUMPDEST PUSH1 0x40 MLOAD DUP1 SWAP2 SUB SWAP1 REVERT JUMPDEST PUSH1 0x1 DUP3 PUSH1 0x3 ADD PUSH1 0x0 PUSH2 0x100 EXP DUP2 SLOAD DUP2 PUSH1 0xFF MUL NOT AND SWAP1 DUP4 ISZERO ISZERO MUL OR SWAP1 SSTORE POP PUSH1 0x0 PUSH1 0x7 DUP2 SWAP1 SSTORE POP PUSH32 0xA0D112ED080C1B1A94B838AD981A23746BE2A4670FD4BF157224E72CDD5DFDDE PUSH1 0x6 SLOAD DUP3 PUSH1 0x40 MLOAD PUSH2 0x1764 SWAP3 SWAP2 SWAP1 PUSH2 0x35E5 JUMP JUMPDEST PUSH1 0x40 MLOAD DUP1 SWAP2 SUB SWAP1 LOG1 DUP1 PUSH1 0xF PUSH1 0x0 DUP1 PUSH1 0x0 SWAP1 SLOAD SWAP1 PUSH2 0x100 EXP SWAP1 DIV PUSH20 0xFFFFFFFFFFFFFFFFFFFFFFFFFFFFFFFFFFFFFFFF AND PUSH20 0xFFFFFFFFFFFFFFFFFFFFFFFFFFFFFFFFFFFFFFFF AND PUSH20 0xFFFFFFFFFFFFFFFFFFFFFFFFFFFFFFFFFFFFFFFF AND DUP2 MSTORE PUSH1 0x20 ADD SWAP1 DUP2 MSTORE PUSH1 0x20 ADD PUSH1 0x0 KECCAK256 PUSH1 0x0 DUP3 DUP3 SLOAD PUSH2 0x17DC SWAP2 SWAP1 PUSH2 0x3B4A JUMP JUMPDEST SWAP3 POP POP DUP2 SWAP1 SSTORE POP PUSH1 0x0 DUP1 SLOAD SWAP1 PUSH2 0x100 EXP SWAP1 DIV PUSH20 0xFFFFFFFFFFFFFFFFFFFFFFFFFFFFFFFFFFFFFFFF AND PUSH20 0xFFFFFFFFFFFFFFFFFFFFFFFFFFFFFFFFFFFFFFFF AND PUSH32 0xE670E4E82118D22A1F9EE18920455EBC958BAE26A90A05D31D3378788B1B0E44 DUP3 PUSH1 0x40 MLOAD PUSH2 0x1849 SWAP2 SWAP1 PUSH2 0x2F23 JUMP JUMPDEST PUSH1 0x40 MLOAD DUP1 SWAP2 SUB SWAP1 LOG2 PUSH1 0x4 SLOAD PUSH1 0x6 SLOAD SUB PUSH2 0x187C JUMPI PUSH1 0x1 PUSH1 0xD PUSH1 0x3 PUSH2 0x100 EXP DUP2 SLOAD DUP2 PUSH1 0xFF MUL NOT AND SWAP1 DUP4 ISZERO ISZERO MUL OR SWAP1 SSTORE POP PUSH2 0x1895 JUMP JUMPDEST PUSH1 0x6 PUSH1 0x0 DUP2 SLOAD DUP1 SWAP3 SWAP2 SWAP1 PUSH2 0x188F SWAP1 PUSH2 0x3BEA JUMP JUMPDEST SWAP2 SWAP1 POP SSTORE POP JUMPDEST POP POP JUMP JUMPDEST PUSH1 0x0 DUP1 SLOAD SWAP1 PUSH2 0x100 EXP SWAP1 DIV PUSH20 0xFFFFFFFFFFFFFFFFFFFFFFFFFFFFFFFFFFFFFFFF AND PUSH20 0xFFFFFFFFFFFFFFFFFFFFFFFFFFFFFFFFFFFFFFFF AND CALLER PUSH20 0xFFFFFFFFFFFFFFFFFFFFFFFFFFFFFFFFFFFFFFFF AND EQ PUSH2 0x1927 JUMPI PUSH1 0x40 MLOAD PUSH32 0x8C379A000000000000000000000000000000000000000000000000000000000 DUP2 MSTORE PUSH1 0x4 ADD PUSH2 0x191E SWAP1 PUSH2 0x3CA4 JUMP JUMPDEST PUSH1 0x40 MLOAD DUP1 SWAP2 SUB SWAP1 REVERT JUMPDEST PUSH1 0xD PUSH1 0x0 SWAP1 SLOAD SWAP1 PUSH2 0x100 EXP SWAP1 DIV PUSH1 0xFF AND PUSH2 0x1976 JUMPI PUSH1 0x40 MLOAD PUSH32 0x8C379A000000000000000000000000000000000000000000000000000000000 DUP2 MSTORE PUSH1 0x4 ADD PUSH2 0x196D SWAP1 PUSH2 0x3D10 JUMP JUMPDEST PUSH1 0x40 MLOAD DUP1 SWAP2 SUB SWAP1 REVERT JUMPDEST PUSH1 0x0 PUSH1 0xB SLOAD EQ PUSH2 0x19BB JUMPI PUSH1 0x40 MLOAD PUSH32 0x8C379A000000000000000000000000000000000000000000000000000000000 DUP2 MSTORE PUSH1 0x4 ADD PUSH2 0x19B2 SWAP1 PUSH2 0x3DA2 JUMP JUMPDEST PUSH1 0x40 MLOAD DUP1 SWAP2 SUB SWAP1 REVERT JUMPDEST PUSH1 0x2 SLOAD PUSH1 0xB DUP2 SWAP1 SSTORE POP JUMP JUMPDEST PUSH1 0xA SLOAD DUP2 JUMP JUMPDEST PUSH1 0x1 PUSH1 0x0 SWAP1 SLOAD SWAP1 PUSH2 0x100 EXP SWAP1 DIV PUSH20 0xFFFFFFFFFFFFFFFFFFFFFFFFFFFFFFFFFFFFFFFF AND PUSH20 0xFFFFFFFFFFFFFFFFFFFFFFFFFFFFFFFFFFFFFFFF AND CALLER PUSH20 0xFFFFFFFFFFFFFFFFFFFFFFFFFFFFFFFFFFFFFFFF AND EQ PUSH2 0x1A5C JUMPI PUSH1 0x40 MLOAD PUSH32 0x8C379A000000000000000000000000000000000000000000000000000000000 DUP2 MSTORE PUSH1 0x4 ADD PUSH2 0x1A53 SWAP1 PUSH2 0x3E34 JUMP JUMPDEST PUSH1 0x40 MLOAD DUP1 SWAP2 SUB SWAP1 REVERT JUMPDEST PUSH1 0xD PUSH1 0x4 SWAP1 SLOAD SWAP1 PUSH2 0x100 EXP SWAP1 DIV PUSH1 0xFF AND PUSH2 0x1AAB JUMPI PUSH1 0x40 MLOAD PUSH32 0x8C379A000000000000000000000000000000000000000000000000000000000 DUP2 MSTORE PUSH1 0x4 ADD PUSH2 0x1AA2 SWAP1 PUSH2 0x3EC6 JUMP JUMPDEST PUSH1 0x40 MLOAD DUP1 SWAP2 SUB SWAP1 REVERT JUMPDEST DUP1 PUSH1 0x9 DUP2 SWAP1 SSTORE POP PUSH1 0x1 PUSH1 0xD PUSH1 0x5 PUSH2 0x100 EXP DUP2 SLOAD DUP2 PUSH1 0xFF MUL NOT AND SWAP1 DUP4 ISZERO ISZERO MUL OR SWAP1 SSTORE POP PUSH32 0xF2792B28C50F2F7EECE39E74A2B4F0F1CE15A79ACB72DD811686E827AED030B DUP2 PUSH1 0x40 MLOAD PUSH2 0x1AFC SWAP2 SWAP1 PUSH2 0x2F23 JUMP JUMPDEST PUSH1 0x40 MLOAD DUP1 SWAP2 SUB SWAP1 LOG1 POP JUMP JUMPDEST PUSH1 0x1 PUSH1 0x0 SWAP1 SLOAD SWAP1 PUSH2 0x100 EXP SWAP1 DIV PUSH20 0xFFFFFFFFFFFFFFFFFFFFFFFFFFFFFFFFFFFFFFFF AND PUSH20 0xFFFFFFFFFFFFFFFFFFFFFFFFFFFFFFFFFFFFFFFF AND CALLER PUSH20 0xFFFFFFFFFFFFFFFFFFFFFFFFFFFFFFFFFFFFFFFF AND EQ PUSH2 0x1B97 JUMPI PUSH1 0x40 MLOAD PUSH32 0x8C379A000000000000000000000000000000000000000000000000000000000 DUP2 MSTORE PUSH1 0x4 ADD PUSH2 0x1B8E SWAP1 PUSH2 0x3F58 JUMP JUMPDEST PUSH1 0x40 MLOAD DUP1 SWAP2 SUB SWAP1 REVERT JUMPDEST PUSH1 0xD PUSH1 0x0 SWAP1 SLOAD SWAP1 PUSH2 0x100 EXP SWAP1 DIV PUSH1 0xFF AND PUSH2 0x1BE6 JUMPI PUSH1 0x40 MLOAD PUSH32 0x8C379A000000000000000000000000000000000000000000000000000000000 DUP2 MSTORE PUSH1 0x4 ADD PUSH2 0x1BDD SWAP1 PUSH2 0x336A JUMP JUMPDEST PUSH1 0x40 MLOAD DUP1 SWAP2 SUB SWAP1 REVERT JUMPDEST PUSH1 0x4 SLOAD PUSH1 0x6 SLOAD LT PUSH2 0x1C2C JUMPI PUSH1 0x40 MLOAD PUSH32 0x8C379A000000000000000000000000000000000000000000000000000000000 DUP2 MSTORE PUSH1 0x4 ADD PUSH2 0x1C23 SWAP1 PUSH2 0x3FEA JUMP JUMPDEST PUSH1 0x40 MLOAD DUP1 SWAP2 SUB SWAP1 REVERT JUMPDEST PUSH1 0x0 PUSH1 0xE PUSH1 0x0 PUSH1 0x6 SLOAD DUP2 MSTORE PUSH1 0x20 ADD SWAP1 DUP2 MSTORE PUSH1 0x20 ADD PUSH1 0x0 KECCAK256 SWAP1 POP DUP1 PUSH1 0x3 ADD PUSH1 0x0 SWAP1 SLOAD SWAP1 PUSH2 0x100 EXP SWAP1 DIV PUSH1 0xFF AND ISZERO PUSH2 0x1C97 JUMPI PUSH1 0x40 MLOAD PUSH32 0x8C379A000000000000000000000000000000000000000000000000000000000 DUP2 MSTORE PUSH1 0x4 ADD PUSH2 0x1C8E SWAP1 PUSH2 0x3A98 JUMP JUMPDEST PUSH1 0x40 MLOAD DUP1 SWAP2 SUB SWAP1 REVERT JUMPDEST PUSH1 0x0 DUP2 PUSH1 0x1 ADD SLOAD GT PUSH2 0x1CDE JUMPI PUSH1 0x40 MLOAD PUSH32 0x8C379A000000000000000000000000000000000000000000000000000000000 DUP2 MSTORE PUSH1 0x4 ADD PUSH2 0x1CD5 SWAP1 PUSH2 0x3B2A JUMP JUMPDEST PUSH1 0x40 MLOAD DUP1 SWAP2 SUB SWAP1 REVERT JUMPDEST PUSH1 0x0 DUP2 PUSH1 0x1 ADD SLOAD DUP3 PUSH1 0x0 ADD SLOAD PUSH2 0x1CF4 SWAP2 SWAP1 PUSH2 0x3B4A JUMP JUMPDEST SWAP1 POP DUP1 PUSH1 0x7 PUSH1 0x0 DUP3 DUP3 SLOAD PUSH2 0x1D08 SWAP2 SWAP1 PUSH2 0x3B4A JUMP JUMPDEST SWAP3 POP POP DUP2 SWAP1 SSTORE POP PUSH32 0x9EA3A4B65940D7B9DBF8BB1C459BA8E81222D1A596E93FBC364365A6D78E27D6 PUSH1 0x6 SLOAD DUP3 PUSH1 0x40 MLOAD PUSH2 0x1D42 SWAP3 SWAP2 SWAP1 PUSH2 0x35E5 JUMP JUMPDEST PUSH1 0x40 MLOAD DUP1 SWAP2 SUB SWAP1 LOG1 PUSH1 0x6 PUSH1 0x0 DUP2 SLOAD DUP1 SWAP3 SWAP2 SWAP1 PUSH2 0x1D5D SWAP1 PUSH2 0x3BEA JUMP JUMPDEST SWAP2 SWAP1 POP SSTORE POP PUSH1 0x4 SLOAD PUSH1 0x6 SLOAD SUB PUSH2 0x1D89 JUMPI PUSH1 0x1 PUSH1 0xD PUSH1 0x3 PUSH2 0x100 EXP DUP2 SLOAD DUP2 PUSH1 0xFF MUL NOT AND SWAP1 DUP4 ISZERO ISZERO MUL OR SWAP1 SSTORE POP JUMPDEST POP POP JUMP JUMPDEST PUSH1 0x0 PUSH1 0xD PUSH1 0x3 SWAP1 SLOAD SWAP1 PUSH2 0x100 EXP SWAP1 DIV PUSH1 0xFF AND SWAP1 POP SWAP1 JUMP JUMPDEST PUSH1 0xB SLOAD DUP2 JUMP JUMPDEST PUSH1 0x0 DUP1 SLOAD SWAP1 PUSH2 0x100 EXP SWAP1 DIV PUSH20 0xFFFFFFFFFFFFFFFFFFFFFFFFFFFFFFFFFFFFFFFF AND PUSH20 0xFFFFFFFFFFFFFFFFFFFFFFFFFFFFFFFFFFFFFFFF AND CALLER PUSH20 0xFFFFFFFFFFFFFFFFFFFFFFFFFFFFFFFFFFFFFFFF AND EQ PUSH2 0x1E38 JUMPI PUSH1 0x40 MLOAD PUSH32 0x8C379A000000000000000000000000000000000000000000000000000000000 DUP2 MSTORE PUSH1 0x4 ADD PUSH2 0x1E2F SWAP1 PUSH2 0x407C JUMP JUMPDEST PUSH1 0x40 MLOAD DUP1 SWAP2 SUB SWAP1 REVERT JUMPDEST PUSH1 0xD PUSH1 0x0 SWAP1 SLOAD SWAP1 PUSH2 0x100 EXP SWAP1 DIV PUSH1 0xFF AND ISZERO PUSH2 0x1E88 JUMPI PUSH1 0x40 MLOAD PUSH32 0x8C379A000000000000000000000000000000000000000000000000000000000 DUP2 MSTORE PUSH1 0x4 ADD PUSH2 0x1E7F SWAP1 PUSH2 0x380A JUMP JUMPDEST PUSH1 0x40 MLOAD DUP1 SWAP2 SUB SWAP1 REVERT JUMPDEST DUP3 PUSH1 0x2 DUP2 SWAP1 SSTORE POP DUP2 PUSH1 0x3 DUP2 SWAP1 SSTORE POP DUP1 PUSH1 0x4 DUP2 SWAP1 SSTORE POP PUSH32 0x2F47566D4872826A9750E05AE448AD21F2A677C332D36D6437B697A7F8DD1E14 DUP4 DUP4 DUP4 PUSH1 0x40 MLOAD PUSH2 0x1ED0 SWAP4 SWAP3 SWAP2 SWAP1 PUSH2 0x409C JUMP JUMPDEST PUSH1 0x40 MLOAD DUP1 SWAP2 SUB SWAP1 LOG1 POP POP POP JUMP JUMPDEST PUSH1 0xD PUSH1 0x6 SWAP1 SLOAD SWAP1 PUSH2 0x100 EXP SWAP1 DIV PUSH20 0xFFFFFFFFFFFFFFFFFFFFFFFFFFFFFFFFFFFFFFFF AND PUSH20 0xFFFFFFFFFFFFFFFFFFFFFFFFFFFFFFFFFFFFFFFF AND CALLER PUSH20 0xFFFFFFFFFFFFFFFFFFFFFFFFFFFFFFFFFFFFFFFF AND EQ PUSH2 0x1F6D JUMPI PUSH1 0x40 MLOAD PUSH32 0x8C379A000000000000000000000000000000000000000000000000000000000 DUP2 MSTORE PUSH1 0x4 ADD PUSH2 0x1F64 SWAP1 PUSH2 0x4145 JUMP JUMPDEST PUSH1 0x40 MLOAD DUP1 SWAP2 SUB SWAP1 REVERT JUMPDEST PUSH1 0xD PUSH1 0x2 SWAP1 SLOAD SWAP1 PUSH2 0x100 EXP SWAP1 DIV PUSH1 0xFF AND PUSH2 0x1FBC JUMPI PUSH1 0x40 MLOAD PUSH32 0x8C379A000000000000000000000000000000000000000000000000000000000 DUP2 MSTORE PUSH1 0x4 ADD PUSH2 0x1FB3 SWAP1 PUSH2 0x41B1 JUMP JUMPDEST PUSH1 0x40 MLOAD DUP1 SWAP2 SUB SWAP1 REVERT JUMPDEST PUSH1 0xA SLOAD DUP3 EQ PUSH2 0x2000 JUMPI PUSH1 0x40 MLOAD PUSH32 0x8C379A000000000000000000000000000000000000000000000000000000000 DUP2 MSTORE PUSH1 0x4 ADD PUSH2 0x1FF7 SWAP1 PUSH2 0x421D JUMP JUMPDEST PUSH1 0x40 MLOAD DUP1 SWAP2 SUB SWAP1 REVERT JUMPDEST PUSH1 0x0 PUSH1 0x1 DUP3 SUB PUSH2 0x2028 JUMPI PUSH1 0xB SLOAD PUSH1 0x8 SLOAD LT PUSH2 0x201D JUMPI PUSH1 0xB SLOAD PUSH2 0x2021 JUMP JUMPDEST PUSH1 0x8 SLOAD JUMPDEST SWAP1 POP PUSH2 0x2061 JUMP JUMPDEST PUSH1 0x2 DUP3 SUB PUSH2 0x204E JUMPI PUSH1 0xB SLOAD PUSH1 0x9 SLOAD LT PUSH2 0x2043 JUMPI PUSH1 0xB SLOAD PUSH2 0x2047 JUMP JUMPDEST PUSH1 0x9 SLOAD JUMPDEST SWAP1 POP PUSH2 0x2060 JUMP JUMPDEST PUSH1 0x2 PUSH1 0xB SLOAD PUSH2 0x205D SWAP2 SWAP1 PUSH2 0x426C JUMP JUMPDEST SWAP1 POP JUMPDEST JUMPDEST DUP1 PUSH1 0xF PUSH1 0x0 DUP1 PUSH1 0x0 SWAP1 SLOAD SWAP1 PUSH2 0x100 EXP SWAP1 DIV PUSH20 0xFFFFFFFFFFFFFFFFFFFFFFFFFFFFFFFFFFFFFFFF AND PUSH20 0xFFFFFFFFFFFFFFFFFFFFFFFFFFFFFFFFFFFFFFFF AND PUSH20 0xFFFFFFFFFFFFFFFFFFFFFFFFFFFFFFFFFFFFFFFF AND DUP2 MSTORE PUSH1 0x20 ADD SWAP1 DUP2 MSTORE PUSH1 0x20 ADD PUSH1 0x0 KECCAK256 PUSH1 0x0 DUP3 DUP3 SLOAD PUSH2 0x20D1 SWAP2 SWAP1 PUSH2 0x3B4A JUMP JUMPDEST SWAP3 POP POP DUP2 SWAP1 SSTORE POP DUP1 PUSH1 0xB SLOAD PUSH2 0x20E6 SWAP2 SWAP1 PUSH2 0x35B1 JUMP JUMPDEST PUSH1 0xF PUSH1 0x0 PUSH1 0x1 PUSH1 0x0 SWAP1 SLOAD SWAP1 PUSH2 0x100 EXP SWAP1 DIV PUSH20 0xFFFFFFFFFFFFFFFFFFFFFFFFFFFFFFFFFFFFFFFF AND PUSH20 0xFFFFFFFFFFFFFFFFFFFFFFFFFFFFFFFFFFFFFFFF AND PUSH20 0xFFFFFFFFFFFFFFFFFFFFFFFFFFFFFFFFFFFFFFFF AND DUP2 MSTORE PUSH1 0x20 ADD SWAP1 DUP2 MSTORE PUSH1 0x20 ADD PUSH1 0x0 KECCAK256 PUSH1 0x0 DUP3 DUP3 SLOAD PUSH2 0x2156 SWAP2 SWAP1 PUSH2 0x3B4A JUMP JUMPDEST SWAP3 POP POP DUP2 SWAP1 SSTORE POP PUSH1 0x0 PUSH1 0x2 PUSH1 0xC SLOAD PUSH2 0x216E SWAP2 SWAP1 PUSH2 0x426C JUMP JUMPDEST SWAP1 POP PUSH1 0x1 DUP4 SUB PUSH2 0x21F4 JUMPI DUP1 PUSH1 0xF PUSH1 0x0 DUP1 PUSH1 0x0 SWAP1 SLOAD SWAP1 PUSH2 0x100 EXP SWAP1 DIV PUSH20 0xFFFFFFFFFFFFFFFFFFFFFFFFFFFFFFFFFFFFFFFF AND PUSH20 0xFFFFFFFFFFFFFFFFFFFFFFFFFFFFFFFFFFFFFFFF AND PUSH20 0xFFFFFFFFFFFFFFFFFFFFFFFFFFFFFFFFFFFFFFFF AND DUP2 MSTORE PUSH1 0x20 ADD SWAP1 DUP2 MSTORE PUSH1 0x20 ADD PUSH1 0x0 KECCAK256 PUSH1 0x0 DUP3 DUP3 SLOAD PUSH2 0x21E8 SWAP2 SWAP1 PUSH2 0x3B4A JUMP JUMPDEST SWAP3 POP POP DUP2 SWAP1 SSTORE POP PUSH2 0x2382 JUMP JUMPDEST PUSH1 0x2 DUP4 SUB PUSH2 0x2279 JUMPI DUP1 PUSH1 0xF PUSH1 0x0 PUSH1 0x1 PUSH1 0x0 SWAP1 SLOAD SWAP1 PUSH2 0x100 EXP SWAP1 DIV PUSH20 0xFFFFFFFFFFFFFFFFFFFFFFFFFFFFFFFFFFFFFFFF AND PUSH20 0xFFFFFFFFFFFFFFFFFFFFFFFFFFFFFFFFFFFFFFFF AND PUSH20 0xFFFFFFFFFFFFFFFFFFFFFFFFFFFFFFFFFFFFFFFF AND DUP2 MSTORE PUSH1 0x20 ADD SWAP1 DUP2 MSTORE PUSH1 0x20 ADD PUSH1 0x0 KECCAK256 PUSH1 0x0 DUP3 DUP3 SLOAD PUSH2 0x226D SWAP2 SWAP1 PUSH2 0x3B4A JUMP JUMPDEST SWAP3 POP POP DUP2 SWAP1 SSTORE POP PUSH2 0x2381 JUMP JUMPDEST PUSH1 0x2 DUP2 PUSH2 0x2286 SWAP2 SWAP1 PUSH2 0x426C JUMP JUMPDEST PUSH1 0xF PUSH1 0x0 DUP1 PUSH1 0x0 SWAP1 SLOAD SWAP1 PUSH2 0x100 EXP SWAP1 DIV PUSH20 0xFFFFFFFFFFFFFFFFFFFFFFFFFFFFFFFFFFFFFFFF AND PUSH20 0xFFFFFFFFFFFFFFFFFFFFFFFFFFFFFFFFFFFFFFFF AND PUSH20 0xFFFFFFFFFFFFFFFFFFFFFFFFFFFFFFFFFFFFFFFF AND DUP2 MSTORE PUSH1 0x20 ADD SWAP1 DUP2 MSTORE PUSH1 0x20 ADD PUSH1 0x0 KECCAK256 PUSH1 0x0 DUP3 DUP3 SLOAD PUSH2 0x22F5 SWAP2 SWAP1 PUSH2 0x3B4A JUMP JUMPDEST SWAP3 POP POP DUP2 SWAP1 SSTORE POP PUSH1 0x2 DUP2 PUSH2 0x2309 SWAP2 SWAP1 PUSH2 0x426C JUMP JUMPDEST PUSH1 0xF PUSH1 0x0 PUSH1 0x1 PUSH1 0x0 SWAP1 SLOAD SWAP1 PUSH2 0x100 EXP SWAP1 DIV PUSH20 0xFFFFFFFFFFFFFFFFFFFFFFFFFFFFFFFFFFFFFFFF AND PUSH20 0xFFFFFFFFFFFFFFFFFFFFFFFFFFFFFFFFFFFFFFFF AND PUSH20 0xFFFFFFFFFFFFFFFFFFFFFFFFFFFFFFFFFFFFFFFF AND DUP2 MSTORE PUSH1 0x20 ADD SWAP1 DUP2 MSTORE PUSH1 0x20 ADD PUSH1 0x0 KECCAK256 PUSH1 0x0 DUP3 DUP3 SLOAD PUSH2 0x2379 SWAP2 SWAP1 PUSH2 0x3B4A JUMP JUMPDEST SWAP3 POP POP DUP2 SWAP1 SSTORE POP JUMPDEST JUMPDEST PUSH1 0x1 PUSH1 0x0 SWAP1 SLOAD SWAP1 PUSH2 0x100 EXP SWAP1 DIV PUSH20 0xFFFFFFFFFFFFFFFFFFFFFFFFFFFFFFFFFFFFFFFF AND PUSH20 0xFFFFFFFFFFFFFFFFFFFFFFFFFFFFFFFFFFFFFFFF AND PUSH1 0x0 DUP1 SLOAD SWAP1 PUSH2 0x100 EXP SWAP1 DIV PUSH20 0xFFFFFFFFFFFFFFFFFFFFFFFFFFFFFFFFFFFFFFFF AND PUSH20 0xFFFFFFFFFFFFFFFFFFFFFFFFFFFFFFFFFFFFFFFF AND PUSH32 0xCC2C3F002C6146160E9EB8ADE8202F88F3D01AA0FBBC98E7582F7280AF10651F PUSH1 0xF PUSH1 0x0 DUP1 PUSH1 0x0 SWAP1 SLOAD SWAP1 PUSH2 0x100 EXP SWAP1 DIV PUSH20 0xFFFFFFFFFFFFFFFFFFFFFFFFFFFFFFFFFFFFFFFF AND PUSH20 0xFFFFFFFFFFFFFFFFFFFFFFFFFFFFFFFFFFFFFFFF AND PUSH20 0xFFFFFFFFFFFFFFFFFFFFFFFFFFFFFFFFFFFFFFFF AND DUP2 MSTORE PUSH1 0x20 ADD SWAP1 DUP2 MSTORE PUSH1 0x20 ADD PUSH1 0x0 KECCAK256 SLOAD PUSH1 0xF PUSH1 0x0 PUSH1 0x1 PUSH1 0x0 SWAP1 SLOAD SWAP1 PUSH2 0x100 EXP SWAP1 DIV PUSH20 0xFFFFFFFFFFFFFFFFFFFFFFFFFFFFFFFFFFFFFFFF AND PUSH20 0xFFFFFFFFFFFFFFFFFFFFFFFFFFFFFFFFFFFFFFFF AND PUSH20 0xFFFFFFFFFFFFFFFFFFFFFFFFFFFFFFFFFFFFFFFF AND DUP2 MSTORE PUSH1 0x20 ADD SWAP1 DUP2 MSTORE PUSH1 0x20 ADD PUSH1 0x0 KECCAK256 SLOAD PUSH1 0x40 MLOAD PUSH2 0x24E4 SWAP3 SWAP2 SWAP1 PUSH2 0x35E5 JUMP JUMPDEST PUSH1 0x40 MLOAD DUP1 SWAP2 SUB SWAP1 LOG3 PUSH1 0x0 PUSH1 0xD PUSH1 0x2 PUSH2 0x100 EXP DUP2 SLOAD DUP2 PUSH1 0xFF MUL NOT AND SWAP1 DUP4 ISZERO ISZERO MUL OR SWAP1 SSTORE POP PUSH32 0xB4121F1F91A696A3FC75F6D151F3C9865ABFFA0738BDA595E71C381C02AF2FAA DUP5 DUP5 PUSH1 0x40 MLOAD PUSH2 0x2538 SWAP3 SWAP2 SWAP1 PUSH2 0x35E5 JUMP JUMPDEST PUSH1 0x40 MLOAD DUP1 SWAP2 SUB SWAP1 LOG1 PUSH2 0x2548 PUSH2 0x2D25 JUMP JUMPDEST POP POP POP POP JUMP JUMPDEST PUSH1 0x0 DUP1 SLOAD SWAP1 PUSH2 0x100 EXP SWAP1 DIV PUSH20 0xFFFFFFFFFFFFFFFFFFFFFFFFFFFFFFFFFFFFFFFF AND DUP2 JUMP JUMPDEST PUSH1 0x1 PUSH1 0x0 SWAP1 SLOAD SWAP1 PUSH2 0x100 EXP SWAP1 DIV PUSH20 0xFFFFFFFFFFFFFFFFFFFFFFFFFFFFFFFFFFFFFFFF AND PUSH20 0xFFFFFFFFFFFFFFFFFFFFFFFFFFFFFFFFFFFFFFFF AND CALLER PUSH20 0xFFFFFFFFFFFFFFFFFFFFFFFFFFFFFFFFFFFFFFFF AND EQ PUSH2 0x2602 JUMPI PUSH1 0x40 MLOAD PUSH32 0x8C379A000000000000000000000000000000000000000000000000000000000 DUP2 MSTORE PUSH1 0x4 ADD PUSH2 0x25F9 SWAP1 PUSH2 0x430F JUMP JUMPDEST PUSH1 0x40 MLOAD DUP1 SWAP2 SUB SWAP1 REVERT JUMPDEST PUSH1 0xD PUSH1 0x4 SWAP1 SLOAD SWAP1 PUSH2 0x100 EXP SWAP1 DIV PUSH1 0xFF AND PUSH2 0x2651 JUMPI PUSH1 0x40 MLOAD PUSH32 0x8C379A000000000000000000000000000000000000000000000000000000000 DUP2 MSTORE PUSH1 0x4 ADD PUSH2 0x2648 SWAP1 PUSH2 0x3EC6 JUMP JUMPDEST PUSH1 0x40 MLOAD DUP1 SWAP2 SUB SWAP1 REVERT JUMPDEST PUSH32 0x214F96452FC3FDFD5EEAFDA7F5DF5B6066F4F8AC1295FB53CD051491B9B56DA3 PUSH1 0x40 MLOAD PUSH1 0x40 MLOAD DUP1 SWAP2 SUB SWAP1 LOG1 JUMP JUMPDEST PUSH1 0x1 PUSH1 0x0 SWAP1 SLOAD SWAP1 PUSH2 0x100 EXP SWAP1 DIV PUSH20 0xFFFFFFFFFFFFFFFFFFFFFFFFFFFFFFFFFFFFFFFF AND PUSH20 0xFFFFFFFFFFFFFFFFFFFFFFFFFFFFFFFFFFFFFFFF AND CALLER PUSH20 0xFFFFFFFFFFFFFFFFFFFFFFFFFFFFFFFFFFFFFFFF AND EQ PUSH2 0x270F JUMPI PUSH1 0x40 MLOAD PUSH32 0x8C379A000000000000000000000000000000000000000000000000000000000 DUP2 MSTORE PUSH1 0x4 ADD PUSH2 0x2706 SWAP1 PUSH2 0x43A1 JUMP JUMPDEST PUSH1 0x40 MLOAD DUP1 SWAP2 SUB SWAP1 REVERT JUMPDEST PUSH1 0xD PUSH1 0x4 SWAP1 SLOAD SWAP1 PUSH2 0x100 EXP SWAP1 DIV PUSH1 0xFF AND PUSH2 0x275E JUMPI PUSH1 0x40 MLOAD PUSH32 0x8C379A000000000000000000000000000000000000000000000000000000000 DUP2 MSTORE PUSH1 0x4 ADD PUSH2 0x2755 SWAP1 PUSH2 0x3EC6 JUMP JUMPDEST PUSH1 0x40 MLOAD DUP1 SWAP2 SUB SWAP1 REVERT JUMPDEST PUSH1 0x0 PUSH1 0xB SLOAD PUSH1 0x8 SLOAD LT PUSH2 0x2773 JUMPI PUSH1 0xB SLOAD PUSH2 0x2777 JUMP JUMPDEST PUSH1 0x8 SLOAD JUMPDEST SWAP1 POP DUP1 PUSH1 0xF PUSH1 0x0 DUP1 PUSH1 0x0 SWAP1 SLOAD SWAP1 PUSH2 0x100 EXP SWAP1 DIV PUSH20 0xFFFFFFFFFFFFFFFFFFFFFFFFFFFFFFFFFFFFFFFF AND PUSH20 0xFFFFFFFFFFFFFFFFFFFFFFFFFFFFFFFFFFFFFFFF AND PUSH20 0xFFFFFFFFFFFFFFFFFFFFFFFFFFFFFFFFFFFFFFFF AND DUP2 MSTORE PUSH1 0x20 ADD SWAP1 DUP2 MSTORE PUSH1 0x20 ADD PUSH1 0x0 KECCAK256 PUSH1 0x0 DUP3 DUP3 SLOAD PUSH2 0x27E9 SWAP2 SWAP1 PUSH2 0x3B4A JUMP JUMPDEST SWAP3 POP POP DUP2 SWAP1 SSTORE POP DUP1 PUSH1 0xB SLOAD PUSH2 0x27FE SWAP2 SWAP1 PUSH2 0x35B1 JUMP JUMPDEST PUSH1 0xF PUSH1 0x0 PUSH1 0x1 PUSH1 0x0 SWAP1 SLOAD SWAP1 PUSH2 0x100 EXP SWAP1 DIV PUSH20 0xFFFFFFFFFFFFFFFFFFFFFFFFFFFFFFFFFFFFFFFF AND PUSH20 0xFFFFFFFFFFFFFFFFFFFFFFFFFFFFFFFFFFFFFFFF AND PUSH20 0xFFFFFFFFFFFFFFFFFFFFFFFFFFFFFFFFFFFFFFFF AND DUP2 MSTORE PUSH1 0x20 ADD SWAP1 DUP2 MSTORE PUSH1 0x20 ADD PUSH1 0x0 KECCAK256 PUSH1 0x0 DUP3 DUP3 SLOAD PUSH2 0x286E SWAP2 SWAP1 PUSH2 0x3B4A JUMP JUMPDEST SWAP3 POP POP DUP2 SWAP1 SSTORE POP PUSH1 0x0 DUP1 SLOAD SWAP1 PUSH2 0x100 EXP SWAP1 DIV PUSH20 0xFFFFFFFFFFFFFFFFFFFFFFFFFFFFFFFFFFFFFFFF AND PUSH20 0xFFFFFFFFFFFFFFFFFFFFFFFFFFFFFFFFFFFFFFFF AND PUSH32 0xE670E4E82118D22A1F9EE18920455EBC958BAE26A90A05D31D3378788B1B0E44 DUP3 PUSH1 0x40 MLOAD PUSH2 0x28DB SWAP2 SWAP1 PUSH2 0x2F23 JUMP JUMPDEST PUSH1 0x40 MLOAD DUP1 SWAP2 SUB SWAP1 LOG2 PUSH1 0x1 PUSH1 0x0 SWAP1 SLOAD SWAP1 PUSH2 0x100 EXP SWAP1 DIV PUSH20 0xFFFFFFFFFFFFFFFFFFFFFFFFFFFFFFFFFFFFFFFF AND PUSH20 0xFFFFFFFFFFFFFFFFFFFFFFFFFFFFFFFFFFFFFFFF AND PUSH32 0xE670E4E82118D22A1F9EE18920455EBC958BAE26A90A05D31D3378788B1B0E44 DUP3 PUSH1 0xB SLOAD PUSH2 0x294B SWAP2 SWAP1 PUSH2 0x35B1 JUMP JUMPDEST PUSH1 0x40 MLOAD PUSH2 0x2958 SWAP2 SWAP1 PUSH2 0x2F23 JUMP JUMPDEST PUSH1 0x40 MLOAD DUP1 SWAP2 SUB SWAP1 LOG2 PUSH2 0x2968 PUSH2 0x2D25 JUMP JUMPDEST POP JUMP JUMPDEST PUSH1 0xE PUSH1 0x20 MSTORE DUP1 PUSH1 0x0 MSTORE PUSH1 0x40 PUSH1 0x0 KECCAK256 PUSH1 0x0 SWAP2 POP SWAP1 POP DUP1 PUSH1 0x0 ADD SLOAD SWAP1 DUP1 PUSH1 0x1 ADD SLOAD SWAP1 DUP1 PUSH1 0x2 ADD SLOAD SWAP1 DUP1 PUSH1 0x3 ADD PUSH1 0x0 SWAP1 SLOAD SWAP1 PUSH2 0x100 EXP SWAP1 DIV PUSH1 0xFF AND SWAP1 POP DUP5 JUMP JUMPDEST PUSH1 0x0 DUP1 SLOAD SWAP1 PUSH2 0x100 EXP SWAP1 DIV PUSH20 0xFFFFFFFFFFFFFFFFFFFFFFFFFFFFFFFFFFFFFFFF AND PUSH20 0xFFFFFFFFFFFFFFFFFFFFFFFFFFFFFFFFFFFFFFFF AND CALLER PUSH20 0xFFFFFFFFFFFFFFFFFFFFFFFFFFFFFFFFFFFFFFFF AND EQ PUSH2 0x2A36 JUMPI PUSH1 0x40 MLOAD PUSH32 0x8C379A000000000000000000000000000000000000000000000000000000000 DUP2 MSTORE PUSH1 0x4 ADD PUSH2 0x2A2D SWAP1 PUSH2 0x4433 JUMP JUMPDEST PUSH1 0x40 MLOAD DUP1 SWAP2 SUB SWAP1 REVERT JUMPDEST PUSH1 0xD PUSH1 0x5 SWAP1 SLOAD SWAP1 PUSH2 0x100 EXP SWAP1 DIV PUSH1 0xFF AND PUSH2 0x2A85 JUMPI PUSH1 0x40 MLOAD PUSH32 0x8C379A000000000000000000000000000000000000000000000000000000000 DUP2 MSTORE PUSH1 0x4 ADD PUSH2 0x2A7C SWAP1 PUSH2 0x348E JUMP JUMPDEST PUSH1 0x40 MLOAD DUP1 SWAP2 SUB SWAP1 REVERT JUMPDEST PUSH1 0x0 PUSH1 0xB SLOAD PUSH1 0x9 SLOAD LT PUSH2 0x2A9A JUMPI PUSH1 0xB SLOAD PUSH2 0x2A9E JUMP JUMPDEST PUSH1 0x9 SLOAD JUMPDEST SWAP1 POP DUP1 PUSH1 0xF PUSH1 0x0 DUP1 PUSH1 0x0 SWAP1 SLOAD SWAP1 PUSH2 0x100 EXP SWAP1 DIV PUSH20 0xFFFFFFFFFFFFFFFFFFFFFFFFFFFFFFFFFFFFFFFF AND PUSH20 0xFFFFFFFFFFFFFFFFFFFFFFFFFFFFFFFFFFFFFFFF AND PUSH20 0xFFFFFFFFFFFFFFFFFFFFFFFFFFFFFFFFFFFFFFFF AND DUP2 MSTORE PUSH1 0x20 ADD SWAP1 DUP2 MSTORE PUSH1 0x20 ADD PUSH1 0x0 KECCAK256 PUSH1 0x0 DUP3 DUP3 SLOAD PUSH2 0x2B10 SWAP2 SWAP1 PUSH2 0x3B4A JUMP JUMPDEST SWAP3 POP POP DUP2 SWAP1 SSTORE POP DUP1 PUSH1 0xB SLOAD PUSH2 0x2B25 SWAP2 SWAP1 PUSH2 0x35B1 JUMP JUMPDEST PUSH1 0xF PUSH1 0x0 PUSH1 0x1 PUSH1 0x0 SWAP1 SLOAD SWAP1 PUSH2 0x100 EXP SWAP1 DIV PUSH20 0xFFFFFFFFFFFFFFFFFFFFFFFFFFFFFFFFFFFFFFFF AND PUSH20 0xFFFFFFFFFFFFFFFFFFFFFFFFFFFFFFFFFFFFFFFF AND PUSH20 0xFFFFFFFFFFFFFFFFFFFFFFFFFFFFFFFFFFFFFFFF AND DUP2 MSTORE PUSH1 0x20 ADD SWAP1 DUP2 MSTORE PUSH1 0x20 ADD PUSH1 0x0 KECCAK256 PUSH1 0x0 DUP3 DUP3 SLOAD PUSH2 0x2B95 SWAP2 SWAP1 PUSH2 0x3B4A JUMP JUMPDEST SWAP3 POP POP DUP2 SWAP1 SSTORE POP PUSH1 0x0 DUP1 SLOAD SWAP1 PUSH2 0x100 EXP SWAP1 DIV PUSH20 0xFFFFFFFFFFFFFFFFFFFFFFFFFFFFFFFFFFFFFFFF AND PUSH20 0xFFFFFFFFFFFFFFFFFFFFFFFFFFFFFFFFFFFFFFFF AND PUSH32 0xE670E4E82118D22A1F9EE18920455EBC958BAE26A90A05D31D3378788B1B0E44 DUP3 PUSH1 0x40 MLOAD PUSH2 0x2C02 SWAP2 SWAP1 PUSH2 0x2F23 JUMP JUMPDEST PUSH1 0x40 MLOAD DUP1 SWAP2 SUB SWAP1 LOG2 PUSH1 0x1 PUSH1 0x0 SWAP1 SLOAD SWAP1 PUSH2 0x100 EXP SWAP1 DIV PUSH20 0xFFFFFFFFFFFFFFFFFFFFFFFFFFFFFFFFFFFFFFFF AND PUSH20 0xFFFFFFFFFFFFFFFFFFFFFFFFFFFFFFFFFFFFFFFF AND PUSH32 0xE670E4E82118D22A1F9EE18920455EBC958BAE26A90A05D31D3378788B1B0E44 DUP3 PUSH1 0xB SLOAD PUSH2 0x2C72 SWAP2 SWAP1 PUSH2 0x35B1 JUMP JUMPDEST PUSH1 0x40 MLOAD PUSH2 0x2C7F SWAP2 SWAP1 PUSH2 0x2F23 JUMP JUMPDEST PUSH1 0x40 MLOAD DUP1 SWAP2 SUB SWAP1 LOG2 PUSH2 0x2C8F PUSH2 0x2D25 JUMP JUMPDEST POP JUMP JUMPDEST PUSH1 0xD PUSH1 0x1 SWAP1 SLOAD SWAP1 PUSH2 0x100 EXP SWAP1 DIV PUSH1 0xFF AND DUP2 JUMP JUMPDEST PUSH1 0xF PUSH1 0x20 MSTORE DUP1 PUSH1 0x0 MSTORE PUSH1 0x40 PUSH1 0x0 KECCAK256 PUSH1 0x0 SWAP2 POP SWAP1 POP SLOAD DUP2 JUMP JUMPDEST PUSH1 0x0 PUSH1 0xF PUSH1 0x0 DUP1 PUSH1 0x0 SWAP1 SLOAD SWAP1 PUSH2 0x100 EXP SWAP1 DIV PUSH20 0xFFFFFFFFFFFFFFFFFFFFFFFFFFFFFFFFFFFFFFFF AND PUSH20 0xFFFFFFFFFFFFFFFFFFFFFFFFFFFFFFFFFFFFFFFF AND PUSH20 0xFFFFFFFFFFFFFFFFFFFFFFFFFFFFFFFFFFFFFFFF AND DUP2 MSTORE PUSH1 0x20 ADD SWAP1 DUP2 MSTORE PUSH1 0x20 ADD PUSH1 0x0 KECCAK256 SLOAD SWAP1 POP SWAP1 JUMP JUMPDEST PUSH1 0xD PUSH1 0x0 SWAP1 SLOAD SWAP1 PUSH2 0x100 EXP SWAP1 DIV PUSH1 0xFF AND PUSH2 0x2D74 JUMPI PUSH1 0x40 MLOAD PUSH32 0x8C379A000000000000000000000000000000000000000000000000000000000 DUP2 MSTORE PUSH1 0x4 ADD PUSH2 0x2D6B SWAP1 PUSH2 0x336A JUMP JUMPDEST PUSH1 0x40 MLOAD DUP1 SWAP2 SUB SWAP1 REVERT JUMPDEST PUSH1 0xD PUSH1 0x3 SWAP1 SLOAD SWAP1 PUSH2 0x100 EXP SWAP1 DIV PUSH1 0xFF AND PUSH2 0x2DC3 JUMPI PUSH1 0x40 MLOAD PUSH32 0x8C379A000000000000000000000000000000000000000000000000000000000 DUP2 MSTORE PUSH1 0x4 ADD PUSH2 0x2DBA SWAP1 PUSH2 0x449F JUMP JUMPDEST PUSH1 0x40 MLOAD DUP1 SWAP2 SUB SWAP1 REVERT JUMPDEST PUSH1 0xD PUSH1 0x2 SWAP1 SLOAD SWAP1 PUSH2 0x100 EXP SWAP1 DIV PUSH1 0xFF AND ISZERO PUSH2 0x2E13 JUMPI PUSH1 0x40 MLOAD PUSH32 0x8C379A000000000000000000000000000000000000000000000000000000000 DUP2 MSTORE PUSH1 0x4 ADD PUSH2 0x2E0A SWAP1 PUSH2 0x4531 JUMP JUMPDEST PUSH1 0x40 MLOAD DUP1 SWAP2 SUB SWAP1 REVERT JUMPDEST PUSH1 0x0 PUSH1 0xD PUSH1 0x0 PUSH2 0x100 EXP DUP2 SLOAD DUP2 PUSH1 0xFF MUL NOT AND SWAP1 DUP4 ISZERO ISZERO MUL OR SWAP1 SSTORE POP PUSH1 0x0 PUSH1 0x7 SLOAD SWAP1 POP PUSH32 0xC0590C5A8CE79DFFBDDE17480A06203778F954965615E1D9577DBC90DA2FF109 PUSH1 0xB SLOAD DUP3 PUSH1 0x40 MLOAD PUSH2 0x2E68 SWAP3 SWAP2 SWAP1 PUSH2 0x35E5 JUMP JUMPDEST PUSH1 0x40 MLOAD DUP1 SWAP2 SUB SWAP1 LOG1 PUSH1 0x0 PUSH1 0xB DUP2 SWAP1 SSTORE POP PUSH1 0x0 PUSH1 0x7 DUP2 SWAP1 SSTORE POP PUSH1 0x0 PUSH1 0xD PUSH1 0x3 PUSH2 0x100 EXP DUP2 SLOAD DUP2 PUSH1 0xFF MUL NOT AND SWAP1 DUP4 ISZERO ISZERO MUL OR SWAP1 SSTORE POP PUSH1 0x0 PUSH1 0xD PUSH1 0x4 PUSH2 0x100 EXP DUP2 SLOAD DUP2 PUSH1 0xFF MUL NOT AND SWAP1 DUP4 ISZERO ISZERO MUL OR SWAP1 SSTORE POP PUSH1 0x0 PUSH1 0xD PUSH1 0x5 PUSH2 0x100 EXP DUP2 SLOAD DUP2 PUSH1 0xFF MUL NOT AND SWAP1 DUP4 ISZERO ISZERO MUL OR SWAP1 SSTORE POP POP JUMP JUMPDEST PUSH1 0x0 DUP2 ISZERO ISZERO SWAP1 POP SWAP2 SWAP1 POP JUMP JUMPDEST PUSH2 0x2EE9 DUP2 PUSH2 0x2ED4 JUMP JUMPDEST DUP3 MSTORE POP POP JUMP JUMPDEST PUSH1 0x0 PUSH1 0x20 DUP3 ADD SWAP1 POP PUSH2 0x2F04 PUSH1 0x0 DUP4 ADD DUP5 PUSH2 0x2EE0 JUMP JUMPDEST SWAP3 SWAP2 POP POP JUMP JUMPDEST PUSH1 0x0 DUP2 SWAP1 POP SWAP2 SWAP1 POP JUMP JUMPDEST PUSH2 0x2F1D DUP2 PUSH2 0x2F0A JUMP JUMPDEST DUP3 MSTORE POP POP JUMP JUMPDEST PUSH1 0x0 PUSH1 0x20 DUP3 ADD SWAP1 POP PUSH2 0x2F38 PUSH1 0x0 DUP4 ADD DUP5 PUSH2 0x2F14 JUMP JUMPDEST SWAP3 SWAP2 POP POP JUMP JUMPDEST PUSH1 0x0 DUP1 REVERT JUMPDEST PUSH2 0x2F4C DUP2 PUSH2 0x2F0A JUMP JUMPDEST DUP2 EQ PUSH2 0x2F57 JUMPI PUSH1 0x0 DUP1 REVERT JUMPDEST POP JUMP JUMPDEST PUSH1 0x0 DUP2 CALLDATALOAD SWAP1 POP PUSH2 0x2F69 DUP2 PUSH2 0x2F43 JUMP JUMPDEST SWAP3 SWAP2 POP POP JUMP JUMPDEST PUSH1 0x0 PUSH1 0x20 DUP3 DUP5 SUB SLT ISZERO PUSH2 0x2F85 JUMPI PUSH2 0x2F84 PUSH2 0x2F3E JUMP JUMPDEST JUMPDEST PUSH1 0x0 PUSH2 0x2F93 DUP5 DUP3 DUP6 ADD PUSH2 0x2F5A JUMP JUMPDEST SWAP2 POP POP SWAP3 SWAP2 POP POP JUMP JUMPDEST PUSH1 0x0 PUSH20 0xFFFFFFFFFFFFFFFFFFFFFFFFFFFFFFFFFFFFFFFF DUP3 AND SWAP1 POP SWAP2 SWAP1 POP JUMP JUMPDEST PUSH1 0x0 PUSH2 0x2FC7 DUP3 PUSH2 0x2F9C JUMP JUMPDEST SWAP1 POP SWAP2 SWAP1 POP JUMP JUMPDEST PUSH2 0x2FD7 DUP2 PUSH2 0x2FBC JUMP JUMPDEST DUP3 MSTORE POP POP JUMP JUMPDEST PUSH1 0x0 PUSH1 0x20 DUP3 ADD SWAP1 POP PUSH2 0x2FF2 PUSH1 0x0 DUP4 ADD DUP5 PUSH2 0x2FCE JUMP JUMPDEST SWAP3 SWAP2 POP POP JUMP JUMPDEST PUSH1 0x0 DUP2 SWAP1 POP SWAP2 SWAP1 POP JUMP JUMPDEST PUSH1 0x0 PUSH2 0x301D PUSH2 0x3018 PUSH2 0x3013 DUP5 PUSH2 0x2F9C JUMP JUMPDEST PUSH2 0x2FF8 JUMP JUMPDEST PUSH2 0x2F9C JUMP JUMPDEST SWAP1 POP SWAP2 SWAP1 POP JUMP JUMPDEST PUSH1 0x0 PUSH2 0x302F DUP3 PUSH2 0x3002 JUMP JUMPDEST SWAP1 POP SWAP2 SWAP1 POP JUMP JUMPDEST PUSH1 0x0 PUSH2 0x3041 DUP3 PUSH2 0x3024 JUMP JUMPDEST SWAP1 POP SWAP2 SWAP1 POP JUMP JUMPDEST PUSH2 0x3051 DUP2 PUSH2 0x3036 JUMP JUMPDEST DUP3 MSTORE POP POP JUMP JUMPDEST PUSH1 0x0 PUSH1 0x20 DUP3 ADD SWAP1 POP PUSH2 0x306C PUSH1 0x0 DUP4 ADD DUP5 PUSH2 0x3048 JUMP JUMPDEST SWAP3 SWAP2 POP POP JUMP JUMPDEST PUSH1 0x0 DUP1 PUSH1 0x0 PUSH1 0x60 DUP5 DUP7 SUB SLT ISZERO PUSH2 0x308B JUMPI PUSH2 0x308A PUSH2 0x2F3E JUMP JUMPDEST JUMPDEST PUSH1 0x0 PUSH2 0x3099 DUP7 DUP3 DUP8 ADD PUSH2 0x2F5A JUMP JUMPDEST SWAP4 POP POP PUSH1 0x20 PUSH2 0x30AA DUP7 DUP3 DUP8 ADD PUSH2 0x2F5A JUMP JUMPDEST SWAP3 POP POP PUSH1 0x40 PUSH2 0x30BB DUP7 DUP3 DUP8 ADD PUSH2 0x2F5A JUMP JUMPDEST SWAP2 POP POP SWAP3 POP SWAP3 POP SWAP3 JUMP JUMPDEST PUSH1 0x0 DUP1 PUSH1 0x40 DUP4 DUP6 SUB SLT ISZERO PUSH2 0x30DC JUMPI PUSH2 0x30DB PUSH2 0x2F3E JUMP JUMPDEST JUMPDEST PUSH1 0x0 PUSH2 0x30EA DUP6 DUP3 DUP7 ADD PUSH2 0x2F5A JUMP JUMPDEST SWAP3 POP POP PUSH1 0x20 PUSH2 0x30FB DUP6 DUP3 DUP7 ADD PUSH2 0x2F5A JUMP JUMPDEST SWAP2 POP POP SWAP3 POP SWAP3 SWAP1 POP JUMP JUMPDEST PUSH1 0x0 PUSH1 0x80 DUP3 ADD SWAP1 POP PUSH2 0x311A PUSH1 0x0 DUP4 ADD DUP8 PUSH2 0x2F14 JUMP JUMPDEST PUSH2 0x3127 PUSH1 0x20 DUP4 ADD DUP7 PUSH2 0x2F14 JUMP JUMPDEST PUSH2 0x3134 PUSH1 0x40 DUP4 ADD DUP6 PUSH2 0x2F14 JUMP JUMPDEST PUSH2 0x3141 PUSH1 0x60 DUP4 ADD DUP5 PUSH2 0x2EE0 JUMP JUMPDEST SWAP6 SWAP5 POP POP POP POP POP JUMP JUMPDEST PUSH2 0x3153 DUP2 PUSH2 0x2FBC JUMP JUMPDEST DUP2 EQ PUSH2 0x315E JUMPI PUSH1 0x0 DUP1 REVERT JUMPDEST POP JUMP JUMPDEST PUSH1 0x0 DUP2 CALLDATALOAD SWAP1 POP PUSH2 0x3170 DUP2 PUSH2 0x314A JUMP JUMPDEST SWAP3 SWAP2 POP POP JUMP JUMPDEST PUSH1 0x0 PUSH1 0x20 DUP3 DUP5 SUB SLT ISZERO PUSH2 0x318C JUMPI PUSH2 0x318B PUSH2 0x2F3E JUMP JUMPDEST JUMPDEST PUSH1 0x0 PUSH2 0x319A DUP5 DUP3 DUP6 ADD PUSH2 0x3161 JUMP JUMPDEST SWAP2 POP POP SWAP3 SWAP2 POP POP JUMP JUMPDEST PUSH1 0x0 DUP3 DUP3 MSTORE PUSH1 0x20 DUP3 ADD SWAP1 POP SWAP3 SWAP2 POP POP JUMP JUMPDEST PUSH32 0x4F6E6C79206C616E646C6F72642063616E20736574207468652064616D616765 PUSH1 0x0 DUP3 ADD MSTORE PUSH32 0x20657374696D6174650000000000000000000000000000000000000000000000 PUSH1 0x20 DUP3 ADD MSTORE POP JUMP JUMPDEST PUSH1 0x0 PUSH2 0x3210 PUSH1 0x29 DUP4 PUSH2 0x31A3 JUMP JUMPDEST SWAP2 POP PUSH2 0x321B DUP3 PUSH2 0x31B4 JUMP JUMPDEST PUSH1 0x40 DUP3 ADD SWAP1 POP SWAP2 SWAP1 POP JUMP JUMPDEST PUSH1 0x0 PUSH1 0x20 DUP3 ADD SWAP1 POP DUP2 DUP2 SUB PUSH1 0x0 DUP4 ADD MSTORE PUSH2 0x323F DUP2 PUSH2 0x3203 JUMP JUMPDEST SWAP1 POP SWAP2 SWAP1 POP JUMP JUMPDEST PUSH32 0x52656E7420706572696F6420686173206E6F7420656E64656420796574000000 PUSH1 0x0 DUP3 ADD MSTORE POP JUMP JUMPDEST PUSH1 0x0 PUSH2 0x327C PUSH1 0x1D DUP4 PUSH2 0x31A3 JUMP JUMPDEST SWAP2 POP PUSH2 0x3287 DUP3 PUSH2 0x3246 JUMP JUMPDEST PUSH1 0x20 DUP3 ADD SWAP1 POP SWAP2 SWAP1 POP JUMP JUMPDEST PUSH1 0x0 PUSH1 0x20 DUP3 ADD SWAP1 POP DUP2 DUP2 SUB PUSH1 0x0 DUP4 ADD MSTORE PUSH2 0x32AB DUP2 PUSH2 0x326F JUMP JUMPDEST SWAP1 POP SWAP2 SWAP1 POP JUMP JUMPDEST PUSH32 0x44616D61676520657374696D61746520616C7265616479207365740000000000 PUSH1 0x0 DUP3 ADD MSTORE POP JUMP JUMPDEST PUSH1 0x0 PUSH2 0x32E8 PUSH1 0x1B DUP4 PUSH2 0x31A3 JUMP JUMPDEST SWAP2 POP PUSH2 0x32F3 DUP3 PUSH2 0x32B2 JUMP JUMPDEST PUSH1 0x20 DUP3 ADD SWAP1 POP SWAP2 SWAP1 POP JUMP JUMPDEST PUSH1 0x0 PUSH1 0x20 DUP3 ADD SWAP1 POP DUP2 DUP2 SUB PUSH1 0x0 DUP4 ADD MSTORE PUSH2 0x3317 DUP2 PUSH2 0x32DB JUMP JUMPDEST SWAP1 POP SWAP2 SWAP1 POP JUMP JUMPDEST PUSH32 0x436F6E7472616374206973206E6F742061637469766500000000000000000000 PUSH1 0x0 DUP3 ADD MSTORE POP JUMP JUMPDEST PUSH1 0x0 PUSH2 0x3354 PUSH1 0x16 DUP4 PUSH2 0x31A3 JUMP JUMPDEST SWAP2 POP PUSH2 0x335F DUP3 PUSH2 0x331E JUMP JUMPDEST PUSH1 0x20 DUP3 ADD SWAP1 POP SWAP2 SWAP1 POP JUMP JUMPDEST PUSH1 0x0 PUSH1 0x20 DUP3 ADD SWAP1 POP DUP2 DUP2 SUB PUSH1 0x0 DUP4 ADD MSTORE PUSH2 0x3383 DUP2 PUSH2 0x3347 JUMP JUMPDEST SWAP1 POP SWAP2 SWAP1 POP JUMP JUMPDEST PUSH32 0x4F6E6C79206C616E646C6F72642063616E2072656A6563742074686520636F75 PUSH1 0x0 DUP3 ADD MSTORE PUSH32 0x6E74657220657374696D61746500000000000000000000000000000000000000 PUSH1 0x20 DUP3 ADD MSTORE POP JUMP JUMPDEST PUSH1 0x0 PUSH2 0x33E6 PUSH1 0x2D DUP4 PUSH2 0x31A3 JUMP JUMPDEST SWAP2 POP PUSH2 0x33F1 DUP3 PUSH2 0x338A JUMP JUMPDEST PUSH1 0x40 DUP3 ADD SWAP1 POP SWAP2 SWAP1 POP JUMP JUMPDEST PUSH1 0x0 PUSH1 0x20 DUP3 ADD SWAP1 POP DUP2 DUP2 SUB PUSH1 0x0 DUP4 ADD MSTORE PUSH2 0x3415 DUP2 PUSH2 0x33D9 JUMP JUMPDEST SWAP1 POP SWAP2 SWAP1 POP JUMP JUMPDEST PUSH32 0x52656E746572206D7573742073657420636F756E74657220657374696D617465 PUSH1 0x0 DUP3 ADD MSTORE PUSH32 0x2066697273740000000000000000000000000000000000000000000000000000 PUSH1 0x20 DUP3 ADD MSTORE POP JUMP JUMPDEST PUSH1 0x0 PUSH2 0x3478 PUSH1 0x26 DUP4 PUSH2 0x31A3 JUMP JUMPDEST SWAP2 POP PUSH2 0x3483 DUP3 PUSH2 0x341C JUMP JUMPDEST PUSH1 0x40 DUP3 ADD SWAP1 POP SWAP2 SWAP1 POP JUMP JUMPDEST PUSH1 0x0 PUSH1 0x20 DUP3 ADD SWAP1 POP DUP2 DUP2 SUB PUSH1 0x0 DUP4 ADD MSTORE PUSH2 0x34A7 DUP2 PUSH2 0x346B JUMP JUMPDEST SWAP1 POP SWAP2 SWAP1 POP JUMP JUMPDEST PUSH1 0x0 DUP2 MLOAD SWAP1 POP PUSH2 0x34BD DUP2 PUSH2 0x2F43 JUMP JUMPDEST SWAP3 SWAP2 POP POP JUMP JUMPDEST PUSH1 0x0 PUSH1 0x20 DUP3 DUP5 SUB SLT ISZERO PUSH2 0x34D9 JUMPI PUSH2 0x34D8 PUSH2 0x2F3E JUMP JUMPDEST JUMPDEST PUSH1 0x0 PUSH2 0x34E7 DUP5 DUP3 DUP6 ADD PUSH2 0x34AE JUMP JUMPDEST SWAP2 POP POP SWAP3 SWAP2 POP POP JUMP JUMPDEST PUSH32 0x5365637572697479206465706F73697420696E73756666696369656E7420746F PUSH1 0x0 DUP3 ADD MSTORE PUSH32 0x20636F766572206172626974726174696F6E20636F7374730000000000000000 PUSH1 0x20 DUP3 ADD MSTORE POP JUMP JUMPDEST PUSH1 0x0 PUSH2 0x354C PUSH1 0x38 DUP4 PUSH2 0x31A3 JUMP JUMPDEST SWAP2 POP PUSH2 0x3557 DUP3 PUSH2 0x34F0 JUMP JUMPDEST PUSH1 0x40 DUP3 ADD SWAP1 POP SWAP2 SWAP1 POP JUMP JUMPDEST PUSH1 0x0 PUSH1 0x20 DUP3 ADD SWAP1 POP DUP2 DUP2 SUB PUSH1 0x0 DUP4 ADD MSTORE PUSH2 0x357B DUP2 PUSH2 0x353F JUMP JUMPDEST SWAP1 POP SWAP2 SWAP1 POP JUMP JUMPDEST PUSH32 0x4E487B7100000000000000000000000000000000000000000000000000000000 PUSH1 0x0 MSTORE PUSH1 0x11 PUSH1 0x4 MSTORE PUSH1 0x24 PUSH1 0x0 REVERT JUMPDEST PUSH1 0x0 PUSH2 0x35BC DUP3 PUSH2 0x2F0A JUMP JUMPDEST SWAP2 POP PUSH2 0x35C7 DUP4 PUSH2 0x2F0A JUMP JUMPDEST SWAP3 POP DUP3 DUP3 SUB SWAP1 POP DUP2 DUP2 GT ISZERO PUSH2 0x35DF JUMPI PUSH2 0x35DE PUSH2 0x3582 JUMP JUMPDEST JUMPDEST SWAP3 SWAP2 POP POP JUMP JUMPDEST PUSH1 0x0 PUSH1 0x40 DUP3 ADD SWAP1 POP PUSH2 0x35FA PUSH1 0x0 DUP4 ADD DUP6 PUSH2 0x2F14 JUMP JUMPDEST PUSH2 0x3607 PUSH1 0x20 DUP4 ADD DUP5 PUSH2 0x2F14 JUMP JUMPDEST SWAP4 SWAP3 POP POP POP JUMP JUMPDEST PUSH32 0x4E6F2066756E647320746F207769746864726177000000000000000000000000 PUSH1 0x0 DUP3 ADD MSTORE POP JUMP JUMPDEST PUSH1 0x0 PUSH2 0x3644 PUSH1 0x14 DUP4 PUSH2 0x31A3 JUMP JUMPDEST SWAP2 POP PUSH2 0x364F DUP3 PUSH2 0x360E JUMP JUMPDEST PUSH1 0x20 DUP3 ADD SWAP1 POP SWAP2 SWAP1 POP JUMP JUMPDEST PUSH1 0x0 PUSH1 0x20 DUP3 ADD SWAP1 POP DUP2 DUP2 SUB PUSH1 0x0 DUP4 ADD MSTORE PUSH2 0x3673 DUP2 PUSH2 0x3637 JUMP JUMPDEST SWAP1 POP SWAP2 SWAP1 POP JUMP JUMPDEST PUSH1 0x0 DUP2 SWAP1 POP SWAP3 SWAP2 POP POP JUMP JUMPDEST POP JUMP JUMPDEST PUSH1 0x0 PUSH2 0x3695 PUSH1 0x0 DUP4 PUSH2 0x367A JUMP JUMPDEST SWAP2 POP PUSH2 0x36A0 DUP3 PUSH2 0x3685 JUMP JUMPDEST PUSH1 0x0 DUP3 ADD SWAP1 POP SWAP2 SWAP1 POP JUMP JUMPDEST PUSH1 0x0 PUSH2 0x36B6 DUP3 PUSH2 0x3688 JUMP JUMPDEST SWAP2 POP DUP2 SWAP1 POP SWAP2 SWAP1 POP JUMP JUMPDEST PUSH32 0x5472616E73666572206661696C65640000000000000000000000000000000000 PUSH1 0x0 DUP3 ADD MSTORE POP JUMP JUMPDEST PUSH1 0x0 PUSH2 0x36F6 PUSH1 0xF DUP4 PUSH2 0x31A3 JUMP JUMPDEST SWAP2 POP PUSH2 0x3701 DUP3 PUSH2 0x36C0 JUMP JUMPDEST PUSH1 0x20 DUP3 ADD SWAP1 POP SWAP2 SWAP1 POP JUMP JUMPDEST PUSH1 0x0 PUSH1 0x20 DUP3 ADD SWAP1 POP DUP2 DUP2 SUB PUSH1 0x0 DUP4 ADD MSTORE PUSH2 0x3725 DUP2 PUSH2 0x36E9 JUMP JUMPDEST SWAP1 POP SWAP2 SWAP1 POP JUMP JUMPDEST PUSH32 0x4F6E6C792072656E7465722063616E2070617920736563757269747920646570 PUSH1 0x0 DUP3 ADD MSTORE PUSH32 0x6F73697400000000000000000000000000000000000000000000000000000000 PUSH1 0x20 DUP3 ADD MSTORE POP JUMP JUMPDEST PUSH1 0x0 PUSH2 0x3788 PUSH1 0x24 DUP4 PUSH2 0x31A3 JUMP JUMPDEST SWAP2 POP PUSH2 0x3793 DUP3 PUSH2 0x372C JUMP JUMPDEST PUSH1 0x40 DUP3 ADD SWAP1 POP SWAP2 SWAP1 POP JUMP JUMPDEST PUSH1 0x0 PUSH1 0x20 DUP3 ADD SWAP1 POP DUP2 DUP2 SUB PUSH1 0x0 DUP4 ADD MSTORE PUSH2 0x37B7 DUP2 PUSH2 0x377B JUMP JUMPDEST SWAP1 POP SWAP2 SWAP1 POP JUMP JUMPDEST PUSH32 0x436F6E747261637420697320616C726561647920616374697665000000000000 PUSH1 0x0 DUP3 ADD MSTORE POP JUMP JUMPDEST PUSH1 0x0 PUSH2 0x37F4 PUSH1 0x1A DUP4 PUSH2 0x31A3 JUMP JUMPDEST SWAP2 POP PUSH2 0x37FF DUP3 PUSH2 0x37BE JUMP JUMPDEST PUSH1 0x20 DUP3 ADD SWAP1 POP SWAP2 SWAP1 POP JUMP JUMPDEST PUSH1 0x0 PUSH1 0x20 DUP3 ADD SWAP1 POP DUP2 DUP2 SUB PUSH1 0x0 DUP4 ADD MSTORE PUSH2 0x3823 DUP2 PUSH2 0x37E7 JUMP JUMPDEST SWAP1 POP SWAP2 SWAP1 POP JUMP JUMPDEST PUSH32 0x496E636F7272656374207365637572697479206465706F73697420616D6F756E PUSH1 0x0 DUP3 ADD MSTORE PUSH32 0x7400000000000000000000000000000000000000000000000000000000000000 PUSH1 0x20 DUP3 ADD MSTORE POP JUMP JUMPDEST PUSH1 0x0 PUSH2 0x3886 PUSH1 0x21 DUP4 PUSH2 0x31A3 JUMP JUMPDEST SWAP2 POP PUSH2 0x3891 DUP3 PUSH2 0x382A JUMP JUMPDEST PUSH1 0x40 DUP3 ADD SWAP1 POP SWAP2 SWAP1 POP JUMP JUMPDEST PUSH1 0x0 PUSH1 0x20 DUP3 ADD SWAP1 POP DUP2 DUP2 SUB PUSH1 0x0 DUP4 ADD MSTORE PUSH2 0x38B5 DUP2 PUSH2 0x3879 JUMP JUMPDEST SWAP1 POP SWAP2 SWAP1 POP JUMP JUMPDEST PUSH32 0x4F6E6C79206C616E646C6F72642063616E207265636F7264207574696C697469 PUSH1 0x0 DUP3 ADD MSTORE PUSH32 0x6573000000000000000000000000000000000000000000000000000000000000 PUSH1 0x20 DUP3 ADD MSTORE POP JUMP JUMPDEST PUSH1 0x0 PUSH2 0x3918 PUSH1 0x22 DUP4 PUSH2 0x31A3 JUMP JUMPDEST SWAP2 POP PUSH2 0x3923 DUP3 PUSH2 0x38BC JUMP JUMPDEST PUSH1 0x40 DUP3 ADD SWAP1 POP SWAP2 SWAP1 POP JUMP JUMPDEST PUSH1 0x0 PUSH1 0x20 DUP3 ADD SWAP1 POP DUP2 DUP2 SUB PUSH1 0x0 DUP4 ADD MSTORE PUSH2 0x3947 DUP2 PUSH2 0x390B JUMP JUMPDEST SWAP1 POP SWAP2 SWAP1 POP JUMP JUMPDEST PUSH32 0x52656E7420706572696F642068617320656E6465640000000000000000000000 PUSH1 0x0 DUP3 ADD MSTORE POP JUMP JUMPDEST PUSH1 0x0 PUSH2 0x3984 PUSH1 0x15 DUP4 PUSH2 0x31A3 JUMP JUMPDEST SWAP2 POP PUSH2 0x398F DUP3 PUSH2 0x394E JUMP JUMPDEST PUSH1 0x20 DUP3 ADD SWAP1 POP SWAP2 SWAP1 POP JUMP JUMPDEST PUSH1 0x0 PUSH1 0x20 DUP3 ADD SWAP1 POP DUP2 DUP2 SUB PUSH1 0x0 DUP4 ADD MSTORE PUSH2 0x39B3 DUP2 PUSH2 0x3977 JUMP JUMPDEST SWAP1 POP SWAP2 SWAP1 POP JUMP JUMPDEST PUSH32 0x4F6E6C792072656E7465722063616E207061792072656E740000000000000000 PUSH1 0x0 DUP3 ADD MSTORE POP JUMP JUMPDEST PUSH1 0x0 PUSH2 0x39F0 PUSH1 0x18 DUP4 PUSH2 0x31A3 JUMP JUMPDEST SWAP2 POP PUSH2 0x39FB DUP3 PUSH2 0x39BA JUMP JUMPDEST PUSH1 0x20 DUP3 ADD SWAP1 POP SWAP2 SWAP1 POP JUMP JUMPDEST PUSH1 0x0 PUSH1 0x20 DUP3 ADD SWAP1 POP DUP2 DUP2 SUB PUSH1 0x0 DUP4 ADD MSTORE PUSH2 0x3A1F DUP2 PUSH2 0x39E3 JUMP JUMPDEST SWAP1 POP SWAP2 SWAP1 POP JUMP JUMPDEST PUSH32 0x52656E7420666F722074686973206D6F6E74682068617320616C726561647920 PUSH1 0x0 DUP3 ADD MSTORE PUSH32 0x6265656E20706169640000000000000000000000000000000000000000000000 PUSH1 0x20 DUP3 ADD MSTORE POP JUMP JUMPDEST PUSH1 0x0 PUSH2 0x3A82 PUSH1 0x29 DUP4 PUSH2 0x31A3 JUMP JUMPDEST SWAP2 POP PUSH2 0x3A8D DUP3 PUSH2 0x3A26 JUMP JUMPDEST PUSH1 0x40 DUP3 ADD SWAP1 POP SWAP2 SWAP1 POP JUMP JUMPDEST PUSH1 0x0 PUSH1 0x20 DUP3 ADD SWAP1 POP DUP2 DUP2 SUB PUSH1 0x0 DUP4 ADD MSTORE PUSH2 0x3AB1 DUP2 PUSH2 0x3A75 JUMP JUMPDEST SWAP1 POP SWAP2 SWAP1 POP JUMP JUMPDEST PUSH32 0x5574696C697469657320666F722074686973206D6F6E74682068617665206E6F PUSH1 0x0 DUP3 ADD MSTORE PUSH32 0x74206265656E207265636F726465640000000000000000000000000000000000 PUSH1 0x20 DUP3 ADD MSTORE POP JUMP JUMPDEST PUSH1 0x0 PUSH2 0x3B14 PUSH1 0x2F DUP4 PUSH2 0x31A3 JUMP JUMPDEST SWAP2 POP PUSH2 0x3B1F DUP3 PUSH2 0x3AB8 JUMP JUMPDEST PUSH1 0x40 DUP3 ADD SWAP1 POP SWAP2 SWAP1 POP JUMP JUMPDEST PUSH1 0x0 PUSH1 0x20 DUP3 ADD SWAP1 POP DUP2 DUP2 SUB PUSH1 0x0 DUP4 ADD MSTORE PUSH2 0x3B43 DUP2 PUSH2 0x3B07 JUMP JUMPDEST SWAP1 POP SWAP2 SWAP1 POP JUMP JUMPDEST PUSH1 0x0 PUSH2 0x3B55 DUP3 PUSH2 0x2F0A JUMP JUMPDEST SWAP2 POP PUSH2 0x3B60 DUP4 PUSH2 0x2F0A JUMP JUMPDEST SWAP3 POP DUP3 DUP3 ADD SWAP1 POP DUP1 DUP3 GT ISZERO PUSH2 0x3B78 JUMPI PUSH2 0x3B77 PUSH2 0x3582 JUMP JUMPDEST JUMPDEST SWAP3 SWAP2 POP POP JUMP JUMPDEST PUSH32 0x496E636F72726563742072656E7420616D6F756E740000000000000000000000 PUSH1 0x0 DUP3 ADD MSTORE POP JUMP JUMPDEST PUSH1 0x0 PUSH2 0x3BB4 PUSH1 0x15 DUP4 PUSH2 0x31A3 JUMP JUMPDEST SWAP2 POP PUSH2 0x3BBF DUP3 PUSH2 0x3B7E JUMP JUMPDEST PUSH1 0x20 DUP3 ADD SWAP1 POP SWAP2 SWAP1 POP JUMP JUMPDEST PUSH1 0x0 PUSH1 0x20 DUP3 ADD SWAP1 POP DUP2 DUP2 SUB PUSH1 0x0 DUP4 ADD MSTORE PUSH2 0x3BE3 DUP2 PUSH2 0x3BA7 JUMP JUMPDEST SWAP1 POP SWAP2 SWAP1 POP JUMP JUMPDEST PUSH1 0x0 PUSH2 0x3BF5 DUP3 PUSH2 0x2F0A JUMP JUMPDEST SWAP2 POP PUSH32 0xFFFFFFFFFFFFFFFFFFFFFFFFFFFFFFFFFFFFFFFFFFFFFFFFFFFFFFFFFFFFFFFF DUP3 SUB PUSH2 0x3C27 JUMPI PUSH2 0x3C26 PUSH2 0x3582 JUMP JUMPDEST JUMPDEST PUSH1 0x1 DUP3 ADD SWAP1 POP SWAP2 SWAP1 POP JUMP JUMPDEST PUSH32 0x4F6E6C79206C616E646C6F72642063616E20696E697469616C697A6520637572 PUSH1 0x0 DUP3 ADD MSTORE PUSH32 0x72656E74207365637572697479206465706F7369740000000000000000000000 PUSH1 0x20 DUP3 ADD MSTORE POP JUMP JUMPDEST PUSH1 0x0 PUSH2 0x3C8E PUSH1 0x35 DUP4 PUSH2 0x31A3 JUMP JUMPDEST SWAP2 POP PUSH2 0x3C99 DUP3 PUSH2 0x3C32 JUMP JUMPDEST PUSH1 0x40 DUP3 ADD SWAP1 POP SWAP2 SWAP1 POP JUMP JUMPDEST PUSH1 0x0 PUSH1 0x20 DUP3 ADD SWAP1 POP DUP2 DUP2 SUB PUSH1 0x0 DUP4 ADD MSTORE PUSH2 0x3CBD DUP2 PUSH2 0x3C81 JUMP JUMPDEST SWAP1 POP SWAP2 SWAP1 POP JUMP JUMPDEST PUSH32 0x436F6E7472616374206D75737420626520616374697665000000000000000000 PUSH1 0x0 DUP3 ADD MSTORE POP JUMP JUMPDEST PUSH1 0x0 PUSH2 0x3CFA PUSH1 0x17 DUP4 PUSH2 0x31A3 JUMP JUMPDEST SWAP2 POP PUSH2 0x3D05 DUP3 PUSH2 0x3CC4 JUMP JUMPDEST PUSH1 0x20 DUP3 ADD SWAP1 POP SWAP2 SWAP1 POP JUMP JUMPDEST PUSH1 0x0 PUSH1 0x20 DUP3 ADD SWAP1 POP DUP2 DUP2 SUB PUSH1 0x0 DUP4 ADD MSTORE PUSH2 0x3D29 DUP2 PUSH2 0x3CED JUMP JUMPDEST SWAP1 POP SWAP2 SWAP1 POP JUMP JUMPDEST PUSH32 0x43757272656E74207365637572697479206465706F73697420616C7265616479 PUSH1 0x0 DUP3 ADD MSTORE PUSH32 0x20696E697469616C697A65640000000000000000000000000000000000000000 PUSH1 0x20 DUP3 ADD MSTORE POP JUMP JUMPDEST PUSH1 0x0 PUSH2 0x3D8C PUSH1 0x2C DUP4 PUSH2 0x31A3 JUMP JUMPDEST SWAP2 POP PUSH2 0x3D97 DUP3 PUSH2 0x3D30 JUMP JUMPDEST PUSH1 0x40 DUP3 ADD SWAP1 POP SWAP2 SWAP1 POP JUMP JUMPDEST PUSH1 0x0 PUSH1 0x20 DUP3 ADD SWAP1 POP DUP2 DUP2 SUB PUSH1 0x0 DUP4 ADD MSTORE PUSH2 0x3DBB DUP2 PUSH2 0x3D7F JUMP JUMPDEST SWAP1 POP SWAP2 SWAP1 POP JUMP JUMPDEST PUSH32 0x4F6E6C792072656E7465722063616E207365742074686520636F756E74657220 PUSH1 0x0 DUP3 ADD MSTORE PUSH32 0x657374696D617465000000000000000000000000000000000000000000000000 PUSH1 0x20 DUP3 ADD MSTORE POP JUMP JUMPDEST PUSH1 0x0 PUSH2 0x3E1E PUSH1 0x28 DUP4 PUSH2 0x31A3 JUMP JUMPDEST SWAP2 POP PUSH2 0x3E29 DUP3 PUSH2 0x3DC2 JUMP JUMPDEST PUSH1 0x40 DUP3 ADD SWAP1 POP SWAP2 SWAP1 POP JUMP JUMPDEST PUSH1 0x0 PUSH1 0x20 DUP3 ADD SWAP1 POP DUP2 DUP2 SUB PUSH1 0x0 DUP4 ADD MSTORE PUSH2 0x3E4D DUP2 PUSH2 0x3E11 JUMP JUMPDEST SWAP1 POP SWAP2 SWAP1 POP JUMP JUMPDEST PUSH32 0x4C616E646C6F7264206D757374207365742064616D61676520657374696D6174 PUSH1 0x0 DUP3 ADD MSTORE PUSH32 0x6520666972737400000000000000000000000000000000000000000000000000 PUSH1 0x20 DUP3 ADD MSTORE POP JUMP JUMPDEST PUSH1 0x0 PUSH2 0x3EB0 PUSH1 0x27 DUP4 PUSH2 0x31A3 JUMP JUMPDEST SWAP2 POP PUSH2 0x3EBB DUP3 PUSH2 0x3E54 JUMP JUMPDEST PUSH1 0x40 DUP3 ADD SWAP1 POP SWAP2 SWAP1 POP JUMP JUMPDEST PUSH1 0x0 PUSH1 0x20 DUP3 ADD SWAP1 POP DUP2 DUP2 SUB PUSH1 0x0 DUP4 ADD MSTORE PUSH2 0x3EDF DUP2 PUSH2 0x3EA3 JUMP JUMPDEST SWAP1 POP SWAP2 SWAP1 POP JUMP JUMPDEST PUSH32 0x4F6E6C792072656E7465722063616E20736B69702072656E74207061796D656E PUSH1 0x0 DUP3 ADD MSTORE PUSH32 0x7400000000000000000000000000000000000000000000000000000000000000 PUSH1 0x20 DUP3 ADD MSTORE POP JUMP JUMPDEST PUSH1 0x0 PUSH2 0x3F42 PUSH1 0x21 DUP4 PUSH2 0x31A3 JUMP JUMPDEST SWAP2 POP PUSH2 0x3F4D DUP3 PUSH2 0x3EE6 JUMP JUMPDEST PUSH1 0x40 DUP3 ADD SWAP1 POP SWAP2 SWAP1 POP JUMP JUMPDEST PUSH1 0x0 PUSH1 0x20 DUP3 ADD SWAP1 POP DUP2 DUP2 SUB PUSH1 0x0 DUP4 ADD MSTORE PUSH2 0x3F71 DUP2 PUSH2 0x3F35 JUMP JUMPDEST SWAP1 POP SWAP2 SWAP1 POP JUMP JUMPDEST PUSH32 0x43616E6E6F7420736B69702072656E7420666F7220746865206C617374206D6F PUSH1 0x0 DUP3 ADD MSTORE PUSH32 0x6E74680000000000000000000000000000000000000000000000000000000000 PUSH1 0x20 DUP3 ADD MSTORE POP JUMP JUMPDEST PUSH1 0x0 PUSH2 0x3FD4 PUSH1 0x23 DUP4 PUSH2 0x31A3 JUMP JUMPDEST SWAP2 POP PUSH2 0x3FDF DUP3 PUSH2 0x3F78 JUMP JUMPDEST PUSH1 0x40 DUP3 ADD SWAP1 POP SWAP2 SWAP1 POP JUMP JUMPDEST PUSH1 0x0 PUSH1 0x20 DUP3 ADD SWAP1 POP DUP2 DUP2 SUB PUSH1 0x0 DUP4 ADD MSTORE PUSH2 0x4003 DUP2 PUSH2 0x3FC7 JUMP JUMPDEST SWAP1 POP SWAP2 SWAP1 POP JUMP JUMPDEST PUSH32 0x4F6E6C79206C616E646C6F72642063616E207365742061677265656D656E7420 PUSH1 0x0 DUP3 ADD MSTORE PUSH32 0x7465726D73000000000000000000000000000000000000000000000000000000 PUSH1 0x20 DUP3 ADD MSTORE POP JUMP JUMPDEST PUSH1 0x0 PUSH2 0x4066 PUSH1 0x25 DUP4 PUSH2 0x31A3 JUMP JUMPDEST SWAP2 POP PUSH2 0x4071 DUP3 PUSH2 0x400A JUMP JUMPDEST PUSH1 0x40 DUP3 ADD SWAP1 POP SWAP2 SWAP1 POP JUMP JUMPDEST PUSH1 0x0 PUSH1 0x20 DUP3 ADD SWAP1 POP DUP2 DUP2 SUB PUSH1 0x0 DUP4 ADD MSTORE PUSH2 0x4095 DUP2 PUSH2 0x4059 JUMP JUMPDEST SWAP1 POP SWAP2 SWAP1 POP JUMP JUMPDEST PUSH1 0x0 PUSH1 0x60 DUP3 ADD SWAP1 POP PUSH2 0x40B1 PUSH1 0x0 DUP4 ADD DUP7 PUSH2 0x2F14 JUMP JUMPDEST PUSH2 0x40BE PUSH1 0x20 DUP4 ADD DUP6 PUSH2 0x2F14 JUMP JUMPDEST PUSH2 0x40CB PUSH1 0x40 DUP4 ADD DUP5 PUSH2 0x2F14 JUMP JUMPDEST SWAP5 SWAP4 POP POP POP POP JUMP JUMPDEST PUSH32 0x4F6E6C79207468652061726269747261746F722063616E206578656375746520 PUSH1 0x0 DUP3 ADD MSTORE PUSH32 0x72756C696E670000000000000000000000000000000000000000000000000000 PUSH1 0x20 DUP3 ADD MSTORE POP JUMP JUMPDEST PUSH1 0x0 PUSH2 0x412F PUSH1 0x26 DUP4 PUSH2 0x31A3 JUMP JUMPDEST SWAP2 POP PUSH2 0x413A DUP3 PUSH2 0x40D3 JUMP JUMPDEST PUSH1 0x40 DUP3 ADD SWAP1 POP SWAP2 SWAP1 POP JUMP JUMPDEST PUSH1 0x0 PUSH1 0x20 DUP3 ADD SWAP1 POP DUP2 DUP2 SUB PUSH1 0x0 DUP4 ADD MSTORE PUSH2 0x415E DUP2 PUSH2 0x4122 JUMP JUMPDEST SWAP1 POP SWAP2 SWAP1 POP JUMP JUMPDEST PUSH32 0x4E6F206469737075746520746F2072756C65206F6E0000000000000000000000 PUSH1 0x0 DUP3 ADD MSTORE POP JUMP JUMPDEST PUSH1 0x0 PUSH2 0x419B PUSH1 0x15 DUP4 PUSH2 0x31A3 JUMP JUMPDEST SWAP2 POP PUSH2 0x41A6 DUP3 PUSH2 0x4165 JUMP JUMPDEST PUSH1 0x20 DUP3 ADD SWAP1 POP SWAP2 SWAP1 POP JUMP JUMPDEST PUSH1 0x0 PUSH1 0x20 DUP3 ADD SWAP1 POP DUP2 DUP2 SUB PUSH1 0x0 DUP4 ADD MSTORE PUSH2 0x41CA DUP2 PUSH2 0x418E JUMP JUMPDEST SWAP1 POP SWAP2 SWAP1 POP JUMP JUMPDEST PUSH32 0x57726F6E67206469737075746520494400000000000000000000000000000000 PUSH1 0x0 DUP3 ADD MSTORE POP JUMP JUMPDEST PUSH1 0x0 PUSH2 0x4207 PUSH1 0x10 DUP4 PUSH2 0x31A3 JUMP JUMPDEST SWAP2 POP PUSH2 0x4212 DUP3 PUSH2 0x41D1 JUMP JUMPDEST PUSH1 0x20 DUP3 ADD SWAP1 POP SWAP2 SWAP1 POP JUMP JUMPDEST PUSH1 0x0 PUSH1 0x20 DUP3 ADD SWAP1 POP DUP2 DUP2 SUB PUSH1 0x0 DUP4 ADD MSTORE PUSH2 0x4236 DUP2 PUSH2 0x41FA JUMP JUMPDEST SWAP1 POP SWAP2 SWAP1 POP JUMP JUMPDEST PUSH32 0x4E487B7100000000000000000000000000000000000000000000000000000000 PUSH1 0x0 MSTORE PUSH1 0x12 PUSH1 0x4 MSTORE PUSH1 0x24 PUSH1 0x0 REVERT JUMPDEST PUSH1 0x0 PUSH2 0x4277 DUP3 PUSH2 0x2F0A JUMP JUMPDEST SWAP2 POP PUSH2 0x4282 DUP4 PUSH2 0x2F0A JUMP JUMPDEST SWAP3 POP DUP3 PUSH2 0x4292 JUMPI PUSH2 0x4291 PUSH2 0x423D JUMP JUMPDEST JUMPDEST DUP3 DUP3 DIV SWAP1 POP SWAP3 SWAP2 POP POP JUMP JUMPDEST PUSH32 0x4F6E6C792072656E7465722063616E2072656A6563742074686520657374696D PUSH1 0x0 DUP3 ADD MSTORE PUSH32 0x6174650000000000000000000000000000000000000000000000000000000000 PUSH1 0x20 DUP3 ADD MSTORE POP JUMP JUMPDEST PUSH1 0x0 PUSH2 0x42F9 PUSH1 0x23 DUP4 PUSH2 0x31A3 JUMP JUMPDEST SWAP2 POP PUSH2 0x4304 DUP3 PUSH2 0x429D JUMP JUMPDEST PUSH1 0x40 DUP3 ADD SWAP1 POP SWAP2 SWAP1 POP JUMP JUMPDEST PUSH1 0x0 PUSH1 0x20 DUP3 ADD SWAP1 POP DUP2 DUP2 SUB PUSH1 0x0 DUP4 ADD MSTORE PUSH2 0x4328 DUP2 PUSH2 0x42EC JUMP JUMPDEST SWAP1 POP SWAP2 SWAP1 POP JUMP JUMPDEST PUSH32 0x4F6E6C792072656E7465722063616E206163636570742074686520657374696D PUSH1 0x0 DUP3 ADD MSTORE PUSH32 0x6174650000000000000000000000000000000000000000000000000000000000 PUSH1 0x20 DUP3 ADD MSTORE POP JUMP JUMPDEST PUSH1 0x0 PUSH2 0x438B PUSH1 0x23 DUP4 PUSH2 0x31A3 JUMP JUMPDEST SWAP2 POP PUSH2 0x4396 DUP3 PUSH2 0x432F JUMP JUMPDEST PUSH1 0x40 DUP3 ADD SWAP1 POP SWAP2 SWAP1 POP JUMP JUMPDEST PUSH1 0x0 PUSH1 0x20 DUP3 ADD SWAP1 POP DUP2 DUP2 SUB PUSH1 0x0 DUP4 ADD MSTORE PUSH2 0x43BA DUP2 PUSH2 0x437E JUMP JUMPDEST SWAP1 POP SWAP2 SWAP1 POP JUMP JUMPDEST PUSH32 0x4F6E6C79206C616E646C6F72642063616E206163636570742074686520636F75 PUSH1 0x0 DUP3 ADD MSTORE PUSH32 0x6E74657220657374696D61746500000000000000000000000000000000000000 PUSH1 0x20 DUP3 ADD MSTORE POP JUMP JUMPDEST PUSH1 0x0 PUSH2 0x441D PUSH1 0x2D DUP4 PUSH2 0x31A3 JUMP JUMPDEST SWAP2 POP PUSH2 0x4428 DUP3 PUSH2 0x43C1 JUMP JUMPDEST PUSH1 0x40 DUP3 ADD SWAP1 POP SWAP2 SWAP1 POP JUMP JUMPDEST PUSH1 0x0 PUSH1 0x20 DUP3 ADD SWAP1 POP DUP2 DUP2 SUB PUSH1 0x0 DUP4 ADD MSTORE PUSH2 0x444C DUP2 PUSH2 0x4410 JUMP JUMPDEST SWAP1 POP SWAP2 SWAP1 POP JUMP JUMPDEST PUSH32 0x52656E74616C20706572696F6420686173206E6F7420656E6465642079657400 PUSH1 0x0 DUP3 ADD MSTORE POP JUMP JUMPDEST PUSH1 0x0 PUSH2 0x4489 PUSH1 0x1F DUP4 PUSH2 0x31A3 JUMP JUMPDEST SWAP2 POP PUSH2 0x4494 DUP3 PUSH2 0x4453 JUMP JUMPDEST PUSH1 0x20 DUP3 ADD SWAP1 POP SWAP2 SWAP1 POP JUMP JUMPDEST PUSH1 0x0 PUSH1 0x20 DUP3 ADD SWAP1 POP DUP2 DUP2 SUB PUSH1 0x0 DUP4 ADD MSTORE PUSH2 0x44B8 DUP2 PUSH2 0x447C JUMP JUMPDEST SWAP1 POP SWAP2 SWAP1 POP JUMP JUMPDEST PUSH32 0x43616E6E6F7420656E6420636F6E7472616374207768696C6520646973707574 PUSH1 0x0 DUP3 ADD MSTORE PUSH32 0x65206973206F6E676F696E670000000000000000000000000000000000000000 PUSH1 0x20 DUP3 ADD MSTORE POP JUMP JUMPDEST PUSH1 0x0 PUSH2 0x451B PUSH1 0x2C DUP4 PUSH2 0x31A3 JUMP JUMPDEST SWAP2 POP PUSH2 0x4526 DUP3 PUSH2 0x44BF JUMP JUMPDEST PUSH1 0x40 DUP3 ADD SWAP1 POP SWAP2 SWAP1 POP JUMP JUMPDEST PUSH1 0x0 PUSH1 0x20 DUP3 ADD SWAP1 POP DUP2 DUP2 SUB PUSH1 0x0 DUP4 ADD MSTORE PUSH2 0x454A DUP2 PUSH2 0x450E JUMP JUMPDEST SWAP1 POP SWAP2 SWAP1 POP JUMP INVALID LOG2 PUSH5 0x6970667358 0x22 SLT KECCAK256 0xC 0xCF 0xED KECCAK256 DUP14 0x2E MLOAD LOG3 LOG3 0xFB GT 0xE8 SWAP15 NOT SWAP6 CALLDATACOPY RETURN RETURNDATACOPY 0xD 0xCA 0xC9 0xD0 ADD LOG2 PUSH27 0x670727D3AFA33864736F6C63430008120033000000000000000000 "
				},
				"gasEstimates": {
					"creation": {
						"codeDepositCost": "3559800",
						"executionCost": "infinite",
						"totalCost": "infinite"
					},
					"external": {
						"acceptLandlordEstimate()": "infinite",
						"acceptRenterCounterEstimate()": "infinite",
						"arbitrationCost()": "2563",
						"arbitrator()": "infinite",
						"baseRent()": "2498",
						"currentMonth()": "2519",
						"currentSecurityDeposit()": "2474",
						"damageEstimate()": "2564",
						"disputeID()": "2496",
						"disputeRaised()": "2568",
						"dueRent()": "2496",
						"executeRuling(uint256,uint256)": "infinite",
						"getArbitrationCost()": "infinite",
						"getContractBalance()": "428",
						"getCurrentSecurityDeposit()": "2592",
						"getLandlordBalance()": "4817",
						"getRenterBalance()": "4796",
						"initializeCurrentSecurityDeposit()": "30846",
						"isActive()": "2539",
						"isRentalPeriodEnded()": "2662",
						"isSecurityDepositPaid()": "2631",
						"landlord()": "2622",
						"landlordEstimateSet()": "2632",
						"monthlyRents(uint256)": "infinite",
						"payRent()": "infinite",
						"paySecurityDeposit()": "125694",
						"pendingWithdrawals(address)": "2946",
						"recordUtilities(uint256)": "infinite",
						"rejectLandlordEstimate()": "5427",
						"rejectRenterCounterEstimate()": "infinite",
						"rentPeriodInMonths()": "2541",
						"rentStartDate()": "2497",
						"rentalPeriodEnded()": "2611",
						"renter()": "2604",
						"renterCounterEstimate()": "2497",
						"renterCounterEstimateSet()": "2567",
						"securityDeposit()": "2475",
						"setAgreementTerms(uint256,uint256,uint256)": "infinite",
						"setDamageEstimate(uint256)": "infinite",
						"setRenterCounterEstimate(uint256)": "infinite",
						"skipRentPayment()": "infinite",
						"withdraw()": "infinite"
					},
					"internal": {
						"endContract()": "infinite"
					}
				},
				"methodIdentifiers": {
					"acceptLandlordEstimate()": "dd6bcb16",
					"acceptRenterCounterEstimate()": "eaa0a302",
					"arbitrationCost()": "697b05a2",
					"arbitrator()": "6cc6cde1",
					"baseRent()": "04a2286a",
					"currentMonth()": "862a4d47",
					"currentSecurityDeposit()": "d261c91f",
					"damageEstimate()": "1a576049",
					"disputeID()": "b0a1e2b4",
					"disputeRaised()": "004422eb",
					"dueRent()": "6f3c590c",
					"executeRuling(uint256,uint256)": "d96152c3",
					"getArbitrationCost()": "63022560",
					"getContractBalance()": "6f9fb98a",
					"getCurrentSecurityDeposit()": "779318e5",
					"getLandlordBalance()": "feeaea4e",
					"getRenterBalance()": "740906c0",
					"initializeCurrentSecurityDeposit()": "a972500f",
					"isActive()": "22f3e2d4",
					"isRentalPeriodEnded()": "cbe615b1",
					"isSecurityDepositPaid()": "f13702f4",
					"landlord()": "dc1997ea",
					"landlordEstimateSet()": "71357a46",
					"monthlyRents(uint256)": "e1505e4e",
					"payRent()": "a709c4fe",
					"paySecurityDeposit()": "42c63dae",
					"pendingWithdrawals(address)": "f3f43703",
					"recordUtilities(uint256)": "7ef98740",
					"rejectLandlordEstimate()": "dcf2559e",
					"rejectRenterCounterEstimate()": "1890fc37",
					"rentPeriodInMonths()": "87eaa342",
					"rentStartDate()": "561eefd8",
					"rentalPeriodEnded()": "5a0e9bcc",
					"renter()": "2e88ab0b",
					"renterCounterEstimate()": "81d388ba",
					"renterCounterEstimateSet()": "47ed9c65",
					"securityDeposit()": "220e5ab3",
					"setAgreementTerms(uint256,uint256,uint256)": "d738307c",
					"setDamageEstimate(uint256)": "08c59798",
					"setRenterCounterEstimate(uint256)": "c2d6d462",
					"skipRentPayment()": "ca088031",
					"withdraw()": "3ccfd60b"
				}
			},
			"storageLayout": {
				"storage": [
					{
						"astId": 18,
						"contract": "contracts/HRSLocalArbitrator.sol:HouseRentalAgreement",
						"label": "landlord",
						"offset": 0,
						"slot": "0",
						"type": "t_address"
					},
					{
						"astId": 20,
						"contract": "contracts/HRSLocalArbitrator.sol:HouseRentalAgreement",
						"label": "renter",
						"offset": 0,
						"slot": "1",
						"type": "t_address"
					},
					{
						"astId": 22,
						"contract": "contracts/HRSLocalArbitrator.sol:HouseRentalAgreement",
						"label": "securityDeposit",
						"offset": 0,
						"slot": "2",
						"type": "t_uint256"
					},
					{
						"astId": 24,
						"contract": "contracts/HRSLocalArbitrator.sol:HouseRentalAgreement",
						"label": "baseRent",
						"offset": 0,
						"slot": "3",
						"type": "t_uint256"
					},
					{
						"astId": 26,
						"contract": "contracts/HRSLocalArbitrator.sol:HouseRentalAgreement",
						"label": "rentPeriodInMonths",
						"offset": 0,
						"slot": "4",
						"type": "t_uint256"
					},
					{
						"astId": 28,
						"contract": "contracts/HRSLocalArbitrator.sol:HouseRentalAgreement",
						"label": "rentStartDate",
						"offset": 0,
						"slot": "5",
						"type": "t_uint256"
					},
					{
						"astId": 30,
						"contract": "contracts/HRSLocalArbitrator.sol:HouseRentalAgreement",
						"label": "currentMonth",
						"offset": 0,
						"slot": "6",
						"type": "t_uint256"
					},
					{
						"astId": 32,
						"contract": "contracts/HRSLocalArbitrator.sol:HouseRentalAgreement",
						"label": "dueRent",
						"offset": 0,
						"slot": "7",
						"type": "t_uint256"
					},
					{
						"astId": 34,
						"contract": "contracts/HRSLocalArbitrator.sol:HouseRentalAgreement",
						"label": "damageEstimate",
						"offset": 0,
						"slot": "8",
						"type": "t_uint256"
					},
					{
						"astId": 36,
						"contract": "contracts/HRSLocalArbitrator.sol:HouseRentalAgreement",
						"label": "renterCounterEstimate",
						"offset": 0,
						"slot": "9",
						"type": "t_uint256"
					},
					{
						"astId": 38,
						"contract": "contracts/HRSLocalArbitrator.sol:HouseRentalAgreement",
						"label": "disputeID",
						"offset": 0,
						"slot": "10",
						"type": "t_uint256"
					},
					{
						"astId": 40,
						"contract": "contracts/HRSLocalArbitrator.sol:HouseRentalAgreement",
						"label": "currentSecurityDeposit",
						"offset": 0,
						"slot": "11",
						"type": "t_uint256"
					},
					{
						"astId": 42,
						"contract": "contracts/HRSLocalArbitrator.sol:HouseRentalAgreement",
						"label": "arbitrationCost",
						"offset": 0,
						"slot": "12",
						"type": "t_uint256"
					},
					{
						"astId": 44,
						"contract": "contracts/HRSLocalArbitrator.sol:HouseRentalAgreement",
						"label": "isActive",
						"offset": 0,
						"slot": "13",
						"type": "t_bool"
					},
					{
						"astId": 46,
						"contract": "contracts/HRSLocalArbitrator.sol:HouseRentalAgreement",
						"label": "isSecurityDepositPaid",
						"offset": 1,
						"slot": "13",
						"type": "t_bool"
					},
					{
						"astId": 48,
						"contract": "contracts/HRSLocalArbitrator.sol:HouseRentalAgreement",
						"label": "disputeRaised",
						"offset": 2,
						"slot": "13",
						"type": "t_bool"
					},
					{
						"astId": 50,
						"contract": "contracts/HRSLocalArbitrator.sol:HouseRentalAgreement",
						"label": "rentalPeriodEnded",
						"offset": 3,
						"slot": "13",
						"type": "t_bool"
					},
					{
						"astId": 52,
						"contract": "contracts/HRSLocalArbitrator.sol:HouseRentalAgreement",
						"label": "landlordEstimateSet",
						"offset": 4,
						"slot": "13",
						"type": "t_bool"
					},
					{
						"astId": 54,
						"contract": "contracts/HRSLocalArbitrator.sol:HouseRentalAgreement",
						"label": "renterCounterEstimateSet",
						"offset": 5,
						"slot": "13",
						"type": "t_bool"
					},
					{
						"astId": 57,
						"contract": "contracts/HRSLocalArbitrator.sol:HouseRentalAgreement",
						"label": "arbitrator",
						"offset": 6,
						"slot": "13",
						"type": "t_contract(ILocalArbitrator)16"
					},
					{
						"astId": 71,
						"contract": "contracts/HRSLocalArbitrator.sol:HouseRentalAgreement",
						"label": "monthlyRents",
						"offset": 0,
						"slot": "14",
						"type": "t_mapping(t_uint256,t_struct(MonthlyRent)66_storage)"
					},
					{
						"astId": 75,
						"contract": "contracts/HRSLocalArbitrator.sol:HouseRentalAgreement",
						"label": "pendingWithdrawals",
						"offset": 0,
						"slot": "15",
						"type": "t_mapping(t_address,t_uint256)"
					}
				],
				"types": {
					"t_address": {
						"encoding": "inplace",
						"label": "address",
						"numberOfBytes": "20"
					},
					"t_bool": {
						"encoding": "inplace",
						"label": "bool",
						"numberOfBytes": "1"
					},
					"t_contract(ILocalArbitrator)16": {
						"encoding": "inplace",
						"label": "contract ILocalArbitrator",
						"numberOfBytes": "20"
					},
					"t_mapping(t_address,t_uint256)": {
						"encoding": "mapping",
						"key": "t_address",
						"label": "mapping(address => uint256)",
						"numberOfBytes": "32",
						"value": "t_uint256"
					},
					"t_mapping(t_uint256,t_struct(MonthlyRent)66_storage)": {
						"encoding": "mapping",
						"key": "t_uint256",
						"label": "mapping(uint256 => struct HouseRentalAgreement.MonthlyRent)",
						"numberOfBytes": "32",
						"value": "t_struct(MonthlyRent)66_storage"
					},
					"t_struct(MonthlyRent)66_storage": {
						"encoding": "inplace",
						"label": "struct HouseRentalAgreement.MonthlyRent",
						"members": [
							{
								"astId": 59,
								"contract": "contracts/HRSLocalArbitrator.sol:HouseRentalAgreement",
								"label": "baseRent",
								"offset": 0,
								"slot": "0",
								"type": "t_uint256"
							},
							{
								"astId": 61,
								"contract": "contracts/HRSLocalArbitrator.sol:HouseRentalAgreement",
								"label": "utilities",
								"offset": 0,
								"slot": "1",
								"type": "t_uint256"
							},
							{
								"astId": 63,
								"contract": "contracts/HRSLocalArbitrator.sol:HouseRentalAgreement",
								"label": "due",
								"offset": 0,
								"slot": "2",
								"type": "t_uint256"
							},
							{
								"astId": 65,
								"contract": "contracts/HRSLocalArbitrator.sol:HouseRentalAgreement",
								"label": "paid",
								"offset": 0,
								"slot": "3",
								"type": "t_bool"
							}
						],
						"numberOfBytes": "128"
					},
					"t_uint256": {
						"encoding": "inplace",
						"label": "uint256",
						"numberOfBytes": "32"
					}
				}
			},
			"userdoc": {
				"kind": "user",
				"methods": {},
				"version": 1
			}
		}
	}
}