{
	"contracts/HouseRentalAgreement.sol": {
		"HouseRentalAgreement": {
			"abi": [
				{
					"inputs": [
						{
							"internalType": "address",
							"name": "_renter",
							"type": "address"
						}
					],
					"stateMutability": "nonpayable",
					"type": "constructor"
				},
				{
					"anonymous": false,
					"inputs": [
						{
							"indexed": false,
							"internalType": "uint256",
							"name": "securityDeposit",
							"type": "uint256"
						},
						{
							"indexed": false,
							"internalType": "uint256",
							"name": "baseRent",
							"type": "uint256"
						},
						{
							"indexed": false,
							"internalType": "uint256",
							"name": "rentPeriodInMonths",
							"type": "uint256"
						}
					],
					"name": "AgreementTermsSet",
					"type": "event"
				},
				{
					"anonymous": false,
					"inputs": [
						{
							"indexed": false,
							"internalType": "uint256",
							"name": "securityDepositReturned",
							"type": "uint256"
						},
						{
							"indexed": false,
							"internalType": "uint256",
							"name": "dueAmountPaid",
							"type": "uint256"
						}
					],
					"name": "ContractEnded",
					"type": "event"
				},
				{
					"anonymous": false,
					"inputs": [
						{
							"indexed": false,
							"internalType": "uint256",
							"name": "month",
							"type": "uint256"
						},
						{
							"indexed": false,
							"internalType": "uint256",
							"name": "amount",
							"type": "uint256"
						}
					],
					"name": "RentPaid",
					"type": "event"
				},
				{
					"anonymous": false,
					"inputs": [
						{
							"indexed": false,
							"internalType": "uint256",
							"name": "month",
							"type": "uint256"
						},
						{
							"indexed": false,
							"internalType": "uint256",
							"name": "amount",
							"type": "uint256"
						}
					],
					"name": "RentSkipped",
					"type": "event"
				},
				{
					"anonymous": false,
					"inputs": [
						{
							"indexed": false,
							"internalType": "uint256",
							"name": "month",
							"type": "uint256"
						},
						{
							"indexed": false,
							"internalType": "uint256",
							"name": "amount",
							"type": "uint256"
						}
					],
					"name": "RentTransferred",
					"type": "event"
				},
				{
					"anonymous": false,
					"inputs": [
						{
							"indexed": false,
							"internalType": "uint256",
							"name": "amount",
							"type": "uint256"
						}
					],
					"name": "SecurityDepositPaid",
					"type": "event"
				},
				{
					"anonymous": false,
					"inputs": [
						{
							"indexed": false,
							"internalType": "uint256",
							"name": "month",
							"type": "uint256"
						},
						{
							"indexed": false,
							"internalType": "uint256",
							"name": "amount",
							"type": "uint256"
						}
					],
					"name": "UtilitiesRecorded",
					"type": "event"
				},
				{
					"inputs": [],
					"name": "activateContract",
					"outputs": [],
					"stateMutability": "nonpayable",
					"type": "function"
				},
				{
					"inputs": [],
					"name": "baseRent",
					"outputs": [
						{
							"internalType": "uint256",
							"name": "",
							"type": "uint256"
						}
					],
					"stateMutability": "view",
					"type": "function"
				},
				{
					"inputs": [],
					"name": "currentMonth",
					"outputs": [
						{
							"internalType": "uint256",
							"name": "",
							"type": "uint256"
						}
					],
					"stateMutability": "view",
					"type": "function"
				},
				{
					"inputs": [],
					"name": "dueRent",
					"outputs": [
						{
							"internalType": "uint256",
							"name": "",
							"type": "uint256"
						}
					],
					"stateMutability": "view",
					"type": "function"
				},
				{
					"inputs": [],
					"name": "getContractBalance",
					"outputs": [
						{
							"internalType": "uint256",
							"name": "",
							"type": "uint256"
						}
					],
					"stateMutability": "view",
					"type": "function"
				},
				{
					"inputs": [],
					"name": "isActive",
					"outputs": [
						{
							"internalType": "bool",
							"name": "",
							"type": "bool"
						}
					],
					"stateMutability": "view",
					"type": "function"
				},
				{
					"inputs": [],
					"name": "isSecurityDepositPaid",
					"outputs": [
						{
							"internalType": "bool",
							"name": "",
							"type": "bool"
						}
					],
					"stateMutability": "view",
					"type": "function"
				},
				{
					"inputs": [],
					"name": "landlord",
					"outputs": [
						{
							"internalType": "address",
							"name": "",
							"type": "address"
						}
					],
					"stateMutability": "view",
					"type": "function"
				},
				{
					"inputs": [
						{
							"internalType": "uint256",
							"name": "",
							"type": "uint256"
						}
					],
					"name": "monthlyRents",
					"outputs": [
						{
							"internalType": "uint256",
							"name": "baseRent",
							"type": "uint256"
						},
						{
							"internalType": "uint256",
							"name": "utilities",
							"type": "uint256"
						},
						{
							"internalType": "uint256",
							"name": "due",
							"type": "uint256"
						},
						{
							"internalType": "bool",
							"name": "paid",
							"type": "bool"
						}
					],
					"stateMutability": "view",
					"type": "function"
				},
				{
					"inputs": [],
					"name": "payRent",
					"outputs": [],
					"stateMutability": "payable",
					"type": "function"
				},
				{
					"inputs": [],
					"name": "paySecurityDeposit",
					"outputs": [],
					"stateMutability": "payable",
					"type": "function"
				},
				{
					"inputs": [
						{
							"internalType": "uint256",
							"name": "_utilities",
							"type": "uint256"
						}
					],
					"name": "recordUtilities",
					"outputs": [],
					"stateMutability": "nonpayable",
					"type": "function"
				},
				{
					"inputs": [],
					"name": "rentPeriodInMonths",
					"outputs": [
						{
							"internalType": "uint256",
							"name": "",
							"type": "uint256"
						}
					],
					"stateMutability": "view",
					"type": "function"
				},
				{
					"inputs": [],
					"name": "rentStartDate",
					"outputs": [
						{
							"internalType": "uint256",
							"name": "",
							"type": "uint256"
						}
					],
					"stateMutability": "view",
					"type": "function"
				},
				{
					"inputs": [],
					"name": "renter",
					"outputs": [
						{
							"internalType": "address",
							"name": "",
							"type": "address"
						}
					],
					"stateMutability": "view",
					"type": "function"
				},
				{
					"inputs": [],
					"name": "securityDeposit",
					"outputs": [
						{
							"internalType": "uint256",
							"name": "",
							"type": "uint256"
						}
					],
					"stateMutability": "view",
					"type": "function"
				},
				{
					"inputs": [
						{
							"internalType": "uint256",
							"name": "_securityDeposit",
							"type": "uint256"
						},
						{
							"internalType": "uint256",
							"name": "_baseRent",
							"type": "uint256"
						},
						{
							"internalType": "uint256",
							"name": "_rentPeriodInMonths",
							"type": "uint256"
						}
					],
					"name": "setAgreementTerms",
					"outputs": [],
					"stateMutability": "nonpayable",
					"type": "function"
				},
				{
					"inputs": [],
					"name": "skipRentPayment",
					"outputs": [],
					"stateMutability": "nonpayable",
					"type": "function"
				}
			],
			"devdoc": {
				"kind": "dev",
				"methods": {},
				"version": 1
			},
			"evm": {
				"assembly": "    /* \"contracts/HouseRentalAgreement.sol\":60:5519  contract HouseRentalAgreement {... */\n  mstore(0x40, 0x80)\n    /* \"contracts/HouseRentalAgreement.sol\":1081:1244  constructor(address _renter) {... */\n  callvalue\n  dup1\n  iszero\n  tag_1\n  jumpi\n  0x00\n  dup1\n  revert\ntag_1:\n  pop\n  mload(0x40)\n  sub(codesize, bytecodeSize)\n  dup1\n  bytecodeSize\n  dup4\n  codecopy\n  dup2\n  dup2\n  add\n  0x40\n  mstore\n  dup2\n  add\n  swap1\n  tag_2\n  swap2\n  swap1\n  tag_3\n  jump\t// in\ntag_2:\n    /* \"contracts/HouseRentalAgreement.sol\":1132:1142  msg.sender */\n  caller\n    /* \"contracts/HouseRentalAgreement.sol\":1121:1129  landlord */\n  0x00\n  dup1\n    /* \"contracts/HouseRentalAgreement.sol\":1121:1142  landlord = msg.sender */\n  0x0100\n  exp\n  dup2\n  sload\n  dup2\n  0xffffffffffffffffffffffffffffffffffffffff\n  mul\n  not\n  and\n  swap1\n  dup4\n  0xffffffffffffffffffffffffffffffffffffffff\n  and\n  mul\n  or\n  swap1\n  sstore\n  pop\n    /* \"contracts/HouseRentalAgreement.sol\":1162:1169  _renter */\n  dup1\n    /* \"contracts/HouseRentalAgreement.sol\":1153:1159  renter */\n  0x01\n  0x00\n    /* \"contracts/HouseRentalAgreement.sol\":1153:1169  renter = _renter */\n  0x0100\n  exp\n  dup2\n  sload\n  dup2\n  0xffffffffffffffffffffffffffffffffffffffff\n  mul\n  not\n  and\n  swap1\n  dup4\n  0xffffffffffffffffffffffffffffffffffffffff\n  and\n  mul\n  or\n  swap1\n  sstore\n  pop\n    /* \"contracts/HouseRentalAgreement.sol\":1191:1196  false */\n  0x00\n    /* \"contracts/HouseRentalAgreement.sol\":1180:1188  isActive */\n  0x08\n  0x00\n    /* \"contracts/HouseRentalAgreement.sol\":1180:1196  isActive = false */\n  0x0100\n  exp\n  dup2\n  sload\n  dup2\n  0xff\n  mul\n  not\n  and\n  swap1\n  dup4\n  iszero\n  iszero\n  mul\n  or\n  swap1\n  sstore\n  pop\n    /* \"contracts/HouseRentalAgreement.sol\":1231:1236  false */\n  0x00\n    /* \"contracts/HouseRentalAgreement.sol\":1207:1228  isSecurityDepositPaid */\n  0x08\n  0x01\n    /* \"contracts/HouseRentalAgreement.sol\":1207:1236  isSecurityDepositPaid = false */\n  0x0100\n  exp\n  dup2\n  sload\n  dup2\n  0xff\n  mul\n  not\n  and\n  swap1\n  dup4\n  iszero\n  iszero\n  mul\n  or\n  swap1\n  sstore\n  pop\n    /* \"contracts/HouseRentalAgreement.sol\":1081:1244  constructor(address _renter) {... */\n  pop\n    /* \"contracts/HouseRentalAgreement.sol\":60:5519  contract HouseRentalAgreement {... */\n  jump(tag_6)\n    /* \"#utility.yul\":88:205   */\ntag_8:\n    /* \"#utility.yul\":197:198   */\n  0x00\n    /* \"#utility.yul\":194:195   */\n  dup1\n    /* \"#utility.yul\":187:199   */\n  revert\n    /* \"#utility.yul\":334:460   */\ntag_10:\n    /* \"#utility.yul\":371:378   */\n  0x00\n    /* \"#utility.yul\":411:453   */\n  0xffffffffffffffffffffffffffffffffffffffff\n    /* \"#utility.yul\":404:409   */\n  dup3\n    /* \"#utility.yul\":400:454   */\n  and\n    /* \"#utility.yul\":389:454   */\n  swap1\n  pop\n    /* \"#utility.yul\":334:460   */\n  swap2\n  swap1\n  pop\n  jump\t// out\n    /* \"#utility.yul\":466:562   */\ntag_11:\n    /* \"#utility.yul\":503:510   */\n  0x00\n    /* \"#utility.yul\":532:556   */\n  tag_20\n    /* \"#utility.yul\":550:555   */\n  dup3\n    /* \"#utility.yul\":532:556   */\n  tag_10\n  jump\t// in\ntag_20:\n    /* \"#utility.yul\":521:556   */\n  swap1\n  pop\n    /* \"#utility.yul\":466:562   */\n  swap2\n  swap1\n  pop\n  jump\t// out\n    /* \"#utility.yul\":568:690   */\ntag_12:\n    /* \"#utility.yul\":641:665   */\n  tag_22\n    /* \"#utility.yul\":659:664   */\n  dup2\n    /* \"#utility.yul\":641:665   */\n  tag_11\n  jump\t// in\ntag_22:\n    /* \"#utility.yul\":634:639   */\n  dup2\n    /* \"#utility.yul\":631:666   */\n  eq\n    /* \"#utility.yul\":621:684   */\n  tag_23\n  jumpi\n    /* \"#utility.yul\":680:681   */\n  0x00\n    /* \"#utility.yul\":677:678   */\n  dup1\n    /* \"#utility.yul\":670:682   */\n  revert\n    /* \"#utility.yul\":621:684   */\ntag_23:\n    /* \"#utility.yul\":568:690   */\n  pop\n  jump\t// out\n    /* \"#utility.yul\":696:839   */\ntag_13:\n    /* \"#utility.yul\":753:758   */\n  0x00\n    /* \"#utility.yul\":784:790   */\n  dup2\n    /* \"#utility.yul\":778:791   */\n  mload\n    /* \"#utility.yul\":769:791   */\n  swap1\n  pop\n    /* \"#utility.yul\":800:833   */\n  tag_25\n    /* \"#utility.yul\":827:832   */\n  dup2\n    /* \"#utility.yul\":800:833   */\n  tag_12\n  jump\t// in\ntag_25:\n    /* \"#utility.yul\":696:839   */\n  swap3\n  swap2\n  pop\n  pop\n  jump\t// out\n    /* \"#utility.yul\":845:1196   */\ntag_3:\n    /* \"#utility.yul\":915:921   */\n  0x00\n    /* \"#utility.yul\":964:966   */\n  0x20\n    /* \"#utility.yul\":952:961   */\n  dup3\n    /* \"#utility.yul\":943:950   */\n  dup5\n    /* \"#utility.yul\":939:962   */\n  sub\n    /* \"#utility.yul\":935:967   */\n  slt\n    /* \"#utility.yul\":932:1051   */\n  iszero\n  tag_27\n  jumpi\n    /* \"#utility.yul\":970:1049   */\n  tag_28\n  tag_8\n  jump\t// in\ntag_28:\n    /* \"#utility.yul\":932:1051   */\ntag_27:\n    /* \"#utility.yul\":1090:1091   */\n  0x00\n    /* \"#utility.yul\":1115:1179   */\n  tag_29\n    /* \"#utility.yul\":1171:1178   */\n  dup5\n    /* \"#utility.yul\":1162:1168   */\n  dup3\n    /* \"#utility.yul\":1151:1160   */\n  dup6\n    /* \"#utility.yul\":1147:1169   */\n  add\n    /* \"#utility.yul\":1115:1179   */\n  tag_13\n  jump\t// in\ntag_29:\n    /* \"#utility.yul\":1105:1179   */\n  swap2\n  pop\n    /* \"#utility.yul\":1061:1189   */\n  pop\n    /* \"#utility.yul\":845:1196   */\n  swap3\n  swap2\n  pop\n  pop\n  jump\t// out\n    /* \"contracts/HouseRentalAgreement.sol\":60:5519  contract HouseRentalAgreement {... */\ntag_6:\n  dataSize(sub_0)\n  dup1\n  dataOffset(sub_0)\n  0x00\n  codecopy\n  0x00\n  return\nstop\n\nsub_0: assembly {\n        /* \"contracts/HouseRentalAgreement.sol\":60:5519  contract HouseRentalAgreement {... */\n      mstore(0x40, 0x80)\n      jumpi(tag_1, lt(calldatasize, 0x04))\n      shr(0xe0, calldataload(0x00))\n      dup1\n      0x862a4d47\n      gt\n      tag_20\n      jumpi\n      dup1\n      0xca088031\n      gt\n      tag_21\n      jumpi\n      dup1\n      0xca088031\n      eq\n      tag_15\n      jumpi\n      dup1\n      0xd738307c\n      eq\n      tag_16\n      jumpi\n      dup1\n      0xdc1997ea\n      eq\n      tag_17\n      jumpi\n      dup1\n      0xe1505e4e\n      eq\n      tag_18\n      jumpi\n      dup1\n      0xf13702f4\n      eq\n      tag_19\n      jumpi\n      jump(tag_1)\n    tag_21:\n      dup1\n      0x862a4d47\n      eq\n      tag_11\n      jumpi\n      dup1\n      0x87eaa342\n      eq\n      tag_12\n      jumpi\n      dup1\n      0x8fda356d\n      eq\n      tag_13\n      jumpi\n      dup1\n      0xa709c4fe\n      eq\n      tag_14\n      jumpi\n      jump(tag_1)\n    tag_20:\n      dup1\n      0x42c63dae\n      gt\n      tag_22\n      jumpi\n      dup1\n      0x42c63dae\n      eq\n      tag_6\n      jumpi\n      dup1\n      0x561eefd8\n      eq\n      tag_7\n      jumpi\n      dup1\n      0x6f3c590c\n      eq\n      tag_8\n      jumpi\n      dup1\n      0x6f9fb98a\n      eq\n      tag_9\n      jumpi\n      dup1\n      0x7ef98740\n      eq\n      tag_10\n      jumpi\n      jump(tag_1)\n    tag_22:\n      dup1\n      0x04a2286a\n      eq\n      tag_2\n      jumpi\n      dup1\n      0x220e5ab3\n      eq\n      tag_3\n      jumpi\n      dup1\n      0x22f3e2d4\n      eq\n      tag_4\n      jumpi\n      dup1\n      0x2e88ab0b\n      eq\n      tag_5\n      jumpi\n    tag_1:\n      0x00\n      dup1\n      revert\n        /* \"contracts/HouseRentalAgreement.sol\":192:215  uint256 public baseRent */\n    tag_2:\n      callvalue\n      dup1\n      iszero\n      tag_23\n      jumpi\n      0x00\n      dup1\n      revert\n    tag_23:\n      pop\n      tag_24\n      tag_25\n      jump\t// in\n    tag_24:\n      mload(0x40)\n      tag_26\n      swap2\n      swap1\n      tag_27\n      jump\t// in\n    tag_26:\n      mload(0x40)\n      dup1\n      swap2\n      sub\n      swap1\n      return\n        /* \"contracts/HouseRentalAgreement.sol\":155:185  uint256 public securityDeposit */\n    tag_3:\n      callvalue\n      dup1\n      iszero\n      tag_28\n      jumpi\n      0x00\n      dup1\n      revert\n    tag_28:\n      pop\n      tag_29\n      tag_30\n      jump\t// in\n    tag_29:\n      mload(0x40)\n      tag_31\n      swap2\n      swap1\n      tag_27\n      jump\t// in\n    tag_31:\n      mload(0x40)\n      dup1\n      swap2\n      sub\n      swap1\n      return\n        /* \"contracts/HouseRentalAgreement.sol\":360:380  bool public isActive */\n    tag_4:\n      callvalue\n      dup1\n      iszero\n      tag_32\n      jumpi\n      0x00\n      dup1\n      revert\n    tag_32:\n      pop\n      tag_33\n      tag_34\n      jump\t// in\n    tag_33:\n      mload(0x40)\n      tag_35\n      swap2\n      swap1\n      tag_36\n      jump\t// in\n    tag_35:\n      mload(0x40)\n      dup1\n      swap2\n      sub\n      swap1\n      return\n        /* \"contracts/HouseRentalAgreement.sol\":127:148  address public renter */\n    tag_5:\n      callvalue\n      dup1\n      iszero\n      tag_37\n      jumpi\n      0x00\n      dup1\n      revert\n    tag_37:\n      pop\n      tag_38\n      tag_39\n      jump\t// in\n    tag_38:\n      mload(0x40)\n      tag_40\n      swap2\n      swap1\n      tag_41\n      jump\t// in\n    tag_40:\n      mload(0x40)\n      dup1\n      swap2\n      sub\n      swap1\n      return\n        /* \"contracts/HouseRentalAgreement.sol\":1730:2094  function paySecurityDeposit() external payable {... */\n    tag_6:\n      tag_42\n      tag_43\n      jump\t// in\n    tag_42:\n      stop\n        /* \"contracts/HouseRentalAgreement.sol\":262:290  uint256 public rentStartDate */\n    tag_7:\n      callvalue\n      dup1\n      iszero\n      tag_44\n      jumpi\n      0x00\n      dup1\n      revert\n    tag_44:\n      pop\n      tag_45\n      tag_46\n      jump\t// in\n    tag_45:\n      mload(0x40)\n      tag_47\n      swap2\n      swap1\n      tag_27\n      jump\t// in\n    tag_47:\n      mload(0x40)\n      dup1\n      swap2\n      sub\n      swap1\n      return\n        /* \"contracts/HouseRentalAgreement.sol\":331:353  uint256 public dueRent */\n    tag_8:\n      callvalue\n      dup1\n      iszero\n      tag_48\n      jumpi\n      0x00\n      dup1\n      revert\n    tag_48:\n      pop\n      tag_49\n      tag_50\n      jump\t// in\n    tag_49:\n      mload(0x40)\n      tag_51\n      swap2\n      swap1\n      tag_27\n      jump\t// in\n    tag_51:\n      mload(0x40)\n      dup1\n      swap2\n      sub\n      swap1\n      return\n        /* \"contracts/HouseRentalAgreement.sol\":5407:5516  function getContractBalance() external view returns (uint256) {... */\n    tag_9:\n      callvalue\n      dup1\n      iszero\n      tag_52\n      jumpi\n      0x00\n      dup1\n      revert\n    tag_52:\n      pop\n      tag_53\n      tag_54\n      jump\t// in\n    tag_53:\n      mload(0x40)\n      tag_55\n      swap2\n      swap1\n      tag_27\n      jump\t// in\n    tag_55:\n      mload(0x40)\n      dup1\n      swap2\n      sub\n      swap1\n      return\n        /* \"contracts/HouseRentalAgreement.sol\":2474:2925  function recordUtilities(uint256 _utilities) external {... */\n    tag_10:\n      callvalue\n      dup1\n      iszero\n      tag_56\n      jumpi\n      0x00\n      dup1\n      revert\n    tag_56:\n      pop\n      tag_57\n      0x04\n      dup1\n      calldatasize\n      sub\n      dup2\n      add\n      swap1\n      tag_58\n      swap2\n      swap1\n      tag_59\n      jump\t// in\n    tag_58:\n      tag_60\n      jump\t// in\n    tag_57:\n      stop\n        /* \"contracts/HouseRentalAgreement.sol\":297:324  uint256 public currentMonth */\n    tag_11:\n      callvalue\n      dup1\n      iszero\n      tag_61\n      jumpi\n      0x00\n      dup1\n      revert\n    tag_61:\n      pop\n      tag_62\n      tag_63\n      jump\t// in\n    tag_62:\n      mload(0x40)\n      tag_64\n      swap2\n      swap1\n      tag_27\n      jump\t// in\n    tag_64:\n      mload(0x40)\n      dup1\n      swap2\n      sub\n      swap1\n      return\n        /* \"contracts/HouseRentalAgreement.sol\":222:255  uint256 public rentPeriodInMonths */\n    tag_12:\n      callvalue\n      dup1\n      iszero\n      tag_65\n      jumpi\n      0x00\n      dup1\n      revert\n    tag_65:\n      pop\n      tag_66\n      tag_67\n      jump\t// in\n    tag_66:\n      mload(0x40)\n      tag_68\n      swap2\n      swap1\n      tag_27\n      jump\t// in\n    tag_68:\n      mload(0x40)\n      dup1\n      swap2\n      sub\n      swap1\n      return\n        /* \"contracts/HouseRentalAgreement.sol\":2102:2466  function activateContract() external {... */\n    tag_13:\n      callvalue\n      dup1\n      iszero\n      tag_69\n      jumpi\n      0x00\n      dup1\n      revert\n    tag_69:\n      pop\n      tag_70\n      tag_71\n      jump\t// in\n    tag_70:\n      stop\n        /* \"contracts/HouseRentalAgreement.sol\":2933:3983  function payRent() external payable {... */\n    tag_14:\n      tag_72\n      tag_73\n      jump\t// in\n    tag_72:\n      stop\n        /* \"contracts/HouseRentalAgreement.sol\":3991:4809  function skipRentPayment() external {... */\n    tag_15:\n      callvalue\n      dup1\n      iszero\n      tag_74\n      jumpi\n      0x00\n      dup1\n      revert\n    tag_74:\n      pop\n      tag_75\n      tag_76\n      jump\t// in\n    tag_75:\n      stop\n        /* \"contracts/HouseRentalAgreement.sol\":1252:1722  function setAgreementTerms(uint256 _securityDeposit, uint256 _baseRent, uint256 _rentPeriodInMonths) external {... */\n    tag_16:\n      callvalue\n      dup1\n      iszero\n      tag_77\n      jumpi\n      0x00\n      dup1\n      revert\n    tag_77:\n      pop\n      tag_78\n      0x04\n      dup1\n      calldatasize\n      sub\n      dup2\n      add\n      swap1\n      tag_79\n      swap2\n      swap1\n      tag_80\n      jump\t// in\n    tag_79:\n      tag_81\n      jump\t// in\n    tag_78:\n      stop\n        /* \"contracts/HouseRentalAgreement.sol\":97:120  address public landlord */\n    tag_17:\n      callvalue\n      dup1\n      iszero\n      tag_82\n      jumpi\n      0x00\n      dup1\n      revert\n    tag_82:\n      pop\n      tag_83\n      tag_84\n      jump\t// in\n    tag_83:\n      mload(0x40)\n      tag_85\n      swap2\n      swap1\n      tag_41\n      jump\t// in\n    tag_85:\n      mload(0x40)\n      dup1\n      swap2\n      sub\n      swap1\n      return\n        /* \"contracts/HouseRentalAgreement.sol\":561:612  mapping(uint256 => MonthlyRent) public monthlyRents */\n    tag_18:\n      callvalue\n      dup1\n      iszero\n      tag_86\n      jumpi\n      0x00\n      dup1\n      revert\n    tag_86:\n      pop\n      tag_87\n      0x04\n      dup1\n      calldatasize\n      sub\n      dup2\n      add\n      swap1\n      tag_88\n      swap2\n      swap1\n      tag_59\n      jump\t// in\n    tag_88:\n      tag_89\n      jump\t// in\n    tag_87:\n      mload(0x40)\n      tag_90\n      swap5\n      swap4\n      swap3\n      swap2\n      swap1\n      tag_91\n      jump\t// in\n    tag_90:\n      mload(0x40)\n      dup1\n      swap2\n      sub\n      swap1\n      return\n        /* \"contracts/HouseRentalAgreement.sol\":387:420  bool public isSecurityDepositPaid */\n    tag_19:\n      callvalue\n      dup1\n      iszero\n      tag_92\n      jumpi\n      0x00\n      dup1\n      revert\n    tag_92:\n      pop\n      tag_93\n      tag_94\n      jump\t// in\n    tag_93:\n      mload(0x40)\n      tag_95\n      swap2\n      swap1\n      tag_36\n      jump\t// in\n    tag_95:\n      mload(0x40)\n      dup1\n      swap2\n      sub\n      swap1\n      return\n        /* \"contracts/HouseRentalAgreement.sol\":192:215  uint256 public baseRent */\n    tag_25:\n      sload(0x03)\n      dup2\n      jump\t// out\n        /* \"contracts/HouseRentalAgreement.sol\":155:185  uint256 public securityDeposit */\n    tag_30:\n      sload(0x02)\n      dup2\n      jump\t// out\n        /* \"contracts/HouseRentalAgreement.sol\":360:380  bool public isActive */\n    tag_34:\n      0x08\n      0x00\n      swap1\n      sload\n      swap1\n      0x0100\n      exp\n      swap1\n      div\n      0xff\n      and\n      dup2\n      jump\t// out\n        /* \"contracts/HouseRentalAgreement.sol\":127:148  address public renter */\n    tag_39:\n      0x01\n      0x00\n      swap1\n      sload\n      swap1\n      0x0100\n      exp\n      swap1\n      div\n      0xffffffffffffffffffffffffffffffffffffffff\n      and\n      dup2\n      jump\t// out\n        /* \"contracts/HouseRentalAgreement.sol\":1730:2094  function paySecurityDeposit() external payable {... */\n    tag_43:\n        /* \"contracts/HouseRentalAgreement.sol\":1810:1816  renter */\n      0x01\n      0x00\n      swap1\n      sload\n      swap1\n      0x0100\n      exp\n      swap1\n      div\n      0xffffffffffffffffffffffffffffffffffffffff\n      and\n        /* \"contracts/HouseRentalAgreement.sol\":1796:1816  msg.sender == renter */\n      0xffffffffffffffffffffffffffffffffffffffff\n      and\n        /* \"contracts/HouseRentalAgreement.sol\":1796:1806  msg.sender */\n      caller\n        /* \"contracts/HouseRentalAgreement.sol\":1796:1816  msg.sender == renter */\n      0xffffffffffffffffffffffffffffffffffffffff\n      and\n      eq\n        /* \"contracts/HouseRentalAgreement.sol\":1788:1857  require(msg.sender == renter, \"Only renter can pay security deposit\") */\n      tag_97\n      jumpi\n      mload(0x40)\n      0x08c379a000000000000000000000000000000000000000000000000000000000\n      dup2\n      mstore\n      0x04\n      add\n      tag_98\n      swap1\n      tag_99\n      jump\t// in\n    tag_98:\n      mload(0x40)\n      dup1\n      swap2\n      sub\n      swap1\n      revert\n    tag_97:\n        /* \"contracts/HouseRentalAgreement.sol\":1877:1885  isActive */\n      0x08\n      0x00\n      swap1\n      sload\n      swap1\n      0x0100\n      exp\n      swap1\n      div\n      0xff\n      and\n        /* \"contracts/HouseRentalAgreement.sol\":1876:1885  !isActive */\n      iszero\n        /* \"contracts/HouseRentalAgreement.sol\":1868:1916  require(!isActive, \"Contract is already active\") */\n      tag_100\n      jumpi\n      mload(0x40)\n      0x08c379a000000000000000000000000000000000000000000000000000000000\n      dup2\n      mstore\n      0x04\n      add\n      tag_101\n      swap1\n      tag_102\n      jump\t// in\n    tag_101:\n      mload(0x40)\n      dup1\n      swap2\n      sub\n      swap1\n      revert\n    tag_100:\n        /* \"contracts/HouseRentalAgreement.sol\":1948:1963  securityDeposit */\n      sload(0x02)\n        /* \"contracts/HouseRentalAgreement.sol\":1935:1944  msg.value */\n      callvalue\n        /* \"contracts/HouseRentalAgreement.sol\":1935:1963  msg.value == securityDeposit */\n      eq\n        /* \"contracts/HouseRentalAgreement.sol\":1927:2001  require(msg.value == securityDeposit, \"Incorrect security deposit amount\") */\n      tag_103\n      jumpi\n      mload(0x40)\n      0x08c379a000000000000000000000000000000000000000000000000000000000\n      dup2\n      mstore\n      0x04\n      add\n      tag_104\n      swap1\n      tag_105\n      jump\t// in\n    tag_104:\n      mload(0x40)\n      dup1\n      swap2\n      sub\n      swap1\n      revert\n    tag_103:\n        /* \"contracts/HouseRentalAgreement.sol\":2036:2040  true */\n      0x01\n        /* \"contracts/HouseRentalAgreement.sol\":2012:2033  isSecurityDepositPaid */\n      0x08\n      0x01\n        /* \"contracts/HouseRentalAgreement.sol\":2012:2040  isSecurityDepositPaid = true */\n      0x0100\n      exp\n      dup2\n      sload\n      dup2\n      0xff\n      mul\n      not\n      and\n      swap1\n      dup4\n      iszero\n      iszero\n      mul\n      or\n      swap1\n      sstore\n      pop\n        /* \"contracts/HouseRentalAgreement.sol\":2056:2086  SecurityDepositPaid(msg.value) */\n      0x486ac935cf1ea9effd9e0a261bc42917b45f2fd45cc98def2bc34d47f216937c\n        /* \"contracts/HouseRentalAgreement.sol\":2076:2085  msg.value */\n      callvalue\n        /* \"contracts/HouseRentalAgreement.sol\":2056:2086  SecurityDepositPaid(msg.value) */\n      mload(0x40)\n      tag_106\n      swap2\n      swap1\n      tag_27\n      jump\t// in\n    tag_106:\n      mload(0x40)\n      dup1\n      swap2\n      sub\n      swap1\n      log1\n        /* \"contracts/HouseRentalAgreement.sol\":1730:2094  function paySecurityDeposit() external payable {... */\n      jump\t// out\n        /* \"contracts/HouseRentalAgreement.sol\":262:290  uint256 public rentStartDate */\n    tag_46:\n      sload(0x05)\n      dup2\n      jump\t// out\n        /* \"contracts/HouseRentalAgreement.sol\":331:353  uint256 public dueRent */\n    tag_50:\n      sload(0x07)\n      dup2\n      jump\t// out\n        /* \"contracts/HouseRentalAgreement.sol\":5407:5516  function getContractBalance() external view returns (uint256) {... */\n    tag_54:\n        /* \"contracts/HouseRentalAgreement.sol\":5460:5467  uint256 */\n      0x00\n        /* \"contracts/HouseRentalAgreement.sol\":5487:5508  address(this).balance */\n      selfbalance\n        /* \"contracts/HouseRentalAgreement.sol\":5480:5508  return address(this).balance */\n      swap1\n      pop\n        /* \"contracts/HouseRentalAgreement.sol\":5407:5516  function getContractBalance() external view returns (uint256) {... */\n      swap1\n      jump\t// out\n        /* \"contracts/HouseRentalAgreement.sol\":2474:2925  function recordUtilities(uint256 _utilities) external {... */\n    tag_60:\n        /* \"contracts/HouseRentalAgreement.sol\":2561:2569  landlord */\n      0x00\n      dup1\n      sload\n      swap1\n      0x0100\n      exp\n      swap1\n      div\n      0xffffffffffffffffffffffffffffffffffffffff\n      and\n        /* \"contracts/HouseRentalAgreement.sol\":2547:2569  msg.sender == landlord */\n      0xffffffffffffffffffffffffffffffffffffffff\n      and\n        /* \"contracts/HouseRentalAgreement.sol\":2547:2557  msg.sender */\n      caller\n        /* \"contracts/HouseRentalAgreement.sol\":2547:2569  msg.sender == landlord */\n      0xffffffffffffffffffffffffffffffffffffffff\n      and\n      eq\n        /* \"contracts/HouseRentalAgreement.sol\":2539:2608  require(msg.sender == landlord, \"Only landlord can record utilities\") */\n      tag_109\n      jumpi\n      mload(0x40)\n      0x08c379a000000000000000000000000000000000000000000000000000000000\n      dup2\n      mstore\n      0x04\n      add\n      tag_110\n      swap1\n      tag_111\n      jump\t// in\n    tag_110:\n      mload(0x40)\n      dup1\n      swap2\n      sub\n      swap1\n      revert\n    tag_109:\n        /* \"contracts/HouseRentalAgreement.sol\":2627:2635  isActive */\n      0x08\n      0x00\n      swap1\n      sload\n      swap1\n      0x0100\n      exp\n      swap1\n      div\n      0xff\n      and\n        /* \"contracts/HouseRentalAgreement.sol\":2619:2662  require(isActive, \"Contract is not active\") */\n      tag_112\n      jumpi\n      mload(0x40)\n      0x08c379a000000000000000000000000000000000000000000000000000000000\n      dup2\n      mstore\n      0x04\n      add\n      tag_113\n      swap1\n      tag_114\n      jump\t// in\n    tag_113:\n      mload(0x40)\n      dup1\n      swap2\n      sub\n      swap1\n      revert\n    tag_112:\n        /* \"contracts/HouseRentalAgreement.sol\":2697:2715  rentPeriodInMonths */\n      sload(0x04)\n        /* \"contracts/HouseRentalAgreement.sol\":2681:2693  currentMonth */\n      sload(0x06)\n        /* \"contracts/HouseRentalAgreement.sol\":2681:2715  currentMonth <= rentPeriodInMonths */\n      gt\n      iszero\n        /* \"contracts/HouseRentalAgreement.sol\":2673:2741  require(currentMonth <= rentPeriodInMonths, \"Rent period has ended\") */\n      tag_115\n      jumpi\n      mload(0x40)\n      0x08c379a000000000000000000000000000000000000000000000000000000000\n      dup2\n      mstore\n      0x04\n      add\n      tag_116\n      swap1\n      tag_117\n      jump\t// in\n    tag_116:\n      mload(0x40)\n      dup1\n      swap2\n      sub\n      swap1\n      revert\n    tag_115:\n        /* \"contracts/HouseRentalAgreement.sol\":2791:2801  _utilities */\n      dup1\n        /* \"contracts/HouseRentalAgreement.sol\":2752:2764  monthlyRents */\n      0x09\n        /* \"contracts/HouseRentalAgreement.sol\":2752:2778  monthlyRents[currentMonth] */\n      0x00\n        /* \"contracts/HouseRentalAgreement.sol\":2765:2777  currentMonth */\n      sload(0x06)\n        /* \"contracts/HouseRentalAgreement.sol\":2752:2778  monthlyRents[currentMonth] */\n      dup2\n      mstore\n      0x20\n      add\n      swap1\n      dup2\n      mstore\n      0x20\n      add\n      0x00\n      keccak256\n        /* \"contracts/HouseRentalAgreement.sol\":2752:2788  monthlyRents[currentMonth].utilities */\n      0x01\n      add\n        /* \"contracts/HouseRentalAgreement.sol\":2752:2801  monthlyRents[currentMonth].utilities = _utilities */\n      dup2\n      swap1\n      sstore\n      pop\n        /* \"contracts/HouseRentalAgreement.sol\":2850:2858  baseRent */\n      sload(0x03)\n        /* \"contracts/HouseRentalAgreement.sol\":2812:2824  monthlyRents */\n      0x09\n        /* \"contracts/HouseRentalAgreement.sol\":2812:2838  monthlyRents[currentMonth] */\n      0x00\n        /* \"contracts/HouseRentalAgreement.sol\":2825:2837  currentMonth */\n      sload(0x06)\n        /* \"contracts/HouseRentalAgreement.sol\":2812:2838  monthlyRents[currentMonth] */\n      dup2\n      mstore\n      0x20\n      add\n      swap1\n      dup2\n      mstore\n      0x20\n      add\n      0x00\n      keccak256\n        /* \"contracts/HouseRentalAgreement.sol\":2812:2847  monthlyRents[currentMonth].baseRent */\n      0x00\n      add\n        /* \"contracts/HouseRentalAgreement.sol\":2812:2858  monthlyRents[currentMonth].baseRent = baseRent */\n      dup2\n      swap1\n      sstore\n      pop\n        /* \"contracts/HouseRentalAgreement.sol\":2874:2917  UtilitiesRecorded(currentMonth, _utilities) */\n      0xf75d23e75691b7209bf24071476b3702a8412a369b26fd3ad012d19630f65a2b\n        /* \"contracts/HouseRentalAgreement.sol\":2892:2904  currentMonth */\n      sload(0x06)\n        /* \"contracts/HouseRentalAgreement.sol\":2906:2916  _utilities */\n      dup3\n        /* \"contracts/HouseRentalAgreement.sol\":2874:2917  UtilitiesRecorded(currentMonth, _utilities) */\n      mload(0x40)\n      tag_118\n      swap3\n      swap2\n      swap1\n      tag_119\n      jump\t// in\n    tag_118:\n      mload(0x40)\n      dup1\n      swap2\n      sub\n      swap1\n      log1\n        /* \"contracts/HouseRentalAgreement.sol\":2474:2925  function recordUtilities(uint256 _utilities) external {... */\n      pop\n      jump\t// out\n        /* \"contracts/HouseRentalAgreement.sol\":297:324  uint256 public currentMonth */\n    tag_63:\n      sload(0x06)\n      dup2\n      jump\t// out\n        /* \"contracts/HouseRentalAgreement.sol\":222:255  uint256 public rentPeriodInMonths */\n    tag_67:\n      sload(0x04)\n      dup2\n      jump\t// out\n        /* \"contracts/HouseRentalAgreement.sol\":2102:2466  function activateContract() external {... */\n    tag_71:\n        /* \"contracts/HouseRentalAgreement.sol\":2172:2180  landlord */\n      0x00\n      dup1\n      sload\n      swap1\n      0x0100\n      exp\n      swap1\n      div\n      0xffffffffffffffffffffffffffffffffffffffff\n      and\n        /* \"contracts/HouseRentalAgreement.sol\":2158:2180  msg.sender == landlord */\n      0xffffffffffffffffffffffffffffffffffffffff\n      and\n        /* \"contracts/HouseRentalAgreement.sol\":2158:2168  msg.sender */\n      caller\n        /* \"contracts/HouseRentalAgreement.sol\":2158:2180  msg.sender == landlord */\n      0xffffffffffffffffffffffffffffffffffffffff\n      and\n      eq\n        /* \"contracts/HouseRentalAgreement.sol\":2150:2224  require(msg.sender == landlord, \"Only landlord can activate the contract\") */\n      tag_121\n      jumpi\n      mload(0x40)\n      0x08c379a000000000000000000000000000000000000000000000000000000000\n      dup2\n      mstore\n      0x04\n      add\n      tag_122\n      swap1\n      tag_123\n      jump\t// in\n    tag_122:\n      mload(0x40)\n      dup1\n      swap2\n      sub\n      swap1\n      revert\n    tag_121:\n        /* \"contracts/HouseRentalAgreement.sol\":2243:2264  isSecurityDepositPaid */\n      0x08\n      0x01\n      swap1\n      sload\n      swap1\n      0x0100\n      exp\n      swap1\n      div\n      0xff\n      and\n        /* \"contracts/HouseRentalAgreement.sol\":2235:2304  require(isSecurityDepositPaid, \"Security deposit must be paid first\") */\n      tag_124\n      jumpi\n      mload(0x40)\n      0x08c379a000000000000000000000000000000000000000000000000000000000\n      dup2\n      mstore\n      0x04\n      add\n      tag_125\n      swap1\n      tag_126\n      jump\t// in\n    tag_125:\n      mload(0x40)\n      dup1\n      swap2\n      sub\n      swap1\n      revert\n    tag_124:\n        /* \"contracts/HouseRentalAgreement.sol\":2324:2332  isActive */\n      0x08\n      0x00\n      swap1\n      sload\n      swap1\n      0x0100\n      exp\n      swap1\n      div\n      0xff\n      and\n        /* \"contracts/HouseRentalAgreement.sol\":2323:2332  !isActive */\n      iszero\n        /* \"contracts/HouseRentalAgreement.sol\":2315:2363  require(!isActive, \"Contract is already active\") */\n      tag_127\n      jumpi\n      mload(0x40)\n      0x08c379a000000000000000000000000000000000000000000000000000000000\n      dup2\n      mstore\n      0x04\n      add\n      tag_128\n      swap1\n      tag_102\n      jump\t// in\n    tag_128:\n      mload(0x40)\n      dup1\n      swap2\n      sub\n      swap1\n      revert\n    tag_127:\n        /* \"contracts/HouseRentalAgreement.sol\":2385:2389  true */\n      0x01\n        /* \"contracts/HouseRentalAgreement.sol\":2374:2382  isActive */\n      0x08\n      0x00\n        /* \"contracts/HouseRentalAgreement.sol\":2374:2389  isActive = true */\n      0x0100\n      exp\n      dup2\n      sload\n      dup2\n      0xff\n      mul\n      not\n      and\n      swap1\n      dup4\n      iszero\n      iszero\n      mul\n      or\n      swap1\n      sstore\n      pop\n        /* \"contracts/HouseRentalAgreement.sol\":2416:2431  block.timestamp */\n      timestamp\n        /* \"contracts/HouseRentalAgreement.sol\":2400:2413  rentStartDate */\n      0x05\n        /* \"contracts/HouseRentalAgreement.sol\":2400:2431  rentStartDate = block.timestamp */\n      dup2\n      swap1\n      sstore\n      pop\n        /* \"contracts/HouseRentalAgreement.sol\":2457:2458  1 */\n      0x01\n        /* \"contracts/HouseRentalAgreement.sol\":2442:2454  currentMonth */\n      0x06\n        /* \"contracts/HouseRentalAgreement.sol\":2442:2458  currentMonth = 1 */\n      dup2\n      swap1\n      sstore\n      pop\n        /* \"contracts/HouseRentalAgreement.sol\":2102:2466  function activateContract() external {... */\n      jump\t// out\n        /* \"contracts/HouseRentalAgreement.sol\":2933:3983  function payRent() external payable {... */\n    tag_73:\n        /* \"contracts/HouseRentalAgreement.sol\":3002:3008  renter */\n      0x01\n      0x00\n      swap1\n      sload\n      swap1\n      0x0100\n      exp\n      swap1\n      div\n      0xffffffffffffffffffffffffffffffffffffffff\n      and\n        /* \"contracts/HouseRentalAgreement.sol\":2988:3008  msg.sender == renter */\n      0xffffffffffffffffffffffffffffffffffffffff\n      and\n        /* \"contracts/HouseRentalAgreement.sol\":2988:2998  msg.sender */\n      caller\n        /* \"contracts/HouseRentalAgreement.sol\":2988:3008  msg.sender == renter */\n      0xffffffffffffffffffffffffffffffffffffffff\n      and\n      eq\n        /* \"contracts/HouseRentalAgreement.sol\":2980:3037  require(msg.sender == renter, \"Only renter can pay rent\") */\n      tag_130\n      jumpi\n      mload(0x40)\n      0x08c379a000000000000000000000000000000000000000000000000000000000\n      dup2\n      mstore\n      0x04\n      add\n      tag_131\n      swap1\n      tag_132\n      jump\t// in\n    tag_131:\n      mload(0x40)\n      dup1\n      swap2\n      sub\n      swap1\n      revert\n    tag_130:\n        /* \"contracts/HouseRentalAgreement.sol\":3056:3064  isActive */\n      0x08\n      0x00\n      swap1\n      sload\n      swap1\n      0x0100\n      exp\n      swap1\n      div\n      0xff\n      and\n        /* \"contracts/HouseRentalAgreement.sol\":3048:3091  require(isActive, \"Contract is not active\") */\n      tag_133\n      jumpi\n      mload(0x40)\n      0x08c379a000000000000000000000000000000000000000000000000000000000\n      dup2\n      mstore\n      0x04\n      add\n      tag_134\n      swap1\n      tag_114\n      jump\t// in\n    tag_134:\n      mload(0x40)\n      dup1\n      swap2\n      sub\n      swap1\n      revert\n    tag_133:\n        /* \"contracts/HouseRentalAgreement.sol\":3126:3144  rentPeriodInMonths */\n      sload(0x04)\n        /* \"contracts/HouseRentalAgreement.sol\":3110:3122  currentMonth */\n      sload(0x06)\n        /* \"contracts/HouseRentalAgreement.sol\":3110:3144  currentMonth <= rentPeriodInMonths */\n      gt\n      iszero\n        /* \"contracts/HouseRentalAgreement.sol\":3102:3170  require(currentMonth <= rentPeriodInMonths, \"Rent period has ended\") */\n      tag_135\n      jumpi\n      mload(0x40)\n      0x08c379a000000000000000000000000000000000000000000000000000000000\n      dup2\n      mstore\n      0x04\n      add\n      tag_136\n      swap1\n      tag_117\n      jump\t// in\n    tag_136:\n      mload(0x40)\n      dup1\n      swap2\n      sub\n      swap1\n      revert\n    tag_135:\n        /* \"contracts/HouseRentalAgreement.sol\":3191:3222  MonthlyRent storage currentRent */\n      0x00\n        /* \"contracts/HouseRentalAgreement.sol\":3225:3237  monthlyRents */\n      0x09\n        /* \"contracts/HouseRentalAgreement.sol\":3225:3251  monthlyRents[currentMonth] */\n      0x00\n        /* \"contracts/HouseRentalAgreement.sol\":3238:3250  currentMonth */\n      sload(0x06)\n        /* \"contracts/HouseRentalAgreement.sol\":3225:3251  monthlyRents[currentMonth] */\n      dup2\n      mstore\n      0x20\n      add\n      swap1\n      dup2\n      mstore\n      0x20\n      add\n      0x00\n      keccak256\n        /* \"contracts/HouseRentalAgreement.sol\":3191:3251  MonthlyRent storage currentRent = monthlyRents[currentMonth] */\n      swap1\n      pop\n        /* \"contracts/HouseRentalAgreement.sol\":3271:3282  currentRent */\n      dup1\n        /* \"contracts/HouseRentalAgreement.sol\":3271:3287  currentRent.paid */\n      0x03\n      add\n      0x00\n      swap1\n      sload\n      swap1\n      0x0100\n      exp\n      swap1\n      div\n      0xff\n      and\n        /* \"contracts/HouseRentalAgreement.sol\":3270:3287  !currentRent.paid */\n      iszero\n        /* \"contracts/HouseRentalAgreement.sol\":3262:3333  require(!currentRent.paid, \"Rent for this month has already been paid\") */\n      tag_137\n      jumpi\n      mload(0x40)\n      0x08c379a000000000000000000000000000000000000000000000000000000000\n      dup2\n      mstore\n      0x04\n      add\n      tag_138\n      swap1\n      tag_139\n      jump\t// in\n    tag_138:\n      mload(0x40)\n      dup1\n      swap2\n      sub\n      swap1\n      revert\n    tag_137:\n        /* \"contracts/HouseRentalAgreement.sol\":3376:3377  0 */\n      0x00\n        /* \"contracts/HouseRentalAgreement.sol\":3352:3363  currentRent */\n      dup2\n        /* \"contracts/HouseRentalAgreement.sol\":3352:3373  currentRent.utilities */\n      0x01\n      add\n      sload\n        /* \"contracts/HouseRentalAgreement.sol\":3352:3377  currentRent.utilities > 0 */\n      gt\n        /* \"contracts/HouseRentalAgreement.sol\":3344:3429  require(currentRent.utilities > 0, \"Utilities for this month have not been recorded\") */\n      tag_140\n      jumpi\n      mload(0x40)\n      0x08c379a000000000000000000000000000000000000000000000000000000000\n      dup2\n      mstore\n      0x04\n      add\n      tag_141\n      swap1\n      tag_142\n      jump\t// in\n    tag_141:\n      mload(0x40)\n      dup1\n      swap2\n      sub\n      swap1\n      revert\n    tag_140:\n        /* \"contracts/HouseRentalAgreement.sol\":3442:3459  uint256 totalRent */\n      0x00\n        /* \"contracts/HouseRentalAgreement.sol\":3509:3516  dueRent */\n      sload(0x07)\n        /* \"contracts/HouseRentalAgreement.sol\":3485:3496  currentRent */\n      dup3\n        /* \"contracts/HouseRentalAgreement.sol\":3485:3506  currentRent.utilities */\n      0x01\n      add\n      sload\n        /* \"contracts/HouseRentalAgreement.sol\":3462:3473  currentRent */\n      dup4\n        /* \"contracts/HouseRentalAgreement.sol\":3462:3482  currentRent.baseRent */\n      0x00\n      add\n      sload\n        /* \"contracts/HouseRentalAgreement.sol\":3462:3506  currentRent.baseRent + currentRent.utilities */\n      tag_143\n      swap2\n      swap1\n      tag_144\n      jump\t// in\n    tag_143:\n        /* \"contracts/HouseRentalAgreement.sol\":3462:3516  currentRent.baseRent + currentRent.utilities + dueRent */\n      tag_145\n      swap2\n      swap1\n      tag_144\n      jump\t// in\n    tag_145:\n        /* \"contracts/HouseRentalAgreement.sol\":3442:3516  uint256 totalRent = currentRent.baseRent + currentRent.utilities + dueRent */\n      swap1\n      pop\n        /* \"contracts/HouseRentalAgreement.sol\":3548:3557  totalRent */\n      dup1\n        /* \"contracts/HouseRentalAgreement.sol\":3535:3544  msg.value */\n      callvalue\n        /* \"contracts/HouseRentalAgreement.sol\":3535:3557  msg.value == totalRent */\n      eq\n        /* \"contracts/HouseRentalAgreement.sol\":3527:3583  require(msg.value == totalRent, \"Incorrect rent amount\") */\n      tag_146\n      jumpi\n      mload(0x40)\n      0x08c379a000000000000000000000000000000000000000000000000000000000\n      dup2\n      mstore\n      0x04\n      add\n      tag_147\n      swap1\n      tag_148\n      jump\t// in\n    tag_147:\n      mload(0x40)\n      dup1\n      swap2\n      sub\n      swap1\n      revert\n    tag_146:\n        /* \"contracts/HouseRentalAgreement.sol\":3615:3619  true */\n      0x01\n        /* \"contracts/HouseRentalAgreement.sol\":3596:3607  currentRent */\n      dup3\n        /* \"contracts/HouseRentalAgreement.sol\":3596:3612  currentRent.paid */\n      0x03\n      add\n      0x00\n        /* \"contracts/HouseRentalAgreement.sol\":3596:3619  currentRent.paid = true */\n      0x0100\n      exp\n      dup2\n      sload\n      dup2\n      0xff\n      mul\n      not\n      and\n      swap1\n      dup4\n      iszero\n      iszero\n      mul\n      or\n      swap1\n      sstore\n      pop\n        /* \"contracts/HouseRentalAgreement.sol\":3640:3641  0 */\n      0x00\n        /* \"contracts/HouseRentalAgreement.sol\":3630:3637  dueRent */\n      0x07\n        /* \"contracts/HouseRentalAgreement.sol\":3630:3641  dueRent = 0 */\n      dup2\n      swap1\n      sstore\n      pop\n        /* \"contracts/HouseRentalAgreement.sol\":3659:3692  RentPaid(currentMonth, totalRent) */\n      0xa0d112ed080c1b1a94b838ad981a23746be2a4670fd4bf157224e72cdd5dfdde\n        /* \"contracts/HouseRentalAgreement.sol\":3668:3680  currentMonth */\n      sload(0x06)\n        /* \"contracts/HouseRentalAgreement.sol\":3682:3691  totalRent */\n      dup3\n        /* \"contracts/HouseRentalAgreement.sol\":3659:3692  RentPaid(currentMonth, totalRent) */\n      mload(0x40)\n      tag_149\n      swap3\n      swap2\n      swap1\n      tag_119\n      jump\t// in\n    tag_149:\n      mload(0x40)\n      dup1\n      swap2\n      sub\n      swap1\n      log1\n        /* \"contracts/HouseRentalAgreement.sol\":3751:3759  landlord */\n      0x00\n      dup1\n      sload\n      swap1\n      0x0100\n      exp\n      swap1\n      div\n      0xffffffffffffffffffffffffffffffffffffffff\n      and\n        /* \"contracts/HouseRentalAgreement.sol\":3743:3769  payable(landlord).transfer */\n      0xffffffffffffffffffffffffffffffffffffffff\n      and\n        /* \"contracts/HouseRentalAgreement.sol\":3743:3780  payable(landlord).transfer(totalRent) */\n      0x08fc\n        /* \"contracts/HouseRentalAgreement.sol\":3770:3779  totalRent */\n      dup3\n        /* \"contracts/HouseRentalAgreement.sol\":3743:3780  payable(landlord).transfer(totalRent) */\n      swap1\n      dup2\n      iszero\n      mul\n      swap1\n      mload(0x40)\n      0x00\n      mload(0x40)\n      dup1\n      dup4\n      sub\n      dup2\n      dup6\n      dup9\n      dup9\n      call\n      swap4\n      pop\n      pop\n      pop\n      pop\n      iszero\n      dup1\n      iszero\n      tag_151\n      jumpi\n      returndatasize\n      0x00\n      dup1\n      returndatacopy\n      revert(0x00, returndatasize)\n    tag_151:\n      pop\n        /* \"contracts/HouseRentalAgreement.sol\":3796:3836  RentTransferred(currentMonth, totalRent) */\n      0x9af72f88f132a14442854dc5970b4b93a4fee657fea587a232828625d2fa4866\n        /* \"contracts/HouseRentalAgreement.sol\":3812:3824  currentMonth */\n      sload(0x06)\n        /* \"contracts/HouseRentalAgreement.sol\":3826:3835  totalRent */\n      dup3\n        /* \"contracts/HouseRentalAgreement.sol\":3796:3836  RentTransferred(currentMonth, totalRent) */\n      mload(0x40)\n      tag_152\n      swap3\n      swap2\n      swap1\n      tag_119\n      jump\t// in\n    tag_152:\n      mload(0x40)\n      dup1\n      swap2\n      sub\n      swap1\n      log1\n        /* \"contracts/HouseRentalAgreement.sol\":3869:3887  rentPeriodInMonths */\n      sload(0x04)\n        /* \"contracts/HouseRentalAgreement.sol\":3853:3865  currentMonth */\n      sload(0x06)\n        /* \"contracts/HouseRentalAgreement.sol\":3853:3887  currentMonth == rentPeriodInMonths */\n      sub\n        /* \"contracts/HouseRentalAgreement.sol\":3849:3976  if (currentMonth == rentPeriodInMonths) {... */\n      tag_153\n      jumpi\n        /* \"contracts/HouseRentalAgreement.sol\":3904:3917  endContract() */\n      tag_154\n        /* \"contracts/HouseRentalAgreement.sol\":3904:3915  endContract */\n      tag_155\n        /* \"contracts/HouseRentalAgreement.sol\":3904:3917  endContract() */\n      jump\t// in\n    tag_154:\n        /* \"contracts/HouseRentalAgreement.sol\":3849:3976  if (currentMonth == rentPeriodInMonths) {... */\n      jump(tag_156)\n    tag_153:\n        /* \"contracts/HouseRentalAgreement.sol\":3950:3962  currentMonth */\n      0x06\n      0x00\n        /* \"contracts/HouseRentalAgreement.sol\":3950:3964  currentMonth++ */\n      dup2\n      sload\n      dup1\n      swap3\n      swap2\n      swap1\n      tag_157\n      swap1\n      tag_158\n      jump\t// in\n    tag_157:\n      swap2\n      swap1\n      pop\n      sstore\n      pop\n        /* \"contracts/HouseRentalAgreement.sol\":3849:3976  if (currentMonth == rentPeriodInMonths) {... */\n    tag_156:\n        /* \"contracts/HouseRentalAgreement.sol\":2969:3983  {... */\n      pop\n      pop\n        /* \"contracts/HouseRentalAgreement.sol\":2933:3983  function payRent() external payable {... */\n      jump\t// out\n        /* \"contracts/HouseRentalAgreement.sol\":3991:4809  function skipRentPayment() external {... */\n    tag_76:\n        /* \"contracts/HouseRentalAgreement.sol\":4060:4066  renter */\n      0x01\n      0x00\n      swap1\n      sload\n      swap1\n      0x0100\n      exp\n      swap1\n      div\n      0xffffffffffffffffffffffffffffffffffffffff\n      and\n        /* \"contracts/HouseRentalAgreement.sol\":4046:4066  msg.sender == renter */\n      0xffffffffffffffffffffffffffffffffffffffff\n      and\n        /* \"contracts/HouseRentalAgreement.sol\":4046:4056  msg.sender */\n      caller\n        /* \"contracts/HouseRentalAgreement.sol\":4046:4066  msg.sender == renter */\n      0xffffffffffffffffffffffffffffffffffffffff\n      and\n      eq\n        /* \"contracts/HouseRentalAgreement.sol\":4038:4104  require(msg.sender == renter, \"Only renter can skip rent payment\") */\n      tag_160\n      jumpi\n      mload(0x40)\n      0x08c379a000000000000000000000000000000000000000000000000000000000\n      dup2\n      mstore\n      0x04\n      add\n      tag_161\n      swap1\n      tag_162\n      jump\t// in\n    tag_161:\n      mload(0x40)\n      dup1\n      swap2\n      sub\n      swap1\n      revert\n    tag_160:\n        /* \"contracts/HouseRentalAgreement.sol\":4123:4131  isActive */\n      0x08\n      0x00\n      swap1\n      sload\n      swap1\n      0x0100\n      exp\n      swap1\n      div\n      0xff\n      and\n        /* \"contracts/HouseRentalAgreement.sol\":4115:4158  require(isActive, \"Contract is not active\") */\n      tag_163\n      jumpi\n      mload(0x40)\n      0x08c379a000000000000000000000000000000000000000000000000000000000\n      dup2\n      mstore\n      0x04\n      add\n      tag_164\n      swap1\n      tag_114\n      jump\t// in\n    tag_164:\n      mload(0x40)\n      dup1\n      swap2\n      sub\n      swap1\n      revert\n    tag_163:\n        /* \"contracts/HouseRentalAgreement.sol\":4193:4211  rentPeriodInMonths */\n      sload(0x04)\n        /* \"contracts/HouseRentalAgreement.sol\":4177:4189  currentMonth */\n      sload(0x06)\n        /* \"contracts/HouseRentalAgreement.sol\":4177:4211  currentMonth <= rentPeriodInMonths */\n      gt\n      iszero\n        /* \"contracts/HouseRentalAgreement.sol\":4169:4237  require(currentMonth <= rentPeriodInMonths, \"Rent period has ended\") */\n      tag_165\n      jumpi\n      mload(0x40)\n      0x08c379a000000000000000000000000000000000000000000000000000000000\n      dup2\n      mstore\n      0x04\n      add\n      tag_166\n      swap1\n      tag_117\n      jump\t// in\n    tag_166:\n      mload(0x40)\n      dup1\n      swap2\n      sub\n      swap1\n      revert\n    tag_165:\n        /* \"contracts/HouseRentalAgreement.sol\":4250:4281  MonthlyRent storage currentRent */\n      0x00\n        /* \"contracts/HouseRentalAgreement.sol\":4284:4296  monthlyRents */\n      0x09\n        /* \"contracts/HouseRentalAgreement.sol\":4284:4310  monthlyRents[currentMonth] */\n      0x00\n        /* \"contracts/HouseRentalAgreement.sol\":4297:4309  currentMonth */\n      sload(0x06)\n        /* \"contracts/HouseRentalAgreement.sol\":4284:4310  monthlyRents[currentMonth] */\n      dup2\n      mstore\n      0x20\n      add\n      swap1\n      dup2\n      mstore\n      0x20\n      add\n      0x00\n      keccak256\n        /* \"contracts/HouseRentalAgreement.sol\":4250:4310  MonthlyRent storage currentRent = monthlyRents[currentMonth] */\n      swap1\n      pop\n        /* \"contracts/HouseRentalAgreement.sol\":4330:4341  currentRent */\n      dup1\n        /* \"contracts/HouseRentalAgreement.sol\":4330:4346  currentRent.paid */\n      0x03\n      add\n      0x00\n      swap1\n      sload\n      swap1\n      0x0100\n      exp\n      swap1\n      div\n      0xff\n      and\n        /* \"contracts/HouseRentalAgreement.sol\":4329:4346  !currentRent.paid */\n      iszero\n        /* \"contracts/HouseRentalAgreement.sol\":4321:4392  require(!currentRent.paid, \"Rent for this month has already been paid\") */\n      tag_167\n      jumpi\n      mload(0x40)\n      0x08c379a000000000000000000000000000000000000000000000000000000000\n      dup2\n      mstore\n      0x04\n      add\n      tag_168\n      swap1\n      tag_139\n      jump\t// in\n    tag_168:\n      mload(0x40)\n      dup1\n      swap2\n      sub\n      swap1\n      revert\n    tag_167:\n        /* \"contracts/HouseRentalAgreement.sol\":4435:4436  0 */\n      0x00\n        /* \"contracts/HouseRentalAgreement.sol\":4411:4422  currentRent */\n      dup2\n        /* \"contracts/HouseRentalAgreement.sol\":4411:4432  currentRent.utilities */\n      0x01\n      add\n      sload\n        /* \"contracts/HouseRentalAgreement.sol\":4411:4436  currentRent.utilities > 0 */\n      gt\n        /* \"contracts/HouseRentalAgreement.sol\":4403:4488  require(currentRent.utilities > 0, \"Utilities for this month have not been recorded\") */\n      tag_169\n      jumpi\n      mload(0x40)\n      0x08c379a000000000000000000000000000000000000000000000000000000000\n      dup2\n      mstore\n      0x04\n      add\n      tag_170\n      swap1\n      tag_142\n      jump\t// in\n    tag_170:\n      mload(0x40)\n      dup1\n      swap2\n      sub\n      swap1\n      revert\n    tag_169:\n        /* \"contracts/HouseRentalAgreement.sol\":4501:4522  uint256 skippedAmount */\n      0x00\n        /* \"contracts/HouseRentalAgreement.sol\":4548:4559  currentRent */\n      dup2\n        /* \"contracts/HouseRentalAgreement.sol\":4548:4569  currentRent.utilities */\n      0x01\n      add\n      sload\n        /* \"contracts/HouseRentalAgreement.sol\":4525:4536  currentRent */\n      dup3\n        /* \"contracts/HouseRentalAgreement.sol\":4525:4545  currentRent.baseRent */\n      0x00\n      add\n      sload\n        /* \"contracts/HouseRentalAgreement.sol\":4525:4569  currentRent.baseRent + currentRent.utilities */\n      tag_171\n      swap2\n      swap1\n      tag_144\n      jump\t// in\n    tag_171:\n        /* \"contracts/HouseRentalAgreement.sol\":4501:4569  uint256 skippedAmount = currentRent.baseRent + currentRent.utilities */\n      swap1\n      pop\n        /* \"contracts/HouseRentalAgreement.sol\":4591:4604  skippedAmount */\n      dup1\n        /* \"contracts/HouseRentalAgreement.sol\":4580:4587  dueRent */\n      0x07\n      0x00\n        /* \"contracts/HouseRentalAgreement.sol\":4580:4604  dueRent += skippedAmount */\n      dup3\n      dup3\n      sload\n      tag_172\n      swap2\n      swap1\n      tag_144\n      jump\t// in\n    tag_172:\n      swap3\n      pop\n      pop\n      dup2\n      swap1\n      sstore\n      pop\n        /* \"contracts/HouseRentalAgreement.sol\":4622:4662  RentSkipped(currentMonth, skippedAmount) */\n      0x9ea3a4b65940d7b9dbf8bb1c459ba8e81222d1a596e93fbc364365a6d78e27d6\n        /* \"contracts/HouseRentalAgreement.sol\":4634:4646  currentMonth */\n      sload(0x06)\n        /* \"contracts/HouseRentalAgreement.sol\":4648:4661  skippedAmount */\n      dup3\n        /* \"contracts/HouseRentalAgreement.sol\":4622:4662  RentSkipped(currentMonth, skippedAmount) */\n      mload(0x40)\n      tag_173\n      swap3\n      swap2\n      swap1\n      tag_119\n      jump\t// in\n    tag_173:\n      mload(0x40)\n      dup1\n      swap2\n      sub\n      swap1\n      log1\n        /* \"contracts/HouseRentalAgreement.sol\":4695:4713  rentPeriodInMonths */\n      sload(0x04)\n        /* \"contracts/HouseRentalAgreement.sol\":4679:4691  currentMonth */\n      sload(0x06)\n        /* \"contracts/HouseRentalAgreement.sol\":4679:4713  currentMonth == rentPeriodInMonths */\n      sub\n        /* \"contracts/HouseRentalAgreement.sol\":4675:4802  if (currentMonth == rentPeriodInMonths) {... */\n      tag_174\n      jumpi\n        /* \"contracts/HouseRentalAgreement.sol\":4730:4743  endContract() */\n      tag_175\n        /* \"contracts/HouseRentalAgreement.sol\":4730:4741  endContract */\n      tag_155\n        /* \"contracts/HouseRentalAgreement.sol\":4730:4743  endContract() */\n      jump\t// in\n    tag_175:\n        /* \"contracts/HouseRentalAgreement.sol\":4675:4802  if (currentMonth == rentPeriodInMonths) {... */\n      jump(tag_176)\n    tag_174:\n        /* \"contracts/HouseRentalAgreement.sol\":4776:4788  currentMonth */\n      0x06\n      0x00\n        /* \"contracts/HouseRentalAgreement.sol\":4776:4790  currentMonth++ */\n      dup2\n      sload\n      dup1\n      swap3\n      swap2\n      swap1\n      tag_177\n      swap1\n      tag_158\n      jump\t// in\n    tag_177:\n      swap2\n      swap1\n      pop\n      sstore\n      pop\n        /* \"contracts/HouseRentalAgreement.sol\":4675:4802  if (currentMonth == rentPeriodInMonths) {... */\n    tag_176:\n        /* \"contracts/HouseRentalAgreement.sol\":4027:4809  {... */\n      pop\n      pop\n        /* \"contracts/HouseRentalAgreement.sol\":3991:4809  function skipRentPayment() external {... */\n      jump\t// out\n        /* \"contracts/HouseRentalAgreement.sol\":1252:1722  function setAgreementTerms(uint256 _securityDeposit, uint256 _baseRent, uint256 _rentPeriodInMonths) external {... */\n    tag_81:\n        /* \"contracts/HouseRentalAgreement.sol\":1395:1403  landlord */\n      0x00\n      dup1\n      sload\n      swap1\n      0x0100\n      exp\n      swap1\n      div\n      0xffffffffffffffffffffffffffffffffffffffff\n      and\n        /* \"contracts/HouseRentalAgreement.sol\":1381:1403  msg.sender == landlord */\n      0xffffffffffffffffffffffffffffffffffffffff\n      and\n        /* \"contracts/HouseRentalAgreement.sol\":1381:1391  msg.sender */\n      caller\n        /* \"contracts/HouseRentalAgreement.sol\":1381:1403  msg.sender == landlord */\n      0xffffffffffffffffffffffffffffffffffffffff\n      and\n      eq\n        /* \"contracts/HouseRentalAgreement.sol\":1373:1445  require(msg.sender == landlord, \"Only landlord can set agreement terms\") */\n      tag_179\n      jumpi\n      mload(0x40)\n      0x08c379a000000000000000000000000000000000000000000000000000000000\n      dup2\n      mstore\n      0x04\n      add\n      tag_180\n      swap1\n      tag_181\n      jump\t// in\n    tag_180:\n      mload(0x40)\n      dup1\n      swap2\n      sub\n      swap1\n      revert\n    tag_179:\n        /* \"contracts/HouseRentalAgreement.sol\":1465:1473  isActive */\n      0x08\n      0x00\n      swap1\n      sload\n      swap1\n      0x0100\n      exp\n      swap1\n      div\n      0xff\n      and\n        /* \"contracts/HouseRentalAgreement.sol\":1464:1473  !isActive */\n      iszero\n        /* \"contracts/HouseRentalAgreement.sol\":1456:1504  require(!isActive, \"Contract is already active\") */\n      tag_182\n      jumpi\n      mload(0x40)\n      0x08c379a000000000000000000000000000000000000000000000000000000000\n      dup2\n      mstore\n      0x04\n      add\n      tag_183\n      swap1\n      tag_102\n      jump\t// in\n    tag_183:\n      mload(0x40)\n      dup1\n      swap2\n      sub\n      swap1\n      revert\n    tag_182:\n        /* \"contracts/HouseRentalAgreement.sol\":1533:1549  _securityDeposit */\n      dup3\n        /* \"contracts/HouseRentalAgreement.sol\":1515:1530  securityDeposit */\n      0x02\n        /* \"contracts/HouseRentalAgreement.sol\":1515:1549  securityDeposit = _securityDeposit */\n      dup2\n      swap1\n      sstore\n      pop\n        /* \"contracts/HouseRentalAgreement.sol\":1571:1580  _baseRent */\n      dup2\n        /* \"contracts/HouseRentalAgreement.sol\":1560:1568  baseRent */\n      0x03\n        /* \"contracts/HouseRentalAgreement.sol\":1560:1580  baseRent = _baseRent */\n      dup2\n      swap1\n      sstore\n      pop\n        /* \"contracts/HouseRentalAgreement.sol\":1612:1631  _rentPeriodInMonths */\n      dup1\n        /* \"contracts/HouseRentalAgreement.sol\":1591:1609  rentPeriodInMonths */\n      0x04\n        /* \"contracts/HouseRentalAgreement.sol\":1591:1631  rentPeriodInMonths = _rentPeriodInMonths */\n      dup2\n      swap1\n      sstore\n      pop\n        /* \"contracts/HouseRentalAgreement.sol\":1647:1714  AgreementTermsSet(_securityDeposit, _baseRent, _rentPeriodInMonths) */\n      0x2f47566d4872826a9750e05ae448ad21f2a677c332d36d6437b697a7f8dd1e14\n        /* \"contracts/HouseRentalAgreement.sol\":1665:1681  _securityDeposit */\n      dup4\n        /* \"contracts/HouseRentalAgreement.sol\":1683:1692  _baseRent */\n      dup4\n        /* \"contracts/HouseRentalAgreement.sol\":1694:1713  _rentPeriodInMonths */\n      dup4\n        /* \"contracts/HouseRentalAgreement.sol\":1647:1714  AgreementTermsSet(_securityDeposit, _baseRent, _rentPeriodInMonths) */\n      mload(0x40)\n      tag_184\n      swap4\n      swap3\n      swap2\n      swap1\n      tag_185\n      jump\t// in\n    tag_184:\n      mload(0x40)\n      dup1\n      swap2\n      sub\n      swap1\n      log1\n        /* \"contracts/HouseRentalAgreement.sol\":1252:1722  function setAgreementTerms(uint256 _securityDeposit, uint256 _baseRent, uint256 _rentPeriodInMonths) external {... */\n      pop\n      pop\n      pop\n      jump\t// out\n        /* \"contracts/HouseRentalAgreement.sol\":97:120  address public landlord */\n    tag_84:\n      0x00\n      dup1\n      sload\n      swap1\n      0x0100\n      exp\n      swap1\n      div\n      0xffffffffffffffffffffffffffffffffffffffff\n      and\n      dup2\n      jump\t// out\n        /* \"contracts/HouseRentalAgreement.sol\":561:612  mapping(uint256 => MonthlyRent) public monthlyRents */\n    tag_89:\n      mstore(0x20, 0x09)\n      dup1\n      0x00\n      mstore\n      keccak256(0x00, 0x40)\n      0x00\n      swap2\n      pop\n      swap1\n      pop\n      dup1\n      0x00\n      add\n      sload\n      swap1\n      dup1\n      0x01\n      add\n      sload\n      swap1\n      dup1\n      0x02\n      add\n      sload\n      swap1\n      dup1\n      0x03\n      add\n      0x00\n      swap1\n      sload\n      swap1\n      0x0100\n      exp\n      swap1\n      div\n      0xff\n      and\n      swap1\n      pop\n      dup5\n      jump\t// out\n        /* \"contracts/HouseRentalAgreement.sol\":387:420  bool public isSecurityDepositPaid */\n    tag_94:\n      0x08\n      0x01\n      swap1\n      sload\n      swap1\n      0x0100\n      exp\n      swap1\n      div\n      0xff\n      and\n      dup2\n      jump\t// out\n        /* \"contracts/HouseRentalAgreement.sol\":4817:5399  function endContract() private {... */\n    tag_155:\n        /* \"contracts/HouseRentalAgreement.sol\":4870:4875  false */\n      0x00\n        /* \"contracts/HouseRentalAgreement.sol\":4859:4867  isActive */\n      0x08\n      0x00\n        /* \"contracts/HouseRentalAgreement.sol\":4859:4875  isActive = false */\n      0x0100\n      exp\n      dup2\n      sload\n      dup2\n      0xff\n      mul\n      not\n      and\n      swap1\n      dup4\n      iszero\n      iszero\n      mul\n      or\n      swap1\n      sstore\n      pop\n        /* \"contracts/HouseRentalAgreement.sol\":4886:4903  uint256 dueAmount */\n      0x00\n        /* \"contracts/HouseRentalAgreement.sol\":4906:4913  dueRent */\n      sload(0x07)\n        /* \"contracts/HouseRentalAgreement.sol\":4886:4913  uint256 dueAmount = dueRent */\n      swap1\n      pop\n        /* \"contracts/HouseRentalAgreement.sol\":4924:4938  uint256 refund */\n      0x00\n        /* \"contracts/HouseRentalAgreement.sol\":4971:4972  0 */\n      dup1\n        /* \"contracts/HouseRentalAgreement.sol\":4959:4968  dueAmount */\n      dup3\n        /* \"contracts/HouseRentalAgreement.sol\":4959:4972  dueAmount > 0 */\n      gt\n        /* \"contracts/HouseRentalAgreement.sol\":4955:5255  if (dueAmount > 0) {... */\n      iszero\n      tag_187\n      jumpi\n        /* \"contracts/HouseRentalAgreement.sol\":5005:5020  securityDeposit */\n      sload(0x02)\n        /* \"contracts/HouseRentalAgreement.sol\":4993:5002  dueAmount */\n      dup3\n        /* \"contracts/HouseRentalAgreement.sol\":4993:5020  dueAmount > securityDeposit */\n      gt\n        /* \"contracts/HouseRentalAgreement.sol\":4989:5084  if (dueAmount > securityDeposit) {... */\n      iszero\n      tag_188\n      jumpi\n        /* \"contracts/HouseRentalAgreement.sol\":5053:5068  securityDeposit */\n      sload(0x02)\n        /* \"contracts/HouseRentalAgreement.sol\":5041:5068  dueAmount = securityDeposit */\n      swap2\n      pop\n        /* \"contracts/HouseRentalAgreement.sol\":4989:5084  if (dueAmount > securityDeposit) {... */\n    tag_188:\n        /* \"contracts/HouseRentalAgreement.sol\":5106:5114  landlord */\n      0x00\n      dup1\n      sload\n      swap1\n      0x0100\n      exp\n      swap1\n      div\n      0xffffffffffffffffffffffffffffffffffffffff\n      and\n        /* \"contracts/HouseRentalAgreement.sol\":5098:5124  payable(landlord).transfer */\n      0xffffffffffffffffffffffffffffffffffffffff\n      and\n        /* \"contracts/HouseRentalAgreement.sol\":5098:5135  payable(landlord).transfer(dueAmount) */\n      0x08fc\n        /* \"contracts/HouseRentalAgreement.sol\":5125:5134  dueAmount */\n      dup4\n        /* \"contracts/HouseRentalAgreement.sol\":5098:5135  payable(landlord).transfer(dueAmount) */\n      swap1\n      dup2\n      iszero\n      mul\n      swap1\n      mload(0x40)\n      0x00\n      mload(0x40)\n      dup1\n      dup4\n      sub\n      dup2\n      dup6\n      dup9\n      dup9\n      call\n      swap4\n      pop\n      pop\n      pop\n      pop\n      iszero\n      dup1\n      iszero\n      tag_190\n      jumpi\n      returndatasize\n      0x00\n      dup1\n      returndatacopy\n      revert(0x00, returndatasize)\n    tag_190:\n      pop\n        /* \"contracts/HouseRentalAgreement.sol\":5177:5186  dueAmount */\n      dup2\n        /* \"contracts/HouseRentalAgreement.sol\":5159:5174  securityDeposit */\n      sload(0x02)\n        /* \"contracts/HouseRentalAgreement.sol\":5159:5186  securityDeposit - dueAmount */\n      tag_191\n      swap2\n      swap1\n      tag_192\n      jump\t// in\n    tag_191:\n        /* \"contracts/HouseRentalAgreement.sol\":5150:5186  refund = securityDeposit - dueAmount */\n      swap1\n      pop\n        /* \"contracts/HouseRentalAgreement.sol\":4955:5255  if (dueAmount > 0) {... */\n      jump(tag_193)\n    tag_187:\n        /* \"contracts/HouseRentalAgreement.sol\":5228:5243  securityDeposit */\n      sload(0x02)\n        /* \"contracts/HouseRentalAgreement.sol\":5219:5243  refund = securityDeposit */\n      swap1\n      pop\n        /* \"contracts/HouseRentalAgreement.sol\":4955:5255  if (dueAmount > 0) {... */\n    tag_193:\n        /* \"contracts/HouseRentalAgreement.sol\":5280:5281  0 */\n      0x00\n        /* \"contracts/HouseRentalAgreement.sol\":5271:5277  refund */\n      dup2\n        /* \"contracts/HouseRentalAgreement.sol\":5271:5281  refund > 0 */\n      gt\n        /* \"contracts/HouseRentalAgreement.sol\":5267:5342  if (refund > 0) {... */\n      iszero\n      tag_194\n      jumpi\n        /* \"contracts/HouseRentalAgreement.sol\":5306:5312  renter */\n      0x01\n      0x00\n      swap1\n      sload\n      swap1\n      0x0100\n      exp\n      swap1\n      div\n      0xffffffffffffffffffffffffffffffffffffffff\n      and\n        /* \"contracts/HouseRentalAgreement.sol\":5298:5322  payable(renter).transfer */\n      0xffffffffffffffffffffffffffffffffffffffff\n      and\n        /* \"contracts/HouseRentalAgreement.sol\":5298:5330  payable(renter).transfer(refund) */\n      0x08fc\n        /* \"contracts/HouseRentalAgreement.sol\":5323:5329  refund */\n      dup3\n        /* \"contracts/HouseRentalAgreement.sol\":5298:5330  payable(renter).transfer(refund) */\n      swap1\n      dup2\n      iszero\n      mul\n      swap1\n      mload(0x40)\n      0x00\n      mload(0x40)\n      dup1\n      dup4\n      sub\n      dup2\n      dup6\n      dup9\n      dup9\n      call\n      swap4\n      pop\n      pop\n      pop\n      pop\n      iszero\n      dup1\n      iszero\n      tag_196\n      jumpi\n      returndatasize\n      0x00\n      dup1\n      returndatacopy\n      revert(0x00, returndatasize)\n    tag_196:\n      pop\n        /* \"contracts/HouseRentalAgreement.sol\":5267:5342  if (refund > 0) {... */\n    tag_194:\n        /* \"contracts/HouseRentalAgreement.sol\":5359:5391  ContractEnded(refund, dueAmount) */\n      0xc0590c5a8ce79dffbdde17480a06203778f954965615e1d9577dbc90da2ff109\n        /* \"contracts/HouseRentalAgreement.sol\":5373:5379  refund */\n      dup2\n        /* \"contracts/HouseRentalAgreement.sol\":5381:5390  dueAmount */\n      dup4\n        /* \"contracts/HouseRentalAgreement.sol\":5359:5391  ContractEnded(refund, dueAmount) */\n      mload(0x40)\n      tag_197\n      swap3\n      swap2\n      swap1\n      tag_119\n      jump\t// in\n    tag_197:\n      mload(0x40)\n      dup1\n      swap2\n      sub\n      swap1\n      log1\n        /* \"contracts/HouseRentalAgreement.sol\":4848:5399  {... */\n      pop\n      pop\n        /* \"contracts/HouseRentalAgreement.sol\":4817:5399  function endContract() private {... */\n      jump\t// out\n        /* \"#utility.yul\":7:84   */\n    tag_198:\n        /* \"#utility.yul\":44:51   */\n      0x00\n        /* \"#utility.yul\":73:78   */\n      dup2\n        /* \"#utility.yul\":62:78   */\n      swap1\n      pop\n        /* \"#utility.yul\":7:84   */\n      swap2\n      swap1\n      pop\n      jump\t// out\n        /* \"#utility.yul\":90:208   */\n    tag_199:\n        /* \"#utility.yul\":177:201   */\n      tag_243\n        /* \"#utility.yul\":195:200   */\n      dup2\n        /* \"#utility.yul\":177:201   */\n      tag_198\n      jump\t// in\n    tag_243:\n        /* \"#utility.yul\":172:175   */\n      dup3\n        /* \"#utility.yul\":165:202   */\n      mstore\n        /* \"#utility.yul\":90:208   */\n      pop\n      pop\n      jump\t// out\n        /* \"#utility.yul\":214:436   */\n    tag_27:\n        /* \"#utility.yul\":307:311   */\n      0x00\n        /* \"#utility.yul\":345:347   */\n      0x20\n        /* \"#utility.yul\":334:343   */\n      dup3\n        /* \"#utility.yul\":330:348   */\n      add\n        /* \"#utility.yul\":322:348   */\n      swap1\n      pop\n        /* \"#utility.yul\":358:429   */\n      tag_245\n        /* \"#utility.yul\":426:427   */\n      0x00\n        /* \"#utility.yul\":415:424   */\n      dup4\n        /* \"#utility.yul\":411:428   */\n      add\n        /* \"#utility.yul\":402:408   */\n      dup5\n        /* \"#utility.yul\":358:429   */\n      tag_199\n      jump\t// in\n    tag_245:\n        /* \"#utility.yul\":214:436   */\n      swap3\n      swap2\n      pop\n      pop\n      jump\t// out\n        /* \"#utility.yul\":442:532   */\n    tag_200:\n        /* \"#utility.yul\":476:483   */\n      0x00\n        /* \"#utility.yul\":519:524   */\n      dup2\n        /* \"#utility.yul\":512:525   */\n      iszero\n        /* \"#utility.yul\":505:526   */\n      iszero\n        /* \"#utility.yul\":494:526   */\n      swap1\n      pop\n        /* \"#utility.yul\":442:532   */\n      swap2\n      swap1\n      pop\n      jump\t// out\n        /* \"#utility.yul\":538:647   */\n    tag_201:\n        /* \"#utility.yul\":619:640   */\n      tag_248\n        /* \"#utility.yul\":634:639   */\n      dup2\n        /* \"#utility.yul\":619:640   */\n      tag_200\n      jump\t// in\n    tag_248:\n        /* \"#utility.yul\":614:617   */\n      dup3\n        /* \"#utility.yul\":607:641   */\n      mstore\n        /* \"#utility.yul\":538:647   */\n      pop\n      pop\n      jump\t// out\n        /* \"#utility.yul\":653:863   */\n    tag_36:\n        /* \"#utility.yul\":740:744   */\n      0x00\n        /* \"#utility.yul\":778:780   */\n      0x20\n        /* \"#utility.yul\":767:776   */\n      dup3\n        /* \"#utility.yul\":763:781   */\n      add\n        /* \"#utility.yul\":755:781   */\n      swap1\n      pop\n        /* \"#utility.yul\":791:856   */\n      tag_250\n        /* \"#utility.yul\":853:854   */\n      0x00\n        /* \"#utility.yul\":842:851   */\n      dup4\n        /* \"#utility.yul\":838:855   */\n      add\n        /* \"#utility.yul\":829:835   */\n      dup5\n        /* \"#utility.yul\":791:856   */\n      tag_201\n      jump\t// in\n    tag_250:\n        /* \"#utility.yul\":653:863   */\n      swap3\n      swap2\n      pop\n      pop\n      jump\t// out\n        /* \"#utility.yul\":869:995   */\n    tag_202:\n        /* \"#utility.yul\":906:913   */\n      0x00\n        /* \"#utility.yul\":946:988   */\n      0xffffffffffffffffffffffffffffffffffffffff\n        /* \"#utility.yul\":939:944   */\n      dup3\n        /* \"#utility.yul\":935:989   */\n      and\n        /* \"#utility.yul\":924:989   */\n      swap1\n      pop\n        /* \"#utility.yul\":869:995   */\n      swap2\n      swap1\n      pop\n      jump\t// out\n        /* \"#utility.yul\":1001:1097   */\n    tag_203:\n        /* \"#utility.yul\":1038:1045   */\n      0x00\n        /* \"#utility.yul\":1067:1091   */\n      tag_253\n        /* \"#utility.yul\":1085:1090   */\n      dup3\n        /* \"#utility.yul\":1067:1091   */\n      tag_202\n      jump\t// in\n    tag_253:\n        /* \"#utility.yul\":1056:1091   */\n      swap1\n      pop\n        /* \"#utility.yul\":1001:1097   */\n      swap2\n      swap1\n      pop\n      jump\t// out\n        /* \"#utility.yul\":1103:1221   */\n    tag_204:\n        /* \"#utility.yul\":1190:1214   */\n      tag_255\n        /* \"#utility.yul\":1208:1213   */\n      dup2\n        /* \"#utility.yul\":1190:1214   */\n      tag_203\n      jump\t// in\n    tag_255:\n        /* \"#utility.yul\":1185:1188   */\n      dup3\n        /* \"#utility.yul\":1178:1215   */\n      mstore\n        /* \"#utility.yul\":1103:1221   */\n      pop\n      pop\n      jump\t// out\n        /* \"#utility.yul\":1227:1449   */\n    tag_41:\n        /* \"#utility.yul\":1320:1324   */\n      0x00\n        /* \"#utility.yul\":1358:1360   */\n      0x20\n        /* \"#utility.yul\":1347:1356   */\n      dup3\n        /* \"#utility.yul\":1343:1361   */\n      add\n        /* \"#utility.yul\":1335:1361   */\n      swap1\n      pop\n        /* \"#utility.yul\":1371:1442   */\n      tag_257\n        /* \"#utility.yul\":1439:1440   */\n      0x00\n        /* \"#utility.yul\":1428:1437   */\n      dup4\n        /* \"#utility.yul\":1424:1441   */\n      add\n        /* \"#utility.yul\":1415:1421   */\n      dup5\n        /* \"#utility.yul\":1371:1442   */\n      tag_204\n      jump\t// in\n    tag_257:\n        /* \"#utility.yul\":1227:1449   */\n      swap3\n      swap2\n      pop\n      pop\n      jump\t// out\n        /* \"#utility.yul\":1536:1653   */\n    tag_206:\n        /* \"#utility.yul\":1645:1646   */\n      0x00\n        /* \"#utility.yul\":1642:1643   */\n      dup1\n        /* \"#utility.yul\":1635:1647   */\n      revert\n        /* \"#utility.yul\":1782:1904   */\n    tag_208:\n        /* \"#utility.yul\":1855:1879   */\n      tag_262\n        /* \"#utility.yul\":1873:1878   */\n      dup2\n        /* \"#utility.yul\":1855:1879   */\n      tag_198\n      jump\t// in\n    tag_262:\n        /* \"#utility.yul\":1848:1853   */\n      dup2\n        /* \"#utility.yul\":1845:1880   */\n      eq\n        /* \"#utility.yul\":1835:1898   */\n      tag_263\n      jumpi\n        /* \"#utility.yul\":1894:1895   */\n      0x00\n        /* \"#utility.yul\":1891:1892   */\n      dup1\n        /* \"#utility.yul\":1884:1896   */\n      revert\n        /* \"#utility.yul\":1835:1898   */\n    tag_263:\n        /* \"#utility.yul\":1782:1904   */\n      pop\n      jump\t// out\n        /* \"#utility.yul\":1910:2049   */\n    tag_209:\n        /* \"#utility.yul\":1956:1961   */\n      0x00\n        /* \"#utility.yul\":1994:2000   */\n      dup2\n        /* \"#utility.yul\":1981:2001   */\n      calldataload\n        /* \"#utility.yul\":1972:2001   */\n      swap1\n      pop\n        /* \"#utility.yul\":2010:2043   */\n      tag_265\n        /* \"#utility.yul\":2037:2042   */\n      dup2\n        /* \"#utility.yul\":2010:2043   */\n      tag_208\n      jump\t// in\n    tag_265:\n        /* \"#utility.yul\":1910:2049   */\n      swap3\n      swap2\n      pop\n      pop\n      jump\t// out\n        /* \"#utility.yul\":2055:2384   */\n    tag_59:\n        /* \"#utility.yul\":2114:2120   */\n      0x00\n        /* \"#utility.yul\":2163:2165   */\n      0x20\n        /* \"#utility.yul\":2151:2160   */\n      dup3\n        /* \"#utility.yul\":2142:2149   */\n      dup5\n        /* \"#utility.yul\":2138:2161   */\n      sub\n        /* \"#utility.yul\":2134:2166   */\n      slt\n        /* \"#utility.yul\":2131:2250   */\n      iszero\n      tag_267\n      jumpi\n        /* \"#utility.yul\":2169:2248   */\n      tag_268\n      tag_206\n      jump\t// in\n    tag_268:\n        /* \"#utility.yul\":2131:2250   */\n    tag_267:\n        /* \"#utility.yul\":2289:2290   */\n      0x00\n        /* \"#utility.yul\":2314:2367   */\n      tag_269\n        /* \"#utility.yul\":2359:2366   */\n      dup5\n        /* \"#utility.yul\":2350:2356   */\n      dup3\n        /* \"#utility.yul\":2339:2348   */\n      dup6\n        /* \"#utility.yul\":2335:2357   */\n      add\n        /* \"#utility.yul\":2314:2367   */\n      tag_209\n      jump\t// in\n    tag_269:\n        /* \"#utility.yul\":2304:2367   */\n      swap2\n      pop\n        /* \"#utility.yul\":2260:2377   */\n      pop\n        /* \"#utility.yul\":2055:2384   */\n      swap3\n      swap2\n      pop\n      pop\n      jump\t// out\n        /* \"#utility.yul\":2390:3009   */\n    tag_80:\n        /* \"#utility.yul\":2467:2473   */\n      0x00\n        /* \"#utility.yul\":2475:2481   */\n      dup1\n        /* \"#utility.yul\":2483:2489   */\n      0x00\n        /* \"#utility.yul\":2532:2534   */\n      0x60\n        /* \"#utility.yul\":2520:2529   */\n      dup5\n        /* \"#utility.yul\":2511:2518   */\n      dup7\n        /* \"#utility.yul\":2507:2530   */\n      sub\n        /* \"#utility.yul\":2503:2535   */\n      slt\n        /* \"#utility.yul\":2500:2619   */\n      iszero\n      tag_271\n      jumpi\n        /* \"#utility.yul\":2538:2617   */\n      tag_272\n      tag_206\n      jump\t// in\n    tag_272:\n        /* \"#utility.yul\":2500:2619   */\n    tag_271:\n        /* \"#utility.yul\":2658:2659   */\n      0x00\n        /* \"#utility.yul\":2683:2736   */\n      tag_273\n        /* \"#utility.yul\":2728:2735   */\n      dup7\n        /* \"#utility.yul\":2719:2725   */\n      dup3\n        /* \"#utility.yul\":2708:2717   */\n      dup8\n        /* \"#utility.yul\":2704:2726   */\n      add\n        /* \"#utility.yul\":2683:2736   */\n      tag_209\n      jump\t// in\n    tag_273:\n        /* \"#utility.yul\":2673:2736   */\n      swap4\n      pop\n        /* \"#utility.yul\":2629:2746   */\n      pop\n        /* \"#utility.yul\":2785:2787   */\n      0x20\n        /* \"#utility.yul\":2811:2864   */\n      tag_274\n        /* \"#utility.yul\":2856:2863   */\n      dup7\n        /* \"#utility.yul\":2847:2853   */\n      dup3\n        /* \"#utility.yul\":2836:2845   */\n      dup8\n        /* \"#utility.yul\":2832:2854   */\n      add\n        /* \"#utility.yul\":2811:2864   */\n      tag_209\n      jump\t// in\n    tag_274:\n        /* \"#utility.yul\":2801:2864   */\n      swap3\n      pop\n        /* \"#utility.yul\":2756:2874   */\n      pop\n        /* \"#utility.yul\":2913:2915   */\n      0x40\n        /* \"#utility.yul\":2939:2992   */\n      tag_275\n        /* \"#utility.yul\":2984:2991   */\n      dup7\n        /* \"#utility.yul\":2975:2981   */\n      dup3\n        /* \"#utility.yul\":2964:2973   */\n      dup8\n        /* \"#utility.yul\":2960:2982   */\n      add\n        /* \"#utility.yul\":2939:2992   */\n      tag_209\n      jump\t// in\n    tag_275:\n        /* \"#utility.yul\":2929:2992   */\n      swap2\n      pop\n        /* \"#utility.yul\":2884:3002   */\n      pop\n        /* \"#utility.yul\":2390:3009   */\n      swap3\n      pop\n      swap3\n      pop\n      swap3\n      jump\t// out\n        /* \"#utility.yul\":3015:3556   */\n    tag_91:\n        /* \"#utility.yul\":3186:3190   */\n      0x00\n        /* \"#utility.yul\":3224:3227   */\n      0x80\n        /* \"#utility.yul\":3213:3222   */\n      dup3\n        /* \"#utility.yul\":3209:3228   */\n      add\n        /* \"#utility.yul\":3201:3228   */\n      swap1\n      pop\n        /* \"#utility.yul\":3238:3309   */\n      tag_277\n        /* \"#utility.yul\":3306:3307   */\n      0x00\n        /* \"#utility.yul\":3295:3304   */\n      dup4\n        /* \"#utility.yul\":3291:3308   */\n      add\n        /* \"#utility.yul\":3282:3288   */\n      dup8\n        /* \"#utility.yul\":3238:3309   */\n      tag_199\n      jump\t// in\n    tag_277:\n        /* \"#utility.yul\":3319:3391   */\n      tag_278\n        /* \"#utility.yul\":3387:3389   */\n      0x20\n        /* \"#utility.yul\":3376:3385   */\n      dup4\n        /* \"#utility.yul\":3372:3390   */\n      add\n        /* \"#utility.yul\":3363:3369   */\n      dup7\n        /* \"#utility.yul\":3319:3391   */\n      tag_199\n      jump\t// in\n    tag_278:\n        /* \"#utility.yul\":3401:3473   */\n      tag_279\n        /* \"#utility.yul\":3469:3471   */\n      0x40\n        /* \"#utility.yul\":3458:3467   */\n      dup4\n        /* \"#utility.yul\":3454:3472   */\n      add\n        /* \"#utility.yul\":3445:3451   */\n      dup6\n        /* \"#utility.yul\":3401:3473   */\n      tag_199\n      jump\t// in\n    tag_279:\n        /* \"#utility.yul\":3483:3549   */\n      tag_280\n        /* \"#utility.yul\":3545:3547   */\n      0x60\n        /* \"#utility.yul\":3534:3543   */\n      dup4\n        /* \"#utility.yul\":3530:3548   */\n      add\n        /* \"#utility.yul\":3521:3527   */\n      dup5\n        /* \"#utility.yul\":3483:3549   */\n      tag_201\n      jump\t// in\n    tag_280:\n        /* \"#utility.yul\":3015:3556   */\n      swap6\n      swap5\n      pop\n      pop\n      pop\n      pop\n      pop\n      jump\t// out\n        /* \"#utility.yul\":3562:3731   */\n    tag_210:\n        /* \"#utility.yul\":3646:3657   */\n      0x00\n        /* \"#utility.yul\":3680:3686   */\n      dup3\n        /* \"#utility.yul\":3675:3678   */\n      dup3\n        /* \"#utility.yul\":3668:3687   */\n      mstore\n        /* \"#utility.yul\":3720:3724   */\n      0x20\n        /* \"#utility.yul\":3715:3718   */\n      dup3\n        /* \"#utility.yul\":3711:3725   */\n      add\n        /* \"#utility.yul\":3696:3725   */\n      swap1\n      pop\n        /* \"#utility.yul\":3562:3731   */\n      swap3\n      swap2\n      pop\n      pop\n      jump\t// out\n        /* \"#utility.yul\":3737:3960   */\n    tag_211:\n        /* \"#utility.yul\":3877:3911   */\n      0x4f6e6c792072656e7465722063616e2070617920736563757269747920646570\n        /* \"#utility.yul\":3873:3874   */\n      0x00\n        /* \"#utility.yul\":3865:3871   */\n      dup3\n        /* \"#utility.yul\":3861:3875   */\n      add\n        /* \"#utility.yul\":3854:3912   */\n      mstore\n        /* \"#utility.yul\":3946:3952   */\n      0x6f73697400000000000000000000000000000000000000000000000000000000\n        /* \"#utility.yul\":3941:3943   */\n      0x20\n        /* \"#utility.yul\":3933:3939   */\n      dup3\n        /* \"#utility.yul\":3929:3944   */\n      add\n        /* \"#utility.yul\":3922:3953   */\n      mstore\n        /* \"#utility.yul\":3737:3960   */\n      pop\n      jump\t// out\n        /* \"#utility.yul\":3966:4332   */\n    tag_212:\n        /* \"#utility.yul\":4108:4111   */\n      0x00\n        /* \"#utility.yul\":4129:4196   */\n      tag_284\n        /* \"#utility.yul\":4193:4195   */\n      0x24\n        /* \"#utility.yul\":4188:4191   */\n      dup4\n        /* \"#utility.yul\":4129:4196   */\n      tag_210\n      jump\t// in\n    tag_284:\n        /* \"#utility.yul\":4122:4196   */\n      swap2\n      pop\n        /* \"#utility.yul\":4205:4298   */\n      tag_285\n        /* \"#utility.yul\":4294:4297   */\n      dup3\n        /* \"#utility.yul\":4205:4298   */\n      tag_211\n      jump\t// in\n    tag_285:\n        /* \"#utility.yul\":4323:4325   */\n      0x40\n        /* \"#utility.yul\":4318:4321   */\n      dup3\n        /* \"#utility.yul\":4314:4326   */\n      add\n        /* \"#utility.yul\":4307:4326   */\n      swap1\n      pop\n        /* \"#utility.yul\":3966:4332   */\n      swap2\n      swap1\n      pop\n      jump\t// out\n        /* \"#utility.yul\":4338:4757   */\n    tag_99:\n        /* \"#utility.yul\":4504:4508   */\n      0x00\n        /* \"#utility.yul\":4542:4544   */\n      0x20\n        /* \"#utility.yul\":4531:4540   */\n      dup3\n        /* \"#utility.yul\":4527:4545   */\n      add\n        /* \"#utility.yul\":4519:4545   */\n      swap1\n      pop\n        /* \"#utility.yul\":4591:4600   */\n      dup2\n        /* \"#utility.yul\":4585:4589   */\n      dup2\n        /* \"#utility.yul\":4581:4601   */\n      sub\n        /* \"#utility.yul\":4577:4578   */\n      0x00\n        /* \"#utility.yul\":4566:4575   */\n      dup4\n        /* \"#utility.yul\":4562:4579   */\n      add\n        /* \"#utility.yul\":4555:4602   */\n      mstore\n        /* \"#utility.yul\":4619:4750   */\n      tag_287\n        /* \"#utility.yul\":4745:4749   */\n      dup2\n        /* \"#utility.yul\":4619:4750   */\n      tag_212\n      jump\t// in\n    tag_287:\n        /* \"#utility.yul\":4611:4750   */\n      swap1\n      pop\n        /* \"#utility.yul\":4338:4757   */\n      swap2\n      swap1\n      pop\n      jump\t// out\n        /* \"#utility.yul\":4763:4939   */\n    tag_213:\n        /* \"#utility.yul\":4903:4931   */\n      0x436f6e747261637420697320616c726561647920616374697665000000000000\n        /* \"#utility.yul\":4899:4900   */\n      0x00\n        /* \"#utility.yul\":4891:4897   */\n      dup3\n        /* \"#utility.yul\":4887:4901   */\n      add\n        /* \"#utility.yul\":4880:4932   */\n      mstore\n        /* \"#utility.yul\":4763:4939   */\n      pop\n      jump\t// out\n        /* \"#utility.yul\":4945:5311   */\n    tag_214:\n        /* \"#utility.yul\":5087:5090   */\n      0x00\n        /* \"#utility.yul\":5108:5175   */\n      tag_290\n        /* \"#utility.yul\":5172:5174   */\n      0x1a\n        /* \"#utility.yul\":5167:5170   */\n      dup4\n        /* \"#utility.yul\":5108:5175   */\n      tag_210\n      jump\t// in\n    tag_290:\n        /* \"#utility.yul\":5101:5175   */\n      swap2\n      pop\n        /* \"#utility.yul\":5184:5277   */\n      tag_291\n        /* \"#utility.yul\":5273:5276   */\n      dup3\n        /* \"#utility.yul\":5184:5277   */\n      tag_213\n      jump\t// in\n    tag_291:\n        /* \"#utility.yul\":5302:5304   */\n      0x20\n        /* \"#utility.yul\":5297:5300   */\n      dup3\n        /* \"#utility.yul\":5293:5305   */\n      add\n        /* \"#utility.yul\":5286:5305   */\n      swap1\n      pop\n        /* \"#utility.yul\":4945:5311   */\n      swap2\n      swap1\n      pop\n      jump\t// out\n        /* \"#utility.yul\":5317:5736   */\n    tag_102:\n        /* \"#utility.yul\":5483:5487   */\n      0x00\n        /* \"#utility.yul\":5521:5523   */\n      0x20\n        /* \"#utility.yul\":5510:5519   */\n      dup3\n        /* \"#utility.yul\":5506:5524   */\n      add\n        /* \"#utility.yul\":5498:5524   */\n      swap1\n      pop\n        /* \"#utility.yul\":5570:5579   */\n      dup2\n        /* \"#utility.yul\":5564:5568   */\n      dup2\n        /* \"#utility.yul\":5560:5580   */\n      sub\n        /* \"#utility.yul\":5556:5557   */\n      0x00\n        /* \"#utility.yul\":5545:5554   */\n      dup4\n        /* \"#utility.yul\":5541:5558   */\n      add\n        /* \"#utility.yul\":5534:5581   */\n      mstore\n        /* \"#utility.yul\":5598:5729   */\n      tag_293\n        /* \"#utility.yul\":5724:5728   */\n      dup2\n        /* \"#utility.yul\":5598:5729   */\n      tag_214\n      jump\t// in\n    tag_293:\n        /* \"#utility.yul\":5590:5729   */\n      swap1\n      pop\n        /* \"#utility.yul\":5317:5736   */\n      swap2\n      swap1\n      pop\n      jump\t// out\n        /* \"#utility.yul\":5742:5962   */\n    tag_215:\n        /* \"#utility.yul\":5882:5916   */\n      0x496e636f7272656374207365637572697479206465706f73697420616d6f756e\n        /* \"#utility.yul\":5878:5879   */\n      0x00\n        /* \"#utility.yul\":5870:5876   */\n      dup3\n        /* \"#utility.yul\":5866:5880   */\n      add\n        /* \"#utility.yul\":5859:5917   */\n      mstore\n        /* \"#utility.yul\":5951:5954   */\n      0x7400000000000000000000000000000000000000000000000000000000000000\n        /* \"#utility.yul\":5946:5948   */\n      0x20\n        /* \"#utility.yul\":5938:5944   */\n      dup3\n        /* \"#utility.yul\":5934:5949   */\n      add\n        /* \"#utility.yul\":5927:5955   */\n      mstore\n        /* \"#utility.yul\":5742:5962   */\n      pop\n      jump\t// out\n        /* \"#utility.yul\":5968:6334   */\n    tag_216:\n        /* \"#utility.yul\":6110:6113   */\n      0x00\n        /* \"#utility.yul\":6131:6198   */\n      tag_296\n        /* \"#utility.yul\":6195:6197   */\n      0x21\n        /* \"#utility.yul\":6190:6193   */\n      dup4\n        /* \"#utility.yul\":6131:6198   */\n      tag_210\n      jump\t// in\n    tag_296:\n        /* \"#utility.yul\":6124:6198   */\n      swap2\n      pop\n        /* \"#utility.yul\":6207:6300   */\n      tag_297\n        /* \"#utility.yul\":6296:6299   */\n      dup3\n        /* \"#utility.yul\":6207:6300   */\n      tag_215\n      jump\t// in\n    tag_297:\n        /* \"#utility.yul\":6325:6327   */\n      0x40\n        /* \"#utility.yul\":6320:6323   */\n      dup3\n        /* \"#utility.yul\":6316:6328   */\n      add\n        /* \"#utility.yul\":6309:6328   */\n      swap1\n      pop\n        /* \"#utility.yul\":5968:6334   */\n      swap2\n      swap1\n      pop\n      jump\t// out\n        /* \"#utility.yul\":6340:6759   */\n    tag_105:\n        /* \"#utility.yul\":6506:6510   */\n      0x00\n        /* \"#utility.yul\":6544:6546   */\n      0x20\n        /* \"#utility.yul\":6533:6542   */\n      dup3\n        /* \"#utility.yul\":6529:6547   */\n      add\n        /* \"#utility.yul\":6521:6547   */\n      swap1\n      pop\n        /* \"#utility.yul\":6593:6602   */\n      dup2\n        /* \"#utility.yul\":6587:6591   */\n      dup2\n        /* \"#utility.yul\":6583:6603   */\n      sub\n        /* \"#utility.yul\":6579:6580   */\n      0x00\n        /* \"#utility.yul\":6568:6577   */\n      dup4\n        /* \"#utility.yul\":6564:6581   */\n      add\n        /* \"#utility.yul\":6557:6604   */\n      mstore\n        /* \"#utility.yul\":6621:6752   */\n      tag_299\n        /* \"#utility.yul\":6747:6751   */\n      dup2\n        /* \"#utility.yul\":6621:6752   */\n      tag_216\n      jump\t// in\n    tag_299:\n        /* \"#utility.yul\":6613:6752   */\n      swap1\n      pop\n        /* \"#utility.yul\":6340:6759   */\n      swap2\n      swap1\n      pop\n      jump\t// out\n        /* \"#utility.yul\":6765:6986   */\n    tag_217:\n        /* \"#utility.yul\":6905:6939   */\n      0x4f6e6c79206c616e646c6f72642063616e207265636f7264207574696c697469\n        /* \"#utility.yul\":6901:6902   */\n      0x00\n        /* \"#utility.yul\":6893:6899   */\n      dup3\n        /* \"#utility.yul\":6889:6903   */\n      add\n        /* \"#utility.yul\":6882:6940   */\n      mstore\n        /* \"#utility.yul\":6974:6978   */\n      0x6573000000000000000000000000000000000000000000000000000000000000\n        /* \"#utility.yul\":6969:6971   */\n      0x20\n        /* \"#utility.yul\":6961:6967   */\n      dup3\n        /* \"#utility.yul\":6957:6972   */\n      add\n        /* \"#utility.yul\":6950:6979   */\n      mstore\n        /* \"#utility.yul\":6765:6986   */\n      pop\n      jump\t// out\n        /* \"#utility.yul\":6992:7358   */\n    tag_218:\n        /* \"#utility.yul\":7134:7137   */\n      0x00\n        /* \"#utility.yul\":7155:7222   */\n      tag_302\n        /* \"#utility.yul\":7219:7221   */\n      0x22\n        /* \"#utility.yul\":7214:7217   */\n      dup4\n        /* \"#utility.yul\":7155:7222   */\n      tag_210\n      jump\t// in\n    tag_302:\n        /* \"#utility.yul\":7148:7222   */\n      swap2\n      pop\n        /* \"#utility.yul\":7231:7324   */\n      tag_303\n        /* \"#utility.yul\":7320:7323   */\n      dup3\n        /* \"#utility.yul\":7231:7324   */\n      tag_217\n      jump\t// in\n    tag_303:\n        /* \"#utility.yul\":7349:7351   */\n      0x40\n        /* \"#utility.yul\":7344:7347   */\n      dup3\n        /* \"#utility.yul\":7340:7352   */\n      add\n        /* \"#utility.yul\":7333:7352   */\n      swap1\n      pop\n        /* \"#utility.yul\":6992:7358   */\n      swap2\n      swap1\n      pop\n      jump\t// out\n        /* \"#utility.yul\":7364:7783   */\n    tag_111:\n        /* \"#utility.yul\":7530:7534   */\n      0x00\n        /* \"#utility.yul\":7568:7570   */\n      0x20\n        /* \"#utility.yul\":7557:7566   */\n      dup3\n        /* \"#utility.yul\":7553:7571   */\n      add\n        /* \"#utility.yul\":7545:7571   */\n      swap1\n      pop\n        /* \"#utility.yul\":7617:7626   */\n      dup2\n        /* \"#utility.yul\":7611:7615   */\n      dup2\n        /* \"#utility.yul\":7607:7627   */\n      sub\n        /* \"#utility.yul\":7603:7604   */\n      0x00\n        /* \"#utility.yul\":7592:7601   */\n      dup4\n        /* \"#utility.yul\":7588:7605   */\n      add\n        /* \"#utility.yul\":7581:7628   */\n      mstore\n        /* \"#utility.yul\":7645:7776   */\n      tag_305\n        /* \"#utility.yul\":7771:7775   */\n      dup2\n        /* \"#utility.yul\":7645:7776   */\n      tag_218\n      jump\t// in\n    tag_305:\n        /* \"#utility.yul\":7637:7776   */\n      swap1\n      pop\n        /* \"#utility.yul\":7364:7783   */\n      swap2\n      swap1\n      pop\n      jump\t// out\n        /* \"#utility.yul\":7789:7961   */\n    tag_219:\n        /* \"#utility.yul\":7929:7953   */\n      0x436f6e7472616374206973206e6f742061637469766500000000000000000000\n        /* \"#utility.yul\":7925:7926   */\n      0x00\n        /* \"#utility.yul\":7917:7923   */\n      dup3\n        /* \"#utility.yul\":7913:7927   */\n      add\n        /* \"#utility.yul\":7906:7954   */\n      mstore\n        /* \"#utility.yul\":7789:7961   */\n      pop\n      jump\t// out\n        /* \"#utility.yul\":7967:8333   */\n    tag_220:\n        /* \"#utility.yul\":8109:8112   */\n      0x00\n        /* \"#utility.yul\":8130:8197   */\n      tag_308\n        /* \"#utility.yul\":8194:8196   */\n      0x16\n        /* \"#utility.yul\":8189:8192   */\n      dup4\n        /* \"#utility.yul\":8130:8197   */\n      tag_210\n      jump\t// in\n    tag_308:\n        /* \"#utility.yul\":8123:8197   */\n      swap2\n      pop\n        /* \"#utility.yul\":8206:8299   */\n      tag_309\n        /* \"#utility.yul\":8295:8298   */\n      dup3\n        /* \"#utility.yul\":8206:8299   */\n      tag_219\n      jump\t// in\n    tag_309:\n        /* \"#utility.yul\":8324:8326   */\n      0x20\n        /* \"#utility.yul\":8319:8322   */\n      dup3\n        /* \"#utility.yul\":8315:8327   */\n      add\n        /* \"#utility.yul\":8308:8327   */\n      swap1\n      pop\n        /* \"#utility.yul\":7967:8333   */\n      swap2\n      swap1\n      pop\n      jump\t// out\n        /* \"#utility.yul\":8339:8758   */\n    tag_114:\n        /* \"#utility.yul\":8505:8509   */\n      0x00\n        /* \"#utility.yul\":8543:8545   */\n      0x20\n        /* \"#utility.yul\":8532:8541   */\n      dup3\n        /* \"#utility.yul\":8528:8546   */\n      add\n        /* \"#utility.yul\":8520:8546   */\n      swap1\n      pop\n        /* \"#utility.yul\":8592:8601   */\n      dup2\n        /* \"#utility.yul\":8586:8590   */\n      dup2\n        /* \"#utility.yul\":8582:8602   */\n      sub\n        /* \"#utility.yul\":8578:8579   */\n      0x00\n        /* \"#utility.yul\":8567:8576   */\n      dup4\n        /* \"#utility.yul\":8563:8580   */\n      add\n        /* \"#utility.yul\":8556:8603   */\n      mstore\n        /* \"#utility.yul\":8620:8751   */\n      tag_311\n        /* \"#utility.yul\":8746:8750   */\n      dup2\n        /* \"#utility.yul\":8620:8751   */\n      tag_220\n      jump\t// in\n    tag_311:\n        /* \"#utility.yul\":8612:8751   */\n      swap1\n      pop\n        /* \"#utility.yul\":8339:8758   */\n      swap2\n      swap1\n      pop\n      jump\t// out\n        /* \"#utility.yul\":8764:8935   */\n    tag_221:\n        /* \"#utility.yul\":8904:8927   */\n      0x52656e7420706572696f642068617320656e6465640000000000000000000000\n        /* \"#utility.yul\":8900:8901   */\n      0x00\n        /* \"#utility.yul\":8892:8898   */\n      dup3\n        /* \"#utility.yul\":8888:8902   */\n      add\n        /* \"#utility.yul\":8881:8928   */\n      mstore\n        /* \"#utility.yul\":8764:8935   */\n      pop\n      jump\t// out\n        /* \"#utility.yul\":8941:9307   */\n    tag_222:\n        /* \"#utility.yul\":9083:9086   */\n      0x00\n        /* \"#utility.yul\":9104:9171   */\n      tag_314\n        /* \"#utility.yul\":9168:9170   */\n      0x15\n        /* \"#utility.yul\":9163:9166   */\n      dup4\n        /* \"#utility.yul\":9104:9171   */\n      tag_210\n      jump\t// in\n    tag_314:\n        /* \"#utility.yul\":9097:9171   */\n      swap2\n      pop\n        /* \"#utility.yul\":9180:9273   */\n      tag_315\n        /* \"#utility.yul\":9269:9272   */\n      dup3\n        /* \"#utility.yul\":9180:9273   */\n      tag_221\n      jump\t// in\n    tag_315:\n        /* \"#utility.yul\":9298:9300   */\n      0x20\n        /* \"#utility.yul\":9293:9296   */\n      dup3\n        /* \"#utility.yul\":9289:9301   */\n      add\n        /* \"#utility.yul\":9282:9301   */\n      swap1\n      pop\n        /* \"#utility.yul\":8941:9307   */\n      swap2\n      swap1\n      pop\n      jump\t// out\n        /* \"#utility.yul\":9313:9732   */\n    tag_117:\n        /* \"#utility.yul\":9479:9483   */\n      0x00\n        /* \"#utility.yul\":9517:9519   */\n      0x20\n        /* \"#utility.yul\":9506:9515   */\n      dup3\n        /* \"#utility.yul\":9502:9520   */\n      add\n        /* \"#utility.yul\":9494:9520   */\n      swap1\n      pop\n        /* \"#utility.yul\":9566:9575   */\n      dup2\n        /* \"#utility.yul\":9560:9564   */\n      dup2\n        /* \"#utility.yul\":9556:9576   */\n      sub\n        /* \"#utility.yul\":9552:9553   */\n      0x00\n        /* \"#utility.yul\":9541:9550   */\n      dup4\n        /* \"#utility.yul\":9537:9554   */\n      add\n        /* \"#utility.yul\":9530:9577   */\n      mstore\n        /* \"#utility.yul\":9594:9725   */\n      tag_317\n        /* \"#utility.yul\":9720:9724   */\n      dup2\n        /* \"#utility.yul\":9594:9725   */\n      tag_222\n      jump\t// in\n    tag_317:\n        /* \"#utility.yul\":9586:9725   */\n      swap1\n      pop\n        /* \"#utility.yul\":9313:9732   */\n      swap2\n      swap1\n      pop\n      jump\t// out\n        /* \"#utility.yul\":9738:10070   */\n    tag_119:\n        /* \"#utility.yul\":9859:9863   */\n      0x00\n        /* \"#utility.yul\":9897:9899   */\n      0x40\n        /* \"#utility.yul\":9886:9895   */\n      dup3\n        /* \"#utility.yul\":9882:9900   */\n      add\n        /* \"#utility.yul\":9874:9900   */\n      swap1\n      pop\n        /* \"#utility.yul\":9910:9981   */\n      tag_319\n        /* \"#utility.yul\":9978:9979   */\n      0x00\n        /* \"#utility.yul\":9967:9976   */\n      dup4\n        /* \"#utility.yul\":9963:9980   */\n      add\n        /* \"#utility.yul\":9954:9960   */\n      dup6\n        /* \"#utility.yul\":9910:9981   */\n      tag_199\n      jump\t// in\n    tag_319:\n        /* \"#utility.yul\":9991:10063   */\n      tag_320\n        /* \"#utility.yul\":10059:10061   */\n      0x20\n        /* \"#utility.yul\":10048:10057   */\n      dup4\n        /* \"#utility.yul\":10044:10062   */\n      add\n        /* \"#utility.yul\":10035:10041   */\n      dup5\n        /* \"#utility.yul\":9991:10063   */\n      tag_199\n      jump\t// in\n    tag_320:\n        /* \"#utility.yul\":9738:10070   */\n      swap4\n      swap3\n      pop\n      pop\n      pop\n      jump\t// out\n        /* \"#utility.yul\":10076:10302   */\n    tag_223:\n        /* \"#utility.yul\":10216:10250   */\n      0x4f6e6c79206c616e646c6f72642063616e206163746976617465207468652063\n        /* \"#utility.yul\":10212:10213   */\n      0x00\n        /* \"#utility.yul\":10204:10210   */\n      dup3\n        /* \"#utility.yul\":10200:10214   */\n      add\n        /* \"#utility.yul\":10193:10251   */\n      mstore\n        /* \"#utility.yul\":10285:10294   */\n      0x6f6e747261637400000000000000000000000000000000000000000000000000\n        /* \"#utility.yul\":10280:10282   */\n      0x20\n        /* \"#utility.yul\":10272:10278   */\n      dup3\n        /* \"#utility.yul\":10268:10283   */\n      add\n        /* \"#utility.yul\":10261:10295   */\n      mstore\n        /* \"#utility.yul\":10076:10302   */\n      pop\n      jump\t// out\n        /* \"#utility.yul\":10308:10674   */\n    tag_224:\n        /* \"#utility.yul\":10450:10453   */\n      0x00\n        /* \"#utility.yul\":10471:10538   */\n      tag_323\n        /* \"#utility.yul\":10535:10537   */\n      0x27\n        /* \"#utility.yul\":10530:10533   */\n      dup4\n        /* \"#utility.yul\":10471:10538   */\n      tag_210\n      jump\t// in\n    tag_323:\n        /* \"#utility.yul\":10464:10538   */\n      swap2\n      pop\n        /* \"#utility.yul\":10547:10640   */\n      tag_324\n        /* \"#utility.yul\":10636:10639   */\n      dup3\n        /* \"#utility.yul\":10547:10640   */\n      tag_223\n      jump\t// in\n    tag_324:\n        /* \"#utility.yul\":10665:10667   */\n      0x40\n        /* \"#utility.yul\":10660:10663   */\n      dup3\n        /* \"#utility.yul\":10656:10668   */\n      add\n        /* \"#utility.yul\":10649:10668   */\n      swap1\n      pop\n        /* \"#utility.yul\":10308:10674   */\n      swap2\n      swap1\n      pop\n      jump\t// out\n        /* \"#utility.yul\":10680:11099   */\n    tag_123:\n        /* \"#utility.yul\":10846:10850   */\n      0x00\n        /* \"#utility.yul\":10884:10886   */\n      0x20\n        /* \"#utility.yul\":10873:10882   */\n      dup3\n        /* \"#utility.yul\":10869:10887   */\n      add\n        /* \"#utility.yul\":10861:10887   */\n      swap1\n      pop\n        /* \"#utility.yul\":10933:10942   */\n      dup2\n        /* \"#utility.yul\":10927:10931   */\n      dup2\n        /* \"#utility.yul\":10923:10943   */\n      sub\n        /* \"#utility.yul\":10919:10920   */\n      0x00\n        /* \"#utility.yul\":10908:10917   */\n      dup4\n        /* \"#utility.yul\":10904:10921   */\n      add\n        /* \"#utility.yul\":10897:10944   */\n      mstore\n        /* \"#utility.yul\":10961:11092   */\n      tag_326\n        /* \"#utility.yul\":11087:11091   */\n      dup2\n        /* \"#utility.yul\":10961:11092   */\n      tag_224\n      jump\t// in\n    tag_326:\n        /* \"#utility.yul\":10953:11092   */\n      swap1\n      pop\n        /* \"#utility.yul\":10680:11099   */\n      swap2\n      swap1\n      pop\n      jump\t// out\n        /* \"#utility.yul\":11105:11327   */\n    tag_225:\n        /* \"#utility.yul\":11245:11279   */\n      0x5365637572697479206465706f736974206d7573742062652070616964206669\n        /* \"#utility.yul\":11241:11242   */\n      0x00\n        /* \"#utility.yul\":11233:11239   */\n      dup3\n        /* \"#utility.yul\":11229:11243   */\n      add\n        /* \"#utility.yul\":11222:11280   */\n      mstore\n        /* \"#utility.yul\":11314:11319   */\n      0x7273740000000000000000000000000000000000000000000000000000000000\n        /* \"#utility.yul\":11309:11311   */\n      0x20\n        /* \"#utility.yul\":11301:11307   */\n      dup3\n        /* \"#utility.yul\":11297:11312   */\n      add\n        /* \"#utility.yul\":11290:11320   */\n      mstore\n        /* \"#utility.yul\":11105:11327   */\n      pop\n      jump\t// out\n        /* \"#utility.yul\":11333:11699   */\n    tag_226:\n        /* \"#utility.yul\":11475:11478   */\n      0x00\n        /* \"#utility.yul\":11496:11563   */\n      tag_329\n        /* \"#utility.yul\":11560:11562   */\n      0x23\n        /* \"#utility.yul\":11555:11558   */\n      dup4\n        /* \"#utility.yul\":11496:11563   */\n      tag_210\n      jump\t// in\n    tag_329:\n        /* \"#utility.yul\":11489:11563   */\n      swap2\n      pop\n        /* \"#utility.yul\":11572:11665   */\n      tag_330\n        /* \"#utility.yul\":11661:11664   */\n      dup3\n        /* \"#utility.yul\":11572:11665   */\n      tag_225\n      jump\t// in\n    tag_330:\n        /* \"#utility.yul\":11690:11692   */\n      0x40\n        /* \"#utility.yul\":11685:11688   */\n      dup3\n        /* \"#utility.yul\":11681:11693   */\n      add\n        /* \"#utility.yul\":11674:11693   */\n      swap1\n      pop\n        /* \"#utility.yul\":11333:11699   */\n      swap2\n      swap1\n      pop\n      jump\t// out\n        /* \"#utility.yul\":11705:12124   */\n    tag_126:\n        /* \"#utility.yul\":11871:11875   */\n      0x00\n        /* \"#utility.yul\":11909:11911   */\n      0x20\n        /* \"#utility.yul\":11898:11907   */\n      dup3\n        /* \"#utility.yul\":11894:11912   */\n      add\n        /* \"#utility.yul\":11886:11912   */\n      swap1\n      pop\n        /* \"#utility.yul\":11958:11967   */\n      dup2\n        /* \"#utility.yul\":11952:11956   */\n      dup2\n        /* \"#utility.yul\":11948:11968   */\n      sub\n        /* \"#utility.yul\":11944:11945   */\n      0x00\n        /* \"#utility.yul\":11933:11942   */\n      dup4\n        /* \"#utility.yul\":11929:11946   */\n      add\n        /* \"#utility.yul\":11922:11969   */\n      mstore\n        /* \"#utility.yul\":11986:12117   */\n      tag_332\n        /* \"#utility.yul\":12112:12116   */\n      dup2\n        /* \"#utility.yul\":11986:12117   */\n      tag_226\n      jump\t// in\n    tag_332:\n        /* \"#utility.yul\":11978:12117   */\n      swap1\n      pop\n        /* \"#utility.yul\":11705:12124   */\n      swap2\n      swap1\n      pop\n      jump\t// out\n        /* \"#utility.yul\":12130:12304   */\n    tag_227:\n        /* \"#utility.yul\":12270:12296   */\n      0x4f6e6c792072656e7465722063616e207061792072656e740000000000000000\n        /* \"#utility.yul\":12266:12267   */\n      0x00\n        /* \"#utility.yul\":12258:12264   */\n      dup3\n        /* \"#utility.yul\":12254:12268   */\n      add\n        /* \"#utility.yul\":12247:12297   */\n      mstore\n        /* \"#utility.yul\":12130:12304   */\n      pop\n      jump\t// out\n        /* \"#utility.yul\":12310:12676   */\n    tag_228:\n        /* \"#utility.yul\":12452:12455   */\n      0x00\n        /* \"#utility.yul\":12473:12540   */\n      tag_335\n        /* \"#utility.yul\":12537:12539   */\n      0x18\n        /* \"#utility.yul\":12532:12535   */\n      dup4\n        /* \"#utility.yul\":12473:12540   */\n      tag_210\n      jump\t// in\n    tag_335:\n        /* \"#utility.yul\":12466:12540   */\n      swap2\n      pop\n        /* \"#utility.yul\":12549:12642   */\n      tag_336\n        /* \"#utility.yul\":12638:12641   */\n      dup3\n        /* \"#utility.yul\":12549:12642   */\n      tag_227\n      jump\t// in\n    tag_336:\n        /* \"#utility.yul\":12667:12669   */\n      0x20\n        /* \"#utility.yul\":12662:12665   */\n      dup3\n        /* \"#utility.yul\":12658:12670   */\n      add\n        /* \"#utility.yul\":12651:12670   */\n      swap1\n      pop\n        /* \"#utility.yul\":12310:12676   */\n      swap2\n      swap1\n      pop\n      jump\t// out\n        /* \"#utility.yul\":12682:13101   */\n    tag_132:\n        /* \"#utility.yul\":12848:12852   */\n      0x00\n        /* \"#utility.yul\":12886:12888   */\n      0x20\n        /* \"#utility.yul\":12875:12884   */\n      dup3\n        /* \"#utility.yul\":12871:12889   */\n      add\n        /* \"#utility.yul\":12863:12889   */\n      swap1\n      pop\n        /* \"#utility.yul\":12935:12944   */\n      dup2\n        /* \"#utility.yul\":12929:12933   */\n      dup2\n        /* \"#utility.yul\":12925:12945   */\n      sub\n        /* \"#utility.yul\":12921:12922   */\n      0x00\n        /* \"#utility.yul\":12910:12919   */\n      dup4\n        /* \"#utility.yul\":12906:12923   */\n      add\n        /* \"#utility.yul\":12899:12946   */\n      mstore\n        /* \"#utility.yul\":12963:13094   */\n      tag_338\n        /* \"#utility.yul\":13089:13093   */\n      dup2\n        /* \"#utility.yul\":12963:13094   */\n      tag_228\n      jump\t// in\n    tag_338:\n        /* \"#utility.yul\":12955:13094   */\n      swap1\n      pop\n        /* \"#utility.yul\":12682:13101   */\n      swap2\n      swap1\n      pop\n      jump\t// out\n        /* \"#utility.yul\":13107:13335   */\n    tag_229:\n        /* \"#utility.yul\":13247:13281   */\n      0x52656e7420666f722074686973206d6f6e74682068617320616c726561647920\n        /* \"#utility.yul\":13243:13244   */\n      0x00\n        /* \"#utility.yul\":13235:13241   */\n      dup3\n        /* \"#utility.yul\":13231:13245   */\n      add\n        /* \"#utility.yul\":13224:13282   */\n      mstore\n        /* \"#utility.yul\":13316:13327   */\n      0x6265656e20706169640000000000000000000000000000000000000000000000\n        /* \"#utility.yul\":13311:13313   */\n      0x20\n        /* \"#utility.yul\":13303:13309   */\n      dup3\n        /* \"#utility.yul\":13299:13314   */\n      add\n        /* \"#utility.yul\":13292:13328   */\n      mstore\n        /* \"#utility.yul\":13107:13335   */\n      pop\n      jump\t// out\n        /* \"#utility.yul\":13341:13707   */\n    tag_230:\n        /* \"#utility.yul\":13483:13486   */\n      0x00\n        /* \"#utility.yul\":13504:13571   */\n      tag_341\n        /* \"#utility.yul\":13568:13570   */\n      0x29\n        /* \"#utility.yul\":13563:13566   */\n      dup4\n        /* \"#utility.yul\":13504:13571   */\n      tag_210\n      jump\t// in\n    tag_341:\n        /* \"#utility.yul\":13497:13571   */\n      swap2\n      pop\n        /* \"#utility.yul\":13580:13673   */\n      tag_342\n        /* \"#utility.yul\":13669:13672   */\n      dup3\n        /* \"#utility.yul\":13580:13673   */\n      tag_229\n      jump\t// in\n    tag_342:\n        /* \"#utility.yul\":13698:13700   */\n      0x40\n        /* \"#utility.yul\":13693:13696   */\n      dup3\n        /* \"#utility.yul\":13689:13701   */\n      add\n        /* \"#utility.yul\":13682:13701   */\n      swap1\n      pop\n        /* \"#utility.yul\":13341:13707   */\n      swap2\n      swap1\n      pop\n      jump\t// out\n        /* \"#utility.yul\":13713:14132   */\n    tag_139:\n        /* \"#utility.yul\":13879:13883   */\n      0x00\n        /* \"#utility.yul\":13917:13919   */\n      0x20\n        /* \"#utility.yul\":13906:13915   */\n      dup3\n        /* \"#utility.yul\":13902:13920   */\n      add\n        /* \"#utility.yul\":13894:13920   */\n      swap1\n      pop\n        /* \"#utility.yul\":13966:13975   */\n      dup2\n        /* \"#utility.yul\":13960:13964   */\n      dup2\n        /* \"#utility.yul\":13956:13976   */\n      sub\n        /* \"#utility.yul\":13952:13953   */\n      0x00\n        /* \"#utility.yul\":13941:13950   */\n      dup4\n        /* \"#utility.yul\":13937:13954   */\n      add\n        /* \"#utility.yul\":13930:13977   */\n      mstore\n        /* \"#utility.yul\":13994:14125   */\n      tag_344\n        /* \"#utility.yul\":14120:14124   */\n      dup2\n        /* \"#utility.yul\":13994:14125   */\n      tag_230\n      jump\t// in\n    tag_344:\n        /* \"#utility.yul\":13986:14125   */\n      swap1\n      pop\n        /* \"#utility.yul\":13713:14132   */\n      swap2\n      swap1\n      pop\n      jump\t// out\n        /* \"#utility.yul\":14138:14372   */\n    tag_231:\n        /* \"#utility.yul\":14278:14312   */\n      0x5574696c697469657320666f722074686973206d6f6e74682068617665206e6f\n        /* \"#utility.yul\":14274:14275   */\n      0x00\n        /* \"#utility.yul\":14266:14272   */\n      dup3\n        /* \"#utility.yul\":14262:14276   */\n      add\n        /* \"#utility.yul\":14255:14313   */\n      mstore\n        /* \"#utility.yul\":14347:14364   */\n      0x74206265656e207265636f726465640000000000000000000000000000000000\n        /* \"#utility.yul\":14342:14344   */\n      0x20\n        /* \"#utility.yul\":14334:14340   */\n      dup3\n        /* \"#utility.yul\":14330:14345   */\n      add\n        /* \"#utility.yul\":14323:14365   */\n      mstore\n        /* \"#utility.yul\":14138:14372   */\n      pop\n      jump\t// out\n        /* \"#utility.yul\":14378:14744   */\n    tag_232:\n        /* \"#utility.yul\":14520:14523   */\n      0x00\n        /* \"#utility.yul\":14541:14608   */\n      tag_347\n        /* \"#utility.yul\":14605:14607   */\n      0x2f\n        /* \"#utility.yul\":14600:14603   */\n      dup4\n        /* \"#utility.yul\":14541:14608   */\n      tag_210\n      jump\t// in\n    tag_347:\n        /* \"#utility.yul\":14534:14608   */\n      swap2\n      pop\n        /* \"#utility.yul\":14617:14710   */\n      tag_348\n        /* \"#utility.yul\":14706:14709   */\n      dup3\n        /* \"#utility.yul\":14617:14710   */\n      tag_231\n      jump\t// in\n    tag_348:\n        /* \"#utility.yul\":14735:14737   */\n      0x40\n        /* \"#utility.yul\":14730:14733   */\n      dup3\n        /* \"#utility.yul\":14726:14738   */\n      add\n        /* \"#utility.yul\":14719:14738   */\n      swap1\n      pop\n        /* \"#utility.yul\":14378:14744   */\n      swap2\n      swap1\n      pop\n      jump\t// out\n        /* \"#utility.yul\":14750:15169   */\n    tag_142:\n        /* \"#utility.yul\":14916:14920   */\n      0x00\n        /* \"#utility.yul\":14954:14956   */\n      0x20\n        /* \"#utility.yul\":14943:14952   */\n      dup3\n        /* \"#utility.yul\":14939:14957   */\n      add\n        /* \"#utility.yul\":14931:14957   */\n      swap1\n      pop\n        /* \"#utility.yul\":15003:15012   */\n      dup2\n        /* \"#utility.yul\":14997:15001   */\n      dup2\n        /* \"#utility.yul\":14993:15013   */\n      sub\n        /* \"#utility.yul\":14989:14990   */\n      0x00\n        /* \"#utility.yul\":14978:14987   */\n      dup4\n        /* \"#utility.yul\":14974:14991   */\n      add\n        /* \"#utility.yul\":14967:15014   */\n      mstore\n        /* \"#utility.yul\":15031:15162   */\n      tag_350\n        /* \"#utility.yul\":15157:15161   */\n      dup2\n        /* \"#utility.yul\":15031:15162   */\n      tag_232\n      jump\t// in\n    tag_350:\n        /* \"#utility.yul\":15023:15162   */\n      swap1\n      pop\n        /* \"#utility.yul\":14750:15169   */\n      swap2\n      swap1\n      pop\n      jump\t// out\n        /* \"#utility.yul\":15175:15355   */\n    tag_233:\n        /* \"#utility.yul\":15223:15300   */\n      0x4e487b7100000000000000000000000000000000000000000000000000000000\n        /* \"#utility.yul\":15220:15221   */\n      0x00\n        /* \"#utility.yul\":15213:15301   */\n      mstore\n        /* \"#utility.yul\":15320:15324   */\n      0x11\n        /* \"#utility.yul\":15317:15318   */\n      0x04\n        /* \"#utility.yul\":15310:15325   */\n      mstore\n        /* \"#utility.yul\":15344:15348   */\n      0x24\n        /* \"#utility.yul\":15341:15342   */\n      0x00\n        /* \"#utility.yul\":15334:15349   */\n      revert\n        /* \"#utility.yul\":15361:15552   */\n    tag_144:\n        /* \"#utility.yul\":15401:15404   */\n      0x00\n        /* \"#utility.yul\":15420:15440   */\n      tag_353\n        /* \"#utility.yul\":15438:15439   */\n      dup3\n        /* \"#utility.yul\":15420:15440   */\n      tag_198\n      jump\t// in\n    tag_353:\n        /* \"#utility.yul\":15415:15440   */\n      swap2\n      pop\n        /* \"#utility.yul\":15454:15474   */\n      tag_354\n        /* \"#utility.yul\":15472:15473   */\n      dup4\n        /* \"#utility.yul\":15454:15474   */\n      tag_198\n      jump\t// in\n    tag_354:\n        /* \"#utility.yul\":15449:15474   */\n      swap3\n      pop\n        /* \"#utility.yul\":15497:15498   */\n      dup3\n        /* \"#utility.yul\":15494:15495   */\n      dup3\n        /* \"#utility.yul\":15490:15499   */\n      add\n        /* \"#utility.yul\":15483:15499   */\n      swap1\n      pop\n        /* \"#utility.yul\":15518:15521   */\n      dup1\n        /* \"#utility.yul\":15515:15516   */\n      dup3\n        /* \"#utility.yul\":15512:15522   */\n      gt\n        /* \"#utility.yul\":15509:15545   */\n      iszero\n      tag_355\n      jumpi\n        /* \"#utility.yul\":15525:15543   */\n      tag_356\n      tag_233\n      jump\t// in\n    tag_356:\n        /* \"#utility.yul\":15509:15545   */\n    tag_355:\n        /* \"#utility.yul\":15361:15552   */\n      swap3\n      swap2\n      pop\n      pop\n      jump\t// out\n        /* \"#utility.yul\":15558:15729   */\n    tag_234:\n        /* \"#utility.yul\":15698:15721   */\n      0x496e636f72726563742072656e7420616d6f756e740000000000000000000000\n        /* \"#utility.yul\":15694:15695   */\n      0x00\n        /* \"#utility.yul\":15686:15692   */\n      dup3\n        /* \"#utility.yul\":15682:15696   */\n      add\n        /* \"#utility.yul\":15675:15722   */\n      mstore\n        /* \"#utility.yul\":15558:15729   */\n      pop\n      jump\t// out\n        /* \"#utility.yul\":15735:16101   */\n    tag_235:\n        /* \"#utility.yul\":15877:15880   */\n      0x00\n        /* \"#utility.yul\":15898:15965   */\n      tag_359\n        /* \"#utility.yul\":15962:15964   */\n      0x15\n        /* \"#utility.yul\":15957:15960   */\n      dup4\n        /* \"#utility.yul\":15898:15965   */\n      tag_210\n      jump\t// in\n    tag_359:\n        /* \"#utility.yul\":15891:15965   */\n      swap2\n      pop\n        /* \"#utility.yul\":15974:16067   */\n      tag_360\n        /* \"#utility.yul\":16063:16066   */\n      dup3\n        /* \"#utility.yul\":15974:16067   */\n      tag_234\n      jump\t// in\n    tag_360:\n        /* \"#utility.yul\":16092:16094   */\n      0x20\n        /* \"#utility.yul\":16087:16090   */\n      dup3\n        /* \"#utility.yul\":16083:16095   */\n      add\n        /* \"#utility.yul\":16076:16095   */\n      swap1\n      pop\n        /* \"#utility.yul\":15735:16101   */\n      swap2\n      swap1\n      pop\n      jump\t// out\n        /* \"#utility.yul\":16107:16526   */\n    tag_148:\n        /* \"#utility.yul\":16273:16277   */\n      0x00\n        /* \"#utility.yul\":16311:16313   */\n      0x20\n        /* \"#utility.yul\":16300:16309   */\n      dup3\n        /* \"#utility.yul\":16296:16314   */\n      add\n        /* \"#utility.yul\":16288:16314   */\n      swap1\n      pop\n        /* \"#utility.yul\":16360:16369   */\n      dup2\n        /* \"#utility.yul\":16354:16358   */\n      dup2\n        /* \"#utility.yul\":16350:16370   */\n      sub\n        /* \"#utility.yul\":16346:16347   */\n      0x00\n        /* \"#utility.yul\":16335:16344   */\n      dup4\n        /* \"#utility.yul\":16331:16348   */\n      add\n        /* \"#utility.yul\":16324:16371   */\n      mstore\n        /* \"#utility.yul\":16388:16519   */\n      tag_362\n        /* \"#utility.yul\":16514:16518   */\n      dup2\n        /* \"#utility.yul\":16388:16519   */\n      tag_235\n      jump\t// in\n    tag_362:\n        /* \"#utility.yul\":16380:16519   */\n      swap1\n      pop\n        /* \"#utility.yul\":16107:16526   */\n      swap2\n      swap1\n      pop\n      jump\t// out\n        /* \"#utility.yul\":16532:16765   */\n    tag_158:\n        /* \"#utility.yul\":16571:16574   */\n      0x00\n        /* \"#utility.yul\":16594:16618   */\n      tag_364\n        /* \"#utility.yul\":16612:16617   */\n      dup3\n        /* \"#utility.yul\":16594:16618   */\n      tag_198\n      jump\t// in\n    tag_364:\n        /* \"#utility.yul\":16585:16618   */\n      swap2\n      pop\n        /* \"#utility.yul\":16640:16706   */\n      0xffffffffffffffffffffffffffffffffffffffffffffffffffffffffffffffff\n        /* \"#utility.yul\":16633:16638   */\n      dup3\n        /* \"#utility.yul\":16630:16707   */\n      sub\n        /* \"#utility.yul\":16627:16730   */\n      tag_365\n      jumpi\n        /* \"#utility.yul\":16710:16728   */\n      tag_366\n      tag_233\n      jump\t// in\n    tag_366:\n        /* \"#utility.yul\":16627:16730   */\n    tag_365:\n        /* \"#utility.yul\":16757:16758   */\n      0x01\n        /* \"#utility.yul\":16750:16755   */\n      dup3\n        /* \"#utility.yul\":16746:16759   */\n      add\n        /* \"#utility.yul\":16739:16759   */\n      swap1\n      pop\n        /* \"#utility.yul\":16532:16765   */\n      swap2\n      swap1\n      pop\n      jump\t// out\n        /* \"#utility.yul\":16771:16991   */\n    tag_236:\n        /* \"#utility.yul\":16911:16945   */\n      0x4f6e6c792072656e7465722063616e20736b69702072656e74207061796d656e\n        /* \"#utility.yul\":16907:16908   */\n      0x00\n        /* \"#utility.yul\":16899:16905   */\n      dup3\n        /* \"#utility.yul\":16895:16909   */\n      add\n        /* \"#utility.yul\":16888:16946   */\n      mstore\n        /* \"#utility.yul\":16980:16983   */\n      0x7400000000000000000000000000000000000000000000000000000000000000\n        /* \"#utility.yul\":16975:16977   */\n      0x20\n        /* \"#utility.yul\":16967:16973   */\n      dup3\n        /* \"#utility.yul\":16963:16978   */\n      add\n        /* \"#utility.yul\":16956:16984   */\n      mstore\n        /* \"#utility.yul\":16771:16991   */\n      pop\n      jump\t// out\n        /* \"#utility.yul\":16997:17363   */\n    tag_237:\n        /* \"#utility.yul\":17139:17142   */\n      0x00\n        /* \"#utility.yul\":17160:17227   */\n      tag_369\n        /* \"#utility.yul\":17224:17226   */\n      0x21\n        /* \"#utility.yul\":17219:17222   */\n      dup4\n        /* \"#utility.yul\":17160:17227   */\n      tag_210\n      jump\t// in\n    tag_369:\n        /* \"#utility.yul\":17153:17227   */\n      swap2\n      pop\n        /* \"#utility.yul\":17236:17329   */\n      tag_370\n        /* \"#utility.yul\":17325:17328   */\n      dup3\n        /* \"#utility.yul\":17236:17329   */\n      tag_236\n      jump\t// in\n    tag_370:\n        /* \"#utility.yul\":17354:17356   */\n      0x40\n        /* \"#utility.yul\":17349:17352   */\n      dup3\n        /* \"#utility.yul\":17345:17357   */\n      add\n        /* \"#utility.yul\":17338:17357   */\n      swap1\n      pop\n        /* \"#utility.yul\":16997:17363   */\n      swap2\n      swap1\n      pop\n      jump\t// out\n        /* \"#utility.yul\":17369:17788   */\n    tag_162:\n        /* \"#utility.yul\":17535:17539   */\n      0x00\n        /* \"#utility.yul\":17573:17575   */\n      0x20\n        /* \"#utility.yul\":17562:17571   */\n      dup3\n        /* \"#utility.yul\":17558:17576   */\n      add\n        /* \"#utility.yul\":17550:17576   */\n      swap1\n      pop\n        /* \"#utility.yul\":17622:17631   */\n      dup2\n        /* \"#utility.yul\":17616:17620   */\n      dup2\n        /* \"#utility.yul\":17612:17632   */\n      sub\n        /* \"#utility.yul\":17608:17609   */\n      0x00\n        /* \"#utility.yul\":17597:17606   */\n      dup4\n        /* \"#utility.yul\":17593:17610   */\n      add\n        /* \"#utility.yul\":17586:17633   */\n      mstore\n        /* \"#utility.yul\":17650:17781   */\n      tag_372\n        /* \"#utility.yul\":17776:17780   */\n      dup2\n        /* \"#utility.yul\":17650:17781   */\n      tag_237\n      jump\t// in\n    tag_372:\n        /* \"#utility.yul\":17642:17781   */\n      swap1\n      pop\n        /* \"#utility.yul\":17369:17788   */\n      swap2\n      swap1\n      pop\n      jump\t// out\n        /* \"#utility.yul\":17794:18018   */\n    tag_238:\n        /* \"#utility.yul\":17934:17968   */\n      0x4f6e6c79206c616e646c6f72642063616e207365742061677265656d656e7420\n        /* \"#utility.yul\":17930:17931   */\n      0x00\n        /* \"#utility.yul\":17922:17928   */\n      dup3\n        /* \"#utility.yul\":17918:17932   */\n      add\n        /* \"#utility.yul\":17911:17969   */\n      mstore\n        /* \"#utility.yul\":18003:18010   */\n      0x7465726d73000000000000000000000000000000000000000000000000000000\n        /* \"#utility.yul\":17998:18000   */\n      0x20\n        /* \"#utility.yul\":17990:17996   */\n      dup3\n        /* \"#utility.yul\":17986:18001   */\n      add\n        /* \"#utility.yul\":17979:18011   */\n      mstore\n        /* \"#utility.yul\":17794:18018   */\n      pop\n      jump\t// out\n        /* \"#utility.yul\":18024:18390   */\n    tag_239:\n        /* \"#utility.yul\":18166:18169   */\n      0x00\n        /* \"#utility.yul\":18187:18254   */\n      tag_375\n        /* \"#utility.yul\":18251:18253   */\n      0x25\n        /* \"#utility.yul\":18246:18249   */\n      dup4\n        /* \"#utility.yul\":18187:18254   */\n      tag_210\n      jump\t// in\n    tag_375:\n        /* \"#utility.yul\":18180:18254   */\n      swap2\n      pop\n        /* \"#utility.yul\":18263:18356   */\n      tag_376\n        /* \"#utility.yul\":18352:18355   */\n      dup3\n        /* \"#utility.yul\":18263:18356   */\n      tag_238\n      jump\t// in\n    tag_376:\n        /* \"#utility.yul\":18381:18383   */\n      0x40\n        /* \"#utility.yul\":18376:18379   */\n      dup3\n        /* \"#utility.yul\":18372:18384   */\n      add\n        /* \"#utility.yul\":18365:18384   */\n      swap1\n      pop\n        /* \"#utility.yul\":18024:18390   */\n      swap2\n      swap1\n      pop\n      jump\t// out\n        /* \"#utility.yul\":18396:18815   */\n    tag_181:\n        /* \"#utility.yul\":18562:18566   */\n      0x00\n        /* \"#utility.yul\":18600:18602   */\n      0x20\n        /* \"#utility.yul\":18589:18598   */\n      dup3\n        /* \"#utility.yul\":18585:18603   */\n      add\n        /* \"#utility.yul\":18577:18603   */\n      swap1\n      pop\n        /* \"#utility.yul\":18649:18658   */\n      dup2\n        /* \"#utility.yul\":18643:18647   */\n      dup2\n        /* \"#utility.yul\":18639:18659   */\n      sub\n        /* \"#utility.yul\":18635:18636   */\n      0x00\n        /* \"#utility.yul\":18624:18633   */\n      dup4\n        /* \"#utility.yul\":18620:18637   */\n      add\n        /* \"#utility.yul\":18613:18660   */\n      mstore\n        /* \"#utility.yul\":18677:18808   */\n      tag_378\n        /* \"#utility.yul\":18803:18807   */\n      dup2\n        /* \"#utility.yul\":18677:18808   */\n      tag_239\n      jump\t// in\n    tag_378:\n        /* \"#utility.yul\":18669:18808   */\n      swap1\n      pop\n        /* \"#utility.yul\":18396:18815   */\n      swap2\n      swap1\n      pop\n      jump\t// out\n        /* \"#utility.yul\":18821:19263   */\n    tag_185:\n        /* \"#utility.yul\":18970:18974   */\n      0x00\n        /* \"#utility.yul\":19008:19010   */\n      0x60\n        /* \"#utility.yul\":18997:19006   */\n      dup3\n        /* \"#utility.yul\":18993:19011   */\n      add\n        /* \"#utility.yul\":18985:19011   */\n      swap1\n      pop\n        /* \"#utility.yul\":19021:19092   */\n      tag_380\n        /* \"#utility.yul\":19089:19090   */\n      0x00\n        /* \"#utility.yul\":19078:19087   */\n      dup4\n        /* \"#utility.yul\":19074:19091   */\n      add\n        /* \"#utility.yul\":19065:19071   */\n      dup7\n        /* \"#utility.yul\":19021:19092   */\n      tag_199\n      jump\t// in\n    tag_380:\n        /* \"#utility.yul\":19102:19174   */\n      tag_381\n        /* \"#utility.yul\":19170:19172   */\n      0x20\n        /* \"#utility.yul\":19159:19168   */\n      dup4\n        /* \"#utility.yul\":19155:19173   */\n      add\n        /* \"#utility.yul\":19146:19152   */\n      dup6\n        /* \"#utility.yul\":19102:19174   */\n      tag_199\n      jump\t// in\n    tag_381:\n        /* \"#utility.yul\":19184:19256   */\n      tag_382\n        /* \"#utility.yul\":19252:19254   */\n      0x40\n        /* \"#utility.yul\":19241:19250   */\n      dup4\n        /* \"#utility.yul\":19237:19255   */\n      add\n        /* \"#utility.yul\":19228:19234   */\n      dup5\n        /* \"#utility.yul\":19184:19256   */\n      tag_199\n      jump\t// in\n    tag_382:\n        /* \"#utility.yul\":18821:19263   */\n      swap5\n      swap4\n      pop\n      pop\n      pop\n      pop\n      jump\t// out\n        /* \"#utility.yul\":19269:19463   */\n    tag_192:\n        /* \"#utility.yul\":19309:19313   */\n      0x00\n        /* \"#utility.yul\":19329:19349   */\n      tag_384\n        /* \"#utility.yul\":19347:19348   */\n      dup3\n        /* \"#utility.yul\":19329:19349   */\n      tag_198\n      jump\t// in\n    tag_384:\n        /* \"#utility.yul\":19324:19349   */\n      swap2\n      pop\n        /* \"#utility.yul\":19363:19383   */\n      tag_385\n        /* \"#utility.yul\":19381:19382   */\n      dup4\n        /* \"#utility.yul\":19363:19383   */\n      tag_198\n      jump\t// in\n    tag_385:\n        /* \"#utility.yul\":19358:19383   */\n      swap3\n      pop\n        /* \"#utility.yul\":19407:19408   */\n      dup3\n        /* \"#utility.yul\":19404:19405   */\n      dup3\n        /* \"#utility.yul\":19400:19409   */\n      sub\n        /* \"#utility.yul\":19392:19409   */\n      swap1\n      pop\n        /* \"#utility.yul\":19431:19432   */\n      dup2\n        /* \"#utility.yul\":19425:19429   */\n      dup2\n        /* \"#utility.yul\":19422:19433   */\n      gt\n        /* \"#utility.yul\":19419:19456   */\n      iszero\n      tag_386\n      jumpi\n        /* \"#utility.yul\":19436:19454   */\n      tag_387\n      tag_233\n      jump\t// in\n    tag_387:\n        /* \"#utility.yul\":19419:19456   */\n    tag_386:\n        /* \"#utility.yul\":19269:19463   */\n      swap3\n      swap2\n      pop\n      pop\n      jump\t// out\n\n    auxdata: 0xa26469706673582212207fff830a0ccbfbfb37e3ceb8e52ffb39f0d6d91d71f5a549de60e77e1a3c7e4164736f6c63430008120033\n}\n",
				"bytecode": {
					"linkReferences": {},
					"object": "60806040523480156200001157600080fd5b5060405162001db438038062001db483398181016040528101906200003791906200015f565b336000806101000a81548173ffffffffffffffffffffffffffffffffffffffff021916908373ffffffffffffffffffffffffffffffffffffffff16021790555080600160006101000a81548173ffffffffffffffffffffffffffffffffffffffff021916908373ffffffffffffffffffffffffffffffffffffffff1602179055506000600860006101000a81548160ff0219169083151502179055506000600860016101000a81548160ff0219169083151502179055505062000191565b600080fd5b600073ffffffffffffffffffffffffffffffffffffffff82169050919050565b60006200012782620000fa565b9050919050565b62000139816200011a565b81146200014557600080fd5b50565b60008151905062000159816200012e565b92915050565b600060208284031215620001785762000177620000f5565b5b6000620001888482850162000148565b91505092915050565b611c1380620001a16000396000f3fe6080604052600436106101095760003560e01c8063862a4d4711610095578063ca08803111610064578063ca088031146102e5578063d738307c146102fc578063dc1997ea14610325578063e1505e4e14610350578063f13702f41461039057610109565b8063862a4d471461026e57806387eaa342146102995780638fda356d146102c4578063a709c4fe146102db57610109565b806342c63dae116100dc57806342c63dae146101ba578063561eefd8146101c45780636f3c590c146101ef5780636f9fb98a1461021a5780637ef987401461024557610109565b806304a2286a1461010e578063220e5ab31461013957806322f3e2d4146101645780632e88ab0b1461018f575b600080fd5b34801561011a57600080fd5b506101236103bb565b60405161013091906111ac565b60405180910390f35b34801561014557600080fd5b5061014e6103c1565b60405161015b91906111ac565b60405180910390f35b34801561017057600080fd5b506101796103c7565b60405161018691906111e2565b60405180910390f35b34801561019b57600080fd5b506101a46103da565b6040516101b1919061123e565b60405180910390f35b6101c2610400565b005b3480156101d057600080fd5b506101d9610578565b6040516101e691906111ac565b60405180910390f35b3480156101fb57600080fd5b5061020461057e565b60405161021191906111ac565b60405180910390f35b34801561022657600080fd5b5061022f610584565b60405161023c91906111ac565b60405180910390f35b34801561025157600080fd5b5061026c6004803603810190610267919061128a565b61058c565b005b34801561027a57600080fd5b5061028361072a565b60405161029091906111ac565b60405180910390f35b3480156102a557600080fd5b506102ae610730565b6040516102bb91906111ac565b60405180910390f35b3480156102d057600080fd5b506102d9610736565b005b6102e361088f565b005b3480156102f157600080fd5b506102fa610c05565b005b34801561030857600080fd5b50610323600480360381019061031e91906112b7565b610e7e565b005b34801561033157600080fd5b5061033a610fb1565b604051610347919061123e565b60405180910390f35b34801561035c57600080fd5b506103776004803603810190610372919061128a565b610fd5565b604051610387949392919061130a565b60405180910390f35b34801561039c57600080fd5b506103a5611012565b6040516103b291906111e2565b60405180910390f35b60035481565b60025481565b600860009054906101000a900460ff1681565b600160009054906101000a900473ffffffffffffffffffffffffffffffffffffffff1681565b600160009054906101000a900473ffffffffffffffffffffffffffffffffffffffff1673ffffffffffffffffffffffffffffffffffffffff163373ffffffffffffffffffffffffffffffffffffffff1614610490576040517f08c379a0000000000000000000000000000000000000000000000000000000008152600401610487906113d2565b60405180910390fd5b600860009054906101000a900460ff16156104e0576040517f08c379a00000000000000000000000000000000000000000000000000000000081526004016104d79061143e565b60405180910390fd5b6002543414610524576040517f08c379a000000000000000000000000000000000000000000000000000000000815260040161051b906114d0565b60405180910390fd5b6001600860016101000a81548160ff0219169083151502179055507f486ac935cf1ea9effd9e0a261bc42917b45f2fd45cc98def2bc34d47f216937c3460405161056e91906111ac565b60405180910390a1565b60055481565b60075481565b600047905090565b60008054906101000a900473ffffffffffffffffffffffffffffffffffffffff1673ffffffffffffffffffffffffffffffffffffffff163373ffffffffffffffffffffffffffffffffffffffff161461061a576040517f08c379a000000000000000000000000000000000000000000000000000000000815260040161061190611562565b60405180910390fd5b600860009054906101000a900460ff16610669576040517f08c379a0000000000000000000000000000000000000000000000000000000008152600401610660906115ce565b60405180910390fd5b60045460065411156106b0576040517f08c379a00000000000000000000000000000000000000000000000000000000081526004016106a79061163a565b60405180910390fd5b8060096000600654815260200190815260200160002060010181905550600354600960006006548152602001908152602001600020600001819055507ff75d23e75691b7209bf24071476b3702a8412a369b26fd3ad012d19630f65a2b6006548260405161071f92919061165a565b60405180910390a150565b60065481565b60045481565b60008054906101000a900473ffffffffffffffffffffffffffffffffffffffff1673ffffffffffffffffffffffffffffffffffffffff163373ffffffffffffffffffffffffffffffffffffffff16146107c4576040517f08c379a00000000000000000000000000000000000000000000000000000000081526004016107bb906116f5565b60405180910390fd5b600860019054906101000a900460ff16610813576040517f08c379a000000000000000000000000000000000000000000000000000000000815260040161080a90611787565b60405180910390fd5b600860009054906101000a900460ff1615610863576040517f08c379a000000000000000000000000000000000000000000000000000000000815260040161085a9061143e565b60405180910390fd5b6001600860006101000a81548160ff021916908315150217905550426005819055506001600681905550565b600160009054906101000a900473ffffffffffffffffffffffffffffffffffffffff1673ffffffffffffffffffffffffffffffffffffffff163373ffffffffffffffffffffffffffffffffffffffff161461091f576040517f08c379a0000000000000000000000000000000000000000000000000000000008152600401610916906117f3565b60405180910390fd5b600860009054906101000a900460ff1661096e576040517f08c379a0000000000000000000000000000000000000000000000000000000008152600401610965906115ce565b60405180910390fd5b60045460065411156109b5576040517f08c379a00000000000000000000000000000000000000000000000000000000081526004016109ac9061163a565b60405180910390fd5b600060096000600654815260200190815260200160002090508060030160009054906101000a900460ff1615610a20576040517f08c379a0000000000000000000000000000000000000000000000000000000008152600401610a1790611885565b60405180910390fd5b6000816001015411610a67576040517f08c379a0000000000000000000000000000000000000000000000000000000008152600401610a5e90611917565b60405180910390fd5b600060075482600101548360000154610a809190611966565b610a8a9190611966565b9050803414610ace576040517f08c379a0000000000000000000000000000000000000000000000000000000008152600401610ac5906119e6565b60405180910390fd5b60018260030160006101000a81548160ff02191690831515021790555060006007819055507fa0d112ed080c1b1a94b838ad981a23746be2a4670fd4bf157224e72cdd5dfdde60065482604051610b2692919061165a565b60405180910390a160008054906101000a900473ffffffffffffffffffffffffffffffffffffffff1673ffffffffffffffffffffffffffffffffffffffff166108fc829081150290604051600060405180830381858888f19350505050158015610b94573d6000803e3d6000fd5b507f9af72f88f132a14442854dc5970b4b93a4fee657fea587a232828625d2fa486660065482604051610bc892919061165a565b60405180910390a160045460065403610be857610be3611025565b610c01565b60066000815480929190610bfb90611a06565b91905055505b5050565b600160009054906101000a900473ffffffffffffffffffffffffffffffffffffffff1673ffffffffffffffffffffffffffffffffffffffff163373ffffffffffffffffffffffffffffffffffffffff1614610c95576040517f08c379a0000000000000000000000000000000000000000000000000000000008152600401610c8c90611ac0565b60405180910390fd5b600860009054906101000a900460ff16610ce4576040517f08c379a0000000000000000000000000000000000000000000000000000000008152600401610cdb906115ce565b60405180910390fd5b6004546006541115610d2b576040517f08c379a0000000000000000000000000000000000000000000000000000000008152600401610d229061163a565b60405180910390fd5b600060096000600654815260200190815260200160002090508060030160009054906101000a900460ff1615610d96576040517f08c379a0000000000000000000000000000000000000000000000000000000008152600401610d8d90611885565b60405180910390fd5b6000816001015411610ddd576040517f08c379a0000000000000000000000000000000000000000000000000000000008152600401610dd490611917565b60405180910390fd5b600081600101548260000154610df39190611966565b90508060076000828254610e079190611966565b925050819055507f9ea3a4b65940d7b9dbf8bb1c459ba8e81222d1a596e93fbc364365a6d78e27d660065482604051610e4192919061165a565b60405180910390a160045460065403610e6157610e5c611025565b610e7a565b60066000815480929190610e7490611a06565b91905055505b5050565b60008054906101000a900473ffffffffffffffffffffffffffffffffffffffff1673ffffffffffffffffffffffffffffffffffffffff163373ffffffffffffffffffffffffffffffffffffffff1614610f0c576040517f08c379a0000000000000000000000000000000000000000000000000000000008152600401610f0390611b52565b60405180910390fd5b600860009054906101000a900460ff1615610f5c576040517f08c379a0000000000000000000000000000000000000000000000000000000008152600401610f539061143e565b60405180910390fd5b8260028190555081600381905550806004819055507f2f47566d4872826a9750e05ae448ad21f2a677c332d36d6437b697a7f8dd1e14838383604051610fa493929190611b72565b60405180910390a1505050565b60008054906101000a900473ffffffffffffffffffffffffffffffffffffffff1681565b60096020528060005260406000206000915090508060000154908060010154908060020154908060030160009054906101000a900460ff16905084565b600860019054906101000a900460ff1681565b6000600860006101000a81548160ff021916908315150217905550600060075490506000808211156110dd576002548211156110615760025491505b60008054906101000a900473ffffffffffffffffffffffffffffffffffffffff1673ffffffffffffffffffffffffffffffffffffffff166108fc839081150290604051600060405180830381858888f193505050501580156110c7573d6000803e3d6000fd5b50816002546110d69190611ba9565b90506110e3565b60025490505b600081111561115657600160009054906101000a900473ffffffffffffffffffffffffffffffffffffffff1673ffffffffffffffffffffffffffffffffffffffff166108fc829081150290604051600060405180830381858888f19350505050158015611154573d6000803e3d6000fd5b505b7fc0590c5a8ce79dffbdde17480a06203778f954965615e1d9577dbc90da2ff109818360405161118792919061165a565b60405180910390a15050565b6000819050919050565b6111a681611193565b82525050565b60006020820190506111c1600083018461119d565b92915050565b60008115159050919050565b6111dc816111c7565b82525050565b60006020820190506111f760008301846111d3565b92915050565b600073ffffffffffffffffffffffffffffffffffffffff82169050919050565b6000611228826111fd565b9050919050565b6112388161121d565b82525050565b6000602082019050611253600083018461122f565b92915050565b600080fd5b61126781611193565b811461127257600080fd5b50565b6000813590506112848161125e565b92915050565b6000602082840312156112a05761129f611259565b5b60006112ae84828501611275565b91505092915050565b6000806000606084860312156112d0576112cf611259565b5b60006112de86828701611275565b93505060206112ef86828701611275565b925050604061130086828701611275565b9150509250925092565b600060808201905061131f600083018761119d565b61132c602083018661119d565b611339604083018561119d565b61134660608301846111d3565b95945050505050565b600082825260208201905092915050565b7f4f6e6c792072656e7465722063616e207061792073656375726974792064657060008201527f6f73697400000000000000000000000000000000000000000000000000000000602082015250565b60006113bc60248361134f565b91506113c782611360565b604082019050919050565b600060208201905081810360008301526113eb816113af565b9050919050565b7f436f6e747261637420697320616c726561647920616374697665000000000000600082015250565b6000611428601a8361134f565b9150611433826113f2565b602082019050919050565b600060208201905081810360008301526114578161141b565b9050919050565b7f496e636f7272656374207365637572697479206465706f73697420616d6f756e60008201527f7400000000000000000000000000000000000000000000000000000000000000602082015250565b60006114ba60218361134f565b91506114c58261145e565b604082019050919050565b600060208201905081810360008301526114e9816114ad565b9050919050565b7f4f6e6c79206c616e646c6f72642063616e207265636f7264207574696c69746960008201527f6573000000000000000000000000000000000000000000000000000000000000602082015250565b600061154c60228361134f565b9150611557826114f0565b604082019050919050565b6000602082019050818103600083015261157b8161153f565b9050919050565b7f436f6e7472616374206973206e6f742061637469766500000000000000000000600082015250565b60006115b860168361134f565b91506115c382611582565b602082019050919050565b600060208201905081810360008301526115e7816115ab565b9050919050565b7f52656e7420706572696f642068617320656e6465640000000000000000000000600082015250565b600061162460158361134f565b915061162f826115ee565b602082019050919050565b6000602082019050818103600083015261165381611617565b9050919050565b600060408201905061166f600083018561119d565b61167c602083018461119d565b9392505050565b7f4f6e6c79206c616e646c6f72642063616e20616374697661746520746865206360008201527f6f6e747261637400000000000000000000000000000000000000000000000000602082015250565b60006116df60278361134f565b91506116ea82611683565b604082019050919050565b6000602082019050818103600083015261170e816116d2565b9050919050565b7f5365637572697479206465706f736974206d757374206265207061696420666960008201527f7273740000000000000000000000000000000000000000000000000000000000602082015250565b600061177160238361134f565b915061177c82611715565b604082019050919050565b600060208201905081810360008301526117a081611764565b9050919050565b7f4f6e6c792072656e7465722063616e207061792072656e740000000000000000600082015250565b60006117dd60188361134f565b91506117e8826117a7565b602082019050919050565b6000602082019050818103600083015261180c816117d0565b9050919050565b7f52656e7420666f722074686973206d6f6e74682068617320616c72656164792060008201527f6265656e20706169640000000000000000000000000000000000000000000000602082015250565b600061186f60298361134f565b915061187a82611813565b604082019050919050565b6000602082019050818103600083015261189e81611862565b9050919050565b7f5574696c697469657320666f722074686973206d6f6e74682068617665206e6f60008201527f74206265656e207265636f726465640000000000000000000000000000000000602082015250565b6000611901602f8361134f565b915061190c826118a5565b604082019050919050565b60006020820190508181036000830152611930816118f4565b9050919050565b7f4e487b7100000000000000000000000000000000000000000000000000000000600052601160045260246000fd5b600061197182611193565b915061197c83611193565b925082820190508082111561199457611993611937565b5b92915050565b7f496e636f72726563742072656e7420616d6f756e740000000000000000000000600082015250565b60006119d060158361134f565b91506119db8261199a565b602082019050919050565b600060208201905081810360008301526119ff816119c3565b9050919050565b6000611a1182611193565b91507fffffffffffffffffffffffffffffffffffffffffffffffffffffffffffffffff8203611a4357611a42611937565b5b600182019050919050565b7f4f6e6c792072656e7465722063616e20736b69702072656e74207061796d656e60008201527f7400000000000000000000000000000000000000000000000000000000000000602082015250565b6000611aaa60218361134f565b9150611ab582611a4e565b604082019050919050565b60006020820190508181036000830152611ad981611a9d565b9050919050565b7f4f6e6c79206c616e646c6f72642063616e207365742061677265656d656e742060008201527f7465726d73000000000000000000000000000000000000000000000000000000602082015250565b6000611b3c60258361134f565b9150611b4782611ae0565b604082019050919050565b60006020820190508181036000830152611b6b81611b2f565b9050919050565b6000606082019050611b87600083018661119d565b611b94602083018561119d565b611ba1604083018461119d565b949350505050565b6000611bb482611193565b9150611bbf83611193565b9250828203905081811115611bd757611bd6611937565b5b9291505056fea26469706673582212207fff830a0ccbfbfb37e3ceb8e52ffb39f0d6d91d71f5a549de60e77e1a3c7e4164736f6c63430008120033",
					"opcodes": "PUSH1 0x80 PUSH1 0x40 MSTORE CALLVALUE DUP1 ISZERO PUSH3 0x11 JUMPI PUSH1 0x0 DUP1 REVERT JUMPDEST POP PUSH1 0x40 MLOAD PUSH3 0x1DB4 CODESIZE SUB DUP1 PUSH3 0x1DB4 DUP4 CODECOPY DUP2 DUP2 ADD PUSH1 0x40 MSTORE DUP2 ADD SWAP1 PUSH3 0x37 SWAP2 SWAP1 PUSH3 0x15F JUMP JUMPDEST CALLER PUSH1 0x0 DUP1 PUSH2 0x100 EXP DUP2 SLOAD DUP2 PUSH20 0xFFFFFFFFFFFFFFFFFFFFFFFFFFFFFFFFFFFFFFFF MUL NOT AND SWAP1 DUP4 PUSH20 0xFFFFFFFFFFFFFFFFFFFFFFFFFFFFFFFFFFFFFFFF AND MUL OR SWAP1 SSTORE POP DUP1 PUSH1 0x1 PUSH1 0x0 PUSH2 0x100 EXP DUP2 SLOAD DUP2 PUSH20 0xFFFFFFFFFFFFFFFFFFFFFFFFFFFFFFFFFFFFFFFF MUL NOT AND SWAP1 DUP4 PUSH20 0xFFFFFFFFFFFFFFFFFFFFFFFFFFFFFFFFFFFFFFFF AND MUL OR SWAP1 SSTORE POP PUSH1 0x0 PUSH1 0x8 PUSH1 0x0 PUSH2 0x100 EXP DUP2 SLOAD DUP2 PUSH1 0xFF MUL NOT AND SWAP1 DUP4 ISZERO ISZERO MUL OR SWAP1 SSTORE POP PUSH1 0x0 PUSH1 0x8 PUSH1 0x1 PUSH2 0x100 EXP DUP2 SLOAD DUP2 PUSH1 0xFF MUL NOT AND SWAP1 DUP4 ISZERO ISZERO MUL OR SWAP1 SSTORE POP POP PUSH3 0x191 JUMP JUMPDEST PUSH1 0x0 DUP1 REVERT JUMPDEST PUSH1 0x0 PUSH20 0xFFFFFFFFFFFFFFFFFFFFFFFFFFFFFFFFFFFFFFFF DUP3 AND SWAP1 POP SWAP2 SWAP1 POP JUMP JUMPDEST PUSH1 0x0 PUSH3 0x127 DUP3 PUSH3 0xFA JUMP JUMPDEST SWAP1 POP SWAP2 SWAP1 POP JUMP JUMPDEST PUSH3 0x139 DUP2 PUSH3 0x11A JUMP JUMPDEST DUP2 EQ PUSH3 0x145 JUMPI PUSH1 0x0 DUP1 REVERT JUMPDEST POP JUMP JUMPDEST PUSH1 0x0 DUP2 MLOAD SWAP1 POP PUSH3 0x159 DUP2 PUSH3 0x12E JUMP JUMPDEST SWAP3 SWAP2 POP POP JUMP JUMPDEST PUSH1 0x0 PUSH1 0x20 DUP3 DUP5 SUB SLT ISZERO PUSH3 0x178 JUMPI PUSH3 0x177 PUSH3 0xF5 JUMP JUMPDEST JUMPDEST PUSH1 0x0 PUSH3 0x188 DUP5 DUP3 DUP6 ADD PUSH3 0x148 JUMP JUMPDEST SWAP2 POP POP SWAP3 SWAP2 POP POP JUMP JUMPDEST PUSH2 0x1C13 DUP1 PUSH3 0x1A1 PUSH1 0x0 CODECOPY PUSH1 0x0 RETURN INVALID PUSH1 0x80 PUSH1 0x40 MSTORE PUSH1 0x4 CALLDATASIZE LT PUSH2 0x109 JUMPI PUSH1 0x0 CALLDATALOAD PUSH1 0xE0 SHR DUP1 PUSH4 0x862A4D47 GT PUSH2 0x95 JUMPI DUP1 PUSH4 0xCA088031 GT PUSH2 0x64 JUMPI DUP1 PUSH4 0xCA088031 EQ PUSH2 0x2E5 JUMPI DUP1 PUSH4 0xD738307C EQ PUSH2 0x2FC JUMPI DUP1 PUSH4 0xDC1997EA EQ PUSH2 0x325 JUMPI DUP1 PUSH4 0xE1505E4E EQ PUSH2 0x350 JUMPI DUP1 PUSH4 0xF13702F4 EQ PUSH2 0x390 JUMPI PUSH2 0x109 JUMP JUMPDEST DUP1 PUSH4 0x862A4D47 EQ PUSH2 0x26E JUMPI DUP1 PUSH4 0x87EAA342 EQ PUSH2 0x299 JUMPI DUP1 PUSH4 0x8FDA356D EQ PUSH2 0x2C4 JUMPI DUP1 PUSH4 0xA709C4FE EQ PUSH2 0x2DB JUMPI PUSH2 0x109 JUMP JUMPDEST DUP1 PUSH4 0x42C63DAE GT PUSH2 0xDC JUMPI DUP1 PUSH4 0x42C63DAE EQ PUSH2 0x1BA JUMPI DUP1 PUSH4 0x561EEFD8 EQ PUSH2 0x1C4 JUMPI DUP1 PUSH4 0x6F3C590C EQ PUSH2 0x1EF JUMPI DUP1 PUSH4 0x6F9FB98A EQ PUSH2 0x21A JUMPI DUP1 PUSH4 0x7EF98740 EQ PUSH2 0x245 JUMPI PUSH2 0x109 JUMP JUMPDEST DUP1 PUSH4 0x4A2286A EQ PUSH2 0x10E JUMPI DUP1 PUSH4 0x220E5AB3 EQ PUSH2 0x139 JUMPI DUP1 PUSH4 0x22F3E2D4 EQ PUSH2 0x164 JUMPI DUP1 PUSH4 0x2E88AB0B EQ PUSH2 0x18F JUMPI JUMPDEST PUSH1 0x0 DUP1 REVERT JUMPDEST CALLVALUE DUP1 ISZERO PUSH2 0x11A JUMPI PUSH1 0x0 DUP1 REVERT JUMPDEST POP PUSH2 0x123 PUSH2 0x3BB JUMP JUMPDEST PUSH1 0x40 MLOAD PUSH2 0x130 SWAP2 SWAP1 PUSH2 0x11AC JUMP JUMPDEST PUSH1 0x40 MLOAD DUP1 SWAP2 SUB SWAP1 RETURN JUMPDEST CALLVALUE DUP1 ISZERO PUSH2 0x145 JUMPI PUSH1 0x0 DUP1 REVERT JUMPDEST POP PUSH2 0x14E PUSH2 0x3C1 JUMP JUMPDEST PUSH1 0x40 MLOAD PUSH2 0x15B SWAP2 SWAP1 PUSH2 0x11AC JUMP JUMPDEST PUSH1 0x40 MLOAD DUP1 SWAP2 SUB SWAP1 RETURN JUMPDEST CALLVALUE DUP1 ISZERO PUSH2 0x170 JUMPI PUSH1 0x0 DUP1 REVERT JUMPDEST POP PUSH2 0x179 PUSH2 0x3C7 JUMP JUMPDEST PUSH1 0x40 MLOAD PUSH2 0x186 SWAP2 SWAP1 PUSH2 0x11E2 JUMP JUMPDEST PUSH1 0x40 MLOAD DUP1 SWAP2 SUB SWAP1 RETURN JUMPDEST CALLVALUE DUP1 ISZERO PUSH2 0x19B JUMPI PUSH1 0x0 DUP1 REVERT JUMPDEST POP PUSH2 0x1A4 PUSH2 0x3DA JUMP JUMPDEST PUSH1 0x40 MLOAD PUSH2 0x1B1 SWAP2 SWAP1 PUSH2 0x123E JUMP JUMPDEST PUSH1 0x40 MLOAD DUP1 SWAP2 SUB SWAP1 RETURN JUMPDEST PUSH2 0x1C2 PUSH2 0x400 JUMP JUMPDEST STOP JUMPDEST CALLVALUE DUP1 ISZERO PUSH2 0x1D0 JUMPI PUSH1 0x0 DUP1 REVERT JUMPDEST POP PUSH2 0x1D9 PUSH2 0x578 JUMP JUMPDEST PUSH1 0x40 MLOAD PUSH2 0x1E6 SWAP2 SWAP1 PUSH2 0x11AC JUMP JUMPDEST PUSH1 0x40 MLOAD DUP1 SWAP2 SUB SWAP1 RETURN JUMPDEST CALLVALUE DUP1 ISZERO PUSH2 0x1FB JUMPI PUSH1 0x0 DUP1 REVERT JUMPDEST POP PUSH2 0x204 PUSH2 0x57E JUMP JUMPDEST PUSH1 0x40 MLOAD PUSH2 0x211 SWAP2 SWAP1 PUSH2 0x11AC JUMP JUMPDEST PUSH1 0x40 MLOAD DUP1 SWAP2 SUB SWAP1 RETURN JUMPDEST CALLVALUE DUP1 ISZERO PUSH2 0x226 JUMPI PUSH1 0x0 DUP1 REVERT JUMPDEST POP PUSH2 0x22F PUSH2 0x584 JUMP JUMPDEST PUSH1 0x40 MLOAD PUSH2 0x23C SWAP2 SWAP1 PUSH2 0x11AC JUMP JUMPDEST PUSH1 0x40 MLOAD DUP1 SWAP2 SUB SWAP1 RETURN JUMPDEST CALLVALUE DUP1 ISZERO PUSH2 0x251 JUMPI PUSH1 0x0 DUP1 REVERT JUMPDEST POP PUSH2 0x26C PUSH1 0x4 DUP1 CALLDATASIZE SUB DUP2 ADD SWAP1 PUSH2 0x267 SWAP2 SWAP1 PUSH2 0x128A JUMP JUMPDEST PUSH2 0x58C JUMP JUMPDEST STOP JUMPDEST CALLVALUE DUP1 ISZERO PUSH2 0x27A JUMPI PUSH1 0x0 DUP1 REVERT JUMPDEST POP PUSH2 0x283 PUSH2 0x72A JUMP JUMPDEST PUSH1 0x40 MLOAD PUSH2 0x290 SWAP2 SWAP1 PUSH2 0x11AC JUMP JUMPDEST PUSH1 0x40 MLOAD DUP1 SWAP2 SUB SWAP1 RETURN JUMPDEST CALLVALUE DUP1 ISZERO PUSH2 0x2A5 JUMPI PUSH1 0x0 DUP1 REVERT JUMPDEST POP PUSH2 0x2AE PUSH2 0x730 JUMP JUMPDEST PUSH1 0x40 MLOAD PUSH2 0x2BB SWAP2 SWAP1 PUSH2 0x11AC JUMP JUMPDEST PUSH1 0x40 MLOAD DUP1 SWAP2 SUB SWAP1 RETURN JUMPDEST CALLVALUE DUP1 ISZERO PUSH2 0x2D0 JUMPI PUSH1 0x0 DUP1 REVERT JUMPDEST POP PUSH2 0x2D9 PUSH2 0x736 JUMP JUMPDEST STOP JUMPDEST PUSH2 0x2E3 PUSH2 0x88F JUMP JUMPDEST STOP JUMPDEST CALLVALUE DUP1 ISZERO PUSH2 0x2F1 JUMPI PUSH1 0x0 DUP1 REVERT JUMPDEST POP PUSH2 0x2FA PUSH2 0xC05 JUMP JUMPDEST STOP JUMPDEST CALLVALUE DUP1 ISZERO PUSH2 0x308 JUMPI PUSH1 0x0 DUP1 REVERT JUMPDEST POP PUSH2 0x323 PUSH1 0x4 DUP1 CALLDATASIZE SUB DUP2 ADD SWAP1 PUSH2 0x31E SWAP2 SWAP1 PUSH2 0x12B7 JUMP JUMPDEST PUSH2 0xE7E JUMP JUMPDEST STOP JUMPDEST CALLVALUE DUP1 ISZERO PUSH2 0x331 JUMPI PUSH1 0x0 DUP1 REVERT JUMPDEST POP PUSH2 0x33A PUSH2 0xFB1 JUMP JUMPDEST PUSH1 0x40 MLOAD PUSH2 0x347 SWAP2 SWAP1 PUSH2 0x123E JUMP JUMPDEST PUSH1 0x40 MLOAD DUP1 SWAP2 SUB SWAP1 RETURN JUMPDEST CALLVALUE DUP1 ISZERO PUSH2 0x35C JUMPI PUSH1 0x0 DUP1 REVERT JUMPDEST POP PUSH2 0x377 PUSH1 0x4 DUP1 CALLDATASIZE SUB DUP2 ADD SWAP1 PUSH2 0x372 SWAP2 SWAP1 PUSH2 0x128A JUMP JUMPDEST PUSH2 0xFD5 JUMP JUMPDEST PUSH1 0x40 MLOAD PUSH2 0x387 SWAP5 SWAP4 SWAP3 SWAP2 SWAP1 PUSH2 0x130A JUMP JUMPDEST PUSH1 0x40 MLOAD DUP1 SWAP2 SUB SWAP1 RETURN JUMPDEST CALLVALUE DUP1 ISZERO PUSH2 0x39C JUMPI PUSH1 0x0 DUP1 REVERT JUMPDEST POP PUSH2 0x3A5 PUSH2 0x1012 JUMP JUMPDEST PUSH1 0x40 MLOAD PUSH2 0x3B2 SWAP2 SWAP1 PUSH2 0x11E2 JUMP JUMPDEST PUSH1 0x40 MLOAD DUP1 SWAP2 SUB SWAP1 RETURN JUMPDEST PUSH1 0x3 SLOAD DUP2 JUMP JUMPDEST PUSH1 0x2 SLOAD DUP2 JUMP JUMPDEST PUSH1 0x8 PUSH1 0x0 SWAP1 SLOAD SWAP1 PUSH2 0x100 EXP SWAP1 DIV PUSH1 0xFF AND DUP2 JUMP JUMPDEST PUSH1 0x1 PUSH1 0x0 SWAP1 SLOAD SWAP1 PUSH2 0x100 EXP SWAP1 DIV PUSH20 0xFFFFFFFFFFFFFFFFFFFFFFFFFFFFFFFFFFFFFFFF AND DUP2 JUMP JUMPDEST PUSH1 0x1 PUSH1 0x0 SWAP1 SLOAD SWAP1 PUSH2 0x100 EXP SWAP1 DIV PUSH20 0xFFFFFFFFFFFFFFFFFFFFFFFFFFFFFFFFFFFFFFFF AND PUSH20 0xFFFFFFFFFFFFFFFFFFFFFFFFFFFFFFFFFFFFFFFF AND CALLER PUSH20 0xFFFFFFFFFFFFFFFFFFFFFFFFFFFFFFFFFFFFFFFF AND EQ PUSH2 0x490 JUMPI PUSH1 0x40 MLOAD PUSH32 0x8C379A000000000000000000000000000000000000000000000000000000000 DUP2 MSTORE PUSH1 0x4 ADD PUSH2 0x487 SWAP1 PUSH2 0x13D2 JUMP JUMPDEST PUSH1 0x40 MLOAD DUP1 SWAP2 SUB SWAP1 REVERT JUMPDEST PUSH1 0x8 PUSH1 0x0 SWAP1 SLOAD SWAP1 PUSH2 0x100 EXP SWAP1 DIV PUSH1 0xFF AND ISZERO PUSH2 0x4E0 JUMPI PUSH1 0x40 MLOAD PUSH32 0x8C379A000000000000000000000000000000000000000000000000000000000 DUP2 MSTORE PUSH1 0x4 ADD PUSH2 0x4D7 SWAP1 PUSH2 0x143E JUMP JUMPDEST PUSH1 0x40 MLOAD DUP1 SWAP2 SUB SWAP1 REVERT JUMPDEST PUSH1 0x2 SLOAD CALLVALUE EQ PUSH2 0x524 JUMPI PUSH1 0x40 MLOAD PUSH32 0x8C379A000000000000000000000000000000000000000000000000000000000 DUP2 MSTORE PUSH1 0x4 ADD PUSH2 0x51B SWAP1 PUSH2 0x14D0 JUMP JUMPDEST PUSH1 0x40 MLOAD DUP1 SWAP2 SUB SWAP1 REVERT JUMPDEST PUSH1 0x1 PUSH1 0x8 PUSH1 0x1 PUSH2 0x100 EXP DUP2 SLOAD DUP2 PUSH1 0xFF MUL NOT AND SWAP1 DUP4 ISZERO ISZERO MUL OR SWAP1 SSTORE POP PUSH32 0x486AC935CF1EA9EFFD9E0A261BC42917B45F2FD45CC98DEF2BC34D47F216937C CALLVALUE PUSH1 0x40 MLOAD PUSH2 0x56E SWAP2 SWAP1 PUSH2 0x11AC JUMP JUMPDEST PUSH1 0x40 MLOAD DUP1 SWAP2 SUB SWAP1 LOG1 JUMP JUMPDEST PUSH1 0x5 SLOAD DUP2 JUMP JUMPDEST PUSH1 0x7 SLOAD DUP2 JUMP JUMPDEST PUSH1 0x0 SELFBALANCE SWAP1 POP SWAP1 JUMP JUMPDEST PUSH1 0x0 DUP1 SLOAD SWAP1 PUSH2 0x100 EXP SWAP1 DIV PUSH20 0xFFFFFFFFFFFFFFFFFFFFFFFFFFFFFFFFFFFFFFFF AND PUSH20 0xFFFFFFFFFFFFFFFFFFFFFFFFFFFFFFFFFFFFFFFF AND CALLER PUSH20 0xFFFFFFFFFFFFFFFFFFFFFFFFFFFFFFFFFFFFFFFF AND EQ PUSH2 0x61A JUMPI PUSH1 0x40 MLOAD PUSH32 0x8C379A000000000000000000000000000000000000000000000000000000000 DUP2 MSTORE PUSH1 0x4 ADD PUSH2 0x611 SWAP1 PUSH2 0x1562 JUMP JUMPDEST PUSH1 0x40 MLOAD DUP1 SWAP2 SUB SWAP1 REVERT JUMPDEST PUSH1 0x8 PUSH1 0x0 SWAP1 SLOAD SWAP1 PUSH2 0x100 EXP SWAP1 DIV PUSH1 0xFF AND PUSH2 0x669 JUMPI PUSH1 0x40 MLOAD PUSH32 0x8C379A000000000000000000000000000000000000000000000000000000000 DUP2 MSTORE PUSH1 0x4 ADD PUSH2 0x660 SWAP1 PUSH2 0x15CE JUMP JUMPDEST PUSH1 0x40 MLOAD DUP1 SWAP2 SUB SWAP1 REVERT JUMPDEST PUSH1 0x4 SLOAD PUSH1 0x6 SLOAD GT ISZERO PUSH2 0x6B0 JUMPI PUSH1 0x40 MLOAD PUSH32 0x8C379A000000000000000000000000000000000000000000000000000000000 DUP2 MSTORE PUSH1 0x4 ADD PUSH2 0x6A7 SWAP1 PUSH2 0x163A JUMP JUMPDEST PUSH1 0x40 MLOAD DUP1 SWAP2 SUB SWAP1 REVERT JUMPDEST DUP1 PUSH1 0x9 PUSH1 0x0 PUSH1 0x6 SLOAD DUP2 MSTORE PUSH1 0x20 ADD SWAP1 DUP2 MSTORE PUSH1 0x20 ADD PUSH1 0x0 KECCAK256 PUSH1 0x1 ADD DUP2 SWAP1 SSTORE POP PUSH1 0x3 SLOAD PUSH1 0x9 PUSH1 0x0 PUSH1 0x6 SLOAD DUP2 MSTORE PUSH1 0x20 ADD SWAP1 DUP2 MSTORE PUSH1 0x20 ADD PUSH1 0x0 KECCAK256 PUSH1 0x0 ADD DUP2 SWAP1 SSTORE POP PUSH32 0xF75D23E75691B7209BF24071476B3702A8412A369B26FD3AD012D19630F65A2B PUSH1 0x6 SLOAD DUP3 PUSH1 0x40 MLOAD PUSH2 0x71F SWAP3 SWAP2 SWAP1 PUSH2 0x165A JUMP JUMPDEST PUSH1 0x40 MLOAD DUP1 SWAP2 SUB SWAP1 LOG1 POP JUMP JUMPDEST PUSH1 0x6 SLOAD DUP2 JUMP JUMPDEST PUSH1 0x4 SLOAD DUP2 JUMP JUMPDEST PUSH1 0x0 DUP1 SLOAD SWAP1 PUSH2 0x100 EXP SWAP1 DIV PUSH20 0xFFFFFFFFFFFFFFFFFFFFFFFFFFFFFFFFFFFFFFFF AND PUSH20 0xFFFFFFFFFFFFFFFFFFFFFFFFFFFFFFFFFFFFFFFF AND CALLER PUSH20 0xFFFFFFFFFFFFFFFFFFFFFFFFFFFFFFFFFFFFFFFF AND EQ PUSH2 0x7C4 JUMPI PUSH1 0x40 MLOAD PUSH32 0x8C379A000000000000000000000000000000000000000000000000000000000 DUP2 MSTORE PUSH1 0x4 ADD PUSH2 0x7BB SWAP1 PUSH2 0x16F5 JUMP JUMPDEST PUSH1 0x40 MLOAD DUP1 SWAP2 SUB SWAP1 REVERT JUMPDEST PUSH1 0x8 PUSH1 0x1 SWAP1 SLOAD SWAP1 PUSH2 0x100 EXP SWAP1 DIV PUSH1 0xFF AND PUSH2 0x813 JUMPI PUSH1 0x40 MLOAD PUSH32 0x8C379A000000000000000000000000000000000000000000000000000000000 DUP2 MSTORE PUSH1 0x4 ADD PUSH2 0x80A SWAP1 PUSH2 0x1787 JUMP JUMPDEST PUSH1 0x40 MLOAD DUP1 SWAP2 SUB SWAP1 REVERT JUMPDEST PUSH1 0x8 PUSH1 0x0 SWAP1 SLOAD SWAP1 PUSH2 0x100 EXP SWAP1 DIV PUSH1 0xFF AND ISZERO PUSH2 0x863 JUMPI PUSH1 0x40 MLOAD PUSH32 0x8C379A000000000000000000000000000000000000000000000000000000000 DUP2 MSTORE PUSH1 0x4 ADD PUSH2 0x85A SWAP1 PUSH2 0x143E JUMP JUMPDEST PUSH1 0x40 MLOAD DUP1 SWAP2 SUB SWAP1 REVERT JUMPDEST PUSH1 0x1 PUSH1 0x8 PUSH1 0x0 PUSH2 0x100 EXP DUP2 SLOAD DUP2 PUSH1 0xFF MUL NOT AND SWAP1 DUP4 ISZERO ISZERO MUL OR SWAP1 SSTORE POP TIMESTAMP PUSH1 0x5 DUP2 SWAP1 SSTORE POP PUSH1 0x1 PUSH1 0x6 DUP2 SWAP1 SSTORE POP JUMP JUMPDEST PUSH1 0x1 PUSH1 0x0 SWAP1 SLOAD SWAP1 PUSH2 0x100 EXP SWAP1 DIV PUSH20 0xFFFFFFFFFFFFFFFFFFFFFFFFFFFFFFFFFFFFFFFF AND PUSH20 0xFFFFFFFFFFFFFFFFFFFFFFFFFFFFFFFFFFFFFFFF AND CALLER PUSH20 0xFFFFFFFFFFFFFFFFFFFFFFFFFFFFFFFFFFFFFFFF AND EQ PUSH2 0x91F JUMPI PUSH1 0x40 MLOAD PUSH32 0x8C379A000000000000000000000000000000000000000000000000000000000 DUP2 MSTORE PUSH1 0x4 ADD PUSH2 0x916 SWAP1 PUSH2 0x17F3 JUMP JUMPDEST PUSH1 0x40 MLOAD DUP1 SWAP2 SUB SWAP1 REVERT JUMPDEST PUSH1 0x8 PUSH1 0x0 SWAP1 SLOAD SWAP1 PUSH2 0x100 EXP SWAP1 DIV PUSH1 0xFF AND PUSH2 0x96E JUMPI PUSH1 0x40 MLOAD PUSH32 0x8C379A000000000000000000000000000000000000000000000000000000000 DUP2 MSTORE PUSH1 0x4 ADD PUSH2 0x965 SWAP1 PUSH2 0x15CE JUMP JUMPDEST PUSH1 0x40 MLOAD DUP1 SWAP2 SUB SWAP1 REVERT JUMPDEST PUSH1 0x4 SLOAD PUSH1 0x6 SLOAD GT ISZERO PUSH2 0x9B5 JUMPI PUSH1 0x40 MLOAD PUSH32 0x8C379A000000000000000000000000000000000000000000000000000000000 DUP2 MSTORE PUSH1 0x4 ADD PUSH2 0x9AC SWAP1 PUSH2 0x163A JUMP JUMPDEST PUSH1 0x40 MLOAD DUP1 SWAP2 SUB SWAP1 REVERT JUMPDEST PUSH1 0x0 PUSH1 0x9 PUSH1 0x0 PUSH1 0x6 SLOAD DUP2 MSTORE PUSH1 0x20 ADD SWAP1 DUP2 MSTORE PUSH1 0x20 ADD PUSH1 0x0 KECCAK256 SWAP1 POP DUP1 PUSH1 0x3 ADD PUSH1 0x0 SWAP1 SLOAD SWAP1 PUSH2 0x100 EXP SWAP1 DIV PUSH1 0xFF AND ISZERO PUSH2 0xA20 JUMPI PUSH1 0x40 MLOAD PUSH32 0x8C379A000000000000000000000000000000000000000000000000000000000 DUP2 MSTORE PUSH1 0x4 ADD PUSH2 0xA17 SWAP1 PUSH2 0x1885 JUMP JUMPDEST PUSH1 0x40 MLOAD DUP1 SWAP2 SUB SWAP1 REVERT JUMPDEST PUSH1 0x0 DUP2 PUSH1 0x1 ADD SLOAD GT PUSH2 0xA67 JUMPI PUSH1 0x40 MLOAD PUSH32 0x8C379A000000000000000000000000000000000000000000000000000000000 DUP2 MSTORE PUSH1 0x4 ADD PUSH2 0xA5E SWAP1 PUSH2 0x1917 JUMP JUMPDEST PUSH1 0x40 MLOAD DUP1 SWAP2 SUB SWAP1 REVERT JUMPDEST PUSH1 0x0 PUSH1 0x7 SLOAD DUP3 PUSH1 0x1 ADD SLOAD DUP4 PUSH1 0x0 ADD SLOAD PUSH2 0xA80 SWAP2 SWAP1 PUSH2 0x1966 JUMP JUMPDEST PUSH2 0xA8A SWAP2 SWAP1 PUSH2 0x1966 JUMP JUMPDEST SWAP1 POP DUP1 CALLVALUE EQ PUSH2 0xACE JUMPI PUSH1 0x40 MLOAD PUSH32 0x8C379A000000000000000000000000000000000000000000000000000000000 DUP2 MSTORE PUSH1 0x4 ADD PUSH2 0xAC5 SWAP1 PUSH2 0x19E6 JUMP JUMPDEST PUSH1 0x40 MLOAD DUP1 SWAP2 SUB SWAP1 REVERT JUMPDEST PUSH1 0x1 DUP3 PUSH1 0x3 ADD PUSH1 0x0 PUSH2 0x100 EXP DUP2 SLOAD DUP2 PUSH1 0xFF MUL NOT AND SWAP1 DUP4 ISZERO ISZERO MUL OR SWAP1 SSTORE POP PUSH1 0x0 PUSH1 0x7 DUP2 SWAP1 SSTORE POP PUSH32 0xA0D112ED080C1B1A94B838AD981A23746BE2A4670FD4BF157224E72CDD5DFDDE PUSH1 0x6 SLOAD DUP3 PUSH1 0x40 MLOAD PUSH2 0xB26 SWAP3 SWAP2 SWAP1 PUSH2 0x165A JUMP JUMPDEST PUSH1 0x40 MLOAD DUP1 SWAP2 SUB SWAP1 LOG1 PUSH1 0x0 DUP1 SLOAD SWAP1 PUSH2 0x100 EXP SWAP1 DIV PUSH20 0xFFFFFFFFFFFFFFFFFFFFFFFFFFFFFFFFFFFFFFFF AND PUSH20 0xFFFFFFFFFFFFFFFFFFFFFFFFFFFFFFFFFFFFFFFF AND PUSH2 0x8FC DUP3 SWAP1 DUP2 ISZERO MUL SWAP1 PUSH1 0x40 MLOAD PUSH1 0x0 PUSH1 0x40 MLOAD DUP1 DUP4 SUB DUP2 DUP6 DUP9 DUP9 CALL SWAP4 POP POP POP POP ISZERO DUP1 ISZERO PUSH2 0xB94 JUMPI RETURNDATASIZE PUSH1 0x0 DUP1 RETURNDATACOPY RETURNDATASIZE PUSH1 0x0 REVERT JUMPDEST POP PUSH32 0x9AF72F88F132A14442854DC5970B4B93A4FEE657FEA587A232828625D2FA4866 PUSH1 0x6 SLOAD DUP3 PUSH1 0x40 MLOAD PUSH2 0xBC8 SWAP3 SWAP2 SWAP1 PUSH2 0x165A JUMP JUMPDEST PUSH1 0x40 MLOAD DUP1 SWAP2 SUB SWAP1 LOG1 PUSH1 0x4 SLOAD PUSH1 0x6 SLOAD SUB PUSH2 0xBE8 JUMPI PUSH2 0xBE3 PUSH2 0x1025 JUMP JUMPDEST PUSH2 0xC01 JUMP JUMPDEST PUSH1 0x6 PUSH1 0x0 DUP2 SLOAD DUP1 SWAP3 SWAP2 SWAP1 PUSH2 0xBFB SWAP1 PUSH2 0x1A06 JUMP JUMPDEST SWAP2 SWAP1 POP SSTORE POP JUMPDEST POP POP JUMP JUMPDEST PUSH1 0x1 PUSH1 0x0 SWAP1 SLOAD SWAP1 PUSH2 0x100 EXP SWAP1 DIV PUSH20 0xFFFFFFFFFFFFFFFFFFFFFFFFFFFFFFFFFFFFFFFF AND PUSH20 0xFFFFFFFFFFFFFFFFFFFFFFFFFFFFFFFFFFFFFFFF AND CALLER PUSH20 0xFFFFFFFFFFFFFFFFFFFFFFFFFFFFFFFFFFFFFFFF AND EQ PUSH2 0xC95 JUMPI PUSH1 0x40 MLOAD PUSH32 0x8C379A000000000000000000000000000000000000000000000000000000000 DUP2 MSTORE PUSH1 0x4 ADD PUSH2 0xC8C SWAP1 PUSH2 0x1AC0 JUMP JUMPDEST PUSH1 0x40 MLOAD DUP1 SWAP2 SUB SWAP1 REVERT JUMPDEST PUSH1 0x8 PUSH1 0x0 SWAP1 SLOAD SWAP1 PUSH2 0x100 EXP SWAP1 DIV PUSH1 0xFF AND PUSH2 0xCE4 JUMPI PUSH1 0x40 MLOAD PUSH32 0x8C379A000000000000000000000000000000000000000000000000000000000 DUP2 MSTORE PUSH1 0x4 ADD PUSH2 0xCDB SWAP1 PUSH2 0x15CE JUMP JUMPDEST PUSH1 0x40 MLOAD DUP1 SWAP2 SUB SWAP1 REVERT JUMPDEST PUSH1 0x4 SLOAD PUSH1 0x6 SLOAD GT ISZERO PUSH2 0xD2B JUMPI PUSH1 0x40 MLOAD PUSH32 0x8C379A000000000000000000000000000000000000000000000000000000000 DUP2 MSTORE PUSH1 0x4 ADD PUSH2 0xD22 SWAP1 PUSH2 0x163A JUMP JUMPDEST PUSH1 0x40 MLOAD DUP1 SWAP2 SUB SWAP1 REVERT JUMPDEST PUSH1 0x0 PUSH1 0x9 PUSH1 0x0 PUSH1 0x6 SLOAD DUP2 MSTORE PUSH1 0x20 ADD SWAP1 DUP2 MSTORE PUSH1 0x20 ADD PUSH1 0x0 KECCAK256 SWAP1 POP DUP1 PUSH1 0x3 ADD PUSH1 0x0 SWAP1 SLOAD SWAP1 PUSH2 0x100 EXP SWAP1 DIV PUSH1 0xFF AND ISZERO PUSH2 0xD96 JUMPI PUSH1 0x40 MLOAD PUSH32 0x8C379A000000000000000000000000000000000000000000000000000000000 DUP2 MSTORE PUSH1 0x4 ADD PUSH2 0xD8D SWAP1 PUSH2 0x1885 JUMP JUMPDEST PUSH1 0x40 MLOAD DUP1 SWAP2 SUB SWAP1 REVERT JUMPDEST PUSH1 0x0 DUP2 PUSH1 0x1 ADD SLOAD GT PUSH2 0xDDD JUMPI PUSH1 0x40 MLOAD PUSH32 0x8C379A000000000000000000000000000000000000000000000000000000000 DUP2 MSTORE PUSH1 0x4 ADD PUSH2 0xDD4 SWAP1 PUSH2 0x1917 JUMP JUMPDEST PUSH1 0x40 MLOAD DUP1 SWAP2 SUB SWAP1 REVERT JUMPDEST PUSH1 0x0 DUP2 PUSH1 0x1 ADD SLOAD DUP3 PUSH1 0x0 ADD SLOAD PUSH2 0xDF3 SWAP2 SWAP1 PUSH2 0x1966 JUMP JUMPDEST SWAP1 POP DUP1 PUSH1 0x7 PUSH1 0x0 DUP3 DUP3 SLOAD PUSH2 0xE07 SWAP2 SWAP1 PUSH2 0x1966 JUMP JUMPDEST SWAP3 POP POP DUP2 SWAP1 SSTORE POP PUSH32 0x9EA3A4B65940D7B9DBF8BB1C459BA8E81222D1A596E93FBC364365A6D78E27D6 PUSH1 0x6 SLOAD DUP3 PUSH1 0x40 MLOAD PUSH2 0xE41 SWAP3 SWAP2 SWAP1 PUSH2 0x165A JUMP JUMPDEST PUSH1 0x40 MLOAD DUP1 SWAP2 SUB SWAP1 LOG1 PUSH1 0x4 SLOAD PUSH1 0x6 SLOAD SUB PUSH2 0xE61 JUMPI PUSH2 0xE5C PUSH2 0x1025 JUMP JUMPDEST PUSH2 0xE7A JUMP JUMPDEST PUSH1 0x6 PUSH1 0x0 DUP2 SLOAD DUP1 SWAP3 SWAP2 SWAP1 PUSH2 0xE74 SWAP1 PUSH2 0x1A06 JUMP JUMPDEST SWAP2 SWAP1 POP SSTORE POP JUMPDEST POP POP JUMP JUMPDEST PUSH1 0x0 DUP1 SLOAD SWAP1 PUSH2 0x100 EXP SWAP1 DIV PUSH20 0xFFFFFFFFFFFFFFFFFFFFFFFFFFFFFFFFFFFFFFFF AND PUSH20 0xFFFFFFFFFFFFFFFFFFFFFFFFFFFFFFFFFFFFFFFF AND CALLER PUSH20 0xFFFFFFFFFFFFFFFFFFFFFFFFFFFFFFFFFFFFFFFF AND EQ PUSH2 0xF0C JUMPI PUSH1 0x40 MLOAD PUSH32 0x8C379A000000000000000000000000000000000000000000000000000000000 DUP2 MSTORE PUSH1 0x4 ADD PUSH2 0xF03 SWAP1 PUSH2 0x1B52 JUMP JUMPDEST PUSH1 0x40 MLOAD DUP1 SWAP2 SUB SWAP1 REVERT JUMPDEST PUSH1 0x8 PUSH1 0x0 SWAP1 SLOAD SWAP1 PUSH2 0x100 EXP SWAP1 DIV PUSH1 0xFF AND ISZERO PUSH2 0xF5C JUMPI PUSH1 0x40 MLOAD PUSH32 0x8C379A000000000000000000000000000000000000000000000000000000000 DUP2 MSTORE PUSH1 0x4 ADD PUSH2 0xF53 SWAP1 PUSH2 0x143E JUMP JUMPDEST PUSH1 0x40 MLOAD DUP1 SWAP2 SUB SWAP1 REVERT JUMPDEST DUP3 PUSH1 0x2 DUP2 SWAP1 SSTORE POP DUP2 PUSH1 0x3 DUP2 SWAP1 SSTORE POP DUP1 PUSH1 0x4 DUP2 SWAP1 SSTORE POP PUSH32 0x2F47566D4872826A9750E05AE448AD21F2A677C332D36D6437B697A7F8DD1E14 DUP4 DUP4 DUP4 PUSH1 0x40 MLOAD PUSH2 0xFA4 SWAP4 SWAP3 SWAP2 SWAP1 PUSH2 0x1B72 JUMP JUMPDEST PUSH1 0x40 MLOAD DUP1 SWAP2 SUB SWAP1 LOG1 POP POP POP JUMP JUMPDEST PUSH1 0x0 DUP1 SLOAD SWAP1 PUSH2 0x100 EXP SWAP1 DIV PUSH20 0xFFFFFFFFFFFFFFFFFFFFFFFFFFFFFFFFFFFFFFFF AND DUP2 JUMP JUMPDEST PUSH1 0x9 PUSH1 0x20 MSTORE DUP1 PUSH1 0x0 MSTORE PUSH1 0x40 PUSH1 0x0 KECCAK256 PUSH1 0x0 SWAP2 POP SWAP1 POP DUP1 PUSH1 0x0 ADD SLOAD SWAP1 DUP1 PUSH1 0x1 ADD SLOAD SWAP1 DUP1 PUSH1 0x2 ADD SLOAD SWAP1 DUP1 PUSH1 0x3 ADD PUSH1 0x0 SWAP1 SLOAD SWAP1 PUSH2 0x100 EXP SWAP1 DIV PUSH1 0xFF AND SWAP1 POP DUP5 JUMP JUMPDEST PUSH1 0x8 PUSH1 0x1 SWAP1 SLOAD SWAP1 PUSH2 0x100 EXP SWAP1 DIV PUSH1 0xFF AND DUP2 JUMP JUMPDEST PUSH1 0x0 PUSH1 0x8 PUSH1 0x0 PUSH2 0x100 EXP DUP2 SLOAD DUP2 PUSH1 0xFF MUL NOT AND SWAP1 DUP4 ISZERO ISZERO MUL OR SWAP1 SSTORE POP PUSH1 0x0 PUSH1 0x7 SLOAD SWAP1 POP PUSH1 0x0 DUP1 DUP3 GT ISZERO PUSH2 0x10DD JUMPI PUSH1 0x2 SLOAD DUP3 GT ISZERO PUSH2 0x1061 JUMPI PUSH1 0x2 SLOAD SWAP2 POP JUMPDEST PUSH1 0x0 DUP1 SLOAD SWAP1 PUSH2 0x100 EXP SWAP1 DIV PUSH20 0xFFFFFFFFFFFFFFFFFFFFFFFFFFFFFFFFFFFFFFFF AND PUSH20 0xFFFFFFFFFFFFFFFFFFFFFFFFFFFFFFFFFFFFFFFF AND PUSH2 0x8FC DUP4 SWAP1 DUP2 ISZERO MUL SWAP1 PUSH1 0x40 MLOAD PUSH1 0x0 PUSH1 0x40 MLOAD DUP1 DUP4 SUB DUP2 DUP6 DUP9 DUP9 CALL SWAP4 POP POP POP POP ISZERO DUP1 ISZERO PUSH2 0x10C7 JUMPI RETURNDATASIZE PUSH1 0x0 DUP1 RETURNDATACOPY RETURNDATASIZE PUSH1 0x0 REVERT JUMPDEST POP DUP2 PUSH1 0x2 SLOAD PUSH2 0x10D6 SWAP2 SWAP1 PUSH2 0x1BA9 JUMP JUMPDEST SWAP1 POP PUSH2 0x10E3 JUMP JUMPDEST PUSH1 0x2 SLOAD SWAP1 POP JUMPDEST PUSH1 0x0 DUP2 GT ISZERO PUSH2 0x1156 JUMPI PUSH1 0x1 PUSH1 0x0 SWAP1 SLOAD SWAP1 PUSH2 0x100 EXP SWAP1 DIV PUSH20 0xFFFFFFFFFFFFFFFFFFFFFFFFFFFFFFFFFFFFFFFF AND PUSH20 0xFFFFFFFFFFFFFFFFFFFFFFFFFFFFFFFFFFFFFFFF AND PUSH2 0x8FC DUP3 SWAP1 DUP2 ISZERO MUL SWAP1 PUSH1 0x40 MLOAD PUSH1 0x0 PUSH1 0x40 MLOAD DUP1 DUP4 SUB DUP2 DUP6 DUP9 DUP9 CALL SWAP4 POP POP POP POP ISZERO DUP1 ISZERO PUSH2 0x1154 JUMPI RETURNDATASIZE PUSH1 0x0 DUP1 RETURNDATACOPY RETURNDATASIZE PUSH1 0x0 REVERT JUMPDEST POP JUMPDEST PUSH32 0xC0590C5A8CE79DFFBDDE17480A06203778F954965615E1D9577DBC90DA2FF109 DUP2 DUP4 PUSH1 0x40 MLOAD PUSH2 0x1187 SWAP3 SWAP2 SWAP1 PUSH2 0x165A JUMP JUMPDEST PUSH1 0x40 MLOAD DUP1 SWAP2 SUB SWAP1 LOG1 POP POP JUMP JUMPDEST PUSH1 0x0 DUP2 SWAP1 POP SWAP2 SWAP1 POP JUMP JUMPDEST PUSH2 0x11A6 DUP2 PUSH2 0x1193 JUMP JUMPDEST DUP3 MSTORE POP POP JUMP JUMPDEST PUSH1 0x0 PUSH1 0x20 DUP3 ADD SWAP1 POP PUSH2 0x11C1 PUSH1 0x0 DUP4 ADD DUP5 PUSH2 0x119D JUMP JUMPDEST SWAP3 SWAP2 POP POP JUMP JUMPDEST PUSH1 0x0 DUP2 ISZERO ISZERO SWAP1 POP SWAP2 SWAP1 POP JUMP JUMPDEST PUSH2 0x11DC DUP2 PUSH2 0x11C7 JUMP JUMPDEST DUP3 MSTORE POP POP JUMP JUMPDEST PUSH1 0x0 PUSH1 0x20 DUP3 ADD SWAP1 POP PUSH2 0x11F7 PUSH1 0x0 DUP4 ADD DUP5 PUSH2 0x11D3 JUMP JUMPDEST SWAP3 SWAP2 POP POP JUMP JUMPDEST PUSH1 0x0 PUSH20 0xFFFFFFFFFFFFFFFFFFFFFFFFFFFFFFFFFFFFFFFF DUP3 AND SWAP1 POP SWAP2 SWAP1 POP JUMP JUMPDEST PUSH1 0x0 PUSH2 0x1228 DUP3 PUSH2 0x11FD JUMP JUMPDEST SWAP1 POP SWAP2 SWAP1 POP JUMP JUMPDEST PUSH2 0x1238 DUP2 PUSH2 0x121D JUMP JUMPDEST DUP3 MSTORE POP POP JUMP JUMPDEST PUSH1 0x0 PUSH1 0x20 DUP3 ADD SWAP1 POP PUSH2 0x1253 PUSH1 0x0 DUP4 ADD DUP5 PUSH2 0x122F JUMP JUMPDEST SWAP3 SWAP2 POP POP JUMP JUMPDEST PUSH1 0x0 DUP1 REVERT JUMPDEST PUSH2 0x1267 DUP2 PUSH2 0x1193 JUMP JUMPDEST DUP2 EQ PUSH2 0x1272 JUMPI PUSH1 0x0 DUP1 REVERT JUMPDEST POP JUMP JUMPDEST PUSH1 0x0 DUP2 CALLDATALOAD SWAP1 POP PUSH2 0x1284 DUP2 PUSH2 0x125E JUMP JUMPDEST SWAP3 SWAP2 POP POP JUMP JUMPDEST PUSH1 0x0 PUSH1 0x20 DUP3 DUP5 SUB SLT ISZERO PUSH2 0x12A0 JUMPI PUSH2 0x129F PUSH2 0x1259 JUMP JUMPDEST JUMPDEST PUSH1 0x0 PUSH2 0x12AE DUP5 DUP3 DUP6 ADD PUSH2 0x1275 JUMP JUMPDEST SWAP2 POP POP SWAP3 SWAP2 POP POP JUMP JUMPDEST PUSH1 0x0 DUP1 PUSH1 0x0 PUSH1 0x60 DUP5 DUP7 SUB SLT ISZERO PUSH2 0x12D0 JUMPI PUSH2 0x12CF PUSH2 0x1259 JUMP JUMPDEST JUMPDEST PUSH1 0x0 PUSH2 0x12DE DUP7 DUP3 DUP8 ADD PUSH2 0x1275 JUMP JUMPDEST SWAP4 POP POP PUSH1 0x20 PUSH2 0x12EF DUP7 DUP3 DUP8 ADD PUSH2 0x1275 JUMP JUMPDEST SWAP3 POP POP PUSH1 0x40 PUSH2 0x1300 DUP7 DUP3 DUP8 ADD PUSH2 0x1275 JUMP JUMPDEST SWAP2 POP POP SWAP3 POP SWAP3 POP SWAP3 JUMP JUMPDEST PUSH1 0x0 PUSH1 0x80 DUP3 ADD SWAP1 POP PUSH2 0x131F PUSH1 0x0 DUP4 ADD DUP8 PUSH2 0x119D JUMP JUMPDEST PUSH2 0x132C PUSH1 0x20 DUP4 ADD DUP7 PUSH2 0x119D JUMP JUMPDEST PUSH2 0x1339 PUSH1 0x40 DUP4 ADD DUP6 PUSH2 0x119D JUMP JUMPDEST PUSH2 0x1346 PUSH1 0x60 DUP4 ADD DUP5 PUSH2 0x11D3 JUMP JUMPDEST SWAP6 SWAP5 POP POP POP POP POP JUMP JUMPDEST PUSH1 0x0 DUP3 DUP3 MSTORE PUSH1 0x20 DUP3 ADD SWAP1 POP SWAP3 SWAP2 POP POP JUMP JUMPDEST PUSH32 0x4F6E6C792072656E7465722063616E2070617920736563757269747920646570 PUSH1 0x0 DUP3 ADD MSTORE PUSH32 0x6F73697400000000000000000000000000000000000000000000000000000000 PUSH1 0x20 DUP3 ADD MSTORE POP JUMP JUMPDEST PUSH1 0x0 PUSH2 0x13BC PUSH1 0x24 DUP4 PUSH2 0x134F JUMP JUMPDEST SWAP2 POP PUSH2 0x13C7 DUP3 PUSH2 0x1360 JUMP JUMPDEST PUSH1 0x40 DUP3 ADD SWAP1 POP SWAP2 SWAP1 POP JUMP JUMPDEST PUSH1 0x0 PUSH1 0x20 DUP3 ADD SWAP1 POP DUP2 DUP2 SUB PUSH1 0x0 DUP4 ADD MSTORE PUSH2 0x13EB DUP2 PUSH2 0x13AF JUMP JUMPDEST SWAP1 POP SWAP2 SWAP1 POP JUMP JUMPDEST PUSH32 0x436F6E747261637420697320616C726561647920616374697665000000000000 PUSH1 0x0 DUP3 ADD MSTORE POP JUMP JUMPDEST PUSH1 0x0 PUSH2 0x1428 PUSH1 0x1A DUP4 PUSH2 0x134F JUMP JUMPDEST SWAP2 POP PUSH2 0x1433 DUP3 PUSH2 0x13F2 JUMP JUMPDEST PUSH1 0x20 DUP3 ADD SWAP1 POP SWAP2 SWAP1 POP JUMP JUMPDEST PUSH1 0x0 PUSH1 0x20 DUP3 ADD SWAP1 POP DUP2 DUP2 SUB PUSH1 0x0 DUP4 ADD MSTORE PUSH2 0x1457 DUP2 PUSH2 0x141B JUMP JUMPDEST SWAP1 POP SWAP2 SWAP1 POP JUMP JUMPDEST PUSH32 0x496E636F7272656374207365637572697479206465706F73697420616D6F756E PUSH1 0x0 DUP3 ADD MSTORE PUSH32 0x7400000000000000000000000000000000000000000000000000000000000000 PUSH1 0x20 DUP3 ADD MSTORE POP JUMP JUMPDEST PUSH1 0x0 PUSH2 0x14BA PUSH1 0x21 DUP4 PUSH2 0x134F JUMP JUMPDEST SWAP2 POP PUSH2 0x14C5 DUP3 PUSH2 0x145E JUMP JUMPDEST PUSH1 0x40 DUP3 ADD SWAP1 POP SWAP2 SWAP1 POP JUMP JUMPDEST PUSH1 0x0 PUSH1 0x20 DUP3 ADD SWAP1 POP DUP2 DUP2 SUB PUSH1 0x0 DUP4 ADD MSTORE PUSH2 0x14E9 DUP2 PUSH2 0x14AD JUMP JUMPDEST SWAP1 POP SWAP2 SWAP1 POP JUMP JUMPDEST PUSH32 0x4F6E6C79206C616E646C6F72642063616E207265636F7264207574696C697469 PUSH1 0x0 DUP3 ADD MSTORE PUSH32 0x6573000000000000000000000000000000000000000000000000000000000000 PUSH1 0x20 DUP3 ADD MSTORE POP JUMP JUMPDEST PUSH1 0x0 PUSH2 0x154C PUSH1 0x22 DUP4 PUSH2 0x134F JUMP JUMPDEST SWAP2 POP PUSH2 0x1557 DUP3 PUSH2 0x14F0 JUMP JUMPDEST PUSH1 0x40 DUP3 ADD SWAP1 POP SWAP2 SWAP1 POP JUMP JUMPDEST PUSH1 0x0 PUSH1 0x20 DUP3 ADD SWAP1 POP DUP2 DUP2 SUB PUSH1 0x0 DUP4 ADD MSTORE PUSH2 0x157B DUP2 PUSH2 0x153F JUMP JUMPDEST SWAP1 POP SWAP2 SWAP1 POP JUMP JUMPDEST PUSH32 0x436F6E7472616374206973206E6F742061637469766500000000000000000000 PUSH1 0x0 DUP3 ADD MSTORE POP JUMP JUMPDEST PUSH1 0x0 PUSH2 0x15B8 PUSH1 0x16 DUP4 PUSH2 0x134F JUMP JUMPDEST SWAP2 POP PUSH2 0x15C3 DUP3 PUSH2 0x1582 JUMP JUMPDEST PUSH1 0x20 DUP3 ADD SWAP1 POP SWAP2 SWAP1 POP JUMP JUMPDEST PUSH1 0x0 PUSH1 0x20 DUP3 ADD SWAP1 POP DUP2 DUP2 SUB PUSH1 0x0 DUP4 ADD MSTORE PUSH2 0x15E7 DUP2 PUSH2 0x15AB JUMP JUMPDEST SWAP1 POP SWAP2 SWAP1 POP JUMP JUMPDEST PUSH32 0x52656E7420706572696F642068617320656E6465640000000000000000000000 PUSH1 0x0 DUP3 ADD MSTORE POP JUMP JUMPDEST PUSH1 0x0 PUSH2 0x1624 PUSH1 0x15 DUP4 PUSH2 0x134F JUMP JUMPDEST SWAP2 POP PUSH2 0x162F DUP3 PUSH2 0x15EE JUMP JUMPDEST PUSH1 0x20 DUP3 ADD SWAP1 POP SWAP2 SWAP1 POP JUMP JUMPDEST PUSH1 0x0 PUSH1 0x20 DUP3 ADD SWAP1 POP DUP2 DUP2 SUB PUSH1 0x0 DUP4 ADD MSTORE PUSH2 0x1653 DUP2 PUSH2 0x1617 JUMP JUMPDEST SWAP1 POP SWAP2 SWAP1 POP JUMP JUMPDEST PUSH1 0x0 PUSH1 0x40 DUP3 ADD SWAP1 POP PUSH2 0x166F PUSH1 0x0 DUP4 ADD DUP6 PUSH2 0x119D JUMP JUMPDEST PUSH2 0x167C PUSH1 0x20 DUP4 ADD DUP5 PUSH2 0x119D JUMP JUMPDEST SWAP4 SWAP3 POP POP POP JUMP JUMPDEST PUSH32 0x4F6E6C79206C616E646C6F72642063616E206163746976617465207468652063 PUSH1 0x0 DUP3 ADD MSTORE PUSH32 0x6F6E747261637400000000000000000000000000000000000000000000000000 PUSH1 0x20 DUP3 ADD MSTORE POP JUMP JUMPDEST PUSH1 0x0 PUSH2 0x16DF PUSH1 0x27 DUP4 PUSH2 0x134F JUMP JUMPDEST SWAP2 POP PUSH2 0x16EA DUP3 PUSH2 0x1683 JUMP JUMPDEST PUSH1 0x40 DUP3 ADD SWAP1 POP SWAP2 SWAP1 POP JUMP JUMPDEST PUSH1 0x0 PUSH1 0x20 DUP3 ADD SWAP1 POP DUP2 DUP2 SUB PUSH1 0x0 DUP4 ADD MSTORE PUSH2 0x170E DUP2 PUSH2 0x16D2 JUMP JUMPDEST SWAP1 POP SWAP2 SWAP1 POP JUMP JUMPDEST PUSH32 0x5365637572697479206465706F736974206D7573742062652070616964206669 PUSH1 0x0 DUP3 ADD MSTORE PUSH32 0x7273740000000000000000000000000000000000000000000000000000000000 PUSH1 0x20 DUP3 ADD MSTORE POP JUMP JUMPDEST PUSH1 0x0 PUSH2 0x1771 PUSH1 0x23 DUP4 PUSH2 0x134F JUMP JUMPDEST SWAP2 POP PUSH2 0x177C DUP3 PUSH2 0x1715 JUMP JUMPDEST PUSH1 0x40 DUP3 ADD SWAP1 POP SWAP2 SWAP1 POP JUMP JUMPDEST PUSH1 0x0 PUSH1 0x20 DUP3 ADD SWAP1 POP DUP2 DUP2 SUB PUSH1 0x0 DUP4 ADD MSTORE PUSH2 0x17A0 DUP2 PUSH2 0x1764 JUMP JUMPDEST SWAP1 POP SWAP2 SWAP1 POP JUMP JUMPDEST PUSH32 0x4F6E6C792072656E7465722063616E207061792072656E740000000000000000 PUSH1 0x0 DUP3 ADD MSTORE POP JUMP JUMPDEST PUSH1 0x0 PUSH2 0x17DD PUSH1 0x18 DUP4 PUSH2 0x134F JUMP JUMPDEST SWAP2 POP PUSH2 0x17E8 DUP3 PUSH2 0x17A7 JUMP JUMPDEST PUSH1 0x20 DUP3 ADD SWAP1 POP SWAP2 SWAP1 POP JUMP JUMPDEST PUSH1 0x0 PUSH1 0x20 DUP3 ADD SWAP1 POP DUP2 DUP2 SUB PUSH1 0x0 DUP4 ADD MSTORE PUSH2 0x180C DUP2 PUSH2 0x17D0 JUMP JUMPDEST SWAP1 POP SWAP2 SWAP1 POP JUMP JUMPDEST PUSH32 0x52656E7420666F722074686973206D6F6E74682068617320616C726561647920 PUSH1 0x0 DUP3 ADD MSTORE PUSH32 0x6265656E20706169640000000000000000000000000000000000000000000000 PUSH1 0x20 DUP3 ADD MSTORE POP JUMP JUMPDEST PUSH1 0x0 PUSH2 0x186F PUSH1 0x29 DUP4 PUSH2 0x134F JUMP JUMPDEST SWAP2 POP PUSH2 0x187A DUP3 PUSH2 0x1813 JUMP JUMPDEST PUSH1 0x40 DUP3 ADD SWAP1 POP SWAP2 SWAP1 POP JUMP JUMPDEST PUSH1 0x0 PUSH1 0x20 DUP3 ADD SWAP1 POP DUP2 DUP2 SUB PUSH1 0x0 DUP4 ADD MSTORE PUSH2 0x189E DUP2 PUSH2 0x1862 JUMP JUMPDEST SWAP1 POP SWAP2 SWAP1 POP JUMP JUMPDEST PUSH32 0x5574696C697469657320666F722074686973206D6F6E74682068617665206E6F PUSH1 0x0 DUP3 ADD MSTORE PUSH32 0x74206265656E207265636F726465640000000000000000000000000000000000 PUSH1 0x20 DUP3 ADD MSTORE POP JUMP JUMPDEST PUSH1 0x0 PUSH2 0x1901 PUSH1 0x2F DUP4 PUSH2 0x134F JUMP JUMPDEST SWAP2 POP PUSH2 0x190C DUP3 PUSH2 0x18A5 JUMP JUMPDEST PUSH1 0x40 DUP3 ADD SWAP1 POP SWAP2 SWAP1 POP JUMP JUMPDEST PUSH1 0x0 PUSH1 0x20 DUP3 ADD SWAP1 POP DUP2 DUP2 SUB PUSH1 0x0 DUP4 ADD MSTORE PUSH2 0x1930 DUP2 PUSH2 0x18F4 JUMP JUMPDEST SWAP1 POP SWAP2 SWAP1 POP JUMP JUMPDEST PUSH32 0x4E487B7100000000000000000000000000000000000000000000000000000000 PUSH1 0x0 MSTORE PUSH1 0x11 PUSH1 0x4 MSTORE PUSH1 0x24 PUSH1 0x0 REVERT JUMPDEST PUSH1 0x0 PUSH2 0x1971 DUP3 PUSH2 0x1193 JUMP JUMPDEST SWAP2 POP PUSH2 0x197C DUP4 PUSH2 0x1193 JUMP JUMPDEST SWAP3 POP DUP3 DUP3 ADD SWAP1 POP DUP1 DUP3 GT ISZERO PUSH2 0x1994 JUMPI PUSH2 0x1993 PUSH2 0x1937 JUMP JUMPDEST JUMPDEST SWAP3 SWAP2 POP POP JUMP JUMPDEST PUSH32 0x496E636F72726563742072656E7420616D6F756E740000000000000000000000 PUSH1 0x0 DUP3 ADD MSTORE POP JUMP JUMPDEST PUSH1 0x0 PUSH2 0x19D0 PUSH1 0x15 DUP4 PUSH2 0x134F JUMP JUMPDEST SWAP2 POP PUSH2 0x19DB DUP3 PUSH2 0x199A JUMP JUMPDEST PUSH1 0x20 DUP3 ADD SWAP1 POP SWAP2 SWAP1 POP JUMP JUMPDEST PUSH1 0x0 PUSH1 0x20 DUP3 ADD SWAP1 POP DUP2 DUP2 SUB PUSH1 0x0 DUP4 ADD MSTORE PUSH2 0x19FF DUP2 PUSH2 0x19C3 JUMP JUMPDEST SWAP1 POP SWAP2 SWAP1 POP JUMP JUMPDEST PUSH1 0x0 PUSH2 0x1A11 DUP3 PUSH2 0x1193 JUMP JUMPDEST SWAP2 POP PUSH32 0xFFFFFFFFFFFFFFFFFFFFFFFFFFFFFFFFFFFFFFFFFFFFFFFFFFFFFFFFFFFFFFFF DUP3 SUB PUSH2 0x1A43 JUMPI PUSH2 0x1A42 PUSH2 0x1937 JUMP JUMPDEST JUMPDEST PUSH1 0x1 DUP3 ADD SWAP1 POP SWAP2 SWAP1 POP JUMP JUMPDEST PUSH32 0x4F6E6C792072656E7465722063616E20736B69702072656E74207061796D656E PUSH1 0x0 DUP3 ADD MSTORE PUSH32 0x7400000000000000000000000000000000000000000000000000000000000000 PUSH1 0x20 DUP3 ADD MSTORE POP JUMP JUMPDEST PUSH1 0x0 PUSH2 0x1AAA PUSH1 0x21 DUP4 PUSH2 0x134F JUMP JUMPDEST SWAP2 POP PUSH2 0x1AB5 DUP3 PUSH2 0x1A4E JUMP JUMPDEST PUSH1 0x40 DUP3 ADD SWAP1 POP SWAP2 SWAP1 POP JUMP JUMPDEST PUSH1 0x0 PUSH1 0x20 DUP3 ADD SWAP1 POP DUP2 DUP2 SUB PUSH1 0x0 DUP4 ADD MSTORE PUSH2 0x1AD9 DUP2 PUSH2 0x1A9D JUMP JUMPDEST SWAP1 POP SWAP2 SWAP1 POP JUMP JUMPDEST PUSH32 0x4F6E6C79206C616E646C6F72642063616E207365742061677265656D656E7420 PUSH1 0x0 DUP3 ADD MSTORE PUSH32 0x7465726D73000000000000000000000000000000000000000000000000000000 PUSH1 0x20 DUP3 ADD MSTORE POP JUMP JUMPDEST PUSH1 0x0 PUSH2 0x1B3C PUSH1 0x25 DUP4 PUSH2 0x134F JUMP JUMPDEST SWAP2 POP PUSH2 0x1B47 DUP3 PUSH2 0x1AE0 JUMP JUMPDEST PUSH1 0x40 DUP3 ADD SWAP1 POP SWAP2 SWAP1 POP JUMP JUMPDEST PUSH1 0x0 PUSH1 0x20 DUP3 ADD SWAP1 POP DUP2 DUP2 SUB PUSH1 0x0 DUP4 ADD MSTORE PUSH2 0x1B6B DUP2 PUSH2 0x1B2F JUMP JUMPDEST SWAP1 POP SWAP2 SWAP1 POP JUMP JUMPDEST PUSH1 0x0 PUSH1 0x60 DUP3 ADD SWAP1 POP PUSH2 0x1B87 PUSH1 0x0 DUP4 ADD DUP7 PUSH2 0x119D JUMP JUMPDEST PUSH2 0x1B94 PUSH1 0x20 DUP4 ADD DUP6 PUSH2 0x119D JUMP JUMPDEST PUSH2 0x1BA1 PUSH1 0x40 DUP4 ADD DUP5 PUSH2 0x119D JUMP JUMPDEST SWAP5 SWAP4 POP POP POP POP JUMP JUMPDEST PUSH1 0x0 PUSH2 0x1BB4 DUP3 PUSH2 0x1193 JUMP JUMPDEST SWAP2 POP PUSH2 0x1BBF DUP4 PUSH2 0x1193 JUMP JUMPDEST SWAP3 POP DUP3 DUP3 SUB SWAP1 POP DUP2 DUP2 GT ISZERO PUSH2 0x1BD7 JUMPI PUSH2 0x1BD6 PUSH2 0x1937 JUMP JUMPDEST JUMPDEST SWAP3 SWAP2 POP POP JUMP INVALID LOG2 PUSH5 0x6970667358 0x22 SLT KECCAK256 PUSH32 0xFF830A0CCBFBFB37E3CEB8E52FFB39F0D6D91D71F5A549DE60E77E1A3C7E4164 PUSH20 0x6F6C634300081200330000000000000000000000 "
				},
				"gasEstimates": {
					"creation": {
						"codeDepositCost": "1437400",
						"executionCost": "infinite",
						"totalCost": "infinite"
					},
					"external": {
						"activateContract()": "75231",
						"baseRent()": "2453",
						"currentMonth()": "2452",
						"dueRent()": "2496",
						"getContractBalance()": "428",
						"isActive()": "2539",
						"isSecurityDepositPaid()": "2631",
						"landlord()": "2577",
						"monthlyRents(uint256)": "infinite",
						"payRent()": "infinite",
						"paySecurityDeposit()": "32098",
						"recordUtilities(uint256)": "infinite",
						"rentPeriodInMonths()": "2474",
						"rentStartDate()": "2474",
						"renter()": "2604",
						"securityDeposit()": "2475",
						"setAgreementTerms(uint256,uint256,uint256)": "infinite",
						"skipRentPayment()": "infinite"
					},
					"internal": {
						"endContract()": "infinite"
					}
				},
				"methodIdentifiers": {
					"activateContract()": "8fda356d",
					"baseRent()": "04a2286a",
					"currentMonth()": "862a4d47",
					"dueRent()": "6f3c590c",
					"getContractBalance()": "6f9fb98a",
					"isActive()": "22f3e2d4",
					"isSecurityDepositPaid()": "f13702f4",
					"landlord()": "dc1997ea",
					"monthlyRents(uint256)": "e1505e4e",
					"payRent()": "a709c4fe",
					"paySecurityDeposit()": "42c63dae",
					"recordUtilities(uint256)": "7ef98740",
					"rentPeriodInMonths()": "87eaa342",
					"rentStartDate()": "561eefd8",
					"renter()": "2e88ab0b",
					"securityDeposit()": "220e5ab3",
					"setAgreementTerms(uint256,uint256,uint256)": "d738307c",
					"skipRentPayment()": "ca088031"
				}
			},
			"storageLayout": {
				"storage": [
					{
						"astId": 3,
						"contract": "contracts/HouseRentalAgreement.sol:HouseRentalAgreement",
						"label": "landlord",
						"offset": 0,
						"slot": "0",
						"type": "t_address"
					},
					{
						"astId": 5,
						"contract": "contracts/HouseRentalAgreement.sol:HouseRentalAgreement",
						"label": "renter",
						"offset": 0,
						"slot": "1",
						"type": "t_address"
					},
					{
						"astId": 7,
						"contract": "contracts/HouseRentalAgreement.sol:HouseRentalAgreement",
						"label": "securityDeposit",
						"offset": 0,
						"slot": "2",
						"type": "t_uint256"
					},
					{
						"astId": 9,
						"contract": "contracts/HouseRentalAgreement.sol:HouseRentalAgreement",
						"label": "baseRent",
						"offset": 0,
						"slot": "3",
						"type": "t_uint256"
					},
					{
						"astId": 11,
						"contract": "contracts/HouseRentalAgreement.sol:HouseRentalAgreement",
						"label": "rentPeriodInMonths",
						"offset": 0,
						"slot": "4",
						"type": "t_uint256"
					},
					{
						"astId": 13,
						"contract": "contracts/HouseRentalAgreement.sol:HouseRentalAgreement",
						"label": "rentStartDate",
						"offset": 0,
						"slot": "5",
						"type": "t_uint256"
					},
					{
						"astId": 15,
						"contract": "contracts/HouseRentalAgreement.sol:HouseRentalAgreement",
						"label": "currentMonth",
						"offset": 0,
						"slot": "6",
						"type": "t_uint256"
					},
					{
						"astId": 17,
						"contract": "contracts/HouseRentalAgreement.sol:HouseRentalAgreement",
						"label": "dueRent",
						"offset": 0,
						"slot": "7",
						"type": "t_uint256"
					},
					{
						"astId": 19,
						"contract": "contracts/HouseRentalAgreement.sol:HouseRentalAgreement",
						"label": "isActive",
						"offset": 0,
						"slot": "8",
						"type": "t_bool"
					},
					{
						"astId": 21,
						"contract": "contracts/HouseRentalAgreement.sol:HouseRentalAgreement",
						"label": "isSecurityDepositPaid",
						"offset": 1,
						"slot": "8",
						"type": "t_bool"
					},
					{
						"astId": 35,
						"contract": "contracts/HouseRentalAgreement.sol:HouseRentalAgreement",
						"label": "monthlyRents",
						"offset": 0,
						"slot": "9",
						"type": "t_mapping(t_uint256,t_struct(MonthlyRent)30_storage)"
					}
				],
				"types": {
					"t_address": {
						"encoding": "inplace",
						"label": "address",
						"numberOfBytes": "20"
					},
					"t_bool": {
						"encoding": "inplace",
						"label": "bool",
						"numberOfBytes": "1"
					},
					"t_mapping(t_uint256,t_struct(MonthlyRent)30_storage)": {
						"encoding": "mapping",
						"key": "t_uint256",
						"label": "mapping(uint256 => struct HouseRentalAgreement.MonthlyRent)",
						"numberOfBytes": "32",
						"value": "t_struct(MonthlyRent)30_storage"
					},
					"t_struct(MonthlyRent)30_storage": {
						"encoding": "inplace",
						"label": "struct HouseRentalAgreement.MonthlyRent",
						"members": [
							{
								"astId": 23,
								"contract": "contracts/HouseRentalAgreement.sol:HouseRentalAgreement",
								"label": "baseRent",
								"offset": 0,
								"slot": "0",
								"type": "t_uint256"
							},
							{
								"astId": 25,
								"contract": "contracts/HouseRentalAgreement.sol:HouseRentalAgreement",
								"label": "utilities",
								"offset": 0,
								"slot": "1",
								"type": "t_uint256"
							},
							{
								"astId": 27,
								"contract": "contracts/HouseRentalAgreement.sol:HouseRentalAgreement",
								"label": "due",
								"offset": 0,
								"slot": "2",
								"type": "t_uint256"
							},
							{
								"astId": 29,
								"contract": "contracts/HouseRentalAgreement.sol:HouseRentalAgreement",
								"label": "paid",
								"offset": 0,
								"slot": "3",
								"type": "t_bool"
							}
						],
						"numberOfBytes": "128"
					},
					"t_uint256": {
						"encoding": "inplace",
						"label": "uint256",
						"numberOfBytes": "32"
					}
				}
			},
			"userdoc": {
				"kind": "user",
				"methods": {},
				"version": 1
			}
		}
	}
}