{
	"contracts/HRSKleros.sol": {
		"HouseRentalAgreement": {
			"abi": [
				{
					"inputs": [
						{
							"internalType": "address",
							"name": "_renter",
							"type": "address"
						},
						{
							"internalType": "address",
							"name": "_klerosAddress",
							"type": "address"
						}
					],
					"stateMutability": "nonpayable",
					"type": "constructor"
				},
				{
					"anonymous": false,
					"inputs": [
						{
							"indexed": false,
							"internalType": "uint256",
							"name": "securityDeposit",
							"type": "uint256"
						},
						{
							"indexed": false,
							"internalType": "uint256",
							"name": "baseRent",
							"type": "uint256"
						},
						{
							"indexed": false,
							"internalType": "uint256",
							"name": "rentPeriodInMonths",
							"type": "uint256"
						}
					],
					"name": "AgreementTermsSet",
					"type": "event"
				},
				{
					"anonymous": false,
					"inputs": [
						{
							"indexed": false,
							"internalType": "uint256",
							"name": "securityDepositReturned",
							"type": "uint256"
						},
						{
							"indexed": false,
							"internalType": "uint256",
							"name": "dueAmountPaid",
							"type": "uint256"
						}
					],
					"name": "ContractEnded",
					"type": "event"
				},
				{
					"anonymous": false,
					"inputs": [],
					"name": "CounterEstimateAccepted",
					"type": "event"
				},
				{
					"anonymous": false,
					"inputs": [],
					"name": "CounterEstimateRejected",
					"type": "event"
				},
				{
					"anonymous": false,
					"inputs": [
						{
							"indexed": false,
							"internalType": "uint256",
							"name": "counterEstimate",
							"type": "uint256"
						}
					],
					"name": "CounterEstimateSet",
					"type": "event"
				},
				{
					"anonymous": false,
					"inputs": [
						{
							"indexed": false,
							"internalType": "uint256",
							"name": "estimate",
							"type": "uint256"
						}
					],
					"name": "DamageEstimateSet",
					"type": "event"
				},
				{
					"anonymous": false,
					"inputs": [
						{
							"indexed": false,
							"internalType": "uint256",
							"name": "disputeID",
							"type": "uint256"
						}
					],
					"name": "DisputeRaised",
					"type": "event"
				},
				{
					"anonymous": false,
					"inputs": [
						{
							"indexed": false,
							"internalType": "uint256",
							"name": "disputeID",
							"type": "uint256"
						},
						{
							"indexed": false,
							"internalType": "uint256",
							"name": "ruling",
							"type": "uint256"
						}
					],
					"name": "DisputeResolved",
					"type": "event"
				},
				{
					"anonymous": false,
					"inputs": [],
					"name": "EstimateRejected",
					"type": "event"
				},
				{
					"anonymous": false,
					"inputs": [
						{
							"indexed": true,
							"internalType": "address",
							"name": "to",
							"type": "address"
						},
						{
							"indexed": false,
							"internalType": "uint256",
							"name": "amount",
							"type": "uint256"
						}
					],
					"name": "FundsTransferred",
					"type": "event"
				},
				{
					"anonymous": false,
					"inputs": [
						{
							"indexed": false,
							"internalType": "uint256",
							"name": "month",
							"type": "uint256"
						},
						{
							"indexed": false,
							"internalType": "uint256",
							"name": "amount",
							"type": "uint256"
						}
					],
					"name": "RentPaid",
					"type": "event"
				},
				{
					"anonymous": false,
					"inputs": [
						{
							"indexed": false,
							"internalType": "uint256",
							"name": "month",
							"type": "uint256"
						},
						{
							"indexed": false,
							"internalType": "uint256",
							"name": "amount",
							"type": "uint256"
						}
					],
					"name": "RentSkipped",
					"type": "event"
				},
				{
					"anonymous": false,
					"inputs": [
						{
							"indexed": false,
							"internalType": "uint256",
							"name": "month",
							"type": "uint256"
						},
						{
							"indexed": false,
							"internalType": "uint256",
							"name": "amount",
							"type": "uint256"
						}
					],
					"name": "RentTransferred",
					"type": "event"
				},
				{
					"anonymous": false,
					"inputs": [
						{
							"indexed": false,
							"internalType": "uint256",
							"name": "amount",
							"type": "uint256"
						}
					],
					"name": "SecurityDepositPaid",
					"type": "event"
				},
				{
					"anonymous": false,
					"inputs": [
						{
							"indexed": false,
							"internalType": "uint256",
							"name": "month",
							"type": "uint256"
						},
						{
							"indexed": false,
							"internalType": "uint256",
							"name": "amount",
							"type": "uint256"
						}
					],
					"name": "UtilitiesRecorded",
					"type": "event"
				},
				{
					"anonymous": false,
					"inputs": [
						{
							"indexed": true,
							"internalType": "address",
							"name": "by",
							"type": "address"
						},
						{
							"indexed": false,
							"internalType": "uint256",
							"name": "amount",
							"type": "uint256"
						}
					],
					"name": "WithdrawalRequested",
					"type": "event"
				},
				{
					"inputs": [],
					"name": "acceptLandlordEstimate",
					"outputs": [],
					"stateMutability": "nonpayable",
					"type": "function"
				},
				{
					"inputs": [],
					"name": "acceptRenterCounterEstimate",
					"outputs": [],
					"stateMutability": "nonpayable",
					"type": "function"
				},
				{
					"inputs": [],
					"name": "activateContract",
					"outputs": [],
					"stateMutability": "nonpayable",
					"type": "function"
				},
				{
					"inputs": [],
					"name": "arbitrationCost",
					"outputs": [
						{
							"internalType": "uint256",
							"name": "",
							"type": "uint256"
						}
					],
					"stateMutability": "view",
					"type": "function"
				},
				{
					"inputs": [],
					"name": "baseRent",
					"outputs": [
						{
							"internalType": "uint256",
							"name": "",
							"type": "uint256"
						}
					],
					"stateMutability": "view",
					"type": "function"
				},
				{
					"inputs": [],
					"name": "currentMonth",
					"outputs": [
						{
							"internalType": "uint256",
							"name": "",
							"type": "uint256"
						}
					],
					"stateMutability": "view",
					"type": "function"
				},
				{
					"inputs": [],
					"name": "currentSecurityDeposit",
					"outputs": [
						{
							"internalType": "uint256",
							"name": "",
							"type": "uint256"
						}
					],
					"stateMutability": "view",
					"type": "function"
				},
				{
					"inputs": [],
					"name": "damageEstimate",
					"outputs": [
						{
							"internalType": "uint256",
							"name": "",
							"type": "uint256"
						}
					],
					"stateMutability": "view",
					"type": "function"
				},
				{
					"inputs": [],
					"name": "disputeID",
					"outputs": [
						{
							"internalType": "uint256",
							"name": "",
							"type": "uint256"
						}
					],
					"stateMutability": "view",
					"type": "function"
				},
				{
					"inputs": [],
					"name": "disputeRaised",
					"outputs": [
						{
							"internalType": "bool",
							"name": "",
							"type": "bool"
						}
					],
					"stateMutability": "view",
					"type": "function"
				},
				{
					"inputs": [],
					"name": "dueRent",
					"outputs": [
						{
							"internalType": "uint256",
							"name": "",
							"type": "uint256"
						}
					],
					"stateMutability": "view",
					"type": "function"
				},
				{
					"inputs": [],
					"name": "getArbitrationCost",
					"outputs": [
						{
							"internalType": "uint256",
							"name": "",
							"type": "uint256"
						}
					],
					"stateMutability": "view",
					"type": "function"
				},
				{
					"inputs": [],
					"name": "getContractBalance",
					"outputs": [
						{
							"internalType": "uint256",
							"name": "",
							"type": "uint256"
						}
					],
					"stateMutability": "view",
					"type": "function"
				},
				{
					"inputs": [],
					"name": "getCurrentSecurityDeposit",
					"outputs": [
						{
							"internalType": "uint256",
							"name": "",
							"type": "uint256"
						}
					],
					"stateMutability": "view",
					"type": "function"
				},
				{
					"inputs": [],
					"name": "getLandlordBalance",
					"outputs": [
						{
							"internalType": "uint256",
							"name": "",
							"type": "uint256"
						}
					],
					"stateMutability": "view",
					"type": "function"
				},
				{
					"inputs": [],
					"name": "getRenterBalance",
					"outputs": [
						{
							"internalType": "uint256",
							"name": "",
							"type": "uint256"
						}
					],
					"stateMutability": "view",
					"type": "function"
				},
				{
					"inputs": [],
					"name": "isActive",
					"outputs": [
						{
							"internalType": "bool",
							"name": "",
							"type": "bool"
						}
					],
					"stateMutability": "view",
					"type": "function"
				},
				{
					"inputs": [],
					"name": "isRentalPeriodEnded",
					"outputs": [
						{
							"internalType": "bool",
							"name": "",
							"type": "bool"
						}
					],
					"stateMutability": "view",
					"type": "function"
				},
				{
					"inputs": [],
					"name": "isSecurityDepositPaid",
					"outputs": [
						{
							"internalType": "bool",
							"name": "",
							"type": "bool"
						}
					],
					"stateMutability": "view",
					"type": "function"
				},
				{
					"inputs": [],
					"name": "kleros",
					"outputs": [
						{
							"internalType": "contract IArbitrator",
							"name": "",
							"type": "address"
						}
					],
					"stateMutability": "view",
					"type": "function"
				},
				{
					"inputs": [],
					"name": "landlord",
					"outputs": [
						{
							"internalType": "address",
							"name": "",
							"type": "address"
						}
					],
					"stateMutability": "view",
					"type": "function"
				},
				{
					"inputs": [],
					"name": "landlordAccepted",
					"outputs": [
						{
							"internalType": "bool",
							"name": "",
							"type": "bool"
						}
					],
					"stateMutability": "view",
					"type": "function"
				},
				{
					"inputs": [],
					"name": "landlordEstimateSet",
					"outputs": [
						{
							"internalType": "bool",
							"name": "",
							"type": "bool"
						}
					],
					"stateMutability": "view",
					"type": "function"
				},
				{
					"inputs": [
						{
							"internalType": "uint256",
							"name": "",
							"type": "uint256"
						}
					],
					"name": "monthlyRents",
					"outputs": [
						{
							"internalType": "uint256",
							"name": "baseRent",
							"type": "uint256"
						},
						{
							"internalType": "uint256",
							"name": "utilities",
							"type": "uint256"
						},
						{
							"internalType": "uint256",
							"name": "due",
							"type": "uint256"
						},
						{
							"internalType": "bool",
							"name": "paid",
							"type": "bool"
						}
					],
					"stateMutability": "view",
					"type": "function"
				},
				{
					"inputs": [],
					"name": "payRent",
					"outputs": [],
					"stateMutability": "payable",
					"type": "function"
				},
				{
					"inputs": [],
					"name": "paySecurityDeposit",
					"outputs": [],
					"stateMutability": "payable",
					"type": "function"
				},
				{
					"inputs": [
						{
							"internalType": "address",
							"name": "",
							"type": "address"
						}
					],
					"name": "pendingWithdrawals",
					"outputs": [
						{
							"internalType": "uint256",
							"name": "",
							"type": "uint256"
						}
					],
					"stateMutability": "view",
					"type": "function"
				},
				{
					"inputs": [
						{
							"internalType": "uint256",
							"name": "_utilities",
							"type": "uint256"
						}
					],
					"name": "recordUtilities",
					"outputs": [],
					"stateMutability": "nonpayable",
					"type": "function"
				},
				{
					"inputs": [],
					"name": "rejectLandlordEstimate",
					"outputs": [],
					"stateMutability": "nonpayable",
					"type": "function"
				},
				{
					"inputs": [],
					"name": "rejectRenterCounterEstimate",
					"outputs": [],
					"stateMutability": "nonpayable",
					"type": "function"
				},
				{
					"inputs": [],
					"name": "rentPeriodInMonths",
					"outputs": [
						{
							"internalType": "uint256",
							"name": "",
							"type": "uint256"
						}
					],
					"stateMutability": "view",
					"type": "function"
				},
				{
					"inputs": [],
					"name": "rentStartDate",
					"outputs": [
						{
							"internalType": "uint256",
							"name": "",
							"type": "uint256"
						}
					],
					"stateMutability": "view",
					"type": "function"
				},
				{
					"inputs": [],
					"name": "rentalPeriodEnded",
					"outputs": [
						{
							"internalType": "bool",
							"name": "",
							"type": "bool"
						}
					],
					"stateMutability": "view",
					"type": "function"
				},
				{
					"inputs": [],
					"name": "renter",
					"outputs": [
						{
							"internalType": "address",
							"name": "",
							"type": "address"
						}
					],
					"stateMutability": "view",
					"type": "function"
				},
				{
					"inputs": [],
					"name": "renterAccepted",
					"outputs": [
						{
							"internalType": "bool",
							"name": "",
							"type": "bool"
						}
					],
					"stateMutability": "view",
					"type": "function"
				},
				{
					"inputs": [],
					"name": "renterCounterEstimate",
					"outputs": [
						{
							"internalType": "uint256",
							"name": "",
							"type": "uint256"
						}
					],
					"stateMutability": "view",
					"type": "function"
				},
				{
					"inputs": [],
					"name": "renterCounterEstimateSet",
					"outputs": [
						{
							"internalType": "bool",
							"name": "",
							"type": "bool"
						}
					],
					"stateMutability": "view",
					"type": "function"
				},
				{
					"inputs": [
						{
							"internalType": "uint256",
							"name": "_disputeID",
							"type": "uint256"
						},
						{
							"internalType": "uint256",
							"name": "_ruling",
							"type": "uint256"
						}
					],
					"name": "rule",
					"outputs": [],
					"stateMutability": "nonpayable",
					"type": "function"
				},
				{
					"inputs": [],
					"name": "securityDeposit",
					"outputs": [
						{
							"internalType": "uint256",
							"name": "",
							"type": "uint256"
						}
					],
					"stateMutability": "view",
					"type": "function"
				},
				{
					"inputs": [
						{
							"internalType": "uint256",
							"name": "_securityDeposit",
							"type": "uint256"
						},
						{
							"internalType": "uint256",
							"name": "_baseRent",
							"type": "uint256"
						},
						{
							"internalType": "uint256",
							"name": "_rentPeriodInMonths",
							"type": "uint256"
						}
					],
					"name": "setAgreementTerms",
					"outputs": [],
					"stateMutability": "nonpayable",
					"type": "function"
				},
				{
					"inputs": [
						{
							"internalType": "uint256",
							"name": "_damageEstimate",
							"type": "uint256"
						}
					],
					"name": "setDamageEstimate",
					"outputs": [],
					"stateMutability": "nonpayable",
					"type": "function"
				},
				{
					"inputs": [
						{
							"internalType": "uint256",
							"name": "_renterCounterEstimate",
							"type": "uint256"
						}
					],
					"name": "setRenterCounterEstimate",
					"outputs": [],
					"stateMutability": "nonpayable",
					"type": "function"
				},
				{
					"inputs": [],
					"name": "skipRentPayment",
					"outputs": [],
					"stateMutability": "nonpayable",
					"type": "function"
				},
				{
					"inputs": [],
					"name": "withdraw",
					"outputs": [],
					"stateMutability": "nonpayable",
					"type": "function"
				},
				{
					"stateMutability": "payable",
					"type": "receive"
				}
			],
			"devdoc": {
				"kind": "dev",
				"methods": {},
				"version": 1
			},
			"evm": {
				"assembly": "    /* \"contracts/HRSKleros.sol\":395:12720  contract HouseRentalAgreement is IArbitrable {... */\n  mstore(0x40, 0x80)\n    /* \"contracts/HRSKleros.sol\":2385:2702  constructor(address _renter, address _klerosAddress) {... */\n  callvalue\n  dup1\n  iszero\n  tag_1\n  jumpi\n  0x00\n  dup1\n  revert\ntag_1:\n  pop\n  mload(0x40)\n  sub(codesize, bytecodeSize)\n  dup1\n  bytecodeSize\n  dup4\n  codecopy\n  dup2\n  dup2\n  add\n  0x40\n  mstore\n  dup2\n  add\n  swap1\n  tag_2\n  swap2\n  swap1\n  tag_3\n  jump\t// in\ntag_2:\n    /* \"contracts/HRSKleros.sol\":2460:2470  msg.sender */\n  caller\n    /* \"contracts/HRSKleros.sol\":2449:2457  landlord */\n  0x00\n  dup1\n    /* \"contracts/HRSKleros.sol\":2449:2470  landlord = msg.sender */\n  0x0100\n  exp\n  dup2\n  sload\n  dup2\n  0xffffffffffffffffffffffffffffffffffffffff\n  mul\n  not\n  and\n  swap1\n  dup4\n  0xffffffffffffffffffffffffffffffffffffffff\n  and\n  mul\n  or\n  swap1\n  sstore\n  pop\n    /* \"contracts/HRSKleros.sol\":2490:2497  _renter */\n  dup2\n    /* \"contracts/HRSKleros.sol\":2481:2487  renter */\n  0x01\n  0x00\n    /* \"contracts/HRSKleros.sol\":2481:2497  renter = _renter */\n  0x0100\n  exp\n  dup2\n  sload\n  dup2\n  0xffffffffffffffffffffffffffffffffffffffff\n  mul\n  not\n  and\n  swap1\n  dup4\n  0xffffffffffffffffffffffffffffffffffffffff\n  and\n  mul\n  or\n  swap1\n  sstore\n  pop\n    /* \"contracts/HRSKleros.sol\":2529:2543  _klerosAddress */\n  dup1\n    /* \"contracts/HRSKleros.sol\":2508:2514  kleros */\n  0x0d\n  0x08\n    /* \"contracts/HRSKleros.sol\":2508:2544  kleros = IArbitrator(_klerosAddress) */\n  0x0100\n  exp\n  dup2\n  sload\n  dup2\n  0xffffffffffffffffffffffffffffffffffffffff\n  mul\n  not\n  and\n  swap1\n  dup4\n  0xffffffffffffffffffffffffffffffffffffffff\n  and\n  mul\n  or\n  swap1\n  sstore\n  pop\n    /* \"contracts/HRSKleros.sol\":2566:2571  false */\n  0x00\n    /* \"contracts/HRSKleros.sol\":2555:2563  isActive */\n  0x0d\n  0x00\n    /* \"contracts/HRSKleros.sol\":2555:2571  isActive = false */\n  0x0100\n  exp\n  dup2\n  sload\n  dup2\n  0xff\n  mul\n  not\n  and\n  swap1\n  dup4\n  iszero\n  iszero\n  mul\n  or\n  swap1\n  sstore\n  pop\n    /* \"contracts/HRSKleros.sol\":2606:2611  false */\n  0x00\n    /* \"contracts/HRSKleros.sol\":2582:2603  isSecurityDepositPaid */\n  0x0d\n  0x01\n    /* \"contracts/HRSKleros.sol\":2582:2611  isSecurityDepositPaid = false */\n  0x0100\n  exp\n  dup2\n  sload\n  dup2\n  0xff\n  mul\n  not\n  and\n  swap1\n  dup4\n  iszero\n  iszero\n  mul\n  or\n  swap1\n  sstore\n  pop\n    /* \"contracts/HRSKleros.sol\":2638:2643  false */\n  0x00\n    /* \"contracts/HRSKleros.sol\":2622:2635  disputeRaised */\n  0x0d\n  0x02\n    /* \"contracts/HRSKleros.sol\":2622:2643  disputeRaised = false */\n  0x0100\n  exp\n  dup2\n  sload\n  dup2\n  0xff\n  mul\n  not\n  and\n  swap1\n  dup4\n  iszero\n  iszero\n  mul\n  or\n  swap1\n  sstore\n  pop\n    /* \"contracts/HRSKleros.sol\":2679:2694  securityDeposit */\n  sload(0x02)\n    /* \"contracts/HRSKleros.sol\":2654:2676  currentSecurityDeposit */\n  0x0b\n    /* \"contracts/HRSKleros.sol\":2654:2694  currentSecurityDeposit = securityDeposit */\n  dup2\n  swap1\n  sstore\n  pop\n    /* \"contracts/HRSKleros.sol\":2385:2702  constructor(address _renter, address _klerosAddress) {... */\n  pop\n  pop\n    /* \"contracts/HRSKleros.sol\":395:12720  contract HouseRentalAgreement is IArbitrable {... */\n  jump(tag_6)\n    /* \"#utility.yul\":88:205   */\ntag_8:\n    /* \"#utility.yul\":197:198   */\n  0x00\n    /* \"#utility.yul\":194:195   */\n  dup1\n    /* \"#utility.yul\":187:199   */\n  revert\n    /* \"#utility.yul\":334:460   */\ntag_10:\n    /* \"#utility.yul\":371:378   */\n  0x00\n    /* \"#utility.yul\":411:453   */\n  0xffffffffffffffffffffffffffffffffffffffff\n    /* \"#utility.yul\":404:409   */\n  dup3\n    /* \"#utility.yul\":400:454   */\n  and\n    /* \"#utility.yul\":389:454   */\n  swap1\n  pop\n    /* \"#utility.yul\":334:460   */\n  swap2\n  swap1\n  pop\n  jump\t// out\n    /* \"#utility.yul\":466:562   */\ntag_11:\n    /* \"#utility.yul\":503:510   */\n  0x00\n    /* \"#utility.yul\":532:556   */\n  tag_20\n    /* \"#utility.yul\":550:555   */\n  dup3\n    /* \"#utility.yul\":532:556   */\n  tag_10\n  jump\t// in\ntag_20:\n    /* \"#utility.yul\":521:556   */\n  swap1\n  pop\n    /* \"#utility.yul\":466:562   */\n  swap2\n  swap1\n  pop\n  jump\t// out\n    /* \"#utility.yul\":568:690   */\ntag_12:\n    /* \"#utility.yul\":641:665   */\n  tag_22\n    /* \"#utility.yul\":659:664   */\n  dup2\n    /* \"#utility.yul\":641:665   */\n  tag_11\n  jump\t// in\ntag_22:\n    /* \"#utility.yul\":634:639   */\n  dup2\n    /* \"#utility.yul\":631:666   */\n  eq\n    /* \"#utility.yul\":621:684   */\n  tag_23\n  jumpi\n    /* \"#utility.yul\":680:681   */\n  0x00\n    /* \"#utility.yul\":677:678   */\n  dup1\n    /* \"#utility.yul\":670:682   */\n  revert\n    /* \"#utility.yul\":621:684   */\ntag_23:\n    /* \"#utility.yul\":568:690   */\n  pop\n  jump\t// out\n    /* \"#utility.yul\":696:839   */\ntag_13:\n    /* \"#utility.yul\":753:758   */\n  0x00\n    /* \"#utility.yul\":784:790   */\n  dup2\n    /* \"#utility.yul\":778:791   */\n  mload\n    /* \"#utility.yul\":769:791   */\n  swap1\n  pop\n    /* \"#utility.yul\":800:833   */\n  tag_25\n    /* \"#utility.yul\":827:832   */\n  dup2\n    /* \"#utility.yul\":800:833   */\n  tag_12\n  jump\t// in\ntag_25:\n    /* \"#utility.yul\":696:839   */\n  swap3\n  swap2\n  pop\n  pop\n  jump\t// out\n    /* \"#utility.yul\":845:1352   */\ntag_3:\n    /* \"#utility.yul\":924:930   */\n  0x00\n    /* \"#utility.yul\":932:938   */\n  dup1\n    /* \"#utility.yul\":981:983   */\n  0x40\n    /* \"#utility.yul\":969:978   */\n  dup4\n    /* \"#utility.yul\":960:967   */\n  dup6\n    /* \"#utility.yul\":956:979   */\n  sub\n    /* \"#utility.yul\":952:984   */\n  slt\n    /* \"#utility.yul\":949:1068   */\n  iszero\n  tag_27\n  jumpi\n    /* \"#utility.yul\":987:1066   */\n  tag_28\n  tag_8\n  jump\t// in\ntag_28:\n    /* \"#utility.yul\":949:1068   */\ntag_27:\n    /* \"#utility.yul\":1107:1108   */\n  0x00\n    /* \"#utility.yul\":1132:1196   */\n  tag_29\n    /* \"#utility.yul\":1188:1195   */\n  dup6\n    /* \"#utility.yul\":1179:1185   */\n  dup3\n    /* \"#utility.yul\":1168:1177   */\n  dup7\n    /* \"#utility.yul\":1164:1186   */\n  add\n    /* \"#utility.yul\":1132:1196   */\n  tag_13\n  jump\t// in\ntag_29:\n    /* \"#utility.yul\":1122:1196   */\n  swap3\n  pop\n    /* \"#utility.yul\":1078:1206   */\n  pop\n    /* \"#utility.yul\":1245:1247   */\n  0x20\n    /* \"#utility.yul\":1271:1335   */\n  tag_30\n    /* \"#utility.yul\":1327:1334   */\n  dup6\n    /* \"#utility.yul\":1318:1324   */\n  dup3\n    /* \"#utility.yul\":1307:1316   */\n  dup7\n    /* \"#utility.yul\":1303:1325   */\n  add\n    /* \"#utility.yul\":1271:1335   */\n  tag_13\n  jump\t// in\ntag_30:\n    /* \"#utility.yul\":1261:1335   */\n  swap2\n  pop\n    /* \"#utility.yul\":1216:1345   */\n  pop\n    /* \"#utility.yul\":845:1352   */\n  swap3\n  pop\n  swap3\n  swap1\n  pop\n  jump\t// out\n    /* \"contracts/HRSKleros.sol\":395:12720  contract HouseRentalAgreement is IArbitrable {... */\ntag_6:\n  dataSize(sub_0)\n  dup1\n  dataOffset(sub_0)\n  0x00\n  codecopy\n  0x00\n  return\nstop\n\nsub_0: assembly {\n        /* \"contracts/HRSKleros.sol\":395:12720  contract HouseRentalAgreement is IArbitrable {... */\n      mstore(0x40, 0x80)\n      jumpi(tag_1, lt(calldatasize, 0x04))\n      shr(0xe0, calldataload(0x00))\n      dup1\n      0x779318e5\n      gt\n      tag_47\n      jumpi\n      dup1\n      0xcbe615b1\n      gt\n      tag_48\n      jumpi\n      dup1\n      0xdd6bcb16\n      gt\n      tag_49\n      jumpi\n      dup1\n      0xdd6bcb16\n      eq\n      tag_41\n      jumpi\n      dup1\n      0xe1505e4e\n      eq\n      tag_42\n      jumpi\n      dup1\n      0xeaa0a302\n      eq\n      tag_43\n      jumpi\n      dup1\n      0xf13702f4\n      eq\n      tag_44\n      jumpi\n      dup1\n      0xf3f43703\n      eq\n      tag_45\n      jumpi\n      dup1\n      0xfeeaea4e\n      eq\n      tag_46\n      jumpi\n      jump(tag_2)\n    tag_49:\n      dup1\n      0xcbe615b1\n      eq\n      tag_36\n      jumpi\n      dup1\n      0xd261c91f\n      eq\n      tag_37\n      jumpi\n      dup1\n      0xd738307c\n      eq\n      tag_38\n      jumpi\n      dup1\n      0xdc1997ea\n      eq\n      tag_39\n      jumpi\n      dup1\n      0xdcf2559e\n      eq\n      tag_40\n      jumpi\n      jump(tag_2)\n    tag_48:\n      dup1\n      0x8fda356d\n      gt\n      tag_50\n      jumpi\n      dup1\n      0x8fda356d\n      eq\n      tag_30\n      jumpi\n      dup1\n      0xa709c4fe\n      eq\n      tag_31\n      jumpi\n      dup1\n      0xb0a1e2b4\n      eq\n      tag_32\n      jumpi\n      dup1\n      0xb602ea60\n      eq\n      tag_33\n      jumpi\n      dup1\n      0xc2d6d462\n      eq\n      tag_34\n      jumpi\n      dup1\n      0xca088031\n      eq\n      tag_35\n      jumpi\n      jump(tag_2)\n    tag_50:\n      dup1\n      0x779318e5\n      eq\n      tag_25\n      jumpi\n      dup1\n      0x7ef98740\n      eq\n      tag_26\n      jumpi\n      dup1\n      0x81d388ba\n      eq\n      tag_27\n      jumpi\n      dup1\n      0x862a4d47\n      eq\n      tag_28\n      jumpi\n      dup1\n      0x87eaa342\n      eq\n      tag_29\n      jumpi\n      jump(tag_2)\n    tag_47:\n      dup1\n      0x47ed9c65\n      gt\n      tag_51\n      jumpi\n      dup1\n      0x65a746e9\n      gt\n      tag_52\n      jumpi\n      dup1\n      0x65a746e9\n      eq\n      tag_19\n      jumpi\n      dup1\n      0x697b05a2\n      eq\n      tag_20\n      jumpi\n      dup1\n      0x6f3c590c\n      eq\n      tag_21\n      jumpi\n      dup1\n      0x6f9fb98a\n      eq\n      tag_22\n      jumpi\n      dup1\n      0x71357a46\n      eq\n      tag_23\n      jumpi\n      dup1\n      0x740906c0\n      eq\n      tag_24\n      jumpi\n      jump(tag_2)\n    tag_52:\n      dup1\n      0x47ed9c65\n      eq\n      tag_14\n      jumpi\n      dup1\n      0x561eefd8\n      eq\n      tag_15\n      jumpi\n      dup1\n      0x5a0e9bcc\n      eq\n      tag_16\n      jumpi\n      dup1\n      0x5a920320\n      eq\n      tag_17\n      jumpi\n      dup1\n      0x63022560\n      eq\n      tag_18\n      jumpi\n      jump(tag_2)\n    tag_51:\n      dup1\n      0x220e5ab3\n      gt\n      tag_53\n      jumpi\n      dup1\n      0x220e5ab3\n      eq\n      tag_8\n      jumpi\n      dup1\n      0x22f3e2d4\n      eq\n      tag_9\n      jumpi\n      dup1\n      0x2e88ab0b\n      eq\n      tag_10\n      jumpi\n      dup1\n      0x311a6c56\n      eq\n      tag_11\n      jumpi\n      dup1\n      0x3ccfd60b\n      eq\n      tag_12\n      jumpi\n      dup1\n      0x42c63dae\n      eq\n      tag_13\n      jumpi\n      jump(tag_2)\n    tag_53:\n      dup1\n      0x4422eb\n      eq\n      tag_3\n      jumpi\n      dup1\n      0x04a2286a\n      eq\n      tag_4\n      jumpi\n      dup1\n      0x08c59798\n      eq\n      tag_5\n      jumpi\n      dup1\n      0x1890fc37\n      eq\n      tag_6\n      jumpi\n      dup1\n      0x1a576049\n      eq\n      tag_7\n      jumpi\n      jump(tag_2)\n    tag_1:\n      jumpi(tag_2, calldatasize)\n      stop\n    tag_2:\n      0x00\n      dup1\n      revert\n        /* \"contracts/HRSKleros.sol\":968:993  bool public disputeRaised */\n    tag_3:\n      callvalue\n      dup1\n      iszero\n      tag_56\n      jumpi\n      0x00\n      dup1\n      revert\n    tag_56:\n      pop\n      tag_57\n      tag_58\n      jump\t// in\n    tag_57:\n      mload(0x40)\n      tag_59\n      swap2\n      swap1\n      tag_60\n      jump\t// in\n    tag_59:\n      mload(0x40)\n      dup1\n      swap2\n      sub\n      swap1\n      return\n        /* \"contracts/HRSKleros.sol\":542:565  uint256 public baseRent */\n    tag_4:\n      callvalue\n      dup1\n      iszero\n      tag_61\n      jumpi\n      0x00\n      dup1\n      revert\n    tag_61:\n      pop\n      tag_62\n      tag_63\n      jump\t// in\n    tag_62:\n      mload(0x40)\n      tag_64\n      swap2\n      swap1\n      tag_65\n      jump\t// in\n    tag_64:\n      mload(0x40)\n      dup1\n      swap2\n      sub\n      swap1\n      return\n        /* \"contracts/HRSKleros.sol\":6356:6837  function setDamageEstimate(uint256 _damageEstimate) external {... */\n    tag_5:\n      callvalue\n      dup1\n      iszero\n      tag_66\n      jumpi\n      0x00\n      dup1\n      revert\n    tag_66:\n      pop\n      tag_67\n      0x04\n      dup1\n      calldatasize\n      sub\n      dup2\n      add\n      swap1\n      tag_68\n      swap2\n      swap1\n      tag_69\n      jump\t// in\n    tag_68:\n      tag_70\n      jump\t// in\n    tag_67:\n      stop\n        /* \"contracts/HRSKleros.sol\":8809:9356  function rejectRenterCounterEstimate() external {... */\n    tag_6:\n      callvalue\n      dup1\n      iszero\n      tag_71\n      jumpi\n      0x00\n      dup1\n      revert\n    tag_71:\n      pop\n      tag_72\n      tag_73\n      jump\t// in\n    tag_72:\n      stop\n        /* \"contracts/HRSKleros.sol\":710:739  uint256 public damageEstimate */\n    tag_7:\n      callvalue\n      dup1\n      iszero\n      tag_74\n      jumpi\n      0x00\n      dup1\n      revert\n    tag_74:\n      pop\n      tag_75\n      tag_76\n      jump\t// in\n    tag_75:\n      mload(0x40)\n      tag_77\n      swap2\n      swap1\n      tag_65\n      jump\t// in\n    tag_77:\n      mload(0x40)\n      dup1\n      swap2\n      sub\n      swap1\n      return\n        /* \"contracts/HRSKleros.sol\":505:535  uint256 public securityDeposit */\n    tag_8:\n      callvalue\n      dup1\n      iszero\n      tag_78\n      jumpi\n      0x00\n      dup1\n      revert\n    tag_78:\n      pop\n      tag_79\n      tag_80\n      jump\t// in\n    tag_79:\n      mload(0x40)\n      tag_81\n      swap2\n      swap1\n      tag_65\n      jump\t// in\n    tag_81:\n      mload(0x40)\n      dup1\n      swap2\n      sub\n      swap1\n      return\n        /* \"contracts/HRSKleros.sol\":901:921  bool public isActive */\n    tag_9:\n      callvalue\n      dup1\n      iszero\n      tag_82\n      jumpi\n      0x00\n      dup1\n      revert\n    tag_82:\n      pop\n      tag_83\n      tag_84\n      jump\t// in\n    tag_83:\n      mload(0x40)\n      tag_85\n      swap2\n      swap1\n      tag_60\n      jump\t// in\n    tag_85:\n      mload(0x40)\n      dup1\n      swap2\n      sub\n      swap1\n      return\n        /* \"contracts/HRSKleros.sol\":477:498  address public renter */\n    tag_10:\n      callvalue\n      dup1\n      iszero\n      tag_86\n      jumpi\n      0x00\n      dup1\n      revert\n    tag_86:\n      pop\n      tag_87\n      tag_88\n      jump\t// in\n    tag_87:\n      mload(0x40)\n      tag_89\n      swap2\n      swap1\n      tag_90\n      jump\t// in\n    tag_89:\n      mload(0x40)\n      dup1\n      swap2\n      sub\n      swap1\n      return\n        /* \"contracts/HRSKleros.sol\":9749:11001  function rule(uint256 _disputeID, uint256 _ruling) external override {... */\n    tag_11:\n      callvalue\n      dup1\n      iszero\n      tag_91\n      jumpi\n      0x00\n      dup1\n      revert\n    tag_91:\n      pop\n      tag_92\n      0x04\n      dup1\n      calldatasize\n      sub\n      dup2\n      add\n      swap1\n      tag_93\n      swap2\n      swap1\n      tag_94\n      jump\t// in\n    tag_93:\n      tag_95\n      jump\t// in\n    tag_92:\n      stop\n        /* \"contracts/HRSKleros.sol\":11010:11375  function withdraw() external {... */\n    tag_12:\n      callvalue\n      dup1\n      iszero\n      tag_96\n      jumpi\n      0x00\n      dup1\n      revert\n    tag_96:\n      pop\n      tag_97\n      tag_98\n      jump\t// in\n    tag_97:\n      stop\n        /* \"contracts/HRSKleros.sol\":3188:3552  function paySecurityDeposit() external payable {... */\n    tag_13:\n      tag_99\n      tag_100\n      jump\t// in\n    tag_99:\n      stop\n        /* \"contracts/HRSKleros.sol\":1142:1178  bool public renterCounterEstimateSet */\n    tag_14:\n      callvalue\n      dup1\n      iszero\n      tag_101\n      jumpi\n      0x00\n      dup1\n      revert\n    tag_101:\n      pop\n      tag_102\n      tag_103\n      jump\t// in\n    tag_102:\n      mload(0x40)\n      tag_104\n      swap2\n      swap1\n      tag_60\n      jump\t// in\n    tag_104:\n      mload(0x40)\n      dup1\n      swap2\n      sub\n      swap1\n      return\n        /* \"contracts/HRSKleros.sol\":612:640  uint256 public rentStartDate */\n    tag_15:\n      callvalue\n      dup1\n      iszero\n      tag_105\n      jumpi\n      0x00\n      dup1\n      revert\n    tag_105:\n      pop\n      tag_106\n      tag_107\n      jump\t// in\n    tag_106:\n      mload(0x40)\n      tag_108\n      swap2\n      swap1\n      tag_65\n      jump\t// in\n    tag_108:\n      mload(0x40)\n      dup1\n      swap2\n      sub\n      swap1\n      return\n        /* \"contracts/HRSKleros.sol\":1068:1097  bool public rentalPeriodEnded */\n    tag_16:\n      callvalue\n      dup1\n      iszero\n      tag_109\n      jumpi\n      0x00\n      dup1\n      revert\n    tag_109:\n      pop\n      tag_110\n      tag_111\n      jump\t// in\n    tag_110:\n      mload(0x40)\n      tag_112\n      swap2\n      swap1\n      tag_60\n      jump\t// in\n    tag_112:\n      mload(0x40)\n      dup1\n      swap2\n      sub\n      swap1\n      return\n        /* \"contracts/HRSKleros.sol\":1187:1212  IArbitrator public kleros */\n    tag_17:\n      callvalue\n      dup1\n      iszero\n      tag_113\n      jumpi\n      0x00\n      dup1\n      revert\n    tag_113:\n      pop\n      tag_114\n      tag_115\n      jump\t// in\n    tag_114:\n      mload(0x40)\n      tag_116\n      swap2\n      swap1\n      tag_117\n      jump\t// in\n    tag_116:\n      mload(0x40)\n      dup1\n      swap2\n      sub\n      swap1\n      return\n        /* \"contracts/HRSKleros.sol\":12568:12680  function getArbitrationCost() public view returns (uint256) {... */\n    tag_18:\n      callvalue\n      dup1\n      iszero\n      tag_118\n      jumpi\n      0x00\n      dup1\n      revert\n    tag_118:\n      pop\n      tag_119\n      tag_120\n      jump\t// in\n    tag_119:\n      mload(0x40)\n      tag_121\n      swap2\n      swap1\n      tag_65\n      jump\t// in\n    tag_121:\n      mload(0x40)\n      dup1\n      swap2\n      sub\n      swap1\n      return\n        /* \"contracts/HRSKleros.sol\":1035:1061  bool public renterAccepted */\n    tag_19:\n      callvalue\n      dup1\n      iszero\n      tag_122\n      jumpi\n      0x00\n      dup1\n      revert\n    tag_122:\n      pop\n      tag_123\n      tag_124\n      jump\t// in\n    tag_123:\n      mload(0x40)\n      tag_125\n      swap2\n      swap1\n      tag_60\n      jump\t// in\n    tag_125:\n      mload(0x40)\n      dup1\n      swap2\n      sub\n      swap1\n      return\n        /* \"contracts/HRSKleros.sol\":864:894  uint256 public arbitrationCost */\n    tag_20:\n      callvalue\n      dup1\n      iszero\n      tag_126\n      jumpi\n      0x00\n      dup1\n      revert\n    tag_126:\n      pop\n      tag_127\n      tag_128\n      jump\t// in\n    tag_127:\n      mload(0x40)\n      tag_129\n      swap2\n      swap1\n      tag_65\n      jump\t// in\n    tag_129:\n      mload(0x40)\n      dup1\n      swap2\n      sub\n      swap1\n      return\n        /* \"contracts/HRSKleros.sol\":681:703  uint256 public dueRent */\n    tag_21:\n      callvalue\n      dup1\n      iszero\n      tag_130\n      jumpi\n      0x00\n      dup1\n      revert\n    tag_130:\n      pop\n      tag_131\n      tag_132\n      jump\t// in\n    tag_131:\n      mload(0x40)\n      tag_133\n      swap2\n      swap1\n      tag_65\n      jump\t// in\n    tag_133:\n      mload(0x40)\n      dup1\n      swap2\n      sub\n      swap1\n      return\n        /* \"contracts/HRSKleros.sol\":12217:12326  function getContractBalance() external view returns (uint256) {... */\n    tag_22:\n      callvalue\n      dup1\n      iszero\n      tag_134\n      jumpi\n      0x00\n      dup1\n      revert\n    tag_134:\n      pop\n      tag_135\n      tag_136\n      jump\t// in\n    tag_135:\n      mload(0x40)\n      tag_137\n      swap2\n      swap1\n      tag_65\n      jump\t// in\n    tag_137:\n      mload(0x40)\n      dup1\n      swap2\n      sub\n      swap1\n      return\n        /* \"contracts/HRSKleros.sol\":1104:1135  bool public landlordEstimateSet */\n    tag_23:\n      callvalue\n      dup1\n      iszero\n      tag_138\n      jumpi\n      0x00\n      dup1\n      revert\n    tag_138:\n      pop\n      tag_139\n      tag_140\n      jump\t// in\n    tag_139:\n      mload(0x40)\n      tag_141\n      swap2\n      swap1\n      tag_60\n      jump\t// in\n    tag_141:\n      mload(0x40)\n      dup1\n      swap2\n      sub\n      swap1\n      return\n        /* \"contracts/HRSKleros.sol\":11507:11619  function getRenterBalance() external view returns (uint256) {... */\n    tag_24:\n      callvalue\n      dup1\n      iszero\n      tag_142\n      jumpi\n      0x00\n      dup1\n      revert\n    tag_142:\n      pop\n      tag_143\n      tag_144\n      jump\t// in\n    tag_143:\n      mload(0x40)\n      tag_145\n      swap2\n      swap1\n      tag_65\n      jump\t// in\n    tag_145:\n      mload(0x40)\n      dup1\n      swap2\n      sub\n      swap1\n      return\n        /* \"contracts/HRSKleros.sol\":12445:12560  function getCurrentSecurityDeposit() public view returns (uint256) {... */\n    tag_25:\n      callvalue\n      dup1\n      iszero\n      tag_146\n      jumpi\n      0x00\n      dup1\n      revert\n    tag_146:\n      pop\n      tag_147\n      tag_148\n      jump\t// in\n    tag_147:\n      mload(0x40)\n      tag_149\n      swap2\n      swap1\n      tag_65\n      jump\t// in\n    tag_149:\n      mload(0x40)\n      dup1\n      swap2\n      sub\n      swap1\n      return\n        /* \"contracts/HRSKleros.sol\":3932:4383  function recordUtilities(uint256 _utilities) external {... */\n    tag_26:\n      callvalue\n      dup1\n      iszero\n      tag_150\n      jumpi\n      0x00\n      dup1\n      revert\n    tag_150:\n      pop\n      tag_151\n      0x04\n      dup1\n      calldatasize\n      sub\n      dup2\n      add\n      swap1\n      tag_152\n      swap2\n      swap1\n      tag_69\n      jump\t// in\n    tag_152:\n      tag_153\n      jump\t// in\n    tag_151:\n      stop\n        /* \"contracts/HRSKleros.sol\":746:782  uint256 public renterCounterEstimate */\n    tag_27:\n      callvalue\n      dup1\n      iszero\n      tag_154\n      jumpi\n      0x00\n      dup1\n      revert\n    tag_154:\n      pop\n      tag_155\n      tag_156\n      jump\t// in\n    tag_155:\n      mload(0x40)\n      tag_157\n      swap2\n      swap1\n      tag_65\n      jump\t// in\n    tag_157:\n      mload(0x40)\n      dup1\n      swap2\n      sub\n      swap1\n      return\n        /* \"contracts/HRSKleros.sol\":647:674  uint256 public currentMonth */\n    tag_28:\n      callvalue\n      dup1\n      iszero\n      tag_158\n      jumpi\n      0x00\n      dup1\n      revert\n    tag_158:\n      pop\n      tag_159\n      tag_160\n      jump\t// in\n    tag_159:\n      mload(0x40)\n      tag_161\n      swap2\n      swap1\n      tag_65\n      jump\t// in\n    tag_161:\n      mload(0x40)\n      dup1\n      swap2\n      sub\n      swap1\n      return\n        /* \"contracts/HRSKleros.sol\":572:605  uint256 public rentPeriodInMonths */\n    tag_29:\n      callvalue\n      dup1\n      iszero\n      tag_162\n      jumpi\n      0x00\n      dup1\n      revert\n    tag_162:\n      pop\n      tag_163\n      tag_164\n      jump\t// in\n    tag_163:\n      mload(0x40)\n      tag_165\n      swap2\n      swap1\n      tag_65\n      jump\t// in\n    tag_165:\n      mload(0x40)\n      dup1\n      swap2\n      sub\n      swap1\n      return\n        /* \"contracts/HRSKleros.sol\":3560:3924  function activateContract() external {... */\n    tag_30:\n      callvalue\n      dup1\n      iszero\n      tag_166\n      jumpi\n      0x00\n      dup1\n      revert\n    tag_166:\n      pop\n      tag_167\n      tag_168\n      jump\t// in\n    tag_167:\n      stop\n        /* \"contracts/HRSKleros.sol\":4391:5522  function payRent() external payable {... */\n    tag_31:\n      tag_169\n      tag_170\n      jump\t// in\n    tag_169:\n      stop\n        /* \"contracts/HRSKleros.sol\":789:813  uint256 public disputeID */\n    tag_32:\n      callvalue\n      dup1\n      iszero\n      tag_171\n      jumpi\n      0x00\n      dup1\n      revert\n    tag_171:\n      pop\n      tag_172\n      tag_173\n      jump\t// in\n    tag_172:\n      mload(0x40)\n      tag_174\n      swap2\n      swap1\n      tag_65\n      jump\t// in\n    tag_174:\n      mload(0x40)\n      dup1\n      swap2\n      sub\n      swap1\n      return\n        /* \"contracts/HRSKleros.sol\":1000:1028  bool public landlordAccepted */\n    tag_33:\n      callvalue\n      dup1\n      iszero\n      tag_175\n      jumpi\n      0x00\n      dup1\n      revert\n    tag_175:\n      pop\n      tag_176\n      tag_177\n      jump\t// in\n    tag_176:\n      mload(0x40)\n      tag_178\n      swap2\n      swap1\n      tag_60\n      jump\t// in\n    tag_178:\n      mload(0x40)\n      dup1\n      swap2\n      sub\n      swap1\n      return\n        /* \"contracts/HRSKleros.sol\":7709:8115  function setRenterCounterEstimate(uint256 _renterCounterEstimate) external {... */\n    tag_34:\n      callvalue\n      dup1\n      iszero\n      tag_179\n      jumpi\n      0x00\n      dup1\n      revert\n    tag_179:\n      pop\n      tag_180\n      0x04\n      dup1\n      calldatasize\n      sub\n      dup2\n      add\n      swap1\n      tag_181\n      swap2\n      swap1\n      tag_69\n      jump\t// in\n    tag_181:\n      tag_182\n      jump\t// in\n    tag_180:\n      stop\n        /* \"contracts/HRSKleros.sol\":5530:6348  function skipRentPayment() external {... */\n    tag_35:\n      callvalue\n      dup1\n      iszero\n      tag_183\n      jumpi\n      0x00\n      dup1\n      revert\n    tag_183:\n      pop\n      tag_184\n      tag_185\n      jump\t// in\n    tag_184:\n      stop\n        /* \"contracts/HRSKleros.sol\":12334:12437  function isRentalPeriodEnded() external view returns (bool) {... */\n    tag_36:\n      callvalue\n      dup1\n      iszero\n      tag_186\n      jumpi\n      0x00\n      dup1\n      revert\n    tag_186:\n      pop\n      tag_187\n      tag_188\n      jump\t// in\n    tag_187:\n      mload(0x40)\n      tag_189\n      swap2\n      swap1\n      tag_60\n      jump\t// in\n    tag_189:\n      mload(0x40)\n      dup1\n      swap2\n      sub\n      swap1\n      return\n        /* \"contracts/HRSKleros.sol\":820:857  uint256 public currentSecurityDeposit */\n    tag_37:\n      callvalue\n      dup1\n      iszero\n      tag_190\n      jumpi\n      0x00\n      dup1\n      revert\n    tag_190:\n      pop\n      tag_191\n      tag_192\n      jump\t// in\n    tag_191:\n      mload(0x40)\n      tag_193\n      swap2\n      swap1\n      tag_65\n      jump\t// in\n    tag_193:\n      mload(0x40)\n      dup1\n      swap2\n      sub\n      swap1\n      return\n        /* \"contracts/HRSKleros.sol\":2710:3180  function setAgreementTerms(uint256 _securityDeposit, uint256 _baseRent, uint256 _rentPeriodInMonths) external {... */\n    tag_38:\n      callvalue\n      dup1\n      iszero\n      tag_194\n      jumpi\n      0x00\n      dup1\n      revert\n    tag_194:\n      pop\n      tag_195\n      0x04\n      dup1\n      calldatasize\n      sub\n      dup2\n      add\n      swap1\n      tag_196\n      swap2\n      swap1\n      tag_197\n      jump\t// in\n    tag_196:\n      tag_198\n      jump\t// in\n    tag_195:\n      stop\n        /* \"contracts/HRSKleros.sol\":447:470  address public landlord */\n    tag_39:\n      callvalue\n      dup1\n      iszero\n      tag_199\n      jumpi\n      0x00\n      dup1\n      revert\n    tag_199:\n      pop\n      tag_200\n      tag_201\n      jump\t// in\n    tag_200:\n      mload(0x40)\n      tag_202\n      swap2\n      swap1\n      tag_90\n      jump\t// in\n    tag_202:\n      mload(0x40)\n      dup1\n      swap2\n      sub\n      swap1\n      return\n        /* \"contracts/HRSKleros.sol\":7455:7701  function rejectLandlordEstimate() external {... */\n    tag_40:\n      callvalue\n      dup1\n      iszero\n      tag_203\n      jumpi\n      0x00\n      dup1\n      revert\n    tag_203:\n      pop\n      tag_204\n      tag_205\n      jump\t// in\n    tag_204:\n      stop\n        /* \"contracts/HRSKleros.sol\":6845:7447  function acceptLandlordEstimate() external {... */\n    tag_41:\n      callvalue\n      dup1\n      iszero\n      tag_206\n      jumpi\n      0x00\n      dup1\n      revert\n    tag_206:\n      pop\n      tag_207\n      tag_208\n      jump\t// in\n    tag_207:\n      stop\n        /* \"contracts/HRSKleros.sol\":1353:1404  mapping(uint256 => MonthlyRent) public monthlyRents */\n    tag_42:\n      callvalue\n      dup1\n      iszero\n      tag_209\n      jumpi\n      0x00\n      dup1\n      revert\n    tag_209:\n      pop\n      tag_210\n      0x04\n      dup1\n      calldatasize\n      sub\n      dup2\n      add\n      swap1\n      tag_211\n      swap2\n      swap1\n      tag_69\n      jump\t// in\n    tag_211:\n      tag_212\n      jump\t// in\n    tag_210:\n      mload(0x40)\n      tag_213\n      swap5\n      swap4\n      swap3\n      swap2\n      swap1\n      tag_214\n      jump\t// in\n    tag_213:\n      mload(0x40)\n      dup1\n      swap2\n      sub\n      swap1\n      return\n        /* \"contracts/HRSKleros.sol\":8123:8801  function acceptRenterCounterEstimate() external {... */\n    tag_43:\n      callvalue\n      dup1\n      iszero\n      tag_215\n      jumpi\n      0x00\n      dup1\n      revert\n    tag_215:\n      pop\n      tag_216\n      tag_217\n      jump\t// in\n    tag_216:\n      stop\n        /* \"contracts/HRSKleros.sol\":928:961  bool public isSecurityDepositPaid */\n    tag_44:\n      callvalue\n      dup1\n      iszero\n      tag_218\n      jumpi\n      0x00\n      dup1\n      revert\n    tag_218:\n      pop\n      tag_219\n      tag_220\n      jump\t// in\n    tag_219:\n      mload(0x40)\n      tag_221\n      swap2\n      swap1\n      tag_60\n      jump\t// in\n    tag_221:\n      mload(0x40)\n      dup1\n      swap2\n      sub\n      swap1\n      return\n        /* \"contracts/HRSKleros.sol\":1411:1464  mapping(address => uint256) public pendingWithdrawals */\n    tag_45:\n      callvalue\n      dup1\n      iszero\n      tag_222\n      jumpi\n      0x00\n      dup1\n      revert\n    tag_222:\n      pop\n      tag_223\n      0x04\n      dup1\n      calldatasize\n      sub\n      dup2\n      add\n      swap1\n      tag_224\n      swap2\n      swap1\n      tag_225\n      jump\t// in\n    tag_224:\n      tag_226\n      jump\t// in\n    tag_223:\n      mload(0x40)\n      tag_227\n      swap2\n      swap1\n      tag_65\n      jump\t// in\n    tag_227:\n      mload(0x40)\n      dup1\n      swap2\n      sub\n      swap1\n      return\n        /* \"contracts/HRSKleros.sol\":11383:11499  function getLandlordBalance() external view returns (uint256) {... */\n    tag_46:\n      callvalue\n      dup1\n      iszero\n      tag_228\n      jumpi\n      0x00\n      dup1\n      revert\n    tag_228:\n      pop\n      tag_229\n      tag_230\n      jump\t// in\n    tag_229:\n      mload(0x40)\n      tag_231\n      swap2\n      swap1\n      tag_65\n      jump\t// in\n    tag_231:\n      mload(0x40)\n      dup1\n      swap2\n      sub\n      swap1\n      return\n        /* \"contracts/HRSKleros.sol\":968:993  bool public disputeRaised */\n    tag_58:\n      0x0d\n      0x02\n      swap1\n      sload\n      swap1\n      0x0100\n      exp\n      swap1\n      div\n      0xff\n      and\n      dup2\n      jump\t// out\n        /* \"contracts/HRSKleros.sol\":542:565  uint256 public baseRent */\n    tag_63:\n      sload(0x03)\n      dup2\n      jump\t// out\n        /* \"contracts/HRSKleros.sol\":6356:6837  function setDamageEstimate(uint256 _damageEstimate) external {... */\n    tag_70:\n        /* \"contracts/HRSKleros.sol\":6450:6458  landlord */\n      0x00\n      dup1\n      sload\n      swap1\n      0x0100\n      exp\n      swap1\n      div\n      0xffffffffffffffffffffffffffffffffffffffff\n      and\n        /* \"contracts/HRSKleros.sol\":6436:6458  msg.sender == landlord */\n      0xffffffffffffffffffffffffffffffffffffffff\n      and\n        /* \"contracts/HRSKleros.sol\":6436:6446  msg.sender */\n      caller\n        /* \"contracts/HRSKleros.sol\":6436:6458  msg.sender == landlord */\n      0xffffffffffffffffffffffffffffffffffffffff\n      and\n      eq\n        /* \"contracts/HRSKleros.sol\":6428:6504  require(msg.sender == landlord, \"Only landlord can set the damage estimate\") */\n      tag_233\n      jumpi\n      mload(0x40)\n      0x08c379a000000000000000000000000000000000000000000000000000000000\n      dup2\n      mstore\n      0x04\n      add\n      tag_234\n      swap1\n      tag_235\n      jump\t// in\n    tag_234:\n      mload(0x40)\n      dup1\n      swap2\n      sub\n      swap1\n      revert\n    tag_233:\n        /* \"contracts/HRSKleros.sol\":6523:6540  rentalPeriodEnded */\n      0x0d\n      0x05\n      swap1\n      sload\n      swap1\n      0x0100\n      exp\n      swap1\n      div\n      0xff\n      and\n        /* \"contracts/HRSKleros.sol\":6515:6574  require(rentalPeriodEnded, \"Rent period has not ended yet\") */\n      tag_236\n      jumpi\n      mload(0x40)\n      0x08c379a000000000000000000000000000000000000000000000000000000000\n      dup2\n      mstore\n      0x04\n      add\n      tag_237\n      swap1\n      tag_238\n      jump\t// in\n    tag_237:\n      mload(0x40)\n      dup1\n      swap2\n      sub\n      swap1\n      revert\n    tag_236:\n        /* \"contracts/HRSKleros.sol\":6594:6613  landlordEstimateSet */\n      0x0d\n      0x06\n      swap1\n      sload\n      swap1\n      0x0100\n      exp\n      swap1\n      div\n      0xff\n      and\n        /* \"contracts/HRSKleros.sol\":6593:6613  !landlordEstimateSet */\n      iszero\n        /* \"contracts/HRSKleros.sol\":6585:6645  require(!landlordEstimateSet, \"Damage estimate already set\") */\n      tag_239\n      jumpi\n      mload(0x40)\n      0x08c379a000000000000000000000000000000000000000000000000000000000\n      dup2\n      mstore\n      0x04\n      add\n      tag_240\n      swap1\n      tag_241\n      jump\t// in\n    tag_240:\n      mload(0x40)\n      dup1\n      swap2\n      sub\n      swap1\n      revert\n    tag_239:\n        /* \"contracts/HRSKleros.sol\":6664:6672  isActive */\n      0x0d\n      0x00\n      swap1\n      sload\n      swap1\n      0x0100\n      exp\n      swap1\n      div\n      0xff\n      and\n        /* \"contracts/HRSKleros.sol\":6656:6699  require(isActive, \"Contract is not active\") */\n      tag_242\n      jumpi\n      mload(0x40)\n      0x08c379a000000000000000000000000000000000000000000000000000000000\n      dup2\n      mstore\n      0x04\n      add\n      tag_243\n      swap1\n      tag_244\n      jump\t// in\n    tag_243:\n      mload(0x40)\n      dup1\n      swap2\n      sub\n      swap1\n      revert\n    tag_242:\n        /* \"contracts/HRSKleros.sol\":6727:6742  _damageEstimate */\n      dup1\n        /* \"contracts/HRSKleros.sol\":6710:6724  damageEstimate */\n      0x08\n        /* \"contracts/HRSKleros.sol\":6710:6742  damageEstimate = _damageEstimate */\n      dup2\n      swap1\n      sstore\n      pop\n        /* \"contracts/HRSKleros.sol\":6775:6779  true */\n      0x01\n        /* \"contracts/HRSKleros.sol\":6753:6772  landlordEstimateSet */\n      0x0d\n      0x06\n        /* \"contracts/HRSKleros.sol\":6753:6779  landlordEstimateSet = true */\n      0x0100\n      exp\n      dup2\n      sload\n      dup2\n      0xff\n      mul\n      not\n      and\n      swap1\n      dup4\n      iszero\n      iszero\n      mul\n      or\n      swap1\n      sstore\n      pop\n        /* \"contracts/HRSKleros.sol\":6795:6829  DamageEstimateSet(_damageEstimate) */\n      0x192101de3933394fedeb636ffadd15c20b3e23e4913ab4051c171a26c90a3459\n        /* \"contracts/HRSKleros.sol\":6813:6828  _damageEstimate */\n      dup2\n        /* \"contracts/HRSKleros.sol\":6795:6829  DamageEstimateSet(_damageEstimate) */\n      mload(0x40)\n      tag_245\n      swap2\n      swap1\n      tag_65\n      jump\t// in\n    tag_245:\n      mload(0x40)\n      dup1\n      swap2\n      sub\n      swap1\n      log1\n        /* \"contracts/HRSKleros.sol\":6356:6837  function setDamageEstimate(uint256 _damageEstimate) external {... */\n      pop\n      jump\t// out\n        /* \"contracts/HRSKleros.sol\":8809:9356  function rejectRenterCounterEstimate() external {... */\n    tag_73:\n        /* \"contracts/HRSKleros.sol\":8890:8898  landlord */\n      0x00\n      dup1\n      sload\n      swap1\n      0x0100\n      exp\n      swap1\n      div\n      0xffffffffffffffffffffffffffffffffffffffff\n      and\n        /* \"contracts/HRSKleros.sol\":8876:8898  msg.sender == landlord */\n      0xffffffffffffffffffffffffffffffffffffffff\n      and\n        /* \"contracts/HRSKleros.sol\":8876:8886  msg.sender */\n      caller\n        /* \"contracts/HRSKleros.sol\":8876:8898  msg.sender == landlord */\n      0xffffffffffffffffffffffffffffffffffffffff\n      and\n      eq\n        /* \"contracts/HRSKleros.sol\":8868:8948  require(msg.sender == landlord, \"Only landlord can reject the counter estimate\") */\n      tag_247\n      jumpi\n      mload(0x40)\n      0x08c379a000000000000000000000000000000000000000000000000000000000\n      dup2\n      mstore\n      0x04\n      add\n      tag_248\n      swap1\n      tag_249\n      jump\t// in\n    tag_248:\n      mload(0x40)\n      dup1\n      swap2\n      sub\n      swap1\n      revert\n    tag_247:\n        /* \"contracts/HRSKleros.sol\":8967:8991  renterCounterEstimateSet */\n      0x0d\n      0x07\n      swap1\n      sload\n      swap1\n      0x0100\n      exp\n      swap1\n      div\n      0xff\n      and\n        /* \"contracts/HRSKleros.sol\":8959:9034  require(renterCounterEstimateSet, \"Renter must set counter estimate first\") */\n      tag_250\n      jumpi\n      mload(0x40)\n      0x08c379a000000000000000000000000000000000000000000000000000000000\n      dup2\n      mstore\n      0x04\n      add\n      tag_251\n      swap1\n      tag_252\n      jump\t// in\n    tag_251:\n      mload(0x40)\n      dup1\n      swap2\n      sub\n      swap1\n      revert\n    tag_250:\n        /* \"contracts/HRSKleros.sol\":9073:9079  kleros */\n      0x0d\n      0x08\n      swap1\n      sload\n      swap1\n      0x0100\n      exp\n      swap1\n      div\n      0xffffffffffffffffffffffffffffffffffffffff\n      and\n        /* \"contracts/HRSKleros.sol\":9073:9095  kleros.arbitrationCost */\n      0xffffffffffffffffffffffffffffffffffffffff\n      and\n      0xf7434ea9\n        /* \"contracts/HRSKleros.sol\":9073:9099  kleros.arbitrationCost(\"\") */\n      mload(0x40)\n      dup2\n      0xffffffff\n      and\n      0xe0\n      shl\n      dup2\n      mstore\n      0x04\n      add\n      tag_253\n      swap1\n      tag_254\n      jump\t// in\n    tag_253:\n      0x20\n      mload(0x40)\n      dup1\n      dup4\n      sub\n      dup2\n      dup7\n      gas\n      staticcall\n      iszero\n      dup1\n      iszero\n      tag_256\n      jumpi\n      returndatasize\n      0x00\n      dup1\n      returndatacopy\n      revert(0x00, returndatasize)\n    tag_256:\n      pop\n      pop\n      pop\n      pop\n      mload(0x40)\n      returndatasize\n      not(0x1f)\n      0x1f\n      dup3\n      add\n      and\n      dup3\n      add\n      dup1\n      0x40\n      mstore\n      pop\n      dup2\n      add\n      swap1\n      tag_257\n      swap2\n      swap1\n      tag_258\n      jump\t// in\n    tag_257:\n        /* \"contracts/HRSKleros.sol\":9055:9070  arbitrationCost */\n      0x0c\n        /* \"contracts/HRSKleros.sol\":9055:9099  arbitrationCost = kleros.arbitrationCost(\"\") */\n      dup2\n      swap1\n      sstore\n      pop\n        /* \"contracts/HRSKleros.sol\":9144:9159  arbitrationCost */\n      sload(0x0c)\n        /* \"contracts/HRSKleros.sol\":9118:9140  currentSecurityDeposit */\n      sload(0x0b)\n        /* \"contracts/HRSKleros.sol\":9118:9159  currentSecurityDeposit >= arbitrationCost */\n      lt\n      iszero\n        /* \"contracts/HRSKleros.sol\":9110:9220  require(currentSecurityDeposit >= arbitrationCost, \"Security deposit insufficient to cover arbitration costs\") */\n      tag_259\n      jumpi\n      mload(0x40)\n      0x08c379a000000000000000000000000000000000000000000000000000000000\n      dup2\n      mstore\n      0x04\n      add\n      tag_260\n      swap1\n      tag_261\n      jump\t// in\n    tag_260:\n      mload(0x40)\n      dup1\n      swap2\n      sub\n      swap1\n      revert\n    tag_259:\n        /* \"contracts/HRSKleros.sol\":9267:9282  arbitrationCost */\n      sload(0x0c)\n        /* \"contracts/HRSKleros.sol\":9241:9263  currentSecurityDeposit */\n      0x0b\n      0x00\n        /* \"contracts/HRSKleros.sol\":9241:9282  currentSecurityDeposit -= arbitrationCost */\n      dup3\n      dup3\n      sload\n      tag_262\n      swap2\n      swap1\n      tag_263\n      jump\t// in\n    tag_262:\n      swap3\n      pop\n      pop\n      dup2\n      swap1\n      sstore\n      pop\n        /* \"contracts/HRSKleros.sol\":9293:9307  raiseDispute() */\n      tag_264\n        /* \"contracts/HRSKleros.sol\":9293:9305  raiseDispute */\n      tag_265\n        /* \"contracts/HRSKleros.sol\":9293:9307  raiseDispute() */\n      jump\t// in\n    tag_264:\n        /* \"contracts/HRSKleros.sol\":9323:9348  CounterEstimateRejected() */\n      0xa7d8a4744bc13e083818434dde26551ea9b29c6425677ebc90cd5dd09ce6b5c7\n      mload(0x40)\n      mload(0x40)\n      dup1\n      swap2\n      sub\n      swap1\n      log1\n        /* \"contracts/HRSKleros.sol\":8809:9356  function rejectRenterCounterEstimate() external {... */\n      jump\t// out\n        /* \"contracts/HRSKleros.sol\":710:739  uint256 public damageEstimate */\n    tag_76:\n      sload(0x08)\n      dup2\n      jump\t// out\n        /* \"contracts/HRSKleros.sol\":505:535  uint256 public securityDeposit */\n    tag_80:\n      sload(0x02)\n      dup2\n      jump\t// out\n        /* \"contracts/HRSKleros.sol\":901:921  bool public isActive */\n    tag_84:\n      0x0d\n      0x00\n      swap1\n      sload\n      swap1\n      0x0100\n      exp\n      swap1\n      div\n      0xff\n      and\n      dup2\n      jump\t// out\n        /* \"contracts/HRSKleros.sol\":477:498  address public renter */\n    tag_88:\n      0x01\n      0x00\n      swap1\n      sload\n      swap1\n      0x0100\n      exp\n      swap1\n      div\n      0xffffffffffffffffffffffffffffffffffffffff\n      and\n      dup2\n      jump\t// out\n        /* \"contracts/HRSKleros.sol\":9749:11001  function rule(uint256 _disputeID, uint256 _ruling) external override {... */\n    tag_95:\n        /* \"contracts/HRSKleros.sol\":9859:9865  kleros */\n      0x0d\n      0x08\n      swap1\n      sload\n      swap1\n      0x0100\n      exp\n      swap1\n      div\n      0xffffffffffffffffffffffffffffffffffffffff\n      and\n        /* \"contracts/HRSKleros.sol\":9837:9866  msg.sender == address(kleros) */\n      0xffffffffffffffffffffffffffffffffffffffff\n      and\n        /* \"contracts/HRSKleros.sol\":9837:9847  msg.sender */\n      caller\n        /* \"contracts/HRSKleros.sol\":9837:9866  msg.sender == address(kleros) */\n      0xffffffffffffffffffffffffffffffffffffffff\n      and\n      eq\n        /* \"contracts/HRSKleros.sol\":9829:9899  require(msg.sender == address(kleros), \"Only the arbitrator can rule\") */\n      tag_267\n      jumpi\n      mload(0x40)\n      0x08c379a000000000000000000000000000000000000000000000000000000000\n      dup2\n      mstore\n      0x04\n      add\n      tag_268\n      swap1\n      tag_269\n      jump\t// in\n    tag_268:\n      mload(0x40)\n      dup1\n      swap2\n      sub\n      swap1\n      revert\n    tag_267:\n        /* \"contracts/HRSKleros.sol\":9918:9931  disputeRaised */\n      0x0d\n      0x02\n      swap1\n      sload\n      swap1\n      0x0100\n      exp\n      swap1\n      div\n      0xff\n      and\n        /* \"contracts/HRSKleros.sol\":9910:9957  require(disputeRaised, \"No dispute to rule on\") */\n      tag_270\n      jumpi\n      mload(0x40)\n      0x08c379a000000000000000000000000000000000000000000000000000000000\n      dup2\n      mstore\n      0x04\n      add\n      tag_271\n      swap1\n      tag_272\n      jump\t// in\n    tag_271:\n      mload(0x40)\n      dup1\n      swap2\n      sub\n      swap1\n      revert\n    tag_270:\n        /* \"contracts/HRSKleros.sol\":9990:9999  disputeID */\n      sload(0x0a)\n        /* \"contracts/HRSKleros.sol\":9976:9986  _disputeID */\n      dup3\n        /* \"contracts/HRSKleros.sol\":9976:9999  _disputeID == disputeID */\n      eq\n        /* \"contracts/HRSKleros.sol\":9968:10020  require(_disputeID == disputeID, \"Wrong dispute ID\") */\n      tag_273\n      jumpi\n      mload(0x40)\n      0x08c379a000000000000000000000000000000000000000000000000000000000\n      dup2\n      mstore\n      0x04\n      add\n      tag_274\n      swap1\n      tag_275\n      jump\t// in\n    tag_274:\n      mload(0x40)\n      dup1\n      swap2\n      sub\n      swap1\n      revert\n    tag_273:\n        /* \"contracts/HRSKleros.sol\":10033:10053  uint256 damageAmount */\n      0x00\n        /* \"contracts/HRSKleros.sol\":10079:10080  1 */\n      0x01\n        /* \"contracts/HRSKleros.sol\":10068:10075  _ruling */\n      dup3\n        /* \"contracts/HRSKleros.sol\":10068:10080  _ruling == 1 */\n      sub\n        /* \"contracts/HRSKleros.sol\":10064:10593  if (_ruling == 1) {... */\n      tag_276\n      jumpi\n        /* \"contracts/HRSKleros.sol\":10177:10199  currentSecurityDeposit */\n      sload(0x0b)\n        /* \"contracts/HRSKleros.sol\":10160:10174  damageEstimate */\n      sload(0x08)\n        /* \"contracts/HRSKleros.sol\":10160:10199  damageEstimate < currentSecurityDeposit */\n      lt\n        /* \"contracts/HRSKleros.sol\":10160:10241  damageEstimate < currentSecurityDeposit ? damageEstimate : currentSecurityDeposit */\n      tag_277\n      jumpi\n        /* \"contracts/HRSKleros.sol\":10219:10241  currentSecurityDeposit */\n      sload(0x0b)\n        /* \"contracts/HRSKleros.sol\":10160:10241  damageEstimate < currentSecurityDeposit ? damageEstimate : currentSecurityDeposit */\n      jump(tag_278)\n    tag_277:\n        /* \"contracts/HRSKleros.sol\":10202:10216  damageEstimate */\n      sload(0x08)\n        /* \"contracts/HRSKleros.sol\":10160:10241  damageEstimate < currentSecurityDeposit ? damageEstimate : currentSecurityDeposit */\n    tag_278:\n        /* \"contracts/HRSKleros.sol\":10145:10241  damageAmount = damageEstimate < currentSecurityDeposit ? damageEstimate : currentSecurityDeposit */\n      swap1\n      pop\n        /* \"contracts/HRSKleros.sol\":10064:10593  if (_ruling == 1) {... */\n      jump(tag_279)\n    tag_276:\n        /* \"contracts/HRSKleros.sol\":10274:10275  2 */\n      0x02\n        /* \"contracts/HRSKleros.sol\":10263:10270  _ruling */\n      dup3\n        /* \"contracts/HRSKleros.sol\":10263:10275  _ruling == 2 */\n      sub\n        /* \"contracts/HRSKleros.sol\":10259:10593  if (_ruling == 2) {... */\n      tag_280\n      jumpi\n        /* \"contracts/HRSKleros.sol\":10377:10399  currentSecurityDeposit */\n      sload(0x0b)\n        /* \"contracts/HRSKleros.sol\":10353:10374  renterCounterEstimate */\n      sload(0x09)\n        /* \"contracts/HRSKleros.sol\":10353:10399  renterCounterEstimate < currentSecurityDeposit */\n      lt\n        /* \"contracts/HRSKleros.sol\":10353:10448  renterCounterEstimate < currentSecurityDeposit ? renterCounterEstimate : currentSecurityDeposit */\n      tag_281\n      jumpi\n        /* \"contracts/HRSKleros.sol\":10426:10448  currentSecurityDeposit */\n      sload(0x0b)\n        /* \"contracts/HRSKleros.sol\":10353:10448  renterCounterEstimate < currentSecurityDeposit ? renterCounterEstimate : currentSecurityDeposit */\n      jump(tag_282)\n    tag_281:\n        /* \"contracts/HRSKleros.sol\":10402:10423  renterCounterEstimate */\n      sload(0x09)\n        /* \"contracts/HRSKleros.sol\":10353:10448  renterCounterEstimate < currentSecurityDeposit ? renterCounterEstimate : currentSecurityDeposit */\n    tag_282:\n        /* \"contracts/HRSKleros.sol\":10338:10448  damageAmount = renterCounterEstimate < currentSecurityDeposit ? renterCounterEstimate : currentSecurityDeposit */\n      swap1\n      pop\n        /* \"contracts/HRSKleros.sol\":10259:10593  if (_ruling == 2) {... */\n      jump(tag_283)\n    tag_280:\n        /* \"contracts/HRSKleros.sol\":10580:10581  2 */\n      0x02\n        /* \"contracts/HRSKleros.sol\":10555:10577  currentSecurityDeposit */\n      sload(0x0b)\n        /* \"contracts/HRSKleros.sol\":10555:10581  currentSecurityDeposit / 2 */\n      tag_284\n      swap2\n      swap1\n      tag_285\n      jump\t// in\n    tag_284:\n        /* \"contracts/HRSKleros.sol\":10540:10581  damageAmount = currentSecurityDeposit / 2 */\n      swap1\n      pop\n        /* \"contracts/HRSKleros.sol\":10259:10593  if (_ruling == 2) {... */\n    tag_283:\n        /* \"contracts/HRSKleros.sol\":10064:10593  if (_ruling == 1) {... */\n    tag_279:\n        /* \"contracts/HRSKleros.sol\":10637:10649  damageAmount */\n      dup1\n        /* \"contracts/HRSKleros.sol\":10605:10623  pendingWithdrawals */\n      0x0f\n        /* \"contracts/HRSKleros.sol\":10605:10633  pendingWithdrawals[landlord] */\n      0x00\n        /* \"contracts/HRSKleros.sol\":10624:10632  landlord */\n      dup1\n      0x00\n      swap1\n      sload\n      swap1\n      0x0100\n      exp\n      swap1\n      div\n      0xffffffffffffffffffffffffffffffffffffffff\n      and\n        /* \"contracts/HRSKleros.sol\":10605:10633  pendingWithdrawals[landlord] */\n      0xffffffffffffffffffffffffffffffffffffffff\n      and\n      0xffffffffffffffffffffffffffffffffffffffff\n      and\n      dup2\n      mstore\n      0x20\n      add\n      swap1\n      dup2\n      mstore\n      0x20\n      add\n      0x00\n      keccak256\n      0x00\n        /* \"contracts/HRSKleros.sol\":10605:10649  pendingWithdrawals[landlord] += damageAmount */\n      dup3\n      dup3\n      sload\n      tag_286\n      swap2\n      swap1\n      tag_287\n      jump\t// in\n    tag_286:\n      swap3\n      pop\n      pop\n      dup2\n      swap1\n      sstore\n      pop\n        /* \"contracts/HRSKleros.sol\":10716:10728  damageAmount */\n      dup1\n        /* \"contracts/HRSKleros.sol\":10691:10713  currentSecurityDeposit */\n      sload(0x0b)\n        /* \"contracts/HRSKleros.sol\":10691:10728  currentSecurityDeposit - damageAmount */\n      tag_288\n      swap2\n      swap1\n      tag_263\n      jump\t// in\n    tag_288:\n        /* \"contracts/HRSKleros.sol\":10660:10678  pendingWithdrawals */\n      0x0f\n        /* \"contracts/HRSKleros.sol\":10660:10686  pendingWithdrawals[renter] */\n      0x00\n        /* \"contracts/HRSKleros.sol\":10679:10685  renter */\n      0x01\n      0x00\n      swap1\n      sload\n      swap1\n      0x0100\n      exp\n      swap1\n      div\n      0xffffffffffffffffffffffffffffffffffffffff\n      and\n        /* \"contracts/HRSKleros.sol\":10660:10686  pendingWithdrawals[renter] */\n      0xffffffffffffffffffffffffffffffffffffffff\n      and\n      0xffffffffffffffffffffffffffffffffffffffff\n      and\n      dup2\n      mstore\n      0x20\n      add\n      swap1\n      dup2\n      mstore\n      0x20\n      add\n      0x00\n      keccak256\n      0x00\n        /* \"contracts/HRSKleros.sol\":10660:10729  pendingWithdrawals[renter] += (currentSecurityDeposit - damageAmount) */\n      dup3\n      dup3\n      sload\n      tag_289\n      swap2\n      swap1\n      tag_287\n      jump\t// in\n    tag_289:\n      swap3\n      pop\n      pop\n      dup2\n      swap1\n      sstore\n      pop\n        /* \"contracts/HRSKleros.sol\":10775:10783  landlord */\n      0x00\n      dup1\n      sload\n      swap1\n      0x0100\n      exp\n      swap1\n      div\n      0xffffffffffffffffffffffffffffffffffffffff\n      and\n        /* \"contracts/HRSKleros.sol\":10755:10798  WithdrawalRequested(landlord, damageAmount) */\n      0xffffffffffffffffffffffffffffffffffffffff\n      and\n      0xe670e4e82118d22a1f9ee18920455ebc958bae26a90a05d31d3378788b1b0e44\n        /* \"contracts/HRSKleros.sol\":10785:10797  damageAmount */\n      dup3\n        /* \"contracts/HRSKleros.sol\":10755:10798  WithdrawalRequested(landlord, damageAmount) */\n      mload(0x40)\n      tag_290\n      swap2\n      swap1\n      tag_65\n      jump\t// in\n    tag_290:\n      mload(0x40)\n      dup1\n      swap2\n      sub\n      swap1\n      log2\n        /* \"contracts/HRSKleros.sol\":10834:10840  renter */\n      0x01\n      0x00\n      swap1\n      sload\n      swap1\n      0x0100\n      exp\n      swap1\n      div\n      0xffffffffffffffffffffffffffffffffffffffff\n      and\n        /* \"contracts/HRSKleros.sol\":10814:10880  WithdrawalRequested(renter, currentSecurityDeposit - damageAmount) */\n      0xffffffffffffffffffffffffffffffffffffffff\n      and\n      0xe670e4e82118d22a1f9ee18920455ebc958bae26a90a05d31d3378788b1b0e44\n        /* \"contracts/HRSKleros.sol\":10867:10879  damageAmount */\n      dup3\n        /* \"contracts/HRSKleros.sol\":10842:10864  currentSecurityDeposit */\n      sload(0x0b)\n        /* \"contracts/HRSKleros.sol\":10842:10879  currentSecurityDeposit - damageAmount */\n      tag_291\n      swap2\n      swap1\n      tag_263\n      jump\t// in\n    tag_291:\n        /* \"contracts/HRSKleros.sol\":10814:10880  WithdrawalRequested(renter, currentSecurityDeposit - damageAmount) */\n      mload(0x40)\n      tag_292\n      swap2\n      swap1\n      tag_65\n      jump\t// in\n    tag_292:\n      mload(0x40)\n      dup1\n      swap2\n      sub\n      swap1\n      log2\n        /* \"contracts/HRSKleros.sol\":10909:10914  false */\n      0x00\n        /* \"contracts/HRSKleros.sol\":10893:10906  disputeRaised */\n      0x0d\n      0x02\n        /* \"contracts/HRSKleros.sol\":10893:10914  disputeRaised = false */\n      0x0100\n      exp\n      dup2\n      sload\n      dup2\n      0xff\n      mul\n      not\n      and\n      swap1\n      dup4\n      iszero\n      iszero\n      mul\n      or\n      swap1\n      sstore\n      pop\n        /* \"contracts/HRSKleros.sol\":10936:10941  false */\n      0x00\n        /* \"contracts/HRSKleros.sol\":10925:10933  isActive */\n      0x0d\n      0x00\n        /* \"contracts/HRSKleros.sol\":10925:10941  isActive = false */\n      0x0100\n      exp\n      dup2\n      sload\n      dup2\n      0xff\n      mul\n      not\n      and\n      swap1\n      dup4\n      iszero\n      iszero\n      mul\n      or\n      swap1\n      sstore\n      pop\n        /* \"contracts/HRSKleros.sol\":10957:10993  DisputeResolved(_disputeID, _ruling) */\n      0xb4121f1f91a696a3fc75f6d151f3c9865abffa0738bda595e71c381c02af2faa\n        /* \"contracts/HRSKleros.sol\":10973:10983  _disputeID */\n      dup4\n        /* \"contracts/HRSKleros.sol\":10985:10992  _ruling */\n      dup4\n        /* \"contracts/HRSKleros.sol\":10957:10993  DisputeResolved(_disputeID, _ruling) */\n      mload(0x40)\n      tag_293\n      swap3\n      swap2\n      swap1\n      tag_294\n      jump\t// in\n    tag_293:\n      mload(0x40)\n      dup1\n      swap2\n      sub\n      swap1\n      log1\n        /* \"contracts/HRSKleros.sol\":9818:11001  {... */\n      pop\n        /* \"contracts/HRSKleros.sol\":9749:11001  function rule(uint256 _disputeID, uint256 _ruling) external override {... */\n      pop\n      pop\n      jump\t// out\n        /* \"contracts/HRSKleros.sol\":11010:11375  function withdraw() external {... */\n    tag_98:\n        /* \"contracts/HRSKleros.sol\":11050:11064  uint256 amount */\n      0x00\n        /* \"contracts/HRSKleros.sol\":11067:11085  pendingWithdrawals */\n      0x0f\n        /* \"contracts/HRSKleros.sol\":11067:11097  pendingWithdrawals[msg.sender] */\n      0x00\n        /* \"contracts/HRSKleros.sol\":11086:11096  msg.sender */\n      caller\n        /* \"contracts/HRSKleros.sol\":11067:11097  pendingWithdrawals[msg.sender] */\n      0xffffffffffffffffffffffffffffffffffffffff\n      and\n      0xffffffffffffffffffffffffffffffffffffffff\n      and\n      dup2\n      mstore\n      0x20\n      add\n      swap1\n      dup2\n      mstore\n      0x20\n      add\n      0x00\n      keccak256\n      sload\n        /* \"contracts/HRSKleros.sol\":11050:11097  uint256 amount = pendingWithdrawals[msg.sender] */\n      swap1\n      pop\n        /* \"contracts/HRSKleros.sol\":11125:11126  0 */\n      0x00\n        /* \"contracts/HRSKleros.sol\":11116:11122  amount */\n      dup2\n        /* \"contracts/HRSKleros.sol\":11116:11126  amount > 0 */\n      gt\n        /* \"contracts/HRSKleros.sol\":11108:11151  require(amount > 0, \"No funds to withdraw\") */\n      tag_296\n      jumpi\n      mload(0x40)\n      0x08c379a000000000000000000000000000000000000000000000000000000000\n      dup2\n      mstore\n      0x04\n      add\n      tag_297\n      swap1\n      tag_298\n      jump\t// in\n    tag_297:\n      mload(0x40)\n      dup1\n      swap2\n      sub\n      swap1\n      revert\n    tag_296:\n        /* \"contracts/HRSKleros.sol\":11195:11196  0 */\n      0x00\n        /* \"contracts/HRSKleros.sol\":11162:11180  pendingWithdrawals */\n      0x0f\n        /* \"contracts/HRSKleros.sol\":11162:11192  pendingWithdrawals[msg.sender] */\n      0x00\n        /* \"contracts/HRSKleros.sol\":11181:11191  msg.sender */\n      caller\n        /* \"contracts/HRSKleros.sol\":11162:11192  pendingWithdrawals[msg.sender] */\n      0xffffffffffffffffffffffffffffffffffffffff\n      and\n      0xffffffffffffffffffffffffffffffffffffffff\n      and\n      dup2\n      mstore\n      0x20\n      add\n      swap1\n      dup2\n      mstore\n      0x20\n      add\n      0x00\n      keccak256\n        /* \"contracts/HRSKleros.sol\":11162:11196  pendingWithdrawals[msg.sender] = 0 */\n      dup2\n      swap1\n      sstore\n      pop\n        /* \"contracts/HRSKleros.sol\":11208:11220  bool success */\n      0x00\n        /* \"contracts/HRSKleros.sol\":11234:11244  msg.sender */\n      caller\n        /* \"contracts/HRSKleros.sol\":11226:11250  payable(msg.sender).call */\n      0xffffffffffffffffffffffffffffffffffffffff\n      and\n        /* \"contracts/HRSKleros.sol\":11258:11264  amount */\n      dup3\n        /* \"contracts/HRSKleros.sol\":11226:11269  payable(msg.sender).call{value: amount}(\"\") */\n      mload(0x40)\n      tag_299\n      swap1\n      tag_300\n      jump\t// in\n    tag_299:\n      0x00\n      mload(0x40)\n      dup1\n      dup4\n      sub\n      dup2\n      dup6\n      dup8\n      gas\n      call\n      swap3\n      pop\n      pop\n      pop\n      returndatasize\n      dup1\n      0x00\n      dup2\n      eq\n      tag_303\n      jumpi\n      mload(0x40)\n      swap2\n      pop\n      and(add(returndatasize, 0x3f), not(0x1f))\n      dup3\n      add\n      0x40\n      mstore\n      returndatasize\n      dup3\n      mstore\n      returndatasize\n      0x00\n      0x20\n      dup5\n      add\n      returndatacopy\n      jump(tag_302)\n    tag_303:\n      0x60\n      swap2\n      pop\n    tag_302:\n      pop\n        /* \"contracts/HRSKleros.sol\":11207:11269  (bool success, ) = payable(msg.sender).call{value: amount}(\"\") */\n      pop\n      swap1\n      pop\n        /* \"contracts/HRSKleros.sol\":11288:11295  success */\n      dup1\n        /* \"contracts/HRSKleros.sol\":11280:11315  require(success, \"Transfer failed\") */\n      tag_304\n      jumpi\n      mload(0x40)\n      0x08c379a000000000000000000000000000000000000000000000000000000000\n      dup2\n      mstore\n      0x04\n      add\n      tag_305\n      swap1\n      tag_306\n      jump\t// in\n    tag_305:\n      mload(0x40)\n      dup1\n      swap2\n      sub\n      swap1\n      revert\n    tag_304:\n        /* \"contracts/HRSKleros.sol\":11348:11358  msg.sender */\n      caller\n        /* \"contracts/HRSKleros.sol\":11331:11367  FundsTransferred(msg.sender, amount) */\n      0xffffffffffffffffffffffffffffffffffffffff\n      and\n      0x8c9a4f13b67cb64d7c6aa1ae0c9bf07694af521a28b93e7060020810ab4bc59f\n        /* \"contracts/HRSKleros.sol\":11360:11366  amount */\n      dup4\n        /* \"contracts/HRSKleros.sol\":11331:11367  FundsTransferred(msg.sender, amount) */\n      mload(0x40)\n      tag_307\n      swap2\n      swap1\n      tag_65\n      jump\t// in\n    tag_307:\n      mload(0x40)\n      dup1\n      swap2\n      sub\n      swap1\n      log2\n        /* \"contracts/HRSKleros.sol\":11039:11375  {... */\n      pop\n      pop\n        /* \"contracts/HRSKleros.sol\":11010:11375  function withdraw() external {... */\n      jump\t// out\n        /* \"contracts/HRSKleros.sol\":3188:3552  function paySecurityDeposit() external payable {... */\n    tag_100:\n        /* \"contracts/HRSKleros.sol\":3268:3274  renter */\n      0x01\n      0x00\n      swap1\n      sload\n      swap1\n      0x0100\n      exp\n      swap1\n      div\n      0xffffffffffffffffffffffffffffffffffffffff\n      and\n        /* \"contracts/HRSKleros.sol\":3254:3274  msg.sender == renter */\n      0xffffffffffffffffffffffffffffffffffffffff\n      and\n        /* \"contracts/HRSKleros.sol\":3254:3264  msg.sender */\n      caller\n        /* \"contracts/HRSKleros.sol\":3254:3274  msg.sender == renter */\n      0xffffffffffffffffffffffffffffffffffffffff\n      and\n      eq\n        /* \"contracts/HRSKleros.sol\":3246:3315  require(msg.sender == renter, \"Only renter can pay security deposit\") */\n      tag_309\n      jumpi\n      mload(0x40)\n      0x08c379a000000000000000000000000000000000000000000000000000000000\n      dup2\n      mstore\n      0x04\n      add\n      tag_310\n      swap1\n      tag_311\n      jump\t// in\n    tag_310:\n      mload(0x40)\n      dup1\n      swap2\n      sub\n      swap1\n      revert\n    tag_309:\n        /* \"contracts/HRSKleros.sol\":3335:3343  isActive */\n      0x0d\n      0x00\n      swap1\n      sload\n      swap1\n      0x0100\n      exp\n      swap1\n      div\n      0xff\n      and\n        /* \"contracts/HRSKleros.sol\":3334:3343  !isActive */\n      iszero\n        /* \"contracts/HRSKleros.sol\":3326:3374  require(!isActive, \"Contract is already active\") */\n      tag_312\n      jumpi\n      mload(0x40)\n      0x08c379a000000000000000000000000000000000000000000000000000000000\n      dup2\n      mstore\n      0x04\n      add\n      tag_313\n      swap1\n      tag_314\n      jump\t// in\n    tag_313:\n      mload(0x40)\n      dup1\n      swap2\n      sub\n      swap1\n      revert\n    tag_312:\n        /* \"contracts/HRSKleros.sol\":3406:3421  securityDeposit */\n      sload(0x02)\n        /* \"contracts/HRSKleros.sol\":3393:3402  msg.value */\n      callvalue\n        /* \"contracts/HRSKleros.sol\":3393:3421  msg.value == securityDeposit */\n      eq\n        /* \"contracts/HRSKleros.sol\":3385:3459  require(msg.value == securityDeposit, \"Incorrect security deposit amount\") */\n      tag_315\n      jumpi\n      mload(0x40)\n      0x08c379a000000000000000000000000000000000000000000000000000000000\n      dup2\n      mstore\n      0x04\n      add\n      tag_316\n      swap1\n      tag_317\n      jump\t// in\n    tag_316:\n      mload(0x40)\n      dup1\n      swap2\n      sub\n      swap1\n      revert\n    tag_315:\n        /* \"contracts/HRSKleros.sol\":3494:3498  true */\n      0x01\n        /* \"contracts/HRSKleros.sol\":3470:3491  isSecurityDepositPaid */\n      0x0d\n      0x01\n        /* \"contracts/HRSKleros.sol\":3470:3498  isSecurityDepositPaid = true */\n      0x0100\n      exp\n      dup2\n      sload\n      dup2\n      0xff\n      mul\n      not\n      and\n      swap1\n      dup4\n      iszero\n      iszero\n      mul\n      or\n      swap1\n      sstore\n      pop\n        /* \"contracts/HRSKleros.sol\":3514:3544  SecurityDepositPaid(msg.value) */\n      0x486ac935cf1ea9effd9e0a261bc42917b45f2fd45cc98def2bc34d47f216937c\n        /* \"contracts/HRSKleros.sol\":3534:3543  msg.value */\n      callvalue\n        /* \"contracts/HRSKleros.sol\":3514:3544  SecurityDepositPaid(msg.value) */\n      mload(0x40)\n      tag_318\n      swap2\n      swap1\n      tag_65\n      jump\t// in\n    tag_318:\n      mload(0x40)\n      dup1\n      swap2\n      sub\n      swap1\n      log1\n        /* \"contracts/HRSKleros.sol\":3188:3552  function paySecurityDeposit() external payable {... */\n      jump\t// out\n        /* \"contracts/HRSKleros.sol\":1142:1178  bool public renterCounterEstimateSet */\n    tag_103:\n      0x0d\n      0x07\n      swap1\n      sload\n      swap1\n      0x0100\n      exp\n      swap1\n      div\n      0xff\n      and\n      dup2\n      jump\t// out\n        /* \"contracts/HRSKleros.sol\":612:640  uint256 public rentStartDate */\n    tag_107:\n      sload(0x05)\n      dup2\n      jump\t// out\n        /* \"contracts/HRSKleros.sol\":1068:1097  bool public rentalPeriodEnded */\n    tag_111:\n      0x0d\n      0x05\n      swap1\n      sload\n      swap1\n      0x0100\n      exp\n      swap1\n      div\n      0xff\n      and\n      dup2\n      jump\t// out\n        /* \"contracts/HRSKleros.sol\":1187:1212  IArbitrator public kleros */\n    tag_115:\n      0x0d\n      0x08\n      swap1\n      sload\n      swap1\n      0x0100\n      exp\n      swap1\n      div\n      0xffffffffffffffffffffffffffffffffffffffff\n      and\n      dup2\n      jump\t// out\n        /* \"contracts/HRSKleros.sol\":12568:12680  function getArbitrationCost() public view returns (uint256) {... */\n    tag_120:\n        /* \"contracts/HRSKleros.sol\":12619:12626  uint256 */\n      0x00\n        /* \"contracts/HRSKleros.sol\":12646:12652  kleros */\n      0x0d\n      0x08\n      swap1\n      sload\n      swap1\n      0x0100\n      exp\n      swap1\n      div\n      0xffffffffffffffffffffffffffffffffffffffff\n      and\n        /* \"contracts/HRSKleros.sol\":12646:12668  kleros.arbitrationCost */\n      0xffffffffffffffffffffffffffffffffffffffff\n      and\n      0xf7434ea9\n        /* \"contracts/HRSKleros.sol\":12646:12672  kleros.arbitrationCost(\"\") */\n      mload(0x40)\n      dup2\n      0xffffffff\n      and\n      0xe0\n      shl\n      dup2\n      mstore\n      0x04\n      add\n      tag_320\n      swap1\n      tag_254\n      jump\t// in\n    tag_320:\n      0x20\n      mload(0x40)\n      dup1\n      dup4\n      sub\n      dup2\n      dup7\n      gas\n      staticcall\n      iszero\n      dup1\n      iszero\n      tag_322\n      jumpi\n      returndatasize\n      0x00\n      dup1\n      returndatacopy\n      revert(0x00, returndatasize)\n    tag_322:\n      pop\n      pop\n      pop\n      pop\n      mload(0x40)\n      returndatasize\n      not(0x1f)\n      0x1f\n      dup3\n      add\n      and\n      dup3\n      add\n      dup1\n      0x40\n      mstore\n      pop\n      dup2\n      add\n      swap1\n      tag_323\n      swap2\n      swap1\n      tag_258\n      jump\t// in\n    tag_323:\n        /* \"contracts/HRSKleros.sol\":12639:12672  return kleros.arbitrationCost(\"\") */\n      swap1\n      pop\n        /* \"contracts/HRSKleros.sol\":12568:12680  function getArbitrationCost() public view returns (uint256) {... */\n      swap1\n      jump\t// out\n        /* \"contracts/HRSKleros.sol\":1035:1061  bool public renterAccepted */\n    tag_124:\n      0x0d\n      0x04\n      swap1\n      sload\n      swap1\n      0x0100\n      exp\n      swap1\n      div\n      0xff\n      and\n      dup2\n      jump\t// out\n        /* \"contracts/HRSKleros.sol\":864:894  uint256 public arbitrationCost */\n    tag_128:\n      sload(0x0c)\n      dup2\n      jump\t// out\n        /* \"contracts/HRSKleros.sol\":681:703  uint256 public dueRent */\n    tag_132:\n      sload(0x07)\n      dup2\n      jump\t// out\n        /* \"contracts/HRSKleros.sol\":12217:12326  function getContractBalance() external view returns (uint256) {... */\n    tag_136:\n        /* \"contracts/HRSKleros.sol\":12270:12277  uint256 */\n      0x00\n        /* \"contracts/HRSKleros.sol\":12297:12318  address(this).balance */\n      selfbalance\n        /* \"contracts/HRSKleros.sol\":12290:12318  return address(this).balance */\n      swap1\n      pop\n        /* \"contracts/HRSKleros.sol\":12217:12326  function getContractBalance() external view returns (uint256) {... */\n      swap1\n      jump\t// out\n        /* \"contracts/HRSKleros.sol\":1104:1135  bool public landlordEstimateSet */\n    tag_140:\n      0x0d\n      0x06\n      swap1\n      sload\n      swap1\n      0x0100\n      exp\n      swap1\n      div\n      0xff\n      and\n      dup2\n      jump\t// out\n        /* \"contracts/HRSKleros.sol\":11507:11619  function getRenterBalance() external view returns (uint256) {... */\n    tag_144:\n        /* \"contracts/HRSKleros.sol\":11558:11565  uint256 */\n      0x00\n        /* \"contracts/HRSKleros.sol\":11585:11603  pendingWithdrawals */\n      0x0f\n        /* \"contracts/HRSKleros.sol\":11585:11611  pendingWithdrawals[renter] */\n      0x00\n        /* \"contracts/HRSKleros.sol\":11604:11610  renter */\n      0x01\n      0x00\n      swap1\n      sload\n      swap1\n      0x0100\n      exp\n      swap1\n      div\n      0xffffffffffffffffffffffffffffffffffffffff\n      and\n        /* \"contracts/HRSKleros.sol\":11585:11611  pendingWithdrawals[renter] */\n      0xffffffffffffffffffffffffffffffffffffffff\n      and\n      0xffffffffffffffffffffffffffffffffffffffff\n      and\n      dup2\n      mstore\n      0x20\n      add\n      swap1\n      dup2\n      mstore\n      0x20\n      add\n      0x00\n      keccak256\n      sload\n        /* \"contracts/HRSKleros.sol\":11578:11611  return pendingWithdrawals[renter] */\n      swap1\n      pop\n        /* \"contracts/HRSKleros.sol\":11507:11619  function getRenterBalance() external view returns (uint256) {... */\n      swap1\n      jump\t// out\n        /* \"contracts/HRSKleros.sol\":12445:12560  function getCurrentSecurityDeposit() public view returns (uint256) {... */\n    tag_148:\n        /* \"contracts/HRSKleros.sol\":12503:12510  uint256 */\n      0x00\n        /* \"contracts/HRSKleros.sol\":12530:12552  currentSecurityDeposit */\n      sload(0x0b)\n        /* \"contracts/HRSKleros.sol\":12523:12552  return currentSecurityDeposit */\n      swap1\n      pop\n        /* \"contracts/HRSKleros.sol\":12445:12560  function getCurrentSecurityDeposit() public view returns (uint256) {... */\n      swap1\n      jump\t// out\n        /* \"contracts/HRSKleros.sol\":3932:4383  function recordUtilities(uint256 _utilities) external {... */\n    tag_153:\n        /* \"contracts/HRSKleros.sol\":4019:4027  landlord */\n      0x00\n      dup1\n      sload\n      swap1\n      0x0100\n      exp\n      swap1\n      div\n      0xffffffffffffffffffffffffffffffffffffffff\n      and\n        /* \"contracts/HRSKleros.sol\":4005:4027  msg.sender == landlord */\n      0xffffffffffffffffffffffffffffffffffffffff\n      and\n        /* \"contracts/HRSKleros.sol\":4005:4015  msg.sender */\n      caller\n        /* \"contracts/HRSKleros.sol\":4005:4027  msg.sender == landlord */\n      0xffffffffffffffffffffffffffffffffffffffff\n      and\n      eq\n        /* \"contracts/HRSKleros.sol\":3997:4066  require(msg.sender == landlord, \"Only landlord can record utilities\") */\n      tag_328\n      jumpi\n      mload(0x40)\n      0x08c379a000000000000000000000000000000000000000000000000000000000\n      dup2\n      mstore\n      0x04\n      add\n      tag_329\n      swap1\n      tag_330\n      jump\t// in\n    tag_329:\n      mload(0x40)\n      dup1\n      swap2\n      sub\n      swap1\n      revert\n    tag_328:\n        /* \"contracts/HRSKleros.sol\":4085:4093  isActive */\n      0x0d\n      0x00\n      swap1\n      sload\n      swap1\n      0x0100\n      exp\n      swap1\n      div\n      0xff\n      and\n        /* \"contracts/HRSKleros.sol\":4077:4120  require(isActive, \"Contract is not active\") */\n      tag_331\n      jumpi\n      mload(0x40)\n      0x08c379a000000000000000000000000000000000000000000000000000000000\n      dup2\n      mstore\n      0x04\n      add\n      tag_332\n      swap1\n      tag_244\n      jump\t// in\n    tag_332:\n      mload(0x40)\n      dup1\n      swap2\n      sub\n      swap1\n      revert\n    tag_331:\n        /* \"contracts/HRSKleros.sol\":4155:4173  rentPeriodInMonths */\n      sload(0x04)\n        /* \"contracts/HRSKleros.sol\":4139:4151  currentMonth */\n      sload(0x06)\n        /* \"contracts/HRSKleros.sol\":4139:4173  currentMonth <= rentPeriodInMonths */\n      gt\n      iszero\n        /* \"contracts/HRSKleros.sol\":4131:4199  require(currentMonth <= rentPeriodInMonths, \"Rent period has ended\") */\n      tag_333\n      jumpi\n      mload(0x40)\n      0x08c379a000000000000000000000000000000000000000000000000000000000\n      dup2\n      mstore\n      0x04\n      add\n      tag_334\n      swap1\n      tag_335\n      jump\t// in\n    tag_334:\n      mload(0x40)\n      dup1\n      swap2\n      sub\n      swap1\n      revert\n    tag_333:\n        /* \"contracts/HRSKleros.sol\":4249:4259  _utilities */\n      dup1\n        /* \"contracts/HRSKleros.sol\":4210:4222  monthlyRents */\n      0x0e\n        /* \"contracts/HRSKleros.sol\":4210:4236  monthlyRents[currentMonth] */\n      0x00\n        /* \"contracts/HRSKleros.sol\":4223:4235  currentMonth */\n      sload(0x06)\n        /* \"contracts/HRSKleros.sol\":4210:4236  monthlyRents[currentMonth] */\n      dup2\n      mstore\n      0x20\n      add\n      swap1\n      dup2\n      mstore\n      0x20\n      add\n      0x00\n      keccak256\n        /* \"contracts/HRSKleros.sol\":4210:4246  monthlyRents[currentMonth].utilities */\n      0x01\n      add\n        /* \"contracts/HRSKleros.sol\":4210:4259  monthlyRents[currentMonth].utilities = _utilities */\n      dup2\n      swap1\n      sstore\n      pop\n        /* \"contracts/HRSKleros.sol\":4308:4316  baseRent */\n      sload(0x03)\n        /* \"contracts/HRSKleros.sol\":4270:4282  monthlyRents */\n      0x0e\n        /* \"contracts/HRSKleros.sol\":4270:4296  monthlyRents[currentMonth] */\n      0x00\n        /* \"contracts/HRSKleros.sol\":4283:4295  currentMonth */\n      sload(0x06)\n        /* \"contracts/HRSKleros.sol\":4270:4296  monthlyRents[currentMonth] */\n      dup2\n      mstore\n      0x20\n      add\n      swap1\n      dup2\n      mstore\n      0x20\n      add\n      0x00\n      keccak256\n        /* \"contracts/HRSKleros.sol\":4270:4305  monthlyRents[currentMonth].baseRent */\n      0x00\n      add\n        /* \"contracts/HRSKleros.sol\":4270:4316  monthlyRents[currentMonth].baseRent = baseRent */\n      dup2\n      swap1\n      sstore\n      pop\n        /* \"contracts/HRSKleros.sol\":4332:4375  UtilitiesRecorded(currentMonth, _utilities) */\n      0xf75d23e75691b7209bf24071476b3702a8412a369b26fd3ad012d19630f65a2b\n        /* \"contracts/HRSKleros.sol\":4350:4362  currentMonth */\n      sload(0x06)\n        /* \"contracts/HRSKleros.sol\":4364:4374  _utilities */\n      dup3\n        /* \"contracts/HRSKleros.sol\":4332:4375  UtilitiesRecorded(currentMonth, _utilities) */\n      mload(0x40)\n      tag_336\n      swap3\n      swap2\n      swap1\n      tag_294\n      jump\t// in\n    tag_336:\n      mload(0x40)\n      dup1\n      swap2\n      sub\n      swap1\n      log1\n        /* \"contracts/HRSKleros.sol\":3932:4383  function recordUtilities(uint256 _utilities) external {... */\n      pop\n      jump\t// out\n        /* \"contracts/HRSKleros.sol\":746:782  uint256 public renterCounterEstimate */\n    tag_156:\n      sload(0x09)\n      dup2\n      jump\t// out\n        /* \"contracts/HRSKleros.sol\":647:674  uint256 public currentMonth */\n    tag_160:\n      sload(0x06)\n      dup2\n      jump\t// out\n        /* \"contracts/HRSKleros.sol\":572:605  uint256 public rentPeriodInMonths */\n    tag_164:\n      sload(0x04)\n      dup2\n      jump\t// out\n        /* \"contracts/HRSKleros.sol\":3560:3924  function activateContract() external {... */\n    tag_168:\n        /* \"contracts/HRSKleros.sol\":3630:3638  landlord */\n      0x00\n      dup1\n      sload\n      swap1\n      0x0100\n      exp\n      swap1\n      div\n      0xffffffffffffffffffffffffffffffffffffffff\n      and\n        /* \"contracts/HRSKleros.sol\":3616:3638  msg.sender == landlord */\n      0xffffffffffffffffffffffffffffffffffffffff\n      and\n        /* \"contracts/HRSKleros.sol\":3616:3626  msg.sender */\n      caller\n        /* \"contracts/HRSKleros.sol\":3616:3638  msg.sender == landlord */\n      0xffffffffffffffffffffffffffffffffffffffff\n      and\n      eq\n        /* \"contracts/HRSKleros.sol\":3608:3682  require(msg.sender == landlord, \"Only landlord can activate the contract\") */\n      tag_338\n      jumpi\n      mload(0x40)\n      0x08c379a000000000000000000000000000000000000000000000000000000000\n      dup2\n      mstore\n      0x04\n      add\n      tag_339\n      swap1\n      tag_340\n      jump\t// in\n    tag_339:\n      mload(0x40)\n      dup1\n      swap2\n      sub\n      swap1\n      revert\n    tag_338:\n        /* \"contracts/HRSKleros.sol\":3701:3722  isSecurityDepositPaid */\n      0x0d\n      0x01\n      swap1\n      sload\n      swap1\n      0x0100\n      exp\n      swap1\n      div\n      0xff\n      and\n        /* \"contracts/HRSKleros.sol\":3693:3762  require(isSecurityDepositPaid, \"Security deposit must be paid first\") */\n      tag_341\n      jumpi\n      mload(0x40)\n      0x08c379a000000000000000000000000000000000000000000000000000000000\n      dup2\n      mstore\n      0x04\n      add\n      tag_342\n      swap1\n      tag_343\n      jump\t// in\n    tag_342:\n      mload(0x40)\n      dup1\n      swap2\n      sub\n      swap1\n      revert\n    tag_341:\n        /* \"contracts/HRSKleros.sol\":3782:3790  isActive */\n      0x0d\n      0x00\n      swap1\n      sload\n      swap1\n      0x0100\n      exp\n      swap1\n      div\n      0xff\n      and\n        /* \"contracts/HRSKleros.sol\":3781:3790  !isActive */\n      iszero\n        /* \"contracts/HRSKleros.sol\":3773:3821  require(!isActive, \"Contract is already active\") */\n      tag_344\n      jumpi\n      mload(0x40)\n      0x08c379a000000000000000000000000000000000000000000000000000000000\n      dup2\n      mstore\n      0x04\n      add\n      tag_345\n      swap1\n      tag_314\n      jump\t// in\n    tag_345:\n      mload(0x40)\n      dup1\n      swap2\n      sub\n      swap1\n      revert\n    tag_344:\n        /* \"contracts/HRSKleros.sol\":3843:3847  true */\n      0x01\n        /* \"contracts/HRSKleros.sol\":3832:3840  isActive */\n      0x0d\n      0x00\n        /* \"contracts/HRSKleros.sol\":3832:3847  isActive = true */\n      0x0100\n      exp\n      dup2\n      sload\n      dup2\n      0xff\n      mul\n      not\n      and\n      swap1\n      dup4\n      iszero\n      iszero\n      mul\n      or\n      swap1\n      sstore\n      pop\n        /* \"contracts/HRSKleros.sol\":3874:3889  block.timestamp */\n      timestamp\n        /* \"contracts/HRSKleros.sol\":3858:3871  rentStartDate */\n      0x05\n        /* \"contracts/HRSKleros.sol\":3858:3889  rentStartDate = block.timestamp */\n      dup2\n      swap1\n      sstore\n      pop\n        /* \"contracts/HRSKleros.sol\":3915:3916  1 */\n      0x01\n        /* \"contracts/HRSKleros.sol\":3900:3912  currentMonth */\n      0x06\n        /* \"contracts/HRSKleros.sol\":3900:3916  currentMonth = 1 */\n      dup2\n      swap1\n      sstore\n      pop\n        /* \"contracts/HRSKleros.sol\":3560:3924  function activateContract() external {... */\n      jump\t// out\n        /* \"contracts/HRSKleros.sol\":4391:5522  function payRent() external payable {... */\n    tag_170:\n        /* \"contracts/HRSKleros.sol\":4460:4466  renter */\n      0x01\n      0x00\n      swap1\n      sload\n      swap1\n      0x0100\n      exp\n      swap1\n      div\n      0xffffffffffffffffffffffffffffffffffffffff\n      and\n        /* \"contracts/HRSKleros.sol\":4446:4466  msg.sender == renter */\n      0xffffffffffffffffffffffffffffffffffffffff\n      and\n        /* \"contracts/HRSKleros.sol\":4446:4456  msg.sender */\n      caller\n        /* \"contracts/HRSKleros.sol\":4446:4466  msg.sender == renter */\n      0xffffffffffffffffffffffffffffffffffffffff\n      and\n      eq\n        /* \"contracts/HRSKleros.sol\":4438:4495  require(msg.sender == renter, \"Only renter can pay rent\") */\n      tag_347\n      jumpi\n      mload(0x40)\n      0x08c379a000000000000000000000000000000000000000000000000000000000\n      dup2\n      mstore\n      0x04\n      add\n      tag_348\n      swap1\n      tag_349\n      jump\t// in\n    tag_348:\n      mload(0x40)\n      dup1\n      swap2\n      sub\n      swap1\n      revert\n    tag_347:\n        /* \"contracts/HRSKleros.sol\":4514:4522  isActive */\n      0x0d\n      0x00\n      swap1\n      sload\n      swap1\n      0x0100\n      exp\n      swap1\n      div\n      0xff\n      and\n        /* \"contracts/HRSKleros.sol\":4506:4549  require(isActive, \"Contract is not active\") */\n      tag_350\n      jumpi\n      mload(0x40)\n      0x08c379a000000000000000000000000000000000000000000000000000000000\n      dup2\n      mstore\n      0x04\n      add\n      tag_351\n      swap1\n      tag_244\n      jump\t// in\n    tag_351:\n      mload(0x40)\n      dup1\n      swap2\n      sub\n      swap1\n      revert\n    tag_350:\n        /* \"contracts/HRSKleros.sol\":4584:4602  rentPeriodInMonths */\n      sload(0x04)\n        /* \"contracts/HRSKleros.sol\":4568:4580  currentMonth */\n      sload(0x06)\n        /* \"contracts/HRSKleros.sol\":4568:4602  currentMonth <= rentPeriodInMonths */\n      gt\n      iszero\n        /* \"contracts/HRSKleros.sol\":4560:4628  require(currentMonth <= rentPeriodInMonths, \"Rent period has ended\") */\n      tag_352\n      jumpi\n      mload(0x40)\n      0x08c379a000000000000000000000000000000000000000000000000000000000\n      dup2\n      mstore\n      0x04\n      add\n      tag_353\n      swap1\n      tag_335\n      jump\t// in\n    tag_353:\n      mload(0x40)\n      dup1\n      swap2\n      sub\n      swap1\n      revert\n    tag_352:\n        /* \"contracts/HRSKleros.sol\":4641:4672  MonthlyRent storage currentRent */\n      0x00\n        /* \"contracts/HRSKleros.sol\":4675:4687  monthlyRents */\n      0x0e\n        /* \"contracts/HRSKleros.sol\":4675:4701  monthlyRents[currentMonth] */\n      0x00\n        /* \"contracts/HRSKleros.sol\":4688:4700  currentMonth */\n      sload(0x06)\n        /* \"contracts/HRSKleros.sol\":4675:4701  monthlyRents[currentMonth] */\n      dup2\n      mstore\n      0x20\n      add\n      swap1\n      dup2\n      mstore\n      0x20\n      add\n      0x00\n      keccak256\n        /* \"contracts/HRSKleros.sol\":4641:4701  MonthlyRent storage currentRent = monthlyRents[currentMonth] */\n      swap1\n      pop\n        /* \"contracts/HRSKleros.sol\":4721:4732  currentRent */\n      dup1\n        /* \"contracts/HRSKleros.sol\":4721:4737  currentRent.paid */\n      0x03\n      add\n      0x00\n      swap1\n      sload\n      swap1\n      0x0100\n      exp\n      swap1\n      div\n      0xff\n      and\n        /* \"contracts/HRSKleros.sol\":4720:4737  !currentRent.paid */\n      iszero\n        /* \"contracts/HRSKleros.sol\":4712:4783  require(!currentRent.paid, \"Rent for this month has already been paid\") */\n      tag_354\n      jumpi\n      mload(0x40)\n      0x08c379a000000000000000000000000000000000000000000000000000000000\n      dup2\n      mstore\n      0x04\n      add\n      tag_355\n      swap1\n      tag_356\n      jump\t// in\n    tag_355:\n      mload(0x40)\n      dup1\n      swap2\n      sub\n      swap1\n      revert\n    tag_354:\n        /* \"contracts/HRSKleros.sol\":4826:4827  0 */\n      0x00\n        /* \"contracts/HRSKleros.sol\":4802:4813  currentRent */\n      dup2\n        /* \"contracts/HRSKleros.sol\":4802:4823  currentRent.utilities */\n      0x01\n      add\n      sload\n        /* \"contracts/HRSKleros.sol\":4802:4827  currentRent.utilities > 0 */\n      gt\n        /* \"contracts/HRSKleros.sol\":4794:4879  require(currentRent.utilities > 0, \"Utilities for this month have not been recorded\") */\n      tag_357\n      jumpi\n      mload(0x40)\n      0x08c379a000000000000000000000000000000000000000000000000000000000\n      dup2\n      mstore\n      0x04\n      add\n      tag_358\n      swap1\n      tag_359\n      jump\t// in\n    tag_358:\n      mload(0x40)\n      dup1\n      swap2\n      sub\n      swap1\n      revert\n    tag_357:\n        /* \"contracts/HRSKleros.sol\":4892:4909  uint256 totalRent */\n      0x00\n        /* \"contracts/HRSKleros.sol\":4959:4966  dueRent */\n      sload(0x07)\n        /* \"contracts/HRSKleros.sol\":4935:4946  currentRent */\n      dup3\n        /* \"contracts/HRSKleros.sol\":4935:4956  currentRent.utilities */\n      0x01\n      add\n      sload\n        /* \"contracts/HRSKleros.sol\":4912:4923  currentRent */\n      dup4\n        /* \"contracts/HRSKleros.sol\":4912:4932  currentRent.baseRent */\n      0x00\n      add\n      sload\n        /* \"contracts/HRSKleros.sol\":4912:4956  currentRent.baseRent + currentRent.utilities */\n      tag_360\n      swap2\n      swap1\n      tag_287\n      jump\t// in\n    tag_360:\n        /* \"contracts/HRSKleros.sol\":4912:4966  currentRent.baseRent + currentRent.utilities + dueRent */\n      tag_361\n      swap2\n      swap1\n      tag_287\n      jump\t// in\n    tag_361:\n        /* \"contracts/HRSKleros.sol\":4892:4966  uint256 totalRent = currentRent.baseRent + currentRent.utilities + dueRent */\n      swap1\n      pop\n        /* \"contracts/HRSKleros.sol\":4998:5007  totalRent */\n      dup1\n        /* \"contracts/HRSKleros.sol\":4985:4994  msg.value */\n      callvalue\n        /* \"contracts/HRSKleros.sol\":4985:5007  msg.value == totalRent */\n      eq\n        /* \"contracts/HRSKleros.sol\":4977:5033  require(msg.value == totalRent, \"Incorrect rent amount\") */\n      tag_362\n      jumpi\n      mload(0x40)\n      0x08c379a000000000000000000000000000000000000000000000000000000000\n      dup2\n      mstore\n      0x04\n      add\n      tag_363\n      swap1\n      tag_364\n      jump\t// in\n    tag_363:\n      mload(0x40)\n      dup1\n      swap2\n      sub\n      swap1\n      revert\n    tag_362:\n        /* \"contracts/HRSKleros.sol\":5065:5069  true */\n      0x01\n        /* \"contracts/HRSKleros.sol\":5046:5057  currentRent */\n      dup3\n        /* \"contracts/HRSKleros.sol\":5046:5062  currentRent.paid */\n      0x03\n      add\n      0x00\n        /* \"contracts/HRSKleros.sol\":5046:5069  currentRent.paid = true */\n      0x0100\n      exp\n      dup2\n      sload\n      dup2\n      0xff\n      mul\n      not\n      and\n      swap1\n      dup4\n      iszero\n      iszero\n      mul\n      or\n      swap1\n      sstore\n      pop\n        /* \"contracts/HRSKleros.sol\":5090:5091  0 */\n      0x00\n        /* \"contracts/HRSKleros.sol\":5080:5087  dueRent */\n      0x07\n        /* \"contracts/HRSKleros.sol\":5080:5091  dueRent = 0 */\n      dup2\n      swap1\n      sstore\n      pop\n        /* \"contracts/HRSKleros.sol\":5109:5142  RentPaid(currentMonth, totalRent) */\n      0xa0d112ed080c1b1a94b838ad981a23746be2a4670fd4bf157224e72cdd5dfdde\n        /* \"contracts/HRSKleros.sol\":5118:5130  currentMonth */\n      sload(0x06)\n        /* \"contracts/HRSKleros.sol\":5132:5141  totalRent */\n      dup3\n        /* \"contracts/HRSKleros.sol\":5109:5142  RentPaid(currentMonth, totalRent) */\n      mload(0x40)\n      tag_365\n      swap3\n      swap2\n      swap1\n      tag_294\n      jump\t// in\n    tag_365:\n      mload(0x40)\n      dup1\n      swap2\n      sub\n      swap1\n      log1\n        /* \"contracts/HRSKleros.sol\":5251:5260  totalRent */\n      dup1\n        /* \"contracts/HRSKleros.sol\":5219:5237  pendingWithdrawals */\n      0x0f\n        /* \"contracts/HRSKleros.sol\":5219:5247  pendingWithdrawals[landlord] */\n      0x00\n        /* \"contracts/HRSKleros.sol\":5238:5246  landlord */\n      dup1\n      0x00\n      swap1\n      sload\n      swap1\n      0x0100\n      exp\n      swap1\n      div\n      0xffffffffffffffffffffffffffffffffffffffff\n      and\n        /* \"contracts/HRSKleros.sol\":5219:5247  pendingWithdrawals[landlord] */\n      0xffffffffffffffffffffffffffffffffffffffff\n      and\n      0xffffffffffffffffffffffffffffffffffffffff\n      and\n      dup2\n      mstore\n      0x20\n      add\n      swap1\n      dup2\n      mstore\n      0x20\n      add\n      0x00\n      keccak256\n      0x00\n        /* \"contracts/HRSKleros.sol\":5219:5260  pendingWithdrawals[landlord] += totalRent */\n      dup3\n      dup3\n      sload\n      tag_366\n      swap2\n      swap1\n      tag_287\n      jump\t// in\n    tag_366:\n      swap3\n      pop\n      pop\n      dup2\n      swap1\n      sstore\n      pop\n        /* \"contracts/HRSKleros.sol\":5296:5304  landlord */\n      0x00\n      dup1\n      sload\n      swap1\n      0x0100\n      exp\n      swap1\n      div\n      0xffffffffffffffffffffffffffffffffffffffff\n      and\n        /* \"contracts/HRSKleros.sol\":5276:5316  WithdrawalRequested(landlord, totalRent) */\n      0xffffffffffffffffffffffffffffffffffffffff\n      and\n      0xe670e4e82118d22a1f9ee18920455ebc958bae26a90a05d31d3378788b1b0e44\n        /* \"contracts/HRSKleros.sol\":5306:5315  totalRent */\n      dup3\n        /* \"contracts/HRSKleros.sol\":5276:5316  WithdrawalRequested(landlord, totalRent) */\n      mload(0x40)\n      tag_367\n      swap2\n      swap1\n      tag_65\n      jump\t// in\n    tag_367:\n      mload(0x40)\n      dup1\n      swap2\n      sub\n      swap1\n      log2\n        /* \"contracts/HRSKleros.sol\":5349:5367  rentPeriodInMonths */\n      sload(0x04)\n        /* \"contracts/HRSKleros.sol\":5333:5345  currentMonth */\n      sload(0x06)\n        /* \"contracts/HRSKleros.sol\":5333:5367  currentMonth == rentPeriodInMonths */\n      sub\n        /* \"contracts/HRSKleros.sol\":5329:5515  if (currentMonth == rentPeriodInMonths) {... */\n      tag_368\n      jumpi\n        /* \"contracts/HRSKleros.sol\":5404:5408  true */\n      0x01\n        /* \"contracts/HRSKleros.sol\":5384:5401  rentalPeriodEnded */\n      0x0d\n      0x05\n        /* \"contracts/HRSKleros.sol\":5384:5408  rentalPeriodEnded = true */\n      0x0100\n      exp\n      dup2\n      sload\n      dup2\n      0xff\n      mul\n      not\n      and\n      swap1\n      dup4\n      iszero\n      iszero\n      mul\n      or\n      swap1\n      sstore\n      pop\n        /* \"contracts/HRSKleros.sol\":5329:5515  if (currentMonth == rentPeriodInMonths) {... */\n      jump(tag_369)\n    tag_368:\n        /* \"contracts/HRSKleros.sol\":5489:5501  currentMonth */\n      0x06\n      0x00\n        /* \"contracts/HRSKleros.sol\":5489:5503  currentMonth++ */\n      dup2\n      sload\n      dup1\n      swap3\n      swap2\n      swap1\n      tag_370\n      swap1\n      tag_371\n      jump\t// in\n    tag_370:\n      swap2\n      swap1\n      pop\n      sstore\n      pop\n        /* \"contracts/HRSKleros.sol\":5329:5515  if (currentMonth == rentPeriodInMonths) {... */\n    tag_369:\n        /* \"contracts/HRSKleros.sol\":4427:5522  {... */\n      pop\n      pop\n        /* \"contracts/HRSKleros.sol\":4391:5522  function payRent() external payable {... */\n      jump\t// out\n        /* \"contracts/HRSKleros.sol\":789:813  uint256 public disputeID */\n    tag_173:\n      sload(0x0a)\n      dup2\n      jump\t// out\n        /* \"contracts/HRSKleros.sol\":1000:1028  bool public landlordAccepted */\n    tag_177:\n      0x0d\n      0x03\n      swap1\n      sload\n      swap1\n      0x0100\n      exp\n      swap1\n      div\n      0xff\n      and\n      dup2\n      jump\t// out\n        /* \"contracts/HRSKleros.sol\":7709:8115  function setRenterCounterEstimate(uint256 _renterCounterEstimate) external {... */\n    tag_182:\n        /* \"contracts/HRSKleros.sol\":7817:7823  renter */\n      0x01\n      0x00\n      swap1\n      sload\n      swap1\n      0x0100\n      exp\n      swap1\n      div\n      0xffffffffffffffffffffffffffffffffffffffff\n      and\n        /* \"contracts/HRSKleros.sol\":7803:7823  msg.sender == renter */\n      0xffffffffffffffffffffffffffffffffffffffff\n      and\n        /* \"contracts/HRSKleros.sol\":7803:7813  msg.sender */\n      caller\n        /* \"contracts/HRSKleros.sol\":7803:7823  msg.sender == renter */\n      0xffffffffffffffffffffffffffffffffffffffff\n      and\n      eq\n        /* \"contracts/HRSKleros.sol\":7795:7868  require(msg.sender == renter, \"Only renter can set the counter estimate\") */\n      tag_373\n      jumpi\n      mload(0x40)\n      0x08c379a000000000000000000000000000000000000000000000000000000000\n      dup2\n      mstore\n      0x04\n      add\n      tag_374\n      swap1\n      tag_375\n      jump\t// in\n    tag_374:\n      mload(0x40)\n      dup1\n      swap2\n      sub\n      swap1\n      revert\n    tag_373:\n        /* \"contracts/HRSKleros.sol\":7887:7906  landlordEstimateSet */\n      0x0d\n      0x06\n      swap1\n      sload\n      swap1\n      0x0100\n      exp\n      swap1\n      div\n      0xff\n      and\n        /* \"contracts/HRSKleros.sol\":7879:7950  require(landlordEstimateSet, \"Landlord must set damage estimate first\") */\n      tag_376\n      jumpi\n      mload(0x40)\n      0x08c379a000000000000000000000000000000000000000000000000000000000\n      dup2\n      mstore\n      0x04\n      add\n      tag_377\n      swap1\n      tag_378\n      jump\t// in\n    tag_377:\n      mload(0x40)\n      dup1\n      swap2\n      sub\n      swap1\n      revert\n    tag_376:\n        /* \"contracts/HRSKleros.sol\":7985:8007  _renterCounterEstimate */\n      dup1\n        /* \"contracts/HRSKleros.sol\":7961:7982  renterCounterEstimate */\n      0x09\n        /* \"contracts/HRSKleros.sol\":7961:8007  renterCounterEstimate = _renterCounterEstimate */\n      dup2\n      swap1\n      sstore\n      pop\n        /* \"contracts/HRSKleros.sol\":8045:8049  true */\n      0x01\n        /* \"contracts/HRSKleros.sol\":8018:8042  renterCounterEstimateSet */\n      0x0d\n      0x07\n        /* \"contracts/HRSKleros.sol\":8018:8049  renterCounterEstimateSet = true */\n      0x0100\n      exp\n      dup2\n      sload\n      dup2\n      0xff\n      mul\n      not\n      and\n      swap1\n      dup4\n      iszero\n      iszero\n      mul\n      or\n      swap1\n      sstore\n      pop\n        /* \"contracts/HRSKleros.sol\":8065:8107  CounterEstimateSet(_renterCounterEstimate) */\n      0x0f2792b28c50f2f7eece39e74a2b4f0f1ce15a79acb72dd811686e827aed030b\n        /* \"contracts/HRSKleros.sol\":8084:8106  _renterCounterEstimate */\n      dup2\n        /* \"contracts/HRSKleros.sol\":8065:8107  CounterEstimateSet(_renterCounterEstimate) */\n      mload(0x40)\n      tag_379\n      swap2\n      swap1\n      tag_65\n      jump\t// in\n    tag_379:\n      mload(0x40)\n      dup1\n      swap2\n      sub\n      swap1\n      log1\n        /* \"contracts/HRSKleros.sol\":7709:8115  function setRenterCounterEstimate(uint256 _renterCounterEstimate) external {... */\n      pop\n      jump\t// out\n        /* \"contracts/HRSKleros.sol\":5530:6348  function skipRentPayment() external {... */\n    tag_185:\n        /* \"contracts/HRSKleros.sol\":5599:5605  renter */\n      0x01\n      0x00\n      swap1\n      sload\n      swap1\n      0x0100\n      exp\n      swap1\n      div\n      0xffffffffffffffffffffffffffffffffffffffff\n      and\n        /* \"contracts/HRSKleros.sol\":5585:5605  msg.sender == renter */\n      0xffffffffffffffffffffffffffffffffffffffff\n      and\n        /* \"contracts/HRSKleros.sol\":5585:5595  msg.sender */\n      caller\n        /* \"contracts/HRSKleros.sol\":5585:5605  msg.sender == renter */\n      0xffffffffffffffffffffffffffffffffffffffff\n      and\n      eq\n        /* \"contracts/HRSKleros.sol\":5577:5643  require(msg.sender == renter, \"Only renter can skip rent payment\") */\n      tag_381\n      jumpi\n      mload(0x40)\n      0x08c379a000000000000000000000000000000000000000000000000000000000\n      dup2\n      mstore\n      0x04\n      add\n      tag_382\n      swap1\n      tag_383\n      jump\t// in\n    tag_382:\n      mload(0x40)\n      dup1\n      swap2\n      sub\n      swap1\n      revert\n    tag_381:\n        /* \"contracts/HRSKleros.sol\":5662:5670  isActive */\n      0x0d\n      0x00\n      swap1\n      sload\n      swap1\n      0x0100\n      exp\n      swap1\n      div\n      0xff\n      and\n        /* \"contracts/HRSKleros.sol\":5654:5697  require(isActive, \"Contract is not active\") */\n      tag_384\n      jumpi\n      mload(0x40)\n      0x08c379a000000000000000000000000000000000000000000000000000000000\n      dup2\n      mstore\n      0x04\n      add\n      tag_385\n      swap1\n      tag_244\n      jump\t// in\n    tag_385:\n      mload(0x40)\n      dup1\n      swap2\n      sub\n      swap1\n      revert\n    tag_384:\n        /* \"contracts/HRSKleros.sol\":5732:5750  rentPeriodInMonths */\n      sload(0x04)\n        /* \"contracts/HRSKleros.sol\":5716:5728  currentMonth */\n      sload(0x06)\n        /* \"contracts/HRSKleros.sol\":5716:5750  currentMonth <= rentPeriodInMonths */\n      gt\n      iszero\n        /* \"contracts/HRSKleros.sol\":5708:5776  require(currentMonth <= rentPeriodInMonths, \"Rent period has ended\") */\n      tag_386\n      jumpi\n      mload(0x40)\n      0x08c379a000000000000000000000000000000000000000000000000000000000\n      dup2\n      mstore\n      0x04\n      add\n      tag_387\n      swap1\n      tag_335\n      jump\t// in\n    tag_387:\n      mload(0x40)\n      dup1\n      swap2\n      sub\n      swap1\n      revert\n    tag_386:\n        /* \"contracts/HRSKleros.sol\":5789:5820  MonthlyRent storage currentRent */\n      0x00\n        /* \"contracts/HRSKleros.sol\":5823:5835  monthlyRents */\n      0x0e\n        /* \"contracts/HRSKleros.sol\":5823:5849  monthlyRents[currentMonth] */\n      0x00\n        /* \"contracts/HRSKleros.sol\":5836:5848  currentMonth */\n      sload(0x06)\n        /* \"contracts/HRSKleros.sol\":5823:5849  monthlyRents[currentMonth] */\n      dup2\n      mstore\n      0x20\n      add\n      swap1\n      dup2\n      mstore\n      0x20\n      add\n      0x00\n      keccak256\n        /* \"contracts/HRSKleros.sol\":5789:5849  MonthlyRent storage currentRent = monthlyRents[currentMonth] */\n      swap1\n      pop\n        /* \"contracts/HRSKleros.sol\":5869:5880  currentRent */\n      dup1\n        /* \"contracts/HRSKleros.sol\":5869:5885  currentRent.paid */\n      0x03\n      add\n      0x00\n      swap1\n      sload\n      swap1\n      0x0100\n      exp\n      swap1\n      div\n      0xff\n      and\n        /* \"contracts/HRSKleros.sol\":5868:5885  !currentRent.paid */\n      iszero\n        /* \"contracts/HRSKleros.sol\":5860:5931  require(!currentRent.paid, \"Rent for this month has already been paid\") */\n      tag_388\n      jumpi\n      mload(0x40)\n      0x08c379a000000000000000000000000000000000000000000000000000000000\n      dup2\n      mstore\n      0x04\n      add\n      tag_389\n      swap1\n      tag_356\n      jump\t// in\n    tag_389:\n      mload(0x40)\n      dup1\n      swap2\n      sub\n      swap1\n      revert\n    tag_388:\n        /* \"contracts/HRSKleros.sol\":5974:5975  0 */\n      0x00\n        /* \"contracts/HRSKleros.sol\":5950:5961  currentRent */\n      dup2\n        /* \"contracts/HRSKleros.sol\":5950:5971  currentRent.utilities */\n      0x01\n      add\n      sload\n        /* \"contracts/HRSKleros.sol\":5950:5975  currentRent.utilities > 0 */\n      gt\n        /* \"contracts/HRSKleros.sol\":5942:6027  require(currentRent.utilities > 0, \"Utilities for this month have not been recorded\") */\n      tag_390\n      jumpi\n      mload(0x40)\n      0x08c379a000000000000000000000000000000000000000000000000000000000\n      dup2\n      mstore\n      0x04\n      add\n      tag_391\n      swap1\n      tag_359\n      jump\t// in\n    tag_391:\n      mload(0x40)\n      dup1\n      swap2\n      sub\n      swap1\n      revert\n    tag_390:\n        /* \"contracts/HRSKleros.sol\":6040:6061  uint256 skippedAmount */\n      0x00\n        /* \"contracts/HRSKleros.sol\":6087:6098  currentRent */\n      dup2\n        /* \"contracts/HRSKleros.sol\":6087:6108  currentRent.utilities */\n      0x01\n      add\n      sload\n        /* \"contracts/HRSKleros.sol\":6064:6075  currentRent */\n      dup3\n        /* \"contracts/HRSKleros.sol\":6064:6084  currentRent.baseRent */\n      0x00\n      add\n      sload\n        /* \"contracts/HRSKleros.sol\":6064:6108  currentRent.baseRent + currentRent.utilities */\n      tag_392\n      swap2\n      swap1\n      tag_287\n      jump\t// in\n    tag_392:\n        /* \"contracts/HRSKleros.sol\":6040:6108  uint256 skippedAmount = currentRent.baseRent + currentRent.utilities */\n      swap1\n      pop\n        /* \"contracts/HRSKleros.sol\":6130:6143  skippedAmount */\n      dup1\n        /* \"contracts/HRSKleros.sol\":6119:6126  dueRent */\n      0x07\n      0x00\n        /* \"contracts/HRSKleros.sol\":6119:6143  dueRent += skippedAmount */\n      dup3\n      dup3\n      sload\n      tag_393\n      swap2\n      swap1\n      tag_287\n      jump\t// in\n    tag_393:\n      swap3\n      pop\n      pop\n      dup2\n      swap1\n      sstore\n      pop\n        /* \"contracts/HRSKleros.sol\":6161:6201  RentSkipped(currentMonth, skippedAmount) */\n      0x9ea3a4b65940d7b9dbf8bb1c459ba8e81222d1a596e93fbc364365a6d78e27d6\n        /* \"contracts/HRSKleros.sol\":6173:6185  currentMonth */\n      sload(0x06)\n        /* \"contracts/HRSKleros.sol\":6187:6200  skippedAmount */\n      dup3\n        /* \"contracts/HRSKleros.sol\":6161:6201  RentSkipped(currentMonth, skippedAmount) */\n      mload(0x40)\n      tag_394\n      swap3\n      swap2\n      swap1\n      tag_294\n      jump\t// in\n    tag_394:\n      mload(0x40)\n      dup1\n      swap2\n      sub\n      swap1\n      log1\n        /* \"contracts/HRSKleros.sol\":6234:6252  rentPeriodInMonths */\n      sload(0x04)\n        /* \"contracts/HRSKleros.sol\":6218:6230  currentMonth */\n      sload(0x06)\n        /* \"contracts/HRSKleros.sol\":6218:6252  currentMonth == rentPeriodInMonths */\n      sub\n        /* \"contracts/HRSKleros.sol\":6214:6341  if (currentMonth == rentPeriodInMonths) {... */\n      tag_395\n      jumpi\n        /* \"contracts/HRSKleros.sol\":6269:6282  endContract() */\n      tag_396\n        /* \"contracts/HRSKleros.sol\":6269:6280  endContract */\n      tag_397\n        /* \"contracts/HRSKleros.sol\":6269:6282  endContract() */\n      jump\t// in\n    tag_396:\n        /* \"contracts/HRSKleros.sol\":6214:6341  if (currentMonth == rentPeriodInMonths) {... */\n      jump(tag_398)\n    tag_395:\n        /* \"contracts/HRSKleros.sol\":6315:6327  currentMonth */\n      0x06\n      0x00\n        /* \"contracts/HRSKleros.sol\":6315:6329  currentMonth++ */\n      dup2\n      sload\n      dup1\n      swap3\n      swap2\n      swap1\n      tag_399\n      swap1\n      tag_371\n      jump\t// in\n    tag_399:\n      swap2\n      swap1\n      pop\n      sstore\n      pop\n        /* \"contracts/HRSKleros.sol\":6214:6341  if (currentMonth == rentPeriodInMonths) {... */\n    tag_398:\n        /* \"contracts/HRSKleros.sol\":5566:6348  {... */\n      pop\n      pop\n        /* \"contracts/HRSKleros.sol\":5530:6348  function skipRentPayment() external {... */\n      jump\t// out\n        /* \"contracts/HRSKleros.sol\":12334:12437  function isRentalPeriodEnded() external view returns (bool) {... */\n    tag_188:\n        /* \"contracts/HRSKleros.sol\":12388:12392  bool */\n      0x00\n        /* \"contracts/HRSKleros.sol\":12412:12429  rentalPeriodEnded */\n      0x0d\n      0x05\n      swap1\n      sload\n      swap1\n      0x0100\n      exp\n      swap1\n      div\n      0xff\n      and\n        /* \"contracts/HRSKleros.sol\":12405:12429  return rentalPeriodEnded */\n      swap1\n      pop\n        /* \"contracts/HRSKleros.sol\":12334:12437  function isRentalPeriodEnded() external view returns (bool) {... */\n      swap1\n      jump\t// out\n        /* \"contracts/HRSKleros.sol\":820:857  uint256 public currentSecurityDeposit */\n    tag_192:\n      sload(0x0b)\n      dup2\n      jump\t// out\n        /* \"contracts/HRSKleros.sol\":2710:3180  function setAgreementTerms(uint256 _securityDeposit, uint256 _baseRent, uint256 _rentPeriodInMonths) external {... */\n    tag_198:\n        /* \"contracts/HRSKleros.sol\":2853:2861  landlord */\n      0x00\n      dup1\n      sload\n      swap1\n      0x0100\n      exp\n      swap1\n      div\n      0xffffffffffffffffffffffffffffffffffffffff\n      and\n        /* \"contracts/HRSKleros.sol\":2839:2861  msg.sender == landlord */\n      0xffffffffffffffffffffffffffffffffffffffff\n      and\n        /* \"contracts/HRSKleros.sol\":2839:2849  msg.sender */\n      caller\n        /* \"contracts/HRSKleros.sol\":2839:2861  msg.sender == landlord */\n      0xffffffffffffffffffffffffffffffffffffffff\n      and\n      eq\n        /* \"contracts/HRSKleros.sol\":2831:2903  require(msg.sender == landlord, \"Only landlord can set agreement terms\") */\n      tag_402\n      jumpi\n      mload(0x40)\n      0x08c379a000000000000000000000000000000000000000000000000000000000\n      dup2\n      mstore\n      0x04\n      add\n      tag_403\n      swap1\n      tag_404\n      jump\t// in\n    tag_403:\n      mload(0x40)\n      dup1\n      swap2\n      sub\n      swap1\n      revert\n    tag_402:\n        /* \"contracts/HRSKleros.sol\":2923:2931  isActive */\n      0x0d\n      0x00\n      swap1\n      sload\n      swap1\n      0x0100\n      exp\n      swap1\n      div\n      0xff\n      and\n        /* \"contracts/HRSKleros.sol\":2922:2931  !isActive */\n      iszero\n        /* \"contracts/HRSKleros.sol\":2914:2962  require(!isActive, \"Contract is already active\") */\n      tag_405\n      jumpi\n      mload(0x40)\n      0x08c379a000000000000000000000000000000000000000000000000000000000\n      dup2\n      mstore\n      0x04\n      add\n      tag_406\n      swap1\n      tag_314\n      jump\t// in\n    tag_406:\n      mload(0x40)\n      dup1\n      swap2\n      sub\n      swap1\n      revert\n    tag_405:\n        /* \"contracts/HRSKleros.sol\":2991:3007  _securityDeposit */\n      dup3\n        /* \"contracts/HRSKleros.sol\":2973:2988  securityDeposit */\n      0x02\n        /* \"contracts/HRSKleros.sol\":2973:3007  securityDeposit = _securityDeposit */\n      dup2\n      swap1\n      sstore\n      pop\n        /* \"contracts/HRSKleros.sol\":3029:3038  _baseRent */\n      dup2\n        /* \"contracts/HRSKleros.sol\":3018:3026  baseRent */\n      0x03\n        /* \"contracts/HRSKleros.sol\":3018:3038  baseRent = _baseRent */\n      dup2\n      swap1\n      sstore\n      pop\n        /* \"contracts/HRSKleros.sol\":3070:3089  _rentPeriodInMonths */\n      dup1\n        /* \"contracts/HRSKleros.sol\":3049:3067  rentPeriodInMonths */\n      0x04\n        /* \"contracts/HRSKleros.sol\":3049:3089  rentPeriodInMonths = _rentPeriodInMonths */\n      dup2\n      swap1\n      sstore\n      pop\n        /* \"contracts/HRSKleros.sol\":3105:3172  AgreementTermsSet(_securityDeposit, _baseRent, _rentPeriodInMonths) */\n      0x2f47566d4872826a9750e05ae448ad21f2a677c332d36d6437b697a7f8dd1e14\n        /* \"contracts/HRSKleros.sol\":3123:3139  _securityDeposit */\n      dup4\n        /* \"contracts/HRSKleros.sol\":3141:3150  _baseRent */\n      dup4\n        /* \"contracts/HRSKleros.sol\":3152:3171  _rentPeriodInMonths */\n      dup4\n        /* \"contracts/HRSKleros.sol\":3105:3172  AgreementTermsSet(_securityDeposit, _baseRent, _rentPeriodInMonths) */\n      mload(0x40)\n      tag_407\n      swap4\n      swap3\n      swap2\n      swap1\n      tag_408\n      jump\t// in\n    tag_407:\n      mload(0x40)\n      dup1\n      swap2\n      sub\n      swap1\n      log1\n        /* \"contracts/HRSKleros.sol\":2710:3180  function setAgreementTerms(uint256 _securityDeposit, uint256 _baseRent, uint256 _rentPeriodInMonths) external {... */\n      pop\n      pop\n      pop\n      jump\t// out\n        /* \"contracts/HRSKleros.sol\":447:470  address public landlord */\n    tag_201:\n      0x00\n      dup1\n      sload\n      swap1\n      0x0100\n      exp\n      swap1\n      div\n      0xffffffffffffffffffffffffffffffffffffffff\n      and\n      dup2\n      jump\t// out\n        /* \"contracts/HRSKleros.sol\":7455:7701  function rejectLandlordEstimate() external {... */\n    tag_205:\n        /* \"contracts/HRSKleros.sol\":7531:7537  renter */\n      0x01\n      0x00\n      swap1\n      sload\n      swap1\n      0x0100\n      exp\n      swap1\n      div\n      0xffffffffffffffffffffffffffffffffffffffff\n      and\n        /* \"contracts/HRSKleros.sol\":7517:7537  msg.sender == renter */\n      0xffffffffffffffffffffffffffffffffffffffff\n      and\n        /* \"contracts/HRSKleros.sol\":7517:7527  msg.sender */\n      caller\n        /* \"contracts/HRSKleros.sol\":7517:7537  msg.sender == renter */\n      0xffffffffffffffffffffffffffffffffffffffff\n      and\n      eq\n        /* \"contracts/HRSKleros.sol\":7509:7577  require(msg.sender == renter, \"Only renter can reject the estimate\") */\n      tag_410\n      jumpi\n      mload(0x40)\n      0x08c379a000000000000000000000000000000000000000000000000000000000\n      dup2\n      mstore\n      0x04\n      add\n      tag_411\n      swap1\n      tag_412\n      jump\t// in\n    tag_411:\n      mload(0x40)\n      dup1\n      swap2\n      sub\n      swap1\n      revert\n    tag_410:\n        /* \"contracts/HRSKleros.sol\":7596:7615  landlordEstimateSet */\n      0x0d\n      0x06\n      swap1\n      sload\n      swap1\n      0x0100\n      exp\n      swap1\n      div\n      0xff\n      and\n        /* \"contracts/HRSKleros.sol\":7588:7659  require(landlordEstimateSet, \"Landlord must set damage estimate first\") */\n      tag_413\n      jumpi\n      mload(0x40)\n      0x08c379a000000000000000000000000000000000000000000000000000000000\n      dup2\n      mstore\n      0x04\n      add\n      tag_414\n      swap1\n      tag_378\n      jump\t// in\n    tag_414:\n      mload(0x40)\n      dup1\n      swap2\n      sub\n      swap1\n      revert\n    tag_413:\n        /* \"contracts/HRSKleros.sol\":7675:7693  EstimateRejected() */\n      0x214f96452fc3fdfd5eeafda7f5df5b6066f4f8ac1295fb53cd051491b9b56da3\n      mload(0x40)\n      mload(0x40)\n      dup1\n      swap2\n      sub\n      swap1\n      log1\n        /* \"contracts/HRSKleros.sol\":7455:7701  function rejectLandlordEstimate() external {... */\n      jump\t// out\n        /* \"contracts/HRSKleros.sol\":6845:7447  function acceptLandlordEstimate() external {... */\n    tag_208:\n        /* \"contracts/HRSKleros.sol\":6921:6927  renter */\n      0x01\n      0x00\n      swap1\n      sload\n      swap1\n      0x0100\n      exp\n      swap1\n      div\n      0xffffffffffffffffffffffffffffffffffffffff\n      and\n        /* \"contracts/HRSKleros.sol\":6907:6927  msg.sender == renter */\n      0xffffffffffffffffffffffffffffffffffffffff\n      and\n        /* \"contracts/HRSKleros.sol\":6907:6917  msg.sender */\n      caller\n        /* \"contracts/HRSKleros.sol\":6907:6927  msg.sender == renter */\n      0xffffffffffffffffffffffffffffffffffffffff\n      and\n      eq\n        /* \"contracts/HRSKleros.sol\":6899:6967  require(msg.sender == renter, \"Only renter can accept the estimate\") */\n      tag_416\n      jumpi\n      mload(0x40)\n      0x08c379a000000000000000000000000000000000000000000000000000000000\n      dup2\n      mstore\n      0x04\n      add\n      tag_417\n      swap1\n      tag_418\n      jump\t// in\n    tag_417:\n      mload(0x40)\n      dup1\n      swap2\n      sub\n      swap1\n      revert\n    tag_416:\n        /* \"contracts/HRSKleros.sol\":6986:7005  landlordEstimateSet */\n      0x0d\n      0x06\n      swap1\n      sload\n      swap1\n      0x0100\n      exp\n      swap1\n      div\n      0xff\n      and\n        /* \"contracts/HRSKleros.sol\":6978:7049  require(landlordEstimateSet, \"Landlord must set damage estimate first\") */\n      tag_419\n      jumpi\n      mload(0x40)\n      0x08c379a000000000000000000000000000000000000000000000000000000000\n      dup2\n      mstore\n      0x04\n      add\n      tag_420\n      swap1\n      tag_378\n      jump\t// in\n    tag_420:\n      mload(0x40)\n      dup1\n      swap2\n      sub\n      swap1\n      revert\n    tag_419:\n        /* \"contracts/HRSKleros.sol\":7060:7080  uint256 damageAmount */\n      0x00\n        /* \"contracts/HRSKleros.sol\":7100:7115  securityDeposit */\n      sload(0x02)\n        /* \"contracts/HRSKleros.sol\":7083:7097  damageEstimate */\n      sload(0x08)\n        /* \"contracts/HRSKleros.sol\":7083:7115  damageEstimate < securityDeposit */\n      lt\n        /* \"contracts/HRSKleros.sol\":7083:7150  damageEstimate < securityDeposit ? damageEstimate : securityDeposit */\n      tag_421\n      jumpi\n        /* \"contracts/HRSKleros.sol\":7135:7150  securityDeposit */\n      sload(0x02)\n        /* \"contracts/HRSKleros.sol\":7083:7150  damageEstimate < securityDeposit ? damageEstimate : securityDeposit */\n      jump(tag_422)\n    tag_421:\n        /* \"contracts/HRSKleros.sol\":7118:7132  damageEstimate */\n      sload(0x08)\n        /* \"contracts/HRSKleros.sol\":7083:7150  damageEstimate < securityDeposit ? damageEstimate : securityDeposit */\n    tag_422:\n        /* \"contracts/HRSKleros.sol\":7060:7150  uint256 damageAmount = damageEstimate < securityDeposit ? damageEstimate : securityDeposit */\n      swap1\n      pop\n        /* \"contracts/HRSKleros.sol\":7193:7205  damageAmount */\n      dup1\n        /* \"contracts/HRSKleros.sol\":7161:7179  pendingWithdrawals */\n      0x0f\n        /* \"contracts/HRSKleros.sol\":7161:7189  pendingWithdrawals[landlord] */\n      0x00\n        /* \"contracts/HRSKleros.sol\":7180:7188  landlord */\n      dup1\n      0x00\n      swap1\n      sload\n      swap1\n      0x0100\n      exp\n      swap1\n      div\n      0xffffffffffffffffffffffffffffffffffffffff\n      and\n        /* \"contracts/HRSKleros.sol\":7161:7189  pendingWithdrawals[landlord] */\n      0xffffffffffffffffffffffffffffffffffffffff\n      and\n      0xffffffffffffffffffffffffffffffffffffffff\n      and\n      dup2\n      mstore\n      0x20\n      add\n      swap1\n      dup2\n      mstore\n      0x20\n      add\n      0x00\n      keccak256\n      0x00\n        /* \"contracts/HRSKleros.sol\":7161:7205  pendingWithdrawals[landlord] += damageAmount */\n      dup3\n      dup3\n      sload\n      tag_423\n      swap2\n      swap1\n      tag_287\n      jump\t// in\n    tag_423:\n      swap3\n      pop\n      pop\n      dup2\n      swap1\n      sstore\n      pop\n        /* \"contracts/HRSKleros.sol\":7265:7277  damageAmount */\n      dup1\n        /* \"contracts/HRSKleros.sol\":7247:7262  securityDeposit */\n      sload(0x02)\n        /* \"contracts/HRSKleros.sol\":7247:7277  securityDeposit - damageAmount */\n      tag_424\n      swap2\n      swap1\n      tag_263\n      jump\t// in\n    tag_424:\n        /* \"contracts/HRSKleros.sol\":7216:7234  pendingWithdrawals */\n      0x0f\n        /* \"contracts/HRSKleros.sol\":7216:7242  pendingWithdrawals[renter] */\n      0x00\n        /* \"contracts/HRSKleros.sol\":7235:7241  renter */\n      0x01\n      0x00\n      swap1\n      sload\n      swap1\n      0x0100\n      exp\n      swap1\n      div\n      0xffffffffffffffffffffffffffffffffffffffff\n      and\n        /* \"contracts/HRSKleros.sol\":7216:7242  pendingWithdrawals[renter] */\n      0xffffffffffffffffffffffffffffffffffffffff\n      and\n      0xffffffffffffffffffffffffffffffffffffffff\n      and\n      dup2\n      mstore\n      0x20\n      add\n      swap1\n      dup2\n      mstore\n      0x20\n      add\n      0x00\n      keccak256\n      0x00\n        /* \"contracts/HRSKleros.sol\":7216:7278  pendingWithdrawals[renter] += (securityDeposit - damageAmount) */\n      dup3\n      dup3\n      sload\n      tag_425\n      swap2\n      swap1\n      tag_287\n      jump\t// in\n    tag_425:\n      swap3\n      pop\n      pop\n      dup2\n      swap1\n      sstore\n      pop\n        /* \"contracts/HRSKleros.sol\":7314:7322  landlord */\n      0x00\n      dup1\n      sload\n      swap1\n      0x0100\n      exp\n      swap1\n      div\n      0xffffffffffffffffffffffffffffffffffffffff\n      and\n        /* \"contracts/HRSKleros.sol\":7294:7337  WithdrawalRequested(landlord, damageAmount) */\n      0xffffffffffffffffffffffffffffffffffffffff\n      and\n      0xe670e4e82118d22a1f9ee18920455ebc958bae26a90a05d31d3378788b1b0e44\n        /* \"contracts/HRSKleros.sol\":7324:7336  damageAmount */\n      dup3\n        /* \"contracts/HRSKleros.sol\":7294:7337  WithdrawalRequested(landlord, damageAmount) */\n      mload(0x40)\n      tag_426\n      swap2\n      swap1\n      tag_65\n      jump\t// in\n    tag_426:\n      mload(0x40)\n      dup1\n      swap2\n      sub\n      swap1\n      log2\n        /* \"contracts/HRSKleros.sol\":7373:7379  renter */\n      0x01\n      0x00\n      swap1\n      sload\n      swap1\n      0x0100\n      exp\n      swap1\n      div\n      0xffffffffffffffffffffffffffffffffffffffff\n      and\n        /* \"contracts/HRSKleros.sol\":7353:7412  WithdrawalRequested(renter, securityDeposit - damageAmount) */\n      0xffffffffffffffffffffffffffffffffffffffff\n      and\n      0xe670e4e82118d22a1f9ee18920455ebc958bae26a90a05d31d3378788b1b0e44\n        /* \"contracts/HRSKleros.sol\":7399:7411  damageAmount */\n      dup3\n        /* \"contracts/HRSKleros.sol\":7381:7396  securityDeposit */\n      sload(0x02)\n        /* \"contracts/HRSKleros.sol\":7381:7411  securityDeposit - damageAmount */\n      tag_427\n      swap2\n      swap1\n      tag_263\n      jump\t// in\n    tag_427:\n        /* \"contracts/HRSKleros.sol\":7353:7412  WithdrawalRequested(renter, securityDeposit - damageAmount) */\n      mload(0x40)\n      tag_428\n      swap2\n      swap1\n      tag_65\n      jump\t// in\n    tag_428:\n      mload(0x40)\n      dup1\n      swap2\n      sub\n      swap1\n      log2\n        /* \"contracts/HRSKleros.sol\":7434:7439  false */\n      0x00\n        /* \"contracts/HRSKleros.sol\":7423:7431  isActive */\n      0x0d\n      0x00\n        /* \"contracts/HRSKleros.sol\":7423:7439  isActive = false */\n      0x0100\n      exp\n      dup2\n      sload\n      dup2\n      0xff\n      mul\n      not\n      and\n      swap1\n      dup4\n      iszero\n      iszero\n      mul\n      or\n      swap1\n      sstore\n      pop\n        /* \"contracts/HRSKleros.sol\":6888:7447  {... */\n      pop\n        /* \"contracts/HRSKleros.sol\":6845:7447  function acceptLandlordEstimate() external {... */\n      jump\t// out\n        /* \"contracts/HRSKleros.sol\":1353:1404  mapping(uint256 => MonthlyRent) public monthlyRents */\n    tag_212:\n      mstore(0x20, 0x0e)\n      dup1\n      0x00\n      mstore\n      keccak256(0x00, 0x40)\n      0x00\n      swap2\n      pop\n      swap1\n      pop\n      dup1\n      0x00\n      add\n      sload\n      swap1\n      dup1\n      0x01\n      add\n      sload\n      swap1\n      dup1\n      0x02\n      add\n      sload\n      swap1\n      dup1\n      0x03\n      add\n      0x00\n      swap1\n      sload\n      swap1\n      0x0100\n      exp\n      swap1\n      div\n      0xff\n      and\n      swap1\n      pop\n      dup5\n      jump\t// out\n        /* \"contracts/HRSKleros.sol\":8123:8801  function acceptRenterCounterEstimate() external {... */\n    tag_217:\n        /* \"contracts/HRSKleros.sol\":8204:8212  landlord */\n      0x00\n      dup1\n      sload\n      swap1\n      0x0100\n      exp\n      swap1\n      div\n      0xffffffffffffffffffffffffffffffffffffffff\n      and\n        /* \"contracts/HRSKleros.sol\":8190:8212  msg.sender == landlord */\n      0xffffffffffffffffffffffffffffffffffffffff\n      and\n        /* \"contracts/HRSKleros.sol\":8190:8200  msg.sender */\n      caller\n        /* \"contracts/HRSKleros.sol\":8190:8212  msg.sender == landlord */\n      0xffffffffffffffffffffffffffffffffffffffff\n      and\n      eq\n        /* \"contracts/HRSKleros.sol\":8182:8262  require(msg.sender == landlord, \"Only landlord can accept the counter estimate\") */\n      tag_430\n      jumpi\n      mload(0x40)\n      0x08c379a000000000000000000000000000000000000000000000000000000000\n      dup2\n      mstore\n      0x04\n      add\n      tag_431\n      swap1\n      tag_432\n      jump\t// in\n    tag_431:\n      mload(0x40)\n      dup1\n      swap2\n      sub\n      swap1\n      revert\n    tag_430:\n        /* \"contracts/HRSKleros.sol\":8281:8305  renterCounterEstimateSet */\n      0x0d\n      0x07\n      swap1\n      sload\n      swap1\n      0x0100\n      exp\n      swap1\n      div\n      0xff\n      and\n        /* \"contracts/HRSKleros.sol\":8273:8348  require(renterCounterEstimateSet, \"Renter must set counter estimate first\") */\n      tag_433\n      jumpi\n      mload(0x40)\n      0x08c379a000000000000000000000000000000000000000000000000000000000\n      dup2\n      mstore\n      0x04\n      add\n      tag_434\n      swap1\n      tag_252\n      jump\t// in\n    tag_434:\n      mload(0x40)\n      dup1\n      swap2\n      sub\n      swap1\n      revert\n    tag_433:\n        /* \"contracts/HRSKleros.sol\":8359:8379  uint256 damageAmount */\n      0x00\n        /* \"contracts/HRSKleros.sol\":8406:8421  securityDeposit */\n      sload(0x02)\n        /* \"contracts/HRSKleros.sol\":8382:8403  renterCounterEstimate */\n      sload(0x09)\n        /* \"contracts/HRSKleros.sol\":8382:8421  renterCounterEstimate < securityDeposit */\n      lt\n        /* \"contracts/HRSKleros.sol\":8382:8463  renterCounterEstimate < securityDeposit ? renterCounterEstimate : securityDeposit */\n      tag_435\n      jumpi\n        /* \"contracts/HRSKleros.sol\":8448:8463  securityDeposit */\n      sload(0x02)\n        /* \"contracts/HRSKleros.sol\":8382:8463  renterCounterEstimate < securityDeposit ? renterCounterEstimate : securityDeposit */\n      jump(tag_436)\n    tag_435:\n        /* \"contracts/HRSKleros.sol\":8424:8445  renterCounterEstimate */\n      sload(0x09)\n        /* \"contracts/HRSKleros.sol\":8382:8463  renterCounterEstimate < securityDeposit ? renterCounterEstimate : securityDeposit */\n    tag_436:\n        /* \"contracts/HRSKleros.sol\":8359:8463  uint256 damageAmount = renterCounterEstimate < securityDeposit ? renterCounterEstimate : securityDeposit */\n      swap1\n      pop\n        /* \"contracts/HRSKleros.sol\":8506:8518  damageAmount */\n      dup1\n        /* \"contracts/HRSKleros.sol\":8474:8492  pendingWithdrawals */\n      0x0f\n        /* \"contracts/HRSKleros.sol\":8474:8502  pendingWithdrawals[landlord] */\n      0x00\n        /* \"contracts/HRSKleros.sol\":8493:8501  landlord */\n      dup1\n      0x00\n      swap1\n      sload\n      swap1\n      0x0100\n      exp\n      swap1\n      div\n      0xffffffffffffffffffffffffffffffffffffffff\n      and\n        /* \"contracts/HRSKleros.sol\":8474:8502  pendingWithdrawals[landlord] */\n      0xffffffffffffffffffffffffffffffffffffffff\n      and\n      0xffffffffffffffffffffffffffffffffffffffff\n      and\n      dup2\n      mstore\n      0x20\n      add\n      swap1\n      dup2\n      mstore\n      0x20\n      add\n      0x00\n      keccak256\n      0x00\n        /* \"contracts/HRSKleros.sol\":8474:8518  pendingWithdrawals[landlord] += damageAmount */\n      dup3\n      dup3\n      sload\n      tag_437\n      swap2\n      swap1\n      tag_287\n      jump\t// in\n    tag_437:\n      swap3\n      pop\n      pop\n      dup2\n      swap1\n      sstore\n      pop\n        /* \"contracts/HRSKleros.sol\":8578:8590  damageAmount */\n      dup1\n        /* \"contracts/HRSKleros.sol\":8560:8575  securityDeposit */\n      sload(0x02)\n        /* \"contracts/HRSKleros.sol\":8560:8590  securityDeposit - damageAmount */\n      tag_438\n      swap2\n      swap1\n      tag_263\n      jump\t// in\n    tag_438:\n        /* \"contracts/HRSKleros.sol\":8529:8547  pendingWithdrawals */\n      0x0f\n        /* \"contracts/HRSKleros.sol\":8529:8555  pendingWithdrawals[renter] */\n      0x00\n        /* \"contracts/HRSKleros.sol\":8548:8554  renter */\n      0x01\n      0x00\n      swap1\n      sload\n      swap1\n      0x0100\n      exp\n      swap1\n      div\n      0xffffffffffffffffffffffffffffffffffffffff\n      and\n        /* \"contracts/HRSKleros.sol\":8529:8555  pendingWithdrawals[renter] */\n      0xffffffffffffffffffffffffffffffffffffffff\n      and\n      0xffffffffffffffffffffffffffffffffffffffff\n      and\n      dup2\n      mstore\n      0x20\n      add\n      swap1\n      dup2\n      mstore\n      0x20\n      add\n      0x00\n      keccak256\n      0x00\n        /* \"contracts/HRSKleros.sol\":8529:8591  pendingWithdrawals[renter] += (securityDeposit - damageAmount) */\n      dup3\n      dup3\n      sload\n      tag_439\n      swap2\n      swap1\n      tag_287\n      jump\t// in\n    tag_439:\n      swap3\n      pop\n      pop\n      dup2\n      swap1\n      sstore\n      pop\n        /* \"contracts/HRSKleros.sol\":8627:8635  landlord */\n      0x00\n      dup1\n      sload\n      swap1\n      0x0100\n      exp\n      swap1\n      div\n      0xffffffffffffffffffffffffffffffffffffffff\n      and\n        /* \"contracts/HRSKleros.sol\":8607:8650  WithdrawalRequested(landlord, damageAmount) */\n      0xffffffffffffffffffffffffffffffffffffffff\n      and\n      0xe670e4e82118d22a1f9ee18920455ebc958bae26a90a05d31d3378788b1b0e44\n        /* \"contracts/HRSKleros.sol\":8637:8649  damageAmount */\n      dup3\n        /* \"contracts/HRSKleros.sol\":8607:8650  WithdrawalRequested(landlord, damageAmount) */\n      mload(0x40)\n      tag_440\n      swap2\n      swap1\n      tag_65\n      jump\t// in\n    tag_440:\n      mload(0x40)\n      dup1\n      swap2\n      sub\n      swap1\n      log2\n        /* \"contracts/HRSKleros.sol\":8686:8692  renter */\n      0x01\n      0x00\n      swap1\n      sload\n      swap1\n      0x0100\n      exp\n      swap1\n      div\n      0xffffffffffffffffffffffffffffffffffffffff\n      and\n        /* \"contracts/HRSKleros.sol\":8666:8725  WithdrawalRequested(renter, securityDeposit - damageAmount) */\n      0xffffffffffffffffffffffffffffffffffffffff\n      and\n      0xe670e4e82118d22a1f9ee18920455ebc958bae26a90a05d31d3378788b1b0e44\n        /* \"contracts/HRSKleros.sol\":8712:8724  damageAmount */\n      dup3\n        /* \"contracts/HRSKleros.sol\":8694:8709  securityDeposit */\n      sload(0x02)\n        /* \"contracts/HRSKleros.sol\":8694:8724  securityDeposit - damageAmount */\n      tag_441\n      swap2\n      swap1\n      tag_263\n      jump\t// in\n    tag_441:\n        /* \"contracts/HRSKleros.sol\":8666:8725  WithdrawalRequested(renter, securityDeposit - damageAmount) */\n      mload(0x40)\n      tag_442\n      swap2\n      swap1\n      tag_65\n      jump\t// in\n    tag_442:\n      mload(0x40)\n      dup1\n      swap2\n      sub\n      swap1\n      log2\n        /* \"contracts/HRSKleros.sol\":8747:8752  false */\n      0x00\n        /* \"contracts/HRSKleros.sol\":8736:8744  isActive */\n      0x0d\n      0x00\n        /* \"contracts/HRSKleros.sol\":8736:8752  isActive = false */\n      0x0100\n      exp\n      dup2\n      sload\n      dup2\n      0xff\n      mul\n      not\n      and\n      swap1\n      dup4\n      iszero\n      iszero\n      mul\n      or\n      swap1\n      sstore\n      pop\n        /* \"contracts/HRSKleros.sol\":8768:8793  CounterEstimateAccepted() */\n      0xb48ea00bbdfbf40407eead0ea969ce425a746b5692554310f811ee7d0e36f385\n      mload(0x40)\n      mload(0x40)\n      dup1\n      swap2\n      sub\n      swap1\n      log1\n        /* \"contracts/HRSKleros.sol\":8171:8801  {... */\n      pop\n        /* \"contracts/HRSKleros.sol\":8123:8801  function acceptRenterCounterEstimate() external {... */\n      jump\t// out\n        /* \"contracts/HRSKleros.sol\":928:961  bool public isSecurityDepositPaid */\n    tag_220:\n      0x0d\n      0x01\n      swap1\n      sload\n      swap1\n      0x0100\n      exp\n      swap1\n      div\n      0xff\n      and\n      dup2\n      jump\t// out\n        /* \"contracts/HRSKleros.sol\":1411:1464  mapping(address => uint256) public pendingWithdrawals */\n    tag_226:\n      mstore(0x20, 0x0f)\n      dup1\n      0x00\n      mstore\n      keccak256(0x00, 0x40)\n      0x00\n      swap2\n      pop\n      swap1\n      pop\n      sload\n      dup2\n      jump\t// out\n        /* \"contracts/HRSKleros.sol\":11383:11499  function getLandlordBalance() external view returns (uint256) {... */\n    tag_230:\n        /* \"contracts/HRSKleros.sol\":11436:11443  uint256 */\n      0x00\n        /* \"contracts/HRSKleros.sol\":11463:11481  pendingWithdrawals */\n      0x0f\n        /* \"contracts/HRSKleros.sol\":11463:11491  pendingWithdrawals[landlord] */\n      0x00\n        /* \"contracts/HRSKleros.sol\":11482:11490  landlord */\n      dup1\n      0x00\n      swap1\n      sload\n      swap1\n      0x0100\n      exp\n      swap1\n      div\n      0xffffffffffffffffffffffffffffffffffffffff\n      and\n        /* \"contracts/HRSKleros.sol\":11463:11491  pendingWithdrawals[landlord] */\n      0xffffffffffffffffffffffffffffffffffffffff\n      and\n      0xffffffffffffffffffffffffffffffffffffffff\n      and\n      dup2\n      mstore\n      0x20\n      add\n      swap1\n      dup2\n      mstore\n      0x20\n      add\n      0x00\n      keccak256\n      sload\n        /* \"contracts/HRSKleros.sol\":11456:11491  return pendingWithdrawals[landlord] */\n      swap1\n      pop\n        /* \"contracts/HRSKleros.sol\":11383:11499  function getLandlordBalance() external view returns (uint256) {... */\n      swap1\n      jump\t// out\n        /* \"contracts/HRSKleros.sol\":9364:9741  function raiseDispute() private {... */\n    tag_265:\n        /* \"contracts/HRSKleros.sol\":9416:9429  disputeRaised */\n      0x0d\n      0x02\n      swap1\n      sload\n      swap1\n      0x0100\n      exp\n      swap1\n      div\n      0xff\n      and\n        /* \"contracts/HRSKleros.sol\":9415:9429  !disputeRaised */\n      iszero\n        /* \"contracts/HRSKleros.sol\":9407:9456  require(!disputeRaised, \"Dispute already raised\") */\n      tag_445\n      jumpi\n      mload(0x40)\n      0x08c379a000000000000000000000000000000000000000000000000000000000\n      dup2\n      mstore\n      0x04\n      add\n      tag_446\n      swap1\n      tag_447\n      jump\t// in\n    tag_446:\n      mload(0x40)\n      dup1\n      swap2\n      sub\n      swap1\n      revert\n    tag_445:\n        /* \"contracts/HRSKleros.sol\":9475:9494  landlordEstimateSet */\n      0x0d\n      0x06\n      swap1\n      sload\n      swap1\n      0x0100\n      exp\n      swap1\n      div\n      0xff\n      and\n        /* \"contracts/HRSKleros.sol\":9475:9522  landlordEstimateSet && renterCounterEstimateSet */\n      dup1\n      iszero\n      tag_448\n      jumpi\n      pop\n        /* \"contracts/HRSKleros.sol\":9498:9522  renterCounterEstimateSet */\n      0x0d\n      0x07\n      swap1\n      sload\n      swap1\n      0x0100\n      exp\n      swap1\n      div\n      0xff\n      and\n        /* \"contracts/HRSKleros.sol\":9475:9522  landlordEstimateSet && renterCounterEstimateSet */\n    tag_448:\n        /* \"contracts/HRSKleros.sol\":9467:9578  require(landlordEstimateSet && renterCounterEstimateSet, \"Both estimates must be set before raising a dispute\") */\n      tag_449\n      jumpi\n      mload(0x40)\n      0x08c379a000000000000000000000000000000000000000000000000000000000\n      dup2\n      mstore\n      0x04\n      add\n      tag_450\n      swap1\n      tag_451\n      jump\t// in\n    tag_450:\n      mload(0x40)\n      dup1\n      swap2\n      sub\n      swap1\n      revert\n    tag_449:\n        /* \"contracts/HRSKleros.sol\":9611:9617  kleros */\n      0x0d\n      0x08\n      swap1\n      sload\n      swap1\n      0x0100\n      exp\n      swap1\n      div\n      0xffffffffffffffffffffffffffffffffffffffff\n      and\n        /* \"contracts/HRSKleros.sol\":9611:9631  kleros.createDispute */\n      0xffffffffffffffffffffffffffffffffffffffff\n      and\n      0xc13517e1\n        /* \"contracts/HRSKleros.sol\":9639:9654  arbitrationCost */\n      sload(0x0c)\n        /* \"contracts/HRSKleros.sol\":9656:9657  2 */\n      0x02\n        /* \"contracts/HRSKleros.sol\":9611:9662  kleros.createDispute{value: arbitrationCost}(2, \"\") */\n      mload(0x40)\n      dup4\n      0xffffffff\n      and\n      0xe0\n      shl\n      dup2\n      mstore\n      0x04\n      add\n      tag_452\n      swap2\n      swap1\n      tag_453\n      jump\t// in\n    tag_452:\n      0x20\n      mload(0x40)\n      dup1\n      dup4\n      sub\n      dup2\n      dup6\n      dup9\n      gas\n      call\n      iszero\n      dup1\n      iszero\n      tag_455\n      jumpi\n      returndatasize\n      0x00\n      dup1\n      returndatacopy\n      revert(0x00, returndatasize)\n    tag_455:\n      pop\n      pop\n      pop\n      pop\n      pop\n      mload(0x40)\n      returndatasize\n      not(0x1f)\n      0x1f\n      dup3\n      add\n      and\n      dup3\n      add\n      dup1\n      0x40\n      mstore\n      pop\n      dup2\n      add\n      swap1\n      tag_456\n      swap2\n      swap1\n      tag_258\n      jump\t// in\n    tag_456:\n        /* \"contracts/HRSKleros.sol\":9599:9608  disputeID */\n      0x0a\n        /* \"contracts/HRSKleros.sol\":9599:9662  disputeID = kleros.createDispute{value: arbitrationCost}(2, \"\") */\n      dup2\n      swap1\n      sstore\n      pop\n        /* \"contracts/HRSKleros.sol\":9689:9693  true */\n      0x01\n        /* \"contracts/HRSKleros.sol\":9673:9686  disputeRaised */\n      0x0d\n      0x02\n        /* \"contracts/HRSKleros.sol\":9673:9693  disputeRaised = true */\n      0x0100\n      exp\n      dup2\n      sload\n      dup2\n      0xff\n      mul\n      not\n      and\n      swap1\n      dup4\n      iszero\n      iszero\n      mul\n      or\n      swap1\n      sstore\n      pop\n        /* \"contracts/HRSKleros.sol\":9709:9733  DisputeRaised(disputeID) */\n      0x04901f83201c8724eadf084436db8aa391820bae6d11f9f78a17edb6f2eef3cf\n        /* \"contracts/HRSKleros.sol\":9723:9732  disputeID */\n      sload(0x0a)\n        /* \"contracts/HRSKleros.sol\":9709:9733  DisputeRaised(disputeID) */\n      mload(0x40)\n      tag_457\n      swap2\n      swap1\n      tag_65\n      jump\t// in\n    tag_457:\n      mload(0x40)\n      dup1\n      swap2\n      sub\n      swap1\n      log1\n        /* \"contracts/HRSKleros.sol\":9364:9741  function raiseDispute() private {... */\n      jump\t// out\n        /* \"contracts/HRSKleros.sol\":11627:12209  function endContract() private {... */\n    tag_397:\n        /* \"contracts/HRSKleros.sol\":11680:11685  false */\n      0x00\n        /* \"contracts/HRSKleros.sol\":11669:11677  isActive */\n      0x0d\n      0x00\n        /* \"contracts/HRSKleros.sol\":11669:11685  isActive = false */\n      0x0100\n      exp\n      dup2\n      sload\n      dup2\n      0xff\n      mul\n      not\n      and\n      swap1\n      dup4\n      iszero\n      iszero\n      mul\n      or\n      swap1\n      sstore\n      pop\n        /* \"contracts/HRSKleros.sol\":11696:11713  uint256 dueAmount */\n      0x00\n        /* \"contracts/HRSKleros.sol\":11716:11723  dueRent */\n      sload(0x07)\n        /* \"contracts/HRSKleros.sol\":11696:11723  uint256 dueAmount = dueRent */\n      swap1\n      pop\n        /* \"contracts/HRSKleros.sol\":11734:11748  uint256 refund */\n      0x00\n        /* \"contracts/HRSKleros.sol\":11781:11782  0 */\n      dup1\n        /* \"contracts/HRSKleros.sol\":11769:11778  dueAmount */\n      dup3\n        /* \"contracts/HRSKleros.sol\":11769:11782  dueAmount > 0 */\n      gt\n        /* \"contracts/HRSKleros.sol\":11765:12065  if (dueAmount > 0) {... */\n      iszero\n      tag_459\n      jumpi\n        /* \"contracts/HRSKleros.sol\":11815:11830  securityDeposit */\n      sload(0x02)\n        /* \"contracts/HRSKleros.sol\":11803:11812  dueAmount */\n      dup3\n        /* \"contracts/HRSKleros.sol\":11803:11830  dueAmount > securityDeposit */\n      gt\n        /* \"contracts/HRSKleros.sol\":11799:11894  if (dueAmount > securityDeposit) {... */\n      iszero\n      tag_460\n      jumpi\n        /* \"contracts/HRSKleros.sol\":11863:11878  securityDeposit */\n      sload(0x02)\n        /* \"contracts/HRSKleros.sol\":11851:11878  dueAmount = securityDeposit */\n      swap2\n      pop\n        /* \"contracts/HRSKleros.sol\":11799:11894  if (dueAmount > securityDeposit) {... */\n    tag_460:\n        /* \"contracts/HRSKleros.sol\":11916:11924  landlord */\n      0x00\n      dup1\n      sload\n      swap1\n      0x0100\n      exp\n      swap1\n      div\n      0xffffffffffffffffffffffffffffffffffffffff\n      and\n        /* \"contracts/HRSKleros.sol\":11908:11934  payable(landlord).transfer */\n      0xffffffffffffffffffffffffffffffffffffffff\n      and\n        /* \"contracts/HRSKleros.sol\":11908:11945  payable(landlord).transfer(dueAmount) */\n      0x08fc\n        /* \"contracts/HRSKleros.sol\":11935:11944  dueAmount */\n      dup4\n        /* \"contracts/HRSKleros.sol\":11908:11945  payable(landlord).transfer(dueAmount) */\n      swap1\n      dup2\n      iszero\n      mul\n      swap1\n      mload(0x40)\n      0x00\n      mload(0x40)\n      dup1\n      dup4\n      sub\n      dup2\n      dup6\n      dup9\n      dup9\n      call\n      swap4\n      pop\n      pop\n      pop\n      pop\n      iszero\n      dup1\n      iszero\n      tag_462\n      jumpi\n      returndatasize\n      0x00\n      dup1\n      returndatacopy\n      revert(0x00, returndatasize)\n    tag_462:\n      pop\n        /* \"contracts/HRSKleros.sol\":11987:11996  dueAmount */\n      dup2\n        /* \"contracts/HRSKleros.sol\":11969:11984  securityDeposit */\n      sload(0x02)\n        /* \"contracts/HRSKleros.sol\":11969:11996  securityDeposit - dueAmount */\n      tag_463\n      swap2\n      swap1\n      tag_263\n      jump\t// in\n    tag_463:\n        /* \"contracts/HRSKleros.sol\":11960:11996  refund = securityDeposit - dueAmount */\n      swap1\n      pop\n        /* \"contracts/HRSKleros.sol\":11765:12065  if (dueAmount > 0) {... */\n      jump(tag_464)\n    tag_459:\n        /* \"contracts/HRSKleros.sol\":12038:12053  securityDeposit */\n      sload(0x02)\n        /* \"contracts/HRSKleros.sol\":12029:12053  refund = securityDeposit */\n      swap1\n      pop\n        /* \"contracts/HRSKleros.sol\":11765:12065  if (dueAmount > 0) {... */\n    tag_464:\n        /* \"contracts/HRSKleros.sol\":12090:12091  0 */\n      0x00\n        /* \"contracts/HRSKleros.sol\":12081:12087  refund */\n      dup2\n        /* \"contracts/HRSKleros.sol\":12081:12091  refund > 0 */\n      gt\n        /* \"contracts/HRSKleros.sol\":12077:12152  if (refund > 0) {... */\n      iszero\n      tag_465\n      jumpi\n        /* \"contracts/HRSKleros.sol\":12116:12122  renter */\n      0x01\n      0x00\n      swap1\n      sload\n      swap1\n      0x0100\n      exp\n      swap1\n      div\n      0xffffffffffffffffffffffffffffffffffffffff\n      and\n        /* \"contracts/HRSKleros.sol\":12108:12132  payable(renter).transfer */\n      0xffffffffffffffffffffffffffffffffffffffff\n      and\n        /* \"contracts/HRSKleros.sol\":12108:12140  payable(renter).transfer(refund) */\n      0x08fc\n        /* \"contracts/HRSKleros.sol\":12133:12139  refund */\n      dup3\n        /* \"contracts/HRSKleros.sol\":12108:12140  payable(renter).transfer(refund) */\n      swap1\n      dup2\n      iszero\n      mul\n      swap1\n      mload(0x40)\n      0x00\n      mload(0x40)\n      dup1\n      dup4\n      sub\n      dup2\n      dup6\n      dup9\n      dup9\n      call\n      swap4\n      pop\n      pop\n      pop\n      pop\n      iszero\n      dup1\n      iszero\n      tag_467\n      jumpi\n      returndatasize\n      0x00\n      dup1\n      returndatacopy\n      revert(0x00, returndatasize)\n    tag_467:\n      pop\n        /* \"contracts/HRSKleros.sol\":12077:12152  if (refund > 0) {... */\n    tag_465:\n        /* \"contracts/HRSKleros.sol\":12169:12201  ContractEnded(refund, dueAmount) */\n      0xc0590c5a8ce79dffbdde17480a06203778f954965615e1d9577dbc90da2ff109\n        /* \"contracts/HRSKleros.sol\":12183:12189  refund */\n      dup2\n        /* \"contracts/HRSKleros.sol\":12191:12200  dueAmount */\n      dup4\n        /* \"contracts/HRSKleros.sol\":12169:12201  ContractEnded(refund, dueAmount) */\n      mload(0x40)\n      tag_468\n      swap3\n      swap2\n      swap1\n      tag_294\n      jump\t// in\n    tag_468:\n      mload(0x40)\n      dup1\n      swap2\n      sub\n      swap1\n      log1\n        /* \"contracts/HRSKleros.sol\":11658:12209  {... */\n      pop\n      pop\n        /* \"contracts/HRSKleros.sol\":11627:12209  function endContract() private {... */\n      jump\t// out\n        /* \"#utility.yul\":7:97   */\n    tag_469:\n        /* \"#utility.yul\":41:48   */\n      0x00\n        /* \"#utility.yul\":84:89   */\n      dup2\n        /* \"#utility.yul\":77:90   */\n      iszero\n        /* \"#utility.yul\":70:91   */\n      iszero\n        /* \"#utility.yul\":59:91   */\n      swap1\n      pop\n        /* \"#utility.yul\":7:97   */\n      swap2\n      swap1\n      pop\n      jump\t// out\n        /* \"#utility.yul\":103:212   */\n    tag_470:\n        /* \"#utility.yul\":184:205   */\n      tag_567\n        /* \"#utility.yul\":199:204   */\n      dup2\n        /* \"#utility.yul\":184:205   */\n      tag_469\n      jump\t// in\n    tag_567:\n        /* \"#utility.yul\":179:182   */\n      dup3\n        /* \"#utility.yul\":172:206   */\n      mstore\n        /* \"#utility.yul\":103:212   */\n      pop\n      pop\n      jump\t// out\n        /* \"#utility.yul\":218:428   */\n    tag_60:\n        /* \"#utility.yul\":305:309   */\n      0x00\n        /* \"#utility.yul\":343:345   */\n      0x20\n        /* \"#utility.yul\":332:341   */\n      dup3\n        /* \"#utility.yul\":328:346   */\n      add\n        /* \"#utility.yul\":320:346   */\n      swap1\n      pop\n        /* \"#utility.yul\":356:421   */\n      tag_569\n        /* \"#utility.yul\":418:419   */\n      0x00\n        /* \"#utility.yul\":407:416   */\n      dup4\n        /* \"#utility.yul\":403:420   */\n      add\n        /* \"#utility.yul\":394:400   */\n      dup5\n        /* \"#utility.yul\":356:421   */\n      tag_470\n      jump\t// in\n    tag_569:\n        /* \"#utility.yul\":218:428   */\n      swap3\n      swap2\n      pop\n      pop\n      jump\t// out\n        /* \"#utility.yul\":434:511   */\n    tag_471:\n        /* \"#utility.yul\":471:478   */\n      0x00\n        /* \"#utility.yul\":500:505   */\n      dup2\n        /* \"#utility.yul\":489:505   */\n      swap1\n      pop\n        /* \"#utility.yul\":434:511   */\n      swap2\n      swap1\n      pop\n      jump\t// out\n        /* \"#utility.yul\":517:635   */\n    tag_472:\n        /* \"#utility.yul\":604:628   */\n      tag_572\n        /* \"#utility.yul\":622:627   */\n      dup2\n        /* \"#utility.yul\":604:628   */\n      tag_471\n      jump\t// in\n    tag_572:\n        /* \"#utility.yul\":599:602   */\n      dup3\n        /* \"#utility.yul\":592:629   */\n      mstore\n        /* \"#utility.yul\":517:635   */\n      pop\n      pop\n      jump\t// out\n        /* \"#utility.yul\":641:863   */\n    tag_65:\n        /* \"#utility.yul\":734:738   */\n      0x00\n        /* \"#utility.yul\":772:774   */\n      0x20\n        /* \"#utility.yul\":761:770   */\n      dup3\n        /* \"#utility.yul\":757:775   */\n      add\n        /* \"#utility.yul\":749:775   */\n      swap1\n      pop\n        /* \"#utility.yul\":785:856   */\n      tag_574\n        /* \"#utility.yul\":853:854   */\n      0x00\n        /* \"#utility.yul\":842:851   */\n      dup4\n        /* \"#utility.yul\":838:855   */\n      add\n        /* \"#utility.yul\":829:835   */\n      dup5\n        /* \"#utility.yul\":785:856   */\n      tag_472\n      jump\t// in\n    tag_574:\n        /* \"#utility.yul\":641:863   */\n      swap3\n      swap2\n      pop\n      pop\n      jump\t// out\n        /* \"#utility.yul\":950:1067   */\n    tag_474:\n        /* \"#utility.yul\":1059:1060   */\n      0x00\n        /* \"#utility.yul\":1056:1057   */\n      dup1\n        /* \"#utility.yul\":1049:1061   */\n      revert\n        /* \"#utility.yul\":1196:1318   */\n    tag_476:\n        /* \"#utility.yul\":1269:1293   */\n      tag_579\n        /* \"#utility.yul\":1287:1292   */\n      dup2\n        /* \"#utility.yul\":1269:1293   */\n      tag_471\n      jump\t// in\n    tag_579:\n        /* \"#utility.yul\":1262:1267   */\n      dup2\n        /* \"#utility.yul\":1259:1294   */\n      eq\n        /* \"#utility.yul\":1249:1312   */\n      tag_580\n      jumpi\n        /* \"#utility.yul\":1308:1309   */\n      0x00\n        /* \"#utility.yul\":1305:1306   */\n      dup1\n        /* \"#utility.yul\":1298:1310   */\n      revert\n        /* \"#utility.yul\":1249:1312   */\n    tag_580:\n        /* \"#utility.yul\":1196:1318   */\n      pop\n      jump\t// out\n        /* \"#utility.yul\":1324:1463   */\n    tag_477:\n        /* \"#utility.yul\":1370:1375   */\n      0x00\n        /* \"#utility.yul\":1408:1414   */\n      dup2\n        /* \"#utility.yul\":1395:1415   */\n      calldataload\n        /* \"#utility.yul\":1386:1415   */\n      swap1\n      pop\n        /* \"#utility.yul\":1424:1457   */\n      tag_582\n        /* \"#utility.yul\":1451:1456   */\n      dup2\n        /* \"#utility.yul\":1424:1457   */\n      tag_476\n      jump\t// in\n    tag_582:\n        /* \"#utility.yul\":1324:1463   */\n      swap3\n      swap2\n      pop\n      pop\n      jump\t// out\n        /* \"#utility.yul\":1469:1798   */\n    tag_69:\n        /* \"#utility.yul\":1528:1534   */\n      0x00\n        /* \"#utility.yul\":1577:1579   */\n      0x20\n        /* \"#utility.yul\":1565:1574   */\n      dup3\n        /* \"#utility.yul\":1556:1563   */\n      dup5\n        /* \"#utility.yul\":1552:1575   */\n      sub\n        /* \"#utility.yul\":1548:1580   */\n      slt\n        /* \"#utility.yul\":1545:1664   */\n      iszero\n      tag_584\n      jumpi\n        /* \"#utility.yul\":1583:1662   */\n      tag_585\n      tag_474\n      jump\t// in\n    tag_585:\n        /* \"#utility.yul\":1545:1664   */\n    tag_584:\n        /* \"#utility.yul\":1703:1704   */\n      0x00\n        /* \"#utility.yul\":1728:1781   */\n      tag_586\n        /* \"#utility.yul\":1773:1780   */\n      dup5\n        /* \"#utility.yul\":1764:1770   */\n      dup3\n        /* \"#utility.yul\":1753:1762   */\n      dup6\n        /* \"#utility.yul\":1749:1771   */\n      add\n        /* \"#utility.yul\":1728:1781   */\n      tag_477\n      jump\t// in\n    tag_586:\n        /* \"#utility.yul\":1718:1781   */\n      swap2\n      pop\n        /* \"#utility.yul\":1674:1791   */\n      pop\n        /* \"#utility.yul\":1469:1798   */\n      swap3\n      swap2\n      pop\n      pop\n      jump\t// out\n        /* \"#utility.yul\":1804:1930   */\n    tag_478:\n        /* \"#utility.yul\":1841:1848   */\n      0x00\n        /* \"#utility.yul\":1881:1923   */\n      0xffffffffffffffffffffffffffffffffffffffff\n        /* \"#utility.yul\":1874:1879   */\n      dup3\n        /* \"#utility.yul\":1870:1924   */\n      and\n        /* \"#utility.yul\":1859:1924   */\n      swap1\n      pop\n        /* \"#utility.yul\":1804:1930   */\n      swap2\n      swap1\n      pop\n      jump\t// out\n        /* \"#utility.yul\":1936:2032   */\n    tag_479:\n        /* \"#utility.yul\":1973:1980   */\n      0x00\n        /* \"#utility.yul\":2002:2026   */\n      tag_589\n        /* \"#utility.yul\":2020:2025   */\n      dup3\n        /* \"#utility.yul\":2002:2026   */\n      tag_478\n      jump\t// in\n    tag_589:\n        /* \"#utility.yul\":1991:2026   */\n      swap1\n      pop\n        /* \"#utility.yul\":1936:2032   */\n      swap2\n      swap1\n      pop\n      jump\t// out\n        /* \"#utility.yul\":2038:2156   */\n    tag_480:\n        /* \"#utility.yul\":2125:2149   */\n      tag_591\n        /* \"#utility.yul\":2143:2148   */\n      dup2\n        /* \"#utility.yul\":2125:2149   */\n      tag_479\n      jump\t// in\n    tag_591:\n        /* \"#utility.yul\":2120:2123   */\n      dup3\n        /* \"#utility.yul\":2113:2150   */\n      mstore\n        /* \"#utility.yul\":2038:2156   */\n      pop\n      pop\n      jump\t// out\n        /* \"#utility.yul\":2162:2384   */\n    tag_90:\n        /* \"#utility.yul\":2255:2259   */\n      0x00\n        /* \"#utility.yul\":2293:2295   */\n      0x20\n        /* \"#utility.yul\":2282:2291   */\n      dup3\n        /* \"#utility.yul\":2278:2296   */\n      add\n        /* \"#utility.yul\":2270:2296   */\n      swap1\n      pop\n        /* \"#utility.yul\":2306:2377   */\n      tag_593\n        /* \"#utility.yul\":2374:2375   */\n      0x00\n        /* \"#utility.yul\":2363:2372   */\n      dup4\n        /* \"#utility.yul\":2359:2376   */\n      add\n        /* \"#utility.yul\":2350:2356   */\n      dup5\n        /* \"#utility.yul\":2306:2377   */\n      tag_480\n      jump\t// in\n    tag_593:\n        /* \"#utility.yul\":2162:2384   */\n      swap3\n      swap2\n      pop\n      pop\n      jump\t// out\n        /* \"#utility.yul\":2390:2864   */\n    tag_94:\n        /* \"#utility.yul\":2458:2464   */\n      0x00\n        /* \"#utility.yul\":2466:2472   */\n      dup1\n        /* \"#utility.yul\":2515:2517   */\n      0x40\n        /* \"#utility.yul\":2503:2512   */\n      dup4\n        /* \"#utility.yul\":2494:2501   */\n      dup6\n        /* \"#utility.yul\":2490:2513   */\n      sub\n        /* \"#utility.yul\":2486:2518   */\n      slt\n        /* \"#utility.yul\":2483:2602   */\n      iszero\n      tag_595\n      jumpi\n        /* \"#utility.yul\":2521:2600   */\n      tag_596\n      tag_474\n      jump\t// in\n    tag_596:\n        /* \"#utility.yul\":2483:2602   */\n    tag_595:\n        /* \"#utility.yul\":2641:2642   */\n      0x00\n        /* \"#utility.yul\":2666:2719   */\n      tag_597\n        /* \"#utility.yul\":2711:2718   */\n      dup6\n        /* \"#utility.yul\":2702:2708   */\n      dup3\n        /* \"#utility.yul\":2691:2700   */\n      dup7\n        /* \"#utility.yul\":2687:2709   */\n      add\n        /* \"#utility.yul\":2666:2719   */\n      tag_477\n      jump\t// in\n    tag_597:\n        /* \"#utility.yul\":2656:2719   */\n      swap3\n      pop\n        /* \"#utility.yul\":2612:2729   */\n      pop\n        /* \"#utility.yul\":2768:2770   */\n      0x20\n        /* \"#utility.yul\":2794:2847   */\n      tag_598\n        /* \"#utility.yul\":2839:2846   */\n      dup6\n        /* \"#utility.yul\":2830:2836   */\n      dup3\n        /* \"#utility.yul\":2819:2828   */\n      dup7\n        /* \"#utility.yul\":2815:2837   */\n      add\n        /* \"#utility.yul\":2794:2847   */\n      tag_477\n      jump\t// in\n    tag_598:\n        /* \"#utility.yul\":2784:2847   */\n      swap2\n      pop\n        /* \"#utility.yul\":2739:2857   */\n      pop\n        /* \"#utility.yul\":2390:2864   */\n      swap3\n      pop\n      swap3\n      swap1\n      pop\n      jump\t// out\n        /* \"#utility.yul\":2870:2930   */\n    tag_481:\n        /* \"#utility.yul\":2898:2901   */\n      0x00\n        /* \"#utility.yul\":2919:2924   */\n      dup2\n        /* \"#utility.yul\":2912:2924   */\n      swap1\n      pop\n        /* \"#utility.yul\":2870:2930   */\n      swap2\n      swap1\n      pop\n      jump\t// out\n        /* \"#utility.yul\":2936:3078   */\n    tag_482:\n        /* \"#utility.yul\":2986:2995   */\n      0x00\n        /* \"#utility.yul\":3019:3072   */\n      tag_601\n        /* \"#utility.yul\":3037:3071   */\n      tag_602\n        /* \"#utility.yul\":3046:3070   */\n      tag_603\n        /* \"#utility.yul\":3064:3069   */\n      dup5\n        /* \"#utility.yul\":3046:3070   */\n      tag_478\n      jump\t// in\n    tag_603:\n        /* \"#utility.yul\":3037:3071   */\n      tag_481\n      jump\t// in\n    tag_602:\n        /* \"#utility.yul\":3019:3072   */\n      tag_478\n      jump\t// in\n    tag_601:\n        /* \"#utility.yul\":3006:3072   */\n      swap1\n      pop\n        /* \"#utility.yul\":2936:3078   */\n      swap2\n      swap1\n      pop\n      jump\t// out\n        /* \"#utility.yul\":3084:3210   */\n    tag_483:\n        /* \"#utility.yul\":3134:3143   */\n      0x00\n        /* \"#utility.yul\":3167:3204   */\n      tag_605\n        /* \"#utility.yul\":3198:3203   */\n      dup3\n        /* \"#utility.yul\":3167:3204   */\n      tag_482\n      jump\t// in\n    tag_605:\n        /* \"#utility.yul\":3154:3204   */\n      swap1\n      pop\n        /* \"#utility.yul\":3084:3210   */\n      swap2\n      swap1\n      pop\n      jump\t// out\n        /* \"#utility.yul\":3216:3360   */\n    tag_484:\n        /* \"#utility.yul\":3284:3293   */\n      0x00\n        /* \"#utility.yul\":3317:3354   */\n      tag_607\n        /* \"#utility.yul\":3348:3353   */\n      dup3\n        /* \"#utility.yul\":3317:3354   */\n      tag_483\n      jump\t// in\n    tag_607:\n        /* \"#utility.yul\":3304:3354   */\n      swap1\n      pop\n        /* \"#utility.yul\":3216:3360   */\n      swap2\n      swap1\n      pop\n      jump\t// out\n        /* \"#utility.yul\":3366:3533   */\n    tag_485:\n        /* \"#utility.yul\":3471:3526   */\n      tag_609\n        /* \"#utility.yul\":3520:3525   */\n      dup2\n        /* \"#utility.yul\":3471:3526   */\n      tag_484\n      jump\t// in\n    tag_609:\n        /* \"#utility.yul\":3466:3469   */\n      dup3\n        /* \"#utility.yul\":3459:3527   */\n      mstore\n        /* \"#utility.yul\":3366:3533   */\n      pop\n      pop\n      jump\t// out\n        /* \"#utility.yul\":3539:3797   */\n    tag_117:\n        /* \"#utility.yul\":3650:3654   */\n      0x00\n        /* \"#utility.yul\":3688:3690   */\n      0x20\n        /* \"#utility.yul\":3677:3686   */\n      dup3\n        /* \"#utility.yul\":3673:3691   */\n      add\n        /* \"#utility.yul\":3665:3691   */\n      swap1\n      pop\n        /* \"#utility.yul\":3701:3790   */\n      tag_611\n        /* \"#utility.yul\":3787:3788   */\n      0x00\n        /* \"#utility.yul\":3776:3785   */\n      dup4\n        /* \"#utility.yul\":3772:3789   */\n      add\n        /* \"#utility.yul\":3763:3769   */\n      dup5\n        /* \"#utility.yul\":3701:3790   */\n      tag_485\n      jump\t// in\n    tag_611:\n        /* \"#utility.yul\":3539:3797   */\n      swap3\n      swap2\n      pop\n      pop\n      jump\t// out\n        /* \"#utility.yul\":3803:4422   */\n    tag_197:\n        /* \"#utility.yul\":3880:3886   */\n      0x00\n        /* \"#utility.yul\":3888:3894   */\n      dup1\n        /* \"#utility.yul\":3896:3902   */\n      0x00\n        /* \"#utility.yul\":3945:3947   */\n      0x60\n        /* \"#utility.yul\":3933:3942   */\n      dup5\n        /* \"#utility.yul\":3924:3931   */\n      dup7\n        /* \"#utility.yul\":3920:3943   */\n      sub\n        /* \"#utility.yul\":3916:3948   */\n      slt\n        /* \"#utility.yul\":3913:4032   */\n      iszero\n      tag_613\n      jumpi\n        /* \"#utility.yul\":3951:4030   */\n      tag_614\n      tag_474\n      jump\t// in\n    tag_614:\n        /* \"#utility.yul\":3913:4032   */\n    tag_613:\n        /* \"#utility.yul\":4071:4072   */\n      0x00\n        /* \"#utility.yul\":4096:4149   */\n      tag_615\n        /* \"#utility.yul\":4141:4148   */\n      dup7\n        /* \"#utility.yul\":4132:4138   */\n      dup3\n        /* \"#utility.yul\":4121:4130   */\n      dup8\n        /* \"#utility.yul\":4117:4139   */\n      add\n        /* \"#utility.yul\":4096:4149   */\n      tag_477\n      jump\t// in\n    tag_615:\n        /* \"#utility.yul\":4086:4149   */\n      swap4\n      pop\n        /* \"#utility.yul\":4042:4159   */\n      pop\n        /* \"#utility.yul\":4198:4200   */\n      0x20\n        /* \"#utility.yul\":4224:4277   */\n      tag_616\n        /* \"#utility.yul\":4269:4276   */\n      dup7\n        /* \"#utility.yul\":4260:4266   */\n      dup3\n        /* \"#utility.yul\":4249:4258   */\n      dup8\n        /* \"#utility.yul\":4245:4267   */\n      add\n        /* \"#utility.yul\":4224:4277   */\n      tag_477\n      jump\t// in\n    tag_616:\n        /* \"#utility.yul\":4214:4277   */\n      swap3\n      pop\n        /* \"#utility.yul\":4169:4287   */\n      pop\n        /* \"#utility.yul\":4326:4328   */\n      0x40\n        /* \"#utility.yul\":4352:4405   */\n      tag_617\n        /* \"#utility.yul\":4397:4404   */\n      dup7\n        /* \"#utility.yul\":4388:4394   */\n      dup3\n        /* \"#utility.yul\":4377:4386   */\n      dup8\n        /* \"#utility.yul\":4373:4395   */\n      add\n        /* \"#utility.yul\":4352:4405   */\n      tag_477\n      jump\t// in\n    tag_617:\n        /* \"#utility.yul\":4342:4405   */\n      swap2\n      pop\n        /* \"#utility.yul\":4297:4415   */\n      pop\n        /* \"#utility.yul\":3803:4422   */\n      swap3\n      pop\n      swap3\n      pop\n      swap3\n      jump\t// out\n        /* \"#utility.yul\":4428:4969   */\n    tag_214:\n        /* \"#utility.yul\":4599:4603   */\n      0x00\n        /* \"#utility.yul\":4637:4640   */\n      0x80\n        /* \"#utility.yul\":4626:4635   */\n      dup3\n        /* \"#utility.yul\":4622:4641   */\n      add\n        /* \"#utility.yul\":4614:4641   */\n      swap1\n      pop\n        /* \"#utility.yul\":4651:4722   */\n      tag_619\n        /* \"#utility.yul\":4719:4720   */\n      0x00\n        /* \"#utility.yul\":4708:4717   */\n      dup4\n        /* \"#utility.yul\":4704:4721   */\n      add\n        /* \"#utility.yul\":4695:4701   */\n      dup8\n        /* \"#utility.yul\":4651:4722   */\n      tag_472\n      jump\t// in\n    tag_619:\n        /* \"#utility.yul\":4732:4804   */\n      tag_620\n        /* \"#utility.yul\":4800:4802   */\n      0x20\n        /* \"#utility.yul\":4789:4798   */\n      dup4\n        /* \"#utility.yul\":4785:4803   */\n      add\n        /* \"#utility.yul\":4776:4782   */\n      dup7\n        /* \"#utility.yul\":4732:4804   */\n      tag_472\n      jump\t// in\n    tag_620:\n        /* \"#utility.yul\":4814:4886   */\n      tag_621\n        /* \"#utility.yul\":4882:4884   */\n      0x40\n        /* \"#utility.yul\":4871:4880   */\n      dup4\n        /* \"#utility.yul\":4867:4885   */\n      add\n        /* \"#utility.yul\":4858:4864   */\n      dup6\n        /* \"#utility.yul\":4814:4886   */\n      tag_472\n      jump\t// in\n    tag_621:\n        /* \"#utility.yul\":4896:4962   */\n      tag_622\n        /* \"#utility.yul\":4958:4960   */\n      0x60\n        /* \"#utility.yul\":4947:4956   */\n      dup4\n        /* \"#utility.yul\":4943:4961   */\n      add\n        /* \"#utility.yul\":4934:4940   */\n      dup5\n        /* \"#utility.yul\":4896:4962   */\n      tag_470\n      jump\t// in\n    tag_622:\n        /* \"#utility.yul\":4428:4969   */\n      swap6\n      swap5\n      pop\n      pop\n      pop\n      pop\n      pop\n      jump\t// out\n        /* \"#utility.yul\":4975:5097   */\n    tag_486:\n        /* \"#utility.yul\":5048:5072   */\n      tag_624\n        /* \"#utility.yul\":5066:5071   */\n      dup2\n        /* \"#utility.yul\":5048:5072   */\n      tag_479\n      jump\t// in\n    tag_624:\n        /* \"#utility.yul\":5041:5046   */\n      dup2\n        /* \"#utility.yul\":5038:5073   */\n      eq\n        /* \"#utility.yul\":5028:5091   */\n      tag_625\n      jumpi\n        /* \"#utility.yul\":5087:5088   */\n      0x00\n        /* \"#utility.yul\":5084:5085   */\n      dup1\n        /* \"#utility.yul\":5077:5089   */\n      revert\n        /* \"#utility.yul\":5028:5091   */\n    tag_625:\n        /* \"#utility.yul\":4975:5097   */\n      pop\n      jump\t// out\n        /* \"#utility.yul\":5103:5242   */\n    tag_487:\n        /* \"#utility.yul\":5149:5154   */\n      0x00\n        /* \"#utility.yul\":5187:5193   */\n      dup2\n        /* \"#utility.yul\":5174:5194   */\n      calldataload\n        /* \"#utility.yul\":5165:5194   */\n      swap1\n      pop\n        /* \"#utility.yul\":5203:5236   */\n      tag_627\n        /* \"#utility.yul\":5230:5235   */\n      dup2\n        /* \"#utility.yul\":5203:5236   */\n      tag_486\n      jump\t// in\n    tag_627:\n        /* \"#utility.yul\":5103:5242   */\n      swap3\n      swap2\n      pop\n      pop\n      jump\t// out\n        /* \"#utility.yul\":5248:5577   */\n    tag_225:\n        /* \"#utility.yul\":5307:5313   */\n      0x00\n        /* \"#utility.yul\":5356:5358   */\n      0x20\n        /* \"#utility.yul\":5344:5353   */\n      dup3\n        /* \"#utility.yul\":5335:5342   */\n      dup5\n        /* \"#utility.yul\":5331:5354   */\n      sub\n        /* \"#utility.yul\":5327:5359   */\n      slt\n        /* \"#utility.yul\":5324:5443   */\n      iszero\n      tag_629\n      jumpi\n        /* \"#utility.yul\":5362:5441   */\n      tag_630\n      tag_474\n      jump\t// in\n    tag_630:\n        /* \"#utility.yul\":5324:5443   */\n    tag_629:\n        /* \"#utility.yul\":5482:5483   */\n      0x00\n        /* \"#utility.yul\":5507:5560   */\n      tag_631\n        /* \"#utility.yul\":5552:5559   */\n      dup5\n        /* \"#utility.yul\":5543:5549   */\n      dup3\n        /* \"#utility.yul\":5532:5541   */\n      dup6\n        /* \"#utility.yul\":5528:5550   */\n      add\n        /* \"#utility.yul\":5507:5560   */\n      tag_487\n      jump\t// in\n    tag_631:\n        /* \"#utility.yul\":5497:5560   */\n      swap2\n      pop\n        /* \"#utility.yul\":5453:5570   */\n      pop\n        /* \"#utility.yul\":5248:5577   */\n      swap3\n      swap2\n      pop\n      pop\n      jump\t// out\n        /* \"#utility.yul\":5583:5752   */\n    tag_488:\n        /* \"#utility.yul\":5667:5678   */\n      0x00\n        /* \"#utility.yul\":5701:5707   */\n      dup3\n        /* \"#utility.yul\":5696:5699   */\n      dup3\n        /* \"#utility.yul\":5689:5708   */\n      mstore\n        /* \"#utility.yul\":5741:5745   */\n      0x20\n        /* \"#utility.yul\":5736:5739   */\n      dup3\n        /* \"#utility.yul\":5732:5746   */\n      add\n        /* \"#utility.yul\":5717:5746   */\n      swap1\n      pop\n        /* \"#utility.yul\":5583:5752   */\n      swap3\n      swap2\n      pop\n      pop\n      jump\t// out\n        /* \"#utility.yul\":5758:5986   */\n    tag_489:\n        /* \"#utility.yul\":5898:5932   */\n      0x4f6e6c79206c616e646c6f72642063616e20736574207468652064616d616765\n        /* \"#utility.yul\":5894:5895   */\n      0x00\n        /* \"#utility.yul\":5886:5892   */\n      dup3\n        /* \"#utility.yul\":5882:5896   */\n      add\n        /* \"#utility.yul\":5875:5933   */\n      mstore\n        /* \"#utility.yul\":5967:5978   */\n      0x20657374696d6174650000000000000000000000000000000000000000000000\n        /* \"#utility.yul\":5962:5964   */\n      0x20\n        /* \"#utility.yul\":5954:5960   */\n      dup3\n        /* \"#utility.yul\":5950:5965   */\n      add\n        /* \"#utility.yul\":5943:5979   */\n      mstore\n        /* \"#utility.yul\":5758:5986   */\n      pop\n      jump\t// out\n        /* \"#utility.yul\":5992:6358   */\n    tag_490:\n        /* \"#utility.yul\":6134:6137   */\n      0x00\n        /* \"#utility.yul\":6155:6222   */\n      tag_635\n        /* \"#utility.yul\":6219:6221   */\n      0x29\n        /* \"#utility.yul\":6214:6217   */\n      dup4\n        /* \"#utility.yul\":6155:6222   */\n      tag_488\n      jump\t// in\n    tag_635:\n        /* \"#utility.yul\":6148:6222   */\n      swap2\n      pop\n        /* \"#utility.yul\":6231:6324   */\n      tag_636\n        /* \"#utility.yul\":6320:6323   */\n      dup3\n        /* \"#utility.yul\":6231:6324   */\n      tag_489\n      jump\t// in\n    tag_636:\n        /* \"#utility.yul\":6349:6351   */\n      0x40\n        /* \"#utility.yul\":6344:6347   */\n      dup3\n        /* \"#utility.yul\":6340:6352   */\n      add\n        /* \"#utility.yul\":6333:6352   */\n      swap1\n      pop\n        /* \"#utility.yul\":5992:6358   */\n      swap2\n      swap1\n      pop\n      jump\t// out\n        /* \"#utility.yul\":6364:6783   */\n    tag_235:\n        /* \"#utility.yul\":6530:6534   */\n      0x00\n        /* \"#utility.yul\":6568:6570   */\n      0x20\n        /* \"#utility.yul\":6557:6566   */\n      dup3\n        /* \"#utility.yul\":6553:6571   */\n      add\n        /* \"#utility.yul\":6545:6571   */\n      swap1\n      pop\n        /* \"#utility.yul\":6617:6626   */\n      dup2\n        /* \"#utility.yul\":6611:6615   */\n      dup2\n        /* \"#utility.yul\":6607:6627   */\n      sub\n        /* \"#utility.yul\":6603:6604   */\n      0x00\n        /* \"#utility.yul\":6592:6601   */\n      dup4\n        /* \"#utility.yul\":6588:6605   */\n      add\n        /* \"#utility.yul\":6581:6628   */\n      mstore\n        /* \"#utility.yul\":6645:6776   */\n      tag_638\n        /* \"#utility.yul\":6771:6775   */\n      dup2\n        /* \"#utility.yul\":6645:6776   */\n      tag_490\n      jump\t// in\n    tag_638:\n        /* \"#utility.yul\":6637:6776   */\n      swap1\n      pop\n        /* \"#utility.yul\":6364:6783   */\n      swap2\n      swap1\n      pop\n      jump\t// out\n        /* \"#utility.yul\":6789:6968   */\n    tag_491:\n        /* \"#utility.yul\":6929:6960   */\n      0x52656e7420706572696f6420686173206e6f7420656e64656420796574000000\n        /* \"#utility.yul\":6925:6926   */\n      0x00\n        /* \"#utility.yul\":6917:6923   */\n      dup3\n        /* \"#utility.yul\":6913:6927   */\n      add\n        /* \"#utility.yul\":6906:6961   */\n      mstore\n        /* \"#utility.yul\":6789:6968   */\n      pop\n      jump\t// out\n        /* \"#utility.yul\":6974:7340   */\n    tag_492:\n        /* \"#utility.yul\":7116:7119   */\n      0x00\n        /* \"#utility.yul\":7137:7204   */\n      tag_641\n        /* \"#utility.yul\":7201:7203   */\n      0x1d\n        /* \"#utility.yul\":7196:7199   */\n      dup4\n        /* \"#utility.yul\":7137:7204   */\n      tag_488\n      jump\t// in\n    tag_641:\n        /* \"#utility.yul\":7130:7204   */\n      swap2\n      pop\n        /* \"#utility.yul\":7213:7306   */\n      tag_642\n        /* \"#utility.yul\":7302:7305   */\n      dup3\n        /* \"#utility.yul\":7213:7306   */\n      tag_491\n      jump\t// in\n    tag_642:\n        /* \"#utility.yul\":7331:7333   */\n      0x20\n        /* \"#utility.yul\":7326:7329   */\n      dup3\n        /* \"#utility.yul\":7322:7334   */\n      add\n        /* \"#utility.yul\":7315:7334   */\n      swap1\n      pop\n        /* \"#utility.yul\":6974:7340   */\n      swap2\n      swap1\n      pop\n      jump\t// out\n        /* \"#utility.yul\":7346:7765   */\n    tag_238:\n        /* \"#utility.yul\":7512:7516   */\n      0x00\n        /* \"#utility.yul\":7550:7552   */\n      0x20\n        /* \"#utility.yul\":7539:7548   */\n      dup3\n        /* \"#utility.yul\":7535:7553   */\n      add\n        /* \"#utility.yul\":7527:7553   */\n      swap1\n      pop\n        /* \"#utility.yul\":7599:7608   */\n      dup2\n        /* \"#utility.yul\":7593:7597   */\n      dup2\n        /* \"#utility.yul\":7589:7609   */\n      sub\n        /* \"#utility.yul\":7585:7586   */\n      0x00\n        /* \"#utility.yul\":7574:7583   */\n      dup4\n        /* \"#utility.yul\":7570:7587   */\n      add\n        /* \"#utility.yul\":7563:7610   */\n      mstore\n        /* \"#utility.yul\":7627:7758   */\n      tag_644\n        /* \"#utility.yul\":7753:7757   */\n      dup2\n        /* \"#utility.yul\":7627:7758   */\n      tag_492\n      jump\t// in\n    tag_644:\n        /* \"#utility.yul\":7619:7758   */\n      swap1\n      pop\n        /* \"#utility.yul\":7346:7765   */\n      swap2\n      swap1\n      pop\n      jump\t// out\n        /* \"#utility.yul\":7771:7948   */\n    tag_493:\n        /* \"#utility.yul\":7911:7940   */\n      0x44616d61676520657374696d61746520616c7265616479207365740000000000\n        /* \"#utility.yul\":7907:7908   */\n      0x00\n        /* \"#utility.yul\":7899:7905   */\n      dup3\n        /* \"#utility.yul\":7895:7909   */\n      add\n        /* \"#utility.yul\":7888:7941   */\n      mstore\n        /* \"#utility.yul\":7771:7948   */\n      pop\n      jump\t// out\n        /* \"#utility.yul\":7954:8320   */\n    tag_494:\n        /* \"#utility.yul\":8096:8099   */\n      0x00\n        /* \"#utility.yul\":8117:8184   */\n      tag_647\n        /* \"#utility.yul\":8181:8183   */\n      0x1b\n        /* \"#utility.yul\":8176:8179   */\n      dup4\n        /* \"#utility.yul\":8117:8184   */\n      tag_488\n      jump\t// in\n    tag_647:\n        /* \"#utility.yul\":8110:8184   */\n      swap2\n      pop\n        /* \"#utility.yul\":8193:8286   */\n      tag_648\n        /* \"#utility.yul\":8282:8285   */\n      dup3\n        /* \"#utility.yul\":8193:8286   */\n      tag_493\n      jump\t// in\n    tag_648:\n        /* \"#utility.yul\":8311:8313   */\n      0x20\n        /* \"#utility.yul\":8306:8309   */\n      dup3\n        /* \"#utility.yul\":8302:8314   */\n      add\n        /* \"#utility.yul\":8295:8314   */\n      swap1\n      pop\n        /* \"#utility.yul\":7954:8320   */\n      swap2\n      swap1\n      pop\n      jump\t// out\n        /* \"#utility.yul\":8326:8745   */\n    tag_241:\n        /* \"#utility.yul\":8492:8496   */\n      0x00\n        /* \"#utility.yul\":8530:8532   */\n      0x20\n        /* \"#utility.yul\":8519:8528   */\n      dup3\n        /* \"#utility.yul\":8515:8533   */\n      add\n        /* \"#utility.yul\":8507:8533   */\n      swap1\n      pop\n        /* \"#utility.yul\":8579:8588   */\n      dup2\n        /* \"#utility.yul\":8573:8577   */\n      dup2\n        /* \"#utility.yul\":8569:8589   */\n      sub\n        /* \"#utility.yul\":8565:8566   */\n      0x00\n        /* \"#utility.yul\":8554:8563   */\n      dup4\n        /* \"#utility.yul\":8550:8567   */\n      add\n        /* \"#utility.yul\":8543:8590   */\n      mstore\n        /* \"#utility.yul\":8607:8738   */\n      tag_650\n        /* \"#utility.yul\":8733:8737   */\n      dup2\n        /* \"#utility.yul\":8607:8738   */\n      tag_494\n      jump\t// in\n    tag_650:\n        /* \"#utility.yul\":8599:8738   */\n      swap1\n      pop\n        /* \"#utility.yul\":8326:8745   */\n      swap2\n      swap1\n      pop\n      jump\t// out\n        /* \"#utility.yul\":8751:8923   */\n    tag_495:\n        /* \"#utility.yul\":8891:8915   */\n      0x436f6e7472616374206973206e6f742061637469766500000000000000000000\n        /* \"#utility.yul\":8887:8888   */\n      0x00\n        /* \"#utility.yul\":8879:8885   */\n      dup3\n        /* \"#utility.yul\":8875:8889   */\n      add\n        /* \"#utility.yul\":8868:8916   */\n      mstore\n        /* \"#utility.yul\":8751:8923   */\n      pop\n      jump\t// out\n        /* \"#utility.yul\":8929:9295   */\n    tag_496:\n        /* \"#utility.yul\":9071:9074   */\n      0x00\n        /* \"#utility.yul\":9092:9159   */\n      tag_653\n        /* \"#utility.yul\":9156:9158   */\n      0x16\n        /* \"#utility.yul\":9151:9154   */\n      dup4\n        /* \"#utility.yul\":9092:9159   */\n      tag_488\n      jump\t// in\n    tag_653:\n        /* \"#utility.yul\":9085:9159   */\n      swap2\n      pop\n        /* \"#utility.yul\":9168:9261   */\n      tag_654\n        /* \"#utility.yul\":9257:9260   */\n      dup3\n        /* \"#utility.yul\":9168:9261   */\n      tag_495\n      jump\t// in\n    tag_654:\n        /* \"#utility.yul\":9286:9288   */\n      0x20\n        /* \"#utility.yul\":9281:9284   */\n      dup3\n        /* \"#utility.yul\":9277:9289   */\n      add\n        /* \"#utility.yul\":9270:9289   */\n      swap1\n      pop\n        /* \"#utility.yul\":8929:9295   */\n      swap2\n      swap1\n      pop\n      jump\t// out\n        /* \"#utility.yul\":9301:9720   */\n    tag_244:\n        /* \"#utility.yul\":9467:9471   */\n      0x00\n        /* \"#utility.yul\":9505:9507   */\n      0x20\n        /* \"#utility.yul\":9494:9503   */\n      dup3\n        /* \"#utility.yul\":9490:9508   */\n      add\n        /* \"#utility.yul\":9482:9508   */\n      swap1\n      pop\n        /* \"#utility.yul\":9554:9563   */\n      dup2\n        /* \"#utility.yul\":9548:9552   */\n      dup2\n        /* \"#utility.yul\":9544:9564   */\n      sub\n        /* \"#utility.yul\":9540:9541   */\n      0x00\n        /* \"#utility.yul\":9529:9538   */\n      dup4\n        /* \"#utility.yul\":9525:9542   */\n      add\n        /* \"#utility.yul\":9518:9565   */\n      mstore\n        /* \"#utility.yul\":9582:9713   */\n      tag_656\n        /* \"#utility.yul\":9708:9712   */\n      dup2\n        /* \"#utility.yul\":9582:9713   */\n      tag_496\n      jump\t// in\n    tag_656:\n        /* \"#utility.yul\":9574:9713   */\n      swap1\n      pop\n        /* \"#utility.yul\":9301:9720   */\n      swap2\n      swap1\n      pop\n      jump\t// out\n        /* \"#utility.yul\":9726:9958   */\n    tag_497:\n        /* \"#utility.yul\":9866:9900   */\n      0x4f6e6c79206c616e646c6f72642063616e2072656a6563742074686520636f75\n        /* \"#utility.yul\":9862:9863   */\n      0x00\n        /* \"#utility.yul\":9854:9860   */\n      dup3\n        /* \"#utility.yul\":9850:9864   */\n      add\n        /* \"#utility.yul\":9843:9901   */\n      mstore\n        /* \"#utility.yul\":9935:9950   */\n      0x6e74657220657374696d61746500000000000000000000000000000000000000\n        /* \"#utility.yul\":9930:9932   */\n      0x20\n        /* \"#utility.yul\":9922:9928   */\n      dup3\n        /* \"#utility.yul\":9918:9933   */\n      add\n        /* \"#utility.yul\":9911:9951   */\n      mstore\n        /* \"#utility.yul\":9726:9958   */\n      pop\n      jump\t// out\n        /* \"#utility.yul\":9964:10330   */\n    tag_498:\n        /* \"#utility.yul\":10106:10109   */\n      0x00\n        /* \"#utility.yul\":10127:10194   */\n      tag_659\n        /* \"#utility.yul\":10191:10193   */\n      0x2d\n        /* \"#utility.yul\":10186:10189   */\n      dup4\n        /* \"#utility.yul\":10127:10194   */\n      tag_488\n      jump\t// in\n    tag_659:\n        /* \"#utility.yul\":10120:10194   */\n      swap2\n      pop\n        /* \"#utility.yul\":10203:10296   */\n      tag_660\n        /* \"#utility.yul\":10292:10295   */\n      dup3\n        /* \"#utility.yul\":10203:10296   */\n      tag_497\n      jump\t// in\n    tag_660:\n        /* \"#utility.yul\":10321:10323   */\n      0x40\n        /* \"#utility.yul\":10316:10319   */\n      dup3\n        /* \"#utility.yul\":10312:10324   */\n      add\n        /* \"#utility.yul\":10305:10324   */\n      swap1\n      pop\n        /* \"#utility.yul\":9964:10330   */\n      swap2\n      swap1\n      pop\n      jump\t// out\n        /* \"#utility.yul\":10336:10755   */\n    tag_249:\n        /* \"#utility.yul\":10502:10506   */\n      0x00\n        /* \"#utility.yul\":10540:10542   */\n      0x20\n        /* \"#utility.yul\":10529:10538   */\n      dup3\n        /* \"#utility.yul\":10525:10543   */\n      add\n        /* \"#utility.yul\":10517:10543   */\n      swap1\n      pop\n        /* \"#utility.yul\":10589:10598   */\n      dup2\n        /* \"#utility.yul\":10583:10587   */\n      dup2\n        /* \"#utility.yul\":10579:10599   */\n      sub\n        /* \"#utility.yul\":10575:10576   */\n      0x00\n        /* \"#utility.yul\":10564:10573   */\n      dup4\n        /* \"#utility.yul\":10560:10577   */\n      add\n        /* \"#utility.yul\":10553:10600   */\n      mstore\n        /* \"#utility.yul\":10617:10748   */\n      tag_662\n        /* \"#utility.yul\":10743:10747   */\n      dup2\n        /* \"#utility.yul\":10617:10748   */\n      tag_498\n      jump\t// in\n    tag_662:\n        /* \"#utility.yul\":10609:10748   */\n      swap1\n      pop\n        /* \"#utility.yul\":10336:10755   */\n      swap2\n      swap1\n      pop\n      jump\t// out\n        /* \"#utility.yul\":10761:10986   */\n    tag_499:\n        /* \"#utility.yul\":10901:10935   */\n      0x52656e746572206d7573742073657420636f756e74657220657374696d617465\n        /* \"#utility.yul\":10897:10898   */\n      0x00\n        /* \"#utility.yul\":10889:10895   */\n      dup3\n        /* \"#utility.yul\":10885:10899   */\n      add\n        /* \"#utility.yul\":10878:10936   */\n      mstore\n        /* \"#utility.yul\":10970:10978   */\n      0x2066697273740000000000000000000000000000000000000000000000000000\n        /* \"#utility.yul\":10965:10967   */\n      0x20\n        /* \"#utility.yul\":10957:10963   */\n      dup3\n        /* \"#utility.yul\":10953:10968   */\n      add\n        /* \"#utility.yul\":10946:10979   */\n      mstore\n        /* \"#utility.yul\":10761:10986   */\n      pop\n      jump\t// out\n        /* \"#utility.yul\":10992:11358   */\n    tag_500:\n        /* \"#utility.yul\":11134:11137   */\n      0x00\n        /* \"#utility.yul\":11155:11222   */\n      tag_665\n        /* \"#utility.yul\":11219:11221   */\n      0x26\n        /* \"#utility.yul\":11214:11217   */\n      dup4\n        /* \"#utility.yul\":11155:11222   */\n      tag_488\n      jump\t// in\n    tag_665:\n        /* \"#utility.yul\":11148:11222   */\n      swap2\n      pop\n        /* \"#utility.yul\":11231:11324   */\n      tag_666\n        /* \"#utility.yul\":11320:11323   */\n      dup3\n        /* \"#utility.yul\":11231:11324   */\n      tag_499\n      jump\t// in\n    tag_666:\n        /* \"#utility.yul\":11349:11351   */\n      0x40\n        /* \"#utility.yul\":11344:11347   */\n      dup3\n        /* \"#utility.yul\":11340:11352   */\n      add\n        /* \"#utility.yul\":11333:11352   */\n      swap1\n      pop\n        /* \"#utility.yul\":10992:11358   */\n      swap2\n      swap1\n      pop\n      jump\t// out\n        /* \"#utility.yul\":11364:11783   */\n    tag_252:\n        /* \"#utility.yul\":11530:11534   */\n      0x00\n        /* \"#utility.yul\":11568:11570   */\n      0x20\n        /* \"#utility.yul\":11557:11566   */\n      dup3\n        /* \"#utility.yul\":11553:11571   */\n      add\n        /* \"#utility.yul\":11545:11571   */\n      swap1\n      pop\n        /* \"#utility.yul\":11617:11626   */\n      dup2\n        /* \"#utility.yul\":11611:11615   */\n      dup2\n        /* \"#utility.yul\":11607:11627   */\n      sub\n        /* \"#utility.yul\":11603:11604   */\n      0x00\n        /* \"#utility.yul\":11592:11601   */\n      dup4\n        /* \"#utility.yul\":11588:11605   */\n      add\n        /* \"#utility.yul\":11581:11628   */\n      mstore\n        /* \"#utility.yul\":11645:11776   */\n      tag_668\n        /* \"#utility.yul\":11771:11775   */\n      dup2\n        /* \"#utility.yul\":11645:11776   */\n      tag_500\n      jump\t// in\n    tag_668:\n        /* \"#utility.yul\":11637:11776   */\n      swap1\n      pop\n        /* \"#utility.yul\":11364:11783   */\n      swap2\n      swap1\n      pop\n      jump\t// out\n        /* \"#utility.yul\":11789:11957   */\n    tag_501:\n        /* \"#utility.yul\":11872:11883   */\n      0x00\n        /* \"#utility.yul\":11906:11912   */\n      dup3\n        /* \"#utility.yul\":11901:11904   */\n      dup3\n        /* \"#utility.yul\":11894:11913   */\n      mstore\n        /* \"#utility.yul\":11946:11950   */\n      0x20\n        /* \"#utility.yul\":11941:11944   */\n      dup3\n        /* \"#utility.yul\":11937:11951   */\n      add\n        /* \"#utility.yul\":11922:11951   */\n      swap1\n      pop\n        /* \"#utility.yul\":11789:11957   */\n      swap3\n      swap2\n      pop\n      pop\n      jump\t// out\n        /* \"#utility.yul\":11963:12077   */\n    tag_502:\n      pop\n      jump\t// out\n        /* \"#utility.yul\":12083:12445   */\n    tag_503:\n        /* \"#utility.yul\":12224:12227   */\n      0x00\n        /* \"#utility.yul\":12245:12310   */\n      tag_672\n        /* \"#utility.yul\":12308:12309   */\n      0x00\n        /* \"#utility.yul\":12303:12306   */\n      dup4\n        /* \"#utility.yul\":12245:12310   */\n      tag_501\n      jump\t// in\n    tag_672:\n        /* \"#utility.yul\":12238:12310   */\n      swap2\n      pop\n        /* \"#utility.yul\":12319:12412   */\n      tag_673\n        /* \"#utility.yul\":12408:12411   */\n      dup3\n        /* \"#utility.yul\":12319:12412   */\n      tag_502\n      jump\t// in\n    tag_673:\n        /* \"#utility.yul\":12437:12438   */\n      0x00\n        /* \"#utility.yul\":12432:12435   */\n      dup3\n        /* \"#utility.yul\":12428:12439   */\n      add\n        /* \"#utility.yul\":12421:12439   */\n      swap1\n      pop\n        /* \"#utility.yul\":12083:12445   */\n      swap2\n      swap1\n      pop\n      jump\t// out\n        /* \"#utility.yul\":12451:12868   */\n    tag_254:\n        /* \"#utility.yul\":12616:12620   */\n      0x00\n        /* \"#utility.yul\":12654:12656   */\n      0x20\n        /* \"#utility.yul\":12643:12652   */\n      dup3\n        /* \"#utility.yul\":12639:12657   */\n      add\n        /* \"#utility.yul\":12631:12657   */\n      swap1\n      pop\n        /* \"#utility.yul\":12703:12712   */\n      dup2\n        /* \"#utility.yul\":12697:12701   */\n      dup2\n        /* \"#utility.yul\":12693:12713   */\n      sub\n        /* \"#utility.yul\":12689:12690   */\n      0x00\n        /* \"#utility.yul\":12678:12687   */\n      dup4\n        /* \"#utility.yul\":12674:12691   */\n      add\n        /* \"#utility.yul\":12667:12714   */\n      mstore\n        /* \"#utility.yul\":12731:12861   */\n      tag_675\n        /* \"#utility.yul\":12856:12860   */\n      dup2\n        /* \"#utility.yul\":12731:12861   */\n      tag_503\n      jump\t// in\n    tag_675:\n        /* \"#utility.yul\":12723:12861   */\n      swap1\n      pop\n        /* \"#utility.yul\":12451:12868   */\n      swap2\n      swap1\n      pop\n      jump\t// out\n        /* \"#utility.yul\":12874:13017   */\n    tag_504:\n        /* \"#utility.yul\":12931:12936   */\n      0x00\n        /* \"#utility.yul\":12962:12968   */\n      dup2\n        /* \"#utility.yul\":12956:12969   */\n      mload\n        /* \"#utility.yul\":12947:12969   */\n      swap1\n      pop\n        /* \"#utility.yul\":12978:13011   */\n      tag_677\n        /* \"#utility.yul\":13005:13010   */\n      dup2\n        /* \"#utility.yul\":12978:13011   */\n      tag_476\n      jump\t// in\n    tag_677:\n        /* \"#utility.yul\":12874:13017   */\n      swap3\n      swap2\n      pop\n      pop\n      jump\t// out\n        /* \"#utility.yul\":13023:13374   */\n    tag_258:\n        /* \"#utility.yul\":13093:13099   */\n      0x00\n        /* \"#utility.yul\":13142:13144   */\n      0x20\n        /* \"#utility.yul\":13130:13139   */\n      dup3\n        /* \"#utility.yul\":13121:13128   */\n      dup5\n        /* \"#utility.yul\":13117:13140   */\n      sub\n        /* \"#utility.yul\":13113:13145   */\n      slt\n        /* \"#utility.yul\":13110:13229   */\n      iszero\n      tag_679\n      jumpi\n        /* \"#utility.yul\":13148:13227   */\n      tag_680\n      tag_474\n      jump\t// in\n    tag_680:\n        /* \"#utility.yul\":13110:13229   */\n    tag_679:\n        /* \"#utility.yul\":13268:13269   */\n      0x00\n        /* \"#utility.yul\":13293:13357   */\n      tag_681\n        /* \"#utility.yul\":13349:13356   */\n      dup5\n        /* \"#utility.yul\":13340:13346   */\n      dup3\n        /* \"#utility.yul\":13329:13338   */\n      dup6\n        /* \"#utility.yul\":13325:13347   */\n      add\n        /* \"#utility.yul\":13293:13357   */\n      tag_504\n      jump\t// in\n    tag_681:\n        /* \"#utility.yul\":13283:13357   */\n      swap2\n      pop\n        /* \"#utility.yul\":13239:13367   */\n      pop\n        /* \"#utility.yul\":13023:13374   */\n      swap3\n      swap2\n      pop\n      pop\n      jump\t// out\n        /* \"#utility.yul\":13380:13623   */\n    tag_505:\n        /* \"#utility.yul\":13520:13554   */\n      0x5365637572697479206465706f73697420696e73756666696369656e7420746f\n        /* \"#utility.yul\":13516:13517   */\n      0x00\n        /* \"#utility.yul\":13508:13514   */\n      dup3\n        /* \"#utility.yul\":13504:13518   */\n      add\n        /* \"#utility.yul\":13497:13555   */\n      mstore\n        /* \"#utility.yul\":13589:13615   */\n      0x20636f766572206172626974726174696f6e20636f7374730000000000000000\n        /* \"#utility.yul\":13584:13586   */\n      0x20\n        /* \"#utility.yul\":13576:13582   */\n      dup3\n        /* \"#utility.yul\":13572:13587   */\n      add\n        /* \"#utility.yul\":13565:13616   */\n      mstore\n        /* \"#utility.yul\":13380:13623   */\n      pop\n      jump\t// out\n        /* \"#utility.yul\":13629:13995   */\n    tag_506:\n        /* \"#utility.yul\":13771:13774   */\n      0x00\n        /* \"#utility.yul\":13792:13859   */\n      tag_684\n        /* \"#utility.yul\":13856:13858   */\n      0x38\n        /* \"#utility.yul\":13851:13854   */\n      dup4\n        /* \"#utility.yul\":13792:13859   */\n      tag_488\n      jump\t// in\n    tag_684:\n        /* \"#utility.yul\":13785:13859   */\n      swap2\n      pop\n        /* \"#utility.yul\":13868:13961   */\n      tag_685\n        /* \"#utility.yul\":13957:13960   */\n      dup3\n        /* \"#utility.yul\":13868:13961   */\n      tag_505\n      jump\t// in\n    tag_685:\n        /* \"#utility.yul\":13986:13988   */\n      0x40\n        /* \"#utility.yul\":13981:13984   */\n      dup3\n        /* \"#utility.yul\":13977:13989   */\n      add\n        /* \"#utility.yul\":13970:13989   */\n      swap1\n      pop\n        /* \"#utility.yul\":13629:13995   */\n      swap2\n      swap1\n      pop\n      jump\t// out\n        /* \"#utility.yul\":14001:14420   */\n    tag_261:\n        /* \"#utility.yul\":14167:14171   */\n      0x00\n        /* \"#utility.yul\":14205:14207   */\n      0x20\n        /* \"#utility.yul\":14194:14203   */\n      dup3\n        /* \"#utility.yul\":14190:14208   */\n      add\n        /* \"#utility.yul\":14182:14208   */\n      swap1\n      pop\n        /* \"#utility.yul\":14254:14263   */\n      dup2\n        /* \"#utility.yul\":14248:14252   */\n      dup2\n        /* \"#utility.yul\":14244:14264   */\n      sub\n        /* \"#utility.yul\":14240:14241   */\n      0x00\n        /* \"#utility.yul\":14229:14238   */\n      dup4\n        /* \"#utility.yul\":14225:14242   */\n      add\n        /* \"#utility.yul\":14218:14265   */\n      mstore\n        /* \"#utility.yul\":14282:14413   */\n      tag_687\n        /* \"#utility.yul\":14408:14412   */\n      dup2\n        /* \"#utility.yul\":14282:14413   */\n      tag_506\n      jump\t// in\n    tag_687:\n        /* \"#utility.yul\":14274:14413   */\n      swap1\n      pop\n        /* \"#utility.yul\":14001:14420   */\n      swap2\n      swap1\n      pop\n      jump\t// out\n        /* \"#utility.yul\":14426:14606   */\n    tag_507:\n        /* \"#utility.yul\":14474:14551   */\n      0x4e487b7100000000000000000000000000000000000000000000000000000000\n        /* \"#utility.yul\":14471:14472   */\n      0x00\n        /* \"#utility.yul\":14464:14552   */\n      mstore\n        /* \"#utility.yul\":14571:14575   */\n      0x11\n        /* \"#utility.yul\":14568:14569   */\n      0x04\n        /* \"#utility.yul\":14561:14576   */\n      mstore\n        /* \"#utility.yul\":14595:14599   */\n      0x24\n        /* \"#utility.yul\":14592:14593   */\n      0x00\n        /* \"#utility.yul\":14585:14600   */\n      revert\n        /* \"#utility.yul\":14612:14806   */\n    tag_263:\n        /* \"#utility.yul\":14652:14656   */\n      0x00\n        /* \"#utility.yul\":14672:14692   */\n      tag_690\n        /* \"#utility.yul\":14690:14691   */\n      dup3\n        /* \"#utility.yul\":14672:14692   */\n      tag_471\n      jump\t// in\n    tag_690:\n        /* \"#utility.yul\":14667:14692   */\n      swap2\n      pop\n        /* \"#utility.yul\":14706:14726   */\n      tag_691\n        /* \"#utility.yul\":14724:14725   */\n      dup4\n        /* \"#utility.yul\":14706:14726   */\n      tag_471\n      jump\t// in\n    tag_691:\n        /* \"#utility.yul\":14701:14726   */\n      swap3\n      pop\n        /* \"#utility.yul\":14750:14751   */\n      dup3\n        /* \"#utility.yul\":14747:14748   */\n      dup3\n        /* \"#utility.yul\":14743:14752   */\n      sub\n        /* \"#utility.yul\":14735:14752   */\n      swap1\n      pop\n        /* \"#utility.yul\":14774:14775   */\n      dup2\n        /* \"#utility.yul\":14768:14772   */\n      dup2\n        /* \"#utility.yul\":14765:14776   */\n      gt\n        /* \"#utility.yul\":14762:14799   */\n      iszero\n      tag_692\n      jumpi\n        /* \"#utility.yul\":14779:14797   */\n      tag_693\n      tag_507\n      jump\t// in\n    tag_693:\n        /* \"#utility.yul\":14762:14799   */\n    tag_692:\n        /* \"#utility.yul\":14612:14806   */\n      swap3\n      swap2\n      pop\n      pop\n      jump\t// out\n        /* \"#utility.yul\":14812:14990   */\n    tag_508:\n        /* \"#utility.yul\":14952:14982   */\n      0x4f6e6c79207468652061726269747261746f722063616e2072756c6500000000\n        /* \"#utility.yul\":14948:14949   */\n      0x00\n        /* \"#utility.yul\":14940:14946   */\n      dup3\n        /* \"#utility.yul\":14936:14950   */\n      add\n        /* \"#utility.yul\":14929:14983   */\n      mstore\n        /* \"#utility.yul\":14812:14990   */\n      pop\n      jump\t// out\n        /* \"#utility.yul\":14996:15362   */\n    tag_509:\n        /* \"#utility.yul\":15138:15141   */\n      0x00\n        /* \"#utility.yul\":15159:15226   */\n      tag_696\n        /* \"#utility.yul\":15223:15225   */\n      0x1c\n        /* \"#utility.yul\":15218:15221   */\n      dup4\n        /* \"#utility.yul\":15159:15226   */\n      tag_488\n      jump\t// in\n    tag_696:\n        /* \"#utility.yul\":15152:15226   */\n      swap2\n      pop\n        /* \"#utility.yul\":15235:15328   */\n      tag_697\n        /* \"#utility.yul\":15324:15327   */\n      dup3\n        /* \"#utility.yul\":15235:15328   */\n      tag_508\n      jump\t// in\n    tag_697:\n        /* \"#utility.yul\":15353:15355   */\n      0x20\n        /* \"#utility.yul\":15348:15351   */\n      dup3\n        /* \"#utility.yul\":15344:15356   */\n      add\n        /* \"#utility.yul\":15337:15356   */\n      swap1\n      pop\n        /* \"#utility.yul\":14996:15362   */\n      swap2\n      swap1\n      pop\n      jump\t// out\n        /* \"#utility.yul\":15368:15787   */\n    tag_269:\n        /* \"#utility.yul\":15534:15538   */\n      0x00\n        /* \"#utility.yul\":15572:15574   */\n      0x20\n        /* \"#utility.yul\":15561:15570   */\n      dup3\n        /* \"#utility.yul\":15557:15575   */\n      add\n        /* \"#utility.yul\":15549:15575   */\n      swap1\n      pop\n        /* \"#utility.yul\":15621:15630   */\n      dup2\n        /* \"#utility.yul\":15615:15619   */\n      dup2\n        /* \"#utility.yul\":15611:15631   */\n      sub\n        /* \"#utility.yul\":15607:15608   */\n      0x00\n        /* \"#utility.yul\":15596:15605   */\n      dup4\n        /* \"#utility.yul\":15592:15609   */\n      add\n        /* \"#utility.yul\":15585:15632   */\n      mstore\n        /* \"#utility.yul\":15649:15780   */\n      tag_699\n        /* \"#utility.yul\":15775:15779   */\n      dup2\n        /* \"#utility.yul\":15649:15780   */\n      tag_509\n      jump\t// in\n    tag_699:\n        /* \"#utility.yul\":15641:15780   */\n      swap1\n      pop\n        /* \"#utility.yul\":15368:15787   */\n      swap2\n      swap1\n      pop\n      jump\t// out\n        /* \"#utility.yul\":15793:15964   */\n    tag_510:\n        /* \"#utility.yul\":15933:15956   */\n      0x4e6f206469737075746520746f2072756c65206f6e0000000000000000000000\n        /* \"#utility.yul\":15929:15930   */\n      0x00\n        /* \"#utility.yul\":15921:15927   */\n      dup3\n        /* \"#utility.yul\":15917:15931   */\n      add\n        /* \"#utility.yul\":15910:15957   */\n      mstore\n        /* \"#utility.yul\":15793:15964   */\n      pop\n      jump\t// out\n        /* \"#utility.yul\":15970:16336   */\n    tag_511:\n        /* \"#utility.yul\":16112:16115   */\n      0x00\n        /* \"#utility.yul\":16133:16200   */\n      tag_702\n        /* \"#utility.yul\":16197:16199   */\n      0x15\n        /* \"#utility.yul\":16192:16195   */\n      dup4\n        /* \"#utility.yul\":16133:16200   */\n      tag_488\n      jump\t// in\n    tag_702:\n        /* \"#utility.yul\":16126:16200   */\n      swap2\n      pop\n        /* \"#utility.yul\":16209:16302   */\n      tag_703\n        /* \"#utility.yul\":16298:16301   */\n      dup3\n        /* \"#utility.yul\":16209:16302   */\n      tag_510\n      jump\t// in\n    tag_703:\n        /* \"#utility.yul\":16327:16329   */\n      0x20\n        /* \"#utility.yul\":16322:16325   */\n      dup3\n        /* \"#utility.yul\":16318:16330   */\n      add\n        /* \"#utility.yul\":16311:16330   */\n      swap1\n      pop\n        /* \"#utility.yul\":15970:16336   */\n      swap2\n      swap1\n      pop\n      jump\t// out\n        /* \"#utility.yul\":16342:16761   */\n    tag_272:\n        /* \"#utility.yul\":16508:16512   */\n      0x00\n        /* \"#utility.yul\":16546:16548   */\n      0x20\n        /* \"#utility.yul\":16535:16544   */\n      dup3\n        /* \"#utility.yul\":16531:16549   */\n      add\n        /* \"#utility.yul\":16523:16549   */\n      swap1\n      pop\n        /* \"#utility.yul\":16595:16604   */\n      dup2\n        /* \"#utility.yul\":16589:16593   */\n      dup2\n        /* \"#utility.yul\":16585:16605   */\n      sub\n        /* \"#utility.yul\":16581:16582   */\n      0x00\n        /* \"#utility.yul\":16570:16579   */\n      dup4\n        /* \"#utility.yul\":16566:16583   */\n      add\n        /* \"#utility.yul\":16559:16606   */\n      mstore\n        /* \"#utility.yul\":16623:16754   */\n      tag_705\n        /* \"#utility.yul\":16749:16753   */\n      dup2\n        /* \"#utility.yul\":16623:16754   */\n      tag_511\n      jump\t// in\n    tag_705:\n        /* \"#utility.yul\":16615:16754   */\n      swap1\n      pop\n        /* \"#utility.yul\":16342:16761   */\n      swap2\n      swap1\n      pop\n      jump\t// out\n        /* \"#utility.yul\":16767:16933   */\n    tag_512:\n        /* \"#utility.yul\":16907:16925   */\n      0x57726f6e67206469737075746520494400000000000000000000000000000000\n        /* \"#utility.yul\":16903:16904   */\n      0x00\n        /* \"#utility.yul\":16895:16901   */\n      dup3\n        /* \"#utility.yul\":16891:16905   */\n      add\n        /* \"#utility.yul\":16884:16926   */\n      mstore\n        /* \"#utility.yul\":16767:16933   */\n      pop\n      jump\t// out\n        /* \"#utility.yul\":16939:17305   */\n    tag_513:\n        /* \"#utility.yul\":17081:17084   */\n      0x00\n        /* \"#utility.yul\":17102:17169   */\n      tag_708\n        /* \"#utility.yul\":17166:17168   */\n      0x10\n        /* \"#utility.yul\":17161:17164   */\n      dup4\n        /* \"#utility.yul\":17102:17169   */\n      tag_488\n      jump\t// in\n    tag_708:\n        /* \"#utility.yul\":17095:17169   */\n      swap2\n      pop\n        /* \"#utility.yul\":17178:17271   */\n      tag_709\n        /* \"#utility.yul\":17267:17270   */\n      dup3\n        /* \"#utility.yul\":17178:17271   */\n      tag_512\n      jump\t// in\n    tag_709:\n        /* \"#utility.yul\":17296:17298   */\n      0x20\n        /* \"#utility.yul\":17291:17294   */\n      dup3\n        /* \"#utility.yul\":17287:17299   */\n      add\n        /* \"#utility.yul\":17280:17299   */\n      swap1\n      pop\n        /* \"#utility.yul\":16939:17305   */\n      swap2\n      swap1\n      pop\n      jump\t// out\n        /* \"#utility.yul\":17311:17730   */\n    tag_275:\n        /* \"#utility.yul\":17477:17481   */\n      0x00\n        /* \"#utility.yul\":17515:17517   */\n      0x20\n        /* \"#utility.yul\":17504:17513   */\n      dup3\n        /* \"#utility.yul\":17500:17518   */\n      add\n        /* \"#utility.yul\":17492:17518   */\n      swap1\n      pop\n        /* \"#utility.yul\":17564:17573   */\n      dup2\n        /* \"#utility.yul\":17558:17562   */\n      dup2\n        /* \"#utility.yul\":17554:17574   */\n      sub\n        /* \"#utility.yul\":17550:17551   */\n      0x00\n        /* \"#utility.yul\":17539:17548   */\n      dup4\n        /* \"#utility.yul\":17535:17552   */\n      add\n        /* \"#utility.yul\":17528:17575   */\n      mstore\n        /* \"#utility.yul\":17592:17723   */\n      tag_711\n        /* \"#utility.yul\":17718:17722   */\n      dup2\n        /* \"#utility.yul\":17592:17723   */\n      tag_513\n      jump\t// in\n    tag_711:\n        /* \"#utility.yul\":17584:17723   */\n      swap1\n      pop\n        /* \"#utility.yul\":17311:17730   */\n      swap2\n      swap1\n      pop\n      jump\t// out\n        /* \"#utility.yul\":17736:17916   */\n    tag_514:\n        /* \"#utility.yul\":17784:17861   */\n      0x4e487b7100000000000000000000000000000000000000000000000000000000\n        /* \"#utility.yul\":17781:17782   */\n      0x00\n        /* \"#utility.yul\":17774:17862   */\n      mstore\n        /* \"#utility.yul\":17881:17885   */\n      0x12\n        /* \"#utility.yul\":17878:17879   */\n      0x04\n        /* \"#utility.yul\":17871:17886   */\n      mstore\n        /* \"#utility.yul\":17905:17909   */\n      0x24\n        /* \"#utility.yul\":17902:17903   */\n      0x00\n        /* \"#utility.yul\":17895:17910   */\n      revert\n        /* \"#utility.yul\":17922:18107   */\n    tag_285:\n        /* \"#utility.yul\":17962:17963   */\n      0x00\n        /* \"#utility.yul\":17979:17999   */\n      tag_714\n        /* \"#utility.yul\":17997:17998   */\n      dup3\n        /* \"#utility.yul\":17979:17999   */\n      tag_471\n      jump\t// in\n    tag_714:\n        /* \"#utility.yul\":17974:17999   */\n      swap2\n      pop\n        /* \"#utility.yul\":18013:18033   */\n      tag_715\n        /* \"#utility.yul\":18031:18032   */\n      dup4\n        /* \"#utility.yul\":18013:18033   */\n      tag_471\n      jump\t// in\n    tag_715:\n        /* \"#utility.yul\":18008:18033   */\n      swap3\n      pop\n        /* \"#utility.yul\":18052:18053   */\n      dup3\n        /* \"#utility.yul\":18042:18077   */\n      tag_716\n      jumpi\n        /* \"#utility.yul\":18057:18075   */\n      tag_717\n      tag_514\n      jump\t// in\n    tag_717:\n        /* \"#utility.yul\":18042:18077   */\n    tag_716:\n        /* \"#utility.yul\":18099:18100   */\n      dup3\n        /* \"#utility.yul\":18096:18097   */\n      dup3\n        /* \"#utility.yul\":18092:18101   */\n      div\n        /* \"#utility.yul\":18087:18101   */\n      swap1\n      pop\n        /* \"#utility.yul\":17922:18107   */\n      swap3\n      swap2\n      pop\n      pop\n      jump\t// out\n        /* \"#utility.yul\":18113:18304   */\n    tag_287:\n        /* \"#utility.yul\":18153:18156   */\n      0x00\n        /* \"#utility.yul\":18172:18192   */\n      tag_719\n        /* \"#utility.yul\":18190:18191   */\n      dup3\n        /* \"#utility.yul\":18172:18192   */\n      tag_471\n      jump\t// in\n    tag_719:\n        /* \"#utility.yul\":18167:18192   */\n      swap2\n      pop\n        /* \"#utility.yul\":18206:18226   */\n      tag_720\n        /* \"#utility.yul\":18224:18225   */\n      dup4\n        /* \"#utility.yul\":18206:18226   */\n      tag_471\n      jump\t// in\n    tag_720:\n        /* \"#utility.yul\":18201:18226   */\n      swap3\n      pop\n        /* \"#utility.yul\":18249:18250   */\n      dup3\n        /* \"#utility.yul\":18246:18247   */\n      dup3\n        /* \"#utility.yul\":18242:18251   */\n      add\n        /* \"#utility.yul\":18235:18251   */\n      swap1\n      pop\n        /* \"#utility.yul\":18270:18273   */\n      dup1\n        /* \"#utility.yul\":18267:18268   */\n      dup3\n        /* \"#utility.yul\":18264:18274   */\n      gt\n        /* \"#utility.yul\":18261:18297   */\n      iszero\n      tag_721\n      jumpi\n        /* \"#utility.yul\":18277:18295   */\n      tag_722\n      tag_507\n      jump\t// in\n    tag_722:\n        /* \"#utility.yul\":18261:18297   */\n    tag_721:\n        /* \"#utility.yul\":18113:18304   */\n      swap3\n      swap2\n      pop\n      pop\n      jump\t// out\n        /* \"#utility.yul\":18310:18642   */\n    tag_294:\n        /* \"#utility.yul\":18431:18435   */\n      0x00\n        /* \"#utility.yul\":18469:18471   */\n      0x40\n        /* \"#utility.yul\":18458:18467   */\n      dup3\n        /* \"#utility.yul\":18454:18472   */\n      add\n        /* \"#utility.yul\":18446:18472   */\n      swap1\n      pop\n        /* \"#utility.yul\":18482:18553   */\n      tag_724\n        /* \"#utility.yul\":18550:18551   */\n      0x00\n        /* \"#utility.yul\":18539:18548   */\n      dup4\n        /* \"#utility.yul\":18535:18552   */\n      add\n        /* \"#utility.yul\":18526:18532   */\n      dup6\n        /* \"#utility.yul\":18482:18553   */\n      tag_472\n      jump\t// in\n    tag_724:\n        /* \"#utility.yul\":18563:18635   */\n      tag_725\n        /* \"#utility.yul\":18631:18633   */\n      0x20\n        /* \"#utility.yul\":18620:18629   */\n      dup4\n        /* \"#utility.yul\":18616:18634   */\n      add\n        /* \"#utility.yul\":18607:18613   */\n      dup5\n        /* \"#utility.yul\":18563:18635   */\n      tag_472\n      jump\t// in\n    tag_725:\n        /* \"#utility.yul\":18310:18642   */\n      swap4\n      swap3\n      pop\n      pop\n      pop\n      jump\t// out\n        /* \"#utility.yul\":18648:18818   */\n    tag_515:\n        /* \"#utility.yul\":18788:18810   */\n      0x4e6f2066756e647320746f207769746864726177000000000000000000000000\n        /* \"#utility.yul\":18784:18785   */\n      0x00\n        /* \"#utility.yul\":18776:18782   */\n      dup3\n        /* \"#utility.yul\":18772:18786   */\n      add\n        /* \"#utility.yul\":18765:18811   */\n      mstore\n        /* \"#utility.yul\":18648:18818   */\n      pop\n      jump\t// out\n        /* \"#utility.yul\":18824:19190   */\n    tag_516:\n        /* \"#utility.yul\":18966:18969   */\n      0x00\n        /* \"#utility.yul\":18987:19054   */\n      tag_728\n        /* \"#utility.yul\":19051:19053   */\n      0x14\n        /* \"#utility.yul\":19046:19049   */\n      dup4\n        /* \"#utility.yul\":18987:19054   */\n      tag_488\n      jump\t// in\n    tag_728:\n        /* \"#utility.yul\":18980:19054   */\n      swap2\n      pop\n        /* \"#utility.yul\":19063:19156   */\n      tag_729\n        /* \"#utility.yul\":19152:19155   */\n      dup3\n        /* \"#utility.yul\":19063:19156   */\n      tag_515\n      jump\t// in\n    tag_729:\n        /* \"#utility.yul\":19181:19183   */\n      0x20\n        /* \"#utility.yul\":19176:19179   */\n      dup3\n        /* \"#utility.yul\":19172:19184   */\n      add\n        /* \"#utility.yul\":19165:19184   */\n      swap1\n      pop\n        /* \"#utility.yul\":18824:19190   */\n      swap2\n      swap1\n      pop\n      jump\t// out\n        /* \"#utility.yul\":19196:19615   */\n    tag_298:\n        /* \"#utility.yul\":19362:19366   */\n      0x00\n        /* \"#utility.yul\":19400:19402   */\n      0x20\n        /* \"#utility.yul\":19389:19398   */\n      dup3\n        /* \"#utility.yul\":19385:19403   */\n      add\n        /* \"#utility.yul\":19377:19403   */\n      swap1\n      pop\n        /* \"#utility.yul\":19449:19458   */\n      dup2\n        /* \"#utility.yul\":19443:19447   */\n      dup2\n        /* \"#utility.yul\":19439:19459   */\n      sub\n        /* \"#utility.yul\":19435:19436   */\n      0x00\n        /* \"#utility.yul\":19424:19433   */\n      dup4\n        /* \"#utility.yul\":19420:19437   */\n      add\n        /* \"#utility.yul\":19413:19460   */\n      mstore\n        /* \"#utility.yul\":19477:19608   */\n      tag_731\n        /* \"#utility.yul\":19603:19607   */\n      dup2\n        /* \"#utility.yul\":19477:19608   */\n      tag_516\n      jump\t// in\n    tag_731:\n        /* \"#utility.yul\":19469:19608   */\n      swap1\n      pop\n        /* \"#utility.yul\":19196:19615   */\n      swap2\n      swap1\n      pop\n      jump\t// out\n        /* \"#utility.yul\":19621:19768   */\n    tag_517:\n        /* \"#utility.yul\":19722:19733   */\n      0x00\n        /* \"#utility.yul\":19759:19762   */\n      dup2\n        /* \"#utility.yul\":19744:19762   */\n      swap1\n      pop\n        /* \"#utility.yul\":19621:19768   */\n      swap3\n      swap2\n      pop\n      pop\n      jump\t// out\n        /* \"#utility.yul\":19774:20172   */\n    tag_518:\n        /* \"#utility.yul\":19933:19936   */\n      0x00\n        /* \"#utility.yul\":19954:20037   */\n      tag_734\n        /* \"#utility.yul\":20035:20036   */\n      0x00\n        /* \"#utility.yul\":20030:20033   */\n      dup4\n        /* \"#utility.yul\":19954:20037   */\n      tag_517\n      jump\t// in\n    tag_734:\n        /* \"#utility.yul\":19947:20037   */\n      swap2\n      pop\n        /* \"#utility.yul\":20046:20139   */\n      tag_735\n        /* \"#utility.yul\":20135:20138   */\n      dup3\n        /* \"#utility.yul\":20046:20139   */\n      tag_502\n      jump\t// in\n    tag_735:\n        /* \"#utility.yul\":20164:20165   */\n      0x00\n        /* \"#utility.yul\":20159:20162   */\n      dup3\n        /* \"#utility.yul\":20155:20166   */\n      add\n        /* \"#utility.yul\":20148:20166   */\n      swap1\n      pop\n        /* \"#utility.yul\":19774:20172   */\n      swap2\n      swap1\n      pop\n      jump\t// out\n        /* \"#utility.yul\":20178:20557   */\n    tag_300:\n        /* \"#utility.yul\":20362:20365   */\n      0x00\n        /* \"#utility.yul\":20384:20531   */\n      tag_737\n        /* \"#utility.yul\":20527:20530   */\n      dup3\n        /* \"#utility.yul\":20384:20531   */\n      tag_518\n      jump\t// in\n    tag_737:\n        /* \"#utility.yul\":20377:20531   */\n      swap2\n      pop\n        /* \"#utility.yul\":20548:20551   */\n      dup2\n        /* \"#utility.yul\":20541:20551   */\n      swap1\n      pop\n        /* \"#utility.yul\":20178:20557   */\n      swap2\n      swap1\n      pop\n      jump\t// out\n        /* \"#utility.yul\":20563:20728   */\n    tag_519:\n        /* \"#utility.yul\":20703:20720   */\n      0x5472616e73666572206661696c65640000000000000000000000000000000000\n        /* \"#utility.yul\":20699:20700   */\n      0x00\n        /* \"#utility.yul\":20691:20697   */\n      dup3\n        /* \"#utility.yul\":20687:20701   */\n      add\n        /* \"#utility.yul\":20680:20721   */\n      mstore\n        /* \"#utility.yul\":20563:20728   */\n      pop\n      jump\t// out\n        /* \"#utility.yul\":20734:21100   */\n    tag_520:\n        /* \"#utility.yul\":20876:20879   */\n      0x00\n        /* \"#utility.yul\":20897:20964   */\n      tag_740\n        /* \"#utility.yul\":20961:20963   */\n      0x0f\n        /* \"#utility.yul\":20956:20959   */\n      dup4\n        /* \"#utility.yul\":20897:20964   */\n      tag_488\n      jump\t// in\n    tag_740:\n        /* \"#utility.yul\":20890:20964   */\n      swap2\n      pop\n        /* \"#utility.yul\":20973:21066   */\n      tag_741\n        /* \"#utility.yul\":21062:21065   */\n      dup3\n        /* \"#utility.yul\":20973:21066   */\n      tag_519\n      jump\t// in\n    tag_741:\n        /* \"#utility.yul\":21091:21093   */\n      0x20\n        /* \"#utility.yul\":21086:21089   */\n      dup3\n        /* \"#utility.yul\":21082:21094   */\n      add\n        /* \"#utility.yul\":21075:21094   */\n      swap1\n      pop\n        /* \"#utility.yul\":20734:21100   */\n      swap2\n      swap1\n      pop\n      jump\t// out\n        /* \"#utility.yul\":21106:21525   */\n    tag_306:\n        /* \"#utility.yul\":21272:21276   */\n      0x00\n        /* \"#utility.yul\":21310:21312   */\n      0x20\n        /* \"#utility.yul\":21299:21308   */\n      dup3\n        /* \"#utility.yul\":21295:21313   */\n      add\n        /* \"#utility.yul\":21287:21313   */\n      swap1\n      pop\n        /* \"#utility.yul\":21359:21368   */\n      dup2\n        /* \"#utility.yul\":21353:21357   */\n      dup2\n        /* \"#utility.yul\":21349:21369   */\n      sub\n        /* \"#utility.yul\":21345:21346   */\n      0x00\n        /* \"#utility.yul\":21334:21343   */\n      dup4\n        /* \"#utility.yul\":21330:21347   */\n      add\n        /* \"#utility.yul\":21323:21370   */\n      mstore\n        /* \"#utility.yul\":21387:21518   */\n      tag_743\n        /* \"#utility.yul\":21513:21517   */\n      dup2\n        /* \"#utility.yul\":21387:21518   */\n      tag_520\n      jump\t// in\n    tag_743:\n        /* \"#utility.yul\":21379:21518   */\n      swap1\n      pop\n        /* \"#utility.yul\":21106:21525   */\n      swap2\n      swap1\n      pop\n      jump\t// out\n        /* \"#utility.yul\":21531:21754   */\n    tag_521:\n        /* \"#utility.yul\":21671:21705   */\n      0x4f6e6c792072656e7465722063616e2070617920736563757269747920646570\n        /* \"#utility.yul\":21667:21668   */\n      0x00\n        /* \"#utility.yul\":21659:21665   */\n      dup3\n        /* \"#utility.yul\":21655:21669   */\n      add\n        /* \"#utility.yul\":21648:21706   */\n      mstore\n        /* \"#utility.yul\":21740:21746   */\n      0x6f73697400000000000000000000000000000000000000000000000000000000\n        /* \"#utility.yul\":21735:21737   */\n      0x20\n        /* \"#utility.yul\":21727:21733   */\n      dup3\n        /* \"#utility.yul\":21723:21738   */\n      add\n        /* \"#utility.yul\":21716:21747   */\n      mstore\n        /* \"#utility.yul\":21531:21754   */\n      pop\n      jump\t// out\n        /* \"#utility.yul\":21760:22126   */\n    tag_522:\n        /* \"#utility.yul\":21902:21905   */\n      0x00\n        /* \"#utility.yul\":21923:21990   */\n      tag_746\n        /* \"#utility.yul\":21987:21989   */\n      0x24\n        /* \"#utility.yul\":21982:21985   */\n      dup4\n        /* \"#utility.yul\":21923:21990   */\n      tag_488\n      jump\t// in\n    tag_746:\n        /* \"#utility.yul\":21916:21990   */\n      swap2\n      pop\n        /* \"#utility.yul\":21999:22092   */\n      tag_747\n        /* \"#utility.yul\":22088:22091   */\n      dup3\n        /* \"#utility.yul\":21999:22092   */\n      tag_521\n      jump\t// in\n    tag_747:\n        /* \"#utility.yul\":22117:22119   */\n      0x40\n        /* \"#utility.yul\":22112:22115   */\n      dup3\n        /* \"#utility.yul\":22108:22120   */\n      add\n        /* \"#utility.yul\":22101:22120   */\n      swap1\n      pop\n        /* \"#utility.yul\":21760:22126   */\n      swap2\n      swap1\n      pop\n      jump\t// out\n        /* \"#utility.yul\":22132:22551   */\n    tag_311:\n        /* \"#utility.yul\":22298:22302   */\n      0x00\n        /* \"#utility.yul\":22336:22338   */\n      0x20\n        /* \"#utility.yul\":22325:22334   */\n      dup3\n        /* \"#utility.yul\":22321:22339   */\n      add\n        /* \"#utility.yul\":22313:22339   */\n      swap1\n      pop\n        /* \"#utility.yul\":22385:22394   */\n      dup2\n        /* \"#utility.yul\":22379:22383   */\n      dup2\n        /* \"#utility.yul\":22375:22395   */\n      sub\n        /* \"#utility.yul\":22371:22372   */\n      0x00\n        /* \"#utility.yul\":22360:22369   */\n      dup4\n        /* \"#utility.yul\":22356:22373   */\n      add\n        /* \"#utility.yul\":22349:22396   */\n      mstore\n        /* \"#utility.yul\":22413:22544   */\n      tag_749\n        /* \"#utility.yul\":22539:22543   */\n      dup2\n        /* \"#utility.yul\":22413:22544   */\n      tag_522\n      jump\t// in\n    tag_749:\n        /* \"#utility.yul\":22405:22544   */\n      swap1\n      pop\n        /* \"#utility.yul\":22132:22551   */\n      swap2\n      swap1\n      pop\n      jump\t// out\n        /* \"#utility.yul\":22557:22733   */\n    tag_523:\n        /* \"#utility.yul\":22697:22725   */\n      0x436f6e747261637420697320616c726561647920616374697665000000000000\n        /* \"#utility.yul\":22693:22694   */\n      0x00\n        /* \"#utility.yul\":22685:22691   */\n      dup3\n        /* \"#utility.yul\":22681:22695   */\n      add\n        /* \"#utility.yul\":22674:22726   */\n      mstore\n        /* \"#utility.yul\":22557:22733   */\n      pop\n      jump\t// out\n        /* \"#utility.yul\":22739:23105   */\n    tag_524:\n        /* \"#utility.yul\":22881:22884   */\n      0x00\n        /* \"#utility.yul\":22902:22969   */\n      tag_752\n        /* \"#utility.yul\":22966:22968   */\n      0x1a\n        /* \"#utility.yul\":22961:22964   */\n      dup4\n        /* \"#utility.yul\":22902:22969   */\n      tag_488\n      jump\t// in\n    tag_752:\n        /* \"#utility.yul\":22895:22969   */\n      swap2\n      pop\n        /* \"#utility.yul\":22978:23071   */\n      tag_753\n        /* \"#utility.yul\":23067:23070   */\n      dup3\n        /* \"#utility.yul\":22978:23071   */\n      tag_523\n      jump\t// in\n    tag_753:\n        /* \"#utility.yul\":23096:23098   */\n      0x20\n        /* \"#utility.yul\":23091:23094   */\n      dup3\n        /* \"#utility.yul\":23087:23099   */\n      add\n        /* \"#utility.yul\":23080:23099   */\n      swap1\n      pop\n        /* \"#utility.yul\":22739:23105   */\n      swap2\n      swap1\n      pop\n      jump\t// out\n        /* \"#utility.yul\":23111:23530   */\n    tag_314:\n        /* \"#utility.yul\":23277:23281   */\n      0x00\n        /* \"#utility.yul\":23315:23317   */\n      0x20\n        /* \"#utility.yul\":23304:23313   */\n      dup3\n        /* \"#utility.yul\":23300:23318   */\n      add\n        /* \"#utility.yul\":23292:23318   */\n      swap1\n      pop\n        /* \"#utility.yul\":23364:23373   */\n      dup2\n        /* \"#utility.yul\":23358:23362   */\n      dup2\n        /* \"#utility.yul\":23354:23374   */\n      sub\n        /* \"#utility.yul\":23350:23351   */\n      0x00\n        /* \"#utility.yul\":23339:23348   */\n      dup4\n        /* \"#utility.yul\":23335:23352   */\n      add\n        /* \"#utility.yul\":23328:23375   */\n      mstore\n        /* \"#utility.yul\":23392:23523   */\n      tag_755\n        /* \"#utility.yul\":23518:23522   */\n      dup2\n        /* \"#utility.yul\":23392:23523   */\n      tag_524\n      jump\t// in\n    tag_755:\n        /* \"#utility.yul\":23384:23523   */\n      swap1\n      pop\n        /* \"#utility.yul\":23111:23530   */\n      swap2\n      swap1\n      pop\n      jump\t// out\n        /* \"#utility.yul\":23536:23756   */\n    tag_525:\n        /* \"#utility.yul\":23676:23710   */\n      0x496e636f7272656374207365637572697479206465706f73697420616d6f756e\n        /* \"#utility.yul\":23672:23673   */\n      0x00\n        /* \"#utility.yul\":23664:23670   */\n      dup3\n        /* \"#utility.yul\":23660:23674   */\n      add\n        /* \"#utility.yul\":23653:23711   */\n      mstore\n        /* \"#utility.yul\":23745:23748   */\n      0x7400000000000000000000000000000000000000000000000000000000000000\n        /* \"#utility.yul\":23740:23742   */\n      0x20\n        /* \"#utility.yul\":23732:23738   */\n      dup3\n        /* \"#utility.yul\":23728:23743   */\n      add\n        /* \"#utility.yul\":23721:23749   */\n      mstore\n        /* \"#utility.yul\":23536:23756   */\n      pop\n      jump\t// out\n        /* \"#utility.yul\":23762:24128   */\n    tag_526:\n        /* \"#utility.yul\":23904:23907   */\n      0x00\n        /* \"#utility.yul\":23925:23992   */\n      tag_758\n        /* \"#utility.yul\":23989:23991   */\n      0x21\n        /* \"#utility.yul\":23984:23987   */\n      dup4\n        /* \"#utility.yul\":23925:23992   */\n      tag_488\n      jump\t// in\n    tag_758:\n        /* \"#utility.yul\":23918:23992   */\n      swap2\n      pop\n        /* \"#utility.yul\":24001:24094   */\n      tag_759\n        /* \"#utility.yul\":24090:24093   */\n      dup3\n        /* \"#utility.yul\":24001:24094   */\n      tag_525\n      jump\t// in\n    tag_759:\n        /* \"#utility.yul\":24119:24121   */\n      0x40\n        /* \"#utility.yul\":24114:24117   */\n      dup3\n        /* \"#utility.yul\":24110:24122   */\n      add\n        /* \"#utility.yul\":24103:24122   */\n      swap1\n      pop\n        /* \"#utility.yul\":23762:24128   */\n      swap2\n      swap1\n      pop\n      jump\t// out\n        /* \"#utility.yul\":24134:24553   */\n    tag_317:\n        /* \"#utility.yul\":24300:24304   */\n      0x00\n        /* \"#utility.yul\":24338:24340   */\n      0x20\n        /* \"#utility.yul\":24327:24336   */\n      dup3\n        /* \"#utility.yul\":24323:24341   */\n      add\n        /* \"#utility.yul\":24315:24341   */\n      swap1\n      pop\n        /* \"#utility.yul\":24387:24396   */\n      dup2\n        /* \"#utility.yul\":24381:24385   */\n      dup2\n        /* \"#utility.yul\":24377:24397   */\n      sub\n        /* \"#utility.yul\":24373:24374   */\n      0x00\n        /* \"#utility.yul\":24362:24371   */\n      dup4\n        /* \"#utility.yul\":24358:24375   */\n      add\n        /* \"#utility.yul\":24351:24398   */\n      mstore\n        /* \"#utility.yul\":24415:24546   */\n      tag_761\n        /* \"#utility.yul\":24541:24545   */\n      dup2\n        /* \"#utility.yul\":24415:24546   */\n      tag_526\n      jump\t// in\n    tag_761:\n        /* \"#utility.yul\":24407:24546   */\n      swap1\n      pop\n        /* \"#utility.yul\":24134:24553   */\n      swap2\n      swap1\n      pop\n      jump\t// out\n        /* \"#utility.yul\":24559:24780   */\n    tag_527:\n        /* \"#utility.yul\":24699:24733   */\n      0x4f6e6c79206c616e646c6f72642063616e207265636f7264207574696c697469\n        /* \"#utility.yul\":24695:24696   */\n      0x00\n        /* \"#utility.yul\":24687:24693   */\n      dup3\n        /* \"#utility.yul\":24683:24697   */\n      add\n        /* \"#utility.yul\":24676:24734   */\n      mstore\n        /* \"#utility.yul\":24768:24772   */\n      0x6573000000000000000000000000000000000000000000000000000000000000\n        /* \"#utility.yul\":24763:24765   */\n      0x20\n        /* \"#utility.yul\":24755:24761   */\n      dup3\n        /* \"#utility.yul\":24751:24766   */\n      add\n        /* \"#utility.yul\":24744:24773   */\n      mstore\n        /* \"#utility.yul\":24559:24780   */\n      pop\n      jump\t// out\n        /* \"#utility.yul\":24786:25152   */\n    tag_528:\n        /* \"#utility.yul\":24928:24931   */\n      0x00\n        /* \"#utility.yul\":24949:25016   */\n      tag_764\n        /* \"#utility.yul\":25013:25015   */\n      0x22\n        /* \"#utility.yul\":25008:25011   */\n      dup4\n        /* \"#utility.yul\":24949:25016   */\n      tag_488\n      jump\t// in\n    tag_764:\n        /* \"#utility.yul\":24942:25016   */\n      swap2\n      pop\n        /* \"#utility.yul\":25025:25118   */\n      tag_765\n        /* \"#utility.yul\":25114:25117   */\n      dup3\n        /* \"#utility.yul\":25025:25118   */\n      tag_527\n      jump\t// in\n    tag_765:\n        /* \"#utility.yul\":25143:25145   */\n      0x40\n        /* \"#utility.yul\":25138:25141   */\n      dup3\n        /* \"#utility.yul\":25134:25146   */\n      add\n        /* \"#utility.yul\":25127:25146   */\n      swap1\n      pop\n        /* \"#utility.yul\":24786:25152   */\n      swap2\n      swap1\n      pop\n      jump\t// out\n        /* \"#utility.yul\":25158:25577   */\n    tag_330:\n        /* \"#utility.yul\":25324:25328   */\n      0x00\n        /* \"#utility.yul\":25362:25364   */\n      0x20\n        /* \"#utility.yul\":25351:25360   */\n      dup3\n        /* \"#utility.yul\":25347:25365   */\n      add\n        /* \"#utility.yul\":25339:25365   */\n      swap1\n      pop\n        /* \"#utility.yul\":25411:25420   */\n      dup2\n        /* \"#utility.yul\":25405:25409   */\n      dup2\n        /* \"#utility.yul\":25401:25421   */\n      sub\n        /* \"#utility.yul\":25397:25398   */\n      0x00\n        /* \"#utility.yul\":25386:25395   */\n      dup4\n        /* \"#utility.yul\":25382:25399   */\n      add\n        /* \"#utility.yul\":25375:25422   */\n      mstore\n        /* \"#utility.yul\":25439:25570   */\n      tag_767\n        /* \"#utility.yul\":25565:25569   */\n      dup2\n        /* \"#utility.yul\":25439:25570   */\n      tag_528\n      jump\t// in\n    tag_767:\n        /* \"#utility.yul\":25431:25570   */\n      swap1\n      pop\n        /* \"#utility.yul\":25158:25577   */\n      swap2\n      swap1\n      pop\n      jump\t// out\n        /* \"#utility.yul\":25583:25754   */\n    tag_529:\n        /* \"#utility.yul\":25723:25746   */\n      0x52656e7420706572696f642068617320656e6465640000000000000000000000\n        /* \"#utility.yul\":25719:25720   */\n      0x00\n        /* \"#utility.yul\":25711:25717   */\n      dup3\n        /* \"#utility.yul\":25707:25721   */\n      add\n        /* \"#utility.yul\":25700:25747   */\n      mstore\n        /* \"#utility.yul\":25583:25754   */\n      pop\n      jump\t// out\n        /* \"#utility.yul\":25760:26126   */\n    tag_530:\n        /* \"#utility.yul\":25902:25905   */\n      0x00\n        /* \"#utility.yul\":25923:25990   */\n      tag_770\n        /* \"#utility.yul\":25987:25989   */\n      0x15\n        /* \"#utility.yul\":25982:25985   */\n      dup4\n        /* \"#utility.yul\":25923:25990   */\n      tag_488\n      jump\t// in\n    tag_770:\n        /* \"#utility.yul\":25916:25990   */\n      swap2\n      pop\n        /* \"#utility.yul\":25999:26092   */\n      tag_771\n        /* \"#utility.yul\":26088:26091   */\n      dup3\n        /* \"#utility.yul\":25999:26092   */\n      tag_529\n      jump\t// in\n    tag_771:\n        /* \"#utility.yul\":26117:26119   */\n      0x20\n        /* \"#utility.yul\":26112:26115   */\n      dup3\n        /* \"#utility.yul\":26108:26120   */\n      add\n        /* \"#utility.yul\":26101:26120   */\n      swap1\n      pop\n        /* \"#utility.yul\":25760:26126   */\n      swap2\n      swap1\n      pop\n      jump\t// out\n        /* \"#utility.yul\":26132:26551   */\n    tag_335:\n        /* \"#utility.yul\":26298:26302   */\n      0x00\n        /* \"#utility.yul\":26336:26338   */\n      0x20\n        /* \"#utility.yul\":26325:26334   */\n      dup3\n        /* \"#utility.yul\":26321:26339   */\n      add\n        /* \"#utility.yul\":26313:26339   */\n      swap1\n      pop\n        /* \"#utility.yul\":26385:26394   */\n      dup2\n        /* \"#utility.yul\":26379:26383   */\n      dup2\n        /* \"#utility.yul\":26375:26395   */\n      sub\n        /* \"#utility.yul\":26371:26372   */\n      0x00\n        /* \"#utility.yul\":26360:26369   */\n      dup4\n        /* \"#utility.yul\":26356:26373   */\n      add\n        /* \"#utility.yul\":26349:26396   */\n      mstore\n        /* \"#utility.yul\":26413:26544   */\n      tag_773\n        /* \"#utility.yul\":26539:26543   */\n      dup2\n        /* \"#utility.yul\":26413:26544   */\n      tag_530\n      jump\t// in\n    tag_773:\n        /* \"#utility.yul\":26405:26544   */\n      swap1\n      pop\n        /* \"#utility.yul\":26132:26551   */\n      swap2\n      swap1\n      pop\n      jump\t// out\n        /* \"#utility.yul\":26557:26783   */\n    tag_531:\n        /* \"#utility.yul\":26697:26731   */\n      0x4f6e6c79206c616e646c6f72642063616e206163746976617465207468652063\n        /* \"#utility.yul\":26693:26694   */\n      0x00\n        /* \"#utility.yul\":26685:26691   */\n      dup3\n        /* \"#utility.yul\":26681:26695   */\n      add\n        /* \"#utility.yul\":26674:26732   */\n      mstore\n        /* \"#utility.yul\":26766:26775   */\n      0x6f6e747261637400000000000000000000000000000000000000000000000000\n        /* \"#utility.yul\":26761:26763   */\n      0x20\n        /* \"#utility.yul\":26753:26759   */\n      dup3\n        /* \"#utility.yul\":26749:26764   */\n      add\n        /* \"#utility.yul\":26742:26776   */\n      mstore\n        /* \"#utility.yul\":26557:26783   */\n      pop\n      jump\t// out\n        /* \"#utility.yul\":26789:27155   */\n    tag_532:\n        /* \"#utility.yul\":26931:26934   */\n      0x00\n        /* \"#utility.yul\":26952:27019   */\n      tag_776\n        /* \"#utility.yul\":27016:27018   */\n      0x27\n        /* \"#utility.yul\":27011:27014   */\n      dup4\n        /* \"#utility.yul\":26952:27019   */\n      tag_488\n      jump\t// in\n    tag_776:\n        /* \"#utility.yul\":26945:27019   */\n      swap2\n      pop\n        /* \"#utility.yul\":27028:27121   */\n      tag_777\n        /* \"#utility.yul\":27117:27120   */\n      dup3\n        /* \"#utility.yul\":27028:27121   */\n      tag_531\n      jump\t// in\n    tag_777:\n        /* \"#utility.yul\":27146:27148   */\n      0x40\n        /* \"#utility.yul\":27141:27144   */\n      dup3\n        /* \"#utility.yul\":27137:27149   */\n      add\n        /* \"#utility.yul\":27130:27149   */\n      swap1\n      pop\n        /* \"#utility.yul\":26789:27155   */\n      swap2\n      swap1\n      pop\n      jump\t// out\n        /* \"#utility.yul\":27161:27580   */\n    tag_340:\n        /* \"#utility.yul\":27327:27331   */\n      0x00\n        /* \"#utility.yul\":27365:27367   */\n      0x20\n        /* \"#utility.yul\":27354:27363   */\n      dup3\n        /* \"#utility.yul\":27350:27368   */\n      add\n        /* \"#utility.yul\":27342:27368   */\n      swap1\n      pop\n        /* \"#utility.yul\":27414:27423   */\n      dup2\n        /* \"#utility.yul\":27408:27412   */\n      dup2\n        /* \"#utility.yul\":27404:27424   */\n      sub\n        /* \"#utility.yul\":27400:27401   */\n      0x00\n        /* \"#utility.yul\":27389:27398   */\n      dup4\n        /* \"#utility.yul\":27385:27402   */\n      add\n        /* \"#utility.yul\":27378:27425   */\n      mstore\n        /* \"#utility.yul\":27442:27573   */\n      tag_779\n        /* \"#utility.yul\":27568:27572   */\n      dup2\n        /* \"#utility.yul\":27442:27573   */\n      tag_532\n      jump\t// in\n    tag_779:\n        /* \"#utility.yul\":27434:27573   */\n      swap1\n      pop\n        /* \"#utility.yul\":27161:27580   */\n      swap2\n      swap1\n      pop\n      jump\t// out\n        /* \"#utility.yul\":27586:27808   */\n    tag_533:\n        /* \"#utility.yul\":27726:27760   */\n      0x5365637572697479206465706f736974206d7573742062652070616964206669\n        /* \"#utility.yul\":27722:27723   */\n      0x00\n        /* \"#utility.yul\":27714:27720   */\n      dup3\n        /* \"#utility.yul\":27710:27724   */\n      add\n        /* \"#utility.yul\":27703:27761   */\n      mstore\n        /* \"#utility.yul\":27795:27800   */\n      0x7273740000000000000000000000000000000000000000000000000000000000\n        /* \"#utility.yul\":27790:27792   */\n      0x20\n        /* \"#utility.yul\":27782:27788   */\n      dup3\n        /* \"#utility.yul\":27778:27793   */\n      add\n        /* \"#utility.yul\":27771:27801   */\n      mstore\n        /* \"#utility.yul\":27586:27808   */\n      pop\n      jump\t// out\n        /* \"#utility.yul\":27814:28180   */\n    tag_534:\n        /* \"#utility.yul\":27956:27959   */\n      0x00\n        /* \"#utility.yul\":27977:28044   */\n      tag_782\n        /* \"#utility.yul\":28041:28043   */\n      0x23\n        /* \"#utility.yul\":28036:28039   */\n      dup4\n        /* \"#utility.yul\":27977:28044   */\n      tag_488\n      jump\t// in\n    tag_782:\n        /* \"#utility.yul\":27970:28044   */\n      swap2\n      pop\n        /* \"#utility.yul\":28053:28146   */\n      tag_783\n        /* \"#utility.yul\":28142:28145   */\n      dup3\n        /* \"#utility.yul\":28053:28146   */\n      tag_533\n      jump\t// in\n    tag_783:\n        /* \"#utility.yul\":28171:28173   */\n      0x40\n        /* \"#utility.yul\":28166:28169   */\n      dup3\n        /* \"#utility.yul\":28162:28174   */\n      add\n        /* \"#utility.yul\":28155:28174   */\n      swap1\n      pop\n        /* \"#utility.yul\":27814:28180   */\n      swap2\n      swap1\n      pop\n      jump\t// out\n        /* \"#utility.yul\":28186:28605   */\n    tag_343:\n        /* \"#utility.yul\":28352:28356   */\n      0x00\n        /* \"#utility.yul\":28390:28392   */\n      0x20\n        /* \"#utility.yul\":28379:28388   */\n      dup3\n        /* \"#utility.yul\":28375:28393   */\n      add\n        /* \"#utility.yul\":28367:28393   */\n      swap1\n      pop\n        /* \"#utility.yul\":28439:28448   */\n      dup2\n        /* \"#utility.yul\":28433:28437   */\n      dup2\n        /* \"#utility.yul\":28429:28449   */\n      sub\n        /* \"#utility.yul\":28425:28426   */\n      0x00\n        /* \"#utility.yul\":28414:28423   */\n      dup4\n        /* \"#utility.yul\":28410:28427   */\n      add\n        /* \"#utility.yul\":28403:28450   */\n      mstore\n        /* \"#utility.yul\":28467:28598   */\n      tag_785\n        /* \"#utility.yul\":28593:28597   */\n      dup2\n        /* \"#utility.yul\":28467:28598   */\n      tag_534\n      jump\t// in\n    tag_785:\n        /* \"#utility.yul\":28459:28598   */\n      swap1\n      pop\n        /* \"#utility.yul\":28186:28605   */\n      swap2\n      swap1\n      pop\n      jump\t// out\n        /* \"#utility.yul\":28611:28785   */\n    tag_535:\n        /* \"#utility.yul\":28751:28777   */\n      0x4f6e6c792072656e7465722063616e207061792072656e740000000000000000\n        /* \"#utility.yul\":28747:28748   */\n      0x00\n        /* \"#utility.yul\":28739:28745   */\n      dup3\n        /* \"#utility.yul\":28735:28749   */\n      add\n        /* \"#utility.yul\":28728:28778   */\n      mstore\n        /* \"#utility.yul\":28611:28785   */\n      pop\n      jump\t// out\n        /* \"#utility.yul\":28791:29157   */\n    tag_536:\n        /* \"#utility.yul\":28933:28936   */\n      0x00\n        /* \"#utility.yul\":28954:29021   */\n      tag_788\n        /* \"#utility.yul\":29018:29020   */\n      0x18\n        /* \"#utility.yul\":29013:29016   */\n      dup4\n        /* \"#utility.yul\":28954:29021   */\n      tag_488\n      jump\t// in\n    tag_788:\n        /* \"#utility.yul\":28947:29021   */\n      swap2\n      pop\n        /* \"#utility.yul\":29030:29123   */\n      tag_789\n        /* \"#utility.yul\":29119:29122   */\n      dup3\n        /* \"#utility.yul\":29030:29123   */\n      tag_535\n      jump\t// in\n    tag_789:\n        /* \"#utility.yul\":29148:29150   */\n      0x20\n        /* \"#utility.yul\":29143:29146   */\n      dup3\n        /* \"#utility.yul\":29139:29151   */\n      add\n        /* \"#utility.yul\":29132:29151   */\n      swap1\n      pop\n        /* \"#utility.yul\":28791:29157   */\n      swap2\n      swap1\n      pop\n      jump\t// out\n        /* \"#utility.yul\":29163:29582   */\n    tag_349:\n        /* \"#utility.yul\":29329:29333   */\n      0x00\n        /* \"#utility.yul\":29367:29369   */\n      0x20\n        /* \"#utility.yul\":29356:29365   */\n      dup3\n        /* \"#utility.yul\":29352:29370   */\n      add\n        /* \"#utility.yul\":29344:29370   */\n      swap1\n      pop\n        /* \"#utility.yul\":29416:29425   */\n      dup2\n        /* \"#utility.yul\":29410:29414   */\n      dup2\n        /* \"#utility.yul\":29406:29426   */\n      sub\n        /* \"#utility.yul\":29402:29403   */\n      0x00\n        /* \"#utility.yul\":29391:29400   */\n      dup4\n        /* \"#utility.yul\":29387:29404   */\n      add\n        /* \"#utility.yul\":29380:29427   */\n      mstore\n        /* \"#utility.yul\":29444:29575   */\n      tag_791\n        /* \"#utility.yul\":29570:29574   */\n      dup2\n        /* \"#utility.yul\":29444:29575   */\n      tag_536\n      jump\t// in\n    tag_791:\n        /* \"#utility.yul\":29436:29575   */\n      swap1\n      pop\n        /* \"#utility.yul\":29163:29582   */\n      swap2\n      swap1\n      pop\n      jump\t// out\n        /* \"#utility.yul\":29588:29816   */\n    tag_537:\n        /* \"#utility.yul\":29728:29762   */\n      0x52656e7420666f722074686973206d6f6e74682068617320616c726561647920\n        /* \"#utility.yul\":29724:29725   */\n      0x00\n        /* \"#utility.yul\":29716:29722   */\n      dup3\n        /* \"#utility.yul\":29712:29726   */\n      add\n        /* \"#utility.yul\":29705:29763   */\n      mstore\n        /* \"#utility.yul\":29797:29808   */\n      0x6265656e20706169640000000000000000000000000000000000000000000000\n        /* \"#utility.yul\":29792:29794   */\n      0x20\n        /* \"#utility.yul\":29784:29790   */\n      dup3\n        /* \"#utility.yul\":29780:29795   */\n      add\n        /* \"#utility.yul\":29773:29809   */\n      mstore\n        /* \"#utility.yul\":29588:29816   */\n      pop\n      jump\t// out\n        /* \"#utility.yul\":29822:30188   */\n    tag_538:\n        /* \"#utility.yul\":29964:29967   */\n      0x00\n        /* \"#utility.yul\":29985:30052   */\n      tag_794\n        /* \"#utility.yul\":30049:30051   */\n      0x29\n        /* \"#utility.yul\":30044:30047   */\n      dup4\n        /* \"#utility.yul\":29985:30052   */\n      tag_488\n      jump\t// in\n    tag_794:\n        /* \"#utility.yul\":29978:30052   */\n      swap2\n      pop\n        /* \"#utility.yul\":30061:30154   */\n      tag_795\n        /* \"#utility.yul\":30150:30153   */\n      dup3\n        /* \"#utility.yul\":30061:30154   */\n      tag_537\n      jump\t// in\n    tag_795:\n        /* \"#utility.yul\":30179:30181   */\n      0x40\n        /* \"#utility.yul\":30174:30177   */\n      dup3\n        /* \"#utility.yul\":30170:30182   */\n      add\n        /* \"#utility.yul\":30163:30182   */\n      swap1\n      pop\n        /* \"#utility.yul\":29822:30188   */\n      swap2\n      swap1\n      pop\n      jump\t// out\n        /* \"#utility.yul\":30194:30613   */\n    tag_356:\n        /* \"#utility.yul\":30360:30364   */\n      0x00\n        /* \"#utility.yul\":30398:30400   */\n      0x20\n        /* \"#utility.yul\":30387:30396   */\n      dup3\n        /* \"#utility.yul\":30383:30401   */\n      add\n        /* \"#utility.yul\":30375:30401   */\n      swap1\n      pop\n        /* \"#utility.yul\":30447:30456   */\n      dup2\n        /* \"#utility.yul\":30441:30445   */\n      dup2\n        /* \"#utility.yul\":30437:30457   */\n      sub\n        /* \"#utility.yul\":30433:30434   */\n      0x00\n        /* \"#utility.yul\":30422:30431   */\n      dup4\n        /* \"#utility.yul\":30418:30435   */\n      add\n        /* \"#utility.yul\":30411:30458   */\n      mstore\n        /* \"#utility.yul\":30475:30606   */\n      tag_797\n        /* \"#utility.yul\":30601:30605   */\n      dup2\n        /* \"#utility.yul\":30475:30606   */\n      tag_538\n      jump\t// in\n    tag_797:\n        /* \"#utility.yul\":30467:30606   */\n      swap1\n      pop\n        /* \"#utility.yul\":30194:30613   */\n      swap2\n      swap1\n      pop\n      jump\t// out\n        /* \"#utility.yul\":30619:30853   */\n    tag_539:\n        /* \"#utility.yul\":30759:30793   */\n      0x5574696c697469657320666f722074686973206d6f6e74682068617665206e6f\n        /* \"#utility.yul\":30755:30756   */\n      0x00\n        /* \"#utility.yul\":30747:30753   */\n      dup3\n        /* \"#utility.yul\":30743:30757   */\n      add\n        /* \"#utility.yul\":30736:30794   */\n      mstore\n        /* \"#utility.yul\":30828:30845   */\n      0x74206265656e207265636f726465640000000000000000000000000000000000\n        /* \"#utility.yul\":30823:30825   */\n      0x20\n        /* \"#utility.yul\":30815:30821   */\n      dup3\n        /* \"#utility.yul\":30811:30826   */\n      add\n        /* \"#utility.yul\":30804:30846   */\n      mstore\n        /* \"#utility.yul\":30619:30853   */\n      pop\n      jump\t// out\n        /* \"#utility.yul\":30859:31225   */\n    tag_540:\n        /* \"#utility.yul\":31001:31004   */\n      0x00\n        /* \"#utility.yul\":31022:31089   */\n      tag_800\n        /* \"#utility.yul\":31086:31088   */\n      0x2f\n        /* \"#utility.yul\":31081:31084   */\n      dup4\n        /* \"#utility.yul\":31022:31089   */\n      tag_488\n      jump\t// in\n    tag_800:\n        /* \"#utility.yul\":31015:31089   */\n      swap2\n      pop\n        /* \"#utility.yul\":31098:31191   */\n      tag_801\n        /* \"#utility.yul\":31187:31190   */\n      dup3\n        /* \"#utility.yul\":31098:31191   */\n      tag_539\n      jump\t// in\n    tag_801:\n        /* \"#utility.yul\":31216:31218   */\n      0x40\n        /* \"#utility.yul\":31211:31214   */\n      dup3\n        /* \"#utility.yul\":31207:31219   */\n      add\n        /* \"#utility.yul\":31200:31219   */\n      swap1\n      pop\n        /* \"#utility.yul\":30859:31225   */\n      swap2\n      swap1\n      pop\n      jump\t// out\n        /* \"#utility.yul\":31231:31650   */\n    tag_359:\n        /* \"#utility.yul\":31397:31401   */\n      0x00\n        /* \"#utility.yul\":31435:31437   */\n      0x20\n        /* \"#utility.yul\":31424:31433   */\n      dup3\n        /* \"#utility.yul\":31420:31438   */\n      add\n        /* \"#utility.yul\":31412:31438   */\n      swap1\n      pop\n        /* \"#utility.yul\":31484:31493   */\n      dup2\n        /* \"#utility.yul\":31478:31482   */\n      dup2\n        /* \"#utility.yul\":31474:31494   */\n      sub\n        /* \"#utility.yul\":31470:31471   */\n      0x00\n        /* \"#utility.yul\":31459:31468   */\n      dup4\n        /* \"#utility.yul\":31455:31472   */\n      add\n        /* \"#utility.yul\":31448:31495   */\n      mstore\n        /* \"#utility.yul\":31512:31643   */\n      tag_803\n        /* \"#utility.yul\":31638:31642   */\n      dup2\n        /* \"#utility.yul\":31512:31643   */\n      tag_540\n      jump\t// in\n    tag_803:\n        /* \"#utility.yul\":31504:31643   */\n      swap1\n      pop\n        /* \"#utility.yul\":31231:31650   */\n      swap2\n      swap1\n      pop\n      jump\t// out\n        /* \"#utility.yul\":31656:31827   */\n    tag_541:\n        /* \"#utility.yul\":31796:31819   */\n      0x496e636f72726563742072656e7420616d6f756e740000000000000000000000\n        /* \"#utility.yul\":31792:31793   */\n      0x00\n        /* \"#utility.yul\":31784:31790   */\n      dup3\n        /* \"#utility.yul\":31780:31794   */\n      add\n        /* \"#utility.yul\":31773:31820   */\n      mstore\n        /* \"#utility.yul\":31656:31827   */\n      pop\n      jump\t// out\n        /* \"#utility.yul\":31833:32199   */\n    tag_542:\n        /* \"#utility.yul\":31975:31978   */\n      0x00\n        /* \"#utility.yul\":31996:32063   */\n      tag_806\n        /* \"#utility.yul\":32060:32062   */\n      0x15\n        /* \"#utility.yul\":32055:32058   */\n      dup4\n        /* \"#utility.yul\":31996:32063   */\n      tag_488\n      jump\t// in\n    tag_806:\n        /* \"#utility.yul\":31989:32063   */\n      swap2\n      pop\n        /* \"#utility.yul\":32072:32165   */\n      tag_807\n        /* \"#utility.yul\":32161:32164   */\n      dup3\n        /* \"#utility.yul\":32072:32165   */\n      tag_541\n      jump\t// in\n    tag_807:\n        /* \"#utility.yul\":32190:32192   */\n      0x20\n        /* \"#utility.yul\":32185:32188   */\n      dup3\n        /* \"#utility.yul\":32181:32193   */\n      add\n        /* \"#utility.yul\":32174:32193   */\n      swap1\n      pop\n        /* \"#utility.yul\":31833:32199   */\n      swap2\n      swap1\n      pop\n      jump\t// out\n        /* \"#utility.yul\":32205:32624   */\n    tag_364:\n        /* \"#utility.yul\":32371:32375   */\n      0x00\n        /* \"#utility.yul\":32409:32411   */\n      0x20\n        /* \"#utility.yul\":32398:32407   */\n      dup3\n        /* \"#utility.yul\":32394:32412   */\n      add\n        /* \"#utility.yul\":32386:32412   */\n      swap1\n      pop\n        /* \"#utility.yul\":32458:32467   */\n      dup2\n        /* \"#utility.yul\":32452:32456   */\n      dup2\n        /* \"#utility.yul\":32448:32468   */\n      sub\n        /* \"#utility.yul\":32444:32445   */\n      0x00\n        /* \"#utility.yul\":32433:32442   */\n      dup4\n        /* \"#utility.yul\":32429:32446   */\n      add\n        /* \"#utility.yul\":32422:32469   */\n      mstore\n        /* \"#utility.yul\":32486:32617   */\n      tag_809\n        /* \"#utility.yul\":32612:32616   */\n      dup2\n        /* \"#utility.yul\":32486:32617   */\n      tag_542\n      jump\t// in\n    tag_809:\n        /* \"#utility.yul\":32478:32617   */\n      swap1\n      pop\n        /* \"#utility.yul\":32205:32624   */\n      swap2\n      swap1\n      pop\n      jump\t// out\n        /* \"#utility.yul\":32630:32863   */\n    tag_371:\n        /* \"#utility.yul\":32669:32672   */\n      0x00\n        /* \"#utility.yul\":32692:32716   */\n      tag_811\n        /* \"#utility.yul\":32710:32715   */\n      dup3\n        /* \"#utility.yul\":32692:32716   */\n      tag_471\n      jump\t// in\n    tag_811:\n        /* \"#utility.yul\":32683:32716   */\n      swap2\n      pop\n        /* \"#utility.yul\":32738:32804   */\n      0xffffffffffffffffffffffffffffffffffffffffffffffffffffffffffffffff\n        /* \"#utility.yul\":32731:32736   */\n      dup3\n        /* \"#utility.yul\":32728:32805   */\n      sub\n        /* \"#utility.yul\":32725:32828   */\n      tag_812\n      jumpi\n        /* \"#utility.yul\":32808:32826   */\n      tag_813\n      tag_507\n      jump\t// in\n    tag_813:\n        /* \"#utility.yul\":32725:32828   */\n    tag_812:\n        /* \"#utility.yul\":32855:32856   */\n      0x01\n        /* \"#utility.yul\":32848:32853   */\n      dup3\n        /* \"#utility.yul\":32844:32857   */\n      add\n        /* \"#utility.yul\":32837:32857   */\n      swap1\n      pop\n        /* \"#utility.yul\":32630:32863   */\n      swap2\n      swap1\n      pop\n      jump\t// out\n        /* \"#utility.yul\":32869:33096   */\n    tag_543:\n        /* \"#utility.yul\":33009:33043   */\n      0x4f6e6c792072656e7465722063616e207365742074686520636f756e74657220\n        /* \"#utility.yul\":33005:33006   */\n      0x00\n        /* \"#utility.yul\":32997:33003   */\n      dup3\n        /* \"#utility.yul\":32993:33007   */\n      add\n        /* \"#utility.yul\":32986:33044   */\n      mstore\n        /* \"#utility.yul\":33078:33088   */\n      0x657374696d617465000000000000000000000000000000000000000000000000\n        /* \"#utility.yul\":33073:33075   */\n      0x20\n        /* \"#utility.yul\":33065:33071   */\n      dup3\n        /* \"#utility.yul\":33061:33076   */\n      add\n        /* \"#utility.yul\":33054:33089   */\n      mstore\n        /* \"#utility.yul\":32869:33096   */\n      pop\n      jump\t// out\n        /* \"#utility.yul\":33102:33468   */\n    tag_544:\n        /* \"#utility.yul\":33244:33247   */\n      0x00\n        /* \"#utility.yul\":33265:33332   */\n      tag_816\n        /* \"#utility.yul\":33329:33331   */\n      0x28\n        /* \"#utility.yul\":33324:33327   */\n      dup4\n        /* \"#utility.yul\":33265:33332   */\n      tag_488\n      jump\t// in\n    tag_816:\n        /* \"#utility.yul\":33258:33332   */\n      swap2\n      pop\n        /* \"#utility.yul\":33341:33434   */\n      tag_817\n        /* \"#utility.yul\":33430:33433   */\n      dup3\n        /* \"#utility.yul\":33341:33434   */\n      tag_543\n      jump\t// in\n    tag_817:\n        /* \"#utility.yul\":33459:33461   */\n      0x40\n        /* \"#utility.yul\":33454:33457   */\n      dup3\n        /* \"#utility.yul\":33450:33462   */\n      add\n        /* \"#utility.yul\":33443:33462   */\n      swap1\n      pop\n        /* \"#utility.yul\":33102:33468   */\n      swap2\n      swap1\n      pop\n      jump\t// out\n        /* \"#utility.yul\":33474:33893   */\n    tag_375:\n        /* \"#utility.yul\":33640:33644   */\n      0x00\n        /* \"#utility.yul\":33678:33680   */\n      0x20\n        /* \"#utility.yul\":33667:33676   */\n      dup3\n        /* \"#utility.yul\":33663:33681   */\n      add\n        /* \"#utility.yul\":33655:33681   */\n      swap1\n      pop\n        /* \"#utility.yul\":33727:33736   */\n      dup2\n        /* \"#utility.yul\":33721:33725   */\n      dup2\n        /* \"#utility.yul\":33717:33737   */\n      sub\n        /* \"#utility.yul\":33713:33714   */\n      0x00\n        /* \"#utility.yul\":33702:33711   */\n      dup4\n        /* \"#utility.yul\":33698:33715   */\n      add\n        /* \"#utility.yul\":33691:33738   */\n      mstore\n        /* \"#utility.yul\":33755:33886   */\n      tag_819\n        /* \"#utility.yul\":33881:33885   */\n      dup2\n        /* \"#utility.yul\":33755:33886   */\n      tag_544\n      jump\t// in\n    tag_819:\n        /* \"#utility.yul\":33747:33886   */\n      swap1\n      pop\n        /* \"#utility.yul\":33474:33893   */\n      swap2\n      swap1\n      pop\n      jump\t// out\n        /* \"#utility.yul\":33899:34125   */\n    tag_545:\n        /* \"#utility.yul\":34039:34073   */\n      0x4c616e646c6f7264206d757374207365742064616d61676520657374696d6174\n        /* \"#utility.yul\":34035:34036   */\n      0x00\n        /* \"#utility.yul\":34027:34033   */\n      dup3\n        /* \"#utility.yul\":34023:34037   */\n      add\n        /* \"#utility.yul\":34016:34074   */\n      mstore\n        /* \"#utility.yul\":34108:34117   */\n      0x6520666972737400000000000000000000000000000000000000000000000000\n        /* \"#utility.yul\":34103:34105   */\n      0x20\n        /* \"#utility.yul\":34095:34101   */\n      dup3\n        /* \"#utility.yul\":34091:34106   */\n      add\n        /* \"#utility.yul\":34084:34118   */\n      mstore\n        /* \"#utility.yul\":33899:34125   */\n      pop\n      jump\t// out\n        /* \"#utility.yul\":34131:34497   */\n    tag_546:\n        /* \"#utility.yul\":34273:34276   */\n      0x00\n        /* \"#utility.yul\":34294:34361   */\n      tag_822\n        /* \"#utility.yul\":34358:34360   */\n      0x27\n        /* \"#utility.yul\":34353:34356   */\n      dup4\n        /* \"#utility.yul\":34294:34361   */\n      tag_488\n      jump\t// in\n    tag_822:\n        /* \"#utility.yul\":34287:34361   */\n      swap2\n      pop\n        /* \"#utility.yul\":34370:34463   */\n      tag_823\n        /* \"#utility.yul\":34459:34462   */\n      dup3\n        /* \"#utility.yul\":34370:34463   */\n      tag_545\n      jump\t// in\n    tag_823:\n        /* \"#utility.yul\":34488:34490   */\n      0x40\n        /* \"#utility.yul\":34483:34486   */\n      dup3\n        /* \"#utility.yul\":34479:34491   */\n      add\n        /* \"#utility.yul\":34472:34491   */\n      swap1\n      pop\n        /* \"#utility.yul\":34131:34497   */\n      swap2\n      swap1\n      pop\n      jump\t// out\n        /* \"#utility.yul\":34503:34922   */\n    tag_378:\n        /* \"#utility.yul\":34669:34673   */\n      0x00\n        /* \"#utility.yul\":34707:34709   */\n      0x20\n        /* \"#utility.yul\":34696:34705   */\n      dup3\n        /* \"#utility.yul\":34692:34710   */\n      add\n        /* \"#utility.yul\":34684:34710   */\n      swap1\n      pop\n        /* \"#utility.yul\":34756:34765   */\n      dup2\n        /* \"#utility.yul\":34750:34754   */\n      dup2\n        /* \"#utility.yul\":34746:34766   */\n      sub\n        /* \"#utility.yul\":34742:34743   */\n      0x00\n        /* \"#utility.yul\":34731:34740   */\n      dup4\n        /* \"#utility.yul\":34727:34744   */\n      add\n        /* \"#utility.yul\":34720:34767   */\n      mstore\n        /* \"#utility.yul\":34784:34915   */\n      tag_825\n        /* \"#utility.yul\":34910:34914   */\n      dup2\n        /* \"#utility.yul\":34784:34915   */\n      tag_546\n      jump\t// in\n    tag_825:\n        /* \"#utility.yul\":34776:34915   */\n      swap1\n      pop\n        /* \"#utility.yul\":34503:34922   */\n      swap2\n      swap1\n      pop\n      jump\t// out\n        /* \"#utility.yul\":34928:35148   */\n    tag_547:\n        /* \"#utility.yul\":35068:35102   */\n      0x4f6e6c792072656e7465722063616e20736b69702072656e74207061796d656e\n        /* \"#utility.yul\":35064:35065   */\n      0x00\n        /* \"#utility.yul\":35056:35062   */\n      dup3\n        /* \"#utility.yul\":35052:35066   */\n      add\n        /* \"#utility.yul\":35045:35103   */\n      mstore\n        /* \"#utility.yul\":35137:35140   */\n      0x7400000000000000000000000000000000000000000000000000000000000000\n        /* \"#utility.yul\":35132:35134   */\n      0x20\n        /* \"#utility.yul\":35124:35130   */\n      dup3\n        /* \"#utility.yul\":35120:35135   */\n      add\n        /* \"#utility.yul\":35113:35141   */\n      mstore\n        /* \"#utility.yul\":34928:35148   */\n      pop\n      jump\t// out\n        /* \"#utility.yul\":35154:35520   */\n    tag_548:\n        /* \"#utility.yul\":35296:35299   */\n      0x00\n        /* \"#utility.yul\":35317:35384   */\n      tag_828\n        /* \"#utility.yul\":35381:35383   */\n      0x21\n        /* \"#utility.yul\":35376:35379   */\n      dup4\n        /* \"#utility.yul\":35317:35384   */\n      tag_488\n      jump\t// in\n    tag_828:\n        /* \"#utility.yul\":35310:35384   */\n      swap2\n      pop\n        /* \"#utility.yul\":35393:35486   */\n      tag_829\n        /* \"#utility.yul\":35482:35485   */\n      dup3\n        /* \"#utility.yul\":35393:35486   */\n      tag_547\n      jump\t// in\n    tag_829:\n        /* \"#utility.yul\":35511:35513   */\n      0x40\n        /* \"#utility.yul\":35506:35509   */\n      dup3\n        /* \"#utility.yul\":35502:35514   */\n      add\n        /* \"#utility.yul\":35495:35514   */\n      swap1\n      pop\n        /* \"#utility.yul\":35154:35520   */\n      swap2\n      swap1\n      pop\n      jump\t// out\n        /* \"#utility.yul\":35526:35945   */\n    tag_383:\n        /* \"#utility.yul\":35692:35696   */\n      0x00\n        /* \"#utility.yul\":35730:35732   */\n      0x20\n        /* \"#utility.yul\":35719:35728   */\n      dup3\n        /* \"#utility.yul\":35715:35733   */\n      add\n        /* \"#utility.yul\":35707:35733   */\n      swap1\n      pop\n        /* \"#utility.yul\":35779:35788   */\n      dup2\n        /* \"#utility.yul\":35773:35777   */\n      dup2\n        /* \"#utility.yul\":35769:35789   */\n      sub\n        /* \"#utility.yul\":35765:35766   */\n      0x00\n        /* \"#utility.yul\":35754:35763   */\n      dup4\n        /* \"#utility.yul\":35750:35767   */\n      add\n        /* \"#utility.yul\":35743:35790   */\n      mstore\n        /* \"#utility.yul\":35807:35938   */\n      tag_831\n        /* \"#utility.yul\":35933:35937   */\n      dup2\n        /* \"#utility.yul\":35807:35938   */\n      tag_548\n      jump\t// in\n    tag_831:\n        /* \"#utility.yul\":35799:35938   */\n      swap1\n      pop\n        /* \"#utility.yul\":35526:35945   */\n      swap2\n      swap1\n      pop\n      jump\t// out\n        /* \"#utility.yul\":35951:36175   */\n    tag_549:\n        /* \"#utility.yul\":36091:36125   */\n      0x4f6e6c79206c616e646c6f72642063616e207365742061677265656d656e7420\n        /* \"#utility.yul\":36087:36088   */\n      0x00\n        /* \"#utility.yul\":36079:36085   */\n      dup3\n        /* \"#utility.yul\":36075:36089   */\n      add\n        /* \"#utility.yul\":36068:36126   */\n      mstore\n        /* \"#utility.yul\":36160:36167   */\n      0x7465726d73000000000000000000000000000000000000000000000000000000\n        /* \"#utility.yul\":36155:36157   */\n      0x20\n        /* \"#utility.yul\":36147:36153   */\n      dup3\n        /* \"#utility.yul\":36143:36158   */\n      add\n        /* \"#utility.yul\":36136:36168   */\n      mstore\n        /* \"#utility.yul\":35951:36175   */\n      pop\n      jump\t// out\n        /* \"#utility.yul\":36181:36547   */\n    tag_550:\n        /* \"#utility.yul\":36323:36326   */\n      0x00\n        /* \"#utility.yul\":36344:36411   */\n      tag_834\n        /* \"#utility.yul\":36408:36410   */\n      0x25\n        /* \"#utility.yul\":36403:36406   */\n      dup4\n        /* \"#utility.yul\":36344:36411   */\n      tag_488\n      jump\t// in\n    tag_834:\n        /* \"#utility.yul\":36337:36411   */\n      swap2\n      pop\n        /* \"#utility.yul\":36420:36513   */\n      tag_835\n        /* \"#utility.yul\":36509:36512   */\n      dup3\n        /* \"#utility.yul\":36420:36513   */\n      tag_549\n      jump\t// in\n    tag_835:\n        /* \"#utility.yul\":36538:36540   */\n      0x40\n        /* \"#utility.yul\":36533:36536   */\n      dup3\n        /* \"#utility.yul\":36529:36541   */\n      add\n        /* \"#utility.yul\":36522:36541   */\n      swap1\n      pop\n        /* \"#utility.yul\":36181:36547   */\n      swap2\n      swap1\n      pop\n      jump\t// out\n        /* \"#utility.yul\":36553:36972   */\n    tag_404:\n        /* \"#utility.yul\":36719:36723   */\n      0x00\n        /* \"#utility.yul\":36757:36759   */\n      0x20\n        /* \"#utility.yul\":36746:36755   */\n      dup3\n        /* \"#utility.yul\":36742:36760   */\n      add\n        /* \"#utility.yul\":36734:36760   */\n      swap1\n      pop\n        /* \"#utility.yul\":36806:36815   */\n      dup2\n        /* \"#utility.yul\":36800:36804   */\n      dup2\n        /* \"#utility.yul\":36796:36816   */\n      sub\n        /* \"#utility.yul\":36792:36793   */\n      0x00\n        /* \"#utility.yul\":36781:36790   */\n      dup4\n        /* \"#utility.yul\":36777:36794   */\n      add\n        /* \"#utility.yul\":36770:36817   */\n      mstore\n        /* \"#utility.yul\":36834:36965   */\n      tag_837\n        /* \"#utility.yul\":36960:36964   */\n      dup2\n        /* \"#utility.yul\":36834:36965   */\n      tag_550\n      jump\t// in\n    tag_837:\n        /* \"#utility.yul\":36826:36965   */\n      swap1\n      pop\n        /* \"#utility.yul\":36553:36972   */\n      swap2\n      swap1\n      pop\n      jump\t// out\n        /* \"#utility.yul\":36978:37420   */\n    tag_408:\n        /* \"#utility.yul\":37127:37131   */\n      0x00\n        /* \"#utility.yul\":37165:37167   */\n      0x60\n        /* \"#utility.yul\":37154:37163   */\n      dup3\n        /* \"#utility.yul\":37150:37168   */\n      add\n        /* \"#utility.yul\":37142:37168   */\n      swap1\n      pop\n        /* \"#utility.yul\":37178:37249   */\n      tag_839\n        /* \"#utility.yul\":37246:37247   */\n      0x00\n        /* \"#utility.yul\":37235:37244   */\n      dup4\n        /* \"#utility.yul\":37231:37248   */\n      add\n        /* \"#utility.yul\":37222:37228   */\n      dup7\n        /* \"#utility.yul\":37178:37249   */\n      tag_472\n      jump\t// in\n    tag_839:\n        /* \"#utility.yul\":37259:37331   */\n      tag_840\n        /* \"#utility.yul\":37327:37329   */\n      0x20\n        /* \"#utility.yul\":37316:37325   */\n      dup4\n        /* \"#utility.yul\":37312:37330   */\n      add\n        /* \"#utility.yul\":37303:37309   */\n      dup6\n        /* \"#utility.yul\":37259:37331   */\n      tag_472\n      jump\t// in\n    tag_840:\n        /* \"#utility.yul\":37341:37413   */\n      tag_841\n        /* \"#utility.yul\":37409:37411   */\n      0x40\n        /* \"#utility.yul\":37398:37407   */\n      dup4\n        /* \"#utility.yul\":37394:37412   */\n      add\n        /* \"#utility.yul\":37385:37391   */\n      dup5\n        /* \"#utility.yul\":37341:37413   */\n      tag_472\n      jump\t// in\n    tag_841:\n        /* \"#utility.yul\":36978:37420   */\n      swap5\n      swap4\n      pop\n      pop\n      pop\n      pop\n      jump\t// out\n        /* \"#utility.yul\":37426:37648   */\n    tag_551:\n        /* \"#utility.yul\":37566:37600   */\n      0x4f6e6c792072656e7465722063616e2072656a6563742074686520657374696d\n        /* \"#utility.yul\":37562:37563   */\n      0x00\n        /* \"#utility.yul\":37554:37560   */\n      dup3\n        /* \"#utility.yul\":37550:37564   */\n      add\n        /* \"#utility.yul\":37543:37601   */\n      mstore\n        /* \"#utility.yul\":37635:37640   */\n      0x6174650000000000000000000000000000000000000000000000000000000000\n        /* \"#utility.yul\":37630:37632   */\n      0x20\n        /* \"#utility.yul\":37622:37628   */\n      dup3\n        /* \"#utility.yul\":37618:37633   */\n      add\n        /* \"#utility.yul\":37611:37641   */\n      mstore\n        /* \"#utility.yul\":37426:37648   */\n      pop\n      jump\t// out\n        /* \"#utility.yul\":37654:38020   */\n    tag_552:\n        /* \"#utility.yul\":37796:37799   */\n      0x00\n        /* \"#utility.yul\":37817:37884   */\n      tag_844\n        /* \"#utility.yul\":37881:37883   */\n      0x23\n        /* \"#utility.yul\":37876:37879   */\n      dup4\n        /* \"#utility.yul\":37817:37884   */\n      tag_488\n      jump\t// in\n    tag_844:\n        /* \"#utility.yul\":37810:37884   */\n      swap2\n      pop\n        /* \"#utility.yul\":37893:37986   */\n      tag_845\n        /* \"#utility.yul\":37982:37985   */\n      dup3\n        /* \"#utility.yul\":37893:37986   */\n      tag_551\n      jump\t// in\n    tag_845:\n        /* \"#utility.yul\":38011:38013   */\n      0x40\n        /* \"#utility.yul\":38006:38009   */\n      dup3\n        /* \"#utility.yul\":38002:38014   */\n      add\n        /* \"#utility.yul\":37995:38014   */\n      swap1\n      pop\n        /* \"#utility.yul\":37654:38020   */\n      swap2\n      swap1\n      pop\n      jump\t// out\n        /* \"#utility.yul\":38026:38445   */\n    tag_412:\n        /* \"#utility.yul\":38192:38196   */\n      0x00\n        /* \"#utility.yul\":38230:38232   */\n      0x20\n        /* \"#utility.yul\":38219:38228   */\n      dup3\n        /* \"#utility.yul\":38215:38233   */\n      add\n        /* \"#utility.yul\":38207:38233   */\n      swap1\n      pop\n        /* \"#utility.yul\":38279:38288   */\n      dup2\n        /* \"#utility.yul\":38273:38277   */\n      dup2\n        /* \"#utility.yul\":38269:38289   */\n      sub\n        /* \"#utility.yul\":38265:38266   */\n      0x00\n        /* \"#utility.yul\":38254:38263   */\n      dup4\n        /* \"#utility.yul\":38250:38267   */\n      add\n        /* \"#utility.yul\":38243:38290   */\n      mstore\n        /* \"#utility.yul\":38307:38438   */\n      tag_847\n        /* \"#utility.yul\":38433:38437   */\n      dup2\n        /* \"#utility.yul\":38307:38438   */\n      tag_552\n      jump\t// in\n    tag_847:\n        /* \"#utility.yul\":38299:38438   */\n      swap1\n      pop\n        /* \"#utility.yul\":38026:38445   */\n      swap2\n      swap1\n      pop\n      jump\t// out\n        /* \"#utility.yul\":38451:38673   */\n    tag_553:\n        /* \"#utility.yul\":38591:38625   */\n      0x4f6e6c792072656e7465722063616e206163636570742074686520657374696d\n        /* \"#utility.yul\":38587:38588   */\n      0x00\n        /* \"#utility.yul\":38579:38585   */\n      dup3\n        /* \"#utility.yul\":38575:38589   */\n      add\n        /* \"#utility.yul\":38568:38626   */\n      mstore\n        /* \"#utility.yul\":38660:38665   */\n      0x6174650000000000000000000000000000000000000000000000000000000000\n        /* \"#utility.yul\":38655:38657   */\n      0x20\n        /* \"#utility.yul\":38647:38653   */\n      dup3\n        /* \"#utility.yul\":38643:38658   */\n      add\n        /* \"#utility.yul\":38636:38666   */\n      mstore\n        /* \"#utility.yul\":38451:38673   */\n      pop\n      jump\t// out\n        /* \"#utility.yul\":38679:39045   */\n    tag_554:\n        /* \"#utility.yul\":38821:38824   */\n      0x00\n        /* \"#utility.yul\":38842:38909   */\n      tag_850\n        /* \"#utility.yul\":38906:38908   */\n      0x23\n        /* \"#utility.yul\":38901:38904   */\n      dup4\n        /* \"#utility.yul\":38842:38909   */\n      tag_488\n      jump\t// in\n    tag_850:\n        /* \"#utility.yul\":38835:38909   */\n      swap2\n      pop\n        /* \"#utility.yul\":38918:39011   */\n      tag_851\n        /* \"#utility.yul\":39007:39010   */\n      dup3\n        /* \"#utility.yul\":38918:39011   */\n      tag_553\n      jump\t// in\n    tag_851:\n        /* \"#utility.yul\":39036:39038   */\n      0x40\n        /* \"#utility.yul\":39031:39034   */\n      dup3\n        /* \"#utility.yul\":39027:39039   */\n      add\n        /* \"#utility.yul\":39020:39039   */\n      swap1\n      pop\n        /* \"#utility.yul\":38679:39045   */\n      swap2\n      swap1\n      pop\n      jump\t// out\n        /* \"#utility.yul\":39051:39470   */\n    tag_418:\n        /* \"#utility.yul\":39217:39221   */\n      0x00\n        /* \"#utility.yul\":39255:39257   */\n      0x20\n        /* \"#utility.yul\":39244:39253   */\n      dup3\n        /* \"#utility.yul\":39240:39258   */\n      add\n        /* \"#utility.yul\":39232:39258   */\n      swap1\n      pop\n        /* \"#utility.yul\":39304:39313   */\n      dup2\n        /* \"#utility.yul\":39298:39302   */\n      dup2\n        /* \"#utility.yul\":39294:39314   */\n      sub\n        /* \"#utility.yul\":39290:39291   */\n      0x00\n        /* \"#utility.yul\":39279:39288   */\n      dup4\n        /* \"#utility.yul\":39275:39292   */\n      add\n        /* \"#utility.yul\":39268:39315   */\n      mstore\n        /* \"#utility.yul\":39332:39463   */\n      tag_853\n        /* \"#utility.yul\":39458:39462   */\n      dup2\n        /* \"#utility.yul\":39332:39463   */\n      tag_554\n      jump\t// in\n    tag_853:\n        /* \"#utility.yul\":39324:39463   */\n      swap1\n      pop\n        /* \"#utility.yul\":39051:39470   */\n      swap2\n      swap1\n      pop\n      jump\t// out\n        /* \"#utility.yul\":39476:39708   */\n    tag_555:\n        /* \"#utility.yul\":39616:39650   */\n      0x4f6e6c79206c616e646c6f72642063616e206163636570742074686520636f75\n        /* \"#utility.yul\":39612:39613   */\n      0x00\n        /* \"#utility.yul\":39604:39610   */\n      dup3\n        /* \"#utility.yul\":39600:39614   */\n      add\n        /* \"#utility.yul\":39593:39651   */\n      mstore\n        /* \"#utility.yul\":39685:39700   */\n      0x6e74657220657374696d61746500000000000000000000000000000000000000\n        /* \"#utility.yul\":39680:39682   */\n      0x20\n        /* \"#utility.yul\":39672:39678   */\n      dup3\n        /* \"#utility.yul\":39668:39683   */\n      add\n        /* \"#utility.yul\":39661:39701   */\n      mstore\n        /* \"#utility.yul\":39476:39708   */\n      pop\n      jump\t// out\n        /* \"#utility.yul\":39714:40080   */\n    tag_556:\n        /* \"#utility.yul\":39856:39859   */\n      0x00\n        /* \"#utility.yul\":39877:39944   */\n      tag_856\n        /* \"#utility.yul\":39941:39943   */\n      0x2d\n        /* \"#utility.yul\":39936:39939   */\n      dup4\n        /* \"#utility.yul\":39877:39944   */\n      tag_488\n      jump\t// in\n    tag_856:\n        /* \"#utility.yul\":39870:39944   */\n      swap2\n      pop\n        /* \"#utility.yul\":39953:40046   */\n      tag_857\n        /* \"#utility.yul\":40042:40045   */\n      dup3\n        /* \"#utility.yul\":39953:40046   */\n      tag_555\n      jump\t// in\n    tag_857:\n        /* \"#utility.yul\":40071:40073   */\n      0x40\n        /* \"#utility.yul\":40066:40069   */\n      dup3\n        /* \"#utility.yul\":40062:40074   */\n      add\n        /* \"#utility.yul\":40055:40074   */\n      swap1\n      pop\n        /* \"#utility.yul\":39714:40080   */\n      swap2\n      swap1\n      pop\n      jump\t// out\n        /* \"#utility.yul\":40086:40505   */\n    tag_432:\n        /* \"#utility.yul\":40252:40256   */\n      0x00\n        /* \"#utility.yul\":40290:40292   */\n      0x20\n        /* \"#utility.yul\":40279:40288   */\n      dup3\n        /* \"#utility.yul\":40275:40293   */\n      add\n        /* \"#utility.yul\":40267:40293   */\n      swap1\n      pop\n        /* \"#utility.yul\":40339:40348   */\n      dup2\n        /* \"#utility.yul\":40333:40337   */\n      dup2\n        /* \"#utility.yul\":40329:40349   */\n      sub\n        /* \"#utility.yul\":40325:40326   */\n      0x00\n        /* \"#utility.yul\":40314:40323   */\n      dup4\n        /* \"#utility.yul\":40310:40327   */\n      add\n        /* \"#utility.yul\":40303:40350   */\n      mstore\n        /* \"#utility.yul\":40367:40498   */\n      tag_859\n        /* \"#utility.yul\":40493:40497   */\n      dup2\n        /* \"#utility.yul\":40367:40498   */\n      tag_556\n      jump\t// in\n    tag_859:\n        /* \"#utility.yul\":40359:40498   */\n      swap1\n      pop\n        /* \"#utility.yul\":40086:40505   */\n      swap2\n      swap1\n      pop\n      jump\t// out\n        /* \"#utility.yul\":40511:40683   */\n    tag_557:\n        /* \"#utility.yul\":40651:40675   */\n      0x4469737075746520616c72656164792072616973656400000000000000000000\n        /* \"#utility.yul\":40647:40648   */\n      0x00\n        /* \"#utility.yul\":40639:40645   */\n      dup3\n        /* \"#utility.yul\":40635:40649   */\n      add\n        /* \"#utility.yul\":40628:40676   */\n      mstore\n        /* \"#utility.yul\":40511:40683   */\n      pop\n      jump\t// out\n        /* \"#utility.yul\":40689:41055   */\n    tag_558:\n        /* \"#utility.yul\":40831:40834   */\n      0x00\n        /* \"#utility.yul\":40852:40919   */\n      tag_862\n        /* \"#utility.yul\":40916:40918   */\n      0x16\n        /* \"#utility.yul\":40911:40914   */\n      dup4\n        /* \"#utility.yul\":40852:40919   */\n      tag_488\n      jump\t// in\n    tag_862:\n        /* \"#utility.yul\":40845:40919   */\n      swap2\n      pop\n        /* \"#utility.yul\":40928:41021   */\n      tag_863\n        /* \"#utility.yul\":41017:41020   */\n      dup3\n        /* \"#utility.yul\":40928:41021   */\n      tag_557\n      jump\t// in\n    tag_863:\n        /* \"#utility.yul\":41046:41048   */\n      0x20\n        /* \"#utility.yul\":41041:41044   */\n      dup3\n        /* \"#utility.yul\":41037:41049   */\n      add\n        /* \"#utility.yul\":41030:41049   */\n      swap1\n      pop\n        /* \"#utility.yul\":40689:41055   */\n      swap2\n      swap1\n      pop\n      jump\t// out\n        /* \"#utility.yul\":41061:41480   */\n    tag_447:\n        /* \"#utility.yul\":41227:41231   */\n      0x00\n        /* \"#utility.yul\":41265:41267   */\n      0x20\n        /* \"#utility.yul\":41254:41263   */\n      dup3\n        /* \"#utility.yul\":41250:41268   */\n      add\n        /* \"#utility.yul\":41242:41268   */\n      swap1\n      pop\n        /* \"#utility.yul\":41314:41323   */\n      dup2\n        /* \"#utility.yul\":41308:41312   */\n      dup2\n        /* \"#utility.yul\":41304:41324   */\n      sub\n        /* \"#utility.yul\":41300:41301   */\n      0x00\n        /* \"#utility.yul\":41289:41298   */\n      dup4\n        /* \"#utility.yul\":41285:41302   */\n      add\n        /* \"#utility.yul\":41278:41325   */\n      mstore\n        /* \"#utility.yul\":41342:41473   */\n      tag_865\n        /* \"#utility.yul\":41468:41472   */\n      dup2\n        /* \"#utility.yul\":41342:41473   */\n      tag_558\n      jump\t// in\n    tag_865:\n        /* \"#utility.yul\":41334:41473   */\n      swap1\n      pop\n        /* \"#utility.yul\":41061:41480   */\n      swap2\n      swap1\n      pop\n      jump\t// out\n        /* \"#utility.yul\":41486:41724   */\n    tag_559:\n        /* \"#utility.yul\":41626:41660   */\n      0x426f746820657374696d61746573206d75737420626520736574206265666f72\n        /* \"#utility.yul\":41622:41623   */\n      0x00\n        /* \"#utility.yul\":41614:41620   */\n      dup3\n        /* \"#utility.yul\":41610:41624   */\n      add\n        /* \"#utility.yul\":41603:41661   */\n      mstore\n        /* \"#utility.yul\":41695:41716   */\n      0x652072616973696e672061206469737075746500000000000000000000000000\n        /* \"#utility.yul\":41690:41692   */\n      0x20\n        /* \"#utility.yul\":41682:41688   */\n      dup3\n        /* \"#utility.yul\":41678:41693   */\n      add\n        /* \"#utility.yul\":41671:41717   */\n      mstore\n        /* \"#utility.yul\":41486:41724   */\n      pop\n      jump\t// out\n        /* \"#utility.yul\":41730:42096   */\n    tag_560:\n        /* \"#utility.yul\":41872:41875   */\n      0x00\n        /* \"#utility.yul\":41893:41960   */\n      tag_868\n        /* \"#utility.yul\":41957:41959   */\n      0x33\n        /* \"#utility.yul\":41952:41955   */\n      dup4\n        /* \"#utility.yul\":41893:41960   */\n      tag_488\n      jump\t// in\n    tag_868:\n        /* \"#utility.yul\":41886:41960   */\n      swap2\n      pop\n        /* \"#utility.yul\":41969:42062   */\n      tag_869\n        /* \"#utility.yul\":42058:42061   */\n      dup3\n        /* \"#utility.yul\":41969:42062   */\n      tag_559\n      jump\t// in\n    tag_869:\n        /* \"#utility.yul\":42087:42089   */\n      0x40\n        /* \"#utility.yul\":42082:42085   */\n      dup3\n        /* \"#utility.yul\":42078:42090   */\n      add\n        /* \"#utility.yul\":42071:42090   */\n      swap1\n      pop\n        /* \"#utility.yul\":41730:42096   */\n      swap2\n      swap1\n      pop\n      jump\t// out\n        /* \"#utility.yul\":42102:42521   */\n    tag_451:\n        /* \"#utility.yul\":42268:42272   */\n      0x00\n        /* \"#utility.yul\":42306:42308   */\n      0x20\n        /* \"#utility.yul\":42295:42304   */\n      dup3\n        /* \"#utility.yul\":42291:42309   */\n      add\n        /* \"#utility.yul\":42283:42309   */\n      swap1\n      pop\n        /* \"#utility.yul\":42355:42364   */\n      dup2\n        /* \"#utility.yul\":42349:42353   */\n      dup2\n        /* \"#utility.yul\":42345:42365   */\n      sub\n        /* \"#utility.yul\":42341:42342   */\n      0x00\n        /* \"#utility.yul\":42330:42339   */\n      dup4\n        /* \"#utility.yul\":42326:42343   */\n      add\n        /* \"#utility.yul\":42319:42366   */\n      mstore\n        /* \"#utility.yul\":42383:42514   */\n      tag_871\n        /* \"#utility.yul\":42509:42513   */\n      dup2\n        /* \"#utility.yul\":42383:42514   */\n      tag_560\n      jump\t// in\n    tag_871:\n        /* \"#utility.yul\":42375:42514   */\n      swap1\n      pop\n        /* \"#utility.yul\":42102:42521   */\n      swap2\n      swap1\n      pop\n      jump\t// out\n        /* \"#utility.yul\":42527:42612   */\n    tag_561:\n        /* \"#utility.yul\":42572:42579   */\n      0x00\n        /* \"#utility.yul\":42601:42606   */\n      dup2\n        /* \"#utility.yul\":42590:42606   */\n      swap1\n      pop\n        /* \"#utility.yul\":42527:42612   */\n      swap2\n      swap1\n      pop\n      jump\t// out\n        /* \"#utility.yul\":42618:42776   */\n    tag_562:\n        /* \"#utility.yul\":42676:42685   */\n      0x00\n        /* \"#utility.yul\":42709:42770   */\n      tag_874\n        /* \"#utility.yul\":42727:42769   */\n      tag_875\n        /* \"#utility.yul\":42736:42768   */\n      tag_876\n        /* \"#utility.yul\":42762:42767   */\n      dup5\n        /* \"#utility.yul\":42736:42768   */\n      tag_561\n      jump\t// in\n    tag_876:\n        /* \"#utility.yul\":42727:42769   */\n      tag_481\n      jump\t// in\n    tag_875:\n        /* \"#utility.yul\":42709:42770   */\n      tag_471\n      jump\t// in\n    tag_874:\n        /* \"#utility.yul\":42696:42770   */\n      swap1\n      pop\n        /* \"#utility.yul\":42618:42776   */\n      swap2\n      swap1\n      pop\n      jump\t// out\n        /* \"#utility.yul\":42782:42929   */\n    tag_563:\n        /* \"#utility.yul\":42877:42922   */\n      tag_878\n        /* \"#utility.yul\":42916:42921   */\n      dup2\n        /* \"#utility.yul\":42877:42922   */\n      tag_562\n      jump\t// in\n    tag_878:\n        /* \"#utility.yul\":42872:42875   */\n      dup3\n        /* \"#utility.yul\":42865:42923   */\n      mstore\n        /* \"#utility.yul\":42782:42929   */\n      pop\n      pop\n      jump\t// out\n        /* \"#utility.yul\":42935:43478   */\n    tag_453:\n        /* \"#utility.yul\":43136:43140   */\n      0x00\n        /* \"#utility.yul\":43174:43176   */\n      0x40\n        /* \"#utility.yul\":43163:43172   */\n      dup3\n        /* \"#utility.yul\":43159:43177   */\n      add\n        /* \"#utility.yul\":43151:43177   */\n      swap1\n      pop\n        /* \"#utility.yul\":43187:43266   */\n      tag_880\n        /* \"#utility.yul\":43263:43264   */\n      0x00\n        /* \"#utility.yul\":43252:43261   */\n      dup4\n        /* \"#utility.yul\":43248:43265   */\n      add\n        /* \"#utility.yul\":43239:43245   */\n      dup5\n        /* \"#utility.yul\":43187:43266   */\n      tag_563\n      jump\t// in\n    tag_880:\n        /* \"#utility.yul\":43313:43322   */\n      dup2\n        /* \"#utility.yul\":43307:43311   */\n      dup2\n        /* \"#utility.yul\":43303:43323   */\n      sub\n        /* \"#utility.yul\":43298:43300   */\n      0x20\n        /* \"#utility.yul\":43287:43296   */\n      dup4\n        /* \"#utility.yul\":43283:43301   */\n      add\n        /* \"#utility.yul\":43276:43324   */\n      mstore\n        /* \"#utility.yul\":43341:43471   */\n      tag_881\n        /* \"#utility.yul\":43466:43470   */\n      dup2\n        /* \"#utility.yul\":43341:43471   */\n      tag_503\n      jump\t// in\n    tag_881:\n        /* \"#utility.yul\":43333:43471   */\n      swap1\n      pop\n        /* \"#utility.yul\":42935:43478   */\n      swap3\n      swap2\n      pop\n      pop\n      jump\t// out\n\n    auxdata: 0xa2646970667358221220118b7a09be853f95e724542a52f703075e640a5f70da49cd804ce95f65e4e0bf64736f6c63430008120033\n}\n",
				"bytecode": {
					"linkReferences": {},
					"object": "60806040523480156200001157600080fd5b50604051620045db380380620045db8339818101604052810190620000379190620001c5565b336000806101000a81548173ffffffffffffffffffffffffffffffffffffffff021916908373ffffffffffffffffffffffffffffffffffffffff16021790555081600160006101000a81548173ffffffffffffffffffffffffffffffffffffffff021916908373ffffffffffffffffffffffffffffffffffffffff16021790555080600d60086101000a81548173ffffffffffffffffffffffffffffffffffffffff021916908373ffffffffffffffffffffffffffffffffffffffff1602179055506000600d60006101000a81548160ff0219169083151502179055506000600d60016101000a81548160ff0219169083151502179055506000600d60026101000a81548160ff021916908315150217905550600254600b8190555050506200020c565b600080fd5b600073ffffffffffffffffffffffffffffffffffffffff82169050919050565b60006200018d8262000160565b9050919050565b6200019f8162000180565b8114620001ab57600080fd5b50565b600081519050620001bf8162000194565b92915050565b60008060408385031215620001df57620001de6200015b565b5b6000620001ef85828601620001ae565b92505060206200020285828601620001ae565b9150509250929050565b6143bf806200021c6000396000f3fe60806040526004361061026a5760003560e01c8063779318e511610144578063cbe615b1116100b6578063dd6bcb161161007a578063dd6bcb1614610828578063e1505e4e1461083f578063eaa0a3021461087f578063f13702f414610896578063f3f43703146108c1578063feeaea4e146108fe57610271565b8063cbe615b114610767578063d261c91f14610792578063d738307c146107bd578063dc1997ea146107e6578063dcf2559e1461081157610271565b80638fda356d116101085780638fda356d146106b0578063a709c4fe146106c7578063b0a1e2b4146106d1578063b602ea60146106fc578063c2d6d46214610727578063ca0880311461075057610271565b8063779318e5146105db5780637ef987401461060657806381d388ba1461062f578063862a4d471461065a57806387eaa3421461068557610271565b806347ed9c65116101dd57806365a746e9116101a157806365a746e9146104d9578063697b05a2146105045780636f3c590c1461052f5780636f9fb98a1461055a57806371357a4614610585578063740906c0146105b057610271565b806347ed9c6514610402578063561eefd81461042d5780635a0e9bcc146104585780635a9203201461048357806363022560146104ae57610271565b8063220e5ab31161022f578063220e5ab31461033757806322f3e2d4146103625780632e88ab0b1461038d578063311a6c56146103b85780633ccfd60b146103e157806342c63dae146103f857610271565b80624422eb1461027657806304a2286a146102a157806308c59798146102cc5780631890fc37146102f55780631a5760491461030c57610271565b3661027157005b600080fd5b34801561028257600080fd5b5061028b610929565b6040516102989190612d8e565b60405180910390f35b3480156102ad57600080fd5b506102b661093c565b6040516102c39190612dc2565b60405180910390f35b3480156102d857600080fd5b506102f360048036038101906102ee9190612e0e565b610942565b005b34801561030157600080fd5b5061030a610b1a565b005b34801561031857600080fd5b50610321610d2f565b60405161032e9190612dc2565b60405180910390f35b34801561034357600080fd5b5061034c610d35565b6040516103599190612dc2565b60405180910390f35b34801561036e57600080fd5b50610377610d3b565b6040516103849190612d8e565b60405180910390f35b34801561039957600080fd5b506103a2610d4e565b6040516103af9190612e7c565b60405180910390f35b3480156103c457600080fd5b506103df60048036038101906103da9190612e97565b610d74565b005b3480156103ed57600080fd5b506103f6611153565b005b61040061131d565b005b34801561040e57600080fd5b50610417611495565b6040516104249190612d8e565b60405180910390f35b34801561043957600080fd5b506104426114a8565b60405161044f9190612dc2565b60405180910390f35b34801561046457600080fd5b5061046d6114ae565b60405161047a9190612d8e565b60405180910390f35b34801561048f57600080fd5b506104986114c1565b6040516104a59190612f36565b60405180910390f35b3480156104ba57600080fd5b506104c36114e7565b6040516104d09190612dc2565b60405180910390f35b3480156104e557600080fd5b506104ee611588565b6040516104fb9190612d8e565b60405180910390f35b34801561051057600080fd5b5061051961159b565b6040516105269190612dc2565b60405180910390f35b34801561053b57600080fd5b506105446115a1565b6040516105519190612dc2565b60405180910390f35b34801561056657600080fd5b5061056f6115a7565b60405161057c9190612dc2565b60405180910390f35b34801561059157600080fd5b5061059a6115af565b6040516105a79190612d8e565b60405180910390f35b3480156105bc57600080fd5b506105c56115c2565b6040516105d29190612dc2565b60405180910390f35b3480156105e757600080fd5b506105f061162b565b6040516105fd9190612dc2565b60405180910390f35b34801561061257600080fd5b5061062d60048036038101906106289190612e0e565b611635565b005b34801561063b57600080fd5b506106446117d3565b6040516106519190612dc2565b60405180910390f35b34801561066657600080fd5b5061066f6117d9565b60405161067c9190612dc2565b60405180910390f35b34801561069157600080fd5b5061069a6117df565b6040516106a79190612dc2565b60405180910390f35b3480156106bc57600080fd5b506106c56117e5565b005b6106cf61193e565b005b3480156106dd57600080fd5b506106e6611d0a565b6040516106f39190612dc2565b60405180910390f35b34801561070857600080fd5b50610711611d10565b60405161071e9190612d8e565b60405180910390f35b34801561073357600080fd5b5061074e60048036038101906107499190612e0e565b611d23565b005b34801561075c57600080fd5b50610765611e5e565b005b34801561077357600080fd5b5061077c6120d7565b6040516107899190612d8e565b60405180910390f35b34801561079e57600080fd5b506107a76120ee565b6040516107b49190612dc2565b60405180910390f35b3480156107c957600080fd5b506107e460048036038101906107df9190612f51565b6120f4565b005b3480156107f257600080fd5b506107fb612227565b6040516108089190612e7c565b60405180910390f35b34801561081d57600080fd5b5061082661224b565b005b34801561083457600080fd5b5061083d612358565b005b34801561084b57600080fd5b5061086660048036038101906108619190612e0e565b612657565b6040516108769493929190612fa4565b60405180910390f35b34801561088b57600080fd5b50610894612694565b005b3480156108a257600080fd5b506108ab6129bd565b6040516108b89190612d8e565b60405180910390f35b3480156108cd57600080fd5b506108e860048036038101906108e39190613015565b6129d0565b6040516108f59190612dc2565b60405180910390f35b34801561090a57600080fd5b506109136129e8565b6040516109209190612dc2565b60405180910390f35b600d60029054906101000a900460ff1681565b60035481565b60008054906101000a900473ffffffffffffffffffffffffffffffffffffffff1673ffffffffffffffffffffffffffffffffffffffff163373ffffffffffffffffffffffffffffffffffffffff16146109d0576040517f08c379a00000000000000000000000000000000000000000000000000000000081526004016109c7906130c5565b60405180910390fd5b600d60059054906101000a900460ff16610a1f576040517f08c379a0000000000000000000000000000000000000000000000000000000008152600401610a1690613131565b60405180910390fd5b600d60069054906101000a900460ff1615610a6f576040517f08c379a0000000000000000000000000000000000000000000000000000000008152600401610a669061319d565b60405180910390fd5b600d60009054906101000a900460ff16610abe576040517f08c379a0000000000000000000000000000000000000000000000000000000008152600401610ab590613209565b60405180910390fd5b806008819055506001600d60066101000a81548160ff0219169083151502179055507f192101de3933394fedeb636ffadd15c20b3e23e4913ab4051c171a26c90a345981604051610b0f9190612dc2565b60405180910390a150565b60008054906101000a900473ffffffffffffffffffffffffffffffffffffffff1673ffffffffffffffffffffffffffffffffffffffff163373ffffffffffffffffffffffffffffffffffffffff1614610ba8576040517f08c379a0000000000000000000000000000000000000000000000000000000008152600401610b9f9061329b565b60405180910390fd5b600d60079054906101000a900460ff16610bf7576040517f08c379a0000000000000000000000000000000000000000000000000000000008152600401610bee9061332d565b60405180910390fd5b600d60089054906101000a900473ffffffffffffffffffffffffffffffffffffffff1673ffffffffffffffffffffffffffffffffffffffff1663f7434ea96040518163ffffffff1660e01b8152600401610c5090613384565b602060405180830381865afa158015610c6d573d6000803e3d6000fd5b505050506040513d601f19601f82011682018060405250810190610c9191906133b9565b600c81905550600c54600b541015610cde576040517f08c379a0000000000000000000000000000000000000000000000000000000008152600401610cd590613458565b60405180910390fd5b600c54600b6000828254610cf291906134a7565b92505081905550610d01612a50565b7fa7d8a4744bc13e083818434dde26551ea9b29c6425677ebc90cd5dd09ce6b5c760405160405180910390a1565b60085481565b60025481565b600d60009054906101000a900460ff1681565b600160009054906101000a900473ffffffffffffffffffffffffffffffffffffffff1681565b600d60089054906101000a900473ffffffffffffffffffffffffffffffffffffffff1673ffffffffffffffffffffffffffffffffffffffff163373ffffffffffffffffffffffffffffffffffffffff1614610e04576040517f08c379a0000000000000000000000000000000000000000000000000000000008152600401610dfb90613527565b60405180910390fd5b600d60029054906101000a900460ff16610e53576040517f08c379a0000000000000000000000000000000000000000000000000000000008152600401610e4a90613593565b60405180910390fd5b600a548214610e97576040517f08c379a0000000000000000000000000000000000000000000000000000000008152600401610e8e906135ff565b60405180910390fd5b600060018203610ebf57600b5460085410610eb457600b54610eb8565b6008545b9050610ef8565b60028203610ee557600b5460095410610eda57600b54610ede565b6009545b9050610ef7565b6002600b54610ef4919061364e565b90505b5b80600f60008060009054906101000a900473ffffffffffffffffffffffffffffffffffffffff1673ffffffffffffffffffffffffffffffffffffffff1673ffffffffffffffffffffffffffffffffffffffff1681526020019081526020016000206000828254610f68919061367f565b9250508190555080600b54610f7d91906134a7565b600f6000600160009054906101000a900473ffffffffffffffffffffffffffffffffffffffff1673ffffffffffffffffffffffffffffffffffffffff1673ffffffffffffffffffffffffffffffffffffffff1681526020019081526020016000206000828254610fed919061367f565b9250508190555060008054906101000a900473ffffffffffffffffffffffffffffffffffffffff1673ffffffffffffffffffffffffffffffffffffffff167fe670e4e82118d22a1f9ee18920455ebc958bae26a90a05d31d3378788b1b0e448260405161105a9190612dc2565b60405180910390a2600160009054906101000a900473ffffffffffffffffffffffffffffffffffffffff1673ffffffffffffffffffffffffffffffffffffffff167fe670e4e82118d22a1f9ee18920455ebc958bae26a90a05d31d3378788b1b0e4482600b546110ca91906134a7565b6040516110d79190612dc2565b60405180910390a26000600d60026101000a81548160ff0219169083151502179055506000600d60006101000a81548160ff0219169083151502179055507fb4121f1f91a696a3fc75f6d151f3c9865abffa0738bda595e71c381c02af2faa83836040516111469291906136b3565b60405180910390a1505050565b6000600f60003373ffffffffffffffffffffffffffffffffffffffff1673ffffffffffffffffffffffffffffffffffffffff168152602001908152602001600020549050600081116111da576040517f08c379a00000000000000000000000000000000000000000000000000000000081526004016111d190613728565b60405180910390fd5b6000600f60003373ffffffffffffffffffffffffffffffffffffffff1673ffffffffffffffffffffffffffffffffffffffff1681526020019081526020016000208190555060003373ffffffffffffffffffffffffffffffffffffffff168260405161124590613776565b60006040518083038185875af1925050503d8060008114611282576040519150601f19603f3d011682016040523d82523d6000602084013e611287565b606091505b50509050806112cb576040517f08c379a00000000000000000000000000000000000000000000000000000000081526004016112c2906137d7565b60405180910390fd5b3373ffffffffffffffffffffffffffffffffffffffff167f8c9a4f13b67cb64d7c6aa1ae0c9bf07694af521a28b93e7060020810ab4bc59f836040516113119190612dc2565b60405180910390a25050565b600160009054906101000a900473ffffffffffffffffffffffffffffffffffffffff1673ffffffffffffffffffffffffffffffffffffffff163373ffffffffffffffffffffffffffffffffffffffff16146113ad576040517f08c379a00000000000000000000000000000000000000000000000000000000081526004016113a490613869565b60405180910390fd5b600d60009054906101000a900460ff16156113fd576040517f08c379a00000000000000000000000000000000000000000000000000000000081526004016113f4906138d5565b60405180910390fd5b6002543414611441576040517f08c379a000000000000000000000000000000000000000000000000000000000815260040161143890613967565b60405180910390fd5b6001600d60016101000a81548160ff0219169083151502179055507f486ac935cf1ea9effd9e0a261bc42917b45f2fd45cc98def2bc34d47f216937c3460405161148b9190612dc2565b60405180910390a1565b600d60079054906101000a900460ff1681565b60055481565b600d60059054906101000a900460ff1681565b600d60089054906101000a900473ffffffffffffffffffffffffffffffffffffffff1681565b6000600d60089054906101000a900473ffffffffffffffffffffffffffffffffffffffff1673ffffffffffffffffffffffffffffffffffffffff1663f7434ea96040518163ffffffff1660e01b815260040161154290613384565b602060405180830381865afa15801561155f573d6000803e3d6000fd5b505050506040513d601f19601f8201168201806040525081019061158391906133b9565b905090565b600d60049054906101000a900460ff1681565b600c5481565b60075481565b600047905090565b600d60069054906101000a900460ff1681565b6000600f6000600160009054906101000a900473ffffffffffffffffffffffffffffffffffffffff1673ffffffffffffffffffffffffffffffffffffffff1673ffffffffffffffffffffffffffffffffffffffff16815260200190815260200160002054905090565b6000600b54905090565b60008054906101000a900473ffffffffffffffffffffffffffffffffffffffff1673ffffffffffffffffffffffffffffffffffffffff163373ffffffffffffffffffffffffffffffffffffffff16146116c3576040517f08c379a00000000000000000000000000000000000000000000000000000000081526004016116ba906139f9565b60405180910390fd5b600d60009054906101000a900460ff16611712576040517f08c379a000000000000000000000000000000000000000000000000000000000815260040161170990613209565b60405180910390fd5b6004546006541115611759576040517f08c379a000000000000000000000000000000000000000000000000000000000815260040161175090613a65565b60405180910390fd5b80600e6000600654815260200190815260200160002060010181905550600354600e60006006548152602001908152602001600020600001819055507ff75d23e75691b7209bf24071476b3702a8412a369b26fd3ad012d19630f65a2b600654826040516117c89291906136b3565b60405180910390a150565b60095481565b60065481565b60045481565b60008054906101000a900473ffffffffffffffffffffffffffffffffffffffff1673ffffffffffffffffffffffffffffffffffffffff163373ffffffffffffffffffffffffffffffffffffffff1614611873576040517f08c379a000000000000000000000000000000000000000000000000000000000815260040161186a90613af7565b60405180910390fd5b600d60019054906101000a900460ff166118c2576040517f08c379a00000000000000000000000000000000000000000000000000000000081526004016118b990613b89565b60405180910390fd5b600d60009054906101000a900460ff1615611912576040517f08c379a0000000000000000000000000000000000000000000000000000000008152600401611909906138d5565b60405180910390fd5b6001600d60006101000a81548160ff021916908315150217905550426005819055506001600681905550565b600160009054906101000a900473ffffffffffffffffffffffffffffffffffffffff1673ffffffffffffffffffffffffffffffffffffffff163373ffffffffffffffffffffffffffffffffffffffff16146119ce576040517f08c379a00000000000000000000000000000000000000000000000000000000081526004016119c590613bf5565b60405180910390fd5b600d60009054906101000a900460ff16611a1d576040517f08c379a0000000000000000000000000000000000000000000000000000000008152600401611a1490613209565b60405180910390fd5b6004546006541115611a64576040517f08c379a0000000000000000000000000000000000000000000000000000000008152600401611a5b90613a65565b60405180910390fd5b6000600e6000600654815260200190815260200160002090508060030160009054906101000a900460ff1615611acf576040517f08c379a0000000000000000000000000000000000000000000000000000000008152600401611ac690613c87565b60405180910390fd5b6000816001015411611b16576040517f08c379a0000000000000000000000000000000000000000000000000000000008152600401611b0d90613d19565b60405180910390fd5b600060075482600101548360000154611b2f919061367f565b611b39919061367f565b9050803414611b7d576040517f08c379a0000000000000000000000000000000000000000000000000000000008152600401611b7490613d85565b60405180910390fd5b60018260030160006101000a81548160ff02191690831515021790555060006007819055507fa0d112ed080c1b1a94b838ad981a23746be2a4670fd4bf157224e72cdd5dfdde60065482604051611bd59291906136b3565b60405180910390a180600f60008060009054906101000a900473ffffffffffffffffffffffffffffffffffffffff1673ffffffffffffffffffffffffffffffffffffffff1673ffffffffffffffffffffffffffffffffffffffff1681526020019081526020016000206000828254611c4d919061367f565b9250508190555060008054906101000a900473ffffffffffffffffffffffffffffffffffffffff1673ffffffffffffffffffffffffffffffffffffffff167fe670e4e82118d22a1f9ee18920455ebc958bae26a90a05d31d3378788b1b0e4482604051611cba9190612dc2565b60405180910390a260045460065403611ced576001600d60056101000a81548160ff021916908315150217905550611d06565b60066000815480929190611d0090613da5565b91905055505b5050565b600a5481565b600d60039054906101000a900460ff1681565b600160009054906101000a900473ffffffffffffffffffffffffffffffffffffffff1673ffffffffffffffffffffffffffffffffffffffff163373ffffffffffffffffffffffffffffffffffffffff1614611db3576040517f08c379a0000000000000000000000000000000000000000000000000000000008152600401611daa90613e5f565b60405180910390fd5b600d60069054906101000a900460ff16611e02576040517f08c379a0000000000000000000000000000000000000000000000000000000008152600401611df990613ef1565b60405180910390fd5b806009819055506001600d60076101000a81548160ff0219169083151502179055507f0f2792b28c50f2f7eece39e74a2b4f0f1ce15a79acb72dd811686e827aed030b81604051611e539190612dc2565b60405180910390a150565b600160009054906101000a900473ffffffffffffffffffffffffffffffffffffffff1673ffffffffffffffffffffffffffffffffffffffff163373ffffffffffffffffffffffffffffffffffffffff1614611eee576040517f08c379a0000000000000000000000000000000000000000000000000000000008152600401611ee590613f83565b60405180910390fd5b600d60009054906101000a900460ff16611f3d576040517f08c379a0000000000000000000000000000000000000000000000000000000008152600401611f3490613209565b60405180910390fd5b6004546006541115611f84576040517f08c379a0000000000000000000000000000000000000000000000000000000008152600401611f7b90613a65565b60405180910390fd5b6000600e6000600654815260200190815260200160002090508060030160009054906101000a900460ff1615611fef576040517f08c379a0000000000000000000000000000000000000000000000000000000008152600401611fe690613c87565b60405180910390fd5b6000816001015411612036576040517f08c379a000000000000000000000000000000000000000000000000000000000815260040161202d90613d19565b60405180910390fd5b60008160010154826000015461204c919061367f565b90508060076000828254612060919061367f565b925050819055507f9ea3a4b65940d7b9dbf8bb1c459ba8e81222d1a596e93fbc364365a6d78e27d66006548260405161209a9291906136b3565b60405180910390a1600454600654036120ba576120b5612c05565b6120d3565b600660008154809291906120cd90613da5565b91905055505b5050565b6000600d60059054906101000a900460ff16905090565b600b5481565b60008054906101000a900473ffffffffffffffffffffffffffffffffffffffff1673ffffffffffffffffffffffffffffffffffffffff163373ffffffffffffffffffffffffffffffffffffffff1614612182576040517f08c379a000000000000000000000000000000000000000000000000000000000815260040161217990614015565b60405180910390fd5b600d60009054906101000a900460ff16156121d2576040517f08c379a00000000000000000000000000000000000000000000000000000000081526004016121c9906138d5565b60405180910390fd5b8260028190555081600381905550806004819055507f2f47566d4872826a9750e05ae448ad21f2a677c332d36d6437b697a7f8dd1e1483838360405161221a93929190614035565b60405180910390a1505050565b60008054906101000a900473ffffffffffffffffffffffffffffffffffffffff1681565b600160009054906101000a900473ffffffffffffffffffffffffffffffffffffffff1673ffffffffffffffffffffffffffffffffffffffff163373ffffffffffffffffffffffffffffffffffffffff16146122db576040517f08c379a00000000000000000000000000000000000000000000000000000000081526004016122d2906140de565b60405180910390fd5b600d60069054906101000a900460ff1661232a576040517f08c379a000000000000000000000000000000000000000000000000000000000815260040161232190613ef1565b60405180910390fd5b7f214f96452fc3fdfd5eeafda7f5df5b6066f4f8ac1295fb53cd051491b9b56da360405160405180910390a1565b600160009054906101000a900473ffffffffffffffffffffffffffffffffffffffff1673ffffffffffffffffffffffffffffffffffffffff163373ffffffffffffffffffffffffffffffffffffffff16146123e8576040517f08c379a00000000000000000000000000000000000000000000000000000000081526004016123df90614170565b60405180910390fd5b600d60069054906101000a900460ff16612437576040517f08c379a000000000000000000000000000000000000000000000000000000000815260040161242e90613ef1565b60405180910390fd5b60006002546008541061244c57600254612450565b6008545b905080600f60008060009054906101000a900473ffffffffffffffffffffffffffffffffffffffff1673ffffffffffffffffffffffffffffffffffffffff1673ffffffffffffffffffffffffffffffffffffffff16815260200190815260200160002060008282546124c2919061367f565b92505081905550806002546124d791906134a7565b600f6000600160009054906101000a900473ffffffffffffffffffffffffffffffffffffffff1673ffffffffffffffffffffffffffffffffffffffff1673ffffffffffffffffffffffffffffffffffffffff1681526020019081526020016000206000828254612547919061367f565b9250508190555060008054906101000a900473ffffffffffffffffffffffffffffffffffffffff1673ffffffffffffffffffffffffffffffffffffffff167fe670e4e82118d22a1f9ee18920455ebc958bae26a90a05d31d3378788b1b0e44826040516125b49190612dc2565b60405180910390a2600160009054906101000a900473ffffffffffffffffffffffffffffffffffffffff1673ffffffffffffffffffffffffffffffffffffffff167fe670e4e82118d22a1f9ee18920455ebc958bae26a90a05d31d3378788b1b0e448260025461262491906134a7565b6040516126319190612dc2565b60405180910390a26000600d60006101000a81548160ff02191690831515021790555050565b600e6020528060005260406000206000915090508060000154908060010154908060020154908060030160009054906101000a900460ff16905084565b60008054906101000a900473ffffffffffffffffffffffffffffffffffffffff1673ffffffffffffffffffffffffffffffffffffffff163373ffffffffffffffffffffffffffffffffffffffff1614612722576040517f08c379a000000000000000000000000000000000000000000000000000000000815260040161271990614202565b60405180910390fd5b600d60079054906101000a900460ff16612771576040517f08c379a00000000000000000000000000000000000000000000000000000000081526004016127689061332d565b60405180910390fd5b6000600254600954106127865760025461278a565b6009545b905080600f60008060009054906101000a900473ffffffffffffffffffffffffffffffffffffffff1673ffffffffffffffffffffffffffffffffffffffff1673ffffffffffffffffffffffffffffffffffffffff16815260200190815260200160002060008282546127fc919061367f565b925050819055508060025461281191906134a7565b600f6000600160009054906101000a900473ffffffffffffffffffffffffffffffffffffffff1673ffffffffffffffffffffffffffffffffffffffff1673ffffffffffffffffffffffffffffffffffffffff1681526020019081526020016000206000828254612881919061367f565b9250508190555060008054906101000a900473ffffffffffffffffffffffffffffffffffffffff1673ffffffffffffffffffffffffffffffffffffffff167fe670e4e82118d22a1f9ee18920455ebc958bae26a90a05d31d3378788b1b0e44826040516128ee9190612dc2565b60405180910390a2600160009054906101000a900473ffffffffffffffffffffffffffffffffffffffff1673ffffffffffffffffffffffffffffffffffffffff167fe670e4e82118d22a1f9ee18920455ebc958bae26a90a05d31d3378788b1b0e448260025461295e91906134a7565b60405161296b9190612dc2565b60405180910390a26000600d60006101000a81548160ff0219169083151502179055507fb48ea00bbdfbf40407eead0ea969ce425a746b5692554310f811ee7d0e36f38560405160405180910390a150565b600d60019054906101000a900460ff1681565b600f6020528060005260406000206000915090505481565b6000600f60008060009054906101000a900473ffffffffffffffffffffffffffffffffffffffff1673ffffffffffffffffffffffffffffffffffffffff1673ffffffffffffffffffffffffffffffffffffffff16815260200190815260200160002054905090565b600d60029054906101000a900460ff1615612aa0576040517f08c379a0000000000000000000000000000000000000000000000000000000008152600401612a979061426e565b60405180910390fd5b600d60069054906101000a900460ff168015612ac85750600d60079054906101000a900460ff165b612b07576040517f08c379a0000000000000000000000000000000000000000000000000000000008152600401612afe90614300565b60405180910390fd5b600d60089054906101000a900473ffffffffffffffffffffffffffffffffffffffff1673ffffffffffffffffffffffffffffffffffffffff1663c13517e1600c5460026040518363ffffffff1660e01b8152600401612b66919061435b565b60206040518083038185885af1158015612b84573d6000803e3d6000fd5b50505050506040513d601f19601f82011682018060405250810190612ba991906133b9565b600a819055506001600d60026101000a81548160ff0219169083151502179055507f04901f83201c8724eadf084436db8aa391820bae6d11f9f78a17edb6f2eef3cf600a54604051612bfb9190612dc2565b60405180910390a1565b6000600d60006101000a81548160ff02191690831515021790555060006007549050600080821115612cbd57600254821115612c415760025491505b60008054906101000a900473ffffffffffffffffffffffffffffffffffffffff1673ffffffffffffffffffffffffffffffffffffffff166108fc839081150290604051600060405180830381858888f19350505050158015612ca7573d6000803e3d6000fd5b5081600254612cb691906134a7565b9050612cc3565b60025490505b6000811115612d3657600160009054906101000a900473ffffffffffffffffffffffffffffffffffffffff1673ffffffffffffffffffffffffffffffffffffffff166108fc829081150290604051600060405180830381858888f19350505050158015612d34573d6000803e3d6000fd5b505b7fc0590c5a8ce79dffbdde17480a06203778f954965615e1d9577dbc90da2ff1098183604051612d679291906136b3565b60405180910390a15050565b60008115159050919050565b612d8881612d73565b82525050565b6000602082019050612da36000830184612d7f565b92915050565b6000819050919050565b612dbc81612da9565b82525050565b6000602082019050612dd76000830184612db3565b92915050565b600080fd5b612deb81612da9565b8114612df657600080fd5b50565b600081359050612e0881612de2565b92915050565b600060208284031215612e2457612e23612ddd565b5b6000612e3284828501612df9565b91505092915050565b600073ffffffffffffffffffffffffffffffffffffffff82169050919050565b6000612e6682612e3b565b9050919050565b612e7681612e5b565b82525050565b6000602082019050612e916000830184612e6d565b92915050565b60008060408385031215612eae57612ead612ddd565b5b6000612ebc85828601612df9565b9250506020612ecd85828601612df9565b9150509250929050565b6000819050919050565b6000612efc612ef7612ef284612e3b565b612ed7565b612e3b565b9050919050565b6000612f0e82612ee1565b9050919050565b6000612f2082612f03565b9050919050565b612f3081612f15565b82525050565b6000602082019050612f4b6000830184612f27565b92915050565b600080600060608486031215612f6a57612f69612ddd565b5b6000612f7886828701612df9565b9350506020612f8986828701612df9565b9250506040612f9a86828701612df9565b9150509250925092565b6000608082019050612fb96000830187612db3565b612fc66020830186612db3565b612fd36040830185612db3565b612fe06060830184612d7f565b95945050505050565b612ff281612e5b565b8114612ffd57600080fd5b50565b60008135905061300f81612fe9565b92915050565b60006020828403121561302b5761302a612ddd565b5b600061303984828501613000565b91505092915050565b600082825260208201905092915050565b7f4f6e6c79206c616e646c6f72642063616e20736574207468652064616d61676560008201527f20657374696d6174650000000000000000000000000000000000000000000000602082015250565b60006130af602983613042565b91506130ba82613053565b604082019050919050565b600060208201905081810360008301526130de816130a2565b9050919050565b7f52656e7420706572696f6420686173206e6f7420656e64656420796574000000600082015250565b600061311b601d83613042565b9150613126826130e5565b602082019050919050565b6000602082019050818103600083015261314a8161310e565b9050919050565b7f44616d61676520657374696d61746520616c7265616479207365740000000000600082015250565b6000613187601b83613042565b915061319282613151565b602082019050919050565b600060208201905081810360008301526131b68161317a565b9050919050565b7f436f6e7472616374206973206e6f742061637469766500000000000000000000600082015250565b60006131f3601683613042565b91506131fe826131bd565b602082019050919050565b60006020820190508181036000830152613222816131e6565b9050919050565b7f4f6e6c79206c616e646c6f72642063616e2072656a6563742074686520636f7560008201527f6e74657220657374696d61746500000000000000000000000000000000000000602082015250565b6000613285602d83613042565b915061329082613229565b604082019050919050565b600060208201905081810360008301526132b481613278565b9050919050565b7f52656e746572206d7573742073657420636f756e74657220657374696d61746560008201527f2066697273740000000000000000000000000000000000000000000000000000602082015250565b6000613317602683613042565b9150613322826132bb565b604082019050919050565b600060208201905081810360008301526133468161330a565b9050919050565b600082825260208201905092915050565b50565b600061336e60008361334d565b91506133798261335e565b600082019050919050565b6000602082019050818103600083015261339d81613361565b9050919050565b6000815190506133b381612de2565b92915050565b6000602082840312156133cf576133ce612ddd565b5b60006133dd848285016133a4565b91505092915050565b7f5365637572697479206465706f73697420696e73756666696369656e7420746f60008201527f20636f766572206172626974726174696f6e20636f7374730000000000000000602082015250565b6000613442603883613042565b915061344d826133e6565b604082019050919050565b6000602082019050818103600083015261347181613435565b9050919050565b7f4e487b7100000000000000000000000000000000000000000000000000000000600052601160045260246000fd5b60006134b282612da9565b91506134bd83612da9565b92508282039050818111156134d5576134d4613478565b5b92915050565b7f4f6e6c79207468652061726269747261746f722063616e2072756c6500000000600082015250565b6000613511601c83613042565b915061351c826134db565b602082019050919050565b6000602082019050818103600083015261354081613504565b9050919050565b7f4e6f206469737075746520746f2072756c65206f6e0000000000000000000000600082015250565b600061357d601583613042565b915061358882613547565b602082019050919050565b600060208201905081810360008301526135ac81613570565b9050919050565b7f57726f6e67206469737075746520494400000000000000000000000000000000600082015250565b60006135e9601083613042565b91506135f4826135b3565b602082019050919050565b60006020820190508181036000830152613618816135dc565b9050919050565b7f4e487b7100000000000000000000000000000000000000000000000000000000600052601260045260246000fd5b600061365982612da9565b915061366483612da9565b9250826136745761367361361f565b5b828204905092915050565b600061368a82612da9565b915061369583612da9565b92508282019050808211156136ad576136ac613478565b5b92915050565b60006040820190506136c86000830185612db3565b6136d56020830184612db3565b9392505050565b7f4e6f2066756e647320746f207769746864726177000000000000000000000000600082015250565b6000613712601483613042565b915061371d826136dc565b602082019050919050565b6000602082019050818103600083015261374181613705565b9050919050565b600081905092915050565b6000613760600083613748565b915061376b8261335e565b600082019050919050565b600061378182613753565b9150819050919050565b7f5472616e73666572206661696c65640000000000000000000000000000000000600082015250565b60006137c1600f83613042565b91506137cc8261378b565b602082019050919050565b600060208201905081810360008301526137f0816137b4565b9050919050565b7f4f6e6c792072656e7465722063616e207061792073656375726974792064657060008201527f6f73697400000000000000000000000000000000000000000000000000000000602082015250565b6000613853602483613042565b915061385e826137f7565b604082019050919050565b6000602082019050818103600083015261388281613846565b9050919050565b7f436f6e747261637420697320616c726561647920616374697665000000000000600082015250565b60006138bf601a83613042565b91506138ca82613889565b602082019050919050565b600060208201905081810360008301526138ee816138b2565b9050919050565b7f496e636f7272656374207365637572697479206465706f73697420616d6f756e60008201527f7400000000000000000000000000000000000000000000000000000000000000602082015250565b6000613951602183613042565b915061395c826138f5565b604082019050919050565b6000602082019050818103600083015261398081613944565b9050919050565b7f4f6e6c79206c616e646c6f72642063616e207265636f7264207574696c69746960008201527f6573000000000000000000000000000000000000000000000000000000000000602082015250565b60006139e3602283613042565b91506139ee82613987565b604082019050919050565b60006020820190508181036000830152613a12816139d6565b9050919050565b7f52656e7420706572696f642068617320656e6465640000000000000000000000600082015250565b6000613a4f601583613042565b9150613a5a82613a19565b602082019050919050565b60006020820190508181036000830152613a7e81613a42565b9050919050565b7f4f6e6c79206c616e646c6f72642063616e20616374697661746520746865206360008201527f6f6e747261637400000000000000000000000000000000000000000000000000602082015250565b6000613ae1602783613042565b9150613aec82613a85565b604082019050919050565b60006020820190508181036000830152613b1081613ad4565b9050919050565b7f5365637572697479206465706f736974206d757374206265207061696420666960008201527f7273740000000000000000000000000000000000000000000000000000000000602082015250565b6000613b73602383613042565b9150613b7e82613b17565b604082019050919050565b60006020820190508181036000830152613ba281613b66565b9050919050565b7f4f6e6c792072656e7465722063616e207061792072656e740000000000000000600082015250565b6000613bdf601883613042565b9150613bea82613ba9565b602082019050919050565b60006020820190508181036000830152613c0e81613bd2565b9050919050565b7f52656e7420666f722074686973206d6f6e74682068617320616c72656164792060008201527f6265656e20706169640000000000000000000000000000000000000000000000602082015250565b6000613c71602983613042565b9150613c7c82613c15565b604082019050919050565b60006020820190508181036000830152613ca081613c64565b9050919050565b7f5574696c697469657320666f722074686973206d6f6e74682068617665206e6f60008201527f74206265656e207265636f726465640000000000000000000000000000000000602082015250565b6000613d03602f83613042565b9150613d0e82613ca7565b604082019050919050565b60006020820190508181036000830152613d3281613cf6565b9050919050565b7f496e636f72726563742072656e7420616d6f756e740000000000000000000000600082015250565b6000613d6f601583613042565b9150613d7a82613d39565b602082019050919050565b60006020820190508181036000830152613d9e81613d62565b9050919050565b6000613db082612da9565b91507fffffffffffffffffffffffffffffffffffffffffffffffffffffffffffffffff8203613de257613de1613478565b5b600182019050919050565b7f4f6e6c792072656e7465722063616e207365742074686520636f756e7465722060008201527f657374696d617465000000000000000000000000000000000000000000000000602082015250565b6000613e49602883613042565b9150613e5482613ded565b604082019050919050565b60006020820190508181036000830152613e7881613e3c565b9050919050565b7f4c616e646c6f7264206d757374207365742064616d61676520657374696d617460008201527f6520666972737400000000000000000000000000000000000000000000000000602082015250565b6000613edb602783613042565b9150613ee682613e7f565b604082019050919050565b60006020820190508181036000830152613f0a81613ece565b9050919050565b7f4f6e6c792072656e7465722063616e20736b69702072656e74207061796d656e60008201527f7400000000000000000000000000000000000000000000000000000000000000602082015250565b6000613f6d602183613042565b9150613f7882613f11565b604082019050919050565b60006020820190508181036000830152613f9c81613f60565b9050919050565b7f4f6e6c79206c616e646c6f72642063616e207365742061677265656d656e742060008201527f7465726d73000000000000000000000000000000000000000000000000000000602082015250565b6000613fff602583613042565b915061400a82613fa3565b604082019050919050565b6000602082019050818103600083015261402e81613ff2565b9050919050565b600060608201905061404a6000830186612db3565b6140576020830185612db3565b6140646040830184612db3565b949350505050565b7f4f6e6c792072656e7465722063616e2072656a6563742074686520657374696d60008201527f6174650000000000000000000000000000000000000000000000000000000000602082015250565b60006140c8602383613042565b91506140d38261406c565b604082019050919050565b600060208201905081810360008301526140f7816140bb565b9050919050565b7f4f6e6c792072656e7465722063616e206163636570742074686520657374696d60008201527f6174650000000000000000000000000000000000000000000000000000000000602082015250565b600061415a602383613042565b9150614165826140fe565b604082019050919050565b600060208201905081810360008301526141898161414d565b9050919050565b7f4f6e6c79206c616e646c6f72642063616e206163636570742074686520636f7560008201527f6e74657220657374696d61746500000000000000000000000000000000000000602082015250565b60006141ec602d83613042565b91506141f782614190565b604082019050919050565b6000602082019050818103600083015261421b816141df565b9050919050565b7f4469737075746520616c72656164792072616973656400000000000000000000600082015250565b6000614258601683613042565b915061426382614222565b602082019050919050565b600060208201905081810360008301526142878161424b565b9050919050565b7f426f746820657374696d61746573206d75737420626520736574206265666f7260008201527f652072616973696e672061206469737075746500000000000000000000000000602082015250565b60006142ea603383613042565b91506142f58261428e565b604082019050919050565b60006020820190508181036000830152614319816142dd565b9050919050565b6000819050919050565b600061434561434061433b84614320565b612ed7565b612da9565b9050919050565b6143558161432a565b82525050565b6000604082019050614370600083018461434c565b818103602083015261438181613361565b90509291505056fea2646970667358221220118b7a09be853f95e724542a52f703075e640a5f70da49cd804ce95f65e4e0bf64736f6c63430008120033",
					"opcodes": "PUSH1 0x80 PUSH1 0x40 MSTORE CALLVALUE DUP1 ISZERO PUSH3 0x11 JUMPI PUSH1 0x0 DUP1 REVERT JUMPDEST POP PUSH1 0x40 MLOAD PUSH3 0x45DB CODESIZE SUB DUP1 PUSH3 0x45DB DUP4 CODECOPY DUP2 DUP2 ADD PUSH1 0x40 MSTORE DUP2 ADD SWAP1 PUSH3 0x37 SWAP2 SWAP1 PUSH3 0x1C5 JUMP JUMPDEST CALLER PUSH1 0x0 DUP1 PUSH2 0x100 EXP DUP2 SLOAD DUP2 PUSH20 0xFFFFFFFFFFFFFFFFFFFFFFFFFFFFFFFFFFFFFFFF MUL NOT AND SWAP1 DUP4 PUSH20 0xFFFFFFFFFFFFFFFFFFFFFFFFFFFFFFFFFFFFFFFF AND MUL OR SWAP1 SSTORE POP DUP2 PUSH1 0x1 PUSH1 0x0 PUSH2 0x100 EXP DUP2 SLOAD DUP2 PUSH20 0xFFFFFFFFFFFFFFFFFFFFFFFFFFFFFFFFFFFFFFFF MUL NOT AND SWAP1 DUP4 PUSH20 0xFFFFFFFFFFFFFFFFFFFFFFFFFFFFFFFFFFFFFFFF AND MUL OR SWAP1 SSTORE POP DUP1 PUSH1 0xD PUSH1 0x8 PUSH2 0x100 EXP DUP2 SLOAD DUP2 PUSH20 0xFFFFFFFFFFFFFFFFFFFFFFFFFFFFFFFFFFFFFFFF MUL NOT AND SWAP1 DUP4 PUSH20 0xFFFFFFFFFFFFFFFFFFFFFFFFFFFFFFFFFFFFFFFF AND MUL OR SWAP1 SSTORE POP PUSH1 0x0 PUSH1 0xD PUSH1 0x0 PUSH2 0x100 EXP DUP2 SLOAD DUP2 PUSH1 0xFF MUL NOT AND SWAP1 DUP4 ISZERO ISZERO MUL OR SWAP1 SSTORE POP PUSH1 0x0 PUSH1 0xD PUSH1 0x1 PUSH2 0x100 EXP DUP2 SLOAD DUP2 PUSH1 0xFF MUL NOT AND SWAP1 DUP4 ISZERO ISZERO MUL OR SWAP1 SSTORE POP PUSH1 0x0 PUSH1 0xD PUSH1 0x2 PUSH2 0x100 EXP DUP2 SLOAD DUP2 PUSH1 0xFF MUL NOT AND SWAP1 DUP4 ISZERO ISZERO MUL OR SWAP1 SSTORE POP PUSH1 0x2 SLOAD PUSH1 0xB DUP2 SWAP1 SSTORE POP POP POP PUSH3 0x20C JUMP JUMPDEST PUSH1 0x0 DUP1 REVERT JUMPDEST PUSH1 0x0 PUSH20 0xFFFFFFFFFFFFFFFFFFFFFFFFFFFFFFFFFFFFFFFF DUP3 AND SWAP1 POP SWAP2 SWAP1 POP JUMP JUMPDEST PUSH1 0x0 PUSH3 0x18D DUP3 PUSH3 0x160 JUMP JUMPDEST SWAP1 POP SWAP2 SWAP1 POP JUMP JUMPDEST PUSH3 0x19F DUP2 PUSH3 0x180 JUMP JUMPDEST DUP2 EQ PUSH3 0x1AB JUMPI PUSH1 0x0 DUP1 REVERT JUMPDEST POP JUMP JUMPDEST PUSH1 0x0 DUP2 MLOAD SWAP1 POP PUSH3 0x1BF DUP2 PUSH3 0x194 JUMP JUMPDEST SWAP3 SWAP2 POP POP JUMP JUMPDEST PUSH1 0x0 DUP1 PUSH1 0x40 DUP4 DUP6 SUB SLT ISZERO PUSH3 0x1DF JUMPI PUSH3 0x1DE PUSH3 0x15B JUMP JUMPDEST JUMPDEST PUSH1 0x0 PUSH3 0x1EF DUP6 DUP3 DUP7 ADD PUSH3 0x1AE JUMP JUMPDEST SWAP3 POP POP PUSH1 0x20 PUSH3 0x202 DUP6 DUP3 DUP7 ADD PUSH3 0x1AE JUMP JUMPDEST SWAP2 POP POP SWAP3 POP SWAP3 SWAP1 POP JUMP JUMPDEST PUSH2 0x43BF DUP1 PUSH3 0x21C PUSH1 0x0 CODECOPY PUSH1 0x0 RETURN INVALID PUSH1 0x80 PUSH1 0x40 MSTORE PUSH1 0x4 CALLDATASIZE LT PUSH2 0x26A JUMPI PUSH1 0x0 CALLDATALOAD PUSH1 0xE0 SHR DUP1 PUSH4 0x779318E5 GT PUSH2 0x144 JUMPI DUP1 PUSH4 0xCBE615B1 GT PUSH2 0xB6 JUMPI DUP1 PUSH4 0xDD6BCB16 GT PUSH2 0x7A JUMPI DUP1 PUSH4 0xDD6BCB16 EQ PUSH2 0x828 JUMPI DUP1 PUSH4 0xE1505E4E EQ PUSH2 0x83F JUMPI DUP1 PUSH4 0xEAA0A302 EQ PUSH2 0x87F JUMPI DUP1 PUSH4 0xF13702F4 EQ PUSH2 0x896 JUMPI DUP1 PUSH4 0xF3F43703 EQ PUSH2 0x8C1 JUMPI DUP1 PUSH4 0xFEEAEA4E EQ PUSH2 0x8FE JUMPI PUSH2 0x271 JUMP JUMPDEST DUP1 PUSH4 0xCBE615B1 EQ PUSH2 0x767 JUMPI DUP1 PUSH4 0xD261C91F EQ PUSH2 0x792 JUMPI DUP1 PUSH4 0xD738307C EQ PUSH2 0x7BD JUMPI DUP1 PUSH4 0xDC1997EA EQ PUSH2 0x7E6 JUMPI DUP1 PUSH4 0xDCF2559E EQ PUSH2 0x811 JUMPI PUSH2 0x271 JUMP JUMPDEST DUP1 PUSH4 0x8FDA356D GT PUSH2 0x108 JUMPI DUP1 PUSH4 0x8FDA356D EQ PUSH2 0x6B0 JUMPI DUP1 PUSH4 0xA709C4FE EQ PUSH2 0x6C7 JUMPI DUP1 PUSH4 0xB0A1E2B4 EQ PUSH2 0x6D1 JUMPI DUP1 PUSH4 0xB602EA60 EQ PUSH2 0x6FC JUMPI DUP1 PUSH4 0xC2D6D462 EQ PUSH2 0x727 JUMPI DUP1 PUSH4 0xCA088031 EQ PUSH2 0x750 JUMPI PUSH2 0x271 JUMP JUMPDEST DUP1 PUSH4 0x779318E5 EQ PUSH2 0x5DB JUMPI DUP1 PUSH4 0x7EF98740 EQ PUSH2 0x606 JUMPI DUP1 PUSH4 0x81D388BA EQ PUSH2 0x62F JUMPI DUP1 PUSH4 0x862A4D47 EQ PUSH2 0x65A JUMPI DUP1 PUSH4 0x87EAA342 EQ PUSH2 0x685 JUMPI PUSH2 0x271 JUMP JUMPDEST DUP1 PUSH4 0x47ED9C65 GT PUSH2 0x1DD JUMPI DUP1 PUSH4 0x65A746E9 GT PUSH2 0x1A1 JUMPI DUP1 PUSH4 0x65A746E9 EQ PUSH2 0x4D9 JUMPI DUP1 PUSH4 0x697B05A2 EQ PUSH2 0x504 JUMPI DUP1 PUSH4 0x6F3C590C EQ PUSH2 0x52F JUMPI DUP1 PUSH4 0x6F9FB98A EQ PUSH2 0x55A JUMPI DUP1 PUSH4 0x71357A46 EQ PUSH2 0x585 JUMPI DUP1 PUSH4 0x740906C0 EQ PUSH2 0x5B0 JUMPI PUSH2 0x271 JUMP JUMPDEST DUP1 PUSH4 0x47ED9C65 EQ PUSH2 0x402 JUMPI DUP1 PUSH4 0x561EEFD8 EQ PUSH2 0x42D JUMPI DUP1 PUSH4 0x5A0E9BCC EQ PUSH2 0x458 JUMPI DUP1 PUSH4 0x5A920320 EQ PUSH2 0x483 JUMPI DUP1 PUSH4 0x63022560 EQ PUSH2 0x4AE JUMPI PUSH2 0x271 JUMP JUMPDEST DUP1 PUSH4 0x220E5AB3 GT PUSH2 0x22F JUMPI DUP1 PUSH4 0x220E5AB3 EQ PUSH2 0x337 JUMPI DUP1 PUSH4 0x22F3E2D4 EQ PUSH2 0x362 JUMPI DUP1 PUSH4 0x2E88AB0B EQ PUSH2 0x38D JUMPI DUP1 PUSH4 0x311A6C56 EQ PUSH2 0x3B8 JUMPI DUP1 PUSH4 0x3CCFD60B EQ PUSH2 0x3E1 JUMPI DUP1 PUSH4 0x42C63DAE EQ PUSH2 0x3F8 JUMPI PUSH2 0x271 JUMP JUMPDEST DUP1 PUSH3 0x4422EB EQ PUSH2 0x276 JUMPI DUP1 PUSH4 0x4A2286A EQ PUSH2 0x2A1 JUMPI DUP1 PUSH4 0x8C59798 EQ PUSH2 0x2CC JUMPI DUP1 PUSH4 0x1890FC37 EQ PUSH2 0x2F5 JUMPI DUP1 PUSH4 0x1A576049 EQ PUSH2 0x30C JUMPI PUSH2 0x271 JUMP JUMPDEST CALLDATASIZE PUSH2 0x271 JUMPI STOP JUMPDEST PUSH1 0x0 DUP1 REVERT JUMPDEST CALLVALUE DUP1 ISZERO PUSH2 0x282 JUMPI PUSH1 0x0 DUP1 REVERT JUMPDEST POP PUSH2 0x28B PUSH2 0x929 JUMP JUMPDEST PUSH1 0x40 MLOAD PUSH2 0x298 SWAP2 SWAP1 PUSH2 0x2D8E JUMP JUMPDEST PUSH1 0x40 MLOAD DUP1 SWAP2 SUB SWAP1 RETURN JUMPDEST CALLVALUE DUP1 ISZERO PUSH2 0x2AD JUMPI PUSH1 0x0 DUP1 REVERT JUMPDEST POP PUSH2 0x2B6 PUSH2 0x93C JUMP JUMPDEST PUSH1 0x40 MLOAD PUSH2 0x2C3 SWAP2 SWAP1 PUSH2 0x2DC2 JUMP JUMPDEST PUSH1 0x40 MLOAD DUP1 SWAP2 SUB SWAP1 RETURN JUMPDEST CALLVALUE DUP1 ISZERO PUSH2 0x2D8 JUMPI PUSH1 0x0 DUP1 REVERT JUMPDEST POP PUSH2 0x2F3 PUSH1 0x4 DUP1 CALLDATASIZE SUB DUP2 ADD SWAP1 PUSH2 0x2EE SWAP2 SWAP1 PUSH2 0x2E0E JUMP JUMPDEST PUSH2 0x942 JUMP JUMPDEST STOP JUMPDEST CALLVALUE DUP1 ISZERO PUSH2 0x301 JUMPI PUSH1 0x0 DUP1 REVERT JUMPDEST POP PUSH2 0x30A PUSH2 0xB1A JUMP JUMPDEST STOP JUMPDEST CALLVALUE DUP1 ISZERO PUSH2 0x318 JUMPI PUSH1 0x0 DUP1 REVERT JUMPDEST POP PUSH2 0x321 PUSH2 0xD2F JUMP JUMPDEST PUSH1 0x40 MLOAD PUSH2 0x32E SWAP2 SWAP1 PUSH2 0x2DC2 JUMP JUMPDEST PUSH1 0x40 MLOAD DUP1 SWAP2 SUB SWAP1 RETURN JUMPDEST CALLVALUE DUP1 ISZERO PUSH2 0x343 JUMPI PUSH1 0x0 DUP1 REVERT JUMPDEST POP PUSH2 0x34C PUSH2 0xD35 JUMP JUMPDEST PUSH1 0x40 MLOAD PUSH2 0x359 SWAP2 SWAP1 PUSH2 0x2DC2 JUMP JUMPDEST PUSH1 0x40 MLOAD DUP1 SWAP2 SUB SWAP1 RETURN JUMPDEST CALLVALUE DUP1 ISZERO PUSH2 0x36E JUMPI PUSH1 0x0 DUP1 REVERT JUMPDEST POP PUSH2 0x377 PUSH2 0xD3B JUMP JUMPDEST PUSH1 0x40 MLOAD PUSH2 0x384 SWAP2 SWAP1 PUSH2 0x2D8E JUMP JUMPDEST PUSH1 0x40 MLOAD DUP1 SWAP2 SUB SWAP1 RETURN JUMPDEST CALLVALUE DUP1 ISZERO PUSH2 0x399 JUMPI PUSH1 0x0 DUP1 REVERT JUMPDEST POP PUSH2 0x3A2 PUSH2 0xD4E JUMP JUMPDEST PUSH1 0x40 MLOAD PUSH2 0x3AF SWAP2 SWAP1 PUSH2 0x2E7C JUMP JUMPDEST PUSH1 0x40 MLOAD DUP1 SWAP2 SUB SWAP1 RETURN JUMPDEST CALLVALUE DUP1 ISZERO PUSH2 0x3C4 JUMPI PUSH1 0x0 DUP1 REVERT JUMPDEST POP PUSH2 0x3DF PUSH1 0x4 DUP1 CALLDATASIZE SUB DUP2 ADD SWAP1 PUSH2 0x3DA SWAP2 SWAP1 PUSH2 0x2E97 JUMP JUMPDEST PUSH2 0xD74 JUMP JUMPDEST STOP JUMPDEST CALLVALUE DUP1 ISZERO PUSH2 0x3ED JUMPI PUSH1 0x0 DUP1 REVERT JUMPDEST POP PUSH2 0x3F6 PUSH2 0x1153 JUMP JUMPDEST STOP JUMPDEST PUSH2 0x400 PUSH2 0x131D JUMP JUMPDEST STOP JUMPDEST CALLVALUE DUP1 ISZERO PUSH2 0x40E JUMPI PUSH1 0x0 DUP1 REVERT JUMPDEST POP PUSH2 0x417 PUSH2 0x1495 JUMP JUMPDEST PUSH1 0x40 MLOAD PUSH2 0x424 SWAP2 SWAP1 PUSH2 0x2D8E JUMP JUMPDEST PUSH1 0x40 MLOAD DUP1 SWAP2 SUB SWAP1 RETURN JUMPDEST CALLVALUE DUP1 ISZERO PUSH2 0x439 JUMPI PUSH1 0x0 DUP1 REVERT JUMPDEST POP PUSH2 0x442 PUSH2 0x14A8 JUMP JUMPDEST PUSH1 0x40 MLOAD PUSH2 0x44F SWAP2 SWAP1 PUSH2 0x2DC2 JUMP JUMPDEST PUSH1 0x40 MLOAD DUP1 SWAP2 SUB SWAP1 RETURN JUMPDEST CALLVALUE DUP1 ISZERO PUSH2 0x464 JUMPI PUSH1 0x0 DUP1 REVERT JUMPDEST POP PUSH2 0x46D PUSH2 0x14AE JUMP JUMPDEST PUSH1 0x40 MLOAD PUSH2 0x47A SWAP2 SWAP1 PUSH2 0x2D8E JUMP JUMPDEST PUSH1 0x40 MLOAD DUP1 SWAP2 SUB SWAP1 RETURN JUMPDEST CALLVALUE DUP1 ISZERO PUSH2 0x48F JUMPI PUSH1 0x0 DUP1 REVERT JUMPDEST POP PUSH2 0x498 PUSH2 0x14C1 JUMP JUMPDEST PUSH1 0x40 MLOAD PUSH2 0x4A5 SWAP2 SWAP1 PUSH2 0x2F36 JUMP JUMPDEST PUSH1 0x40 MLOAD DUP1 SWAP2 SUB SWAP1 RETURN JUMPDEST CALLVALUE DUP1 ISZERO PUSH2 0x4BA JUMPI PUSH1 0x0 DUP1 REVERT JUMPDEST POP PUSH2 0x4C3 PUSH2 0x14E7 JUMP JUMPDEST PUSH1 0x40 MLOAD PUSH2 0x4D0 SWAP2 SWAP1 PUSH2 0x2DC2 JUMP JUMPDEST PUSH1 0x40 MLOAD DUP1 SWAP2 SUB SWAP1 RETURN JUMPDEST CALLVALUE DUP1 ISZERO PUSH2 0x4E5 JUMPI PUSH1 0x0 DUP1 REVERT JUMPDEST POP PUSH2 0x4EE PUSH2 0x1588 JUMP JUMPDEST PUSH1 0x40 MLOAD PUSH2 0x4FB SWAP2 SWAP1 PUSH2 0x2D8E JUMP JUMPDEST PUSH1 0x40 MLOAD DUP1 SWAP2 SUB SWAP1 RETURN JUMPDEST CALLVALUE DUP1 ISZERO PUSH2 0x510 JUMPI PUSH1 0x0 DUP1 REVERT JUMPDEST POP PUSH2 0x519 PUSH2 0x159B JUMP JUMPDEST PUSH1 0x40 MLOAD PUSH2 0x526 SWAP2 SWAP1 PUSH2 0x2DC2 JUMP JUMPDEST PUSH1 0x40 MLOAD DUP1 SWAP2 SUB SWAP1 RETURN JUMPDEST CALLVALUE DUP1 ISZERO PUSH2 0x53B JUMPI PUSH1 0x0 DUP1 REVERT JUMPDEST POP PUSH2 0x544 PUSH2 0x15A1 JUMP JUMPDEST PUSH1 0x40 MLOAD PUSH2 0x551 SWAP2 SWAP1 PUSH2 0x2DC2 JUMP JUMPDEST PUSH1 0x40 MLOAD DUP1 SWAP2 SUB SWAP1 RETURN JUMPDEST CALLVALUE DUP1 ISZERO PUSH2 0x566 JUMPI PUSH1 0x0 DUP1 REVERT JUMPDEST POP PUSH2 0x56F PUSH2 0x15A7 JUMP JUMPDEST PUSH1 0x40 MLOAD PUSH2 0x57C SWAP2 SWAP1 PUSH2 0x2DC2 JUMP JUMPDEST PUSH1 0x40 MLOAD DUP1 SWAP2 SUB SWAP1 RETURN JUMPDEST CALLVALUE DUP1 ISZERO PUSH2 0x591 JUMPI PUSH1 0x0 DUP1 REVERT JUMPDEST POP PUSH2 0x59A PUSH2 0x15AF JUMP JUMPDEST PUSH1 0x40 MLOAD PUSH2 0x5A7 SWAP2 SWAP1 PUSH2 0x2D8E JUMP JUMPDEST PUSH1 0x40 MLOAD DUP1 SWAP2 SUB SWAP1 RETURN JUMPDEST CALLVALUE DUP1 ISZERO PUSH2 0x5BC JUMPI PUSH1 0x0 DUP1 REVERT JUMPDEST POP PUSH2 0x5C5 PUSH2 0x15C2 JUMP JUMPDEST PUSH1 0x40 MLOAD PUSH2 0x5D2 SWAP2 SWAP1 PUSH2 0x2DC2 JUMP JUMPDEST PUSH1 0x40 MLOAD DUP1 SWAP2 SUB SWAP1 RETURN JUMPDEST CALLVALUE DUP1 ISZERO PUSH2 0x5E7 JUMPI PUSH1 0x0 DUP1 REVERT JUMPDEST POP PUSH2 0x5F0 PUSH2 0x162B JUMP JUMPDEST PUSH1 0x40 MLOAD PUSH2 0x5FD SWAP2 SWAP1 PUSH2 0x2DC2 JUMP JUMPDEST PUSH1 0x40 MLOAD DUP1 SWAP2 SUB SWAP1 RETURN JUMPDEST CALLVALUE DUP1 ISZERO PUSH2 0x612 JUMPI PUSH1 0x0 DUP1 REVERT JUMPDEST POP PUSH2 0x62D PUSH1 0x4 DUP1 CALLDATASIZE SUB DUP2 ADD SWAP1 PUSH2 0x628 SWAP2 SWAP1 PUSH2 0x2E0E JUMP JUMPDEST PUSH2 0x1635 JUMP JUMPDEST STOP JUMPDEST CALLVALUE DUP1 ISZERO PUSH2 0x63B JUMPI PUSH1 0x0 DUP1 REVERT JUMPDEST POP PUSH2 0x644 PUSH2 0x17D3 JUMP JUMPDEST PUSH1 0x40 MLOAD PUSH2 0x651 SWAP2 SWAP1 PUSH2 0x2DC2 JUMP JUMPDEST PUSH1 0x40 MLOAD DUP1 SWAP2 SUB SWAP1 RETURN JUMPDEST CALLVALUE DUP1 ISZERO PUSH2 0x666 JUMPI PUSH1 0x0 DUP1 REVERT JUMPDEST POP PUSH2 0x66F PUSH2 0x17D9 JUMP JUMPDEST PUSH1 0x40 MLOAD PUSH2 0x67C SWAP2 SWAP1 PUSH2 0x2DC2 JUMP JUMPDEST PUSH1 0x40 MLOAD DUP1 SWAP2 SUB SWAP1 RETURN JUMPDEST CALLVALUE DUP1 ISZERO PUSH2 0x691 JUMPI PUSH1 0x0 DUP1 REVERT JUMPDEST POP PUSH2 0x69A PUSH2 0x17DF JUMP JUMPDEST PUSH1 0x40 MLOAD PUSH2 0x6A7 SWAP2 SWAP1 PUSH2 0x2DC2 JUMP JUMPDEST PUSH1 0x40 MLOAD DUP1 SWAP2 SUB SWAP1 RETURN JUMPDEST CALLVALUE DUP1 ISZERO PUSH2 0x6BC JUMPI PUSH1 0x0 DUP1 REVERT JUMPDEST POP PUSH2 0x6C5 PUSH2 0x17E5 JUMP JUMPDEST STOP JUMPDEST PUSH2 0x6CF PUSH2 0x193E JUMP JUMPDEST STOP JUMPDEST CALLVALUE DUP1 ISZERO PUSH2 0x6DD JUMPI PUSH1 0x0 DUP1 REVERT JUMPDEST POP PUSH2 0x6E6 PUSH2 0x1D0A JUMP JUMPDEST PUSH1 0x40 MLOAD PUSH2 0x6F3 SWAP2 SWAP1 PUSH2 0x2DC2 JUMP JUMPDEST PUSH1 0x40 MLOAD DUP1 SWAP2 SUB SWAP1 RETURN JUMPDEST CALLVALUE DUP1 ISZERO PUSH2 0x708 JUMPI PUSH1 0x0 DUP1 REVERT JUMPDEST POP PUSH2 0x711 PUSH2 0x1D10 JUMP JUMPDEST PUSH1 0x40 MLOAD PUSH2 0x71E SWAP2 SWAP1 PUSH2 0x2D8E JUMP JUMPDEST PUSH1 0x40 MLOAD DUP1 SWAP2 SUB SWAP1 RETURN JUMPDEST CALLVALUE DUP1 ISZERO PUSH2 0x733 JUMPI PUSH1 0x0 DUP1 REVERT JUMPDEST POP PUSH2 0x74E PUSH1 0x4 DUP1 CALLDATASIZE SUB DUP2 ADD SWAP1 PUSH2 0x749 SWAP2 SWAP1 PUSH2 0x2E0E JUMP JUMPDEST PUSH2 0x1D23 JUMP JUMPDEST STOP JUMPDEST CALLVALUE DUP1 ISZERO PUSH2 0x75C JUMPI PUSH1 0x0 DUP1 REVERT JUMPDEST POP PUSH2 0x765 PUSH2 0x1E5E JUMP JUMPDEST STOP JUMPDEST CALLVALUE DUP1 ISZERO PUSH2 0x773 JUMPI PUSH1 0x0 DUP1 REVERT JUMPDEST POP PUSH2 0x77C PUSH2 0x20D7 JUMP JUMPDEST PUSH1 0x40 MLOAD PUSH2 0x789 SWAP2 SWAP1 PUSH2 0x2D8E JUMP JUMPDEST PUSH1 0x40 MLOAD DUP1 SWAP2 SUB SWAP1 RETURN JUMPDEST CALLVALUE DUP1 ISZERO PUSH2 0x79E JUMPI PUSH1 0x0 DUP1 REVERT JUMPDEST POP PUSH2 0x7A7 PUSH2 0x20EE JUMP JUMPDEST PUSH1 0x40 MLOAD PUSH2 0x7B4 SWAP2 SWAP1 PUSH2 0x2DC2 JUMP JUMPDEST PUSH1 0x40 MLOAD DUP1 SWAP2 SUB SWAP1 RETURN JUMPDEST CALLVALUE DUP1 ISZERO PUSH2 0x7C9 JUMPI PUSH1 0x0 DUP1 REVERT JUMPDEST POP PUSH2 0x7E4 PUSH1 0x4 DUP1 CALLDATASIZE SUB DUP2 ADD SWAP1 PUSH2 0x7DF SWAP2 SWAP1 PUSH2 0x2F51 JUMP JUMPDEST PUSH2 0x20F4 JUMP JUMPDEST STOP JUMPDEST CALLVALUE DUP1 ISZERO PUSH2 0x7F2 JUMPI PUSH1 0x0 DUP1 REVERT JUMPDEST POP PUSH2 0x7FB PUSH2 0x2227 JUMP JUMPDEST PUSH1 0x40 MLOAD PUSH2 0x808 SWAP2 SWAP1 PUSH2 0x2E7C JUMP JUMPDEST PUSH1 0x40 MLOAD DUP1 SWAP2 SUB SWAP1 RETURN JUMPDEST CALLVALUE DUP1 ISZERO PUSH2 0x81D JUMPI PUSH1 0x0 DUP1 REVERT JUMPDEST POP PUSH2 0x826 PUSH2 0x224B JUMP JUMPDEST STOP JUMPDEST CALLVALUE DUP1 ISZERO PUSH2 0x834 JUMPI PUSH1 0x0 DUP1 REVERT JUMPDEST POP PUSH2 0x83D PUSH2 0x2358 JUMP JUMPDEST STOP JUMPDEST CALLVALUE DUP1 ISZERO PUSH2 0x84B JUMPI PUSH1 0x0 DUP1 REVERT JUMPDEST POP PUSH2 0x866 PUSH1 0x4 DUP1 CALLDATASIZE SUB DUP2 ADD SWAP1 PUSH2 0x861 SWAP2 SWAP1 PUSH2 0x2E0E JUMP JUMPDEST PUSH2 0x2657 JUMP JUMPDEST PUSH1 0x40 MLOAD PUSH2 0x876 SWAP5 SWAP4 SWAP3 SWAP2 SWAP1 PUSH2 0x2FA4 JUMP JUMPDEST PUSH1 0x40 MLOAD DUP1 SWAP2 SUB SWAP1 RETURN JUMPDEST CALLVALUE DUP1 ISZERO PUSH2 0x88B JUMPI PUSH1 0x0 DUP1 REVERT JUMPDEST POP PUSH2 0x894 PUSH2 0x2694 JUMP JUMPDEST STOP JUMPDEST CALLVALUE DUP1 ISZERO PUSH2 0x8A2 JUMPI PUSH1 0x0 DUP1 REVERT JUMPDEST POP PUSH2 0x8AB PUSH2 0x29BD JUMP JUMPDEST PUSH1 0x40 MLOAD PUSH2 0x8B8 SWAP2 SWAP1 PUSH2 0x2D8E JUMP JUMPDEST PUSH1 0x40 MLOAD DUP1 SWAP2 SUB SWAP1 RETURN JUMPDEST CALLVALUE DUP1 ISZERO PUSH2 0x8CD JUMPI PUSH1 0x0 DUP1 REVERT JUMPDEST POP PUSH2 0x8E8 PUSH1 0x4 DUP1 CALLDATASIZE SUB DUP2 ADD SWAP1 PUSH2 0x8E3 SWAP2 SWAP1 PUSH2 0x3015 JUMP JUMPDEST PUSH2 0x29D0 JUMP JUMPDEST PUSH1 0x40 MLOAD PUSH2 0x8F5 SWAP2 SWAP1 PUSH2 0x2DC2 JUMP JUMPDEST PUSH1 0x40 MLOAD DUP1 SWAP2 SUB SWAP1 RETURN JUMPDEST CALLVALUE DUP1 ISZERO PUSH2 0x90A JUMPI PUSH1 0x0 DUP1 REVERT JUMPDEST POP PUSH2 0x913 PUSH2 0x29E8 JUMP JUMPDEST PUSH1 0x40 MLOAD PUSH2 0x920 SWAP2 SWAP1 PUSH2 0x2DC2 JUMP JUMPDEST PUSH1 0x40 MLOAD DUP1 SWAP2 SUB SWAP1 RETURN JUMPDEST PUSH1 0xD PUSH1 0x2 SWAP1 SLOAD SWAP1 PUSH2 0x100 EXP SWAP1 DIV PUSH1 0xFF AND DUP2 JUMP JUMPDEST PUSH1 0x3 SLOAD DUP2 JUMP JUMPDEST PUSH1 0x0 DUP1 SLOAD SWAP1 PUSH2 0x100 EXP SWAP1 DIV PUSH20 0xFFFFFFFFFFFFFFFFFFFFFFFFFFFFFFFFFFFFFFFF AND PUSH20 0xFFFFFFFFFFFFFFFFFFFFFFFFFFFFFFFFFFFFFFFF AND CALLER PUSH20 0xFFFFFFFFFFFFFFFFFFFFFFFFFFFFFFFFFFFFFFFF AND EQ PUSH2 0x9D0 JUMPI PUSH1 0x40 MLOAD PUSH32 0x8C379A000000000000000000000000000000000000000000000000000000000 DUP2 MSTORE PUSH1 0x4 ADD PUSH2 0x9C7 SWAP1 PUSH2 0x30C5 JUMP JUMPDEST PUSH1 0x40 MLOAD DUP1 SWAP2 SUB SWAP1 REVERT JUMPDEST PUSH1 0xD PUSH1 0x5 SWAP1 SLOAD SWAP1 PUSH2 0x100 EXP SWAP1 DIV PUSH1 0xFF AND PUSH2 0xA1F JUMPI PUSH1 0x40 MLOAD PUSH32 0x8C379A000000000000000000000000000000000000000000000000000000000 DUP2 MSTORE PUSH1 0x4 ADD PUSH2 0xA16 SWAP1 PUSH2 0x3131 JUMP JUMPDEST PUSH1 0x40 MLOAD DUP1 SWAP2 SUB SWAP1 REVERT JUMPDEST PUSH1 0xD PUSH1 0x6 SWAP1 SLOAD SWAP1 PUSH2 0x100 EXP SWAP1 DIV PUSH1 0xFF AND ISZERO PUSH2 0xA6F JUMPI PUSH1 0x40 MLOAD PUSH32 0x8C379A000000000000000000000000000000000000000000000000000000000 DUP2 MSTORE PUSH1 0x4 ADD PUSH2 0xA66 SWAP1 PUSH2 0x319D JUMP JUMPDEST PUSH1 0x40 MLOAD DUP1 SWAP2 SUB SWAP1 REVERT JUMPDEST PUSH1 0xD PUSH1 0x0 SWAP1 SLOAD SWAP1 PUSH2 0x100 EXP SWAP1 DIV PUSH1 0xFF AND PUSH2 0xABE JUMPI PUSH1 0x40 MLOAD PUSH32 0x8C379A000000000000000000000000000000000000000000000000000000000 DUP2 MSTORE PUSH1 0x4 ADD PUSH2 0xAB5 SWAP1 PUSH2 0x3209 JUMP JUMPDEST PUSH1 0x40 MLOAD DUP1 SWAP2 SUB SWAP1 REVERT JUMPDEST DUP1 PUSH1 0x8 DUP2 SWAP1 SSTORE POP PUSH1 0x1 PUSH1 0xD PUSH1 0x6 PUSH2 0x100 EXP DUP2 SLOAD DUP2 PUSH1 0xFF MUL NOT AND SWAP1 DUP4 ISZERO ISZERO MUL OR SWAP1 SSTORE POP PUSH32 0x192101DE3933394FEDEB636FFADD15C20B3E23E4913AB4051C171A26C90A3459 DUP2 PUSH1 0x40 MLOAD PUSH2 0xB0F SWAP2 SWAP1 PUSH2 0x2DC2 JUMP JUMPDEST PUSH1 0x40 MLOAD DUP1 SWAP2 SUB SWAP1 LOG1 POP JUMP JUMPDEST PUSH1 0x0 DUP1 SLOAD SWAP1 PUSH2 0x100 EXP SWAP1 DIV PUSH20 0xFFFFFFFFFFFFFFFFFFFFFFFFFFFFFFFFFFFFFFFF AND PUSH20 0xFFFFFFFFFFFFFFFFFFFFFFFFFFFFFFFFFFFFFFFF AND CALLER PUSH20 0xFFFFFFFFFFFFFFFFFFFFFFFFFFFFFFFFFFFFFFFF AND EQ PUSH2 0xBA8 JUMPI PUSH1 0x40 MLOAD PUSH32 0x8C379A000000000000000000000000000000000000000000000000000000000 DUP2 MSTORE PUSH1 0x4 ADD PUSH2 0xB9F SWAP1 PUSH2 0x329B JUMP JUMPDEST PUSH1 0x40 MLOAD DUP1 SWAP2 SUB SWAP1 REVERT JUMPDEST PUSH1 0xD PUSH1 0x7 SWAP1 SLOAD SWAP1 PUSH2 0x100 EXP SWAP1 DIV PUSH1 0xFF AND PUSH2 0xBF7 JUMPI PUSH1 0x40 MLOAD PUSH32 0x8C379A000000000000000000000000000000000000000000000000000000000 DUP2 MSTORE PUSH1 0x4 ADD PUSH2 0xBEE SWAP1 PUSH2 0x332D JUMP JUMPDEST PUSH1 0x40 MLOAD DUP1 SWAP2 SUB SWAP1 REVERT JUMPDEST PUSH1 0xD PUSH1 0x8 SWAP1 SLOAD SWAP1 PUSH2 0x100 EXP SWAP1 DIV PUSH20 0xFFFFFFFFFFFFFFFFFFFFFFFFFFFFFFFFFFFFFFFF AND PUSH20 0xFFFFFFFFFFFFFFFFFFFFFFFFFFFFFFFFFFFFFFFF AND PUSH4 0xF7434EA9 PUSH1 0x40 MLOAD DUP2 PUSH4 0xFFFFFFFF AND PUSH1 0xE0 SHL DUP2 MSTORE PUSH1 0x4 ADD PUSH2 0xC50 SWAP1 PUSH2 0x3384 JUMP JUMPDEST PUSH1 0x20 PUSH1 0x40 MLOAD DUP1 DUP4 SUB DUP2 DUP7 GAS STATICCALL ISZERO DUP1 ISZERO PUSH2 0xC6D JUMPI RETURNDATASIZE PUSH1 0x0 DUP1 RETURNDATACOPY RETURNDATASIZE PUSH1 0x0 REVERT JUMPDEST POP POP POP POP PUSH1 0x40 MLOAD RETURNDATASIZE PUSH1 0x1F NOT PUSH1 0x1F DUP3 ADD AND DUP3 ADD DUP1 PUSH1 0x40 MSTORE POP DUP2 ADD SWAP1 PUSH2 0xC91 SWAP2 SWAP1 PUSH2 0x33B9 JUMP JUMPDEST PUSH1 0xC DUP2 SWAP1 SSTORE POP PUSH1 0xC SLOAD PUSH1 0xB SLOAD LT ISZERO PUSH2 0xCDE JUMPI PUSH1 0x40 MLOAD PUSH32 0x8C379A000000000000000000000000000000000000000000000000000000000 DUP2 MSTORE PUSH1 0x4 ADD PUSH2 0xCD5 SWAP1 PUSH2 0x3458 JUMP JUMPDEST PUSH1 0x40 MLOAD DUP1 SWAP2 SUB SWAP1 REVERT JUMPDEST PUSH1 0xC SLOAD PUSH1 0xB PUSH1 0x0 DUP3 DUP3 SLOAD PUSH2 0xCF2 SWAP2 SWAP1 PUSH2 0x34A7 JUMP JUMPDEST SWAP3 POP POP DUP2 SWAP1 SSTORE POP PUSH2 0xD01 PUSH2 0x2A50 JUMP JUMPDEST PUSH32 0xA7D8A4744BC13E083818434DDE26551EA9B29C6425677EBC90CD5DD09CE6B5C7 PUSH1 0x40 MLOAD PUSH1 0x40 MLOAD DUP1 SWAP2 SUB SWAP1 LOG1 JUMP JUMPDEST PUSH1 0x8 SLOAD DUP2 JUMP JUMPDEST PUSH1 0x2 SLOAD DUP2 JUMP JUMPDEST PUSH1 0xD PUSH1 0x0 SWAP1 SLOAD SWAP1 PUSH2 0x100 EXP SWAP1 DIV PUSH1 0xFF AND DUP2 JUMP JUMPDEST PUSH1 0x1 PUSH1 0x0 SWAP1 SLOAD SWAP1 PUSH2 0x100 EXP SWAP1 DIV PUSH20 0xFFFFFFFFFFFFFFFFFFFFFFFFFFFFFFFFFFFFFFFF AND DUP2 JUMP JUMPDEST PUSH1 0xD PUSH1 0x8 SWAP1 SLOAD SWAP1 PUSH2 0x100 EXP SWAP1 DIV PUSH20 0xFFFFFFFFFFFFFFFFFFFFFFFFFFFFFFFFFFFFFFFF AND PUSH20 0xFFFFFFFFFFFFFFFFFFFFFFFFFFFFFFFFFFFFFFFF AND CALLER PUSH20 0xFFFFFFFFFFFFFFFFFFFFFFFFFFFFFFFFFFFFFFFF AND EQ PUSH2 0xE04 JUMPI PUSH1 0x40 MLOAD PUSH32 0x8C379A000000000000000000000000000000000000000000000000000000000 DUP2 MSTORE PUSH1 0x4 ADD PUSH2 0xDFB SWAP1 PUSH2 0x3527 JUMP JUMPDEST PUSH1 0x40 MLOAD DUP1 SWAP2 SUB SWAP1 REVERT JUMPDEST PUSH1 0xD PUSH1 0x2 SWAP1 SLOAD SWAP1 PUSH2 0x100 EXP SWAP1 DIV PUSH1 0xFF AND PUSH2 0xE53 JUMPI PUSH1 0x40 MLOAD PUSH32 0x8C379A000000000000000000000000000000000000000000000000000000000 DUP2 MSTORE PUSH1 0x4 ADD PUSH2 0xE4A SWAP1 PUSH2 0x3593 JUMP JUMPDEST PUSH1 0x40 MLOAD DUP1 SWAP2 SUB SWAP1 REVERT JUMPDEST PUSH1 0xA SLOAD DUP3 EQ PUSH2 0xE97 JUMPI PUSH1 0x40 MLOAD PUSH32 0x8C379A000000000000000000000000000000000000000000000000000000000 DUP2 MSTORE PUSH1 0x4 ADD PUSH2 0xE8E SWAP1 PUSH2 0x35FF JUMP JUMPDEST PUSH1 0x40 MLOAD DUP1 SWAP2 SUB SWAP1 REVERT JUMPDEST PUSH1 0x0 PUSH1 0x1 DUP3 SUB PUSH2 0xEBF JUMPI PUSH1 0xB SLOAD PUSH1 0x8 SLOAD LT PUSH2 0xEB4 JUMPI PUSH1 0xB SLOAD PUSH2 0xEB8 JUMP JUMPDEST PUSH1 0x8 SLOAD JUMPDEST SWAP1 POP PUSH2 0xEF8 JUMP JUMPDEST PUSH1 0x2 DUP3 SUB PUSH2 0xEE5 JUMPI PUSH1 0xB SLOAD PUSH1 0x9 SLOAD LT PUSH2 0xEDA JUMPI PUSH1 0xB SLOAD PUSH2 0xEDE JUMP JUMPDEST PUSH1 0x9 SLOAD JUMPDEST SWAP1 POP PUSH2 0xEF7 JUMP JUMPDEST PUSH1 0x2 PUSH1 0xB SLOAD PUSH2 0xEF4 SWAP2 SWAP1 PUSH2 0x364E JUMP JUMPDEST SWAP1 POP JUMPDEST JUMPDEST DUP1 PUSH1 0xF PUSH1 0x0 DUP1 PUSH1 0x0 SWAP1 SLOAD SWAP1 PUSH2 0x100 EXP SWAP1 DIV PUSH20 0xFFFFFFFFFFFFFFFFFFFFFFFFFFFFFFFFFFFFFFFF AND PUSH20 0xFFFFFFFFFFFFFFFFFFFFFFFFFFFFFFFFFFFFFFFF AND PUSH20 0xFFFFFFFFFFFFFFFFFFFFFFFFFFFFFFFFFFFFFFFF AND DUP2 MSTORE PUSH1 0x20 ADD SWAP1 DUP2 MSTORE PUSH1 0x20 ADD PUSH1 0x0 KECCAK256 PUSH1 0x0 DUP3 DUP3 SLOAD PUSH2 0xF68 SWAP2 SWAP1 PUSH2 0x367F JUMP JUMPDEST SWAP3 POP POP DUP2 SWAP1 SSTORE POP DUP1 PUSH1 0xB SLOAD PUSH2 0xF7D SWAP2 SWAP1 PUSH2 0x34A7 JUMP JUMPDEST PUSH1 0xF PUSH1 0x0 PUSH1 0x1 PUSH1 0x0 SWAP1 SLOAD SWAP1 PUSH2 0x100 EXP SWAP1 DIV PUSH20 0xFFFFFFFFFFFFFFFFFFFFFFFFFFFFFFFFFFFFFFFF AND PUSH20 0xFFFFFFFFFFFFFFFFFFFFFFFFFFFFFFFFFFFFFFFF AND PUSH20 0xFFFFFFFFFFFFFFFFFFFFFFFFFFFFFFFFFFFFFFFF AND DUP2 MSTORE PUSH1 0x20 ADD SWAP1 DUP2 MSTORE PUSH1 0x20 ADD PUSH1 0x0 KECCAK256 PUSH1 0x0 DUP3 DUP3 SLOAD PUSH2 0xFED SWAP2 SWAP1 PUSH2 0x367F JUMP JUMPDEST SWAP3 POP POP DUP2 SWAP1 SSTORE POP PUSH1 0x0 DUP1 SLOAD SWAP1 PUSH2 0x100 EXP SWAP1 DIV PUSH20 0xFFFFFFFFFFFFFFFFFFFFFFFFFFFFFFFFFFFFFFFF AND PUSH20 0xFFFFFFFFFFFFFFFFFFFFFFFFFFFFFFFFFFFFFFFF AND PUSH32 0xE670E4E82118D22A1F9EE18920455EBC958BAE26A90A05D31D3378788B1B0E44 DUP3 PUSH1 0x40 MLOAD PUSH2 0x105A SWAP2 SWAP1 PUSH2 0x2DC2 JUMP JUMPDEST PUSH1 0x40 MLOAD DUP1 SWAP2 SUB SWAP1 LOG2 PUSH1 0x1 PUSH1 0x0 SWAP1 SLOAD SWAP1 PUSH2 0x100 EXP SWAP1 DIV PUSH20 0xFFFFFFFFFFFFFFFFFFFFFFFFFFFFFFFFFFFFFFFF AND PUSH20 0xFFFFFFFFFFFFFFFFFFFFFFFFFFFFFFFFFFFFFFFF AND PUSH32 0xE670E4E82118D22A1F9EE18920455EBC958BAE26A90A05D31D3378788B1B0E44 DUP3 PUSH1 0xB SLOAD PUSH2 0x10CA SWAP2 SWAP1 PUSH2 0x34A7 JUMP JUMPDEST PUSH1 0x40 MLOAD PUSH2 0x10D7 SWAP2 SWAP1 PUSH2 0x2DC2 JUMP JUMPDEST PUSH1 0x40 MLOAD DUP1 SWAP2 SUB SWAP1 LOG2 PUSH1 0x0 PUSH1 0xD PUSH1 0x2 PUSH2 0x100 EXP DUP2 SLOAD DUP2 PUSH1 0xFF MUL NOT AND SWAP1 DUP4 ISZERO ISZERO MUL OR SWAP1 SSTORE POP PUSH1 0x0 PUSH1 0xD PUSH1 0x0 PUSH2 0x100 EXP DUP2 SLOAD DUP2 PUSH1 0xFF MUL NOT AND SWAP1 DUP4 ISZERO ISZERO MUL OR SWAP1 SSTORE POP PUSH32 0xB4121F1F91A696A3FC75F6D151F3C9865ABFFA0738BDA595E71C381C02AF2FAA DUP4 DUP4 PUSH1 0x40 MLOAD PUSH2 0x1146 SWAP3 SWAP2 SWAP1 PUSH2 0x36B3 JUMP JUMPDEST PUSH1 0x40 MLOAD DUP1 SWAP2 SUB SWAP1 LOG1 POP POP POP JUMP JUMPDEST PUSH1 0x0 PUSH1 0xF PUSH1 0x0 CALLER PUSH20 0xFFFFFFFFFFFFFFFFFFFFFFFFFFFFFFFFFFFFFFFF AND PUSH20 0xFFFFFFFFFFFFFFFFFFFFFFFFFFFFFFFFFFFFFFFF AND DUP2 MSTORE PUSH1 0x20 ADD SWAP1 DUP2 MSTORE PUSH1 0x20 ADD PUSH1 0x0 KECCAK256 SLOAD SWAP1 POP PUSH1 0x0 DUP2 GT PUSH2 0x11DA JUMPI PUSH1 0x40 MLOAD PUSH32 0x8C379A000000000000000000000000000000000000000000000000000000000 DUP2 MSTORE PUSH1 0x4 ADD PUSH2 0x11D1 SWAP1 PUSH2 0x3728 JUMP JUMPDEST PUSH1 0x40 MLOAD DUP1 SWAP2 SUB SWAP1 REVERT JUMPDEST PUSH1 0x0 PUSH1 0xF PUSH1 0x0 CALLER PUSH20 0xFFFFFFFFFFFFFFFFFFFFFFFFFFFFFFFFFFFFFFFF AND PUSH20 0xFFFFFFFFFFFFFFFFFFFFFFFFFFFFFFFFFFFFFFFF AND DUP2 MSTORE PUSH1 0x20 ADD SWAP1 DUP2 MSTORE PUSH1 0x20 ADD PUSH1 0x0 KECCAK256 DUP2 SWAP1 SSTORE POP PUSH1 0x0 CALLER PUSH20 0xFFFFFFFFFFFFFFFFFFFFFFFFFFFFFFFFFFFFFFFF AND DUP3 PUSH1 0x40 MLOAD PUSH2 0x1245 SWAP1 PUSH2 0x3776 JUMP JUMPDEST PUSH1 0x0 PUSH1 0x40 MLOAD DUP1 DUP4 SUB DUP2 DUP6 DUP8 GAS CALL SWAP3 POP POP POP RETURNDATASIZE DUP1 PUSH1 0x0 DUP2 EQ PUSH2 0x1282 JUMPI PUSH1 0x40 MLOAD SWAP2 POP PUSH1 0x1F NOT PUSH1 0x3F RETURNDATASIZE ADD AND DUP3 ADD PUSH1 0x40 MSTORE RETURNDATASIZE DUP3 MSTORE RETURNDATASIZE PUSH1 0x0 PUSH1 0x20 DUP5 ADD RETURNDATACOPY PUSH2 0x1287 JUMP JUMPDEST PUSH1 0x60 SWAP2 POP JUMPDEST POP POP SWAP1 POP DUP1 PUSH2 0x12CB JUMPI PUSH1 0x40 MLOAD PUSH32 0x8C379A000000000000000000000000000000000000000000000000000000000 DUP2 MSTORE PUSH1 0x4 ADD PUSH2 0x12C2 SWAP1 PUSH2 0x37D7 JUMP JUMPDEST PUSH1 0x40 MLOAD DUP1 SWAP2 SUB SWAP1 REVERT JUMPDEST CALLER PUSH20 0xFFFFFFFFFFFFFFFFFFFFFFFFFFFFFFFFFFFFFFFF AND PUSH32 0x8C9A4F13B67CB64D7C6AA1AE0C9BF07694AF521A28B93E7060020810AB4BC59F DUP4 PUSH1 0x40 MLOAD PUSH2 0x1311 SWAP2 SWAP1 PUSH2 0x2DC2 JUMP JUMPDEST PUSH1 0x40 MLOAD DUP1 SWAP2 SUB SWAP1 LOG2 POP POP JUMP JUMPDEST PUSH1 0x1 PUSH1 0x0 SWAP1 SLOAD SWAP1 PUSH2 0x100 EXP SWAP1 DIV PUSH20 0xFFFFFFFFFFFFFFFFFFFFFFFFFFFFFFFFFFFFFFFF AND PUSH20 0xFFFFFFFFFFFFFFFFFFFFFFFFFFFFFFFFFFFFFFFF AND CALLER PUSH20 0xFFFFFFFFFFFFFFFFFFFFFFFFFFFFFFFFFFFFFFFF AND EQ PUSH2 0x13AD JUMPI PUSH1 0x40 MLOAD PUSH32 0x8C379A000000000000000000000000000000000000000000000000000000000 DUP2 MSTORE PUSH1 0x4 ADD PUSH2 0x13A4 SWAP1 PUSH2 0x3869 JUMP JUMPDEST PUSH1 0x40 MLOAD DUP1 SWAP2 SUB SWAP1 REVERT JUMPDEST PUSH1 0xD PUSH1 0x0 SWAP1 SLOAD SWAP1 PUSH2 0x100 EXP SWAP1 DIV PUSH1 0xFF AND ISZERO PUSH2 0x13FD JUMPI PUSH1 0x40 MLOAD PUSH32 0x8C379A000000000000000000000000000000000000000000000000000000000 DUP2 MSTORE PUSH1 0x4 ADD PUSH2 0x13F4 SWAP1 PUSH2 0x38D5 JUMP JUMPDEST PUSH1 0x40 MLOAD DUP1 SWAP2 SUB SWAP1 REVERT JUMPDEST PUSH1 0x2 SLOAD CALLVALUE EQ PUSH2 0x1441 JUMPI PUSH1 0x40 MLOAD PUSH32 0x8C379A000000000000000000000000000000000000000000000000000000000 DUP2 MSTORE PUSH1 0x4 ADD PUSH2 0x1438 SWAP1 PUSH2 0x3967 JUMP JUMPDEST PUSH1 0x40 MLOAD DUP1 SWAP2 SUB SWAP1 REVERT JUMPDEST PUSH1 0x1 PUSH1 0xD PUSH1 0x1 PUSH2 0x100 EXP DUP2 SLOAD DUP2 PUSH1 0xFF MUL NOT AND SWAP1 DUP4 ISZERO ISZERO MUL OR SWAP1 SSTORE POP PUSH32 0x486AC935CF1EA9EFFD9E0A261BC42917B45F2FD45CC98DEF2BC34D47F216937C CALLVALUE PUSH1 0x40 MLOAD PUSH2 0x148B SWAP2 SWAP1 PUSH2 0x2DC2 JUMP JUMPDEST PUSH1 0x40 MLOAD DUP1 SWAP2 SUB SWAP1 LOG1 JUMP JUMPDEST PUSH1 0xD PUSH1 0x7 SWAP1 SLOAD SWAP1 PUSH2 0x100 EXP SWAP1 DIV PUSH1 0xFF AND DUP2 JUMP JUMPDEST PUSH1 0x5 SLOAD DUP2 JUMP JUMPDEST PUSH1 0xD PUSH1 0x5 SWAP1 SLOAD SWAP1 PUSH2 0x100 EXP SWAP1 DIV PUSH1 0xFF AND DUP2 JUMP JUMPDEST PUSH1 0xD PUSH1 0x8 SWAP1 SLOAD SWAP1 PUSH2 0x100 EXP SWAP1 DIV PUSH20 0xFFFFFFFFFFFFFFFFFFFFFFFFFFFFFFFFFFFFFFFF AND DUP2 JUMP JUMPDEST PUSH1 0x0 PUSH1 0xD PUSH1 0x8 SWAP1 SLOAD SWAP1 PUSH2 0x100 EXP SWAP1 DIV PUSH20 0xFFFFFFFFFFFFFFFFFFFFFFFFFFFFFFFFFFFFFFFF AND PUSH20 0xFFFFFFFFFFFFFFFFFFFFFFFFFFFFFFFFFFFFFFFF AND PUSH4 0xF7434EA9 PUSH1 0x40 MLOAD DUP2 PUSH4 0xFFFFFFFF AND PUSH1 0xE0 SHL DUP2 MSTORE PUSH1 0x4 ADD PUSH2 0x1542 SWAP1 PUSH2 0x3384 JUMP JUMPDEST PUSH1 0x20 PUSH1 0x40 MLOAD DUP1 DUP4 SUB DUP2 DUP7 GAS STATICCALL ISZERO DUP1 ISZERO PUSH2 0x155F JUMPI RETURNDATASIZE PUSH1 0x0 DUP1 RETURNDATACOPY RETURNDATASIZE PUSH1 0x0 REVERT JUMPDEST POP POP POP POP PUSH1 0x40 MLOAD RETURNDATASIZE PUSH1 0x1F NOT PUSH1 0x1F DUP3 ADD AND DUP3 ADD DUP1 PUSH1 0x40 MSTORE POP DUP2 ADD SWAP1 PUSH2 0x1583 SWAP2 SWAP1 PUSH2 0x33B9 JUMP JUMPDEST SWAP1 POP SWAP1 JUMP JUMPDEST PUSH1 0xD PUSH1 0x4 SWAP1 SLOAD SWAP1 PUSH2 0x100 EXP SWAP1 DIV PUSH1 0xFF AND DUP2 JUMP JUMPDEST PUSH1 0xC SLOAD DUP2 JUMP JUMPDEST PUSH1 0x7 SLOAD DUP2 JUMP JUMPDEST PUSH1 0x0 SELFBALANCE SWAP1 POP SWAP1 JUMP JUMPDEST PUSH1 0xD PUSH1 0x6 SWAP1 SLOAD SWAP1 PUSH2 0x100 EXP SWAP1 DIV PUSH1 0xFF AND DUP2 JUMP JUMPDEST PUSH1 0x0 PUSH1 0xF PUSH1 0x0 PUSH1 0x1 PUSH1 0x0 SWAP1 SLOAD SWAP1 PUSH2 0x100 EXP SWAP1 DIV PUSH20 0xFFFFFFFFFFFFFFFFFFFFFFFFFFFFFFFFFFFFFFFF AND PUSH20 0xFFFFFFFFFFFFFFFFFFFFFFFFFFFFFFFFFFFFFFFF AND PUSH20 0xFFFFFFFFFFFFFFFFFFFFFFFFFFFFFFFFFFFFFFFF AND DUP2 MSTORE PUSH1 0x20 ADD SWAP1 DUP2 MSTORE PUSH1 0x20 ADD PUSH1 0x0 KECCAK256 SLOAD SWAP1 POP SWAP1 JUMP JUMPDEST PUSH1 0x0 PUSH1 0xB SLOAD SWAP1 POP SWAP1 JUMP JUMPDEST PUSH1 0x0 DUP1 SLOAD SWAP1 PUSH2 0x100 EXP SWAP1 DIV PUSH20 0xFFFFFFFFFFFFFFFFFFFFFFFFFFFFFFFFFFFFFFFF AND PUSH20 0xFFFFFFFFFFFFFFFFFFFFFFFFFFFFFFFFFFFFFFFF AND CALLER PUSH20 0xFFFFFFFFFFFFFFFFFFFFFFFFFFFFFFFFFFFFFFFF AND EQ PUSH2 0x16C3 JUMPI PUSH1 0x40 MLOAD PUSH32 0x8C379A000000000000000000000000000000000000000000000000000000000 DUP2 MSTORE PUSH1 0x4 ADD PUSH2 0x16BA SWAP1 PUSH2 0x39F9 JUMP JUMPDEST PUSH1 0x40 MLOAD DUP1 SWAP2 SUB SWAP1 REVERT JUMPDEST PUSH1 0xD PUSH1 0x0 SWAP1 SLOAD SWAP1 PUSH2 0x100 EXP SWAP1 DIV PUSH1 0xFF AND PUSH2 0x1712 JUMPI PUSH1 0x40 MLOAD PUSH32 0x8C379A000000000000000000000000000000000000000000000000000000000 DUP2 MSTORE PUSH1 0x4 ADD PUSH2 0x1709 SWAP1 PUSH2 0x3209 JUMP JUMPDEST PUSH1 0x40 MLOAD DUP1 SWAP2 SUB SWAP1 REVERT JUMPDEST PUSH1 0x4 SLOAD PUSH1 0x6 SLOAD GT ISZERO PUSH2 0x1759 JUMPI PUSH1 0x40 MLOAD PUSH32 0x8C379A000000000000000000000000000000000000000000000000000000000 DUP2 MSTORE PUSH1 0x4 ADD PUSH2 0x1750 SWAP1 PUSH2 0x3A65 JUMP JUMPDEST PUSH1 0x40 MLOAD DUP1 SWAP2 SUB SWAP1 REVERT JUMPDEST DUP1 PUSH1 0xE PUSH1 0x0 PUSH1 0x6 SLOAD DUP2 MSTORE PUSH1 0x20 ADD SWAP1 DUP2 MSTORE PUSH1 0x20 ADD PUSH1 0x0 KECCAK256 PUSH1 0x1 ADD DUP2 SWAP1 SSTORE POP PUSH1 0x3 SLOAD PUSH1 0xE PUSH1 0x0 PUSH1 0x6 SLOAD DUP2 MSTORE PUSH1 0x20 ADD SWAP1 DUP2 MSTORE PUSH1 0x20 ADD PUSH1 0x0 KECCAK256 PUSH1 0x0 ADD DUP2 SWAP1 SSTORE POP PUSH32 0xF75D23E75691B7209BF24071476B3702A8412A369B26FD3AD012D19630F65A2B PUSH1 0x6 SLOAD DUP3 PUSH1 0x40 MLOAD PUSH2 0x17C8 SWAP3 SWAP2 SWAP1 PUSH2 0x36B3 JUMP JUMPDEST PUSH1 0x40 MLOAD DUP1 SWAP2 SUB SWAP1 LOG1 POP JUMP JUMPDEST PUSH1 0x9 SLOAD DUP2 JUMP JUMPDEST PUSH1 0x6 SLOAD DUP2 JUMP JUMPDEST PUSH1 0x4 SLOAD DUP2 JUMP JUMPDEST PUSH1 0x0 DUP1 SLOAD SWAP1 PUSH2 0x100 EXP SWAP1 DIV PUSH20 0xFFFFFFFFFFFFFFFFFFFFFFFFFFFFFFFFFFFFFFFF AND PUSH20 0xFFFFFFFFFFFFFFFFFFFFFFFFFFFFFFFFFFFFFFFF AND CALLER PUSH20 0xFFFFFFFFFFFFFFFFFFFFFFFFFFFFFFFFFFFFFFFF AND EQ PUSH2 0x1873 JUMPI PUSH1 0x40 MLOAD PUSH32 0x8C379A000000000000000000000000000000000000000000000000000000000 DUP2 MSTORE PUSH1 0x4 ADD PUSH2 0x186A SWAP1 PUSH2 0x3AF7 JUMP JUMPDEST PUSH1 0x40 MLOAD DUP1 SWAP2 SUB SWAP1 REVERT JUMPDEST PUSH1 0xD PUSH1 0x1 SWAP1 SLOAD SWAP1 PUSH2 0x100 EXP SWAP1 DIV PUSH1 0xFF AND PUSH2 0x18C2 JUMPI PUSH1 0x40 MLOAD PUSH32 0x8C379A000000000000000000000000000000000000000000000000000000000 DUP2 MSTORE PUSH1 0x4 ADD PUSH2 0x18B9 SWAP1 PUSH2 0x3B89 JUMP JUMPDEST PUSH1 0x40 MLOAD DUP1 SWAP2 SUB SWAP1 REVERT JUMPDEST PUSH1 0xD PUSH1 0x0 SWAP1 SLOAD SWAP1 PUSH2 0x100 EXP SWAP1 DIV PUSH1 0xFF AND ISZERO PUSH2 0x1912 JUMPI PUSH1 0x40 MLOAD PUSH32 0x8C379A000000000000000000000000000000000000000000000000000000000 DUP2 MSTORE PUSH1 0x4 ADD PUSH2 0x1909 SWAP1 PUSH2 0x38D5 JUMP JUMPDEST PUSH1 0x40 MLOAD DUP1 SWAP2 SUB SWAP1 REVERT JUMPDEST PUSH1 0x1 PUSH1 0xD PUSH1 0x0 PUSH2 0x100 EXP DUP2 SLOAD DUP2 PUSH1 0xFF MUL NOT AND SWAP1 DUP4 ISZERO ISZERO MUL OR SWAP1 SSTORE POP TIMESTAMP PUSH1 0x5 DUP2 SWAP1 SSTORE POP PUSH1 0x1 PUSH1 0x6 DUP2 SWAP1 SSTORE POP JUMP JUMPDEST PUSH1 0x1 PUSH1 0x0 SWAP1 SLOAD SWAP1 PUSH2 0x100 EXP SWAP1 DIV PUSH20 0xFFFFFFFFFFFFFFFFFFFFFFFFFFFFFFFFFFFFFFFF AND PUSH20 0xFFFFFFFFFFFFFFFFFFFFFFFFFFFFFFFFFFFFFFFF AND CALLER PUSH20 0xFFFFFFFFFFFFFFFFFFFFFFFFFFFFFFFFFFFFFFFF AND EQ PUSH2 0x19CE JUMPI PUSH1 0x40 MLOAD PUSH32 0x8C379A000000000000000000000000000000000000000000000000000000000 DUP2 MSTORE PUSH1 0x4 ADD PUSH2 0x19C5 SWAP1 PUSH2 0x3BF5 JUMP JUMPDEST PUSH1 0x40 MLOAD DUP1 SWAP2 SUB SWAP1 REVERT JUMPDEST PUSH1 0xD PUSH1 0x0 SWAP1 SLOAD SWAP1 PUSH2 0x100 EXP SWAP1 DIV PUSH1 0xFF AND PUSH2 0x1A1D JUMPI PUSH1 0x40 MLOAD PUSH32 0x8C379A000000000000000000000000000000000000000000000000000000000 DUP2 MSTORE PUSH1 0x4 ADD PUSH2 0x1A14 SWAP1 PUSH2 0x3209 JUMP JUMPDEST PUSH1 0x40 MLOAD DUP1 SWAP2 SUB SWAP1 REVERT JUMPDEST PUSH1 0x4 SLOAD PUSH1 0x6 SLOAD GT ISZERO PUSH2 0x1A64 JUMPI PUSH1 0x40 MLOAD PUSH32 0x8C379A000000000000000000000000000000000000000000000000000000000 DUP2 MSTORE PUSH1 0x4 ADD PUSH2 0x1A5B SWAP1 PUSH2 0x3A65 JUMP JUMPDEST PUSH1 0x40 MLOAD DUP1 SWAP2 SUB SWAP1 REVERT JUMPDEST PUSH1 0x0 PUSH1 0xE PUSH1 0x0 PUSH1 0x6 SLOAD DUP2 MSTORE PUSH1 0x20 ADD SWAP1 DUP2 MSTORE PUSH1 0x20 ADD PUSH1 0x0 KECCAK256 SWAP1 POP DUP1 PUSH1 0x3 ADD PUSH1 0x0 SWAP1 SLOAD SWAP1 PUSH2 0x100 EXP SWAP1 DIV PUSH1 0xFF AND ISZERO PUSH2 0x1ACF JUMPI PUSH1 0x40 MLOAD PUSH32 0x8C379A000000000000000000000000000000000000000000000000000000000 DUP2 MSTORE PUSH1 0x4 ADD PUSH2 0x1AC6 SWAP1 PUSH2 0x3C87 JUMP JUMPDEST PUSH1 0x40 MLOAD DUP1 SWAP2 SUB SWAP1 REVERT JUMPDEST PUSH1 0x0 DUP2 PUSH1 0x1 ADD SLOAD GT PUSH2 0x1B16 JUMPI PUSH1 0x40 MLOAD PUSH32 0x8C379A000000000000000000000000000000000000000000000000000000000 DUP2 MSTORE PUSH1 0x4 ADD PUSH2 0x1B0D SWAP1 PUSH2 0x3D19 JUMP JUMPDEST PUSH1 0x40 MLOAD DUP1 SWAP2 SUB SWAP1 REVERT JUMPDEST PUSH1 0x0 PUSH1 0x7 SLOAD DUP3 PUSH1 0x1 ADD SLOAD DUP4 PUSH1 0x0 ADD SLOAD PUSH2 0x1B2F SWAP2 SWAP1 PUSH2 0x367F JUMP JUMPDEST PUSH2 0x1B39 SWAP2 SWAP1 PUSH2 0x367F JUMP JUMPDEST SWAP1 POP DUP1 CALLVALUE EQ PUSH2 0x1B7D JUMPI PUSH1 0x40 MLOAD PUSH32 0x8C379A000000000000000000000000000000000000000000000000000000000 DUP2 MSTORE PUSH1 0x4 ADD PUSH2 0x1B74 SWAP1 PUSH2 0x3D85 JUMP JUMPDEST PUSH1 0x40 MLOAD DUP1 SWAP2 SUB SWAP1 REVERT JUMPDEST PUSH1 0x1 DUP3 PUSH1 0x3 ADD PUSH1 0x0 PUSH2 0x100 EXP DUP2 SLOAD DUP2 PUSH1 0xFF MUL NOT AND SWAP1 DUP4 ISZERO ISZERO MUL OR SWAP1 SSTORE POP PUSH1 0x0 PUSH1 0x7 DUP2 SWAP1 SSTORE POP PUSH32 0xA0D112ED080C1B1A94B838AD981A23746BE2A4670FD4BF157224E72CDD5DFDDE PUSH1 0x6 SLOAD DUP3 PUSH1 0x40 MLOAD PUSH2 0x1BD5 SWAP3 SWAP2 SWAP1 PUSH2 0x36B3 JUMP JUMPDEST PUSH1 0x40 MLOAD DUP1 SWAP2 SUB SWAP1 LOG1 DUP1 PUSH1 0xF PUSH1 0x0 DUP1 PUSH1 0x0 SWAP1 SLOAD SWAP1 PUSH2 0x100 EXP SWAP1 DIV PUSH20 0xFFFFFFFFFFFFFFFFFFFFFFFFFFFFFFFFFFFFFFFF AND PUSH20 0xFFFFFFFFFFFFFFFFFFFFFFFFFFFFFFFFFFFFFFFF AND PUSH20 0xFFFFFFFFFFFFFFFFFFFFFFFFFFFFFFFFFFFFFFFF AND DUP2 MSTORE PUSH1 0x20 ADD SWAP1 DUP2 MSTORE PUSH1 0x20 ADD PUSH1 0x0 KECCAK256 PUSH1 0x0 DUP3 DUP3 SLOAD PUSH2 0x1C4D SWAP2 SWAP1 PUSH2 0x367F JUMP JUMPDEST SWAP3 POP POP DUP2 SWAP1 SSTORE POP PUSH1 0x0 DUP1 SLOAD SWAP1 PUSH2 0x100 EXP SWAP1 DIV PUSH20 0xFFFFFFFFFFFFFFFFFFFFFFFFFFFFFFFFFFFFFFFF AND PUSH20 0xFFFFFFFFFFFFFFFFFFFFFFFFFFFFFFFFFFFFFFFF AND PUSH32 0xE670E4E82118D22A1F9EE18920455EBC958BAE26A90A05D31D3378788B1B0E44 DUP3 PUSH1 0x40 MLOAD PUSH2 0x1CBA SWAP2 SWAP1 PUSH2 0x2DC2 JUMP JUMPDEST PUSH1 0x40 MLOAD DUP1 SWAP2 SUB SWAP1 LOG2 PUSH1 0x4 SLOAD PUSH1 0x6 SLOAD SUB PUSH2 0x1CED JUMPI PUSH1 0x1 PUSH1 0xD PUSH1 0x5 PUSH2 0x100 EXP DUP2 SLOAD DUP2 PUSH1 0xFF MUL NOT AND SWAP1 DUP4 ISZERO ISZERO MUL OR SWAP1 SSTORE POP PUSH2 0x1D06 JUMP JUMPDEST PUSH1 0x6 PUSH1 0x0 DUP2 SLOAD DUP1 SWAP3 SWAP2 SWAP1 PUSH2 0x1D00 SWAP1 PUSH2 0x3DA5 JUMP JUMPDEST SWAP2 SWAP1 POP SSTORE POP JUMPDEST POP POP JUMP JUMPDEST PUSH1 0xA SLOAD DUP2 JUMP JUMPDEST PUSH1 0xD PUSH1 0x3 SWAP1 SLOAD SWAP1 PUSH2 0x100 EXP SWAP1 DIV PUSH1 0xFF AND DUP2 JUMP JUMPDEST PUSH1 0x1 PUSH1 0x0 SWAP1 SLOAD SWAP1 PUSH2 0x100 EXP SWAP1 DIV PUSH20 0xFFFFFFFFFFFFFFFFFFFFFFFFFFFFFFFFFFFFFFFF AND PUSH20 0xFFFFFFFFFFFFFFFFFFFFFFFFFFFFFFFFFFFFFFFF AND CALLER PUSH20 0xFFFFFFFFFFFFFFFFFFFFFFFFFFFFFFFFFFFFFFFF AND EQ PUSH2 0x1DB3 JUMPI PUSH1 0x40 MLOAD PUSH32 0x8C379A000000000000000000000000000000000000000000000000000000000 DUP2 MSTORE PUSH1 0x4 ADD PUSH2 0x1DAA SWAP1 PUSH2 0x3E5F JUMP JUMPDEST PUSH1 0x40 MLOAD DUP1 SWAP2 SUB SWAP1 REVERT JUMPDEST PUSH1 0xD PUSH1 0x6 SWAP1 SLOAD SWAP1 PUSH2 0x100 EXP SWAP1 DIV PUSH1 0xFF AND PUSH2 0x1E02 JUMPI PUSH1 0x40 MLOAD PUSH32 0x8C379A000000000000000000000000000000000000000000000000000000000 DUP2 MSTORE PUSH1 0x4 ADD PUSH2 0x1DF9 SWAP1 PUSH2 0x3EF1 JUMP JUMPDEST PUSH1 0x40 MLOAD DUP1 SWAP2 SUB SWAP1 REVERT JUMPDEST DUP1 PUSH1 0x9 DUP2 SWAP1 SSTORE POP PUSH1 0x1 PUSH1 0xD PUSH1 0x7 PUSH2 0x100 EXP DUP2 SLOAD DUP2 PUSH1 0xFF MUL NOT AND SWAP1 DUP4 ISZERO ISZERO MUL OR SWAP1 SSTORE POP PUSH32 0xF2792B28C50F2F7EECE39E74A2B4F0F1CE15A79ACB72DD811686E827AED030B DUP2 PUSH1 0x40 MLOAD PUSH2 0x1E53 SWAP2 SWAP1 PUSH2 0x2DC2 JUMP JUMPDEST PUSH1 0x40 MLOAD DUP1 SWAP2 SUB SWAP1 LOG1 POP JUMP JUMPDEST PUSH1 0x1 PUSH1 0x0 SWAP1 SLOAD SWAP1 PUSH2 0x100 EXP SWAP1 DIV PUSH20 0xFFFFFFFFFFFFFFFFFFFFFFFFFFFFFFFFFFFFFFFF AND PUSH20 0xFFFFFFFFFFFFFFFFFFFFFFFFFFFFFFFFFFFFFFFF AND CALLER PUSH20 0xFFFFFFFFFFFFFFFFFFFFFFFFFFFFFFFFFFFFFFFF AND EQ PUSH2 0x1EEE JUMPI PUSH1 0x40 MLOAD PUSH32 0x8C379A000000000000000000000000000000000000000000000000000000000 DUP2 MSTORE PUSH1 0x4 ADD PUSH2 0x1EE5 SWAP1 PUSH2 0x3F83 JUMP JUMPDEST PUSH1 0x40 MLOAD DUP1 SWAP2 SUB SWAP1 REVERT JUMPDEST PUSH1 0xD PUSH1 0x0 SWAP1 SLOAD SWAP1 PUSH2 0x100 EXP SWAP1 DIV PUSH1 0xFF AND PUSH2 0x1F3D JUMPI PUSH1 0x40 MLOAD PUSH32 0x8C379A000000000000000000000000000000000000000000000000000000000 DUP2 MSTORE PUSH1 0x4 ADD PUSH2 0x1F34 SWAP1 PUSH2 0x3209 JUMP JUMPDEST PUSH1 0x40 MLOAD DUP1 SWAP2 SUB SWAP1 REVERT JUMPDEST PUSH1 0x4 SLOAD PUSH1 0x6 SLOAD GT ISZERO PUSH2 0x1F84 JUMPI PUSH1 0x40 MLOAD PUSH32 0x8C379A000000000000000000000000000000000000000000000000000000000 DUP2 MSTORE PUSH1 0x4 ADD PUSH2 0x1F7B SWAP1 PUSH2 0x3A65 JUMP JUMPDEST PUSH1 0x40 MLOAD DUP1 SWAP2 SUB SWAP1 REVERT JUMPDEST PUSH1 0x0 PUSH1 0xE PUSH1 0x0 PUSH1 0x6 SLOAD DUP2 MSTORE PUSH1 0x20 ADD SWAP1 DUP2 MSTORE PUSH1 0x20 ADD PUSH1 0x0 KECCAK256 SWAP1 POP DUP1 PUSH1 0x3 ADD PUSH1 0x0 SWAP1 SLOAD SWAP1 PUSH2 0x100 EXP SWAP1 DIV PUSH1 0xFF AND ISZERO PUSH2 0x1FEF JUMPI PUSH1 0x40 MLOAD PUSH32 0x8C379A000000000000000000000000000000000000000000000000000000000 DUP2 MSTORE PUSH1 0x4 ADD PUSH2 0x1FE6 SWAP1 PUSH2 0x3C87 JUMP JUMPDEST PUSH1 0x40 MLOAD DUP1 SWAP2 SUB SWAP1 REVERT JUMPDEST PUSH1 0x0 DUP2 PUSH1 0x1 ADD SLOAD GT PUSH2 0x2036 JUMPI PUSH1 0x40 MLOAD PUSH32 0x8C379A000000000000000000000000000000000000000000000000000000000 DUP2 MSTORE PUSH1 0x4 ADD PUSH2 0x202D SWAP1 PUSH2 0x3D19 JUMP JUMPDEST PUSH1 0x40 MLOAD DUP1 SWAP2 SUB SWAP1 REVERT JUMPDEST PUSH1 0x0 DUP2 PUSH1 0x1 ADD SLOAD DUP3 PUSH1 0x0 ADD SLOAD PUSH2 0x204C SWAP2 SWAP1 PUSH2 0x367F JUMP JUMPDEST SWAP1 POP DUP1 PUSH1 0x7 PUSH1 0x0 DUP3 DUP3 SLOAD PUSH2 0x2060 SWAP2 SWAP1 PUSH2 0x367F JUMP JUMPDEST SWAP3 POP POP DUP2 SWAP1 SSTORE POP PUSH32 0x9EA3A4B65940D7B9DBF8BB1C459BA8E81222D1A596E93FBC364365A6D78E27D6 PUSH1 0x6 SLOAD DUP3 PUSH1 0x40 MLOAD PUSH2 0x209A SWAP3 SWAP2 SWAP1 PUSH2 0x36B3 JUMP JUMPDEST PUSH1 0x40 MLOAD DUP1 SWAP2 SUB SWAP1 LOG1 PUSH1 0x4 SLOAD PUSH1 0x6 SLOAD SUB PUSH2 0x20BA JUMPI PUSH2 0x20B5 PUSH2 0x2C05 JUMP JUMPDEST PUSH2 0x20D3 JUMP JUMPDEST PUSH1 0x6 PUSH1 0x0 DUP2 SLOAD DUP1 SWAP3 SWAP2 SWAP1 PUSH2 0x20CD SWAP1 PUSH2 0x3DA5 JUMP JUMPDEST SWAP2 SWAP1 POP SSTORE POP JUMPDEST POP POP JUMP JUMPDEST PUSH1 0x0 PUSH1 0xD PUSH1 0x5 SWAP1 SLOAD SWAP1 PUSH2 0x100 EXP SWAP1 DIV PUSH1 0xFF AND SWAP1 POP SWAP1 JUMP JUMPDEST PUSH1 0xB SLOAD DUP2 JUMP JUMPDEST PUSH1 0x0 DUP1 SLOAD SWAP1 PUSH2 0x100 EXP SWAP1 DIV PUSH20 0xFFFFFFFFFFFFFFFFFFFFFFFFFFFFFFFFFFFFFFFF AND PUSH20 0xFFFFFFFFFFFFFFFFFFFFFFFFFFFFFFFFFFFFFFFF AND CALLER PUSH20 0xFFFFFFFFFFFFFFFFFFFFFFFFFFFFFFFFFFFFFFFF AND EQ PUSH2 0x2182 JUMPI PUSH1 0x40 MLOAD PUSH32 0x8C379A000000000000000000000000000000000000000000000000000000000 DUP2 MSTORE PUSH1 0x4 ADD PUSH2 0x2179 SWAP1 PUSH2 0x4015 JUMP JUMPDEST PUSH1 0x40 MLOAD DUP1 SWAP2 SUB SWAP1 REVERT JUMPDEST PUSH1 0xD PUSH1 0x0 SWAP1 SLOAD SWAP1 PUSH2 0x100 EXP SWAP1 DIV PUSH1 0xFF AND ISZERO PUSH2 0x21D2 JUMPI PUSH1 0x40 MLOAD PUSH32 0x8C379A000000000000000000000000000000000000000000000000000000000 DUP2 MSTORE PUSH1 0x4 ADD PUSH2 0x21C9 SWAP1 PUSH2 0x38D5 JUMP JUMPDEST PUSH1 0x40 MLOAD DUP1 SWAP2 SUB SWAP1 REVERT JUMPDEST DUP3 PUSH1 0x2 DUP2 SWAP1 SSTORE POP DUP2 PUSH1 0x3 DUP2 SWAP1 SSTORE POP DUP1 PUSH1 0x4 DUP2 SWAP1 SSTORE POP PUSH32 0x2F47566D4872826A9750E05AE448AD21F2A677C332D36D6437B697A7F8DD1E14 DUP4 DUP4 DUP4 PUSH1 0x40 MLOAD PUSH2 0x221A SWAP4 SWAP3 SWAP2 SWAP1 PUSH2 0x4035 JUMP JUMPDEST PUSH1 0x40 MLOAD DUP1 SWAP2 SUB SWAP1 LOG1 POP POP POP JUMP JUMPDEST PUSH1 0x0 DUP1 SLOAD SWAP1 PUSH2 0x100 EXP SWAP1 DIV PUSH20 0xFFFFFFFFFFFFFFFFFFFFFFFFFFFFFFFFFFFFFFFF AND DUP2 JUMP JUMPDEST PUSH1 0x1 PUSH1 0x0 SWAP1 SLOAD SWAP1 PUSH2 0x100 EXP SWAP1 DIV PUSH20 0xFFFFFFFFFFFFFFFFFFFFFFFFFFFFFFFFFFFFFFFF AND PUSH20 0xFFFFFFFFFFFFFFFFFFFFFFFFFFFFFFFFFFFFFFFF AND CALLER PUSH20 0xFFFFFFFFFFFFFFFFFFFFFFFFFFFFFFFFFFFFFFFF AND EQ PUSH2 0x22DB JUMPI PUSH1 0x40 MLOAD PUSH32 0x8C379A000000000000000000000000000000000000000000000000000000000 DUP2 MSTORE PUSH1 0x4 ADD PUSH2 0x22D2 SWAP1 PUSH2 0x40DE JUMP JUMPDEST PUSH1 0x40 MLOAD DUP1 SWAP2 SUB SWAP1 REVERT JUMPDEST PUSH1 0xD PUSH1 0x6 SWAP1 SLOAD SWAP1 PUSH2 0x100 EXP SWAP1 DIV PUSH1 0xFF AND PUSH2 0x232A JUMPI PUSH1 0x40 MLOAD PUSH32 0x8C379A000000000000000000000000000000000000000000000000000000000 DUP2 MSTORE PUSH1 0x4 ADD PUSH2 0x2321 SWAP1 PUSH2 0x3EF1 JUMP JUMPDEST PUSH1 0x40 MLOAD DUP1 SWAP2 SUB SWAP1 REVERT JUMPDEST PUSH32 0x214F96452FC3FDFD5EEAFDA7F5DF5B6066F4F8AC1295FB53CD051491B9B56DA3 PUSH1 0x40 MLOAD PUSH1 0x40 MLOAD DUP1 SWAP2 SUB SWAP1 LOG1 JUMP JUMPDEST PUSH1 0x1 PUSH1 0x0 SWAP1 SLOAD SWAP1 PUSH2 0x100 EXP SWAP1 DIV PUSH20 0xFFFFFFFFFFFFFFFFFFFFFFFFFFFFFFFFFFFFFFFF AND PUSH20 0xFFFFFFFFFFFFFFFFFFFFFFFFFFFFFFFFFFFFFFFF AND CALLER PUSH20 0xFFFFFFFFFFFFFFFFFFFFFFFFFFFFFFFFFFFFFFFF AND EQ PUSH2 0x23E8 JUMPI PUSH1 0x40 MLOAD PUSH32 0x8C379A000000000000000000000000000000000000000000000000000000000 DUP2 MSTORE PUSH1 0x4 ADD PUSH2 0x23DF SWAP1 PUSH2 0x4170 JUMP JUMPDEST PUSH1 0x40 MLOAD DUP1 SWAP2 SUB SWAP1 REVERT JUMPDEST PUSH1 0xD PUSH1 0x6 SWAP1 SLOAD SWAP1 PUSH2 0x100 EXP SWAP1 DIV PUSH1 0xFF AND PUSH2 0x2437 JUMPI PUSH1 0x40 MLOAD PUSH32 0x8C379A000000000000000000000000000000000000000000000000000000000 DUP2 MSTORE PUSH1 0x4 ADD PUSH2 0x242E SWAP1 PUSH2 0x3EF1 JUMP JUMPDEST PUSH1 0x40 MLOAD DUP1 SWAP2 SUB SWAP1 REVERT JUMPDEST PUSH1 0x0 PUSH1 0x2 SLOAD PUSH1 0x8 SLOAD LT PUSH2 0x244C JUMPI PUSH1 0x2 SLOAD PUSH2 0x2450 JUMP JUMPDEST PUSH1 0x8 SLOAD JUMPDEST SWAP1 POP DUP1 PUSH1 0xF PUSH1 0x0 DUP1 PUSH1 0x0 SWAP1 SLOAD SWAP1 PUSH2 0x100 EXP SWAP1 DIV PUSH20 0xFFFFFFFFFFFFFFFFFFFFFFFFFFFFFFFFFFFFFFFF AND PUSH20 0xFFFFFFFFFFFFFFFFFFFFFFFFFFFFFFFFFFFFFFFF AND PUSH20 0xFFFFFFFFFFFFFFFFFFFFFFFFFFFFFFFFFFFFFFFF AND DUP2 MSTORE PUSH1 0x20 ADD SWAP1 DUP2 MSTORE PUSH1 0x20 ADD PUSH1 0x0 KECCAK256 PUSH1 0x0 DUP3 DUP3 SLOAD PUSH2 0x24C2 SWAP2 SWAP1 PUSH2 0x367F JUMP JUMPDEST SWAP3 POP POP DUP2 SWAP1 SSTORE POP DUP1 PUSH1 0x2 SLOAD PUSH2 0x24D7 SWAP2 SWAP1 PUSH2 0x34A7 JUMP JUMPDEST PUSH1 0xF PUSH1 0x0 PUSH1 0x1 PUSH1 0x0 SWAP1 SLOAD SWAP1 PUSH2 0x100 EXP SWAP1 DIV PUSH20 0xFFFFFFFFFFFFFFFFFFFFFFFFFFFFFFFFFFFFFFFF AND PUSH20 0xFFFFFFFFFFFFFFFFFFFFFFFFFFFFFFFFFFFFFFFF AND PUSH20 0xFFFFFFFFFFFFFFFFFFFFFFFFFFFFFFFFFFFFFFFF AND DUP2 MSTORE PUSH1 0x20 ADD SWAP1 DUP2 MSTORE PUSH1 0x20 ADD PUSH1 0x0 KECCAK256 PUSH1 0x0 DUP3 DUP3 SLOAD PUSH2 0x2547 SWAP2 SWAP1 PUSH2 0x367F JUMP JUMPDEST SWAP3 POP POP DUP2 SWAP1 SSTORE POP PUSH1 0x0 DUP1 SLOAD SWAP1 PUSH2 0x100 EXP SWAP1 DIV PUSH20 0xFFFFFFFFFFFFFFFFFFFFFFFFFFFFFFFFFFFFFFFF AND PUSH20 0xFFFFFFFFFFFFFFFFFFFFFFFFFFFFFFFFFFFFFFFF AND PUSH32 0xE670E4E82118D22A1F9EE18920455EBC958BAE26A90A05D31D3378788B1B0E44 DUP3 PUSH1 0x40 MLOAD PUSH2 0x25B4 SWAP2 SWAP1 PUSH2 0x2DC2 JUMP JUMPDEST PUSH1 0x40 MLOAD DUP1 SWAP2 SUB SWAP1 LOG2 PUSH1 0x1 PUSH1 0x0 SWAP1 SLOAD SWAP1 PUSH2 0x100 EXP SWAP1 DIV PUSH20 0xFFFFFFFFFFFFFFFFFFFFFFFFFFFFFFFFFFFFFFFF AND PUSH20 0xFFFFFFFFFFFFFFFFFFFFFFFFFFFFFFFFFFFFFFFF AND PUSH32 0xE670E4E82118D22A1F9EE18920455EBC958BAE26A90A05D31D3378788B1B0E44 DUP3 PUSH1 0x2 SLOAD PUSH2 0x2624 SWAP2 SWAP1 PUSH2 0x34A7 JUMP JUMPDEST PUSH1 0x40 MLOAD PUSH2 0x2631 SWAP2 SWAP1 PUSH2 0x2DC2 JUMP JUMPDEST PUSH1 0x40 MLOAD DUP1 SWAP2 SUB SWAP1 LOG2 PUSH1 0x0 PUSH1 0xD PUSH1 0x0 PUSH2 0x100 EXP DUP2 SLOAD DUP2 PUSH1 0xFF MUL NOT AND SWAP1 DUP4 ISZERO ISZERO MUL OR SWAP1 SSTORE POP POP JUMP JUMPDEST PUSH1 0xE PUSH1 0x20 MSTORE DUP1 PUSH1 0x0 MSTORE PUSH1 0x40 PUSH1 0x0 KECCAK256 PUSH1 0x0 SWAP2 POP SWAP1 POP DUP1 PUSH1 0x0 ADD SLOAD SWAP1 DUP1 PUSH1 0x1 ADD SLOAD SWAP1 DUP1 PUSH1 0x2 ADD SLOAD SWAP1 DUP1 PUSH1 0x3 ADD PUSH1 0x0 SWAP1 SLOAD SWAP1 PUSH2 0x100 EXP SWAP1 DIV PUSH1 0xFF AND SWAP1 POP DUP5 JUMP JUMPDEST PUSH1 0x0 DUP1 SLOAD SWAP1 PUSH2 0x100 EXP SWAP1 DIV PUSH20 0xFFFFFFFFFFFFFFFFFFFFFFFFFFFFFFFFFFFFFFFF AND PUSH20 0xFFFFFFFFFFFFFFFFFFFFFFFFFFFFFFFFFFFFFFFF AND CALLER PUSH20 0xFFFFFFFFFFFFFFFFFFFFFFFFFFFFFFFFFFFFFFFF AND EQ PUSH2 0x2722 JUMPI PUSH1 0x40 MLOAD PUSH32 0x8C379A000000000000000000000000000000000000000000000000000000000 DUP2 MSTORE PUSH1 0x4 ADD PUSH2 0x2719 SWAP1 PUSH2 0x4202 JUMP JUMPDEST PUSH1 0x40 MLOAD DUP1 SWAP2 SUB SWAP1 REVERT JUMPDEST PUSH1 0xD PUSH1 0x7 SWAP1 SLOAD SWAP1 PUSH2 0x100 EXP SWAP1 DIV PUSH1 0xFF AND PUSH2 0x2771 JUMPI PUSH1 0x40 MLOAD PUSH32 0x8C379A000000000000000000000000000000000000000000000000000000000 DUP2 MSTORE PUSH1 0x4 ADD PUSH2 0x2768 SWAP1 PUSH2 0x332D JUMP JUMPDEST PUSH1 0x40 MLOAD DUP1 SWAP2 SUB SWAP1 REVERT JUMPDEST PUSH1 0x0 PUSH1 0x2 SLOAD PUSH1 0x9 SLOAD LT PUSH2 0x2786 JUMPI PUSH1 0x2 SLOAD PUSH2 0x278A JUMP JUMPDEST PUSH1 0x9 SLOAD JUMPDEST SWAP1 POP DUP1 PUSH1 0xF PUSH1 0x0 DUP1 PUSH1 0x0 SWAP1 SLOAD SWAP1 PUSH2 0x100 EXP SWAP1 DIV PUSH20 0xFFFFFFFFFFFFFFFFFFFFFFFFFFFFFFFFFFFFFFFF AND PUSH20 0xFFFFFFFFFFFFFFFFFFFFFFFFFFFFFFFFFFFFFFFF AND PUSH20 0xFFFFFFFFFFFFFFFFFFFFFFFFFFFFFFFFFFFFFFFF AND DUP2 MSTORE PUSH1 0x20 ADD SWAP1 DUP2 MSTORE PUSH1 0x20 ADD PUSH1 0x0 KECCAK256 PUSH1 0x0 DUP3 DUP3 SLOAD PUSH2 0x27FC SWAP2 SWAP1 PUSH2 0x367F JUMP JUMPDEST SWAP3 POP POP DUP2 SWAP1 SSTORE POP DUP1 PUSH1 0x2 SLOAD PUSH2 0x2811 SWAP2 SWAP1 PUSH2 0x34A7 JUMP JUMPDEST PUSH1 0xF PUSH1 0x0 PUSH1 0x1 PUSH1 0x0 SWAP1 SLOAD SWAP1 PUSH2 0x100 EXP SWAP1 DIV PUSH20 0xFFFFFFFFFFFFFFFFFFFFFFFFFFFFFFFFFFFFFFFF AND PUSH20 0xFFFFFFFFFFFFFFFFFFFFFFFFFFFFFFFFFFFFFFFF AND PUSH20 0xFFFFFFFFFFFFFFFFFFFFFFFFFFFFFFFFFFFFFFFF AND DUP2 MSTORE PUSH1 0x20 ADD SWAP1 DUP2 MSTORE PUSH1 0x20 ADD PUSH1 0x0 KECCAK256 PUSH1 0x0 DUP3 DUP3 SLOAD PUSH2 0x2881 SWAP2 SWAP1 PUSH2 0x367F JUMP JUMPDEST SWAP3 POP POP DUP2 SWAP1 SSTORE POP PUSH1 0x0 DUP1 SLOAD SWAP1 PUSH2 0x100 EXP SWAP1 DIV PUSH20 0xFFFFFFFFFFFFFFFFFFFFFFFFFFFFFFFFFFFFFFFF AND PUSH20 0xFFFFFFFFFFFFFFFFFFFFFFFFFFFFFFFFFFFFFFFF AND PUSH32 0xE670E4E82118D22A1F9EE18920455EBC958BAE26A90A05D31D3378788B1B0E44 DUP3 PUSH1 0x40 MLOAD PUSH2 0x28EE SWAP2 SWAP1 PUSH2 0x2DC2 JUMP JUMPDEST PUSH1 0x40 MLOAD DUP1 SWAP2 SUB SWAP1 LOG2 PUSH1 0x1 PUSH1 0x0 SWAP1 SLOAD SWAP1 PUSH2 0x100 EXP SWAP1 DIV PUSH20 0xFFFFFFFFFFFFFFFFFFFFFFFFFFFFFFFFFFFFFFFF AND PUSH20 0xFFFFFFFFFFFFFFFFFFFFFFFFFFFFFFFFFFFFFFFF AND PUSH32 0xE670E4E82118D22A1F9EE18920455EBC958BAE26A90A05D31D3378788B1B0E44 DUP3 PUSH1 0x2 SLOAD PUSH2 0x295E SWAP2 SWAP1 PUSH2 0x34A7 JUMP JUMPDEST PUSH1 0x40 MLOAD PUSH2 0x296B SWAP2 SWAP1 PUSH2 0x2DC2 JUMP JUMPDEST PUSH1 0x40 MLOAD DUP1 SWAP2 SUB SWAP1 LOG2 PUSH1 0x0 PUSH1 0xD PUSH1 0x0 PUSH2 0x100 EXP DUP2 SLOAD DUP2 PUSH1 0xFF MUL NOT AND SWAP1 DUP4 ISZERO ISZERO MUL OR SWAP1 SSTORE POP PUSH32 0xB48EA00BBDFBF40407EEAD0EA969CE425A746B5692554310F811EE7D0E36F385 PUSH1 0x40 MLOAD PUSH1 0x40 MLOAD DUP1 SWAP2 SUB SWAP1 LOG1 POP JUMP JUMPDEST PUSH1 0xD PUSH1 0x1 SWAP1 SLOAD SWAP1 PUSH2 0x100 EXP SWAP1 DIV PUSH1 0xFF AND DUP2 JUMP JUMPDEST PUSH1 0xF PUSH1 0x20 MSTORE DUP1 PUSH1 0x0 MSTORE PUSH1 0x40 PUSH1 0x0 KECCAK256 PUSH1 0x0 SWAP2 POP SWAP1 POP SLOAD DUP2 JUMP JUMPDEST PUSH1 0x0 PUSH1 0xF PUSH1 0x0 DUP1 PUSH1 0x0 SWAP1 SLOAD SWAP1 PUSH2 0x100 EXP SWAP1 DIV PUSH20 0xFFFFFFFFFFFFFFFFFFFFFFFFFFFFFFFFFFFFFFFF AND PUSH20 0xFFFFFFFFFFFFFFFFFFFFFFFFFFFFFFFFFFFFFFFF AND PUSH20 0xFFFFFFFFFFFFFFFFFFFFFFFFFFFFFFFFFFFFFFFF AND DUP2 MSTORE PUSH1 0x20 ADD SWAP1 DUP2 MSTORE PUSH1 0x20 ADD PUSH1 0x0 KECCAK256 SLOAD SWAP1 POP SWAP1 JUMP JUMPDEST PUSH1 0xD PUSH1 0x2 SWAP1 SLOAD SWAP1 PUSH2 0x100 EXP SWAP1 DIV PUSH1 0xFF AND ISZERO PUSH2 0x2AA0 JUMPI PUSH1 0x40 MLOAD PUSH32 0x8C379A000000000000000000000000000000000000000000000000000000000 DUP2 MSTORE PUSH1 0x4 ADD PUSH2 0x2A97 SWAP1 PUSH2 0x426E JUMP JUMPDEST PUSH1 0x40 MLOAD DUP1 SWAP2 SUB SWAP1 REVERT JUMPDEST PUSH1 0xD PUSH1 0x6 SWAP1 SLOAD SWAP1 PUSH2 0x100 EXP SWAP1 DIV PUSH1 0xFF AND DUP1 ISZERO PUSH2 0x2AC8 JUMPI POP PUSH1 0xD PUSH1 0x7 SWAP1 SLOAD SWAP1 PUSH2 0x100 EXP SWAP1 DIV PUSH1 0xFF AND JUMPDEST PUSH2 0x2B07 JUMPI PUSH1 0x40 MLOAD PUSH32 0x8C379A000000000000000000000000000000000000000000000000000000000 DUP2 MSTORE PUSH1 0x4 ADD PUSH2 0x2AFE SWAP1 PUSH2 0x4300 JUMP JUMPDEST PUSH1 0x40 MLOAD DUP1 SWAP2 SUB SWAP1 REVERT JUMPDEST PUSH1 0xD PUSH1 0x8 SWAP1 SLOAD SWAP1 PUSH2 0x100 EXP SWAP1 DIV PUSH20 0xFFFFFFFFFFFFFFFFFFFFFFFFFFFFFFFFFFFFFFFF AND PUSH20 0xFFFFFFFFFFFFFFFFFFFFFFFFFFFFFFFFFFFFFFFF AND PUSH4 0xC13517E1 PUSH1 0xC SLOAD PUSH1 0x2 PUSH1 0x40 MLOAD DUP4 PUSH4 0xFFFFFFFF AND PUSH1 0xE0 SHL DUP2 MSTORE PUSH1 0x4 ADD PUSH2 0x2B66 SWAP2 SWAP1 PUSH2 0x435B JUMP JUMPDEST PUSH1 0x20 PUSH1 0x40 MLOAD DUP1 DUP4 SUB DUP2 DUP6 DUP9 GAS CALL ISZERO DUP1 ISZERO PUSH2 0x2B84 JUMPI RETURNDATASIZE PUSH1 0x0 DUP1 RETURNDATACOPY RETURNDATASIZE PUSH1 0x0 REVERT JUMPDEST POP POP POP POP POP PUSH1 0x40 MLOAD RETURNDATASIZE PUSH1 0x1F NOT PUSH1 0x1F DUP3 ADD AND DUP3 ADD DUP1 PUSH1 0x40 MSTORE POP DUP2 ADD SWAP1 PUSH2 0x2BA9 SWAP2 SWAP1 PUSH2 0x33B9 JUMP JUMPDEST PUSH1 0xA DUP2 SWAP1 SSTORE POP PUSH1 0x1 PUSH1 0xD PUSH1 0x2 PUSH2 0x100 EXP DUP2 SLOAD DUP2 PUSH1 0xFF MUL NOT AND SWAP1 DUP4 ISZERO ISZERO MUL OR SWAP1 SSTORE POP PUSH32 0x4901F83201C8724EADF084436DB8AA391820BAE6D11F9F78A17EDB6F2EEF3CF PUSH1 0xA SLOAD PUSH1 0x40 MLOAD PUSH2 0x2BFB SWAP2 SWAP1 PUSH2 0x2DC2 JUMP JUMPDEST PUSH1 0x40 MLOAD DUP1 SWAP2 SUB SWAP1 LOG1 JUMP JUMPDEST PUSH1 0x0 PUSH1 0xD PUSH1 0x0 PUSH2 0x100 EXP DUP2 SLOAD DUP2 PUSH1 0xFF MUL NOT AND SWAP1 DUP4 ISZERO ISZERO MUL OR SWAP1 SSTORE POP PUSH1 0x0 PUSH1 0x7 SLOAD SWAP1 POP PUSH1 0x0 DUP1 DUP3 GT ISZERO PUSH2 0x2CBD JUMPI PUSH1 0x2 SLOAD DUP3 GT ISZERO PUSH2 0x2C41 JUMPI PUSH1 0x2 SLOAD SWAP2 POP JUMPDEST PUSH1 0x0 DUP1 SLOAD SWAP1 PUSH2 0x100 EXP SWAP1 DIV PUSH20 0xFFFFFFFFFFFFFFFFFFFFFFFFFFFFFFFFFFFFFFFF AND PUSH20 0xFFFFFFFFFFFFFFFFFFFFFFFFFFFFFFFFFFFFFFFF AND PUSH2 0x8FC DUP4 SWAP1 DUP2 ISZERO MUL SWAP1 PUSH1 0x40 MLOAD PUSH1 0x0 PUSH1 0x40 MLOAD DUP1 DUP4 SUB DUP2 DUP6 DUP9 DUP9 CALL SWAP4 POP POP POP POP ISZERO DUP1 ISZERO PUSH2 0x2CA7 JUMPI RETURNDATASIZE PUSH1 0x0 DUP1 RETURNDATACOPY RETURNDATASIZE PUSH1 0x0 REVERT JUMPDEST POP DUP2 PUSH1 0x2 SLOAD PUSH2 0x2CB6 SWAP2 SWAP1 PUSH2 0x34A7 JUMP JUMPDEST SWAP1 POP PUSH2 0x2CC3 JUMP JUMPDEST PUSH1 0x2 SLOAD SWAP1 POP JUMPDEST PUSH1 0x0 DUP2 GT ISZERO PUSH2 0x2D36 JUMPI PUSH1 0x1 PUSH1 0x0 SWAP1 SLOAD SWAP1 PUSH2 0x100 EXP SWAP1 DIV PUSH20 0xFFFFFFFFFFFFFFFFFFFFFFFFFFFFFFFFFFFFFFFF AND PUSH20 0xFFFFFFFFFFFFFFFFFFFFFFFFFFFFFFFFFFFFFFFF AND PUSH2 0x8FC DUP3 SWAP1 DUP2 ISZERO MUL SWAP1 PUSH1 0x40 MLOAD PUSH1 0x0 PUSH1 0x40 MLOAD DUP1 DUP4 SUB DUP2 DUP6 DUP9 DUP9 CALL SWAP4 POP POP POP POP ISZERO DUP1 ISZERO PUSH2 0x2D34 JUMPI RETURNDATASIZE PUSH1 0x0 DUP1 RETURNDATACOPY RETURNDATASIZE PUSH1 0x0 REVERT JUMPDEST POP JUMPDEST PUSH32 0xC0590C5A8CE79DFFBDDE17480A06203778F954965615E1D9577DBC90DA2FF109 DUP2 DUP4 PUSH1 0x40 MLOAD PUSH2 0x2D67 SWAP3 SWAP2 SWAP1 PUSH2 0x36B3 JUMP JUMPDEST PUSH1 0x40 MLOAD DUP1 SWAP2 SUB SWAP1 LOG1 POP POP JUMP JUMPDEST PUSH1 0x0 DUP2 ISZERO ISZERO SWAP1 POP SWAP2 SWAP1 POP JUMP JUMPDEST PUSH2 0x2D88 DUP2 PUSH2 0x2D73 JUMP JUMPDEST DUP3 MSTORE POP POP JUMP JUMPDEST PUSH1 0x0 PUSH1 0x20 DUP3 ADD SWAP1 POP PUSH2 0x2DA3 PUSH1 0x0 DUP4 ADD DUP5 PUSH2 0x2D7F JUMP JUMPDEST SWAP3 SWAP2 POP POP JUMP JUMPDEST PUSH1 0x0 DUP2 SWAP1 POP SWAP2 SWAP1 POP JUMP JUMPDEST PUSH2 0x2DBC DUP2 PUSH2 0x2DA9 JUMP JUMPDEST DUP3 MSTORE POP POP JUMP JUMPDEST PUSH1 0x0 PUSH1 0x20 DUP3 ADD SWAP1 POP PUSH2 0x2DD7 PUSH1 0x0 DUP4 ADD DUP5 PUSH2 0x2DB3 JUMP JUMPDEST SWAP3 SWAP2 POP POP JUMP JUMPDEST PUSH1 0x0 DUP1 REVERT JUMPDEST PUSH2 0x2DEB DUP2 PUSH2 0x2DA9 JUMP JUMPDEST DUP2 EQ PUSH2 0x2DF6 JUMPI PUSH1 0x0 DUP1 REVERT JUMPDEST POP JUMP JUMPDEST PUSH1 0x0 DUP2 CALLDATALOAD SWAP1 POP PUSH2 0x2E08 DUP2 PUSH2 0x2DE2 JUMP JUMPDEST SWAP3 SWAP2 POP POP JUMP JUMPDEST PUSH1 0x0 PUSH1 0x20 DUP3 DUP5 SUB SLT ISZERO PUSH2 0x2E24 JUMPI PUSH2 0x2E23 PUSH2 0x2DDD JUMP JUMPDEST JUMPDEST PUSH1 0x0 PUSH2 0x2E32 DUP5 DUP3 DUP6 ADD PUSH2 0x2DF9 JUMP JUMPDEST SWAP2 POP POP SWAP3 SWAP2 POP POP JUMP JUMPDEST PUSH1 0x0 PUSH20 0xFFFFFFFFFFFFFFFFFFFFFFFFFFFFFFFFFFFFFFFF DUP3 AND SWAP1 POP SWAP2 SWAP1 POP JUMP JUMPDEST PUSH1 0x0 PUSH2 0x2E66 DUP3 PUSH2 0x2E3B JUMP JUMPDEST SWAP1 POP SWAP2 SWAP1 POP JUMP JUMPDEST PUSH2 0x2E76 DUP2 PUSH2 0x2E5B JUMP JUMPDEST DUP3 MSTORE POP POP JUMP JUMPDEST PUSH1 0x0 PUSH1 0x20 DUP3 ADD SWAP1 POP PUSH2 0x2E91 PUSH1 0x0 DUP4 ADD DUP5 PUSH2 0x2E6D JUMP JUMPDEST SWAP3 SWAP2 POP POP JUMP JUMPDEST PUSH1 0x0 DUP1 PUSH1 0x40 DUP4 DUP6 SUB SLT ISZERO PUSH2 0x2EAE JUMPI PUSH2 0x2EAD PUSH2 0x2DDD JUMP JUMPDEST JUMPDEST PUSH1 0x0 PUSH2 0x2EBC DUP6 DUP3 DUP7 ADD PUSH2 0x2DF9 JUMP JUMPDEST SWAP3 POP POP PUSH1 0x20 PUSH2 0x2ECD DUP6 DUP3 DUP7 ADD PUSH2 0x2DF9 JUMP JUMPDEST SWAP2 POP POP SWAP3 POP SWAP3 SWAP1 POP JUMP JUMPDEST PUSH1 0x0 DUP2 SWAP1 POP SWAP2 SWAP1 POP JUMP JUMPDEST PUSH1 0x0 PUSH2 0x2EFC PUSH2 0x2EF7 PUSH2 0x2EF2 DUP5 PUSH2 0x2E3B JUMP JUMPDEST PUSH2 0x2ED7 JUMP JUMPDEST PUSH2 0x2E3B JUMP JUMPDEST SWAP1 POP SWAP2 SWAP1 POP JUMP JUMPDEST PUSH1 0x0 PUSH2 0x2F0E DUP3 PUSH2 0x2EE1 JUMP JUMPDEST SWAP1 POP SWAP2 SWAP1 POP JUMP JUMPDEST PUSH1 0x0 PUSH2 0x2F20 DUP3 PUSH2 0x2F03 JUMP JUMPDEST SWAP1 POP SWAP2 SWAP1 POP JUMP JUMPDEST PUSH2 0x2F30 DUP2 PUSH2 0x2F15 JUMP JUMPDEST DUP3 MSTORE POP POP JUMP JUMPDEST PUSH1 0x0 PUSH1 0x20 DUP3 ADD SWAP1 POP PUSH2 0x2F4B PUSH1 0x0 DUP4 ADD DUP5 PUSH2 0x2F27 JUMP JUMPDEST SWAP3 SWAP2 POP POP JUMP JUMPDEST PUSH1 0x0 DUP1 PUSH1 0x0 PUSH1 0x60 DUP5 DUP7 SUB SLT ISZERO PUSH2 0x2F6A JUMPI PUSH2 0x2F69 PUSH2 0x2DDD JUMP JUMPDEST JUMPDEST PUSH1 0x0 PUSH2 0x2F78 DUP7 DUP3 DUP8 ADD PUSH2 0x2DF9 JUMP JUMPDEST SWAP4 POP POP PUSH1 0x20 PUSH2 0x2F89 DUP7 DUP3 DUP8 ADD PUSH2 0x2DF9 JUMP JUMPDEST SWAP3 POP POP PUSH1 0x40 PUSH2 0x2F9A DUP7 DUP3 DUP8 ADD PUSH2 0x2DF9 JUMP JUMPDEST SWAP2 POP POP SWAP3 POP SWAP3 POP SWAP3 JUMP JUMPDEST PUSH1 0x0 PUSH1 0x80 DUP3 ADD SWAP1 POP PUSH2 0x2FB9 PUSH1 0x0 DUP4 ADD DUP8 PUSH2 0x2DB3 JUMP JUMPDEST PUSH2 0x2FC6 PUSH1 0x20 DUP4 ADD DUP7 PUSH2 0x2DB3 JUMP JUMPDEST PUSH2 0x2FD3 PUSH1 0x40 DUP4 ADD DUP6 PUSH2 0x2DB3 JUMP JUMPDEST PUSH2 0x2FE0 PUSH1 0x60 DUP4 ADD DUP5 PUSH2 0x2D7F JUMP JUMPDEST SWAP6 SWAP5 POP POP POP POP POP JUMP JUMPDEST PUSH2 0x2FF2 DUP2 PUSH2 0x2E5B JUMP JUMPDEST DUP2 EQ PUSH2 0x2FFD JUMPI PUSH1 0x0 DUP1 REVERT JUMPDEST POP JUMP JUMPDEST PUSH1 0x0 DUP2 CALLDATALOAD SWAP1 POP PUSH2 0x300F DUP2 PUSH2 0x2FE9 JUMP JUMPDEST SWAP3 SWAP2 POP POP JUMP JUMPDEST PUSH1 0x0 PUSH1 0x20 DUP3 DUP5 SUB SLT ISZERO PUSH2 0x302B JUMPI PUSH2 0x302A PUSH2 0x2DDD JUMP JUMPDEST JUMPDEST PUSH1 0x0 PUSH2 0x3039 DUP5 DUP3 DUP6 ADD PUSH2 0x3000 JUMP JUMPDEST SWAP2 POP POP SWAP3 SWAP2 POP POP JUMP JUMPDEST PUSH1 0x0 DUP3 DUP3 MSTORE PUSH1 0x20 DUP3 ADD SWAP1 POP SWAP3 SWAP2 POP POP JUMP JUMPDEST PUSH32 0x4F6E6C79206C616E646C6F72642063616E20736574207468652064616D616765 PUSH1 0x0 DUP3 ADD MSTORE PUSH32 0x20657374696D6174650000000000000000000000000000000000000000000000 PUSH1 0x20 DUP3 ADD MSTORE POP JUMP JUMPDEST PUSH1 0x0 PUSH2 0x30AF PUSH1 0x29 DUP4 PUSH2 0x3042 JUMP JUMPDEST SWAP2 POP PUSH2 0x30BA DUP3 PUSH2 0x3053 JUMP JUMPDEST PUSH1 0x40 DUP3 ADD SWAP1 POP SWAP2 SWAP1 POP JUMP JUMPDEST PUSH1 0x0 PUSH1 0x20 DUP3 ADD SWAP1 POP DUP2 DUP2 SUB PUSH1 0x0 DUP4 ADD MSTORE PUSH2 0x30DE DUP2 PUSH2 0x30A2 JUMP JUMPDEST SWAP1 POP SWAP2 SWAP1 POP JUMP JUMPDEST PUSH32 0x52656E7420706572696F6420686173206E6F7420656E64656420796574000000 PUSH1 0x0 DUP3 ADD MSTORE POP JUMP JUMPDEST PUSH1 0x0 PUSH2 0x311B PUSH1 0x1D DUP4 PUSH2 0x3042 JUMP JUMPDEST SWAP2 POP PUSH2 0x3126 DUP3 PUSH2 0x30E5 JUMP JUMPDEST PUSH1 0x20 DUP3 ADD SWAP1 POP SWAP2 SWAP1 POP JUMP JUMPDEST PUSH1 0x0 PUSH1 0x20 DUP3 ADD SWAP1 POP DUP2 DUP2 SUB PUSH1 0x0 DUP4 ADD MSTORE PUSH2 0x314A DUP2 PUSH2 0x310E JUMP JUMPDEST SWAP1 POP SWAP2 SWAP1 POP JUMP JUMPDEST PUSH32 0x44616D61676520657374696D61746520616C7265616479207365740000000000 PUSH1 0x0 DUP3 ADD MSTORE POP JUMP JUMPDEST PUSH1 0x0 PUSH2 0x3187 PUSH1 0x1B DUP4 PUSH2 0x3042 JUMP JUMPDEST SWAP2 POP PUSH2 0x3192 DUP3 PUSH2 0x3151 JUMP JUMPDEST PUSH1 0x20 DUP3 ADD SWAP1 POP SWAP2 SWAP1 POP JUMP JUMPDEST PUSH1 0x0 PUSH1 0x20 DUP3 ADD SWAP1 POP DUP2 DUP2 SUB PUSH1 0x0 DUP4 ADD MSTORE PUSH2 0x31B6 DUP2 PUSH2 0x317A JUMP JUMPDEST SWAP1 POP SWAP2 SWAP1 POP JUMP JUMPDEST PUSH32 0x436F6E7472616374206973206E6F742061637469766500000000000000000000 PUSH1 0x0 DUP3 ADD MSTORE POP JUMP JUMPDEST PUSH1 0x0 PUSH2 0x31F3 PUSH1 0x16 DUP4 PUSH2 0x3042 JUMP JUMPDEST SWAP2 POP PUSH2 0x31FE DUP3 PUSH2 0x31BD JUMP JUMPDEST PUSH1 0x20 DUP3 ADD SWAP1 POP SWAP2 SWAP1 POP JUMP JUMPDEST PUSH1 0x0 PUSH1 0x20 DUP3 ADD SWAP1 POP DUP2 DUP2 SUB PUSH1 0x0 DUP4 ADD MSTORE PUSH2 0x3222 DUP2 PUSH2 0x31E6 JUMP JUMPDEST SWAP1 POP SWAP2 SWAP1 POP JUMP JUMPDEST PUSH32 0x4F6E6C79206C616E646C6F72642063616E2072656A6563742074686520636F75 PUSH1 0x0 DUP3 ADD MSTORE PUSH32 0x6E74657220657374696D61746500000000000000000000000000000000000000 PUSH1 0x20 DUP3 ADD MSTORE POP JUMP JUMPDEST PUSH1 0x0 PUSH2 0x3285 PUSH1 0x2D DUP4 PUSH2 0x3042 JUMP JUMPDEST SWAP2 POP PUSH2 0x3290 DUP3 PUSH2 0x3229 JUMP JUMPDEST PUSH1 0x40 DUP3 ADD SWAP1 POP SWAP2 SWAP1 POP JUMP JUMPDEST PUSH1 0x0 PUSH1 0x20 DUP3 ADD SWAP1 POP DUP2 DUP2 SUB PUSH1 0x0 DUP4 ADD MSTORE PUSH2 0x32B4 DUP2 PUSH2 0x3278 JUMP JUMPDEST SWAP1 POP SWAP2 SWAP1 POP JUMP JUMPDEST PUSH32 0x52656E746572206D7573742073657420636F756E74657220657374696D617465 PUSH1 0x0 DUP3 ADD MSTORE PUSH32 0x2066697273740000000000000000000000000000000000000000000000000000 PUSH1 0x20 DUP3 ADD MSTORE POP JUMP JUMPDEST PUSH1 0x0 PUSH2 0x3317 PUSH1 0x26 DUP4 PUSH2 0x3042 JUMP JUMPDEST SWAP2 POP PUSH2 0x3322 DUP3 PUSH2 0x32BB JUMP JUMPDEST PUSH1 0x40 DUP3 ADD SWAP1 POP SWAP2 SWAP1 POP JUMP JUMPDEST PUSH1 0x0 PUSH1 0x20 DUP3 ADD SWAP1 POP DUP2 DUP2 SUB PUSH1 0x0 DUP4 ADD MSTORE PUSH2 0x3346 DUP2 PUSH2 0x330A JUMP JUMPDEST SWAP1 POP SWAP2 SWAP1 POP JUMP JUMPDEST PUSH1 0x0 DUP3 DUP3 MSTORE PUSH1 0x20 DUP3 ADD SWAP1 POP SWAP3 SWAP2 POP POP JUMP JUMPDEST POP JUMP JUMPDEST PUSH1 0x0 PUSH2 0x336E PUSH1 0x0 DUP4 PUSH2 0x334D JUMP JUMPDEST SWAP2 POP PUSH2 0x3379 DUP3 PUSH2 0x335E JUMP JUMPDEST PUSH1 0x0 DUP3 ADD SWAP1 POP SWAP2 SWAP1 POP JUMP JUMPDEST PUSH1 0x0 PUSH1 0x20 DUP3 ADD SWAP1 POP DUP2 DUP2 SUB PUSH1 0x0 DUP4 ADD MSTORE PUSH2 0x339D DUP2 PUSH2 0x3361 JUMP JUMPDEST SWAP1 POP SWAP2 SWAP1 POP JUMP JUMPDEST PUSH1 0x0 DUP2 MLOAD SWAP1 POP PUSH2 0x33B3 DUP2 PUSH2 0x2DE2 JUMP JUMPDEST SWAP3 SWAP2 POP POP JUMP JUMPDEST PUSH1 0x0 PUSH1 0x20 DUP3 DUP5 SUB SLT ISZERO PUSH2 0x33CF JUMPI PUSH2 0x33CE PUSH2 0x2DDD JUMP JUMPDEST JUMPDEST PUSH1 0x0 PUSH2 0x33DD DUP5 DUP3 DUP6 ADD PUSH2 0x33A4 JUMP JUMPDEST SWAP2 POP POP SWAP3 SWAP2 POP POP JUMP JUMPDEST PUSH32 0x5365637572697479206465706F73697420696E73756666696369656E7420746F PUSH1 0x0 DUP3 ADD MSTORE PUSH32 0x20636F766572206172626974726174696F6E20636F7374730000000000000000 PUSH1 0x20 DUP3 ADD MSTORE POP JUMP JUMPDEST PUSH1 0x0 PUSH2 0x3442 PUSH1 0x38 DUP4 PUSH2 0x3042 JUMP JUMPDEST SWAP2 POP PUSH2 0x344D DUP3 PUSH2 0x33E6 JUMP JUMPDEST PUSH1 0x40 DUP3 ADD SWAP1 POP SWAP2 SWAP1 POP JUMP JUMPDEST PUSH1 0x0 PUSH1 0x20 DUP3 ADD SWAP1 POP DUP2 DUP2 SUB PUSH1 0x0 DUP4 ADD MSTORE PUSH2 0x3471 DUP2 PUSH2 0x3435 JUMP JUMPDEST SWAP1 POP SWAP2 SWAP1 POP JUMP JUMPDEST PUSH32 0x4E487B7100000000000000000000000000000000000000000000000000000000 PUSH1 0x0 MSTORE PUSH1 0x11 PUSH1 0x4 MSTORE PUSH1 0x24 PUSH1 0x0 REVERT JUMPDEST PUSH1 0x0 PUSH2 0x34B2 DUP3 PUSH2 0x2DA9 JUMP JUMPDEST SWAP2 POP PUSH2 0x34BD DUP4 PUSH2 0x2DA9 JUMP JUMPDEST SWAP3 POP DUP3 DUP3 SUB SWAP1 POP DUP2 DUP2 GT ISZERO PUSH2 0x34D5 JUMPI PUSH2 0x34D4 PUSH2 0x3478 JUMP JUMPDEST JUMPDEST SWAP3 SWAP2 POP POP JUMP JUMPDEST PUSH32 0x4F6E6C79207468652061726269747261746F722063616E2072756C6500000000 PUSH1 0x0 DUP3 ADD MSTORE POP JUMP JUMPDEST PUSH1 0x0 PUSH2 0x3511 PUSH1 0x1C DUP4 PUSH2 0x3042 JUMP JUMPDEST SWAP2 POP PUSH2 0x351C DUP3 PUSH2 0x34DB JUMP JUMPDEST PUSH1 0x20 DUP3 ADD SWAP1 POP SWAP2 SWAP1 POP JUMP JUMPDEST PUSH1 0x0 PUSH1 0x20 DUP3 ADD SWAP1 POP DUP2 DUP2 SUB PUSH1 0x0 DUP4 ADD MSTORE PUSH2 0x3540 DUP2 PUSH2 0x3504 JUMP JUMPDEST SWAP1 POP SWAP2 SWAP1 POP JUMP JUMPDEST PUSH32 0x4E6F206469737075746520746F2072756C65206F6E0000000000000000000000 PUSH1 0x0 DUP3 ADD MSTORE POP JUMP JUMPDEST PUSH1 0x0 PUSH2 0x357D PUSH1 0x15 DUP4 PUSH2 0x3042 JUMP JUMPDEST SWAP2 POP PUSH2 0x3588 DUP3 PUSH2 0x3547 JUMP JUMPDEST PUSH1 0x20 DUP3 ADD SWAP1 POP SWAP2 SWAP1 POP JUMP JUMPDEST PUSH1 0x0 PUSH1 0x20 DUP3 ADD SWAP1 POP DUP2 DUP2 SUB PUSH1 0x0 DUP4 ADD MSTORE PUSH2 0x35AC DUP2 PUSH2 0x3570 JUMP JUMPDEST SWAP1 POP SWAP2 SWAP1 POP JUMP JUMPDEST PUSH32 0x57726F6E67206469737075746520494400000000000000000000000000000000 PUSH1 0x0 DUP3 ADD MSTORE POP JUMP JUMPDEST PUSH1 0x0 PUSH2 0x35E9 PUSH1 0x10 DUP4 PUSH2 0x3042 JUMP JUMPDEST SWAP2 POP PUSH2 0x35F4 DUP3 PUSH2 0x35B3 JUMP JUMPDEST PUSH1 0x20 DUP3 ADD SWAP1 POP SWAP2 SWAP1 POP JUMP JUMPDEST PUSH1 0x0 PUSH1 0x20 DUP3 ADD SWAP1 POP DUP2 DUP2 SUB PUSH1 0x0 DUP4 ADD MSTORE PUSH2 0x3618 DUP2 PUSH2 0x35DC JUMP JUMPDEST SWAP1 POP SWAP2 SWAP1 POP JUMP JUMPDEST PUSH32 0x4E487B7100000000000000000000000000000000000000000000000000000000 PUSH1 0x0 MSTORE PUSH1 0x12 PUSH1 0x4 MSTORE PUSH1 0x24 PUSH1 0x0 REVERT JUMPDEST PUSH1 0x0 PUSH2 0x3659 DUP3 PUSH2 0x2DA9 JUMP JUMPDEST SWAP2 POP PUSH2 0x3664 DUP4 PUSH2 0x2DA9 JUMP JUMPDEST SWAP3 POP DUP3 PUSH2 0x3674 JUMPI PUSH2 0x3673 PUSH2 0x361F JUMP JUMPDEST JUMPDEST DUP3 DUP3 DIV SWAP1 POP SWAP3 SWAP2 POP POP JUMP JUMPDEST PUSH1 0x0 PUSH2 0x368A DUP3 PUSH2 0x2DA9 JUMP JUMPDEST SWAP2 POP PUSH2 0x3695 DUP4 PUSH2 0x2DA9 JUMP JUMPDEST SWAP3 POP DUP3 DUP3 ADD SWAP1 POP DUP1 DUP3 GT ISZERO PUSH2 0x36AD JUMPI PUSH2 0x36AC PUSH2 0x3478 JUMP JUMPDEST JUMPDEST SWAP3 SWAP2 POP POP JUMP JUMPDEST PUSH1 0x0 PUSH1 0x40 DUP3 ADD SWAP1 POP PUSH2 0x36C8 PUSH1 0x0 DUP4 ADD DUP6 PUSH2 0x2DB3 JUMP JUMPDEST PUSH2 0x36D5 PUSH1 0x20 DUP4 ADD DUP5 PUSH2 0x2DB3 JUMP JUMPDEST SWAP4 SWAP3 POP POP POP JUMP JUMPDEST PUSH32 0x4E6F2066756E647320746F207769746864726177000000000000000000000000 PUSH1 0x0 DUP3 ADD MSTORE POP JUMP JUMPDEST PUSH1 0x0 PUSH2 0x3712 PUSH1 0x14 DUP4 PUSH2 0x3042 JUMP JUMPDEST SWAP2 POP PUSH2 0x371D DUP3 PUSH2 0x36DC JUMP JUMPDEST PUSH1 0x20 DUP3 ADD SWAP1 POP SWAP2 SWAP1 POP JUMP JUMPDEST PUSH1 0x0 PUSH1 0x20 DUP3 ADD SWAP1 POP DUP2 DUP2 SUB PUSH1 0x0 DUP4 ADD MSTORE PUSH2 0x3741 DUP2 PUSH2 0x3705 JUMP JUMPDEST SWAP1 POP SWAP2 SWAP1 POP JUMP JUMPDEST PUSH1 0x0 DUP2 SWAP1 POP SWAP3 SWAP2 POP POP JUMP JUMPDEST PUSH1 0x0 PUSH2 0x3760 PUSH1 0x0 DUP4 PUSH2 0x3748 JUMP JUMPDEST SWAP2 POP PUSH2 0x376B DUP3 PUSH2 0x335E JUMP JUMPDEST PUSH1 0x0 DUP3 ADD SWAP1 POP SWAP2 SWAP1 POP JUMP JUMPDEST PUSH1 0x0 PUSH2 0x3781 DUP3 PUSH2 0x3753 JUMP JUMPDEST SWAP2 POP DUP2 SWAP1 POP SWAP2 SWAP1 POP JUMP JUMPDEST PUSH32 0x5472616E73666572206661696C65640000000000000000000000000000000000 PUSH1 0x0 DUP3 ADD MSTORE POP JUMP JUMPDEST PUSH1 0x0 PUSH2 0x37C1 PUSH1 0xF DUP4 PUSH2 0x3042 JUMP JUMPDEST SWAP2 POP PUSH2 0x37CC DUP3 PUSH2 0x378B JUMP JUMPDEST PUSH1 0x20 DUP3 ADD SWAP1 POP SWAP2 SWAP1 POP JUMP JUMPDEST PUSH1 0x0 PUSH1 0x20 DUP3 ADD SWAP1 POP DUP2 DUP2 SUB PUSH1 0x0 DUP4 ADD MSTORE PUSH2 0x37F0 DUP2 PUSH2 0x37B4 JUMP JUMPDEST SWAP1 POP SWAP2 SWAP1 POP JUMP JUMPDEST PUSH32 0x4F6E6C792072656E7465722063616E2070617920736563757269747920646570 PUSH1 0x0 DUP3 ADD MSTORE PUSH32 0x6F73697400000000000000000000000000000000000000000000000000000000 PUSH1 0x20 DUP3 ADD MSTORE POP JUMP JUMPDEST PUSH1 0x0 PUSH2 0x3853 PUSH1 0x24 DUP4 PUSH2 0x3042 JUMP JUMPDEST SWAP2 POP PUSH2 0x385E DUP3 PUSH2 0x37F7 JUMP JUMPDEST PUSH1 0x40 DUP3 ADD SWAP1 POP SWAP2 SWAP1 POP JUMP JUMPDEST PUSH1 0x0 PUSH1 0x20 DUP3 ADD SWAP1 POP DUP2 DUP2 SUB PUSH1 0x0 DUP4 ADD MSTORE PUSH2 0x3882 DUP2 PUSH2 0x3846 JUMP JUMPDEST SWAP1 POP SWAP2 SWAP1 POP JUMP JUMPDEST PUSH32 0x436F6E747261637420697320616C726561647920616374697665000000000000 PUSH1 0x0 DUP3 ADD MSTORE POP JUMP JUMPDEST PUSH1 0x0 PUSH2 0x38BF PUSH1 0x1A DUP4 PUSH2 0x3042 JUMP JUMPDEST SWAP2 POP PUSH2 0x38CA DUP3 PUSH2 0x3889 JUMP JUMPDEST PUSH1 0x20 DUP3 ADD SWAP1 POP SWAP2 SWAP1 POP JUMP JUMPDEST PUSH1 0x0 PUSH1 0x20 DUP3 ADD SWAP1 POP DUP2 DUP2 SUB PUSH1 0x0 DUP4 ADD MSTORE PUSH2 0x38EE DUP2 PUSH2 0x38B2 JUMP JUMPDEST SWAP1 POP SWAP2 SWAP1 POP JUMP JUMPDEST PUSH32 0x496E636F7272656374207365637572697479206465706F73697420616D6F756E PUSH1 0x0 DUP3 ADD MSTORE PUSH32 0x7400000000000000000000000000000000000000000000000000000000000000 PUSH1 0x20 DUP3 ADD MSTORE POP JUMP JUMPDEST PUSH1 0x0 PUSH2 0x3951 PUSH1 0x21 DUP4 PUSH2 0x3042 JUMP JUMPDEST SWAP2 POP PUSH2 0x395C DUP3 PUSH2 0x38F5 JUMP JUMPDEST PUSH1 0x40 DUP3 ADD SWAP1 POP SWAP2 SWAP1 POP JUMP JUMPDEST PUSH1 0x0 PUSH1 0x20 DUP3 ADD SWAP1 POP DUP2 DUP2 SUB PUSH1 0x0 DUP4 ADD MSTORE PUSH2 0x3980 DUP2 PUSH2 0x3944 JUMP JUMPDEST SWAP1 POP SWAP2 SWAP1 POP JUMP JUMPDEST PUSH32 0x4F6E6C79206C616E646C6F72642063616E207265636F7264207574696C697469 PUSH1 0x0 DUP3 ADD MSTORE PUSH32 0x6573000000000000000000000000000000000000000000000000000000000000 PUSH1 0x20 DUP3 ADD MSTORE POP JUMP JUMPDEST PUSH1 0x0 PUSH2 0x39E3 PUSH1 0x22 DUP4 PUSH2 0x3042 JUMP JUMPDEST SWAP2 POP PUSH2 0x39EE DUP3 PUSH2 0x3987 JUMP JUMPDEST PUSH1 0x40 DUP3 ADD SWAP1 POP SWAP2 SWAP1 POP JUMP JUMPDEST PUSH1 0x0 PUSH1 0x20 DUP3 ADD SWAP1 POP DUP2 DUP2 SUB PUSH1 0x0 DUP4 ADD MSTORE PUSH2 0x3A12 DUP2 PUSH2 0x39D6 JUMP JUMPDEST SWAP1 POP SWAP2 SWAP1 POP JUMP JUMPDEST PUSH32 0x52656E7420706572696F642068617320656E6465640000000000000000000000 PUSH1 0x0 DUP3 ADD MSTORE POP JUMP JUMPDEST PUSH1 0x0 PUSH2 0x3A4F PUSH1 0x15 DUP4 PUSH2 0x3042 JUMP JUMPDEST SWAP2 POP PUSH2 0x3A5A DUP3 PUSH2 0x3A19 JUMP JUMPDEST PUSH1 0x20 DUP3 ADD SWAP1 POP SWAP2 SWAP1 POP JUMP JUMPDEST PUSH1 0x0 PUSH1 0x20 DUP3 ADD SWAP1 POP DUP2 DUP2 SUB PUSH1 0x0 DUP4 ADD MSTORE PUSH2 0x3A7E DUP2 PUSH2 0x3A42 JUMP JUMPDEST SWAP1 POP SWAP2 SWAP1 POP JUMP JUMPDEST PUSH32 0x4F6E6C79206C616E646C6F72642063616E206163746976617465207468652063 PUSH1 0x0 DUP3 ADD MSTORE PUSH32 0x6F6E747261637400000000000000000000000000000000000000000000000000 PUSH1 0x20 DUP3 ADD MSTORE POP JUMP JUMPDEST PUSH1 0x0 PUSH2 0x3AE1 PUSH1 0x27 DUP4 PUSH2 0x3042 JUMP JUMPDEST SWAP2 POP PUSH2 0x3AEC DUP3 PUSH2 0x3A85 JUMP JUMPDEST PUSH1 0x40 DUP3 ADD SWAP1 POP SWAP2 SWAP1 POP JUMP JUMPDEST PUSH1 0x0 PUSH1 0x20 DUP3 ADD SWAP1 POP DUP2 DUP2 SUB PUSH1 0x0 DUP4 ADD MSTORE PUSH2 0x3B10 DUP2 PUSH2 0x3AD4 JUMP JUMPDEST SWAP1 POP SWAP2 SWAP1 POP JUMP JUMPDEST PUSH32 0x5365637572697479206465706F736974206D7573742062652070616964206669 PUSH1 0x0 DUP3 ADD MSTORE PUSH32 0x7273740000000000000000000000000000000000000000000000000000000000 PUSH1 0x20 DUP3 ADD MSTORE POP JUMP JUMPDEST PUSH1 0x0 PUSH2 0x3B73 PUSH1 0x23 DUP4 PUSH2 0x3042 JUMP JUMPDEST SWAP2 POP PUSH2 0x3B7E DUP3 PUSH2 0x3B17 JUMP JUMPDEST PUSH1 0x40 DUP3 ADD SWAP1 POP SWAP2 SWAP1 POP JUMP JUMPDEST PUSH1 0x0 PUSH1 0x20 DUP3 ADD SWAP1 POP DUP2 DUP2 SUB PUSH1 0x0 DUP4 ADD MSTORE PUSH2 0x3BA2 DUP2 PUSH2 0x3B66 JUMP JUMPDEST SWAP1 POP SWAP2 SWAP1 POP JUMP JUMPDEST PUSH32 0x4F6E6C792072656E7465722063616E207061792072656E740000000000000000 PUSH1 0x0 DUP3 ADD MSTORE POP JUMP JUMPDEST PUSH1 0x0 PUSH2 0x3BDF PUSH1 0x18 DUP4 PUSH2 0x3042 JUMP JUMPDEST SWAP2 POP PUSH2 0x3BEA DUP3 PUSH2 0x3BA9 JUMP JUMPDEST PUSH1 0x20 DUP3 ADD SWAP1 POP SWAP2 SWAP1 POP JUMP JUMPDEST PUSH1 0x0 PUSH1 0x20 DUP3 ADD SWAP1 POP DUP2 DUP2 SUB PUSH1 0x0 DUP4 ADD MSTORE PUSH2 0x3C0E DUP2 PUSH2 0x3BD2 JUMP JUMPDEST SWAP1 POP SWAP2 SWAP1 POP JUMP JUMPDEST PUSH32 0x52656E7420666F722074686973206D6F6E74682068617320616C726561647920 PUSH1 0x0 DUP3 ADD MSTORE PUSH32 0x6265656E20706169640000000000000000000000000000000000000000000000 PUSH1 0x20 DUP3 ADD MSTORE POP JUMP JUMPDEST PUSH1 0x0 PUSH2 0x3C71 PUSH1 0x29 DUP4 PUSH2 0x3042 JUMP JUMPDEST SWAP2 POP PUSH2 0x3C7C DUP3 PUSH2 0x3C15 JUMP JUMPDEST PUSH1 0x40 DUP3 ADD SWAP1 POP SWAP2 SWAP1 POP JUMP JUMPDEST PUSH1 0x0 PUSH1 0x20 DUP3 ADD SWAP1 POP DUP2 DUP2 SUB PUSH1 0x0 DUP4 ADD MSTORE PUSH2 0x3CA0 DUP2 PUSH2 0x3C64 JUMP JUMPDEST SWAP1 POP SWAP2 SWAP1 POP JUMP JUMPDEST PUSH32 0x5574696C697469657320666F722074686973206D6F6E74682068617665206E6F PUSH1 0x0 DUP3 ADD MSTORE PUSH32 0x74206265656E207265636F726465640000000000000000000000000000000000 PUSH1 0x20 DUP3 ADD MSTORE POP JUMP JUMPDEST PUSH1 0x0 PUSH2 0x3D03 PUSH1 0x2F DUP4 PUSH2 0x3042 JUMP JUMPDEST SWAP2 POP PUSH2 0x3D0E DUP3 PUSH2 0x3CA7 JUMP JUMPDEST PUSH1 0x40 DUP3 ADD SWAP1 POP SWAP2 SWAP1 POP JUMP JUMPDEST PUSH1 0x0 PUSH1 0x20 DUP3 ADD SWAP1 POP DUP2 DUP2 SUB PUSH1 0x0 DUP4 ADD MSTORE PUSH2 0x3D32 DUP2 PUSH2 0x3CF6 JUMP JUMPDEST SWAP1 POP SWAP2 SWAP1 POP JUMP JUMPDEST PUSH32 0x496E636F72726563742072656E7420616D6F756E740000000000000000000000 PUSH1 0x0 DUP3 ADD MSTORE POP JUMP JUMPDEST PUSH1 0x0 PUSH2 0x3D6F PUSH1 0x15 DUP4 PUSH2 0x3042 JUMP JUMPDEST SWAP2 POP PUSH2 0x3D7A DUP3 PUSH2 0x3D39 JUMP JUMPDEST PUSH1 0x20 DUP3 ADD SWAP1 POP SWAP2 SWAP1 POP JUMP JUMPDEST PUSH1 0x0 PUSH1 0x20 DUP3 ADD SWAP1 POP DUP2 DUP2 SUB PUSH1 0x0 DUP4 ADD MSTORE PUSH2 0x3D9E DUP2 PUSH2 0x3D62 JUMP JUMPDEST SWAP1 POP SWAP2 SWAP1 POP JUMP JUMPDEST PUSH1 0x0 PUSH2 0x3DB0 DUP3 PUSH2 0x2DA9 JUMP JUMPDEST SWAP2 POP PUSH32 0xFFFFFFFFFFFFFFFFFFFFFFFFFFFFFFFFFFFFFFFFFFFFFFFFFFFFFFFFFFFFFFFF DUP3 SUB PUSH2 0x3DE2 JUMPI PUSH2 0x3DE1 PUSH2 0x3478 JUMP JUMPDEST JUMPDEST PUSH1 0x1 DUP3 ADD SWAP1 POP SWAP2 SWAP1 POP JUMP JUMPDEST PUSH32 0x4F6E6C792072656E7465722063616E207365742074686520636F756E74657220 PUSH1 0x0 DUP3 ADD MSTORE PUSH32 0x657374696D617465000000000000000000000000000000000000000000000000 PUSH1 0x20 DUP3 ADD MSTORE POP JUMP JUMPDEST PUSH1 0x0 PUSH2 0x3E49 PUSH1 0x28 DUP4 PUSH2 0x3042 JUMP JUMPDEST SWAP2 POP PUSH2 0x3E54 DUP3 PUSH2 0x3DED JUMP JUMPDEST PUSH1 0x40 DUP3 ADD SWAP1 POP SWAP2 SWAP1 POP JUMP JUMPDEST PUSH1 0x0 PUSH1 0x20 DUP3 ADD SWAP1 POP DUP2 DUP2 SUB PUSH1 0x0 DUP4 ADD MSTORE PUSH2 0x3E78 DUP2 PUSH2 0x3E3C JUMP JUMPDEST SWAP1 POP SWAP2 SWAP1 POP JUMP JUMPDEST PUSH32 0x4C616E646C6F7264206D757374207365742064616D61676520657374696D6174 PUSH1 0x0 DUP3 ADD MSTORE PUSH32 0x6520666972737400000000000000000000000000000000000000000000000000 PUSH1 0x20 DUP3 ADD MSTORE POP JUMP JUMPDEST PUSH1 0x0 PUSH2 0x3EDB PUSH1 0x27 DUP4 PUSH2 0x3042 JUMP JUMPDEST SWAP2 POP PUSH2 0x3EE6 DUP3 PUSH2 0x3E7F JUMP JUMPDEST PUSH1 0x40 DUP3 ADD SWAP1 POP SWAP2 SWAP1 POP JUMP JUMPDEST PUSH1 0x0 PUSH1 0x20 DUP3 ADD SWAP1 POP DUP2 DUP2 SUB PUSH1 0x0 DUP4 ADD MSTORE PUSH2 0x3F0A DUP2 PUSH2 0x3ECE JUMP JUMPDEST SWAP1 POP SWAP2 SWAP1 POP JUMP JUMPDEST PUSH32 0x4F6E6C792072656E7465722063616E20736B69702072656E74207061796D656E PUSH1 0x0 DUP3 ADD MSTORE PUSH32 0x7400000000000000000000000000000000000000000000000000000000000000 PUSH1 0x20 DUP3 ADD MSTORE POP JUMP JUMPDEST PUSH1 0x0 PUSH2 0x3F6D PUSH1 0x21 DUP4 PUSH2 0x3042 JUMP JUMPDEST SWAP2 POP PUSH2 0x3F78 DUP3 PUSH2 0x3F11 JUMP JUMPDEST PUSH1 0x40 DUP3 ADD SWAP1 POP SWAP2 SWAP1 POP JUMP JUMPDEST PUSH1 0x0 PUSH1 0x20 DUP3 ADD SWAP1 POP DUP2 DUP2 SUB PUSH1 0x0 DUP4 ADD MSTORE PUSH2 0x3F9C DUP2 PUSH2 0x3F60 JUMP JUMPDEST SWAP1 POP SWAP2 SWAP1 POP JUMP JUMPDEST PUSH32 0x4F6E6C79206C616E646C6F72642063616E207365742061677265656D656E7420 PUSH1 0x0 DUP3 ADD MSTORE PUSH32 0x7465726D73000000000000000000000000000000000000000000000000000000 PUSH1 0x20 DUP3 ADD MSTORE POP JUMP JUMPDEST PUSH1 0x0 PUSH2 0x3FFF PUSH1 0x25 DUP4 PUSH2 0x3042 JUMP JUMPDEST SWAP2 POP PUSH2 0x400A DUP3 PUSH2 0x3FA3 JUMP JUMPDEST PUSH1 0x40 DUP3 ADD SWAP1 POP SWAP2 SWAP1 POP JUMP JUMPDEST PUSH1 0x0 PUSH1 0x20 DUP3 ADD SWAP1 POP DUP2 DUP2 SUB PUSH1 0x0 DUP4 ADD MSTORE PUSH2 0x402E DUP2 PUSH2 0x3FF2 JUMP JUMPDEST SWAP1 POP SWAP2 SWAP1 POP JUMP JUMPDEST PUSH1 0x0 PUSH1 0x60 DUP3 ADD SWAP1 POP PUSH2 0x404A PUSH1 0x0 DUP4 ADD DUP7 PUSH2 0x2DB3 JUMP JUMPDEST PUSH2 0x4057 PUSH1 0x20 DUP4 ADD DUP6 PUSH2 0x2DB3 JUMP JUMPDEST PUSH2 0x4064 PUSH1 0x40 DUP4 ADD DUP5 PUSH2 0x2DB3 JUMP JUMPDEST SWAP5 SWAP4 POP POP POP POP JUMP JUMPDEST PUSH32 0x4F6E6C792072656E7465722063616E2072656A6563742074686520657374696D PUSH1 0x0 DUP3 ADD MSTORE PUSH32 0x6174650000000000000000000000000000000000000000000000000000000000 PUSH1 0x20 DUP3 ADD MSTORE POP JUMP JUMPDEST PUSH1 0x0 PUSH2 0x40C8 PUSH1 0x23 DUP4 PUSH2 0x3042 JUMP JUMPDEST SWAP2 POP PUSH2 0x40D3 DUP3 PUSH2 0x406C JUMP JUMPDEST PUSH1 0x40 DUP3 ADD SWAP1 POP SWAP2 SWAP1 POP JUMP JUMPDEST PUSH1 0x0 PUSH1 0x20 DUP3 ADD SWAP1 POP DUP2 DUP2 SUB PUSH1 0x0 DUP4 ADD MSTORE PUSH2 0x40F7 DUP2 PUSH2 0x40BB JUMP JUMPDEST SWAP1 POP SWAP2 SWAP1 POP JUMP JUMPDEST PUSH32 0x4F6E6C792072656E7465722063616E206163636570742074686520657374696D PUSH1 0x0 DUP3 ADD MSTORE PUSH32 0x6174650000000000000000000000000000000000000000000000000000000000 PUSH1 0x20 DUP3 ADD MSTORE POP JUMP JUMPDEST PUSH1 0x0 PUSH2 0x415A PUSH1 0x23 DUP4 PUSH2 0x3042 JUMP JUMPDEST SWAP2 POP PUSH2 0x4165 DUP3 PUSH2 0x40FE JUMP JUMPDEST PUSH1 0x40 DUP3 ADD SWAP1 POP SWAP2 SWAP1 POP JUMP JUMPDEST PUSH1 0x0 PUSH1 0x20 DUP3 ADD SWAP1 POP DUP2 DUP2 SUB PUSH1 0x0 DUP4 ADD MSTORE PUSH2 0x4189 DUP2 PUSH2 0x414D JUMP JUMPDEST SWAP1 POP SWAP2 SWAP1 POP JUMP JUMPDEST PUSH32 0x4F6E6C79206C616E646C6F72642063616E206163636570742074686520636F75 PUSH1 0x0 DUP3 ADD MSTORE PUSH32 0x6E74657220657374696D61746500000000000000000000000000000000000000 PUSH1 0x20 DUP3 ADD MSTORE POP JUMP JUMPDEST PUSH1 0x0 PUSH2 0x41EC PUSH1 0x2D DUP4 PUSH2 0x3042 JUMP JUMPDEST SWAP2 POP PUSH2 0x41F7 DUP3 PUSH2 0x4190 JUMP JUMPDEST PUSH1 0x40 DUP3 ADD SWAP1 POP SWAP2 SWAP1 POP JUMP JUMPDEST PUSH1 0x0 PUSH1 0x20 DUP3 ADD SWAP1 POP DUP2 DUP2 SUB PUSH1 0x0 DUP4 ADD MSTORE PUSH2 0x421B DUP2 PUSH2 0x41DF JUMP JUMPDEST SWAP1 POP SWAP2 SWAP1 POP JUMP JUMPDEST PUSH32 0x4469737075746520616C72656164792072616973656400000000000000000000 PUSH1 0x0 DUP3 ADD MSTORE POP JUMP JUMPDEST PUSH1 0x0 PUSH2 0x4258 PUSH1 0x16 DUP4 PUSH2 0x3042 JUMP JUMPDEST SWAP2 POP PUSH2 0x4263 DUP3 PUSH2 0x4222 JUMP JUMPDEST PUSH1 0x20 DUP3 ADD SWAP1 POP SWAP2 SWAP1 POP JUMP JUMPDEST PUSH1 0x0 PUSH1 0x20 DUP3 ADD SWAP1 POP DUP2 DUP2 SUB PUSH1 0x0 DUP4 ADD MSTORE PUSH2 0x4287 DUP2 PUSH2 0x424B JUMP JUMPDEST SWAP1 POP SWAP2 SWAP1 POP JUMP JUMPDEST PUSH32 0x426F746820657374696D61746573206D75737420626520736574206265666F72 PUSH1 0x0 DUP3 ADD MSTORE PUSH32 0x652072616973696E672061206469737075746500000000000000000000000000 PUSH1 0x20 DUP3 ADD MSTORE POP JUMP JUMPDEST PUSH1 0x0 PUSH2 0x42EA PUSH1 0x33 DUP4 PUSH2 0x3042 JUMP JUMPDEST SWAP2 POP PUSH2 0x42F5 DUP3 PUSH2 0x428E JUMP JUMPDEST PUSH1 0x40 DUP3 ADD SWAP1 POP SWAP2 SWAP1 POP JUMP JUMPDEST PUSH1 0x0 PUSH1 0x20 DUP3 ADD SWAP1 POP DUP2 DUP2 SUB PUSH1 0x0 DUP4 ADD MSTORE PUSH2 0x4319 DUP2 PUSH2 0x42DD JUMP JUMPDEST SWAP1 POP SWAP2 SWAP1 POP JUMP JUMPDEST PUSH1 0x0 DUP2 SWAP1 POP SWAP2 SWAP1 POP JUMP JUMPDEST PUSH1 0x0 PUSH2 0x4345 PUSH2 0x4340 PUSH2 0x433B DUP5 PUSH2 0x4320 JUMP JUMPDEST PUSH2 0x2ED7 JUMP JUMPDEST PUSH2 0x2DA9 JUMP JUMPDEST SWAP1 POP SWAP2 SWAP1 POP JUMP JUMPDEST PUSH2 0x4355 DUP2 PUSH2 0x432A JUMP JUMPDEST DUP3 MSTORE POP POP JUMP JUMPDEST PUSH1 0x0 PUSH1 0x40 DUP3 ADD SWAP1 POP PUSH2 0x4370 PUSH1 0x0 DUP4 ADD DUP5 PUSH2 0x434C JUMP JUMPDEST DUP2 DUP2 SUB PUSH1 0x20 DUP4 ADD MSTORE PUSH2 0x4381 DUP2 PUSH2 0x3361 JUMP JUMPDEST SWAP1 POP SWAP3 SWAP2 POP POP JUMP INVALID LOG2 PUSH5 0x6970667358 0x22 SLT KECCAK256 GT DUP12 PUSH27 0x9BE853F95E724542A52F703075E640A5F70DA49CD804CE95F65E4 0xE0 0xBF PUSH5 0x736F6C6343 STOP ADDMOD SLT STOP CALLER "
				},
				"gasEstimates": {
					"creation": {
						"codeDepositCost": "3468600",
						"executionCost": "infinite",
						"totalCost": "infinite"
					},
					"external": {
						"acceptLandlordEstimate()": "infinite",
						"acceptRenterCounterEstimate()": "infinite",
						"activateContract()": "75209",
						"arbitrationCost()": "2496",
						"baseRent()": "2498",
						"currentMonth()": "2541",
						"currentSecurityDeposit()": "2496",
						"damageEstimate()": "2564",
						"disputeID()": "2518",
						"disputeRaised()": "2568",
						"dueRent()": "2518",
						"getArbitrationCost()": "infinite",
						"getContractBalance()": "450",
						"getCurrentSecurityDeposit()": "2483",
						"getLandlordBalance()": "4817",
						"getRenterBalance()": "4818",
						"isActive()": "2539",
						"isRentalPeriodEnded()": "2574",
						"isSecurityDepositPaid()": "2631",
						"kleros()": "infinite",
						"landlord()": "2622",
						"landlordAccepted()": "2632",
						"landlordEstimateSet()": "2654",
						"monthlyRents(uint256)": "infinite",
						"payRent()": "infinite",
						"paySecurityDeposit()": "32231",
						"pendingWithdrawals(address)": "2946",
						"recordUtilities(uint256)": "infinite",
						"rejectLandlordEstimate()": "5427",
						"rejectRenterCounterEstimate()": "infinite",
						"rentPeriodInMonths()": "2563",
						"rentStartDate()": "2497",
						"rentalPeriodEnded()": "2611",
						"renter()": "2604",
						"renterAccepted()": "2566",
						"renterCounterEstimate()": "2519",
						"renterCounterEstimateSet()": "2567",
						"rule(uint256,uint256)": "infinite",
						"securityDeposit()": "2475",
						"setAgreementTerms(uint256,uint256,uint256)": "infinite",
						"setDamageEstimate(uint256)": "infinite",
						"setRenterCounterEstimate(uint256)": "infinite",
						"skipRentPayment()": "infinite",
						"withdraw()": "infinite"
					},
					"internal": {
						"endContract()": "infinite",
						"raiseDispute()": "infinite"
					}
				},
				"methodIdentifiers": {
					"acceptLandlordEstimate()": "dd6bcb16",
					"acceptRenterCounterEstimate()": "eaa0a302",
					"activateContract()": "8fda356d",
					"arbitrationCost()": "697b05a2",
					"baseRent()": "04a2286a",
					"currentMonth()": "862a4d47",
					"currentSecurityDeposit()": "d261c91f",
					"damageEstimate()": "1a576049",
					"disputeID()": "b0a1e2b4",
					"disputeRaised()": "004422eb",
					"dueRent()": "6f3c590c",
					"getArbitrationCost()": "63022560",
					"getContractBalance()": "6f9fb98a",
					"getCurrentSecurityDeposit()": "779318e5",
					"getLandlordBalance()": "feeaea4e",
					"getRenterBalance()": "740906c0",
					"isActive()": "22f3e2d4",
					"isRentalPeriodEnded()": "cbe615b1",
					"isSecurityDepositPaid()": "f13702f4",
					"kleros()": "5a920320",
					"landlord()": "dc1997ea",
					"landlordAccepted()": "b602ea60",
					"landlordEstimateSet()": "71357a46",
					"monthlyRents(uint256)": "e1505e4e",
					"payRent()": "a709c4fe",
					"paySecurityDeposit()": "42c63dae",
					"pendingWithdrawals(address)": "f3f43703",
					"recordUtilities(uint256)": "7ef98740",
					"rejectLandlordEstimate()": "dcf2559e",
					"rejectRenterCounterEstimate()": "1890fc37",
					"rentPeriodInMonths()": "87eaa342",
					"rentStartDate()": "561eefd8",
					"rentalPeriodEnded()": "5a0e9bcc",
					"renter()": "2e88ab0b",
					"renterAccepted()": "65a746e9",
					"renterCounterEstimate()": "81d388ba",
					"renterCounterEstimateSet()": "47ed9c65",
					"rule(uint256,uint256)": "311a6c56",
					"securityDeposit()": "220e5ab3",
					"setAgreementTerms(uint256,uint256,uint256)": "d738307c",
					"setDamageEstimate(uint256)": "08c59798",
					"setRenterCounterEstimate(uint256)": "c2d6d462",
					"skipRentPayment()": "ca088031",
					"withdraw()": "3ccfd60b"
				}
			},
			"storageLayout": {
				"storage": [
					{
						"astId": 30,
						"contract": "contracts/HRSKleros.sol:HouseRentalAgreement",
						"label": "landlord",
						"offset": 0,
						"slot": "0",
						"type": "t_address"
					},
					{
						"astId": 32,
						"contract": "contracts/HRSKleros.sol:HouseRentalAgreement",
						"label": "renter",
						"offset": 0,
						"slot": "1",
						"type": "t_address"
					},
					{
						"astId": 34,
						"contract": "contracts/HRSKleros.sol:HouseRentalAgreement",
						"label": "securityDeposit",
						"offset": 0,
						"slot": "2",
						"type": "t_uint256"
					},
					{
						"astId": 36,
						"contract": "contracts/HRSKleros.sol:HouseRentalAgreement",
						"label": "baseRent",
						"offset": 0,
						"slot": "3",
						"type": "t_uint256"
					},
					{
						"astId": 38,
						"contract": "contracts/HRSKleros.sol:HouseRentalAgreement",
						"label": "rentPeriodInMonths",
						"offset": 0,
						"slot": "4",
						"type": "t_uint256"
					},
					{
						"astId": 40,
						"contract": "contracts/HRSKleros.sol:HouseRentalAgreement",
						"label": "rentStartDate",
						"offset": 0,
						"slot": "5",
						"type": "t_uint256"
					},
					{
						"astId": 42,
						"contract": "contracts/HRSKleros.sol:HouseRentalAgreement",
						"label": "currentMonth",
						"offset": 0,
						"slot": "6",
						"type": "t_uint256"
					},
					{
						"astId": 44,
						"contract": "contracts/HRSKleros.sol:HouseRentalAgreement",
						"label": "dueRent",
						"offset": 0,
						"slot": "7",
						"type": "t_uint256"
					},
					{
						"astId": 46,
						"contract": "contracts/HRSKleros.sol:HouseRentalAgreement",
						"label": "damageEstimate",
						"offset": 0,
						"slot": "8",
						"type": "t_uint256"
					},
					{
						"astId": 48,
						"contract": "contracts/HRSKleros.sol:HouseRentalAgreement",
						"label": "renterCounterEstimate",
						"offset": 0,
						"slot": "9",
						"type": "t_uint256"
					},
					{
						"astId": 50,
						"contract": "contracts/HRSKleros.sol:HouseRentalAgreement",
						"label": "disputeID",
						"offset": 0,
						"slot": "10",
						"type": "t_uint256"
					},
					{
						"astId": 52,
						"contract": "contracts/HRSKleros.sol:HouseRentalAgreement",
						"label": "currentSecurityDeposit",
						"offset": 0,
						"slot": "11",
						"type": "t_uint256"
					},
					{
						"astId": 54,
						"contract": "contracts/HRSKleros.sol:HouseRentalAgreement",
						"label": "arbitrationCost",
						"offset": 0,
						"slot": "12",
						"type": "t_uint256"
					},
					{
						"astId": 56,
						"contract": "contracts/HRSKleros.sol:HouseRentalAgreement",
						"label": "isActive",
						"offset": 0,
						"slot": "13",
						"type": "t_bool"
					},
					{
						"astId": 58,
						"contract": "contracts/HRSKleros.sol:HouseRentalAgreement",
						"label": "isSecurityDepositPaid",
						"offset": 1,
						"slot": "13",
						"type": "t_bool"
					},
					{
						"astId": 60,
						"contract": "contracts/HRSKleros.sol:HouseRentalAgreement",
						"label": "disputeRaised",
						"offset": 2,
						"slot": "13",
						"type": "t_bool"
					},
					{
						"astId": 62,
						"contract": "contracts/HRSKleros.sol:HouseRentalAgreement",
						"label": "landlordAccepted",
						"offset": 3,
						"slot": "13",
						"type": "t_bool"
					},
					{
						"astId": 64,
						"contract": "contracts/HRSKleros.sol:HouseRentalAgreement",
						"label": "renterAccepted",
						"offset": 4,
						"slot": "13",
						"type": "t_bool"
					},
					{
						"astId": 66,
						"contract": "contracts/HRSKleros.sol:HouseRentalAgreement",
						"label": "rentalPeriodEnded",
						"offset": 5,
						"slot": "13",
						"type": "t_bool"
					},
					{
						"astId": 68,
						"contract": "contracts/HRSKleros.sol:HouseRentalAgreement",
						"label": "landlordEstimateSet",
						"offset": 6,
						"slot": "13",
						"type": "t_bool"
					},
					{
						"astId": 70,
						"contract": "contracts/HRSKleros.sol:HouseRentalAgreement",
						"label": "renterCounterEstimateSet",
						"offset": 7,
						"slot": "13",
						"type": "t_bool"
					},
					{
						"astId": 73,
						"contract": "contracts/HRSKleros.sol:HouseRentalAgreement",
						"label": "kleros",
						"offset": 8,
						"slot": "13",
						"type": "t_contract(IArbitrator)18"
					},
					{
						"astId": 87,
						"contract": "contracts/HRSKleros.sol:HouseRentalAgreement",
						"label": "monthlyRents",
						"offset": 0,
						"slot": "14",
						"type": "t_mapping(t_uint256,t_struct(MonthlyRent)82_storage)"
					},
					{
						"astId": 91,
						"contract": "contracts/HRSKleros.sol:HouseRentalAgreement",
						"label": "pendingWithdrawals",
						"offset": 0,
						"slot": "15",
						"type": "t_mapping(t_address,t_uint256)"
					}
				],
				"types": {
					"t_address": {
						"encoding": "inplace",
						"label": "address",
						"numberOfBytes": "20"
					},
					"t_bool": {
						"encoding": "inplace",
						"label": "bool",
						"numberOfBytes": "1"
					},
					"t_contract(IArbitrator)18": {
						"encoding": "inplace",
						"label": "contract IArbitrator",
						"numberOfBytes": "20"
					},
					"t_mapping(t_address,t_uint256)": {
						"encoding": "mapping",
						"key": "t_address",
						"label": "mapping(address => uint256)",
						"numberOfBytes": "32",
						"value": "t_uint256"
					},
					"t_mapping(t_uint256,t_struct(MonthlyRent)82_storage)": {
						"encoding": "mapping",
						"key": "t_uint256",
						"label": "mapping(uint256 => struct HouseRentalAgreement.MonthlyRent)",
						"numberOfBytes": "32",
						"value": "t_struct(MonthlyRent)82_storage"
					},
					"t_struct(MonthlyRent)82_storage": {
						"encoding": "inplace",
						"label": "struct HouseRentalAgreement.MonthlyRent",
						"members": [
							{
								"astId": 75,
								"contract": "contracts/HRSKleros.sol:HouseRentalAgreement",
								"label": "baseRent",
								"offset": 0,
								"slot": "0",
								"type": "t_uint256"
							},
							{
								"astId": 77,
								"contract": "contracts/HRSKleros.sol:HouseRentalAgreement",
								"label": "utilities",
								"offset": 0,
								"slot": "1",
								"type": "t_uint256"
							},
							{
								"astId": 79,
								"contract": "contracts/HRSKleros.sol:HouseRentalAgreement",
								"label": "due",
								"offset": 0,
								"slot": "2",
								"type": "t_uint256"
							},
							{
								"astId": 81,
								"contract": "contracts/HRSKleros.sol:HouseRentalAgreement",
								"label": "paid",
								"offset": 0,
								"slot": "3",
								"type": "t_bool"
							}
						],
						"numberOfBytes": "128"
					},
					"t_uint256": {
						"encoding": "inplace",
						"label": "uint256",
						"numberOfBytes": "32"
					}
				}
			},
			"userdoc": {
				"kind": "user",
				"methods": {},
				"version": 1
			}
		}
	}
}