{
	"contracts/HRSKleros.sol": {
		"HouseRentalAgreement": {
			"abi": [
				{
					"inputs": [
						{
							"internalType": "address",
							"name": "_renter",
							"type": "address"
						},
						{
							"internalType": "address",
							"name": "_klerosAddress",
							"type": "address"
						}
					],
					"stateMutability": "nonpayable",
					"type": "constructor"
				},
				{
					"anonymous": false,
					"inputs": [
						{
							"indexed": false,
							"internalType": "uint256",
							"name": "securityDeposit",
							"type": "uint256"
						},
						{
							"indexed": false,
							"internalType": "uint256",
							"name": "baseRent",
							"type": "uint256"
						},
						{
							"indexed": false,
							"internalType": "uint256",
							"name": "rentPeriodInMonths",
							"type": "uint256"
						}
					],
					"name": "AgreementTermsSet",
					"type": "event"
				},
				{
					"anonymous": false,
					"inputs": [
						{
							"indexed": false,
							"internalType": "uint256",
							"name": "securityDepositReturned",
							"type": "uint256"
						},
						{
							"indexed": false,
							"internalType": "uint256",
							"name": "dueAmountPaid",
							"type": "uint256"
						}
					],
					"name": "ContractEnded",
					"type": "event"
				},
				{
					"anonymous": false,
					"inputs": [],
					"name": "CounterEstimateAccepted",
					"type": "event"
				},
				{
					"anonymous": false,
					"inputs": [],
					"name": "CounterEstimateRejected",
					"type": "event"
				},
				{
					"anonymous": false,
					"inputs": [
						{
							"indexed": false,
							"internalType": "uint256",
							"name": "counterEstimate",
							"type": "uint256"
						}
					],
					"name": "CounterEstimateSet",
					"type": "event"
				},
				{
					"anonymous": false,
					"inputs": [
						{
							"indexed": false,
							"internalType": "uint256",
							"name": "estimate",
							"type": "uint256"
						}
					],
					"name": "DamageEstimateSet",
					"type": "event"
				},
				{
					"anonymous": false,
					"inputs": [
						{
							"indexed": false,
							"internalType": "uint256",
							"name": "disputeID",
							"type": "uint256"
						}
					],
					"name": "DisputeRaised",
					"type": "event"
				},
				{
					"anonymous": false,
					"inputs": [
						{
							"indexed": false,
							"internalType": "uint256",
							"name": "disputeID",
							"type": "uint256"
						},
						{
							"indexed": false,
							"internalType": "uint256",
							"name": "ruling",
							"type": "uint256"
						}
					],
					"name": "DisputeResolved",
					"type": "event"
				},
				{
					"anonymous": false,
					"inputs": [],
					"name": "EstimateRejected",
					"type": "event"
				},
				{
					"anonymous": false,
					"inputs": [
						{
							"indexed": true,
							"internalType": "address",
							"name": "to",
							"type": "address"
						},
						{
							"indexed": false,
							"internalType": "uint256",
							"name": "amount",
							"type": "uint256"
						}
					],
					"name": "FundsTransferred",
					"type": "event"
				},
				{
					"anonymous": false,
					"inputs": [
						{
							"indexed": false,
							"internalType": "uint256",
							"name": "month",
							"type": "uint256"
						},
						{
							"indexed": false,
							"internalType": "uint256",
							"name": "amount",
							"type": "uint256"
						}
					],
					"name": "RentPaid",
					"type": "event"
				},
				{
					"anonymous": false,
					"inputs": [
						{
							"indexed": false,
							"internalType": "uint256",
							"name": "month",
							"type": "uint256"
						},
						{
							"indexed": false,
							"internalType": "uint256",
							"name": "amount",
							"type": "uint256"
						}
					],
					"name": "RentSkipped",
					"type": "event"
				},
				{
					"anonymous": false,
					"inputs": [
						{
							"indexed": false,
							"internalType": "uint256",
							"name": "month",
							"type": "uint256"
						},
						{
							"indexed": false,
							"internalType": "uint256",
							"name": "amount",
							"type": "uint256"
						}
					],
					"name": "RentTransferred",
					"type": "event"
				},
				{
					"anonymous": false,
					"inputs": [
						{
							"indexed": false,
							"internalType": "uint256",
							"name": "amount",
							"type": "uint256"
						}
					],
					"name": "SecurityDepositPaid",
					"type": "event"
				},
				{
					"anonymous": false,
					"inputs": [
						{
							"indexed": false,
							"internalType": "uint256",
							"name": "month",
							"type": "uint256"
						},
						{
							"indexed": false,
							"internalType": "uint256",
							"name": "amount",
							"type": "uint256"
						}
					],
					"name": "UtilitiesRecorded",
					"type": "event"
				},
				{
					"anonymous": false,
					"inputs": [
						{
							"indexed": true,
							"internalType": "address",
							"name": "by",
							"type": "address"
						},
						{
							"indexed": false,
							"internalType": "uint256",
							"name": "amount",
							"type": "uint256"
						}
					],
					"name": "WithdrawalRequested",
					"type": "event"
				},
				{
					"inputs": [],
					"name": "acceptLandlordEstimate",
					"outputs": [],
					"stateMutability": "nonpayable",
					"type": "function"
				},
				{
					"inputs": [],
					"name": "acceptRenterCounterEstimate",
					"outputs": [],
					"stateMutability": "nonpayable",
					"type": "function"
				},
				{
					"inputs": [],
					"name": "activateContract",
					"outputs": [],
					"stateMutability": "nonpayable",
					"type": "function"
				},
				{
					"inputs": [],
					"name": "arbitrationCost",
					"outputs": [
						{
							"internalType": "uint256",
							"name": "",
							"type": "uint256"
						}
					],
					"stateMutability": "view",
					"type": "function"
				},
				{
					"inputs": [],
					"name": "baseRent",
					"outputs": [
						{
							"internalType": "uint256",
							"name": "",
							"type": "uint256"
						}
					],
					"stateMutability": "view",
					"type": "function"
				},
				{
					"inputs": [],
					"name": "currentMonth",
					"outputs": [
						{
							"internalType": "uint256",
							"name": "",
							"type": "uint256"
						}
					],
					"stateMutability": "view",
					"type": "function"
				},
				{
					"inputs": [],
					"name": "currentSecurityDeposit",
					"outputs": [
						{
							"internalType": "uint256",
							"name": "",
							"type": "uint256"
						}
					],
					"stateMutability": "view",
					"type": "function"
				},
				{
					"inputs": [],
					"name": "damageEstimate",
					"outputs": [
						{
							"internalType": "uint256",
							"name": "",
							"type": "uint256"
						}
					],
					"stateMutability": "view",
					"type": "function"
				},
				{
					"inputs": [],
					"name": "disputeID",
					"outputs": [
						{
							"internalType": "uint256",
							"name": "",
							"type": "uint256"
						}
					],
					"stateMutability": "view",
					"type": "function"
				},
				{
					"inputs": [],
					"name": "disputeRaised",
					"outputs": [
						{
							"internalType": "bool",
							"name": "",
							"type": "bool"
						}
					],
					"stateMutability": "view",
					"type": "function"
				},
				{
					"inputs": [],
					"name": "dueRent",
					"outputs": [
						{
							"internalType": "uint256",
							"name": "",
							"type": "uint256"
						}
					],
					"stateMutability": "view",
					"type": "function"
				},
				{
					"inputs": [],
					"name": "getArbitrationCost",
					"outputs": [
						{
							"internalType": "uint256",
							"name": "",
							"type": "uint256"
						}
					],
					"stateMutability": "view",
					"type": "function"
				},
				{
					"inputs": [],
					"name": "getContractBalance",
					"outputs": [
						{
							"internalType": "uint256",
							"name": "",
							"type": "uint256"
						}
					],
					"stateMutability": "view",
					"type": "function"
				},
				{
					"inputs": [],
					"name": "getCurrentSecurityDeposit",
					"outputs": [
						{
							"internalType": "uint256",
							"name": "",
							"type": "uint256"
						}
					],
					"stateMutability": "view",
					"type": "function"
				},
				{
					"inputs": [],
					"name": "getLandlordBalance",
					"outputs": [
						{
							"internalType": "uint256",
							"name": "",
							"type": "uint256"
						}
					],
					"stateMutability": "view",
					"type": "function"
				},
				{
					"inputs": [],
					"name": "getRenterBalance",
					"outputs": [
						{
							"internalType": "uint256",
							"name": "",
							"type": "uint256"
						}
					],
					"stateMutability": "view",
					"type": "function"
				},
				{
					"inputs": [],
					"name": "initializeCurrentSecurityDeposit",
					"outputs": [],
					"stateMutability": "nonpayable",
					"type": "function"
				},
				{
					"inputs": [],
					"name": "isActive",
					"outputs": [
						{
							"internalType": "bool",
							"name": "",
							"type": "bool"
						}
					],
					"stateMutability": "view",
					"type": "function"
				},
				{
					"inputs": [],
					"name": "isRentalPeriodEnded",
					"outputs": [
						{
							"internalType": "bool",
							"name": "",
							"type": "bool"
						}
					],
					"stateMutability": "view",
					"type": "function"
				},
				{
					"inputs": [],
					"name": "isSecurityDepositPaid",
					"outputs": [
						{
							"internalType": "bool",
							"name": "",
							"type": "bool"
						}
					],
					"stateMutability": "view",
					"type": "function"
				},
				{
					"inputs": [],
					"name": "kleros",
					"outputs": [
						{
							"internalType": "contract IArbitrator",
							"name": "",
							"type": "address"
						}
					],
					"stateMutability": "view",
					"type": "function"
				},
				{
					"inputs": [],
					"name": "landlord",
					"outputs": [
						{
							"internalType": "address",
							"name": "",
							"type": "address"
						}
					],
					"stateMutability": "view",
					"type": "function"
				},
				{
					"inputs": [],
					"name": "landlordAccepted",
					"outputs": [
						{
							"internalType": "bool",
							"name": "",
							"type": "bool"
						}
					],
					"stateMutability": "view",
					"type": "function"
				},
				{
					"inputs": [],
					"name": "landlordEstimateSet",
					"outputs": [
						{
							"internalType": "bool",
							"name": "",
							"type": "bool"
						}
					],
					"stateMutability": "view",
					"type": "function"
				},
				{
					"inputs": [
						{
							"internalType": "uint256",
							"name": "",
							"type": "uint256"
						}
					],
					"name": "monthlyRents",
					"outputs": [
						{
							"internalType": "uint256",
							"name": "baseRent",
							"type": "uint256"
						},
						{
							"internalType": "uint256",
							"name": "utilities",
							"type": "uint256"
						},
						{
							"internalType": "uint256",
							"name": "due",
							"type": "uint256"
						},
						{
							"internalType": "bool",
							"name": "paid",
							"type": "bool"
						}
					],
					"stateMutability": "view",
					"type": "function"
				},
				{
					"inputs": [],
					"name": "payRent",
					"outputs": [],
					"stateMutability": "payable",
					"type": "function"
				},
				{
					"inputs": [],
					"name": "paySecurityDeposit",
					"outputs": [],
					"stateMutability": "payable",
					"type": "function"
				},
				{
					"inputs": [
						{
							"internalType": "address",
							"name": "",
							"type": "address"
						}
					],
					"name": "pendingWithdrawals",
					"outputs": [
						{
							"internalType": "uint256",
							"name": "",
							"type": "uint256"
						}
					],
					"stateMutability": "view",
					"type": "function"
				},
				{
					"inputs": [
						{
							"internalType": "uint256",
							"name": "_utilities",
							"type": "uint256"
						}
					],
					"name": "recordUtilities",
					"outputs": [],
					"stateMutability": "nonpayable",
					"type": "function"
				},
				{
					"inputs": [],
					"name": "rejectLandlordEstimate",
					"outputs": [],
					"stateMutability": "nonpayable",
					"type": "function"
				},
				{
					"inputs": [],
					"name": "rejectRenterCounterEstimate",
					"outputs": [],
					"stateMutability": "nonpayable",
					"type": "function"
				},
				{
					"inputs": [],
					"name": "rentPeriodInMonths",
					"outputs": [
						{
							"internalType": "uint256",
							"name": "",
							"type": "uint256"
						}
					],
					"stateMutability": "view",
					"type": "function"
				},
				{
					"inputs": [],
					"name": "rentStartDate",
					"outputs": [
						{
							"internalType": "uint256",
							"name": "",
							"type": "uint256"
						}
					],
					"stateMutability": "view",
					"type": "function"
				},
				{
					"inputs": [],
					"name": "rentalPeriodEnded",
					"outputs": [
						{
							"internalType": "bool",
							"name": "",
							"type": "bool"
						}
					],
					"stateMutability": "view",
					"type": "function"
				},
				{
					"inputs": [],
					"name": "renter",
					"outputs": [
						{
							"internalType": "address",
							"name": "",
							"type": "address"
						}
					],
					"stateMutability": "view",
					"type": "function"
				},
				{
					"inputs": [],
					"name": "renterAccepted",
					"outputs": [
						{
							"internalType": "bool",
							"name": "",
							"type": "bool"
						}
					],
					"stateMutability": "view",
					"type": "function"
				},
				{
					"inputs": [],
					"name": "renterCounterEstimate",
					"outputs": [
						{
							"internalType": "uint256",
							"name": "",
							"type": "uint256"
						}
					],
					"stateMutability": "view",
					"type": "function"
				},
				{
					"inputs": [],
					"name": "renterCounterEstimateSet",
					"outputs": [
						{
							"internalType": "bool",
							"name": "",
							"type": "bool"
						}
					],
					"stateMutability": "view",
					"type": "function"
				},
				{
					"inputs": [
						{
							"internalType": "uint256",
							"name": "_disputeID",
							"type": "uint256"
						},
						{
							"internalType": "uint256",
							"name": "_ruling",
							"type": "uint256"
						}
					],
					"name": "rule",
					"outputs": [],
					"stateMutability": "nonpayable",
					"type": "function"
				},
				{
					"inputs": [],
					"name": "securityDeposit",
					"outputs": [
						{
							"internalType": "uint256",
							"name": "",
							"type": "uint256"
						}
					],
					"stateMutability": "view",
					"type": "function"
				},
				{
					"inputs": [
						{
							"internalType": "uint256",
							"name": "_securityDeposit",
							"type": "uint256"
						},
						{
							"internalType": "uint256",
							"name": "_baseRent",
							"type": "uint256"
						},
						{
							"internalType": "uint256",
							"name": "_rentPeriodInMonths",
							"type": "uint256"
						}
					],
					"name": "setAgreementTerms",
					"outputs": [],
					"stateMutability": "nonpayable",
					"type": "function"
				},
				{
					"inputs": [
						{
							"internalType": "uint256",
							"name": "_damageEstimate",
							"type": "uint256"
						}
					],
					"name": "setDamageEstimate",
					"outputs": [],
					"stateMutability": "nonpayable",
					"type": "function"
				},
				{
					"inputs": [
						{
							"internalType": "uint256",
							"name": "_renterCounterEstimate",
							"type": "uint256"
						}
					],
					"name": "setRenterCounterEstimate",
					"outputs": [],
					"stateMutability": "nonpayable",
					"type": "function"
				},
				{
					"inputs": [],
					"name": "skipRentPayment",
					"outputs": [],
					"stateMutability": "nonpayable",
					"type": "function"
				},
				{
					"inputs": [],
					"name": "withdraw",
					"outputs": [],
					"stateMutability": "nonpayable",
					"type": "function"
				},
				{
					"stateMutability": "payable",
					"type": "receive"
				}
			],
			"devdoc": {
				"kind": "dev",
				"methods": {},
				"version": 1
			},
			"evm": {
				"assembly": "    /* \"contracts/HRSKleros.sol\":395:13089  contract HouseRentalAgreement is IArbitrable {... */\n  mstore(0x40, 0x80)\n    /* \"contracts/HRSKleros.sol\":2385:2702  constructor(address _renter, address _klerosAddress) {... */\n  callvalue\n  dup1\n  iszero\n  tag_1\n  jumpi\n  0x00\n  dup1\n  revert\ntag_1:\n  pop\n  mload(0x40)\n  sub(codesize, bytecodeSize)\n  dup1\n  bytecodeSize\n  dup4\n  codecopy\n  dup2\n  dup2\n  add\n  0x40\n  mstore\n  dup2\n  add\n  swap1\n  tag_2\n  swap2\n  swap1\n  tag_3\n  jump\t// in\ntag_2:\n    /* \"contracts/HRSKleros.sol\":2460:2470  msg.sender */\n  caller\n    /* \"contracts/HRSKleros.sol\":2449:2457  landlord */\n  0x00\n  dup1\n    /* \"contracts/HRSKleros.sol\":2449:2470  landlord = msg.sender */\n  0x0100\n  exp\n  dup2\n  sload\n  dup2\n  0xffffffffffffffffffffffffffffffffffffffff\n  mul\n  not\n  and\n  swap1\n  dup4\n  0xffffffffffffffffffffffffffffffffffffffff\n  and\n  mul\n  or\n  swap1\n  sstore\n  pop\n    /* \"contracts/HRSKleros.sol\":2490:2497  _renter */\n  dup2\n    /* \"contracts/HRSKleros.sol\":2481:2487  renter */\n  0x01\n  0x00\n    /* \"contracts/HRSKleros.sol\":2481:2497  renter = _renter */\n  0x0100\n  exp\n  dup2\n  sload\n  dup2\n  0xffffffffffffffffffffffffffffffffffffffff\n  mul\n  not\n  and\n  swap1\n  dup4\n  0xffffffffffffffffffffffffffffffffffffffff\n  and\n  mul\n  or\n  swap1\n  sstore\n  pop\n    /* \"contracts/HRSKleros.sol\":2529:2543  _klerosAddress */\n  dup1\n    /* \"contracts/HRSKleros.sol\":2508:2514  kleros */\n  0x0d\n  0x08\n    /* \"contracts/HRSKleros.sol\":2508:2544  kleros = IArbitrator(_klerosAddress) */\n  0x0100\n  exp\n  dup2\n  sload\n  dup2\n  0xffffffffffffffffffffffffffffffffffffffff\n  mul\n  not\n  and\n  swap1\n  dup4\n  0xffffffffffffffffffffffffffffffffffffffff\n  and\n  mul\n  or\n  swap1\n  sstore\n  pop\n    /* \"contracts/HRSKleros.sol\":2566:2571  false */\n  0x00\n    /* \"contracts/HRSKleros.sol\":2555:2563  isActive */\n  0x0d\n  0x00\n    /* \"contracts/HRSKleros.sol\":2555:2571  isActive = false */\n  0x0100\n  exp\n  dup2\n  sload\n  dup2\n  0xff\n  mul\n  not\n  and\n  swap1\n  dup4\n  iszero\n  iszero\n  mul\n  or\n  swap1\n  sstore\n  pop\n    /* \"contracts/HRSKleros.sol\":2606:2611  false */\n  0x00\n    /* \"contracts/HRSKleros.sol\":2582:2603  isSecurityDepositPaid */\n  0x0d\n  0x01\n    /* \"contracts/HRSKleros.sol\":2582:2611  isSecurityDepositPaid = false */\n  0x0100\n  exp\n  dup2\n  sload\n  dup2\n  0xff\n  mul\n  not\n  and\n  swap1\n  dup4\n  iszero\n  iszero\n  mul\n  or\n  swap1\n  sstore\n  pop\n    /* \"contracts/HRSKleros.sol\":2638:2643  false */\n  0x00\n    /* \"contracts/HRSKleros.sol\":2622:2635  disputeRaised */\n  0x0d\n  0x02\n    /* \"contracts/HRSKleros.sol\":2622:2643  disputeRaised = false */\n  0x0100\n  exp\n  dup2\n  sload\n  dup2\n  0xff\n  mul\n  not\n  and\n  swap1\n  dup4\n  iszero\n  iszero\n  mul\n  or\n  swap1\n  sstore\n  pop\n    /* \"contracts/HRSKleros.sol\":2679:2694  securityDeposit */\n  sload(0x02)\n    /* \"contracts/HRSKleros.sol\":2654:2676  currentSecurityDeposit */\n  0x0b\n    /* \"contracts/HRSKleros.sol\":2654:2694  currentSecurityDeposit = securityDeposit */\n  dup2\n  swap1\n  sstore\n  pop\n    /* \"contracts/HRSKleros.sol\":2385:2702  constructor(address _renter, address _klerosAddress) {... */\n  pop\n  pop\n    /* \"contracts/HRSKleros.sol\":395:13089  contract HouseRentalAgreement is IArbitrable {... */\n  jump(tag_6)\n    /* \"#utility.yul\":88:205   */\ntag_8:\n    /* \"#utility.yul\":197:198   */\n  0x00\n    /* \"#utility.yul\":194:195   */\n  dup1\n    /* \"#utility.yul\":187:199   */\n  revert\n    /* \"#utility.yul\":334:460   */\ntag_10:\n    /* \"#utility.yul\":371:378   */\n  0x00\n    /* \"#utility.yul\":411:453   */\n  0xffffffffffffffffffffffffffffffffffffffff\n    /* \"#utility.yul\":404:409   */\n  dup3\n    /* \"#utility.yul\":400:454   */\n  and\n    /* \"#utility.yul\":389:454   */\n  swap1\n  pop\n    /* \"#utility.yul\":334:460   */\n  swap2\n  swap1\n  pop\n  jump\t// out\n    /* \"#utility.yul\":466:562   */\ntag_11:\n    /* \"#utility.yul\":503:510   */\n  0x00\n    /* \"#utility.yul\":532:556   */\n  tag_20\n    /* \"#utility.yul\":550:555   */\n  dup3\n    /* \"#utility.yul\":532:556   */\n  tag_10\n  jump\t// in\ntag_20:\n    /* \"#utility.yul\":521:556   */\n  swap1\n  pop\n    /* \"#utility.yul\":466:562   */\n  swap2\n  swap1\n  pop\n  jump\t// out\n    /* \"#utility.yul\":568:690   */\ntag_12:\n    /* \"#utility.yul\":641:665   */\n  tag_22\n    /* \"#utility.yul\":659:664   */\n  dup2\n    /* \"#utility.yul\":641:665   */\n  tag_11\n  jump\t// in\ntag_22:\n    /* \"#utility.yul\":634:639   */\n  dup2\n    /* \"#utility.yul\":631:666   */\n  eq\n    /* \"#utility.yul\":621:684   */\n  tag_23\n  jumpi\n    /* \"#utility.yul\":680:681   */\n  0x00\n    /* \"#utility.yul\":677:678   */\n  dup1\n    /* \"#utility.yul\":670:682   */\n  revert\n    /* \"#utility.yul\":621:684   */\ntag_23:\n    /* \"#utility.yul\":568:690   */\n  pop\n  jump\t// out\n    /* \"#utility.yul\":696:839   */\ntag_13:\n    /* \"#utility.yul\":753:758   */\n  0x00\n    /* \"#utility.yul\":784:790   */\n  dup2\n    /* \"#utility.yul\":778:791   */\n  mload\n    /* \"#utility.yul\":769:791   */\n  swap1\n  pop\n    /* \"#utility.yul\":800:833   */\n  tag_25\n    /* \"#utility.yul\":827:832   */\n  dup2\n    /* \"#utility.yul\":800:833   */\n  tag_12\n  jump\t// in\ntag_25:\n    /* \"#utility.yul\":696:839   */\n  swap3\n  swap2\n  pop\n  pop\n  jump\t// out\n    /* \"#utility.yul\":845:1352   */\ntag_3:\n    /* \"#utility.yul\":924:930   */\n  0x00\n    /* \"#utility.yul\":932:938   */\n  dup1\n    /* \"#utility.yul\":981:983   */\n  0x40\n    /* \"#utility.yul\":969:978   */\n  dup4\n    /* \"#utility.yul\":960:967   */\n  dup6\n    /* \"#utility.yul\":956:979   */\n  sub\n    /* \"#utility.yul\":952:984   */\n  slt\n    /* \"#utility.yul\":949:1068   */\n  iszero\n  tag_27\n  jumpi\n    /* \"#utility.yul\":987:1066   */\n  tag_28\n  tag_8\n  jump\t// in\ntag_28:\n    /* \"#utility.yul\":949:1068   */\ntag_27:\n    /* \"#utility.yul\":1107:1108   */\n  0x00\n    /* \"#utility.yul\":1132:1196   */\n  tag_29\n    /* \"#utility.yul\":1188:1195   */\n  dup6\n    /* \"#utility.yul\":1179:1185   */\n  dup3\n    /* \"#utility.yul\":1168:1177   */\n  dup7\n    /* \"#utility.yul\":1164:1186   */\n  add\n    /* \"#utility.yul\":1132:1196   */\n  tag_13\n  jump\t// in\ntag_29:\n    /* \"#utility.yul\":1122:1196   */\n  swap3\n  pop\n    /* \"#utility.yul\":1078:1206   */\n  pop\n    /* \"#utility.yul\":1245:1247   */\n  0x20\n    /* \"#utility.yul\":1271:1335   */\n  tag_30\n    /* \"#utility.yul\":1327:1334   */\n  dup6\n    /* \"#utility.yul\":1318:1324   */\n  dup3\n    /* \"#utility.yul\":1307:1316   */\n  dup7\n    /* \"#utility.yul\":1303:1325   */\n  add\n    /* \"#utility.yul\":1271:1335   */\n  tag_13\n  jump\t// in\ntag_30:\n    /* \"#utility.yul\":1261:1335   */\n  swap2\n  pop\n    /* \"#utility.yul\":1216:1345   */\n  pop\n    /* \"#utility.yul\":845:1352   */\n  swap3\n  pop\n  swap3\n  swap1\n  pop\n  jump\t// out\n    /* \"contracts/HRSKleros.sol\":395:13089  contract HouseRentalAgreement is IArbitrable {... */\ntag_6:\n  dataSize(sub_0)\n  dup1\n  dataOffset(sub_0)\n  0x00\n  codecopy\n  0x00\n  return\nstop\n\nsub_0: assembly {\n        /* \"contracts/HRSKleros.sol\":395:13089  contract HouseRentalAgreement is IArbitrable {... */\n      mstore(0x40, 0x80)\n      jumpi(tag_1, lt(calldatasize, 0x04))\n      shr(0xe0, calldataload(0x00))\n      dup1\n      0x779318e5\n      gt\n      tag_48\n      jumpi\n      dup1\n      0xca088031\n      gt\n      tag_49\n      jumpi\n      dup1\n      0xdd6bcb16\n      gt\n      tag_50\n      jumpi\n      dup1\n      0xdd6bcb16\n      eq\n      tag_42\n      jumpi\n      dup1\n      0xe1505e4e\n      eq\n      tag_43\n      jumpi\n      dup1\n      0xeaa0a302\n      eq\n      tag_44\n      jumpi\n      dup1\n      0xf13702f4\n      eq\n      tag_45\n      jumpi\n      dup1\n      0xf3f43703\n      eq\n      tag_46\n      jumpi\n      dup1\n      0xfeeaea4e\n      eq\n      tag_47\n      jumpi\n      jump(tag_2)\n    tag_50:\n      dup1\n      0xca088031\n      eq\n      tag_36\n      jumpi\n      dup1\n      0xcbe615b1\n      eq\n      tag_37\n      jumpi\n      dup1\n      0xd261c91f\n      eq\n      tag_38\n      jumpi\n      dup1\n      0xd738307c\n      eq\n      tag_39\n      jumpi\n      dup1\n      0xdc1997ea\n      eq\n      tag_40\n      jumpi\n      dup1\n      0xdcf2559e\n      eq\n      tag_41\n      jumpi\n      jump(tag_2)\n    tag_49:\n      dup1\n      0x8fda356d\n      gt\n      tag_51\n      jumpi\n      dup1\n      0x8fda356d\n      eq\n      tag_30\n      jumpi\n      dup1\n      0xa709c4fe\n      eq\n      tag_31\n      jumpi\n      dup1\n      0xa972500f\n      eq\n      tag_32\n      jumpi\n      dup1\n      0xb0a1e2b4\n      eq\n      tag_33\n      jumpi\n      dup1\n      0xb602ea60\n      eq\n      tag_34\n      jumpi\n      dup1\n      0xc2d6d462\n      eq\n      tag_35\n      jumpi\n      jump(tag_2)\n    tag_51:\n      dup1\n      0x779318e5\n      eq\n      tag_25\n      jumpi\n      dup1\n      0x7ef98740\n      eq\n      tag_26\n      jumpi\n      dup1\n      0x81d388ba\n      eq\n      tag_27\n      jumpi\n      dup1\n      0x862a4d47\n      eq\n      tag_28\n      jumpi\n      dup1\n      0x87eaa342\n      eq\n      tag_29\n      jumpi\n      jump(tag_2)\n    tag_48:\n      dup1\n      0x47ed9c65\n      gt\n      tag_52\n      jumpi\n      dup1\n      0x65a746e9\n      gt\n      tag_53\n      jumpi\n      dup1\n      0x65a746e9\n      eq\n      tag_19\n      jumpi\n      dup1\n      0x697b05a2\n      eq\n      tag_20\n      jumpi\n      dup1\n      0x6f3c590c\n      eq\n      tag_21\n      jumpi\n      dup1\n      0x6f9fb98a\n      eq\n      tag_22\n      jumpi\n      dup1\n      0x71357a46\n      eq\n      tag_23\n      jumpi\n      dup1\n      0x740906c0\n      eq\n      tag_24\n      jumpi\n      jump(tag_2)\n    tag_53:\n      dup1\n      0x47ed9c65\n      eq\n      tag_14\n      jumpi\n      dup1\n      0x561eefd8\n      eq\n      tag_15\n      jumpi\n      dup1\n      0x5a0e9bcc\n      eq\n      tag_16\n      jumpi\n      dup1\n      0x5a920320\n      eq\n      tag_17\n      jumpi\n      dup1\n      0x63022560\n      eq\n      tag_18\n      jumpi\n      jump(tag_2)\n    tag_52:\n      dup1\n      0x220e5ab3\n      gt\n      tag_54\n      jumpi\n      dup1\n      0x220e5ab3\n      eq\n      tag_8\n      jumpi\n      dup1\n      0x22f3e2d4\n      eq\n      tag_9\n      jumpi\n      dup1\n      0x2e88ab0b\n      eq\n      tag_10\n      jumpi\n      dup1\n      0x311a6c56\n      eq\n      tag_11\n      jumpi\n      dup1\n      0x3ccfd60b\n      eq\n      tag_12\n      jumpi\n      dup1\n      0x42c63dae\n      eq\n      tag_13\n      jumpi\n      jump(tag_2)\n    tag_54:\n      dup1\n      0x4422eb\n      eq\n      tag_3\n      jumpi\n      dup1\n      0x04a2286a\n      eq\n      tag_4\n      jumpi\n      dup1\n      0x08c59798\n      eq\n      tag_5\n      jumpi\n      dup1\n      0x1890fc37\n      eq\n      tag_6\n      jumpi\n      dup1\n      0x1a576049\n      eq\n      tag_7\n      jumpi\n      jump(tag_2)\n    tag_1:\n      jumpi(tag_2, calldatasize)\n      stop\n    tag_2:\n      0x00\n      dup1\n      revert\n        /* \"contracts/HRSKleros.sol\":968:993  bool public disputeRaised */\n    tag_3:\n      callvalue\n      dup1\n      iszero\n      tag_57\n      jumpi\n      0x00\n      dup1\n      revert\n    tag_57:\n      pop\n      tag_58\n      tag_59\n      jump\t// in\n    tag_58:\n      mload(0x40)\n      tag_60\n      swap2\n      swap1\n      tag_61\n      jump\t// in\n    tag_60:\n      mload(0x40)\n      dup1\n      swap2\n      sub\n      swap1\n      return\n        /* \"contracts/HRSKleros.sol\":542:565  uint256 public baseRent */\n    tag_4:\n      callvalue\n      dup1\n      iszero\n      tag_62\n      jumpi\n      0x00\n      dup1\n      revert\n    tag_62:\n      pop\n      tag_63\n      tag_64\n      jump\t// in\n    tag_63:\n      mload(0x40)\n      tag_65\n      swap2\n      swap1\n      tag_66\n      jump\t// in\n    tag_65:\n      mload(0x40)\n      dup1\n      swap2\n      sub\n      swap1\n      return\n        /* \"contracts/HRSKleros.sol\":6725:7206  function setDamageEstimate(uint256 _damageEstimate) external {... */\n    tag_5:\n      callvalue\n      dup1\n      iszero\n      tag_67\n      jumpi\n      0x00\n      dup1\n      revert\n    tag_67:\n      pop\n      tag_68\n      0x04\n      dup1\n      calldatasize\n      sub\n      dup2\n      add\n      swap1\n      tag_69\n      swap2\n      swap1\n      tag_70\n      jump\t// in\n    tag_69:\n      tag_71\n      jump\t// in\n    tag_68:\n      stop\n        /* \"contracts/HRSKleros.sol\":9178:9725  function rejectRenterCounterEstimate() external {... */\n    tag_6:\n      callvalue\n      dup1\n      iszero\n      tag_72\n      jumpi\n      0x00\n      dup1\n      revert\n    tag_72:\n      pop\n      tag_73\n      tag_74\n      jump\t// in\n    tag_73:\n      stop\n        /* \"contracts/HRSKleros.sol\":710:739  uint256 public damageEstimate */\n    tag_7:\n      callvalue\n      dup1\n      iszero\n      tag_75\n      jumpi\n      0x00\n      dup1\n      revert\n    tag_75:\n      pop\n      tag_76\n      tag_77\n      jump\t// in\n    tag_76:\n      mload(0x40)\n      tag_78\n      swap2\n      swap1\n      tag_66\n      jump\t// in\n    tag_78:\n      mload(0x40)\n      dup1\n      swap2\n      sub\n      swap1\n      return\n        /* \"contracts/HRSKleros.sol\":505:535  uint256 public securityDeposit */\n    tag_8:\n      callvalue\n      dup1\n      iszero\n      tag_79\n      jumpi\n      0x00\n      dup1\n      revert\n    tag_79:\n      pop\n      tag_80\n      tag_81\n      jump\t// in\n    tag_80:\n      mload(0x40)\n      tag_82\n      swap2\n      swap1\n      tag_66\n      jump\t// in\n    tag_82:\n      mload(0x40)\n      dup1\n      swap2\n      sub\n      swap1\n      return\n        /* \"contracts/HRSKleros.sol\":901:921  bool public isActive */\n    tag_9:\n      callvalue\n      dup1\n      iszero\n      tag_83\n      jumpi\n      0x00\n      dup1\n      revert\n    tag_83:\n      pop\n      tag_84\n      tag_85\n      jump\t// in\n    tag_84:\n      mload(0x40)\n      tag_86\n      swap2\n      swap1\n      tag_61\n      jump\t// in\n    tag_86:\n      mload(0x40)\n      dup1\n      swap2\n      sub\n      swap1\n      return\n        /* \"contracts/HRSKleros.sol\":477:498  address public renter */\n    tag_10:\n      callvalue\n      dup1\n      iszero\n      tag_87\n      jumpi\n      0x00\n      dup1\n      revert\n    tag_87:\n      pop\n      tag_88\n      tag_89\n      jump\t// in\n    tag_88:\n      mload(0x40)\n      tag_90\n      swap2\n      swap1\n      tag_91\n      jump\t// in\n    tag_90:\n      mload(0x40)\n      dup1\n      swap2\n      sub\n      swap1\n      return\n        /* \"contracts/HRSKleros.sol\":10118:11370  function rule(uint256 _disputeID, uint256 _ruling) external override {... */\n    tag_11:\n      callvalue\n      dup1\n      iszero\n      tag_92\n      jumpi\n      0x00\n      dup1\n      revert\n    tag_92:\n      pop\n      tag_93\n      0x04\n      dup1\n      calldatasize\n      sub\n      dup2\n      add\n      swap1\n      tag_94\n      swap2\n      swap1\n      tag_95\n      jump\t// in\n    tag_94:\n      tag_96\n      jump\t// in\n    tag_93:\n      stop\n        /* \"contracts/HRSKleros.sol\":11379:11744  function withdraw() external {... */\n    tag_12:\n      callvalue\n      dup1\n      iszero\n      tag_97\n      jumpi\n      0x00\n      dup1\n      revert\n    tag_97:\n      pop\n      tag_98\n      tag_99\n      jump\t// in\n    tag_98:\n      stop\n        /* \"contracts/HRSKleros.sol\":3188:3552  function paySecurityDeposit() external payable {... */\n    tag_13:\n      tag_100\n      tag_101\n      jump\t// in\n    tag_100:\n      stop\n        /* \"contracts/HRSKleros.sol\":1142:1178  bool public renterCounterEstimateSet */\n    tag_14:\n      callvalue\n      dup1\n      iszero\n      tag_102\n      jumpi\n      0x00\n      dup1\n      revert\n    tag_102:\n      pop\n      tag_103\n      tag_104\n      jump\t// in\n    tag_103:\n      mload(0x40)\n      tag_105\n      swap2\n      swap1\n      tag_61\n      jump\t// in\n    tag_105:\n      mload(0x40)\n      dup1\n      swap2\n      sub\n      swap1\n      return\n        /* \"contracts/HRSKleros.sol\":612:640  uint256 public rentStartDate */\n    tag_15:\n      callvalue\n      dup1\n      iszero\n      tag_106\n      jumpi\n      0x00\n      dup1\n      revert\n    tag_106:\n      pop\n      tag_107\n      tag_108\n      jump\t// in\n    tag_107:\n      mload(0x40)\n      tag_109\n      swap2\n      swap1\n      tag_66\n      jump\t// in\n    tag_109:\n      mload(0x40)\n      dup1\n      swap2\n      sub\n      swap1\n      return\n        /* \"contracts/HRSKleros.sol\":1068:1097  bool public rentalPeriodEnded */\n    tag_16:\n      callvalue\n      dup1\n      iszero\n      tag_110\n      jumpi\n      0x00\n      dup1\n      revert\n    tag_110:\n      pop\n      tag_111\n      tag_112\n      jump\t// in\n    tag_111:\n      mload(0x40)\n      tag_113\n      swap2\n      swap1\n      tag_61\n      jump\t// in\n    tag_113:\n      mload(0x40)\n      dup1\n      swap2\n      sub\n      swap1\n      return\n        /* \"contracts/HRSKleros.sol\":1187:1212  IArbitrator public kleros */\n    tag_17:\n      callvalue\n      dup1\n      iszero\n      tag_114\n      jumpi\n      0x00\n      dup1\n      revert\n    tag_114:\n      pop\n      tag_115\n      tag_116\n      jump\t// in\n    tag_115:\n      mload(0x40)\n      tag_117\n      swap2\n      swap1\n      tag_118\n      jump\t// in\n    tag_117:\n      mload(0x40)\n      dup1\n      swap2\n      sub\n      swap1\n      return\n        /* \"contracts/HRSKleros.sol\":12937:13049  function getArbitrationCost() public view returns (uint256) {... */\n    tag_18:\n      callvalue\n      dup1\n      iszero\n      tag_119\n      jumpi\n      0x00\n      dup1\n      revert\n    tag_119:\n      pop\n      tag_120\n      tag_121\n      jump\t// in\n    tag_120:\n      mload(0x40)\n      tag_122\n      swap2\n      swap1\n      tag_66\n      jump\t// in\n    tag_122:\n      mload(0x40)\n      dup1\n      swap2\n      sub\n      swap1\n      return\n        /* \"contracts/HRSKleros.sol\":1035:1061  bool public renterAccepted */\n    tag_19:\n      callvalue\n      dup1\n      iszero\n      tag_123\n      jumpi\n      0x00\n      dup1\n      revert\n    tag_123:\n      pop\n      tag_124\n      tag_125\n      jump\t// in\n    tag_124:\n      mload(0x40)\n      tag_126\n      swap2\n      swap1\n      tag_61\n      jump\t// in\n    tag_126:\n      mload(0x40)\n      dup1\n      swap2\n      sub\n      swap1\n      return\n        /* \"contracts/HRSKleros.sol\":864:894  uint256 public arbitrationCost */\n    tag_20:\n      callvalue\n      dup1\n      iszero\n      tag_127\n      jumpi\n      0x00\n      dup1\n      revert\n    tag_127:\n      pop\n      tag_128\n      tag_129\n      jump\t// in\n    tag_128:\n      mload(0x40)\n      tag_130\n      swap2\n      swap1\n      tag_66\n      jump\t// in\n    tag_130:\n      mload(0x40)\n      dup1\n      swap2\n      sub\n      swap1\n      return\n        /* \"contracts/HRSKleros.sol\":681:703  uint256 public dueRent */\n    tag_21:\n      callvalue\n      dup1\n      iszero\n      tag_131\n      jumpi\n      0x00\n      dup1\n      revert\n    tag_131:\n      pop\n      tag_132\n      tag_133\n      jump\t// in\n    tag_132:\n      mload(0x40)\n      tag_134\n      swap2\n      swap1\n      tag_66\n      jump\t// in\n    tag_134:\n      mload(0x40)\n      dup1\n      swap2\n      sub\n      swap1\n      return\n        /* \"contracts/HRSKleros.sol\":12586:12695  function getContractBalance() external view returns (uint256) {... */\n    tag_22:\n      callvalue\n      dup1\n      iszero\n      tag_135\n      jumpi\n      0x00\n      dup1\n      revert\n    tag_135:\n      pop\n      tag_136\n      tag_137\n      jump\t// in\n    tag_136:\n      mload(0x40)\n      tag_138\n      swap2\n      swap1\n      tag_66\n      jump\t// in\n    tag_138:\n      mload(0x40)\n      dup1\n      swap2\n      sub\n      swap1\n      return\n        /* \"contracts/HRSKleros.sol\":1104:1135  bool public landlordEstimateSet */\n    tag_23:\n      callvalue\n      dup1\n      iszero\n      tag_139\n      jumpi\n      0x00\n      dup1\n      revert\n    tag_139:\n      pop\n      tag_140\n      tag_141\n      jump\t// in\n    tag_140:\n      mload(0x40)\n      tag_142\n      swap2\n      swap1\n      tag_61\n      jump\t// in\n    tag_142:\n      mload(0x40)\n      dup1\n      swap2\n      sub\n      swap1\n      return\n        /* \"contracts/HRSKleros.sol\":11876:11988  function getRenterBalance() external view returns (uint256) {... */\n    tag_24:\n      callvalue\n      dup1\n      iszero\n      tag_143\n      jumpi\n      0x00\n      dup1\n      revert\n    tag_143:\n      pop\n      tag_144\n      tag_145\n      jump\t// in\n    tag_144:\n      mload(0x40)\n      tag_146\n      swap2\n      swap1\n      tag_66\n      jump\t// in\n    tag_146:\n      mload(0x40)\n      dup1\n      swap2\n      sub\n      swap1\n      return\n        /* \"contracts/HRSKleros.sol\":12814:12929  function getCurrentSecurityDeposit() public view returns (uint256) {... */\n    tag_25:\n      callvalue\n      dup1\n      iszero\n      tag_147\n      jumpi\n      0x00\n      dup1\n      revert\n    tag_147:\n      pop\n      tag_148\n      tag_149\n      jump\t// in\n    tag_148:\n      mload(0x40)\n      tag_150\n      swap2\n      swap1\n      tag_66\n      jump\t// in\n    tag_150:\n      mload(0x40)\n      dup1\n      swap2\n      sub\n      swap1\n      return\n        /* \"contracts/HRSKleros.sol\":4301:4752  function recordUtilities(uint256 _utilities) external {... */\n    tag_26:\n      callvalue\n      dup1\n      iszero\n      tag_151\n      jumpi\n      0x00\n      dup1\n      revert\n    tag_151:\n      pop\n      tag_152\n      0x04\n      dup1\n      calldatasize\n      sub\n      dup2\n      add\n      swap1\n      tag_153\n      swap2\n      swap1\n      tag_70\n      jump\t// in\n    tag_153:\n      tag_154\n      jump\t// in\n    tag_152:\n      stop\n        /* \"contracts/HRSKleros.sol\":746:782  uint256 public renterCounterEstimate */\n    tag_27:\n      callvalue\n      dup1\n      iszero\n      tag_155\n      jumpi\n      0x00\n      dup1\n      revert\n    tag_155:\n      pop\n      tag_156\n      tag_157\n      jump\t// in\n    tag_156:\n      mload(0x40)\n      tag_158\n      swap2\n      swap1\n      tag_66\n      jump\t// in\n    tag_158:\n      mload(0x40)\n      dup1\n      swap2\n      sub\n      swap1\n      return\n        /* \"contracts/HRSKleros.sol\":647:674  uint256 public currentMonth */\n    tag_28:\n      callvalue\n      dup1\n      iszero\n      tag_159\n      jumpi\n      0x00\n      dup1\n      revert\n    tag_159:\n      pop\n      tag_160\n      tag_161\n      jump\t// in\n    tag_160:\n      mload(0x40)\n      tag_162\n      swap2\n      swap1\n      tag_66\n      jump\t// in\n    tag_162:\n      mload(0x40)\n      dup1\n      swap2\n      sub\n      swap1\n      return\n        /* \"contracts/HRSKleros.sol\":572:605  uint256 public rentPeriodInMonths */\n    tag_29:\n      callvalue\n      dup1\n      iszero\n      tag_163\n      jumpi\n      0x00\n      dup1\n      revert\n    tag_163:\n      pop\n      tag_164\n      tag_165\n      jump\t// in\n    tag_164:\n      mload(0x40)\n      tag_166\n      swap2\n      swap1\n      tag_66\n      jump\t// in\n    tag_166:\n      mload(0x40)\n      dup1\n      swap2\n      sub\n      swap1\n      return\n        /* \"contracts/HRSKleros.sol\":3560:3924  function activateContract() external {... */\n    tag_30:\n      callvalue\n      dup1\n      iszero\n      tag_167\n      jumpi\n      0x00\n      dup1\n      revert\n    tag_167:\n      pop\n      tag_168\n      tag_169\n      jump\t// in\n    tag_168:\n      stop\n        /* \"contracts/HRSKleros.sol\":4760:5891  function payRent() external payable {... */\n    tag_31:\n      tag_170\n      tag_171\n      jump\t// in\n    tag_170:\n      stop\n        /* \"contracts/HRSKleros.sol\":3932:4293  function initializeCurrentSecurityDeposit() external {... */\n    tag_32:\n      callvalue\n      dup1\n      iszero\n      tag_172\n      jumpi\n      0x00\n      dup1\n      revert\n    tag_172:\n      pop\n      tag_173\n      tag_174\n      jump\t// in\n    tag_173:\n      stop\n        /* \"contracts/HRSKleros.sol\":789:813  uint256 public disputeID */\n    tag_33:\n      callvalue\n      dup1\n      iszero\n      tag_175\n      jumpi\n      0x00\n      dup1\n      revert\n    tag_175:\n      pop\n      tag_176\n      tag_177\n      jump\t// in\n    tag_176:\n      mload(0x40)\n      tag_178\n      swap2\n      swap1\n      tag_66\n      jump\t// in\n    tag_178:\n      mload(0x40)\n      dup1\n      swap2\n      sub\n      swap1\n      return\n        /* \"contracts/HRSKleros.sol\":1000:1028  bool public landlordAccepted */\n    tag_34:\n      callvalue\n      dup1\n      iszero\n      tag_179\n      jumpi\n      0x00\n      dup1\n      revert\n    tag_179:\n      pop\n      tag_180\n      tag_181\n      jump\t// in\n    tag_180:\n      mload(0x40)\n      tag_182\n      swap2\n      swap1\n      tag_61\n      jump\t// in\n    tag_182:\n      mload(0x40)\n      dup1\n      swap2\n      sub\n      swap1\n      return\n        /* \"contracts/HRSKleros.sol\":8078:8484  function setRenterCounterEstimate(uint256 _renterCounterEstimate) external {... */\n    tag_35:\n      callvalue\n      dup1\n      iszero\n      tag_183\n      jumpi\n      0x00\n      dup1\n      revert\n    tag_183:\n      pop\n      tag_184\n      0x04\n      dup1\n      calldatasize\n      sub\n      dup2\n      add\n      swap1\n      tag_185\n      swap2\n      swap1\n      tag_70\n      jump\t// in\n    tag_185:\n      tag_186\n      jump\t// in\n    tag_184:\n      stop\n        /* \"contracts/HRSKleros.sol\":5899:6717  function skipRentPayment() external {... */\n    tag_36:\n      callvalue\n      dup1\n      iszero\n      tag_187\n      jumpi\n      0x00\n      dup1\n      revert\n    tag_187:\n      pop\n      tag_188\n      tag_189\n      jump\t// in\n    tag_188:\n      stop\n        /* \"contracts/HRSKleros.sol\":12703:12806  function isRentalPeriodEnded() external view returns (bool) {... */\n    tag_37:\n      callvalue\n      dup1\n      iszero\n      tag_190\n      jumpi\n      0x00\n      dup1\n      revert\n    tag_190:\n      pop\n      tag_191\n      tag_192\n      jump\t// in\n    tag_191:\n      mload(0x40)\n      tag_193\n      swap2\n      swap1\n      tag_61\n      jump\t// in\n    tag_193:\n      mload(0x40)\n      dup1\n      swap2\n      sub\n      swap1\n      return\n        /* \"contracts/HRSKleros.sol\":820:857  uint256 public currentSecurityDeposit */\n    tag_38:\n      callvalue\n      dup1\n      iszero\n      tag_194\n      jumpi\n      0x00\n      dup1\n      revert\n    tag_194:\n      pop\n      tag_195\n      tag_196\n      jump\t// in\n    tag_195:\n      mload(0x40)\n      tag_197\n      swap2\n      swap1\n      tag_66\n      jump\t// in\n    tag_197:\n      mload(0x40)\n      dup1\n      swap2\n      sub\n      swap1\n      return\n        /* \"contracts/HRSKleros.sol\":2710:3180  function setAgreementTerms(uint256 _securityDeposit, uint256 _baseRent, uint256 _rentPeriodInMonths) external {... */\n    tag_39:\n      callvalue\n      dup1\n      iszero\n      tag_198\n      jumpi\n      0x00\n      dup1\n      revert\n    tag_198:\n      pop\n      tag_199\n      0x04\n      dup1\n      calldatasize\n      sub\n      dup2\n      add\n      swap1\n      tag_200\n      swap2\n      swap1\n      tag_201\n      jump\t// in\n    tag_200:\n      tag_202\n      jump\t// in\n    tag_199:\n      stop\n        /* \"contracts/HRSKleros.sol\":447:470  address public landlord */\n    tag_40:\n      callvalue\n      dup1\n      iszero\n      tag_203\n      jumpi\n      0x00\n      dup1\n      revert\n    tag_203:\n      pop\n      tag_204\n      tag_205\n      jump\t// in\n    tag_204:\n      mload(0x40)\n      tag_206\n      swap2\n      swap1\n      tag_91\n      jump\t// in\n    tag_206:\n      mload(0x40)\n      dup1\n      swap2\n      sub\n      swap1\n      return\n        /* \"contracts/HRSKleros.sol\":7824:8070  function rejectLandlordEstimate() external {... */\n    tag_41:\n      callvalue\n      dup1\n      iszero\n      tag_207\n      jumpi\n      0x00\n      dup1\n      revert\n    tag_207:\n      pop\n      tag_208\n      tag_209\n      jump\t// in\n    tag_208:\n      stop\n        /* \"contracts/HRSKleros.sol\":7214:7816  function acceptLandlordEstimate() external {... */\n    tag_42:\n      callvalue\n      dup1\n      iszero\n      tag_210\n      jumpi\n      0x00\n      dup1\n      revert\n    tag_210:\n      pop\n      tag_211\n      tag_212\n      jump\t// in\n    tag_211:\n      stop\n        /* \"contracts/HRSKleros.sol\":1353:1404  mapping(uint256 => MonthlyRent) public monthlyRents */\n    tag_43:\n      callvalue\n      dup1\n      iszero\n      tag_213\n      jumpi\n      0x00\n      dup1\n      revert\n    tag_213:\n      pop\n      tag_214\n      0x04\n      dup1\n      calldatasize\n      sub\n      dup2\n      add\n      swap1\n      tag_215\n      swap2\n      swap1\n      tag_70\n      jump\t// in\n    tag_215:\n      tag_216\n      jump\t// in\n    tag_214:\n      mload(0x40)\n      tag_217\n      swap5\n      swap4\n      swap3\n      swap2\n      swap1\n      tag_218\n      jump\t// in\n    tag_217:\n      mload(0x40)\n      dup1\n      swap2\n      sub\n      swap1\n      return\n        /* \"contracts/HRSKleros.sol\":8492:9170  function acceptRenterCounterEstimate() external {... */\n    tag_44:\n      callvalue\n      dup1\n      iszero\n      tag_219\n      jumpi\n      0x00\n      dup1\n      revert\n    tag_219:\n      pop\n      tag_220\n      tag_221\n      jump\t// in\n    tag_220:\n      stop\n        /* \"contracts/HRSKleros.sol\":928:961  bool public isSecurityDepositPaid */\n    tag_45:\n      callvalue\n      dup1\n      iszero\n      tag_222\n      jumpi\n      0x00\n      dup1\n      revert\n    tag_222:\n      pop\n      tag_223\n      tag_224\n      jump\t// in\n    tag_223:\n      mload(0x40)\n      tag_225\n      swap2\n      swap1\n      tag_61\n      jump\t// in\n    tag_225:\n      mload(0x40)\n      dup1\n      swap2\n      sub\n      swap1\n      return\n        /* \"contracts/HRSKleros.sol\":1411:1464  mapping(address => uint256) public pendingWithdrawals */\n    tag_46:\n      callvalue\n      dup1\n      iszero\n      tag_226\n      jumpi\n      0x00\n      dup1\n      revert\n    tag_226:\n      pop\n      tag_227\n      0x04\n      dup1\n      calldatasize\n      sub\n      dup2\n      add\n      swap1\n      tag_228\n      swap2\n      swap1\n      tag_229\n      jump\t// in\n    tag_228:\n      tag_230\n      jump\t// in\n    tag_227:\n      mload(0x40)\n      tag_231\n      swap2\n      swap1\n      tag_66\n      jump\t// in\n    tag_231:\n      mload(0x40)\n      dup1\n      swap2\n      sub\n      swap1\n      return\n        /* \"contracts/HRSKleros.sol\":11752:11868  function getLandlordBalance() external view returns (uint256) {... */\n    tag_47:\n      callvalue\n      dup1\n      iszero\n      tag_232\n      jumpi\n      0x00\n      dup1\n      revert\n    tag_232:\n      pop\n      tag_233\n      tag_234\n      jump\t// in\n    tag_233:\n      mload(0x40)\n      tag_235\n      swap2\n      swap1\n      tag_66\n      jump\t// in\n    tag_235:\n      mload(0x40)\n      dup1\n      swap2\n      sub\n      swap1\n      return\n        /* \"contracts/HRSKleros.sol\":968:993  bool public disputeRaised */\n    tag_59:\n      0x0d\n      0x02\n      swap1\n      sload\n      swap1\n      0x0100\n      exp\n      swap1\n      div\n      0xff\n      and\n      dup2\n      jump\t// out\n        /* \"contracts/HRSKleros.sol\":542:565  uint256 public baseRent */\n    tag_64:\n      sload(0x03)\n      dup2\n      jump\t// out\n        /* \"contracts/HRSKleros.sol\":6725:7206  function setDamageEstimate(uint256 _damageEstimate) external {... */\n    tag_71:\n        /* \"contracts/HRSKleros.sol\":6819:6827  landlord */\n      0x00\n      dup1\n      sload\n      swap1\n      0x0100\n      exp\n      swap1\n      div\n      0xffffffffffffffffffffffffffffffffffffffff\n      and\n        /* \"contracts/HRSKleros.sol\":6805:6827  msg.sender == landlord */\n      0xffffffffffffffffffffffffffffffffffffffff\n      and\n        /* \"contracts/HRSKleros.sol\":6805:6815  msg.sender */\n      caller\n        /* \"contracts/HRSKleros.sol\":6805:6827  msg.sender == landlord */\n      0xffffffffffffffffffffffffffffffffffffffff\n      and\n      eq\n        /* \"contracts/HRSKleros.sol\":6797:6873  require(msg.sender == landlord, \"Only landlord can set the damage estimate\") */\n      tag_237\n      jumpi\n      mload(0x40)\n      0x08c379a000000000000000000000000000000000000000000000000000000000\n      dup2\n      mstore\n      0x04\n      add\n      tag_238\n      swap1\n      tag_239\n      jump\t// in\n    tag_238:\n      mload(0x40)\n      dup1\n      swap2\n      sub\n      swap1\n      revert\n    tag_237:\n        /* \"contracts/HRSKleros.sol\":6892:6909  rentalPeriodEnded */\n      0x0d\n      0x05\n      swap1\n      sload\n      swap1\n      0x0100\n      exp\n      swap1\n      div\n      0xff\n      and\n        /* \"contracts/HRSKleros.sol\":6884:6943  require(rentalPeriodEnded, \"Rent period has not ended yet\") */\n      tag_240\n      jumpi\n      mload(0x40)\n      0x08c379a000000000000000000000000000000000000000000000000000000000\n      dup2\n      mstore\n      0x04\n      add\n      tag_241\n      swap1\n      tag_242\n      jump\t// in\n    tag_241:\n      mload(0x40)\n      dup1\n      swap2\n      sub\n      swap1\n      revert\n    tag_240:\n        /* \"contracts/HRSKleros.sol\":6963:6982  landlordEstimateSet */\n      0x0d\n      0x06\n      swap1\n      sload\n      swap1\n      0x0100\n      exp\n      swap1\n      div\n      0xff\n      and\n        /* \"contracts/HRSKleros.sol\":6962:6982  !landlordEstimateSet */\n      iszero\n        /* \"contracts/HRSKleros.sol\":6954:7014  require(!landlordEstimateSet, \"Damage estimate already set\") */\n      tag_243\n      jumpi\n      mload(0x40)\n      0x08c379a000000000000000000000000000000000000000000000000000000000\n      dup2\n      mstore\n      0x04\n      add\n      tag_244\n      swap1\n      tag_245\n      jump\t// in\n    tag_244:\n      mload(0x40)\n      dup1\n      swap2\n      sub\n      swap1\n      revert\n    tag_243:\n        /* \"contracts/HRSKleros.sol\":7033:7041  isActive */\n      0x0d\n      0x00\n      swap1\n      sload\n      swap1\n      0x0100\n      exp\n      swap1\n      div\n      0xff\n      and\n        /* \"contracts/HRSKleros.sol\":7025:7068  require(isActive, \"Contract is not active\") */\n      tag_246\n      jumpi\n      mload(0x40)\n      0x08c379a000000000000000000000000000000000000000000000000000000000\n      dup2\n      mstore\n      0x04\n      add\n      tag_247\n      swap1\n      tag_248\n      jump\t// in\n    tag_247:\n      mload(0x40)\n      dup1\n      swap2\n      sub\n      swap1\n      revert\n    tag_246:\n        /* \"contracts/HRSKleros.sol\":7096:7111  _damageEstimate */\n      dup1\n        /* \"contracts/HRSKleros.sol\":7079:7093  damageEstimate */\n      0x08\n        /* \"contracts/HRSKleros.sol\":7079:7111  damageEstimate = _damageEstimate */\n      dup2\n      swap1\n      sstore\n      pop\n        /* \"contracts/HRSKleros.sol\":7144:7148  true */\n      0x01\n        /* \"contracts/HRSKleros.sol\":7122:7141  landlordEstimateSet */\n      0x0d\n      0x06\n        /* \"contracts/HRSKleros.sol\":7122:7148  landlordEstimateSet = true */\n      0x0100\n      exp\n      dup2\n      sload\n      dup2\n      0xff\n      mul\n      not\n      and\n      swap1\n      dup4\n      iszero\n      iszero\n      mul\n      or\n      swap1\n      sstore\n      pop\n        /* \"contracts/HRSKleros.sol\":7164:7198  DamageEstimateSet(_damageEstimate) */\n      0x192101de3933394fedeb636ffadd15c20b3e23e4913ab4051c171a26c90a3459\n        /* \"contracts/HRSKleros.sol\":7182:7197  _damageEstimate */\n      dup2\n        /* \"contracts/HRSKleros.sol\":7164:7198  DamageEstimateSet(_damageEstimate) */\n      mload(0x40)\n      tag_249\n      swap2\n      swap1\n      tag_66\n      jump\t// in\n    tag_249:\n      mload(0x40)\n      dup1\n      swap2\n      sub\n      swap1\n      log1\n        /* \"contracts/HRSKleros.sol\":6725:7206  function setDamageEstimate(uint256 _damageEstimate) external {... */\n      pop\n      jump\t// out\n        /* \"contracts/HRSKleros.sol\":9178:9725  function rejectRenterCounterEstimate() external {... */\n    tag_74:\n        /* \"contracts/HRSKleros.sol\":9259:9267  landlord */\n      0x00\n      dup1\n      sload\n      swap1\n      0x0100\n      exp\n      swap1\n      div\n      0xffffffffffffffffffffffffffffffffffffffff\n      and\n        /* \"contracts/HRSKleros.sol\":9245:9267  msg.sender == landlord */\n      0xffffffffffffffffffffffffffffffffffffffff\n      and\n        /* \"contracts/HRSKleros.sol\":9245:9255  msg.sender */\n      caller\n        /* \"contracts/HRSKleros.sol\":9245:9267  msg.sender == landlord */\n      0xffffffffffffffffffffffffffffffffffffffff\n      and\n      eq\n        /* \"contracts/HRSKleros.sol\":9237:9317  require(msg.sender == landlord, \"Only landlord can reject the counter estimate\") */\n      tag_251\n      jumpi\n      mload(0x40)\n      0x08c379a000000000000000000000000000000000000000000000000000000000\n      dup2\n      mstore\n      0x04\n      add\n      tag_252\n      swap1\n      tag_253\n      jump\t// in\n    tag_252:\n      mload(0x40)\n      dup1\n      swap2\n      sub\n      swap1\n      revert\n    tag_251:\n        /* \"contracts/HRSKleros.sol\":9336:9360  renterCounterEstimateSet */\n      0x0d\n      0x07\n      swap1\n      sload\n      swap1\n      0x0100\n      exp\n      swap1\n      div\n      0xff\n      and\n        /* \"contracts/HRSKleros.sol\":9328:9403  require(renterCounterEstimateSet, \"Renter must set counter estimate first\") */\n      tag_254\n      jumpi\n      mload(0x40)\n      0x08c379a000000000000000000000000000000000000000000000000000000000\n      dup2\n      mstore\n      0x04\n      add\n      tag_255\n      swap1\n      tag_256\n      jump\t// in\n    tag_255:\n      mload(0x40)\n      dup1\n      swap2\n      sub\n      swap1\n      revert\n    tag_254:\n        /* \"contracts/HRSKleros.sol\":9442:9448  kleros */\n      0x0d\n      0x08\n      swap1\n      sload\n      swap1\n      0x0100\n      exp\n      swap1\n      div\n      0xffffffffffffffffffffffffffffffffffffffff\n      and\n        /* \"contracts/HRSKleros.sol\":9442:9464  kleros.arbitrationCost */\n      0xffffffffffffffffffffffffffffffffffffffff\n      and\n      0xf7434ea9\n        /* \"contracts/HRSKleros.sol\":9442:9468  kleros.arbitrationCost(\"\") */\n      mload(0x40)\n      dup2\n      0xffffffff\n      and\n      0xe0\n      shl\n      dup2\n      mstore\n      0x04\n      add\n      tag_257\n      swap1\n      tag_258\n      jump\t// in\n    tag_257:\n      0x20\n      mload(0x40)\n      dup1\n      dup4\n      sub\n      dup2\n      dup7\n      gas\n      staticcall\n      iszero\n      dup1\n      iszero\n      tag_260\n      jumpi\n      returndatasize\n      0x00\n      dup1\n      returndatacopy\n      revert(0x00, returndatasize)\n    tag_260:\n      pop\n      pop\n      pop\n      pop\n      mload(0x40)\n      returndatasize\n      not(0x1f)\n      0x1f\n      dup3\n      add\n      and\n      dup3\n      add\n      dup1\n      0x40\n      mstore\n      pop\n      dup2\n      add\n      swap1\n      tag_261\n      swap2\n      swap1\n      tag_262\n      jump\t// in\n    tag_261:\n        /* \"contracts/HRSKleros.sol\":9424:9439  arbitrationCost */\n      0x0c\n        /* \"contracts/HRSKleros.sol\":9424:9468  arbitrationCost = kleros.arbitrationCost(\"\") */\n      dup2\n      swap1\n      sstore\n      pop\n        /* \"contracts/HRSKleros.sol\":9513:9528  arbitrationCost */\n      sload(0x0c)\n        /* \"contracts/HRSKleros.sol\":9487:9509  currentSecurityDeposit */\n      sload(0x0b)\n        /* \"contracts/HRSKleros.sol\":9487:9528  currentSecurityDeposit >= arbitrationCost */\n      lt\n      iszero\n        /* \"contracts/HRSKleros.sol\":9479:9589  require(currentSecurityDeposit >= arbitrationCost, \"Security deposit insufficient to cover arbitration costs\") */\n      tag_263\n      jumpi\n      mload(0x40)\n      0x08c379a000000000000000000000000000000000000000000000000000000000\n      dup2\n      mstore\n      0x04\n      add\n      tag_264\n      swap1\n      tag_265\n      jump\t// in\n    tag_264:\n      mload(0x40)\n      dup1\n      swap2\n      sub\n      swap1\n      revert\n    tag_263:\n        /* \"contracts/HRSKleros.sol\":9636:9651  arbitrationCost */\n      sload(0x0c)\n        /* \"contracts/HRSKleros.sol\":9610:9632  currentSecurityDeposit */\n      0x0b\n      0x00\n        /* \"contracts/HRSKleros.sol\":9610:9651  currentSecurityDeposit -= arbitrationCost */\n      dup3\n      dup3\n      sload\n      tag_266\n      swap2\n      swap1\n      tag_267\n      jump\t// in\n    tag_266:\n      swap3\n      pop\n      pop\n      dup2\n      swap1\n      sstore\n      pop\n        /* \"contracts/HRSKleros.sol\":9662:9676  raiseDispute() */\n      tag_268\n        /* \"contracts/HRSKleros.sol\":9662:9674  raiseDispute */\n      tag_269\n        /* \"contracts/HRSKleros.sol\":9662:9676  raiseDispute() */\n      jump\t// in\n    tag_268:\n        /* \"contracts/HRSKleros.sol\":9692:9717  CounterEstimateRejected() */\n      0xa7d8a4744bc13e083818434dde26551ea9b29c6425677ebc90cd5dd09ce6b5c7\n      mload(0x40)\n      mload(0x40)\n      dup1\n      swap2\n      sub\n      swap1\n      log1\n        /* \"contracts/HRSKleros.sol\":9178:9725  function rejectRenterCounterEstimate() external {... */\n      jump\t// out\n        /* \"contracts/HRSKleros.sol\":710:739  uint256 public damageEstimate */\n    tag_77:\n      sload(0x08)\n      dup2\n      jump\t// out\n        /* \"contracts/HRSKleros.sol\":505:535  uint256 public securityDeposit */\n    tag_81:\n      sload(0x02)\n      dup2\n      jump\t// out\n        /* \"contracts/HRSKleros.sol\":901:921  bool public isActive */\n    tag_85:\n      0x0d\n      0x00\n      swap1\n      sload\n      swap1\n      0x0100\n      exp\n      swap1\n      div\n      0xff\n      and\n      dup2\n      jump\t// out\n        /* \"contracts/HRSKleros.sol\":477:498  address public renter */\n    tag_89:\n      0x01\n      0x00\n      swap1\n      sload\n      swap1\n      0x0100\n      exp\n      swap1\n      div\n      0xffffffffffffffffffffffffffffffffffffffff\n      and\n      dup2\n      jump\t// out\n        /* \"contracts/HRSKleros.sol\":10118:11370  function rule(uint256 _disputeID, uint256 _ruling) external override {... */\n    tag_96:\n        /* \"contracts/HRSKleros.sol\":10228:10234  kleros */\n      0x0d\n      0x08\n      swap1\n      sload\n      swap1\n      0x0100\n      exp\n      swap1\n      div\n      0xffffffffffffffffffffffffffffffffffffffff\n      and\n        /* \"contracts/HRSKleros.sol\":10206:10235  msg.sender == address(kleros) */\n      0xffffffffffffffffffffffffffffffffffffffff\n      and\n        /* \"contracts/HRSKleros.sol\":10206:10216  msg.sender */\n      caller\n        /* \"contracts/HRSKleros.sol\":10206:10235  msg.sender == address(kleros) */\n      0xffffffffffffffffffffffffffffffffffffffff\n      and\n      eq\n        /* \"contracts/HRSKleros.sol\":10198:10268  require(msg.sender == address(kleros), \"Only the arbitrator can rule\") */\n      tag_271\n      jumpi\n      mload(0x40)\n      0x08c379a000000000000000000000000000000000000000000000000000000000\n      dup2\n      mstore\n      0x04\n      add\n      tag_272\n      swap1\n      tag_273\n      jump\t// in\n    tag_272:\n      mload(0x40)\n      dup1\n      swap2\n      sub\n      swap1\n      revert\n    tag_271:\n        /* \"contracts/HRSKleros.sol\":10287:10300  disputeRaised */\n      0x0d\n      0x02\n      swap1\n      sload\n      swap1\n      0x0100\n      exp\n      swap1\n      div\n      0xff\n      and\n        /* \"contracts/HRSKleros.sol\":10279:10326  require(disputeRaised, \"No dispute to rule on\") */\n      tag_274\n      jumpi\n      mload(0x40)\n      0x08c379a000000000000000000000000000000000000000000000000000000000\n      dup2\n      mstore\n      0x04\n      add\n      tag_275\n      swap1\n      tag_276\n      jump\t// in\n    tag_275:\n      mload(0x40)\n      dup1\n      swap2\n      sub\n      swap1\n      revert\n    tag_274:\n        /* \"contracts/HRSKleros.sol\":10359:10368  disputeID */\n      sload(0x0a)\n        /* \"contracts/HRSKleros.sol\":10345:10355  _disputeID */\n      dup3\n        /* \"contracts/HRSKleros.sol\":10345:10368  _disputeID == disputeID */\n      eq\n        /* \"contracts/HRSKleros.sol\":10337:10389  require(_disputeID == disputeID, \"Wrong dispute ID\") */\n      tag_277\n      jumpi\n      mload(0x40)\n      0x08c379a000000000000000000000000000000000000000000000000000000000\n      dup2\n      mstore\n      0x04\n      add\n      tag_278\n      swap1\n      tag_279\n      jump\t// in\n    tag_278:\n      mload(0x40)\n      dup1\n      swap2\n      sub\n      swap1\n      revert\n    tag_277:\n        /* \"contracts/HRSKleros.sol\":10402:10422  uint256 damageAmount */\n      0x00\n        /* \"contracts/HRSKleros.sol\":10448:10449  1 */\n      0x01\n        /* \"contracts/HRSKleros.sol\":10437:10444  _ruling */\n      dup3\n        /* \"contracts/HRSKleros.sol\":10437:10449  _ruling == 1 */\n      sub\n        /* \"contracts/HRSKleros.sol\":10433:10962  if (_ruling == 1) {... */\n      tag_280\n      jumpi\n        /* \"contracts/HRSKleros.sol\":10546:10568  currentSecurityDeposit */\n      sload(0x0b)\n        /* \"contracts/HRSKleros.sol\":10529:10543  damageEstimate */\n      sload(0x08)\n        /* \"contracts/HRSKleros.sol\":10529:10568  damageEstimate < currentSecurityDeposit */\n      lt\n        /* \"contracts/HRSKleros.sol\":10529:10610  damageEstimate < currentSecurityDeposit ? damageEstimate : currentSecurityDeposit */\n      tag_281\n      jumpi\n        /* \"contracts/HRSKleros.sol\":10588:10610  currentSecurityDeposit */\n      sload(0x0b)\n        /* \"contracts/HRSKleros.sol\":10529:10610  damageEstimate < currentSecurityDeposit ? damageEstimate : currentSecurityDeposit */\n      jump(tag_282)\n    tag_281:\n        /* \"contracts/HRSKleros.sol\":10571:10585  damageEstimate */\n      sload(0x08)\n        /* \"contracts/HRSKleros.sol\":10529:10610  damageEstimate < currentSecurityDeposit ? damageEstimate : currentSecurityDeposit */\n    tag_282:\n        /* \"contracts/HRSKleros.sol\":10514:10610  damageAmount = damageEstimate < currentSecurityDeposit ? damageEstimate : currentSecurityDeposit */\n      swap1\n      pop\n        /* \"contracts/HRSKleros.sol\":10433:10962  if (_ruling == 1) {... */\n      jump(tag_283)\n    tag_280:\n        /* \"contracts/HRSKleros.sol\":10643:10644  2 */\n      0x02\n        /* \"contracts/HRSKleros.sol\":10632:10639  _ruling */\n      dup3\n        /* \"contracts/HRSKleros.sol\":10632:10644  _ruling == 2 */\n      sub\n        /* \"contracts/HRSKleros.sol\":10628:10962  if (_ruling == 2) {... */\n      tag_284\n      jumpi\n        /* \"contracts/HRSKleros.sol\":10746:10768  currentSecurityDeposit */\n      sload(0x0b)\n        /* \"contracts/HRSKleros.sol\":10722:10743  renterCounterEstimate */\n      sload(0x09)\n        /* \"contracts/HRSKleros.sol\":10722:10768  renterCounterEstimate < currentSecurityDeposit */\n      lt\n        /* \"contracts/HRSKleros.sol\":10722:10817  renterCounterEstimate < currentSecurityDeposit ? renterCounterEstimate : currentSecurityDeposit */\n      tag_285\n      jumpi\n        /* \"contracts/HRSKleros.sol\":10795:10817  currentSecurityDeposit */\n      sload(0x0b)\n        /* \"contracts/HRSKleros.sol\":10722:10817  renterCounterEstimate < currentSecurityDeposit ? renterCounterEstimate : currentSecurityDeposit */\n      jump(tag_286)\n    tag_285:\n        /* \"contracts/HRSKleros.sol\":10771:10792  renterCounterEstimate */\n      sload(0x09)\n        /* \"contracts/HRSKleros.sol\":10722:10817  renterCounterEstimate < currentSecurityDeposit ? renterCounterEstimate : currentSecurityDeposit */\n    tag_286:\n        /* \"contracts/HRSKleros.sol\":10707:10817  damageAmount = renterCounterEstimate < currentSecurityDeposit ? renterCounterEstimate : currentSecurityDeposit */\n      swap1\n      pop\n        /* \"contracts/HRSKleros.sol\":10628:10962  if (_ruling == 2) {... */\n      jump(tag_287)\n    tag_284:\n        /* \"contracts/HRSKleros.sol\":10949:10950  2 */\n      0x02\n        /* \"contracts/HRSKleros.sol\":10924:10946  currentSecurityDeposit */\n      sload(0x0b)\n        /* \"contracts/HRSKleros.sol\":10924:10950  currentSecurityDeposit / 2 */\n      tag_288\n      swap2\n      swap1\n      tag_289\n      jump\t// in\n    tag_288:\n        /* \"contracts/HRSKleros.sol\":10909:10950  damageAmount = currentSecurityDeposit / 2 */\n      swap1\n      pop\n        /* \"contracts/HRSKleros.sol\":10628:10962  if (_ruling == 2) {... */\n    tag_287:\n        /* \"contracts/HRSKleros.sol\":10433:10962  if (_ruling == 1) {... */\n    tag_283:\n        /* \"contracts/HRSKleros.sol\":11006:11018  damageAmount */\n      dup1\n        /* \"contracts/HRSKleros.sol\":10974:10992  pendingWithdrawals */\n      0x0f\n        /* \"contracts/HRSKleros.sol\":10974:11002  pendingWithdrawals[landlord] */\n      0x00\n        /* \"contracts/HRSKleros.sol\":10993:11001  landlord */\n      dup1\n      0x00\n      swap1\n      sload\n      swap1\n      0x0100\n      exp\n      swap1\n      div\n      0xffffffffffffffffffffffffffffffffffffffff\n      and\n        /* \"contracts/HRSKleros.sol\":10974:11002  pendingWithdrawals[landlord] */\n      0xffffffffffffffffffffffffffffffffffffffff\n      and\n      0xffffffffffffffffffffffffffffffffffffffff\n      and\n      dup2\n      mstore\n      0x20\n      add\n      swap1\n      dup2\n      mstore\n      0x20\n      add\n      0x00\n      keccak256\n      0x00\n        /* \"contracts/HRSKleros.sol\":10974:11018  pendingWithdrawals[landlord] += damageAmount */\n      dup3\n      dup3\n      sload\n      tag_290\n      swap2\n      swap1\n      tag_291\n      jump\t// in\n    tag_290:\n      swap3\n      pop\n      pop\n      dup2\n      swap1\n      sstore\n      pop\n        /* \"contracts/HRSKleros.sol\":11085:11097  damageAmount */\n      dup1\n        /* \"contracts/HRSKleros.sol\":11060:11082  currentSecurityDeposit */\n      sload(0x0b)\n        /* \"contracts/HRSKleros.sol\":11060:11097  currentSecurityDeposit - damageAmount */\n      tag_292\n      swap2\n      swap1\n      tag_267\n      jump\t// in\n    tag_292:\n        /* \"contracts/HRSKleros.sol\":11029:11047  pendingWithdrawals */\n      0x0f\n        /* \"contracts/HRSKleros.sol\":11029:11055  pendingWithdrawals[renter] */\n      0x00\n        /* \"contracts/HRSKleros.sol\":11048:11054  renter */\n      0x01\n      0x00\n      swap1\n      sload\n      swap1\n      0x0100\n      exp\n      swap1\n      div\n      0xffffffffffffffffffffffffffffffffffffffff\n      and\n        /* \"contracts/HRSKleros.sol\":11029:11055  pendingWithdrawals[renter] */\n      0xffffffffffffffffffffffffffffffffffffffff\n      and\n      0xffffffffffffffffffffffffffffffffffffffff\n      and\n      dup2\n      mstore\n      0x20\n      add\n      swap1\n      dup2\n      mstore\n      0x20\n      add\n      0x00\n      keccak256\n      0x00\n        /* \"contracts/HRSKleros.sol\":11029:11098  pendingWithdrawals[renter] += (currentSecurityDeposit - damageAmount) */\n      dup3\n      dup3\n      sload\n      tag_293\n      swap2\n      swap1\n      tag_291\n      jump\t// in\n    tag_293:\n      swap3\n      pop\n      pop\n      dup2\n      swap1\n      sstore\n      pop\n        /* \"contracts/HRSKleros.sol\":11144:11152  landlord */\n      0x00\n      dup1\n      sload\n      swap1\n      0x0100\n      exp\n      swap1\n      div\n      0xffffffffffffffffffffffffffffffffffffffff\n      and\n        /* \"contracts/HRSKleros.sol\":11124:11167  WithdrawalRequested(landlord, damageAmount) */\n      0xffffffffffffffffffffffffffffffffffffffff\n      and\n      0xe670e4e82118d22a1f9ee18920455ebc958bae26a90a05d31d3378788b1b0e44\n        /* \"contracts/HRSKleros.sol\":11154:11166  damageAmount */\n      dup3\n        /* \"contracts/HRSKleros.sol\":11124:11167  WithdrawalRequested(landlord, damageAmount) */\n      mload(0x40)\n      tag_294\n      swap2\n      swap1\n      tag_66\n      jump\t// in\n    tag_294:\n      mload(0x40)\n      dup1\n      swap2\n      sub\n      swap1\n      log2\n        /* \"contracts/HRSKleros.sol\":11203:11209  renter */\n      0x01\n      0x00\n      swap1\n      sload\n      swap1\n      0x0100\n      exp\n      swap1\n      div\n      0xffffffffffffffffffffffffffffffffffffffff\n      and\n        /* \"contracts/HRSKleros.sol\":11183:11249  WithdrawalRequested(renter, currentSecurityDeposit - damageAmount) */\n      0xffffffffffffffffffffffffffffffffffffffff\n      and\n      0xe670e4e82118d22a1f9ee18920455ebc958bae26a90a05d31d3378788b1b0e44\n        /* \"contracts/HRSKleros.sol\":11236:11248  damageAmount */\n      dup3\n        /* \"contracts/HRSKleros.sol\":11211:11233  currentSecurityDeposit */\n      sload(0x0b)\n        /* \"contracts/HRSKleros.sol\":11211:11248  currentSecurityDeposit - damageAmount */\n      tag_295\n      swap2\n      swap1\n      tag_267\n      jump\t// in\n    tag_295:\n        /* \"contracts/HRSKleros.sol\":11183:11249  WithdrawalRequested(renter, currentSecurityDeposit - damageAmount) */\n      mload(0x40)\n      tag_296\n      swap2\n      swap1\n      tag_66\n      jump\t// in\n    tag_296:\n      mload(0x40)\n      dup1\n      swap2\n      sub\n      swap1\n      log2\n        /* \"contracts/HRSKleros.sol\":11278:11283  false */\n      0x00\n        /* \"contracts/HRSKleros.sol\":11262:11275  disputeRaised */\n      0x0d\n      0x02\n        /* \"contracts/HRSKleros.sol\":11262:11283  disputeRaised = false */\n      0x0100\n      exp\n      dup2\n      sload\n      dup2\n      0xff\n      mul\n      not\n      and\n      swap1\n      dup4\n      iszero\n      iszero\n      mul\n      or\n      swap1\n      sstore\n      pop\n        /* \"contracts/HRSKleros.sol\":11305:11310  false */\n      0x00\n        /* \"contracts/HRSKleros.sol\":11294:11302  isActive */\n      0x0d\n      0x00\n        /* \"contracts/HRSKleros.sol\":11294:11310  isActive = false */\n      0x0100\n      exp\n      dup2\n      sload\n      dup2\n      0xff\n      mul\n      not\n      and\n      swap1\n      dup4\n      iszero\n      iszero\n      mul\n      or\n      swap1\n      sstore\n      pop\n        /* \"contracts/HRSKleros.sol\":11326:11362  DisputeResolved(_disputeID, _ruling) */\n      0xb4121f1f91a696a3fc75f6d151f3c9865abffa0738bda595e71c381c02af2faa\n        /* \"contracts/HRSKleros.sol\":11342:11352  _disputeID */\n      dup4\n        /* \"contracts/HRSKleros.sol\":11354:11361  _ruling */\n      dup4\n        /* \"contracts/HRSKleros.sol\":11326:11362  DisputeResolved(_disputeID, _ruling) */\n      mload(0x40)\n      tag_297\n      swap3\n      swap2\n      swap1\n      tag_298\n      jump\t// in\n    tag_297:\n      mload(0x40)\n      dup1\n      swap2\n      sub\n      swap1\n      log1\n        /* \"contracts/HRSKleros.sol\":10187:11370  {... */\n      pop\n        /* \"contracts/HRSKleros.sol\":10118:11370  function rule(uint256 _disputeID, uint256 _ruling) external override {... */\n      pop\n      pop\n      jump\t// out\n        /* \"contracts/HRSKleros.sol\":11379:11744  function withdraw() external {... */\n    tag_99:\n        /* \"contracts/HRSKleros.sol\":11419:11433  uint256 amount */\n      0x00\n        /* \"contracts/HRSKleros.sol\":11436:11454  pendingWithdrawals */\n      0x0f\n        /* \"contracts/HRSKleros.sol\":11436:11466  pendingWithdrawals[msg.sender] */\n      0x00\n        /* \"contracts/HRSKleros.sol\":11455:11465  msg.sender */\n      caller\n        /* \"contracts/HRSKleros.sol\":11436:11466  pendingWithdrawals[msg.sender] */\n      0xffffffffffffffffffffffffffffffffffffffff\n      and\n      0xffffffffffffffffffffffffffffffffffffffff\n      and\n      dup2\n      mstore\n      0x20\n      add\n      swap1\n      dup2\n      mstore\n      0x20\n      add\n      0x00\n      keccak256\n      sload\n        /* \"contracts/HRSKleros.sol\":11419:11466  uint256 amount = pendingWithdrawals[msg.sender] */\n      swap1\n      pop\n        /* \"contracts/HRSKleros.sol\":11494:11495  0 */\n      0x00\n        /* \"contracts/HRSKleros.sol\":11485:11491  amount */\n      dup2\n        /* \"contracts/HRSKleros.sol\":11485:11495  amount > 0 */\n      gt\n        /* \"contracts/HRSKleros.sol\":11477:11520  require(amount > 0, \"No funds to withdraw\") */\n      tag_300\n      jumpi\n      mload(0x40)\n      0x08c379a000000000000000000000000000000000000000000000000000000000\n      dup2\n      mstore\n      0x04\n      add\n      tag_301\n      swap1\n      tag_302\n      jump\t// in\n    tag_301:\n      mload(0x40)\n      dup1\n      swap2\n      sub\n      swap1\n      revert\n    tag_300:\n        /* \"contracts/HRSKleros.sol\":11564:11565  0 */\n      0x00\n        /* \"contracts/HRSKleros.sol\":11531:11549  pendingWithdrawals */\n      0x0f\n        /* \"contracts/HRSKleros.sol\":11531:11561  pendingWithdrawals[msg.sender] */\n      0x00\n        /* \"contracts/HRSKleros.sol\":11550:11560  msg.sender */\n      caller\n        /* \"contracts/HRSKleros.sol\":11531:11561  pendingWithdrawals[msg.sender] */\n      0xffffffffffffffffffffffffffffffffffffffff\n      and\n      0xffffffffffffffffffffffffffffffffffffffff\n      and\n      dup2\n      mstore\n      0x20\n      add\n      swap1\n      dup2\n      mstore\n      0x20\n      add\n      0x00\n      keccak256\n        /* \"contracts/HRSKleros.sol\":11531:11565  pendingWithdrawals[msg.sender] = 0 */\n      dup2\n      swap1\n      sstore\n      pop\n        /* \"contracts/HRSKleros.sol\":11577:11589  bool success */\n      0x00\n        /* \"contracts/HRSKleros.sol\":11603:11613  msg.sender */\n      caller\n        /* \"contracts/HRSKleros.sol\":11595:11619  payable(msg.sender).call */\n      0xffffffffffffffffffffffffffffffffffffffff\n      and\n        /* \"contracts/HRSKleros.sol\":11627:11633  amount */\n      dup3\n        /* \"contracts/HRSKleros.sol\":11595:11638  payable(msg.sender).call{value: amount}(\"\") */\n      mload(0x40)\n      tag_303\n      swap1\n      tag_304\n      jump\t// in\n    tag_303:\n      0x00\n      mload(0x40)\n      dup1\n      dup4\n      sub\n      dup2\n      dup6\n      dup8\n      gas\n      call\n      swap3\n      pop\n      pop\n      pop\n      returndatasize\n      dup1\n      0x00\n      dup2\n      eq\n      tag_307\n      jumpi\n      mload(0x40)\n      swap2\n      pop\n      and(add(returndatasize, 0x3f), not(0x1f))\n      dup3\n      add\n      0x40\n      mstore\n      returndatasize\n      dup3\n      mstore\n      returndatasize\n      0x00\n      0x20\n      dup5\n      add\n      returndatacopy\n      jump(tag_306)\n    tag_307:\n      0x60\n      swap2\n      pop\n    tag_306:\n      pop\n        /* \"contracts/HRSKleros.sol\":11576:11638  (bool success, ) = payable(msg.sender).call{value: amount}(\"\") */\n      pop\n      swap1\n      pop\n        /* \"contracts/HRSKleros.sol\":11657:11664  success */\n      dup1\n        /* \"contracts/HRSKleros.sol\":11649:11684  require(success, \"Transfer failed\") */\n      tag_308\n      jumpi\n      mload(0x40)\n      0x08c379a000000000000000000000000000000000000000000000000000000000\n      dup2\n      mstore\n      0x04\n      add\n      tag_309\n      swap1\n      tag_310\n      jump\t// in\n    tag_309:\n      mload(0x40)\n      dup1\n      swap2\n      sub\n      swap1\n      revert\n    tag_308:\n        /* \"contracts/HRSKleros.sol\":11717:11727  msg.sender */\n      caller\n        /* \"contracts/HRSKleros.sol\":11700:11736  FundsTransferred(msg.sender, amount) */\n      0xffffffffffffffffffffffffffffffffffffffff\n      and\n      0x8c9a4f13b67cb64d7c6aa1ae0c9bf07694af521a28b93e7060020810ab4bc59f\n        /* \"contracts/HRSKleros.sol\":11729:11735  amount */\n      dup4\n        /* \"contracts/HRSKleros.sol\":11700:11736  FundsTransferred(msg.sender, amount) */\n      mload(0x40)\n      tag_311\n      swap2\n      swap1\n      tag_66\n      jump\t// in\n    tag_311:\n      mload(0x40)\n      dup1\n      swap2\n      sub\n      swap1\n      log2\n        /* \"contracts/HRSKleros.sol\":11408:11744  {... */\n      pop\n      pop\n        /* \"contracts/HRSKleros.sol\":11379:11744  function withdraw() external {... */\n      jump\t// out\n        /* \"contracts/HRSKleros.sol\":3188:3552  function paySecurityDeposit() external payable {... */\n    tag_101:\n        /* \"contracts/HRSKleros.sol\":3268:3274  renter */\n      0x01\n      0x00\n      swap1\n      sload\n      swap1\n      0x0100\n      exp\n      swap1\n      div\n      0xffffffffffffffffffffffffffffffffffffffff\n      and\n        /* \"contracts/HRSKleros.sol\":3254:3274  msg.sender == renter */\n      0xffffffffffffffffffffffffffffffffffffffff\n      and\n        /* \"contracts/HRSKleros.sol\":3254:3264  msg.sender */\n      caller\n        /* \"contracts/HRSKleros.sol\":3254:3274  msg.sender == renter */\n      0xffffffffffffffffffffffffffffffffffffffff\n      and\n      eq\n        /* \"contracts/HRSKleros.sol\":3246:3315  require(msg.sender == renter, \"Only renter can pay security deposit\") */\n      tag_313\n      jumpi\n      mload(0x40)\n      0x08c379a000000000000000000000000000000000000000000000000000000000\n      dup2\n      mstore\n      0x04\n      add\n      tag_314\n      swap1\n      tag_315\n      jump\t// in\n    tag_314:\n      mload(0x40)\n      dup1\n      swap2\n      sub\n      swap1\n      revert\n    tag_313:\n        /* \"contracts/HRSKleros.sol\":3335:3343  isActive */\n      0x0d\n      0x00\n      swap1\n      sload\n      swap1\n      0x0100\n      exp\n      swap1\n      div\n      0xff\n      and\n        /* \"contracts/HRSKleros.sol\":3334:3343  !isActive */\n      iszero\n        /* \"contracts/HRSKleros.sol\":3326:3374  require(!isActive, \"Contract is already active\") */\n      tag_316\n      jumpi\n      mload(0x40)\n      0x08c379a000000000000000000000000000000000000000000000000000000000\n      dup2\n      mstore\n      0x04\n      add\n      tag_317\n      swap1\n      tag_318\n      jump\t// in\n    tag_317:\n      mload(0x40)\n      dup1\n      swap2\n      sub\n      swap1\n      revert\n    tag_316:\n        /* \"contracts/HRSKleros.sol\":3406:3421  securityDeposit */\n      sload(0x02)\n        /* \"contracts/HRSKleros.sol\":3393:3402  msg.value */\n      callvalue\n        /* \"contracts/HRSKleros.sol\":3393:3421  msg.value == securityDeposit */\n      eq\n        /* \"contracts/HRSKleros.sol\":3385:3459  require(msg.value == securityDeposit, \"Incorrect security deposit amount\") */\n      tag_319\n      jumpi\n      mload(0x40)\n      0x08c379a000000000000000000000000000000000000000000000000000000000\n      dup2\n      mstore\n      0x04\n      add\n      tag_320\n      swap1\n      tag_321\n      jump\t// in\n    tag_320:\n      mload(0x40)\n      dup1\n      swap2\n      sub\n      swap1\n      revert\n    tag_319:\n        /* \"contracts/HRSKleros.sol\":3494:3498  true */\n      0x01\n        /* \"contracts/HRSKleros.sol\":3470:3491  isSecurityDepositPaid */\n      0x0d\n      0x01\n        /* \"contracts/HRSKleros.sol\":3470:3498  isSecurityDepositPaid = true */\n      0x0100\n      exp\n      dup2\n      sload\n      dup2\n      0xff\n      mul\n      not\n      and\n      swap1\n      dup4\n      iszero\n      iszero\n      mul\n      or\n      swap1\n      sstore\n      pop\n        /* \"contracts/HRSKleros.sol\":3514:3544  SecurityDepositPaid(msg.value) */\n      0x486ac935cf1ea9effd9e0a261bc42917b45f2fd45cc98def2bc34d47f216937c\n        /* \"contracts/HRSKleros.sol\":3534:3543  msg.value */\n      callvalue\n        /* \"contracts/HRSKleros.sol\":3514:3544  SecurityDepositPaid(msg.value) */\n      mload(0x40)\n      tag_322\n      swap2\n      swap1\n      tag_66\n      jump\t// in\n    tag_322:\n      mload(0x40)\n      dup1\n      swap2\n      sub\n      swap1\n      log1\n        /* \"contracts/HRSKleros.sol\":3188:3552  function paySecurityDeposit() external payable {... */\n      jump\t// out\n        /* \"contracts/HRSKleros.sol\":1142:1178  bool public renterCounterEstimateSet */\n    tag_104:\n      0x0d\n      0x07\n      swap1\n      sload\n      swap1\n      0x0100\n      exp\n      swap1\n      div\n      0xff\n      and\n      dup2\n      jump\t// out\n        /* \"contracts/HRSKleros.sol\":612:640  uint256 public rentStartDate */\n    tag_108:\n      sload(0x05)\n      dup2\n      jump\t// out\n        /* \"contracts/HRSKleros.sol\":1068:1097  bool public rentalPeriodEnded */\n    tag_112:\n      0x0d\n      0x05\n      swap1\n      sload\n      swap1\n      0x0100\n      exp\n      swap1\n      div\n      0xff\n      and\n      dup2\n      jump\t// out\n        /* \"contracts/HRSKleros.sol\":1187:1212  IArbitrator public kleros */\n    tag_116:\n      0x0d\n      0x08\n      swap1\n      sload\n      swap1\n      0x0100\n      exp\n      swap1\n      div\n      0xffffffffffffffffffffffffffffffffffffffff\n      and\n      dup2\n      jump\t// out\n        /* \"contracts/HRSKleros.sol\":12937:13049  function getArbitrationCost() public view returns (uint256) {... */\n    tag_121:\n        /* \"contracts/HRSKleros.sol\":12988:12995  uint256 */\n      0x00\n        /* \"contracts/HRSKleros.sol\":13015:13021  kleros */\n      0x0d\n      0x08\n      swap1\n      sload\n      swap1\n      0x0100\n      exp\n      swap1\n      div\n      0xffffffffffffffffffffffffffffffffffffffff\n      and\n        /* \"contracts/HRSKleros.sol\":13015:13037  kleros.arbitrationCost */\n      0xffffffffffffffffffffffffffffffffffffffff\n      and\n      0xf7434ea9\n        /* \"contracts/HRSKleros.sol\":13015:13041  kleros.arbitrationCost(\"\") */\n      mload(0x40)\n      dup2\n      0xffffffff\n      and\n      0xe0\n      shl\n      dup2\n      mstore\n      0x04\n      add\n      tag_324\n      swap1\n      tag_258\n      jump\t// in\n    tag_324:\n      0x20\n      mload(0x40)\n      dup1\n      dup4\n      sub\n      dup2\n      dup7\n      gas\n      staticcall\n      iszero\n      dup1\n      iszero\n      tag_326\n      jumpi\n      returndatasize\n      0x00\n      dup1\n      returndatacopy\n      revert(0x00, returndatasize)\n    tag_326:\n      pop\n      pop\n      pop\n      pop\n      mload(0x40)\n      returndatasize\n      not(0x1f)\n      0x1f\n      dup3\n      add\n      and\n      dup3\n      add\n      dup1\n      0x40\n      mstore\n      pop\n      dup2\n      add\n      swap1\n      tag_327\n      swap2\n      swap1\n      tag_262\n      jump\t// in\n    tag_327:\n        /* \"contracts/HRSKleros.sol\":13008:13041  return kleros.arbitrationCost(\"\") */\n      swap1\n      pop\n        /* \"contracts/HRSKleros.sol\":12937:13049  function getArbitrationCost() public view returns (uint256) {... */\n      swap1\n      jump\t// out\n        /* \"contracts/HRSKleros.sol\":1035:1061  bool public renterAccepted */\n    tag_125:\n      0x0d\n      0x04\n      swap1\n      sload\n      swap1\n      0x0100\n      exp\n      swap1\n      div\n      0xff\n      and\n      dup2\n      jump\t// out\n        /* \"contracts/HRSKleros.sol\":864:894  uint256 public arbitrationCost */\n    tag_129:\n      sload(0x0c)\n      dup2\n      jump\t// out\n        /* \"contracts/HRSKleros.sol\":681:703  uint256 public dueRent */\n    tag_133:\n      sload(0x07)\n      dup2\n      jump\t// out\n        /* \"contracts/HRSKleros.sol\":12586:12695  function getContractBalance() external view returns (uint256) {... */\n    tag_137:\n        /* \"contracts/HRSKleros.sol\":12639:12646  uint256 */\n      0x00\n        /* \"contracts/HRSKleros.sol\":12666:12687  address(this).balance */\n      selfbalance\n        /* \"contracts/HRSKleros.sol\":12659:12687  return address(this).balance */\n      swap1\n      pop\n        /* \"contracts/HRSKleros.sol\":12586:12695  function getContractBalance() external view returns (uint256) {... */\n      swap1\n      jump\t// out\n        /* \"contracts/HRSKleros.sol\":1104:1135  bool public landlordEstimateSet */\n    tag_141:\n      0x0d\n      0x06\n      swap1\n      sload\n      swap1\n      0x0100\n      exp\n      swap1\n      div\n      0xff\n      and\n      dup2\n      jump\t// out\n        /* \"contracts/HRSKleros.sol\":11876:11988  function getRenterBalance() external view returns (uint256) {... */\n    tag_145:\n        /* \"contracts/HRSKleros.sol\":11927:11934  uint256 */\n      0x00\n        /* \"contracts/HRSKleros.sol\":11954:11972  pendingWithdrawals */\n      0x0f\n        /* \"contracts/HRSKleros.sol\":11954:11980  pendingWithdrawals[renter] */\n      0x00\n        /* \"contracts/HRSKleros.sol\":11973:11979  renter */\n      0x01\n      0x00\n      swap1\n      sload\n      swap1\n      0x0100\n      exp\n      swap1\n      div\n      0xffffffffffffffffffffffffffffffffffffffff\n      and\n        /* \"contracts/HRSKleros.sol\":11954:11980  pendingWithdrawals[renter] */\n      0xffffffffffffffffffffffffffffffffffffffff\n      and\n      0xffffffffffffffffffffffffffffffffffffffff\n      and\n      dup2\n      mstore\n      0x20\n      add\n      swap1\n      dup2\n      mstore\n      0x20\n      add\n      0x00\n      keccak256\n      sload\n        /* \"contracts/HRSKleros.sol\":11947:11980  return pendingWithdrawals[renter] */\n      swap1\n      pop\n        /* \"contracts/HRSKleros.sol\":11876:11988  function getRenterBalance() external view returns (uint256) {... */\n      swap1\n      jump\t// out\n        /* \"contracts/HRSKleros.sol\":12814:12929  function getCurrentSecurityDeposit() public view returns (uint256) {... */\n    tag_149:\n        /* \"contracts/HRSKleros.sol\":12872:12879  uint256 */\n      0x00\n        /* \"contracts/HRSKleros.sol\":12899:12921  currentSecurityDeposit */\n      sload(0x0b)\n        /* \"contracts/HRSKleros.sol\":12892:12921  return currentSecurityDeposit */\n      swap1\n      pop\n        /* \"contracts/HRSKleros.sol\":12814:12929  function getCurrentSecurityDeposit() public view returns (uint256) {... */\n      swap1\n      jump\t// out\n        /* \"contracts/HRSKleros.sol\":4301:4752  function recordUtilities(uint256 _utilities) external {... */\n    tag_154:\n        /* \"contracts/HRSKleros.sol\":4388:4396  landlord */\n      0x00\n      dup1\n      sload\n      swap1\n      0x0100\n      exp\n      swap1\n      div\n      0xffffffffffffffffffffffffffffffffffffffff\n      and\n        /* \"contracts/HRSKleros.sol\":4374:4396  msg.sender == landlord */\n      0xffffffffffffffffffffffffffffffffffffffff\n      and\n        /* \"contracts/HRSKleros.sol\":4374:4384  msg.sender */\n      caller\n        /* \"contracts/HRSKleros.sol\":4374:4396  msg.sender == landlord */\n      0xffffffffffffffffffffffffffffffffffffffff\n      and\n      eq\n        /* \"contracts/HRSKleros.sol\":4366:4435  require(msg.sender == landlord, \"Only landlord can record utilities\") */\n      tag_332\n      jumpi\n      mload(0x40)\n      0x08c379a000000000000000000000000000000000000000000000000000000000\n      dup2\n      mstore\n      0x04\n      add\n      tag_333\n      swap1\n      tag_334\n      jump\t// in\n    tag_333:\n      mload(0x40)\n      dup1\n      swap2\n      sub\n      swap1\n      revert\n    tag_332:\n        /* \"contracts/HRSKleros.sol\":4454:4462  isActive */\n      0x0d\n      0x00\n      swap1\n      sload\n      swap1\n      0x0100\n      exp\n      swap1\n      div\n      0xff\n      and\n        /* \"contracts/HRSKleros.sol\":4446:4489  require(isActive, \"Contract is not active\") */\n      tag_335\n      jumpi\n      mload(0x40)\n      0x08c379a000000000000000000000000000000000000000000000000000000000\n      dup2\n      mstore\n      0x04\n      add\n      tag_336\n      swap1\n      tag_248\n      jump\t// in\n    tag_336:\n      mload(0x40)\n      dup1\n      swap2\n      sub\n      swap1\n      revert\n    tag_335:\n        /* \"contracts/HRSKleros.sol\":4524:4542  rentPeriodInMonths */\n      sload(0x04)\n        /* \"contracts/HRSKleros.sol\":4508:4520  currentMonth */\n      sload(0x06)\n        /* \"contracts/HRSKleros.sol\":4508:4542  currentMonth <= rentPeriodInMonths */\n      gt\n      iszero\n        /* \"contracts/HRSKleros.sol\":4500:4568  require(currentMonth <= rentPeriodInMonths, \"Rent period has ended\") */\n      tag_337\n      jumpi\n      mload(0x40)\n      0x08c379a000000000000000000000000000000000000000000000000000000000\n      dup2\n      mstore\n      0x04\n      add\n      tag_338\n      swap1\n      tag_339\n      jump\t// in\n    tag_338:\n      mload(0x40)\n      dup1\n      swap2\n      sub\n      swap1\n      revert\n    tag_337:\n        /* \"contracts/HRSKleros.sol\":4618:4628  _utilities */\n      dup1\n        /* \"contracts/HRSKleros.sol\":4579:4591  monthlyRents */\n      0x0e\n        /* \"contracts/HRSKleros.sol\":4579:4605  monthlyRents[currentMonth] */\n      0x00\n        /* \"contracts/HRSKleros.sol\":4592:4604  currentMonth */\n      sload(0x06)\n        /* \"contracts/HRSKleros.sol\":4579:4605  monthlyRents[currentMonth] */\n      dup2\n      mstore\n      0x20\n      add\n      swap1\n      dup2\n      mstore\n      0x20\n      add\n      0x00\n      keccak256\n        /* \"contracts/HRSKleros.sol\":4579:4615  monthlyRents[currentMonth].utilities */\n      0x01\n      add\n        /* \"contracts/HRSKleros.sol\":4579:4628  monthlyRents[currentMonth].utilities = _utilities */\n      dup2\n      swap1\n      sstore\n      pop\n        /* \"contracts/HRSKleros.sol\":4677:4685  baseRent */\n      sload(0x03)\n        /* \"contracts/HRSKleros.sol\":4639:4651  monthlyRents */\n      0x0e\n        /* \"contracts/HRSKleros.sol\":4639:4665  monthlyRents[currentMonth] */\n      0x00\n        /* \"contracts/HRSKleros.sol\":4652:4664  currentMonth */\n      sload(0x06)\n        /* \"contracts/HRSKleros.sol\":4639:4665  monthlyRents[currentMonth] */\n      dup2\n      mstore\n      0x20\n      add\n      swap1\n      dup2\n      mstore\n      0x20\n      add\n      0x00\n      keccak256\n        /* \"contracts/HRSKleros.sol\":4639:4674  monthlyRents[currentMonth].baseRent */\n      0x00\n      add\n        /* \"contracts/HRSKleros.sol\":4639:4685  monthlyRents[currentMonth].baseRent = baseRent */\n      dup2\n      swap1\n      sstore\n      pop\n        /* \"contracts/HRSKleros.sol\":4701:4744  UtilitiesRecorded(currentMonth, _utilities) */\n      0xf75d23e75691b7209bf24071476b3702a8412a369b26fd3ad012d19630f65a2b\n        /* \"contracts/HRSKleros.sol\":4719:4731  currentMonth */\n      sload(0x06)\n        /* \"contracts/HRSKleros.sol\":4733:4743  _utilities */\n      dup3\n        /* \"contracts/HRSKleros.sol\":4701:4744  UtilitiesRecorded(currentMonth, _utilities) */\n      mload(0x40)\n      tag_340\n      swap3\n      swap2\n      swap1\n      tag_298\n      jump\t// in\n    tag_340:\n      mload(0x40)\n      dup1\n      swap2\n      sub\n      swap1\n      log1\n        /* \"contracts/HRSKleros.sol\":4301:4752  function recordUtilities(uint256 _utilities) external {... */\n      pop\n      jump\t// out\n        /* \"contracts/HRSKleros.sol\":746:782  uint256 public renterCounterEstimate */\n    tag_157:\n      sload(0x09)\n      dup2\n      jump\t// out\n        /* \"contracts/HRSKleros.sol\":647:674  uint256 public currentMonth */\n    tag_161:\n      sload(0x06)\n      dup2\n      jump\t// out\n        /* \"contracts/HRSKleros.sol\":572:605  uint256 public rentPeriodInMonths */\n    tag_165:\n      sload(0x04)\n      dup2\n      jump\t// out\n        /* \"contracts/HRSKleros.sol\":3560:3924  function activateContract() external {... */\n    tag_169:\n        /* \"contracts/HRSKleros.sol\":3630:3638  landlord */\n      0x00\n      dup1\n      sload\n      swap1\n      0x0100\n      exp\n      swap1\n      div\n      0xffffffffffffffffffffffffffffffffffffffff\n      and\n        /* \"contracts/HRSKleros.sol\":3616:3638  msg.sender == landlord */\n      0xffffffffffffffffffffffffffffffffffffffff\n      and\n        /* \"contracts/HRSKleros.sol\":3616:3626  msg.sender */\n      caller\n        /* \"contracts/HRSKleros.sol\":3616:3638  msg.sender == landlord */\n      0xffffffffffffffffffffffffffffffffffffffff\n      and\n      eq\n        /* \"contracts/HRSKleros.sol\":3608:3682  require(msg.sender == landlord, \"Only landlord can activate the contract\") */\n      tag_342\n      jumpi\n      mload(0x40)\n      0x08c379a000000000000000000000000000000000000000000000000000000000\n      dup2\n      mstore\n      0x04\n      add\n      tag_343\n      swap1\n      tag_344\n      jump\t// in\n    tag_343:\n      mload(0x40)\n      dup1\n      swap2\n      sub\n      swap1\n      revert\n    tag_342:\n        /* \"contracts/HRSKleros.sol\":3701:3722  isSecurityDepositPaid */\n      0x0d\n      0x01\n      swap1\n      sload\n      swap1\n      0x0100\n      exp\n      swap1\n      div\n      0xff\n      and\n        /* \"contracts/HRSKleros.sol\":3693:3762  require(isSecurityDepositPaid, \"Security deposit must be paid first\") */\n      tag_345\n      jumpi\n      mload(0x40)\n      0x08c379a000000000000000000000000000000000000000000000000000000000\n      dup2\n      mstore\n      0x04\n      add\n      tag_346\n      swap1\n      tag_347\n      jump\t// in\n    tag_346:\n      mload(0x40)\n      dup1\n      swap2\n      sub\n      swap1\n      revert\n    tag_345:\n        /* \"contracts/HRSKleros.sol\":3782:3790  isActive */\n      0x0d\n      0x00\n      swap1\n      sload\n      swap1\n      0x0100\n      exp\n      swap1\n      div\n      0xff\n      and\n        /* \"contracts/HRSKleros.sol\":3781:3790  !isActive */\n      iszero\n        /* \"contracts/HRSKleros.sol\":3773:3821  require(!isActive, \"Contract is already active\") */\n      tag_348\n      jumpi\n      mload(0x40)\n      0x08c379a000000000000000000000000000000000000000000000000000000000\n      dup2\n      mstore\n      0x04\n      add\n      tag_349\n      swap1\n      tag_318\n      jump\t// in\n    tag_349:\n      mload(0x40)\n      dup1\n      swap2\n      sub\n      swap1\n      revert\n    tag_348:\n        /* \"contracts/HRSKleros.sol\":3843:3847  true */\n      0x01\n        /* \"contracts/HRSKleros.sol\":3832:3840  isActive */\n      0x0d\n      0x00\n        /* \"contracts/HRSKleros.sol\":3832:3847  isActive = true */\n      0x0100\n      exp\n      dup2\n      sload\n      dup2\n      0xff\n      mul\n      not\n      and\n      swap1\n      dup4\n      iszero\n      iszero\n      mul\n      or\n      swap1\n      sstore\n      pop\n        /* \"contracts/HRSKleros.sol\":3874:3889  block.timestamp */\n      timestamp\n        /* \"contracts/HRSKleros.sol\":3858:3871  rentStartDate */\n      0x05\n        /* \"contracts/HRSKleros.sol\":3858:3889  rentStartDate = block.timestamp */\n      dup2\n      swap1\n      sstore\n      pop\n        /* \"contracts/HRSKleros.sol\":3915:3916  1 */\n      0x01\n        /* \"contracts/HRSKleros.sol\":3900:3912  currentMonth */\n      0x06\n        /* \"contracts/HRSKleros.sol\":3900:3916  currentMonth = 1 */\n      dup2\n      swap1\n      sstore\n      pop\n        /* \"contracts/HRSKleros.sol\":3560:3924  function activateContract() external {... */\n      jump\t// out\n        /* \"contracts/HRSKleros.sol\":4760:5891  function payRent() external payable {... */\n    tag_171:\n        /* \"contracts/HRSKleros.sol\":4829:4835  renter */\n      0x01\n      0x00\n      swap1\n      sload\n      swap1\n      0x0100\n      exp\n      swap1\n      div\n      0xffffffffffffffffffffffffffffffffffffffff\n      and\n        /* \"contracts/HRSKleros.sol\":4815:4835  msg.sender == renter */\n      0xffffffffffffffffffffffffffffffffffffffff\n      and\n        /* \"contracts/HRSKleros.sol\":4815:4825  msg.sender */\n      caller\n        /* \"contracts/HRSKleros.sol\":4815:4835  msg.sender == renter */\n      0xffffffffffffffffffffffffffffffffffffffff\n      and\n      eq\n        /* \"contracts/HRSKleros.sol\":4807:4864  require(msg.sender == renter, \"Only renter can pay rent\") */\n      tag_351\n      jumpi\n      mload(0x40)\n      0x08c379a000000000000000000000000000000000000000000000000000000000\n      dup2\n      mstore\n      0x04\n      add\n      tag_352\n      swap1\n      tag_353\n      jump\t// in\n    tag_352:\n      mload(0x40)\n      dup1\n      swap2\n      sub\n      swap1\n      revert\n    tag_351:\n        /* \"contracts/HRSKleros.sol\":4883:4891  isActive */\n      0x0d\n      0x00\n      swap1\n      sload\n      swap1\n      0x0100\n      exp\n      swap1\n      div\n      0xff\n      and\n        /* \"contracts/HRSKleros.sol\":4875:4918  require(isActive, \"Contract is not active\") */\n      tag_354\n      jumpi\n      mload(0x40)\n      0x08c379a000000000000000000000000000000000000000000000000000000000\n      dup2\n      mstore\n      0x04\n      add\n      tag_355\n      swap1\n      tag_248\n      jump\t// in\n    tag_355:\n      mload(0x40)\n      dup1\n      swap2\n      sub\n      swap1\n      revert\n    tag_354:\n        /* \"contracts/HRSKleros.sol\":4953:4971  rentPeriodInMonths */\n      sload(0x04)\n        /* \"contracts/HRSKleros.sol\":4937:4949  currentMonth */\n      sload(0x06)\n        /* \"contracts/HRSKleros.sol\":4937:4971  currentMonth <= rentPeriodInMonths */\n      gt\n      iszero\n        /* \"contracts/HRSKleros.sol\":4929:4997  require(currentMonth <= rentPeriodInMonths, \"Rent period has ended\") */\n      tag_356\n      jumpi\n      mload(0x40)\n      0x08c379a000000000000000000000000000000000000000000000000000000000\n      dup2\n      mstore\n      0x04\n      add\n      tag_357\n      swap1\n      tag_339\n      jump\t// in\n    tag_357:\n      mload(0x40)\n      dup1\n      swap2\n      sub\n      swap1\n      revert\n    tag_356:\n        /* \"contracts/HRSKleros.sol\":5010:5041  MonthlyRent storage currentRent */\n      0x00\n        /* \"contracts/HRSKleros.sol\":5044:5056  monthlyRents */\n      0x0e\n        /* \"contracts/HRSKleros.sol\":5044:5070  monthlyRents[currentMonth] */\n      0x00\n        /* \"contracts/HRSKleros.sol\":5057:5069  currentMonth */\n      sload(0x06)\n        /* \"contracts/HRSKleros.sol\":5044:5070  monthlyRents[currentMonth] */\n      dup2\n      mstore\n      0x20\n      add\n      swap1\n      dup2\n      mstore\n      0x20\n      add\n      0x00\n      keccak256\n        /* \"contracts/HRSKleros.sol\":5010:5070  MonthlyRent storage currentRent = monthlyRents[currentMonth] */\n      swap1\n      pop\n        /* \"contracts/HRSKleros.sol\":5090:5101  currentRent */\n      dup1\n        /* \"contracts/HRSKleros.sol\":5090:5106  currentRent.paid */\n      0x03\n      add\n      0x00\n      swap1\n      sload\n      swap1\n      0x0100\n      exp\n      swap1\n      div\n      0xff\n      and\n        /* \"contracts/HRSKleros.sol\":5089:5106  !currentRent.paid */\n      iszero\n        /* \"contracts/HRSKleros.sol\":5081:5152  require(!currentRent.paid, \"Rent for this month has already been paid\") */\n      tag_358\n      jumpi\n      mload(0x40)\n      0x08c379a000000000000000000000000000000000000000000000000000000000\n      dup2\n      mstore\n      0x04\n      add\n      tag_359\n      swap1\n      tag_360\n      jump\t// in\n    tag_359:\n      mload(0x40)\n      dup1\n      swap2\n      sub\n      swap1\n      revert\n    tag_358:\n        /* \"contracts/HRSKleros.sol\":5195:5196  0 */\n      0x00\n        /* \"contracts/HRSKleros.sol\":5171:5182  currentRent */\n      dup2\n        /* \"contracts/HRSKleros.sol\":5171:5192  currentRent.utilities */\n      0x01\n      add\n      sload\n        /* \"contracts/HRSKleros.sol\":5171:5196  currentRent.utilities > 0 */\n      gt\n        /* \"contracts/HRSKleros.sol\":5163:5248  require(currentRent.utilities > 0, \"Utilities for this month have not been recorded\") */\n      tag_361\n      jumpi\n      mload(0x40)\n      0x08c379a000000000000000000000000000000000000000000000000000000000\n      dup2\n      mstore\n      0x04\n      add\n      tag_362\n      swap1\n      tag_363\n      jump\t// in\n    tag_362:\n      mload(0x40)\n      dup1\n      swap2\n      sub\n      swap1\n      revert\n    tag_361:\n        /* \"contracts/HRSKleros.sol\":5261:5278  uint256 totalRent */\n      0x00\n        /* \"contracts/HRSKleros.sol\":5328:5335  dueRent */\n      sload(0x07)\n        /* \"contracts/HRSKleros.sol\":5304:5315  currentRent */\n      dup3\n        /* \"contracts/HRSKleros.sol\":5304:5325  currentRent.utilities */\n      0x01\n      add\n      sload\n        /* \"contracts/HRSKleros.sol\":5281:5292  currentRent */\n      dup4\n        /* \"contracts/HRSKleros.sol\":5281:5301  currentRent.baseRent */\n      0x00\n      add\n      sload\n        /* \"contracts/HRSKleros.sol\":5281:5325  currentRent.baseRent + currentRent.utilities */\n      tag_364\n      swap2\n      swap1\n      tag_291\n      jump\t// in\n    tag_364:\n        /* \"contracts/HRSKleros.sol\":5281:5335  currentRent.baseRent + currentRent.utilities + dueRent */\n      tag_365\n      swap2\n      swap1\n      tag_291\n      jump\t// in\n    tag_365:\n        /* \"contracts/HRSKleros.sol\":5261:5335  uint256 totalRent = currentRent.baseRent + currentRent.utilities + dueRent */\n      swap1\n      pop\n        /* \"contracts/HRSKleros.sol\":5367:5376  totalRent */\n      dup1\n        /* \"contracts/HRSKleros.sol\":5354:5363  msg.value */\n      callvalue\n        /* \"contracts/HRSKleros.sol\":5354:5376  msg.value == totalRent */\n      eq\n        /* \"contracts/HRSKleros.sol\":5346:5402  require(msg.value == totalRent, \"Incorrect rent amount\") */\n      tag_366\n      jumpi\n      mload(0x40)\n      0x08c379a000000000000000000000000000000000000000000000000000000000\n      dup2\n      mstore\n      0x04\n      add\n      tag_367\n      swap1\n      tag_368\n      jump\t// in\n    tag_367:\n      mload(0x40)\n      dup1\n      swap2\n      sub\n      swap1\n      revert\n    tag_366:\n        /* \"contracts/HRSKleros.sol\":5434:5438  true */\n      0x01\n        /* \"contracts/HRSKleros.sol\":5415:5426  currentRent */\n      dup3\n        /* \"contracts/HRSKleros.sol\":5415:5431  currentRent.paid */\n      0x03\n      add\n      0x00\n        /* \"contracts/HRSKleros.sol\":5415:5438  currentRent.paid = true */\n      0x0100\n      exp\n      dup2\n      sload\n      dup2\n      0xff\n      mul\n      not\n      and\n      swap1\n      dup4\n      iszero\n      iszero\n      mul\n      or\n      swap1\n      sstore\n      pop\n        /* \"contracts/HRSKleros.sol\":5459:5460  0 */\n      0x00\n        /* \"contracts/HRSKleros.sol\":5449:5456  dueRent */\n      0x07\n        /* \"contracts/HRSKleros.sol\":5449:5460  dueRent = 0 */\n      dup2\n      swap1\n      sstore\n      pop\n        /* \"contracts/HRSKleros.sol\":5478:5511  RentPaid(currentMonth, totalRent) */\n      0xa0d112ed080c1b1a94b838ad981a23746be2a4670fd4bf157224e72cdd5dfdde\n        /* \"contracts/HRSKleros.sol\":5487:5499  currentMonth */\n      sload(0x06)\n        /* \"contracts/HRSKleros.sol\":5501:5510  totalRent */\n      dup3\n        /* \"contracts/HRSKleros.sol\":5478:5511  RentPaid(currentMonth, totalRent) */\n      mload(0x40)\n      tag_369\n      swap3\n      swap2\n      swap1\n      tag_298\n      jump\t// in\n    tag_369:\n      mload(0x40)\n      dup1\n      swap2\n      sub\n      swap1\n      log1\n        /* \"contracts/HRSKleros.sol\":5620:5629  totalRent */\n      dup1\n        /* \"contracts/HRSKleros.sol\":5588:5606  pendingWithdrawals */\n      0x0f\n        /* \"contracts/HRSKleros.sol\":5588:5616  pendingWithdrawals[landlord] */\n      0x00\n        /* \"contracts/HRSKleros.sol\":5607:5615  landlord */\n      dup1\n      0x00\n      swap1\n      sload\n      swap1\n      0x0100\n      exp\n      swap1\n      div\n      0xffffffffffffffffffffffffffffffffffffffff\n      and\n        /* \"contracts/HRSKleros.sol\":5588:5616  pendingWithdrawals[landlord] */\n      0xffffffffffffffffffffffffffffffffffffffff\n      and\n      0xffffffffffffffffffffffffffffffffffffffff\n      and\n      dup2\n      mstore\n      0x20\n      add\n      swap1\n      dup2\n      mstore\n      0x20\n      add\n      0x00\n      keccak256\n      0x00\n        /* \"contracts/HRSKleros.sol\":5588:5629  pendingWithdrawals[landlord] += totalRent */\n      dup3\n      dup3\n      sload\n      tag_370\n      swap2\n      swap1\n      tag_291\n      jump\t// in\n    tag_370:\n      swap3\n      pop\n      pop\n      dup2\n      swap1\n      sstore\n      pop\n        /* \"contracts/HRSKleros.sol\":5665:5673  landlord */\n      0x00\n      dup1\n      sload\n      swap1\n      0x0100\n      exp\n      swap1\n      div\n      0xffffffffffffffffffffffffffffffffffffffff\n      and\n        /* \"contracts/HRSKleros.sol\":5645:5685  WithdrawalRequested(landlord, totalRent) */\n      0xffffffffffffffffffffffffffffffffffffffff\n      and\n      0xe670e4e82118d22a1f9ee18920455ebc958bae26a90a05d31d3378788b1b0e44\n        /* \"contracts/HRSKleros.sol\":5675:5684  totalRent */\n      dup3\n        /* \"contracts/HRSKleros.sol\":5645:5685  WithdrawalRequested(landlord, totalRent) */\n      mload(0x40)\n      tag_371\n      swap2\n      swap1\n      tag_66\n      jump\t// in\n    tag_371:\n      mload(0x40)\n      dup1\n      swap2\n      sub\n      swap1\n      log2\n        /* \"contracts/HRSKleros.sol\":5718:5736  rentPeriodInMonths */\n      sload(0x04)\n        /* \"contracts/HRSKleros.sol\":5702:5714  currentMonth */\n      sload(0x06)\n        /* \"contracts/HRSKleros.sol\":5702:5736  currentMonth == rentPeriodInMonths */\n      sub\n        /* \"contracts/HRSKleros.sol\":5698:5884  if (currentMonth == rentPeriodInMonths) {... */\n      tag_372\n      jumpi\n        /* \"contracts/HRSKleros.sol\":5773:5777  true */\n      0x01\n        /* \"contracts/HRSKleros.sol\":5753:5770  rentalPeriodEnded */\n      0x0d\n      0x05\n        /* \"contracts/HRSKleros.sol\":5753:5777  rentalPeriodEnded = true */\n      0x0100\n      exp\n      dup2\n      sload\n      dup2\n      0xff\n      mul\n      not\n      and\n      swap1\n      dup4\n      iszero\n      iszero\n      mul\n      or\n      swap1\n      sstore\n      pop\n        /* \"contracts/HRSKleros.sol\":5698:5884  if (currentMonth == rentPeriodInMonths) {... */\n      jump(tag_373)\n    tag_372:\n        /* \"contracts/HRSKleros.sol\":5858:5870  currentMonth */\n      0x06\n      0x00\n        /* \"contracts/HRSKleros.sol\":5858:5872  currentMonth++ */\n      dup2\n      sload\n      dup1\n      swap3\n      swap2\n      swap1\n      tag_374\n      swap1\n      tag_375\n      jump\t// in\n    tag_374:\n      swap2\n      swap1\n      pop\n      sstore\n      pop\n        /* \"contracts/HRSKleros.sol\":5698:5884  if (currentMonth == rentPeriodInMonths) {... */\n    tag_373:\n        /* \"contracts/HRSKleros.sol\":4796:5891  {... */\n      pop\n      pop\n        /* \"contracts/HRSKleros.sol\":4760:5891  function payRent() external payable {... */\n      jump\t// out\n        /* \"contracts/HRSKleros.sol\":3932:4293  function initializeCurrentSecurityDeposit() external {... */\n    tag_174:\n        /* \"contracts/HRSKleros.sol\":4018:4026  landlord */\n      0x00\n      dup1\n      sload\n      swap1\n      0x0100\n      exp\n      swap1\n      div\n      0xffffffffffffffffffffffffffffffffffffffff\n      and\n        /* \"contracts/HRSKleros.sol\":4004:4026  msg.sender == landlord */\n      0xffffffffffffffffffffffffffffffffffffffff\n      and\n        /* \"contracts/HRSKleros.sol\":4004:4014  msg.sender */\n      caller\n        /* \"contracts/HRSKleros.sol\":4004:4026  msg.sender == landlord */\n      0xffffffffffffffffffffffffffffffffffffffff\n      and\n      eq\n        /* \"contracts/HRSKleros.sol\":3996:4084  require(msg.sender == landlord, \"Only landlord can initialize current security deposit\") */\n      tag_377\n      jumpi\n      mload(0x40)\n      0x08c379a000000000000000000000000000000000000000000000000000000000\n      dup2\n      mstore\n      0x04\n      add\n      tag_378\n      swap1\n      tag_379\n      jump\t// in\n    tag_378:\n      mload(0x40)\n      dup1\n      swap2\n      sub\n      swap1\n      revert\n    tag_377:\n        /* \"contracts/HRSKleros.sol\":4103:4111  isActive */\n      0x0d\n      0x00\n      swap1\n      sload\n      swap1\n      0x0100\n      exp\n      swap1\n      div\n      0xff\n      and\n        /* \"contracts/HRSKleros.sol\":4095:4139  require(isActive, \"Contract must be active\") */\n      tag_380\n      jumpi\n      mload(0x40)\n      0x08c379a000000000000000000000000000000000000000000000000000000000\n      dup2\n      mstore\n      0x04\n      add\n      tag_381\n      swap1\n      tag_382\n      jump\t// in\n    tag_381:\n      mload(0x40)\n      dup1\n      swap2\n      sub\n      swap1\n      revert\n    tag_380:\n        /* \"contracts/HRSKleros.sol\":4184:4185  0 */\n      0x00\n        /* \"contracts/HRSKleros.sol\":4158:4180  currentSecurityDeposit */\n      sload(0x0b)\n        /* \"contracts/HRSKleros.sol\":4158:4185  currentSecurityDeposit == 0 */\n      eq\n        /* \"contracts/HRSKleros.sol\":4150:4234  require(currentSecurityDeposit == 0, \"Current security deposit already initialized\") */\n      tag_383\n      jumpi\n      mload(0x40)\n      0x08c379a000000000000000000000000000000000000000000000000000000000\n      dup2\n      mstore\n      0x04\n      add\n      tag_384\n      swap1\n      tag_385\n      jump\t// in\n    tag_384:\n      mload(0x40)\n      dup1\n      swap2\n      sub\n      swap1\n      revert\n    tag_383:\n        /* \"contracts/HRSKleros.sol\":4270:4285  securityDeposit */\n      sload(0x02)\n        /* \"contracts/HRSKleros.sol\":4245:4267  currentSecurityDeposit */\n      0x0b\n        /* \"contracts/HRSKleros.sol\":4245:4285  currentSecurityDeposit = securityDeposit */\n      dup2\n      swap1\n      sstore\n      pop\n        /* \"contracts/HRSKleros.sol\":3932:4293  function initializeCurrentSecurityDeposit() external {... */\n      jump\t// out\n        /* \"contracts/HRSKleros.sol\":789:813  uint256 public disputeID */\n    tag_177:\n      sload(0x0a)\n      dup2\n      jump\t// out\n        /* \"contracts/HRSKleros.sol\":1000:1028  bool public landlordAccepted */\n    tag_181:\n      0x0d\n      0x03\n      swap1\n      sload\n      swap1\n      0x0100\n      exp\n      swap1\n      div\n      0xff\n      and\n      dup2\n      jump\t// out\n        /* \"contracts/HRSKleros.sol\":8078:8484  function setRenterCounterEstimate(uint256 _renterCounterEstimate) external {... */\n    tag_186:\n        /* \"contracts/HRSKleros.sol\":8186:8192  renter */\n      0x01\n      0x00\n      swap1\n      sload\n      swap1\n      0x0100\n      exp\n      swap1\n      div\n      0xffffffffffffffffffffffffffffffffffffffff\n      and\n        /* \"contracts/HRSKleros.sol\":8172:8192  msg.sender == renter */\n      0xffffffffffffffffffffffffffffffffffffffff\n      and\n        /* \"contracts/HRSKleros.sol\":8172:8182  msg.sender */\n      caller\n        /* \"contracts/HRSKleros.sol\":8172:8192  msg.sender == renter */\n      0xffffffffffffffffffffffffffffffffffffffff\n      and\n      eq\n        /* \"contracts/HRSKleros.sol\":8164:8237  require(msg.sender == renter, \"Only renter can set the counter estimate\") */\n      tag_387\n      jumpi\n      mload(0x40)\n      0x08c379a000000000000000000000000000000000000000000000000000000000\n      dup2\n      mstore\n      0x04\n      add\n      tag_388\n      swap1\n      tag_389\n      jump\t// in\n    tag_388:\n      mload(0x40)\n      dup1\n      swap2\n      sub\n      swap1\n      revert\n    tag_387:\n        /* \"contracts/HRSKleros.sol\":8256:8275  landlordEstimateSet */\n      0x0d\n      0x06\n      swap1\n      sload\n      swap1\n      0x0100\n      exp\n      swap1\n      div\n      0xff\n      and\n        /* \"contracts/HRSKleros.sol\":8248:8319  require(landlordEstimateSet, \"Landlord must set damage estimate first\") */\n      tag_390\n      jumpi\n      mload(0x40)\n      0x08c379a000000000000000000000000000000000000000000000000000000000\n      dup2\n      mstore\n      0x04\n      add\n      tag_391\n      swap1\n      tag_392\n      jump\t// in\n    tag_391:\n      mload(0x40)\n      dup1\n      swap2\n      sub\n      swap1\n      revert\n    tag_390:\n        /* \"contracts/HRSKleros.sol\":8354:8376  _renterCounterEstimate */\n      dup1\n        /* \"contracts/HRSKleros.sol\":8330:8351  renterCounterEstimate */\n      0x09\n        /* \"contracts/HRSKleros.sol\":8330:8376  renterCounterEstimate = _renterCounterEstimate */\n      dup2\n      swap1\n      sstore\n      pop\n        /* \"contracts/HRSKleros.sol\":8414:8418  true */\n      0x01\n        /* \"contracts/HRSKleros.sol\":8387:8411  renterCounterEstimateSet */\n      0x0d\n      0x07\n        /* \"contracts/HRSKleros.sol\":8387:8418  renterCounterEstimateSet = true */\n      0x0100\n      exp\n      dup2\n      sload\n      dup2\n      0xff\n      mul\n      not\n      and\n      swap1\n      dup4\n      iszero\n      iszero\n      mul\n      or\n      swap1\n      sstore\n      pop\n        /* \"contracts/HRSKleros.sol\":8434:8476  CounterEstimateSet(_renterCounterEstimate) */\n      0x0f2792b28c50f2f7eece39e74a2b4f0f1ce15a79acb72dd811686e827aed030b\n        /* \"contracts/HRSKleros.sol\":8453:8475  _renterCounterEstimate */\n      dup2\n        /* \"contracts/HRSKleros.sol\":8434:8476  CounterEstimateSet(_renterCounterEstimate) */\n      mload(0x40)\n      tag_393\n      swap2\n      swap1\n      tag_66\n      jump\t// in\n    tag_393:\n      mload(0x40)\n      dup1\n      swap2\n      sub\n      swap1\n      log1\n        /* \"contracts/HRSKleros.sol\":8078:8484  function setRenterCounterEstimate(uint256 _renterCounterEstimate) external {... */\n      pop\n      jump\t// out\n        /* \"contracts/HRSKleros.sol\":5899:6717  function skipRentPayment() external {... */\n    tag_189:\n        /* \"contracts/HRSKleros.sol\":5968:5974  renter */\n      0x01\n      0x00\n      swap1\n      sload\n      swap1\n      0x0100\n      exp\n      swap1\n      div\n      0xffffffffffffffffffffffffffffffffffffffff\n      and\n        /* \"contracts/HRSKleros.sol\":5954:5974  msg.sender == renter */\n      0xffffffffffffffffffffffffffffffffffffffff\n      and\n        /* \"contracts/HRSKleros.sol\":5954:5964  msg.sender */\n      caller\n        /* \"contracts/HRSKleros.sol\":5954:5974  msg.sender == renter */\n      0xffffffffffffffffffffffffffffffffffffffff\n      and\n      eq\n        /* \"contracts/HRSKleros.sol\":5946:6012  require(msg.sender == renter, \"Only renter can skip rent payment\") */\n      tag_395\n      jumpi\n      mload(0x40)\n      0x08c379a000000000000000000000000000000000000000000000000000000000\n      dup2\n      mstore\n      0x04\n      add\n      tag_396\n      swap1\n      tag_397\n      jump\t// in\n    tag_396:\n      mload(0x40)\n      dup1\n      swap2\n      sub\n      swap1\n      revert\n    tag_395:\n        /* \"contracts/HRSKleros.sol\":6031:6039  isActive */\n      0x0d\n      0x00\n      swap1\n      sload\n      swap1\n      0x0100\n      exp\n      swap1\n      div\n      0xff\n      and\n        /* \"contracts/HRSKleros.sol\":6023:6066  require(isActive, \"Contract is not active\") */\n      tag_398\n      jumpi\n      mload(0x40)\n      0x08c379a000000000000000000000000000000000000000000000000000000000\n      dup2\n      mstore\n      0x04\n      add\n      tag_399\n      swap1\n      tag_248\n      jump\t// in\n    tag_399:\n      mload(0x40)\n      dup1\n      swap2\n      sub\n      swap1\n      revert\n    tag_398:\n        /* \"contracts/HRSKleros.sol\":6101:6119  rentPeriodInMonths */\n      sload(0x04)\n        /* \"contracts/HRSKleros.sol\":6085:6097  currentMonth */\n      sload(0x06)\n        /* \"contracts/HRSKleros.sol\":6085:6119  currentMonth <= rentPeriodInMonths */\n      gt\n      iszero\n        /* \"contracts/HRSKleros.sol\":6077:6145  require(currentMonth <= rentPeriodInMonths, \"Rent period has ended\") */\n      tag_400\n      jumpi\n      mload(0x40)\n      0x08c379a000000000000000000000000000000000000000000000000000000000\n      dup2\n      mstore\n      0x04\n      add\n      tag_401\n      swap1\n      tag_339\n      jump\t// in\n    tag_401:\n      mload(0x40)\n      dup1\n      swap2\n      sub\n      swap1\n      revert\n    tag_400:\n        /* \"contracts/HRSKleros.sol\":6158:6189  MonthlyRent storage currentRent */\n      0x00\n        /* \"contracts/HRSKleros.sol\":6192:6204  monthlyRents */\n      0x0e\n        /* \"contracts/HRSKleros.sol\":6192:6218  monthlyRents[currentMonth] */\n      0x00\n        /* \"contracts/HRSKleros.sol\":6205:6217  currentMonth */\n      sload(0x06)\n        /* \"contracts/HRSKleros.sol\":6192:6218  monthlyRents[currentMonth] */\n      dup2\n      mstore\n      0x20\n      add\n      swap1\n      dup2\n      mstore\n      0x20\n      add\n      0x00\n      keccak256\n        /* \"contracts/HRSKleros.sol\":6158:6218  MonthlyRent storage currentRent = monthlyRents[currentMonth] */\n      swap1\n      pop\n        /* \"contracts/HRSKleros.sol\":6238:6249  currentRent */\n      dup1\n        /* \"contracts/HRSKleros.sol\":6238:6254  currentRent.paid */\n      0x03\n      add\n      0x00\n      swap1\n      sload\n      swap1\n      0x0100\n      exp\n      swap1\n      div\n      0xff\n      and\n        /* \"contracts/HRSKleros.sol\":6237:6254  !currentRent.paid */\n      iszero\n        /* \"contracts/HRSKleros.sol\":6229:6300  require(!currentRent.paid, \"Rent for this month has already been paid\") */\n      tag_402\n      jumpi\n      mload(0x40)\n      0x08c379a000000000000000000000000000000000000000000000000000000000\n      dup2\n      mstore\n      0x04\n      add\n      tag_403\n      swap1\n      tag_360\n      jump\t// in\n    tag_403:\n      mload(0x40)\n      dup1\n      swap2\n      sub\n      swap1\n      revert\n    tag_402:\n        /* \"contracts/HRSKleros.sol\":6343:6344  0 */\n      0x00\n        /* \"contracts/HRSKleros.sol\":6319:6330  currentRent */\n      dup2\n        /* \"contracts/HRSKleros.sol\":6319:6340  currentRent.utilities */\n      0x01\n      add\n      sload\n        /* \"contracts/HRSKleros.sol\":6319:6344  currentRent.utilities > 0 */\n      gt\n        /* \"contracts/HRSKleros.sol\":6311:6396  require(currentRent.utilities > 0, \"Utilities for this month have not been recorded\") */\n      tag_404\n      jumpi\n      mload(0x40)\n      0x08c379a000000000000000000000000000000000000000000000000000000000\n      dup2\n      mstore\n      0x04\n      add\n      tag_405\n      swap1\n      tag_363\n      jump\t// in\n    tag_405:\n      mload(0x40)\n      dup1\n      swap2\n      sub\n      swap1\n      revert\n    tag_404:\n        /* \"contracts/HRSKleros.sol\":6409:6430  uint256 skippedAmount */\n      0x00\n        /* \"contracts/HRSKleros.sol\":6456:6467  currentRent */\n      dup2\n        /* \"contracts/HRSKleros.sol\":6456:6477  currentRent.utilities */\n      0x01\n      add\n      sload\n        /* \"contracts/HRSKleros.sol\":6433:6444  currentRent */\n      dup3\n        /* \"contracts/HRSKleros.sol\":6433:6453  currentRent.baseRent */\n      0x00\n      add\n      sload\n        /* \"contracts/HRSKleros.sol\":6433:6477  currentRent.baseRent + currentRent.utilities */\n      tag_406\n      swap2\n      swap1\n      tag_291\n      jump\t// in\n    tag_406:\n        /* \"contracts/HRSKleros.sol\":6409:6477  uint256 skippedAmount = currentRent.baseRent + currentRent.utilities */\n      swap1\n      pop\n        /* \"contracts/HRSKleros.sol\":6499:6512  skippedAmount */\n      dup1\n        /* \"contracts/HRSKleros.sol\":6488:6495  dueRent */\n      0x07\n      0x00\n        /* \"contracts/HRSKleros.sol\":6488:6512  dueRent += skippedAmount */\n      dup3\n      dup3\n      sload\n      tag_407\n      swap2\n      swap1\n      tag_291\n      jump\t// in\n    tag_407:\n      swap3\n      pop\n      pop\n      dup2\n      swap1\n      sstore\n      pop\n        /* \"contracts/HRSKleros.sol\":6530:6570  RentSkipped(currentMonth, skippedAmount) */\n      0x9ea3a4b65940d7b9dbf8bb1c459ba8e81222d1a596e93fbc364365a6d78e27d6\n        /* \"contracts/HRSKleros.sol\":6542:6554  currentMonth */\n      sload(0x06)\n        /* \"contracts/HRSKleros.sol\":6556:6569  skippedAmount */\n      dup3\n        /* \"contracts/HRSKleros.sol\":6530:6570  RentSkipped(currentMonth, skippedAmount) */\n      mload(0x40)\n      tag_408\n      swap3\n      swap2\n      swap1\n      tag_298\n      jump\t// in\n    tag_408:\n      mload(0x40)\n      dup1\n      swap2\n      sub\n      swap1\n      log1\n        /* \"contracts/HRSKleros.sol\":6603:6621  rentPeriodInMonths */\n      sload(0x04)\n        /* \"contracts/HRSKleros.sol\":6587:6599  currentMonth */\n      sload(0x06)\n        /* \"contracts/HRSKleros.sol\":6587:6621  currentMonth == rentPeriodInMonths */\n      sub\n        /* \"contracts/HRSKleros.sol\":6583:6710  if (currentMonth == rentPeriodInMonths) {... */\n      tag_409\n      jumpi\n        /* \"contracts/HRSKleros.sol\":6638:6651  endContract() */\n      tag_410\n        /* \"contracts/HRSKleros.sol\":6638:6649  endContract */\n      tag_411\n        /* \"contracts/HRSKleros.sol\":6638:6651  endContract() */\n      jump\t// in\n    tag_410:\n        /* \"contracts/HRSKleros.sol\":6583:6710  if (currentMonth == rentPeriodInMonths) {... */\n      jump(tag_412)\n    tag_409:\n        /* \"contracts/HRSKleros.sol\":6684:6696  currentMonth */\n      0x06\n      0x00\n        /* \"contracts/HRSKleros.sol\":6684:6698  currentMonth++ */\n      dup2\n      sload\n      dup1\n      swap3\n      swap2\n      swap1\n      tag_413\n      swap1\n      tag_375\n      jump\t// in\n    tag_413:\n      swap2\n      swap1\n      pop\n      sstore\n      pop\n        /* \"contracts/HRSKleros.sol\":6583:6710  if (currentMonth == rentPeriodInMonths) {... */\n    tag_412:\n        /* \"contracts/HRSKleros.sol\":5935:6717  {... */\n      pop\n      pop\n        /* \"contracts/HRSKleros.sol\":5899:6717  function skipRentPayment() external {... */\n      jump\t// out\n        /* \"contracts/HRSKleros.sol\":12703:12806  function isRentalPeriodEnded() external view returns (bool) {... */\n    tag_192:\n        /* \"contracts/HRSKleros.sol\":12757:12761  bool */\n      0x00\n        /* \"contracts/HRSKleros.sol\":12781:12798  rentalPeriodEnded */\n      0x0d\n      0x05\n      swap1\n      sload\n      swap1\n      0x0100\n      exp\n      swap1\n      div\n      0xff\n      and\n        /* \"contracts/HRSKleros.sol\":12774:12798  return rentalPeriodEnded */\n      swap1\n      pop\n        /* \"contracts/HRSKleros.sol\":12703:12806  function isRentalPeriodEnded() external view returns (bool) {... */\n      swap1\n      jump\t// out\n        /* \"contracts/HRSKleros.sol\":820:857  uint256 public currentSecurityDeposit */\n    tag_196:\n      sload(0x0b)\n      dup2\n      jump\t// out\n        /* \"contracts/HRSKleros.sol\":2710:3180  function setAgreementTerms(uint256 _securityDeposit, uint256 _baseRent, uint256 _rentPeriodInMonths) external {... */\n    tag_202:\n        /* \"contracts/HRSKleros.sol\":2853:2861  landlord */\n      0x00\n      dup1\n      sload\n      swap1\n      0x0100\n      exp\n      swap1\n      div\n      0xffffffffffffffffffffffffffffffffffffffff\n      and\n        /* \"contracts/HRSKleros.sol\":2839:2861  msg.sender == landlord */\n      0xffffffffffffffffffffffffffffffffffffffff\n      and\n        /* \"contracts/HRSKleros.sol\":2839:2849  msg.sender */\n      caller\n        /* \"contracts/HRSKleros.sol\":2839:2861  msg.sender == landlord */\n      0xffffffffffffffffffffffffffffffffffffffff\n      and\n      eq\n        /* \"contracts/HRSKleros.sol\":2831:2903  require(msg.sender == landlord, \"Only landlord can set agreement terms\") */\n      tag_416\n      jumpi\n      mload(0x40)\n      0x08c379a000000000000000000000000000000000000000000000000000000000\n      dup2\n      mstore\n      0x04\n      add\n      tag_417\n      swap1\n      tag_418\n      jump\t// in\n    tag_417:\n      mload(0x40)\n      dup1\n      swap2\n      sub\n      swap1\n      revert\n    tag_416:\n        /* \"contracts/HRSKleros.sol\":2923:2931  isActive */\n      0x0d\n      0x00\n      swap1\n      sload\n      swap1\n      0x0100\n      exp\n      swap1\n      div\n      0xff\n      and\n        /* \"contracts/HRSKleros.sol\":2922:2931  !isActive */\n      iszero\n        /* \"contracts/HRSKleros.sol\":2914:2962  require(!isActive, \"Contract is already active\") */\n      tag_419\n      jumpi\n      mload(0x40)\n      0x08c379a000000000000000000000000000000000000000000000000000000000\n      dup2\n      mstore\n      0x04\n      add\n      tag_420\n      swap1\n      tag_318\n      jump\t// in\n    tag_420:\n      mload(0x40)\n      dup1\n      swap2\n      sub\n      swap1\n      revert\n    tag_419:\n        /* \"contracts/HRSKleros.sol\":2991:3007  _securityDeposit */\n      dup3\n        /* \"contracts/HRSKleros.sol\":2973:2988  securityDeposit */\n      0x02\n        /* \"contracts/HRSKleros.sol\":2973:3007  securityDeposit = _securityDeposit */\n      dup2\n      swap1\n      sstore\n      pop\n        /* \"contracts/HRSKleros.sol\":3029:3038  _baseRent */\n      dup2\n        /* \"contracts/HRSKleros.sol\":3018:3026  baseRent */\n      0x03\n        /* \"contracts/HRSKleros.sol\":3018:3038  baseRent = _baseRent */\n      dup2\n      swap1\n      sstore\n      pop\n        /* \"contracts/HRSKleros.sol\":3070:3089  _rentPeriodInMonths */\n      dup1\n        /* \"contracts/HRSKleros.sol\":3049:3067  rentPeriodInMonths */\n      0x04\n        /* \"contracts/HRSKleros.sol\":3049:3089  rentPeriodInMonths = _rentPeriodInMonths */\n      dup2\n      swap1\n      sstore\n      pop\n        /* \"contracts/HRSKleros.sol\":3105:3172  AgreementTermsSet(_securityDeposit, _baseRent, _rentPeriodInMonths) */\n      0x2f47566d4872826a9750e05ae448ad21f2a677c332d36d6437b697a7f8dd1e14\n        /* \"contracts/HRSKleros.sol\":3123:3139  _securityDeposit */\n      dup4\n        /* \"contracts/HRSKleros.sol\":3141:3150  _baseRent */\n      dup4\n        /* \"contracts/HRSKleros.sol\":3152:3171  _rentPeriodInMonths */\n      dup4\n        /* \"contracts/HRSKleros.sol\":3105:3172  AgreementTermsSet(_securityDeposit, _baseRent, _rentPeriodInMonths) */\n      mload(0x40)\n      tag_421\n      swap4\n      swap3\n      swap2\n      swap1\n      tag_422\n      jump\t// in\n    tag_421:\n      mload(0x40)\n      dup1\n      swap2\n      sub\n      swap1\n      log1\n        /* \"contracts/HRSKleros.sol\":2710:3180  function setAgreementTerms(uint256 _securityDeposit, uint256 _baseRent, uint256 _rentPeriodInMonths) external {... */\n      pop\n      pop\n      pop\n      jump\t// out\n        /* \"contracts/HRSKleros.sol\":447:470  address public landlord */\n    tag_205:\n      0x00\n      dup1\n      sload\n      swap1\n      0x0100\n      exp\n      swap1\n      div\n      0xffffffffffffffffffffffffffffffffffffffff\n      and\n      dup2\n      jump\t// out\n        /* \"contracts/HRSKleros.sol\":7824:8070  function rejectLandlordEstimate() external {... */\n    tag_209:\n        /* \"contracts/HRSKleros.sol\":7900:7906  renter */\n      0x01\n      0x00\n      swap1\n      sload\n      swap1\n      0x0100\n      exp\n      swap1\n      div\n      0xffffffffffffffffffffffffffffffffffffffff\n      and\n        /* \"contracts/HRSKleros.sol\":7886:7906  msg.sender == renter */\n      0xffffffffffffffffffffffffffffffffffffffff\n      and\n        /* \"contracts/HRSKleros.sol\":7886:7896  msg.sender */\n      caller\n        /* \"contracts/HRSKleros.sol\":7886:7906  msg.sender == renter */\n      0xffffffffffffffffffffffffffffffffffffffff\n      and\n      eq\n        /* \"contracts/HRSKleros.sol\":7878:7946  require(msg.sender == renter, \"Only renter can reject the estimate\") */\n      tag_424\n      jumpi\n      mload(0x40)\n      0x08c379a000000000000000000000000000000000000000000000000000000000\n      dup2\n      mstore\n      0x04\n      add\n      tag_425\n      swap1\n      tag_426\n      jump\t// in\n    tag_425:\n      mload(0x40)\n      dup1\n      swap2\n      sub\n      swap1\n      revert\n    tag_424:\n        /* \"contracts/HRSKleros.sol\":7965:7984  landlordEstimateSet */\n      0x0d\n      0x06\n      swap1\n      sload\n      swap1\n      0x0100\n      exp\n      swap1\n      div\n      0xff\n      and\n        /* \"contracts/HRSKleros.sol\":7957:8028  require(landlordEstimateSet, \"Landlord must set damage estimate first\") */\n      tag_427\n      jumpi\n      mload(0x40)\n      0x08c379a000000000000000000000000000000000000000000000000000000000\n      dup2\n      mstore\n      0x04\n      add\n      tag_428\n      swap1\n      tag_392\n      jump\t// in\n    tag_428:\n      mload(0x40)\n      dup1\n      swap2\n      sub\n      swap1\n      revert\n    tag_427:\n        /* \"contracts/HRSKleros.sol\":8044:8062  EstimateRejected() */\n      0x214f96452fc3fdfd5eeafda7f5df5b6066f4f8ac1295fb53cd051491b9b56da3\n      mload(0x40)\n      mload(0x40)\n      dup1\n      swap2\n      sub\n      swap1\n      log1\n        /* \"contracts/HRSKleros.sol\":7824:8070  function rejectLandlordEstimate() external {... */\n      jump\t// out\n        /* \"contracts/HRSKleros.sol\":7214:7816  function acceptLandlordEstimate() external {... */\n    tag_212:\n        /* \"contracts/HRSKleros.sol\":7290:7296  renter */\n      0x01\n      0x00\n      swap1\n      sload\n      swap1\n      0x0100\n      exp\n      swap1\n      div\n      0xffffffffffffffffffffffffffffffffffffffff\n      and\n        /* \"contracts/HRSKleros.sol\":7276:7296  msg.sender == renter */\n      0xffffffffffffffffffffffffffffffffffffffff\n      and\n        /* \"contracts/HRSKleros.sol\":7276:7286  msg.sender */\n      caller\n        /* \"contracts/HRSKleros.sol\":7276:7296  msg.sender == renter */\n      0xffffffffffffffffffffffffffffffffffffffff\n      and\n      eq\n        /* \"contracts/HRSKleros.sol\":7268:7336  require(msg.sender == renter, \"Only renter can accept the estimate\") */\n      tag_430\n      jumpi\n      mload(0x40)\n      0x08c379a000000000000000000000000000000000000000000000000000000000\n      dup2\n      mstore\n      0x04\n      add\n      tag_431\n      swap1\n      tag_432\n      jump\t// in\n    tag_431:\n      mload(0x40)\n      dup1\n      swap2\n      sub\n      swap1\n      revert\n    tag_430:\n        /* \"contracts/HRSKleros.sol\":7355:7374  landlordEstimateSet */\n      0x0d\n      0x06\n      swap1\n      sload\n      swap1\n      0x0100\n      exp\n      swap1\n      div\n      0xff\n      and\n        /* \"contracts/HRSKleros.sol\":7347:7418  require(landlordEstimateSet, \"Landlord must set damage estimate first\") */\n      tag_433\n      jumpi\n      mload(0x40)\n      0x08c379a000000000000000000000000000000000000000000000000000000000\n      dup2\n      mstore\n      0x04\n      add\n      tag_434\n      swap1\n      tag_392\n      jump\t// in\n    tag_434:\n      mload(0x40)\n      dup1\n      swap2\n      sub\n      swap1\n      revert\n    tag_433:\n        /* \"contracts/HRSKleros.sol\":7429:7449  uint256 damageAmount */\n      0x00\n        /* \"contracts/HRSKleros.sol\":7469:7484  securityDeposit */\n      sload(0x02)\n        /* \"contracts/HRSKleros.sol\":7452:7466  damageEstimate */\n      sload(0x08)\n        /* \"contracts/HRSKleros.sol\":7452:7484  damageEstimate < securityDeposit */\n      lt\n        /* \"contracts/HRSKleros.sol\":7452:7519  damageEstimate < securityDeposit ? damageEstimate : securityDeposit */\n      tag_435\n      jumpi\n        /* \"contracts/HRSKleros.sol\":7504:7519  securityDeposit */\n      sload(0x02)\n        /* \"contracts/HRSKleros.sol\":7452:7519  damageEstimate < securityDeposit ? damageEstimate : securityDeposit */\n      jump(tag_436)\n    tag_435:\n        /* \"contracts/HRSKleros.sol\":7487:7501  damageEstimate */\n      sload(0x08)\n        /* \"contracts/HRSKleros.sol\":7452:7519  damageEstimate < securityDeposit ? damageEstimate : securityDeposit */\n    tag_436:\n        /* \"contracts/HRSKleros.sol\":7429:7519  uint256 damageAmount = damageEstimate < securityDeposit ? damageEstimate : securityDeposit */\n      swap1\n      pop\n        /* \"contracts/HRSKleros.sol\":7562:7574  damageAmount */\n      dup1\n        /* \"contracts/HRSKleros.sol\":7530:7548  pendingWithdrawals */\n      0x0f\n        /* \"contracts/HRSKleros.sol\":7530:7558  pendingWithdrawals[landlord] */\n      0x00\n        /* \"contracts/HRSKleros.sol\":7549:7557  landlord */\n      dup1\n      0x00\n      swap1\n      sload\n      swap1\n      0x0100\n      exp\n      swap1\n      div\n      0xffffffffffffffffffffffffffffffffffffffff\n      and\n        /* \"contracts/HRSKleros.sol\":7530:7558  pendingWithdrawals[landlord] */\n      0xffffffffffffffffffffffffffffffffffffffff\n      and\n      0xffffffffffffffffffffffffffffffffffffffff\n      and\n      dup2\n      mstore\n      0x20\n      add\n      swap1\n      dup2\n      mstore\n      0x20\n      add\n      0x00\n      keccak256\n      0x00\n        /* \"contracts/HRSKleros.sol\":7530:7574  pendingWithdrawals[landlord] += damageAmount */\n      dup3\n      dup3\n      sload\n      tag_437\n      swap2\n      swap1\n      tag_291\n      jump\t// in\n    tag_437:\n      swap3\n      pop\n      pop\n      dup2\n      swap1\n      sstore\n      pop\n        /* \"contracts/HRSKleros.sol\":7634:7646  damageAmount */\n      dup1\n        /* \"contracts/HRSKleros.sol\":7616:7631  securityDeposit */\n      sload(0x02)\n        /* \"contracts/HRSKleros.sol\":7616:7646  securityDeposit - damageAmount */\n      tag_438\n      swap2\n      swap1\n      tag_267\n      jump\t// in\n    tag_438:\n        /* \"contracts/HRSKleros.sol\":7585:7603  pendingWithdrawals */\n      0x0f\n        /* \"contracts/HRSKleros.sol\":7585:7611  pendingWithdrawals[renter] */\n      0x00\n        /* \"contracts/HRSKleros.sol\":7604:7610  renter */\n      0x01\n      0x00\n      swap1\n      sload\n      swap1\n      0x0100\n      exp\n      swap1\n      div\n      0xffffffffffffffffffffffffffffffffffffffff\n      and\n        /* \"contracts/HRSKleros.sol\":7585:7611  pendingWithdrawals[renter] */\n      0xffffffffffffffffffffffffffffffffffffffff\n      and\n      0xffffffffffffffffffffffffffffffffffffffff\n      and\n      dup2\n      mstore\n      0x20\n      add\n      swap1\n      dup2\n      mstore\n      0x20\n      add\n      0x00\n      keccak256\n      0x00\n        /* \"contracts/HRSKleros.sol\":7585:7647  pendingWithdrawals[renter] += (securityDeposit - damageAmount) */\n      dup3\n      dup3\n      sload\n      tag_439\n      swap2\n      swap1\n      tag_291\n      jump\t// in\n    tag_439:\n      swap3\n      pop\n      pop\n      dup2\n      swap1\n      sstore\n      pop\n        /* \"contracts/HRSKleros.sol\":7683:7691  landlord */\n      0x00\n      dup1\n      sload\n      swap1\n      0x0100\n      exp\n      swap1\n      div\n      0xffffffffffffffffffffffffffffffffffffffff\n      and\n        /* \"contracts/HRSKleros.sol\":7663:7706  WithdrawalRequested(landlord, damageAmount) */\n      0xffffffffffffffffffffffffffffffffffffffff\n      and\n      0xe670e4e82118d22a1f9ee18920455ebc958bae26a90a05d31d3378788b1b0e44\n        /* \"contracts/HRSKleros.sol\":7693:7705  damageAmount */\n      dup3\n        /* \"contracts/HRSKleros.sol\":7663:7706  WithdrawalRequested(landlord, damageAmount) */\n      mload(0x40)\n      tag_440\n      swap2\n      swap1\n      tag_66\n      jump\t// in\n    tag_440:\n      mload(0x40)\n      dup1\n      swap2\n      sub\n      swap1\n      log2\n        /* \"contracts/HRSKleros.sol\":7742:7748  renter */\n      0x01\n      0x00\n      swap1\n      sload\n      swap1\n      0x0100\n      exp\n      swap1\n      div\n      0xffffffffffffffffffffffffffffffffffffffff\n      and\n        /* \"contracts/HRSKleros.sol\":7722:7781  WithdrawalRequested(renter, securityDeposit - damageAmount) */\n      0xffffffffffffffffffffffffffffffffffffffff\n      and\n      0xe670e4e82118d22a1f9ee18920455ebc958bae26a90a05d31d3378788b1b0e44\n        /* \"contracts/HRSKleros.sol\":7768:7780  damageAmount */\n      dup3\n        /* \"contracts/HRSKleros.sol\":7750:7765  securityDeposit */\n      sload(0x02)\n        /* \"contracts/HRSKleros.sol\":7750:7780  securityDeposit - damageAmount */\n      tag_441\n      swap2\n      swap1\n      tag_267\n      jump\t// in\n    tag_441:\n        /* \"contracts/HRSKleros.sol\":7722:7781  WithdrawalRequested(renter, securityDeposit - damageAmount) */\n      mload(0x40)\n      tag_442\n      swap2\n      swap1\n      tag_66\n      jump\t// in\n    tag_442:\n      mload(0x40)\n      dup1\n      swap2\n      sub\n      swap1\n      log2\n        /* \"contracts/HRSKleros.sol\":7803:7808  false */\n      0x00\n        /* \"contracts/HRSKleros.sol\":7792:7800  isActive */\n      0x0d\n      0x00\n        /* \"contracts/HRSKleros.sol\":7792:7808  isActive = false */\n      0x0100\n      exp\n      dup2\n      sload\n      dup2\n      0xff\n      mul\n      not\n      and\n      swap1\n      dup4\n      iszero\n      iszero\n      mul\n      or\n      swap1\n      sstore\n      pop\n        /* \"contracts/HRSKleros.sol\":7257:7816  {... */\n      pop\n        /* \"contracts/HRSKleros.sol\":7214:7816  function acceptLandlordEstimate() external {... */\n      jump\t// out\n        /* \"contracts/HRSKleros.sol\":1353:1404  mapping(uint256 => MonthlyRent) public monthlyRents */\n    tag_216:\n      mstore(0x20, 0x0e)\n      dup1\n      0x00\n      mstore\n      keccak256(0x00, 0x40)\n      0x00\n      swap2\n      pop\n      swap1\n      pop\n      dup1\n      0x00\n      add\n      sload\n      swap1\n      dup1\n      0x01\n      add\n      sload\n      swap1\n      dup1\n      0x02\n      add\n      sload\n      swap1\n      dup1\n      0x03\n      add\n      0x00\n      swap1\n      sload\n      swap1\n      0x0100\n      exp\n      swap1\n      div\n      0xff\n      and\n      swap1\n      pop\n      dup5\n      jump\t// out\n        /* \"contracts/HRSKleros.sol\":8492:9170  function acceptRenterCounterEstimate() external {... */\n    tag_221:\n        /* \"contracts/HRSKleros.sol\":8573:8581  landlord */\n      0x00\n      dup1\n      sload\n      swap1\n      0x0100\n      exp\n      swap1\n      div\n      0xffffffffffffffffffffffffffffffffffffffff\n      and\n        /* \"contracts/HRSKleros.sol\":8559:8581  msg.sender == landlord */\n      0xffffffffffffffffffffffffffffffffffffffff\n      and\n        /* \"contracts/HRSKleros.sol\":8559:8569  msg.sender */\n      caller\n        /* \"contracts/HRSKleros.sol\":8559:8581  msg.sender == landlord */\n      0xffffffffffffffffffffffffffffffffffffffff\n      and\n      eq\n        /* \"contracts/HRSKleros.sol\":8551:8631  require(msg.sender == landlord, \"Only landlord can accept the counter estimate\") */\n      tag_444\n      jumpi\n      mload(0x40)\n      0x08c379a000000000000000000000000000000000000000000000000000000000\n      dup2\n      mstore\n      0x04\n      add\n      tag_445\n      swap1\n      tag_446\n      jump\t// in\n    tag_445:\n      mload(0x40)\n      dup1\n      swap2\n      sub\n      swap1\n      revert\n    tag_444:\n        /* \"contracts/HRSKleros.sol\":8650:8674  renterCounterEstimateSet */\n      0x0d\n      0x07\n      swap1\n      sload\n      swap1\n      0x0100\n      exp\n      swap1\n      div\n      0xff\n      and\n        /* \"contracts/HRSKleros.sol\":8642:8717  require(renterCounterEstimateSet, \"Renter must set counter estimate first\") */\n      tag_447\n      jumpi\n      mload(0x40)\n      0x08c379a000000000000000000000000000000000000000000000000000000000\n      dup2\n      mstore\n      0x04\n      add\n      tag_448\n      swap1\n      tag_256\n      jump\t// in\n    tag_448:\n      mload(0x40)\n      dup1\n      swap2\n      sub\n      swap1\n      revert\n    tag_447:\n        /* \"contracts/HRSKleros.sol\":8728:8748  uint256 damageAmount */\n      0x00\n        /* \"contracts/HRSKleros.sol\":8775:8790  securityDeposit */\n      sload(0x02)\n        /* \"contracts/HRSKleros.sol\":8751:8772  renterCounterEstimate */\n      sload(0x09)\n        /* \"contracts/HRSKleros.sol\":8751:8790  renterCounterEstimate < securityDeposit */\n      lt\n        /* \"contracts/HRSKleros.sol\":8751:8832  renterCounterEstimate < securityDeposit ? renterCounterEstimate : securityDeposit */\n      tag_449\n      jumpi\n        /* \"contracts/HRSKleros.sol\":8817:8832  securityDeposit */\n      sload(0x02)\n        /* \"contracts/HRSKleros.sol\":8751:8832  renterCounterEstimate < securityDeposit ? renterCounterEstimate : securityDeposit */\n      jump(tag_450)\n    tag_449:\n        /* \"contracts/HRSKleros.sol\":8793:8814  renterCounterEstimate */\n      sload(0x09)\n        /* \"contracts/HRSKleros.sol\":8751:8832  renterCounterEstimate < securityDeposit ? renterCounterEstimate : securityDeposit */\n    tag_450:\n        /* \"contracts/HRSKleros.sol\":8728:8832  uint256 damageAmount = renterCounterEstimate < securityDeposit ? renterCounterEstimate : securityDeposit */\n      swap1\n      pop\n        /* \"contracts/HRSKleros.sol\":8875:8887  damageAmount */\n      dup1\n        /* \"contracts/HRSKleros.sol\":8843:8861  pendingWithdrawals */\n      0x0f\n        /* \"contracts/HRSKleros.sol\":8843:8871  pendingWithdrawals[landlord] */\n      0x00\n        /* \"contracts/HRSKleros.sol\":8862:8870  landlord */\n      dup1\n      0x00\n      swap1\n      sload\n      swap1\n      0x0100\n      exp\n      swap1\n      div\n      0xffffffffffffffffffffffffffffffffffffffff\n      and\n        /* \"contracts/HRSKleros.sol\":8843:8871  pendingWithdrawals[landlord] */\n      0xffffffffffffffffffffffffffffffffffffffff\n      and\n      0xffffffffffffffffffffffffffffffffffffffff\n      and\n      dup2\n      mstore\n      0x20\n      add\n      swap1\n      dup2\n      mstore\n      0x20\n      add\n      0x00\n      keccak256\n      0x00\n        /* \"contracts/HRSKleros.sol\":8843:8887  pendingWithdrawals[landlord] += damageAmount */\n      dup3\n      dup3\n      sload\n      tag_451\n      swap2\n      swap1\n      tag_291\n      jump\t// in\n    tag_451:\n      swap3\n      pop\n      pop\n      dup2\n      swap1\n      sstore\n      pop\n        /* \"contracts/HRSKleros.sol\":8947:8959  damageAmount */\n      dup1\n        /* \"contracts/HRSKleros.sol\":8929:8944  securityDeposit */\n      sload(0x02)\n        /* \"contracts/HRSKleros.sol\":8929:8959  securityDeposit - damageAmount */\n      tag_452\n      swap2\n      swap1\n      tag_267\n      jump\t// in\n    tag_452:\n        /* \"contracts/HRSKleros.sol\":8898:8916  pendingWithdrawals */\n      0x0f\n        /* \"contracts/HRSKleros.sol\":8898:8924  pendingWithdrawals[renter] */\n      0x00\n        /* \"contracts/HRSKleros.sol\":8917:8923  renter */\n      0x01\n      0x00\n      swap1\n      sload\n      swap1\n      0x0100\n      exp\n      swap1\n      div\n      0xffffffffffffffffffffffffffffffffffffffff\n      and\n        /* \"contracts/HRSKleros.sol\":8898:8924  pendingWithdrawals[renter] */\n      0xffffffffffffffffffffffffffffffffffffffff\n      and\n      0xffffffffffffffffffffffffffffffffffffffff\n      and\n      dup2\n      mstore\n      0x20\n      add\n      swap1\n      dup2\n      mstore\n      0x20\n      add\n      0x00\n      keccak256\n      0x00\n        /* \"contracts/HRSKleros.sol\":8898:8960  pendingWithdrawals[renter] += (securityDeposit - damageAmount) */\n      dup3\n      dup3\n      sload\n      tag_453\n      swap2\n      swap1\n      tag_291\n      jump\t// in\n    tag_453:\n      swap3\n      pop\n      pop\n      dup2\n      swap1\n      sstore\n      pop\n        /* \"contracts/HRSKleros.sol\":8996:9004  landlord */\n      0x00\n      dup1\n      sload\n      swap1\n      0x0100\n      exp\n      swap1\n      div\n      0xffffffffffffffffffffffffffffffffffffffff\n      and\n        /* \"contracts/HRSKleros.sol\":8976:9019  WithdrawalRequested(landlord, damageAmount) */\n      0xffffffffffffffffffffffffffffffffffffffff\n      and\n      0xe670e4e82118d22a1f9ee18920455ebc958bae26a90a05d31d3378788b1b0e44\n        /* \"contracts/HRSKleros.sol\":9006:9018  damageAmount */\n      dup3\n        /* \"contracts/HRSKleros.sol\":8976:9019  WithdrawalRequested(landlord, damageAmount) */\n      mload(0x40)\n      tag_454\n      swap2\n      swap1\n      tag_66\n      jump\t// in\n    tag_454:\n      mload(0x40)\n      dup1\n      swap2\n      sub\n      swap1\n      log2\n        /* \"contracts/HRSKleros.sol\":9055:9061  renter */\n      0x01\n      0x00\n      swap1\n      sload\n      swap1\n      0x0100\n      exp\n      swap1\n      div\n      0xffffffffffffffffffffffffffffffffffffffff\n      and\n        /* \"contracts/HRSKleros.sol\":9035:9094  WithdrawalRequested(renter, securityDeposit - damageAmount) */\n      0xffffffffffffffffffffffffffffffffffffffff\n      and\n      0xe670e4e82118d22a1f9ee18920455ebc958bae26a90a05d31d3378788b1b0e44\n        /* \"contracts/HRSKleros.sol\":9081:9093  damageAmount */\n      dup3\n        /* \"contracts/HRSKleros.sol\":9063:9078  securityDeposit */\n      sload(0x02)\n        /* \"contracts/HRSKleros.sol\":9063:9093  securityDeposit - damageAmount */\n      tag_455\n      swap2\n      swap1\n      tag_267\n      jump\t// in\n    tag_455:\n        /* \"contracts/HRSKleros.sol\":9035:9094  WithdrawalRequested(renter, securityDeposit - damageAmount) */\n      mload(0x40)\n      tag_456\n      swap2\n      swap1\n      tag_66\n      jump\t// in\n    tag_456:\n      mload(0x40)\n      dup1\n      swap2\n      sub\n      swap1\n      log2\n        /* \"contracts/HRSKleros.sol\":9116:9121  false */\n      0x00\n        /* \"contracts/HRSKleros.sol\":9105:9113  isActive */\n      0x0d\n      0x00\n        /* \"contracts/HRSKleros.sol\":9105:9121  isActive = false */\n      0x0100\n      exp\n      dup2\n      sload\n      dup2\n      0xff\n      mul\n      not\n      and\n      swap1\n      dup4\n      iszero\n      iszero\n      mul\n      or\n      swap1\n      sstore\n      pop\n        /* \"contracts/HRSKleros.sol\":9137:9162  CounterEstimateAccepted() */\n      0xb48ea00bbdfbf40407eead0ea969ce425a746b5692554310f811ee7d0e36f385\n      mload(0x40)\n      mload(0x40)\n      dup1\n      swap2\n      sub\n      swap1\n      log1\n        /* \"contracts/HRSKleros.sol\":8540:9170  {... */\n      pop\n        /* \"contracts/HRSKleros.sol\":8492:9170  function acceptRenterCounterEstimate() external {... */\n      jump\t// out\n        /* \"contracts/HRSKleros.sol\":928:961  bool public isSecurityDepositPaid */\n    tag_224:\n      0x0d\n      0x01\n      swap1\n      sload\n      swap1\n      0x0100\n      exp\n      swap1\n      div\n      0xff\n      and\n      dup2\n      jump\t// out\n        /* \"contracts/HRSKleros.sol\":1411:1464  mapping(address => uint256) public pendingWithdrawals */\n    tag_230:\n      mstore(0x20, 0x0f)\n      dup1\n      0x00\n      mstore\n      keccak256(0x00, 0x40)\n      0x00\n      swap2\n      pop\n      swap1\n      pop\n      sload\n      dup2\n      jump\t// out\n        /* \"contracts/HRSKleros.sol\":11752:11868  function getLandlordBalance() external view returns (uint256) {... */\n    tag_234:\n        /* \"contracts/HRSKleros.sol\":11805:11812  uint256 */\n      0x00\n        /* \"contracts/HRSKleros.sol\":11832:11850  pendingWithdrawals */\n      0x0f\n        /* \"contracts/HRSKleros.sol\":11832:11860  pendingWithdrawals[landlord] */\n      0x00\n        /* \"contracts/HRSKleros.sol\":11851:11859  landlord */\n      dup1\n      0x00\n      swap1\n      sload\n      swap1\n      0x0100\n      exp\n      swap1\n      div\n      0xffffffffffffffffffffffffffffffffffffffff\n      and\n        /* \"contracts/HRSKleros.sol\":11832:11860  pendingWithdrawals[landlord] */\n      0xffffffffffffffffffffffffffffffffffffffff\n      and\n      0xffffffffffffffffffffffffffffffffffffffff\n      and\n      dup2\n      mstore\n      0x20\n      add\n      swap1\n      dup2\n      mstore\n      0x20\n      add\n      0x00\n      keccak256\n      sload\n        /* \"contracts/HRSKleros.sol\":11825:11860  return pendingWithdrawals[landlord] */\n      swap1\n      pop\n        /* \"contracts/HRSKleros.sol\":11752:11868  function getLandlordBalance() external view returns (uint256) {... */\n      swap1\n      jump\t// out\n        /* \"contracts/HRSKleros.sol\":9733:10110  function raiseDispute() private {... */\n    tag_269:\n        /* \"contracts/HRSKleros.sol\":9785:9798  disputeRaised */\n      0x0d\n      0x02\n      swap1\n      sload\n      swap1\n      0x0100\n      exp\n      swap1\n      div\n      0xff\n      and\n        /* \"contracts/HRSKleros.sol\":9784:9798  !disputeRaised */\n      iszero\n        /* \"contracts/HRSKleros.sol\":9776:9825  require(!disputeRaised, \"Dispute already raised\") */\n      tag_459\n      jumpi\n      mload(0x40)\n      0x08c379a000000000000000000000000000000000000000000000000000000000\n      dup2\n      mstore\n      0x04\n      add\n      tag_460\n      swap1\n      tag_461\n      jump\t// in\n    tag_460:\n      mload(0x40)\n      dup1\n      swap2\n      sub\n      swap1\n      revert\n    tag_459:\n        /* \"contracts/HRSKleros.sol\":9844:9863  landlordEstimateSet */\n      0x0d\n      0x06\n      swap1\n      sload\n      swap1\n      0x0100\n      exp\n      swap1\n      div\n      0xff\n      and\n        /* \"contracts/HRSKleros.sol\":9844:9891  landlordEstimateSet && renterCounterEstimateSet */\n      dup1\n      iszero\n      tag_462\n      jumpi\n      pop\n        /* \"contracts/HRSKleros.sol\":9867:9891  renterCounterEstimateSet */\n      0x0d\n      0x07\n      swap1\n      sload\n      swap1\n      0x0100\n      exp\n      swap1\n      div\n      0xff\n      and\n        /* \"contracts/HRSKleros.sol\":9844:9891  landlordEstimateSet && renterCounterEstimateSet */\n    tag_462:\n        /* \"contracts/HRSKleros.sol\":9836:9947  require(landlordEstimateSet && renterCounterEstimateSet, \"Both estimates must be set before raising a dispute\") */\n      tag_463\n      jumpi\n      mload(0x40)\n      0x08c379a000000000000000000000000000000000000000000000000000000000\n      dup2\n      mstore\n      0x04\n      add\n      tag_464\n      swap1\n      tag_465\n      jump\t// in\n    tag_464:\n      mload(0x40)\n      dup1\n      swap2\n      sub\n      swap1\n      revert\n    tag_463:\n        /* \"contracts/HRSKleros.sol\":9980:9986  kleros */\n      0x0d\n      0x08\n      swap1\n      sload\n      swap1\n      0x0100\n      exp\n      swap1\n      div\n      0xffffffffffffffffffffffffffffffffffffffff\n      and\n        /* \"contracts/HRSKleros.sol\":9980:10000  kleros.createDispute */\n      0xffffffffffffffffffffffffffffffffffffffff\n      and\n      0xc13517e1\n        /* \"contracts/HRSKleros.sol\":10008:10023  arbitrationCost */\n      sload(0x0c)\n        /* \"contracts/HRSKleros.sol\":10025:10026  2 */\n      0x02\n        /* \"contracts/HRSKleros.sol\":9980:10031  kleros.createDispute{value: arbitrationCost}(2, \"\") */\n      mload(0x40)\n      dup4\n      0xffffffff\n      and\n      0xe0\n      shl\n      dup2\n      mstore\n      0x04\n      add\n      tag_466\n      swap2\n      swap1\n      tag_467\n      jump\t// in\n    tag_466:\n      0x20\n      mload(0x40)\n      dup1\n      dup4\n      sub\n      dup2\n      dup6\n      dup9\n      gas\n      call\n      iszero\n      dup1\n      iszero\n      tag_469\n      jumpi\n      returndatasize\n      0x00\n      dup1\n      returndatacopy\n      revert(0x00, returndatasize)\n    tag_469:\n      pop\n      pop\n      pop\n      pop\n      pop\n      mload(0x40)\n      returndatasize\n      not(0x1f)\n      0x1f\n      dup3\n      add\n      and\n      dup3\n      add\n      dup1\n      0x40\n      mstore\n      pop\n      dup2\n      add\n      swap1\n      tag_470\n      swap2\n      swap1\n      tag_262\n      jump\t// in\n    tag_470:\n        /* \"contracts/HRSKleros.sol\":9968:9977  disputeID */\n      0x0a\n        /* \"contracts/HRSKleros.sol\":9968:10031  disputeID = kleros.createDispute{value: arbitrationCost}(2, \"\") */\n      dup2\n      swap1\n      sstore\n      pop\n        /* \"contracts/HRSKleros.sol\":10058:10062  true */\n      0x01\n        /* \"contracts/HRSKleros.sol\":10042:10055  disputeRaised */\n      0x0d\n      0x02\n        /* \"contracts/HRSKleros.sol\":10042:10062  disputeRaised = true */\n      0x0100\n      exp\n      dup2\n      sload\n      dup2\n      0xff\n      mul\n      not\n      and\n      swap1\n      dup4\n      iszero\n      iszero\n      mul\n      or\n      swap1\n      sstore\n      pop\n        /* \"contracts/HRSKleros.sol\":10078:10102  DisputeRaised(disputeID) */\n      0x04901f83201c8724eadf084436db8aa391820bae6d11f9f78a17edb6f2eef3cf\n        /* \"contracts/HRSKleros.sol\":10092:10101  disputeID */\n      sload(0x0a)\n        /* \"contracts/HRSKleros.sol\":10078:10102  DisputeRaised(disputeID) */\n      mload(0x40)\n      tag_471\n      swap2\n      swap1\n      tag_66\n      jump\t// in\n    tag_471:\n      mload(0x40)\n      dup1\n      swap2\n      sub\n      swap1\n      log1\n        /* \"contracts/HRSKleros.sol\":9733:10110  function raiseDispute() private {... */\n      jump\t// out\n        /* \"contracts/HRSKleros.sol\":11996:12578  function endContract() private {... */\n    tag_411:\n        /* \"contracts/HRSKleros.sol\":12049:12054  false */\n      0x00\n        /* \"contracts/HRSKleros.sol\":12038:12046  isActive */\n      0x0d\n      0x00\n        /* \"contracts/HRSKleros.sol\":12038:12054  isActive = false */\n      0x0100\n      exp\n      dup2\n      sload\n      dup2\n      0xff\n      mul\n      not\n      and\n      swap1\n      dup4\n      iszero\n      iszero\n      mul\n      or\n      swap1\n      sstore\n      pop\n        /* \"contracts/HRSKleros.sol\":12065:12082  uint256 dueAmount */\n      0x00\n        /* \"contracts/HRSKleros.sol\":12085:12092  dueRent */\n      sload(0x07)\n        /* \"contracts/HRSKleros.sol\":12065:12092  uint256 dueAmount = dueRent */\n      swap1\n      pop\n        /* \"contracts/HRSKleros.sol\":12103:12117  uint256 refund */\n      0x00\n        /* \"contracts/HRSKleros.sol\":12150:12151  0 */\n      dup1\n        /* \"contracts/HRSKleros.sol\":12138:12147  dueAmount */\n      dup3\n        /* \"contracts/HRSKleros.sol\":12138:12151  dueAmount > 0 */\n      gt\n        /* \"contracts/HRSKleros.sol\":12134:12434  if (dueAmount > 0) {... */\n      iszero\n      tag_473\n      jumpi\n        /* \"contracts/HRSKleros.sol\":12184:12199  securityDeposit */\n      sload(0x02)\n        /* \"contracts/HRSKleros.sol\":12172:12181  dueAmount */\n      dup3\n        /* \"contracts/HRSKleros.sol\":12172:12199  dueAmount > securityDeposit */\n      gt\n        /* \"contracts/HRSKleros.sol\":12168:12263  if (dueAmount > securityDeposit) {... */\n      iszero\n      tag_474\n      jumpi\n        /* \"contracts/HRSKleros.sol\":12232:12247  securityDeposit */\n      sload(0x02)\n        /* \"contracts/HRSKleros.sol\":12220:12247  dueAmount = securityDeposit */\n      swap2\n      pop\n        /* \"contracts/HRSKleros.sol\":12168:12263  if (dueAmount > securityDeposit) {... */\n    tag_474:\n        /* \"contracts/HRSKleros.sol\":12285:12293  landlord */\n      0x00\n      dup1\n      sload\n      swap1\n      0x0100\n      exp\n      swap1\n      div\n      0xffffffffffffffffffffffffffffffffffffffff\n      and\n        /* \"contracts/HRSKleros.sol\":12277:12303  payable(landlord).transfer */\n      0xffffffffffffffffffffffffffffffffffffffff\n      and\n        /* \"contracts/HRSKleros.sol\":12277:12314  payable(landlord).transfer(dueAmount) */\n      0x08fc\n        /* \"contracts/HRSKleros.sol\":12304:12313  dueAmount */\n      dup4\n        /* \"contracts/HRSKleros.sol\":12277:12314  payable(landlord).transfer(dueAmount) */\n      swap1\n      dup2\n      iszero\n      mul\n      swap1\n      mload(0x40)\n      0x00\n      mload(0x40)\n      dup1\n      dup4\n      sub\n      dup2\n      dup6\n      dup9\n      dup9\n      call\n      swap4\n      pop\n      pop\n      pop\n      pop\n      iszero\n      dup1\n      iszero\n      tag_476\n      jumpi\n      returndatasize\n      0x00\n      dup1\n      returndatacopy\n      revert(0x00, returndatasize)\n    tag_476:\n      pop\n        /* \"contracts/HRSKleros.sol\":12356:12365  dueAmount */\n      dup2\n        /* \"contracts/HRSKleros.sol\":12338:12353  securityDeposit */\n      sload(0x02)\n        /* \"contracts/HRSKleros.sol\":12338:12365  securityDeposit - dueAmount */\n      tag_477\n      swap2\n      swap1\n      tag_267\n      jump\t// in\n    tag_477:\n        /* \"contracts/HRSKleros.sol\":12329:12365  refund = securityDeposit - dueAmount */\n      swap1\n      pop\n        /* \"contracts/HRSKleros.sol\":12134:12434  if (dueAmount > 0) {... */\n      jump(tag_478)\n    tag_473:\n        /* \"contracts/HRSKleros.sol\":12407:12422  securityDeposit */\n      sload(0x02)\n        /* \"contracts/HRSKleros.sol\":12398:12422  refund = securityDeposit */\n      swap1\n      pop\n        /* \"contracts/HRSKleros.sol\":12134:12434  if (dueAmount > 0) {... */\n    tag_478:\n        /* \"contracts/HRSKleros.sol\":12459:12460  0 */\n      0x00\n        /* \"contracts/HRSKleros.sol\":12450:12456  refund */\n      dup2\n        /* \"contracts/HRSKleros.sol\":12450:12460  refund > 0 */\n      gt\n        /* \"contracts/HRSKleros.sol\":12446:12521  if (refund > 0) {... */\n      iszero\n      tag_479\n      jumpi\n        /* \"contracts/HRSKleros.sol\":12485:12491  renter */\n      0x01\n      0x00\n      swap1\n      sload\n      swap1\n      0x0100\n      exp\n      swap1\n      div\n      0xffffffffffffffffffffffffffffffffffffffff\n      and\n        /* \"contracts/HRSKleros.sol\":12477:12501  payable(renter).transfer */\n      0xffffffffffffffffffffffffffffffffffffffff\n      and\n        /* \"contracts/HRSKleros.sol\":12477:12509  payable(renter).transfer(refund) */\n      0x08fc\n        /* \"contracts/HRSKleros.sol\":12502:12508  refund */\n      dup3\n        /* \"contracts/HRSKleros.sol\":12477:12509  payable(renter).transfer(refund) */\n      swap1\n      dup2\n      iszero\n      mul\n      swap1\n      mload(0x40)\n      0x00\n      mload(0x40)\n      dup1\n      dup4\n      sub\n      dup2\n      dup6\n      dup9\n      dup9\n      call\n      swap4\n      pop\n      pop\n      pop\n      pop\n      iszero\n      dup1\n      iszero\n      tag_481\n      jumpi\n      returndatasize\n      0x00\n      dup1\n      returndatacopy\n      revert(0x00, returndatasize)\n    tag_481:\n      pop\n        /* \"contracts/HRSKleros.sol\":12446:12521  if (refund > 0) {... */\n    tag_479:\n        /* \"contracts/HRSKleros.sol\":12538:12570  ContractEnded(refund, dueAmount) */\n      0xc0590c5a8ce79dffbdde17480a06203778f954965615e1d9577dbc90da2ff109\n        /* \"contracts/HRSKleros.sol\":12552:12558  refund */\n      dup2\n        /* \"contracts/HRSKleros.sol\":12560:12569  dueAmount */\n      dup4\n        /* \"contracts/HRSKleros.sol\":12538:12570  ContractEnded(refund, dueAmount) */\n      mload(0x40)\n      tag_482\n      swap3\n      swap2\n      swap1\n      tag_298\n      jump\t// in\n    tag_482:\n      mload(0x40)\n      dup1\n      swap2\n      sub\n      swap1\n      log1\n        /* \"contracts/HRSKleros.sol\":12027:12578  {... */\n      pop\n      pop\n        /* \"contracts/HRSKleros.sol\":11996:12578  function endContract() private {... */\n      jump\t// out\n        /* \"#utility.yul\":7:97   */\n    tag_483:\n        /* \"#utility.yul\":41:48   */\n      0x00\n        /* \"#utility.yul\":84:89   */\n      dup2\n        /* \"#utility.yul\":77:90   */\n      iszero\n        /* \"#utility.yul\":70:91   */\n      iszero\n        /* \"#utility.yul\":59:91   */\n      swap1\n      pop\n        /* \"#utility.yul\":7:97   */\n      swap2\n      swap1\n      pop\n      jump\t// out\n        /* \"#utility.yul\":103:212   */\n    tag_484:\n        /* \"#utility.yul\":184:205   */\n      tag_587\n        /* \"#utility.yul\":199:204   */\n      dup2\n        /* \"#utility.yul\":184:205   */\n      tag_483\n      jump\t// in\n    tag_587:\n        /* \"#utility.yul\":179:182   */\n      dup3\n        /* \"#utility.yul\":172:206   */\n      mstore\n        /* \"#utility.yul\":103:212   */\n      pop\n      pop\n      jump\t// out\n        /* \"#utility.yul\":218:428   */\n    tag_61:\n        /* \"#utility.yul\":305:309   */\n      0x00\n        /* \"#utility.yul\":343:345   */\n      0x20\n        /* \"#utility.yul\":332:341   */\n      dup3\n        /* \"#utility.yul\":328:346   */\n      add\n        /* \"#utility.yul\":320:346   */\n      swap1\n      pop\n        /* \"#utility.yul\":356:421   */\n      tag_589\n        /* \"#utility.yul\":418:419   */\n      0x00\n        /* \"#utility.yul\":407:416   */\n      dup4\n        /* \"#utility.yul\":403:420   */\n      add\n        /* \"#utility.yul\":394:400   */\n      dup5\n        /* \"#utility.yul\":356:421   */\n      tag_484\n      jump\t// in\n    tag_589:\n        /* \"#utility.yul\":218:428   */\n      swap3\n      swap2\n      pop\n      pop\n      jump\t// out\n        /* \"#utility.yul\":434:511   */\n    tag_485:\n        /* \"#utility.yul\":471:478   */\n      0x00\n        /* \"#utility.yul\":500:505   */\n      dup2\n        /* \"#utility.yul\":489:505   */\n      swap1\n      pop\n        /* \"#utility.yul\":434:511   */\n      swap2\n      swap1\n      pop\n      jump\t// out\n        /* \"#utility.yul\":517:635   */\n    tag_486:\n        /* \"#utility.yul\":604:628   */\n      tag_592\n        /* \"#utility.yul\":622:627   */\n      dup2\n        /* \"#utility.yul\":604:628   */\n      tag_485\n      jump\t// in\n    tag_592:\n        /* \"#utility.yul\":599:602   */\n      dup3\n        /* \"#utility.yul\":592:629   */\n      mstore\n        /* \"#utility.yul\":517:635   */\n      pop\n      pop\n      jump\t// out\n        /* \"#utility.yul\":641:863   */\n    tag_66:\n        /* \"#utility.yul\":734:738   */\n      0x00\n        /* \"#utility.yul\":772:774   */\n      0x20\n        /* \"#utility.yul\":761:770   */\n      dup3\n        /* \"#utility.yul\":757:775   */\n      add\n        /* \"#utility.yul\":749:775   */\n      swap1\n      pop\n        /* \"#utility.yul\":785:856   */\n      tag_594\n        /* \"#utility.yul\":853:854   */\n      0x00\n        /* \"#utility.yul\":842:851   */\n      dup4\n        /* \"#utility.yul\":838:855   */\n      add\n        /* \"#utility.yul\":829:835   */\n      dup5\n        /* \"#utility.yul\":785:856   */\n      tag_486\n      jump\t// in\n    tag_594:\n        /* \"#utility.yul\":641:863   */\n      swap3\n      swap2\n      pop\n      pop\n      jump\t// out\n        /* \"#utility.yul\":950:1067   */\n    tag_488:\n        /* \"#utility.yul\":1059:1060   */\n      0x00\n        /* \"#utility.yul\":1056:1057   */\n      dup1\n        /* \"#utility.yul\":1049:1061   */\n      revert\n        /* \"#utility.yul\":1196:1318   */\n    tag_490:\n        /* \"#utility.yul\":1269:1293   */\n      tag_599\n        /* \"#utility.yul\":1287:1292   */\n      dup2\n        /* \"#utility.yul\":1269:1293   */\n      tag_485\n      jump\t// in\n    tag_599:\n        /* \"#utility.yul\":1262:1267   */\n      dup2\n        /* \"#utility.yul\":1259:1294   */\n      eq\n        /* \"#utility.yul\":1249:1312   */\n      tag_600\n      jumpi\n        /* \"#utility.yul\":1308:1309   */\n      0x00\n        /* \"#utility.yul\":1305:1306   */\n      dup1\n        /* \"#utility.yul\":1298:1310   */\n      revert\n        /* \"#utility.yul\":1249:1312   */\n    tag_600:\n        /* \"#utility.yul\":1196:1318   */\n      pop\n      jump\t// out\n        /* \"#utility.yul\":1324:1463   */\n    tag_491:\n        /* \"#utility.yul\":1370:1375   */\n      0x00\n        /* \"#utility.yul\":1408:1414   */\n      dup2\n        /* \"#utility.yul\":1395:1415   */\n      calldataload\n        /* \"#utility.yul\":1386:1415   */\n      swap1\n      pop\n        /* \"#utility.yul\":1424:1457   */\n      tag_602\n        /* \"#utility.yul\":1451:1456   */\n      dup2\n        /* \"#utility.yul\":1424:1457   */\n      tag_490\n      jump\t// in\n    tag_602:\n        /* \"#utility.yul\":1324:1463   */\n      swap3\n      swap2\n      pop\n      pop\n      jump\t// out\n        /* \"#utility.yul\":1469:1798   */\n    tag_70:\n        /* \"#utility.yul\":1528:1534   */\n      0x00\n        /* \"#utility.yul\":1577:1579   */\n      0x20\n        /* \"#utility.yul\":1565:1574   */\n      dup3\n        /* \"#utility.yul\":1556:1563   */\n      dup5\n        /* \"#utility.yul\":1552:1575   */\n      sub\n        /* \"#utility.yul\":1548:1580   */\n      slt\n        /* \"#utility.yul\":1545:1664   */\n      iszero\n      tag_604\n      jumpi\n        /* \"#utility.yul\":1583:1662   */\n      tag_605\n      tag_488\n      jump\t// in\n    tag_605:\n        /* \"#utility.yul\":1545:1664   */\n    tag_604:\n        /* \"#utility.yul\":1703:1704   */\n      0x00\n        /* \"#utility.yul\":1728:1781   */\n      tag_606\n        /* \"#utility.yul\":1773:1780   */\n      dup5\n        /* \"#utility.yul\":1764:1770   */\n      dup3\n        /* \"#utility.yul\":1753:1762   */\n      dup6\n        /* \"#utility.yul\":1749:1771   */\n      add\n        /* \"#utility.yul\":1728:1781   */\n      tag_491\n      jump\t// in\n    tag_606:\n        /* \"#utility.yul\":1718:1781   */\n      swap2\n      pop\n        /* \"#utility.yul\":1674:1791   */\n      pop\n        /* \"#utility.yul\":1469:1798   */\n      swap3\n      swap2\n      pop\n      pop\n      jump\t// out\n        /* \"#utility.yul\":1804:1930   */\n    tag_492:\n        /* \"#utility.yul\":1841:1848   */\n      0x00\n        /* \"#utility.yul\":1881:1923   */\n      0xffffffffffffffffffffffffffffffffffffffff\n        /* \"#utility.yul\":1874:1879   */\n      dup3\n        /* \"#utility.yul\":1870:1924   */\n      and\n        /* \"#utility.yul\":1859:1924   */\n      swap1\n      pop\n        /* \"#utility.yul\":1804:1930   */\n      swap2\n      swap1\n      pop\n      jump\t// out\n        /* \"#utility.yul\":1936:2032   */\n    tag_493:\n        /* \"#utility.yul\":1973:1980   */\n      0x00\n        /* \"#utility.yul\":2002:2026   */\n      tag_609\n        /* \"#utility.yul\":2020:2025   */\n      dup3\n        /* \"#utility.yul\":2002:2026   */\n      tag_492\n      jump\t// in\n    tag_609:\n        /* \"#utility.yul\":1991:2026   */\n      swap1\n      pop\n        /* \"#utility.yul\":1936:2032   */\n      swap2\n      swap1\n      pop\n      jump\t// out\n        /* \"#utility.yul\":2038:2156   */\n    tag_494:\n        /* \"#utility.yul\":2125:2149   */\n      tag_611\n        /* \"#utility.yul\":2143:2148   */\n      dup2\n        /* \"#utility.yul\":2125:2149   */\n      tag_493\n      jump\t// in\n    tag_611:\n        /* \"#utility.yul\":2120:2123   */\n      dup3\n        /* \"#utility.yul\":2113:2150   */\n      mstore\n        /* \"#utility.yul\":2038:2156   */\n      pop\n      pop\n      jump\t// out\n        /* \"#utility.yul\":2162:2384   */\n    tag_91:\n        /* \"#utility.yul\":2255:2259   */\n      0x00\n        /* \"#utility.yul\":2293:2295   */\n      0x20\n        /* \"#utility.yul\":2282:2291   */\n      dup3\n        /* \"#utility.yul\":2278:2296   */\n      add\n        /* \"#utility.yul\":2270:2296   */\n      swap1\n      pop\n        /* \"#utility.yul\":2306:2377   */\n      tag_613\n        /* \"#utility.yul\":2374:2375   */\n      0x00\n        /* \"#utility.yul\":2363:2372   */\n      dup4\n        /* \"#utility.yul\":2359:2376   */\n      add\n        /* \"#utility.yul\":2350:2356   */\n      dup5\n        /* \"#utility.yul\":2306:2377   */\n      tag_494\n      jump\t// in\n    tag_613:\n        /* \"#utility.yul\":2162:2384   */\n      swap3\n      swap2\n      pop\n      pop\n      jump\t// out\n        /* \"#utility.yul\":2390:2864   */\n    tag_95:\n        /* \"#utility.yul\":2458:2464   */\n      0x00\n        /* \"#utility.yul\":2466:2472   */\n      dup1\n        /* \"#utility.yul\":2515:2517   */\n      0x40\n        /* \"#utility.yul\":2503:2512   */\n      dup4\n        /* \"#utility.yul\":2494:2501   */\n      dup6\n        /* \"#utility.yul\":2490:2513   */\n      sub\n        /* \"#utility.yul\":2486:2518   */\n      slt\n        /* \"#utility.yul\":2483:2602   */\n      iszero\n      tag_615\n      jumpi\n        /* \"#utility.yul\":2521:2600   */\n      tag_616\n      tag_488\n      jump\t// in\n    tag_616:\n        /* \"#utility.yul\":2483:2602   */\n    tag_615:\n        /* \"#utility.yul\":2641:2642   */\n      0x00\n        /* \"#utility.yul\":2666:2719   */\n      tag_617\n        /* \"#utility.yul\":2711:2718   */\n      dup6\n        /* \"#utility.yul\":2702:2708   */\n      dup3\n        /* \"#utility.yul\":2691:2700   */\n      dup7\n        /* \"#utility.yul\":2687:2709   */\n      add\n        /* \"#utility.yul\":2666:2719   */\n      tag_491\n      jump\t// in\n    tag_617:\n        /* \"#utility.yul\":2656:2719   */\n      swap3\n      pop\n        /* \"#utility.yul\":2612:2729   */\n      pop\n        /* \"#utility.yul\":2768:2770   */\n      0x20\n        /* \"#utility.yul\":2794:2847   */\n      tag_618\n        /* \"#utility.yul\":2839:2846   */\n      dup6\n        /* \"#utility.yul\":2830:2836   */\n      dup3\n        /* \"#utility.yul\":2819:2828   */\n      dup7\n        /* \"#utility.yul\":2815:2837   */\n      add\n        /* \"#utility.yul\":2794:2847   */\n      tag_491\n      jump\t// in\n    tag_618:\n        /* \"#utility.yul\":2784:2847   */\n      swap2\n      pop\n        /* \"#utility.yul\":2739:2857   */\n      pop\n        /* \"#utility.yul\":2390:2864   */\n      swap3\n      pop\n      swap3\n      swap1\n      pop\n      jump\t// out\n        /* \"#utility.yul\":2870:2930   */\n    tag_495:\n        /* \"#utility.yul\":2898:2901   */\n      0x00\n        /* \"#utility.yul\":2919:2924   */\n      dup2\n        /* \"#utility.yul\":2912:2924   */\n      swap1\n      pop\n        /* \"#utility.yul\":2870:2930   */\n      swap2\n      swap1\n      pop\n      jump\t// out\n        /* \"#utility.yul\":2936:3078   */\n    tag_496:\n        /* \"#utility.yul\":2986:2995   */\n      0x00\n        /* \"#utility.yul\":3019:3072   */\n      tag_621\n        /* \"#utility.yul\":3037:3071   */\n      tag_622\n        /* \"#utility.yul\":3046:3070   */\n      tag_623\n        /* \"#utility.yul\":3064:3069   */\n      dup5\n        /* \"#utility.yul\":3046:3070   */\n      tag_492\n      jump\t// in\n    tag_623:\n        /* \"#utility.yul\":3037:3071   */\n      tag_495\n      jump\t// in\n    tag_622:\n        /* \"#utility.yul\":3019:3072   */\n      tag_492\n      jump\t// in\n    tag_621:\n        /* \"#utility.yul\":3006:3072   */\n      swap1\n      pop\n        /* \"#utility.yul\":2936:3078   */\n      swap2\n      swap1\n      pop\n      jump\t// out\n        /* \"#utility.yul\":3084:3210   */\n    tag_497:\n        /* \"#utility.yul\":3134:3143   */\n      0x00\n        /* \"#utility.yul\":3167:3204   */\n      tag_625\n        /* \"#utility.yul\":3198:3203   */\n      dup3\n        /* \"#utility.yul\":3167:3204   */\n      tag_496\n      jump\t// in\n    tag_625:\n        /* \"#utility.yul\":3154:3204   */\n      swap1\n      pop\n        /* \"#utility.yul\":3084:3210   */\n      swap2\n      swap1\n      pop\n      jump\t// out\n        /* \"#utility.yul\":3216:3360   */\n    tag_498:\n        /* \"#utility.yul\":3284:3293   */\n      0x00\n        /* \"#utility.yul\":3317:3354   */\n      tag_627\n        /* \"#utility.yul\":3348:3353   */\n      dup3\n        /* \"#utility.yul\":3317:3354   */\n      tag_497\n      jump\t// in\n    tag_627:\n        /* \"#utility.yul\":3304:3354   */\n      swap1\n      pop\n        /* \"#utility.yul\":3216:3360   */\n      swap2\n      swap1\n      pop\n      jump\t// out\n        /* \"#utility.yul\":3366:3533   */\n    tag_499:\n        /* \"#utility.yul\":3471:3526   */\n      tag_629\n        /* \"#utility.yul\":3520:3525   */\n      dup2\n        /* \"#utility.yul\":3471:3526   */\n      tag_498\n      jump\t// in\n    tag_629:\n        /* \"#utility.yul\":3466:3469   */\n      dup3\n        /* \"#utility.yul\":3459:3527   */\n      mstore\n        /* \"#utility.yul\":3366:3533   */\n      pop\n      pop\n      jump\t// out\n        /* \"#utility.yul\":3539:3797   */\n    tag_118:\n        /* \"#utility.yul\":3650:3654   */\n      0x00\n        /* \"#utility.yul\":3688:3690   */\n      0x20\n        /* \"#utility.yul\":3677:3686   */\n      dup3\n        /* \"#utility.yul\":3673:3691   */\n      add\n        /* \"#utility.yul\":3665:3691   */\n      swap1\n      pop\n        /* \"#utility.yul\":3701:3790   */\n      tag_631\n        /* \"#utility.yul\":3787:3788   */\n      0x00\n        /* \"#utility.yul\":3776:3785   */\n      dup4\n        /* \"#utility.yul\":3772:3789   */\n      add\n        /* \"#utility.yul\":3763:3769   */\n      dup5\n        /* \"#utility.yul\":3701:3790   */\n      tag_499\n      jump\t// in\n    tag_631:\n        /* \"#utility.yul\":3539:3797   */\n      swap3\n      swap2\n      pop\n      pop\n      jump\t// out\n        /* \"#utility.yul\":3803:4422   */\n    tag_201:\n        /* \"#utility.yul\":3880:3886   */\n      0x00\n        /* \"#utility.yul\":3888:3894   */\n      dup1\n        /* \"#utility.yul\":3896:3902   */\n      0x00\n        /* \"#utility.yul\":3945:3947   */\n      0x60\n        /* \"#utility.yul\":3933:3942   */\n      dup5\n        /* \"#utility.yul\":3924:3931   */\n      dup7\n        /* \"#utility.yul\":3920:3943   */\n      sub\n        /* \"#utility.yul\":3916:3948   */\n      slt\n        /* \"#utility.yul\":3913:4032   */\n      iszero\n      tag_633\n      jumpi\n        /* \"#utility.yul\":3951:4030   */\n      tag_634\n      tag_488\n      jump\t// in\n    tag_634:\n        /* \"#utility.yul\":3913:4032   */\n    tag_633:\n        /* \"#utility.yul\":4071:4072   */\n      0x00\n        /* \"#utility.yul\":4096:4149   */\n      tag_635\n        /* \"#utility.yul\":4141:4148   */\n      dup7\n        /* \"#utility.yul\":4132:4138   */\n      dup3\n        /* \"#utility.yul\":4121:4130   */\n      dup8\n        /* \"#utility.yul\":4117:4139   */\n      add\n        /* \"#utility.yul\":4096:4149   */\n      tag_491\n      jump\t// in\n    tag_635:\n        /* \"#utility.yul\":4086:4149   */\n      swap4\n      pop\n        /* \"#utility.yul\":4042:4159   */\n      pop\n        /* \"#utility.yul\":4198:4200   */\n      0x20\n        /* \"#utility.yul\":4224:4277   */\n      tag_636\n        /* \"#utility.yul\":4269:4276   */\n      dup7\n        /* \"#utility.yul\":4260:4266   */\n      dup3\n        /* \"#utility.yul\":4249:4258   */\n      dup8\n        /* \"#utility.yul\":4245:4267   */\n      add\n        /* \"#utility.yul\":4224:4277   */\n      tag_491\n      jump\t// in\n    tag_636:\n        /* \"#utility.yul\":4214:4277   */\n      swap3\n      pop\n        /* \"#utility.yul\":4169:4287   */\n      pop\n        /* \"#utility.yul\":4326:4328   */\n      0x40\n        /* \"#utility.yul\":4352:4405   */\n      tag_637\n        /* \"#utility.yul\":4397:4404   */\n      dup7\n        /* \"#utility.yul\":4388:4394   */\n      dup3\n        /* \"#utility.yul\":4377:4386   */\n      dup8\n        /* \"#utility.yul\":4373:4395   */\n      add\n        /* \"#utility.yul\":4352:4405   */\n      tag_491\n      jump\t// in\n    tag_637:\n        /* \"#utility.yul\":4342:4405   */\n      swap2\n      pop\n        /* \"#utility.yul\":4297:4415   */\n      pop\n        /* \"#utility.yul\":3803:4422   */\n      swap3\n      pop\n      swap3\n      pop\n      swap3\n      jump\t// out\n        /* \"#utility.yul\":4428:4969   */\n    tag_218:\n        /* \"#utility.yul\":4599:4603   */\n      0x00\n        /* \"#utility.yul\":4637:4640   */\n      0x80\n        /* \"#utility.yul\":4626:4635   */\n      dup3\n        /* \"#utility.yul\":4622:4641   */\n      add\n        /* \"#utility.yul\":4614:4641   */\n      swap1\n      pop\n        /* \"#utility.yul\":4651:4722   */\n      tag_639\n        /* \"#utility.yul\":4719:4720   */\n      0x00\n        /* \"#utility.yul\":4708:4717   */\n      dup4\n        /* \"#utility.yul\":4704:4721   */\n      add\n        /* \"#utility.yul\":4695:4701   */\n      dup8\n        /* \"#utility.yul\":4651:4722   */\n      tag_486\n      jump\t// in\n    tag_639:\n        /* \"#utility.yul\":4732:4804   */\n      tag_640\n        /* \"#utility.yul\":4800:4802   */\n      0x20\n        /* \"#utility.yul\":4789:4798   */\n      dup4\n        /* \"#utility.yul\":4785:4803   */\n      add\n        /* \"#utility.yul\":4776:4782   */\n      dup7\n        /* \"#utility.yul\":4732:4804   */\n      tag_486\n      jump\t// in\n    tag_640:\n        /* \"#utility.yul\":4814:4886   */\n      tag_641\n        /* \"#utility.yul\":4882:4884   */\n      0x40\n        /* \"#utility.yul\":4871:4880   */\n      dup4\n        /* \"#utility.yul\":4867:4885   */\n      add\n        /* \"#utility.yul\":4858:4864   */\n      dup6\n        /* \"#utility.yul\":4814:4886   */\n      tag_486\n      jump\t// in\n    tag_641:\n        /* \"#utility.yul\":4896:4962   */\n      tag_642\n        /* \"#utility.yul\":4958:4960   */\n      0x60\n        /* \"#utility.yul\":4947:4956   */\n      dup4\n        /* \"#utility.yul\":4943:4961   */\n      add\n        /* \"#utility.yul\":4934:4940   */\n      dup5\n        /* \"#utility.yul\":4896:4962   */\n      tag_484\n      jump\t// in\n    tag_642:\n        /* \"#utility.yul\":4428:4969   */\n      swap6\n      swap5\n      pop\n      pop\n      pop\n      pop\n      pop\n      jump\t// out\n        /* \"#utility.yul\":4975:5097   */\n    tag_500:\n        /* \"#utility.yul\":5048:5072   */\n      tag_644\n        /* \"#utility.yul\":5066:5071   */\n      dup2\n        /* \"#utility.yul\":5048:5072   */\n      tag_493\n      jump\t// in\n    tag_644:\n        /* \"#utility.yul\":5041:5046   */\n      dup2\n        /* \"#utility.yul\":5038:5073   */\n      eq\n        /* \"#utility.yul\":5028:5091   */\n      tag_645\n      jumpi\n        /* \"#utility.yul\":5087:5088   */\n      0x00\n        /* \"#utility.yul\":5084:5085   */\n      dup1\n        /* \"#utility.yul\":5077:5089   */\n      revert\n        /* \"#utility.yul\":5028:5091   */\n    tag_645:\n        /* \"#utility.yul\":4975:5097   */\n      pop\n      jump\t// out\n        /* \"#utility.yul\":5103:5242   */\n    tag_501:\n        /* \"#utility.yul\":5149:5154   */\n      0x00\n        /* \"#utility.yul\":5187:5193   */\n      dup2\n        /* \"#utility.yul\":5174:5194   */\n      calldataload\n        /* \"#utility.yul\":5165:5194   */\n      swap1\n      pop\n        /* \"#utility.yul\":5203:5236   */\n      tag_647\n        /* \"#utility.yul\":5230:5235   */\n      dup2\n        /* \"#utility.yul\":5203:5236   */\n      tag_500\n      jump\t// in\n    tag_647:\n        /* \"#utility.yul\":5103:5242   */\n      swap3\n      swap2\n      pop\n      pop\n      jump\t// out\n        /* \"#utility.yul\":5248:5577   */\n    tag_229:\n        /* \"#utility.yul\":5307:5313   */\n      0x00\n        /* \"#utility.yul\":5356:5358   */\n      0x20\n        /* \"#utility.yul\":5344:5353   */\n      dup3\n        /* \"#utility.yul\":5335:5342   */\n      dup5\n        /* \"#utility.yul\":5331:5354   */\n      sub\n        /* \"#utility.yul\":5327:5359   */\n      slt\n        /* \"#utility.yul\":5324:5443   */\n      iszero\n      tag_649\n      jumpi\n        /* \"#utility.yul\":5362:5441   */\n      tag_650\n      tag_488\n      jump\t// in\n    tag_650:\n        /* \"#utility.yul\":5324:5443   */\n    tag_649:\n        /* \"#utility.yul\":5482:5483   */\n      0x00\n        /* \"#utility.yul\":5507:5560   */\n      tag_651\n        /* \"#utility.yul\":5552:5559   */\n      dup5\n        /* \"#utility.yul\":5543:5549   */\n      dup3\n        /* \"#utility.yul\":5532:5541   */\n      dup6\n        /* \"#utility.yul\":5528:5550   */\n      add\n        /* \"#utility.yul\":5507:5560   */\n      tag_501\n      jump\t// in\n    tag_651:\n        /* \"#utility.yul\":5497:5560   */\n      swap2\n      pop\n        /* \"#utility.yul\":5453:5570   */\n      pop\n        /* \"#utility.yul\":5248:5577   */\n      swap3\n      swap2\n      pop\n      pop\n      jump\t// out\n        /* \"#utility.yul\":5583:5752   */\n    tag_502:\n        /* \"#utility.yul\":5667:5678   */\n      0x00\n        /* \"#utility.yul\":5701:5707   */\n      dup3\n        /* \"#utility.yul\":5696:5699   */\n      dup3\n        /* \"#utility.yul\":5689:5708   */\n      mstore\n        /* \"#utility.yul\":5741:5745   */\n      0x20\n        /* \"#utility.yul\":5736:5739   */\n      dup3\n        /* \"#utility.yul\":5732:5746   */\n      add\n        /* \"#utility.yul\":5717:5746   */\n      swap1\n      pop\n        /* \"#utility.yul\":5583:5752   */\n      swap3\n      swap2\n      pop\n      pop\n      jump\t// out\n        /* \"#utility.yul\":5758:5986   */\n    tag_503:\n        /* \"#utility.yul\":5898:5932   */\n      0x4f6e6c79206c616e646c6f72642063616e20736574207468652064616d616765\n        /* \"#utility.yul\":5894:5895   */\n      0x00\n        /* \"#utility.yul\":5886:5892   */\n      dup3\n        /* \"#utility.yul\":5882:5896   */\n      add\n        /* \"#utility.yul\":5875:5933   */\n      mstore\n        /* \"#utility.yul\":5967:5978   */\n      0x20657374696d6174650000000000000000000000000000000000000000000000\n        /* \"#utility.yul\":5962:5964   */\n      0x20\n        /* \"#utility.yul\":5954:5960   */\n      dup3\n        /* \"#utility.yul\":5950:5965   */\n      add\n        /* \"#utility.yul\":5943:5979   */\n      mstore\n        /* \"#utility.yul\":5758:5986   */\n      pop\n      jump\t// out\n        /* \"#utility.yul\":5992:6358   */\n    tag_504:\n        /* \"#utility.yul\":6134:6137   */\n      0x00\n        /* \"#utility.yul\":6155:6222   */\n      tag_655\n        /* \"#utility.yul\":6219:6221   */\n      0x29\n        /* \"#utility.yul\":6214:6217   */\n      dup4\n        /* \"#utility.yul\":6155:6222   */\n      tag_502\n      jump\t// in\n    tag_655:\n        /* \"#utility.yul\":6148:6222   */\n      swap2\n      pop\n        /* \"#utility.yul\":6231:6324   */\n      tag_656\n        /* \"#utility.yul\":6320:6323   */\n      dup3\n        /* \"#utility.yul\":6231:6324   */\n      tag_503\n      jump\t// in\n    tag_656:\n        /* \"#utility.yul\":6349:6351   */\n      0x40\n        /* \"#utility.yul\":6344:6347   */\n      dup3\n        /* \"#utility.yul\":6340:6352   */\n      add\n        /* \"#utility.yul\":6333:6352   */\n      swap1\n      pop\n        /* \"#utility.yul\":5992:6358   */\n      swap2\n      swap1\n      pop\n      jump\t// out\n        /* \"#utility.yul\":6364:6783   */\n    tag_239:\n        /* \"#utility.yul\":6530:6534   */\n      0x00\n        /* \"#utility.yul\":6568:6570   */\n      0x20\n        /* \"#utility.yul\":6557:6566   */\n      dup3\n        /* \"#utility.yul\":6553:6571   */\n      add\n        /* \"#utility.yul\":6545:6571   */\n      swap1\n      pop\n        /* \"#utility.yul\":6617:6626   */\n      dup2\n        /* \"#utility.yul\":6611:6615   */\n      dup2\n        /* \"#utility.yul\":6607:6627   */\n      sub\n        /* \"#utility.yul\":6603:6604   */\n      0x00\n        /* \"#utility.yul\":6592:6601   */\n      dup4\n        /* \"#utility.yul\":6588:6605   */\n      add\n        /* \"#utility.yul\":6581:6628   */\n      mstore\n        /* \"#utility.yul\":6645:6776   */\n      tag_658\n        /* \"#utility.yul\":6771:6775   */\n      dup2\n        /* \"#utility.yul\":6645:6776   */\n      tag_504\n      jump\t// in\n    tag_658:\n        /* \"#utility.yul\":6637:6776   */\n      swap1\n      pop\n        /* \"#utility.yul\":6364:6783   */\n      swap2\n      swap1\n      pop\n      jump\t// out\n        /* \"#utility.yul\":6789:6968   */\n    tag_505:\n        /* \"#utility.yul\":6929:6960   */\n      0x52656e7420706572696f6420686173206e6f7420656e64656420796574000000\n        /* \"#utility.yul\":6925:6926   */\n      0x00\n        /* \"#utility.yul\":6917:6923   */\n      dup3\n        /* \"#utility.yul\":6913:6927   */\n      add\n        /* \"#utility.yul\":6906:6961   */\n      mstore\n        /* \"#utility.yul\":6789:6968   */\n      pop\n      jump\t// out\n        /* \"#utility.yul\":6974:7340   */\n    tag_506:\n        /* \"#utility.yul\":7116:7119   */\n      0x00\n        /* \"#utility.yul\":7137:7204   */\n      tag_661\n        /* \"#utility.yul\":7201:7203   */\n      0x1d\n        /* \"#utility.yul\":7196:7199   */\n      dup4\n        /* \"#utility.yul\":7137:7204   */\n      tag_502\n      jump\t// in\n    tag_661:\n        /* \"#utility.yul\":7130:7204   */\n      swap2\n      pop\n        /* \"#utility.yul\":7213:7306   */\n      tag_662\n        /* \"#utility.yul\":7302:7305   */\n      dup3\n        /* \"#utility.yul\":7213:7306   */\n      tag_505\n      jump\t// in\n    tag_662:\n        /* \"#utility.yul\":7331:7333   */\n      0x20\n        /* \"#utility.yul\":7326:7329   */\n      dup3\n        /* \"#utility.yul\":7322:7334   */\n      add\n        /* \"#utility.yul\":7315:7334   */\n      swap1\n      pop\n        /* \"#utility.yul\":6974:7340   */\n      swap2\n      swap1\n      pop\n      jump\t// out\n        /* \"#utility.yul\":7346:7765   */\n    tag_242:\n        /* \"#utility.yul\":7512:7516   */\n      0x00\n        /* \"#utility.yul\":7550:7552   */\n      0x20\n        /* \"#utility.yul\":7539:7548   */\n      dup3\n        /* \"#utility.yul\":7535:7553   */\n      add\n        /* \"#utility.yul\":7527:7553   */\n      swap1\n      pop\n        /* \"#utility.yul\":7599:7608   */\n      dup2\n        /* \"#utility.yul\":7593:7597   */\n      dup2\n        /* \"#utility.yul\":7589:7609   */\n      sub\n        /* \"#utility.yul\":7585:7586   */\n      0x00\n        /* \"#utility.yul\":7574:7583   */\n      dup4\n        /* \"#utility.yul\":7570:7587   */\n      add\n        /* \"#utility.yul\":7563:7610   */\n      mstore\n        /* \"#utility.yul\":7627:7758   */\n      tag_664\n        /* \"#utility.yul\":7753:7757   */\n      dup2\n        /* \"#utility.yul\":7627:7758   */\n      tag_506\n      jump\t// in\n    tag_664:\n        /* \"#utility.yul\":7619:7758   */\n      swap1\n      pop\n        /* \"#utility.yul\":7346:7765   */\n      swap2\n      swap1\n      pop\n      jump\t// out\n        /* \"#utility.yul\":7771:7948   */\n    tag_507:\n        /* \"#utility.yul\":7911:7940   */\n      0x44616d61676520657374696d61746520616c7265616479207365740000000000\n        /* \"#utility.yul\":7907:7908   */\n      0x00\n        /* \"#utility.yul\":7899:7905   */\n      dup3\n        /* \"#utility.yul\":7895:7909   */\n      add\n        /* \"#utility.yul\":7888:7941   */\n      mstore\n        /* \"#utility.yul\":7771:7948   */\n      pop\n      jump\t// out\n        /* \"#utility.yul\":7954:8320   */\n    tag_508:\n        /* \"#utility.yul\":8096:8099   */\n      0x00\n        /* \"#utility.yul\":8117:8184   */\n      tag_667\n        /* \"#utility.yul\":8181:8183   */\n      0x1b\n        /* \"#utility.yul\":8176:8179   */\n      dup4\n        /* \"#utility.yul\":8117:8184   */\n      tag_502\n      jump\t// in\n    tag_667:\n        /* \"#utility.yul\":8110:8184   */\n      swap2\n      pop\n        /* \"#utility.yul\":8193:8286   */\n      tag_668\n        /* \"#utility.yul\":8282:8285   */\n      dup3\n        /* \"#utility.yul\":8193:8286   */\n      tag_507\n      jump\t// in\n    tag_668:\n        /* \"#utility.yul\":8311:8313   */\n      0x20\n        /* \"#utility.yul\":8306:8309   */\n      dup3\n        /* \"#utility.yul\":8302:8314   */\n      add\n        /* \"#utility.yul\":8295:8314   */\n      swap1\n      pop\n        /* \"#utility.yul\":7954:8320   */\n      swap2\n      swap1\n      pop\n      jump\t// out\n        /* \"#utility.yul\":8326:8745   */\n    tag_245:\n        /* \"#utility.yul\":8492:8496   */\n      0x00\n        /* \"#utility.yul\":8530:8532   */\n      0x20\n        /* \"#utility.yul\":8519:8528   */\n      dup3\n        /* \"#utility.yul\":8515:8533   */\n      add\n        /* \"#utility.yul\":8507:8533   */\n      swap1\n      pop\n        /* \"#utility.yul\":8579:8588   */\n      dup2\n        /* \"#utility.yul\":8573:8577   */\n      dup2\n        /* \"#utility.yul\":8569:8589   */\n      sub\n        /* \"#utility.yul\":8565:8566   */\n      0x00\n        /* \"#utility.yul\":8554:8563   */\n      dup4\n        /* \"#utility.yul\":8550:8567   */\n      add\n        /* \"#utility.yul\":8543:8590   */\n      mstore\n        /* \"#utility.yul\":8607:8738   */\n      tag_670\n        /* \"#utility.yul\":8733:8737   */\n      dup2\n        /* \"#utility.yul\":8607:8738   */\n      tag_508\n      jump\t// in\n    tag_670:\n        /* \"#utility.yul\":8599:8738   */\n      swap1\n      pop\n        /* \"#utility.yul\":8326:8745   */\n      swap2\n      swap1\n      pop\n      jump\t// out\n        /* \"#utility.yul\":8751:8923   */\n    tag_509:\n        /* \"#utility.yul\":8891:8915   */\n      0x436f6e7472616374206973206e6f742061637469766500000000000000000000\n        /* \"#utility.yul\":8887:8888   */\n      0x00\n        /* \"#utility.yul\":8879:8885   */\n      dup3\n        /* \"#utility.yul\":8875:8889   */\n      add\n        /* \"#utility.yul\":8868:8916   */\n      mstore\n        /* \"#utility.yul\":8751:8923   */\n      pop\n      jump\t// out\n        /* \"#utility.yul\":8929:9295   */\n    tag_510:\n        /* \"#utility.yul\":9071:9074   */\n      0x00\n        /* \"#utility.yul\":9092:9159   */\n      tag_673\n        /* \"#utility.yul\":9156:9158   */\n      0x16\n        /* \"#utility.yul\":9151:9154   */\n      dup4\n        /* \"#utility.yul\":9092:9159   */\n      tag_502\n      jump\t// in\n    tag_673:\n        /* \"#utility.yul\":9085:9159   */\n      swap2\n      pop\n        /* \"#utility.yul\":9168:9261   */\n      tag_674\n        /* \"#utility.yul\":9257:9260   */\n      dup3\n        /* \"#utility.yul\":9168:9261   */\n      tag_509\n      jump\t// in\n    tag_674:\n        /* \"#utility.yul\":9286:9288   */\n      0x20\n        /* \"#utility.yul\":9281:9284   */\n      dup3\n        /* \"#utility.yul\":9277:9289   */\n      add\n        /* \"#utility.yul\":9270:9289   */\n      swap1\n      pop\n        /* \"#utility.yul\":8929:9295   */\n      swap2\n      swap1\n      pop\n      jump\t// out\n        /* \"#utility.yul\":9301:9720   */\n    tag_248:\n        /* \"#utility.yul\":9467:9471   */\n      0x00\n        /* \"#utility.yul\":9505:9507   */\n      0x20\n        /* \"#utility.yul\":9494:9503   */\n      dup3\n        /* \"#utility.yul\":9490:9508   */\n      add\n        /* \"#utility.yul\":9482:9508   */\n      swap1\n      pop\n        /* \"#utility.yul\":9554:9563   */\n      dup2\n        /* \"#utility.yul\":9548:9552   */\n      dup2\n        /* \"#utility.yul\":9544:9564   */\n      sub\n        /* \"#utility.yul\":9540:9541   */\n      0x00\n        /* \"#utility.yul\":9529:9538   */\n      dup4\n        /* \"#utility.yul\":9525:9542   */\n      add\n        /* \"#utility.yul\":9518:9565   */\n      mstore\n        /* \"#utility.yul\":9582:9713   */\n      tag_676\n        /* \"#utility.yul\":9708:9712   */\n      dup2\n        /* \"#utility.yul\":9582:9713   */\n      tag_510\n      jump\t// in\n    tag_676:\n        /* \"#utility.yul\":9574:9713   */\n      swap1\n      pop\n        /* \"#utility.yul\":9301:9720   */\n      swap2\n      swap1\n      pop\n      jump\t// out\n        /* \"#utility.yul\":9726:9958   */\n    tag_511:\n        /* \"#utility.yul\":9866:9900   */\n      0x4f6e6c79206c616e646c6f72642063616e2072656a6563742074686520636f75\n        /* \"#utility.yul\":9862:9863   */\n      0x00\n        /* \"#utility.yul\":9854:9860   */\n      dup3\n        /* \"#utility.yul\":9850:9864   */\n      add\n        /* \"#utility.yul\":9843:9901   */\n      mstore\n        /* \"#utility.yul\":9935:9950   */\n      0x6e74657220657374696d61746500000000000000000000000000000000000000\n        /* \"#utility.yul\":9930:9932   */\n      0x20\n        /* \"#utility.yul\":9922:9928   */\n      dup3\n        /* \"#utility.yul\":9918:9933   */\n      add\n        /* \"#utility.yul\":9911:9951   */\n      mstore\n        /* \"#utility.yul\":9726:9958   */\n      pop\n      jump\t// out\n        /* \"#utility.yul\":9964:10330   */\n    tag_512:\n        /* \"#utility.yul\":10106:10109   */\n      0x00\n        /* \"#utility.yul\":10127:10194   */\n      tag_679\n        /* \"#utility.yul\":10191:10193   */\n      0x2d\n        /* \"#utility.yul\":10186:10189   */\n      dup4\n        /* \"#utility.yul\":10127:10194   */\n      tag_502\n      jump\t// in\n    tag_679:\n        /* \"#utility.yul\":10120:10194   */\n      swap2\n      pop\n        /* \"#utility.yul\":10203:10296   */\n      tag_680\n        /* \"#utility.yul\":10292:10295   */\n      dup3\n        /* \"#utility.yul\":10203:10296   */\n      tag_511\n      jump\t// in\n    tag_680:\n        /* \"#utility.yul\":10321:10323   */\n      0x40\n        /* \"#utility.yul\":10316:10319   */\n      dup3\n        /* \"#utility.yul\":10312:10324   */\n      add\n        /* \"#utility.yul\":10305:10324   */\n      swap1\n      pop\n        /* \"#utility.yul\":9964:10330   */\n      swap2\n      swap1\n      pop\n      jump\t// out\n        /* \"#utility.yul\":10336:10755   */\n    tag_253:\n        /* \"#utility.yul\":10502:10506   */\n      0x00\n        /* \"#utility.yul\":10540:10542   */\n      0x20\n        /* \"#utility.yul\":10529:10538   */\n      dup3\n        /* \"#utility.yul\":10525:10543   */\n      add\n        /* \"#utility.yul\":10517:10543   */\n      swap1\n      pop\n        /* \"#utility.yul\":10589:10598   */\n      dup2\n        /* \"#utility.yul\":10583:10587   */\n      dup2\n        /* \"#utility.yul\":10579:10599   */\n      sub\n        /* \"#utility.yul\":10575:10576   */\n      0x00\n        /* \"#utility.yul\":10564:10573   */\n      dup4\n        /* \"#utility.yul\":10560:10577   */\n      add\n        /* \"#utility.yul\":10553:10600   */\n      mstore\n        /* \"#utility.yul\":10617:10748   */\n      tag_682\n        /* \"#utility.yul\":10743:10747   */\n      dup2\n        /* \"#utility.yul\":10617:10748   */\n      tag_512\n      jump\t// in\n    tag_682:\n        /* \"#utility.yul\":10609:10748   */\n      swap1\n      pop\n        /* \"#utility.yul\":10336:10755   */\n      swap2\n      swap1\n      pop\n      jump\t// out\n        /* \"#utility.yul\":10761:10986   */\n    tag_513:\n        /* \"#utility.yul\":10901:10935   */\n      0x52656e746572206d7573742073657420636f756e74657220657374696d617465\n        /* \"#utility.yul\":10897:10898   */\n      0x00\n        /* \"#utility.yul\":10889:10895   */\n      dup3\n        /* \"#utility.yul\":10885:10899   */\n      add\n        /* \"#utility.yul\":10878:10936   */\n      mstore\n        /* \"#utility.yul\":10970:10978   */\n      0x2066697273740000000000000000000000000000000000000000000000000000\n        /* \"#utility.yul\":10965:10967   */\n      0x20\n        /* \"#utility.yul\":10957:10963   */\n      dup3\n        /* \"#utility.yul\":10953:10968   */\n      add\n        /* \"#utility.yul\":10946:10979   */\n      mstore\n        /* \"#utility.yul\":10761:10986   */\n      pop\n      jump\t// out\n        /* \"#utility.yul\":10992:11358   */\n    tag_514:\n        /* \"#utility.yul\":11134:11137   */\n      0x00\n        /* \"#utility.yul\":11155:11222   */\n      tag_685\n        /* \"#utility.yul\":11219:11221   */\n      0x26\n        /* \"#utility.yul\":11214:11217   */\n      dup4\n        /* \"#utility.yul\":11155:11222   */\n      tag_502\n      jump\t// in\n    tag_685:\n        /* \"#utility.yul\":11148:11222   */\n      swap2\n      pop\n        /* \"#utility.yul\":11231:11324   */\n      tag_686\n        /* \"#utility.yul\":11320:11323   */\n      dup3\n        /* \"#utility.yul\":11231:11324   */\n      tag_513\n      jump\t// in\n    tag_686:\n        /* \"#utility.yul\":11349:11351   */\n      0x40\n        /* \"#utility.yul\":11344:11347   */\n      dup3\n        /* \"#utility.yul\":11340:11352   */\n      add\n        /* \"#utility.yul\":11333:11352   */\n      swap1\n      pop\n        /* \"#utility.yul\":10992:11358   */\n      swap2\n      swap1\n      pop\n      jump\t// out\n        /* \"#utility.yul\":11364:11783   */\n    tag_256:\n        /* \"#utility.yul\":11530:11534   */\n      0x00\n        /* \"#utility.yul\":11568:11570   */\n      0x20\n        /* \"#utility.yul\":11557:11566   */\n      dup3\n        /* \"#utility.yul\":11553:11571   */\n      add\n        /* \"#utility.yul\":11545:11571   */\n      swap1\n      pop\n        /* \"#utility.yul\":11617:11626   */\n      dup2\n        /* \"#utility.yul\":11611:11615   */\n      dup2\n        /* \"#utility.yul\":11607:11627   */\n      sub\n        /* \"#utility.yul\":11603:11604   */\n      0x00\n        /* \"#utility.yul\":11592:11601   */\n      dup4\n        /* \"#utility.yul\":11588:11605   */\n      add\n        /* \"#utility.yul\":11581:11628   */\n      mstore\n        /* \"#utility.yul\":11645:11776   */\n      tag_688\n        /* \"#utility.yul\":11771:11775   */\n      dup2\n        /* \"#utility.yul\":11645:11776   */\n      tag_514\n      jump\t// in\n    tag_688:\n        /* \"#utility.yul\":11637:11776   */\n      swap1\n      pop\n        /* \"#utility.yul\":11364:11783   */\n      swap2\n      swap1\n      pop\n      jump\t// out\n        /* \"#utility.yul\":11789:11957   */\n    tag_515:\n        /* \"#utility.yul\":11872:11883   */\n      0x00\n        /* \"#utility.yul\":11906:11912   */\n      dup3\n        /* \"#utility.yul\":11901:11904   */\n      dup3\n        /* \"#utility.yul\":11894:11913   */\n      mstore\n        /* \"#utility.yul\":11946:11950   */\n      0x20\n        /* \"#utility.yul\":11941:11944   */\n      dup3\n        /* \"#utility.yul\":11937:11951   */\n      add\n        /* \"#utility.yul\":11922:11951   */\n      swap1\n      pop\n        /* \"#utility.yul\":11789:11957   */\n      swap3\n      swap2\n      pop\n      pop\n      jump\t// out\n        /* \"#utility.yul\":11963:12077   */\n    tag_516:\n      pop\n      jump\t// out\n        /* \"#utility.yul\":12083:12445   */\n    tag_517:\n        /* \"#utility.yul\":12224:12227   */\n      0x00\n        /* \"#utility.yul\":12245:12310   */\n      tag_692\n        /* \"#utility.yul\":12308:12309   */\n      0x00\n        /* \"#utility.yul\":12303:12306   */\n      dup4\n        /* \"#utility.yul\":12245:12310   */\n      tag_515\n      jump\t// in\n    tag_692:\n        /* \"#utility.yul\":12238:12310   */\n      swap2\n      pop\n        /* \"#utility.yul\":12319:12412   */\n      tag_693\n        /* \"#utility.yul\":12408:12411   */\n      dup3\n        /* \"#utility.yul\":12319:12412   */\n      tag_516\n      jump\t// in\n    tag_693:\n        /* \"#utility.yul\":12437:12438   */\n      0x00\n        /* \"#utility.yul\":12432:12435   */\n      dup3\n        /* \"#utility.yul\":12428:12439   */\n      add\n        /* \"#utility.yul\":12421:12439   */\n      swap1\n      pop\n        /* \"#utility.yul\":12083:12445   */\n      swap2\n      swap1\n      pop\n      jump\t// out\n        /* \"#utility.yul\":12451:12868   */\n    tag_258:\n        /* \"#utility.yul\":12616:12620   */\n      0x00\n        /* \"#utility.yul\":12654:12656   */\n      0x20\n        /* \"#utility.yul\":12643:12652   */\n      dup3\n        /* \"#utility.yul\":12639:12657   */\n      add\n        /* \"#utility.yul\":12631:12657   */\n      swap1\n      pop\n        /* \"#utility.yul\":12703:12712   */\n      dup2\n        /* \"#utility.yul\":12697:12701   */\n      dup2\n        /* \"#utility.yul\":12693:12713   */\n      sub\n        /* \"#utility.yul\":12689:12690   */\n      0x00\n        /* \"#utility.yul\":12678:12687   */\n      dup4\n        /* \"#utility.yul\":12674:12691   */\n      add\n        /* \"#utility.yul\":12667:12714   */\n      mstore\n        /* \"#utility.yul\":12731:12861   */\n      tag_695\n        /* \"#utility.yul\":12856:12860   */\n      dup2\n        /* \"#utility.yul\":12731:12861   */\n      tag_517\n      jump\t// in\n    tag_695:\n        /* \"#utility.yul\":12723:12861   */\n      swap1\n      pop\n        /* \"#utility.yul\":12451:12868   */\n      swap2\n      swap1\n      pop\n      jump\t// out\n        /* \"#utility.yul\":12874:13017   */\n    tag_518:\n        /* \"#utility.yul\":12931:12936   */\n      0x00\n        /* \"#utility.yul\":12962:12968   */\n      dup2\n        /* \"#utility.yul\":12956:12969   */\n      mload\n        /* \"#utility.yul\":12947:12969   */\n      swap1\n      pop\n        /* \"#utility.yul\":12978:13011   */\n      tag_697\n        /* \"#utility.yul\":13005:13010   */\n      dup2\n        /* \"#utility.yul\":12978:13011   */\n      tag_490\n      jump\t// in\n    tag_697:\n        /* \"#utility.yul\":12874:13017   */\n      swap3\n      swap2\n      pop\n      pop\n      jump\t// out\n        /* \"#utility.yul\":13023:13374   */\n    tag_262:\n        /* \"#utility.yul\":13093:13099   */\n      0x00\n        /* \"#utility.yul\":13142:13144   */\n      0x20\n        /* \"#utility.yul\":13130:13139   */\n      dup3\n        /* \"#utility.yul\":13121:13128   */\n      dup5\n        /* \"#utility.yul\":13117:13140   */\n      sub\n        /* \"#utility.yul\":13113:13145   */\n      slt\n        /* \"#utility.yul\":13110:13229   */\n      iszero\n      tag_699\n      jumpi\n        /* \"#utility.yul\":13148:13227   */\n      tag_700\n      tag_488\n      jump\t// in\n    tag_700:\n        /* \"#utility.yul\":13110:13229   */\n    tag_699:\n        /* \"#utility.yul\":13268:13269   */\n      0x00\n        /* \"#utility.yul\":13293:13357   */\n      tag_701\n        /* \"#utility.yul\":13349:13356   */\n      dup5\n        /* \"#utility.yul\":13340:13346   */\n      dup3\n        /* \"#utility.yul\":13329:13338   */\n      dup6\n        /* \"#utility.yul\":13325:13347   */\n      add\n        /* \"#utility.yul\":13293:13357   */\n      tag_518\n      jump\t// in\n    tag_701:\n        /* \"#utility.yul\":13283:13357   */\n      swap2\n      pop\n        /* \"#utility.yul\":13239:13367   */\n      pop\n        /* \"#utility.yul\":13023:13374   */\n      swap3\n      swap2\n      pop\n      pop\n      jump\t// out\n        /* \"#utility.yul\":13380:13623   */\n    tag_519:\n        /* \"#utility.yul\":13520:13554   */\n      0x5365637572697479206465706f73697420696e73756666696369656e7420746f\n        /* \"#utility.yul\":13516:13517   */\n      0x00\n        /* \"#utility.yul\":13508:13514   */\n      dup3\n        /* \"#utility.yul\":13504:13518   */\n      add\n        /* \"#utility.yul\":13497:13555   */\n      mstore\n        /* \"#utility.yul\":13589:13615   */\n      0x20636f766572206172626974726174696f6e20636f7374730000000000000000\n        /* \"#utility.yul\":13584:13586   */\n      0x20\n        /* \"#utility.yul\":13576:13582   */\n      dup3\n        /* \"#utility.yul\":13572:13587   */\n      add\n        /* \"#utility.yul\":13565:13616   */\n      mstore\n        /* \"#utility.yul\":13380:13623   */\n      pop\n      jump\t// out\n        /* \"#utility.yul\":13629:13995   */\n    tag_520:\n        /* \"#utility.yul\":13771:13774   */\n      0x00\n        /* \"#utility.yul\":13792:13859   */\n      tag_704\n        /* \"#utility.yul\":13856:13858   */\n      0x38\n        /* \"#utility.yul\":13851:13854   */\n      dup4\n        /* \"#utility.yul\":13792:13859   */\n      tag_502\n      jump\t// in\n    tag_704:\n        /* \"#utility.yul\":13785:13859   */\n      swap2\n      pop\n        /* \"#utility.yul\":13868:13961   */\n      tag_705\n        /* \"#utility.yul\":13957:13960   */\n      dup3\n        /* \"#utility.yul\":13868:13961   */\n      tag_519\n      jump\t// in\n    tag_705:\n        /* \"#utility.yul\":13986:13988   */\n      0x40\n        /* \"#utility.yul\":13981:13984   */\n      dup3\n        /* \"#utility.yul\":13977:13989   */\n      add\n        /* \"#utility.yul\":13970:13989   */\n      swap1\n      pop\n        /* \"#utility.yul\":13629:13995   */\n      swap2\n      swap1\n      pop\n      jump\t// out\n        /* \"#utility.yul\":14001:14420   */\n    tag_265:\n        /* \"#utility.yul\":14167:14171   */\n      0x00\n        /* \"#utility.yul\":14205:14207   */\n      0x20\n        /* \"#utility.yul\":14194:14203   */\n      dup3\n        /* \"#utility.yul\":14190:14208   */\n      add\n        /* \"#utility.yul\":14182:14208   */\n      swap1\n      pop\n        /* \"#utility.yul\":14254:14263   */\n      dup2\n        /* \"#utility.yul\":14248:14252   */\n      dup2\n        /* \"#utility.yul\":14244:14264   */\n      sub\n        /* \"#utility.yul\":14240:14241   */\n      0x00\n        /* \"#utility.yul\":14229:14238   */\n      dup4\n        /* \"#utility.yul\":14225:14242   */\n      add\n        /* \"#utility.yul\":14218:14265   */\n      mstore\n        /* \"#utility.yul\":14282:14413   */\n      tag_707\n        /* \"#utility.yul\":14408:14412   */\n      dup2\n        /* \"#utility.yul\":14282:14413   */\n      tag_520\n      jump\t// in\n    tag_707:\n        /* \"#utility.yul\":14274:14413   */\n      swap1\n      pop\n        /* \"#utility.yul\":14001:14420   */\n      swap2\n      swap1\n      pop\n      jump\t// out\n        /* \"#utility.yul\":14426:14606   */\n    tag_521:\n        /* \"#utility.yul\":14474:14551   */\n      0x4e487b7100000000000000000000000000000000000000000000000000000000\n        /* \"#utility.yul\":14471:14472   */\n      0x00\n        /* \"#utility.yul\":14464:14552   */\n      mstore\n        /* \"#utility.yul\":14571:14575   */\n      0x11\n        /* \"#utility.yul\":14568:14569   */\n      0x04\n        /* \"#utility.yul\":14561:14576   */\n      mstore\n        /* \"#utility.yul\":14595:14599   */\n      0x24\n        /* \"#utility.yul\":14592:14593   */\n      0x00\n        /* \"#utility.yul\":14585:14600   */\n      revert\n        /* \"#utility.yul\":14612:14806   */\n    tag_267:\n        /* \"#utility.yul\":14652:14656   */\n      0x00\n        /* \"#utility.yul\":14672:14692   */\n      tag_710\n        /* \"#utility.yul\":14690:14691   */\n      dup3\n        /* \"#utility.yul\":14672:14692   */\n      tag_485\n      jump\t// in\n    tag_710:\n        /* \"#utility.yul\":14667:14692   */\n      swap2\n      pop\n        /* \"#utility.yul\":14706:14726   */\n      tag_711\n        /* \"#utility.yul\":14724:14725   */\n      dup4\n        /* \"#utility.yul\":14706:14726   */\n      tag_485\n      jump\t// in\n    tag_711:\n        /* \"#utility.yul\":14701:14726   */\n      swap3\n      pop\n        /* \"#utility.yul\":14750:14751   */\n      dup3\n        /* \"#utility.yul\":14747:14748   */\n      dup3\n        /* \"#utility.yul\":14743:14752   */\n      sub\n        /* \"#utility.yul\":14735:14752   */\n      swap1\n      pop\n        /* \"#utility.yul\":14774:14775   */\n      dup2\n        /* \"#utility.yul\":14768:14772   */\n      dup2\n        /* \"#utility.yul\":14765:14776   */\n      gt\n        /* \"#utility.yul\":14762:14799   */\n      iszero\n      tag_712\n      jumpi\n        /* \"#utility.yul\":14779:14797   */\n      tag_713\n      tag_521\n      jump\t// in\n    tag_713:\n        /* \"#utility.yul\":14762:14799   */\n    tag_712:\n        /* \"#utility.yul\":14612:14806   */\n      swap3\n      swap2\n      pop\n      pop\n      jump\t// out\n        /* \"#utility.yul\":14812:14990   */\n    tag_522:\n        /* \"#utility.yul\":14952:14982   */\n      0x4f6e6c79207468652061726269747261746f722063616e2072756c6500000000\n        /* \"#utility.yul\":14948:14949   */\n      0x00\n        /* \"#utility.yul\":14940:14946   */\n      dup3\n        /* \"#utility.yul\":14936:14950   */\n      add\n        /* \"#utility.yul\":14929:14983   */\n      mstore\n        /* \"#utility.yul\":14812:14990   */\n      pop\n      jump\t// out\n        /* \"#utility.yul\":14996:15362   */\n    tag_523:\n        /* \"#utility.yul\":15138:15141   */\n      0x00\n        /* \"#utility.yul\":15159:15226   */\n      tag_716\n        /* \"#utility.yul\":15223:15225   */\n      0x1c\n        /* \"#utility.yul\":15218:15221   */\n      dup4\n        /* \"#utility.yul\":15159:15226   */\n      tag_502\n      jump\t// in\n    tag_716:\n        /* \"#utility.yul\":15152:15226   */\n      swap2\n      pop\n        /* \"#utility.yul\":15235:15328   */\n      tag_717\n        /* \"#utility.yul\":15324:15327   */\n      dup3\n        /* \"#utility.yul\":15235:15328   */\n      tag_522\n      jump\t// in\n    tag_717:\n        /* \"#utility.yul\":15353:15355   */\n      0x20\n        /* \"#utility.yul\":15348:15351   */\n      dup3\n        /* \"#utility.yul\":15344:15356   */\n      add\n        /* \"#utility.yul\":15337:15356   */\n      swap1\n      pop\n        /* \"#utility.yul\":14996:15362   */\n      swap2\n      swap1\n      pop\n      jump\t// out\n        /* \"#utility.yul\":15368:15787   */\n    tag_273:\n        /* \"#utility.yul\":15534:15538   */\n      0x00\n        /* \"#utility.yul\":15572:15574   */\n      0x20\n        /* \"#utility.yul\":15561:15570   */\n      dup3\n        /* \"#utility.yul\":15557:15575   */\n      add\n        /* \"#utility.yul\":15549:15575   */\n      swap1\n      pop\n        /* \"#utility.yul\":15621:15630   */\n      dup2\n        /* \"#utility.yul\":15615:15619   */\n      dup2\n        /* \"#utility.yul\":15611:15631   */\n      sub\n        /* \"#utility.yul\":15607:15608   */\n      0x00\n        /* \"#utility.yul\":15596:15605   */\n      dup4\n        /* \"#utility.yul\":15592:15609   */\n      add\n        /* \"#utility.yul\":15585:15632   */\n      mstore\n        /* \"#utility.yul\":15649:15780   */\n      tag_719\n        /* \"#utility.yul\":15775:15779   */\n      dup2\n        /* \"#utility.yul\":15649:15780   */\n      tag_523\n      jump\t// in\n    tag_719:\n        /* \"#utility.yul\":15641:15780   */\n      swap1\n      pop\n        /* \"#utility.yul\":15368:15787   */\n      swap2\n      swap1\n      pop\n      jump\t// out\n        /* \"#utility.yul\":15793:15964   */\n    tag_524:\n        /* \"#utility.yul\":15933:15956   */\n      0x4e6f206469737075746520746f2072756c65206f6e0000000000000000000000\n        /* \"#utility.yul\":15929:15930   */\n      0x00\n        /* \"#utility.yul\":15921:15927   */\n      dup3\n        /* \"#utility.yul\":15917:15931   */\n      add\n        /* \"#utility.yul\":15910:15957   */\n      mstore\n        /* \"#utility.yul\":15793:15964   */\n      pop\n      jump\t// out\n        /* \"#utility.yul\":15970:16336   */\n    tag_525:\n        /* \"#utility.yul\":16112:16115   */\n      0x00\n        /* \"#utility.yul\":16133:16200   */\n      tag_722\n        /* \"#utility.yul\":16197:16199   */\n      0x15\n        /* \"#utility.yul\":16192:16195   */\n      dup4\n        /* \"#utility.yul\":16133:16200   */\n      tag_502\n      jump\t// in\n    tag_722:\n        /* \"#utility.yul\":16126:16200   */\n      swap2\n      pop\n        /* \"#utility.yul\":16209:16302   */\n      tag_723\n        /* \"#utility.yul\":16298:16301   */\n      dup3\n        /* \"#utility.yul\":16209:16302   */\n      tag_524\n      jump\t// in\n    tag_723:\n        /* \"#utility.yul\":16327:16329   */\n      0x20\n        /* \"#utility.yul\":16322:16325   */\n      dup3\n        /* \"#utility.yul\":16318:16330   */\n      add\n        /* \"#utility.yul\":16311:16330   */\n      swap1\n      pop\n        /* \"#utility.yul\":15970:16336   */\n      swap2\n      swap1\n      pop\n      jump\t// out\n        /* \"#utility.yul\":16342:16761   */\n    tag_276:\n        /* \"#utility.yul\":16508:16512   */\n      0x00\n        /* \"#utility.yul\":16546:16548   */\n      0x20\n        /* \"#utility.yul\":16535:16544   */\n      dup3\n        /* \"#utility.yul\":16531:16549   */\n      add\n        /* \"#utility.yul\":16523:16549   */\n      swap1\n      pop\n        /* \"#utility.yul\":16595:16604   */\n      dup2\n        /* \"#utility.yul\":16589:16593   */\n      dup2\n        /* \"#utility.yul\":16585:16605   */\n      sub\n        /* \"#utility.yul\":16581:16582   */\n      0x00\n        /* \"#utility.yul\":16570:16579   */\n      dup4\n        /* \"#utility.yul\":16566:16583   */\n      add\n        /* \"#utility.yul\":16559:16606   */\n      mstore\n        /* \"#utility.yul\":16623:16754   */\n      tag_725\n        /* \"#utility.yul\":16749:16753   */\n      dup2\n        /* \"#utility.yul\":16623:16754   */\n      tag_525\n      jump\t// in\n    tag_725:\n        /* \"#utility.yul\":16615:16754   */\n      swap1\n      pop\n        /* \"#utility.yul\":16342:16761   */\n      swap2\n      swap1\n      pop\n      jump\t// out\n        /* \"#utility.yul\":16767:16933   */\n    tag_526:\n        /* \"#utility.yul\":16907:16925   */\n      0x57726f6e67206469737075746520494400000000000000000000000000000000\n        /* \"#utility.yul\":16903:16904   */\n      0x00\n        /* \"#utility.yul\":16895:16901   */\n      dup3\n        /* \"#utility.yul\":16891:16905   */\n      add\n        /* \"#utility.yul\":16884:16926   */\n      mstore\n        /* \"#utility.yul\":16767:16933   */\n      pop\n      jump\t// out\n        /* \"#utility.yul\":16939:17305   */\n    tag_527:\n        /* \"#utility.yul\":17081:17084   */\n      0x00\n        /* \"#utility.yul\":17102:17169   */\n      tag_728\n        /* \"#utility.yul\":17166:17168   */\n      0x10\n        /* \"#utility.yul\":17161:17164   */\n      dup4\n        /* \"#utility.yul\":17102:17169   */\n      tag_502\n      jump\t// in\n    tag_728:\n        /* \"#utility.yul\":17095:17169   */\n      swap2\n      pop\n        /* \"#utility.yul\":17178:17271   */\n      tag_729\n        /* \"#utility.yul\":17267:17270   */\n      dup3\n        /* \"#utility.yul\":17178:17271   */\n      tag_526\n      jump\t// in\n    tag_729:\n        /* \"#utility.yul\":17296:17298   */\n      0x20\n        /* \"#utility.yul\":17291:17294   */\n      dup3\n        /* \"#utility.yul\":17287:17299   */\n      add\n        /* \"#utility.yul\":17280:17299   */\n      swap1\n      pop\n        /* \"#utility.yul\":16939:17305   */\n      swap2\n      swap1\n      pop\n      jump\t// out\n        /* \"#utility.yul\":17311:17730   */\n    tag_279:\n        /* \"#utility.yul\":17477:17481   */\n      0x00\n        /* \"#utility.yul\":17515:17517   */\n      0x20\n        /* \"#utility.yul\":17504:17513   */\n      dup3\n        /* \"#utility.yul\":17500:17518   */\n      add\n        /* \"#utility.yul\":17492:17518   */\n      swap1\n      pop\n        /* \"#utility.yul\":17564:17573   */\n      dup2\n        /* \"#utility.yul\":17558:17562   */\n      dup2\n        /* \"#utility.yul\":17554:17574   */\n      sub\n        /* \"#utility.yul\":17550:17551   */\n      0x00\n        /* \"#utility.yul\":17539:17548   */\n      dup4\n        /* \"#utility.yul\":17535:17552   */\n      add\n        /* \"#utility.yul\":17528:17575   */\n      mstore\n        /* \"#utility.yul\":17592:17723   */\n      tag_731\n        /* \"#utility.yul\":17718:17722   */\n      dup2\n        /* \"#utility.yul\":17592:17723   */\n      tag_527\n      jump\t// in\n    tag_731:\n        /* \"#utility.yul\":17584:17723   */\n      swap1\n      pop\n        /* \"#utility.yul\":17311:17730   */\n      swap2\n      swap1\n      pop\n      jump\t// out\n        /* \"#utility.yul\":17736:17916   */\n    tag_528:\n        /* \"#utility.yul\":17784:17861   */\n      0x4e487b7100000000000000000000000000000000000000000000000000000000\n        /* \"#utility.yul\":17781:17782   */\n      0x00\n        /* \"#utility.yul\":17774:17862   */\n      mstore\n        /* \"#utility.yul\":17881:17885   */\n      0x12\n        /* \"#utility.yul\":17878:17879   */\n      0x04\n        /* \"#utility.yul\":17871:17886   */\n      mstore\n        /* \"#utility.yul\":17905:17909   */\n      0x24\n        /* \"#utility.yul\":17902:17903   */\n      0x00\n        /* \"#utility.yul\":17895:17910   */\n      revert\n        /* \"#utility.yul\":17922:18107   */\n    tag_289:\n        /* \"#utility.yul\":17962:17963   */\n      0x00\n        /* \"#utility.yul\":17979:17999   */\n      tag_734\n        /* \"#utility.yul\":17997:17998   */\n      dup3\n        /* \"#utility.yul\":17979:17999   */\n      tag_485\n      jump\t// in\n    tag_734:\n        /* \"#utility.yul\":17974:17999   */\n      swap2\n      pop\n        /* \"#utility.yul\":18013:18033   */\n      tag_735\n        /* \"#utility.yul\":18031:18032   */\n      dup4\n        /* \"#utility.yul\":18013:18033   */\n      tag_485\n      jump\t// in\n    tag_735:\n        /* \"#utility.yul\":18008:18033   */\n      swap3\n      pop\n        /* \"#utility.yul\":18052:18053   */\n      dup3\n        /* \"#utility.yul\":18042:18077   */\n      tag_736\n      jumpi\n        /* \"#utility.yul\":18057:18075   */\n      tag_737\n      tag_528\n      jump\t// in\n    tag_737:\n        /* \"#utility.yul\":18042:18077   */\n    tag_736:\n        /* \"#utility.yul\":18099:18100   */\n      dup3\n        /* \"#utility.yul\":18096:18097   */\n      dup3\n        /* \"#utility.yul\":18092:18101   */\n      div\n        /* \"#utility.yul\":18087:18101   */\n      swap1\n      pop\n        /* \"#utility.yul\":17922:18107   */\n      swap3\n      swap2\n      pop\n      pop\n      jump\t// out\n        /* \"#utility.yul\":18113:18304   */\n    tag_291:\n        /* \"#utility.yul\":18153:18156   */\n      0x00\n        /* \"#utility.yul\":18172:18192   */\n      tag_739\n        /* \"#utility.yul\":18190:18191   */\n      dup3\n        /* \"#utility.yul\":18172:18192   */\n      tag_485\n      jump\t// in\n    tag_739:\n        /* \"#utility.yul\":18167:18192   */\n      swap2\n      pop\n        /* \"#utility.yul\":18206:18226   */\n      tag_740\n        /* \"#utility.yul\":18224:18225   */\n      dup4\n        /* \"#utility.yul\":18206:18226   */\n      tag_485\n      jump\t// in\n    tag_740:\n        /* \"#utility.yul\":18201:18226   */\n      swap3\n      pop\n        /* \"#utility.yul\":18249:18250   */\n      dup3\n        /* \"#utility.yul\":18246:18247   */\n      dup3\n        /* \"#utility.yul\":18242:18251   */\n      add\n        /* \"#utility.yul\":18235:18251   */\n      swap1\n      pop\n        /* \"#utility.yul\":18270:18273   */\n      dup1\n        /* \"#utility.yul\":18267:18268   */\n      dup3\n        /* \"#utility.yul\":18264:18274   */\n      gt\n        /* \"#utility.yul\":18261:18297   */\n      iszero\n      tag_741\n      jumpi\n        /* \"#utility.yul\":18277:18295   */\n      tag_742\n      tag_521\n      jump\t// in\n    tag_742:\n        /* \"#utility.yul\":18261:18297   */\n    tag_741:\n        /* \"#utility.yul\":18113:18304   */\n      swap3\n      swap2\n      pop\n      pop\n      jump\t// out\n        /* \"#utility.yul\":18310:18642   */\n    tag_298:\n        /* \"#utility.yul\":18431:18435   */\n      0x00\n        /* \"#utility.yul\":18469:18471   */\n      0x40\n        /* \"#utility.yul\":18458:18467   */\n      dup3\n        /* \"#utility.yul\":18454:18472   */\n      add\n        /* \"#utility.yul\":18446:18472   */\n      swap1\n      pop\n        /* \"#utility.yul\":18482:18553   */\n      tag_744\n        /* \"#utility.yul\":18550:18551   */\n      0x00\n        /* \"#utility.yul\":18539:18548   */\n      dup4\n        /* \"#utility.yul\":18535:18552   */\n      add\n        /* \"#utility.yul\":18526:18532   */\n      dup6\n        /* \"#utility.yul\":18482:18553   */\n      tag_486\n      jump\t// in\n    tag_744:\n        /* \"#utility.yul\":18563:18635   */\n      tag_745\n        /* \"#utility.yul\":18631:18633   */\n      0x20\n        /* \"#utility.yul\":18620:18629   */\n      dup4\n        /* \"#utility.yul\":18616:18634   */\n      add\n        /* \"#utility.yul\":18607:18613   */\n      dup5\n        /* \"#utility.yul\":18563:18635   */\n      tag_486\n      jump\t// in\n    tag_745:\n        /* \"#utility.yul\":18310:18642   */\n      swap4\n      swap3\n      pop\n      pop\n      pop\n      jump\t// out\n        /* \"#utility.yul\":18648:18818   */\n    tag_529:\n        /* \"#utility.yul\":18788:18810   */\n      0x4e6f2066756e647320746f207769746864726177000000000000000000000000\n        /* \"#utility.yul\":18784:18785   */\n      0x00\n        /* \"#utility.yul\":18776:18782   */\n      dup3\n        /* \"#utility.yul\":18772:18786   */\n      add\n        /* \"#utility.yul\":18765:18811   */\n      mstore\n        /* \"#utility.yul\":18648:18818   */\n      pop\n      jump\t// out\n        /* \"#utility.yul\":18824:19190   */\n    tag_530:\n        /* \"#utility.yul\":18966:18969   */\n      0x00\n        /* \"#utility.yul\":18987:19054   */\n      tag_748\n        /* \"#utility.yul\":19051:19053   */\n      0x14\n        /* \"#utility.yul\":19046:19049   */\n      dup4\n        /* \"#utility.yul\":18987:19054   */\n      tag_502\n      jump\t// in\n    tag_748:\n        /* \"#utility.yul\":18980:19054   */\n      swap2\n      pop\n        /* \"#utility.yul\":19063:19156   */\n      tag_749\n        /* \"#utility.yul\":19152:19155   */\n      dup3\n        /* \"#utility.yul\":19063:19156   */\n      tag_529\n      jump\t// in\n    tag_749:\n        /* \"#utility.yul\":19181:19183   */\n      0x20\n        /* \"#utility.yul\":19176:19179   */\n      dup3\n        /* \"#utility.yul\":19172:19184   */\n      add\n        /* \"#utility.yul\":19165:19184   */\n      swap1\n      pop\n        /* \"#utility.yul\":18824:19190   */\n      swap2\n      swap1\n      pop\n      jump\t// out\n        /* \"#utility.yul\":19196:19615   */\n    tag_302:\n        /* \"#utility.yul\":19362:19366   */\n      0x00\n        /* \"#utility.yul\":19400:19402   */\n      0x20\n        /* \"#utility.yul\":19389:19398   */\n      dup3\n        /* \"#utility.yul\":19385:19403   */\n      add\n        /* \"#utility.yul\":19377:19403   */\n      swap1\n      pop\n        /* \"#utility.yul\":19449:19458   */\n      dup2\n        /* \"#utility.yul\":19443:19447   */\n      dup2\n        /* \"#utility.yul\":19439:19459   */\n      sub\n        /* \"#utility.yul\":19435:19436   */\n      0x00\n        /* \"#utility.yul\":19424:19433   */\n      dup4\n        /* \"#utility.yul\":19420:19437   */\n      add\n        /* \"#utility.yul\":19413:19460   */\n      mstore\n        /* \"#utility.yul\":19477:19608   */\n      tag_751\n        /* \"#utility.yul\":19603:19607   */\n      dup2\n        /* \"#utility.yul\":19477:19608   */\n      tag_530\n      jump\t// in\n    tag_751:\n        /* \"#utility.yul\":19469:19608   */\n      swap1\n      pop\n        /* \"#utility.yul\":19196:19615   */\n      swap2\n      swap1\n      pop\n      jump\t// out\n        /* \"#utility.yul\":19621:19768   */\n    tag_531:\n        /* \"#utility.yul\":19722:19733   */\n      0x00\n        /* \"#utility.yul\":19759:19762   */\n      dup2\n        /* \"#utility.yul\":19744:19762   */\n      swap1\n      pop\n        /* \"#utility.yul\":19621:19768   */\n      swap3\n      swap2\n      pop\n      pop\n      jump\t// out\n        /* \"#utility.yul\":19774:20172   */\n    tag_532:\n        /* \"#utility.yul\":19933:19936   */\n      0x00\n        /* \"#utility.yul\":19954:20037   */\n      tag_754\n        /* \"#utility.yul\":20035:20036   */\n      0x00\n        /* \"#utility.yul\":20030:20033   */\n      dup4\n        /* \"#utility.yul\":19954:20037   */\n      tag_531\n      jump\t// in\n    tag_754:\n        /* \"#utility.yul\":19947:20037   */\n      swap2\n      pop\n        /* \"#utility.yul\":20046:20139   */\n      tag_755\n        /* \"#utility.yul\":20135:20138   */\n      dup3\n        /* \"#utility.yul\":20046:20139   */\n      tag_516\n      jump\t// in\n    tag_755:\n        /* \"#utility.yul\":20164:20165   */\n      0x00\n        /* \"#utility.yul\":20159:20162   */\n      dup3\n        /* \"#utility.yul\":20155:20166   */\n      add\n        /* \"#utility.yul\":20148:20166   */\n      swap1\n      pop\n        /* \"#utility.yul\":19774:20172   */\n      swap2\n      swap1\n      pop\n      jump\t// out\n        /* \"#utility.yul\":20178:20557   */\n    tag_304:\n        /* \"#utility.yul\":20362:20365   */\n      0x00\n        /* \"#utility.yul\":20384:20531   */\n      tag_757\n        /* \"#utility.yul\":20527:20530   */\n      dup3\n        /* \"#utility.yul\":20384:20531   */\n      tag_532\n      jump\t// in\n    tag_757:\n        /* \"#utility.yul\":20377:20531   */\n      swap2\n      pop\n        /* \"#utility.yul\":20548:20551   */\n      dup2\n        /* \"#utility.yul\":20541:20551   */\n      swap1\n      pop\n        /* \"#utility.yul\":20178:20557   */\n      swap2\n      swap1\n      pop\n      jump\t// out\n        /* \"#utility.yul\":20563:20728   */\n    tag_533:\n        /* \"#utility.yul\":20703:20720   */\n      0x5472616e73666572206661696c65640000000000000000000000000000000000\n        /* \"#utility.yul\":20699:20700   */\n      0x00\n        /* \"#utility.yul\":20691:20697   */\n      dup3\n        /* \"#utility.yul\":20687:20701   */\n      add\n        /* \"#utility.yul\":20680:20721   */\n      mstore\n        /* \"#utility.yul\":20563:20728   */\n      pop\n      jump\t// out\n        /* \"#utility.yul\":20734:21100   */\n    tag_534:\n        /* \"#utility.yul\":20876:20879   */\n      0x00\n        /* \"#utility.yul\":20897:20964   */\n      tag_760\n        /* \"#utility.yul\":20961:20963   */\n      0x0f\n        /* \"#utility.yul\":20956:20959   */\n      dup4\n        /* \"#utility.yul\":20897:20964   */\n      tag_502\n      jump\t// in\n    tag_760:\n        /* \"#utility.yul\":20890:20964   */\n      swap2\n      pop\n        /* \"#utility.yul\":20973:21066   */\n      tag_761\n        /* \"#utility.yul\":21062:21065   */\n      dup3\n        /* \"#utility.yul\":20973:21066   */\n      tag_533\n      jump\t// in\n    tag_761:\n        /* \"#utility.yul\":21091:21093   */\n      0x20\n        /* \"#utility.yul\":21086:21089   */\n      dup3\n        /* \"#utility.yul\":21082:21094   */\n      add\n        /* \"#utility.yul\":21075:21094   */\n      swap1\n      pop\n        /* \"#utility.yul\":20734:21100   */\n      swap2\n      swap1\n      pop\n      jump\t// out\n        /* \"#utility.yul\":21106:21525   */\n    tag_310:\n        /* \"#utility.yul\":21272:21276   */\n      0x00\n        /* \"#utility.yul\":21310:21312   */\n      0x20\n        /* \"#utility.yul\":21299:21308   */\n      dup3\n        /* \"#utility.yul\":21295:21313   */\n      add\n        /* \"#utility.yul\":21287:21313   */\n      swap1\n      pop\n        /* \"#utility.yul\":21359:21368   */\n      dup2\n        /* \"#utility.yul\":21353:21357   */\n      dup2\n        /* \"#utility.yul\":21349:21369   */\n      sub\n        /* \"#utility.yul\":21345:21346   */\n      0x00\n        /* \"#utility.yul\":21334:21343   */\n      dup4\n        /* \"#utility.yul\":21330:21347   */\n      add\n        /* \"#utility.yul\":21323:21370   */\n      mstore\n        /* \"#utility.yul\":21387:21518   */\n      tag_763\n        /* \"#utility.yul\":21513:21517   */\n      dup2\n        /* \"#utility.yul\":21387:21518   */\n      tag_534\n      jump\t// in\n    tag_763:\n        /* \"#utility.yul\":21379:21518   */\n      swap1\n      pop\n        /* \"#utility.yul\":21106:21525   */\n      swap2\n      swap1\n      pop\n      jump\t// out\n        /* \"#utility.yul\":21531:21754   */\n    tag_535:\n        /* \"#utility.yul\":21671:21705   */\n      0x4f6e6c792072656e7465722063616e2070617920736563757269747920646570\n        /* \"#utility.yul\":21667:21668   */\n      0x00\n        /* \"#utility.yul\":21659:21665   */\n      dup3\n        /* \"#utility.yul\":21655:21669   */\n      add\n        /* \"#utility.yul\":21648:21706   */\n      mstore\n        /* \"#utility.yul\":21740:21746   */\n      0x6f73697400000000000000000000000000000000000000000000000000000000\n        /* \"#utility.yul\":21735:21737   */\n      0x20\n        /* \"#utility.yul\":21727:21733   */\n      dup3\n        /* \"#utility.yul\":21723:21738   */\n      add\n        /* \"#utility.yul\":21716:21747   */\n      mstore\n        /* \"#utility.yul\":21531:21754   */\n      pop\n      jump\t// out\n        /* \"#utility.yul\":21760:22126   */\n    tag_536:\n        /* \"#utility.yul\":21902:21905   */\n      0x00\n        /* \"#utility.yul\":21923:21990   */\n      tag_766\n        /* \"#utility.yul\":21987:21989   */\n      0x24\n        /* \"#utility.yul\":21982:21985   */\n      dup4\n        /* \"#utility.yul\":21923:21990   */\n      tag_502\n      jump\t// in\n    tag_766:\n        /* \"#utility.yul\":21916:21990   */\n      swap2\n      pop\n        /* \"#utility.yul\":21999:22092   */\n      tag_767\n        /* \"#utility.yul\":22088:22091   */\n      dup3\n        /* \"#utility.yul\":21999:22092   */\n      tag_535\n      jump\t// in\n    tag_767:\n        /* \"#utility.yul\":22117:22119   */\n      0x40\n        /* \"#utility.yul\":22112:22115   */\n      dup3\n        /* \"#utility.yul\":22108:22120   */\n      add\n        /* \"#utility.yul\":22101:22120   */\n      swap1\n      pop\n        /* \"#utility.yul\":21760:22126   */\n      swap2\n      swap1\n      pop\n      jump\t// out\n        /* \"#utility.yul\":22132:22551   */\n    tag_315:\n        /* \"#utility.yul\":22298:22302   */\n      0x00\n        /* \"#utility.yul\":22336:22338   */\n      0x20\n        /* \"#utility.yul\":22325:22334   */\n      dup3\n        /* \"#utility.yul\":22321:22339   */\n      add\n        /* \"#utility.yul\":22313:22339   */\n      swap1\n      pop\n        /* \"#utility.yul\":22385:22394   */\n      dup2\n        /* \"#utility.yul\":22379:22383   */\n      dup2\n        /* \"#utility.yul\":22375:22395   */\n      sub\n        /* \"#utility.yul\":22371:22372   */\n      0x00\n        /* \"#utility.yul\":22360:22369   */\n      dup4\n        /* \"#utility.yul\":22356:22373   */\n      add\n        /* \"#utility.yul\":22349:22396   */\n      mstore\n        /* \"#utility.yul\":22413:22544   */\n      tag_769\n        /* \"#utility.yul\":22539:22543   */\n      dup2\n        /* \"#utility.yul\":22413:22544   */\n      tag_536\n      jump\t// in\n    tag_769:\n        /* \"#utility.yul\":22405:22544   */\n      swap1\n      pop\n        /* \"#utility.yul\":22132:22551   */\n      swap2\n      swap1\n      pop\n      jump\t// out\n        /* \"#utility.yul\":22557:22733   */\n    tag_537:\n        /* \"#utility.yul\":22697:22725   */\n      0x436f6e747261637420697320616c726561647920616374697665000000000000\n        /* \"#utility.yul\":22693:22694   */\n      0x00\n        /* \"#utility.yul\":22685:22691   */\n      dup3\n        /* \"#utility.yul\":22681:22695   */\n      add\n        /* \"#utility.yul\":22674:22726   */\n      mstore\n        /* \"#utility.yul\":22557:22733   */\n      pop\n      jump\t// out\n        /* \"#utility.yul\":22739:23105   */\n    tag_538:\n        /* \"#utility.yul\":22881:22884   */\n      0x00\n        /* \"#utility.yul\":22902:22969   */\n      tag_772\n        /* \"#utility.yul\":22966:22968   */\n      0x1a\n        /* \"#utility.yul\":22961:22964   */\n      dup4\n        /* \"#utility.yul\":22902:22969   */\n      tag_502\n      jump\t// in\n    tag_772:\n        /* \"#utility.yul\":22895:22969   */\n      swap2\n      pop\n        /* \"#utility.yul\":22978:23071   */\n      tag_773\n        /* \"#utility.yul\":23067:23070   */\n      dup3\n        /* \"#utility.yul\":22978:23071   */\n      tag_537\n      jump\t// in\n    tag_773:\n        /* \"#utility.yul\":23096:23098   */\n      0x20\n        /* \"#utility.yul\":23091:23094   */\n      dup3\n        /* \"#utility.yul\":23087:23099   */\n      add\n        /* \"#utility.yul\":23080:23099   */\n      swap1\n      pop\n        /* \"#utility.yul\":22739:23105   */\n      swap2\n      swap1\n      pop\n      jump\t// out\n        /* \"#utility.yul\":23111:23530   */\n    tag_318:\n        /* \"#utility.yul\":23277:23281   */\n      0x00\n        /* \"#utility.yul\":23315:23317   */\n      0x20\n        /* \"#utility.yul\":23304:23313   */\n      dup3\n        /* \"#utility.yul\":23300:23318   */\n      add\n        /* \"#utility.yul\":23292:23318   */\n      swap1\n      pop\n        /* \"#utility.yul\":23364:23373   */\n      dup2\n        /* \"#utility.yul\":23358:23362   */\n      dup2\n        /* \"#utility.yul\":23354:23374   */\n      sub\n        /* \"#utility.yul\":23350:23351   */\n      0x00\n        /* \"#utility.yul\":23339:23348   */\n      dup4\n        /* \"#utility.yul\":23335:23352   */\n      add\n        /* \"#utility.yul\":23328:23375   */\n      mstore\n        /* \"#utility.yul\":23392:23523   */\n      tag_775\n        /* \"#utility.yul\":23518:23522   */\n      dup2\n        /* \"#utility.yul\":23392:23523   */\n      tag_538\n      jump\t// in\n    tag_775:\n        /* \"#utility.yul\":23384:23523   */\n      swap1\n      pop\n        /* \"#utility.yul\":23111:23530   */\n      swap2\n      swap1\n      pop\n      jump\t// out\n        /* \"#utility.yul\":23536:23756   */\n    tag_539:\n        /* \"#utility.yul\":23676:23710   */\n      0x496e636f7272656374207365637572697479206465706f73697420616d6f756e\n        /* \"#utility.yul\":23672:23673   */\n      0x00\n        /* \"#utility.yul\":23664:23670   */\n      dup3\n        /* \"#utility.yul\":23660:23674   */\n      add\n        /* \"#utility.yul\":23653:23711   */\n      mstore\n        /* \"#utility.yul\":23745:23748   */\n      0x7400000000000000000000000000000000000000000000000000000000000000\n        /* \"#utility.yul\":23740:23742   */\n      0x20\n        /* \"#utility.yul\":23732:23738   */\n      dup3\n        /* \"#utility.yul\":23728:23743   */\n      add\n        /* \"#utility.yul\":23721:23749   */\n      mstore\n        /* \"#utility.yul\":23536:23756   */\n      pop\n      jump\t// out\n        /* \"#utility.yul\":23762:24128   */\n    tag_540:\n        /* \"#utility.yul\":23904:23907   */\n      0x00\n        /* \"#utility.yul\":23925:23992   */\n      tag_778\n        /* \"#utility.yul\":23989:23991   */\n      0x21\n        /* \"#utility.yul\":23984:23987   */\n      dup4\n        /* \"#utility.yul\":23925:23992   */\n      tag_502\n      jump\t// in\n    tag_778:\n        /* \"#utility.yul\":23918:23992   */\n      swap2\n      pop\n        /* \"#utility.yul\":24001:24094   */\n      tag_779\n        /* \"#utility.yul\":24090:24093   */\n      dup3\n        /* \"#utility.yul\":24001:24094   */\n      tag_539\n      jump\t// in\n    tag_779:\n        /* \"#utility.yul\":24119:24121   */\n      0x40\n        /* \"#utility.yul\":24114:24117   */\n      dup3\n        /* \"#utility.yul\":24110:24122   */\n      add\n        /* \"#utility.yul\":24103:24122   */\n      swap1\n      pop\n        /* \"#utility.yul\":23762:24128   */\n      swap2\n      swap1\n      pop\n      jump\t// out\n        /* \"#utility.yul\":24134:24553   */\n    tag_321:\n        /* \"#utility.yul\":24300:24304   */\n      0x00\n        /* \"#utility.yul\":24338:24340   */\n      0x20\n        /* \"#utility.yul\":24327:24336   */\n      dup3\n        /* \"#utility.yul\":24323:24341   */\n      add\n        /* \"#utility.yul\":24315:24341   */\n      swap1\n      pop\n        /* \"#utility.yul\":24387:24396   */\n      dup2\n        /* \"#utility.yul\":24381:24385   */\n      dup2\n        /* \"#utility.yul\":24377:24397   */\n      sub\n        /* \"#utility.yul\":24373:24374   */\n      0x00\n        /* \"#utility.yul\":24362:24371   */\n      dup4\n        /* \"#utility.yul\":24358:24375   */\n      add\n        /* \"#utility.yul\":24351:24398   */\n      mstore\n        /* \"#utility.yul\":24415:24546   */\n      tag_781\n        /* \"#utility.yul\":24541:24545   */\n      dup2\n        /* \"#utility.yul\":24415:24546   */\n      tag_540\n      jump\t// in\n    tag_781:\n        /* \"#utility.yul\":24407:24546   */\n      swap1\n      pop\n        /* \"#utility.yul\":24134:24553   */\n      swap2\n      swap1\n      pop\n      jump\t// out\n        /* \"#utility.yul\":24559:24780   */\n    tag_541:\n        /* \"#utility.yul\":24699:24733   */\n      0x4f6e6c79206c616e646c6f72642063616e207265636f7264207574696c697469\n        /* \"#utility.yul\":24695:24696   */\n      0x00\n        /* \"#utility.yul\":24687:24693   */\n      dup3\n        /* \"#utility.yul\":24683:24697   */\n      add\n        /* \"#utility.yul\":24676:24734   */\n      mstore\n        /* \"#utility.yul\":24768:24772   */\n      0x6573000000000000000000000000000000000000000000000000000000000000\n        /* \"#utility.yul\":24763:24765   */\n      0x20\n        /* \"#utility.yul\":24755:24761   */\n      dup3\n        /* \"#utility.yul\":24751:24766   */\n      add\n        /* \"#utility.yul\":24744:24773   */\n      mstore\n        /* \"#utility.yul\":24559:24780   */\n      pop\n      jump\t// out\n        /* \"#utility.yul\":24786:25152   */\n    tag_542:\n        /* \"#utility.yul\":24928:24931   */\n      0x00\n        /* \"#utility.yul\":24949:25016   */\n      tag_784\n        /* \"#utility.yul\":25013:25015   */\n      0x22\n        /* \"#utility.yul\":25008:25011   */\n      dup4\n        /* \"#utility.yul\":24949:25016   */\n      tag_502\n      jump\t// in\n    tag_784:\n        /* \"#utility.yul\":24942:25016   */\n      swap2\n      pop\n        /* \"#utility.yul\":25025:25118   */\n      tag_785\n        /* \"#utility.yul\":25114:25117   */\n      dup3\n        /* \"#utility.yul\":25025:25118   */\n      tag_541\n      jump\t// in\n    tag_785:\n        /* \"#utility.yul\":25143:25145   */\n      0x40\n        /* \"#utility.yul\":25138:25141   */\n      dup3\n        /* \"#utility.yul\":25134:25146   */\n      add\n        /* \"#utility.yul\":25127:25146   */\n      swap1\n      pop\n        /* \"#utility.yul\":24786:25152   */\n      swap2\n      swap1\n      pop\n      jump\t// out\n        /* \"#utility.yul\":25158:25577   */\n    tag_334:\n        /* \"#utility.yul\":25324:25328   */\n      0x00\n        /* \"#utility.yul\":25362:25364   */\n      0x20\n        /* \"#utility.yul\":25351:25360   */\n      dup3\n        /* \"#utility.yul\":25347:25365   */\n      add\n        /* \"#utility.yul\":25339:25365   */\n      swap1\n      pop\n        /* \"#utility.yul\":25411:25420   */\n      dup2\n        /* \"#utility.yul\":25405:25409   */\n      dup2\n        /* \"#utility.yul\":25401:25421   */\n      sub\n        /* \"#utility.yul\":25397:25398   */\n      0x00\n        /* \"#utility.yul\":25386:25395   */\n      dup4\n        /* \"#utility.yul\":25382:25399   */\n      add\n        /* \"#utility.yul\":25375:25422   */\n      mstore\n        /* \"#utility.yul\":25439:25570   */\n      tag_787\n        /* \"#utility.yul\":25565:25569   */\n      dup2\n        /* \"#utility.yul\":25439:25570   */\n      tag_542\n      jump\t// in\n    tag_787:\n        /* \"#utility.yul\":25431:25570   */\n      swap1\n      pop\n        /* \"#utility.yul\":25158:25577   */\n      swap2\n      swap1\n      pop\n      jump\t// out\n        /* \"#utility.yul\":25583:25754   */\n    tag_543:\n        /* \"#utility.yul\":25723:25746   */\n      0x52656e7420706572696f642068617320656e6465640000000000000000000000\n        /* \"#utility.yul\":25719:25720   */\n      0x00\n        /* \"#utility.yul\":25711:25717   */\n      dup3\n        /* \"#utility.yul\":25707:25721   */\n      add\n        /* \"#utility.yul\":25700:25747   */\n      mstore\n        /* \"#utility.yul\":25583:25754   */\n      pop\n      jump\t// out\n        /* \"#utility.yul\":25760:26126   */\n    tag_544:\n        /* \"#utility.yul\":25902:25905   */\n      0x00\n        /* \"#utility.yul\":25923:25990   */\n      tag_790\n        /* \"#utility.yul\":25987:25989   */\n      0x15\n        /* \"#utility.yul\":25982:25985   */\n      dup4\n        /* \"#utility.yul\":25923:25990   */\n      tag_502\n      jump\t// in\n    tag_790:\n        /* \"#utility.yul\":25916:25990   */\n      swap2\n      pop\n        /* \"#utility.yul\":25999:26092   */\n      tag_791\n        /* \"#utility.yul\":26088:26091   */\n      dup3\n        /* \"#utility.yul\":25999:26092   */\n      tag_543\n      jump\t// in\n    tag_791:\n        /* \"#utility.yul\":26117:26119   */\n      0x20\n        /* \"#utility.yul\":26112:26115   */\n      dup3\n        /* \"#utility.yul\":26108:26120   */\n      add\n        /* \"#utility.yul\":26101:26120   */\n      swap1\n      pop\n        /* \"#utility.yul\":25760:26126   */\n      swap2\n      swap1\n      pop\n      jump\t// out\n        /* \"#utility.yul\":26132:26551   */\n    tag_339:\n        /* \"#utility.yul\":26298:26302   */\n      0x00\n        /* \"#utility.yul\":26336:26338   */\n      0x20\n        /* \"#utility.yul\":26325:26334   */\n      dup3\n        /* \"#utility.yul\":26321:26339   */\n      add\n        /* \"#utility.yul\":26313:26339   */\n      swap1\n      pop\n        /* \"#utility.yul\":26385:26394   */\n      dup2\n        /* \"#utility.yul\":26379:26383   */\n      dup2\n        /* \"#utility.yul\":26375:26395   */\n      sub\n        /* \"#utility.yul\":26371:26372   */\n      0x00\n        /* \"#utility.yul\":26360:26369   */\n      dup4\n        /* \"#utility.yul\":26356:26373   */\n      add\n        /* \"#utility.yul\":26349:26396   */\n      mstore\n        /* \"#utility.yul\":26413:26544   */\n      tag_793\n        /* \"#utility.yul\":26539:26543   */\n      dup2\n        /* \"#utility.yul\":26413:26544   */\n      tag_544\n      jump\t// in\n    tag_793:\n        /* \"#utility.yul\":26405:26544   */\n      swap1\n      pop\n        /* \"#utility.yul\":26132:26551   */\n      swap2\n      swap1\n      pop\n      jump\t// out\n        /* \"#utility.yul\":26557:26783   */\n    tag_545:\n        /* \"#utility.yul\":26697:26731   */\n      0x4f6e6c79206c616e646c6f72642063616e206163746976617465207468652063\n        /* \"#utility.yul\":26693:26694   */\n      0x00\n        /* \"#utility.yul\":26685:26691   */\n      dup3\n        /* \"#utility.yul\":26681:26695   */\n      add\n        /* \"#utility.yul\":26674:26732   */\n      mstore\n        /* \"#utility.yul\":26766:26775   */\n      0x6f6e747261637400000000000000000000000000000000000000000000000000\n        /* \"#utility.yul\":26761:26763   */\n      0x20\n        /* \"#utility.yul\":26753:26759   */\n      dup3\n        /* \"#utility.yul\":26749:26764   */\n      add\n        /* \"#utility.yul\":26742:26776   */\n      mstore\n        /* \"#utility.yul\":26557:26783   */\n      pop\n      jump\t// out\n        /* \"#utility.yul\":26789:27155   */\n    tag_546:\n        /* \"#utility.yul\":26931:26934   */\n      0x00\n        /* \"#utility.yul\":26952:27019   */\n      tag_796\n        /* \"#utility.yul\":27016:27018   */\n      0x27\n        /* \"#utility.yul\":27011:27014   */\n      dup4\n        /* \"#utility.yul\":26952:27019   */\n      tag_502\n      jump\t// in\n    tag_796:\n        /* \"#utility.yul\":26945:27019   */\n      swap2\n      pop\n        /* \"#utility.yul\":27028:27121   */\n      tag_797\n        /* \"#utility.yul\":27117:27120   */\n      dup3\n        /* \"#utility.yul\":27028:27121   */\n      tag_545\n      jump\t// in\n    tag_797:\n        /* \"#utility.yul\":27146:27148   */\n      0x40\n        /* \"#utility.yul\":27141:27144   */\n      dup3\n        /* \"#utility.yul\":27137:27149   */\n      add\n        /* \"#utility.yul\":27130:27149   */\n      swap1\n      pop\n        /* \"#utility.yul\":26789:27155   */\n      swap2\n      swap1\n      pop\n      jump\t// out\n        /* \"#utility.yul\":27161:27580   */\n    tag_344:\n        /* \"#utility.yul\":27327:27331   */\n      0x00\n        /* \"#utility.yul\":27365:27367   */\n      0x20\n        /* \"#utility.yul\":27354:27363   */\n      dup3\n        /* \"#utility.yul\":27350:27368   */\n      add\n        /* \"#utility.yul\":27342:27368   */\n      swap1\n      pop\n        /* \"#utility.yul\":27414:27423   */\n      dup2\n        /* \"#utility.yul\":27408:27412   */\n      dup2\n        /* \"#utility.yul\":27404:27424   */\n      sub\n        /* \"#utility.yul\":27400:27401   */\n      0x00\n        /* \"#utility.yul\":27389:27398   */\n      dup4\n        /* \"#utility.yul\":27385:27402   */\n      add\n        /* \"#utility.yul\":27378:27425   */\n      mstore\n        /* \"#utility.yul\":27442:27573   */\n      tag_799\n        /* \"#utility.yul\":27568:27572   */\n      dup2\n        /* \"#utility.yul\":27442:27573   */\n      tag_546\n      jump\t// in\n    tag_799:\n        /* \"#utility.yul\":27434:27573   */\n      swap1\n      pop\n        /* \"#utility.yul\":27161:27580   */\n      swap2\n      swap1\n      pop\n      jump\t// out\n        /* \"#utility.yul\":27586:27808   */\n    tag_547:\n        /* \"#utility.yul\":27726:27760   */\n      0x5365637572697479206465706f736974206d7573742062652070616964206669\n        /* \"#utility.yul\":27722:27723   */\n      0x00\n        /* \"#utility.yul\":27714:27720   */\n      dup3\n        /* \"#utility.yul\":27710:27724   */\n      add\n        /* \"#utility.yul\":27703:27761   */\n      mstore\n        /* \"#utility.yul\":27795:27800   */\n      0x7273740000000000000000000000000000000000000000000000000000000000\n        /* \"#utility.yul\":27790:27792   */\n      0x20\n        /* \"#utility.yul\":27782:27788   */\n      dup3\n        /* \"#utility.yul\":27778:27793   */\n      add\n        /* \"#utility.yul\":27771:27801   */\n      mstore\n        /* \"#utility.yul\":27586:27808   */\n      pop\n      jump\t// out\n        /* \"#utility.yul\":27814:28180   */\n    tag_548:\n        /* \"#utility.yul\":27956:27959   */\n      0x00\n        /* \"#utility.yul\":27977:28044   */\n      tag_802\n        /* \"#utility.yul\":28041:28043   */\n      0x23\n        /* \"#utility.yul\":28036:28039   */\n      dup4\n        /* \"#utility.yul\":27977:28044   */\n      tag_502\n      jump\t// in\n    tag_802:\n        /* \"#utility.yul\":27970:28044   */\n      swap2\n      pop\n        /* \"#utility.yul\":28053:28146   */\n      tag_803\n        /* \"#utility.yul\":28142:28145   */\n      dup3\n        /* \"#utility.yul\":28053:28146   */\n      tag_547\n      jump\t// in\n    tag_803:\n        /* \"#utility.yul\":28171:28173   */\n      0x40\n        /* \"#utility.yul\":28166:28169   */\n      dup3\n        /* \"#utility.yul\":28162:28174   */\n      add\n        /* \"#utility.yul\":28155:28174   */\n      swap1\n      pop\n        /* \"#utility.yul\":27814:28180   */\n      swap2\n      swap1\n      pop\n      jump\t// out\n        /* \"#utility.yul\":28186:28605   */\n    tag_347:\n        /* \"#utility.yul\":28352:28356   */\n      0x00\n        /* \"#utility.yul\":28390:28392   */\n      0x20\n        /* \"#utility.yul\":28379:28388   */\n      dup3\n        /* \"#utility.yul\":28375:28393   */\n      add\n        /* \"#utility.yul\":28367:28393   */\n      swap1\n      pop\n        /* \"#utility.yul\":28439:28448   */\n      dup2\n        /* \"#utility.yul\":28433:28437   */\n      dup2\n        /* \"#utility.yul\":28429:28449   */\n      sub\n        /* \"#utility.yul\":28425:28426   */\n      0x00\n        /* \"#utility.yul\":28414:28423   */\n      dup4\n        /* \"#utility.yul\":28410:28427   */\n      add\n        /* \"#utility.yul\":28403:28450   */\n      mstore\n        /* \"#utility.yul\":28467:28598   */\n      tag_805\n        /* \"#utility.yul\":28593:28597   */\n      dup2\n        /* \"#utility.yul\":28467:28598   */\n      tag_548\n      jump\t// in\n    tag_805:\n        /* \"#utility.yul\":28459:28598   */\n      swap1\n      pop\n        /* \"#utility.yul\":28186:28605   */\n      swap2\n      swap1\n      pop\n      jump\t// out\n        /* \"#utility.yul\":28611:28785   */\n    tag_549:\n        /* \"#utility.yul\":28751:28777   */\n      0x4f6e6c792072656e7465722063616e207061792072656e740000000000000000\n        /* \"#utility.yul\":28747:28748   */\n      0x00\n        /* \"#utility.yul\":28739:28745   */\n      dup3\n        /* \"#utility.yul\":28735:28749   */\n      add\n        /* \"#utility.yul\":28728:28778   */\n      mstore\n        /* \"#utility.yul\":28611:28785   */\n      pop\n      jump\t// out\n        /* \"#utility.yul\":28791:29157   */\n    tag_550:\n        /* \"#utility.yul\":28933:28936   */\n      0x00\n        /* \"#utility.yul\":28954:29021   */\n      tag_808\n        /* \"#utility.yul\":29018:29020   */\n      0x18\n        /* \"#utility.yul\":29013:29016   */\n      dup4\n        /* \"#utility.yul\":28954:29021   */\n      tag_502\n      jump\t// in\n    tag_808:\n        /* \"#utility.yul\":28947:29021   */\n      swap2\n      pop\n        /* \"#utility.yul\":29030:29123   */\n      tag_809\n        /* \"#utility.yul\":29119:29122   */\n      dup3\n        /* \"#utility.yul\":29030:29123   */\n      tag_549\n      jump\t// in\n    tag_809:\n        /* \"#utility.yul\":29148:29150   */\n      0x20\n        /* \"#utility.yul\":29143:29146   */\n      dup3\n        /* \"#utility.yul\":29139:29151   */\n      add\n        /* \"#utility.yul\":29132:29151   */\n      swap1\n      pop\n        /* \"#utility.yul\":28791:29157   */\n      swap2\n      swap1\n      pop\n      jump\t// out\n        /* \"#utility.yul\":29163:29582   */\n    tag_353:\n        /* \"#utility.yul\":29329:29333   */\n      0x00\n        /* \"#utility.yul\":29367:29369   */\n      0x20\n        /* \"#utility.yul\":29356:29365   */\n      dup3\n        /* \"#utility.yul\":29352:29370   */\n      add\n        /* \"#utility.yul\":29344:29370   */\n      swap1\n      pop\n        /* \"#utility.yul\":29416:29425   */\n      dup2\n        /* \"#utility.yul\":29410:29414   */\n      dup2\n        /* \"#utility.yul\":29406:29426   */\n      sub\n        /* \"#utility.yul\":29402:29403   */\n      0x00\n        /* \"#utility.yul\":29391:29400   */\n      dup4\n        /* \"#utility.yul\":29387:29404   */\n      add\n        /* \"#utility.yul\":29380:29427   */\n      mstore\n        /* \"#utility.yul\":29444:29575   */\n      tag_811\n        /* \"#utility.yul\":29570:29574   */\n      dup2\n        /* \"#utility.yul\":29444:29575   */\n      tag_550\n      jump\t// in\n    tag_811:\n        /* \"#utility.yul\":29436:29575   */\n      swap1\n      pop\n        /* \"#utility.yul\":29163:29582   */\n      swap2\n      swap1\n      pop\n      jump\t// out\n        /* \"#utility.yul\":29588:29816   */\n    tag_551:\n        /* \"#utility.yul\":29728:29762   */\n      0x52656e7420666f722074686973206d6f6e74682068617320616c726561647920\n        /* \"#utility.yul\":29724:29725   */\n      0x00\n        /* \"#utility.yul\":29716:29722   */\n      dup3\n        /* \"#utility.yul\":29712:29726   */\n      add\n        /* \"#utility.yul\":29705:29763   */\n      mstore\n        /* \"#utility.yul\":29797:29808   */\n      0x6265656e20706169640000000000000000000000000000000000000000000000\n        /* \"#utility.yul\":29792:29794   */\n      0x20\n        /* \"#utility.yul\":29784:29790   */\n      dup3\n        /* \"#utility.yul\":29780:29795   */\n      add\n        /* \"#utility.yul\":29773:29809   */\n      mstore\n        /* \"#utility.yul\":29588:29816   */\n      pop\n      jump\t// out\n        /* \"#utility.yul\":29822:30188   */\n    tag_552:\n        /* \"#utility.yul\":29964:29967   */\n      0x00\n        /* \"#utility.yul\":29985:30052   */\n      tag_814\n        /* \"#utility.yul\":30049:30051   */\n      0x29\n        /* \"#utility.yul\":30044:30047   */\n      dup4\n        /* \"#utility.yul\":29985:30052   */\n      tag_502\n      jump\t// in\n    tag_814:\n        /* \"#utility.yul\":29978:30052   */\n      swap2\n      pop\n        /* \"#utility.yul\":30061:30154   */\n      tag_815\n        /* \"#utility.yul\":30150:30153   */\n      dup3\n        /* \"#utility.yul\":30061:30154   */\n      tag_551\n      jump\t// in\n    tag_815:\n        /* \"#utility.yul\":30179:30181   */\n      0x40\n        /* \"#utility.yul\":30174:30177   */\n      dup3\n        /* \"#utility.yul\":30170:30182   */\n      add\n        /* \"#utility.yul\":30163:30182   */\n      swap1\n      pop\n        /* \"#utility.yul\":29822:30188   */\n      swap2\n      swap1\n      pop\n      jump\t// out\n        /* \"#utility.yul\":30194:30613   */\n    tag_360:\n        /* \"#utility.yul\":30360:30364   */\n      0x00\n        /* \"#utility.yul\":30398:30400   */\n      0x20\n        /* \"#utility.yul\":30387:30396   */\n      dup3\n        /* \"#utility.yul\":30383:30401   */\n      add\n        /* \"#utility.yul\":30375:30401   */\n      swap1\n      pop\n        /* \"#utility.yul\":30447:30456   */\n      dup2\n        /* \"#utility.yul\":30441:30445   */\n      dup2\n        /* \"#utility.yul\":30437:30457   */\n      sub\n        /* \"#utility.yul\":30433:30434   */\n      0x00\n        /* \"#utility.yul\":30422:30431   */\n      dup4\n        /* \"#utility.yul\":30418:30435   */\n      add\n        /* \"#utility.yul\":30411:30458   */\n      mstore\n        /* \"#utility.yul\":30475:30606   */\n      tag_817\n        /* \"#utility.yul\":30601:30605   */\n      dup2\n        /* \"#utility.yul\":30475:30606   */\n      tag_552\n      jump\t// in\n    tag_817:\n        /* \"#utility.yul\":30467:30606   */\n      swap1\n      pop\n        /* \"#utility.yul\":30194:30613   */\n      swap2\n      swap1\n      pop\n      jump\t// out\n        /* \"#utility.yul\":30619:30853   */\n    tag_553:\n        /* \"#utility.yul\":30759:30793   */\n      0x5574696c697469657320666f722074686973206d6f6e74682068617665206e6f\n        /* \"#utility.yul\":30755:30756   */\n      0x00\n        /* \"#utility.yul\":30747:30753   */\n      dup3\n        /* \"#utility.yul\":30743:30757   */\n      add\n        /* \"#utility.yul\":30736:30794   */\n      mstore\n        /* \"#utility.yul\":30828:30845   */\n      0x74206265656e207265636f726465640000000000000000000000000000000000\n        /* \"#utility.yul\":30823:30825   */\n      0x20\n        /* \"#utility.yul\":30815:30821   */\n      dup3\n        /* \"#utility.yul\":30811:30826   */\n      add\n        /* \"#utility.yul\":30804:30846   */\n      mstore\n        /* \"#utility.yul\":30619:30853   */\n      pop\n      jump\t// out\n        /* \"#utility.yul\":30859:31225   */\n    tag_554:\n        /* \"#utility.yul\":31001:31004   */\n      0x00\n        /* \"#utility.yul\":31022:31089   */\n      tag_820\n        /* \"#utility.yul\":31086:31088   */\n      0x2f\n        /* \"#utility.yul\":31081:31084   */\n      dup4\n        /* \"#utility.yul\":31022:31089   */\n      tag_502\n      jump\t// in\n    tag_820:\n        /* \"#utility.yul\":31015:31089   */\n      swap2\n      pop\n        /* \"#utility.yul\":31098:31191   */\n      tag_821\n        /* \"#utility.yul\":31187:31190   */\n      dup3\n        /* \"#utility.yul\":31098:31191   */\n      tag_553\n      jump\t// in\n    tag_821:\n        /* \"#utility.yul\":31216:31218   */\n      0x40\n        /* \"#utility.yul\":31211:31214   */\n      dup3\n        /* \"#utility.yul\":31207:31219   */\n      add\n        /* \"#utility.yul\":31200:31219   */\n      swap1\n      pop\n        /* \"#utility.yul\":30859:31225   */\n      swap2\n      swap1\n      pop\n      jump\t// out\n        /* \"#utility.yul\":31231:31650   */\n    tag_363:\n        /* \"#utility.yul\":31397:31401   */\n      0x00\n        /* \"#utility.yul\":31435:31437   */\n      0x20\n        /* \"#utility.yul\":31424:31433   */\n      dup3\n        /* \"#utility.yul\":31420:31438   */\n      add\n        /* \"#utility.yul\":31412:31438   */\n      swap1\n      pop\n        /* \"#utility.yul\":31484:31493   */\n      dup2\n        /* \"#utility.yul\":31478:31482   */\n      dup2\n        /* \"#utility.yul\":31474:31494   */\n      sub\n        /* \"#utility.yul\":31470:31471   */\n      0x00\n        /* \"#utility.yul\":31459:31468   */\n      dup4\n        /* \"#utility.yul\":31455:31472   */\n      add\n        /* \"#utility.yul\":31448:31495   */\n      mstore\n        /* \"#utility.yul\":31512:31643   */\n      tag_823\n        /* \"#utility.yul\":31638:31642   */\n      dup2\n        /* \"#utility.yul\":31512:31643   */\n      tag_554\n      jump\t// in\n    tag_823:\n        /* \"#utility.yul\":31504:31643   */\n      swap1\n      pop\n        /* \"#utility.yul\":31231:31650   */\n      swap2\n      swap1\n      pop\n      jump\t// out\n        /* \"#utility.yul\":31656:31827   */\n    tag_555:\n        /* \"#utility.yul\":31796:31819   */\n      0x496e636f72726563742072656e7420616d6f756e740000000000000000000000\n        /* \"#utility.yul\":31792:31793   */\n      0x00\n        /* \"#utility.yul\":31784:31790   */\n      dup3\n        /* \"#utility.yul\":31780:31794   */\n      add\n        /* \"#utility.yul\":31773:31820   */\n      mstore\n        /* \"#utility.yul\":31656:31827   */\n      pop\n      jump\t// out\n        /* \"#utility.yul\":31833:32199   */\n    tag_556:\n        /* \"#utility.yul\":31975:31978   */\n      0x00\n        /* \"#utility.yul\":31996:32063   */\n      tag_826\n        /* \"#utility.yul\":32060:32062   */\n      0x15\n        /* \"#utility.yul\":32055:32058   */\n      dup4\n        /* \"#utility.yul\":31996:32063   */\n      tag_502\n      jump\t// in\n    tag_826:\n        /* \"#utility.yul\":31989:32063   */\n      swap2\n      pop\n        /* \"#utility.yul\":32072:32165   */\n      tag_827\n        /* \"#utility.yul\":32161:32164   */\n      dup3\n        /* \"#utility.yul\":32072:32165   */\n      tag_555\n      jump\t// in\n    tag_827:\n        /* \"#utility.yul\":32190:32192   */\n      0x20\n        /* \"#utility.yul\":32185:32188   */\n      dup3\n        /* \"#utility.yul\":32181:32193   */\n      add\n        /* \"#utility.yul\":32174:32193   */\n      swap1\n      pop\n        /* \"#utility.yul\":31833:32199   */\n      swap2\n      swap1\n      pop\n      jump\t// out\n        /* \"#utility.yul\":32205:32624   */\n    tag_368:\n        /* \"#utility.yul\":32371:32375   */\n      0x00\n        /* \"#utility.yul\":32409:32411   */\n      0x20\n        /* \"#utility.yul\":32398:32407   */\n      dup3\n        /* \"#utility.yul\":32394:32412   */\n      add\n        /* \"#utility.yul\":32386:32412   */\n      swap1\n      pop\n        /* \"#utility.yul\":32458:32467   */\n      dup2\n        /* \"#utility.yul\":32452:32456   */\n      dup2\n        /* \"#utility.yul\":32448:32468   */\n      sub\n        /* \"#utility.yul\":32444:32445   */\n      0x00\n        /* \"#utility.yul\":32433:32442   */\n      dup4\n        /* \"#utility.yul\":32429:32446   */\n      add\n        /* \"#utility.yul\":32422:32469   */\n      mstore\n        /* \"#utility.yul\":32486:32617   */\n      tag_829\n        /* \"#utility.yul\":32612:32616   */\n      dup2\n        /* \"#utility.yul\":32486:32617   */\n      tag_556\n      jump\t// in\n    tag_829:\n        /* \"#utility.yul\":32478:32617   */\n      swap1\n      pop\n        /* \"#utility.yul\":32205:32624   */\n      swap2\n      swap1\n      pop\n      jump\t// out\n        /* \"#utility.yul\":32630:32863   */\n    tag_375:\n        /* \"#utility.yul\":32669:32672   */\n      0x00\n        /* \"#utility.yul\":32692:32716   */\n      tag_831\n        /* \"#utility.yul\":32710:32715   */\n      dup3\n        /* \"#utility.yul\":32692:32716   */\n      tag_485\n      jump\t// in\n    tag_831:\n        /* \"#utility.yul\":32683:32716   */\n      swap2\n      pop\n        /* \"#utility.yul\":32738:32804   */\n      0xffffffffffffffffffffffffffffffffffffffffffffffffffffffffffffffff\n        /* \"#utility.yul\":32731:32736   */\n      dup3\n        /* \"#utility.yul\":32728:32805   */\n      sub\n        /* \"#utility.yul\":32725:32828   */\n      tag_832\n      jumpi\n        /* \"#utility.yul\":32808:32826   */\n      tag_833\n      tag_521\n      jump\t// in\n    tag_833:\n        /* \"#utility.yul\":32725:32828   */\n    tag_832:\n        /* \"#utility.yul\":32855:32856   */\n      0x01\n        /* \"#utility.yul\":32848:32853   */\n      dup3\n        /* \"#utility.yul\":32844:32857   */\n      add\n        /* \"#utility.yul\":32837:32857   */\n      swap1\n      pop\n        /* \"#utility.yul\":32630:32863   */\n      swap2\n      swap1\n      pop\n      jump\t// out\n        /* \"#utility.yul\":32869:33109   */\n    tag_557:\n        /* \"#utility.yul\":33009:33043   */\n      0x4f6e6c79206c616e646c6f72642063616e20696e697469616c697a6520637572\n        /* \"#utility.yul\":33005:33006   */\n      0x00\n        /* \"#utility.yul\":32997:33003   */\n      dup3\n        /* \"#utility.yul\":32993:33007   */\n      add\n        /* \"#utility.yul\":32986:33044   */\n      mstore\n        /* \"#utility.yul\":33078:33101   */\n      0x72656e74207365637572697479206465706f7369740000000000000000000000\n        /* \"#utility.yul\":33073:33075   */\n      0x20\n        /* \"#utility.yul\":33065:33071   */\n      dup3\n        /* \"#utility.yul\":33061:33076   */\n      add\n        /* \"#utility.yul\":33054:33102   */\n      mstore\n        /* \"#utility.yul\":32869:33109   */\n      pop\n      jump\t// out\n        /* \"#utility.yul\":33115:33481   */\n    tag_558:\n        /* \"#utility.yul\":33257:33260   */\n      0x00\n        /* \"#utility.yul\":33278:33345   */\n      tag_836\n        /* \"#utility.yul\":33342:33344   */\n      0x35\n        /* \"#utility.yul\":33337:33340   */\n      dup4\n        /* \"#utility.yul\":33278:33345   */\n      tag_502\n      jump\t// in\n    tag_836:\n        /* \"#utility.yul\":33271:33345   */\n      swap2\n      pop\n        /* \"#utility.yul\":33354:33447   */\n      tag_837\n        /* \"#utility.yul\":33443:33446   */\n      dup3\n        /* \"#utility.yul\":33354:33447   */\n      tag_557\n      jump\t// in\n    tag_837:\n        /* \"#utility.yul\":33472:33474   */\n      0x40\n        /* \"#utility.yul\":33467:33470   */\n      dup3\n        /* \"#utility.yul\":33463:33475   */\n      add\n        /* \"#utility.yul\":33456:33475   */\n      swap1\n      pop\n        /* \"#utility.yul\":33115:33481   */\n      swap2\n      swap1\n      pop\n      jump\t// out\n        /* \"#utility.yul\":33487:33906   */\n    tag_379:\n        /* \"#utility.yul\":33653:33657   */\n      0x00\n        /* \"#utility.yul\":33691:33693   */\n      0x20\n        /* \"#utility.yul\":33680:33689   */\n      dup3\n        /* \"#utility.yul\":33676:33694   */\n      add\n        /* \"#utility.yul\":33668:33694   */\n      swap1\n      pop\n        /* \"#utility.yul\":33740:33749   */\n      dup2\n        /* \"#utility.yul\":33734:33738   */\n      dup2\n        /* \"#utility.yul\":33730:33750   */\n      sub\n        /* \"#utility.yul\":33726:33727   */\n      0x00\n        /* \"#utility.yul\":33715:33724   */\n      dup4\n        /* \"#utility.yul\":33711:33728   */\n      add\n        /* \"#utility.yul\":33704:33751   */\n      mstore\n        /* \"#utility.yul\":33768:33899   */\n      tag_839\n        /* \"#utility.yul\":33894:33898   */\n      dup2\n        /* \"#utility.yul\":33768:33899   */\n      tag_558\n      jump\t// in\n    tag_839:\n        /* \"#utility.yul\":33760:33899   */\n      swap1\n      pop\n        /* \"#utility.yul\":33487:33906   */\n      swap2\n      swap1\n      pop\n      jump\t// out\n        /* \"#utility.yul\":33912:34085   */\n    tag_559:\n        /* \"#utility.yul\":34052:34077   */\n      0x436f6e7472616374206d75737420626520616374697665000000000000000000\n        /* \"#utility.yul\":34048:34049   */\n      0x00\n        /* \"#utility.yul\":34040:34046   */\n      dup3\n        /* \"#utility.yul\":34036:34050   */\n      add\n        /* \"#utility.yul\":34029:34078   */\n      mstore\n        /* \"#utility.yul\":33912:34085   */\n      pop\n      jump\t// out\n        /* \"#utility.yul\":34091:34457   */\n    tag_560:\n        /* \"#utility.yul\":34233:34236   */\n      0x00\n        /* \"#utility.yul\":34254:34321   */\n      tag_842\n        /* \"#utility.yul\":34318:34320   */\n      0x17\n        /* \"#utility.yul\":34313:34316   */\n      dup4\n        /* \"#utility.yul\":34254:34321   */\n      tag_502\n      jump\t// in\n    tag_842:\n        /* \"#utility.yul\":34247:34321   */\n      swap2\n      pop\n        /* \"#utility.yul\":34330:34423   */\n      tag_843\n        /* \"#utility.yul\":34419:34422   */\n      dup3\n        /* \"#utility.yul\":34330:34423   */\n      tag_559\n      jump\t// in\n    tag_843:\n        /* \"#utility.yul\":34448:34450   */\n      0x20\n        /* \"#utility.yul\":34443:34446   */\n      dup3\n        /* \"#utility.yul\":34439:34451   */\n      add\n        /* \"#utility.yul\":34432:34451   */\n      swap1\n      pop\n        /* \"#utility.yul\":34091:34457   */\n      swap2\n      swap1\n      pop\n      jump\t// out\n        /* \"#utility.yul\":34463:34882   */\n    tag_382:\n        /* \"#utility.yul\":34629:34633   */\n      0x00\n        /* \"#utility.yul\":34667:34669   */\n      0x20\n        /* \"#utility.yul\":34656:34665   */\n      dup3\n        /* \"#utility.yul\":34652:34670   */\n      add\n        /* \"#utility.yul\":34644:34670   */\n      swap1\n      pop\n        /* \"#utility.yul\":34716:34725   */\n      dup2\n        /* \"#utility.yul\":34710:34714   */\n      dup2\n        /* \"#utility.yul\":34706:34726   */\n      sub\n        /* \"#utility.yul\":34702:34703   */\n      0x00\n        /* \"#utility.yul\":34691:34700   */\n      dup4\n        /* \"#utility.yul\":34687:34704   */\n      add\n        /* \"#utility.yul\":34680:34727   */\n      mstore\n        /* \"#utility.yul\":34744:34875   */\n      tag_845\n        /* \"#utility.yul\":34870:34874   */\n      dup2\n        /* \"#utility.yul\":34744:34875   */\n      tag_560\n      jump\t// in\n    tag_845:\n        /* \"#utility.yul\":34736:34875   */\n      swap1\n      pop\n        /* \"#utility.yul\":34463:34882   */\n      swap2\n      swap1\n      pop\n      jump\t// out\n        /* \"#utility.yul\":34888:35119   */\n    tag_561:\n        /* \"#utility.yul\":35028:35062   */\n      0x43757272656e74207365637572697479206465706f73697420616c7265616479\n        /* \"#utility.yul\":35024:35025   */\n      0x00\n        /* \"#utility.yul\":35016:35022   */\n      dup3\n        /* \"#utility.yul\":35012:35026   */\n      add\n        /* \"#utility.yul\":35005:35063   */\n      mstore\n        /* \"#utility.yul\":35097:35111   */\n      0x20696e697469616c697a65640000000000000000000000000000000000000000\n        /* \"#utility.yul\":35092:35094   */\n      0x20\n        /* \"#utility.yul\":35084:35090   */\n      dup3\n        /* \"#utility.yul\":35080:35095   */\n      add\n        /* \"#utility.yul\":35073:35112   */\n      mstore\n        /* \"#utility.yul\":34888:35119   */\n      pop\n      jump\t// out\n        /* \"#utility.yul\":35125:35491   */\n    tag_562:\n        /* \"#utility.yul\":35267:35270   */\n      0x00\n        /* \"#utility.yul\":35288:35355   */\n      tag_848\n        /* \"#utility.yul\":35352:35354   */\n      0x2c\n        /* \"#utility.yul\":35347:35350   */\n      dup4\n        /* \"#utility.yul\":35288:35355   */\n      tag_502\n      jump\t// in\n    tag_848:\n        /* \"#utility.yul\":35281:35355   */\n      swap2\n      pop\n        /* \"#utility.yul\":35364:35457   */\n      tag_849\n        /* \"#utility.yul\":35453:35456   */\n      dup3\n        /* \"#utility.yul\":35364:35457   */\n      tag_561\n      jump\t// in\n    tag_849:\n        /* \"#utility.yul\":35482:35484   */\n      0x40\n        /* \"#utility.yul\":35477:35480   */\n      dup3\n        /* \"#utility.yul\":35473:35485   */\n      add\n        /* \"#utility.yul\":35466:35485   */\n      swap1\n      pop\n        /* \"#utility.yul\":35125:35491   */\n      swap2\n      swap1\n      pop\n      jump\t// out\n        /* \"#utility.yul\":35497:35916   */\n    tag_385:\n        /* \"#utility.yul\":35663:35667   */\n      0x00\n        /* \"#utility.yul\":35701:35703   */\n      0x20\n        /* \"#utility.yul\":35690:35699   */\n      dup3\n        /* \"#utility.yul\":35686:35704   */\n      add\n        /* \"#utility.yul\":35678:35704   */\n      swap1\n      pop\n        /* \"#utility.yul\":35750:35759   */\n      dup2\n        /* \"#utility.yul\":35744:35748   */\n      dup2\n        /* \"#utility.yul\":35740:35760   */\n      sub\n        /* \"#utility.yul\":35736:35737   */\n      0x00\n        /* \"#utility.yul\":35725:35734   */\n      dup4\n        /* \"#utility.yul\":35721:35738   */\n      add\n        /* \"#utility.yul\":35714:35761   */\n      mstore\n        /* \"#utility.yul\":35778:35909   */\n      tag_851\n        /* \"#utility.yul\":35904:35908   */\n      dup2\n        /* \"#utility.yul\":35778:35909   */\n      tag_562\n      jump\t// in\n    tag_851:\n        /* \"#utility.yul\":35770:35909   */\n      swap1\n      pop\n        /* \"#utility.yul\":35497:35916   */\n      swap2\n      swap1\n      pop\n      jump\t// out\n        /* \"#utility.yul\":35922:36149   */\n    tag_563:\n        /* \"#utility.yul\":36062:36096   */\n      0x4f6e6c792072656e7465722063616e207365742074686520636f756e74657220\n        /* \"#utility.yul\":36058:36059   */\n      0x00\n        /* \"#utility.yul\":36050:36056   */\n      dup3\n        /* \"#utility.yul\":36046:36060   */\n      add\n        /* \"#utility.yul\":36039:36097   */\n      mstore\n        /* \"#utility.yul\":36131:36141   */\n      0x657374696d617465000000000000000000000000000000000000000000000000\n        /* \"#utility.yul\":36126:36128   */\n      0x20\n        /* \"#utility.yul\":36118:36124   */\n      dup3\n        /* \"#utility.yul\":36114:36129   */\n      add\n        /* \"#utility.yul\":36107:36142   */\n      mstore\n        /* \"#utility.yul\":35922:36149   */\n      pop\n      jump\t// out\n        /* \"#utility.yul\":36155:36521   */\n    tag_564:\n        /* \"#utility.yul\":36297:36300   */\n      0x00\n        /* \"#utility.yul\":36318:36385   */\n      tag_854\n        /* \"#utility.yul\":36382:36384   */\n      0x28\n        /* \"#utility.yul\":36377:36380   */\n      dup4\n        /* \"#utility.yul\":36318:36385   */\n      tag_502\n      jump\t// in\n    tag_854:\n        /* \"#utility.yul\":36311:36385   */\n      swap2\n      pop\n        /* \"#utility.yul\":36394:36487   */\n      tag_855\n        /* \"#utility.yul\":36483:36486   */\n      dup3\n        /* \"#utility.yul\":36394:36487   */\n      tag_563\n      jump\t// in\n    tag_855:\n        /* \"#utility.yul\":36512:36514   */\n      0x40\n        /* \"#utility.yul\":36507:36510   */\n      dup3\n        /* \"#utility.yul\":36503:36515   */\n      add\n        /* \"#utility.yul\":36496:36515   */\n      swap1\n      pop\n        /* \"#utility.yul\":36155:36521   */\n      swap2\n      swap1\n      pop\n      jump\t// out\n        /* \"#utility.yul\":36527:36946   */\n    tag_389:\n        /* \"#utility.yul\":36693:36697   */\n      0x00\n        /* \"#utility.yul\":36731:36733   */\n      0x20\n        /* \"#utility.yul\":36720:36729   */\n      dup3\n        /* \"#utility.yul\":36716:36734   */\n      add\n        /* \"#utility.yul\":36708:36734   */\n      swap1\n      pop\n        /* \"#utility.yul\":36780:36789   */\n      dup2\n        /* \"#utility.yul\":36774:36778   */\n      dup2\n        /* \"#utility.yul\":36770:36790   */\n      sub\n        /* \"#utility.yul\":36766:36767   */\n      0x00\n        /* \"#utility.yul\":36755:36764   */\n      dup4\n        /* \"#utility.yul\":36751:36768   */\n      add\n        /* \"#utility.yul\":36744:36791   */\n      mstore\n        /* \"#utility.yul\":36808:36939   */\n      tag_857\n        /* \"#utility.yul\":36934:36938   */\n      dup2\n        /* \"#utility.yul\":36808:36939   */\n      tag_564\n      jump\t// in\n    tag_857:\n        /* \"#utility.yul\":36800:36939   */\n      swap1\n      pop\n        /* \"#utility.yul\":36527:36946   */\n      swap2\n      swap1\n      pop\n      jump\t// out\n        /* \"#utility.yul\":36952:37178   */\n    tag_565:\n        /* \"#utility.yul\":37092:37126   */\n      0x4c616e646c6f7264206d757374207365742064616d61676520657374696d6174\n        /* \"#utility.yul\":37088:37089   */\n      0x00\n        /* \"#utility.yul\":37080:37086   */\n      dup3\n        /* \"#utility.yul\":37076:37090   */\n      add\n        /* \"#utility.yul\":37069:37127   */\n      mstore\n        /* \"#utility.yul\":37161:37170   */\n      0x6520666972737400000000000000000000000000000000000000000000000000\n        /* \"#utility.yul\":37156:37158   */\n      0x20\n        /* \"#utility.yul\":37148:37154   */\n      dup3\n        /* \"#utility.yul\":37144:37159   */\n      add\n        /* \"#utility.yul\":37137:37171   */\n      mstore\n        /* \"#utility.yul\":36952:37178   */\n      pop\n      jump\t// out\n        /* \"#utility.yul\":37184:37550   */\n    tag_566:\n        /* \"#utility.yul\":37326:37329   */\n      0x00\n        /* \"#utility.yul\":37347:37414   */\n      tag_860\n        /* \"#utility.yul\":37411:37413   */\n      0x27\n        /* \"#utility.yul\":37406:37409   */\n      dup4\n        /* \"#utility.yul\":37347:37414   */\n      tag_502\n      jump\t// in\n    tag_860:\n        /* \"#utility.yul\":37340:37414   */\n      swap2\n      pop\n        /* \"#utility.yul\":37423:37516   */\n      tag_861\n        /* \"#utility.yul\":37512:37515   */\n      dup3\n        /* \"#utility.yul\":37423:37516   */\n      tag_565\n      jump\t// in\n    tag_861:\n        /* \"#utility.yul\":37541:37543   */\n      0x40\n        /* \"#utility.yul\":37536:37539   */\n      dup3\n        /* \"#utility.yul\":37532:37544   */\n      add\n        /* \"#utility.yul\":37525:37544   */\n      swap1\n      pop\n        /* \"#utility.yul\":37184:37550   */\n      swap2\n      swap1\n      pop\n      jump\t// out\n        /* \"#utility.yul\":37556:37975   */\n    tag_392:\n        /* \"#utility.yul\":37722:37726   */\n      0x00\n        /* \"#utility.yul\":37760:37762   */\n      0x20\n        /* \"#utility.yul\":37749:37758   */\n      dup3\n        /* \"#utility.yul\":37745:37763   */\n      add\n        /* \"#utility.yul\":37737:37763   */\n      swap1\n      pop\n        /* \"#utility.yul\":37809:37818   */\n      dup2\n        /* \"#utility.yul\":37803:37807   */\n      dup2\n        /* \"#utility.yul\":37799:37819   */\n      sub\n        /* \"#utility.yul\":37795:37796   */\n      0x00\n        /* \"#utility.yul\":37784:37793   */\n      dup4\n        /* \"#utility.yul\":37780:37797   */\n      add\n        /* \"#utility.yul\":37773:37820   */\n      mstore\n        /* \"#utility.yul\":37837:37968   */\n      tag_863\n        /* \"#utility.yul\":37963:37967   */\n      dup2\n        /* \"#utility.yul\":37837:37968   */\n      tag_566\n      jump\t// in\n    tag_863:\n        /* \"#utility.yul\":37829:37968   */\n      swap1\n      pop\n        /* \"#utility.yul\":37556:37975   */\n      swap2\n      swap1\n      pop\n      jump\t// out\n        /* \"#utility.yul\":37981:38201   */\n    tag_567:\n        /* \"#utility.yul\":38121:38155   */\n      0x4f6e6c792072656e7465722063616e20736b69702072656e74207061796d656e\n        /* \"#utility.yul\":38117:38118   */\n      0x00\n        /* \"#utility.yul\":38109:38115   */\n      dup3\n        /* \"#utility.yul\":38105:38119   */\n      add\n        /* \"#utility.yul\":38098:38156   */\n      mstore\n        /* \"#utility.yul\":38190:38193   */\n      0x7400000000000000000000000000000000000000000000000000000000000000\n        /* \"#utility.yul\":38185:38187   */\n      0x20\n        /* \"#utility.yul\":38177:38183   */\n      dup3\n        /* \"#utility.yul\":38173:38188   */\n      add\n        /* \"#utility.yul\":38166:38194   */\n      mstore\n        /* \"#utility.yul\":37981:38201   */\n      pop\n      jump\t// out\n        /* \"#utility.yul\":38207:38573   */\n    tag_568:\n        /* \"#utility.yul\":38349:38352   */\n      0x00\n        /* \"#utility.yul\":38370:38437   */\n      tag_866\n        /* \"#utility.yul\":38434:38436   */\n      0x21\n        /* \"#utility.yul\":38429:38432   */\n      dup4\n        /* \"#utility.yul\":38370:38437   */\n      tag_502\n      jump\t// in\n    tag_866:\n        /* \"#utility.yul\":38363:38437   */\n      swap2\n      pop\n        /* \"#utility.yul\":38446:38539   */\n      tag_867\n        /* \"#utility.yul\":38535:38538   */\n      dup3\n        /* \"#utility.yul\":38446:38539   */\n      tag_567\n      jump\t// in\n    tag_867:\n        /* \"#utility.yul\":38564:38566   */\n      0x40\n        /* \"#utility.yul\":38559:38562   */\n      dup3\n        /* \"#utility.yul\":38555:38567   */\n      add\n        /* \"#utility.yul\":38548:38567   */\n      swap1\n      pop\n        /* \"#utility.yul\":38207:38573   */\n      swap2\n      swap1\n      pop\n      jump\t// out\n        /* \"#utility.yul\":38579:38998   */\n    tag_397:\n        /* \"#utility.yul\":38745:38749   */\n      0x00\n        /* \"#utility.yul\":38783:38785   */\n      0x20\n        /* \"#utility.yul\":38772:38781   */\n      dup3\n        /* \"#utility.yul\":38768:38786   */\n      add\n        /* \"#utility.yul\":38760:38786   */\n      swap1\n      pop\n        /* \"#utility.yul\":38832:38841   */\n      dup2\n        /* \"#utility.yul\":38826:38830   */\n      dup2\n        /* \"#utility.yul\":38822:38842   */\n      sub\n        /* \"#utility.yul\":38818:38819   */\n      0x00\n        /* \"#utility.yul\":38807:38816   */\n      dup4\n        /* \"#utility.yul\":38803:38820   */\n      add\n        /* \"#utility.yul\":38796:38843   */\n      mstore\n        /* \"#utility.yul\":38860:38991   */\n      tag_869\n        /* \"#utility.yul\":38986:38990   */\n      dup2\n        /* \"#utility.yul\":38860:38991   */\n      tag_568\n      jump\t// in\n    tag_869:\n        /* \"#utility.yul\":38852:38991   */\n      swap1\n      pop\n        /* \"#utility.yul\":38579:38998   */\n      swap2\n      swap1\n      pop\n      jump\t// out\n        /* \"#utility.yul\":39004:39228   */\n    tag_569:\n        /* \"#utility.yul\":39144:39178   */\n      0x4f6e6c79206c616e646c6f72642063616e207365742061677265656d656e7420\n        /* \"#utility.yul\":39140:39141   */\n      0x00\n        /* \"#utility.yul\":39132:39138   */\n      dup3\n        /* \"#utility.yul\":39128:39142   */\n      add\n        /* \"#utility.yul\":39121:39179   */\n      mstore\n        /* \"#utility.yul\":39213:39220   */\n      0x7465726d73000000000000000000000000000000000000000000000000000000\n        /* \"#utility.yul\":39208:39210   */\n      0x20\n        /* \"#utility.yul\":39200:39206   */\n      dup3\n        /* \"#utility.yul\":39196:39211   */\n      add\n        /* \"#utility.yul\":39189:39221   */\n      mstore\n        /* \"#utility.yul\":39004:39228   */\n      pop\n      jump\t// out\n        /* \"#utility.yul\":39234:39600   */\n    tag_570:\n        /* \"#utility.yul\":39376:39379   */\n      0x00\n        /* \"#utility.yul\":39397:39464   */\n      tag_872\n        /* \"#utility.yul\":39461:39463   */\n      0x25\n        /* \"#utility.yul\":39456:39459   */\n      dup4\n        /* \"#utility.yul\":39397:39464   */\n      tag_502\n      jump\t// in\n    tag_872:\n        /* \"#utility.yul\":39390:39464   */\n      swap2\n      pop\n        /* \"#utility.yul\":39473:39566   */\n      tag_873\n        /* \"#utility.yul\":39562:39565   */\n      dup3\n        /* \"#utility.yul\":39473:39566   */\n      tag_569\n      jump\t// in\n    tag_873:\n        /* \"#utility.yul\":39591:39593   */\n      0x40\n        /* \"#utility.yul\":39586:39589   */\n      dup3\n        /* \"#utility.yul\":39582:39594   */\n      add\n        /* \"#utility.yul\":39575:39594   */\n      swap1\n      pop\n        /* \"#utility.yul\":39234:39600   */\n      swap2\n      swap1\n      pop\n      jump\t// out\n        /* \"#utility.yul\":39606:40025   */\n    tag_418:\n        /* \"#utility.yul\":39772:39776   */\n      0x00\n        /* \"#utility.yul\":39810:39812   */\n      0x20\n        /* \"#utility.yul\":39799:39808   */\n      dup3\n        /* \"#utility.yul\":39795:39813   */\n      add\n        /* \"#utility.yul\":39787:39813   */\n      swap1\n      pop\n        /* \"#utility.yul\":39859:39868   */\n      dup2\n        /* \"#utility.yul\":39853:39857   */\n      dup2\n        /* \"#utility.yul\":39849:39869   */\n      sub\n        /* \"#utility.yul\":39845:39846   */\n      0x00\n        /* \"#utility.yul\":39834:39843   */\n      dup4\n        /* \"#utility.yul\":39830:39847   */\n      add\n        /* \"#utility.yul\":39823:39870   */\n      mstore\n        /* \"#utility.yul\":39887:40018   */\n      tag_875\n        /* \"#utility.yul\":40013:40017   */\n      dup2\n        /* \"#utility.yul\":39887:40018   */\n      tag_570\n      jump\t// in\n    tag_875:\n        /* \"#utility.yul\":39879:40018   */\n      swap1\n      pop\n        /* \"#utility.yul\":39606:40025   */\n      swap2\n      swap1\n      pop\n      jump\t// out\n        /* \"#utility.yul\":40031:40473   */\n    tag_422:\n        /* \"#utility.yul\":40180:40184   */\n      0x00\n        /* \"#utility.yul\":40218:40220   */\n      0x60\n        /* \"#utility.yul\":40207:40216   */\n      dup3\n        /* \"#utility.yul\":40203:40221   */\n      add\n        /* \"#utility.yul\":40195:40221   */\n      swap1\n      pop\n        /* \"#utility.yul\":40231:40302   */\n      tag_877\n        /* \"#utility.yul\":40299:40300   */\n      0x00\n        /* \"#utility.yul\":40288:40297   */\n      dup4\n        /* \"#utility.yul\":40284:40301   */\n      add\n        /* \"#utility.yul\":40275:40281   */\n      dup7\n        /* \"#utility.yul\":40231:40302   */\n      tag_486\n      jump\t// in\n    tag_877:\n        /* \"#utility.yul\":40312:40384   */\n      tag_878\n        /* \"#utility.yul\":40380:40382   */\n      0x20\n        /* \"#utility.yul\":40369:40378   */\n      dup4\n        /* \"#utility.yul\":40365:40383   */\n      add\n        /* \"#utility.yul\":40356:40362   */\n      dup6\n        /* \"#utility.yul\":40312:40384   */\n      tag_486\n      jump\t// in\n    tag_878:\n        /* \"#utility.yul\":40394:40466   */\n      tag_879\n        /* \"#utility.yul\":40462:40464   */\n      0x40\n        /* \"#utility.yul\":40451:40460   */\n      dup4\n        /* \"#utility.yul\":40447:40465   */\n      add\n        /* \"#utility.yul\":40438:40444   */\n      dup5\n        /* \"#utility.yul\":40394:40466   */\n      tag_486\n      jump\t// in\n    tag_879:\n        /* \"#utility.yul\":40031:40473   */\n      swap5\n      swap4\n      pop\n      pop\n      pop\n      pop\n      jump\t// out\n        /* \"#utility.yul\":40479:40701   */\n    tag_571:\n        /* \"#utility.yul\":40619:40653   */\n      0x4f6e6c792072656e7465722063616e2072656a6563742074686520657374696d\n        /* \"#utility.yul\":40615:40616   */\n      0x00\n        /* \"#utility.yul\":40607:40613   */\n      dup3\n        /* \"#utility.yul\":40603:40617   */\n      add\n        /* \"#utility.yul\":40596:40654   */\n      mstore\n        /* \"#utility.yul\":40688:40693   */\n      0x6174650000000000000000000000000000000000000000000000000000000000\n        /* \"#utility.yul\":40683:40685   */\n      0x20\n        /* \"#utility.yul\":40675:40681   */\n      dup3\n        /* \"#utility.yul\":40671:40686   */\n      add\n        /* \"#utility.yul\":40664:40694   */\n      mstore\n        /* \"#utility.yul\":40479:40701   */\n      pop\n      jump\t// out\n        /* \"#utility.yul\":40707:41073   */\n    tag_572:\n        /* \"#utility.yul\":40849:40852   */\n      0x00\n        /* \"#utility.yul\":40870:40937   */\n      tag_882\n        /* \"#utility.yul\":40934:40936   */\n      0x23\n        /* \"#utility.yul\":40929:40932   */\n      dup4\n        /* \"#utility.yul\":40870:40937   */\n      tag_502\n      jump\t// in\n    tag_882:\n        /* \"#utility.yul\":40863:40937   */\n      swap2\n      pop\n        /* \"#utility.yul\":40946:41039   */\n      tag_883\n        /* \"#utility.yul\":41035:41038   */\n      dup3\n        /* \"#utility.yul\":40946:41039   */\n      tag_571\n      jump\t// in\n    tag_883:\n        /* \"#utility.yul\":41064:41066   */\n      0x40\n        /* \"#utility.yul\":41059:41062   */\n      dup3\n        /* \"#utility.yul\":41055:41067   */\n      add\n        /* \"#utility.yul\":41048:41067   */\n      swap1\n      pop\n        /* \"#utility.yul\":40707:41073   */\n      swap2\n      swap1\n      pop\n      jump\t// out\n        /* \"#utility.yul\":41079:41498   */\n    tag_426:\n        /* \"#utility.yul\":41245:41249   */\n      0x00\n        /* \"#utility.yul\":41283:41285   */\n      0x20\n        /* \"#utility.yul\":41272:41281   */\n      dup3\n        /* \"#utility.yul\":41268:41286   */\n      add\n        /* \"#utility.yul\":41260:41286   */\n      swap1\n      pop\n        /* \"#utility.yul\":41332:41341   */\n      dup2\n        /* \"#utility.yul\":41326:41330   */\n      dup2\n        /* \"#utility.yul\":41322:41342   */\n      sub\n        /* \"#utility.yul\":41318:41319   */\n      0x00\n        /* \"#utility.yul\":41307:41316   */\n      dup4\n        /* \"#utility.yul\":41303:41320   */\n      add\n        /* \"#utility.yul\":41296:41343   */\n      mstore\n        /* \"#utility.yul\":41360:41491   */\n      tag_885\n        /* \"#utility.yul\":41486:41490   */\n      dup2\n        /* \"#utility.yul\":41360:41491   */\n      tag_572\n      jump\t// in\n    tag_885:\n        /* \"#utility.yul\":41352:41491   */\n      swap1\n      pop\n        /* \"#utility.yul\":41079:41498   */\n      swap2\n      swap1\n      pop\n      jump\t// out\n        /* \"#utility.yul\":41504:41726   */\n    tag_573:\n        /* \"#utility.yul\":41644:41678   */\n      0x4f6e6c792072656e7465722063616e206163636570742074686520657374696d\n        /* \"#utility.yul\":41640:41641   */\n      0x00\n        /* \"#utility.yul\":41632:41638   */\n      dup3\n        /* \"#utility.yul\":41628:41642   */\n      add\n        /* \"#utility.yul\":41621:41679   */\n      mstore\n        /* \"#utility.yul\":41713:41718   */\n      0x6174650000000000000000000000000000000000000000000000000000000000\n        /* \"#utility.yul\":41708:41710   */\n      0x20\n        /* \"#utility.yul\":41700:41706   */\n      dup3\n        /* \"#utility.yul\":41696:41711   */\n      add\n        /* \"#utility.yul\":41689:41719   */\n      mstore\n        /* \"#utility.yul\":41504:41726   */\n      pop\n      jump\t// out\n        /* \"#utility.yul\":41732:42098   */\n    tag_574:\n        /* \"#utility.yul\":41874:41877   */\n      0x00\n        /* \"#utility.yul\":41895:41962   */\n      tag_888\n        /* \"#utility.yul\":41959:41961   */\n      0x23\n        /* \"#utility.yul\":41954:41957   */\n      dup4\n        /* \"#utility.yul\":41895:41962   */\n      tag_502\n      jump\t// in\n    tag_888:\n        /* \"#utility.yul\":41888:41962   */\n      swap2\n      pop\n        /* \"#utility.yul\":41971:42064   */\n      tag_889\n        /* \"#utility.yul\":42060:42063   */\n      dup3\n        /* \"#utility.yul\":41971:42064   */\n      tag_573\n      jump\t// in\n    tag_889:\n        /* \"#utility.yul\":42089:42091   */\n      0x40\n        /* \"#utility.yul\":42084:42087   */\n      dup3\n        /* \"#utility.yul\":42080:42092   */\n      add\n        /* \"#utility.yul\":42073:42092   */\n      swap1\n      pop\n        /* \"#utility.yul\":41732:42098   */\n      swap2\n      swap1\n      pop\n      jump\t// out\n        /* \"#utility.yul\":42104:42523   */\n    tag_432:\n        /* \"#utility.yul\":42270:42274   */\n      0x00\n        /* \"#utility.yul\":42308:42310   */\n      0x20\n        /* \"#utility.yul\":42297:42306   */\n      dup3\n        /* \"#utility.yul\":42293:42311   */\n      add\n        /* \"#utility.yul\":42285:42311   */\n      swap1\n      pop\n        /* \"#utility.yul\":42357:42366   */\n      dup2\n        /* \"#utility.yul\":42351:42355   */\n      dup2\n        /* \"#utility.yul\":42347:42367   */\n      sub\n        /* \"#utility.yul\":42343:42344   */\n      0x00\n        /* \"#utility.yul\":42332:42341   */\n      dup4\n        /* \"#utility.yul\":42328:42345   */\n      add\n        /* \"#utility.yul\":42321:42368   */\n      mstore\n        /* \"#utility.yul\":42385:42516   */\n      tag_891\n        /* \"#utility.yul\":42511:42515   */\n      dup2\n        /* \"#utility.yul\":42385:42516   */\n      tag_574\n      jump\t// in\n    tag_891:\n        /* \"#utility.yul\":42377:42516   */\n      swap1\n      pop\n        /* \"#utility.yul\":42104:42523   */\n      swap2\n      swap1\n      pop\n      jump\t// out\n        /* \"#utility.yul\":42529:42761   */\n    tag_575:\n        /* \"#utility.yul\":42669:42703   */\n      0x4f6e6c79206c616e646c6f72642063616e206163636570742074686520636f75\n        /* \"#utility.yul\":42665:42666   */\n      0x00\n        /* \"#utility.yul\":42657:42663   */\n      dup3\n        /* \"#utility.yul\":42653:42667   */\n      add\n        /* \"#utility.yul\":42646:42704   */\n      mstore\n        /* \"#utility.yul\":42738:42753   */\n      0x6e74657220657374696d61746500000000000000000000000000000000000000\n        /* \"#utility.yul\":42733:42735   */\n      0x20\n        /* \"#utility.yul\":42725:42731   */\n      dup3\n        /* \"#utility.yul\":42721:42736   */\n      add\n        /* \"#utility.yul\":42714:42754   */\n      mstore\n        /* \"#utility.yul\":42529:42761   */\n      pop\n      jump\t// out\n        /* \"#utility.yul\":42767:43133   */\n    tag_576:\n        /* \"#utility.yul\":42909:42912   */\n      0x00\n        /* \"#utility.yul\":42930:42997   */\n      tag_894\n        /* \"#utility.yul\":42994:42996   */\n      0x2d\n        /* \"#utility.yul\":42989:42992   */\n      dup4\n        /* \"#utility.yul\":42930:42997   */\n      tag_502\n      jump\t// in\n    tag_894:\n        /* \"#utility.yul\":42923:42997   */\n      swap2\n      pop\n        /* \"#utility.yul\":43006:43099   */\n      tag_895\n        /* \"#utility.yul\":43095:43098   */\n      dup3\n        /* \"#utility.yul\":43006:43099   */\n      tag_575\n      jump\t// in\n    tag_895:\n        /* \"#utility.yul\":43124:43126   */\n      0x40\n        /* \"#utility.yul\":43119:43122   */\n      dup3\n        /* \"#utility.yul\":43115:43127   */\n      add\n        /* \"#utility.yul\":43108:43127   */\n      swap1\n      pop\n        /* \"#utility.yul\":42767:43133   */\n      swap2\n      swap1\n      pop\n      jump\t// out\n        /* \"#utility.yul\":43139:43558   */\n    tag_446:\n        /* \"#utility.yul\":43305:43309   */\n      0x00\n        /* \"#utility.yul\":43343:43345   */\n      0x20\n        /* \"#utility.yul\":43332:43341   */\n      dup3\n        /* \"#utility.yul\":43328:43346   */\n      add\n        /* \"#utility.yul\":43320:43346   */\n      swap1\n      pop\n        /* \"#utility.yul\":43392:43401   */\n      dup2\n        /* \"#utility.yul\":43386:43390   */\n      dup2\n        /* \"#utility.yul\":43382:43402   */\n      sub\n        /* \"#utility.yul\":43378:43379   */\n      0x00\n        /* \"#utility.yul\":43367:43376   */\n      dup4\n        /* \"#utility.yul\":43363:43380   */\n      add\n        /* \"#utility.yul\":43356:43403   */\n      mstore\n        /* \"#utility.yul\":43420:43551   */\n      tag_897\n        /* \"#utility.yul\":43546:43550   */\n      dup2\n        /* \"#utility.yul\":43420:43551   */\n      tag_576\n      jump\t// in\n    tag_897:\n        /* \"#utility.yul\":43412:43551   */\n      swap1\n      pop\n        /* \"#utility.yul\":43139:43558   */\n      swap2\n      swap1\n      pop\n      jump\t// out\n        /* \"#utility.yul\":43564:43736   */\n    tag_577:\n        /* \"#utility.yul\":43704:43728   */\n      0x4469737075746520616c72656164792072616973656400000000000000000000\n        /* \"#utility.yul\":43700:43701   */\n      0x00\n        /* \"#utility.yul\":43692:43698   */\n      dup3\n        /* \"#utility.yul\":43688:43702   */\n      add\n        /* \"#utility.yul\":43681:43729   */\n      mstore\n        /* \"#utility.yul\":43564:43736   */\n      pop\n      jump\t// out\n        /* \"#utility.yul\":43742:44108   */\n    tag_578:\n        /* \"#utility.yul\":43884:43887   */\n      0x00\n        /* \"#utility.yul\":43905:43972   */\n      tag_900\n        /* \"#utility.yul\":43969:43971   */\n      0x16\n        /* \"#utility.yul\":43964:43967   */\n      dup4\n        /* \"#utility.yul\":43905:43972   */\n      tag_502\n      jump\t// in\n    tag_900:\n        /* \"#utility.yul\":43898:43972   */\n      swap2\n      pop\n        /* \"#utility.yul\":43981:44074   */\n      tag_901\n        /* \"#utility.yul\":44070:44073   */\n      dup3\n        /* \"#utility.yul\":43981:44074   */\n      tag_577\n      jump\t// in\n    tag_901:\n        /* \"#utility.yul\":44099:44101   */\n      0x20\n        /* \"#utility.yul\":44094:44097   */\n      dup3\n        /* \"#utility.yul\":44090:44102   */\n      add\n        /* \"#utility.yul\":44083:44102   */\n      swap1\n      pop\n        /* \"#utility.yul\":43742:44108   */\n      swap2\n      swap1\n      pop\n      jump\t// out\n        /* \"#utility.yul\":44114:44533   */\n    tag_461:\n        /* \"#utility.yul\":44280:44284   */\n      0x00\n        /* \"#utility.yul\":44318:44320   */\n      0x20\n        /* \"#utility.yul\":44307:44316   */\n      dup3\n        /* \"#utility.yul\":44303:44321   */\n      add\n        /* \"#utility.yul\":44295:44321   */\n      swap1\n      pop\n        /* \"#utility.yul\":44367:44376   */\n      dup2\n        /* \"#utility.yul\":44361:44365   */\n      dup2\n        /* \"#utility.yul\":44357:44377   */\n      sub\n        /* \"#utility.yul\":44353:44354   */\n      0x00\n        /* \"#utility.yul\":44342:44351   */\n      dup4\n        /* \"#utility.yul\":44338:44355   */\n      add\n        /* \"#utility.yul\":44331:44378   */\n      mstore\n        /* \"#utility.yul\":44395:44526   */\n      tag_903\n        /* \"#utility.yul\":44521:44525   */\n      dup2\n        /* \"#utility.yul\":44395:44526   */\n      tag_578\n      jump\t// in\n    tag_903:\n        /* \"#utility.yul\":44387:44526   */\n      swap1\n      pop\n        /* \"#utility.yul\":44114:44533   */\n      swap2\n      swap1\n      pop\n      jump\t// out\n        /* \"#utility.yul\":44539:44777   */\n    tag_579:\n        /* \"#utility.yul\":44679:44713   */\n      0x426f746820657374696d61746573206d75737420626520736574206265666f72\n        /* \"#utility.yul\":44675:44676   */\n      0x00\n        /* \"#utility.yul\":44667:44673   */\n      dup3\n        /* \"#utility.yul\":44663:44677   */\n      add\n        /* \"#utility.yul\":44656:44714   */\n      mstore\n        /* \"#utility.yul\":44748:44769   */\n      0x652072616973696e672061206469737075746500000000000000000000000000\n        /* \"#utility.yul\":44743:44745   */\n      0x20\n        /* \"#utility.yul\":44735:44741   */\n      dup3\n        /* \"#utility.yul\":44731:44746   */\n      add\n        /* \"#utility.yul\":44724:44770   */\n      mstore\n        /* \"#utility.yul\":44539:44777   */\n      pop\n      jump\t// out\n        /* \"#utility.yul\":44783:45149   */\n    tag_580:\n        /* \"#utility.yul\":44925:44928   */\n      0x00\n        /* \"#utility.yul\":44946:45013   */\n      tag_906\n        /* \"#utility.yul\":45010:45012   */\n      0x33\n        /* \"#utility.yul\":45005:45008   */\n      dup4\n        /* \"#utility.yul\":44946:45013   */\n      tag_502\n      jump\t// in\n    tag_906:\n        /* \"#utility.yul\":44939:45013   */\n      swap2\n      pop\n        /* \"#utility.yul\":45022:45115   */\n      tag_907\n        /* \"#utility.yul\":45111:45114   */\n      dup3\n        /* \"#utility.yul\":45022:45115   */\n      tag_579\n      jump\t// in\n    tag_907:\n        /* \"#utility.yul\":45140:45142   */\n      0x40\n        /* \"#utility.yul\":45135:45138   */\n      dup3\n        /* \"#utility.yul\":45131:45143   */\n      add\n        /* \"#utility.yul\":45124:45143   */\n      swap1\n      pop\n        /* \"#utility.yul\":44783:45149   */\n      swap2\n      swap1\n      pop\n      jump\t// out\n        /* \"#utility.yul\":45155:45574   */\n    tag_465:\n        /* \"#utility.yul\":45321:45325   */\n      0x00\n        /* \"#utility.yul\":45359:45361   */\n      0x20\n        /* \"#utility.yul\":45348:45357   */\n      dup3\n        /* \"#utility.yul\":45344:45362   */\n      add\n        /* \"#utility.yul\":45336:45362   */\n      swap1\n      pop\n        /* \"#utility.yul\":45408:45417   */\n      dup2\n        /* \"#utility.yul\":45402:45406   */\n      dup2\n        /* \"#utility.yul\":45398:45418   */\n      sub\n        /* \"#utility.yul\":45394:45395   */\n      0x00\n        /* \"#utility.yul\":45383:45392   */\n      dup4\n        /* \"#utility.yul\":45379:45396   */\n      add\n        /* \"#utility.yul\":45372:45419   */\n      mstore\n        /* \"#utility.yul\":45436:45567   */\n      tag_909\n        /* \"#utility.yul\":45562:45566   */\n      dup2\n        /* \"#utility.yul\":45436:45567   */\n      tag_580\n      jump\t// in\n    tag_909:\n        /* \"#utility.yul\":45428:45567   */\n      swap1\n      pop\n        /* \"#utility.yul\":45155:45574   */\n      swap2\n      swap1\n      pop\n      jump\t// out\n        /* \"#utility.yul\":45580:45665   */\n    tag_581:\n        /* \"#utility.yul\":45625:45632   */\n      0x00\n        /* \"#utility.yul\":45654:45659   */\n      dup2\n        /* \"#utility.yul\":45643:45659   */\n      swap1\n      pop\n        /* \"#utility.yul\":45580:45665   */\n      swap2\n      swap1\n      pop\n      jump\t// out\n        /* \"#utility.yul\":45671:45829   */\n    tag_582:\n        /* \"#utility.yul\":45729:45738   */\n      0x00\n        /* \"#utility.yul\":45762:45823   */\n      tag_912\n        /* \"#utility.yul\":45780:45822   */\n      tag_913\n        /* \"#utility.yul\":45789:45821   */\n      tag_914\n        /* \"#utility.yul\":45815:45820   */\n      dup5\n        /* \"#utility.yul\":45789:45821   */\n      tag_581\n      jump\t// in\n    tag_914:\n        /* \"#utility.yul\":45780:45822   */\n      tag_495\n      jump\t// in\n    tag_913:\n        /* \"#utility.yul\":45762:45823   */\n      tag_485\n      jump\t// in\n    tag_912:\n        /* \"#utility.yul\":45749:45823   */\n      swap1\n      pop\n        /* \"#utility.yul\":45671:45829   */\n      swap2\n      swap1\n      pop\n      jump\t// out\n        /* \"#utility.yul\":45835:45982   */\n    tag_583:\n        /* \"#utility.yul\":45930:45975   */\n      tag_916\n        /* \"#utility.yul\":45969:45974   */\n      dup2\n        /* \"#utility.yul\":45930:45975   */\n      tag_582\n      jump\t// in\n    tag_916:\n        /* \"#utility.yul\":45925:45928   */\n      dup3\n        /* \"#utility.yul\":45918:45976   */\n      mstore\n        /* \"#utility.yul\":45835:45982   */\n      pop\n      pop\n      jump\t// out\n        /* \"#utility.yul\":45988:46531   */\n    tag_467:\n        /* \"#utility.yul\":46189:46193   */\n      0x00\n        /* \"#utility.yul\":46227:46229   */\n      0x40\n        /* \"#utility.yul\":46216:46225   */\n      dup3\n        /* \"#utility.yul\":46212:46230   */\n      add\n        /* \"#utility.yul\":46204:46230   */\n      swap1\n      pop\n        /* \"#utility.yul\":46240:46319   */\n      tag_918\n        /* \"#utility.yul\":46316:46317   */\n      0x00\n        /* \"#utility.yul\":46305:46314   */\n      dup4\n        /* \"#utility.yul\":46301:46318   */\n      add\n        /* \"#utility.yul\":46292:46298   */\n      dup5\n        /* \"#utility.yul\":46240:46319   */\n      tag_583\n      jump\t// in\n    tag_918:\n        /* \"#utility.yul\":46366:46375   */\n      dup2\n        /* \"#utility.yul\":46360:46364   */\n      dup2\n        /* \"#utility.yul\":46356:46376   */\n      sub\n        /* \"#utility.yul\":46351:46353   */\n      0x20\n        /* \"#utility.yul\":46340:46349   */\n      dup4\n        /* \"#utility.yul\":46336:46354   */\n      add\n        /* \"#utility.yul\":46329:46377   */\n      mstore\n        /* \"#utility.yul\":46394:46524   */\n      tag_919\n        /* \"#utility.yul\":46519:46523   */\n      dup2\n        /* \"#utility.yul\":46394:46524   */\n      tag_517\n      jump\t// in\n    tag_919:\n        /* \"#utility.yul\":46386:46524   */\n      swap1\n      pop\n        /* \"#utility.yul\":45988:46531   */\n      swap3\n      swap2\n      pop\n      pop\n      jump\t// out\n\n    auxdata: 0xa2646970667358221220b524e80c6c2c0c834bc36e711b22248d12eaaa4b73a3015b3e617e6fb913e7b564736f6c63430008120033\n}\n",
				"bytecode": {
					"linkReferences": {},
					"object": "60806040523480156200001157600080fd5b50604051620048ba380380620048ba8339818101604052810190620000379190620001c5565b336000806101000a81548173ffffffffffffffffffffffffffffffffffffffff021916908373ffffffffffffffffffffffffffffffffffffffff16021790555081600160006101000a81548173ffffffffffffffffffffffffffffffffffffffff021916908373ffffffffffffffffffffffffffffffffffffffff16021790555080600d60086101000a81548173ffffffffffffffffffffffffffffffffffffffff021916908373ffffffffffffffffffffffffffffffffffffffff1602179055506000600d60006101000a81548160ff0219169083151502179055506000600d60016101000a81548160ff0219169083151502179055506000600d60026101000a81548160ff021916908315150217905550600254600b8190555050506200020c565b600080fd5b600073ffffffffffffffffffffffffffffffffffffffff82169050919050565b60006200018d8262000160565b9050919050565b6200019f8162000180565b8114620001ab57600080fd5b50565b600081519050620001bf8162000194565b92915050565b60008060408385031215620001df57620001de6200015b565b5b6000620001ef85828601620001ae565b92505060206200020285828601620001ae565b9150509250929050565b61469e806200021c6000396000f3fe6080604052600436106102755760003560e01c8063779318e51161014f578063ca088031116100c1578063dd6bcb161161007a578063dd6bcb161461084a578063e1505e4e14610861578063eaa0a302146108a1578063f13702f4146108b8578063f3f43703146108e3578063feeaea4e146109205761027c565b8063ca08803114610772578063cbe615b114610789578063d261c91f146107b4578063d738307c146107df578063dc1997ea14610808578063dcf2559e146108335761027c565b80638fda356d116101135780638fda356d146106bb578063a709c4fe146106d2578063a972500f146106dc578063b0a1e2b4146106f3578063b602ea601461071e578063c2d6d462146107495761027c565b8063779318e5146105e65780637ef987401461061157806381d388ba1461063a578063862a4d471461066557806387eaa342146106905761027c565b806347ed9c65116101e857806365a746e9116101ac57806365a746e9146104e4578063697b05a21461050f5780636f3c590c1461053a5780636f9fb98a1461056557806371357a4614610590578063740906c0146105bb5761027c565b806347ed9c651461040d578063561eefd8146104385780635a0e9bcc146104635780635a9203201461048e57806363022560146104b95761027c565b8063220e5ab31161023a578063220e5ab31461034257806322f3e2d41461036d5780632e88ab0b14610398578063311a6c56146103c35780633ccfd60b146103ec57806342c63dae146104035761027c565b80624422eb1461028157806304a2286a146102ac57806308c59798146102d75780631890fc37146103005780631a576049146103175761027c565b3661027c57005b600080fd5b34801561028d57600080fd5b5061029661094b565b6040516102a39190612edd565b60405180910390f35b3480156102b857600080fd5b506102c161095e565b6040516102ce9190612f11565b60405180910390f35b3480156102e357600080fd5b506102fe60048036038101906102f99190612f5d565b610964565b005b34801561030c57600080fd5b50610315610b3c565b005b34801561032357600080fd5b5061032c610d51565b6040516103399190612f11565b60405180910390f35b34801561034e57600080fd5b50610357610d57565b6040516103649190612f11565b60405180910390f35b34801561037957600080fd5b50610382610d5d565b60405161038f9190612edd565b60405180910390f35b3480156103a457600080fd5b506103ad610d70565b6040516103ba9190612fcb565b60405180910390f35b3480156103cf57600080fd5b506103ea60048036038101906103e59190612fe6565b610d96565b005b3480156103f857600080fd5b50610401611175565b005b61040b61133f565b005b34801561041957600080fd5b506104226114b7565b60405161042f9190612edd565b60405180910390f35b34801561044457600080fd5b5061044d6114ca565b60405161045a9190612f11565b60405180910390f35b34801561046f57600080fd5b506104786114d0565b6040516104859190612edd565b60405180910390f35b34801561049a57600080fd5b506104a36114e3565b6040516104b09190613085565b60405180910390f35b3480156104c557600080fd5b506104ce611509565b6040516104db9190612f11565b60405180910390f35b3480156104f057600080fd5b506104f96115aa565b6040516105069190612edd565b60405180910390f35b34801561051b57600080fd5b506105246115bd565b6040516105319190612f11565b60405180910390f35b34801561054657600080fd5b5061054f6115c3565b60405161055c9190612f11565b60405180910390f35b34801561057157600080fd5b5061057a6115c9565b6040516105879190612f11565b60405180910390f35b34801561059c57600080fd5b506105a56115d1565b6040516105b29190612edd565b60405180910390f35b3480156105c757600080fd5b506105d06115e4565b6040516105dd9190612f11565b60405180910390f35b3480156105f257600080fd5b506105fb61164d565b6040516106089190612f11565b60405180910390f35b34801561061d57600080fd5b5061063860048036038101906106339190612f5d565b611657565b005b34801561064657600080fd5b5061064f6117f5565b60405161065c9190612f11565b60405180910390f35b34801561067157600080fd5b5061067a6117fb565b6040516106879190612f11565b60405180910390f35b34801561069c57600080fd5b506106a5611801565b6040516106b29190612f11565b60405180910390f35b3480156106c757600080fd5b506106d0611807565b005b6106da611960565b005b3480156106e857600080fd5b506106f1611d2c565b005b3480156106ff57600080fd5b50610708611e59565b6040516107159190612f11565b60405180910390f35b34801561072a57600080fd5b50610733611e5f565b6040516107409190612edd565b60405180910390f35b34801561075557600080fd5b50610770600480360381019061076b9190612f5d565b611e72565b005b34801561077e57600080fd5b50610787611fad565b005b34801561079557600080fd5b5061079e612226565b6040516107ab9190612edd565b60405180910390f35b3480156107c057600080fd5b506107c961223d565b6040516107d69190612f11565b60405180910390f35b3480156107eb57600080fd5b50610806600480360381019061080191906130a0565b612243565b005b34801561081457600080fd5b5061081d612376565b60405161082a9190612fcb565b60405180910390f35b34801561083f57600080fd5b5061084861239a565b005b34801561085657600080fd5b5061085f6124a7565b005b34801561086d57600080fd5b5061088860048036038101906108839190612f5d565b6127a6565b60405161089894939291906130f3565b60405180910390f35b3480156108ad57600080fd5b506108b66127e3565b005b3480156108c457600080fd5b506108cd612b0c565b6040516108da9190612edd565b60405180910390f35b3480156108ef57600080fd5b5061090a60048036038101906109059190613164565b612b1f565b6040516109179190612f11565b60405180910390f35b34801561092c57600080fd5b50610935612b37565b6040516109429190612f11565b60405180910390f35b600d60029054906101000a900460ff1681565b60035481565b60008054906101000a900473ffffffffffffffffffffffffffffffffffffffff1673ffffffffffffffffffffffffffffffffffffffff163373ffffffffffffffffffffffffffffffffffffffff16146109f2576040517f08c379a00000000000000000000000000000000000000000000000000000000081526004016109e990613214565b60405180910390fd5b600d60059054906101000a900460ff16610a41576040517f08c379a0000000000000000000000000000000000000000000000000000000008152600401610a3890613280565b60405180910390fd5b600d60069054906101000a900460ff1615610a91576040517f08c379a0000000000000000000000000000000000000000000000000000000008152600401610a88906132ec565b60405180910390fd5b600d60009054906101000a900460ff16610ae0576040517f08c379a0000000000000000000000000000000000000000000000000000000008152600401610ad790613358565b60405180910390fd5b806008819055506001600d60066101000a81548160ff0219169083151502179055507f192101de3933394fedeb636ffadd15c20b3e23e4913ab4051c171a26c90a345981604051610b319190612f11565b60405180910390a150565b60008054906101000a900473ffffffffffffffffffffffffffffffffffffffff1673ffffffffffffffffffffffffffffffffffffffff163373ffffffffffffffffffffffffffffffffffffffff1614610bca576040517f08c379a0000000000000000000000000000000000000000000000000000000008152600401610bc1906133ea565b60405180910390fd5b600d60079054906101000a900460ff16610c19576040517f08c379a0000000000000000000000000000000000000000000000000000000008152600401610c109061347c565b60405180910390fd5b600d60089054906101000a900473ffffffffffffffffffffffffffffffffffffffff1673ffffffffffffffffffffffffffffffffffffffff1663f7434ea96040518163ffffffff1660e01b8152600401610c72906134d3565b602060405180830381865afa158015610c8f573d6000803e3d6000fd5b505050506040513d601f19601f82011682018060405250810190610cb39190613508565b600c81905550600c54600b541015610d00576040517f08c379a0000000000000000000000000000000000000000000000000000000008152600401610cf7906135a7565b60405180910390fd5b600c54600b6000828254610d1491906135f6565b92505081905550610d23612b9f565b7fa7d8a4744bc13e083818434dde26551ea9b29c6425677ebc90cd5dd09ce6b5c760405160405180910390a1565b60085481565b60025481565b600d60009054906101000a900460ff1681565b600160009054906101000a900473ffffffffffffffffffffffffffffffffffffffff1681565b600d60089054906101000a900473ffffffffffffffffffffffffffffffffffffffff1673ffffffffffffffffffffffffffffffffffffffff163373ffffffffffffffffffffffffffffffffffffffff1614610e26576040517f08c379a0000000000000000000000000000000000000000000000000000000008152600401610e1d90613676565b60405180910390fd5b600d60029054906101000a900460ff16610e75576040517f08c379a0000000000000000000000000000000000000000000000000000000008152600401610e6c906136e2565b60405180910390fd5b600a548214610eb9576040517f08c379a0000000000000000000000000000000000000000000000000000000008152600401610eb09061374e565b60405180910390fd5b600060018203610ee157600b5460085410610ed657600b54610eda565b6008545b9050610f1a565b60028203610f0757600b5460095410610efc57600b54610f00565b6009545b9050610f19565b6002600b54610f16919061379d565b90505b5b80600f60008060009054906101000a900473ffffffffffffffffffffffffffffffffffffffff1673ffffffffffffffffffffffffffffffffffffffff1673ffffffffffffffffffffffffffffffffffffffff1681526020019081526020016000206000828254610f8a91906137ce565b9250508190555080600b54610f9f91906135f6565b600f6000600160009054906101000a900473ffffffffffffffffffffffffffffffffffffffff1673ffffffffffffffffffffffffffffffffffffffff1673ffffffffffffffffffffffffffffffffffffffff168152602001908152602001600020600082825461100f91906137ce565b9250508190555060008054906101000a900473ffffffffffffffffffffffffffffffffffffffff1673ffffffffffffffffffffffffffffffffffffffff167fe670e4e82118d22a1f9ee18920455ebc958bae26a90a05d31d3378788b1b0e448260405161107c9190612f11565b60405180910390a2600160009054906101000a900473ffffffffffffffffffffffffffffffffffffffff1673ffffffffffffffffffffffffffffffffffffffff167fe670e4e82118d22a1f9ee18920455ebc958bae26a90a05d31d3378788b1b0e4482600b546110ec91906135f6565b6040516110f99190612f11565b60405180910390a26000600d60026101000a81548160ff0219169083151502179055506000600d60006101000a81548160ff0219169083151502179055507fb4121f1f91a696a3fc75f6d151f3c9865abffa0738bda595e71c381c02af2faa8383604051611168929190613802565b60405180910390a1505050565b6000600f60003373ffffffffffffffffffffffffffffffffffffffff1673ffffffffffffffffffffffffffffffffffffffff168152602001908152602001600020549050600081116111fc576040517f08c379a00000000000000000000000000000000000000000000000000000000081526004016111f390613877565b60405180910390fd5b6000600f60003373ffffffffffffffffffffffffffffffffffffffff1673ffffffffffffffffffffffffffffffffffffffff1681526020019081526020016000208190555060003373ffffffffffffffffffffffffffffffffffffffff1682604051611267906138c5565b60006040518083038185875af1925050503d80600081146112a4576040519150601f19603f3d011682016040523d82523d6000602084013e6112a9565b606091505b50509050806112ed576040517f08c379a00000000000000000000000000000000000000000000000000000000081526004016112e490613926565b60405180910390fd5b3373ffffffffffffffffffffffffffffffffffffffff167f8c9a4f13b67cb64d7c6aa1ae0c9bf07694af521a28b93e7060020810ab4bc59f836040516113339190612f11565b60405180910390a25050565b600160009054906101000a900473ffffffffffffffffffffffffffffffffffffffff1673ffffffffffffffffffffffffffffffffffffffff163373ffffffffffffffffffffffffffffffffffffffff16146113cf576040517f08c379a00000000000000000000000000000000000000000000000000000000081526004016113c6906139b8565b60405180910390fd5b600d60009054906101000a900460ff161561141f576040517f08c379a000000000000000000000000000000000000000000000000000000000815260040161141690613a24565b60405180910390fd5b6002543414611463576040517f08c379a000000000000000000000000000000000000000000000000000000000815260040161145a90613ab6565b60405180910390fd5b6001600d60016101000a81548160ff0219169083151502179055507f486ac935cf1ea9effd9e0a261bc42917b45f2fd45cc98def2bc34d47f216937c346040516114ad9190612f11565b60405180910390a1565b600d60079054906101000a900460ff1681565b60055481565b600d60059054906101000a900460ff1681565b600d60089054906101000a900473ffffffffffffffffffffffffffffffffffffffff1681565b6000600d60089054906101000a900473ffffffffffffffffffffffffffffffffffffffff1673ffffffffffffffffffffffffffffffffffffffff1663f7434ea96040518163ffffffff1660e01b8152600401611564906134d3565b602060405180830381865afa158015611581573d6000803e3d6000fd5b505050506040513d601f19601f820116820180604052508101906115a59190613508565b905090565b600d60049054906101000a900460ff1681565b600c5481565b60075481565b600047905090565b600d60069054906101000a900460ff1681565b6000600f6000600160009054906101000a900473ffffffffffffffffffffffffffffffffffffffff1673ffffffffffffffffffffffffffffffffffffffff1673ffffffffffffffffffffffffffffffffffffffff16815260200190815260200160002054905090565b6000600b54905090565b60008054906101000a900473ffffffffffffffffffffffffffffffffffffffff1673ffffffffffffffffffffffffffffffffffffffff163373ffffffffffffffffffffffffffffffffffffffff16146116e5576040517f08c379a00000000000000000000000000000000000000000000000000000000081526004016116dc90613b48565b60405180910390fd5b600d60009054906101000a900460ff16611734576040517f08c379a000000000000000000000000000000000000000000000000000000000815260040161172b90613358565b60405180910390fd5b600454600654111561177b576040517f08c379a000000000000000000000000000000000000000000000000000000000815260040161177290613bb4565b60405180910390fd5b80600e6000600654815260200190815260200160002060010181905550600354600e60006006548152602001908152602001600020600001819055507ff75d23e75691b7209bf24071476b3702a8412a369b26fd3ad012d19630f65a2b600654826040516117ea929190613802565b60405180910390a150565b60095481565b60065481565b60045481565b60008054906101000a900473ffffffffffffffffffffffffffffffffffffffff1673ffffffffffffffffffffffffffffffffffffffff163373ffffffffffffffffffffffffffffffffffffffff1614611895576040517f08c379a000000000000000000000000000000000000000000000000000000000815260040161188c90613c46565b60405180910390fd5b600d60019054906101000a900460ff166118e4576040517f08c379a00000000000000000000000000000000000000000000000000000000081526004016118db90613cd8565b60405180910390fd5b600d60009054906101000a900460ff1615611934576040517f08c379a000000000000000000000000000000000000000000000000000000000815260040161192b90613a24565b60405180910390fd5b6001600d60006101000a81548160ff021916908315150217905550426005819055506001600681905550565b600160009054906101000a900473ffffffffffffffffffffffffffffffffffffffff1673ffffffffffffffffffffffffffffffffffffffff163373ffffffffffffffffffffffffffffffffffffffff16146119f0576040517f08c379a00000000000000000000000000000000000000000000000000000000081526004016119e790613d44565b60405180910390fd5b600d60009054906101000a900460ff16611a3f576040517f08c379a0000000000000000000000000000000000000000000000000000000008152600401611a3690613358565b60405180910390fd5b6004546006541115611a86576040517f08c379a0000000000000000000000000000000000000000000000000000000008152600401611a7d90613bb4565b60405180910390fd5b6000600e6000600654815260200190815260200160002090508060030160009054906101000a900460ff1615611af1576040517f08c379a0000000000000000000000000000000000000000000000000000000008152600401611ae890613dd6565b60405180910390fd5b6000816001015411611b38576040517f08c379a0000000000000000000000000000000000000000000000000000000008152600401611b2f90613e68565b60405180910390fd5b600060075482600101548360000154611b5191906137ce565b611b5b91906137ce565b9050803414611b9f576040517f08c379a0000000000000000000000000000000000000000000000000000000008152600401611b9690613ed4565b60405180910390fd5b60018260030160006101000a81548160ff02191690831515021790555060006007819055507fa0d112ed080c1b1a94b838ad981a23746be2a4670fd4bf157224e72cdd5dfdde60065482604051611bf7929190613802565b60405180910390a180600f60008060009054906101000a900473ffffffffffffffffffffffffffffffffffffffff1673ffffffffffffffffffffffffffffffffffffffff1673ffffffffffffffffffffffffffffffffffffffff1681526020019081526020016000206000828254611c6f91906137ce565b9250508190555060008054906101000a900473ffffffffffffffffffffffffffffffffffffffff1673ffffffffffffffffffffffffffffffffffffffff167fe670e4e82118d22a1f9ee18920455ebc958bae26a90a05d31d3378788b1b0e4482604051611cdc9190612f11565b60405180910390a260045460065403611d0f576001600d60056101000a81548160ff021916908315150217905550611d28565b60066000815480929190611d2290613ef4565b91905055505b5050565b60008054906101000a900473ffffffffffffffffffffffffffffffffffffffff1673ffffffffffffffffffffffffffffffffffffffff163373ffffffffffffffffffffffffffffffffffffffff1614611dba576040517f08c379a0000000000000000000000000000000000000000000000000000000008152600401611db190613fae565b60405180910390fd5b600d60009054906101000a900460ff16611e09576040517f08c379a0000000000000000000000000000000000000000000000000000000008152600401611e009061401a565b60405180910390fd5b6000600b5414611e4e576040517f08c379a0000000000000000000000000000000000000000000000000000000008152600401611e45906140ac565b60405180910390fd5b600254600b81905550565b600a5481565b600d60039054906101000a900460ff1681565b600160009054906101000a900473ffffffffffffffffffffffffffffffffffffffff1673ffffffffffffffffffffffffffffffffffffffff163373ffffffffffffffffffffffffffffffffffffffff1614611f02576040517f08c379a0000000000000000000000000000000000000000000000000000000008152600401611ef99061413e565b60405180910390fd5b600d60069054906101000a900460ff16611f51576040517f08c379a0000000000000000000000000000000000000000000000000000000008152600401611f48906141d0565b60405180910390fd5b806009819055506001600d60076101000a81548160ff0219169083151502179055507f0f2792b28c50f2f7eece39e74a2b4f0f1ce15a79acb72dd811686e827aed030b81604051611fa29190612f11565b60405180910390a150565b600160009054906101000a900473ffffffffffffffffffffffffffffffffffffffff1673ffffffffffffffffffffffffffffffffffffffff163373ffffffffffffffffffffffffffffffffffffffff161461203d576040517f08c379a000000000000000000000000000000000000000000000000000000000815260040161203490614262565b60405180910390fd5b600d60009054906101000a900460ff1661208c576040517f08c379a000000000000000000000000000000000000000000000000000000000815260040161208390613358565b60405180910390fd5b60045460065411156120d3576040517f08c379a00000000000000000000000000000000000000000000000000000000081526004016120ca90613bb4565b60405180910390fd5b6000600e6000600654815260200190815260200160002090508060030160009054906101000a900460ff161561213e576040517f08c379a000000000000000000000000000000000000000000000000000000000815260040161213590613dd6565b60405180910390fd5b6000816001015411612185576040517f08c379a000000000000000000000000000000000000000000000000000000000815260040161217c90613e68565b60405180910390fd5b60008160010154826000015461219b91906137ce565b905080600760008282546121af91906137ce565b925050819055507f9ea3a4b65940d7b9dbf8bb1c459ba8e81222d1a596e93fbc364365a6d78e27d6600654826040516121e9929190613802565b60405180910390a16004546006540361220957612204612d54565b612222565b6006600081548092919061221c90613ef4565b91905055505b5050565b6000600d60059054906101000a900460ff16905090565b600b5481565b60008054906101000a900473ffffffffffffffffffffffffffffffffffffffff1673ffffffffffffffffffffffffffffffffffffffff163373ffffffffffffffffffffffffffffffffffffffff16146122d1576040517f08c379a00000000000000000000000000000000000000000000000000000000081526004016122c8906142f4565b60405180910390fd5b600d60009054906101000a900460ff1615612321576040517f08c379a000000000000000000000000000000000000000000000000000000000815260040161231890613a24565b60405180910390fd5b8260028190555081600381905550806004819055507f2f47566d4872826a9750e05ae448ad21f2a677c332d36d6437b697a7f8dd1e1483838360405161236993929190614314565b60405180910390a1505050565b60008054906101000a900473ffffffffffffffffffffffffffffffffffffffff1681565b600160009054906101000a900473ffffffffffffffffffffffffffffffffffffffff1673ffffffffffffffffffffffffffffffffffffffff163373ffffffffffffffffffffffffffffffffffffffff161461242a576040517f08c379a0000000000000000000000000000000000000000000000000000000008152600401612421906143bd565b60405180910390fd5b600d60069054906101000a900460ff16612479576040517f08c379a0000000000000000000000000000000000000000000000000000000008152600401612470906141d0565b60405180910390fd5b7f214f96452fc3fdfd5eeafda7f5df5b6066f4f8ac1295fb53cd051491b9b56da360405160405180910390a1565b600160009054906101000a900473ffffffffffffffffffffffffffffffffffffffff1673ffffffffffffffffffffffffffffffffffffffff163373ffffffffffffffffffffffffffffffffffffffff1614612537576040517f08c379a000000000000000000000000000000000000000000000000000000000815260040161252e9061444f565b60405180910390fd5b600d60069054906101000a900460ff16612586576040517f08c379a000000000000000000000000000000000000000000000000000000000815260040161257d906141d0565b60405180910390fd5b60006002546008541061259b5760025461259f565b6008545b905080600f60008060009054906101000a900473ffffffffffffffffffffffffffffffffffffffff1673ffffffffffffffffffffffffffffffffffffffff1673ffffffffffffffffffffffffffffffffffffffff168152602001908152602001600020600082825461261191906137ce565b925050819055508060025461262691906135f6565b600f6000600160009054906101000a900473ffffffffffffffffffffffffffffffffffffffff1673ffffffffffffffffffffffffffffffffffffffff1673ffffffffffffffffffffffffffffffffffffffff168152602001908152602001600020600082825461269691906137ce565b9250508190555060008054906101000a900473ffffffffffffffffffffffffffffffffffffffff1673ffffffffffffffffffffffffffffffffffffffff167fe670e4e82118d22a1f9ee18920455ebc958bae26a90a05d31d3378788b1b0e44826040516127039190612f11565b60405180910390a2600160009054906101000a900473ffffffffffffffffffffffffffffffffffffffff1673ffffffffffffffffffffffffffffffffffffffff167fe670e4e82118d22a1f9ee18920455ebc958bae26a90a05d31d3378788b1b0e448260025461277391906135f6565b6040516127809190612f11565b60405180910390a26000600d60006101000a81548160ff02191690831515021790555050565b600e6020528060005260406000206000915090508060000154908060010154908060020154908060030160009054906101000a900460ff16905084565b60008054906101000a900473ffffffffffffffffffffffffffffffffffffffff1673ffffffffffffffffffffffffffffffffffffffff163373ffffffffffffffffffffffffffffffffffffffff1614612871576040517f08c379a0000000000000000000000000000000000000000000000000000000008152600401612868906144e1565b60405180910390fd5b600d60079054906101000a900460ff166128c0576040517f08c379a00000000000000000000000000000000000000000000000000000000081526004016128b79061347c565b60405180910390fd5b6000600254600954106128d5576002546128d9565b6009545b905080600f60008060009054906101000a900473ffffffffffffffffffffffffffffffffffffffff1673ffffffffffffffffffffffffffffffffffffffff1673ffffffffffffffffffffffffffffffffffffffff168152602001908152602001600020600082825461294b91906137ce565b925050819055508060025461296091906135f6565b600f6000600160009054906101000a900473ffffffffffffffffffffffffffffffffffffffff1673ffffffffffffffffffffffffffffffffffffffff1673ffffffffffffffffffffffffffffffffffffffff16815260200190815260200160002060008282546129d091906137ce565b9250508190555060008054906101000a900473ffffffffffffffffffffffffffffffffffffffff1673ffffffffffffffffffffffffffffffffffffffff167fe670e4e82118d22a1f9ee18920455ebc958bae26a90a05d31d3378788b1b0e4482604051612a3d9190612f11565b60405180910390a2600160009054906101000a900473ffffffffffffffffffffffffffffffffffffffff1673ffffffffffffffffffffffffffffffffffffffff167fe670e4e82118d22a1f9ee18920455ebc958bae26a90a05d31d3378788b1b0e4482600254612aad91906135f6565b604051612aba9190612f11565b60405180910390a26000600d60006101000a81548160ff0219169083151502179055507fb48ea00bbdfbf40407eead0ea969ce425a746b5692554310f811ee7d0e36f38560405160405180910390a150565b600d60019054906101000a900460ff1681565b600f6020528060005260406000206000915090505481565b6000600f60008060009054906101000a900473ffffffffffffffffffffffffffffffffffffffff1673ffffffffffffffffffffffffffffffffffffffff1673ffffffffffffffffffffffffffffffffffffffff16815260200190815260200160002054905090565b600d60029054906101000a900460ff1615612bef576040517f08c379a0000000000000000000000000000000000000000000000000000000008152600401612be69061454d565b60405180910390fd5b600d60069054906101000a900460ff168015612c175750600d60079054906101000a900460ff165b612c56576040517f08c379a0000000000000000000000000000000000000000000000000000000008152600401612c4d906145df565b60405180910390fd5b600d60089054906101000a900473ffffffffffffffffffffffffffffffffffffffff1673ffffffffffffffffffffffffffffffffffffffff1663c13517e1600c5460026040518363ffffffff1660e01b8152600401612cb5919061463a565b60206040518083038185885af1158015612cd3573d6000803e3d6000fd5b50505050506040513d601f19601f82011682018060405250810190612cf89190613508565b600a819055506001600d60026101000a81548160ff0219169083151502179055507f04901f83201c8724eadf084436db8aa391820bae6d11f9f78a17edb6f2eef3cf600a54604051612d4a9190612f11565b60405180910390a1565b6000600d60006101000a81548160ff02191690831515021790555060006007549050600080821115612e0c57600254821115612d905760025491505b60008054906101000a900473ffffffffffffffffffffffffffffffffffffffff1673ffffffffffffffffffffffffffffffffffffffff166108fc839081150290604051600060405180830381858888f19350505050158015612df6573d6000803e3d6000fd5b5081600254612e0591906135f6565b9050612e12565b60025490505b6000811115612e8557600160009054906101000a900473ffffffffffffffffffffffffffffffffffffffff1673ffffffffffffffffffffffffffffffffffffffff166108fc829081150290604051600060405180830381858888f19350505050158015612e83573d6000803e3d6000fd5b505b7fc0590c5a8ce79dffbdde17480a06203778f954965615e1d9577dbc90da2ff1098183604051612eb6929190613802565b60405180910390a15050565b60008115159050919050565b612ed781612ec2565b82525050565b6000602082019050612ef26000830184612ece565b92915050565b6000819050919050565b612f0b81612ef8565b82525050565b6000602082019050612f266000830184612f02565b92915050565b600080fd5b612f3a81612ef8565b8114612f4557600080fd5b50565b600081359050612f5781612f31565b92915050565b600060208284031215612f7357612f72612f2c565b5b6000612f8184828501612f48565b91505092915050565b600073ffffffffffffffffffffffffffffffffffffffff82169050919050565b6000612fb582612f8a565b9050919050565b612fc581612faa565b82525050565b6000602082019050612fe06000830184612fbc565b92915050565b60008060408385031215612ffd57612ffc612f2c565b5b600061300b85828601612f48565b925050602061301c85828601612f48565b9150509250929050565b6000819050919050565b600061304b61304661304184612f8a565b613026565b612f8a565b9050919050565b600061305d82613030565b9050919050565b600061306f82613052565b9050919050565b61307f81613064565b82525050565b600060208201905061309a6000830184613076565b92915050565b6000806000606084860312156130b9576130b8612f2c565b5b60006130c786828701612f48565b93505060206130d886828701612f48565b92505060406130e986828701612f48565b9150509250925092565b60006080820190506131086000830187612f02565b6131156020830186612f02565b6131226040830185612f02565b61312f6060830184612ece565b95945050505050565b61314181612faa565b811461314c57600080fd5b50565b60008135905061315e81613138565b92915050565b60006020828403121561317a57613179612f2c565b5b60006131888482850161314f565b91505092915050565b600082825260208201905092915050565b7f4f6e6c79206c616e646c6f72642063616e20736574207468652064616d61676560008201527f20657374696d6174650000000000000000000000000000000000000000000000602082015250565b60006131fe602983613191565b9150613209826131a2565b604082019050919050565b6000602082019050818103600083015261322d816131f1565b9050919050565b7f52656e7420706572696f6420686173206e6f7420656e64656420796574000000600082015250565b600061326a601d83613191565b915061327582613234565b602082019050919050565b600060208201905081810360008301526132998161325d565b9050919050565b7f44616d61676520657374696d61746520616c7265616479207365740000000000600082015250565b60006132d6601b83613191565b91506132e1826132a0565b602082019050919050565b60006020820190508181036000830152613305816132c9565b9050919050565b7f436f6e7472616374206973206e6f742061637469766500000000000000000000600082015250565b6000613342601683613191565b915061334d8261330c565b602082019050919050565b6000602082019050818103600083015261337181613335565b9050919050565b7f4f6e6c79206c616e646c6f72642063616e2072656a6563742074686520636f7560008201527f6e74657220657374696d61746500000000000000000000000000000000000000602082015250565b60006133d4602d83613191565b91506133df82613378565b604082019050919050565b60006020820190508181036000830152613403816133c7565b9050919050565b7f52656e746572206d7573742073657420636f756e74657220657374696d61746560008201527f2066697273740000000000000000000000000000000000000000000000000000602082015250565b6000613466602683613191565b91506134718261340a565b604082019050919050565b6000602082019050818103600083015261349581613459565b9050919050565b600082825260208201905092915050565b50565b60006134bd60008361349c565b91506134c8826134ad565b600082019050919050565b600060208201905081810360008301526134ec816134b0565b9050919050565b60008151905061350281612f31565b92915050565b60006020828403121561351e5761351d612f2c565b5b600061352c848285016134f3565b91505092915050565b7f5365637572697479206465706f73697420696e73756666696369656e7420746f60008201527f20636f766572206172626974726174696f6e20636f7374730000000000000000602082015250565b6000613591603883613191565b915061359c82613535565b604082019050919050565b600060208201905081810360008301526135c081613584565b9050919050565b7f4e487b7100000000000000000000000000000000000000000000000000000000600052601160045260246000fd5b600061360182612ef8565b915061360c83612ef8565b9250828203905081811115613624576136236135c7565b5b92915050565b7f4f6e6c79207468652061726269747261746f722063616e2072756c6500000000600082015250565b6000613660601c83613191565b915061366b8261362a565b602082019050919050565b6000602082019050818103600083015261368f81613653565b9050919050565b7f4e6f206469737075746520746f2072756c65206f6e0000000000000000000000600082015250565b60006136cc601583613191565b91506136d782613696565b602082019050919050565b600060208201905081810360008301526136fb816136bf565b9050919050565b7f57726f6e67206469737075746520494400000000000000000000000000000000600082015250565b6000613738601083613191565b915061374382613702565b602082019050919050565b600060208201905081810360008301526137678161372b565b9050919050565b7f4e487b7100000000000000000000000000000000000000000000000000000000600052601260045260246000fd5b60006137a882612ef8565b91506137b383612ef8565b9250826137c3576137c261376e565b5b828204905092915050565b60006137d982612ef8565b91506137e483612ef8565b92508282019050808211156137fc576137fb6135c7565b5b92915050565b60006040820190506138176000830185612f02565b6138246020830184612f02565b9392505050565b7f4e6f2066756e647320746f207769746864726177000000000000000000000000600082015250565b6000613861601483613191565b915061386c8261382b565b602082019050919050565b6000602082019050818103600083015261389081613854565b9050919050565b600081905092915050565b60006138af600083613897565b91506138ba826134ad565b600082019050919050565b60006138d0826138a2565b9150819050919050565b7f5472616e73666572206661696c65640000000000000000000000000000000000600082015250565b6000613910600f83613191565b915061391b826138da565b602082019050919050565b6000602082019050818103600083015261393f81613903565b9050919050565b7f4f6e6c792072656e7465722063616e207061792073656375726974792064657060008201527f6f73697400000000000000000000000000000000000000000000000000000000602082015250565b60006139a2602483613191565b91506139ad82613946565b604082019050919050565b600060208201905081810360008301526139d181613995565b9050919050565b7f436f6e747261637420697320616c726561647920616374697665000000000000600082015250565b6000613a0e601a83613191565b9150613a19826139d8565b602082019050919050565b60006020820190508181036000830152613a3d81613a01565b9050919050565b7f496e636f7272656374207365637572697479206465706f73697420616d6f756e60008201527f7400000000000000000000000000000000000000000000000000000000000000602082015250565b6000613aa0602183613191565b9150613aab82613a44565b604082019050919050565b60006020820190508181036000830152613acf81613a93565b9050919050565b7f4f6e6c79206c616e646c6f72642063616e207265636f7264207574696c69746960008201527f6573000000000000000000000000000000000000000000000000000000000000602082015250565b6000613b32602283613191565b9150613b3d82613ad6565b604082019050919050565b60006020820190508181036000830152613b6181613b25565b9050919050565b7f52656e7420706572696f642068617320656e6465640000000000000000000000600082015250565b6000613b9e601583613191565b9150613ba982613b68565b602082019050919050565b60006020820190508181036000830152613bcd81613b91565b9050919050565b7f4f6e6c79206c616e646c6f72642063616e20616374697661746520746865206360008201527f6f6e747261637400000000000000000000000000000000000000000000000000602082015250565b6000613c30602783613191565b9150613c3b82613bd4565b604082019050919050565b60006020820190508181036000830152613c5f81613c23565b9050919050565b7f5365637572697479206465706f736974206d757374206265207061696420666960008201527f7273740000000000000000000000000000000000000000000000000000000000602082015250565b6000613cc2602383613191565b9150613ccd82613c66565b604082019050919050565b60006020820190508181036000830152613cf181613cb5565b9050919050565b7f4f6e6c792072656e7465722063616e207061792072656e740000000000000000600082015250565b6000613d2e601883613191565b9150613d3982613cf8565b602082019050919050565b60006020820190508181036000830152613d5d81613d21565b9050919050565b7f52656e7420666f722074686973206d6f6e74682068617320616c72656164792060008201527f6265656e20706169640000000000000000000000000000000000000000000000602082015250565b6000613dc0602983613191565b9150613dcb82613d64565b604082019050919050565b60006020820190508181036000830152613def81613db3565b9050919050565b7f5574696c697469657320666f722074686973206d6f6e74682068617665206e6f60008201527f74206265656e207265636f726465640000000000000000000000000000000000602082015250565b6000613e52602f83613191565b9150613e5d82613df6565b604082019050919050565b60006020820190508181036000830152613e8181613e45565b9050919050565b7f496e636f72726563742072656e7420616d6f756e740000000000000000000000600082015250565b6000613ebe601583613191565b9150613ec982613e88565b602082019050919050565b60006020820190508181036000830152613eed81613eb1565b9050919050565b6000613eff82612ef8565b91507fffffffffffffffffffffffffffffffffffffffffffffffffffffffffffffffff8203613f3157613f306135c7565b5b600182019050919050565b7f4f6e6c79206c616e646c6f72642063616e20696e697469616c697a652063757260008201527f72656e74207365637572697479206465706f7369740000000000000000000000602082015250565b6000613f98603583613191565b9150613fa382613f3c565b604082019050919050565b60006020820190508181036000830152613fc781613f8b565b9050919050565b7f436f6e7472616374206d75737420626520616374697665000000000000000000600082015250565b6000614004601783613191565b915061400f82613fce565b602082019050919050565b6000602082019050818103600083015261403381613ff7565b9050919050565b7f43757272656e74207365637572697479206465706f73697420616c726561647960008201527f20696e697469616c697a65640000000000000000000000000000000000000000602082015250565b6000614096602c83613191565b91506140a18261403a565b604082019050919050565b600060208201905081810360008301526140c581614089565b9050919050565b7f4f6e6c792072656e7465722063616e207365742074686520636f756e7465722060008201527f657374696d617465000000000000000000000000000000000000000000000000602082015250565b6000614128602883613191565b9150614133826140cc565b604082019050919050565b600060208201905081810360008301526141578161411b565b9050919050565b7f4c616e646c6f7264206d757374207365742064616d61676520657374696d617460008201527f6520666972737400000000000000000000000000000000000000000000000000602082015250565b60006141ba602783613191565b91506141c58261415e565b604082019050919050565b600060208201905081810360008301526141e9816141ad565b9050919050565b7f4f6e6c792072656e7465722063616e20736b69702072656e74207061796d656e60008201527f7400000000000000000000000000000000000000000000000000000000000000602082015250565b600061424c602183613191565b9150614257826141f0565b604082019050919050565b6000602082019050818103600083015261427b8161423f565b9050919050565b7f4f6e6c79206c616e646c6f72642063616e207365742061677265656d656e742060008201527f7465726d73000000000000000000000000000000000000000000000000000000602082015250565b60006142de602583613191565b91506142e982614282565b604082019050919050565b6000602082019050818103600083015261430d816142d1565b9050919050565b60006060820190506143296000830186612f02565b6143366020830185612f02565b6143436040830184612f02565b949350505050565b7f4f6e6c792072656e7465722063616e2072656a6563742074686520657374696d60008201527f6174650000000000000000000000000000000000000000000000000000000000602082015250565b60006143a7602383613191565b91506143b28261434b565b604082019050919050565b600060208201905081810360008301526143d68161439a565b9050919050565b7f4f6e6c792072656e7465722063616e206163636570742074686520657374696d60008201527f6174650000000000000000000000000000000000000000000000000000000000602082015250565b6000614439602383613191565b9150614444826143dd565b604082019050919050565b600060208201905081810360008301526144688161442c565b9050919050565b7f4f6e6c79206c616e646c6f72642063616e206163636570742074686520636f7560008201527f6e74657220657374696d61746500000000000000000000000000000000000000602082015250565b60006144cb602d83613191565b91506144d68261446f565b604082019050919050565b600060208201905081810360008301526144fa816144be565b9050919050565b7f4469737075746520616c72656164792072616973656400000000000000000000600082015250565b6000614537601683613191565b915061454282614501565b602082019050919050565b600060208201905081810360008301526145668161452a565b9050919050565b7f426f746820657374696d61746573206d75737420626520736574206265666f7260008201527f652072616973696e672061206469737075746500000000000000000000000000602082015250565b60006145c9603383613191565b91506145d48261456d565b604082019050919050565b600060208201905081810360008301526145f8816145bc565b9050919050565b6000819050919050565b600061462461461f61461a846145ff565b613026565b612ef8565b9050919050565b61463481614609565b82525050565b600060408201905061464f600083018461462b565b8181036020830152614660816134b0565b90509291505056fea2646970667358221220b524e80c6c2c0c834bc36e711b22248d12eaaa4b73a3015b3e617e6fb913e7b564736f6c63430008120033",
					"opcodes": "PUSH1 0x80 PUSH1 0x40 MSTORE CALLVALUE DUP1 ISZERO PUSH3 0x11 JUMPI PUSH1 0x0 DUP1 REVERT JUMPDEST POP PUSH1 0x40 MLOAD PUSH3 0x48BA CODESIZE SUB DUP1 PUSH3 0x48BA DUP4 CODECOPY DUP2 DUP2 ADD PUSH1 0x40 MSTORE DUP2 ADD SWAP1 PUSH3 0x37 SWAP2 SWAP1 PUSH3 0x1C5 JUMP JUMPDEST CALLER PUSH1 0x0 DUP1 PUSH2 0x100 EXP DUP2 SLOAD DUP2 PUSH20 0xFFFFFFFFFFFFFFFFFFFFFFFFFFFFFFFFFFFFFFFF MUL NOT AND SWAP1 DUP4 PUSH20 0xFFFFFFFFFFFFFFFFFFFFFFFFFFFFFFFFFFFFFFFF AND MUL OR SWAP1 SSTORE POP DUP2 PUSH1 0x1 PUSH1 0x0 PUSH2 0x100 EXP DUP2 SLOAD DUP2 PUSH20 0xFFFFFFFFFFFFFFFFFFFFFFFFFFFFFFFFFFFFFFFF MUL NOT AND SWAP1 DUP4 PUSH20 0xFFFFFFFFFFFFFFFFFFFFFFFFFFFFFFFFFFFFFFFF AND MUL OR SWAP1 SSTORE POP DUP1 PUSH1 0xD PUSH1 0x8 PUSH2 0x100 EXP DUP2 SLOAD DUP2 PUSH20 0xFFFFFFFFFFFFFFFFFFFFFFFFFFFFFFFFFFFFFFFF MUL NOT AND SWAP1 DUP4 PUSH20 0xFFFFFFFFFFFFFFFFFFFFFFFFFFFFFFFFFFFFFFFF AND MUL OR SWAP1 SSTORE POP PUSH1 0x0 PUSH1 0xD PUSH1 0x0 PUSH2 0x100 EXP DUP2 SLOAD DUP2 PUSH1 0xFF MUL NOT AND SWAP1 DUP4 ISZERO ISZERO MUL OR SWAP1 SSTORE POP PUSH1 0x0 PUSH1 0xD PUSH1 0x1 PUSH2 0x100 EXP DUP2 SLOAD DUP2 PUSH1 0xFF MUL NOT AND SWAP1 DUP4 ISZERO ISZERO MUL OR SWAP1 SSTORE POP PUSH1 0x0 PUSH1 0xD PUSH1 0x2 PUSH2 0x100 EXP DUP2 SLOAD DUP2 PUSH1 0xFF MUL NOT AND SWAP1 DUP4 ISZERO ISZERO MUL OR SWAP1 SSTORE POP PUSH1 0x2 SLOAD PUSH1 0xB DUP2 SWAP1 SSTORE POP POP POP PUSH3 0x20C JUMP JUMPDEST PUSH1 0x0 DUP1 REVERT JUMPDEST PUSH1 0x0 PUSH20 0xFFFFFFFFFFFFFFFFFFFFFFFFFFFFFFFFFFFFFFFF DUP3 AND SWAP1 POP SWAP2 SWAP1 POP JUMP JUMPDEST PUSH1 0x0 PUSH3 0x18D DUP3 PUSH3 0x160 JUMP JUMPDEST SWAP1 POP SWAP2 SWAP1 POP JUMP JUMPDEST PUSH3 0x19F DUP2 PUSH3 0x180 JUMP JUMPDEST DUP2 EQ PUSH3 0x1AB JUMPI PUSH1 0x0 DUP1 REVERT JUMPDEST POP JUMP JUMPDEST PUSH1 0x0 DUP2 MLOAD SWAP1 POP PUSH3 0x1BF DUP2 PUSH3 0x194 JUMP JUMPDEST SWAP3 SWAP2 POP POP JUMP JUMPDEST PUSH1 0x0 DUP1 PUSH1 0x40 DUP4 DUP6 SUB SLT ISZERO PUSH3 0x1DF JUMPI PUSH3 0x1DE PUSH3 0x15B JUMP JUMPDEST JUMPDEST PUSH1 0x0 PUSH3 0x1EF DUP6 DUP3 DUP7 ADD PUSH3 0x1AE JUMP JUMPDEST SWAP3 POP POP PUSH1 0x20 PUSH3 0x202 DUP6 DUP3 DUP7 ADD PUSH3 0x1AE JUMP JUMPDEST SWAP2 POP POP SWAP3 POP SWAP3 SWAP1 POP JUMP JUMPDEST PUSH2 0x469E DUP1 PUSH3 0x21C PUSH1 0x0 CODECOPY PUSH1 0x0 RETURN INVALID PUSH1 0x80 PUSH1 0x40 MSTORE PUSH1 0x4 CALLDATASIZE LT PUSH2 0x275 JUMPI PUSH1 0x0 CALLDATALOAD PUSH1 0xE0 SHR DUP1 PUSH4 0x779318E5 GT PUSH2 0x14F JUMPI DUP1 PUSH4 0xCA088031 GT PUSH2 0xC1 JUMPI DUP1 PUSH4 0xDD6BCB16 GT PUSH2 0x7A JUMPI DUP1 PUSH4 0xDD6BCB16 EQ PUSH2 0x84A JUMPI DUP1 PUSH4 0xE1505E4E EQ PUSH2 0x861 JUMPI DUP1 PUSH4 0xEAA0A302 EQ PUSH2 0x8A1 JUMPI DUP1 PUSH4 0xF13702F4 EQ PUSH2 0x8B8 JUMPI DUP1 PUSH4 0xF3F43703 EQ PUSH2 0x8E3 JUMPI DUP1 PUSH4 0xFEEAEA4E EQ PUSH2 0x920 JUMPI PUSH2 0x27C JUMP JUMPDEST DUP1 PUSH4 0xCA088031 EQ PUSH2 0x772 JUMPI DUP1 PUSH4 0xCBE615B1 EQ PUSH2 0x789 JUMPI DUP1 PUSH4 0xD261C91F EQ PUSH2 0x7B4 JUMPI DUP1 PUSH4 0xD738307C EQ PUSH2 0x7DF JUMPI DUP1 PUSH4 0xDC1997EA EQ PUSH2 0x808 JUMPI DUP1 PUSH4 0xDCF2559E EQ PUSH2 0x833 JUMPI PUSH2 0x27C JUMP JUMPDEST DUP1 PUSH4 0x8FDA356D GT PUSH2 0x113 JUMPI DUP1 PUSH4 0x8FDA356D EQ PUSH2 0x6BB JUMPI DUP1 PUSH4 0xA709C4FE EQ PUSH2 0x6D2 JUMPI DUP1 PUSH4 0xA972500F EQ PUSH2 0x6DC JUMPI DUP1 PUSH4 0xB0A1E2B4 EQ PUSH2 0x6F3 JUMPI DUP1 PUSH4 0xB602EA60 EQ PUSH2 0x71E JUMPI DUP1 PUSH4 0xC2D6D462 EQ PUSH2 0x749 JUMPI PUSH2 0x27C JUMP JUMPDEST DUP1 PUSH4 0x779318E5 EQ PUSH2 0x5E6 JUMPI DUP1 PUSH4 0x7EF98740 EQ PUSH2 0x611 JUMPI DUP1 PUSH4 0x81D388BA EQ PUSH2 0x63A JUMPI DUP1 PUSH4 0x862A4D47 EQ PUSH2 0x665 JUMPI DUP1 PUSH4 0x87EAA342 EQ PUSH2 0x690 JUMPI PUSH2 0x27C JUMP JUMPDEST DUP1 PUSH4 0x47ED9C65 GT PUSH2 0x1E8 JUMPI DUP1 PUSH4 0x65A746E9 GT PUSH2 0x1AC JUMPI DUP1 PUSH4 0x65A746E9 EQ PUSH2 0x4E4 JUMPI DUP1 PUSH4 0x697B05A2 EQ PUSH2 0x50F JUMPI DUP1 PUSH4 0x6F3C590C EQ PUSH2 0x53A JUMPI DUP1 PUSH4 0x6F9FB98A EQ PUSH2 0x565 JUMPI DUP1 PUSH4 0x71357A46 EQ PUSH2 0x590 JUMPI DUP1 PUSH4 0x740906C0 EQ PUSH2 0x5BB JUMPI PUSH2 0x27C JUMP JUMPDEST DUP1 PUSH4 0x47ED9C65 EQ PUSH2 0x40D JUMPI DUP1 PUSH4 0x561EEFD8 EQ PUSH2 0x438 JUMPI DUP1 PUSH4 0x5A0E9BCC EQ PUSH2 0x463 JUMPI DUP1 PUSH4 0x5A920320 EQ PUSH2 0x48E JUMPI DUP1 PUSH4 0x63022560 EQ PUSH2 0x4B9 JUMPI PUSH2 0x27C JUMP JUMPDEST DUP1 PUSH4 0x220E5AB3 GT PUSH2 0x23A JUMPI DUP1 PUSH4 0x220E5AB3 EQ PUSH2 0x342 JUMPI DUP1 PUSH4 0x22F3E2D4 EQ PUSH2 0x36D JUMPI DUP1 PUSH4 0x2E88AB0B EQ PUSH2 0x398 JUMPI DUP1 PUSH4 0x311A6C56 EQ PUSH2 0x3C3 JUMPI DUP1 PUSH4 0x3CCFD60B EQ PUSH2 0x3EC JUMPI DUP1 PUSH4 0x42C63DAE EQ PUSH2 0x403 JUMPI PUSH2 0x27C JUMP JUMPDEST DUP1 PUSH3 0x4422EB EQ PUSH2 0x281 JUMPI DUP1 PUSH4 0x4A2286A EQ PUSH2 0x2AC JUMPI DUP1 PUSH4 0x8C59798 EQ PUSH2 0x2D7 JUMPI DUP1 PUSH4 0x1890FC37 EQ PUSH2 0x300 JUMPI DUP1 PUSH4 0x1A576049 EQ PUSH2 0x317 JUMPI PUSH2 0x27C JUMP JUMPDEST CALLDATASIZE PUSH2 0x27C JUMPI STOP JUMPDEST PUSH1 0x0 DUP1 REVERT JUMPDEST CALLVALUE DUP1 ISZERO PUSH2 0x28D JUMPI PUSH1 0x0 DUP1 REVERT JUMPDEST POP PUSH2 0x296 PUSH2 0x94B JUMP JUMPDEST PUSH1 0x40 MLOAD PUSH2 0x2A3 SWAP2 SWAP1 PUSH2 0x2EDD JUMP JUMPDEST PUSH1 0x40 MLOAD DUP1 SWAP2 SUB SWAP1 RETURN JUMPDEST CALLVALUE DUP1 ISZERO PUSH2 0x2B8 JUMPI PUSH1 0x0 DUP1 REVERT JUMPDEST POP PUSH2 0x2C1 PUSH2 0x95E JUMP JUMPDEST PUSH1 0x40 MLOAD PUSH2 0x2CE SWAP2 SWAP1 PUSH2 0x2F11 JUMP JUMPDEST PUSH1 0x40 MLOAD DUP1 SWAP2 SUB SWAP1 RETURN JUMPDEST CALLVALUE DUP1 ISZERO PUSH2 0x2E3 JUMPI PUSH1 0x0 DUP1 REVERT JUMPDEST POP PUSH2 0x2FE PUSH1 0x4 DUP1 CALLDATASIZE SUB DUP2 ADD SWAP1 PUSH2 0x2F9 SWAP2 SWAP1 PUSH2 0x2F5D JUMP JUMPDEST PUSH2 0x964 JUMP JUMPDEST STOP JUMPDEST CALLVALUE DUP1 ISZERO PUSH2 0x30C JUMPI PUSH1 0x0 DUP1 REVERT JUMPDEST POP PUSH2 0x315 PUSH2 0xB3C JUMP JUMPDEST STOP JUMPDEST CALLVALUE DUP1 ISZERO PUSH2 0x323 JUMPI PUSH1 0x0 DUP1 REVERT JUMPDEST POP PUSH2 0x32C PUSH2 0xD51 JUMP JUMPDEST PUSH1 0x40 MLOAD PUSH2 0x339 SWAP2 SWAP1 PUSH2 0x2F11 JUMP JUMPDEST PUSH1 0x40 MLOAD DUP1 SWAP2 SUB SWAP1 RETURN JUMPDEST CALLVALUE DUP1 ISZERO PUSH2 0x34E JUMPI PUSH1 0x0 DUP1 REVERT JUMPDEST POP PUSH2 0x357 PUSH2 0xD57 JUMP JUMPDEST PUSH1 0x40 MLOAD PUSH2 0x364 SWAP2 SWAP1 PUSH2 0x2F11 JUMP JUMPDEST PUSH1 0x40 MLOAD DUP1 SWAP2 SUB SWAP1 RETURN JUMPDEST CALLVALUE DUP1 ISZERO PUSH2 0x379 JUMPI PUSH1 0x0 DUP1 REVERT JUMPDEST POP PUSH2 0x382 PUSH2 0xD5D JUMP JUMPDEST PUSH1 0x40 MLOAD PUSH2 0x38F SWAP2 SWAP1 PUSH2 0x2EDD JUMP JUMPDEST PUSH1 0x40 MLOAD DUP1 SWAP2 SUB SWAP1 RETURN JUMPDEST CALLVALUE DUP1 ISZERO PUSH2 0x3A4 JUMPI PUSH1 0x0 DUP1 REVERT JUMPDEST POP PUSH2 0x3AD PUSH2 0xD70 JUMP JUMPDEST PUSH1 0x40 MLOAD PUSH2 0x3BA SWAP2 SWAP1 PUSH2 0x2FCB JUMP JUMPDEST PUSH1 0x40 MLOAD DUP1 SWAP2 SUB SWAP1 RETURN JUMPDEST CALLVALUE DUP1 ISZERO PUSH2 0x3CF JUMPI PUSH1 0x0 DUP1 REVERT JUMPDEST POP PUSH2 0x3EA PUSH1 0x4 DUP1 CALLDATASIZE SUB DUP2 ADD SWAP1 PUSH2 0x3E5 SWAP2 SWAP1 PUSH2 0x2FE6 JUMP JUMPDEST PUSH2 0xD96 JUMP JUMPDEST STOP JUMPDEST CALLVALUE DUP1 ISZERO PUSH2 0x3F8 JUMPI PUSH1 0x0 DUP1 REVERT JUMPDEST POP PUSH2 0x401 PUSH2 0x1175 JUMP JUMPDEST STOP JUMPDEST PUSH2 0x40B PUSH2 0x133F JUMP JUMPDEST STOP JUMPDEST CALLVALUE DUP1 ISZERO PUSH2 0x419 JUMPI PUSH1 0x0 DUP1 REVERT JUMPDEST POP PUSH2 0x422 PUSH2 0x14B7 JUMP JUMPDEST PUSH1 0x40 MLOAD PUSH2 0x42F SWAP2 SWAP1 PUSH2 0x2EDD JUMP JUMPDEST PUSH1 0x40 MLOAD DUP1 SWAP2 SUB SWAP1 RETURN JUMPDEST CALLVALUE DUP1 ISZERO PUSH2 0x444 JUMPI PUSH1 0x0 DUP1 REVERT JUMPDEST POP PUSH2 0x44D PUSH2 0x14CA JUMP JUMPDEST PUSH1 0x40 MLOAD PUSH2 0x45A SWAP2 SWAP1 PUSH2 0x2F11 JUMP JUMPDEST PUSH1 0x40 MLOAD DUP1 SWAP2 SUB SWAP1 RETURN JUMPDEST CALLVALUE DUP1 ISZERO PUSH2 0x46F JUMPI PUSH1 0x0 DUP1 REVERT JUMPDEST POP PUSH2 0x478 PUSH2 0x14D0 JUMP JUMPDEST PUSH1 0x40 MLOAD PUSH2 0x485 SWAP2 SWAP1 PUSH2 0x2EDD JUMP JUMPDEST PUSH1 0x40 MLOAD DUP1 SWAP2 SUB SWAP1 RETURN JUMPDEST CALLVALUE DUP1 ISZERO PUSH2 0x49A JUMPI PUSH1 0x0 DUP1 REVERT JUMPDEST POP PUSH2 0x4A3 PUSH2 0x14E3 JUMP JUMPDEST PUSH1 0x40 MLOAD PUSH2 0x4B0 SWAP2 SWAP1 PUSH2 0x3085 JUMP JUMPDEST PUSH1 0x40 MLOAD DUP1 SWAP2 SUB SWAP1 RETURN JUMPDEST CALLVALUE DUP1 ISZERO PUSH2 0x4C5 JUMPI PUSH1 0x0 DUP1 REVERT JUMPDEST POP PUSH2 0x4CE PUSH2 0x1509 JUMP JUMPDEST PUSH1 0x40 MLOAD PUSH2 0x4DB SWAP2 SWAP1 PUSH2 0x2F11 JUMP JUMPDEST PUSH1 0x40 MLOAD DUP1 SWAP2 SUB SWAP1 RETURN JUMPDEST CALLVALUE DUP1 ISZERO PUSH2 0x4F0 JUMPI PUSH1 0x0 DUP1 REVERT JUMPDEST POP PUSH2 0x4F9 PUSH2 0x15AA JUMP JUMPDEST PUSH1 0x40 MLOAD PUSH2 0x506 SWAP2 SWAP1 PUSH2 0x2EDD JUMP JUMPDEST PUSH1 0x40 MLOAD DUP1 SWAP2 SUB SWAP1 RETURN JUMPDEST CALLVALUE DUP1 ISZERO PUSH2 0x51B JUMPI PUSH1 0x0 DUP1 REVERT JUMPDEST POP PUSH2 0x524 PUSH2 0x15BD JUMP JUMPDEST PUSH1 0x40 MLOAD PUSH2 0x531 SWAP2 SWAP1 PUSH2 0x2F11 JUMP JUMPDEST PUSH1 0x40 MLOAD DUP1 SWAP2 SUB SWAP1 RETURN JUMPDEST CALLVALUE DUP1 ISZERO PUSH2 0x546 JUMPI PUSH1 0x0 DUP1 REVERT JUMPDEST POP PUSH2 0x54F PUSH2 0x15C3 JUMP JUMPDEST PUSH1 0x40 MLOAD PUSH2 0x55C SWAP2 SWAP1 PUSH2 0x2F11 JUMP JUMPDEST PUSH1 0x40 MLOAD DUP1 SWAP2 SUB SWAP1 RETURN JUMPDEST CALLVALUE DUP1 ISZERO PUSH2 0x571 JUMPI PUSH1 0x0 DUP1 REVERT JUMPDEST POP PUSH2 0x57A PUSH2 0x15C9 JUMP JUMPDEST PUSH1 0x40 MLOAD PUSH2 0x587 SWAP2 SWAP1 PUSH2 0x2F11 JUMP JUMPDEST PUSH1 0x40 MLOAD DUP1 SWAP2 SUB SWAP1 RETURN JUMPDEST CALLVALUE DUP1 ISZERO PUSH2 0x59C JUMPI PUSH1 0x0 DUP1 REVERT JUMPDEST POP PUSH2 0x5A5 PUSH2 0x15D1 JUMP JUMPDEST PUSH1 0x40 MLOAD PUSH2 0x5B2 SWAP2 SWAP1 PUSH2 0x2EDD JUMP JUMPDEST PUSH1 0x40 MLOAD DUP1 SWAP2 SUB SWAP1 RETURN JUMPDEST CALLVALUE DUP1 ISZERO PUSH2 0x5C7 JUMPI PUSH1 0x0 DUP1 REVERT JUMPDEST POP PUSH2 0x5D0 PUSH2 0x15E4 JUMP JUMPDEST PUSH1 0x40 MLOAD PUSH2 0x5DD SWAP2 SWAP1 PUSH2 0x2F11 JUMP JUMPDEST PUSH1 0x40 MLOAD DUP1 SWAP2 SUB SWAP1 RETURN JUMPDEST CALLVALUE DUP1 ISZERO PUSH2 0x5F2 JUMPI PUSH1 0x0 DUP1 REVERT JUMPDEST POP PUSH2 0x5FB PUSH2 0x164D JUMP JUMPDEST PUSH1 0x40 MLOAD PUSH2 0x608 SWAP2 SWAP1 PUSH2 0x2F11 JUMP JUMPDEST PUSH1 0x40 MLOAD DUP1 SWAP2 SUB SWAP1 RETURN JUMPDEST CALLVALUE DUP1 ISZERO PUSH2 0x61D JUMPI PUSH1 0x0 DUP1 REVERT JUMPDEST POP PUSH2 0x638 PUSH1 0x4 DUP1 CALLDATASIZE SUB DUP2 ADD SWAP1 PUSH2 0x633 SWAP2 SWAP1 PUSH2 0x2F5D JUMP JUMPDEST PUSH2 0x1657 JUMP JUMPDEST STOP JUMPDEST CALLVALUE DUP1 ISZERO PUSH2 0x646 JUMPI PUSH1 0x0 DUP1 REVERT JUMPDEST POP PUSH2 0x64F PUSH2 0x17F5 JUMP JUMPDEST PUSH1 0x40 MLOAD PUSH2 0x65C SWAP2 SWAP1 PUSH2 0x2F11 JUMP JUMPDEST PUSH1 0x40 MLOAD DUP1 SWAP2 SUB SWAP1 RETURN JUMPDEST CALLVALUE DUP1 ISZERO PUSH2 0x671 JUMPI PUSH1 0x0 DUP1 REVERT JUMPDEST POP PUSH2 0x67A PUSH2 0x17FB JUMP JUMPDEST PUSH1 0x40 MLOAD PUSH2 0x687 SWAP2 SWAP1 PUSH2 0x2F11 JUMP JUMPDEST PUSH1 0x40 MLOAD DUP1 SWAP2 SUB SWAP1 RETURN JUMPDEST CALLVALUE DUP1 ISZERO PUSH2 0x69C JUMPI PUSH1 0x0 DUP1 REVERT JUMPDEST POP PUSH2 0x6A5 PUSH2 0x1801 JUMP JUMPDEST PUSH1 0x40 MLOAD PUSH2 0x6B2 SWAP2 SWAP1 PUSH2 0x2F11 JUMP JUMPDEST PUSH1 0x40 MLOAD DUP1 SWAP2 SUB SWAP1 RETURN JUMPDEST CALLVALUE DUP1 ISZERO PUSH2 0x6C7 JUMPI PUSH1 0x0 DUP1 REVERT JUMPDEST POP PUSH2 0x6D0 PUSH2 0x1807 JUMP JUMPDEST STOP JUMPDEST PUSH2 0x6DA PUSH2 0x1960 JUMP JUMPDEST STOP JUMPDEST CALLVALUE DUP1 ISZERO PUSH2 0x6E8 JUMPI PUSH1 0x0 DUP1 REVERT JUMPDEST POP PUSH2 0x6F1 PUSH2 0x1D2C JUMP JUMPDEST STOP JUMPDEST CALLVALUE DUP1 ISZERO PUSH2 0x6FF JUMPI PUSH1 0x0 DUP1 REVERT JUMPDEST POP PUSH2 0x708 PUSH2 0x1E59 JUMP JUMPDEST PUSH1 0x40 MLOAD PUSH2 0x715 SWAP2 SWAP1 PUSH2 0x2F11 JUMP JUMPDEST PUSH1 0x40 MLOAD DUP1 SWAP2 SUB SWAP1 RETURN JUMPDEST CALLVALUE DUP1 ISZERO PUSH2 0x72A JUMPI PUSH1 0x0 DUP1 REVERT JUMPDEST POP PUSH2 0x733 PUSH2 0x1E5F JUMP JUMPDEST PUSH1 0x40 MLOAD PUSH2 0x740 SWAP2 SWAP1 PUSH2 0x2EDD JUMP JUMPDEST PUSH1 0x40 MLOAD DUP1 SWAP2 SUB SWAP1 RETURN JUMPDEST CALLVALUE DUP1 ISZERO PUSH2 0x755 JUMPI PUSH1 0x0 DUP1 REVERT JUMPDEST POP PUSH2 0x770 PUSH1 0x4 DUP1 CALLDATASIZE SUB DUP2 ADD SWAP1 PUSH2 0x76B SWAP2 SWAP1 PUSH2 0x2F5D JUMP JUMPDEST PUSH2 0x1E72 JUMP JUMPDEST STOP JUMPDEST CALLVALUE DUP1 ISZERO PUSH2 0x77E JUMPI PUSH1 0x0 DUP1 REVERT JUMPDEST POP PUSH2 0x787 PUSH2 0x1FAD JUMP JUMPDEST STOP JUMPDEST CALLVALUE DUP1 ISZERO PUSH2 0x795 JUMPI PUSH1 0x0 DUP1 REVERT JUMPDEST POP PUSH2 0x79E PUSH2 0x2226 JUMP JUMPDEST PUSH1 0x40 MLOAD PUSH2 0x7AB SWAP2 SWAP1 PUSH2 0x2EDD JUMP JUMPDEST PUSH1 0x40 MLOAD DUP1 SWAP2 SUB SWAP1 RETURN JUMPDEST CALLVALUE DUP1 ISZERO PUSH2 0x7C0 JUMPI PUSH1 0x0 DUP1 REVERT JUMPDEST POP PUSH2 0x7C9 PUSH2 0x223D JUMP JUMPDEST PUSH1 0x40 MLOAD PUSH2 0x7D6 SWAP2 SWAP1 PUSH2 0x2F11 JUMP JUMPDEST PUSH1 0x40 MLOAD DUP1 SWAP2 SUB SWAP1 RETURN JUMPDEST CALLVALUE DUP1 ISZERO PUSH2 0x7EB JUMPI PUSH1 0x0 DUP1 REVERT JUMPDEST POP PUSH2 0x806 PUSH1 0x4 DUP1 CALLDATASIZE SUB DUP2 ADD SWAP1 PUSH2 0x801 SWAP2 SWAP1 PUSH2 0x30A0 JUMP JUMPDEST PUSH2 0x2243 JUMP JUMPDEST STOP JUMPDEST CALLVALUE DUP1 ISZERO PUSH2 0x814 JUMPI PUSH1 0x0 DUP1 REVERT JUMPDEST POP PUSH2 0x81D PUSH2 0x2376 JUMP JUMPDEST PUSH1 0x40 MLOAD PUSH2 0x82A SWAP2 SWAP1 PUSH2 0x2FCB JUMP JUMPDEST PUSH1 0x40 MLOAD DUP1 SWAP2 SUB SWAP1 RETURN JUMPDEST CALLVALUE DUP1 ISZERO PUSH2 0x83F JUMPI PUSH1 0x0 DUP1 REVERT JUMPDEST POP PUSH2 0x848 PUSH2 0x239A JUMP JUMPDEST STOP JUMPDEST CALLVALUE DUP1 ISZERO PUSH2 0x856 JUMPI PUSH1 0x0 DUP1 REVERT JUMPDEST POP PUSH2 0x85F PUSH2 0x24A7 JUMP JUMPDEST STOP JUMPDEST CALLVALUE DUP1 ISZERO PUSH2 0x86D JUMPI PUSH1 0x0 DUP1 REVERT JUMPDEST POP PUSH2 0x888 PUSH1 0x4 DUP1 CALLDATASIZE SUB DUP2 ADD SWAP1 PUSH2 0x883 SWAP2 SWAP1 PUSH2 0x2F5D JUMP JUMPDEST PUSH2 0x27A6 JUMP JUMPDEST PUSH1 0x40 MLOAD PUSH2 0x898 SWAP5 SWAP4 SWAP3 SWAP2 SWAP1 PUSH2 0x30F3 JUMP JUMPDEST PUSH1 0x40 MLOAD DUP1 SWAP2 SUB SWAP1 RETURN JUMPDEST CALLVALUE DUP1 ISZERO PUSH2 0x8AD JUMPI PUSH1 0x0 DUP1 REVERT JUMPDEST POP PUSH2 0x8B6 PUSH2 0x27E3 JUMP JUMPDEST STOP JUMPDEST CALLVALUE DUP1 ISZERO PUSH2 0x8C4 JUMPI PUSH1 0x0 DUP1 REVERT JUMPDEST POP PUSH2 0x8CD PUSH2 0x2B0C JUMP JUMPDEST PUSH1 0x40 MLOAD PUSH2 0x8DA SWAP2 SWAP1 PUSH2 0x2EDD JUMP JUMPDEST PUSH1 0x40 MLOAD DUP1 SWAP2 SUB SWAP1 RETURN JUMPDEST CALLVALUE DUP1 ISZERO PUSH2 0x8EF JUMPI PUSH1 0x0 DUP1 REVERT JUMPDEST POP PUSH2 0x90A PUSH1 0x4 DUP1 CALLDATASIZE SUB DUP2 ADD SWAP1 PUSH2 0x905 SWAP2 SWAP1 PUSH2 0x3164 JUMP JUMPDEST PUSH2 0x2B1F JUMP JUMPDEST PUSH1 0x40 MLOAD PUSH2 0x917 SWAP2 SWAP1 PUSH2 0x2F11 JUMP JUMPDEST PUSH1 0x40 MLOAD DUP1 SWAP2 SUB SWAP1 RETURN JUMPDEST CALLVALUE DUP1 ISZERO PUSH2 0x92C JUMPI PUSH1 0x0 DUP1 REVERT JUMPDEST POP PUSH2 0x935 PUSH2 0x2B37 JUMP JUMPDEST PUSH1 0x40 MLOAD PUSH2 0x942 SWAP2 SWAP1 PUSH2 0x2F11 JUMP JUMPDEST PUSH1 0x40 MLOAD DUP1 SWAP2 SUB SWAP1 RETURN JUMPDEST PUSH1 0xD PUSH1 0x2 SWAP1 SLOAD SWAP1 PUSH2 0x100 EXP SWAP1 DIV PUSH1 0xFF AND DUP2 JUMP JUMPDEST PUSH1 0x3 SLOAD DUP2 JUMP JUMPDEST PUSH1 0x0 DUP1 SLOAD SWAP1 PUSH2 0x100 EXP SWAP1 DIV PUSH20 0xFFFFFFFFFFFFFFFFFFFFFFFFFFFFFFFFFFFFFFFF AND PUSH20 0xFFFFFFFFFFFFFFFFFFFFFFFFFFFFFFFFFFFFFFFF AND CALLER PUSH20 0xFFFFFFFFFFFFFFFFFFFFFFFFFFFFFFFFFFFFFFFF AND EQ PUSH2 0x9F2 JUMPI PUSH1 0x40 MLOAD PUSH32 0x8C379A000000000000000000000000000000000000000000000000000000000 DUP2 MSTORE PUSH1 0x4 ADD PUSH2 0x9E9 SWAP1 PUSH2 0x3214 JUMP JUMPDEST PUSH1 0x40 MLOAD DUP1 SWAP2 SUB SWAP1 REVERT JUMPDEST PUSH1 0xD PUSH1 0x5 SWAP1 SLOAD SWAP1 PUSH2 0x100 EXP SWAP1 DIV PUSH1 0xFF AND PUSH2 0xA41 JUMPI PUSH1 0x40 MLOAD PUSH32 0x8C379A000000000000000000000000000000000000000000000000000000000 DUP2 MSTORE PUSH1 0x4 ADD PUSH2 0xA38 SWAP1 PUSH2 0x3280 JUMP JUMPDEST PUSH1 0x40 MLOAD DUP1 SWAP2 SUB SWAP1 REVERT JUMPDEST PUSH1 0xD PUSH1 0x6 SWAP1 SLOAD SWAP1 PUSH2 0x100 EXP SWAP1 DIV PUSH1 0xFF AND ISZERO PUSH2 0xA91 JUMPI PUSH1 0x40 MLOAD PUSH32 0x8C379A000000000000000000000000000000000000000000000000000000000 DUP2 MSTORE PUSH1 0x4 ADD PUSH2 0xA88 SWAP1 PUSH2 0x32EC JUMP JUMPDEST PUSH1 0x40 MLOAD DUP1 SWAP2 SUB SWAP1 REVERT JUMPDEST PUSH1 0xD PUSH1 0x0 SWAP1 SLOAD SWAP1 PUSH2 0x100 EXP SWAP1 DIV PUSH1 0xFF AND PUSH2 0xAE0 JUMPI PUSH1 0x40 MLOAD PUSH32 0x8C379A000000000000000000000000000000000000000000000000000000000 DUP2 MSTORE PUSH1 0x4 ADD PUSH2 0xAD7 SWAP1 PUSH2 0x3358 JUMP JUMPDEST PUSH1 0x40 MLOAD DUP1 SWAP2 SUB SWAP1 REVERT JUMPDEST DUP1 PUSH1 0x8 DUP2 SWAP1 SSTORE POP PUSH1 0x1 PUSH1 0xD PUSH1 0x6 PUSH2 0x100 EXP DUP2 SLOAD DUP2 PUSH1 0xFF MUL NOT AND SWAP1 DUP4 ISZERO ISZERO MUL OR SWAP1 SSTORE POP PUSH32 0x192101DE3933394FEDEB636FFADD15C20B3E23E4913AB4051C171A26C90A3459 DUP2 PUSH1 0x40 MLOAD PUSH2 0xB31 SWAP2 SWAP1 PUSH2 0x2F11 JUMP JUMPDEST PUSH1 0x40 MLOAD DUP1 SWAP2 SUB SWAP1 LOG1 POP JUMP JUMPDEST PUSH1 0x0 DUP1 SLOAD SWAP1 PUSH2 0x100 EXP SWAP1 DIV PUSH20 0xFFFFFFFFFFFFFFFFFFFFFFFFFFFFFFFFFFFFFFFF AND PUSH20 0xFFFFFFFFFFFFFFFFFFFFFFFFFFFFFFFFFFFFFFFF AND CALLER PUSH20 0xFFFFFFFFFFFFFFFFFFFFFFFFFFFFFFFFFFFFFFFF AND EQ PUSH2 0xBCA JUMPI PUSH1 0x40 MLOAD PUSH32 0x8C379A000000000000000000000000000000000000000000000000000000000 DUP2 MSTORE PUSH1 0x4 ADD PUSH2 0xBC1 SWAP1 PUSH2 0x33EA JUMP JUMPDEST PUSH1 0x40 MLOAD DUP1 SWAP2 SUB SWAP1 REVERT JUMPDEST PUSH1 0xD PUSH1 0x7 SWAP1 SLOAD SWAP1 PUSH2 0x100 EXP SWAP1 DIV PUSH1 0xFF AND PUSH2 0xC19 JUMPI PUSH1 0x40 MLOAD PUSH32 0x8C379A000000000000000000000000000000000000000000000000000000000 DUP2 MSTORE PUSH1 0x4 ADD PUSH2 0xC10 SWAP1 PUSH2 0x347C JUMP JUMPDEST PUSH1 0x40 MLOAD DUP1 SWAP2 SUB SWAP1 REVERT JUMPDEST PUSH1 0xD PUSH1 0x8 SWAP1 SLOAD SWAP1 PUSH2 0x100 EXP SWAP1 DIV PUSH20 0xFFFFFFFFFFFFFFFFFFFFFFFFFFFFFFFFFFFFFFFF AND PUSH20 0xFFFFFFFFFFFFFFFFFFFFFFFFFFFFFFFFFFFFFFFF AND PUSH4 0xF7434EA9 PUSH1 0x40 MLOAD DUP2 PUSH4 0xFFFFFFFF AND PUSH1 0xE0 SHL DUP2 MSTORE PUSH1 0x4 ADD PUSH2 0xC72 SWAP1 PUSH2 0x34D3 JUMP JUMPDEST PUSH1 0x20 PUSH1 0x40 MLOAD DUP1 DUP4 SUB DUP2 DUP7 GAS STATICCALL ISZERO DUP1 ISZERO PUSH2 0xC8F JUMPI RETURNDATASIZE PUSH1 0x0 DUP1 RETURNDATACOPY RETURNDATASIZE PUSH1 0x0 REVERT JUMPDEST POP POP POP POP PUSH1 0x40 MLOAD RETURNDATASIZE PUSH1 0x1F NOT PUSH1 0x1F DUP3 ADD AND DUP3 ADD DUP1 PUSH1 0x40 MSTORE POP DUP2 ADD SWAP1 PUSH2 0xCB3 SWAP2 SWAP1 PUSH2 0x3508 JUMP JUMPDEST PUSH1 0xC DUP2 SWAP1 SSTORE POP PUSH1 0xC SLOAD PUSH1 0xB SLOAD LT ISZERO PUSH2 0xD00 JUMPI PUSH1 0x40 MLOAD PUSH32 0x8C379A000000000000000000000000000000000000000000000000000000000 DUP2 MSTORE PUSH1 0x4 ADD PUSH2 0xCF7 SWAP1 PUSH2 0x35A7 JUMP JUMPDEST PUSH1 0x40 MLOAD DUP1 SWAP2 SUB SWAP1 REVERT JUMPDEST PUSH1 0xC SLOAD PUSH1 0xB PUSH1 0x0 DUP3 DUP3 SLOAD PUSH2 0xD14 SWAP2 SWAP1 PUSH2 0x35F6 JUMP JUMPDEST SWAP3 POP POP DUP2 SWAP1 SSTORE POP PUSH2 0xD23 PUSH2 0x2B9F JUMP JUMPDEST PUSH32 0xA7D8A4744BC13E083818434DDE26551EA9B29C6425677EBC90CD5DD09CE6B5C7 PUSH1 0x40 MLOAD PUSH1 0x40 MLOAD DUP1 SWAP2 SUB SWAP1 LOG1 JUMP JUMPDEST PUSH1 0x8 SLOAD DUP2 JUMP JUMPDEST PUSH1 0x2 SLOAD DUP2 JUMP JUMPDEST PUSH1 0xD PUSH1 0x0 SWAP1 SLOAD SWAP1 PUSH2 0x100 EXP SWAP1 DIV PUSH1 0xFF AND DUP2 JUMP JUMPDEST PUSH1 0x1 PUSH1 0x0 SWAP1 SLOAD SWAP1 PUSH2 0x100 EXP SWAP1 DIV PUSH20 0xFFFFFFFFFFFFFFFFFFFFFFFFFFFFFFFFFFFFFFFF AND DUP2 JUMP JUMPDEST PUSH1 0xD PUSH1 0x8 SWAP1 SLOAD SWAP1 PUSH2 0x100 EXP SWAP1 DIV PUSH20 0xFFFFFFFFFFFFFFFFFFFFFFFFFFFFFFFFFFFFFFFF AND PUSH20 0xFFFFFFFFFFFFFFFFFFFFFFFFFFFFFFFFFFFFFFFF AND CALLER PUSH20 0xFFFFFFFFFFFFFFFFFFFFFFFFFFFFFFFFFFFFFFFF AND EQ PUSH2 0xE26 JUMPI PUSH1 0x40 MLOAD PUSH32 0x8C379A000000000000000000000000000000000000000000000000000000000 DUP2 MSTORE PUSH1 0x4 ADD PUSH2 0xE1D SWAP1 PUSH2 0x3676 JUMP JUMPDEST PUSH1 0x40 MLOAD DUP1 SWAP2 SUB SWAP1 REVERT JUMPDEST PUSH1 0xD PUSH1 0x2 SWAP1 SLOAD SWAP1 PUSH2 0x100 EXP SWAP1 DIV PUSH1 0xFF AND PUSH2 0xE75 JUMPI PUSH1 0x40 MLOAD PUSH32 0x8C379A000000000000000000000000000000000000000000000000000000000 DUP2 MSTORE PUSH1 0x4 ADD PUSH2 0xE6C SWAP1 PUSH2 0x36E2 JUMP JUMPDEST PUSH1 0x40 MLOAD DUP1 SWAP2 SUB SWAP1 REVERT JUMPDEST PUSH1 0xA SLOAD DUP3 EQ PUSH2 0xEB9 JUMPI PUSH1 0x40 MLOAD PUSH32 0x8C379A000000000000000000000000000000000000000000000000000000000 DUP2 MSTORE PUSH1 0x4 ADD PUSH2 0xEB0 SWAP1 PUSH2 0x374E JUMP JUMPDEST PUSH1 0x40 MLOAD DUP1 SWAP2 SUB SWAP1 REVERT JUMPDEST PUSH1 0x0 PUSH1 0x1 DUP3 SUB PUSH2 0xEE1 JUMPI PUSH1 0xB SLOAD PUSH1 0x8 SLOAD LT PUSH2 0xED6 JUMPI PUSH1 0xB SLOAD PUSH2 0xEDA JUMP JUMPDEST PUSH1 0x8 SLOAD JUMPDEST SWAP1 POP PUSH2 0xF1A JUMP JUMPDEST PUSH1 0x2 DUP3 SUB PUSH2 0xF07 JUMPI PUSH1 0xB SLOAD PUSH1 0x9 SLOAD LT PUSH2 0xEFC JUMPI PUSH1 0xB SLOAD PUSH2 0xF00 JUMP JUMPDEST PUSH1 0x9 SLOAD JUMPDEST SWAP1 POP PUSH2 0xF19 JUMP JUMPDEST PUSH1 0x2 PUSH1 0xB SLOAD PUSH2 0xF16 SWAP2 SWAP1 PUSH2 0x379D JUMP JUMPDEST SWAP1 POP JUMPDEST JUMPDEST DUP1 PUSH1 0xF PUSH1 0x0 DUP1 PUSH1 0x0 SWAP1 SLOAD SWAP1 PUSH2 0x100 EXP SWAP1 DIV PUSH20 0xFFFFFFFFFFFFFFFFFFFFFFFFFFFFFFFFFFFFFFFF AND PUSH20 0xFFFFFFFFFFFFFFFFFFFFFFFFFFFFFFFFFFFFFFFF AND PUSH20 0xFFFFFFFFFFFFFFFFFFFFFFFFFFFFFFFFFFFFFFFF AND DUP2 MSTORE PUSH1 0x20 ADD SWAP1 DUP2 MSTORE PUSH1 0x20 ADD PUSH1 0x0 KECCAK256 PUSH1 0x0 DUP3 DUP3 SLOAD PUSH2 0xF8A SWAP2 SWAP1 PUSH2 0x37CE JUMP JUMPDEST SWAP3 POP POP DUP2 SWAP1 SSTORE POP DUP1 PUSH1 0xB SLOAD PUSH2 0xF9F SWAP2 SWAP1 PUSH2 0x35F6 JUMP JUMPDEST PUSH1 0xF PUSH1 0x0 PUSH1 0x1 PUSH1 0x0 SWAP1 SLOAD SWAP1 PUSH2 0x100 EXP SWAP1 DIV PUSH20 0xFFFFFFFFFFFFFFFFFFFFFFFFFFFFFFFFFFFFFFFF AND PUSH20 0xFFFFFFFFFFFFFFFFFFFFFFFFFFFFFFFFFFFFFFFF AND PUSH20 0xFFFFFFFFFFFFFFFFFFFFFFFFFFFFFFFFFFFFFFFF AND DUP2 MSTORE PUSH1 0x20 ADD SWAP1 DUP2 MSTORE PUSH1 0x20 ADD PUSH1 0x0 KECCAK256 PUSH1 0x0 DUP3 DUP3 SLOAD PUSH2 0x100F SWAP2 SWAP1 PUSH2 0x37CE JUMP JUMPDEST SWAP3 POP POP DUP2 SWAP1 SSTORE POP PUSH1 0x0 DUP1 SLOAD SWAP1 PUSH2 0x100 EXP SWAP1 DIV PUSH20 0xFFFFFFFFFFFFFFFFFFFFFFFFFFFFFFFFFFFFFFFF AND PUSH20 0xFFFFFFFFFFFFFFFFFFFFFFFFFFFFFFFFFFFFFFFF AND PUSH32 0xE670E4E82118D22A1F9EE18920455EBC958BAE26A90A05D31D3378788B1B0E44 DUP3 PUSH1 0x40 MLOAD PUSH2 0x107C SWAP2 SWAP1 PUSH2 0x2F11 JUMP JUMPDEST PUSH1 0x40 MLOAD DUP1 SWAP2 SUB SWAP1 LOG2 PUSH1 0x1 PUSH1 0x0 SWAP1 SLOAD SWAP1 PUSH2 0x100 EXP SWAP1 DIV PUSH20 0xFFFFFFFFFFFFFFFFFFFFFFFFFFFFFFFFFFFFFFFF AND PUSH20 0xFFFFFFFFFFFFFFFFFFFFFFFFFFFFFFFFFFFFFFFF AND PUSH32 0xE670E4E82118D22A1F9EE18920455EBC958BAE26A90A05D31D3378788B1B0E44 DUP3 PUSH1 0xB SLOAD PUSH2 0x10EC SWAP2 SWAP1 PUSH2 0x35F6 JUMP JUMPDEST PUSH1 0x40 MLOAD PUSH2 0x10F9 SWAP2 SWAP1 PUSH2 0x2F11 JUMP JUMPDEST PUSH1 0x40 MLOAD DUP1 SWAP2 SUB SWAP1 LOG2 PUSH1 0x0 PUSH1 0xD PUSH1 0x2 PUSH2 0x100 EXP DUP2 SLOAD DUP2 PUSH1 0xFF MUL NOT AND SWAP1 DUP4 ISZERO ISZERO MUL OR SWAP1 SSTORE POP PUSH1 0x0 PUSH1 0xD PUSH1 0x0 PUSH2 0x100 EXP DUP2 SLOAD DUP2 PUSH1 0xFF MUL NOT AND SWAP1 DUP4 ISZERO ISZERO MUL OR SWAP1 SSTORE POP PUSH32 0xB4121F1F91A696A3FC75F6D151F3C9865ABFFA0738BDA595E71C381C02AF2FAA DUP4 DUP4 PUSH1 0x40 MLOAD PUSH2 0x1168 SWAP3 SWAP2 SWAP1 PUSH2 0x3802 JUMP JUMPDEST PUSH1 0x40 MLOAD DUP1 SWAP2 SUB SWAP1 LOG1 POP POP POP JUMP JUMPDEST PUSH1 0x0 PUSH1 0xF PUSH1 0x0 CALLER PUSH20 0xFFFFFFFFFFFFFFFFFFFFFFFFFFFFFFFFFFFFFFFF AND PUSH20 0xFFFFFFFFFFFFFFFFFFFFFFFFFFFFFFFFFFFFFFFF AND DUP2 MSTORE PUSH1 0x20 ADD SWAP1 DUP2 MSTORE PUSH1 0x20 ADD PUSH1 0x0 KECCAK256 SLOAD SWAP1 POP PUSH1 0x0 DUP2 GT PUSH2 0x11FC JUMPI PUSH1 0x40 MLOAD PUSH32 0x8C379A000000000000000000000000000000000000000000000000000000000 DUP2 MSTORE PUSH1 0x4 ADD PUSH2 0x11F3 SWAP1 PUSH2 0x3877 JUMP JUMPDEST PUSH1 0x40 MLOAD DUP1 SWAP2 SUB SWAP1 REVERT JUMPDEST PUSH1 0x0 PUSH1 0xF PUSH1 0x0 CALLER PUSH20 0xFFFFFFFFFFFFFFFFFFFFFFFFFFFFFFFFFFFFFFFF AND PUSH20 0xFFFFFFFFFFFFFFFFFFFFFFFFFFFFFFFFFFFFFFFF AND DUP2 MSTORE PUSH1 0x20 ADD SWAP1 DUP2 MSTORE PUSH1 0x20 ADD PUSH1 0x0 KECCAK256 DUP2 SWAP1 SSTORE POP PUSH1 0x0 CALLER PUSH20 0xFFFFFFFFFFFFFFFFFFFFFFFFFFFFFFFFFFFFFFFF AND DUP3 PUSH1 0x40 MLOAD PUSH2 0x1267 SWAP1 PUSH2 0x38C5 JUMP JUMPDEST PUSH1 0x0 PUSH1 0x40 MLOAD DUP1 DUP4 SUB DUP2 DUP6 DUP8 GAS CALL SWAP3 POP POP POP RETURNDATASIZE DUP1 PUSH1 0x0 DUP2 EQ PUSH2 0x12A4 JUMPI PUSH1 0x40 MLOAD SWAP2 POP PUSH1 0x1F NOT PUSH1 0x3F RETURNDATASIZE ADD AND DUP3 ADD PUSH1 0x40 MSTORE RETURNDATASIZE DUP3 MSTORE RETURNDATASIZE PUSH1 0x0 PUSH1 0x20 DUP5 ADD RETURNDATACOPY PUSH2 0x12A9 JUMP JUMPDEST PUSH1 0x60 SWAP2 POP JUMPDEST POP POP SWAP1 POP DUP1 PUSH2 0x12ED JUMPI PUSH1 0x40 MLOAD PUSH32 0x8C379A000000000000000000000000000000000000000000000000000000000 DUP2 MSTORE PUSH1 0x4 ADD PUSH2 0x12E4 SWAP1 PUSH2 0x3926 JUMP JUMPDEST PUSH1 0x40 MLOAD DUP1 SWAP2 SUB SWAP1 REVERT JUMPDEST CALLER PUSH20 0xFFFFFFFFFFFFFFFFFFFFFFFFFFFFFFFFFFFFFFFF AND PUSH32 0x8C9A4F13B67CB64D7C6AA1AE0C9BF07694AF521A28B93E7060020810AB4BC59F DUP4 PUSH1 0x40 MLOAD PUSH2 0x1333 SWAP2 SWAP1 PUSH2 0x2F11 JUMP JUMPDEST PUSH1 0x40 MLOAD DUP1 SWAP2 SUB SWAP1 LOG2 POP POP JUMP JUMPDEST PUSH1 0x1 PUSH1 0x0 SWAP1 SLOAD SWAP1 PUSH2 0x100 EXP SWAP1 DIV PUSH20 0xFFFFFFFFFFFFFFFFFFFFFFFFFFFFFFFFFFFFFFFF AND PUSH20 0xFFFFFFFFFFFFFFFFFFFFFFFFFFFFFFFFFFFFFFFF AND CALLER PUSH20 0xFFFFFFFFFFFFFFFFFFFFFFFFFFFFFFFFFFFFFFFF AND EQ PUSH2 0x13CF JUMPI PUSH1 0x40 MLOAD PUSH32 0x8C379A000000000000000000000000000000000000000000000000000000000 DUP2 MSTORE PUSH1 0x4 ADD PUSH2 0x13C6 SWAP1 PUSH2 0x39B8 JUMP JUMPDEST PUSH1 0x40 MLOAD DUP1 SWAP2 SUB SWAP1 REVERT JUMPDEST PUSH1 0xD PUSH1 0x0 SWAP1 SLOAD SWAP1 PUSH2 0x100 EXP SWAP1 DIV PUSH1 0xFF AND ISZERO PUSH2 0x141F JUMPI PUSH1 0x40 MLOAD PUSH32 0x8C379A000000000000000000000000000000000000000000000000000000000 DUP2 MSTORE PUSH1 0x4 ADD PUSH2 0x1416 SWAP1 PUSH2 0x3A24 JUMP JUMPDEST PUSH1 0x40 MLOAD DUP1 SWAP2 SUB SWAP1 REVERT JUMPDEST PUSH1 0x2 SLOAD CALLVALUE EQ PUSH2 0x1463 JUMPI PUSH1 0x40 MLOAD PUSH32 0x8C379A000000000000000000000000000000000000000000000000000000000 DUP2 MSTORE PUSH1 0x4 ADD PUSH2 0x145A SWAP1 PUSH2 0x3AB6 JUMP JUMPDEST PUSH1 0x40 MLOAD DUP1 SWAP2 SUB SWAP1 REVERT JUMPDEST PUSH1 0x1 PUSH1 0xD PUSH1 0x1 PUSH2 0x100 EXP DUP2 SLOAD DUP2 PUSH1 0xFF MUL NOT AND SWAP1 DUP4 ISZERO ISZERO MUL OR SWAP1 SSTORE POP PUSH32 0x486AC935CF1EA9EFFD9E0A261BC42917B45F2FD45CC98DEF2BC34D47F216937C CALLVALUE PUSH1 0x40 MLOAD PUSH2 0x14AD SWAP2 SWAP1 PUSH2 0x2F11 JUMP JUMPDEST PUSH1 0x40 MLOAD DUP1 SWAP2 SUB SWAP1 LOG1 JUMP JUMPDEST PUSH1 0xD PUSH1 0x7 SWAP1 SLOAD SWAP1 PUSH2 0x100 EXP SWAP1 DIV PUSH1 0xFF AND DUP2 JUMP JUMPDEST PUSH1 0x5 SLOAD DUP2 JUMP JUMPDEST PUSH1 0xD PUSH1 0x5 SWAP1 SLOAD SWAP1 PUSH2 0x100 EXP SWAP1 DIV PUSH1 0xFF AND DUP2 JUMP JUMPDEST PUSH1 0xD PUSH1 0x8 SWAP1 SLOAD SWAP1 PUSH2 0x100 EXP SWAP1 DIV PUSH20 0xFFFFFFFFFFFFFFFFFFFFFFFFFFFFFFFFFFFFFFFF AND DUP2 JUMP JUMPDEST PUSH1 0x0 PUSH1 0xD PUSH1 0x8 SWAP1 SLOAD SWAP1 PUSH2 0x100 EXP SWAP1 DIV PUSH20 0xFFFFFFFFFFFFFFFFFFFFFFFFFFFFFFFFFFFFFFFF AND PUSH20 0xFFFFFFFFFFFFFFFFFFFFFFFFFFFFFFFFFFFFFFFF AND PUSH4 0xF7434EA9 PUSH1 0x40 MLOAD DUP2 PUSH4 0xFFFFFFFF AND PUSH1 0xE0 SHL DUP2 MSTORE PUSH1 0x4 ADD PUSH2 0x1564 SWAP1 PUSH2 0x34D3 JUMP JUMPDEST PUSH1 0x20 PUSH1 0x40 MLOAD DUP1 DUP4 SUB DUP2 DUP7 GAS STATICCALL ISZERO DUP1 ISZERO PUSH2 0x1581 JUMPI RETURNDATASIZE PUSH1 0x0 DUP1 RETURNDATACOPY RETURNDATASIZE PUSH1 0x0 REVERT JUMPDEST POP POP POP POP PUSH1 0x40 MLOAD RETURNDATASIZE PUSH1 0x1F NOT PUSH1 0x1F DUP3 ADD AND DUP3 ADD DUP1 PUSH1 0x40 MSTORE POP DUP2 ADD SWAP1 PUSH2 0x15A5 SWAP2 SWAP1 PUSH2 0x3508 JUMP JUMPDEST SWAP1 POP SWAP1 JUMP JUMPDEST PUSH1 0xD PUSH1 0x4 SWAP1 SLOAD SWAP1 PUSH2 0x100 EXP SWAP1 DIV PUSH1 0xFF AND DUP2 JUMP JUMPDEST PUSH1 0xC SLOAD DUP2 JUMP JUMPDEST PUSH1 0x7 SLOAD DUP2 JUMP JUMPDEST PUSH1 0x0 SELFBALANCE SWAP1 POP SWAP1 JUMP JUMPDEST PUSH1 0xD PUSH1 0x6 SWAP1 SLOAD SWAP1 PUSH2 0x100 EXP SWAP1 DIV PUSH1 0xFF AND DUP2 JUMP JUMPDEST PUSH1 0x0 PUSH1 0xF PUSH1 0x0 PUSH1 0x1 PUSH1 0x0 SWAP1 SLOAD SWAP1 PUSH2 0x100 EXP SWAP1 DIV PUSH20 0xFFFFFFFFFFFFFFFFFFFFFFFFFFFFFFFFFFFFFFFF AND PUSH20 0xFFFFFFFFFFFFFFFFFFFFFFFFFFFFFFFFFFFFFFFF AND PUSH20 0xFFFFFFFFFFFFFFFFFFFFFFFFFFFFFFFFFFFFFFFF AND DUP2 MSTORE PUSH1 0x20 ADD SWAP1 DUP2 MSTORE PUSH1 0x20 ADD PUSH1 0x0 KECCAK256 SLOAD SWAP1 POP SWAP1 JUMP JUMPDEST PUSH1 0x0 PUSH1 0xB SLOAD SWAP1 POP SWAP1 JUMP JUMPDEST PUSH1 0x0 DUP1 SLOAD SWAP1 PUSH2 0x100 EXP SWAP1 DIV PUSH20 0xFFFFFFFFFFFFFFFFFFFFFFFFFFFFFFFFFFFFFFFF AND PUSH20 0xFFFFFFFFFFFFFFFFFFFFFFFFFFFFFFFFFFFFFFFF AND CALLER PUSH20 0xFFFFFFFFFFFFFFFFFFFFFFFFFFFFFFFFFFFFFFFF AND EQ PUSH2 0x16E5 JUMPI PUSH1 0x40 MLOAD PUSH32 0x8C379A000000000000000000000000000000000000000000000000000000000 DUP2 MSTORE PUSH1 0x4 ADD PUSH2 0x16DC SWAP1 PUSH2 0x3B48 JUMP JUMPDEST PUSH1 0x40 MLOAD DUP1 SWAP2 SUB SWAP1 REVERT JUMPDEST PUSH1 0xD PUSH1 0x0 SWAP1 SLOAD SWAP1 PUSH2 0x100 EXP SWAP1 DIV PUSH1 0xFF AND PUSH2 0x1734 JUMPI PUSH1 0x40 MLOAD PUSH32 0x8C379A000000000000000000000000000000000000000000000000000000000 DUP2 MSTORE PUSH1 0x4 ADD PUSH2 0x172B SWAP1 PUSH2 0x3358 JUMP JUMPDEST PUSH1 0x40 MLOAD DUP1 SWAP2 SUB SWAP1 REVERT JUMPDEST PUSH1 0x4 SLOAD PUSH1 0x6 SLOAD GT ISZERO PUSH2 0x177B JUMPI PUSH1 0x40 MLOAD PUSH32 0x8C379A000000000000000000000000000000000000000000000000000000000 DUP2 MSTORE PUSH1 0x4 ADD PUSH2 0x1772 SWAP1 PUSH2 0x3BB4 JUMP JUMPDEST PUSH1 0x40 MLOAD DUP1 SWAP2 SUB SWAP1 REVERT JUMPDEST DUP1 PUSH1 0xE PUSH1 0x0 PUSH1 0x6 SLOAD DUP2 MSTORE PUSH1 0x20 ADD SWAP1 DUP2 MSTORE PUSH1 0x20 ADD PUSH1 0x0 KECCAK256 PUSH1 0x1 ADD DUP2 SWAP1 SSTORE POP PUSH1 0x3 SLOAD PUSH1 0xE PUSH1 0x0 PUSH1 0x6 SLOAD DUP2 MSTORE PUSH1 0x20 ADD SWAP1 DUP2 MSTORE PUSH1 0x20 ADD PUSH1 0x0 KECCAK256 PUSH1 0x0 ADD DUP2 SWAP1 SSTORE POP PUSH32 0xF75D23E75691B7209BF24071476B3702A8412A369B26FD3AD012D19630F65A2B PUSH1 0x6 SLOAD DUP3 PUSH1 0x40 MLOAD PUSH2 0x17EA SWAP3 SWAP2 SWAP1 PUSH2 0x3802 JUMP JUMPDEST PUSH1 0x40 MLOAD DUP1 SWAP2 SUB SWAP1 LOG1 POP JUMP JUMPDEST PUSH1 0x9 SLOAD DUP2 JUMP JUMPDEST PUSH1 0x6 SLOAD DUP2 JUMP JUMPDEST PUSH1 0x4 SLOAD DUP2 JUMP JUMPDEST PUSH1 0x0 DUP1 SLOAD SWAP1 PUSH2 0x100 EXP SWAP1 DIV PUSH20 0xFFFFFFFFFFFFFFFFFFFFFFFFFFFFFFFFFFFFFFFF AND PUSH20 0xFFFFFFFFFFFFFFFFFFFFFFFFFFFFFFFFFFFFFFFF AND CALLER PUSH20 0xFFFFFFFFFFFFFFFFFFFFFFFFFFFFFFFFFFFFFFFF AND EQ PUSH2 0x1895 JUMPI PUSH1 0x40 MLOAD PUSH32 0x8C379A000000000000000000000000000000000000000000000000000000000 DUP2 MSTORE PUSH1 0x4 ADD PUSH2 0x188C SWAP1 PUSH2 0x3C46 JUMP JUMPDEST PUSH1 0x40 MLOAD DUP1 SWAP2 SUB SWAP1 REVERT JUMPDEST PUSH1 0xD PUSH1 0x1 SWAP1 SLOAD SWAP1 PUSH2 0x100 EXP SWAP1 DIV PUSH1 0xFF AND PUSH2 0x18E4 JUMPI PUSH1 0x40 MLOAD PUSH32 0x8C379A000000000000000000000000000000000000000000000000000000000 DUP2 MSTORE PUSH1 0x4 ADD PUSH2 0x18DB SWAP1 PUSH2 0x3CD8 JUMP JUMPDEST PUSH1 0x40 MLOAD DUP1 SWAP2 SUB SWAP1 REVERT JUMPDEST PUSH1 0xD PUSH1 0x0 SWAP1 SLOAD SWAP1 PUSH2 0x100 EXP SWAP1 DIV PUSH1 0xFF AND ISZERO PUSH2 0x1934 JUMPI PUSH1 0x40 MLOAD PUSH32 0x8C379A000000000000000000000000000000000000000000000000000000000 DUP2 MSTORE PUSH1 0x4 ADD PUSH2 0x192B SWAP1 PUSH2 0x3A24 JUMP JUMPDEST PUSH1 0x40 MLOAD DUP1 SWAP2 SUB SWAP1 REVERT JUMPDEST PUSH1 0x1 PUSH1 0xD PUSH1 0x0 PUSH2 0x100 EXP DUP2 SLOAD DUP2 PUSH1 0xFF MUL NOT AND SWAP1 DUP4 ISZERO ISZERO MUL OR SWAP1 SSTORE POP TIMESTAMP PUSH1 0x5 DUP2 SWAP1 SSTORE POP PUSH1 0x1 PUSH1 0x6 DUP2 SWAP1 SSTORE POP JUMP JUMPDEST PUSH1 0x1 PUSH1 0x0 SWAP1 SLOAD SWAP1 PUSH2 0x100 EXP SWAP1 DIV PUSH20 0xFFFFFFFFFFFFFFFFFFFFFFFFFFFFFFFFFFFFFFFF AND PUSH20 0xFFFFFFFFFFFFFFFFFFFFFFFFFFFFFFFFFFFFFFFF AND CALLER PUSH20 0xFFFFFFFFFFFFFFFFFFFFFFFFFFFFFFFFFFFFFFFF AND EQ PUSH2 0x19F0 JUMPI PUSH1 0x40 MLOAD PUSH32 0x8C379A000000000000000000000000000000000000000000000000000000000 DUP2 MSTORE PUSH1 0x4 ADD PUSH2 0x19E7 SWAP1 PUSH2 0x3D44 JUMP JUMPDEST PUSH1 0x40 MLOAD DUP1 SWAP2 SUB SWAP1 REVERT JUMPDEST PUSH1 0xD PUSH1 0x0 SWAP1 SLOAD SWAP1 PUSH2 0x100 EXP SWAP1 DIV PUSH1 0xFF AND PUSH2 0x1A3F JUMPI PUSH1 0x40 MLOAD PUSH32 0x8C379A000000000000000000000000000000000000000000000000000000000 DUP2 MSTORE PUSH1 0x4 ADD PUSH2 0x1A36 SWAP1 PUSH2 0x3358 JUMP JUMPDEST PUSH1 0x40 MLOAD DUP1 SWAP2 SUB SWAP1 REVERT JUMPDEST PUSH1 0x4 SLOAD PUSH1 0x6 SLOAD GT ISZERO PUSH2 0x1A86 JUMPI PUSH1 0x40 MLOAD PUSH32 0x8C379A000000000000000000000000000000000000000000000000000000000 DUP2 MSTORE PUSH1 0x4 ADD PUSH2 0x1A7D SWAP1 PUSH2 0x3BB4 JUMP JUMPDEST PUSH1 0x40 MLOAD DUP1 SWAP2 SUB SWAP1 REVERT JUMPDEST PUSH1 0x0 PUSH1 0xE PUSH1 0x0 PUSH1 0x6 SLOAD DUP2 MSTORE PUSH1 0x20 ADD SWAP1 DUP2 MSTORE PUSH1 0x20 ADD PUSH1 0x0 KECCAK256 SWAP1 POP DUP1 PUSH1 0x3 ADD PUSH1 0x0 SWAP1 SLOAD SWAP1 PUSH2 0x100 EXP SWAP1 DIV PUSH1 0xFF AND ISZERO PUSH2 0x1AF1 JUMPI PUSH1 0x40 MLOAD PUSH32 0x8C379A000000000000000000000000000000000000000000000000000000000 DUP2 MSTORE PUSH1 0x4 ADD PUSH2 0x1AE8 SWAP1 PUSH2 0x3DD6 JUMP JUMPDEST PUSH1 0x40 MLOAD DUP1 SWAP2 SUB SWAP1 REVERT JUMPDEST PUSH1 0x0 DUP2 PUSH1 0x1 ADD SLOAD GT PUSH2 0x1B38 JUMPI PUSH1 0x40 MLOAD PUSH32 0x8C379A000000000000000000000000000000000000000000000000000000000 DUP2 MSTORE PUSH1 0x4 ADD PUSH2 0x1B2F SWAP1 PUSH2 0x3E68 JUMP JUMPDEST PUSH1 0x40 MLOAD DUP1 SWAP2 SUB SWAP1 REVERT JUMPDEST PUSH1 0x0 PUSH1 0x7 SLOAD DUP3 PUSH1 0x1 ADD SLOAD DUP4 PUSH1 0x0 ADD SLOAD PUSH2 0x1B51 SWAP2 SWAP1 PUSH2 0x37CE JUMP JUMPDEST PUSH2 0x1B5B SWAP2 SWAP1 PUSH2 0x37CE JUMP JUMPDEST SWAP1 POP DUP1 CALLVALUE EQ PUSH2 0x1B9F JUMPI PUSH1 0x40 MLOAD PUSH32 0x8C379A000000000000000000000000000000000000000000000000000000000 DUP2 MSTORE PUSH1 0x4 ADD PUSH2 0x1B96 SWAP1 PUSH2 0x3ED4 JUMP JUMPDEST PUSH1 0x40 MLOAD DUP1 SWAP2 SUB SWAP1 REVERT JUMPDEST PUSH1 0x1 DUP3 PUSH1 0x3 ADD PUSH1 0x0 PUSH2 0x100 EXP DUP2 SLOAD DUP2 PUSH1 0xFF MUL NOT AND SWAP1 DUP4 ISZERO ISZERO MUL OR SWAP1 SSTORE POP PUSH1 0x0 PUSH1 0x7 DUP2 SWAP1 SSTORE POP PUSH32 0xA0D112ED080C1B1A94B838AD981A23746BE2A4670FD4BF157224E72CDD5DFDDE PUSH1 0x6 SLOAD DUP3 PUSH1 0x40 MLOAD PUSH2 0x1BF7 SWAP3 SWAP2 SWAP1 PUSH2 0x3802 JUMP JUMPDEST PUSH1 0x40 MLOAD DUP1 SWAP2 SUB SWAP1 LOG1 DUP1 PUSH1 0xF PUSH1 0x0 DUP1 PUSH1 0x0 SWAP1 SLOAD SWAP1 PUSH2 0x100 EXP SWAP1 DIV PUSH20 0xFFFFFFFFFFFFFFFFFFFFFFFFFFFFFFFFFFFFFFFF AND PUSH20 0xFFFFFFFFFFFFFFFFFFFFFFFFFFFFFFFFFFFFFFFF AND PUSH20 0xFFFFFFFFFFFFFFFFFFFFFFFFFFFFFFFFFFFFFFFF AND DUP2 MSTORE PUSH1 0x20 ADD SWAP1 DUP2 MSTORE PUSH1 0x20 ADD PUSH1 0x0 KECCAK256 PUSH1 0x0 DUP3 DUP3 SLOAD PUSH2 0x1C6F SWAP2 SWAP1 PUSH2 0x37CE JUMP JUMPDEST SWAP3 POP POP DUP2 SWAP1 SSTORE POP PUSH1 0x0 DUP1 SLOAD SWAP1 PUSH2 0x100 EXP SWAP1 DIV PUSH20 0xFFFFFFFFFFFFFFFFFFFFFFFFFFFFFFFFFFFFFFFF AND PUSH20 0xFFFFFFFFFFFFFFFFFFFFFFFFFFFFFFFFFFFFFFFF AND PUSH32 0xE670E4E82118D22A1F9EE18920455EBC958BAE26A90A05D31D3378788B1B0E44 DUP3 PUSH1 0x40 MLOAD PUSH2 0x1CDC SWAP2 SWAP1 PUSH2 0x2F11 JUMP JUMPDEST PUSH1 0x40 MLOAD DUP1 SWAP2 SUB SWAP1 LOG2 PUSH1 0x4 SLOAD PUSH1 0x6 SLOAD SUB PUSH2 0x1D0F JUMPI PUSH1 0x1 PUSH1 0xD PUSH1 0x5 PUSH2 0x100 EXP DUP2 SLOAD DUP2 PUSH1 0xFF MUL NOT AND SWAP1 DUP4 ISZERO ISZERO MUL OR SWAP1 SSTORE POP PUSH2 0x1D28 JUMP JUMPDEST PUSH1 0x6 PUSH1 0x0 DUP2 SLOAD DUP1 SWAP3 SWAP2 SWAP1 PUSH2 0x1D22 SWAP1 PUSH2 0x3EF4 JUMP JUMPDEST SWAP2 SWAP1 POP SSTORE POP JUMPDEST POP POP JUMP JUMPDEST PUSH1 0x0 DUP1 SLOAD SWAP1 PUSH2 0x100 EXP SWAP1 DIV PUSH20 0xFFFFFFFFFFFFFFFFFFFFFFFFFFFFFFFFFFFFFFFF AND PUSH20 0xFFFFFFFFFFFFFFFFFFFFFFFFFFFFFFFFFFFFFFFF AND CALLER PUSH20 0xFFFFFFFFFFFFFFFFFFFFFFFFFFFFFFFFFFFFFFFF AND EQ PUSH2 0x1DBA JUMPI PUSH1 0x40 MLOAD PUSH32 0x8C379A000000000000000000000000000000000000000000000000000000000 DUP2 MSTORE PUSH1 0x4 ADD PUSH2 0x1DB1 SWAP1 PUSH2 0x3FAE JUMP JUMPDEST PUSH1 0x40 MLOAD DUP1 SWAP2 SUB SWAP1 REVERT JUMPDEST PUSH1 0xD PUSH1 0x0 SWAP1 SLOAD SWAP1 PUSH2 0x100 EXP SWAP1 DIV PUSH1 0xFF AND PUSH2 0x1E09 JUMPI PUSH1 0x40 MLOAD PUSH32 0x8C379A000000000000000000000000000000000000000000000000000000000 DUP2 MSTORE PUSH1 0x4 ADD PUSH2 0x1E00 SWAP1 PUSH2 0x401A JUMP JUMPDEST PUSH1 0x40 MLOAD DUP1 SWAP2 SUB SWAP1 REVERT JUMPDEST PUSH1 0x0 PUSH1 0xB SLOAD EQ PUSH2 0x1E4E JUMPI PUSH1 0x40 MLOAD PUSH32 0x8C379A000000000000000000000000000000000000000000000000000000000 DUP2 MSTORE PUSH1 0x4 ADD PUSH2 0x1E45 SWAP1 PUSH2 0x40AC JUMP JUMPDEST PUSH1 0x40 MLOAD DUP1 SWAP2 SUB SWAP1 REVERT JUMPDEST PUSH1 0x2 SLOAD PUSH1 0xB DUP2 SWAP1 SSTORE POP JUMP JUMPDEST PUSH1 0xA SLOAD DUP2 JUMP JUMPDEST PUSH1 0xD PUSH1 0x3 SWAP1 SLOAD SWAP1 PUSH2 0x100 EXP SWAP1 DIV PUSH1 0xFF AND DUP2 JUMP JUMPDEST PUSH1 0x1 PUSH1 0x0 SWAP1 SLOAD SWAP1 PUSH2 0x100 EXP SWAP1 DIV PUSH20 0xFFFFFFFFFFFFFFFFFFFFFFFFFFFFFFFFFFFFFFFF AND PUSH20 0xFFFFFFFFFFFFFFFFFFFFFFFFFFFFFFFFFFFFFFFF AND CALLER PUSH20 0xFFFFFFFFFFFFFFFFFFFFFFFFFFFFFFFFFFFFFFFF AND EQ PUSH2 0x1F02 JUMPI PUSH1 0x40 MLOAD PUSH32 0x8C379A000000000000000000000000000000000000000000000000000000000 DUP2 MSTORE PUSH1 0x4 ADD PUSH2 0x1EF9 SWAP1 PUSH2 0x413E JUMP JUMPDEST PUSH1 0x40 MLOAD DUP1 SWAP2 SUB SWAP1 REVERT JUMPDEST PUSH1 0xD PUSH1 0x6 SWAP1 SLOAD SWAP1 PUSH2 0x100 EXP SWAP1 DIV PUSH1 0xFF AND PUSH2 0x1F51 JUMPI PUSH1 0x40 MLOAD PUSH32 0x8C379A000000000000000000000000000000000000000000000000000000000 DUP2 MSTORE PUSH1 0x4 ADD PUSH2 0x1F48 SWAP1 PUSH2 0x41D0 JUMP JUMPDEST PUSH1 0x40 MLOAD DUP1 SWAP2 SUB SWAP1 REVERT JUMPDEST DUP1 PUSH1 0x9 DUP2 SWAP1 SSTORE POP PUSH1 0x1 PUSH1 0xD PUSH1 0x7 PUSH2 0x100 EXP DUP2 SLOAD DUP2 PUSH1 0xFF MUL NOT AND SWAP1 DUP4 ISZERO ISZERO MUL OR SWAP1 SSTORE POP PUSH32 0xF2792B28C50F2F7EECE39E74A2B4F0F1CE15A79ACB72DD811686E827AED030B DUP2 PUSH1 0x40 MLOAD PUSH2 0x1FA2 SWAP2 SWAP1 PUSH2 0x2F11 JUMP JUMPDEST PUSH1 0x40 MLOAD DUP1 SWAP2 SUB SWAP1 LOG1 POP JUMP JUMPDEST PUSH1 0x1 PUSH1 0x0 SWAP1 SLOAD SWAP1 PUSH2 0x100 EXP SWAP1 DIV PUSH20 0xFFFFFFFFFFFFFFFFFFFFFFFFFFFFFFFFFFFFFFFF AND PUSH20 0xFFFFFFFFFFFFFFFFFFFFFFFFFFFFFFFFFFFFFFFF AND CALLER PUSH20 0xFFFFFFFFFFFFFFFFFFFFFFFFFFFFFFFFFFFFFFFF AND EQ PUSH2 0x203D JUMPI PUSH1 0x40 MLOAD PUSH32 0x8C379A000000000000000000000000000000000000000000000000000000000 DUP2 MSTORE PUSH1 0x4 ADD PUSH2 0x2034 SWAP1 PUSH2 0x4262 JUMP JUMPDEST PUSH1 0x40 MLOAD DUP1 SWAP2 SUB SWAP1 REVERT JUMPDEST PUSH1 0xD PUSH1 0x0 SWAP1 SLOAD SWAP1 PUSH2 0x100 EXP SWAP1 DIV PUSH1 0xFF AND PUSH2 0x208C JUMPI PUSH1 0x40 MLOAD PUSH32 0x8C379A000000000000000000000000000000000000000000000000000000000 DUP2 MSTORE PUSH1 0x4 ADD PUSH2 0x2083 SWAP1 PUSH2 0x3358 JUMP JUMPDEST PUSH1 0x40 MLOAD DUP1 SWAP2 SUB SWAP1 REVERT JUMPDEST PUSH1 0x4 SLOAD PUSH1 0x6 SLOAD GT ISZERO PUSH2 0x20D3 JUMPI PUSH1 0x40 MLOAD PUSH32 0x8C379A000000000000000000000000000000000000000000000000000000000 DUP2 MSTORE PUSH1 0x4 ADD PUSH2 0x20CA SWAP1 PUSH2 0x3BB4 JUMP JUMPDEST PUSH1 0x40 MLOAD DUP1 SWAP2 SUB SWAP1 REVERT JUMPDEST PUSH1 0x0 PUSH1 0xE PUSH1 0x0 PUSH1 0x6 SLOAD DUP2 MSTORE PUSH1 0x20 ADD SWAP1 DUP2 MSTORE PUSH1 0x20 ADD PUSH1 0x0 KECCAK256 SWAP1 POP DUP1 PUSH1 0x3 ADD PUSH1 0x0 SWAP1 SLOAD SWAP1 PUSH2 0x100 EXP SWAP1 DIV PUSH1 0xFF AND ISZERO PUSH2 0x213E JUMPI PUSH1 0x40 MLOAD PUSH32 0x8C379A000000000000000000000000000000000000000000000000000000000 DUP2 MSTORE PUSH1 0x4 ADD PUSH2 0x2135 SWAP1 PUSH2 0x3DD6 JUMP JUMPDEST PUSH1 0x40 MLOAD DUP1 SWAP2 SUB SWAP1 REVERT JUMPDEST PUSH1 0x0 DUP2 PUSH1 0x1 ADD SLOAD GT PUSH2 0x2185 JUMPI PUSH1 0x40 MLOAD PUSH32 0x8C379A000000000000000000000000000000000000000000000000000000000 DUP2 MSTORE PUSH1 0x4 ADD PUSH2 0x217C SWAP1 PUSH2 0x3E68 JUMP JUMPDEST PUSH1 0x40 MLOAD DUP1 SWAP2 SUB SWAP1 REVERT JUMPDEST PUSH1 0x0 DUP2 PUSH1 0x1 ADD SLOAD DUP3 PUSH1 0x0 ADD SLOAD PUSH2 0x219B SWAP2 SWAP1 PUSH2 0x37CE JUMP JUMPDEST SWAP1 POP DUP1 PUSH1 0x7 PUSH1 0x0 DUP3 DUP3 SLOAD PUSH2 0x21AF SWAP2 SWAP1 PUSH2 0x37CE JUMP JUMPDEST SWAP3 POP POP DUP2 SWAP1 SSTORE POP PUSH32 0x9EA3A4B65940D7B9DBF8BB1C459BA8E81222D1A596E93FBC364365A6D78E27D6 PUSH1 0x6 SLOAD DUP3 PUSH1 0x40 MLOAD PUSH2 0x21E9 SWAP3 SWAP2 SWAP1 PUSH2 0x3802 JUMP JUMPDEST PUSH1 0x40 MLOAD DUP1 SWAP2 SUB SWAP1 LOG1 PUSH1 0x4 SLOAD PUSH1 0x6 SLOAD SUB PUSH2 0x2209 JUMPI PUSH2 0x2204 PUSH2 0x2D54 JUMP JUMPDEST PUSH2 0x2222 JUMP JUMPDEST PUSH1 0x6 PUSH1 0x0 DUP2 SLOAD DUP1 SWAP3 SWAP2 SWAP1 PUSH2 0x221C SWAP1 PUSH2 0x3EF4 JUMP JUMPDEST SWAP2 SWAP1 POP SSTORE POP JUMPDEST POP POP JUMP JUMPDEST PUSH1 0x0 PUSH1 0xD PUSH1 0x5 SWAP1 SLOAD SWAP1 PUSH2 0x100 EXP SWAP1 DIV PUSH1 0xFF AND SWAP1 POP SWAP1 JUMP JUMPDEST PUSH1 0xB SLOAD DUP2 JUMP JUMPDEST PUSH1 0x0 DUP1 SLOAD SWAP1 PUSH2 0x100 EXP SWAP1 DIV PUSH20 0xFFFFFFFFFFFFFFFFFFFFFFFFFFFFFFFFFFFFFFFF AND PUSH20 0xFFFFFFFFFFFFFFFFFFFFFFFFFFFFFFFFFFFFFFFF AND CALLER PUSH20 0xFFFFFFFFFFFFFFFFFFFFFFFFFFFFFFFFFFFFFFFF AND EQ PUSH2 0x22D1 JUMPI PUSH1 0x40 MLOAD PUSH32 0x8C379A000000000000000000000000000000000000000000000000000000000 DUP2 MSTORE PUSH1 0x4 ADD PUSH2 0x22C8 SWAP1 PUSH2 0x42F4 JUMP JUMPDEST PUSH1 0x40 MLOAD DUP1 SWAP2 SUB SWAP1 REVERT JUMPDEST PUSH1 0xD PUSH1 0x0 SWAP1 SLOAD SWAP1 PUSH2 0x100 EXP SWAP1 DIV PUSH1 0xFF AND ISZERO PUSH2 0x2321 JUMPI PUSH1 0x40 MLOAD PUSH32 0x8C379A000000000000000000000000000000000000000000000000000000000 DUP2 MSTORE PUSH1 0x4 ADD PUSH2 0x2318 SWAP1 PUSH2 0x3A24 JUMP JUMPDEST PUSH1 0x40 MLOAD DUP1 SWAP2 SUB SWAP1 REVERT JUMPDEST DUP3 PUSH1 0x2 DUP2 SWAP1 SSTORE POP DUP2 PUSH1 0x3 DUP2 SWAP1 SSTORE POP DUP1 PUSH1 0x4 DUP2 SWAP1 SSTORE POP PUSH32 0x2F47566D4872826A9750E05AE448AD21F2A677C332D36D6437B697A7F8DD1E14 DUP4 DUP4 DUP4 PUSH1 0x40 MLOAD PUSH2 0x2369 SWAP4 SWAP3 SWAP2 SWAP1 PUSH2 0x4314 JUMP JUMPDEST PUSH1 0x40 MLOAD DUP1 SWAP2 SUB SWAP1 LOG1 POP POP POP JUMP JUMPDEST PUSH1 0x0 DUP1 SLOAD SWAP1 PUSH2 0x100 EXP SWAP1 DIV PUSH20 0xFFFFFFFFFFFFFFFFFFFFFFFFFFFFFFFFFFFFFFFF AND DUP2 JUMP JUMPDEST PUSH1 0x1 PUSH1 0x0 SWAP1 SLOAD SWAP1 PUSH2 0x100 EXP SWAP1 DIV PUSH20 0xFFFFFFFFFFFFFFFFFFFFFFFFFFFFFFFFFFFFFFFF AND PUSH20 0xFFFFFFFFFFFFFFFFFFFFFFFFFFFFFFFFFFFFFFFF AND CALLER PUSH20 0xFFFFFFFFFFFFFFFFFFFFFFFFFFFFFFFFFFFFFFFF AND EQ PUSH2 0x242A JUMPI PUSH1 0x40 MLOAD PUSH32 0x8C379A000000000000000000000000000000000000000000000000000000000 DUP2 MSTORE PUSH1 0x4 ADD PUSH2 0x2421 SWAP1 PUSH2 0x43BD JUMP JUMPDEST PUSH1 0x40 MLOAD DUP1 SWAP2 SUB SWAP1 REVERT JUMPDEST PUSH1 0xD PUSH1 0x6 SWAP1 SLOAD SWAP1 PUSH2 0x100 EXP SWAP1 DIV PUSH1 0xFF AND PUSH2 0x2479 JUMPI PUSH1 0x40 MLOAD PUSH32 0x8C379A000000000000000000000000000000000000000000000000000000000 DUP2 MSTORE PUSH1 0x4 ADD PUSH2 0x2470 SWAP1 PUSH2 0x41D0 JUMP JUMPDEST PUSH1 0x40 MLOAD DUP1 SWAP2 SUB SWAP1 REVERT JUMPDEST PUSH32 0x214F96452FC3FDFD5EEAFDA7F5DF5B6066F4F8AC1295FB53CD051491B9B56DA3 PUSH1 0x40 MLOAD PUSH1 0x40 MLOAD DUP1 SWAP2 SUB SWAP1 LOG1 JUMP JUMPDEST PUSH1 0x1 PUSH1 0x0 SWAP1 SLOAD SWAP1 PUSH2 0x100 EXP SWAP1 DIV PUSH20 0xFFFFFFFFFFFFFFFFFFFFFFFFFFFFFFFFFFFFFFFF AND PUSH20 0xFFFFFFFFFFFFFFFFFFFFFFFFFFFFFFFFFFFFFFFF AND CALLER PUSH20 0xFFFFFFFFFFFFFFFFFFFFFFFFFFFFFFFFFFFFFFFF AND EQ PUSH2 0x2537 JUMPI PUSH1 0x40 MLOAD PUSH32 0x8C379A000000000000000000000000000000000000000000000000000000000 DUP2 MSTORE PUSH1 0x4 ADD PUSH2 0x252E SWAP1 PUSH2 0x444F JUMP JUMPDEST PUSH1 0x40 MLOAD DUP1 SWAP2 SUB SWAP1 REVERT JUMPDEST PUSH1 0xD PUSH1 0x6 SWAP1 SLOAD SWAP1 PUSH2 0x100 EXP SWAP1 DIV PUSH1 0xFF AND PUSH2 0x2586 JUMPI PUSH1 0x40 MLOAD PUSH32 0x8C379A000000000000000000000000000000000000000000000000000000000 DUP2 MSTORE PUSH1 0x4 ADD PUSH2 0x257D SWAP1 PUSH2 0x41D0 JUMP JUMPDEST PUSH1 0x40 MLOAD DUP1 SWAP2 SUB SWAP1 REVERT JUMPDEST PUSH1 0x0 PUSH1 0x2 SLOAD PUSH1 0x8 SLOAD LT PUSH2 0x259B JUMPI PUSH1 0x2 SLOAD PUSH2 0x259F JUMP JUMPDEST PUSH1 0x8 SLOAD JUMPDEST SWAP1 POP DUP1 PUSH1 0xF PUSH1 0x0 DUP1 PUSH1 0x0 SWAP1 SLOAD SWAP1 PUSH2 0x100 EXP SWAP1 DIV PUSH20 0xFFFFFFFFFFFFFFFFFFFFFFFFFFFFFFFFFFFFFFFF AND PUSH20 0xFFFFFFFFFFFFFFFFFFFFFFFFFFFFFFFFFFFFFFFF AND PUSH20 0xFFFFFFFFFFFFFFFFFFFFFFFFFFFFFFFFFFFFFFFF AND DUP2 MSTORE PUSH1 0x20 ADD SWAP1 DUP2 MSTORE PUSH1 0x20 ADD PUSH1 0x0 KECCAK256 PUSH1 0x0 DUP3 DUP3 SLOAD PUSH2 0x2611 SWAP2 SWAP1 PUSH2 0x37CE JUMP JUMPDEST SWAP3 POP POP DUP2 SWAP1 SSTORE POP DUP1 PUSH1 0x2 SLOAD PUSH2 0x2626 SWAP2 SWAP1 PUSH2 0x35F6 JUMP JUMPDEST PUSH1 0xF PUSH1 0x0 PUSH1 0x1 PUSH1 0x0 SWAP1 SLOAD SWAP1 PUSH2 0x100 EXP SWAP1 DIV PUSH20 0xFFFFFFFFFFFFFFFFFFFFFFFFFFFFFFFFFFFFFFFF AND PUSH20 0xFFFFFFFFFFFFFFFFFFFFFFFFFFFFFFFFFFFFFFFF AND PUSH20 0xFFFFFFFFFFFFFFFFFFFFFFFFFFFFFFFFFFFFFFFF AND DUP2 MSTORE PUSH1 0x20 ADD SWAP1 DUP2 MSTORE PUSH1 0x20 ADD PUSH1 0x0 KECCAK256 PUSH1 0x0 DUP3 DUP3 SLOAD PUSH2 0x2696 SWAP2 SWAP1 PUSH2 0x37CE JUMP JUMPDEST SWAP3 POP POP DUP2 SWAP1 SSTORE POP PUSH1 0x0 DUP1 SLOAD SWAP1 PUSH2 0x100 EXP SWAP1 DIV PUSH20 0xFFFFFFFFFFFFFFFFFFFFFFFFFFFFFFFFFFFFFFFF AND PUSH20 0xFFFFFFFFFFFFFFFFFFFFFFFFFFFFFFFFFFFFFFFF AND PUSH32 0xE670E4E82118D22A1F9EE18920455EBC958BAE26A90A05D31D3378788B1B0E44 DUP3 PUSH1 0x40 MLOAD PUSH2 0x2703 SWAP2 SWAP1 PUSH2 0x2F11 JUMP JUMPDEST PUSH1 0x40 MLOAD DUP1 SWAP2 SUB SWAP1 LOG2 PUSH1 0x1 PUSH1 0x0 SWAP1 SLOAD SWAP1 PUSH2 0x100 EXP SWAP1 DIV PUSH20 0xFFFFFFFFFFFFFFFFFFFFFFFFFFFFFFFFFFFFFFFF AND PUSH20 0xFFFFFFFFFFFFFFFFFFFFFFFFFFFFFFFFFFFFFFFF AND PUSH32 0xE670E4E82118D22A1F9EE18920455EBC958BAE26A90A05D31D3378788B1B0E44 DUP3 PUSH1 0x2 SLOAD PUSH2 0x2773 SWAP2 SWAP1 PUSH2 0x35F6 JUMP JUMPDEST PUSH1 0x40 MLOAD PUSH2 0x2780 SWAP2 SWAP1 PUSH2 0x2F11 JUMP JUMPDEST PUSH1 0x40 MLOAD DUP1 SWAP2 SUB SWAP1 LOG2 PUSH1 0x0 PUSH1 0xD PUSH1 0x0 PUSH2 0x100 EXP DUP2 SLOAD DUP2 PUSH1 0xFF MUL NOT AND SWAP1 DUP4 ISZERO ISZERO MUL OR SWAP1 SSTORE POP POP JUMP JUMPDEST PUSH1 0xE PUSH1 0x20 MSTORE DUP1 PUSH1 0x0 MSTORE PUSH1 0x40 PUSH1 0x0 KECCAK256 PUSH1 0x0 SWAP2 POP SWAP1 POP DUP1 PUSH1 0x0 ADD SLOAD SWAP1 DUP1 PUSH1 0x1 ADD SLOAD SWAP1 DUP1 PUSH1 0x2 ADD SLOAD SWAP1 DUP1 PUSH1 0x3 ADD PUSH1 0x0 SWAP1 SLOAD SWAP1 PUSH2 0x100 EXP SWAP1 DIV PUSH1 0xFF AND SWAP1 POP DUP5 JUMP JUMPDEST PUSH1 0x0 DUP1 SLOAD SWAP1 PUSH2 0x100 EXP SWAP1 DIV PUSH20 0xFFFFFFFFFFFFFFFFFFFFFFFFFFFFFFFFFFFFFFFF AND PUSH20 0xFFFFFFFFFFFFFFFFFFFFFFFFFFFFFFFFFFFFFFFF AND CALLER PUSH20 0xFFFFFFFFFFFFFFFFFFFFFFFFFFFFFFFFFFFFFFFF AND EQ PUSH2 0x2871 JUMPI PUSH1 0x40 MLOAD PUSH32 0x8C379A000000000000000000000000000000000000000000000000000000000 DUP2 MSTORE PUSH1 0x4 ADD PUSH2 0x2868 SWAP1 PUSH2 0x44E1 JUMP JUMPDEST PUSH1 0x40 MLOAD DUP1 SWAP2 SUB SWAP1 REVERT JUMPDEST PUSH1 0xD PUSH1 0x7 SWAP1 SLOAD SWAP1 PUSH2 0x100 EXP SWAP1 DIV PUSH1 0xFF AND PUSH2 0x28C0 JUMPI PUSH1 0x40 MLOAD PUSH32 0x8C379A000000000000000000000000000000000000000000000000000000000 DUP2 MSTORE PUSH1 0x4 ADD PUSH2 0x28B7 SWAP1 PUSH2 0x347C JUMP JUMPDEST PUSH1 0x40 MLOAD DUP1 SWAP2 SUB SWAP1 REVERT JUMPDEST PUSH1 0x0 PUSH1 0x2 SLOAD PUSH1 0x9 SLOAD LT PUSH2 0x28D5 JUMPI PUSH1 0x2 SLOAD PUSH2 0x28D9 JUMP JUMPDEST PUSH1 0x9 SLOAD JUMPDEST SWAP1 POP DUP1 PUSH1 0xF PUSH1 0x0 DUP1 PUSH1 0x0 SWAP1 SLOAD SWAP1 PUSH2 0x100 EXP SWAP1 DIV PUSH20 0xFFFFFFFFFFFFFFFFFFFFFFFFFFFFFFFFFFFFFFFF AND PUSH20 0xFFFFFFFFFFFFFFFFFFFFFFFFFFFFFFFFFFFFFFFF AND PUSH20 0xFFFFFFFFFFFFFFFFFFFFFFFFFFFFFFFFFFFFFFFF AND DUP2 MSTORE PUSH1 0x20 ADD SWAP1 DUP2 MSTORE PUSH1 0x20 ADD PUSH1 0x0 KECCAK256 PUSH1 0x0 DUP3 DUP3 SLOAD PUSH2 0x294B SWAP2 SWAP1 PUSH2 0x37CE JUMP JUMPDEST SWAP3 POP POP DUP2 SWAP1 SSTORE POP DUP1 PUSH1 0x2 SLOAD PUSH2 0x2960 SWAP2 SWAP1 PUSH2 0x35F6 JUMP JUMPDEST PUSH1 0xF PUSH1 0x0 PUSH1 0x1 PUSH1 0x0 SWAP1 SLOAD SWAP1 PUSH2 0x100 EXP SWAP1 DIV PUSH20 0xFFFFFFFFFFFFFFFFFFFFFFFFFFFFFFFFFFFFFFFF AND PUSH20 0xFFFFFFFFFFFFFFFFFFFFFFFFFFFFFFFFFFFFFFFF AND PUSH20 0xFFFFFFFFFFFFFFFFFFFFFFFFFFFFFFFFFFFFFFFF AND DUP2 MSTORE PUSH1 0x20 ADD SWAP1 DUP2 MSTORE PUSH1 0x20 ADD PUSH1 0x0 KECCAK256 PUSH1 0x0 DUP3 DUP3 SLOAD PUSH2 0x29D0 SWAP2 SWAP1 PUSH2 0x37CE JUMP JUMPDEST SWAP3 POP POP DUP2 SWAP1 SSTORE POP PUSH1 0x0 DUP1 SLOAD SWAP1 PUSH2 0x100 EXP SWAP1 DIV PUSH20 0xFFFFFFFFFFFFFFFFFFFFFFFFFFFFFFFFFFFFFFFF AND PUSH20 0xFFFFFFFFFFFFFFFFFFFFFFFFFFFFFFFFFFFFFFFF AND PUSH32 0xE670E4E82118D22A1F9EE18920455EBC958BAE26A90A05D31D3378788B1B0E44 DUP3 PUSH1 0x40 MLOAD PUSH2 0x2A3D SWAP2 SWAP1 PUSH2 0x2F11 JUMP JUMPDEST PUSH1 0x40 MLOAD DUP1 SWAP2 SUB SWAP1 LOG2 PUSH1 0x1 PUSH1 0x0 SWAP1 SLOAD SWAP1 PUSH2 0x100 EXP SWAP1 DIV PUSH20 0xFFFFFFFFFFFFFFFFFFFFFFFFFFFFFFFFFFFFFFFF AND PUSH20 0xFFFFFFFFFFFFFFFFFFFFFFFFFFFFFFFFFFFFFFFF AND PUSH32 0xE670E4E82118D22A1F9EE18920455EBC958BAE26A90A05D31D3378788B1B0E44 DUP3 PUSH1 0x2 SLOAD PUSH2 0x2AAD SWAP2 SWAP1 PUSH2 0x35F6 JUMP JUMPDEST PUSH1 0x40 MLOAD PUSH2 0x2ABA SWAP2 SWAP1 PUSH2 0x2F11 JUMP JUMPDEST PUSH1 0x40 MLOAD DUP1 SWAP2 SUB SWAP1 LOG2 PUSH1 0x0 PUSH1 0xD PUSH1 0x0 PUSH2 0x100 EXP DUP2 SLOAD DUP2 PUSH1 0xFF MUL NOT AND SWAP1 DUP4 ISZERO ISZERO MUL OR SWAP1 SSTORE POP PUSH32 0xB48EA00BBDFBF40407EEAD0EA969CE425A746B5692554310F811EE7D0E36F385 PUSH1 0x40 MLOAD PUSH1 0x40 MLOAD DUP1 SWAP2 SUB SWAP1 LOG1 POP JUMP JUMPDEST PUSH1 0xD PUSH1 0x1 SWAP1 SLOAD SWAP1 PUSH2 0x100 EXP SWAP1 DIV PUSH1 0xFF AND DUP2 JUMP JUMPDEST PUSH1 0xF PUSH1 0x20 MSTORE DUP1 PUSH1 0x0 MSTORE PUSH1 0x40 PUSH1 0x0 KECCAK256 PUSH1 0x0 SWAP2 POP SWAP1 POP SLOAD DUP2 JUMP JUMPDEST PUSH1 0x0 PUSH1 0xF PUSH1 0x0 DUP1 PUSH1 0x0 SWAP1 SLOAD SWAP1 PUSH2 0x100 EXP SWAP1 DIV PUSH20 0xFFFFFFFFFFFFFFFFFFFFFFFFFFFFFFFFFFFFFFFF AND PUSH20 0xFFFFFFFFFFFFFFFFFFFFFFFFFFFFFFFFFFFFFFFF AND PUSH20 0xFFFFFFFFFFFFFFFFFFFFFFFFFFFFFFFFFFFFFFFF AND DUP2 MSTORE PUSH1 0x20 ADD SWAP1 DUP2 MSTORE PUSH1 0x20 ADD PUSH1 0x0 KECCAK256 SLOAD SWAP1 POP SWAP1 JUMP JUMPDEST PUSH1 0xD PUSH1 0x2 SWAP1 SLOAD SWAP1 PUSH2 0x100 EXP SWAP1 DIV PUSH1 0xFF AND ISZERO PUSH2 0x2BEF JUMPI PUSH1 0x40 MLOAD PUSH32 0x8C379A000000000000000000000000000000000000000000000000000000000 DUP2 MSTORE PUSH1 0x4 ADD PUSH2 0x2BE6 SWAP1 PUSH2 0x454D JUMP JUMPDEST PUSH1 0x40 MLOAD DUP1 SWAP2 SUB SWAP1 REVERT JUMPDEST PUSH1 0xD PUSH1 0x6 SWAP1 SLOAD SWAP1 PUSH2 0x100 EXP SWAP1 DIV PUSH1 0xFF AND DUP1 ISZERO PUSH2 0x2C17 JUMPI POP PUSH1 0xD PUSH1 0x7 SWAP1 SLOAD SWAP1 PUSH2 0x100 EXP SWAP1 DIV PUSH1 0xFF AND JUMPDEST PUSH2 0x2C56 JUMPI PUSH1 0x40 MLOAD PUSH32 0x8C379A000000000000000000000000000000000000000000000000000000000 DUP2 MSTORE PUSH1 0x4 ADD PUSH2 0x2C4D SWAP1 PUSH2 0x45DF JUMP JUMPDEST PUSH1 0x40 MLOAD DUP1 SWAP2 SUB SWAP1 REVERT JUMPDEST PUSH1 0xD PUSH1 0x8 SWAP1 SLOAD SWAP1 PUSH2 0x100 EXP SWAP1 DIV PUSH20 0xFFFFFFFFFFFFFFFFFFFFFFFFFFFFFFFFFFFFFFFF AND PUSH20 0xFFFFFFFFFFFFFFFFFFFFFFFFFFFFFFFFFFFFFFFF AND PUSH4 0xC13517E1 PUSH1 0xC SLOAD PUSH1 0x2 PUSH1 0x40 MLOAD DUP4 PUSH4 0xFFFFFFFF AND PUSH1 0xE0 SHL DUP2 MSTORE PUSH1 0x4 ADD PUSH2 0x2CB5 SWAP2 SWAP1 PUSH2 0x463A JUMP JUMPDEST PUSH1 0x20 PUSH1 0x40 MLOAD DUP1 DUP4 SUB DUP2 DUP6 DUP9 GAS CALL ISZERO DUP1 ISZERO PUSH2 0x2CD3 JUMPI RETURNDATASIZE PUSH1 0x0 DUP1 RETURNDATACOPY RETURNDATASIZE PUSH1 0x0 REVERT JUMPDEST POP POP POP POP POP PUSH1 0x40 MLOAD RETURNDATASIZE PUSH1 0x1F NOT PUSH1 0x1F DUP3 ADD AND DUP3 ADD DUP1 PUSH1 0x40 MSTORE POP DUP2 ADD SWAP1 PUSH2 0x2CF8 SWAP2 SWAP1 PUSH2 0x3508 JUMP JUMPDEST PUSH1 0xA DUP2 SWAP1 SSTORE POP PUSH1 0x1 PUSH1 0xD PUSH1 0x2 PUSH2 0x100 EXP DUP2 SLOAD DUP2 PUSH1 0xFF MUL NOT AND SWAP1 DUP4 ISZERO ISZERO MUL OR SWAP1 SSTORE POP PUSH32 0x4901F83201C8724EADF084436DB8AA391820BAE6D11F9F78A17EDB6F2EEF3CF PUSH1 0xA SLOAD PUSH1 0x40 MLOAD PUSH2 0x2D4A SWAP2 SWAP1 PUSH2 0x2F11 JUMP JUMPDEST PUSH1 0x40 MLOAD DUP1 SWAP2 SUB SWAP1 LOG1 JUMP JUMPDEST PUSH1 0x0 PUSH1 0xD PUSH1 0x0 PUSH2 0x100 EXP DUP2 SLOAD DUP2 PUSH1 0xFF MUL NOT AND SWAP1 DUP4 ISZERO ISZERO MUL OR SWAP1 SSTORE POP PUSH1 0x0 PUSH1 0x7 SLOAD SWAP1 POP PUSH1 0x0 DUP1 DUP3 GT ISZERO PUSH2 0x2E0C JUMPI PUSH1 0x2 SLOAD DUP3 GT ISZERO PUSH2 0x2D90 JUMPI PUSH1 0x2 SLOAD SWAP2 POP JUMPDEST PUSH1 0x0 DUP1 SLOAD SWAP1 PUSH2 0x100 EXP SWAP1 DIV PUSH20 0xFFFFFFFFFFFFFFFFFFFFFFFFFFFFFFFFFFFFFFFF AND PUSH20 0xFFFFFFFFFFFFFFFFFFFFFFFFFFFFFFFFFFFFFFFF AND PUSH2 0x8FC DUP4 SWAP1 DUP2 ISZERO MUL SWAP1 PUSH1 0x40 MLOAD PUSH1 0x0 PUSH1 0x40 MLOAD DUP1 DUP4 SUB DUP2 DUP6 DUP9 DUP9 CALL SWAP4 POP POP POP POP ISZERO DUP1 ISZERO PUSH2 0x2DF6 JUMPI RETURNDATASIZE PUSH1 0x0 DUP1 RETURNDATACOPY RETURNDATASIZE PUSH1 0x0 REVERT JUMPDEST POP DUP2 PUSH1 0x2 SLOAD PUSH2 0x2E05 SWAP2 SWAP1 PUSH2 0x35F6 JUMP JUMPDEST SWAP1 POP PUSH2 0x2E12 JUMP JUMPDEST PUSH1 0x2 SLOAD SWAP1 POP JUMPDEST PUSH1 0x0 DUP2 GT ISZERO PUSH2 0x2E85 JUMPI PUSH1 0x1 PUSH1 0x0 SWAP1 SLOAD SWAP1 PUSH2 0x100 EXP SWAP1 DIV PUSH20 0xFFFFFFFFFFFFFFFFFFFFFFFFFFFFFFFFFFFFFFFF AND PUSH20 0xFFFFFFFFFFFFFFFFFFFFFFFFFFFFFFFFFFFFFFFF AND PUSH2 0x8FC DUP3 SWAP1 DUP2 ISZERO MUL SWAP1 PUSH1 0x40 MLOAD PUSH1 0x0 PUSH1 0x40 MLOAD DUP1 DUP4 SUB DUP2 DUP6 DUP9 DUP9 CALL SWAP4 POP POP POP POP ISZERO DUP1 ISZERO PUSH2 0x2E83 JUMPI RETURNDATASIZE PUSH1 0x0 DUP1 RETURNDATACOPY RETURNDATASIZE PUSH1 0x0 REVERT JUMPDEST POP JUMPDEST PUSH32 0xC0590C5A8CE79DFFBDDE17480A06203778F954965615E1D9577DBC90DA2FF109 DUP2 DUP4 PUSH1 0x40 MLOAD PUSH2 0x2EB6 SWAP3 SWAP2 SWAP1 PUSH2 0x3802 JUMP JUMPDEST PUSH1 0x40 MLOAD DUP1 SWAP2 SUB SWAP1 LOG1 POP POP JUMP JUMPDEST PUSH1 0x0 DUP2 ISZERO ISZERO SWAP1 POP SWAP2 SWAP1 POP JUMP JUMPDEST PUSH2 0x2ED7 DUP2 PUSH2 0x2EC2 JUMP JUMPDEST DUP3 MSTORE POP POP JUMP JUMPDEST PUSH1 0x0 PUSH1 0x20 DUP3 ADD SWAP1 POP PUSH2 0x2EF2 PUSH1 0x0 DUP4 ADD DUP5 PUSH2 0x2ECE JUMP JUMPDEST SWAP3 SWAP2 POP POP JUMP JUMPDEST PUSH1 0x0 DUP2 SWAP1 POP SWAP2 SWAP1 POP JUMP JUMPDEST PUSH2 0x2F0B DUP2 PUSH2 0x2EF8 JUMP JUMPDEST DUP3 MSTORE POP POP JUMP JUMPDEST PUSH1 0x0 PUSH1 0x20 DUP3 ADD SWAP1 POP PUSH2 0x2F26 PUSH1 0x0 DUP4 ADD DUP5 PUSH2 0x2F02 JUMP JUMPDEST SWAP3 SWAP2 POP POP JUMP JUMPDEST PUSH1 0x0 DUP1 REVERT JUMPDEST PUSH2 0x2F3A DUP2 PUSH2 0x2EF8 JUMP JUMPDEST DUP2 EQ PUSH2 0x2F45 JUMPI PUSH1 0x0 DUP1 REVERT JUMPDEST POP JUMP JUMPDEST PUSH1 0x0 DUP2 CALLDATALOAD SWAP1 POP PUSH2 0x2F57 DUP2 PUSH2 0x2F31 JUMP JUMPDEST SWAP3 SWAP2 POP POP JUMP JUMPDEST PUSH1 0x0 PUSH1 0x20 DUP3 DUP5 SUB SLT ISZERO PUSH2 0x2F73 JUMPI PUSH2 0x2F72 PUSH2 0x2F2C JUMP JUMPDEST JUMPDEST PUSH1 0x0 PUSH2 0x2F81 DUP5 DUP3 DUP6 ADD PUSH2 0x2F48 JUMP JUMPDEST SWAP2 POP POP SWAP3 SWAP2 POP POP JUMP JUMPDEST PUSH1 0x0 PUSH20 0xFFFFFFFFFFFFFFFFFFFFFFFFFFFFFFFFFFFFFFFF DUP3 AND SWAP1 POP SWAP2 SWAP1 POP JUMP JUMPDEST PUSH1 0x0 PUSH2 0x2FB5 DUP3 PUSH2 0x2F8A JUMP JUMPDEST SWAP1 POP SWAP2 SWAP1 POP JUMP JUMPDEST PUSH2 0x2FC5 DUP2 PUSH2 0x2FAA JUMP JUMPDEST DUP3 MSTORE POP POP JUMP JUMPDEST PUSH1 0x0 PUSH1 0x20 DUP3 ADD SWAP1 POP PUSH2 0x2FE0 PUSH1 0x0 DUP4 ADD DUP5 PUSH2 0x2FBC JUMP JUMPDEST SWAP3 SWAP2 POP POP JUMP JUMPDEST PUSH1 0x0 DUP1 PUSH1 0x40 DUP4 DUP6 SUB SLT ISZERO PUSH2 0x2FFD JUMPI PUSH2 0x2FFC PUSH2 0x2F2C JUMP JUMPDEST JUMPDEST PUSH1 0x0 PUSH2 0x300B DUP6 DUP3 DUP7 ADD PUSH2 0x2F48 JUMP JUMPDEST SWAP3 POP POP PUSH1 0x20 PUSH2 0x301C DUP6 DUP3 DUP7 ADD PUSH2 0x2F48 JUMP JUMPDEST SWAP2 POP POP SWAP3 POP SWAP3 SWAP1 POP JUMP JUMPDEST PUSH1 0x0 DUP2 SWAP1 POP SWAP2 SWAP1 POP JUMP JUMPDEST PUSH1 0x0 PUSH2 0x304B PUSH2 0x3046 PUSH2 0x3041 DUP5 PUSH2 0x2F8A JUMP JUMPDEST PUSH2 0x3026 JUMP JUMPDEST PUSH2 0x2F8A JUMP JUMPDEST SWAP1 POP SWAP2 SWAP1 POP JUMP JUMPDEST PUSH1 0x0 PUSH2 0x305D DUP3 PUSH2 0x3030 JUMP JUMPDEST SWAP1 POP SWAP2 SWAP1 POP JUMP JUMPDEST PUSH1 0x0 PUSH2 0x306F DUP3 PUSH2 0x3052 JUMP JUMPDEST SWAP1 POP SWAP2 SWAP1 POP JUMP JUMPDEST PUSH2 0x307F DUP2 PUSH2 0x3064 JUMP JUMPDEST DUP3 MSTORE POP POP JUMP JUMPDEST PUSH1 0x0 PUSH1 0x20 DUP3 ADD SWAP1 POP PUSH2 0x309A PUSH1 0x0 DUP4 ADD DUP5 PUSH2 0x3076 JUMP JUMPDEST SWAP3 SWAP2 POP POP JUMP JUMPDEST PUSH1 0x0 DUP1 PUSH1 0x0 PUSH1 0x60 DUP5 DUP7 SUB SLT ISZERO PUSH2 0x30B9 JUMPI PUSH2 0x30B8 PUSH2 0x2F2C JUMP JUMPDEST JUMPDEST PUSH1 0x0 PUSH2 0x30C7 DUP7 DUP3 DUP8 ADD PUSH2 0x2F48 JUMP JUMPDEST SWAP4 POP POP PUSH1 0x20 PUSH2 0x30D8 DUP7 DUP3 DUP8 ADD PUSH2 0x2F48 JUMP JUMPDEST SWAP3 POP POP PUSH1 0x40 PUSH2 0x30E9 DUP7 DUP3 DUP8 ADD PUSH2 0x2F48 JUMP JUMPDEST SWAP2 POP POP SWAP3 POP SWAP3 POP SWAP3 JUMP JUMPDEST PUSH1 0x0 PUSH1 0x80 DUP3 ADD SWAP1 POP PUSH2 0x3108 PUSH1 0x0 DUP4 ADD DUP8 PUSH2 0x2F02 JUMP JUMPDEST PUSH2 0x3115 PUSH1 0x20 DUP4 ADD DUP7 PUSH2 0x2F02 JUMP JUMPDEST PUSH2 0x3122 PUSH1 0x40 DUP4 ADD DUP6 PUSH2 0x2F02 JUMP JUMPDEST PUSH2 0x312F PUSH1 0x60 DUP4 ADD DUP5 PUSH2 0x2ECE JUMP JUMPDEST SWAP6 SWAP5 POP POP POP POP POP JUMP JUMPDEST PUSH2 0x3141 DUP2 PUSH2 0x2FAA JUMP JUMPDEST DUP2 EQ PUSH2 0x314C JUMPI PUSH1 0x0 DUP1 REVERT JUMPDEST POP JUMP JUMPDEST PUSH1 0x0 DUP2 CALLDATALOAD SWAP1 POP PUSH2 0x315E DUP2 PUSH2 0x3138 JUMP JUMPDEST SWAP3 SWAP2 POP POP JUMP JUMPDEST PUSH1 0x0 PUSH1 0x20 DUP3 DUP5 SUB SLT ISZERO PUSH2 0x317A JUMPI PUSH2 0x3179 PUSH2 0x2F2C JUMP JUMPDEST JUMPDEST PUSH1 0x0 PUSH2 0x3188 DUP5 DUP3 DUP6 ADD PUSH2 0x314F JUMP JUMPDEST SWAP2 POP POP SWAP3 SWAP2 POP POP JUMP JUMPDEST PUSH1 0x0 DUP3 DUP3 MSTORE PUSH1 0x20 DUP3 ADD SWAP1 POP SWAP3 SWAP2 POP POP JUMP JUMPDEST PUSH32 0x4F6E6C79206C616E646C6F72642063616E20736574207468652064616D616765 PUSH1 0x0 DUP3 ADD MSTORE PUSH32 0x20657374696D6174650000000000000000000000000000000000000000000000 PUSH1 0x20 DUP3 ADD MSTORE POP JUMP JUMPDEST PUSH1 0x0 PUSH2 0x31FE PUSH1 0x29 DUP4 PUSH2 0x3191 JUMP JUMPDEST SWAP2 POP PUSH2 0x3209 DUP3 PUSH2 0x31A2 JUMP JUMPDEST PUSH1 0x40 DUP3 ADD SWAP1 POP SWAP2 SWAP1 POP JUMP JUMPDEST PUSH1 0x0 PUSH1 0x20 DUP3 ADD SWAP1 POP DUP2 DUP2 SUB PUSH1 0x0 DUP4 ADD MSTORE PUSH2 0x322D DUP2 PUSH2 0x31F1 JUMP JUMPDEST SWAP1 POP SWAP2 SWAP1 POP JUMP JUMPDEST PUSH32 0x52656E7420706572696F6420686173206E6F7420656E64656420796574000000 PUSH1 0x0 DUP3 ADD MSTORE POP JUMP JUMPDEST PUSH1 0x0 PUSH2 0x326A PUSH1 0x1D DUP4 PUSH2 0x3191 JUMP JUMPDEST SWAP2 POP PUSH2 0x3275 DUP3 PUSH2 0x3234 JUMP JUMPDEST PUSH1 0x20 DUP3 ADD SWAP1 POP SWAP2 SWAP1 POP JUMP JUMPDEST PUSH1 0x0 PUSH1 0x20 DUP3 ADD SWAP1 POP DUP2 DUP2 SUB PUSH1 0x0 DUP4 ADD MSTORE PUSH2 0x3299 DUP2 PUSH2 0x325D JUMP JUMPDEST SWAP1 POP SWAP2 SWAP1 POP JUMP JUMPDEST PUSH32 0x44616D61676520657374696D61746520616C7265616479207365740000000000 PUSH1 0x0 DUP3 ADD MSTORE POP JUMP JUMPDEST PUSH1 0x0 PUSH2 0x32D6 PUSH1 0x1B DUP4 PUSH2 0x3191 JUMP JUMPDEST SWAP2 POP PUSH2 0x32E1 DUP3 PUSH2 0x32A0 JUMP JUMPDEST PUSH1 0x20 DUP3 ADD SWAP1 POP SWAP2 SWAP1 POP JUMP JUMPDEST PUSH1 0x0 PUSH1 0x20 DUP3 ADD SWAP1 POP DUP2 DUP2 SUB PUSH1 0x0 DUP4 ADD MSTORE PUSH2 0x3305 DUP2 PUSH2 0x32C9 JUMP JUMPDEST SWAP1 POP SWAP2 SWAP1 POP JUMP JUMPDEST PUSH32 0x436F6E7472616374206973206E6F742061637469766500000000000000000000 PUSH1 0x0 DUP3 ADD MSTORE POP JUMP JUMPDEST PUSH1 0x0 PUSH2 0x3342 PUSH1 0x16 DUP4 PUSH2 0x3191 JUMP JUMPDEST SWAP2 POP PUSH2 0x334D DUP3 PUSH2 0x330C JUMP JUMPDEST PUSH1 0x20 DUP3 ADD SWAP1 POP SWAP2 SWAP1 POP JUMP JUMPDEST PUSH1 0x0 PUSH1 0x20 DUP3 ADD SWAP1 POP DUP2 DUP2 SUB PUSH1 0x0 DUP4 ADD MSTORE PUSH2 0x3371 DUP2 PUSH2 0x3335 JUMP JUMPDEST SWAP1 POP SWAP2 SWAP1 POP JUMP JUMPDEST PUSH32 0x4F6E6C79206C616E646C6F72642063616E2072656A6563742074686520636F75 PUSH1 0x0 DUP3 ADD MSTORE PUSH32 0x6E74657220657374696D61746500000000000000000000000000000000000000 PUSH1 0x20 DUP3 ADD MSTORE POP JUMP JUMPDEST PUSH1 0x0 PUSH2 0x33D4 PUSH1 0x2D DUP4 PUSH2 0x3191 JUMP JUMPDEST SWAP2 POP PUSH2 0x33DF DUP3 PUSH2 0x3378 JUMP JUMPDEST PUSH1 0x40 DUP3 ADD SWAP1 POP SWAP2 SWAP1 POP JUMP JUMPDEST PUSH1 0x0 PUSH1 0x20 DUP3 ADD SWAP1 POP DUP2 DUP2 SUB PUSH1 0x0 DUP4 ADD MSTORE PUSH2 0x3403 DUP2 PUSH2 0x33C7 JUMP JUMPDEST SWAP1 POP SWAP2 SWAP1 POP JUMP JUMPDEST PUSH32 0x52656E746572206D7573742073657420636F756E74657220657374696D617465 PUSH1 0x0 DUP3 ADD MSTORE PUSH32 0x2066697273740000000000000000000000000000000000000000000000000000 PUSH1 0x20 DUP3 ADD MSTORE POP JUMP JUMPDEST PUSH1 0x0 PUSH2 0x3466 PUSH1 0x26 DUP4 PUSH2 0x3191 JUMP JUMPDEST SWAP2 POP PUSH2 0x3471 DUP3 PUSH2 0x340A JUMP JUMPDEST PUSH1 0x40 DUP3 ADD SWAP1 POP SWAP2 SWAP1 POP JUMP JUMPDEST PUSH1 0x0 PUSH1 0x20 DUP3 ADD SWAP1 POP DUP2 DUP2 SUB PUSH1 0x0 DUP4 ADD MSTORE PUSH2 0x3495 DUP2 PUSH2 0x3459 JUMP JUMPDEST SWAP1 POP SWAP2 SWAP1 POP JUMP JUMPDEST PUSH1 0x0 DUP3 DUP3 MSTORE PUSH1 0x20 DUP3 ADD SWAP1 POP SWAP3 SWAP2 POP POP JUMP JUMPDEST POP JUMP JUMPDEST PUSH1 0x0 PUSH2 0x34BD PUSH1 0x0 DUP4 PUSH2 0x349C JUMP JUMPDEST SWAP2 POP PUSH2 0x34C8 DUP3 PUSH2 0x34AD JUMP JUMPDEST PUSH1 0x0 DUP3 ADD SWAP1 POP SWAP2 SWAP1 POP JUMP JUMPDEST PUSH1 0x0 PUSH1 0x20 DUP3 ADD SWAP1 POP DUP2 DUP2 SUB PUSH1 0x0 DUP4 ADD MSTORE PUSH2 0x34EC DUP2 PUSH2 0x34B0 JUMP JUMPDEST SWAP1 POP SWAP2 SWAP1 POP JUMP JUMPDEST PUSH1 0x0 DUP2 MLOAD SWAP1 POP PUSH2 0x3502 DUP2 PUSH2 0x2F31 JUMP JUMPDEST SWAP3 SWAP2 POP POP JUMP JUMPDEST PUSH1 0x0 PUSH1 0x20 DUP3 DUP5 SUB SLT ISZERO PUSH2 0x351E JUMPI PUSH2 0x351D PUSH2 0x2F2C JUMP JUMPDEST JUMPDEST PUSH1 0x0 PUSH2 0x352C DUP5 DUP3 DUP6 ADD PUSH2 0x34F3 JUMP JUMPDEST SWAP2 POP POP SWAP3 SWAP2 POP POP JUMP JUMPDEST PUSH32 0x5365637572697479206465706F73697420696E73756666696369656E7420746F PUSH1 0x0 DUP3 ADD MSTORE PUSH32 0x20636F766572206172626974726174696F6E20636F7374730000000000000000 PUSH1 0x20 DUP3 ADD MSTORE POP JUMP JUMPDEST PUSH1 0x0 PUSH2 0x3591 PUSH1 0x38 DUP4 PUSH2 0x3191 JUMP JUMPDEST SWAP2 POP PUSH2 0x359C DUP3 PUSH2 0x3535 JUMP JUMPDEST PUSH1 0x40 DUP3 ADD SWAP1 POP SWAP2 SWAP1 POP JUMP JUMPDEST PUSH1 0x0 PUSH1 0x20 DUP3 ADD SWAP1 POP DUP2 DUP2 SUB PUSH1 0x0 DUP4 ADD MSTORE PUSH2 0x35C0 DUP2 PUSH2 0x3584 JUMP JUMPDEST SWAP1 POP SWAP2 SWAP1 POP JUMP JUMPDEST PUSH32 0x4E487B7100000000000000000000000000000000000000000000000000000000 PUSH1 0x0 MSTORE PUSH1 0x11 PUSH1 0x4 MSTORE PUSH1 0x24 PUSH1 0x0 REVERT JUMPDEST PUSH1 0x0 PUSH2 0x3601 DUP3 PUSH2 0x2EF8 JUMP JUMPDEST SWAP2 POP PUSH2 0x360C DUP4 PUSH2 0x2EF8 JUMP JUMPDEST SWAP3 POP DUP3 DUP3 SUB SWAP1 POP DUP2 DUP2 GT ISZERO PUSH2 0x3624 JUMPI PUSH2 0x3623 PUSH2 0x35C7 JUMP JUMPDEST JUMPDEST SWAP3 SWAP2 POP POP JUMP JUMPDEST PUSH32 0x4F6E6C79207468652061726269747261746F722063616E2072756C6500000000 PUSH1 0x0 DUP3 ADD MSTORE POP JUMP JUMPDEST PUSH1 0x0 PUSH2 0x3660 PUSH1 0x1C DUP4 PUSH2 0x3191 JUMP JUMPDEST SWAP2 POP PUSH2 0x366B DUP3 PUSH2 0x362A JUMP JUMPDEST PUSH1 0x20 DUP3 ADD SWAP1 POP SWAP2 SWAP1 POP JUMP JUMPDEST PUSH1 0x0 PUSH1 0x20 DUP3 ADD SWAP1 POP DUP2 DUP2 SUB PUSH1 0x0 DUP4 ADD MSTORE PUSH2 0x368F DUP2 PUSH2 0x3653 JUMP JUMPDEST SWAP1 POP SWAP2 SWAP1 POP JUMP JUMPDEST PUSH32 0x4E6F206469737075746520746F2072756C65206F6E0000000000000000000000 PUSH1 0x0 DUP3 ADD MSTORE POP JUMP JUMPDEST PUSH1 0x0 PUSH2 0x36CC PUSH1 0x15 DUP4 PUSH2 0x3191 JUMP JUMPDEST SWAP2 POP PUSH2 0x36D7 DUP3 PUSH2 0x3696 JUMP JUMPDEST PUSH1 0x20 DUP3 ADD SWAP1 POP SWAP2 SWAP1 POP JUMP JUMPDEST PUSH1 0x0 PUSH1 0x20 DUP3 ADD SWAP1 POP DUP2 DUP2 SUB PUSH1 0x0 DUP4 ADD MSTORE PUSH2 0x36FB DUP2 PUSH2 0x36BF JUMP JUMPDEST SWAP1 POP SWAP2 SWAP1 POP JUMP JUMPDEST PUSH32 0x57726F6E67206469737075746520494400000000000000000000000000000000 PUSH1 0x0 DUP3 ADD MSTORE POP JUMP JUMPDEST PUSH1 0x0 PUSH2 0x3738 PUSH1 0x10 DUP4 PUSH2 0x3191 JUMP JUMPDEST SWAP2 POP PUSH2 0x3743 DUP3 PUSH2 0x3702 JUMP JUMPDEST PUSH1 0x20 DUP3 ADD SWAP1 POP SWAP2 SWAP1 POP JUMP JUMPDEST PUSH1 0x0 PUSH1 0x20 DUP3 ADD SWAP1 POP DUP2 DUP2 SUB PUSH1 0x0 DUP4 ADD MSTORE PUSH2 0x3767 DUP2 PUSH2 0x372B JUMP JUMPDEST SWAP1 POP SWAP2 SWAP1 POP JUMP JUMPDEST PUSH32 0x4E487B7100000000000000000000000000000000000000000000000000000000 PUSH1 0x0 MSTORE PUSH1 0x12 PUSH1 0x4 MSTORE PUSH1 0x24 PUSH1 0x0 REVERT JUMPDEST PUSH1 0x0 PUSH2 0x37A8 DUP3 PUSH2 0x2EF8 JUMP JUMPDEST SWAP2 POP PUSH2 0x37B3 DUP4 PUSH2 0x2EF8 JUMP JUMPDEST SWAP3 POP DUP3 PUSH2 0x37C3 JUMPI PUSH2 0x37C2 PUSH2 0x376E JUMP JUMPDEST JUMPDEST DUP3 DUP3 DIV SWAP1 POP SWAP3 SWAP2 POP POP JUMP JUMPDEST PUSH1 0x0 PUSH2 0x37D9 DUP3 PUSH2 0x2EF8 JUMP JUMPDEST SWAP2 POP PUSH2 0x37E4 DUP4 PUSH2 0x2EF8 JUMP JUMPDEST SWAP3 POP DUP3 DUP3 ADD SWAP1 POP DUP1 DUP3 GT ISZERO PUSH2 0x37FC JUMPI PUSH2 0x37FB PUSH2 0x35C7 JUMP JUMPDEST JUMPDEST SWAP3 SWAP2 POP POP JUMP JUMPDEST PUSH1 0x0 PUSH1 0x40 DUP3 ADD SWAP1 POP PUSH2 0x3817 PUSH1 0x0 DUP4 ADD DUP6 PUSH2 0x2F02 JUMP JUMPDEST PUSH2 0x3824 PUSH1 0x20 DUP4 ADD DUP5 PUSH2 0x2F02 JUMP JUMPDEST SWAP4 SWAP3 POP POP POP JUMP JUMPDEST PUSH32 0x4E6F2066756E647320746F207769746864726177000000000000000000000000 PUSH1 0x0 DUP3 ADD MSTORE POP JUMP JUMPDEST PUSH1 0x0 PUSH2 0x3861 PUSH1 0x14 DUP4 PUSH2 0x3191 JUMP JUMPDEST SWAP2 POP PUSH2 0x386C DUP3 PUSH2 0x382B JUMP JUMPDEST PUSH1 0x20 DUP3 ADD SWAP1 POP SWAP2 SWAP1 POP JUMP JUMPDEST PUSH1 0x0 PUSH1 0x20 DUP3 ADD SWAP1 POP DUP2 DUP2 SUB PUSH1 0x0 DUP4 ADD MSTORE PUSH2 0x3890 DUP2 PUSH2 0x3854 JUMP JUMPDEST SWAP1 POP SWAP2 SWAP1 POP JUMP JUMPDEST PUSH1 0x0 DUP2 SWAP1 POP SWAP3 SWAP2 POP POP JUMP JUMPDEST PUSH1 0x0 PUSH2 0x38AF PUSH1 0x0 DUP4 PUSH2 0x3897 JUMP JUMPDEST SWAP2 POP PUSH2 0x38BA DUP3 PUSH2 0x34AD JUMP JUMPDEST PUSH1 0x0 DUP3 ADD SWAP1 POP SWAP2 SWAP1 POP JUMP JUMPDEST PUSH1 0x0 PUSH2 0x38D0 DUP3 PUSH2 0x38A2 JUMP JUMPDEST SWAP2 POP DUP2 SWAP1 POP SWAP2 SWAP1 POP JUMP JUMPDEST PUSH32 0x5472616E73666572206661696C65640000000000000000000000000000000000 PUSH1 0x0 DUP3 ADD MSTORE POP JUMP JUMPDEST PUSH1 0x0 PUSH2 0x3910 PUSH1 0xF DUP4 PUSH2 0x3191 JUMP JUMPDEST SWAP2 POP PUSH2 0x391B DUP3 PUSH2 0x38DA JUMP JUMPDEST PUSH1 0x20 DUP3 ADD SWAP1 POP SWAP2 SWAP1 POP JUMP JUMPDEST PUSH1 0x0 PUSH1 0x20 DUP3 ADD SWAP1 POP DUP2 DUP2 SUB PUSH1 0x0 DUP4 ADD MSTORE PUSH2 0x393F DUP2 PUSH2 0x3903 JUMP JUMPDEST SWAP1 POP SWAP2 SWAP1 POP JUMP JUMPDEST PUSH32 0x4F6E6C792072656E7465722063616E2070617920736563757269747920646570 PUSH1 0x0 DUP3 ADD MSTORE PUSH32 0x6F73697400000000000000000000000000000000000000000000000000000000 PUSH1 0x20 DUP3 ADD MSTORE POP JUMP JUMPDEST PUSH1 0x0 PUSH2 0x39A2 PUSH1 0x24 DUP4 PUSH2 0x3191 JUMP JUMPDEST SWAP2 POP PUSH2 0x39AD DUP3 PUSH2 0x3946 JUMP JUMPDEST PUSH1 0x40 DUP3 ADD SWAP1 POP SWAP2 SWAP1 POP JUMP JUMPDEST PUSH1 0x0 PUSH1 0x20 DUP3 ADD SWAP1 POP DUP2 DUP2 SUB PUSH1 0x0 DUP4 ADD MSTORE PUSH2 0x39D1 DUP2 PUSH2 0x3995 JUMP JUMPDEST SWAP1 POP SWAP2 SWAP1 POP JUMP JUMPDEST PUSH32 0x436F6E747261637420697320616C726561647920616374697665000000000000 PUSH1 0x0 DUP3 ADD MSTORE POP JUMP JUMPDEST PUSH1 0x0 PUSH2 0x3A0E PUSH1 0x1A DUP4 PUSH2 0x3191 JUMP JUMPDEST SWAP2 POP PUSH2 0x3A19 DUP3 PUSH2 0x39D8 JUMP JUMPDEST PUSH1 0x20 DUP3 ADD SWAP1 POP SWAP2 SWAP1 POP JUMP JUMPDEST PUSH1 0x0 PUSH1 0x20 DUP3 ADD SWAP1 POP DUP2 DUP2 SUB PUSH1 0x0 DUP4 ADD MSTORE PUSH2 0x3A3D DUP2 PUSH2 0x3A01 JUMP JUMPDEST SWAP1 POP SWAP2 SWAP1 POP JUMP JUMPDEST PUSH32 0x496E636F7272656374207365637572697479206465706F73697420616D6F756E PUSH1 0x0 DUP3 ADD MSTORE PUSH32 0x7400000000000000000000000000000000000000000000000000000000000000 PUSH1 0x20 DUP3 ADD MSTORE POP JUMP JUMPDEST PUSH1 0x0 PUSH2 0x3AA0 PUSH1 0x21 DUP4 PUSH2 0x3191 JUMP JUMPDEST SWAP2 POP PUSH2 0x3AAB DUP3 PUSH2 0x3A44 JUMP JUMPDEST PUSH1 0x40 DUP3 ADD SWAP1 POP SWAP2 SWAP1 POP JUMP JUMPDEST PUSH1 0x0 PUSH1 0x20 DUP3 ADD SWAP1 POP DUP2 DUP2 SUB PUSH1 0x0 DUP4 ADD MSTORE PUSH2 0x3ACF DUP2 PUSH2 0x3A93 JUMP JUMPDEST SWAP1 POP SWAP2 SWAP1 POP JUMP JUMPDEST PUSH32 0x4F6E6C79206C616E646C6F72642063616E207265636F7264207574696C697469 PUSH1 0x0 DUP3 ADD MSTORE PUSH32 0x6573000000000000000000000000000000000000000000000000000000000000 PUSH1 0x20 DUP3 ADD MSTORE POP JUMP JUMPDEST PUSH1 0x0 PUSH2 0x3B32 PUSH1 0x22 DUP4 PUSH2 0x3191 JUMP JUMPDEST SWAP2 POP PUSH2 0x3B3D DUP3 PUSH2 0x3AD6 JUMP JUMPDEST PUSH1 0x40 DUP3 ADD SWAP1 POP SWAP2 SWAP1 POP JUMP JUMPDEST PUSH1 0x0 PUSH1 0x20 DUP3 ADD SWAP1 POP DUP2 DUP2 SUB PUSH1 0x0 DUP4 ADD MSTORE PUSH2 0x3B61 DUP2 PUSH2 0x3B25 JUMP JUMPDEST SWAP1 POP SWAP2 SWAP1 POP JUMP JUMPDEST PUSH32 0x52656E7420706572696F642068617320656E6465640000000000000000000000 PUSH1 0x0 DUP3 ADD MSTORE POP JUMP JUMPDEST PUSH1 0x0 PUSH2 0x3B9E PUSH1 0x15 DUP4 PUSH2 0x3191 JUMP JUMPDEST SWAP2 POP PUSH2 0x3BA9 DUP3 PUSH2 0x3B68 JUMP JUMPDEST PUSH1 0x20 DUP3 ADD SWAP1 POP SWAP2 SWAP1 POP JUMP JUMPDEST PUSH1 0x0 PUSH1 0x20 DUP3 ADD SWAP1 POP DUP2 DUP2 SUB PUSH1 0x0 DUP4 ADD MSTORE PUSH2 0x3BCD DUP2 PUSH2 0x3B91 JUMP JUMPDEST SWAP1 POP SWAP2 SWAP1 POP JUMP JUMPDEST PUSH32 0x4F6E6C79206C616E646C6F72642063616E206163746976617465207468652063 PUSH1 0x0 DUP3 ADD MSTORE PUSH32 0x6F6E747261637400000000000000000000000000000000000000000000000000 PUSH1 0x20 DUP3 ADD MSTORE POP JUMP JUMPDEST PUSH1 0x0 PUSH2 0x3C30 PUSH1 0x27 DUP4 PUSH2 0x3191 JUMP JUMPDEST SWAP2 POP PUSH2 0x3C3B DUP3 PUSH2 0x3BD4 JUMP JUMPDEST PUSH1 0x40 DUP3 ADD SWAP1 POP SWAP2 SWAP1 POP JUMP JUMPDEST PUSH1 0x0 PUSH1 0x20 DUP3 ADD SWAP1 POP DUP2 DUP2 SUB PUSH1 0x0 DUP4 ADD MSTORE PUSH2 0x3C5F DUP2 PUSH2 0x3C23 JUMP JUMPDEST SWAP1 POP SWAP2 SWAP1 POP JUMP JUMPDEST PUSH32 0x5365637572697479206465706F736974206D7573742062652070616964206669 PUSH1 0x0 DUP3 ADD MSTORE PUSH32 0x7273740000000000000000000000000000000000000000000000000000000000 PUSH1 0x20 DUP3 ADD MSTORE POP JUMP JUMPDEST PUSH1 0x0 PUSH2 0x3CC2 PUSH1 0x23 DUP4 PUSH2 0x3191 JUMP JUMPDEST SWAP2 POP PUSH2 0x3CCD DUP3 PUSH2 0x3C66 JUMP JUMPDEST PUSH1 0x40 DUP3 ADD SWAP1 POP SWAP2 SWAP1 POP JUMP JUMPDEST PUSH1 0x0 PUSH1 0x20 DUP3 ADD SWAP1 POP DUP2 DUP2 SUB PUSH1 0x0 DUP4 ADD MSTORE PUSH2 0x3CF1 DUP2 PUSH2 0x3CB5 JUMP JUMPDEST SWAP1 POP SWAP2 SWAP1 POP JUMP JUMPDEST PUSH32 0x4F6E6C792072656E7465722063616E207061792072656E740000000000000000 PUSH1 0x0 DUP3 ADD MSTORE POP JUMP JUMPDEST PUSH1 0x0 PUSH2 0x3D2E PUSH1 0x18 DUP4 PUSH2 0x3191 JUMP JUMPDEST SWAP2 POP PUSH2 0x3D39 DUP3 PUSH2 0x3CF8 JUMP JUMPDEST PUSH1 0x20 DUP3 ADD SWAP1 POP SWAP2 SWAP1 POP JUMP JUMPDEST PUSH1 0x0 PUSH1 0x20 DUP3 ADD SWAP1 POP DUP2 DUP2 SUB PUSH1 0x0 DUP4 ADD MSTORE PUSH2 0x3D5D DUP2 PUSH2 0x3D21 JUMP JUMPDEST SWAP1 POP SWAP2 SWAP1 POP JUMP JUMPDEST PUSH32 0x52656E7420666F722074686973206D6F6E74682068617320616C726561647920 PUSH1 0x0 DUP3 ADD MSTORE PUSH32 0x6265656E20706169640000000000000000000000000000000000000000000000 PUSH1 0x20 DUP3 ADD MSTORE POP JUMP JUMPDEST PUSH1 0x0 PUSH2 0x3DC0 PUSH1 0x29 DUP4 PUSH2 0x3191 JUMP JUMPDEST SWAP2 POP PUSH2 0x3DCB DUP3 PUSH2 0x3D64 JUMP JUMPDEST PUSH1 0x40 DUP3 ADD SWAP1 POP SWAP2 SWAP1 POP JUMP JUMPDEST PUSH1 0x0 PUSH1 0x20 DUP3 ADD SWAP1 POP DUP2 DUP2 SUB PUSH1 0x0 DUP4 ADD MSTORE PUSH2 0x3DEF DUP2 PUSH2 0x3DB3 JUMP JUMPDEST SWAP1 POP SWAP2 SWAP1 POP JUMP JUMPDEST PUSH32 0x5574696C697469657320666F722074686973206D6F6E74682068617665206E6F PUSH1 0x0 DUP3 ADD MSTORE PUSH32 0x74206265656E207265636F726465640000000000000000000000000000000000 PUSH1 0x20 DUP3 ADD MSTORE POP JUMP JUMPDEST PUSH1 0x0 PUSH2 0x3E52 PUSH1 0x2F DUP4 PUSH2 0x3191 JUMP JUMPDEST SWAP2 POP PUSH2 0x3E5D DUP3 PUSH2 0x3DF6 JUMP JUMPDEST PUSH1 0x40 DUP3 ADD SWAP1 POP SWAP2 SWAP1 POP JUMP JUMPDEST PUSH1 0x0 PUSH1 0x20 DUP3 ADD SWAP1 POP DUP2 DUP2 SUB PUSH1 0x0 DUP4 ADD MSTORE PUSH2 0x3E81 DUP2 PUSH2 0x3E45 JUMP JUMPDEST SWAP1 POP SWAP2 SWAP1 POP JUMP JUMPDEST PUSH32 0x496E636F72726563742072656E7420616D6F756E740000000000000000000000 PUSH1 0x0 DUP3 ADD MSTORE POP JUMP JUMPDEST PUSH1 0x0 PUSH2 0x3EBE PUSH1 0x15 DUP4 PUSH2 0x3191 JUMP JUMPDEST SWAP2 POP PUSH2 0x3EC9 DUP3 PUSH2 0x3E88 JUMP JUMPDEST PUSH1 0x20 DUP3 ADD SWAP1 POP SWAP2 SWAP1 POP JUMP JUMPDEST PUSH1 0x0 PUSH1 0x20 DUP3 ADD SWAP1 POP DUP2 DUP2 SUB PUSH1 0x0 DUP4 ADD MSTORE PUSH2 0x3EED DUP2 PUSH2 0x3EB1 JUMP JUMPDEST SWAP1 POP SWAP2 SWAP1 POP JUMP JUMPDEST PUSH1 0x0 PUSH2 0x3EFF DUP3 PUSH2 0x2EF8 JUMP JUMPDEST SWAP2 POP PUSH32 0xFFFFFFFFFFFFFFFFFFFFFFFFFFFFFFFFFFFFFFFFFFFFFFFFFFFFFFFFFFFFFFFF DUP3 SUB PUSH2 0x3F31 JUMPI PUSH2 0x3F30 PUSH2 0x35C7 JUMP JUMPDEST JUMPDEST PUSH1 0x1 DUP3 ADD SWAP1 POP SWAP2 SWAP1 POP JUMP JUMPDEST PUSH32 0x4F6E6C79206C616E646C6F72642063616E20696E697469616C697A6520637572 PUSH1 0x0 DUP3 ADD MSTORE PUSH32 0x72656E74207365637572697479206465706F7369740000000000000000000000 PUSH1 0x20 DUP3 ADD MSTORE POP JUMP JUMPDEST PUSH1 0x0 PUSH2 0x3F98 PUSH1 0x35 DUP4 PUSH2 0x3191 JUMP JUMPDEST SWAP2 POP PUSH2 0x3FA3 DUP3 PUSH2 0x3F3C JUMP JUMPDEST PUSH1 0x40 DUP3 ADD SWAP1 POP SWAP2 SWAP1 POP JUMP JUMPDEST PUSH1 0x0 PUSH1 0x20 DUP3 ADD SWAP1 POP DUP2 DUP2 SUB PUSH1 0x0 DUP4 ADD MSTORE PUSH2 0x3FC7 DUP2 PUSH2 0x3F8B JUMP JUMPDEST SWAP1 POP SWAP2 SWAP1 POP JUMP JUMPDEST PUSH32 0x436F6E7472616374206D75737420626520616374697665000000000000000000 PUSH1 0x0 DUP3 ADD MSTORE POP JUMP JUMPDEST PUSH1 0x0 PUSH2 0x4004 PUSH1 0x17 DUP4 PUSH2 0x3191 JUMP JUMPDEST SWAP2 POP PUSH2 0x400F DUP3 PUSH2 0x3FCE JUMP JUMPDEST PUSH1 0x20 DUP3 ADD SWAP1 POP SWAP2 SWAP1 POP JUMP JUMPDEST PUSH1 0x0 PUSH1 0x20 DUP3 ADD SWAP1 POP DUP2 DUP2 SUB PUSH1 0x0 DUP4 ADD MSTORE PUSH2 0x4033 DUP2 PUSH2 0x3FF7 JUMP JUMPDEST SWAP1 POP SWAP2 SWAP1 POP JUMP JUMPDEST PUSH32 0x43757272656E74207365637572697479206465706F73697420616C7265616479 PUSH1 0x0 DUP3 ADD MSTORE PUSH32 0x20696E697469616C697A65640000000000000000000000000000000000000000 PUSH1 0x20 DUP3 ADD MSTORE POP JUMP JUMPDEST PUSH1 0x0 PUSH2 0x4096 PUSH1 0x2C DUP4 PUSH2 0x3191 JUMP JUMPDEST SWAP2 POP PUSH2 0x40A1 DUP3 PUSH2 0x403A JUMP JUMPDEST PUSH1 0x40 DUP3 ADD SWAP1 POP SWAP2 SWAP1 POP JUMP JUMPDEST PUSH1 0x0 PUSH1 0x20 DUP3 ADD SWAP1 POP DUP2 DUP2 SUB PUSH1 0x0 DUP4 ADD MSTORE PUSH2 0x40C5 DUP2 PUSH2 0x4089 JUMP JUMPDEST SWAP1 POP SWAP2 SWAP1 POP JUMP JUMPDEST PUSH32 0x4F6E6C792072656E7465722063616E207365742074686520636F756E74657220 PUSH1 0x0 DUP3 ADD MSTORE PUSH32 0x657374696D617465000000000000000000000000000000000000000000000000 PUSH1 0x20 DUP3 ADD MSTORE POP JUMP JUMPDEST PUSH1 0x0 PUSH2 0x4128 PUSH1 0x28 DUP4 PUSH2 0x3191 JUMP JUMPDEST SWAP2 POP PUSH2 0x4133 DUP3 PUSH2 0x40CC JUMP JUMPDEST PUSH1 0x40 DUP3 ADD SWAP1 POP SWAP2 SWAP1 POP JUMP JUMPDEST PUSH1 0x0 PUSH1 0x20 DUP3 ADD SWAP1 POP DUP2 DUP2 SUB PUSH1 0x0 DUP4 ADD MSTORE PUSH2 0x4157 DUP2 PUSH2 0x411B JUMP JUMPDEST SWAP1 POP SWAP2 SWAP1 POP JUMP JUMPDEST PUSH32 0x4C616E646C6F7264206D757374207365742064616D61676520657374696D6174 PUSH1 0x0 DUP3 ADD MSTORE PUSH32 0x6520666972737400000000000000000000000000000000000000000000000000 PUSH1 0x20 DUP3 ADD MSTORE POP JUMP JUMPDEST PUSH1 0x0 PUSH2 0x41BA PUSH1 0x27 DUP4 PUSH2 0x3191 JUMP JUMPDEST SWAP2 POP PUSH2 0x41C5 DUP3 PUSH2 0x415E JUMP JUMPDEST PUSH1 0x40 DUP3 ADD SWAP1 POP SWAP2 SWAP1 POP JUMP JUMPDEST PUSH1 0x0 PUSH1 0x20 DUP3 ADD SWAP1 POP DUP2 DUP2 SUB PUSH1 0x0 DUP4 ADD MSTORE PUSH2 0x41E9 DUP2 PUSH2 0x41AD JUMP JUMPDEST SWAP1 POP SWAP2 SWAP1 POP JUMP JUMPDEST PUSH32 0x4F6E6C792072656E7465722063616E20736B69702072656E74207061796D656E PUSH1 0x0 DUP3 ADD MSTORE PUSH32 0x7400000000000000000000000000000000000000000000000000000000000000 PUSH1 0x20 DUP3 ADD MSTORE POP JUMP JUMPDEST PUSH1 0x0 PUSH2 0x424C PUSH1 0x21 DUP4 PUSH2 0x3191 JUMP JUMPDEST SWAP2 POP PUSH2 0x4257 DUP3 PUSH2 0x41F0 JUMP JUMPDEST PUSH1 0x40 DUP3 ADD SWAP1 POP SWAP2 SWAP1 POP JUMP JUMPDEST PUSH1 0x0 PUSH1 0x20 DUP3 ADD SWAP1 POP DUP2 DUP2 SUB PUSH1 0x0 DUP4 ADD MSTORE PUSH2 0x427B DUP2 PUSH2 0x423F JUMP JUMPDEST SWAP1 POP SWAP2 SWAP1 POP JUMP JUMPDEST PUSH32 0x4F6E6C79206C616E646C6F72642063616E207365742061677265656D656E7420 PUSH1 0x0 DUP3 ADD MSTORE PUSH32 0x7465726D73000000000000000000000000000000000000000000000000000000 PUSH1 0x20 DUP3 ADD MSTORE POP JUMP JUMPDEST PUSH1 0x0 PUSH2 0x42DE PUSH1 0x25 DUP4 PUSH2 0x3191 JUMP JUMPDEST SWAP2 POP PUSH2 0x42E9 DUP3 PUSH2 0x4282 JUMP JUMPDEST PUSH1 0x40 DUP3 ADD SWAP1 POP SWAP2 SWAP1 POP JUMP JUMPDEST PUSH1 0x0 PUSH1 0x20 DUP3 ADD SWAP1 POP DUP2 DUP2 SUB PUSH1 0x0 DUP4 ADD MSTORE PUSH2 0x430D DUP2 PUSH2 0x42D1 JUMP JUMPDEST SWAP1 POP SWAP2 SWAP1 POP JUMP JUMPDEST PUSH1 0x0 PUSH1 0x60 DUP3 ADD SWAP1 POP PUSH2 0x4329 PUSH1 0x0 DUP4 ADD DUP7 PUSH2 0x2F02 JUMP JUMPDEST PUSH2 0x4336 PUSH1 0x20 DUP4 ADD DUP6 PUSH2 0x2F02 JUMP JUMPDEST PUSH2 0x4343 PUSH1 0x40 DUP4 ADD DUP5 PUSH2 0x2F02 JUMP JUMPDEST SWAP5 SWAP4 POP POP POP POP JUMP JUMPDEST PUSH32 0x4F6E6C792072656E7465722063616E2072656A6563742074686520657374696D PUSH1 0x0 DUP3 ADD MSTORE PUSH32 0x6174650000000000000000000000000000000000000000000000000000000000 PUSH1 0x20 DUP3 ADD MSTORE POP JUMP JUMPDEST PUSH1 0x0 PUSH2 0x43A7 PUSH1 0x23 DUP4 PUSH2 0x3191 JUMP JUMPDEST SWAP2 POP PUSH2 0x43B2 DUP3 PUSH2 0x434B JUMP JUMPDEST PUSH1 0x40 DUP3 ADD SWAP1 POP SWAP2 SWAP1 POP JUMP JUMPDEST PUSH1 0x0 PUSH1 0x20 DUP3 ADD SWAP1 POP DUP2 DUP2 SUB PUSH1 0x0 DUP4 ADD MSTORE PUSH2 0x43D6 DUP2 PUSH2 0x439A JUMP JUMPDEST SWAP1 POP SWAP2 SWAP1 POP JUMP JUMPDEST PUSH32 0x4F6E6C792072656E7465722063616E206163636570742074686520657374696D PUSH1 0x0 DUP3 ADD MSTORE PUSH32 0x6174650000000000000000000000000000000000000000000000000000000000 PUSH1 0x20 DUP3 ADD MSTORE POP JUMP JUMPDEST PUSH1 0x0 PUSH2 0x4439 PUSH1 0x23 DUP4 PUSH2 0x3191 JUMP JUMPDEST SWAP2 POP PUSH2 0x4444 DUP3 PUSH2 0x43DD JUMP JUMPDEST PUSH1 0x40 DUP3 ADD SWAP1 POP SWAP2 SWAP1 POP JUMP JUMPDEST PUSH1 0x0 PUSH1 0x20 DUP3 ADD SWAP1 POP DUP2 DUP2 SUB PUSH1 0x0 DUP4 ADD MSTORE PUSH2 0x4468 DUP2 PUSH2 0x442C JUMP JUMPDEST SWAP1 POP SWAP2 SWAP1 POP JUMP JUMPDEST PUSH32 0x4F6E6C79206C616E646C6F72642063616E206163636570742074686520636F75 PUSH1 0x0 DUP3 ADD MSTORE PUSH32 0x6E74657220657374696D61746500000000000000000000000000000000000000 PUSH1 0x20 DUP3 ADD MSTORE POP JUMP JUMPDEST PUSH1 0x0 PUSH2 0x44CB PUSH1 0x2D DUP4 PUSH2 0x3191 JUMP JUMPDEST SWAP2 POP PUSH2 0x44D6 DUP3 PUSH2 0x446F JUMP JUMPDEST PUSH1 0x40 DUP3 ADD SWAP1 POP SWAP2 SWAP1 POP JUMP JUMPDEST PUSH1 0x0 PUSH1 0x20 DUP3 ADD SWAP1 POP DUP2 DUP2 SUB PUSH1 0x0 DUP4 ADD MSTORE PUSH2 0x44FA DUP2 PUSH2 0x44BE JUMP JUMPDEST SWAP1 POP SWAP2 SWAP1 POP JUMP JUMPDEST PUSH32 0x4469737075746520616C72656164792072616973656400000000000000000000 PUSH1 0x0 DUP3 ADD MSTORE POP JUMP JUMPDEST PUSH1 0x0 PUSH2 0x4537 PUSH1 0x16 DUP4 PUSH2 0x3191 JUMP JUMPDEST SWAP2 POP PUSH2 0x4542 DUP3 PUSH2 0x4501 JUMP JUMPDEST PUSH1 0x20 DUP3 ADD SWAP1 POP SWAP2 SWAP1 POP JUMP JUMPDEST PUSH1 0x0 PUSH1 0x20 DUP3 ADD SWAP1 POP DUP2 DUP2 SUB PUSH1 0x0 DUP4 ADD MSTORE PUSH2 0x4566 DUP2 PUSH2 0x452A JUMP JUMPDEST SWAP1 POP SWAP2 SWAP1 POP JUMP JUMPDEST PUSH32 0x426F746820657374696D61746573206D75737420626520736574206265666F72 PUSH1 0x0 DUP3 ADD MSTORE PUSH32 0x652072616973696E672061206469737075746500000000000000000000000000 PUSH1 0x20 DUP3 ADD MSTORE POP JUMP JUMPDEST PUSH1 0x0 PUSH2 0x45C9 PUSH1 0x33 DUP4 PUSH2 0x3191 JUMP JUMPDEST SWAP2 POP PUSH2 0x45D4 DUP3 PUSH2 0x456D JUMP JUMPDEST PUSH1 0x40 DUP3 ADD SWAP1 POP SWAP2 SWAP1 POP JUMP JUMPDEST PUSH1 0x0 PUSH1 0x20 DUP3 ADD SWAP1 POP DUP2 DUP2 SUB PUSH1 0x0 DUP4 ADD MSTORE PUSH2 0x45F8 DUP2 PUSH2 0x45BC JUMP JUMPDEST SWAP1 POP SWAP2 SWAP1 POP JUMP JUMPDEST PUSH1 0x0 DUP2 SWAP1 POP SWAP2 SWAP1 POP JUMP JUMPDEST PUSH1 0x0 PUSH2 0x4624 PUSH2 0x461F PUSH2 0x461A DUP5 PUSH2 0x45FF JUMP JUMPDEST PUSH2 0x3026 JUMP JUMPDEST PUSH2 0x2EF8 JUMP JUMPDEST SWAP1 POP SWAP2 SWAP1 POP JUMP JUMPDEST PUSH2 0x4634 DUP2 PUSH2 0x4609 JUMP JUMPDEST DUP3 MSTORE POP POP JUMP JUMPDEST PUSH1 0x0 PUSH1 0x40 DUP3 ADD SWAP1 POP PUSH2 0x464F PUSH1 0x0 DUP4 ADD DUP5 PUSH2 0x462B JUMP JUMPDEST DUP2 DUP2 SUB PUSH1 0x20 DUP4 ADD MSTORE PUSH2 0x4660 DUP2 PUSH2 0x34B0 JUMP JUMPDEST SWAP1 POP SWAP3 SWAP2 POP POP JUMP INVALID LOG2 PUSH5 0x6970667358 0x22 SLT KECCAK256 0xB5 0x24 0xE8 0xC PUSH13 0x2C0C834BC36E711B22248D12EA 0xAA 0x4B PUSH20 0xA3015B3E617E6FB913E7B564736F6C6343000812 STOP CALLER "
				},
				"gasEstimates": {
					"creation": {
						"codeDepositCost": "3615600",
						"executionCost": "infinite",
						"totalCost": "infinite"
					},
					"external": {
						"acceptLandlordEstimate()": "infinite",
						"acceptRenterCounterEstimate()": "infinite",
						"activateContract()": "75209",
						"arbitrationCost()": "2496",
						"baseRent()": "2498",
						"currentMonth()": "2541",
						"currentSecurityDeposit()": "2518",
						"damageEstimate()": "2564",
						"disputeID()": "2540",
						"disputeRaised()": "2568",
						"dueRent()": "2518",
						"getArbitrationCost()": "infinite",
						"getContractBalance()": "450",
						"getCurrentSecurityDeposit()": "2483",
						"getLandlordBalance()": "4817",
						"getRenterBalance()": "4818",
						"initializeCurrentSecurityDeposit()": "30890",
						"isActive()": "2539",
						"isRentalPeriodEnded()": "2596",
						"isSecurityDepositPaid()": "2631",
						"kleros()": "infinite",
						"landlord()": "2644",
						"landlordAccepted()": "2654",
						"landlordEstimateSet()": "2654",
						"monthlyRents(uint256)": "infinite",
						"payRent()": "infinite",
						"paySecurityDeposit()": "32231",
						"pendingWithdrawals(address)": "2946",
						"recordUtilities(uint256)": "infinite",
						"rejectLandlordEstimate()": "5449",
						"rejectRenterCounterEstimate()": "infinite",
						"rentPeriodInMonths()": "2563",
						"rentStartDate()": "2497",
						"rentalPeriodEnded()": "2611",
						"renter()": "2604",
						"renterAccepted()": "2566",
						"renterCounterEstimate()": "2519",
						"renterCounterEstimateSet()": "2567",
						"rule(uint256,uint256)": "infinite",
						"securityDeposit()": "2475",
						"setAgreementTerms(uint256,uint256,uint256)": "infinite",
						"setDamageEstimate(uint256)": "infinite",
						"setRenterCounterEstimate(uint256)": "infinite",
						"skipRentPayment()": "infinite",
						"withdraw()": "infinite"
					},
					"internal": {
						"endContract()": "infinite",
						"raiseDispute()": "infinite"
					}
				},
				"methodIdentifiers": {
					"acceptLandlordEstimate()": "dd6bcb16",
					"acceptRenterCounterEstimate()": "eaa0a302",
					"activateContract()": "8fda356d",
					"arbitrationCost()": "697b05a2",
					"baseRent()": "04a2286a",
					"currentMonth()": "862a4d47",
					"currentSecurityDeposit()": "d261c91f",
					"damageEstimate()": "1a576049",
					"disputeID()": "b0a1e2b4",
					"disputeRaised()": "004422eb",
					"dueRent()": "6f3c590c",
					"getArbitrationCost()": "63022560",
					"getContractBalance()": "6f9fb98a",
					"getCurrentSecurityDeposit()": "779318e5",
					"getLandlordBalance()": "feeaea4e",
					"getRenterBalance()": "740906c0",
					"initializeCurrentSecurityDeposit()": "a972500f",
					"isActive()": "22f3e2d4",
					"isRentalPeriodEnded()": "cbe615b1",
					"isSecurityDepositPaid()": "f13702f4",
					"kleros()": "5a920320",
					"landlord()": "dc1997ea",
					"landlordAccepted()": "b602ea60",
					"landlordEstimateSet()": "71357a46",
					"monthlyRents(uint256)": "e1505e4e",
					"payRent()": "a709c4fe",
					"paySecurityDeposit()": "42c63dae",
					"pendingWithdrawals(address)": "f3f43703",
					"recordUtilities(uint256)": "7ef98740",
					"rejectLandlordEstimate()": "dcf2559e",
					"rejectRenterCounterEstimate()": "1890fc37",
					"rentPeriodInMonths()": "87eaa342",
					"rentStartDate()": "561eefd8",
					"rentalPeriodEnded()": "5a0e9bcc",
					"renter()": "2e88ab0b",
					"renterAccepted()": "65a746e9",
					"renterCounterEstimate()": "81d388ba",
					"renterCounterEstimateSet()": "47ed9c65",
					"rule(uint256,uint256)": "311a6c56",
					"securityDeposit()": "220e5ab3",
					"setAgreementTerms(uint256,uint256,uint256)": "d738307c",
					"setDamageEstimate(uint256)": "08c59798",
					"setRenterCounterEstimate(uint256)": "c2d6d462",
					"skipRentPayment()": "ca088031",
					"withdraw()": "3ccfd60b"
				}
			},
			"storageLayout": {
				"storage": [
					{
						"astId": 30,
						"contract": "contracts/HRSKleros.sol:HouseRentalAgreement",
						"label": "landlord",
						"offset": 0,
						"slot": "0",
						"type": "t_address"
					},
					{
						"astId": 32,
						"contract": "contracts/HRSKleros.sol:HouseRentalAgreement",
						"label": "renter",
						"offset": 0,
						"slot": "1",
						"type": "t_address"
					},
					{
						"astId": 34,
						"contract": "contracts/HRSKleros.sol:HouseRentalAgreement",
						"label": "securityDeposit",
						"offset": 0,
						"slot": "2",
						"type": "t_uint256"
					},
					{
						"astId": 36,
						"contract": "contracts/HRSKleros.sol:HouseRentalAgreement",
						"label": "baseRent",
						"offset": 0,
						"slot": "3",
						"type": "t_uint256"
					},
					{
						"astId": 38,
						"contract": "contracts/HRSKleros.sol:HouseRentalAgreement",
						"label": "rentPeriodInMonths",
						"offset": 0,
						"slot": "4",
						"type": "t_uint256"
					},
					{
						"astId": 40,
						"contract": "contracts/HRSKleros.sol:HouseRentalAgreement",
						"label": "rentStartDate",
						"offset": 0,
						"slot": "5",
						"type": "t_uint256"
					},
					{
						"astId": 42,
						"contract": "contracts/HRSKleros.sol:HouseRentalAgreement",
						"label": "currentMonth",
						"offset": 0,
						"slot": "6",
						"type": "t_uint256"
					},
					{
						"astId": 44,
						"contract": "contracts/HRSKleros.sol:HouseRentalAgreement",
						"label": "dueRent",
						"offset": 0,
						"slot": "7",
						"type": "t_uint256"
					},
					{
						"astId": 46,
						"contract": "contracts/HRSKleros.sol:HouseRentalAgreement",
						"label": "damageEstimate",
						"offset": 0,
						"slot": "8",
						"type": "t_uint256"
					},
					{
						"astId": 48,
						"contract": "contracts/HRSKleros.sol:HouseRentalAgreement",
						"label": "renterCounterEstimate",
						"offset": 0,
						"slot": "9",
						"type": "t_uint256"
					},
					{
						"astId": 50,
						"contract": "contracts/HRSKleros.sol:HouseRentalAgreement",
						"label": "disputeID",
						"offset": 0,
						"slot": "10",
						"type": "t_uint256"
					},
					{
						"astId": 52,
						"contract": "contracts/HRSKleros.sol:HouseRentalAgreement",
						"label": "currentSecurityDeposit",
						"offset": 0,
						"slot": "11",
						"type": "t_uint256"
					},
					{
						"astId": 54,
						"contract": "contracts/HRSKleros.sol:HouseRentalAgreement",
						"label": "arbitrationCost",
						"offset": 0,
						"slot": "12",
						"type": "t_uint256"
					},
					{
						"astId": 56,
						"contract": "contracts/HRSKleros.sol:HouseRentalAgreement",
						"label": "isActive",
						"offset": 0,
						"slot": "13",
						"type": "t_bool"
					},
					{
						"astId": 58,
						"contract": "contracts/HRSKleros.sol:HouseRentalAgreement",
						"label": "isSecurityDepositPaid",
						"offset": 1,
						"slot": "13",
						"type": "t_bool"
					},
					{
						"astId": 60,
						"contract": "contracts/HRSKleros.sol:HouseRentalAgreement",
						"label": "disputeRaised",
						"offset": 2,
						"slot": "13",
						"type": "t_bool"
					},
					{
						"astId": 62,
						"contract": "contracts/HRSKleros.sol:HouseRentalAgreement",
						"label": "landlordAccepted",
						"offset": 3,
						"slot": "13",
						"type": "t_bool"
					},
					{
						"astId": 64,
						"contract": "contracts/HRSKleros.sol:HouseRentalAgreement",
						"label": "renterAccepted",
						"offset": 4,
						"slot": "13",
						"type": "t_bool"
					},
					{
						"astId": 66,
						"contract": "contracts/HRSKleros.sol:HouseRentalAgreement",
						"label": "rentalPeriodEnded",
						"offset": 5,
						"slot": "13",
						"type": "t_bool"
					},
					{
						"astId": 68,
						"contract": "contracts/HRSKleros.sol:HouseRentalAgreement",
						"label": "landlordEstimateSet",
						"offset": 6,
						"slot": "13",
						"type": "t_bool"
					},
					{
						"astId": 70,
						"contract": "contracts/HRSKleros.sol:HouseRentalAgreement",
						"label": "renterCounterEstimateSet",
						"offset": 7,
						"slot": "13",
						"type": "t_bool"
					},
					{
						"astId": 73,
						"contract": "contracts/HRSKleros.sol:HouseRentalAgreement",
						"label": "kleros",
						"offset": 8,
						"slot": "13",
						"type": "t_contract(IArbitrator)18"
					},
					{
						"astId": 87,
						"contract": "contracts/HRSKleros.sol:HouseRentalAgreement",
						"label": "monthlyRents",
						"offset": 0,
						"slot": "14",
						"type": "t_mapping(t_uint256,t_struct(MonthlyRent)82_storage)"
					},
					{
						"astId": 91,
						"contract": "contracts/HRSKleros.sol:HouseRentalAgreement",
						"label": "pendingWithdrawals",
						"offset": 0,
						"slot": "15",
						"type": "t_mapping(t_address,t_uint256)"
					}
				],
				"types": {
					"t_address": {
						"encoding": "inplace",
						"label": "address",
						"numberOfBytes": "20"
					},
					"t_bool": {
						"encoding": "inplace",
						"label": "bool",
						"numberOfBytes": "1"
					},
					"t_contract(IArbitrator)18": {
						"encoding": "inplace",
						"label": "contract IArbitrator",
						"numberOfBytes": "20"
					},
					"t_mapping(t_address,t_uint256)": {
						"encoding": "mapping",
						"key": "t_address",
						"label": "mapping(address => uint256)",
						"numberOfBytes": "32",
						"value": "t_uint256"
					},
					"t_mapping(t_uint256,t_struct(MonthlyRent)82_storage)": {
						"encoding": "mapping",
						"key": "t_uint256",
						"label": "mapping(uint256 => struct HouseRentalAgreement.MonthlyRent)",
						"numberOfBytes": "32",
						"value": "t_struct(MonthlyRent)82_storage"
					},
					"t_struct(MonthlyRent)82_storage": {
						"encoding": "inplace",
						"label": "struct HouseRentalAgreement.MonthlyRent",
						"members": [
							{
								"astId": 75,
								"contract": "contracts/HRSKleros.sol:HouseRentalAgreement",
								"label": "baseRent",
								"offset": 0,
								"slot": "0",
								"type": "t_uint256"
							},
							{
								"astId": 77,
								"contract": "contracts/HRSKleros.sol:HouseRentalAgreement",
								"label": "utilities",
								"offset": 0,
								"slot": "1",
								"type": "t_uint256"
							},
							{
								"astId": 79,
								"contract": "contracts/HRSKleros.sol:HouseRentalAgreement",
								"label": "due",
								"offset": 0,
								"slot": "2",
								"type": "t_uint256"
							},
							{
								"astId": 81,
								"contract": "contracts/HRSKleros.sol:HouseRentalAgreement",
								"label": "paid",
								"offset": 0,
								"slot": "3",
								"type": "t_bool"
							}
						],
						"numberOfBytes": "128"
					},
					"t_uint256": {
						"encoding": "inplace",
						"label": "uint256",
						"numberOfBytes": "32"
					}
				}
			},
			"userdoc": {
				"kind": "user",
				"methods": {},
				"version": 1
			}
		}
	}
}