{
	"data": {
		"bytecode": {
			"linkReferences": {},
			"object": "60806040523480156200001157600080fd5b50604051620045db380380620045db8339818101604052810190620000379190620001c5565b336000806101000a81548173ffffffffffffffffffffffffffffffffffffffff021916908373ffffffffffffffffffffffffffffffffffffffff16021790555081600160006101000a81548173ffffffffffffffffffffffffffffffffffffffff021916908373ffffffffffffffffffffffffffffffffffffffff16021790555080600d60086101000a81548173ffffffffffffffffffffffffffffffffffffffff021916908373ffffffffffffffffffffffffffffffffffffffff1602179055506000600d60006101000a81548160ff0219169083151502179055506000600d60016101000a81548160ff0219169083151502179055506000600d60026101000a81548160ff021916908315150217905550600254600b8190555050506200020c565b600080fd5b600073ffffffffffffffffffffffffffffffffffffffff82169050919050565b60006200018d8262000160565b9050919050565b6200019f8162000180565b8114620001ab57600080fd5b50565b600081519050620001bf8162000194565b92915050565b60008060408385031215620001df57620001de6200015b565b5b6000620001ef85828601620001ae565b92505060206200020285828601620001ae565b9150509250929050565b6143bf806200021c6000396000f3fe60806040526004361061026a5760003560e01c8063779318e511610144578063cbe615b1116100b6578063dd6bcb161161007a578063dd6bcb1614610828578063e1505e4e1461083f578063eaa0a3021461087f578063f13702f414610896578063f3f43703146108c1578063feeaea4e146108fe57610271565b8063cbe615b114610767578063d261c91f14610792578063d738307c146107bd578063dc1997ea146107e6578063dcf2559e1461081157610271565b80638fda356d116101085780638fda356d146106b0578063a709c4fe146106c7578063b0a1e2b4146106d1578063b602ea60146106fc578063c2d6d46214610727578063ca0880311461075057610271565b8063779318e5146105db5780637ef987401461060657806381d388ba1461062f578063862a4d471461065a57806387eaa3421461068557610271565b806347ed9c65116101dd57806365a746e9116101a157806365a746e9146104d9578063697b05a2146105045780636f3c590c1461052f5780636f9fb98a1461055a57806371357a4614610585578063740906c0146105b057610271565b806347ed9c6514610402578063561eefd81461042d5780635a0e9bcc146104585780635a9203201461048357806363022560146104ae57610271565b8063220e5ab31161022f578063220e5ab31461033757806322f3e2d4146103625780632e88ab0b1461038d578063311a6c56146103b85780633ccfd60b146103e157806342c63dae146103f857610271565b80624422eb1461027657806304a2286a146102a157806308c59798146102cc5780631890fc37146102f55780631a5760491461030c57610271565b3661027157005b600080fd5b34801561028257600080fd5b5061028b610929565b6040516102989190612d8e565b60405180910390f35b3480156102ad57600080fd5b506102b661093c565b6040516102c39190612dc2565b60405180910390f35b3480156102d857600080fd5b506102f360048036038101906102ee9190612e0e565b610942565b005b34801561030157600080fd5b5061030a610b1a565b005b34801561031857600080fd5b50610321610d2f565b60405161032e9190612dc2565b60405180910390f35b34801561034357600080fd5b5061034c610d35565b6040516103599190612dc2565b60405180910390f35b34801561036e57600080fd5b50610377610d3b565b6040516103849190612d8e565b60405180910390f35b34801561039957600080fd5b506103a2610d4e565b6040516103af9190612e7c565b60405180910390f35b3480156103c457600080fd5b506103df60048036038101906103da9190612e97565b610d74565b005b3480156103ed57600080fd5b506103f6611153565b005b61040061131d565b005b34801561040e57600080fd5b50610417611495565b6040516104249190612d8e565b60405180910390f35b34801561043957600080fd5b506104426114a8565b60405161044f9190612dc2565b60405180910390f35b34801561046457600080fd5b5061046d6114ae565b60405161047a9190612d8e565b60405180910390f35b34801561048f57600080fd5b506104986114c1565b6040516104a59190612f36565b60405180910390f35b3480156104ba57600080fd5b506104c36114e7565b6040516104d09190612dc2565b60405180910390f35b3480156104e557600080fd5b506104ee611588565b6040516104fb9190612d8e565b60405180910390f35b34801561051057600080fd5b5061051961159b565b6040516105269190612dc2565b60405180910390f35b34801561053b57600080fd5b506105446115a1565b6040516105519190612dc2565b60405180910390f35b34801561056657600080fd5b5061056f6115a7565b60405161057c9190612dc2565b60405180910390f35b34801561059157600080fd5b5061059a6115af565b6040516105a79190612d8e565b60405180910390f35b3480156105bc57600080fd5b506105c56115c2565b6040516105d29190612dc2565b60405180910390f35b3480156105e757600080fd5b506105f061162b565b6040516105fd9190612dc2565b60405180910390f35b34801561061257600080fd5b5061062d60048036038101906106289190612e0e565b611635565b005b34801561063b57600080fd5b506106446117d3565b6040516106519190612dc2565b60405180910390f35b34801561066657600080fd5b5061066f6117d9565b60405161067c9190612dc2565b60405180910390f35b34801561069157600080fd5b5061069a6117df565b6040516106a79190612dc2565b60405180910390f35b3480156106bc57600080fd5b506106c56117e5565b005b6106cf61193e565b005b3480156106dd57600080fd5b506106e6611d0a565b6040516106f39190612dc2565b60405180910390f35b34801561070857600080fd5b50610711611d10565b60405161071e9190612d8e565b60405180910390f35b34801561073357600080fd5b5061074e60048036038101906107499190612e0e565b611d23565b005b34801561075c57600080fd5b50610765611e5e565b005b34801561077357600080fd5b5061077c6120d7565b6040516107899190612d8e565b60405180910390f35b34801561079e57600080fd5b506107a76120ee565b6040516107b49190612dc2565b60405180910390f35b3480156107c957600080fd5b506107e460048036038101906107df9190612f51565b6120f4565b005b3480156107f257600080fd5b506107fb612227565b6040516108089190612e7c565b60405180910390f35b34801561081d57600080fd5b5061082661224b565b005b34801561083457600080fd5b5061083d612358565b005b34801561084b57600080fd5b5061086660048036038101906108619190612e0e565b612657565b6040516108769493929190612fa4565b60405180910390f35b34801561088b57600080fd5b50610894612694565b005b3480156108a257600080fd5b506108ab6129bd565b6040516108b89190612d8e565b60405180910390f35b3480156108cd57600080fd5b506108e860048036038101906108e39190613015565b6129d0565b6040516108f59190612dc2565b60405180910390f35b34801561090a57600080fd5b506109136129e8565b6040516109209190612dc2565b60405180910390f35b600d60029054906101000a900460ff1681565b60035481565b60008054906101000a900473ffffffffffffffffffffffffffffffffffffffff1673ffffffffffffffffffffffffffffffffffffffff163373ffffffffffffffffffffffffffffffffffffffff16146109d0576040517f08c379a00000000000000000000000000000000000000000000000000000000081526004016109c7906130c5565b60405180910390fd5b600d60059054906101000a900460ff16610a1f576040517f08c379a0000000000000000000000000000000000000000000000000000000008152600401610a1690613131565b60405180910390fd5b600d60069054906101000a900460ff1615610a6f576040517f08c379a0000000000000000000000000000000000000000000000000000000008152600401610a669061319d565b60405180910390fd5b600d60009054906101000a900460ff16610abe576040517f08c379a0000000000000000000000000000000000000000000000000000000008152600401610ab590613209565b60405180910390fd5b806008819055506001600d60066101000a81548160ff0219169083151502179055507f192101de3933394fedeb636ffadd15c20b3e23e4913ab4051c171a26c90a345981604051610b0f9190612dc2565b60405180910390a150565b60008054906101000a900473ffffffffffffffffffffffffffffffffffffffff1673ffffffffffffffffffffffffffffffffffffffff163373ffffffffffffffffffffffffffffffffffffffff1614610ba8576040517f08c379a0000000000000000000000000000000000000000000000000000000008152600401610b9f9061329b565b60405180910390fd5b600d60079054906101000a900460ff16610bf7576040517f08c379a0000000000000000000000000000000000000000000000000000000008152600401610bee9061332d565b60405180910390fd5b600d60089054906101000a900473ffffffffffffffffffffffffffffffffffffffff1673ffffffffffffffffffffffffffffffffffffffff1663f7434ea96040518163ffffffff1660e01b8152600401610c5090613384565b602060405180830381865afa158015610c6d573d6000803e3d6000fd5b505050506040513d601f19601f82011682018060405250810190610c9191906133b9565b600c81905550600c54600b541015610cde576040517f08c379a0000000000000000000000000000000000000000000000000000000008152600401610cd590613458565b60405180910390fd5b600c54600b6000828254610cf291906134a7565b92505081905550610d01612a50565b7fa7d8a4744bc13e083818434dde26551ea9b29c6425677ebc90cd5dd09ce6b5c760405160405180910390a1565b60085481565b60025481565b600d60009054906101000a900460ff1681565b600160009054906101000a900473ffffffffffffffffffffffffffffffffffffffff1681565b600d60089054906101000a900473ffffffffffffffffffffffffffffffffffffffff1673ffffffffffffffffffffffffffffffffffffffff163373ffffffffffffffffffffffffffffffffffffffff1614610e04576040517f08c379a0000000000000000000000000000000000000000000000000000000008152600401610dfb90613527565b60405180910390fd5b600d60029054906101000a900460ff16610e53576040517f08c379a0000000000000000000000000000000000000000000000000000000008152600401610e4a90613593565b60405180910390fd5b600a548214610e97576040517f08c379a0000000000000000000000000000000000000000000000000000000008152600401610e8e906135ff565b60405180910390fd5b600060018203610ebf57600b5460085410610eb457600b54610eb8565b6008545b9050610ef8565b60028203610ee557600b5460095410610eda57600b54610ede565b6009545b9050610ef7565b6002600b54610ef4919061364e565b90505b5b80600f60008060009054906101000a900473ffffffffffffffffffffffffffffffffffffffff1673ffffffffffffffffffffffffffffffffffffffff1673ffffffffffffffffffffffffffffffffffffffff1681526020019081526020016000206000828254610f68919061367f565b9250508190555080600b54610f7d91906134a7565b600f6000600160009054906101000a900473ffffffffffffffffffffffffffffffffffffffff1673ffffffffffffffffffffffffffffffffffffffff1673ffffffffffffffffffffffffffffffffffffffff1681526020019081526020016000206000828254610fed919061367f565b9250508190555060008054906101000a900473ffffffffffffffffffffffffffffffffffffffff1673ffffffffffffffffffffffffffffffffffffffff167fe670e4e82118d22a1f9ee18920455ebc958bae26a90a05d31d3378788b1b0e448260405161105a9190612dc2565b60405180910390a2600160009054906101000a900473ffffffffffffffffffffffffffffffffffffffff1673ffffffffffffffffffffffffffffffffffffffff167fe670e4e82118d22a1f9ee18920455ebc958bae26a90a05d31d3378788b1b0e4482600b546110ca91906134a7565b6040516110d79190612dc2565b60405180910390a26000600d60026101000a81548160ff0219169083151502179055506000600d60006101000a81548160ff0219169083151502179055507fb4121f1f91a696a3fc75f6d151f3c9865abffa0738bda595e71c381c02af2faa83836040516111469291906136b3565b60405180910390a1505050565b6000600f60003373ffffffffffffffffffffffffffffffffffffffff1673ffffffffffffffffffffffffffffffffffffffff168152602001908152602001600020549050600081116111da576040517f08c379a00000000000000000000000000000000000000000000000000000000081526004016111d190613728565b60405180910390fd5b6000600f60003373ffffffffffffffffffffffffffffffffffffffff1673ffffffffffffffffffffffffffffffffffffffff1681526020019081526020016000208190555060003373ffffffffffffffffffffffffffffffffffffffff168260405161124590613776565b60006040518083038185875af1925050503d8060008114611282576040519150601f19603f3d011682016040523d82523d6000602084013e611287565b606091505b50509050806112cb576040517f08c379a00000000000000000000000000000000000000000000000000000000081526004016112c2906137d7565b60405180910390fd5b3373ffffffffffffffffffffffffffffffffffffffff167f8c9a4f13b67cb64d7c6aa1ae0c9bf07694af521a28b93e7060020810ab4bc59f836040516113119190612dc2565b60405180910390a25050565b600160009054906101000a900473ffffffffffffffffffffffffffffffffffffffff1673ffffffffffffffffffffffffffffffffffffffff163373ffffffffffffffffffffffffffffffffffffffff16146113ad576040517f08c379a00000000000000000000000000000000000000000000000000000000081526004016113a490613869565b60405180910390fd5b600d60009054906101000a900460ff16156113fd576040517f08c379a00000000000000000000000000000000000000000000000000000000081526004016113f4906138d5565b60405180910390fd5b6002543414611441576040517f08c379a000000000000000000000000000000000000000000000000000000000815260040161143890613967565b60405180910390fd5b6001600d60016101000a81548160ff0219169083151502179055507f486ac935cf1ea9effd9e0a261bc42917b45f2fd45cc98def2bc34d47f216937c3460405161148b9190612dc2565b60405180910390a1565b600d60079054906101000a900460ff1681565b60055481565b600d60059054906101000a900460ff1681565b600d60089054906101000a900473ffffffffffffffffffffffffffffffffffffffff1681565b6000600d60089054906101000a900473ffffffffffffffffffffffffffffffffffffffff1673ffffffffffffffffffffffffffffffffffffffff1663f7434ea96040518163ffffffff1660e01b815260040161154290613384565b602060405180830381865afa15801561155f573d6000803e3d6000fd5b505050506040513d601f19601f8201168201806040525081019061158391906133b9565b905090565b600d60049054906101000a900460ff1681565b600c5481565b60075481565b600047905090565b600d60069054906101000a900460ff1681565b6000600f6000600160009054906101000a900473ffffffffffffffffffffffffffffffffffffffff1673ffffffffffffffffffffffffffffffffffffffff1673ffffffffffffffffffffffffffffffffffffffff16815260200190815260200160002054905090565b6000600b54905090565b60008054906101000a900473ffffffffffffffffffffffffffffffffffffffff1673ffffffffffffffffffffffffffffffffffffffff163373ffffffffffffffffffffffffffffffffffffffff16146116c3576040517f08c379a00000000000000000000000000000000000000000000000000000000081526004016116ba906139f9565b60405180910390fd5b600d60009054906101000a900460ff16611712576040517f08c379a000000000000000000000000000000000000000000000000000000000815260040161170990613209565b60405180910390fd5b6004546006541115611759576040517f08c379a000000000000000000000000000000000000000000000000000000000815260040161175090613a65565b60405180910390fd5b80600e6000600654815260200190815260200160002060010181905550600354600e60006006548152602001908152602001600020600001819055507ff75d23e75691b7209bf24071476b3702a8412a369b26fd3ad012d19630f65a2b600654826040516117c89291906136b3565b60405180910390a150565b60095481565b60065481565b60045481565b60008054906101000a900473ffffffffffffffffffffffffffffffffffffffff1673ffffffffffffffffffffffffffffffffffffffff163373ffffffffffffffffffffffffffffffffffffffff1614611873576040517f08c379a000000000000000000000000000000000000000000000000000000000815260040161186a90613af7565b60405180910390fd5b600d60019054906101000a900460ff166118c2576040517f08c379a00000000000000000000000000000000000000000000000000000000081526004016118b990613b89565b60405180910390fd5b600d60009054906101000a900460ff1615611912576040517f08c379a0000000000000000000000000000000000000000000000000000000008152600401611909906138d5565b60405180910390fd5b6001600d60006101000a81548160ff021916908315150217905550426005819055506001600681905550565b600160009054906101000a900473ffffffffffffffffffffffffffffffffffffffff1673ffffffffffffffffffffffffffffffffffffffff163373ffffffffffffffffffffffffffffffffffffffff16146119ce576040517f08c379a00000000000000000000000000000000000000000000000000000000081526004016119c590613bf5565b60405180910390fd5b600d60009054906101000a900460ff16611a1d576040517f08c379a0000000000000000000000000000000000000000000000000000000008152600401611a1490613209565b60405180910390fd5b6004546006541115611a64576040517f08c379a0000000000000000000000000000000000000000000000000000000008152600401611a5b90613a65565b60405180910390fd5b6000600e6000600654815260200190815260200160002090508060030160009054906101000a900460ff1615611acf576040517f08c379a0000000000000000000000000000000000000000000000000000000008152600401611ac690613c87565b60405180910390fd5b6000816001015411611b16576040517f08c379a0000000000000000000000000000000000000000000000000000000008152600401611b0d90613d19565b60405180910390fd5b600060075482600101548360000154611b2f919061367f565b611b39919061367f565b9050803414611b7d576040517f08c379a0000000000000000000000000000000000000000000000000000000008152600401611b7490613d85565b60405180910390fd5b60018260030160006101000a81548160ff02191690831515021790555060006007819055507fa0d112ed080c1b1a94b838ad981a23746be2a4670fd4bf157224e72cdd5dfdde60065482604051611bd59291906136b3565b60405180910390a180600f60008060009054906101000a900473ffffffffffffffffffffffffffffffffffffffff1673ffffffffffffffffffffffffffffffffffffffff1673ffffffffffffffffffffffffffffffffffffffff1681526020019081526020016000206000828254611c4d919061367f565b9250508190555060008054906101000a900473ffffffffffffffffffffffffffffffffffffffff1673ffffffffffffffffffffffffffffffffffffffff167fe670e4e82118d22a1f9ee18920455ebc958bae26a90a05d31d3378788b1b0e4482604051611cba9190612dc2565b60405180910390a260045460065403611ced576001600d60056101000a81548160ff021916908315150217905550611d06565b60066000815480929190611d0090613da5565b91905055505b5050565b600a5481565b600d60039054906101000a900460ff1681565b600160009054906101000a900473ffffffffffffffffffffffffffffffffffffffff1673ffffffffffffffffffffffffffffffffffffffff163373ffffffffffffffffffffffffffffffffffffffff1614611db3576040517f08c379a0000000000000000000000000000000000000000000000000000000008152600401611daa90613e5f565b60405180910390fd5b600d60069054906101000a900460ff16611e02576040517f08c379a0000000000000000000000000000000000000000000000000000000008152600401611df990613ef1565b60405180910390fd5b806009819055506001600d60076101000a81548160ff0219169083151502179055507f0f2792b28c50f2f7eece39e74a2b4f0f1ce15a79acb72dd811686e827aed030b81604051611e539190612dc2565b60405180910390a150565b600160009054906101000a900473ffffffffffffffffffffffffffffffffffffffff1673ffffffffffffffffffffffffffffffffffffffff163373ffffffffffffffffffffffffffffffffffffffff1614611eee576040517f08c379a0000000000000000000000000000000000000000000000000000000008152600401611ee590613f83565b60405180910390fd5b600d60009054906101000a900460ff16611f3d576040517f08c379a0000000000000000000000000000000000000000000000000000000008152600401611f3490613209565b60405180910390fd5b6004546006541115611f84576040517f08c379a0000000000000000000000000000000000000000000000000000000008152600401611f7b90613a65565b60405180910390fd5b6000600e6000600654815260200190815260200160002090508060030160009054906101000a900460ff1615611fef576040517f08c379a0000000000000000000000000000000000000000000000000000000008152600401611fe690613c87565b60405180910390fd5b6000816001015411612036576040517f08c379a000000000000000000000000000000000000000000000000000000000815260040161202d90613d19565b60405180910390fd5b60008160010154826000015461204c919061367f565b90508060076000828254612060919061367f565b925050819055507f9ea3a4b65940d7b9dbf8bb1c459ba8e81222d1a596e93fbc364365a6d78e27d66006548260405161209a9291906136b3565b60405180910390a1600454600654036120ba576120b5612c05565b6120d3565b600660008154809291906120cd90613da5565b91905055505b5050565b6000600d60059054906101000a900460ff16905090565b600b5481565b60008054906101000a900473ffffffffffffffffffffffffffffffffffffffff1673ffffffffffffffffffffffffffffffffffffffff163373ffffffffffffffffffffffffffffffffffffffff1614612182576040517f08c379a000000000000000000000000000000000000000000000000000000000815260040161217990614015565b60405180910390fd5b600d60009054906101000a900460ff16156121d2576040517f08c379a00000000000000000000000000000000000000000000000000000000081526004016121c9906138d5565b60405180910390fd5b8260028190555081600381905550806004819055507f2f47566d4872826a9750e05ae448ad21f2a677c332d36d6437b697a7f8dd1e1483838360405161221a93929190614035565b60405180910390a1505050565b60008054906101000a900473ffffffffffffffffffffffffffffffffffffffff1681565b600160009054906101000a900473ffffffffffffffffffffffffffffffffffffffff1673ffffffffffffffffffffffffffffffffffffffff163373ffffffffffffffffffffffffffffffffffffffff16146122db576040517f08c379a00000000000000000000000000000000000000000000000000000000081526004016122d2906140de565b60405180910390fd5b600d60069054906101000a900460ff1661232a576040517f08c379a000000000000000000000000000000000000000000000000000000000815260040161232190613ef1565b60405180910390fd5b7f214f96452fc3fdfd5eeafda7f5df5b6066f4f8ac1295fb53cd051491b9b56da360405160405180910390a1565b600160009054906101000a900473ffffffffffffffffffffffffffffffffffffffff1673ffffffffffffffffffffffffffffffffffffffff163373ffffffffffffffffffffffffffffffffffffffff16146123e8576040517f08c379a00000000000000000000000000000000000000000000000000000000081526004016123df90614170565b60405180910390fd5b600d60069054906101000a900460ff16612437576040517f08c379a000000000000000000000000000000000000000000000000000000000815260040161242e90613ef1565b60405180910390fd5b60006002546008541061244c57600254612450565b6008545b905080600f60008060009054906101000a900473ffffffffffffffffffffffffffffffffffffffff1673ffffffffffffffffffffffffffffffffffffffff1673ffffffffffffffffffffffffffffffffffffffff16815260200190815260200160002060008282546124c2919061367f565b92505081905550806002546124d791906134a7565b600f6000600160009054906101000a900473ffffffffffffffffffffffffffffffffffffffff1673ffffffffffffffffffffffffffffffffffffffff1673ffffffffffffffffffffffffffffffffffffffff1681526020019081526020016000206000828254612547919061367f565b9250508190555060008054906101000a900473ffffffffffffffffffffffffffffffffffffffff1673ffffffffffffffffffffffffffffffffffffffff167fe670e4e82118d22a1f9ee18920455ebc958bae26a90a05d31d3378788b1b0e44826040516125b49190612dc2565b60405180910390a2600160009054906101000a900473ffffffffffffffffffffffffffffffffffffffff1673ffffffffffffffffffffffffffffffffffffffff167fe670e4e82118d22a1f9ee18920455ebc958bae26a90a05d31d3378788b1b0e448260025461262491906134a7565b6040516126319190612dc2565b60405180910390a26000600d60006101000a81548160ff02191690831515021790555050565b600e6020528060005260406000206000915090508060000154908060010154908060020154908060030160009054906101000a900460ff16905084565b60008054906101000a900473ffffffffffffffffffffffffffffffffffffffff1673ffffffffffffffffffffffffffffffffffffffff163373ffffffffffffffffffffffffffffffffffffffff1614612722576040517f08c379a000000000000000000000000000000000000000000000000000000000815260040161271990614202565b60405180910390fd5b600d60079054906101000a900460ff16612771576040517f08c379a00000000000000000000000000000000000000000000000000000000081526004016127689061332d565b60405180910390fd5b6000600254600954106127865760025461278a565b6009545b905080600f60008060009054906101000a900473ffffffffffffffffffffffffffffffffffffffff1673ffffffffffffffffffffffffffffffffffffffff1673ffffffffffffffffffffffffffffffffffffffff16815260200190815260200160002060008282546127fc919061367f565b925050819055508060025461281191906134a7565b600f6000600160009054906101000a900473ffffffffffffffffffffffffffffffffffffffff1673ffffffffffffffffffffffffffffffffffffffff1673ffffffffffffffffffffffffffffffffffffffff1681526020019081526020016000206000828254612881919061367f565b9250508190555060008054906101000a900473ffffffffffffffffffffffffffffffffffffffff1673ffffffffffffffffffffffffffffffffffffffff167fe670e4e82118d22a1f9ee18920455ebc958bae26a90a05d31d3378788b1b0e44826040516128ee9190612dc2565b60405180910390a2600160009054906101000a900473ffffffffffffffffffffffffffffffffffffffff1673ffffffffffffffffffffffffffffffffffffffff167fe670e4e82118d22a1f9ee18920455ebc958bae26a90a05d31d3378788b1b0e448260025461295e91906134a7565b60405161296b9190612dc2565b60405180910390a26000600d60006101000a81548160ff0219169083151502179055507fb48ea00bbdfbf40407eead0ea969ce425a746b5692554310f811ee7d0e36f38560405160405180910390a150565b600d60019054906101000a900460ff1681565b600f6020528060005260406000206000915090505481565b6000600f60008060009054906101000a900473ffffffffffffffffffffffffffffffffffffffff1673ffffffffffffffffffffffffffffffffffffffff1673ffffffffffffffffffffffffffffffffffffffff16815260200190815260200160002054905090565b600d60029054906101000a900460ff1615612aa0576040517f08c379a0000000000000000000000000000000000000000000000000000000008152600401612a979061426e565b60405180910390fd5b600d60069054906101000a900460ff168015612ac85750600d60079054906101000a900460ff165b612b07576040517f08c379a0000000000000000000000000000000000000000000000000000000008152600401612afe90614300565b60405180910390fd5b600d60089054906101000a900473ffffffffffffffffffffffffffffffffffffffff1673ffffffffffffffffffffffffffffffffffffffff1663c13517e1600c5460026040518363ffffffff1660e01b8152600401612b66919061435b565b60206040518083038185885af1158015612b84573d6000803e3d6000fd5b50505050506040513d601f19601f82011682018060405250810190612ba991906133b9565b600a819055506001600d60026101000a81548160ff0219169083151502179055507f04901f83201c8724eadf084436db8aa391820bae6d11f9f78a17edb6f2eef3cf600a54604051612bfb9190612dc2565b60405180910390a1565b6000600d60006101000a81548160ff02191690831515021790555060006007549050600080821115612cbd57600254821115612c415760025491505b60008054906101000a900473ffffffffffffffffffffffffffffffffffffffff1673ffffffffffffffffffffffffffffffffffffffff166108fc839081150290604051600060405180830381858888f19350505050158015612ca7573d6000803e3d6000fd5b5081600254612cb691906134a7565b9050612cc3565b60025490505b6000811115612d3657600160009054906101000a900473ffffffffffffffffffffffffffffffffffffffff1673ffffffffffffffffffffffffffffffffffffffff166108fc829081150290604051600060405180830381858888f19350505050158015612d34573d6000803e3d6000fd5b505b7fc0590c5a8ce79dffbdde17480a06203778f954965615e1d9577dbc90da2ff1098183604051612d679291906136b3565b60405180910390a15050565b60008115159050919050565b612d8881612d73565b82525050565b6000602082019050612da36000830184612d7f565b92915050565b6000819050919050565b612dbc81612da9565b82525050565b6000602082019050612dd76000830184612db3565b92915050565b600080fd5b612deb81612da9565b8114612df657600080fd5b50565b600081359050612e0881612de2565b92915050565b600060208284031215612e2457612e23612ddd565b5b6000612e3284828501612df9565b91505092915050565b600073ffffffffffffffffffffffffffffffffffffffff82169050919050565b6000612e6682612e3b565b9050919050565b612e7681612e5b565b82525050565b6000602082019050612e916000830184612e6d565b92915050565b60008060408385031215612eae57612ead612ddd565b5b6000612ebc85828601612df9565b9250506020612ecd85828601612df9565b9150509250929050565b6000819050919050565b6000612efc612ef7612ef284612e3b565b612ed7565b612e3b565b9050919050565b6000612f0e82612ee1565b9050919050565b6000612f2082612f03565b9050919050565b612f3081612f15565b82525050565b6000602082019050612f4b6000830184612f27565b92915050565b600080600060608486031215612f6a57612f69612ddd565b5b6000612f7886828701612df9565b9350506020612f8986828701612df9565b9250506040612f9a86828701612df9565b9150509250925092565b6000608082019050612fb96000830187612db3565b612fc66020830186612db3565b612fd36040830185612db3565b612fe06060830184612d7f565b95945050505050565b612ff281612e5b565b8114612ffd57600080fd5b50565b60008135905061300f81612fe9565b92915050565b60006020828403121561302b5761302a612ddd565b5b600061303984828501613000565b91505092915050565b600082825260208201905092915050565b7f4f6e6c79206c616e646c6f72642063616e20736574207468652064616d61676560008201527f20657374696d6174650000000000000000000000000000000000000000000000602082015250565b60006130af602983613042565b91506130ba82613053565b604082019050919050565b600060208201905081810360008301526130de816130a2565b9050919050565b7f52656e7420706572696f6420686173206e6f7420656e64656420796574000000600082015250565b600061311b601d83613042565b9150613126826130e5565b602082019050919050565b6000602082019050818103600083015261314a8161310e565b9050919050565b7f44616d61676520657374696d61746520616c7265616479207365740000000000600082015250565b6000613187601b83613042565b915061319282613151565b602082019050919050565b600060208201905081810360008301526131b68161317a565b9050919050565b7f436f6e7472616374206973206e6f742061637469766500000000000000000000600082015250565b60006131f3601683613042565b91506131fe826131bd565b602082019050919050565b60006020820190508181036000830152613222816131e6565b9050919050565b7f4f6e6c79206c616e646c6f72642063616e2072656a6563742074686520636f7560008201527f6e74657220657374696d61746500000000000000000000000000000000000000602082015250565b6000613285602d83613042565b915061329082613229565b604082019050919050565b600060208201905081810360008301526132b481613278565b9050919050565b7f52656e746572206d7573742073657420636f756e74657220657374696d61746560008201527f2066697273740000000000000000000000000000000000000000000000000000602082015250565b6000613317602683613042565b9150613322826132bb565b604082019050919050565b600060208201905081810360008301526133468161330a565b9050919050565b600082825260208201905092915050565b50565b600061336e60008361334d565b91506133798261335e565b600082019050919050565b6000602082019050818103600083015261339d81613361565b9050919050565b6000815190506133b381612de2565b92915050565b6000602082840312156133cf576133ce612ddd565b5b60006133dd848285016133a4565b91505092915050565b7f5365637572697479206465706f73697420696e73756666696369656e7420746f60008201527f20636f766572206172626974726174696f6e20636f7374730000000000000000602082015250565b6000613442603883613042565b915061344d826133e6565b604082019050919050565b6000602082019050818103600083015261347181613435565b9050919050565b7f4e487b7100000000000000000000000000000000000000000000000000000000600052601160045260246000fd5b60006134b282612da9565b91506134bd83612da9565b92508282039050818111156134d5576134d4613478565b5b92915050565b7f4f6e6c79207468652061726269747261746f722063616e2072756c6500000000600082015250565b6000613511601c83613042565b915061351c826134db565b602082019050919050565b6000602082019050818103600083015261354081613504565b9050919050565b7f4e6f206469737075746520746f2072756c65206f6e0000000000000000000000600082015250565b600061357d601583613042565b915061358882613547565b602082019050919050565b600060208201905081810360008301526135ac81613570565b9050919050565b7f57726f6e67206469737075746520494400000000000000000000000000000000600082015250565b60006135e9601083613042565b91506135f4826135b3565b602082019050919050565b60006020820190508181036000830152613618816135dc565b9050919050565b7f4e487b7100000000000000000000000000000000000000000000000000000000600052601260045260246000fd5b600061365982612da9565b915061366483612da9565b9250826136745761367361361f565b5b828204905092915050565b600061368a82612da9565b915061369583612da9565b92508282019050808211156136ad576136ac613478565b5b92915050565b60006040820190506136c86000830185612db3565b6136d56020830184612db3565b9392505050565b7f4e6f2066756e647320746f207769746864726177000000000000000000000000600082015250565b6000613712601483613042565b915061371d826136dc565b602082019050919050565b6000602082019050818103600083015261374181613705565b9050919050565b600081905092915050565b6000613760600083613748565b915061376b8261335e565b600082019050919050565b600061378182613753565b9150819050919050565b7f5472616e73666572206661696c65640000000000000000000000000000000000600082015250565b60006137c1600f83613042565b91506137cc8261378b565b602082019050919050565b600060208201905081810360008301526137f0816137b4565b9050919050565b7f4f6e6c792072656e7465722063616e207061792073656375726974792064657060008201527f6f73697400000000000000000000000000000000000000000000000000000000602082015250565b6000613853602483613042565b915061385e826137f7565b604082019050919050565b6000602082019050818103600083015261388281613846565b9050919050565b7f436f6e747261637420697320616c726561647920616374697665000000000000600082015250565b60006138bf601a83613042565b91506138ca82613889565b602082019050919050565b600060208201905081810360008301526138ee816138b2565b9050919050565b7f496e636f7272656374207365637572697479206465706f73697420616d6f756e60008201527f7400000000000000000000000000000000000000000000000000000000000000602082015250565b6000613951602183613042565b915061395c826138f5565b604082019050919050565b6000602082019050818103600083015261398081613944565b9050919050565b7f4f6e6c79206c616e646c6f72642063616e207265636f7264207574696c69746960008201527f6573000000000000000000000000000000000000000000000000000000000000602082015250565b60006139e3602283613042565b91506139ee82613987565b604082019050919050565b60006020820190508181036000830152613a12816139d6565b9050919050565b7f52656e7420706572696f642068617320656e6465640000000000000000000000600082015250565b6000613a4f601583613042565b9150613a5a82613a19565b602082019050919050565b60006020820190508181036000830152613a7e81613a42565b9050919050565b7f4f6e6c79206c616e646c6f72642063616e20616374697661746520746865206360008201527f6f6e747261637400000000000000000000000000000000000000000000000000602082015250565b6000613ae1602783613042565b9150613aec82613a85565b604082019050919050565b60006020820190508181036000830152613b1081613ad4565b9050919050565b7f5365637572697479206465706f736974206d757374206265207061696420666960008201527f7273740000000000000000000000000000000000000000000000000000000000602082015250565b6000613b73602383613042565b9150613b7e82613b17565b604082019050919050565b60006020820190508181036000830152613ba281613b66565b9050919050565b7f4f6e6c792072656e7465722063616e207061792072656e740000000000000000600082015250565b6000613bdf601883613042565b9150613bea82613ba9565b602082019050919050565b60006020820190508181036000830152613c0e81613bd2565b9050919050565b7f52656e7420666f722074686973206d6f6e74682068617320616c72656164792060008201527f6265656e20706169640000000000000000000000000000000000000000000000602082015250565b6000613c71602983613042565b9150613c7c82613c15565b604082019050919050565b60006020820190508181036000830152613ca081613c64565b9050919050565b7f5574696c697469657320666f722074686973206d6f6e74682068617665206e6f60008201527f74206265656e207265636f726465640000000000000000000000000000000000602082015250565b6000613d03602f83613042565b9150613d0e82613ca7565b604082019050919050565b60006020820190508181036000830152613d3281613cf6565b9050919050565b7f496e636f72726563742072656e7420616d6f756e740000000000000000000000600082015250565b6000613d6f601583613042565b9150613d7a82613d39565b602082019050919050565b60006020820190508181036000830152613d9e81613d62565b9050919050565b6000613db082612da9565b91507fffffffffffffffffffffffffffffffffffffffffffffffffffffffffffffffff8203613de257613de1613478565b5b600182019050919050565b7f4f6e6c792072656e7465722063616e207365742074686520636f756e7465722060008201527f657374696d617465000000000000000000000000000000000000000000000000602082015250565b6000613e49602883613042565b9150613e5482613ded565b604082019050919050565b60006020820190508181036000830152613e7881613e3c565b9050919050565b7f4c616e646c6f7264206d757374207365742064616d61676520657374696d617460008201527f6520666972737400000000000000000000000000000000000000000000000000602082015250565b6000613edb602783613042565b9150613ee682613e7f565b604082019050919050565b60006020820190508181036000830152613f0a81613ece565b9050919050565b7f4f6e6c792072656e7465722063616e20736b69702072656e74207061796d656e60008201527f7400000000000000000000000000000000000000000000000000000000000000602082015250565b6000613f6d602183613042565b9150613f7882613f11565b604082019050919050565b60006020820190508181036000830152613f9c81613f60565b9050919050565b7f4f6e6c79206c616e646c6f72642063616e207365742061677265656d656e742060008201527f7465726d73000000000000000000000000000000000000000000000000000000602082015250565b6000613fff602583613042565b915061400a82613fa3565b604082019050919050565b6000602082019050818103600083015261402e81613ff2565b9050919050565b600060608201905061404a6000830186612db3565b6140576020830185612db3565b6140646040830184612db3565b949350505050565b7f4f6e6c792072656e7465722063616e2072656a6563742074686520657374696d60008201527f6174650000000000000000000000000000000000000000000000000000000000602082015250565b60006140c8602383613042565b91506140d38261406c565b604082019050919050565b600060208201905081810360008301526140f7816140bb565b9050919050565b7f4f6e6c792072656e7465722063616e206163636570742074686520657374696d60008201527f6174650000000000000000000000000000000000000000000000000000000000602082015250565b600061415a602383613042565b9150614165826140fe565b604082019050919050565b600060208201905081810360008301526141898161414d565b9050919050565b7f4f6e6c79206c616e646c6f72642063616e206163636570742074686520636f7560008201527f6e74657220657374696d61746500000000000000000000000000000000000000602082015250565b60006141ec602d83613042565b91506141f782614190565b604082019050919050565b6000602082019050818103600083015261421b816141df565b9050919050565b7f4469737075746520616c72656164792072616973656400000000000000000000600082015250565b6000614258601683613042565b915061426382614222565b602082019050919050565b600060208201905081810360008301526142878161424b565b9050919050565b7f426f746820657374696d61746573206d75737420626520736574206265666f7260008201527f652072616973696e672061206469737075746500000000000000000000000000602082015250565b60006142ea603383613042565b91506142f58261428e565b604082019050919050565b60006020820190508181036000830152614319816142dd565b9050919050565b6000819050919050565b600061434561434061433b84614320565b612ed7565b612da9565b9050919050565b6143558161432a565b82525050565b6000604082019050614370600083018461434c565b818103602083015261438181613361565b90509291505056fea2646970667358221220118b7a09be853f95e724542a52f703075e640a5f70da49cd804ce95f65e4e0bf64736f6c63430008120033",
			"opcodes": "PUSH1 0x80 PUSH1 0x40 MSTORE CALLVALUE DUP1 ISZERO PUSH3 0x11 JUMPI PUSH1 0x0 DUP1 REVERT JUMPDEST POP PUSH1 0x40 MLOAD PUSH3 0x45DB CODESIZE SUB DUP1 PUSH3 0x45DB DUP4 CODECOPY DUP2 DUP2 ADD PUSH1 0x40 MSTORE DUP2 ADD SWAP1 PUSH3 0x37 SWAP2 SWAP1 PUSH3 0x1C5 JUMP JUMPDEST CALLER PUSH1 0x0 DUP1 PUSH2 0x100 EXP DUP2 SLOAD DUP2 PUSH20 0xFFFFFFFFFFFFFFFFFFFFFFFFFFFFFFFFFFFFFFFF MUL NOT AND SWAP1 DUP4 PUSH20 0xFFFFFFFFFFFFFFFFFFFFFFFFFFFFFFFFFFFFFFFF AND MUL OR SWAP1 SSTORE POP DUP2 PUSH1 0x1 PUSH1 0x0 PUSH2 0x100 EXP DUP2 SLOAD DUP2 PUSH20 0xFFFFFFFFFFFFFFFFFFFFFFFFFFFFFFFFFFFFFFFF MUL NOT AND SWAP1 DUP4 PUSH20 0xFFFFFFFFFFFFFFFFFFFFFFFFFFFFFFFFFFFFFFFF AND MUL OR SWAP1 SSTORE POP DUP1 PUSH1 0xD PUSH1 0x8 PUSH2 0x100 EXP DUP2 SLOAD DUP2 PUSH20 0xFFFFFFFFFFFFFFFFFFFFFFFFFFFFFFFFFFFFFFFF MUL NOT AND SWAP1 DUP4 PUSH20 0xFFFFFFFFFFFFFFFFFFFFFFFFFFFFFFFFFFFFFFFF AND MUL OR SWAP1 SSTORE POP PUSH1 0x0 PUSH1 0xD PUSH1 0x0 PUSH2 0x100 EXP DUP2 SLOAD DUP2 PUSH1 0xFF MUL NOT AND SWAP1 DUP4 ISZERO ISZERO MUL OR SWAP1 SSTORE POP PUSH1 0x0 PUSH1 0xD PUSH1 0x1 PUSH2 0x100 EXP DUP2 SLOAD DUP2 PUSH1 0xFF MUL NOT AND SWAP1 DUP4 ISZERO ISZERO MUL OR SWAP1 SSTORE POP PUSH1 0x0 PUSH1 0xD PUSH1 0x2 PUSH2 0x100 EXP DUP2 SLOAD DUP2 PUSH1 0xFF MUL NOT AND SWAP1 DUP4 ISZERO ISZERO MUL OR SWAP1 SSTORE POP PUSH1 0x2 SLOAD PUSH1 0xB DUP2 SWAP1 SSTORE POP POP POP PUSH3 0x20C JUMP JUMPDEST PUSH1 0x0 DUP1 REVERT JUMPDEST PUSH1 0x0 PUSH20 0xFFFFFFFFFFFFFFFFFFFFFFFFFFFFFFFFFFFFFFFF DUP3 AND SWAP1 POP SWAP2 SWAP1 POP JUMP JUMPDEST PUSH1 0x0 PUSH3 0x18D DUP3 PUSH3 0x160 JUMP JUMPDEST SWAP1 POP SWAP2 SWAP1 POP JUMP JUMPDEST PUSH3 0x19F DUP2 PUSH3 0x180 JUMP JUMPDEST DUP2 EQ PUSH3 0x1AB JUMPI PUSH1 0x0 DUP1 REVERT JUMPDEST POP JUMP JUMPDEST PUSH1 0x0 DUP2 MLOAD SWAP1 POP PUSH3 0x1BF DUP2 PUSH3 0x194 JUMP JUMPDEST SWAP3 SWAP2 POP POP JUMP JUMPDEST PUSH1 0x0 DUP1 PUSH1 0x40 DUP4 DUP6 SUB SLT ISZERO PUSH3 0x1DF JUMPI PUSH3 0x1DE PUSH3 0x15B JUMP JUMPDEST JUMPDEST PUSH1 0x0 PUSH3 0x1EF DUP6 DUP3 DUP7 ADD PUSH3 0x1AE JUMP JUMPDEST SWAP3 POP POP PUSH1 0x20 PUSH3 0x202 DUP6 DUP3 DUP7 ADD PUSH3 0x1AE JUMP JUMPDEST SWAP2 POP POP SWAP3 POP SWAP3 SWAP1 POP JUMP JUMPDEST PUSH2 0x43BF DUP1 PUSH3 0x21C PUSH1 0x0 CODECOPY PUSH1 0x0 RETURN INVALID PUSH1 0x80 PUSH1 0x40 MSTORE PUSH1 0x4 CALLDATASIZE LT PUSH2 0x26A JUMPI PUSH1 0x0 CALLDATALOAD PUSH1 0xE0 SHR DUP1 PUSH4 0x779318E5 GT PUSH2 0x144 JUMPI DUP1 PUSH4 0xCBE615B1 GT PUSH2 0xB6 JUMPI DUP1 PUSH4 0xDD6BCB16 GT PUSH2 0x7A JUMPI DUP1 PUSH4 0xDD6BCB16 EQ PUSH2 0x828 JUMPI DUP1 PUSH4 0xE1505E4E EQ PUSH2 0x83F JUMPI DUP1 PUSH4 0xEAA0A302 EQ PUSH2 0x87F JUMPI DUP1 PUSH4 0xF13702F4 EQ PUSH2 0x896 JUMPI DUP1 PUSH4 0xF3F43703 EQ PUSH2 0x8C1 JUMPI DUP1 PUSH4 0xFEEAEA4E EQ PUSH2 0x8FE JUMPI PUSH2 0x271 JUMP JUMPDEST DUP1 PUSH4 0xCBE615B1 EQ PUSH2 0x767 JUMPI DUP1 PUSH4 0xD261C91F EQ PUSH2 0x792 JUMPI DUP1 PUSH4 0xD738307C EQ PUSH2 0x7BD JUMPI DUP1 PUSH4 0xDC1997EA EQ PUSH2 0x7E6 JUMPI DUP1 PUSH4 0xDCF2559E EQ PUSH2 0x811 JUMPI PUSH2 0x271 JUMP JUMPDEST DUP1 PUSH4 0x8FDA356D GT PUSH2 0x108 JUMPI DUP1 PUSH4 0x8FDA356D EQ PUSH2 0x6B0 JUMPI DUP1 PUSH4 0xA709C4FE EQ PUSH2 0x6C7 JUMPI DUP1 PUSH4 0xB0A1E2B4 EQ PUSH2 0x6D1 JUMPI DUP1 PUSH4 0xB602EA60 EQ PUSH2 0x6FC JUMPI DUP1 PUSH4 0xC2D6D462 EQ PUSH2 0x727 JUMPI DUP1 PUSH4 0xCA088031 EQ PUSH2 0x750 JUMPI PUSH2 0x271 JUMP JUMPDEST DUP1 PUSH4 0x779318E5 EQ PUSH2 0x5DB JUMPI DUP1 PUSH4 0x7EF98740 EQ PUSH2 0x606 JUMPI DUP1 PUSH4 0x81D388BA EQ PUSH2 0x62F JUMPI DUP1 PUSH4 0x862A4D47 EQ PUSH2 0x65A JUMPI DUP1 PUSH4 0x87EAA342 EQ PUSH2 0x685 JUMPI PUSH2 0x271 JUMP JUMPDEST DUP1 PUSH4 0x47ED9C65 GT PUSH2 0x1DD JUMPI DUP1 PUSH4 0x65A746E9 GT PUSH2 0x1A1 JUMPI DUP1 PUSH4 0x65A746E9 EQ PUSH2 0x4D9 JUMPI DUP1 PUSH4 0x697B05A2 EQ PUSH2 0x504 JUMPI DUP1 PUSH4 0x6F3C590C EQ PUSH2 0x52F JUMPI DUP1 PUSH4 0x6F9FB98A EQ PUSH2 0x55A JUMPI DUP1 PUSH4 0x71357A46 EQ PUSH2 0x585 JUMPI DUP1 PUSH4 0x740906C0 EQ PUSH2 0x5B0 JUMPI PUSH2 0x271 JUMP JUMPDEST DUP1 PUSH4 0x47ED9C65 EQ PUSH2 0x402 JUMPI DUP1 PUSH4 0x561EEFD8 EQ PUSH2 0x42D JUMPI DUP1 PUSH4 0x5A0E9BCC EQ PUSH2 0x458 JUMPI DUP1 PUSH4 0x5A920320 EQ PUSH2 0x483 JUMPI DUP1 PUSH4 0x63022560 EQ PUSH2 0x4AE JUMPI PUSH2 0x271 JUMP JUMPDEST DUP1 PUSH4 0x220E5AB3 GT PUSH2 0x22F JUMPI DUP1 PUSH4 0x220E5AB3 EQ PUSH2 0x337 JUMPI DUP1 PUSH4 0x22F3E2D4 EQ PUSH2 0x362 JUMPI DUP1 PUSH4 0x2E88AB0B EQ PUSH2 0x38D JUMPI DUP1 PUSH4 0x311A6C56 EQ PUSH2 0x3B8 JUMPI DUP1 PUSH4 0x3CCFD60B EQ PUSH2 0x3E1 JUMPI DUP1 PUSH4 0x42C63DAE EQ PUSH2 0x3F8 JUMPI PUSH2 0x271 JUMP JUMPDEST DUP1 PUSH3 0x4422EB EQ PUSH2 0x276 JUMPI DUP1 PUSH4 0x4A2286A EQ PUSH2 0x2A1 JUMPI DUP1 PUSH4 0x8C59798 EQ PUSH2 0x2CC JUMPI DUP1 PUSH4 0x1890FC37 EQ PUSH2 0x2F5 JUMPI DUP1 PUSH4 0x1A576049 EQ PUSH2 0x30C JUMPI PUSH2 0x271 JUMP JUMPDEST CALLDATASIZE PUSH2 0x271 JUMPI STOP JUMPDEST PUSH1 0x0 DUP1 REVERT JUMPDEST CALLVALUE DUP1 ISZERO PUSH2 0x282 JUMPI PUSH1 0x0 DUP1 REVERT JUMPDEST POP PUSH2 0x28B PUSH2 0x929 JUMP JUMPDEST PUSH1 0x40 MLOAD PUSH2 0x298 SWAP2 SWAP1 PUSH2 0x2D8E JUMP JUMPDEST PUSH1 0x40 MLOAD DUP1 SWAP2 SUB SWAP1 RETURN JUMPDEST CALLVALUE DUP1 ISZERO PUSH2 0x2AD JUMPI PUSH1 0x0 DUP1 REVERT JUMPDEST POP PUSH2 0x2B6 PUSH2 0x93C JUMP JUMPDEST PUSH1 0x40 MLOAD PUSH2 0x2C3 SWAP2 SWAP1 PUSH2 0x2DC2 JUMP JUMPDEST PUSH1 0x40 MLOAD DUP1 SWAP2 SUB SWAP1 RETURN JUMPDEST CALLVALUE DUP1 ISZERO PUSH2 0x2D8 JUMPI PUSH1 0x0 DUP1 REVERT JUMPDEST POP PUSH2 0x2F3 PUSH1 0x4 DUP1 CALLDATASIZE SUB DUP2 ADD SWAP1 PUSH2 0x2EE SWAP2 SWAP1 PUSH2 0x2E0E JUMP JUMPDEST PUSH2 0x942 JUMP JUMPDEST STOP JUMPDEST CALLVALUE DUP1 ISZERO PUSH2 0x301 JUMPI PUSH1 0x0 DUP1 REVERT JUMPDEST POP PUSH2 0x30A PUSH2 0xB1A JUMP JUMPDEST STOP JUMPDEST CALLVALUE DUP1 ISZERO PUSH2 0x318 JUMPI PUSH1 0x0 DUP1 REVERT JUMPDEST POP PUSH2 0x321 PUSH2 0xD2F JUMP JUMPDEST PUSH1 0x40 MLOAD PUSH2 0x32E SWAP2 SWAP1 PUSH2 0x2DC2 JUMP JUMPDEST PUSH1 0x40 MLOAD DUP1 SWAP2 SUB SWAP1 RETURN JUMPDEST CALLVALUE DUP1 ISZERO PUSH2 0x343 JUMPI PUSH1 0x0 DUP1 REVERT JUMPDEST POP PUSH2 0x34C PUSH2 0xD35 JUMP JUMPDEST PUSH1 0x40 MLOAD PUSH2 0x359 SWAP2 SWAP1 PUSH2 0x2DC2 JUMP JUMPDEST PUSH1 0x40 MLOAD DUP1 SWAP2 SUB SWAP1 RETURN JUMPDEST CALLVALUE DUP1 ISZERO PUSH2 0x36E JUMPI PUSH1 0x0 DUP1 REVERT JUMPDEST POP PUSH2 0x377 PUSH2 0xD3B JUMP JUMPDEST PUSH1 0x40 MLOAD PUSH2 0x384 SWAP2 SWAP1 PUSH2 0x2D8E JUMP JUMPDEST PUSH1 0x40 MLOAD DUP1 SWAP2 SUB SWAP1 RETURN JUMPDEST CALLVALUE DUP1 ISZERO PUSH2 0x399 JUMPI PUSH1 0x0 DUP1 REVERT JUMPDEST POP PUSH2 0x3A2 PUSH2 0xD4E JUMP JUMPDEST PUSH1 0x40 MLOAD PUSH2 0x3AF SWAP2 SWAP1 PUSH2 0x2E7C JUMP JUMPDEST PUSH1 0x40 MLOAD DUP1 SWAP2 SUB SWAP1 RETURN JUMPDEST CALLVALUE DUP1 ISZERO PUSH2 0x3C4 JUMPI PUSH1 0x0 DUP1 REVERT JUMPDEST POP PUSH2 0x3DF PUSH1 0x4 DUP1 CALLDATASIZE SUB DUP2 ADD SWAP1 PUSH2 0x3DA SWAP2 SWAP1 PUSH2 0x2E97 JUMP JUMPDEST PUSH2 0xD74 JUMP JUMPDEST STOP JUMPDEST CALLVALUE DUP1 ISZERO PUSH2 0x3ED JUMPI PUSH1 0x0 DUP1 REVERT JUMPDEST POP PUSH2 0x3F6 PUSH2 0x1153 JUMP JUMPDEST STOP JUMPDEST PUSH2 0x400 PUSH2 0x131D JUMP JUMPDEST STOP JUMPDEST CALLVALUE DUP1 ISZERO PUSH2 0x40E JUMPI PUSH1 0x0 DUP1 REVERT JUMPDEST POP PUSH2 0x417 PUSH2 0x1495 JUMP JUMPDEST PUSH1 0x40 MLOAD PUSH2 0x424 SWAP2 SWAP1 PUSH2 0x2D8E JUMP JUMPDEST PUSH1 0x40 MLOAD DUP1 SWAP2 SUB SWAP1 RETURN JUMPDEST CALLVALUE DUP1 ISZERO PUSH2 0x439 JUMPI PUSH1 0x0 DUP1 REVERT JUMPDEST POP PUSH2 0x442 PUSH2 0x14A8 JUMP JUMPDEST PUSH1 0x40 MLOAD PUSH2 0x44F SWAP2 SWAP1 PUSH2 0x2DC2 JUMP JUMPDEST PUSH1 0x40 MLOAD DUP1 SWAP2 SUB SWAP1 RETURN JUMPDEST CALLVALUE DUP1 ISZERO PUSH2 0x464 JUMPI PUSH1 0x0 DUP1 REVERT JUMPDEST POP PUSH2 0x46D PUSH2 0x14AE JUMP JUMPDEST PUSH1 0x40 MLOAD PUSH2 0x47A SWAP2 SWAP1 PUSH2 0x2D8E JUMP JUMPDEST PUSH1 0x40 MLOAD DUP1 SWAP2 SUB SWAP1 RETURN JUMPDEST CALLVALUE DUP1 ISZERO PUSH2 0x48F JUMPI PUSH1 0x0 DUP1 REVERT JUMPDEST POP PUSH2 0x498 PUSH2 0x14C1 JUMP JUMPDEST PUSH1 0x40 MLOAD PUSH2 0x4A5 SWAP2 SWAP1 PUSH2 0x2F36 JUMP JUMPDEST PUSH1 0x40 MLOAD DUP1 SWAP2 SUB SWAP1 RETURN JUMPDEST CALLVALUE DUP1 ISZERO PUSH2 0x4BA JUMPI PUSH1 0x0 DUP1 REVERT JUMPDEST POP PUSH2 0x4C3 PUSH2 0x14E7 JUMP JUMPDEST PUSH1 0x40 MLOAD PUSH2 0x4D0 SWAP2 SWAP1 PUSH2 0x2DC2 JUMP JUMPDEST PUSH1 0x40 MLOAD DUP1 SWAP2 SUB SWAP1 RETURN JUMPDEST CALLVALUE DUP1 ISZERO PUSH2 0x4E5 JUMPI PUSH1 0x0 DUP1 REVERT JUMPDEST POP PUSH2 0x4EE PUSH2 0x1588 JUMP JUMPDEST PUSH1 0x40 MLOAD PUSH2 0x4FB SWAP2 SWAP1 PUSH2 0x2D8E JUMP JUMPDEST PUSH1 0x40 MLOAD DUP1 SWAP2 SUB SWAP1 RETURN JUMPDEST CALLVALUE DUP1 ISZERO PUSH2 0x510 JUMPI PUSH1 0x0 DUP1 REVERT JUMPDEST POP PUSH2 0x519 PUSH2 0x159B JUMP JUMPDEST PUSH1 0x40 MLOAD PUSH2 0x526 SWAP2 SWAP1 PUSH2 0x2DC2 JUMP JUMPDEST PUSH1 0x40 MLOAD DUP1 SWAP2 SUB SWAP1 RETURN JUMPDEST CALLVALUE DUP1 ISZERO PUSH2 0x53B JUMPI PUSH1 0x0 DUP1 REVERT JUMPDEST POP PUSH2 0x544 PUSH2 0x15A1 JUMP JUMPDEST PUSH1 0x40 MLOAD PUSH2 0x551 SWAP2 SWAP1 PUSH2 0x2DC2 JUMP JUMPDEST PUSH1 0x40 MLOAD DUP1 SWAP2 SUB SWAP1 RETURN JUMPDEST CALLVALUE DUP1 ISZERO PUSH2 0x566 JUMPI PUSH1 0x0 DUP1 REVERT JUMPDEST POP PUSH2 0x56F PUSH2 0x15A7 JUMP JUMPDEST PUSH1 0x40 MLOAD PUSH2 0x57C SWAP2 SWAP1 PUSH2 0x2DC2 JUMP JUMPDEST PUSH1 0x40 MLOAD DUP1 SWAP2 SUB SWAP1 RETURN JUMPDEST CALLVALUE DUP1 ISZERO PUSH2 0x591 JUMPI PUSH1 0x0 DUP1 REVERT JUMPDEST POP PUSH2 0x59A PUSH2 0x15AF JUMP JUMPDEST PUSH1 0x40 MLOAD PUSH2 0x5A7 SWAP2 SWAP1 PUSH2 0x2D8E JUMP JUMPDEST PUSH1 0x40 MLOAD DUP1 SWAP2 SUB SWAP1 RETURN JUMPDEST CALLVALUE DUP1 ISZERO PUSH2 0x5BC JUMPI PUSH1 0x0 DUP1 REVERT JUMPDEST POP PUSH2 0x5C5 PUSH2 0x15C2 JUMP JUMPDEST PUSH1 0x40 MLOAD PUSH2 0x5D2 SWAP2 SWAP1 PUSH2 0x2DC2 JUMP JUMPDEST PUSH1 0x40 MLOAD DUP1 SWAP2 SUB SWAP1 RETURN JUMPDEST CALLVALUE DUP1 ISZERO PUSH2 0x5E7 JUMPI PUSH1 0x0 DUP1 REVERT JUMPDEST POP PUSH2 0x5F0 PUSH2 0x162B JUMP JUMPDEST PUSH1 0x40 MLOAD PUSH2 0x5FD SWAP2 SWAP1 PUSH2 0x2DC2 JUMP JUMPDEST PUSH1 0x40 MLOAD DUP1 SWAP2 SUB SWAP1 RETURN JUMPDEST CALLVALUE DUP1 ISZERO PUSH2 0x612 JUMPI PUSH1 0x0 DUP1 REVERT JUMPDEST POP PUSH2 0x62D PUSH1 0x4 DUP1 CALLDATASIZE SUB DUP2 ADD SWAP1 PUSH2 0x628 SWAP2 SWAP1 PUSH2 0x2E0E JUMP JUMPDEST PUSH2 0x1635 JUMP JUMPDEST STOP JUMPDEST CALLVALUE DUP1 ISZERO PUSH2 0x63B JUMPI PUSH1 0x0 DUP1 REVERT JUMPDEST POP PUSH2 0x644 PUSH2 0x17D3 JUMP JUMPDEST PUSH1 0x40 MLOAD PUSH2 0x651 SWAP2 SWAP1 PUSH2 0x2DC2 JUMP JUMPDEST PUSH1 0x40 MLOAD DUP1 SWAP2 SUB SWAP1 RETURN JUMPDEST CALLVALUE DUP1 ISZERO PUSH2 0x666 JUMPI PUSH1 0x0 DUP1 REVERT JUMPDEST POP PUSH2 0x66F PUSH2 0x17D9 JUMP JUMPDEST PUSH1 0x40 MLOAD PUSH2 0x67C SWAP2 SWAP1 PUSH2 0x2DC2 JUMP JUMPDEST PUSH1 0x40 MLOAD DUP1 SWAP2 SUB SWAP1 RETURN JUMPDEST CALLVALUE DUP1 ISZERO PUSH2 0x691 JUMPI PUSH1 0x0 DUP1 REVERT JUMPDEST POP PUSH2 0x69A PUSH2 0x17DF JUMP JUMPDEST PUSH1 0x40 MLOAD PUSH2 0x6A7 SWAP2 SWAP1 PUSH2 0x2DC2 JUMP JUMPDEST PUSH1 0x40 MLOAD DUP1 SWAP2 SUB SWAP1 RETURN JUMPDEST CALLVALUE DUP1 ISZERO PUSH2 0x6BC JUMPI PUSH1 0x0 DUP1 REVERT JUMPDEST POP PUSH2 0x6C5 PUSH2 0x17E5 JUMP JUMPDEST STOP JUMPDEST PUSH2 0x6CF PUSH2 0x193E JUMP JUMPDEST STOP JUMPDEST CALLVALUE DUP1 ISZERO PUSH2 0x6DD JUMPI PUSH1 0x0 DUP1 REVERT JUMPDEST POP PUSH2 0x6E6 PUSH2 0x1D0A JUMP JUMPDEST PUSH1 0x40 MLOAD PUSH2 0x6F3 SWAP2 SWAP1 PUSH2 0x2DC2 JUMP JUMPDEST PUSH1 0x40 MLOAD DUP1 SWAP2 SUB SWAP1 RETURN JUMPDEST CALLVALUE DUP1 ISZERO PUSH2 0x708 JUMPI PUSH1 0x0 DUP1 REVERT JUMPDEST POP PUSH2 0x711 PUSH2 0x1D10 JUMP JUMPDEST PUSH1 0x40 MLOAD PUSH2 0x71E SWAP2 SWAP1 PUSH2 0x2D8E JUMP JUMPDEST PUSH1 0x40 MLOAD DUP1 SWAP2 SUB SWAP1 RETURN JUMPDEST CALLVALUE DUP1 ISZERO PUSH2 0x733 JUMPI PUSH1 0x0 DUP1 REVERT JUMPDEST POP PUSH2 0x74E PUSH1 0x4 DUP1 CALLDATASIZE SUB DUP2 ADD SWAP1 PUSH2 0x749 SWAP2 SWAP1 PUSH2 0x2E0E JUMP JUMPDEST PUSH2 0x1D23 JUMP JUMPDEST STOP JUMPDEST CALLVALUE DUP1 ISZERO PUSH2 0x75C JUMPI PUSH1 0x0 DUP1 REVERT JUMPDEST POP PUSH2 0x765 PUSH2 0x1E5E JUMP JUMPDEST STOP JUMPDEST CALLVALUE DUP1 ISZERO PUSH2 0x773 JUMPI PUSH1 0x0 DUP1 REVERT JUMPDEST POP PUSH2 0x77C PUSH2 0x20D7 JUMP JUMPDEST PUSH1 0x40 MLOAD PUSH2 0x789 SWAP2 SWAP1 PUSH2 0x2D8E JUMP JUMPDEST PUSH1 0x40 MLOAD DUP1 SWAP2 SUB SWAP1 RETURN JUMPDEST CALLVALUE DUP1 ISZERO PUSH2 0x79E JUMPI PUSH1 0x0 DUP1 REVERT JUMPDEST POP PUSH2 0x7A7 PUSH2 0x20EE JUMP JUMPDEST PUSH1 0x40 MLOAD PUSH2 0x7B4 SWAP2 SWAP1 PUSH2 0x2DC2 JUMP JUMPDEST PUSH1 0x40 MLOAD DUP1 SWAP2 SUB SWAP1 RETURN JUMPDEST CALLVALUE DUP1 ISZERO PUSH2 0x7C9 JUMPI PUSH1 0x0 DUP1 REVERT JUMPDEST POP PUSH2 0x7E4 PUSH1 0x4 DUP1 CALLDATASIZE SUB DUP2 ADD SWAP1 PUSH2 0x7DF SWAP2 SWAP1 PUSH2 0x2F51 JUMP JUMPDEST PUSH2 0x20F4 JUMP JUMPDEST STOP JUMPDEST CALLVALUE DUP1 ISZERO PUSH2 0x7F2 JUMPI PUSH1 0x0 DUP1 REVERT JUMPDEST POP PUSH2 0x7FB PUSH2 0x2227 JUMP JUMPDEST PUSH1 0x40 MLOAD PUSH2 0x808 SWAP2 SWAP1 PUSH2 0x2E7C JUMP JUMPDEST PUSH1 0x40 MLOAD DUP1 SWAP2 SUB SWAP1 RETURN JUMPDEST CALLVALUE DUP1 ISZERO PUSH2 0x81D JUMPI PUSH1 0x0 DUP1 REVERT JUMPDEST POP PUSH2 0x826 PUSH2 0x224B JUMP JUMPDEST STOP JUMPDEST CALLVALUE DUP1 ISZERO PUSH2 0x834 JUMPI PUSH1 0x0 DUP1 REVERT JUMPDEST POP PUSH2 0x83D PUSH2 0x2358 JUMP JUMPDEST STOP JUMPDEST CALLVALUE DUP1 ISZERO PUSH2 0x84B JUMPI PUSH1 0x0 DUP1 REVERT JUMPDEST POP PUSH2 0x866 PUSH1 0x4 DUP1 CALLDATASIZE SUB DUP2 ADD SWAP1 PUSH2 0x861 SWAP2 SWAP1 PUSH2 0x2E0E JUMP JUMPDEST PUSH2 0x2657 JUMP JUMPDEST PUSH1 0x40 MLOAD PUSH2 0x876 SWAP5 SWAP4 SWAP3 SWAP2 SWAP1 PUSH2 0x2FA4 JUMP JUMPDEST PUSH1 0x40 MLOAD DUP1 SWAP2 SUB SWAP1 RETURN JUMPDEST CALLVALUE DUP1 ISZERO PUSH2 0x88B JUMPI PUSH1 0x0 DUP1 REVERT JUMPDEST POP PUSH2 0x894 PUSH2 0x2694 JUMP JUMPDEST STOP JUMPDEST CALLVALUE DUP1 ISZERO PUSH2 0x8A2 JUMPI PUSH1 0x0 DUP1 REVERT JUMPDEST POP PUSH2 0x8AB PUSH2 0x29BD JUMP JUMPDEST PUSH1 0x40 MLOAD PUSH2 0x8B8 SWAP2 SWAP1 PUSH2 0x2D8E JUMP JUMPDEST PUSH1 0x40 MLOAD DUP1 SWAP2 SUB SWAP1 RETURN JUMPDEST CALLVALUE DUP1 ISZERO PUSH2 0x8CD JUMPI PUSH1 0x0 DUP1 REVERT JUMPDEST POP PUSH2 0x8E8 PUSH1 0x4 DUP1 CALLDATASIZE SUB DUP2 ADD SWAP1 PUSH2 0x8E3 SWAP2 SWAP1 PUSH2 0x3015 JUMP JUMPDEST PUSH2 0x29D0 JUMP JUMPDEST PUSH1 0x40 MLOAD PUSH2 0x8F5 SWAP2 SWAP1 PUSH2 0x2DC2 JUMP JUMPDEST PUSH1 0x40 MLOAD DUP1 SWAP2 SUB SWAP1 RETURN JUMPDEST CALLVALUE DUP1 ISZERO PUSH2 0x90A JUMPI PUSH1 0x0 DUP1 REVERT JUMPDEST POP PUSH2 0x913 PUSH2 0x29E8 JUMP JUMPDEST PUSH1 0x40 MLOAD PUSH2 0x920 SWAP2 SWAP1 PUSH2 0x2DC2 JUMP JUMPDEST PUSH1 0x40 MLOAD DUP1 SWAP2 SUB SWAP1 RETURN JUMPDEST PUSH1 0xD PUSH1 0x2 SWAP1 SLOAD SWAP1 PUSH2 0x100 EXP SWAP1 DIV PUSH1 0xFF AND DUP2 JUMP JUMPDEST PUSH1 0x3 SLOAD DUP2 JUMP JUMPDEST PUSH1 0x0 DUP1 SLOAD SWAP1 PUSH2 0x100 EXP SWAP1 DIV PUSH20 0xFFFFFFFFFFFFFFFFFFFFFFFFFFFFFFFFFFFFFFFF AND PUSH20 0xFFFFFFFFFFFFFFFFFFFFFFFFFFFFFFFFFFFFFFFF AND CALLER PUSH20 0xFFFFFFFFFFFFFFFFFFFFFFFFFFFFFFFFFFFFFFFF AND EQ PUSH2 0x9D0 JUMPI PUSH1 0x40 MLOAD PUSH32 0x8C379A000000000000000000000000000000000000000000000000000000000 DUP2 MSTORE PUSH1 0x4 ADD PUSH2 0x9C7 SWAP1 PUSH2 0x30C5 JUMP JUMPDEST PUSH1 0x40 MLOAD DUP1 SWAP2 SUB SWAP1 REVERT JUMPDEST PUSH1 0xD PUSH1 0x5 SWAP1 SLOAD SWAP1 PUSH2 0x100 EXP SWAP1 DIV PUSH1 0xFF AND PUSH2 0xA1F JUMPI PUSH1 0x40 MLOAD PUSH32 0x8C379A000000000000000000000000000000000000000000000000000000000 DUP2 MSTORE PUSH1 0x4 ADD PUSH2 0xA16 SWAP1 PUSH2 0x3131 JUMP JUMPDEST PUSH1 0x40 MLOAD DUP1 SWAP2 SUB SWAP1 REVERT JUMPDEST PUSH1 0xD PUSH1 0x6 SWAP1 SLOAD SWAP1 PUSH2 0x100 EXP SWAP1 DIV PUSH1 0xFF AND ISZERO PUSH2 0xA6F JUMPI PUSH1 0x40 MLOAD PUSH32 0x8C379A000000000000000000000000000000000000000000000000000000000 DUP2 MSTORE PUSH1 0x4 ADD PUSH2 0xA66 SWAP1 PUSH2 0x319D JUMP JUMPDEST PUSH1 0x40 MLOAD DUP1 SWAP2 SUB SWAP1 REVERT JUMPDEST PUSH1 0xD PUSH1 0x0 SWAP1 SLOAD SWAP1 PUSH2 0x100 EXP SWAP1 DIV PUSH1 0xFF AND PUSH2 0xABE JUMPI PUSH1 0x40 MLOAD PUSH32 0x8C379A000000000000000000000000000000000000000000000000000000000 DUP2 MSTORE PUSH1 0x4 ADD PUSH2 0xAB5 SWAP1 PUSH2 0x3209 JUMP JUMPDEST PUSH1 0x40 MLOAD DUP1 SWAP2 SUB SWAP1 REVERT JUMPDEST DUP1 PUSH1 0x8 DUP2 SWAP1 SSTORE POP PUSH1 0x1 PUSH1 0xD PUSH1 0x6 PUSH2 0x100 EXP DUP2 SLOAD DUP2 PUSH1 0xFF MUL NOT AND SWAP1 DUP4 ISZERO ISZERO MUL OR SWAP1 SSTORE POP PUSH32 0x192101DE3933394FEDEB636FFADD15C20B3E23E4913AB4051C171A26C90A3459 DUP2 PUSH1 0x40 MLOAD PUSH2 0xB0F SWAP2 SWAP1 PUSH2 0x2DC2 JUMP JUMPDEST PUSH1 0x40 MLOAD DUP1 SWAP2 SUB SWAP1 LOG1 POP JUMP JUMPDEST PUSH1 0x0 DUP1 SLOAD SWAP1 PUSH2 0x100 EXP SWAP1 DIV PUSH20 0xFFFFFFFFFFFFFFFFFFFFFFFFFFFFFFFFFFFFFFFF AND PUSH20 0xFFFFFFFFFFFFFFFFFFFFFFFFFFFFFFFFFFFFFFFF AND CALLER PUSH20 0xFFFFFFFFFFFFFFFFFFFFFFFFFFFFFFFFFFFFFFFF AND EQ PUSH2 0xBA8 JUMPI PUSH1 0x40 MLOAD PUSH32 0x8C379A000000000000000000000000000000000000000000000000000000000 DUP2 MSTORE PUSH1 0x4 ADD PUSH2 0xB9F SWAP1 PUSH2 0x329B JUMP JUMPDEST PUSH1 0x40 MLOAD DUP1 SWAP2 SUB SWAP1 REVERT JUMPDEST PUSH1 0xD PUSH1 0x7 SWAP1 SLOAD SWAP1 PUSH2 0x100 EXP SWAP1 DIV PUSH1 0xFF AND PUSH2 0xBF7 JUMPI PUSH1 0x40 MLOAD PUSH32 0x8C379A000000000000000000000000000000000000000000000000000000000 DUP2 MSTORE PUSH1 0x4 ADD PUSH2 0xBEE SWAP1 PUSH2 0x332D JUMP JUMPDEST PUSH1 0x40 MLOAD DUP1 SWAP2 SUB SWAP1 REVERT JUMPDEST PUSH1 0xD PUSH1 0x8 SWAP1 SLOAD SWAP1 PUSH2 0x100 EXP SWAP1 DIV PUSH20 0xFFFFFFFFFFFFFFFFFFFFFFFFFFFFFFFFFFFFFFFF AND PUSH20 0xFFFFFFFFFFFFFFFFFFFFFFFFFFFFFFFFFFFFFFFF AND PUSH4 0xF7434EA9 PUSH1 0x40 MLOAD DUP2 PUSH4 0xFFFFFFFF AND PUSH1 0xE0 SHL DUP2 MSTORE PUSH1 0x4 ADD PUSH2 0xC50 SWAP1 PUSH2 0x3384 JUMP JUMPDEST PUSH1 0x20 PUSH1 0x40 MLOAD DUP1 DUP4 SUB DUP2 DUP7 GAS STATICCALL ISZERO DUP1 ISZERO PUSH2 0xC6D JUMPI RETURNDATASIZE PUSH1 0x0 DUP1 RETURNDATACOPY RETURNDATASIZE PUSH1 0x0 REVERT JUMPDEST POP POP POP POP PUSH1 0x40 MLOAD RETURNDATASIZE PUSH1 0x1F NOT PUSH1 0x1F DUP3 ADD AND DUP3 ADD DUP1 PUSH1 0x40 MSTORE POP DUP2 ADD SWAP1 PUSH2 0xC91 SWAP2 SWAP1 PUSH2 0x33B9 JUMP JUMPDEST PUSH1 0xC DUP2 SWAP1 SSTORE POP PUSH1 0xC SLOAD PUSH1 0xB SLOAD LT ISZERO PUSH2 0xCDE JUMPI PUSH1 0x40 MLOAD PUSH32 0x8C379A000000000000000000000000000000000000000000000000000000000 DUP2 MSTORE PUSH1 0x4 ADD PUSH2 0xCD5 SWAP1 PUSH2 0x3458 JUMP JUMPDEST PUSH1 0x40 MLOAD DUP1 SWAP2 SUB SWAP1 REVERT JUMPDEST PUSH1 0xC SLOAD PUSH1 0xB PUSH1 0x0 DUP3 DUP3 SLOAD PUSH2 0xCF2 SWAP2 SWAP1 PUSH2 0x34A7 JUMP JUMPDEST SWAP3 POP POP DUP2 SWAP1 SSTORE POP PUSH2 0xD01 PUSH2 0x2A50 JUMP JUMPDEST PUSH32 0xA7D8A4744BC13E083818434DDE26551EA9B29C6425677EBC90CD5DD09CE6B5C7 PUSH1 0x40 MLOAD PUSH1 0x40 MLOAD DUP1 SWAP2 SUB SWAP1 LOG1 JUMP JUMPDEST PUSH1 0x8 SLOAD DUP2 JUMP JUMPDEST PUSH1 0x2 SLOAD DUP2 JUMP JUMPDEST PUSH1 0xD PUSH1 0x0 SWAP1 SLOAD SWAP1 PUSH2 0x100 EXP SWAP1 DIV PUSH1 0xFF AND DUP2 JUMP JUMPDEST PUSH1 0x1 PUSH1 0x0 SWAP1 SLOAD SWAP1 PUSH2 0x100 EXP SWAP1 DIV PUSH20 0xFFFFFFFFFFFFFFFFFFFFFFFFFFFFFFFFFFFFFFFF AND DUP2 JUMP JUMPDEST PUSH1 0xD PUSH1 0x8 SWAP1 SLOAD SWAP1 PUSH2 0x100 EXP SWAP1 DIV PUSH20 0xFFFFFFFFFFFFFFFFFFFFFFFFFFFFFFFFFFFFFFFF AND PUSH20 0xFFFFFFFFFFFFFFFFFFFFFFFFFFFFFFFFFFFFFFFF AND CALLER PUSH20 0xFFFFFFFFFFFFFFFFFFFFFFFFFFFFFFFFFFFFFFFF AND EQ PUSH2 0xE04 JUMPI PUSH1 0x40 MLOAD PUSH32 0x8C379A000000000000000000000000000000000000000000000000000000000 DUP2 MSTORE PUSH1 0x4 ADD PUSH2 0xDFB SWAP1 PUSH2 0x3527 JUMP JUMPDEST PUSH1 0x40 MLOAD DUP1 SWAP2 SUB SWAP1 REVERT JUMPDEST PUSH1 0xD PUSH1 0x2 SWAP1 SLOAD SWAP1 PUSH2 0x100 EXP SWAP1 DIV PUSH1 0xFF AND PUSH2 0xE53 JUMPI PUSH1 0x40 MLOAD PUSH32 0x8C379A000000000000000000000000000000000000000000000000000000000 DUP2 MSTORE PUSH1 0x4 ADD PUSH2 0xE4A SWAP1 PUSH2 0x3593 JUMP JUMPDEST PUSH1 0x40 MLOAD DUP1 SWAP2 SUB SWAP1 REVERT JUMPDEST PUSH1 0xA SLOAD DUP3 EQ PUSH2 0xE97 JUMPI PUSH1 0x40 MLOAD PUSH32 0x8C379A000000000000000000000000000000000000000000000000000000000 DUP2 MSTORE PUSH1 0x4 ADD PUSH2 0xE8E SWAP1 PUSH2 0x35FF JUMP JUMPDEST PUSH1 0x40 MLOAD DUP1 SWAP2 SUB SWAP1 REVERT JUMPDEST PUSH1 0x0 PUSH1 0x1 DUP3 SUB PUSH2 0xEBF JUMPI PUSH1 0xB SLOAD PUSH1 0x8 SLOAD LT PUSH2 0xEB4 JUMPI PUSH1 0xB SLOAD PUSH2 0xEB8 JUMP JUMPDEST PUSH1 0x8 SLOAD JUMPDEST SWAP1 POP PUSH2 0xEF8 JUMP JUMPDEST PUSH1 0x2 DUP3 SUB PUSH2 0xEE5 JUMPI PUSH1 0xB SLOAD PUSH1 0x9 SLOAD LT PUSH2 0xEDA JUMPI PUSH1 0xB SLOAD PUSH2 0xEDE JUMP JUMPDEST PUSH1 0x9 SLOAD JUMPDEST SWAP1 POP PUSH2 0xEF7 JUMP JUMPDEST PUSH1 0x2 PUSH1 0xB SLOAD PUSH2 0xEF4 SWAP2 SWAP1 PUSH2 0x364E JUMP JUMPDEST SWAP1 POP JUMPDEST JUMPDEST DUP1 PUSH1 0xF PUSH1 0x0 DUP1 PUSH1 0x0 SWAP1 SLOAD SWAP1 PUSH2 0x100 EXP SWAP1 DIV PUSH20 0xFFFFFFFFFFFFFFFFFFFFFFFFFFFFFFFFFFFFFFFF AND PUSH20 0xFFFFFFFFFFFFFFFFFFFFFFFFFFFFFFFFFFFFFFFF AND PUSH20 0xFFFFFFFFFFFFFFFFFFFFFFFFFFFFFFFFFFFFFFFF AND DUP2 MSTORE PUSH1 0x20 ADD SWAP1 DUP2 MSTORE PUSH1 0x20 ADD PUSH1 0x0 KECCAK256 PUSH1 0x0 DUP3 DUP3 SLOAD PUSH2 0xF68 SWAP2 SWAP1 PUSH2 0x367F JUMP JUMPDEST SWAP3 POP POP DUP2 SWAP1 SSTORE POP DUP1 PUSH1 0xB SLOAD PUSH2 0xF7D SWAP2 SWAP1 PUSH2 0x34A7 JUMP JUMPDEST PUSH1 0xF PUSH1 0x0 PUSH1 0x1 PUSH1 0x0 SWAP1 SLOAD SWAP1 PUSH2 0x100 EXP SWAP1 DIV PUSH20 0xFFFFFFFFFFFFFFFFFFFFFFFFFFFFFFFFFFFFFFFF AND PUSH20 0xFFFFFFFFFFFFFFFFFFFFFFFFFFFFFFFFFFFFFFFF AND PUSH20 0xFFFFFFFFFFFFFFFFFFFFFFFFFFFFFFFFFFFFFFFF AND DUP2 MSTORE PUSH1 0x20 ADD SWAP1 DUP2 MSTORE PUSH1 0x20 ADD PUSH1 0x0 KECCAK256 PUSH1 0x0 DUP3 DUP3 SLOAD PUSH2 0xFED SWAP2 SWAP1 PUSH2 0x367F JUMP JUMPDEST SWAP3 POP POP DUP2 SWAP1 SSTORE POP PUSH1 0x0 DUP1 SLOAD SWAP1 PUSH2 0x100 EXP SWAP1 DIV PUSH20 0xFFFFFFFFFFFFFFFFFFFFFFFFFFFFFFFFFFFFFFFF AND PUSH20 0xFFFFFFFFFFFFFFFFFFFFFFFFFFFFFFFFFFFFFFFF AND PUSH32 0xE670E4E82118D22A1F9EE18920455EBC958BAE26A90A05D31D3378788B1B0E44 DUP3 PUSH1 0x40 MLOAD PUSH2 0x105A SWAP2 SWAP1 PUSH2 0x2DC2 JUMP JUMPDEST PUSH1 0x40 MLOAD DUP1 SWAP2 SUB SWAP1 LOG2 PUSH1 0x1 PUSH1 0x0 SWAP1 SLOAD SWAP1 PUSH2 0x100 EXP SWAP1 DIV PUSH20 0xFFFFFFFFFFFFFFFFFFFFFFFFFFFFFFFFFFFFFFFF AND PUSH20 0xFFFFFFFFFFFFFFFFFFFFFFFFFFFFFFFFFFFFFFFF AND PUSH32 0xE670E4E82118D22A1F9EE18920455EBC958BAE26A90A05D31D3378788B1B0E44 DUP3 PUSH1 0xB SLOAD PUSH2 0x10CA SWAP2 SWAP1 PUSH2 0x34A7 JUMP JUMPDEST PUSH1 0x40 MLOAD PUSH2 0x10D7 SWAP2 SWAP1 PUSH2 0x2DC2 JUMP JUMPDEST PUSH1 0x40 MLOAD DUP1 SWAP2 SUB SWAP1 LOG2 PUSH1 0x0 PUSH1 0xD PUSH1 0x2 PUSH2 0x100 EXP DUP2 SLOAD DUP2 PUSH1 0xFF MUL NOT AND SWAP1 DUP4 ISZERO ISZERO MUL OR SWAP1 SSTORE POP PUSH1 0x0 PUSH1 0xD PUSH1 0x0 PUSH2 0x100 EXP DUP2 SLOAD DUP2 PUSH1 0xFF MUL NOT AND SWAP1 DUP4 ISZERO ISZERO MUL OR SWAP1 SSTORE POP PUSH32 0xB4121F1F91A696A3FC75F6D151F3C9865ABFFA0738BDA595E71C381C02AF2FAA DUP4 DUP4 PUSH1 0x40 MLOAD PUSH2 0x1146 SWAP3 SWAP2 SWAP1 PUSH2 0x36B3 JUMP JUMPDEST PUSH1 0x40 MLOAD DUP1 SWAP2 SUB SWAP1 LOG1 POP POP POP JUMP JUMPDEST PUSH1 0x0 PUSH1 0xF PUSH1 0x0 CALLER PUSH20 0xFFFFFFFFFFFFFFFFFFFFFFFFFFFFFFFFFFFFFFFF AND PUSH20 0xFFFFFFFFFFFFFFFFFFFFFFFFFFFFFFFFFFFFFFFF AND DUP2 MSTORE PUSH1 0x20 ADD SWAP1 DUP2 MSTORE PUSH1 0x20 ADD PUSH1 0x0 KECCAK256 SLOAD SWAP1 POP PUSH1 0x0 DUP2 GT PUSH2 0x11DA JUMPI PUSH1 0x40 MLOAD PUSH32 0x8C379A000000000000000000000000000000000000000000000000000000000 DUP2 MSTORE PUSH1 0x4 ADD PUSH2 0x11D1 SWAP1 PUSH2 0x3728 JUMP JUMPDEST PUSH1 0x40 MLOAD DUP1 SWAP2 SUB SWAP1 REVERT JUMPDEST PUSH1 0x0 PUSH1 0xF PUSH1 0x0 CALLER PUSH20 0xFFFFFFFFFFFFFFFFFFFFFFFFFFFFFFFFFFFFFFFF AND PUSH20 0xFFFFFFFFFFFFFFFFFFFFFFFFFFFFFFFFFFFFFFFF AND DUP2 MSTORE PUSH1 0x20 ADD SWAP1 DUP2 MSTORE PUSH1 0x20 ADD PUSH1 0x0 KECCAK256 DUP2 SWAP1 SSTORE POP PUSH1 0x0 CALLER PUSH20 0xFFFFFFFFFFFFFFFFFFFFFFFFFFFFFFFFFFFFFFFF AND DUP3 PUSH1 0x40 MLOAD PUSH2 0x1245 SWAP1 PUSH2 0x3776 JUMP JUMPDEST PUSH1 0x0 PUSH1 0x40 MLOAD DUP1 DUP4 SUB DUP2 DUP6 DUP8 GAS CALL SWAP3 POP POP POP RETURNDATASIZE DUP1 PUSH1 0x0 DUP2 EQ PUSH2 0x1282 JUMPI PUSH1 0x40 MLOAD SWAP2 POP PUSH1 0x1F NOT PUSH1 0x3F RETURNDATASIZE ADD AND DUP3 ADD PUSH1 0x40 MSTORE RETURNDATASIZE DUP3 MSTORE RETURNDATASIZE PUSH1 0x0 PUSH1 0x20 DUP5 ADD RETURNDATACOPY PUSH2 0x1287 JUMP JUMPDEST PUSH1 0x60 SWAP2 POP JUMPDEST POP POP SWAP1 POP DUP1 PUSH2 0x12CB JUMPI PUSH1 0x40 MLOAD PUSH32 0x8C379A000000000000000000000000000000000000000000000000000000000 DUP2 MSTORE PUSH1 0x4 ADD PUSH2 0x12C2 SWAP1 PUSH2 0x37D7 JUMP JUMPDEST PUSH1 0x40 MLOAD DUP1 SWAP2 SUB SWAP1 REVERT JUMPDEST CALLER PUSH20 0xFFFFFFFFFFFFFFFFFFFFFFFFFFFFFFFFFFFFFFFF AND PUSH32 0x8C9A4F13B67CB64D7C6AA1AE0C9BF07694AF521A28B93E7060020810AB4BC59F DUP4 PUSH1 0x40 MLOAD PUSH2 0x1311 SWAP2 SWAP1 PUSH2 0x2DC2 JUMP JUMPDEST PUSH1 0x40 MLOAD DUP1 SWAP2 SUB SWAP1 LOG2 POP POP JUMP JUMPDEST PUSH1 0x1 PUSH1 0x0 SWAP1 SLOAD SWAP1 PUSH2 0x100 EXP SWAP1 DIV PUSH20 0xFFFFFFFFFFFFFFFFFFFFFFFFFFFFFFFFFFFFFFFF AND PUSH20 0xFFFFFFFFFFFFFFFFFFFFFFFFFFFFFFFFFFFFFFFF AND CALLER PUSH20 0xFFFFFFFFFFFFFFFFFFFFFFFFFFFFFFFFFFFFFFFF AND EQ PUSH2 0x13AD JUMPI PUSH1 0x40 MLOAD PUSH32 0x8C379A000000000000000000000000000000000000000000000000000000000 DUP2 MSTORE PUSH1 0x4 ADD PUSH2 0x13A4 SWAP1 PUSH2 0x3869 JUMP JUMPDEST PUSH1 0x40 MLOAD DUP1 SWAP2 SUB SWAP1 REVERT JUMPDEST PUSH1 0xD PUSH1 0x0 SWAP1 SLOAD SWAP1 PUSH2 0x100 EXP SWAP1 DIV PUSH1 0xFF AND ISZERO PUSH2 0x13FD JUMPI PUSH1 0x40 MLOAD PUSH32 0x8C379A000000000000000000000000000000000000000000000000000000000 DUP2 MSTORE PUSH1 0x4 ADD PUSH2 0x13F4 SWAP1 PUSH2 0x38D5 JUMP JUMPDEST PUSH1 0x40 MLOAD DUP1 SWAP2 SUB SWAP1 REVERT JUMPDEST PUSH1 0x2 SLOAD CALLVALUE EQ PUSH2 0x1441 JUMPI PUSH1 0x40 MLOAD PUSH32 0x8C379A000000000000000000000000000000000000000000000000000000000 DUP2 MSTORE PUSH1 0x4 ADD PUSH2 0x1438 SWAP1 PUSH2 0x3967 JUMP JUMPDEST PUSH1 0x40 MLOAD DUP1 SWAP2 SUB SWAP1 REVERT JUMPDEST PUSH1 0x1 PUSH1 0xD PUSH1 0x1 PUSH2 0x100 EXP DUP2 SLOAD DUP2 PUSH1 0xFF MUL NOT AND SWAP1 DUP4 ISZERO ISZERO MUL OR SWAP1 SSTORE POP PUSH32 0x486AC935CF1EA9EFFD9E0A261BC42917B45F2FD45CC98DEF2BC34D47F216937C CALLVALUE PUSH1 0x40 MLOAD PUSH2 0x148B SWAP2 SWAP1 PUSH2 0x2DC2 JUMP JUMPDEST PUSH1 0x40 MLOAD DUP1 SWAP2 SUB SWAP1 LOG1 JUMP JUMPDEST PUSH1 0xD PUSH1 0x7 SWAP1 SLOAD SWAP1 PUSH2 0x100 EXP SWAP1 DIV PUSH1 0xFF AND DUP2 JUMP JUMPDEST PUSH1 0x5 SLOAD DUP2 JUMP JUMPDEST PUSH1 0xD PUSH1 0x5 SWAP1 SLOAD SWAP1 PUSH2 0x100 EXP SWAP1 DIV PUSH1 0xFF AND DUP2 JUMP JUMPDEST PUSH1 0xD PUSH1 0x8 SWAP1 SLOAD SWAP1 PUSH2 0x100 EXP SWAP1 DIV PUSH20 0xFFFFFFFFFFFFFFFFFFFFFFFFFFFFFFFFFFFFFFFF AND DUP2 JUMP JUMPDEST PUSH1 0x0 PUSH1 0xD PUSH1 0x8 SWAP1 SLOAD SWAP1 PUSH2 0x100 EXP SWAP1 DIV PUSH20 0xFFFFFFFFFFFFFFFFFFFFFFFFFFFFFFFFFFFFFFFF AND PUSH20 0xFFFFFFFFFFFFFFFFFFFFFFFFFFFFFFFFFFFFFFFF AND PUSH4 0xF7434EA9 PUSH1 0x40 MLOAD DUP2 PUSH4 0xFFFFFFFF AND PUSH1 0xE0 SHL DUP2 MSTORE PUSH1 0x4 ADD PUSH2 0x1542 SWAP1 PUSH2 0x3384 JUMP JUMPDEST PUSH1 0x20 PUSH1 0x40 MLOAD DUP1 DUP4 SUB DUP2 DUP7 GAS STATICCALL ISZERO DUP1 ISZERO PUSH2 0x155F JUMPI RETURNDATASIZE PUSH1 0x0 DUP1 RETURNDATACOPY RETURNDATASIZE PUSH1 0x0 REVERT JUMPDEST POP POP POP POP PUSH1 0x40 MLOAD RETURNDATASIZE PUSH1 0x1F NOT PUSH1 0x1F DUP3 ADD AND DUP3 ADD DUP1 PUSH1 0x40 MSTORE POP DUP2 ADD SWAP1 PUSH2 0x1583 SWAP2 SWAP1 PUSH2 0x33B9 JUMP JUMPDEST SWAP1 POP SWAP1 JUMP JUMPDEST PUSH1 0xD PUSH1 0x4 SWAP1 SLOAD SWAP1 PUSH2 0x100 EXP SWAP1 DIV PUSH1 0xFF AND DUP2 JUMP JUMPDEST PUSH1 0xC SLOAD DUP2 JUMP JUMPDEST PUSH1 0x7 SLOAD DUP2 JUMP JUMPDEST PUSH1 0x0 SELFBALANCE SWAP1 POP SWAP1 JUMP JUMPDEST PUSH1 0xD PUSH1 0x6 SWAP1 SLOAD SWAP1 PUSH2 0x100 EXP SWAP1 DIV PUSH1 0xFF AND DUP2 JUMP JUMPDEST PUSH1 0x0 PUSH1 0xF PUSH1 0x0 PUSH1 0x1 PUSH1 0x0 SWAP1 SLOAD SWAP1 PUSH2 0x100 EXP SWAP1 DIV PUSH20 0xFFFFFFFFFFFFFFFFFFFFFFFFFFFFFFFFFFFFFFFF AND PUSH20 0xFFFFFFFFFFFFFFFFFFFFFFFFFFFFFFFFFFFFFFFF AND PUSH20 0xFFFFFFFFFFFFFFFFFFFFFFFFFFFFFFFFFFFFFFFF AND DUP2 MSTORE PUSH1 0x20 ADD SWAP1 DUP2 MSTORE PUSH1 0x20 ADD PUSH1 0x0 KECCAK256 SLOAD SWAP1 POP SWAP1 JUMP JUMPDEST PUSH1 0x0 PUSH1 0xB SLOAD SWAP1 POP SWAP1 JUMP JUMPDEST PUSH1 0x0 DUP1 SLOAD SWAP1 PUSH2 0x100 EXP SWAP1 DIV PUSH20 0xFFFFFFFFFFFFFFFFFFFFFFFFFFFFFFFFFFFFFFFF AND PUSH20 0xFFFFFFFFFFFFFFFFFFFFFFFFFFFFFFFFFFFFFFFF AND CALLER PUSH20 0xFFFFFFFFFFFFFFFFFFFFFFFFFFFFFFFFFFFFFFFF AND EQ PUSH2 0x16C3 JUMPI PUSH1 0x40 MLOAD PUSH32 0x8C379A000000000000000000000000000000000000000000000000000000000 DUP2 MSTORE PUSH1 0x4 ADD PUSH2 0x16BA SWAP1 PUSH2 0x39F9 JUMP JUMPDEST PUSH1 0x40 MLOAD DUP1 SWAP2 SUB SWAP1 REVERT JUMPDEST PUSH1 0xD PUSH1 0x0 SWAP1 SLOAD SWAP1 PUSH2 0x100 EXP SWAP1 DIV PUSH1 0xFF AND PUSH2 0x1712 JUMPI PUSH1 0x40 MLOAD PUSH32 0x8C379A000000000000000000000000000000000000000000000000000000000 DUP2 MSTORE PUSH1 0x4 ADD PUSH2 0x1709 SWAP1 PUSH2 0x3209 JUMP JUMPDEST PUSH1 0x40 MLOAD DUP1 SWAP2 SUB SWAP1 REVERT JUMPDEST PUSH1 0x4 SLOAD PUSH1 0x6 SLOAD GT ISZERO PUSH2 0x1759 JUMPI PUSH1 0x40 MLOAD PUSH32 0x8C379A000000000000000000000000000000000000000000000000000000000 DUP2 MSTORE PUSH1 0x4 ADD PUSH2 0x1750 SWAP1 PUSH2 0x3A65 JUMP JUMPDEST PUSH1 0x40 MLOAD DUP1 SWAP2 SUB SWAP1 REVERT JUMPDEST DUP1 PUSH1 0xE PUSH1 0x0 PUSH1 0x6 SLOAD DUP2 MSTORE PUSH1 0x20 ADD SWAP1 DUP2 MSTORE PUSH1 0x20 ADD PUSH1 0x0 KECCAK256 PUSH1 0x1 ADD DUP2 SWAP1 SSTORE POP PUSH1 0x3 SLOAD PUSH1 0xE PUSH1 0x0 PUSH1 0x6 SLOAD DUP2 MSTORE PUSH1 0x20 ADD SWAP1 DUP2 MSTORE PUSH1 0x20 ADD PUSH1 0x0 KECCAK256 PUSH1 0x0 ADD DUP2 SWAP1 SSTORE POP PUSH32 0xF75D23E75691B7209BF24071476B3702A8412A369B26FD3AD012D19630F65A2B PUSH1 0x6 SLOAD DUP3 PUSH1 0x40 MLOAD PUSH2 0x17C8 SWAP3 SWAP2 SWAP1 PUSH2 0x36B3 JUMP JUMPDEST PUSH1 0x40 MLOAD DUP1 SWAP2 SUB SWAP1 LOG1 POP JUMP JUMPDEST PUSH1 0x9 SLOAD DUP2 JUMP JUMPDEST PUSH1 0x6 SLOAD DUP2 JUMP JUMPDEST PUSH1 0x4 SLOAD DUP2 JUMP JUMPDEST PUSH1 0x0 DUP1 SLOAD SWAP1 PUSH2 0x100 EXP SWAP1 DIV PUSH20 0xFFFFFFFFFFFFFFFFFFFFFFFFFFFFFFFFFFFFFFFF AND PUSH20 0xFFFFFFFFFFFFFFFFFFFFFFFFFFFFFFFFFFFFFFFF AND CALLER PUSH20 0xFFFFFFFFFFFFFFFFFFFFFFFFFFFFFFFFFFFFFFFF AND EQ PUSH2 0x1873 JUMPI PUSH1 0x40 MLOAD PUSH32 0x8C379A000000000000000000000000000000000000000000000000000000000 DUP2 MSTORE PUSH1 0x4 ADD PUSH2 0x186A SWAP1 PUSH2 0x3AF7 JUMP JUMPDEST PUSH1 0x40 MLOAD DUP1 SWAP2 SUB SWAP1 REVERT JUMPDEST PUSH1 0xD PUSH1 0x1 SWAP1 SLOAD SWAP1 PUSH2 0x100 EXP SWAP1 DIV PUSH1 0xFF AND PUSH2 0x18C2 JUMPI PUSH1 0x40 MLOAD PUSH32 0x8C379A000000000000000000000000000000000000000000000000000000000 DUP2 MSTORE PUSH1 0x4 ADD PUSH2 0x18B9 SWAP1 PUSH2 0x3B89 JUMP JUMPDEST PUSH1 0x40 MLOAD DUP1 SWAP2 SUB SWAP1 REVERT JUMPDEST PUSH1 0xD PUSH1 0x0 SWAP1 SLOAD SWAP1 PUSH2 0x100 EXP SWAP1 DIV PUSH1 0xFF AND ISZERO PUSH2 0x1912 JUMPI PUSH1 0x40 MLOAD PUSH32 0x8C379A000000000000000000000000000000000000000000000000000000000 DUP2 MSTORE PUSH1 0x4 ADD PUSH2 0x1909 SWAP1 PUSH2 0x38D5 JUMP JUMPDEST PUSH1 0x40 MLOAD DUP1 SWAP2 SUB SWAP1 REVERT JUMPDEST PUSH1 0x1 PUSH1 0xD PUSH1 0x0 PUSH2 0x100 EXP DUP2 SLOAD DUP2 PUSH1 0xFF MUL NOT AND SWAP1 DUP4 ISZERO ISZERO MUL OR SWAP1 SSTORE POP TIMESTAMP PUSH1 0x5 DUP2 SWAP1 SSTORE POP PUSH1 0x1 PUSH1 0x6 DUP2 SWAP1 SSTORE POP JUMP JUMPDEST PUSH1 0x1 PUSH1 0x0 SWAP1 SLOAD SWAP1 PUSH2 0x100 EXP SWAP1 DIV PUSH20 0xFFFFFFFFFFFFFFFFFFFFFFFFFFFFFFFFFFFFFFFF AND PUSH20 0xFFFFFFFFFFFFFFFFFFFFFFFFFFFFFFFFFFFFFFFF AND CALLER PUSH20 0xFFFFFFFFFFFFFFFFFFFFFFFFFFFFFFFFFFFFFFFF AND EQ PUSH2 0x19CE JUMPI PUSH1 0x40 MLOAD PUSH32 0x8C379A000000000000000000000000000000000000000000000000000000000 DUP2 MSTORE PUSH1 0x4 ADD PUSH2 0x19C5 SWAP1 PUSH2 0x3BF5 JUMP JUMPDEST PUSH1 0x40 MLOAD DUP1 SWAP2 SUB SWAP1 REVERT JUMPDEST PUSH1 0xD PUSH1 0x0 SWAP1 SLOAD SWAP1 PUSH2 0x100 EXP SWAP1 DIV PUSH1 0xFF AND PUSH2 0x1A1D JUMPI PUSH1 0x40 MLOAD PUSH32 0x8C379A000000000000000000000000000000000000000000000000000000000 DUP2 MSTORE PUSH1 0x4 ADD PUSH2 0x1A14 SWAP1 PUSH2 0x3209 JUMP JUMPDEST PUSH1 0x40 MLOAD DUP1 SWAP2 SUB SWAP1 REVERT JUMPDEST PUSH1 0x4 SLOAD PUSH1 0x6 SLOAD GT ISZERO PUSH2 0x1A64 JUMPI PUSH1 0x40 MLOAD PUSH32 0x8C379A000000000000000000000000000000000000000000000000000000000 DUP2 MSTORE PUSH1 0x4 ADD PUSH2 0x1A5B SWAP1 PUSH2 0x3A65 JUMP JUMPDEST PUSH1 0x40 MLOAD DUP1 SWAP2 SUB SWAP1 REVERT JUMPDEST PUSH1 0x0 PUSH1 0xE PUSH1 0x0 PUSH1 0x6 SLOAD DUP2 MSTORE PUSH1 0x20 ADD SWAP1 DUP2 MSTORE PUSH1 0x20 ADD PUSH1 0x0 KECCAK256 SWAP1 POP DUP1 PUSH1 0x3 ADD PUSH1 0x0 SWAP1 SLOAD SWAP1 PUSH2 0x100 EXP SWAP1 DIV PUSH1 0xFF AND ISZERO PUSH2 0x1ACF JUMPI PUSH1 0x40 MLOAD PUSH32 0x8C379A000000000000000000000000000000000000000000000000000000000 DUP2 MSTORE PUSH1 0x4 ADD PUSH2 0x1AC6 SWAP1 PUSH2 0x3C87 JUMP JUMPDEST PUSH1 0x40 MLOAD DUP1 SWAP2 SUB SWAP1 REVERT JUMPDEST PUSH1 0x0 DUP2 PUSH1 0x1 ADD SLOAD GT PUSH2 0x1B16 JUMPI PUSH1 0x40 MLOAD PUSH32 0x8C379A000000000000000000000000000000000000000000000000000000000 DUP2 MSTORE PUSH1 0x4 ADD PUSH2 0x1B0D SWAP1 PUSH2 0x3D19 JUMP JUMPDEST PUSH1 0x40 MLOAD DUP1 SWAP2 SUB SWAP1 REVERT JUMPDEST PUSH1 0x0 PUSH1 0x7 SLOAD DUP3 PUSH1 0x1 ADD SLOAD DUP4 PUSH1 0x0 ADD SLOAD PUSH2 0x1B2F SWAP2 SWAP1 PUSH2 0x367F JUMP JUMPDEST PUSH2 0x1B39 SWAP2 SWAP1 PUSH2 0x367F JUMP JUMPDEST SWAP1 POP DUP1 CALLVALUE EQ PUSH2 0x1B7D JUMPI PUSH1 0x40 MLOAD PUSH32 0x8C379A000000000000000000000000000000000000000000000000000000000 DUP2 MSTORE PUSH1 0x4 ADD PUSH2 0x1B74 SWAP1 PUSH2 0x3D85 JUMP JUMPDEST PUSH1 0x40 MLOAD DUP1 SWAP2 SUB SWAP1 REVERT JUMPDEST PUSH1 0x1 DUP3 PUSH1 0x3 ADD PUSH1 0x0 PUSH2 0x100 EXP DUP2 SLOAD DUP2 PUSH1 0xFF MUL NOT AND SWAP1 DUP4 ISZERO ISZERO MUL OR SWAP1 SSTORE POP PUSH1 0x0 PUSH1 0x7 DUP2 SWAP1 SSTORE POP PUSH32 0xA0D112ED080C1B1A94B838AD981A23746BE2A4670FD4BF157224E72CDD5DFDDE PUSH1 0x6 SLOAD DUP3 PUSH1 0x40 MLOAD PUSH2 0x1BD5 SWAP3 SWAP2 SWAP1 PUSH2 0x36B3 JUMP JUMPDEST PUSH1 0x40 MLOAD DUP1 SWAP2 SUB SWAP1 LOG1 DUP1 PUSH1 0xF PUSH1 0x0 DUP1 PUSH1 0x0 SWAP1 SLOAD SWAP1 PUSH2 0x100 EXP SWAP1 DIV PUSH20 0xFFFFFFFFFFFFFFFFFFFFFFFFFFFFFFFFFFFFFFFF AND PUSH20 0xFFFFFFFFFFFFFFFFFFFFFFFFFFFFFFFFFFFFFFFF AND PUSH20 0xFFFFFFFFFFFFFFFFFFFFFFFFFFFFFFFFFFFFFFFF AND DUP2 MSTORE PUSH1 0x20 ADD SWAP1 DUP2 MSTORE PUSH1 0x20 ADD PUSH1 0x0 KECCAK256 PUSH1 0x0 DUP3 DUP3 SLOAD PUSH2 0x1C4D SWAP2 SWAP1 PUSH2 0x367F JUMP JUMPDEST SWAP3 POP POP DUP2 SWAP1 SSTORE POP PUSH1 0x0 DUP1 SLOAD SWAP1 PUSH2 0x100 EXP SWAP1 DIV PUSH20 0xFFFFFFFFFFFFFFFFFFFFFFFFFFFFFFFFFFFFFFFF AND PUSH20 0xFFFFFFFFFFFFFFFFFFFFFFFFFFFFFFFFFFFFFFFF AND PUSH32 0xE670E4E82118D22A1F9EE18920455EBC958BAE26A90A05D31D3378788B1B0E44 DUP3 PUSH1 0x40 MLOAD PUSH2 0x1CBA SWAP2 SWAP1 PUSH2 0x2DC2 JUMP JUMPDEST PUSH1 0x40 MLOAD DUP1 SWAP2 SUB SWAP1 LOG2 PUSH1 0x4 SLOAD PUSH1 0x6 SLOAD SUB PUSH2 0x1CED JUMPI PUSH1 0x1 PUSH1 0xD PUSH1 0x5 PUSH2 0x100 EXP DUP2 SLOAD DUP2 PUSH1 0xFF MUL NOT AND SWAP1 DUP4 ISZERO ISZERO MUL OR SWAP1 SSTORE POP PUSH2 0x1D06 JUMP JUMPDEST PUSH1 0x6 PUSH1 0x0 DUP2 SLOAD DUP1 SWAP3 SWAP2 SWAP1 PUSH2 0x1D00 SWAP1 PUSH2 0x3DA5 JUMP JUMPDEST SWAP2 SWAP1 POP SSTORE POP JUMPDEST POP POP JUMP JUMPDEST PUSH1 0xA SLOAD DUP2 JUMP JUMPDEST PUSH1 0xD PUSH1 0x3 SWAP1 SLOAD SWAP1 PUSH2 0x100 EXP SWAP1 DIV PUSH1 0xFF AND DUP2 JUMP JUMPDEST PUSH1 0x1 PUSH1 0x0 SWAP1 SLOAD SWAP1 PUSH2 0x100 EXP SWAP1 DIV PUSH20 0xFFFFFFFFFFFFFFFFFFFFFFFFFFFFFFFFFFFFFFFF AND PUSH20 0xFFFFFFFFFFFFFFFFFFFFFFFFFFFFFFFFFFFFFFFF AND CALLER PUSH20 0xFFFFFFFFFFFFFFFFFFFFFFFFFFFFFFFFFFFFFFFF AND EQ PUSH2 0x1DB3 JUMPI PUSH1 0x40 MLOAD PUSH32 0x8C379A000000000000000000000000000000000000000000000000000000000 DUP2 MSTORE PUSH1 0x4 ADD PUSH2 0x1DAA SWAP1 PUSH2 0x3E5F JUMP JUMPDEST PUSH1 0x40 MLOAD DUP1 SWAP2 SUB SWAP1 REVERT JUMPDEST PUSH1 0xD PUSH1 0x6 SWAP1 SLOAD SWAP1 PUSH2 0x100 EXP SWAP1 DIV PUSH1 0xFF AND PUSH2 0x1E02 JUMPI PUSH1 0x40 MLOAD PUSH32 0x8C379A000000000000000000000000000000000000000000000000000000000 DUP2 MSTORE PUSH1 0x4 ADD PUSH2 0x1DF9 SWAP1 PUSH2 0x3EF1 JUMP JUMPDEST PUSH1 0x40 MLOAD DUP1 SWAP2 SUB SWAP1 REVERT JUMPDEST DUP1 PUSH1 0x9 DUP2 SWAP1 SSTORE POP PUSH1 0x1 PUSH1 0xD PUSH1 0x7 PUSH2 0x100 EXP DUP2 SLOAD DUP2 PUSH1 0xFF MUL NOT AND SWAP1 DUP4 ISZERO ISZERO MUL OR SWAP1 SSTORE POP PUSH32 0xF2792B28C50F2F7EECE39E74A2B4F0F1CE15A79ACB72DD811686E827AED030B DUP2 PUSH1 0x40 MLOAD PUSH2 0x1E53 SWAP2 SWAP1 PUSH2 0x2DC2 JUMP JUMPDEST PUSH1 0x40 MLOAD DUP1 SWAP2 SUB SWAP1 LOG1 POP JUMP JUMPDEST PUSH1 0x1 PUSH1 0x0 SWAP1 SLOAD SWAP1 PUSH2 0x100 EXP SWAP1 DIV PUSH20 0xFFFFFFFFFFFFFFFFFFFFFFFFFFFFFFFFFFFFFFFF AND PUSH20 0xFFFFFFFFFFFFFFFFFFFFFFFFFFFFFFFFFFFFFFFF AND CALLER PUSH20 0xFFFFFFFFFFFFFFFFFFFFFFFFFFFFFFFFFFFFFFFF AND EQ PUSH2 0x1EEE JUMPI PUSH1 0x40 MLOAD PUSH32 0x8C379A000000000000000000000000000000000000000000000000000000000 DUP2 MSTORE PUSH1 0x4 ADD PUSH2 0x1EE5 SWAP1 PUSH2 0x3F83 JUMP JUMPDEST PUSH1 0x40 MLOAD DUP1 SWAP2 SUB SWAP1 REVERT JUMPDEST PUSH1 0xD PUSH1 0x0 SWAP1 SLOAD SWAP1 PUSH2 0x100 EXP SWAP1 DIV PUSH1 0xFF AND PUSH2 0x1F3D JUMPI PUSH1 0x40 MLOAD PUSH32 0x8C379A000000000000000000000000000000000000000000000000000000000 DUP2 MSTORE PUSH1 0x4 ADD PUSH2 0x1F34 SWAP1 PUSH2 0x3209 JUMP JUMPDEST PUSH1 0x40 MLOAD DUP1 SWAP2 SUB SWAP1 REVERT JUMPDEST PUSH1 0x4 SLOAD PUSH1 0x6 SLOAD GT ISZERO PUSH2 0x1F84 JUMPI PUSH1 0x40 MLOAD PUSH32 0x8C379A000000000000000000000000000000000000000000000000000000000 DUP2 MSTORE PUSH1 0x4 ADD PUSH2 0x1F7B SWAP1 PUSH2 0x3A65 JUMP JUMPDEST PUSH1 0x40 MLOAD DUP1 SWAP2 SUB SWAP1 REVERT JUMPDEST PUSH1 0x0 PUSH1 0xE PUSH1 0x0 PUSH1 0x6 SLOAD DUP2 MSTORE PUSH1 0x20 ADD SWAP1 DUP2 MSTORE PUSH1 0x20 ADD PUSH1 0x0 KECCAK256 SWAP1 POP DUP1 PUSH1 0x3 ADD PUSH1 0x0 SWAP1 SLOAD SWAP1 PUSH2 0x100 EXP SWAP1 DIV PUSH1 0xFF AND ISZERO PUSH2 0x1FEF JUMPI PUSH1 0x40 MLOAD PUSH32 0x8C379A000000000000000000000000000000000000000000000000000000000 DUP2 MSTORE PUSH1 0x4 ADD PUSH2 0x1FE6 SWAP1 PUSH2 0x3C87 JUMP JUMPDEST PUSH1 0x40 MLOAD DUP1 SWAP2 SUB SWAP1 REVERT JUMPDEST PUSH1 0x0 DUP2 PUSH1 0x1 ADD SLOAD GT PUSH2 0x2036 JUMPI PUSH1 0x40 MLOAD PUSH32 0x8C379A000000000000000000000000000000000000000000000000000000000 DUP2 MSTORE PUSH1 0x4 ADD PUSH2 0x202D SWAP1 PUSH2 0x3D19 JUMP JUMPDEST PUSH1 0x40 MLOAD DUP1 SWAP2 SUB SWAP1 REVERT JUMPDEST PUSH1 0x0 DUP2 PUSH1 0x1 ADD SLOAD DUP3 PUSH1 0x0 ADD SLOAD PUSH2 0x204C SWAP2 SWAP1 PUSH2 0x367F JUMP JUMPDEST SWAP1 POP DUP1 PUSH1 0x7 PUSH1 0x0 DUP3 DUP3 SLOAD PUSH2 0x2060 SWAP2 SWAP1 PUSH2 0x367F JUMP JUMPDEST SWAP3 POP POP DUP2 SWAP1 SSTORE POP PUSH32 0x9EA3A4B65940D7B9DBF8BB1C459BA8E81222D1A596E93FBC364365A6D78E27D6 PUSH1 0x6 SLOAD DUP3 PUSH1 0x40 MLOAD PUSH2 0x209A SWAP3 SWAP2 SWAP1 PUSH2 0x36B3 JUMP JUMPDEST PUSH1 0x40 MLOAD DUP1 SWAP2 SUB SWAP1 LOG1 PUSH1 0x4 SLOAD PUSH1 0x6 SLOAD SUB PUSH2 0x20BA JUMPI PUSH2 0x20B5 PUSH2 0x2C05 JUMP JUMPDEST PUSH2 0x20D3 JUMP JUMPDEST PUSH1 0x6 PUSH1 0x0 DUP2 SLOAD DUP1 SWAP3 SWAP2 SWAP1 PUSH2 0x20CD SWAP1 PUSH2 0x3DA5 JUMP JUMPDEST SWAP2 SWAP1 POP SSTORE POP JUMPDEST POP POP JUMP JUMPDEST PUSH1 0x0 PUSH1 0xD PUSH1 0x5 SWAP1 SLOAD SWAP1 PUSH2 0x100 EXP SWAP1 DIV PUSH1 0xFF AND SWAP1 POP SWAP1 JUMP JUMPDEST PUSH1 0xB SLOAD DUP2 JUMP JUMPDEST PUSH1 0x0 DUP1 SLOAD SWAP1 PUSH2 0x100 EXP SWAP1 DIV PUSH20 0xFFFFFFFFFFFFFFFFFFFFFFFFFFFFFFFFFFFFFFFF AND PUSH20 0xFFFFFFFFFFFFFFFFFFFFFFFFFFFFFFFFFFFFFFFF AND CALLER PUSH20 0xFFFFFFFFFFFFFFFFFFFFFFFFFFFFFFFFFFFFFFFF AND EQ PUSH2 0x2182 JUMPI PUSH1 0x40 MLOAD PUSH32 0x8C379A000000000000000000000000000000000000000000000000000000000 DUP2 MSTORE PUSH1 0x4 ADD PUSH2 0x2179 SWAP1 PUSH2 0x4015 JUMP JUMPDEST PUSH1 0x40 MLOAD DUP1 SWAP2 SUB SWAP1 REVERT JUMPDEST PUSH1 0xD PUSH1 0x0 SWAP1 SLOAD SWAP1 PUSH2 0x100 EXP SWAP1 DIV PUSH1 0xFF AND ISZERO PUSH2 0x21D2 JUMPI PUSH1 0x40 MLOAD PUSH32 0x8C379A000000000000000000000000000000000000000000000000000000000 DUP2 MSTORE PUSH1 0x4 ADD PUSH2 0x21C9 SWAP1 PUSH2 0x38D5 JUMP JUMPDEST PUSH1 0x40 MLOAD DUP1 SWAP2 SUB SWAP1 REVERT JUMPDEST DUP3 PUSH1 0x2 DUP2 SWAP1 SSTORE POP DUP2 PUSH1 0x3 DUP2 SWAP1 SSTORE POP DUP1 PUSH1 0x4 DUP2 SWAP1 SSTORE POP PUSH32 0x2F47566D4872826A9750E05AE448AD21F2A677C332D36D6437B697A7F8DD1E14 DUP4 DUP4 DUP4 PUSH1 0x40 MLOAD PUSH2 0x221A SWAP4 SWAP3 SWAP2 SWAP1 PUSH2 0x4035 JUMP JUMPDEST PUSH1 0x40 MLOAD DUP1 SWAP2 SUB SWAP1 LOG1 POP POP POP JUMP JUMPDEST PUSH1 0x0 DUP1 SLOAD SWAP1 PUSH2 0x100 EXP SWAP1 DIV PUSH20 0xFFFFFFFFFFFFFFFFFFFFFFFFFFFFFFFFFFFFFFFF AND DUP2 JUMP JUMPDEST PUSH1 0x1 PUSH1 0x0 SWAP1 SLOAD SWAP1 PUSH2 0x100 EXP SWAP1 DIV PUSH20 0xFFFFFFFFFFFFFFFFFFFFFFFFFFFFFFFFFFFFFFFF AND PUSH20 0xFFFFFFFFFFFFFFFFFFFFFFFFFFFFFFFFFFFFFFFF AND CALLER PUSH20 0xFFFFFFFFFFFFFFFFFFFFFFFFFFFFFFFFFFFFFFFF AND EQ PUSH2 0x22DB JUMPI PUSH1 0x40 MLOAD PUSH32 0x8C379A000000000000000000000000000000000000000000000000000000000 DUP2 MSTORE PUSH1 0x4 ADD PUSH2 0x22D2 SWAP1 PUSH2 0x40DE JUMP JUMPDEST PUSH1 0x40 MLOAD DUP1 SWAP2 SUB SWAP1 REVERT JUMPDEST PUSH1 0xD PUSH1 0x6 SWAP1 SLOAD SWAP1 PUSH2 0x100 EXP SWAP1 DIV PUSH1 0xFF AND PUSH2 0x232A JUMPI PUSH1 0x40 MLOAD PUSH32 0x8C379A000000000000000000000000000000000000000000000000000000000 DUP2 MSTORE PUSH1 0x4 ADD PUSH2 0x2321 SWAP1 PUSH2 0x3EF1 JUMP JUMPDEST PUSH1 0x40 MLOAD DUP1 SWAP2 SUB SWAP1 REVERT JUMPDEST PUSH32 0x214F96452FC3FDFD5EEAFDA7F5DF5B6066F4F8AC1295FB53CD051491B9B56DA3 PUSH1 0x40 MLOAD PUSH1 0x40 MLOAD DUP1 SWAP2 SUB SWAP1 LOG1 JUMP JUMPDEST PUSH1 0x1 PUSH1 0x0 SWAP1 SLOAD SWAP1 PUSH2 0x100 EXP SWAP1 DIV PUSH20 0xFFFFFFFFFFFFFFFFFFFFFFFFFFFFFFFFFFFFFFFF AND PUSH20 0xFFFFFFFFFFFFFFFFFFFFFFFFFFFFFFFFFFFFFFFF AND CALLER PUSH20 0xFFFFFFFFFFFFFFFFFFFFFFFFFFFFFFFFFFFFFFFF AND EQ PUSH2 0x23E8 JUMPI PUSH1 0x40 MLOAD PUSH32 0x8C379A000000000000000000000000000000000000000000000000000000000 DUP2 MSTORE PUSH1 0x4 ADD PUSH2 0x23DF SWAP1 PUSH2 0x4170 JUMP JUMPDEST PUSH1 0x40 MLOAD DUP1 SWAP2 SUB SWAP1 REVERT JUMPDEST PUSH1 0xD PUSH1 0x6 SWAP1 SLOAD SWAP1 PUSH2 0x100 EXP SWAP1 DIV PUSH1 0xFF AND PUSH2 0x2437 JUMPI PUSH1 0x40 MLOAD PUSH32 0x8C379A000000000000000000000000000000000000000000000000000000000 DUP2 MSTORE PUSH1 0x4 ADD PUSH2 0x242E SWAP1 PUSH2 0x3EF1 JUMP JUMPDEST PUSH1 0x40 MLOAD DUP1 SWAP2 SUB SWAP1 REVERT JUMPDEST PUSH1 0x0 PUSH1 0x2 SLOAD PUSH1 0x8 SLOAD LT PUSH2 0x244C JUMPI PUSH1 0x2 SLOAD PUSH2 0x2450 JUMP JUMPDEST PUSH1 0x8 SLOAD JUMPDEST SWAP1 POP DUP1 PUSH1 0xF PUSH1 0x0 DUP1 PUSH1 0x0 SWAP1 SLOAD SWAP1 PUSH2 0x100 EXP SWAP1 DIV PUSH20 0xFFFFFFFFFFFFFFFFFFFFFFFFFFFFFFFFFFFFFFFF AND PUSH20 0xFFFFFFFFFFFFFFFFFFFFFFFFFFFFFFFFFFFFFFFF AND PUSH20 0xFFFFFFFFFFFFFFFFFFFFFFFFFFFFFFFFFFFFFFFF AND DUP2 MSTORE PUSH1 0x20 ADD SWAP1 DUP2 MSTORE PUSH1 0x20 ADD PUSH1 0x0 KECCAK256 PUSH1 0x0 DUP3 DUP3 SLOAD PUSH2 0x24C2 SWAP2 SWAP1 PUSH2 0x367F JUMP JUMPDEST SWAP3 POP POP DUP2 SWAP1 SSTORE POP DUP1 PUSH1 0x2 SLOAD PUSH2 0x24D7 SWAP2 SWAP1 PUSH2 0x34A7 JUMP JUMPDEST PUSH1 0xF PUSH1 0x0 PUSH1 0x1 PUSH1 0x0 SWAP1 SLOAD SWAP1 PUSH2 0x100 EXP SWAP1 DIV PUSH20 0xFFFFFFFFFFFFFFFFFFFFFFFFFFFFFFFFFFFFFFFF AND PUSH20 0xFFFFFFFFFFFFFFFFFFFFFFFFFFFFFFFFFFFFFFFF AND PUSH20 0xFFFFFFFFFFFFFFFFFFFFFFFFFFFFFFFFFFFFFFFF AND DUP2 MSTORE PUSH1 0x20 ADD SWAP1 DUP2 MSTORE PUSH1 0x20 ADD PUSH1 0x0 KECCAK256 PUSH1 0x0 DUP3 DUP3 SLOAD PUSH2 0x2547 SWAP2 SWAP1 PUSH2 0x367F JUMP JUMPDEST SWAP3 POP POP DUP2 SWAP1 SSTORE POP PUSH1 0x0 DUP1 SLOAD SWAP1 PUSH2 0x100 EXP SWAP1 DIV PUSH20 0xFFFFFFFFFFFFFFFFFFFFFFFFFFFFFFFFFFFFFFFF AND PUSH20 0xFFFFFFFFFFFFFFFFFFFFFFFFFFFFFFFFFFFFFFFF AND PUSH32 0xE670E4E82118D22A1F9EE18920455EBC958BAE26A90A05D31D3378788B1B0E44 DUP3 PUSH1 0x40 MLOAD PUSH2 0x25B4 SWAP2 SWAP1 PUSH2 0x2DC2 JUMP JUMPDEST PUSH1 0x40 MLOAD DUP1 SWAP2 SUB SWAP1 LOG2 PUSH1 0x1 PUSH1 0x0 SWAP1 SLOAD SWAP1 PUSH2 0x100 EXP SWAP1 DIV PUSH20 0xFFFFFFFFFFFFFFFFFFFFFFFFFFFFFFFFFFFFFFFF AND PUSH20 0xFFFFFFFFFFFFFFFFFFFFFFFFFFFFFFFFFFFFFFFF AND PUSH32 0xE670E4E82118D22A1F9EE18920455EBC958BAE26A90A05D31D3378788B1B0E44 DUP3 PUSH1 0x2 SLOAD PUSH2 0x2624 SWAP2 SWAP1 PUSH2 0x34A7 JUMP JUMPDEST PUSH1 0x40 MLOAD PUSH2 0x2631 SWAP2 SWAP1 PUSH2 0x2DC2 JUMP JUMPDEST PUSH1 0x40 MLOAD DUP1 SWAP2 SUB SWAP1 LOG2 PUSH1 0x0 PUSH1 0xD PUSH1 0x0 PUSH2 0x100 EXP DUP2 SLOAD DUP2 PUSH1 0xFF MUL NOT AND SWAP1 DUP4 ISZERO ISZERO MUL OR SWAP1 SSTORE POP POP JUMP JUMPDEST PUSH1 0xE PUSH1 0x20 MSTORE DUP1 PUSH1 0x0 MSTORE PUSH1 0x40 PUSH1 0x0 KECCAK256 PUSH1 0x0 SWAP2 POP SWAP1 POP DUP1 PUSH1 0x0 ADD SLOAD SWAP1 DUP1 PUSH1 0x1 ADD SLOAD SWAP1 DUP1 PUSH1 0x2 ADD SLOAD SWAP1 DUP1 PUSH1 0x3 ADD PUSH1 0x0 SWAP1 SLOAD SWAP1 PUSH2 0x100 EXP SWAP1 DIV PUSH1 0xFF AND SWAP1 POP DUP5 JUMP JUMPDEST PUSH1 0x0 DUP1 SLOAD SWAP1 PUSH2 0x100 EXP SWAP1 DIV PUSH20 0xFFFFFFFFFFFFFFFFFFFFFFFFFFFFFFFFFFFFFFFF AND PUSH20 0xFFFFFFFFFFFFFFFFFFFFFFFFFFFFFFFFFFFFFFFF AND CALLER PUSH20 0xFFFFFFFFFFFFFFFFFFFFFFFFFFFFFFFFFFFFFFFF AND EQ PUSH2 0x2722 JUMPI PUSH1 0x40 MLOAD PUSH32 0x8C379A000000000000000000000000000000000000000000000000000000000 DUP2 MSTORE PUSH1 0x4 ADD PUSH2 0x2719 SWAP1 PUSH2 0x4202 JUMP JUMPDEST PUSH1 0x40 MLOAD DUP1 SWAP2 SUB SWAP1 REVERT JUMPDEST PUSH1 0xD PUSH1 0x7 SWAP1 SLOAD SWAP1 PUSH2 0x100 EXP SWAP1 DIV PUSH1 0xFF AND PUSH2 0x2771 JUMPI PUSH1 0x40 MLOAD PUSH32 0x8C379A000000000000000000000000000000000000000000000000000000000 DUP2 MSTORE PUSH1 0x4 ADD PUSH2 0x2768 SWAP1 PUSH2 0x332D JUMP JUMPDEST PUSH1 0x40 MLOAD DUP1 SWAP2 SUB SWAP1 REVERT JUMPDEST PUSH1 0x0 PUSH1 0x2 SLOAD PUSH1 0x9 SLOAD LT PUSH2 0x2786 JUMPI PUSH1 0x2 SLOAD PUSH2 0x278A JUMP JUMPDEST PUSH1 0x9 SLOAD JUMPDEST SWAP1 POP DUP1 PUSH1 0xF PUSH1 0x0 DUP1 PUSH1 0x0 SWAP1 SLOAD SWAP1 PUSH2 0x100 EXP SWAP1 DIV PUSH20 0xFFFFFFFFFFFFFFFFFFFFFFFFFFFFFFFFFFFFFFFF AND PUSH20 0xFFFFFFFFFFFFFFFFFFFFFFFFFFFFFFFFFFFFFFFF AND PUSH20 0xFFFFFFFFFFFFFFFFFFFFFFFFFFFFFFFFFFFFFFFF AND DUP2 MSTORE PUSH1 0x20 ADD SWAP1 DUP2 MSTORE PUSH1 0x20 ADD PUSH1 0x0 KECCAK256 PUSH1 0x0 DUP3 DUP3 SLOAD PUSH2 0x27FC SWAP2 SWAP1 PUSH2 0x367F JUMP JUMPDEST SWAP3 POP POP DUP2 SWAP1 SSTORE POP DUP1 PUSH1 0x2 SLOAD PUSH2 0x2811 SWAP2 SWAP1 PUSH2 0x34A7 JUMP JUMPDEST PUSH1 0xF PUSH1 0x0 PUSH1 0x1 PUSH1 0x0 SWAP1 SLOAD SWAP1 PUSH2 0x100 EXP SWAP1 DIV PUSH20 0xFFFFFFFFFFFFFFFFFFFFFFFFFFFFFFFFFFFFFFFF AND PUSH20 0xFFFFFFFFFFFFFFFFFFFFFFFFFFFFFFFFFFFFFFFF AND PUSH20 0xFFFFFFFFFFFFFFFFFFFFFFFFFFFFFFFFFFFFFFFF AND DUP2 MSTORE PUSH1 0x20 ADD SWAP1 DUP2 MSTORE PUSH1 0x20 ADD PUSH1 0x0 KECCAK256 PUSH1 0x0 DUP3 DUP3 SLOAD PUSH2 0x2881 SWAP2 SWAP1 PUSH2 0x367F JUMP JUMPDEST SWAP3 POP POP DUP2 SWAP1 SSTORE POP PUSH1 0x0 DUP1 SLOAD SWAP1 PUSH2 0x100 EXP SWAP1 DIV PUSH20 0xFFFFFFFFFFFFFFFFFFFFFFFFFFFFFFFFFFFFFFFF AND PUSH20 0xFFFFFFFFFFFFFFFFFFFFFFFFFFFFFFFFFFFFFFFF AND PUSH32 0xE670E4E82118D22A1F9EE18920455EBC958BAE26A90A05D31D3378788B1B0E44 DUP3 PUSH1 0x40 MLOAD PUSH2 0x28EE SWAP2 SWAP1 PUSH2 0x2DC2 JUMP JUMPDEST PUSH1 0x40 MLOAD DUP1 SWAP2 SUB SWAP1 LOG2 PUSH1 0x1 PUSH1 0x0 SWAP1 SLOAD SWAP1 PUSH2 0x100 EXP SWAP1 DIV PUSH20 0xFFFFFFFFFFFFFFFFFFFFFFFFFFFFFFFFFFFFFFFF AND PUSH20 0xFFFFFFFFFFFFFFFFFFFFFFFFFFFFFFFFFFFFFFFF AND PUSH32 0xE670E4E82118D22A1F9EE18920455EBC958BAE26A90A05D31D3378788B1B0E44 DUP3 PUSH1 0x2 SLOAD PUSH2 0x295E SWAP2 SWAP1 PUSH2 0x34A7 JUMP JUMPDEST PUSH1 0x40 MLOAD PUSH2 0x296B SWAP2 SWAP1 PUSH2 0x2DC2 JUMP JUMPDEST PUSH1 0x40 MLOAD DUP1 SWAP2 SUB SWAP1 LOG2 PUSH1 0x0 PUSH1 0xD PUSH1 0x0 PUSH2 0x100 EXP DUP2 SLOAD DUP2 PUSH1 0xFF MUL NOT AND SWAP1 DUP4 ISZERO ISZERO MUL OR SWAP1 SSTORE POP PUSH32 0xB48EA00BBDFBF40407EEAD0EA969CE425A746B5692554310F811EE7D0E36F385 PUSH1 0x40 MLOAD PUSH1 0x40 MLOAD DUP1 SWAP2 SUB SWAP1 LOG1 POP JUMP JUMPDEST PUSH1 0xD PUSH1 0x1 SWAP1 SLOAD SWAP1 PUSH2 0x100 EXP SWAP1 DIV PUSH1 0xFF AND DUP2 JUMP JUMPDEST PUSH1 0xF PUSH1 0x20 MSTORE DUP1 PUSH1 0x0 MSTORE PUSH1 0x40 PUSH1 0x0 KECCAK256 PUSH1 0x0 SWAP2 POP SWAP1 POP SLOAD DUP2 JUMP JUMPDEST PUSH1 0x0 PUSH1 0xF PUSH1 0x0 DUP1 PUSH1 0x0 SWAP1 SLOAD SWAP1 PUSH2 0x100 EXP SWAP1 DIV PUSH20 0xFFFFFFFFFFFFFFFFFFFFFFFFFFFFFFFFFFFFFFFF AND PUSH20 0xFFFFFFFFFFFFFFFFFFFFFFFFFFFFFFFFFFFFFFFF AND PUSH20 0xFFFFFFFFFFFFFFFFFFFFFFFFFFFFFFFFFFFFFFFF AND DUP2 MSTORE PUSH1 0x20 ADD SWAP1 DUP2 MSTORE PUSH1 0x20 ADD PUSH1 0x0 KECCAK256 SLOAD SWAP1 POP SWAP1 JUMP JUMPDEST PUSH1 0xD PUSH1 0x2 SWAP1 SLOAD SWAP1 PUSH2 0x100 EXP SWAP1 DIV PUSH1 0xFF AND ISZERO PUSH2 0x2AA0 JUMPI PUSH1 0x40 MLOAD PUSH32 0x8C379A000000000000000000000000000000000000000000000000000000000 DUP2 MSTORE PUSH1 0x4 ADD PUSH2 0x2A97 SWAP1 PUSH2 0x426E JUMP JUMPDEST PUSH1 0x40 MLOAD DUP1 SWAP2 SUB SWAP1 REVERT JUMPDEST PUSH1 0xD PUSH1 0x6 SWAP1 SLOAD SWAP1 PUSH2 0x100 EXP SWAP1 DIV PUSH1 0xFF AND DUP1 ISZERO PUSH2 0x2AC8 JUMPI POP PUSH1 0xD PUSH1 0x7 SWAP1 SLOAD SWAP1 PUSH2 0x100 EXP SWAP1 DIV PUSH1 0xFF AND JUMPDEST PUSH2 0x2B07 JUMPI PUSH1 0x40 MLOAD PUSH32 0x8C379A000000000000000000000000000000000000000000000000000000000 DUP2 MSTORE PUSH1 0x4 ADD PUSH2 0x2AFE SWAP1 PUSH2 0x4300 JUMP JUMPDEST PUSH1 0x40 MLOAD DUP1 SWAP2 SUB SWAP1 REVERT JUMPDEST PUSH1 0xD PUSH1 0x8 SWAP1 SLOAD SWAP1 PUSH2 0x100 EXP SWAP1 DIV PUSH20 0xFFFFFFFFFFFFFFFFFFFFFFFFFFFFFFFFFFFFFFFF AND PUSH20 0xFFFFFFFFFFFFFFFFFFFFFFFFFFFFFFFFFFFFFFFF AND PUSH4 0xC13517E1 PUSH1 0xC SLOAD PUSH1 0x2 PUSH1 0x40 MLOAD DUP4 PUSH4 0xFFFFFFFF AND PUSH1 0xE0 SHL DUP2 MSTORE PUSH1 0x4 ADD PUSH2 0x2B66 SWAP2 SWAP1 PUSH2 0x435B JUMP JUMPDEST PUSH1 0x20 PUSH1 0x40 MLOAD DUP1 DUP4 SUB DUP2 DUP6 DUP9 GAS CALL ISZERO DUP1 ISZERO PUSH2 0x2B84 JUMPI RETURNDATASIZE PUSH1 0x0 DUP1 RETURNDATACOPY RETURNDATASIZE PUSH1 0x0 REVERT JUMPDEST POP POP POP POP POP PUSH1 0x40 MLOAD RETURNDATASIZE PUSH1 0x1F NOT PUSH1 0x1F DUP3 ADD AND DUP3 ADD DUP1 PUSH1 0x40 MSTORE POP DUP2 ADD SWAP1 PUSH2 0x2BA9 SWAP2 SWAP1 PUSH2 0x33B9 JUMP JUMPDEST PUSH1 0xA DUP2 SWAP1 SSTORE POP PUSH1 0x1 PUSH1 0xD PUSH1 0x2 PUSH2 0x100 EXP DUP2 SLOAD DUP2 PUSH1 0xFF MUL NOT AND SWAP1 DUP4 ISZERO ISZERO MUL OR SWAP1 SSTORE POP PUSH32 0x4901F83201C8724EADF084436DB8AA391820BAE6D11F9F78A17EDB6F2EEF3CF PUSH1 0xA SLOAD PUSH1 0x40 MLOAD PUSH2 0x2BFB SWAP2 SWAP1 PUSH2 0x2DC2 JUMP JUMPDEST PUSH1 0x40 MLOAD DUP1 SWAP2 SUB SWAP1 LOG1 JUMP JUMPDEST PUSH1 0x0 PUSH1 0xD PUSH1 0x0 PUSH2 0x100 EXP DUP2 SLOAD DUP2 PUSH1 0xFF MUL NOT AND SWAP1 DUP4 ISZERO ISZERO MUL OR SWAP1 SSTORE POP PUSH1 0x0 PUSH1 0x7 SLOAD SWAP1 POP PUSH1 0x0 DUP1 DUP3 GT ISZERO PUSH2 0x2CBD JUMPI PUSH1 0x2 SLOAD DUP3 GT ISZERO PUSH2 0x2C41 JUMPI PUSH1 0x2 SLOAD SWAP2 POP JUMPDEST PUSH1 0x0 DUP1 SLOAD SWAP1 PUSH2 0x100 EXP SWAP1 DIV PUSH20 0xFFFFFFFFFFFFFFFFFFFFFFFFFFFFFFFFFFFFFFFF AND PUSH20 0xFFFFFFFFFFFFFFFFFFFFFFFFFFFFFFFFFFFFFFFF AND PUSH2 0x8FC DUP4 SWAP1 DUP2 ISZERO MUL SWAP1 PUSH1 0x40 MLOAD PUSH1 0x0 PUSH1 0x40 MLOAD DUP1 DUP4 SUB DUP2 DUP6 DUP9 DUP9 CALL SWAP4 POP POP POP POP ISZERO DUP1 ISZERO PUSH2 0x2CA7 JUMPI RETURNDATASIZE PUSH1 0x0 DUP1 RETURNDATACOPY RETURNDATASIZE PUSH1 0x0 REVERT JUMPDEST POP DUP2 PUSH1 0x2 SLOAD PUSH2 0x2CB6 SWAP2 SWAP1 PUSH2 0x34A7 JUMP JUMPDEST SWAP1 POP PUSH2 0x2CC3 JUMP JUMPDEST PUSH1 0x2 SLOAD SWAP1 POP JUMPDEST PUSH1 0x0 DUP2 GT ISZERO PUSH2 0x2D36 JUMPI PUSH1 0x1 PUSH1 0x0 SWAP1 SLOAD SWAP1 PUSH2 0x100 EXP SWAP1 DIV PUSH20 0xFFFFFFFFFFFFFFFFFFFFFFFFFFFFFFFFFFFFFFFF AND PUSH20 0xFFFFFFFFFFFFFFFFFFFFFFFFFFFFFFFFFFFFFFFF AND PUSH2 0x8FC DUP3 SWAP1 DUP2 ISZERO MUL SWAP1 PUSH1 0x40 MLOAD PUSH1 0x0 PUSH1 0x40 MLOAD DUP1 DUP4 SUB DUP2 DUP6 DUP9 DUP9 CALL SWAP4 POP POP POP POP ISZERO DUP1 ISZERO PUSH2 0x2D34 JUMPI RETURNDATASIZE PUSH1 0x0 DUP1 RETURNDATACOPY RETURNDATASIZE PUSH1 0x0 REVERT JUMPDEST POP JUMPDEST PUSH32 0xC0590C5A8CE79DFFBDDE17480A06203778F954965615E1D9577DBC90DA2FF109 DUP2 DUP4 PUSH1 0x40 MLOAD PUSH2 0x2D67 SWAP3 SWAP2 SWAP1 PUSH2 0x36B3 JUMP JUMPDEST PUSH1 0x40 MLOAD DUP1 SWAP2 SUB SWAP1 LOG1 POP POP JUMP JUMPDEST PUSH1 0x0 DUP2 ISZERO ISZERO SWAP1 POP SWAP2 SWAP1 POP JUMP JUMPDEST PUSH2 0x2D88 DUP2 PUSH2 0x2D73 JUMP JUMPDEST DUP3 MSTORE POP POP JUMP JUMPDEST PUSH1 0x0 PUSH1 0x20 DUP3 ADD SWAP1 POP PUSH2 0x2DA3 PUSH1 0x0 DUP4 ADD DUP5 PUSH2 0x2D7F JUMP JUMPDEST SWAP3 SWAP2 POP POP JUMP JUMPDEST PUSH1 0x0 DUP2 SWAP1 POP SWAP2 SWAP1 POP JUMP JUMPDEST PUSH2 0x2DBC DUP2 PUSH2 0x2DA9 JUMP JUMPDEST DUP3 MSTORE POP POP JUMP JUMPDEST PUSH1 0x0 PUSH1 0x20 DUP3 ADD SWAP1 POP PUSH2 0x2DD7 PUSH1 0x0 DUP4 ADD DUP5 PUSH2 0x2DB3 JUMP JUMPDEST SWAP3 SWAP2 POP POP JUMP JUMPDEST PUSH1 0x0 DUP1 REVERT JUMPDEST PUSH2 0x2DEB DUP2 PUSH2 0x2DA9 JUMP JUMPDEST DUP2 EQ PUSH2 0x2DF6 JUMPI PUSH1 0x0 DUP1 REVERT JUMPDEST POP JUMP JUMPDEST PUSH1 0x0 DUP2 CALLDATALOAD SWAP1 POP PUSH2 0x2E08 DUP2 PUSH2 0x2DE2 JUMP JUMPDEST SWAP3 SWAP2 POP POP JUMP JUMPDEST PUSH1 0x0 PUSH1 0x20 DUP3 DUP5 SUB SLT ISZERO PUSH2 0x2E24 JUMPI PUSH2 0x2E23 PUSH2 0x2DDD JUMP JUMPDEST JUMPDEST PUSH1 0x0 PUSH2 0x2E32 DUP5 DUP3 DUP6 ADD PUSH2 0x2DF9 JUMP JUMPDEST SWAP2 POP POP SWAP3 SWAP2 POP POP JUMP JUMPDEST PUSH1 0x0 PUSH20 0xFFFFFFFFFFFFFFFFFFFFFFFFFFFFFFFFFFFFFFFF DUP3 AND SWAP1 POP SWAP2 SWAP1 POP JUMP JUMPDEST PUSH1 0x0 PUSH2 0x2E66 DUP3 PUSH2 0x2E3B JUMP JUMPDEST SWAP1 POP SWAP2 SWAP1 POP JUMP JUMPDEST PUSH2 0x2E76 DUP2 PUSH2 0x2E5B JUMP JUMPDEST DUP3 MSTORE POP POP JUMP JUMPDEST PUSH1 0x0 PUSH1 0x20 DUP3 ADD SWAP1 POP PUSH2 0x2E91 PUSH1 0x0 DUP4 ADD DUP5 PUSH2 0x2E6D JUMP JUMPDEST SWAP3 SWAP2 POP POP JUMP JUMPDEST PUSH1 0x0 DUP1 PUSH1 0x40 DUP4 DUP6 SUB SLT ISZERO PUSH2 0x2EAE JUMPI PUSH2 0x2EAD PUSH2 0x2DDD JUMP JUMPDEST JUMPDEST PUSH1 0x0 PUSH2 0x2EBC DUP6 DUP3 DUP7 ADD PUSH2 0x2DF9 JUMP JUMPDEST SWAP3 POP POP PUSH1 0x20 PUSH2 0x2ECD DUP6 DUP3 DUP7 ADD PUSH2 0x2DF9 JUMP JUMPDEST SWAP2 POP POP SWAP3 POP SWAP3 SWAP1 POP JUMP JUMPDEST PUSH1 0x0 DUP2 SWAP1 POP SWAP2 SWAP1 POP JUMP JUMPDEST PUSH1 0x0 PUSH2 0x2EFC PUSH2 0x2EF7 PUSH2 0x2EF2 DUP5 PUSH2 0x2E3B JUMP JUMPDEST PUSH2 0x2ED7 JUMP JUMPDEST PUSH2 0x2E3B JUMP JUMPDEST SWAP1 POP SWAP2 SWAP1 POP JUMP JUMPDEST PUSH1 0x0 PUSH2 0x2F0E DUP3 PUSH2 0x2EE1 JUMP JUMPDEST SWAP1 POP SWAP2 SWAP1 POP JUMP JUMPDEST PUSH1 0x0 PUSH2 0x2F20 DUP3 PUSH2 0x2F03 JUMP JUMPDEST SWAP1 POP SWAP2 SWAP1 POP JUMP JUMPDEST PUSH2 0x2F30 DUP2 PUSH2 0x2F15 JUMP JUMPDEST DUP3 MSTORE POP POP JUMP JUMPDEST PUSH1 0x0 PUSH1 0x20 DUP3 ADD SWAP1 POP PUSH2 0x2F4B PUSH1 0x0 DUP4 ADD DUP5 PUSH2 0x2F27 JUMP JUMPDEST SWAP3 SWAP2 POP POP JUMP JUMPDEST PUSH1 0x0 DUP1 PUSH1 0x0 PUSH1 0x60 DUP5 DUP7 SUB SLT ISZERO PUSH2 0x2F6A JUMPI PUSH2 0x2F69 PUSH2 0x2DDD JUMP JUMPDEST JUMPDEST PUSH1 0x0 PUSH2 0x2F78 DUP7 DUP3 DUP8 ADD PUSH2 0x2DF9 JUMP JUMPDEST SWAP4 POP POP PUSH1 0x20 PUSH2 0x2F89 DUP7 DUP3 DUP8 ADD PUSH2 0x2DF9 JUMP JUMPDEST SWAP3 POP POP PUSH1 0x40 PUSH2 0x2F9A DUP7 DUP3 DUP8 ADD PUSH2 0x2DF9 JUMP JUMPDEST SWAP2 POP POP SWAP3 POP SWAP3 POP SWAP3 JUMP JUMPDEST PUSH1 0x0 PUSH1 0x80 DUP3 ADD SWAP1 POP PUSH2 0x2FB9 PUSH1 0x0 DUP4 ADD DUP8 PUSH2 0x2DB3 JUMP JUMPDEST PUSH2 0x2FC6 PUSH1 0x20 DUP4 ADD DUP7 PUSH2 0x2DB3 JUMP JUMPDEST PUSH2 0x2FD3 PUSH1 0x40 DUP4 ADD DUP6 PUSH2 0x2DB3 JUMP JUMPDEST PUSH2 0x2FE0 PUSH1 0x60 DUP4 ADD DUP5 PUSH2 0x2D7F JUMP JUMPDEST SWAP6 SWAP5 POP POP POP POP POP JUMP JUMPDEST PUSH2 0x2FF2 DUP2 PUSH2 0x2E5B JUMP JUMPDEST DUP2 EQ PUSH2 0x2FFD JUMPI PUSH1 0x0 DUP1 REVERT JUMPDEST POP JUMP JUMPDEST PUSH1 0x0 DUP2 CALLDATALOAD SWAP1 POP PUSH2 0x300F DUP2 PUSH2 0x2FE9 JUMP JUMPDEST SWAP3 SWAP2 POP POP JUMP JUMPDEST PUSH1 0x0 PUSH1 0x20 DUP3 DUP5 SUB SLT ISZERO PUSH2 0x302B JUMPI PUSH2 0x302A PUSH2 0x2DDD JUMP JUMPDEST JUMPDEST PUSH1 0x0 PUSH2 0x3039 DUP5 DUP3 DUP6 ADD PUSH2 0x3000 JUMP JUMPDEST SWAP2 POP POP SWAP3 SWAP2 POP POP JUMP JUMPDEST PUSH1 0x0 DUP3 DUP3 MSTORE PUSH1 0x20 DUP3 ADD SWAP1 POP SWAP3 SWAP2 POP POP JUMP JUMPDEST PUSH32 0x4F6E6C79206C616E646C6F72642063616E20736574207468652064616D616765 PUSH1 0x0 DUP3 ADD MSTORE PUSH32 0x20657374696D6174650000000000000000000000000000000000000000000000 PUSH1 0x20 DUP3 ADD MSTORE POP JUMP JUMPDEST PUSH1 0x0 PUSH2 0x30AF PUSH1 0x29 DUP4 PUSH2 0x3042 JUMP JUMPDEST SWAP2 POP PUSH2 0x30BA DUP3 PUSH2 0x3053 JUMP JUMPDEST PUSH1 0x40 DUP3 ADD SWAP1 POP SWAP2 SWAP1 POP JUMP JUMPDEST PUSH1 0x0 PUSH1 0x20 DUP3 ADD SWAP1 POP DUP2 DUP2 SUB PUSH1 0x0 DUP4 ADD MSTORE PUSH2 0x30DE DUP2 PUSH2 0x30A2 JUMP JUMPDEST SWAP1 POP SWAP2 SWAP1 POP JUMP JUMPDEST PUSH32 0x52656E7420706572696F6420686173206E6F7420656E64656420796574000000 PUSH1 0x0 DUP3 ADD MSTORE POP JUMP JUMPDEST PUSH1 0x0 PUSH2 0x311B PUSH1 0x1D DUP4 PUSH2 0x3042 JUMP JUMPDEST SWAP2 POP PUSH2 0x3126 DUP3 PUSH2 0x30E5 JUMP JUMPDEST PUSH1 0x20 DUP3 ADD SWAP1 POP SWAP2 SWAP1 POP JUMP JUMPDEST PUSH1 0x0 PUSH1 0x20 DUP3 ADD SWAP1 POP DUP2 DUP2 SUB PUSH1 0x0 DUP4 ADD MSTORE PUSH2 0x314A DUP2 PUSH2 0x310E JUMP JUMPDEST SWAP1 POP SWAP2 SWAP1 POP JUMP JUMPDEST PUSH32 0x44616D61676520657374696D61746520616C7265616479207365740000000000 PUSH1 0x0 DUP3 ADD MSTORE POP JUMP JUMPDEST PUSH1 0x0 PUSH2 0x3187 PUSH1 0x1B DUP4 PUSH2 0x3042 JUMP JUMPDEST SWAP2 POP PUSH2 0x3192 DUP3 PUSH2 0x3151 JUMP JUMPDEST PUSH1 0x20 DUP3 ADD SWAP1 POP SWAP2 SWAP1 POP JUMP JUMPDEST PUSH1 0x0 PUSH1 0x20 DUP3 ADD SWAP1 POP DUP2 DUP2 SUB PUSH1 0x0 DUP4 ADD MSTORE PUSH2 0x31B6 DUP2 PUSH2 0x317A JUMP JUMPDEST SWAP1 POP SWAP2 SWAP1 POP JUMP JUMPDEST PUSH32 0x436F6E7472616374206973206E6F742061637469766500000000000000000000 PUSH1 0x0 DUP3 ADD MSTORE POP JUMP JUMPDEST PUSH1 0x0 PUSH2 0x31F3 PUSH1 0x16 DUP4 PUSH2 0x3042 JUMP JUMPDEST SWAP2 POP PUSH2 0x31FE DUP3 PUSH2 0x31BD JUMP JUMPDEST PUSH1 0x20 DUP3 ADD SWAP1 POP SWAP2 SWAP1 POP JUMP JUMPDEST PUSH1 0x0 PUSH1 0x20 DUP3 ADD SWAP1 POP DUP2 DUP2 SUB PUSH1 0x0 DUP4 ADD MSTORE PUSH2 0x3222 DUP2 PUSH2 0x31E6 JUMP JUMPDEST SWAP1 POP SWAP2 SWAP1 POP JUMP JUMPDEST PUSH32 0x4F6E6C79206C616E646C6F72642063616E2072656A6563742074686520636F75 PUSH1 0x0 DUP3 ADD MSTORE PUSH32 0x6E74657220657374696D61746500000000000000000000000000000000000000 PUSH1 0x20 DUP3 ADD MSTORE POP JUMP JUMPDEST PUSH1 0x0 PUSH2 0x3285 PUSH1 0x2D DUP4 PUSH2 0x3042 JUMP JUMPDEST SWAP2 POP PUSH2 0x3290 DUP3 PUSH2 0x3229 JUMP JUMPDEST PUSH1 0x40 DUP3 ADD SWAP1 POP SWAP2 SWAP1 POP JUMP JUMPDEST PUSH1 0x0 PUSH1 0x20 DUP3 ADD SWAP1 POP DUP2 DUP2 SUB PUSH1 0x0 DUP4 ADD MSTORE PUSH2 0x32B4 DUP2 PUSH2 0x3278 JUMP JUMPDEST SWAP1 POP SWAP2 SWAP1 POP JUMP JUMPDEST PUSH32 0x52656E746572206D7573742073657420636F756E74657220657374696D617465 PUSH1 0x0 DUP3 ADD MSTORE PUSH32 0x2066697273740000000000000000000000000000000000000000000000000000 PUSH1 0x20 DUP3 ADD MSTORE POP JUMP JUMPDEST PUSH1 0x0 PUSH2 0x3317 PUSH1 0x26 DUP4 PUSH2 0x3042 JUMP JUMPDEST SWAP2 POP PUSH2 0x3322 DUP3 PUSH2 0x32BB JUMP JUMPDEST PUSH1 0x40 DUP3 ADD SWAP1 POP SWAP2 SWAP1 POP JUMP JUMPDEST PUSH1 0x0 PUSH1 0x20 DUP3 ADD SWAP1 POP DUP2 DUP2 SUB PUSH1 0x0 DUP4 ADD MSTORE PUSH2 0x3346 DUP2 PUSH2 0x330A JUMP JUMPDEST SWAP1 POP SWAP2 SWAP1 POP JUMP JUMPDEST PUSH1 0x0 DUP3 DUP3 MSTORE PUSH1 0x20 DUP3 ADD SWAP1 POP SWAP3 SWAP2 POP POP JUMP JUMPDEST POP JUMP JUMPDEST PUSH1 0x0 PUSH2 0x336E PUSH1 0x0 DUP4 PUSH2 0x334D JUMP JUMPDEST SWAP2 POP PUSH2 0x3379 DUP3 PUSH2 0x335E JUMP JUMPDEST PUSH1 0x0 DUP3 ADD SWAP1 POP SWAP2 SWAP1 POP JUMP JUMPDEST PUSH1 0x0 PUSH1 0x20 DUP3 ADD SWAP1 POP DUP2 DUP2 SUB PUSH1 0x0 DUP4 ADD MSTORE PUSH2 0x339D DUP2 PUSH2 0x3361 JUMP JUMPDEST SWAP1 POP SWAP2 SWAP1 POP JUMP JUMPDEST PUSH1 0x0 DUP2 MLOAD SWAP1 POP PUSH2 0x33B3 DUP2 PUSH2 0x2DE2 JUMP JUMPDEST SWAP3 SWAP2 POP POP JUMP JUMPDEST PUSH1 0x0 PUSH1 0x20 DUP3 DUP5 SUB SLT ISZERO PUSH2 0x33CF JUMPI PUSH2 0x33CE PUSH2 0x2DDD JUMP JUMPDEST JUMPDEST PUSH1 0x0 PUSH2 0x33DD DUP5 DUP3 DUP6 ADD PUSH2 0x33A4 JUMP JUMPDEST SWAP2 POP POP SWAP3 SWAP2 POP POP JUMP JUMPDEST PUSH32 0x5365637572697479206465706F73697420696E73756666696369656E7420746F PUSH1 0x0 DUP3 ADD MSTORE PUSH32 0x20636F766572206172626974726174696F6E20636F7374730000000000000000 PUSH1 0x20 DUP3 ADD MSTORE POP JUMP JUMPDEST PUSH1 0x0 PUSH2 0x3442 PUSH1 0x38 DUP4 PUSH2 0x3042 JUMP JUMPDEST SWAP2 POP PUSH2 0x344D DUP3 PUSH2 0x33E6 JUMP JUMPDEST PUSH1 0x40 DUP3 ADD SWAP1 POP SWAP2 SWAP1 POP JUMP JUMPDEST PUSH1 0x0 PUSH1 0x20 DUP3 ADD SWAP1 POP DUP2 DUP2 SUB PUSH1 0x0 DUP4 ADD MSTORE PUSH2 0x3471 DUP2 PUSH2 0x3435 JUMP JUMPDEST SWAP1 POP SWAP2 SWAP1 POP JUMP JUMPDEST PUSH32 0x4E487B7100000000000000000000000000000000000000000000000000000000 PUSH1 0x0 MSTORE PUSH1 0x11 PUSH1 0x4 MSTORE PUSH1 0x24 PUSH1 0x0 REVERT JUMPDEST PUSH1 0x0 PUSH2 0x34B2 DUP3 PUSH2 0x2DA9 JUMP JUMPDEST SWAP2 POP PUSH2 0x34BD DUP4 PUSH2 0x2DA9 JUMP JUMPDEST SWAP3 POP DUP3 DUP3 SUB SWAP1 POP DUP2 DUP2 GT ISZERO PUSH2 0x34D5 JUMPI PUSH2 0x34D4 PUSH2 0x3478 JUMP JUMPDEST JUMPDEST SWAP3 SWAP2 POP POP JUMP JUMPDEST PUSH32 0x4F6E6C79207468652061726269747261746F722063616E2072756C6500000000 PUSH1 0x0 DUP3 ADD MSTORE POP JUMP JUMPDEST PUSH1 0x0 PUSH2 0x3511 PUSH1 0x1C DUP4 PUSH2 0x3042 JUMP JUMPDEST SWAP2 POP PUSH2 0x351C DUP3 PUSH2 0x34DB JUMP JUMPDEST PUSH1 0x20 DUP3 ADD SWAP1 POP SWAP2 SWAP1 POP JUMP JUMPDEST PUSH1 0x0 PUSH1 0x20 DUP3 ADD SWAP1 POP DUP2 DUP2 SUB PUSH1 0x0 DUP4 ADD MSTORE PUSH2 0x3540 DUP2 PUSH2 0x3504 JUMP JUMPDEST SWAP1 POP SWAP2 SWAP1 POP JUMP JUMPDEST PUSH32 0x4E6F206469737075746520746F2072756C65206F6E0000000000000000000000 PUSH1 0x0 DUP3 ADD MSTORE POP JUMP JUMPDEST PUSH1 0x0 PUSH2 0x357D PUSH1 0x15 DUP4 PUSH2 0x3042 JUMP JUMPDEST SWAP2 POP PUSH2 0x3588 DUP3 PUSH2 0x3547 JUMP JUMPDEST PUSH1 0x20 DUP3 ADD SWAP1 POP SWAP2 SWAP1 POP JUMP JUMPDEST PUSH1 0x0 PUSH1 0x20 DUP3 ADD SWAP1 POP DUP2 DUP2 SUB PUSH1 0x0 DUP4 ADD MSTORE PUSH2 0x35AC DUP2 PUSH2 0x3570 JUMP JUMPDEST SWAP1 POP SWAP2 SWAP1 POP JUMP JUMPDEST PUSH32 0x57726F6E67206469737075746520494400000000000000000000000000000000 PUSH1 0x0 DUP3 ADD MSTORE POP JUMP JUMPDEST PUSH1 0x0 PUSH2 0x35E9 PUSH1 0x10 DUP4 PUSH2 0x3042 JUMP JUMPDEST SWAP2 POP PUSH2 0x35F4 DUP3 PUSH2 0x35B3 JUMP JUMPDEST PUSH1 0x20 DUP3 ADD SWAP1 POP SWAP2 SWAP1 POP JUMP JUMPDEST PUSH1 0x0 PUSH1 0x20 DUP3 ADD SWAP1 POP DUP2 DUP2 SUB PUSH1 0x0 DUP4 ADD MSTORE PUSH2 0x3618 DUP2 PUSH2 0x35DC JUMP JUMPDEST SWAP1 POP SWAP2 SWAP1 POP JUMP JUMPDEST PUSH32 0x4E487B7100000000000000000000000000000000000000000000000000000000 PUSH1 0x0 MSTORE PUSH1 0x12 PUSH1 0x4 MSTORE PUSH1 0x24 PUSH1 0x0 REVERT JUMPDEST PUSH1 0x0 PUSH2 0x3659 DUP3 PUSH2 0x2DA9 JUMP JUMPDEST SWAP2 POP PUSH2 0x3664 DUP4 PUSH2 0x2DA9 JUMP JUMPDEST SWAP3 POP DUP3 PUSH2 0x3674 JUMPI PUSH2 0x3673 PUSH2 0x361F JUMP JUMPDEST JUMPDEST DUP3 DUP3 DIV SWAP1 POP SWAP3 SWAP2 POP POP JUMP JUMPDEST PUSH1 0x0 PUSH2 0x368A DUP3 PUSH2 0x2DA9 JUMP JUMPDEST SWAP2 POP PUSH2 0x3695 DUP4 PUSH2 0x2DA9 JUMP JUMPDEST SWAP3 POP DUP3 DUP3 ADD SWAP1 POP DUP1 DUP3 GT ISZERO PUSH2 0x36AD JUMPI PUSH2 0x36AC PUSH2 0x3478 JUMP JUMPDEST JUMPDEST SWAP3 SWAP2 POP POP JUMP JUMPDEST PUSH1 0x0 PUSH1 0x40 DUP3 ADD SWAP1 POP PUSH2 0x36C8 PUSH1 0x0 DUP4 ADD DUP6 PUSH2 0x2DB3 JUMP JUMPDEST PUSH2 0x36D5 PUSH1 0x20 DUP4 ADD DUP5 PUSH2 0x2DB3 JUMP JUMPDEST SWAP4 SWAP3 POP POP POP JUMP JUMPDEST PUSH32 0x4E6F2066756E647320746F207769746864726177000000000000000000000000 PUSH1 0x0 DUP3 ADD MSTORE POP JUMP JUMPDEST PUSH1 0x0 PUSH2 0x3712 PUSH1 0x14 DUP4 PUSH2 0x3042 JUMP JUMPDEST SWAP2 POP PUSH2 0x371D DUP3 PUSH2 0x36DC JUMP JUMPDEST PUSH1 0x20 DUP3 ADD SWAP1 POP SWAP2 SWAP1 POP JUMP JUMPDEST PUSH1 0x0 PUSH1 0x20 DUP3 ADD SWAP1 POP DUP2 DUP2 SUB PUSH1 0x0 DUP4 ADD MSTORE PUSH2 0x3741 DUP2 PUSH2 0x3705 JUMP JUMPDEST SWAP1 POP SWAP2 SWAP1 POP JUMP JUMPDEST PUSH1 0x0 DUP2 SWAP1 POP SWAP3 SWAP2 POP POP JUMP JUMPDEST PUSH1 0x0 PUSH2 0x3760 PUSH1 0x0 DUP4 PUSH2 0x3748 JUMP JUMPDEST SWAP2 POP PUSH2 0x376B DUP3 PUSH2 0x335E JUMP JUMPDEST PUSH1 0x0 DUP3 ADD SWAP1 POP SWAP2 SWAP1 POP JUMP JUMPDEST PUSH1 0x0 PUSH2 0x3781 DUP3 PUSH2 0x3753 JUMP JUMPDEST SWAP2 POP DUP2 SWAP1 POP SWAP2 SWAP1 POP JUMP JUMPDEST PUSH32 0x5472616E73666572206661696C65640000000000000000000000000000000000 PUSH1 0x0 DUP3 ADD MSTORE POP JUMP JUMPDEST PUSH1 0x0 PUSH2 0x37C1 PUSH1 0xF DUP4 PUSH2 0x3042 JUMP JUMPDEST SWAP2 POP PUSH2 0x37CC DUP3 PUSH2 0x378B JUMP JUMPDEST PUSH1 0x20 DUP3 ADD SWAP1 POP SWAP2 SWAP1 POP JUMP JUMPDEST PUSH1 0x0 PUSH1 0x20 DUP3 ADD SWAP1 POP DUP2 DUP2 SUB PUSH1 0x0 DUP4 ADD MSTORE PUSH2 0x37F0 DUP2 PUSH2 0x37B4 JUMP JUMPDEST SWAP1 POP SWAP2 SWAP1 POP JUMP JUMPDEST PUSH32 0x4F6E6C792072656E7465722063616E2070617920736563757269747920646570 PUSH1 0x0 DUP3 ADD MSTORE PUSH32 0x6F73697400000000000000000000000000000000000000000000000000000000 PUSH1 0x20 DUP3 ADD MSTORE POP JUMP JUMPDEST PUSH1 0x0 PUSH2 0x3853 PUSH1 0x24 DUP4 PUSH2 0x3042 JUMP JUMPDEST SWAP2 POP PUSH2 0x385E DUP3 PUSH2 0x37F7 JUMP JUMPDEST PUSH1 0x40 DUP3 ADD SWAP1 POP SWAP2 SWAP1 POP JUMP JUMPDEST PUSH1 0x0 PUSH1 0x20 DUP3 ADD SWAP1 POP DUP2 DUP2 SUB PUSH1 0x0 DUP4 ADD MSTORE PUSH2 0x3882 DUP2 PUSH2 0x3846 JUMP JUMPDEST SWAP1 POP SWAP2 SWAP1 POP JUMP JUMPDEST PUSH32 0x436F6E747261637420697320616C726561647920616374697665000000000000 PUSH1 0x0 DUP3 ADD MSTORE POP JUMP JUMPDEST PUSH1 0x0 PUSH2 0x38BF PUSH1 0x1A DUP4 PUSH2 0x3042 JUMP JUMPDEST SWAP2 POP PUSH2 0x38CA DUP3 PUSH2 0x3889 JUMP JUMPDEST PUSH1 0x20 DUP3 ADD SWAP1 POP SWAP2 SWAP1 POP JUMP JUMPDEST PUSH1 0x0 PUSH1 0x20 DUP3 ADD SWAP1 POP DUP2 DUP2 SUB PUSH1 0x0 DUP4 ADD MSTORE PUSH2 0x38EE DUP2 PUSH2 0x38B2 JUMP JUMPDEST SWAP1 POP SWAP2 SWAP1 POP JUMP JUMPDEST PUSH32 0x496E636F7272656374207365637572697479206465706F73697420616D6F756E PUSH1 0x0 DUP3 ADD MSTORE PUSH32 0x7400000000000000000000000000000000000000000000000000000000000000 PUSH1 0x20 DUP3 ADD MSTORE POP JUMP JUMPDEST PUSH1 0x0 PUSH2 0x3951 PUSH1 0x21 DUP4 PUSH2 0x3042 JUMP JUMPDEST SWAP2 POP PUSH2 0x395C DUP3 PUSH2 0x38F5 JUMP JUMPDEST PUSH1 0x40 DUP3 ADD SWAP1 POP SWAP2 SWAP1 POP JUMP JUMPDEST PUSH1 0x0 PUSH1 0x20 DUP3 ADD SWAP1 POP DUP2 DUP2 SUB PUSH1 0x0 DUP4 ADD MSTORE PUSH2 0x3980 DUP2 PUSH2 0x3944 JUMP JUMPDEST SWAP1 POP SWAP2 SWAP1 POP JUMP JUMPDEST PUSH32 0x4F6E6C79206C616E646C6F72642063616E207265636F7264207574696C697469 PUSH1 0x0 DUP3 ADD MSTORE PUSH32 0x6573000000000000000000000000000000000000000000000000000000000000 PUSH1 0x20 DUP3 ADD MSTORE POP JUMP JUMPDEST PUSH1 0x0 PUSH2 0x39E3 PUSH1 0x22 DUP4 PUSH2 0x3042 JUMP JUMPDEST SWAP2 POP PUSH2 0x39EE DUP3 PUSH2 0x3987 JUMP JUMPDEST PUSH1 0x40 DUP3 ADD SWAP1 POP SWAP2 SWAP1 POP JUMP JUMPDEST PUSH1 0x0 PUSH1 0x20 DUP3 ADD SWAP1 POP DUP2 DUP2 SUB PUSH1 0x0 DUP4 ADD MSTORE PUSH2 0x3A12 DUP2 PUSH2 0x39D6 JUMP JUMPDEST SWAP1 POP SWAP2 SWAP1 POP JUMP JUMPDEST PUSH32 0x52656E7420706572696F642068617320656E6465640000000000000000000000 PUSH1 0x0 DUP3 ADD MSTORE POP JUMP JUMPDEST PUSH1 0x0 PUSH2 0x3A4F PUSH1 0x15 DUP4 PUSH2 0x3042 JUMP JUMPDEST SWAP2 POP PUSH2 0x3A5A DUP3 PUSH2 0x3A19 JUMP JUMPDEST PUSH1 0x20 DUP3 ADD SWAP1 POP SWAP2 SWAP1 POP JUMP JUMPDEST PUSH1 0x0 PUSH1 0x20 DUP3 ADD SWAP1 POP DUP2 DUP2 SUB PUSH1 0x0 DUP4 ADD MSTORE PUSH2 0x3A7E DUP2 PUSH2 0x3A42 JUMP JUMPDEST SWAP1 POP SWAP2 SWAP1 POP JUMP JUMPDEST PUSH32 0x4F6E6C79206C616E646C6F72642063616E206163746976617465207468652063 PUSH1 0x0 DUP3 ADD MSTORE PUSH32 0x6F6E747261637400000000000000000000000000000000000000000000000000 PUSH1 0x20 DUP3 ADD MSTORE POP JUMP JUMPDEST PUSH1 0x0 PUSH2 0x3AE1 PUSH1 0x27 DUP4 PUSH2 0x3042 JUMP JUMPDEST SWAP2 POP PUSH2 0x3AEC DUP3 PUSH2 0x3A85 JUMP JUMPDEST PUSH1 0x40 DUP3 ADD SWAP1 POP SWAP2 SWAP1 POP JUMP JUMPDEST PUSH1 0x0 PUSH1 0x20 DUP3 ADD SWAP1 POP DUP2 DUP2 SUB PUSH1 0x0 DUP4 ADD MSTORE PUSH2 0x3B10 DUP2 PUSH2 0x3AD4 JUMP JUMPDEST SWAP1 POP SWAP2 SWAP1 POP JUMP JUMPDEST PUSH32 0x5365637572697479206465706F736974206D7573742062652070616964206669 PUSH1 0x0 DUP3 ADD MSTORE PUSH32 0x7273740000000000000000000000000000000000000000000000000000000000 PUSH1 0x20 DUP3 ADD MSTORE POP JUMP JUMPDEST PUSH1 0x0 PUSH2 0x3B73 PUSH1 0x23 DUP4 PUSH2 0x3042 JUMP JUMPDEST SWAP2 POP PUSH2 0x3B7E DUP3 PUSH2 0x3B17 JUMP JUMPDEST PUSH1 0x40 DUP3 ADD SWAP1 POP SWAP2 SWAP1 POP JUMP JUMPDEST PUSH1 0x0 PUSH1 0x20 DUP3 ADD SWAP1 POP DUP2 DUP2 SUB PUSH1 0x0 DUP4 ADD MSTORE PUSH2 0x3BA2 DUP2 PUSH2 0x3B66 JUMP JUMPDEST SWAP1 POP SWAP2 SWAP1 POP JUMP JUMPDEST PUSH32 0x4F6E6C792072656E7465722063616E207061792072656E740000000000000000 PUSH1 0x0 DUP3 ADD MSTORE POP JUMP JUMPDEST PUSH1 0x0 PUSH2 0x3BDF PUSH1 0x18 DUP4 PUSH2 0x3042 JUMP JUMPDEST SWAP2 POP PUSH2 0x3BEA DUP3 PUSH2 0x3BA9 JUMP JUMPDEST PUSH1 0x20 DUP3 ADD SWAP1 POP SWAP2 SWAP1 POP JUMP JUMPDEST PUSH1 0x0 PUSH1 0x20 DUP3 ADD SWAP1 POP DUP2 DUP2 SUB PUSH1 0x0 DUP4 ADD MSTORE PUSH2 0x3C0E DUP2 PUSH2 0x3BD2 JUMP JUMPDEST SWAP1 POP SWAP2 SWAP1 POP JUMP JUMPDEST PUSH32 0x52656E7420666F722074686973206D6F6E74682068617320616C726561647920 PUSH1 0x0 DUP3 ADD MSTORE PUSH32 0x6265656E20706169640000000000000000000000000000000000000000000000 PUSH1 0x20 DUP3 ADD MSTORE POP JUMP JUMPDEST PUSH1 0x0 PUSH2 0x3C71 PUSH1 0x29 DUP4 PUSH2 0x3042 JUMP JUMPDEST SWAP2 POP PUSH2 0x3C7C DUP3 PUSH2 0x3C15 JUMP JUMPDEST PUSH1 0x40 DUP3 ADD SWAP1 POP SWAP2 SWAP1 POP JUMP JUMPDEST PUSH1 0x0 PUSH1 0x20 DUP3 ADD SWAP1 POP DUP2 DUP2 SUB PUSH1 0x0 DUP4 ADD MSTORE PUSH2 0x3CA0 DUP2 PUSH2 0x3C64 JUMP JUMPDEST SWAP1 POP SWAP2 SWAP1 POP JUMP JUMPDEST PUSH32 0x5574696C697469657320666F722074686973206D6F6E74682068617665206E6F PUSH1 0x0 DUP3 ADD MSTORE PUSH32 0x74206265656E207265636F726465640000000000000000000000000000000000 PUSH1 0x20 DUP3 ADD MSTORE POP JUMP JUMPDEST PUSH1 0x0 PUSH2 0x3D03 PUSH1 0x2F DUP4 PUSH2 0x3042 JUMP JUMPDEST SWAP2 POP PUSH2 0x3D0E DUP3 PUSH2 0x3CA7 JUMP JUMPDEST PUSH1 0x40 DUP3 ADD SWAP1 POP SWAP2 SWAP1 POP JUMP JUMPDEST PUSH1 0x0 PUSH1 0x20 DUP3 ADD SWAP1 POP DUP2 DUP2 SUB PUSH1 0x0 DUP4 ADD MSTORE PUSH2 0x3D32 DUP2 PUSH2 0x3CF6 JUMP JUMPDEST SWAP1 POP SWAP2 SWAP1 POP JUMP JUMPDEST PUSH32 0x496E636F72726563742072656E7420616D6F756E740000000000000000000000 PUSH1 0x0 DUP3 ADD MSTORE POP JUMP JUMPDEST PUSH1 0x0 PUSH2 0x3D6F PUSH1 0x15 DUP4 PUSH2 0x3042 JUMP JUMPDEST SWAP2 POP PUSH2 0x3D7A DUP3 PUSH2 0x3D39 JUMP JUMPDEST PUSH1 0x20 DUP3 ADD SWAP1 POP SWAP2 SWAP1 POP JUMP JUMPDEST PUSH1 0x0 PUSH1 0x20 DUP3 ADD SWAP1 POP DUP2 DUP2 SUB PUSH1 0x0 DUP4 ADD MSTORE PUSH2 0x3D9E DUP2 PUSH2 0x3D62 JUMP JUMPDEST SWAP1 POP SWAP2 SWAP1 POP JUMP JUMPDEST PUSH1 0x0 PUSH2 0x3DB0 DUP3 PUSH2 0x2DA9 JUMP JUMPDEST SWAP2 POP PUSH32 0xFFFFFFFFFFFFFFFFFFFFFFFFFFFFFFFFFFFFFFFFFFFFFFFFFFFFFFFFFFFFFFFF DUP3 SUB PUSH2 0x3DE2 JUMPI PUSH2 0x3DE1 PUSH2 0x3478 JUMP JUMPDEST JUMPDEST PUSH1 0x1 DUP3 ADD SWAP1 POP SWAP2 SWAP1 POP JUMP JUMPDEST PUSH32 0x4F6E6C792072656E7465722063616E207365742074686520636F756E74657220 PUSH1 0x0 DUP3 ADD MSTORE PUSH32 0x657374696D617465000000000000000000000000000000000000000000000000 PUSH1 0x20 DUP3 ADD MSTORE POP JUMP JUMPDEST PUSH1 0x0 PUSH2 0x3E49 PUSH1 0x28 DUP4 PUSH2 0x3042 JUMP JUMPDEST SWAP2 POP PUSH2 0x3E54 DUP3 PUSH2 0x3DED JUMP JUMPDEST PUSH1 0x40 DUP3 ADD SWAP1 POP SWAP2 SWAP1 POP JUMP JUMPDEST PUSH1 0x0 PUSH1 0x20 DUP3 ADD SWAP1 POP DUP2 DUP2 SUB PUSH1 0x0 DUP4 ADD MSTORE PUSH2 0x3E78 DUP2 PUSH2 0x3E3C JUMP JUMPDEST SWAP1 POP SWAP2 SWAP1 POP JUMP JUMPDEST PUSH32 0x4C616E646C6F7264206D757374207365742064616D61676520657374696D6174 PUSH1 0x0 DUP3 ADD MSTORE PUSH32 0x6520666972737400000000000000000000000000000000000000000000000000 PUSH1 0x20 DUP3 ADD MSTORE POP JUMP JUMPDEST PUSH1 0x0 PUSH2 0x3EDB PUSH1 0x27 DUP4 PUSH2 0x3042 JUMP JUMPDEST SWAP2 POP PUSH2 0x3EE6 DUP3 PUSH2 0x3E7F JUMP JUMPDEST PUSH1 0x40 DUP3 ADD SWAP1 POP SWAP2 SWAP1 POP JUMP JUMPDEST PUSH1 0x0 PUSH1 0x20 DUP3 ADD SWAP1 POP DUP2 DUP2 SUB PUSH1 0x0 DUP4 ADD MSTORE PUSH2 0x3F0A DUP2 PUSH2 0x3ECE JUMP JUMPDEST SWAP1 POP SWAP2 SWAP1 POP JUMP JUMPDEST PUSH32 0x4F6E6C792072656E7465722063616E20736B69702072656E74207061796D656E PUSH1 0x0 DUP3 ADD MSTORE PUSH32 0x7400000000000000000000000000000000000000000000000000000000000000 PUSH1 0x20 DUP3 ADD MSTORE POP JUMP JUMPDEST PUSH1 0x0 PUSH2 0x3F6D PUSH1 0x21 DUP4 PUSH2 0x3042 JUMP JUMPDEST SWAP2 POP PUSH2 0x3F78 DUP3 PUSH2 0x3F11 JUMP JUMPDEST PUSH1 0x40 DUP3 ADD SWAP1 POP SWAP2 SWAP1 POP JUMP JUMPDEST PUSH1 0x0 PUSH1 0x20 DUP3 ADD SWAP1 POP DUP2 DUP2 SUB PUSH1 0x0 DUP4 ADD MSTORE PUSH2 0x3F9C DUP2 PUSH2 0x3F60 JUMP JUMPDEST SWAP1 POP SWAP2 SWAP1 POP JUMP JUMPDEST PUSH32 0x4F6E6C79206C616E646C6F72642063616E207365742061677265656D656E7420 PUSH1 0x0 DUP3 ADD MSTORE PUSH32 0x7465726D73000000000000000000000000000000000000000000000000000000 PUSH1 0x20 DUP3 ADD MSTORE POP JUMP JUMPDEST PUSH1 0x0 PUSH2 0x3FFF PUSH1 0x25 DUP4 PUSH2 0x3042 JUMP JUMPDEST SWAP2 POP PUSH2 0x400A DUP3 PUSH2 0x3FA3 JUMP JUMPDEST PUSH1 0x40 DUP3 ADD SWAP1 POP SWAP2 SWAP1 POP JUMP JUMPDEST PUSH1 0x0 PUSH1 0x20 DUP3 ADD SWAP1 POP DUP2 DUP2 SUB PUSH1 0x0 DUP4 ADD MSTORE PUSH2 0x402E DUP2 PUSH2 0x3FF2 JUMP JUMPDEST SWAP1 POP SWAP2 SWAP1 POP JUMP JUMPDEST PUSH1 0x0 PUSH1 0x60 DUP3 ADD SWAP1 POP PUSH2 0x404A PUSH1 0x0 DUP4 ADD DUP7 PUSH2 0x2DB3 JUMP JUMPDEST PUSH2 0x4057 PUSH1 0x20 DUP4 ADD DUP6 PUSH2 0x2DB3 JUMP JUMPDEST PUSH2 0x4064 PUSH1 0x40 DUP4 ADD DUP5 PUSH2 0x2DB3 JUMP JUMPDEST SWAP5 SWAP4 POP POP POP POP JUMP JUMPDEST PUSH32 0x4F6E6C792072656E7465722063616E2072656A6563742074686520657374696D PUSH1 0x0 DUP3 ADD MSTORE PUSH32 0x6174650000000000000000000000000000000000000000000000000000000000 PUSH1 0x20 DUP3 ADD MSTORE POP JUMP JUMPDEST PUSH1 0x0 PUSH2 0x40C8 PUSH1 0x23 DUP4 PUSH2 0x3042 JUMP JUMPDEST SWAP2 POP PUSH2 0x40D3 DUP3 PUSH2 0x406C JUMP JUMPDEST PUSH1 0x40 DUP3 ADD SWAP1 POP SWAP2 SWAP1 POP JUMP JUMPDEST PUSH1 0x0 PUSH1 0x20 DUP3 ADD SWAP1 POP DUP2 DUP2 SUB PUSH1 0x0 DUP4 ADD MSTORE PUSH2 0x40F7 DUP2 PUSH2 0x40BB JUMP JUMPDEST SWAP1 POP SWAP2 SWAP1 POP JUMP JUMPDEST PUSH32 0x4F6E6C792072656E7465722063616E206163636570742074686520657374696D PUSH1 0x0 DUP3 ADD MSTORE PUSH32 0x6174650000000000000000000000000000000000000000000000000000000000 PUSH1 0x20 DUP3 ADD MSTORE POP JUMP JUMPDEST PUSH1 0x0 PUSH2 0x415A PUSH1 0x23 DUP4 PUSH2 0x3042 JUMP JUMPDEST SWAP2 POP PUSH2 0x4165 DUP3 PUSH2 0x40FE JUMP JUMPDEST PUSH1 0x40 DUP3 ADD SWAP1 POP SWAP2 SWAP1 POP JUMP JUMPDEST PUSH1 0x0 PUSH1 0x20 DUP3 ADD SWAP1 POP DUP2 DUP2 SUB PUSH1 0x0 DUP4 ADD MSTORE PUSH2 0x4189 DUP2 PUSH2 0x414D JUMP JUMPDEST SWAP1 POP SWAP2 SWAP1 POP JUMP JUMPDEST PUSH32 0x4F6E6C79206C616E646C6F72642063616E206163636570742074686520636F75 PUSH1 0x0 DUP3 ADD MSTORE PUSH32 0x6E74657220657374696D61746500000000000000000000000000000000000000 PUSH1 0x20 DUP3 ADD MSTORE POP JUMP JUMPDEST PUSH1 0x0 PUSH2 0x41EC PUSH1 0x2D DUP4 PUSH2 0x3042 JUMP JUMPDEST SWAP2 POP PUSH2 0x41F7 DUP3 PUSH2 0x4190 JUMP JUMPDEST PUSH1 0x40 DUP3 ADD SWAP1 POP SWAP2 SWAP1 POP JUMP JUMPDEST PUSH1 0x0 PUSH1 0x20 DUP3 ADD SWAP1 POP DUP2 DUP2 SUB PUSH1 0x0 DUP4 ADD MSTORE PUSH2 0x421B DUP2 PUSH2 0x41DF JUMP JUMPDEST SWAP1 POP SWAP2 SWAP1 POP JUMP JUMPDEST PUSH32 0x4469737075746520616C72656164792072616973656400000000000000000000 PUSH1 0x0 DUP3 ADD MSTORE POP JUMP JUMPDEST PUSH1 0x0 PUSH2 0x4258 PUSH1 0x16 DUP4 PUSH2 0x3042 JUMP JUMPDEST SWAP2 POP PUSH2 0x4263 DUP3 PUSH2 0x4222 JUMP JUMPDEST PUSH1 0x20 DUP3 ADD SWAP1 POP SWAP2 SWAP1 POP JUMP JUMPDEST PUSH1 0x0 PUSH1 0x20 DUP3 ADD SWAP1 POP DUP2 DUP2 SUB PUSH1 0x0 DUP4 ADD MSTORE PUSH2 0x4287 DUP2 PUSH2 0x424B JUMP JUMPDEST SWAP1 POP SWAP2 SWAP1 POP JUMP JUMPDEST PUSH32 0x426F746820657374696D61746573206D75737420626520736574206265666F72 PUSH1 0x0 DUP3 ADD MSTORE PUSH32 0x652072616973696E672061206469737075746500000000000000000000000000 PUSH1 0x20 DUP3 ADD MSTORE POP JUMP JUMPDEST PUSH1 0x0 PUSH2 0x42EA PUSH1 0x33 DUP4 PUSH2 0x3042 JUMP JUMPDEST SWAP2 POP PUSH2 0x42F5 DUP3 PUSH2 0x428E JUMP JUMPDEST PUSH1 0x40 DUP3 ADD SWAP1 POP SWAP2 SWAP1 POP JUMP JUMPDEST PUSH1 0x0 PUSH1 0x20 DUP3 ADD SWAP1 POP DUP2 DUP2 SUB PUSH1 0x0 DUP4 ADD MSTORE PUSH2 0x4319 DUP2 PUSH2 0x42DD JUMP JUMPDEST SWAP1 POP SWAP2 SWAP1 POP JUMP JUMPDEST PUSH1 0x0 DUP2 SWAP1 POP SWAP2 SWAP1 POP JUMP JUMPDEST PUSH1 0x0 PUSH2 0x4345 PUSH2 0x4340 PUSH2 0x433B DUP5 PUSH2 0x4320 JUMP JUMPDEST PUSH2 0x2ED7 JUMP JUMPDEST PUSH2 0x2DA9 JUMP JUMPDEST SWAP1 POP SWAP2 SWAP1 POP JUMP JUMPDEST PUSH2 0x4355 DUP2 PUSH2 0x432A JUMP JUMPDEST DUP3 MSTORE POP POP JUMP JUMPDEST PUSH1 0x0 PUSH1 0x40 DUP3 ADD SWAP1 POP PUSH2 0x4370 PUSH1 0x0 DUP4 ADD DUP5 PUSH2 0x434C JUMP JUMPDEST DUP2 DUP2 SUB PUSH1 0x20 DUP4 ADD MSTORE PUSH2 0x4381 DUP2 PUSH2 0x3361 JUMP JUMPDEST SWAP1 POP SWAP3 SWAP2 POP POP JUMP INVALID LOG2 PUSH5 0x6970667358 0x22 SLT KECCAK256 GT DUP12 PUSH27 0x9BE853F95E724542A52F703075E640A5F70DA49CD804CE95F65E4 0xE0 0xBF PUSH5 0x736F6C6343 STOP ADDMOD SLT STOP CALLER "
		},
		"gasEstimates": {
			"creation": {
				"codeDepositCost": "3468600",
				"executionCost": "infinite",
				"totalCost": "infinite"
			},
			"external": {
				"acceptLandlordEstimate()": "infinite",
				"acceptRenterCounterEstimate()": "infinite",
				"activateContract()": "75209",
				"arbitrationCost()": "2496",
				"baseRent()": "2498",
				"currentMonth()": "2541",
				"currentSecurityDeposit()": "2496",
				"damageEstimate()": "2564",
				"disputeID()": "2518",
				"disputeRaised()": "2568",
				"dueRent()": "2518",
				"getArbitrationCost()": "infinite",
				"getContractBalance()": "450",
				"getCurrentSecurityDeposit()": "2483",
				"getLandlordBalance()": "4817",
				"getRenterBalance()": "4818",
				"isActive()": "2539",
				"isRentalPeriodEnded()": "2574",
				"isSecurityDepositPaid()": "2631",
				"kleros()": "infinite",
				"landlord()": "2622",
				"landlordAccepted()": "2632",
				"landlordEstimateSet()": "2654",
				"monthlyRents(uint256)": "infinite",
				"payRent()": "infinite",
				"paySecurityDeposit()": "32231",
				"pendingWithdrawals(address)": "2946",
				"recordUtilities(uint256)": "infinite",
				"rejectLandlordEstimate()": "5427",
				"rejectRenterCounterEstimate()": "infinite",
				"rentPeriodInMonths()": "2563",
				"rentStartDate()": "2497",
				"rentalPeriodEnded()": "2611",
				"renter()": "2604",
				"renterAccepted()": "2566",
				"renterCounterEstimate()": "2519",
				"renterCounterEstimateSet()": "2567",
				"rule(uint256,uint256)": "infinite",
				"securityDeposit()": "2475",
				"setAgreementTerms(uint256,uint256,uint256)": "infinite",
				"setDamageEstimate(uint256)": "infinite",
				"setRenterCounterEstimate(uint256)": "infinite",
				"skipRentPayment()": "infinite",
				"withdraw()": "infinite"
			},
			"internal": {
				"endContract()": "infinite",
				"raiseDispute()": "infinite"
			}
		},
		"methodIdentifiers": {
			"acceptLandlordEstimate()": "dd6bcb16",
			"acceptRenterCounterEstimate()": "eaa0a302",
			"activateContract()": "8fda356d",
			"arbitrationCost()": "697b05a2",
			"baseRent()": "04a2286a",
			"currentMonth()": "862a4d47",
			"currentSecurityDeposit()": "d261c91f",
			"damageEstimate()": "1a576049",
			"disputeID()": "b0a1e2b4",
			"disputeRaised()": "004422eb",
			"dueRent()": "6f3c590c",
			"getArbitrationCost()": "63022560",
			"getContractBalance()": "6f9fb98a",
			"getCurrentSecurityDeposit()": "779318e5",
			"getLandlordBalance()": "feeaea4e",
			"getRenterBalance()": "740906c0",
			"isActive()": "22f3e2d4",
			"isRentalPeriodEnded()": "cbe615b1",
			"isSecurityDepositPaid()": "f13702f4",
			"kleros()": "5a920320",
			"landlord()": "dc1997ea",
			"landlordAccepted()": "b602ea60",
			"landlordEstimateSet()": "71357a46",
			"monthlyRents(uint256)": "e1505e4e",
			"payRent()": "a709c4fe",
			"paySecurityDeposit()": "42c63dae",
			"pendingWithdrawals(address)": "f3f43703",
			"recordUtilities(uint256)": "7ef98740",
			"rejectLandlordEstimate()": "dcf2559e",
			"rejectRenterCounterEstimate()": "1890fc37",
			"rentPeriodInMonths()": "87eaa342",
			"rentStartDate()": "561eefd8",
			"rentalPeriodEnded()": "5a0e9bcc",
			"renter()": "2e88ab0b",
			"renterAccepted()": "65a746e9",
			"renterCounterEstimate()": "81d388ba",
			"renterCounterEstimateSet()": "47ed9c65",
			"rule(uint256,uint256)": "311a6c56",
			"securityDeposit()": "220e5ab3",
			"setAgreementTerms(uint256,uint256,uint256)": "d738307c",
			"setDamageEstimate(uint256)": "08c59798",
			"setRenterCounterEstimate(uint256)": "c2d6d462",
			"skipRentPayment()": "ca088031",
			"withdraw()": "3ccfd60b"
		}
	},
	"abi": [
		{
			"inputs": [
				{
					"internalType": "address",
					"name": "_renter",
					"type": "address"
				},
				{
					"internalType": "address",
					"name": "_klerosAddress",
					"type": "address"
				}
			],
			"stateMutability": "nonpayable",
			"type": "constructor"
		},
		{
			"anonymous": false,
			"inputs": [
				{
					"indexed": false,
					"internalType": "uint256",
					"name": "securityDeposit",
					"type": "uint256"
				},
				{
					"indexed": false,
					"internalType": "uint256",
					"name": "baseRent",
					"type": "uint256"
				},
				{
					"indexed": false,
					"internalType": "uint256",
					"name": "rentPeriodInMonths",
					"type": "uint256"
				}
			],
			"name": "AgreementTermsSet",
			"type": "event"
		},
		{
			"anonymous": false,
			"inputs": [
				{
					"indexed": false,
					"internalType": "uint256",
					"name": "securityDepositReturned",
					"type": "uint256"
				},
				{
					"indexed": false,
					"internalType": "uint256",
					"name": "dueAmountPaid",
					"type": "uint256"
				}
			],
			"name": "ContractEnded",
			"type": "event"
		},
		{
			"anonymous": false,
			"inputs": [],
			"name": "CounterEstimateAccepted",
			"type": "event"
		},
		{
			"anonymous": false,
			"inputs": [],
			"name": "CounterEstimateRejected",
			"type": "event"
		},
		{
			"anonymous": false,
			"inputs": [
				{
					"indexed": false,
					"internalType": "uint256",
					"name": "counterEstimate",
					"type": "uint256"
				}
			],
			"name": "CounterEstimateSet",
			"type": "event"
		},
		{
			"anonymous": false,
			"inputs": [
				{
					"indexed": false,
					"internalType": "uint256",
					"name": "estimate",
					"type": "uint256"
				}
			],
			"name": "DamageEstimateSet",
			"type": "event"
		},
		{
			"anonymous": false,
			"inputs": [
				{
					"indexed": false,
					"internalType": "uint256",
					"name": "disputeID",
					"type": "uint256"
				}
			],
			"name": "DisputeRaised",
			"type": "event"
		},
		{
			"anonymous": false,
			"inputs": [
				{
					"indexed": false,
					"internalType": "uint256",
					"name": "disputeID",
					"type": "uint256"
				},
				{
					"indexed": false,
					"internalType": "uint256",
					"name": "ruling",
					"type": "uint256"
				}
			],
			"name": "DisputeResolved",
			"type": "event"
		},
		{
			"anonymous": false,
			"inputs": [],
			"name": "EstimateRejected",
			"type": "event"
		},
		{
			"anonymous": false,
			"inputs": [
				{
					"indexed": true,
					"internalType": "address",
					"name": "to",
					"type": "address"
				},
				{
					"indexed": false,
					"internalType": "uint256",
					"name": "amount",
					"type": "uint256"
				}
			],
			"name": "FundsTransferred",
			"type": "event"
		},
		{
			"anonymous": false,
			"inputs": [
				{
					"indexed": false,
					"internalType": "uint256",
					"name": "month",
					"type": "uint256"
				},
				{
					"indexed": false,
					"internalType": "uint256",
					"name": "amount",
					"type": "uint256"
				}
			],
			"name": "RentPaid",
			"type": "event"
		},
		{
			"anonymous": false,
			"inputs": [
				{
					"indexed": false,
					"internalType": "uint256",
					"name": "month",
					"type": "uint256"
				},
				{
					"indexed": false,
					"internalType": "uint256",
					"name": "amount",
					"type": "uint256"
				}
			],
			"name": "RentSkipped",
			"type": "event"
		},
		{
			"anonymous": false,
			"inputs": [
				{
					"indexed": false,
					"internalType": "uint256",
					"name": "month",
					"type": "uint256"
				},
				{
					"indexed": false,
					"internalType": "uint256",
					"name": "amount",
					"type": "uint256"
				}
			],
			"name": "RentTransferred",
			"type": "event"
		},
		{
			"anonymous": false,
			"inputs": [
				{
					"indexed": false,
					"internalType": "uint256",
					"name": "amount",
					"type": "uint256"
				}
			],
			"name": "SecurityDepositPaid",
			"type": "event"
		},
		{
			"anonymous": false,
			"inputs": [
				{
					"indexed": false,
					"internalType": "uint256",
					"name": "month",
					"type": "uint256"
				},
				{
					"indexed": false,
					"internalType": "uint256",
					"name": "amount",
					"type": "uint256"
				}
			],
			"name": "UtilitiesRecorded",
			"type": "event"
		},
		{
			"anonymous": false,
			"inputs": [
				{
					"indexed": true,
					"internalType": "address",
					"name": "by",
					"type": "address"
				},
				{
					"indexed": false,
					"internalType": "uint256",
					"name": "amount",
					"type": "uint256"
				}
			],
			"name": "WithdrawalRequested",
			"type": "event"
		},
		{
			"inputs": [],
			"name": "acceptLandlordEstimate",
			"outputs": [],
			"stateMutability": "nonpayable",
			"type": "function"
		},
		{
			"inputs": [],
			"name": "acceptRenterCounterEstimate",
			"outputs": [],
			"stateMutability": "nonpayable",
			"type": "function"
		},
		{
			"inputs": [],
			"name": "activateContract",
			"outputs": [],
			"stateMutability": "nonpayable",
			"type": "function"
		},
		{
			"inputs": [],
			"name": "arbitrationCost",
			"outputs": [
				{
					"internalType": "uint256",
					"name": "",
					"type": "uint256"
				}
			],
			"stateMutability": "view",
			"type": "function"
		},
		{
			"inputs": [],
			"name": "baseRent",
			"outputs": [
				{
					"internalType": "uint256",
					"name": "",
					"type": "uint256"
				}
			],
			"stateMutability": "view",
			"type": "function"
		},
		{
			"inputs": [],
			"name": "currentMonth",
			"outputs": [
				{
					"internalType": "uint256",
					"name": "",
					"type": "uint256"
				}
			],
			"stateMutability": "view",
			"type": "function"
		},
		{
			"inputs": [],
			"name": "currentSecurityDeposit",
			"outputs": [
				{
					"internalType": "uint256",
					"name": "",
					"type": "uint256"
				}
			],
			"stateMutability": "view",
			"type": "function"
		},
		{
			"inputs": [],
			"name": "damageEstimate",
			"outputs": [
				{
					"internalType": "uint256",
					"name": "",
					"type": "uint256"
				}
			],
			"stateMutability": "view",
			"type": "function"
		},
		{
			"inputs": [],
			"name": "disputeID",
			"outputs": [
				{
					"internalType": "uint256",
					"name": "",
					"type": "uint256"
				}
			],
			"stateMutability": "view",
			"type": "function"
		},
		{
			"inputs": [],
			"name": "disputeRaised",
			"outputs": [
				{
					"internalType": "bool",
					"name": "",
					"type": "bool"
				}
			],
			"stateMutability": "view",
			"type": "function"
		},
		{
			"inputs": [],
			"name": "dueRent",
			"outputs": [
				{
					"internalType": "uint256",
					"name": "",
					"type": "uint256"
				}
			],
			"stateMutability": "view",
			"type": "function"
		},
		{
			"inputs": [],
			"name": "getArbitrationCost",
			"outputs": [
				{
					"internalType": "uint256",
					"name": "",
					"type": "uint256"
				}
			],
			"stateMutability": "view",
			"type": "function"
		},
		{
			"inputs": [],
			"name": "getContractBalance",
			"outputs": [
				{
					"internalType": "uint256",
					"name": "",
					"type": "uint256"
				}
			],
			"stateMutability": "view",
			"type": "function"
		},
		{
			"inputs": [],
			"name": "getCurrentSecurityDeposit",
			"outputs": [
				{
					"internalType": "uint256",
					"name": "",
					"type": "uint256"
				}
			],
			"stateMutability": "view",
			"type": "function"
		},
		{
			"inputs": [],
			"name": "getLandlordBalance",
			"outputs": [
				{
					"internalType": "uint256",
					"name": "",
					"type": "uint256"
				}
			],
			"stateMutability": "view",
			"type": "function"
		},
		{
			"inputs": [],
			"name": "getRenterBalance",
			"outputs": [
				{
					"internalType": "uint256",
					"name": "",
					"type": "uint256"
				}
			],
			"stateMutability": "view",
			"type": "function"
		},
		{
			"inputs": [],
			"name": "isActive",
			"outputs": [
				{
					"internalType": "bool",
					"name": "",
					"type": "bool"
				}
			],
			"stateMutability": "view",
			"type": "function"
		},
		{
			"inputs": [],
			"name": "isRentalPeriodEnded",
			"outputs": [
				{
					"internalType": "bool",
					"name": "",
					"type": "bool"
				}
			],
			"stateMutability": "view",
			"type": "function"
		},
		{
			"inputs": [],
			"name": "isSecurityDepositPaid",
			"outputs": [
				{
					"internalType": "bool",
					"name": "",
					"type": "bool"
				}
			],
			"stateMutability": "view",
			"type": "function"
		},
		{
			"inputs": [],
			"name": "kleros",
			"outputs": [
				{
					"internalType": "contract IArbitrator",
					"name": "",
					"type": "address"
				}
			],
			"stateMutability": "view",
			"type": "function"
		},
		{
			"inputs": [],
			"name": "landlord",
			"outputs": [
				{
					"internalType": "address",
					"name": "",
					"type": "address"
				}
			],
			"stateMutability": "view",
			"type": "function"
		},
		{
			"inputs": [],
			"name": "landlordAccepted",
			"outputs": [
				{
					"internalType": "bool",
					"name": "",
					"type": "bool"
				}
			],
			"stateMutability": "view",
			"type": "function"
		},
		{
			"inputs": [],
			"name": "landlordEstimateSet",
			"outputs": [
				{
					"internalType": "bool",
					"name": "",
					"type": "bool"
				}
			],
			"stateMutability": "view",
			"type": "function"
		},
		{
			"inputs": [
				{
					"internalType": "uint256",
					"name": "",
					"type": "uint256"
				}
			],
			"name": "monthlyRents",
			"outputs": [
				{
					"internalType": "uint256",
					"name": "baseRent",
					"type": "uint256"
				},
				{
					"internalType": "uint256",
					"name": "utilities",
					"type": "uint256"
				},
				{
					"internalType": "uint256",
					"name": "due",
					"type": "uint256"
				},
				{
					"internalType": "bool",
					"name": "paid",
					"type": "bool"
				}
			],
			"stateMutability": "view",
			"type": "function"
		},
		{
			"inputs": [],
			"name": "payRent",
			"outputs": [],
			"stateMutability": "payable",
			"type": "function"
		},
		{
			"inputs": [],
			"name": "paySecurityDeposit",
			"outputs": [],
			"stateMutability": "payable",
			"type": "function"
		},
		{
			"inputs": [
				{
					"internalType": "address",
					"name": "",
					"type": "address"
				}
			],
			"name": "pendingWithdrawals",
			"outputs": [
				{
					"internalType": "uint256",
					"name": "",
					"type": "uint256"
				}
			],
			"stateMutability": "view",
			"type": "function"
		},
		{
			"inputs": [
				{
					"internalType": "uint256",
					"name": "_utilities",
					"type": "uint256"
				}
			],
			"name": "recordUtilities",
			"outputs": [],
			"stateMutability": "nonpayable",
			"type": "function"
		},
		{
			"inputs": [],
			"name": "rejectLandlordEstimate",
			"outputs": [],
			"stateMutability": "nonpayable",
			"type": "function"
		},
		{
			"inputs": [],
			"name": "rejectRenterCounterEstimate",
			"outputs": [],
			"stateMutability": "nonpayable",
			"type": "function"
		},
		{
			"inputs": [],
			"name": "rentPeriodInMonths",
			"outputs": [
				{
					"internalType": "uint256",
					"name": "",
					"type": "uint256"
				}
			],
			"stateMutability": "view",
			"type": "function"
		},
		{
			"inputs": [],
			"name": "rentStartDate",
			"outputs": [
				{
					"internalType": "uint256",
					"name": "",
					"type": "uint256"
				}
			],
			"stateMutability": "view",
			"type": "function"
		},
		{
			"inputs": [],
			"name": "rentalPeriodEnded",
			"outputs": [
				{
					"internalType": "bool",
					"name": "",
					"type": "bool"
				}
			],
			"stateMutability": "view",
			"type": "function"
		},
		{
			"inputs": [],
			"name": "renter",
			"outputs": [
				{
					"internalType": "address",
					"name": "",
					"type": "address"
				}
			],
			"stateMutability": "view",
			"type": "function"
		},
		{
			"inputs": [],
			"name": "renterAccepted",
			"outputs": [
				{
					"internalType": "bool",
					"name": "",
					"type": "bool"
				}
			],
			"stateMutability": "view",
			"type": "function"
		},
		{
			"inputs": [],
			"name": "renterCounterEstimate",
			"outputs": [
				{
					"internalType": "uint256",
					"name": "",
					"type": "uint256"
				}
			],
			"stateMutability": "view",
			"type": "function"
		},
		{
			"inputs": [],
			"name": "renterCounterEstimateSet",
			"outputs": [
				{
					"internalType": "bool",
					"name": "",
					"type": "bool"
				}
			],
			"stateMutability": "view",
			"type": "function"
		},
		{
			"inputs": [
				{
					"internalType": "uint256",
					"name": "_disputeID",
					"type": "uint256"
				},
				{
					"internalType": "uint256",
					"name": "_ruling",
					"type": "uint256"
				}
			],
			"name": "rule",
			"outputs": [],
			"stateMutability": "nonpayable",
			"type": "function"
		},
		{
			"inputs": [],
			"name": "securityDeposit",
			"outputs": [
				{
					"internalType": "uint256",
					"name": "",
					"type": "uint256"
				}
			],
			"stateMutability": "view",
			"type": "function"
		},
		{
			"inputs": [
				{
					"internalType": "uint256",
					"name": "_securityDeposit",
					"type": "uint256"
				},
				{
					"internalType": "uint256",
					"name": "_baseRent",
					"type": "uint256"
				},
				{
					"internalType": "uint256",
					"name": "_rentPeriodInMonths",
					"type": "uint256"
				}
			],
			"name": "setAgreementTerms",
			"outputs": [],
			"stateMutability": "nonpayable",
			"type": "function"
		},
		{
			"inputs": [
				{
					"internalType": "uint256",
					"name": "_damageEstimate",
					"type": "uint256"
				}
			],
			"name": "setDamageEstimate",
			"outputs": [],
			"stateMutability": "nonpayable",
			"type": "function"
		},
		{
			"inputs": [
				{
					"internalType": "uint256",
					"name": "_renterCounterEstimate",
					"type": "uint256"
				}
			],
			"name": "setRenterCounterEstimate",
			"outputs": [],
			"stateMutability": "nonpayable",
			"type": "function"
		},
		{
			"inputs": [],
			"name": "skipRentPayment",
			"outputs": [],
			"stateMutability": "nonpayable",
			"type": "function"
		},
		{
			"inputs": [],
			"name": "withdraw",
			"outputs": [],
			"stateMutability": "nonpayable",
			"type": "function"
		},
		{
			"stateMutability": "payable",
			"type": "receive"
		}
	]
}